{
  "address": "0x15911b4B6fBDb83967919E2e2CD6259d7E703F8A",
  "abi": [
    {
      "inputs": [
        {
          "internalType": "address",
          "name": "pool_",
          "type": "address"
        },
        {
          "internalType": "contract ISwap",
          "name": "saddlePool_",
          "type": "address"
        },
        {
          "internalType": "address",
          "name": "swapper_",
          "type": "address"
        },
        {
          "internalType": "address",
          "name": "receiptToken_",
          "type": "address"
        },
        {
          "internalType": "address",
          "name": "dripToken_",
          "type": "address"
        },
        {
          "internalType": "address",
          "name": "vsp_",
          "type": "address"
        },
        {
          "internalType": "string",
          "name": "name_",
          "type": "string"
        }
      ],
      "stateMutability": "nonpayable",
      "type": "constructor"
    },
    {
      "anonymous": false,
      "inputs": [
        {
          "indexed": false,
          "internalType": "uint256",
          "name": "oldDripPeriod",
          "type": "uint256"
        },
        {
          "indexed": false,
          "internalType": "uint256",
          "name": "newDripPeriod",
          "type": "uint256"
        }
      ],
      "name": "DripPeriodUpdated",
      "type": "event"
    },
    {
      "anonymous": false,
      "inputs": [
        {
          "indexed": true,
          "internalType": "address",
          "name": "previousFeeCollector",
          "type": "address"
        },
        {
          "indexed": true,
          "internalType": "address",
          "name": "newFeeCollector",
          "type": "address"
        }
      ],
      "name": "UpdatedFeeCollector",
      "type": "event"
    },
    {
      "anonymous": false,
      "inputs": [
        {
          "indexed": true,
          "internalType": "contract IRoutedSwapper",
          "name": "oldSwapper",
          "type": "address"
        },
        {
          "indexed": true,
          "internalType": "contract IRoutedSwapper",
          "name": "newSwapper",
          "type": "address"
        }
      ],
      "name": "UpdatedSwapper",
      "type": "event"
    },
    {
      "inputs": [],
      "name": "NAME",
      "outputs": [
        {
          "internalType": "string",
          "name": "",
          "type": "string"
        }
      ],
      "stateMutability": "view",
      "type": "function"
    },
    {
      "inputs": [],
      "name": "VERSION",
      "outputs": [
        {
          "internalType": "string",
          "name": "",
          "type": "string"
        }
      ],
      "stateMutability": "view",
      "type": "function"
    },
    {
      "inputs": [
        {
          "internalType": "address",
          "name": "_keeperAddress",
          "type": "address"
        }
      ],
      "name": "addKeeper",
      "outputs": [],
      "stateMutability": "nonpayable",
      "type": "function"
    },
    {
      "inputs": [],
      "name": "approveGrowToken",
      "outputs": [],
      "stateMutability": "nonpayable",
      "type": "function"
    },
    {
      "inputs": [],
      "name": "approveToken",
      "outputs": [],
      "stateMutability": "nonpayable",
      "type": "function"
    },
    {
      "inputs": [],
      "name": "collateral",
      "outputs": [
        {
          "internalType": "address",
          "name": "",
          "type": "address"
        }
      ],
      "stateMutability": "view",
      "type": "function"
    },
    {
      "inputs": [],
      "name": "collateralToken",
      "outputs": [
        {
          "internalType": "contract IERC20",
          "name": "",
          "type": "address"
        }
      ],
      "stateMutability": "view",
      "type": "function"
    },
    {
      "inputs": [],
      "name": "dripPeriod",
      "outputs": [
        {
          "internalType": "uint256",
          "name": "",
          "type": "uint256"
        }
      ],
      "stateMutability": "view",
      "type": "function"
    },
    {
      "inputs": [],
      "name": "dripToken",
      "outputs": [
        {
          "internalType": "address",
          "name": "",
          "type": "address"
        }
      ],
      "stateMutability": "view",
      "type": "function"
    },
    {
      "inputs": [],
      "name": "feeCollector",
      "outputs": [
        {
          "internalType": "address",
          "name": "",
          "type": "address"
        }
      ],
      "stateMutability": "view",
      "type": "function"
    },
    {
      "inputs": [],
      "name": "harvestVSP",
      "outputs": [],
      "stateMutability": "nonpayable",
      "type": "function"
    },
    {
      "inputs": [
        {
          "internalType": "address",
          "name": "token_",
          "type": "address"
        }
      ],
      "name": "isReservedToken",
      "outputs": [
        {
          "internalType": "bool",
          "name": "",
          "type": "bool"
        }
      ],
      "stateMutability": "view",
      "type": "function"
    },
    {
      "inputs": [],
      "name": "keepers",
      "outputs": [
        {
          "internalType": "address[]",
          "name": "",
          "type": "address[]"
        }
      ],
      "stateMutability": "view",
      "type": "function"
    },
    {
      "inputs": [
        {
          "internalType": "address",
          "name": "_newStrategy",
          "type": "address"
        }
      ],
      "name": "migrate",
      "outputs": [],
      "stateMutability": "nonpayable",
      "type": "function"
    },
    {
      "inputs": [],
      "name": "pool",
      "outputs": [
        {
          "internalType": "address",
          "name": "",
          "type": "address"
        }
      ],
      "stateMutability": "view",
      "type": "function"
    },
    {
      "inputs": [],
      "name": "rebalance",
      "outputs": [
        {
          "internalType": "uint256",
          "name": "_profit",
          "type": "uint256"
        },
        {
          "internalType": "uint256",
          "name": "_loss",
          "type": "uint256"
        },
        {
          "internalType": "uint256",
          "name": "_payback",
          "type": "uint256"
        }
      ],
      "stateMutability": "nonpayable",
      "type": "function"
    },
    {
      "inputs": [],
      "name": "receiptToken",
      "outputs": [
        {
          "internalType": "address",
          "name": "",
          "type": "address"
        }
      ],
      "stateMutability": "view",
      "type": "function"
    },
    {
      "inputs": [
        {
          "internalType": "address",
          "name": "_keeperAddress",
          "type": "address"
        }
      ],
      "name": "removeKeeper",
      "outputs": [],
      "stateMutability": "nonpayable",
      "type": "function"
    },
    {
      "inputs": [],
      "name": "saddlePool",
      "outputs": [
        {
          "internalType": "contract ISwap",
          "name": "",
          "type": "address"
        }
      ],
      "stateMutability": "view",
      "type": "function"
    },
    {
      "inputs": [],
      "name": "swapper",
      "outputs": [
        {
          "internalType": "contract IRoutedSwapper",
          "name": "",
          "type": "address"
        }
      ],
      "stateMutability": "view",
      "type": "function"
    },
    {
      "inputs": [
        {
          "internalType": "address",
          "name": "_fromToken",
          "type": "address"
        }
      ],
      "name": "sweepERC20",
      "outputs": [],
      "stateMutability": "nonpayable",
      "type": "function"
    },
    {
      "inputs": [],
      "name": "token",
      "outputs": [
        {
          "internalType": "address",
          "name": "",
          "type": "address"
        }
      ],
      "stateMutability": "view",
      "type": "function"
    },
    {
      "inputs": [],
      "name": "totalEarned",
      "outputs": [
        {
          "internalType": "uint256",
          "name": "",
          "type": "uint256"
        }
      ],
      "stateMutability": "view",
      "type": "function"
    },
    {
      "inputs": [],
      "name": "tvl",
      "outputs": [
        {
          "internalType": "uint256",
          "name": "",
          "type": "uint256"
        }
      ],
      "stateMutability": "view",
      "type": "function"
    },
    {
      "inputs": [
        {
          "internalType": "uint256",
          "name": "dripPeriod_",
          "type": "uint256"
        }
      ],
      "name": "updateDripPeriod",
      "outputs": [],
      "stateMutability": "nonpayable",
      "type": "function"
    },
    {
      "inputs": [
        {
          "internalType": "address",
          "name": "_feeCollector",
          "type": "address"
        }
      ],
      "name": "updateFeeCollector",
      "outputs": [],
      "stateMutability": "nonpayable",
      "type": "function"
    },
    {
      "inputs": [
        {
          "internalType": "contract IRoutedSwapper",
          "name": "_swapper",
          "type": "address"
        }
      ],
      "name": "updateSwapper",
      "outputs": [],
      "stateMutability": "nonpayable",
      "type": "function"
    },
    {
      "inputs": [
        {
          "internalType": "uint256",
          "name": "_amount",
          "type": "uint256"
        }
      ],
      "name": "withdraw",
      "outputs": [],
      "stateMutability": "nonpayable",
      "type": "function"
    }
  ],
  "transactionHash": "0xa93e34194a4bac31afb92a949e3ee372ad06592946c89cc39af1de31e490c65b",
  "args": [
    "0xecd7790FD35e5f529a63cf3E058b555F2Ff23234",
    "0x13Cc34Aa8037f722405285AD2C82FE570bfa2bdc",
    "0x8f156189A3CD28dFc8FB7BbbAce58F98F09c0bB3",
    "0xc14900dFB1Aa54e7674e1eCf9ce02b3b35157ba5",
    "0x927E6f04609A45B107C789aF34BA90Ebbf479f7f",
    "0x1b40183EFB4Dd766f11bDa7A7c3AD8982e998421",
    "Vesper_Earn_FRAX_FRAXBP"
  ],
  "numDeployments": 1,
  "solcInputHash": "1a89df90f0d531ba39cd97ac3d73fb47",
  "bytecode": "0x6101606040526202a3006006553480156200001957600080fd5b5060405162003fe638038062003fe68339810160408190526200003c91620004e1565b8685858585858286868685858484846001600160a01b038316620000a75760405162461bcd60e51b815260206004820152601460248201527f706f6f6c2d616464726573732d69732d7a65726f00000000000000000000000060448201526064015b60405180910390fd5b6001600160a01b038216620000ff5760405162461bcd60e51b815260206004820152601760248201527f737761707065722d616464726573732d69732d7a65726f00000000000000000060448201526064016200009e565b600280546001600160a01b0319166001600160a01b0384811691909117909155831660a081905260408051637e062a3560e11b8152905163fc0c546a91600480820192602092909190829003018186803b1580156200015d57600080fd5b505afa15801562000172573d6000803e3d6000fd5b505050506040513d601f19601f8201168201806040525081019062000198919062000642565b6001600160a01b03908116608052600080546001600160a01b031916918316919091179055620001df620001c93390565b60036200039a60201b620019e71790919060201c565b620002215760405162461bcd60e51b81526020600482015260116024820152701859190b5ad9595c195c8b59985a5b1959607a1b60448201526064016200009e565b5050506001600160a01b038316620002715760405162461bcd60e51b8152602060048201526012602482015271373ab63616b932b1b2b4b83a16ba37b5b2b760711b60448201526064016200009e565b6001600160a01b03831660e0528051620002939060059060208401906200040c565b50506001600160a01b0390811660c052841615159250620002eb9150505760405162461bcd60e51b815260206004820152600e60248201526d64726970546f6b656e2d7a65726f60901b60448201526064016200009e565b6001600160a01b03908116610100528c166101208190526080516040516319b02f4960e21b81529197506366c0bd24965062000331955093506004019150620006699050565b60206040518083038186803b1580156200034a57600080fd5b505afa1580156200035f573d6000803e3d6000fd5b505050506040513d601f19601f820116820180604052508101906200038591906200067d565b60ff166101405250620006df95505050505050565b6000620003b1836001600160a01b038416620003ba565b90505b92915050565b60008181526001830160205260408120546200040357508154600181810184556000848152602080822090930184905584548482528286019093526040902091909155620003b4565b506000620003b4565b8280546200041a90620006a2565b90600052602060002090601f0160209004810192826200043e576000855562000489565b82601f106200045957805160ff191683800117855562000489565b8280016001018555821562000489579182015b82811115620004895782518255916020019190600101906200046c565b50620004979291506200049b565b5090565b5b808211156200049757600081556001016200049c565b6001600160a01b0381168114620004c857600080fd5b50565b634e487b7160e01b600052604160045260246000fd5b600080600080600080600060e0888a031215620004fd57600080fd5b87516200050a81620004b2565b809750506020808901516200051f81620004b2565b60408a01519097506200053281620004b2565b60608a01519096506200054581620004b2565b60808a01519095506200055881620004b2565b60a08a01519094506200056b81620004b2565b60c08a01519093506001600160401b03808211156200058957600080fd5b818b0191508b601f8301126200059e57600080fd5b815181811115620005b357620005b3620004cb565b604051601f8201601f19908116603f01168101908382118183101715620005de57620005de620004cb565b816040528281528e86848701011115620005f757600080fd5b600093505b828410156200061b5784840186015181850187015292850192620005fc565b828411156200062d5760008684830101525b80965050505050505092959891949750929550565b6000602082840312156200065557600080fd5b81516200066281620004b2565b9392505050565b6001600160a01b0391909116815260200190565b6000602082840312156200069057600080fd5b815160ff811681146200066257600080fd5b600181811c90821680620006b757607f821691505b60208210811415620006d957634e487b7160e01b600052602260045260246000fd5b50919050565b60805160a05160c05160e05161010051610120516101405161371d620008c960003960008181612ad70152612b480152600081816102c901528181611dfd0152612b9c01526000818161021901528181610dd301528181610ec301528181610ef801528181612d66015281816130020152613050015260008181610a2501528181610a9e015281816118a201528181611a7d01528181611f4701528181611feb015281816122b70152818161235a0152818161253b0152818161271d01528181612a1d01526130f2015260008181610bb701528181610c4901526131580152600081816101a30152818161041b01528181610536015281816106c1015281816107dd015281816108bb0152818161091701528181610cc10152818161103c015281816110d9015281816112fc015281816114c501528181611d4c015281816123fb0152818161249b0152818161287e01528181612c4b01526132d60152600081816103220152818161039201528181610720015281816107bb0152818161082f015281816108ee01528181610a6001528181610c6a01528181611260015281816116f70152818161195801528181611ddb015281816125e801528181612796015281816129190152818161297a015281816130d00152818161312401526132b4015261371d6000f3fe608060405234801561001057600080fd5b50600436106101845760003560e01c8063951dc22c116100d9578063d3033c3911610087578063d3033c391461037d578063d8dfeb4514610390578063e00af4a7146103b6578063e5328e06146103c9578063ec78e832146103d1578063fc0c546a146103e4578063ffa1ad74146103f557600080fd5b8063951dc22c146102eb57806399b71d5c14610300578063a3f4df7e14610308578063b2016bd41461031d578063c415b95c14610344578063ce5494bb14610357578063d2c35ce81461036a57600080fd5b8063440d724811610136578063440d72481461024e5780634fc90c2c146102715780636dfa8d991461027957806371506414146102905780637737b672146102995780637d7c2a1c146102a1578063922e7537146102c457600080fd5b806314ae9f2e1461018957806316f0115b1461019e5780631960d116146101db5780632b3297f9146101ee5780632e1a7d4d14610201578063335bbf11146102145780634032b72b1461023b575b600080fd5b61019c610197366004613349565b610419565b005b6101c57f000000000000000000000000000000000000000000000000000000000000000081565b6040516101d29190613366565b60405180910390f35b61019c6101e936600461337a565b610534565b6002546101c5906001600160a01b031681565b61019c61020f36600461337a565b6106be565b6101c57f000000000000000000000000000000000000000000000000000000000000000081565b61019c610249366004613349565b610915565b61026161025c366004613349565b610a21565b60405190151581526020016101d2565b61019c610a9a565b61028260075481565b6040519081526020016101d2565b61028260065481565b61019c610c94565b6102a9610f21565b604080519384526020840192909252908201526060016101d2565b6101c57f000000000000000000000000000000000000000000000000000000000000000081565b6102f3610f5e565b6040516101d29190613393565b61019c610f6f565b610310610fab565b6040516101d29190613410565b6101c57f000000000000000000000000000000000000000000000000000000000000000081565b6001546101c5906001600160a01b031681565b61019c610365366004613349565b611039565b61019c610378366004613349565b6112fa565b61019c61038b366004613349565b6114c3565b7f00000000000000000000000000000000000000000000000000000000000000006101c5565b61019c6103c4366004613349565b611680565b61028261189b565b6000546101c5906001600160a01b031681565b6000546001600160a01b03166101c5565b610310604051806040016040528060058152602001640352e302e360dc1b81525081565b7f00000000000000000000000000000000000000000000000000000000000000006001600160a01b0316630c340a246040518163ffffffff1660e01b815260040160206040518083038186803b15801561047257600080fd5b505afa158015610486573d6000803e3d6000fd5b505050506040513d601f19601f820116820180604052508101906104aa9190613443565b6001600160a01b0316336001600160a01b0316146104e35760405162461bcd60e51b81526004016104da90613460565b60405180910390fd5b6104ee600382611a03565b6105315760405162461bcd60e51b81526020600482015260146024820152731c995b5bdd994b5ad9595c195c8b59985a5b195960621b60448201526064016104da565b50565b7f00000000000000000000000000000000000000000000000000000000000000006001600160a01b0316630c340a246040518163ffffffff1660e01b815260040160206040518083038186803b15801561058d57600080fd5b505afa1580156105a1573d6000803e3d6000fd5b505050506040513d601f19601f820116820180604052508101906105c59190613443565b6001600160a01b0316336001600160a01b0316146105f55760405162461bcd60e51b81526004016104da90613460565b600081116106385760405162461bcd60e51b815260206004820152601060248201526f1e995c9bcb591c9a5c0b5c195c9a5bd960821b60448201526064016104da565b60065481141561067d5760405162461bcd60e51b815260206004820152601060248201526f1cd85b594b591c9a5c0b5c195c9a5bd960821b60448201526064016104da565b60065460408051918252602082018390527f6a4a78fe36e2d43bd20405835c6211b888cc77a834e32ddc9ac64ded78f4b328910160405180910390a1600655565b337f00000000000000000000000000000000000000000000000000000000000000006001600160a01b0316146107065760405162461bcd60e51b81526004016104da90613497565b6040516370a0823160e01b81526000906001600160a01b037f000000000000000000000000000000000000000000000000000000000000000016906370a0823190610755903090600401613366565b60206040518083038186803b15801561076d57600080fd5b505afa158015610781573d6000803e3d6000fd5b505050506040513d601f19601f820116820180604052508101906107a591906134ca565b9050818110610806576108026001600160a01b037f0000000000000000000000000000000000000000000000000000000000000000167f000000000000000000000000000000000000000000000000000000000000000084611a18565b5050565b61081861081382846134f9565b611a7b565b6040516370a0823160e01b81526001600160a01b037f000000000000000000000000000000000000000000000000000000000000000016906370a0823190610864903090600401613366565b60206040518083038186803b15801561087c57600080fd5b505afa158015610890573d6000803e3d6000fd5b505050506040513d601f19601f820116820180604052508101906108b491906134ca565b90506108027f00000000000000000000000000000000000000000000000000000000000000006108e48484611b06565b6001600160a01b037f0000000000000000000000000000000000000000000000000000000000000000169190611a18565b7f00000000000000000000000000000000000000000000000000000000000000006001600160a01b0316630c340a246040518163ffffffff1660e01b815260040160206040518083038186803b15801561096e57600080fd5b505afa158015610982573d6000803e3d6000fd5b505050506040513d601f19601f820116820180604052508101906109a69190613443565b6001600160a01b0316336001600160a01b0316146109d65760405162461bcd60e51b81526004016104da90613460565b6109e16003826119e7565b6105315760405162461bcd60e51b81526020600482015260116024820152701859190b5ad9595c195c8b59985a5b1959607a1b60448201526064016104da565b60007f00000000000000000000000000000000000000000000000000000000000000006001600160a01b0316826001600160a01b03161480610a9457507f00000000000000000000000000000000000000000000000000000000000000006001600160a01b0316826001600160a01b0316145b92915050565b60007f00000000000000000000000000000000000000000000000000000000000000006001600160a01b0316638bc6beb26040518163ffffffff1660e01b815260040160206040518083038186803b158015610af557600080fd5b505afa158015610b09573d6000803e3d6000fd5b505050506040513d601f19601f82011682018060405250810190610b2d9190613443565b90506001600160a01b03811615610b9d5760405163d279c19160e01b81526001600160a01b0382169063d279c19190610b6a903090600401613366565b600060405180830381600087803b158015610b8457600080fd5b505af1158015610b98573d6000803e3d6000fd5b505050505b6040516370a0823160e01b81526000906001600160a01b037f000000000000000000000000000000000000000000000000000000000000000016906370a0823190610bec903090600401613366565b60206040518083038186803b158015610c0457600080fd5b505afa158015610c18573d6000803e3d6000fd5b505050506040513d601f19601f82011682018060405250810190610c3c91906134ca565b9050801561080257610c8f7f00000000000000000000000000000000000000000000000000000000000000007f000000000000000000000000000000000000000000000000000000000000000083611b1c565b505050565b610ca1335b600390611bc0565b610cbd5760405162461bcd60e51b81526004016104da90613510565b60007f00000000000000000000000000000000000000000000000000000000000000006001600160a01b0316638bc6beb26040518163ffffffff1660e01b815260040160206040518083038186803b158015610d1857600080fd5b505afa158015610d2c573d6000803e3d6000fd5b505050506040513d601f19601f82011682018060405250810190610d509190613443565b6001600160a01b031663e49e463b6040518163ffffffff1660e01b815260040160206040518083038186803b158015610d8857600080fd5b505afa158015610d9c573d6000803e3d6000fd5b505050506040513d601f19601f82011682018060405250810190610dc09190613443565b90506001600160a01b03811615610531577f00000000000000000000000000000000000000000000000000000000000000006001600160a01b0316816001600160a01b031663fc0c546a6040518163ffffffff1660e01b815260040160206040518083038186803b158015610e3457600080fd5b505afa158015610e48573d6000803e3d6000fd5b505050506040513d601f19601f82011682018060405250810190610e6c9190613443565b6001600160a01b031614610eb65760405162461bcd60e51b81526020600482015260116024820152701a5b9d985b1a590b59dc9bddcb5c1bdbdb607a1b60448201526064016104da565b610eeb6001600160a01b037f000000000000000000000000000000000000000000000000000000000000000016826000611be2565b6105316001600160a01b037f00000000000000000000000000000000000000000000000000000000000000001682600019611be2565b60008080610f2e33610c99565b610f4a5760405162461bcd60e51b81526004016104da90613510565b610f52611d06565b9250925092505b909192565b6060610f6a6003611db8565b905090565b610f7833610c99565b610f945760405162461bcd60e51b81526004016104da90613510565b610f9e6000611dc5565b610fa9600019611dc5565b565b60058054610fb890613540565b80601f0160208091040260200160405190810160405280929190818152602001828054610fe490613540565b80156110315780601f1061100657610100808354040283529160200191611031565b820191906000526020600020905b81548152906001019060200180831161101457829003601f168201915b505050505081565b337f00000000000000000000000000000000000000000000000000000000000000006001600160a01b0316146110815760405162461bcd60e51b81526004016104da90613497565b6001600160a01b0381166110d75760405162461bcd60e51b815260206004820152601c60248201527f6e65772d73747261746567792d616464726573732d69732d7a65726f0000000060448201526064016104da565b7f00000000000000000000000000000000000000000000000000000000000000006001600160a01b0316816001600160a01b03166316f0115b6040518163ffffffff1660e01b815260040160206040518083038186803b15801561113a57600080fd5b505afa15801561114e573d6000803e3d6000fd5b505050506040513d601f19601f820116820180604052508101906111729190613443565b6001600160a01b0316146111c15760405162461bcd60e51b81526020600482015260166024820152756e6f742d76616c69642d6e65772d737472617465677960501b60448201526064016104da565b6000546040516370a0823160e01b815261125a9183916001600160a01b03909116906370a08231906111f7903090600401613366565b60206040518083038186803b15801561120f57600080fd5b505afa158015611223573d6000803e3d6000fd5b505050506040513d601f19601f8201168201806040525081019061124791906134ca565b6000546001600160a01b03169190611a18565b610531817f00000000000000000000000000000000000000000000000000000000000000006001600160a01b03166370a08231306040518263ffffffff1660e01b81526004016112aa9190613366565b60206040518083038186803b1580156112c257600080fd5b505afa1580156112d6573d6000803e3d6000fd5b505050506040513d601f19601f820116820180604052508101906108e491906134ca565b7f00000000000000000000000000000000000000000000000000000000000000006001600160a01b0316630c340a246040518163ffffffff1660e01b815260040160206040518083038186803b15801561135357600080fd5b505afa158015611367573d6000803e3d6000fd5b505050506040513d601f19601f8201168201806040525081019061138b9190613443565b6001600160a01b0316336001600160a01b0316146113bb5760405162461bcd60e51b81526004016104da90613460565b6001600160a01b0381166114115760405162461bcd60e51b815260206004820152601d60248201527f6665652d636f6c6c6563746f722d616464726573732d69732d7a65726f00000060448201526064016104da565b6001546001600160a01b03828116911614156114675760405162461bcd60e51b81526020600482015260156024820152746665652d636f6c6c6563746f722d69732d73616d6560581b60448201526064016104da565b6001546040516001600160a01b038084169216907f0f06062680f9bd68e786e9980d9bb03d73d5620fc3b345e417b6eacb310b970690600090a3600180546001600160a01b0319166001600160a01b0392909216919091179055565b7f00000000000000000000000000000000000000000000000000000000000000006001600160a01b0316630c340a246040518163ffffffff1660e01b815260040160206040518083038186803b15801561151c57600080fd5b505afa158015611530573d6000803e3d6000fd5b505050506040513d601f19601f820116820180604052508101906115549190613443565b6001600160a01b0316336001600160a01b0316146115845760405162461bcd60e51b81526004016104da90613460565b6001600160a01b0381166115d45760405162461bcd60e51b8152602060048201526017602482015276737761707065722d616464726573732d69732d7a65726f60481b60448201526064016104da565b6002546001600160a01b03828116911614156116245760405162461bcd60e51b815260206004820152600f60248201526e737761707065722d69732d73616d6560881b60448201526064016104da565b6002546040516001600160a01b038084169216907f6c953b7ec311055c20b96a42cea31e89528e375b1bf953a503db40854b3188fe90600090a3600280546001600160a01b0319166001600160a01b0392909216919091179055565b61168933610c99565b6116a55760405162461bcd60e51b81526004016104da90613510565b6001546001600160a01b03166116f55760405162461bcd60e51b81526020600482015260156024820152741999594b58dbdb1b1958dd1bdc8b5b9bdd0b5cd95d605a1b60448201526064016104da565b7f00000000000000000000000000000000000000000000000000000000000000006001600160a01b0316816001600160a01b031614156117775760405162461bcd60e51b815260206004820152601f60248201527f6e6f742d616c6c6f7765642d746f2d73776565702d636f6c6c61746572616c0060448201526064016104da565b61178081610a21565b156117c45760405162461bcd60e51b815260206004820152601460248201527306e6f742d616c6c6f7765642d746f2d73776565760641b60448201526064016104da565b6001600160a01b03811673eeeeeeeeeeeeeeeeeeeeeeeeeeeeeeeeeeeeeeee14156117ff57600154610531906001600160a01b031647611e22565b6040516370a0823160e01b81526000906001600160a01b038316906370a082319061182e903090600401613366565b60206040518083038186803b15801561184657600080fd5b505afa15801561185a573d6000803e3d6000fd5b505050506040513d601f19601f8201168201806040525081019061187e91906134ca565b600154909150610802906001600160a01b03848116911683611a18565b60006119417f00000000000000000000000000000000000000000000000000000000000000006001600160a01b03166370a08231306040518263ffffffff1660e01b81526004016118ec9190613366565b60206040518083038186803b15801561190457600080fd5b505afa158015611918573d6000803e3d6000fd5b505050506040513d601f19601f8201168201806040525081019061193c91906134ca565b611f3b565b6040516370a0823160e01b81526001600160a01b037f000000000000000000000000000000000000000000000000000000000000000016906370a082319061198d903090600401613366565b60206040518083038186803b1580156119a557600080fd5b505afa1580156119b9573d6000803e3d6000fd5b505050506040513d601f19601f820116820180604052508101906119dd91906134ca565b610f6a919061357b565b60006119fc836001600160a01b038416612097565b9392505050565b60006119fc836001600160a01b0384166120e6565b6040516001600160a01b038316602482015260448101829052610c8f90849063a9059cbb60e01b906064015b60408051601f198184030181529190526020810180516001600160e01b03166001600160e01b0319909316929092179091526121d9565b7f00000000000000000000000000000000000000000000000000000000000000006001600160a01b0316632e1a7d4d611ab3836122ab565b6040518263ffffffff1660e01b8152600401611ad191815260200190565b600060405180830381600087803b158015611aeb57600080fd5b505af1158015611aff573d6000803e3d6000fd5b5050505050565b6000818310611b1557816119fc565b5090919050565b600254604051636ccb2b0160e01b81526001600160a01b038581166004830152848116602483015260448201849052600160648301523060848301526000921690636ccb2b019060a401602060405180830381600087803b158015611b8057600080fd5b505af1158015611b94573d6000803e3d6000fd5b505050506040513d601f19601f82011682018060405250810190611bb891906134ca565b949350505050565b6001600160a01b038116600090815260018301602052604081205415156119fc565b801580611c6b5750604051636eb1769f60e11b81523060048201526001600160a01b03838116602483015284169063dd62ed3e9060440160206040518083038186803b158015611c3157600080fd5b505afa158015611c45573d6000803e3d6000fd5b505050506040513d601f19601f82011682018060405250810190611c6991906134ca565b155b611cd65760405162461bcd60e51b815260206004820152603660248201527f5361666545524332303a20617070726f76652066726f6d206e6f6e2d7a65726f60448201527520746f206e6f6e2d7a65726f20616c6c6f77616e636560501b60648201526084016104da565b6040516001600160a01b038316602482015260448101829052610c8f90849063095ea7b360e01b90606401611a44565b6000806000611d136123f3565b919450909150611d2490508361285f565b6040516302df682360e11b8152600060048201819052602482018490526044820183905293507f00000000000000000000000000000000000000000000000000000000000000006001600160a01b0316906305bed04690606401600060405180830381600087803b158015611d9857600080fd5b505af1158015611dac573d6000803e3d6000fd5b50505050610f59612960565b606060006119fc83612a54565b611dce81612ab0565b6105316001600160a01b037f0000000000000000000000000000000000000000000000000000000000000000167f000000000000000000000000000000000000000000000000000000000000000083611be2565b80471015611e725760405162461bcd60e51b815260206004820152601d60248201527f416464726573733a20696e73756666696369656e742062616c616e636500000060448201526064016104da565b6000826001600160a01b03168260405160006040518083038185875af1925050503d8060008114611ebf576040519150601f19603f3d011682016040523d82523d6000602084013e611ec4565b606091505b5050905080610c8f5760405162461bcd60e51b815260206004820152603a60248201527f416464726573733a20756e61626c6520746f2073656e642076616c75652c207260448201527f6563697069656e74206d6179206861766520726576657274656400000000000060648201526084016104da565b600081156120925760007f00000000000000000000000000000000000000000000000000000000000000006001600160a01b03166318160ddd6040518163ffffffff1660e01b815260040160206040518083038186803b158015611f9e57600080fd5b505afa158015611fb2573d6000803e3d6000fd5b505050506040513d601f19601f82011682018060405250810190611fd691906134ca565b905060008111611fe757600061208e565b80837f00000000000000000000000000000000000000000000000000000000000000006001600160a01b031663d4c3eea06040518163ffffffff1660e01b815260040160206040518083038186803b15801561204257600080fd5b505afa158015612056573d6000803e3d6000fd5b505050506040513d601f19601f8201168201806040525081019061207a91906134ca565b6120849190613593565b61208e91906135b2565b9150505b919050565b60008181526001830160205260408120546120de57508154600181810184556000848152602080822090930184905584548482528286019093526040902091909155610a94565b506000610a94565b600081815260018301602052604081205480156121cf57600061210a6001836134f9565b855490915060009061211e906001906134f9565b905081811461218357600086600001828154811061213e5761213e6135d4565b9060005260206000200154905080876000018481548110612161576121616135d4565b6000918252602080832090910192909255918252600188019052604090208390555b8554869080612194576121946135ea565b600190038181906000526020600020016000905590558560010160008681526020019081526020016000206000905560019350505050610a94565b6000915050610a94565b600061222e826040518060400160405280602081526020017f5361666545524332303a206c6f772d6c6576656c2063616c6c206661696c6564815250856001600160a01b0316612ab99092919063ffffffff16565b805190915015610c8f578080602001905181019061224c9190613600565b610c8f5760405162461bcd60e51b815260206004820152602a60248201527f5361666545524332303a204552433230206f7065726174696f6e20646964206e6044820152691bdd081cdd58d8d9595960b21b60648201526084016104da565b600081156120925760007f00000000000000000000000000000000000000000000000000000000000000006001600160a01b031663d4c3eea06040518163ffffffff1660e01b815260040160206040518083038186803b15801561230e57600080fd5b505afa158015612322573d6000803e3d6000fd5b505050506040513d601f19601f8201168201806040525081019061234691906134ca565b90506000811161235757600061208e565b807f00000000000000000000000000000000000000000000000000000000000000006001600160a01b03166318160ddd6040518163ffffffff1660e01b815260040160206040518083038186803b1580156123b157600080fd5b505afa1580156123c5573d6000803e3d6000fd5b505050506040513d601f19601f820116820180604052508101906123e991906134ca565b6120849085613593565b6000806000807f00000000000000000000000000000000000000000000000000000000000000006001600160a01b031663d53ddc26306040518263ffffffff1660e01b81526004016124459190613366565b60206040518083038186803b15801561245d57600080fd5b505afa158015612471573d6000803e3d6000fd5b505050506040513d601f19601f8201168201806040525081019061249591906134ca565b905060007f00000000000000000000000000000000000000000000000000000000000000006001600160a01b0316639f2b2833306040518263ffffffff1660e01b81526004016124e59190613366565b60206040518083038186803b1580156124fd57600080fd5b505afa158015612511573d6000803e3d6000fd5b505050506040513d601f19601f8201168201806040525081019061253591906134ca565b905060007f00000000000000000000000000000000000000000000000000000000000000006001600160a01b03166370a08231306040518263ffffffff1660e01b81526004016125859190613366565b60206040518083038186803b15801561259d57600080fd5b505afa1580156125b1573d6000803e3d6000fd5b505050506040513d601f19601f820116820180604052508101906125d591906134ca565b905060006125e282611f3b565b905060007f00000000000000000000000000000000000000000000000000000000000000006001600160a01b03166370a08231306040518263ffffffff1660e01b81526004016126329190613366565b60206040518083038186803b15801561264a57600080fd5b505afa15801561265e573d6000803e3d6000fd5b505050506040513d601f19601f8201168201806040525081019061268291906134ca565b90506000612690838361357b565b9050848111156126ab576126a485826134f9565b98506126b8565b6126b581866134f9565b97505b60006126c4878b61357b565b9050828111156128245760006126e36126dd85846134f9565b86611b06565b905080156128225760006126ff6126f9836122ab565b88611b06565b9050801561282057604051632e1a7d4d60e01b8152600481018290527f00000000000000000000000000000000000000000000000000000000000000006001600160a01b031690632e1a7d4d90602401600060405180830381600087803b15801561276957600080fd5b505af115801561277d573d6000803e3d6000fd5b50506040516370a0823160e01b81526001600160a01b037f00000000000000000000000000000000000000000000000000000000000000001692506370a0823191506127cd903090600401613366565b60206040518083038186803b1580156127e557600080fd5b505afa1580156127f9573d6000803e3d6000fd5b505050506040513d601f19601f8201168201806040525081019061281d91906134ca565b94505b505b505b61282e8388611b06565b975087831161283e576000612851565b61285161284b89856134f9565b8b611b06565b995050505050505050909192565b8015610531576040516332dd0f4960e01b8152600481018290526000907f00000000000000000000000000000000000000000000000000000000000000006001600160a01b0316906332dd0f499060240160206040518083038186803b1580156128c857600080fd5b505afa1580156128dc573d6000803e3d6000fd5b505050506040513d601f19601f8201168201806040525081019061290091906134ca565b9050801561294f57600154612942906001600160a01b037f00000000000000000000000000000000000000000000000000000000000000008116911683611a18565b61294c81836134f9565b91505b61080261295b83612ac8565b612c28565b6040516370a0823160e01b81526000906001600160a01b037f000000000000000000000000000000000000000000000000000000000000000016906370a08231906129af903090600401613366565b60206040518083038186803b1580156129c757600080fd5b505afa1580156129db573d6000803e3d6000fd5b505050506040513d601f19601f820116820180604052508101906129ff91906134ca565b905080156105315760405163b6b55f2560e01b8152600481018290527f00000000000000000000000000000000000000000000000000000000000000006001600160a01b03169063b6b55f2590602401611ad1565b606081600001805480602002602001604051908101604052809291908181526020018280548015612aa457602002820191906000526020600020905b815481526020019060010190808311612a90575b50505050509050919050565b610531816130b2565b6060611bb8848460008561317f565b60008115612092576000612afd7f00000000000000000000000000000000000000000000000000000000000000006001613622565b60ff1667ffffffffffffffff811115612b1857612b18613647565b604051908082528060200260200182016040528015612b41578160200160208202803683370190505b50905082817f000000000000000000000000000000000000000000000000000000000000000060ff1681518110612b7a57612b7a6135d4565b6020908102919091010152604051634d49e87d60e01b81526001600160a01b037f00000000000000000000000000000000000000000000000000000000000000001690634d49e87d90612bd6908490600090429060040161365d565b602060405180830381600087803b158015612bf057600080fd5b505af1158015612c04573d6000803e3d6000fd5b505050506040513d601f19601f8201168201806040525081019061208e91906134ca565b8015610531578060076000828254612c40919061357b565b9250508190555060007f00000000000000000000000000000000000000000000000000000000000000006001600160a01b0316638bc6beb26040518163ffffffff1660e01b815260040160206040518083038186803b158015612ca257600080fd5b505afa158015612cb6573d6000803e3d6000fd5b505050506040513d601f19601f82011682018060405250810190612cda9190613443565b90506000816001600160a01b031663e49e463b6040518163ffffffff1660e01b815260040160206040518083038186803b158015612d1757600080fd5b505afa158015612d2b573d6000803e3d6000fd5b505050506040513d601f19601f82011682018060405250810190612d4f9190613443565b90506001600160a01b03811615801590612e0a57507f00000000000000000000000000000000000000000000000000000000000000006001600160a01b0316816001600160a01b031663fc0c546a6040518163ffffffff1660e01b815260040160206040518083038186803b158015612dc757600080fd5b505afa158015612ddb573d6000803e3d6000fd5b505050506040513d601f19601f82011682018060405250810190612dff9190613443565b6001600160a01b0316145b15612ff5576040516370a0823160e01b81526000906001600160a01b038316906370a0823190612e3e903090600401613366565b60206040518083038186803b158015612e5657600080fd5b505afa158015612e6a573d6000803e3d6000fd5b505050506040513d601f19601f82011682018060405250810190612e8e91906134ca565b60405163b6b55f2560e01b8152600481018690529091506001600160a01b0383169063b6b55f2590602401600060405180830381600087803b158015612ed357600080fd5b505af1158015612ee7573d6000803e3d6000fd5b50505050600081836001600160a01b03166370a08231306040518263ffffffff1660e01b8152600401612f1a9190613366565b60206040518083038186803b158015612f3257600080fd5b505afa158015612f46573d6000803e3d6000fd5b505050506040513d601f19601f82011682018060405250810190612f6a91906134ca565b612f7491906134f9565b9050612f8a6001600160a01b0384168583611a18565b6006546040516328f362b160e21b81526001600160a01b0386169163a3cd8ac491612fbc9187918691906004016136aa565b600060405180830381600087803b158015612fd657600080fd5b505af1158015612fea573d6000803e3d6000fd5b505050505050505050565b6130296001600160a01b037f0000000000000000000000000000000000000000000000000000000000000000168385611a18565b6006546040516328f362b160e21b81526001600160a01b0384169163a3cd8ac49161307b917f0000000000000000000000000000000000000000000000000000000000000000918891906004016136aa565b600060405180830381600087803b15801561309557600080fd5b505af11580156130a9573d6000803e3d6000fd5b50505050505050565b6130bb816132a7565b6002546001600160a01b0390811690613117907f0000000000000000000000000000000000000000000000000000000000000000167f000000000000000000000000000000000000000000000000000000000000000084611be2565b61314b6001600160a01b037f0000000000000000000000000000000000000000000000000000000000000000168284611be2565b6108026001600160a01b037f0000000000000000000000000000000000000000000000000000000000000000168284611be2565b6060824710156131e05760405162461bcd60e51b815260206004820152602660248201527f416464726573733a20696e73756666696369656e742062616c616e636520666f6044820152651c8818d85b1b60d21b60648201526084016104da565b843b61322e5760405162461bcd60e51b815260206004820152601d60248201527f416464726573733a2063616c6c20746f206e6f6e2d636f6e747261637400000060448201526064016104da565b600080866001600160a01b0316858760405161324a91906136cb565b60006040518083038185875af1925050503d8060008114613287576040519150601f19603f3d011682016040523d82523d6000602084013e61328c565b606091505b509150915061329c8282866132fb565b979650505050505050565b6105316001600160a01b037f0000000000000000000000000000000000000000000000000000000000000000167f000000000000000000000000000000000000000000000000000000000000000083611be2565b6060831561330a5750816119fc565b82511561331a5782518084602001fd5b8160405162461bcd60e51b81526004016104da9190613410565b6001600160a01b038116811461053157600080fd5b60006020828403121561335b57600080fd5b81356119fc81613334565b6001600160a01b0391909116815260200190565b60006020828403121561338c57600080fd5b5035919050565b6020808252825182820181905260009190848201906040850190845b818110156133d45783516001600160a01b0316835292840192918401916001016133af565b50909695505050505050565b60005b838110156133fb5781810151838201526020016133e3565b8381111561340a576000848401525b50505050565b602081526000825180602084015261342f8160408501602087016133e0565b601f01601f19169190910160400192915050565b60006020828403121561345557600080fd5b81516119fc81613334565b6020808252601a908201527f63616c6c65722d69732d6e6f742d7468652d676f7665726e6f72000000000000604082015260600190565b60208082526019908201527818d85b1b195c8b5a5ccb5b9bdd0b5d995cdc195c8b5c1bdbdb603a1b604082015260600190565b6000602082840312156134dc57600080fd5b5051919050565b634e487b7160e01b600052601160045260246000fd5b60008282101561350b5761350b6134e3565b500390565b60208082526016908201527531b0b63632b916b4b996b737ba16b096b5b2b2b832b960511b604082015260600190565b600181811c9082168061355457607f821691505b6020821081141561357557634e487b7160e01b600052602260045260246000fd5b50919050565b6000821982111561358e5761358e6134e3565b500190565b60008160001904831182151516156135ad576135ad6134e3565b500290565b6000826135cf57634e487b7160e01b600052601260045260246000fd5b500490565b634e487b7160e01b600052603260045260246000fd5b634e487b7160e01b600052603160045260246000fd5b60006020828403121561361257600080fd5b815180151581146119fc57600080fd5b600060ff821660ff84168060ff0382111561363f5761363f6134e3565b019392505050565b634e487b7160e01b600052604160045260246000fd5b606080825284519082018190526000906020906080840190828801845b828110156136965781518452928401929084019060010161367a565b505050908301949094525060400152919050565b6001600160a01b039390931683526020830191909152604082015260600190565b600082516136dd8184602087016133e0565b919091019291505056fea2646970667358221220951867a2a0f667d7edb09759e098777170c27cc2cf21efc9c69c4ae6d2010e7964736f6c63430008090033",
  "devdoc": {
    "kind": "dev",
    "methods": {
      "addKeeper(address)": {
        "params": {
          "_keeperAddress": "keeper address to add."
        }
      },
      "approveGrowToken()": {
        "details": "Approves EarnDrip' Grow token to spend dripToken"
      },
      "approveToken()": {
        "details": "Approve all required tokens"
      },
      "isReservedToken(address)": {
        "details": "Check whether given token is reserved or not. Reserved tokens are not allowed to sweep."
      },
      "migrate(address)": {
        "details": "_beforeMigration hook can be implemented in child strategy to do extra steps.",
        "params": {
          "_newStrategy": "Address of new strategy"
        }
      },
      "rebalance()": {
        "returns": {
          "_loss": "Realized loss, if any, in collateral.",
          "_payback": "If strategy has any excess debt, we have to liquidate asset to payback excess debt.",
          "_profit": "Realized profit in collateral."
        }
      },
      "removeKeeper(address)": {
        "params": {
          "_keeperAddress": "keeper address to remove."
        }
      },
      "sweepERC20(address)": {
        "params": {
          "_fromToken": "token address to sweep"
        }
      },
      "updateDripPeriod(uint256)": {
        "details": "_dripPeriod in seconds"
      },
      "updateFeeCollector(address)": {
        "params": {
          "_feeCollector": "fee collector address"
        }
      },
      "updateSwapper(address)": {
        "params": {
          "_swapper": "swapper address"
        }
      },
      "withdraw(uint256)": {
        "params": {
          "_amount": "Amount of collateral token"
        }
      }
    },
    "version": 1
  },
  "userdoc": {
    "kind": "user",
    "methods": {
      "addKeeper(address)": {
        "notice": "Add given address in keepers list."
      },
      "collateral()": {
        "notice": "Returns address of token correspond to collateral token"
      },
      "harvestVSP()": {
        "notice": "Claim VSP and convert to collateral token"
      },
      "keepers()": {
        "notice": "Return list of keepers"
      },
      "migrate(address)": {
        "notice": "Migrate all asset and vault ownership,if any, to new strategy"
      },
      "rebalance()": {
        "notice": "OnlyKeeper: Rebalance profit, loss and investment of this strategy.  Calculate profit, loss and payback of this strategy and realize profit/loss and  withdraw fund for payback, if any, and submit this report to pool."
      },
      "removeKeeper(address)": {
        "notice": "Remove given address from keepers list."
      },
      "sweepERC20(address)": {
        "notice": "sweep given token to feeCollector of strategy"
      },
      "token()": {
        "notice": "Returns address of token correspond to receipt token"
      },
      "tvl()": {
        "notice": "Returns collateral balance + collateral deposited to Vesper"
      },
      "updateDripPeriod(uint256)": {
        "notice": "Update update period of distribution of earning done in one rebalance"
      },
      "updateFeeCollector(address)": {
        "notice": "Update fee collector"
      },
      "updateSwapper(address)": {
        "notice": "Update swapper"
      },
      "withdraw(uint256)": {
        "notice": "Withdraw collateral token from end protocol."
      }
    },
    "notice": "This strategy will deposit collateral in a Vesper Grow Pool and converts the yield to Saddle LP token",
    "version": 1
  },
  "storageLayout": {
    "storage": [
      {
        "astId": 11964,
        "contract": "vesper-strategies/contracts/strategies/vesper/earn/VesperEarnSaddleLp.sol:VesperEarnSaddleLp",
        "label": "receiptToken",
        "offset": 0,
        "slot": "0",
        "type": "t_address"
      },
      {
        "astId": 11970,
        "contract": "vesper-strategies/contracts/strategies/vesper/earn/VesperEarnSaddleLp.sol:VesperEarnSaddleLp",
        "label": "feeCollector",
        "offset": 0,
        "slot": "1",
        "type": "t_address"
      },
      {
        "astId": 11973,
        "contract": "vesper-strategies/contracts/strategies/vesper/earn/VesperEarnSaddleLp.sol:VesperEarnSaddleLp",
        "label": "swapper",
        "offset": 0,
        "slot": "2",
        "type": "t_contract(IRoutedSwapper)11615"
      },
      {
        "astId": 11986,
        "contract": "vesper-strategies/contracts/strategies/vesper/earn/VesperEarnSaddleLp.sol:VesperEarnSaddleLp",
        "label": "_keepers",
        "offset": 0,
        "slot": "3",
        "type": "t_struct(AddressSet)3006_storage"
      },
      {
        "astId": 18325,
        "contract": "vesper-strategies/contracts/strategies/vesper/earn/VesperEarnSaddleLp.sol:VesperEarnSaddleLp",
        "label": "NAME",
        "offset": 0,
        "slot": "5",
        "type": "t_string_storage"
      },
      {
        "astId": 11632,
        "contract": "vesper-strategies/contracts/strategies/vesper/earn/VesperEarnSaddleLp.sol:VesperEarnSaddleLp",
        "label": "dripPeriod",
        "offset": 0,
        "slot": "6",
        "type": "t_uint256"
      },
      {
        "astId": 11634,
        "contract": "vesper-strategies/contracts/strategies/vesper/earn/VesperEarnSaddleLp.sol:VesperEarnSaddleLp",
        "label": "totalEarned",
        "offset": 0,
        "slot": "7",
        "type": "t_uint256"
      }
    ],
    "types": {
      "t_address": {
        "encoding": "inplace",
        "label": "address",
        "numberOfBytes": "20"
      },
      "t_array(t_bytes32)dyn_storage": {
        "base": "t_bytes32",
        "encoding": "dynamic_array",
        "label": "bytes32[]",
        "numberOfBytes": "32"
      },
      "t_bytes32": {
        "encoding": "inplace",
        "label": "bytes32",
        "numberOfBytes": "32"
      },
      "t_contract(IRoutedSwapper)11615": {
        "encoding": "inplace",
        "label": "contract IRoutedSwapper",
        "numberOfBytes": "20"
      },
      "t_mapping(t_bytes32,t_uint256)": {
        "encoding": "mapping",
        "key": "t_bytes32",
        "label": "mapping(bytes32 => uint256)",
        "numberOfBytes": "32",
        "value": "t_uint256"
      },
      "t_string_storage": {
        "encoding": "bytes",
        "label": "string",
        "numberOfBytes": "32"
      },
      "t_struct(AddressSet)3006_storage": {
        "encoding": "inplace",
        "label": "struct EnumerableSet.AddressSet",
        "members": [
          {
            "astId": 3005,
            "contract": "vesper-strategies/contracts/strategies/vesper/earn/VesperEarnSaddleLp.sol:VesperEarnSaddleLp",
            "label": "_inner",
            "offset": 0,
            "slot": "0",
            "type": "t_struct(Set)2705_storage"
          }
        ],
        "numberOfBytes": "64"
      },
      "t_struct(Set)2705_storage": {
        "encoding": "inplace",
        "label": "struct EnumerableSet.Set",
        "members": [
          {
            "astId": 2700,
            "contract": "vesper-strategies/contracts/strategies/vesper/earn/VesperEarnSaddleLp.sol:VesperEarnSaddleLp",
            "label": "_values",
            "offset": 0,
            "slot": "0",
            "type": "t_array(t_bytes32)dyn_storage"
          },
          {
            "astId": 2704,
            "contract": "vesper-strategies/contracts/strategies/vesper/earn/VesperEarnSaddleLp.sol:VesperEarnSaddleLp",
            "label": "_indexes",
            "offset": 0,
            "slot": "1",
            "type": "t_mapping(t_bytes32,t_uint256)"
          }
        ],
        "numberOfBytes": "64"
      },
      "t_uint256": {
        "encoding": "inplace",
        "label": "uint256",
        "numberOfBytes": "32"
      }
    }
  }
}