{
  "address": "0xEADf9078361564a41907ba5d177E465d111B2D2D",
  "abi": [
    {
      "inputs": [
        {
          "internalType": "address",
          "name": "_pool",
          "type": "address"
        },
        {
          "internalType": "address",
          "name": "_swapManager",
          "type": "address"
        },
        {
          "internalType": "address",
          "name": "_comptroller",
          "type": "address"
        },
        {
          "internalType": "address",
          "name": "_rewardToken",
          "type": "address"
        },
        {
          "internalType": "address",
          "name": "_receiptToken",
          "type": "address"
        },
        {
          "internalType": "string",
          "name": "_name",
          "type": "string"
        }
      ],
      "stateMutability": "nonpayable",
      "type": "constructor"
    },
    {
      "anonymous": false,
      "inputs": [
        {
          "indexed": true,
          "internalType": "address",
          "name": "previousFeeCollector",
          "type": "address"
        },
        {
          "indexed": true,
          "internalType": "address",
          "name": "newFeeCollector",
          "type": "address"
        }
      ],
      "name": "UpdatedFeeCollector",
      "type": "event"
    },
    {
      "anonymous": false,
      "inputs": [
        {
          "indexed": false,
          "internalType": "uint256",
          "name": "oldPeriod",
          "type": "uint256"
        },
        {
          "indexed": false,
          "internalType": "uint256",
          "name": "newPeriod",
          "type": "uint256"
        },
        {
          "indexed": false,
          "internalType": "uint256",
          "name": "oldRouterIdx",
          "type": "uint256"
        },
        {
          "indexed": false,
          "internalType": "uint256",
          "name": "newRouterIdx",
          "type": "uint256"
        }
      ],
      "name": "UpdatedOracleConfig",
      "type": "event"
    },
    {
      "anonymous": false,
      "inputs": [
        {
          "indexed": true,
          "internalType": "address",
          "name": "previousSwapManager",
          "type": "address"
        },
        {
          "indexed": true,
          "internalType": "address",
          "name": "newSwapManager",
          "type": "address"
        }
      ],
      "name": "UpdatedSwapManager",
      "type": "event"
    },
    {
      "anonymous": false,
      "inputs": [
        {
          "indexed": false,
          "internalType": "uint256",
          "name": "oldSwapSlippage",
          "type": "uint256"
        },
        {
          "indexed": false,
          "internalType": "uint256",
          "name": "newSwapSlippage",
          "type": "uint256"
        }
      ],
      "name": "UpdatedSwapSlippage",
      "type": "event"
    },
    {
      "inputs": [],
      "name": "COMPTROLLER",
      "outputs": [
        {
          "internalType": "contract Comptroller",
          "name": "",
          "type": "address"
        }
      ],
      "stateMutability": "view",
      "type": "function"
    },
    {
      "inputs": [],
      "name": "NAME",
      "outputs": [
        {
          "internalType": "string",
          "name": "",
          "type": "string"
        }
      ],
      "stateMutability": "view",
      "type": "function"
    },
    {
      "inputs": [],
      "name": "VERSION",
      "outputs": [
        {
          "internalType": "string",
          "name": "",
          "type": "string"
        }
      ],
      "stateMutability": "view",
      "type": "function"
    },
    {
      "inputs": [
        {
          "internalType": "address",
          "name": "_keeperAddress",
          "type": "address"
        }
      ],
      "name": "addKeeper",
      "outputs": [],
      "stateMutability": "nonpayable",
      "type": "function"
    },
    {
      "inputs": [],
      "name": "approveToken",
      "outputs": [],
      "stateMutability": "nonpayable",
      "type": "function"
    },
    {
      "inputs": [],
      "name": "collateralToken",
      "outputs": [
        {
          "internalType": "contract IERC20",
          "name": "",
          "type": "address"
        }
      ],
      "stateMutability": "view",
      "type": "function"
    },
    {
      "inputs": [],
      "name": "feeCollector",
      "outputs": [
        {
          "internalType": "address",
          "name": "",
          "type": "address"
        }
      ],
      "stateMutability": "view",
      "type": "function"
    },
    {
      "inputs": [
        {
          "internalType": "address",
          "name": "_token",
          "type": "address"
        }
      ],
      "name": "isReservedToken",
      "outputs": [
        {
          "internalType": "bool",
          "name": "",
          "type": "bool"
        }
      ],
      "stateMutability": "view",
      "type": "function"
    },
    {
      "inputs": [],
      "name": "keepers",
      "outputs": [
        {
          "internalType": "address[]",
          "name": "",
          "type": "address[]"
        }
      ],
      "stateMutability": "view",
      "type": "function"
    },
    {
      "inputs": [
        {
          "internalType": "address",
          "name": "_newStrategy",
          "type": "address"
        }
      ],
      "name": "migrate",
      "outputs": [],
      "stateMutability": "nonpayable",
      "type": "function"
    },
    {
      "inputs": [],
      "name": "oraclePeriod",
      "outputs": [
        {
          "internalType": "uint256",
          "name": "",
          "type": "uint256"
        }
      ],
      "stateMutability": "view",
      "type": "function"
    },
    {
      "inputs": [],
      "name": "oracleRouterIdx",
      "outputs": [
        {
          "internalType": "uint256",
          "name": "",
          "type": "uint256"
        }
      ],
      "stateMutability": "view",
      "type": "function"
    },
    {
      "inputs": [],
      "name": "pool",
      "outputs": [
        {
          "internalType": "address",
          "name": "",
          "type": "address"
        }
      ],
      "stateMutability": "view",
      "type": "function"
    },
    {
      "inputs": [],
      "name": "rebalance",
      "outputs": [],
      "stateMutability": "nonpayable",
      "type": "function"
    },
    {
      "inputs": [],
      "name": "receiptToken",
      "outputs": [
        {
          "internalType": "address",
          "name": "",
          "type": "address"
        }
      ],
      "stateMutability": "view",
      "type": "function"
    },
    {
      "inputs": [
        {
          "internalType": "address",
          "name": "_keeperAddress",
          "type": "address"
        }
      ],
      "name": "removeKeeper",
      "outputs": [],
      "stateMutability": "nonpayable",
      "type": "function"
    },
    {
      "inputs": [],
      "name": "rewardToken",
      "outputs": [
        {
          "internalType": "address",
          "name": "",
          "type": "address"
        }
      ],
      "stateMutability": "view",
      "type": "function"
    },
    {
      "inputs": [],
      "name": "setupOracles",
      "outputs": [],
      "stateMutability": "nonpayable",
      "type": "function"
    },
    {
      "inputs": [],
      "name": "swapManager",
      "outputs": [
        {
          "internalType": "contract ISwapManager",
          "name": "",
          "type": "address"
        }
      ],
      "stateMutability": "view",
      "type": "function"
    },
    {
      "inputs": [],
      "name": "swapSlippage",
      "outputs": [
        {
          "internalType": "uint256",
          "name": "",
          "type": "uint256"
        }
      ],
      "stateMutability": "view",
      "type": "function"
    },
    {
      "inputs": [
        {
          "internalType": "address",
          "name": "_fromToken",
          "type": "address"
        }
      ],
      "name": "sweepERC20",
      "outputs": [],
      "stateMutability": "nonpayable",
      "type": "function"
    },
    {
      "inputs": [],
      "name": "token",
      "outputs": [
        {
          "internalType": "address",
          "name": "",
          "type": "address"
        }
      ],
      "stateMutability": "view",
      "type": "function"
    },
    {
      "inputs": [],
      "name": "totalValue",
      "outputs": [
        {
          "internalType": "uint256",
          "name": "_totalValue",
          "type": "uint256"
        }
      ],
      "stateMutability": "view",
      "type": "function"
    },
    {
      "inputs": [],
      "name": "totalValueCurrent",
      "outputs": [
        {
          "internalType": "uint256",
          "name": "_totalValue",
          "type": "uint256"
        }
      ],
      "stateMutability": "nonpayable",
      "type": "function"
    },
    {
      "inputs": [
        {
          "internalType": "address",
          "name": "_feeCollector",
          "type": "address"
        }
      ],
      "name": "updateFeeCollector",
      "outputs": [],
      "stateMutability": "nonpayable",
      "type": "function"
    },
    {
      "inputs": [
        {
          "internalType": "uint256",
          "name": "_newPeriod",
          "type": "uint256"
        },
        {
          "internalType": "uint256",
          "name": "_newRouterIdx",
          "type": "uint256"
        }
      ],
      "name": "updateOracleConfig",
      "outputs": [],
      "stateMutability": "nonpayable",
      "type": "function"
    },
    {
      "inputs": [
        {
          "internalType": "address",
          "name": "_swapManager",
          "type": "address"
        }
      ],
      "name": "updateSwapManager",
      "outputs": [],
      "stateMutability": "nonpayable",
      "type": "function"
    },
    {
      "inputs": [
        {
          "internalType": "uint256",
          "name": "_newSwapSlippage",
          "type": "uint256"
        }
      ],
      "name": "updateSwapSlippage",
      "outputs": [],
      "stateMutability": "nonpayable",
      "type": "function"
    },
    {
      "inputs": [
        {
          "internalType": "uint256",
          "name": "_amount",
          "type": "uint256"
        }
      ],
      "name": "withdraw",
      "outputs": [],
      "stateMutability": "nonpayable",
      "type": "function"
    }
  ],
  "transactionHash": "0x834d8574c4b22fabceff704388eec493cdb279113ba92b0b36116ce87805e230",
  "args": [
    "0xc1eFBeE3a8daBD30D1d789138bc6Ea43A399C335",
    "0xe382d9f2394A359B01006faa8A1864b8a60d2710",
    "0x3d9819210A31b4961b30EF54bE2aeD79B9c9Cd3B",
    "0xc00e94Cb662C3520282E6f5717214004A7f26888",
    "0x39AA39c021dfbaE8faC545936693aC917d5E7563",
    "CompoundStrategyUSDC"
  ],
  "numDeployments": 1,
  "solcInputHash": "868425899f6a91ac32274c91dac3d167",
  "bytecode": "0x60e0604052600080546001600160a01b03191673c02aaa39b223fe8d0a0e5c4f27ead9083c756cc2178155610e106004556005556127106006553480156200004657600080fd5b5060405162003f1b38038062003f1b83398101604081905262000069916200043e565b8585836001600160a01b038316620000c85760405162461bcd60e51b815260206004820152601460248201527f706f6f6c2d616464726573732d69732d7a65726f00000000000000000000000060448201526064015b60405180910390fd5b6001600160a01b038216620001155760405162461bcd60e51b8152602060048201526012602482015271736d2d616464726573732d69732d7a65726f60701b6044820152606401620000bf565b600380546001600160a01b0319166001600160a01b0384811691909117909155831660a081905260408051637e062a3560e11b8152905163fc0c546a91600480820192602092909190829003018186803b1580156200017357600080fd5b505afa15801562000188573d6000803e3d6000fd5b505050506040513d601f19601f82011682018060405250810190620001ae919062000588565b6001600160a01b03908116608052600180546001600160a01b031916918316919091179055620001f5620001df3390565b6007620002f760201b620015511790919060201c565b620002375760405162461bcd60e51b81526020600482015260116024820152701859190b5ad9595c195c8b59985a5b1959607a1b6044820152606401620000bf565b5050506001600160a01b038216620002925760405162461bcd60e51b815260206004820152601660248201527f63546f6b656e2d616464726573732d69732d7a65726f000000000000000000006044820152606401620000bf565b600a80546001600160a01b0319166001600160a01b0384161790556127106006558051620002c890600990602084019062000369565b5050506001600160a01b0391821660c052600b80546001600160a01b0319169190921617905550620005ec9050565b60006200030e836001600160a01b03841662000317565b90505b92915050565b6000818152600183016020526040812054620003605750815460018181018455600084815260208082209093018490558454848252828601909352604090209190915562000311565b50600062000311565b8280546200037790620005af565b90600052602060002090601f0160209004810192826200039b5760008555620003e6565b82601f10620003b657805160ff1916838001178555620003e6565b82800160010185558215620003e6579182015b82811115620003e6578251825591602001919060010190620003c9565b50620003f4929150620003f8565b5090565b5b80821115620003f45760008155600101620003f9565b6001600160a01b03811681146200042557600080fd5b50565b634e487b7160e01b600052604160045260246000fd5b60008060008060008060c087890312156200045857600080fd5b865162000465816200040f565b809650506020808801516200047a816200040f565b60408901519096506200048d816200040f565b6060890151909550620004a0816200040f565b6080890151909450620004b3816200040f565b60a08901519093506001600160401b0380821115620004d157600080fd5b818a0191508a601f830112620004e657600080fd5b815181811115620004fb57620004fb62000428565b604051601f8201601f19908116603f0116810190838211818310171562000526576200052662000428565b816040528281528d868487010111156200053f57600080fd5b600093505b8284101562000563578484018601518185018701529285019262000544565b82841115620005755760008684830101525b8096505050505050509295509295509295565b6000602082840312156200059b57600080fd5b8151620005a8816200040f565b9392505050565b600181811c90821680620005c457607f821691505b60208210811415620005e657634e487b7160e01b600052602260045260246000fd5b50919050565b60805160a05160c05161383b620006e06000396000818161026701528181611ce601526120360152600081816101ae015281816103ed0152818161050901528181610559015281816106970152818161084a015281816109fe01528181610b4401528181610da701528181610e44015281816110980152818161159101528181611626015281816116c6015261193801526000818161030901528181610fcb0152818161106f01528181611301015281816115b2015281816117a4015281816119160152818161196e01528181611b8701528181611bed01528181611da1015281816122e20152612426015261383b6000f3fe608060405234801561001057600080fd5b506004361061018f5760003560e01c8063a3f4df7e116100e4578063d2c35ce811610092578063d2c35ce81461035a578063d4c3eea01461036d578063e00af4a714610375578063e645c20214610388578063ec78e83214610390578063f7c618c1146103a3578063fc0c546a146103b6578063ffa1ad74146103c757600080fd5b8063a3f4df7e146102d4578063a923b2a6146102e9578063aa101886146102fc578063b2016bd414610304578063c415b95c1461032b578063cd2d7ebe1461033e578063ce5494bb1461034757600080fd5b80634c36fad7116101415780634c36fad71461024f5780635f82c67e1461026257806367f5e4b814610289578063709d039d1461029c5780637d7c2a1c146102af578063951dc22c146102b757806399b71d5c146102cc57600080fd5b806314ae9f2e1461019457806316f0115b146101a95780631aedeabe146101e65780632e1a7d4d146101fd5780634032b72b1461021057806342189c8f14610223578063440d72481461022c575b600080fd5b6101a76101a23660046131df565b6103eb565b005b6101d07f000000000000000000000000000000000000000000000000000000000000000081565b6040516101dd91906131fc565b60405180910390f35b6101ef60065481565b6040519081526020016101dd565b6101a761020b366004613210565b610506565b6101a761021e3660046131df565b610557565b6101ef60045481565b61023f61023a3660046131df565b610663565b60405190151581526020016101dd565b6101a761025d3660046131df565b610695565b6101d07f000000000000000000000000000000000000000000000000000000000000000081565b6101a7610297366004613210565b610848565b6003546101d0906001600160a01b031681565b6101a7610994565b6102bf610a67565b6040516101dd919061326d565b6101a7610a78565b6102dc610ab4565b6040516101dd91906132ac565b6101a76102f73660046132df565b610b42565b6101a7610d77565b6101d07f000000000000000000000000000000000000000000000000000000000000000081565b6002546101d0906001600160a01b031681565b6101ef60055481565b6101a76103553660046131df565b610da4565b6101a76103683660046131df565b611096565b6101ef61125f565b6101a76103833660046131df565b61128a565b6101ef6114a9565b6001546101d0906001600160a01b031681565b600b546101d0906001600160a01b031681565b6001546001600160a01b03166101d0565b6102dc604051806040016040528060058152602001640342e302e360dc1b81525081565b7f00000000000000000000000000000000000000000000000000000000000000006001600160a01b0316630c340a246040518163ffffffff1660e01b815260040160206040518083038186803b15801561044457600080fd5b505afa158015610458573d6000803e3d6000fd5b505050506040513d601f19601f8201168201806040525081019061047c9190613301565b6001600160a01b0316336001600160a01b0316146104b55760405162461bcd60e51b81526004016104ac9061331e565b60405180910390fd5b6104c060078261156d565b6105035760405162461bcd60e51b81526020600482015260146024820152731c995b5bdd994b5ad9595c195c8b59985a5b195960621b60448201526064016104ac565b50565b337f00000000000000000000000000000000000000000000000000000000000000006001600160a01b03161461054e5760405162461bcd60e51b81526004016104ac90613355565b61050381611582565b7f00000000000000000000000000000000000000000000000000000000000000006001600160a01b0316630c340a246040518163ffffffff1660e01b815260040160206040518083038186803b1580156105b057600080fd5b505afa1580156105c4573d6000803e3d6000fd5b505050506040513d601f19601f820116820180604052508101906105e89190613301565b6001600160a01b0316336001600160a01b0316146106185760405162461bcd60e51b81526004016104ac9061331e565b610623600782611551565b6105035760405162461bcd60e51b81526020600482015260116024820152701859190b5ad9595c195c8b59985a5b1959607a1b60448201526064016104ac565b600a546000906001600160a01b038381169116148061068f5750600b546001600160a01b038381169116145b92915050565b7f00000000000000000000000000000000000000000000000000000000000000006001600160a01b0316630c340a246040518163ffffffff1660e01b815260040160206040518083038186803b1580156106ee57600080fd5b505afa158015610702573d6000803e3d6000fd5b505050506040513d601f19601f820116820180604052508101906107269190613301565b6001600160a01b0316336001600160a01b0316146107565760405162461bcd60e51b81526004016104ac9061331e565b6001600160a01b0381166107a15760405162461bcd60e51b8152602060048201526012602482015271736d2d616464726573732d69732d7a65726f60701b60448201526064016104ac565b6003546001600160a01b03828116911614156107ec5760405162461bcd60e51b815260206004820152600a602482015269736d2d69732d73616d6560b01b60448201526064016104ac565b6003546040516001600160a01b038084169216907f2d19927e7cac08ceb98b38898a4fdff6da6a27295b9a2d62fe250408ebe044e190600090a3600380546001600160a01b0319166001600160a01b0392909216919091179055565b7f00000000000000000000000000000000000000000000000000000000000000006001600160a01b0316630c340a246040518163ffffffff1660e01b815260040160206040518083038186803b1580156108a157600080fd5b505afa1580156108b5573d6000803e3d6000fd5b505050506040513d601f19601f820116820180604052508101906108d99190613301565b6001600160a01b0316336001600160a01b0316146109095760405162461bcd60e51b81526004016104ac9061331e565b6127108111156109545760405162461bcd60e51b8152602060048201526016602482015275696e76616c69642d736c6970706167652d76616c756560501b60448201526064016104ac565b60065460408051918252602082018390527ef1c5db862c7598b3b6765552ca951f498611e06412c2d57f8d0b58f82e7f82910160405180910390a1600655565b6109a1335b6007906115fc565b6109bd5760405162461bcd60e51b81526004016104ac90613388565b60008060006109ca61161e565b6040516302df682360e11b815260048101849052602481018390526044810182905292955090935091506001600160a01b037f000000000000000000000000000000000000000000000000000000000000000016906305bed04690606401600060405180830381600087803b158015610a4257600080fd5b505af1158015610a56573d6000803e3d6000fd5b50505050610a6261178a565b505050565b6060610a7360076118fc565b905090565b610a8133610999565b610a9d5760405162461bcd60e51b81526004016104ac90613388565b610aa76000611909565b610ab2600019611909565b565b60098054610ac1906133b8565b80601f0160208091040260200160405190810160405280929190818152602001828054610aed906133b8565b8015610b3a5780601f10610b0f57610100808354040283529160200191610b3a565b820191906000526020600020905b815481529060010190602001808311610b1d57829003601f168201915b505050505081565b7f00000000000000000000000000000000000000000000000000000000000000006001600160a01b0316630c340a246040518163ffffffff1660e01b815260040160206040518083038186803b158015610b9b57600080fd5b505afa158015610baf573d6000803e3d6000fd5b505050506040513d601f19601f82011682018060405250810190610bd39190613301565b6001600160a01b0316336001600160a01b031614610c035760405162461bcd60e51b81526004016104ac9061331e565b600360009054906101000a90046001600160a01b03166001600160a01b031663c2fba6676040518163ffffffff1660e01b815260040160206040518083038186803b158015610c5157600080fd5b505afa158015610c65573d6000803e3d6000fd5b505050506040513d601f19601f82011682018060405250810190610c8991906133ed565b8110610cce5760405162461bcd60e51b81526020600482015260146024820152730d2dcecc2d8d2c85ae4deeae8cae45ad2dcc8caf60631b60448201526064016104ac565b81610cd95760045491505b603b8211610d215760405162461bcd60e51b81526020600482015260156024820152741a5b9d985b1a590b5bdc9858db194b5c195c9a5bd9605a1b60448201526064016104ac565b6004546005546040805192835260208301859052820152606081018290527f83bc5ab8030537fcf1d29c2334f6d22c26c82dcbe5ff03923d2cff5c692c0a7f9060800160405180910390a1600491909155600555565b610d8033610999565b610d9c5760405162461bcd60e51b81526004016104ac90613388565b610ab2611adb565b337f00000000000000000000000000000000000000000000000000000000000000006001600160a01b031614610dec5760405162461bcd60e51b81526004016104ac90613355565b6001600160a01b038116610e425760405162461bcd60e51b815260206004820152601c60248201527f6e65772d73747261746567792d616464726573732d69732d7a65726f0000000060448201526064016104ac565b7f00000000000000000000000000000000000000000000000000000000000000006001600160a01b0316816001600160a01b03166316f0115b6040518163ffffffff1660e01b815260040160206040518083038186803b158015610ea557600080fd5b505afa158015610eb9573d6000803e3d6000fd5b505050506040513d601f19601f82011682018060405250810190610edd9190613301565b6001600160a01b031614610f2c5760405162461bcd60e51b81526020600482015260166024820152756e6f742d76616c69642d6e65772d737472617465677960501b60448201526064016104ac565b6001546040516370a0823160e01b8152610fc59183916001600160a01b03909116906370a0823190610f629030906004016131fc565b60206040518083038186803b158015610f7a57600080fd5b505afa158015610f8e573d6000803e3d6000fd5b505050506040513d601f19601f82011682018060405250810190610fb291906133ed565b6001546001600160a01b03169190611c69565b610503817f00000000000000000000000000000000000000000000000000000000000000006001600160a01b03166370a08231306040518263ffffffff1660e01b815260040161101591906131fc565b60206040518083038186803b15801561102d57600080fd5b505afa158015611041573d6000803e3d6000fd5b505050506040513d601f19601f8201168201806040525081019061106591906133ed565b6001600160a01b037f0000000000000000000000000000000000000000000000000000000000000000169190611c69565b7f00000000000000000000000000000000000000000000000000000000000000006001600160a01b0316630c340a246040518163ffffffff1660e01b815260040160206040518083038186803b1580156110ef57600080fd5b505afa158015611103573d6000803e3d6000fd5b505050506040513d601f19601f820116820180604052508101906111279190613301565b6001600160a01b0316336001600160a01b0316146111575760405162461bcd60e51b81526004016104ac9061331e565b6001600160a01b0381166111ad5760405162461bcd60e51b815260206004820152601d60248201527f6665652d636f6c6c6563746f722d616464726573732d69732d7a65726f00000060448201526064016104ac565b6002546001600160a01b03828116911614156112035760405162461bcd60e51b81526020600482015260156024820152746665652d636f6c6c6563746f722d69732d73616d6560581b60448201526064016104ac565b6002546040516001600160a01b038084169216907f0f06062680f9bd68e786e9980d9bb03d73d5620fc3b345e417b6eacb310b970690600090a3600280546001600160a01b0319166001600160a01b0392909216919091179055565b600b54600090610a73906001600160a01b031661127d576000611d6b565b611285611ccc565b611d6b565b61129333610999565b6112af5760405162461bcd60e51b81526004016104ac90613388565b6002546001600160a01b03166112ff5760405162461bcd60e51b81526020600482015260156024820152741999594b58dbdb1b1958dd1bdc8b5b9bdd0b5cd95d605a1b60448201526064016104ac565b7f00000000000000000000000000000000000000000000000000000000000000006001600160a01b0316816001600160a01b031614156113815760405162461bcd60e51b815260206004820152601f60248201527f6e6f742d616c6c6f7765642d746f2d73776565702d636f6c6c61746572616c0060448201526064016104ac565b61138a81610663565b156113ce5760405162461bcd60e51b815260206004820152601460248201527306e6f742d616c6c6f7765642d746f2d73776565760641b60448201526064016104ac565b6001600160a01b03811673eeeeeeeeeeeeeeeeeeeeeeeeeeeeeeeeeeeeeeee141561140957600254610503906001600160a01b031647611eb7565b6040516370a0823160e01b81526000906001600160a01b038316906370a08231906114389030906004016131fc565b60206040518083038186803b15801561145057600080fd5b505afa158015611464573d6000803e3d6000fd5b505050506040513d601f19601f8201168201806040525081019061148891906133ed565b6002549091506114a5906001600160a01b03848116911683611c69565b5050565b600b546000906001600160a01b031615611547576114c5611fd0565b600b546040516370a0823160e01b8152610a73916001600160a01b0316906370a08231906114f79030906004016131fc565b60206040518083038186803b15801561150f57600080fd5b505afa158015611523573d6000803e3d6000fd5b505050506040513d601f19601f8201168201806040525081019061128591906133ed565b610a736000611d6b565b6000611566836001600160a01b0384166120a4565b9392505050565b6000611566836001600160a01b0384166120f3565b61158b816121e6565b506105037f00000000000000000000000000000000000000000000000000000000000000007f00000000000000000000000000000000000000000000000000000000000000006001600160a01b03166370a08231306040518263ffffffff1660e01b815260040161101591906131fc565b6001600160a01b03811660009081526001830160205260408120541515611566565b6000806000807f00000000000000000000000000000000000000000000000000000000000000006001600160a01b031663d53ddc26306040518263ffffffff1660e01b815260040161167091906131fc565b60206040518083038186803b15801561168857600080fd5b505afa15801561169c573d6000803e3d6000fd5b505050506040513d601f19601f820116820180604052508101906116c091906133ed565b905060007f00000000000000000000000000000000000000000000000000000000000000006001600160a01b0316639f2b2833306040518263ffffffff1660e01b815260040161171091906131fc565b60206040518083038186803b15801561172857600080fd5b505afa15801561173c573d6000803e3d6000fd5b505050506040513d601f19601f8201168201806040525081019061176091906133ed565b905061176b816122db565b9450611776816124ab565b9350611781826124fc565b92505050909192565b6040516370a0823160e01b81526000906001600160a01b037f000000000000000000000000000000000000000000000000000000000000000016906370a08231906117d99030906004016131fc565b60206040518083038186803b1580156117f157600080fd5b505afa158015611805573d6000803e3d6000fd5b505050506040513d601f19601f8201168201806040525081019061182991906133ed565b9050801561050357600a5460405163140e25ad60e31b8152600481018390526001600160a01b039091169063a0712d6890602401602060405180830381600087803b15801561187757600080fd5b505af115801561188b573d6000803e3d6000fd5b505050506040513d601f19601f820116820180604052508101906118af91906133ed565b156105035760405162461bcd60e51b815260206004820152601a60248201527f6465706f7369742d746f2d636f6d706f756e642d6661696c656400000000000060448201526064016104ac565b6060600061156683612512565b61195d6001600160a01b037f0000000000000000000000000000000000000000000000000000000000000000167f00000000000000000000000000000000000000000000000000000000000000008361256e565b600a54611997906001600160a01b037f0000000000000000000000000000000000000000000000000000000000000000811691168361256e565b600b546001600160a01b0316156105035760005b600360009054906101000a90046001600160a01b03166001600160a01b031663c2fba6676040518163ffffffff1660e01b815260040160206040518083038186803b1580156119f957600080fd5b505afa158015611a0d573d6000803e3d6000fd5b505050506040513d601f19601f82011682018060405250810190611a3191906133ed565b8110156114a557600354604051636e74a6f760e01b815260048101839052611ac9916001600160a01b031690636e74a6f79060240160206040518083038186803b158015611a7e57600080fd5b505afa158015611a92573d6000803e3d6000fd5b505050506040513d601f19601f82011682018060405250810190611ab69190613301565b600b546001600160a01b0316908461256e565b80611ad38161341c565b9150506119ab565b600b546001600160a01b031615611b8257600354600b5460005460048054600554604051630f30f2d360e21b81526001600160a01b0396871696633cc3cb4c96611b2e9690821695911693929101613437565b602060405180830381600087803b158015611b4857600080fd5b505af1158015611b5c573d6000803e3d6000fd5b505050506040513d601f19601f82011682018060405250810190611b809190613301565b505b6000547f00000000000000000000000000000000000000000000000000000000000000006001600160a01b03908116911614610ab25760035460005460048054600554604051630f30f2d360e21b81526001600160a01b0395861695633cc3cb4c95611c17959116937f0000000000000000000000000000000000000000000000000000000000000000939092909101613437565b602060405180830381600087803b158015611c3157600080fd5b505af1158015611c45573d6000803e3d6000fd5b505050506040513d601f19601f820116820180604052508101906105039190613301565b6040516001600160a01b038316602482015260448101829052610a6290849063a9059cbb60e01b906064015b60408051601f198184030181529190526020810180516001600160e01b03166001600160e01b031990931692909217909152612692565b60405163331faf7160e21b81526000906001600160a01b037f0000000000000000000000000000000000000000000000000000000000000000169063cc7ebdc490611d1b9030906004016131fc565b60206040518083038186803b158015611d3357600080fd5b505afa158015611d47573d6000803e3d6000fd5b505050506040513d601f19601f82011682018060405250810190610a7391906133ed565b60008115611e2657600354600b546040516340b4c54560e11b81526001600160a01b03928316926381698a8a92611dce929116907f0000000000000000000000000000000000000000000000000000000000000000908790600090600401613437565b60006040518083038186803b158015611de657600080fd5b505afa158015611dfa573d6000803e3d6000fd5b505050506040513d6000823e601f3d908101601f19168201604052611e22919081019061353f565b9150505b600a546040516370a0823160e01b8152611ead916001600160a01b0316906370a0823190611e589030906004016131fc565b60206040518083038186803b158015611e7057600080fd5b505afa158015611e84573d6000803e3d6000fd5b505050506040513d601f19601f82011682018060405250810190611ea891906133ed565b612764565b61068f9082613586565b80471015611f075760405162461bcd60e51b815260206004820152601d60248201527f416464726573733a20696e73756666696369656e742062616c616e636500000060448201526064016104ac565b6000826001600160a01b03168260405160006040518083038185875af1925050503d8060008114611f54576040519150601f19603f3d011682016040523d82523d6000602084013e611f59565b606091505b5050905080610a625760405162461bcd60e51b815260206004820152603a60248201527f416464726573733a20756e61626c6520746f2073656e642076616c75652c207260448201527f6563697069656e74206d6179206861766520726576657274656400000000000060648201526084016104ac565b604080516001808252818301909252600091602080830190803683375050600a5482519293506001600160a01b0316918391506000906120125761201261359e565b6001600160a01b03928316602091820292909201015260405162e1ed9760e51b81527f000000000000000000000000000000000000000000000000000000000000000090911690631c3db2e09061206f90309085906004016135b4565b600060405180830381600087803b15801561208957600080fd5b505af115801561209d573d6000803e3d6000fd5b5050505050565b60008181526001830160205260408120546120eb5750815460018181018455600084815260208082209093018490558454848252828601909352604090209190915561068f565b50600061068f565b600081815260018301602052604081205480156121dc5760006121176001836135d8565b855490915060009061212b906001906135d8565b905081811461219057600086600001828154811061214b5761214b61359e565b906000526020600020015490508087600001848154811061216e5761216e61359e565b6000918252602080832090910192909255918252600188019052604090208390555b85548690806121a1576121a16135ef565b60019003818190600052602060002001600090559055856001016000868152602001908152602001600020600090556001935050505061068f565b600091505061068f565b600a546040516370a0823160e01b8152600091829161221d916001600160a01b0316906370a0823190611e589030906004016131fc565b90506000600a60009054906101000a90046001600160a01b03166001600160a01b0316633b1d21a26040518163ffffffff1660e01b815260040160206040518083038186803b15801561226f57600080fd5b505afa158015612283573d6000803e3d6000fd5b505050506040513d601f19601f820116820180604052508101906122a791906133ed565b905060008185106122b857816122ba565b845b90506122d28382106122cc5783612809565b81612809565b95945050505050565b60006123067f00000000000000000000000000000000000000000000000000000000000000006128e0565b600a546040516370a0823160e01b815260009161233d916001600160a01b03909116906370a0823190611e589030906004016131fc565b90508281111561240f57600061235384836135d8565b90506000600a60009054906101000a90046001600160a01b03166001600160a01b031663182df0f56040518163ffffffff1660e01b815260040160206040518083038186803b1580156123a557600080fd5b505afa1580156123b9573d6000803e3d6000fd5b505050506040513d601f19601f820116820180604052508101906123dd91906133ed565b6123ef83670de0b6b3a7640000613605565b6123f99190613624565b9050801561240c5761240a82612809565b505b50505b6040516370a0823160e01b81526001600160a01b037f000000000000000000000000000000000000000000000000000000000000000016906370a082319061245b9030906004016131fc565b60206040518083038186803b15801561247357600080fd5b505afa158015612487573d6000803e3d6000fd5b505050506040513d601f19601f8201168201806040525081019061156691906133ed565b600a546040516370a0823160e01b815260009182916124e2916001600160a01b0316906370a0823190611e589030906004016131fc565b9050828110156124f65761156681846135d8565b50919050565b6000811561250d5761068f826121e6565b919050565b60608160000180548060200260200160405190810160405280929190818152602001828054801561256257602002820191906000526020600020905b81548152602001906001019080831161254e575b50505050509050919050565b8015806125f75750604051636eb1769f60e11b81523060048201526001600160a01b03838116602483015284169063dd62ed3e9060440160206040518083038186803b1580156125bd57600080fd5b505afa1580156125d1573d6000803e3d6000fd5b505050506040513d601f19601f820116820180604052508101906125f591906133ed565b155b6126625760405162461bcd60e51b815260206004820152603660248201527f5361666545524332303a20617070726f76652066726f6d206e6f6e2d7a65726f60448201527520746f206e6f6e2d7a65726f20616c6c6f77616e636560501b60648201526084016104ac565b6040516001600160a01b038316602482015260448101829052610a6290849063095ea7b360e01b90606401611c95565b60006126e7826040518060400160405280602081526020017f5361666545524332303a206c6f772d6c6576656c2063616c6c206661696c6564815250856001600160a01b03166129de9092919063ffffffff16565b805190915015610a6257808060200190518101906127059190613656565b610a625760405162461bcd60e51b815260206004820152602a60248201527f5361666545524332303a204552433230206f7065726174696f6e20646964206e6044820152691bdd081cdd58d8d9595960b21b60648201526084016104ac565b6000670de0b6b3a7640000600a60009054906101000a90046001600160a01b03166001600160a01b031663182df0f56040518163ffffffff1660e01b815260040160206040518083038186803b1580156127bd57600080fd5b505afa1580156127d1573d6000803e3d6000fd5b505050506040513d601f19601f820116820180604052508101906127f591906133ed565b6127ff9084613605565b61068f9190613624565b600081156128dc57600a5460405163852a12e360e01b8152600481018490526001600160a01b039091169063852a12e390602401602060405180830381600087803b15801561285757600080fd5b505af115801561286b573d6000803e3d6000fd5b505050506040513d601f19601f8201168201806040525081019061288f91906133ed565b156128dc5760405162461bcd60e51b815260206004820152601d60248201527f77697468647261772d66726f6d2d636f6d706f756e642d6661696c656400000060448201526064016104ac565b5090565b600b546001600160a01b031615610503576128f9611fd0565b600b546040516370a0823160e01b81526000916001600160a01b0316906370a082319061292a9030906004016131fc565b60206040518083038186803b15801561294257600080fd5b505afa158015612956573d6000803e3d6000fd5b505050506040513d601f19601f8201168201806040525081019061297a91906133ed565b905080156114a557600060065461271014156129975760016129c3565b600b546129c3906129bb906129b5906001600160a01b0316866129f5565b84612b73565b600654612c82565b600b54909150610a62906001600160a01b0316848484612ca5565b60606129ed8484600085612e86565b949350505050565b6000546060906001600160a01b0384811691161480612a2157506000546001600160a01b038381169116145b15612ab35760408051600280825260608201835290916020830190803683370190505090508281600081518110612a5a57612a5a61359e565b60200260200101906001600160a01b031690816001600160a01b0316815250508181600181518110612a8e57612a8e61359e565b60200260200101906001600160a01b031690816001600160a01b03168152505061068f565b6040805160038082526080820190925290602082016060803683370190505090508281600081518110612ae857612ae861359e565b6001600160a01b039283166020918202929092010152600054825191169082906001908110612b1957612b1961359e565b60200260200101906001600160a01b031690816001600160a01b0316815250508181600281518110612b4d57612b4d61359e565b60200260200101906001600160a01b031690816001600160a01b03168152505092915050565b60006001835111612bbc5760405162461bcd60e51b81526020600482015260136024820152720d2dcecc2d8d2c85adee4c2c6d8ca5ae0c2e8d606b1b60448201526064016104ac565b50806000805b60018551612bd091906135d8565b811015612c7a57612c20858281518110612bec57612bec61359e565b602002602001015186836001612c029190613586565b81518110612c1257612c1261359e565b602002602001015185612fae565b909350915081612c685760405162461bcd60e51b8152602060048201526013602482015272696e76616c69642d6f7261636c652d7261746560681b60448201526064016104ac565b80612c728161341c565b915050612bc2565b505092915050565b6000612710612c9183826135d8565b612c9b9085613605565b6115669190613624565b826001600160a01b0316846001600160a01b03161415612cc457612e80565b600354604051631d1f307960e31b81526001600160a01b038681166004830152858116602483015260448201859052600092839283929091169063e8f983c89060640160006040518083038186803b158015612d1f57600080fd5b505afa158015612d33573d6000803e3d6000fd5b505050506040513d6000823e601f3d908101601f19168201604052612d5b9190810190613671565b9250925092508360001415612d6f57600193505b8115612e7c57600354604051636e74a6f760e01b8152600481018390526001600160a01b0390911690636e74a6f79060240160206040518083038186803b158015612db957600080fd5b505afa158015612dcd573d6000803e3d6000fd5b505050506040513d601f19601f82011682018060405250810190612df19190613301565b6001600160a01b03166338ed173986868630426040518663ffffffff1660e01b8152600401612e249594939291906136c1565b600060405180830381600087803b158015612e3e57600080fd5b505af1158015612e52573d6000803e3d6000fd5b505050506040513d6000823e601f3d908101601f19168201604052612e7a91908101906136fd565b505b5050505b50505050565b606082471015612ee75760405162461bcd60e51b815260206004820152602660248201527f416464726573733a20696e73756666696369656e742062616c616e636520666f6044820152651c8818d85b1b60d21b60648201526084016104ac565b843b612f355760405162461bcd60e51b815260206004820152601d60248201527f416464726573733a2063616c6c20746f206e6f6e2d636f6e747261637400000060448201526064016104ac565b600080866001600160a01b03168587604051612f519190613783565b60006040518083038185875af1925050503d8060008114612f8e576040519150601f19603f3d011682016040523d82523d6000602084013e612f93565b606091505b5091509150612fa3828286613191565b979650505050505050565b60008060005b600360009054906101000a90046001600160a01b03166001600160a01b031663c2fba6676040518163ffffffff1660e01b815260040160206040518083038186803b15801561300257600080fd5b505afa158015613016573d6000803e3d6000fd5b505050506040513d601f19601f8201168201806040525081019061303a91906133ed565b81101561318057600354600454604080516001600160a01b038a811660208301528981168284015260608201899052608082019390935260a08082018690528251808303909101815260c08201909252600093849316916130a79163b67bb24d60e01b919060e00161379f565b60408051601f19818403018152908290526130c191613783565b6000604051808303816000865af19150503d80600081146130fe576040519150601f19603f3d011682016040523d82523d6000602084013e613103565b606091505b5091509150811561316b576000808280602001905181019061312591906137d0565b50915091506004544261313891906135d8565b8111801561314557508115155b1561315a575094506001935061318992505050565b600080965096505050505050613189565b505080806131789061341c565b915050612fb4565b50600080915091505b935093915050565b606083156131a0575081611566565b8251156131b05782518084602001fd5b8160405162461bcd60e51b81526004016104ac91906132ac565b6001600160a01b038116811461050357600080fd5b6000602082840312156131f157600080fd5b8135611566816131ca565b6001600160a01b0391909116815260200190565b60006020828403121561322257600080fd5b5035919050565b600081518084526020808501945080840160005b838110156132625781516001600160a01b03168752958201959082019060010161323d565b509495945050505050565b6020815260006115666020830184613229565b60005b8381101561329b578181015183820152602001613283565b83811115612e805750506000910152565b60208152600082518060208401526132cb816040850160208701613280565b601f01601f19169190910160400192915050565b600080604083850312156132f257600080fd5b50508035926020909101359150565b60006020828403121561331357600080fd5b8151611566816131ca565b6020808252601a908201527f63616c6c65722d69732d6e6f742d7468652d676f7665726e6f72000000000000604082015260600190565b60208082526019908201527818d85b1b195c8b5a5ccb5b9bdd0b5d995cdc195c8b5c1bdbdb603a1b604082015260600190565b60208082526016908201527531b0b63632b916b4b996b737ba16b096b5b2b2b832b960511b604082015260600190565b600181811c908216806133cc57607f821691505b602082108114156124f657634e487b7160e01b600052602260045260246000fd5b6000602082840312156133ff57600080fd5b5051919050565b634e487b7160e01b600052601160045260246000fd5b600060001982141561343057613430613406565b5060010190565b6001600160a01b0394851681529290931660208301526040820152606081019190915260800190565b634e487b7160e01b600052604160045260246000fd5b604051601f8201601f1916810167ffffffffffffffff8111828210171561349f5761349f613460565b604052919050565b600067ffffffffffffffff8211156134c1576134c1613460565b5060051b60200190565b600082601f8301126134dc57600080fd5b815160206134f16134ec836134a7565b613476565b82815260059290921b8401810191818101908684111561351057600080fd5b8286015b84811015613534578051613527816131ca565b8352918301918301613514565b509695505050505050565b6000806040838503121561355257600080fd5b825167ffffffffffffffff81111561356957600080fd5b613575858286016134cb565b925050602083015190509250929050565b6000821982111561359957613599613406565b500190565b634e487b7160e01b600052603260045260246000fd5b6001600160a01b03831681526040602082018190526000906129ed90830184613229565b6000828210156135ea576135ea613406565b500390565b634e487b7160e01b600052603160045260246000fd5b600081600019048311821515161561361f5761361f613406565b500290565b60008261364157634e487b7160e01b600052601260045260246000fd5b500490565b8051801515811461250d57600080fd5b60006020828403121561366857600080fd5b61156682613646565b60008060006060848603121561368657600080fd5b835167ffffffffffffffff81111561369d57600080fd5b6136a9868287016134cb565b93505060208401519150604084015190509250925092565b85815284602082015260a0604082015260006136e060a0830186613229565b6001600160a01b0394909416606083015250608001529392505050565b6000602080838503121561371057600080fd5b825167ffffffffffffffff81111561372757600080fd5b8301601f8101851361373857600080fd5b80516137466134ec826134a7565b81815260059190911b8201830190838101908783111561376557600080fd5b928401925b82841015612fa35783518252928401929084019061376a565b60008251613795818460208701613280565b9190910192915050565b6001600160e01b03198316815281516000906137c2816004850160208701613280565b919091016004019392505050565b6000806000606084860312156137e557600080fd5b83519250602084015191506137fc60408501613646565b9050925092509256fea2646970667358221220b77c4d425149fe9427eb6fa35260334bb1fe7d76cdf22a46601f23438c3c0f8564736f6c63430008090033",
  "devdoc": {
    "kind": "dev",
    "methods": {
      "addKeeper(address)": {
        "params": {
          "_keeperAddress": "keeper address to add."
        }
      },
      "approveToken()": {
        "details": "Approve all required tokens"
      },
      "migrate(address)": {
        "details": "_beforeMigration hook can be implemented in child strategy to do extra steps.",
        "params": {
          "_newStrategy": "Address of new strategy"
        }
      },
      "rebalance()": {
        "details": "Rebalance profit, loss and investment of this strategy"
      },
      "removeKeeper(address)": {
        "params": {
          "_keeperAddress": "keeper address to remove."
        }
      },
      "sweepERC20(address)": {
        "details": "sweep given token to feeCollector of strategy",
        "params": {
          "_fromToken": "token address to sweep"
        }
      },
      "totalValue()": {
        "details": "Report total value in collateral token"
      },
      "totalValueCurrent()": {
        "details": "Report total value in collateral token"
      },
      "updateFeeCollector(address)": {
        "params": {
          "_feeCollector": "fee collector address"
        }
      },
      "updateSwapManager(address)": {
        "params": {
          "_swapManager": "swap manager address"
        }
      },
      "withdraw(uint256)": {
        "details": "Withdraw collateral token from lending pool.",
        "params": {
          "_amount": "Amount of collateral token"
        }
      }
    },
    "title": "This strategy will deposit collateral token in Compound and earn interest.",
    "version": 1
  },
  "userdoc": {
    "kind": "user",
    "methods": {
      "addKeeper(address)": {
        "notice": "Add given address in keepers list."
      },
      "isReservedToken(address)": {
        "notice": "Check whether given token is reserved or not. Reserved tokens are not allowed to sweep."
      },
      "keepers()": {
        "notice": "Return list of keepers"
      },
      "migrate(address)": {
        "notice": "Migrate all asset and vault ownership,if any, to new strategy"
      },
      "removeKeeper(address)": {
        "notice": "Remove given address from keepers list."
      },
      "token()": {
        "notice": "Returns address of token correspond to collateral token"
      },
      "totalValue()": {
        "notice": "Calculate total value using COMP accrued and cToken"
      },
      "totalValueCurrent()": {
        "notice": "Calculate total value of asset under management (in real-time)"
      },
      "updateFeeCollector(address)": {
        "notice": "Update fee collector"
      },
      "updateSwapManager(address)": {
        "notice": "Update swap manager address"
      }
    },
    "version": 1
  },
  "storageLayout": {
    "storage": [
      {
        "astId": 13972,
        "contract": "contracts/strategies/compound/CompoundStrategy.sol:CompoundStrategy",
        "label": "WETH",
        "offset": 0,
        "slot": "0",
        "type": "t_address"
      },
      {
        "astId": 13977,
        "contract": "contracts/strategies/compound/CompoundStrategy.sol:CompoundStrategy",
        "label": "receiptToken",
        "offset": 0,
        "slot": "1",
        "type": "t_address"
      },
      {
        "astId": 13983,
        "contract": "contracts/strategies/compound/CompoundStrategy.sol:CompoundStrategy",
        "label": "feeCollector",
        "offset": 0,
        "slot": "2",
        "type": "t_address"
      },
      {
        "astId": 13986,
        "contract": "contracts/strategies/compound/CompoundStrategy.sol:CompoundStrategy",
        "label": "swapManager",
        "offset": 0,
        "slot": "3",
        "type": "t_contract(ISwapManager)5729"
      },
      {
        "astId": 13989,
        "contract": "contracts/strategies/compound/CompoundStrategy.sol:CompoundStrategy",
        "label": "oraclePeriod",
        "offset": 0,
        "slot": "4",
        "type": "t_uint256"
      },
      {
        "astId": 13992,
        "contract": "contracts/strategies/compound/CompoundStrategy.sol:CompoundStrategy",
        "label": "oracleRouterIdx",
        "offset": 0,
        "slot": "5",
        "type": "t_uint256"
      },
      {
        "astId": 13995,
        "contract": "contracts/strategies/compound/CompoundStrategy.sol:CompoundStrategy",
        "label": "swapSlippage",
        "offset": 0,
        "slot": "6",
        "type": "t_uint256"
      },
      {
        "astId": 13998,
        "contract": "contracts/strategies/compound/CompoundStrategy.sol:CompoundStrategy",
        "label": "_keepers",
        "offset": 0,
        "slot": "7",
        "type": "t_struct(AddressSet)4634_storage"
      },
      {
        "astId": 25573,
        "contract": "contracts/strategies/compound/CompoundStrategy.sol:CompoundStrategy",
        "label": "NAME",
        "offset": 0,
        "slot": "9",
        "type": "t_string_storage"
      },
      {
        "astId": 25579,
        "contract": "contracts/strategies/compound/CompoundStrategy.sol:CompoundStrategy",
        "label": "cToken",
        "offset": 0,
        "slot": "10",
        "type": "t_contract(CToken)5864"
      },
      {
        "astId": 25584,
        "contract": "contracts/strategies/compound/CompoundStrategy.sol:CompoundStrategy",
        "label": "rewardToken",
        "offset": 0,
        "slot": "11",
        "type": "t_address"
      }
    ],
    "types": {
      "t_address": {
        "encoding": "inplace",
        "label": "address",
        "numberOfBytes": "20"
      },
      "t_array(t_bytes32)dyn_storage": {
        "base": "t_bytes32",
        "encoding": "dynamic_array",
        "label": "bytes32[]",
        "numberOfBytes": "32"
      },
      "t_bytes32": {
        "encoding": "inplace",
        "label": "bytes32",
        "numberOfBytes": "32"
      },
      "t_contract(CToken)5864": {
        "encoding": "inplace",
        "label": "contract CToken",
        "numberOfBytes": "20"
      },
      "t_contract(ISwapManager)5729": {
        "encoding": "inplace",
        "label": "contract ISwapManager",
        "numberOfBytes": "20"
      },
      "t_mapping(t_bytes32,t_uint256)": {
        "encoding": "mapping",
        "key": "t_bytes32",
        "label": "mapping(bytes32 => uint256)",
        "numberOfBytes": "32",
        "value": "t_uint256"
      },
      "t_string_storage": {
        "encoding": "bytes",
        "label": "string",
        "numberOfBytes": "32"
      },
      "t_struct(AddressSet)4634_storage": {
        "encoding": "inplace",
        "label": "struct EnumerableSet.AddressSet",
        "members": [
          {
            "astId": 4633,
            "contract": "contracts/strategies/compound/CompoundStrategy.sol:CompoundStrategy",
            "label": "_inner",
            "offset": 0,
            "slot": "0",
            "type": "t_struct(Set)4333_storage"
          }
        ],
        "numberOfBytes": "64"
      },
      "t_struct(Set)4333_storage": {
        "encoding": "inplace",
        "label": "struct EnumerableSet.Set",
        "members": [
          {
            "astId": 4328,
            "contract": "contracts/strategies/compound/CompoundStrategy.sol:CompoundStrategy",
            "label": "_values",
            "offset": 0,
            "slot": "0",
            "type": "t_array(t_bytes32)dyn_storage"
          },
          {
            "astId": 4332,
            "contract": "contracts/strategies/compound/CompoundStrategy.sol:CompoundStrategy",
            "label": "_indexes",
            "offset": 0,
            "slot": "1",
            "type": "t_mapping(t_bytes32,t_uint256)"
          }
        ],
        "numberOfBytes": "64"
      },
      "t_uint256": {
        "encoding": "inplace",
        "label": "uint256",
        "numberOfBytes": "32"
      }
    }
  }
}