{
  "address": "0x0D58D1F0F183120dE7cbCD2a131b7aA519caf304",
  "abi": [
    {
      "inputs": [
        {
          "internalType": "address",
          "name": "pool_",
          "type": "address"
        },
        {
          "internalType": "address",
          "name": "crvPool_",
          "type": "address"
        },
        {
          "internalType": "uint256",
          "name": "crvSlippage_",
          "type": "uint256"
        },
        {
          "internalType": "address",
          "name": "masterOracle_",
          "type": "address"
        },
        {
          "internalType": "address",
          "name": "swapper_",
          "type": "address"
        },
        {
          "internalType": "address",
          "name": "crvDeposit_",
          "type": "address"
        },
        {
          "internalType": "uint256",
          "name": "collateralIdx_",
          "type": "uint256"
        },
        {
          "internalType": "uint256",
          "name": "convexPoolId_",
          "type": "uint256"
        },
        {
          "internalType": "string",
          "name": "name_",
          "type": "string"
        }
      ],
      "stateMutability": "nonpayable",
      "type": "constructor"
    },
    {
      "anonymous": false,
      "inputs": [
        {
          "indexed": false,
          "internalType": "uint256",
          "name": "oldCrvSlippage",
          "type": "uint256"
        },
        {
          "indexed": false,
          "internalType": "uint256",
          "name": "newCrvSlippage",
          "type": "uint256"
        }
      ],
      "name": "CrvSlippageUpdated",
      "type": "event"
    },
    {
      "anonymous": false,
      "inputs": [
        {
          "indexed": false,
          "internalType": "contract IMasterOracle",
          "name": "oldMasterOracle",
          "type": "address"
        },
        {
          "indexed": false,
          "internalType": "contract IMasterOracle",
          "name": "newMasterOracle",
          "type": "address"
        }
      ],
      "name": "MasterOracleUpdated",
      "type": "event"
    },
    {
      "anonymous": false,
      "inputs": [
        {
          "indexed": true,
          "internalType": "address",
          "name": "previousFeeCollector",
          "type": "address"
        },
        {
          "indexed": true,
          "internalType": "address",
          "name": "newFeeCollector",
          "type": "address"
        }
      ],
      "name": "UpdatedFeeCollector",
      "type": "event"
    },
    {
      "anonymous": false,
      "inputs": [
        {
          "indexed": true,
          "internalType": "contract IRoutedSwapper",
          "name": "oldSwapper",
          "type": "address"
        },
        {
          "indexed": true,
          "internalType": "contract IRoutedSwapper",
          "name": "newSwapper",
          "type": "address"
        }
      ],
      "name": "UpdatedSwapper",
      "type": "event"
    },
    {
      "inputs": [],
      "name": "ADDRESS_PROVIDER",
      "outputs": [
        {
          "internalType": "contract IAddressProvider",
          "name": "",
          "type": "address"
        }
      ],
      "stateMutability": "view",
      "type": "function"
    },
    {
      "inputs": [],
      "name": "BOOSTER",
      "outputs": [
        {
          "internalType": "contract IConvex",
          "name": "",
          "type": "address"
        }
      ],
      "stateMutability": "view",
      "type": "function"
    },
    {
      "inputs": [],
      "name": "CRV",
      "outputs": [
        {
          "internalType": "address",
          "name": "",
          "type": "address"
        }
      ],
      "stateMutability": "view",
      "type": "function"
    },
    {
      "inputs": [],
      "name": "CRV_MINTER",
      "outputs": [
        {
          "internalType": "contract ITokenMinter",
          "name": "",
          "type": "address"
        }
      ],
      "stateMutability": "view",
      "type": "function"
    },
    {
      "inputs": [],
      "name": "CVX",
      "outputs": [
        {
          "internalType": "address",
          "name": "",
          "type": "address"
        }
      ],
      "stateMutability": "view",
      "type": "function"
    },
    {
      "inputs": [],
      "name": "NAME",
      "outputs": [
        {
          "internalType": "string",
          "name": "",
          "type": "string"
        }
      ],
      "stateMutability": "view",
      "type": "function"
    },
    {
      "inputs": [],
      "name": "VERSION",
      "outputs": [
        {
          "internalType": "string",
          "name": "",
          "type": "string"
        }
      ],
      "stateMutability": "view",
      "type": "function"
    },
    {
      "inputs": [
        {
          "internalType": "address",
          "name": "_keeperAddress",
          "type": "address"
        }
      ],
      "name": "addKeeper",
      "outputs": [],
      "stateMutability": "nonpayable",
      "type": "function"
    },
    {
      "inputs": [],
      "name": "approveToken",
      "outputs": [],
      "stateMutability": "nonpayable",
      "type": "function"
    },
    {
      "inputs": [],
      "name": "collateral",
      "outputs": [
        {
          "internalType": "address",
          "name": "",
          "type": "address"
        }
      ],
      "stateMutability": "view",
      "type": "function"
    },
    {
      "inputs": [],
      "name": "collateralIdx",
      "outputs": [
        {
          "internalType": "uint256",
          "name": "",
          "type": "uint256"
        }
      ],
      "stateMutability": "view",
      "type": "function"
    },
    {
      "inputs": [],
      "name": "collateralToken",
      "outputs": [
        {
          "internalType": "contract IERC20",
          "name": "",
          "type": "address"
        }
      ],
      "stateMutability": "view",
      "type": "function"
    },
    {
      "inputs": [],
      "name": "convexPoolId",
      "outputs": [
        {
          "internalType": "uint256",
          "name": "",
          "type": "uint256"
        }
      ],
      "stateMutability": "view",
      "type": "function"
    },
    {
      "inputs": [],
      "name": "crvDeposit",
      "outputs": [
        {
          "internalType": "contract IDeposit4x",
          "name": "",
          "type": "address"
        }
      ],
      "stateMutability": "view",
      "type": "function"
    },
    {
      "inputs": [],
      "name": "crvGauge",
      "outputs": [
        {
          "internalType": "contract ILiquidityGaugeV2",
          "name": "",
          "type": "address"
        }
      ],
      "stateMutability": "view",
      "type": "function"
    },
    {
      "inputs": [],
      "name": "crvLp",
      "outputs": [
        {
          "internalType": "contract IERC20",
          "name": "",
          "type": "address"
        }
      ],
      "stateMutability": "view",
      "type": "function"
    },
    {
      "inputs": [],
      "name": "crvPool",
      "outputs": [
        {
          "internalType": "address",
          "name": "",
          "type": "address"
        }
      ],
      "stateMutability": "view",
      "type": "function"
    },
    {
      "inputs": [],
      "name": "crvSlippage",
      "outputs": [
        {
          "internalType": "uint256",
          "name": "",
          "type": "uint256"
        }
      ],
      "stateMutability": "view",
      "type": "function"
    },
    {
      "inputs": [],
      "name": "cvxCrvRewards",
      "outputs": [
        {
          "internalType": "contract Rewards",
          "name": "",
          "type": "address"
        }
      ],
      "stateMutability": "view",
      "type": "function"
    },
    {
      "inputs": [],
      "name": "feeCollector",
      "outputs": [
        {
          "internalType": "address",
          "name": "",
          "type": "address"
        }
      ],
      "stateMutability": "view",
      "type": "function"
    },
    {
      "inputs": [
        {
          "internalType": "address",
          "name": "token_",
          "type": "address"
        }
      ],
      "name": "isReservedToken",
      "outputs": [
        {
          "internalType": "bool",
          "name": "",
          "type": "bool"
        }
      ],
      "stateMutability": "view",
      "type": "function"
    },
    {
      "inputs": [],
      "name": "keepers",
      "outputs": [
        {
          "internalType": "address[]",
          "name": "",
          "type": "address[]"
        }
      ],
      "stateMutability": "view",
      "type": "function"
    },
    {
      "inputs": [],
      "name": "lpBalanceHere",
      "outputs": [
        {
          "internalType": "uint256",
          "name": "_lpHere",
          "type": "uint256"
        }
      ],
      "stateMutability": "view",
      "type": "function"
    },
    {
      "inputs": [],
      "name": "lpBalanceHereAndStaked",
      "outputs": [
        {
          "internalType": "uint256",
          "name": "_lpHereAndStaked",
          "type": "uint256"
        }
      ],
      "stateMutability": "view",
      "type": "function"
    },
    {
      "inputs": [],
      "name": "lpBalanceStaked",
      "outputs": [
        {
          "internalType": "uint256",
          "name": "total",
          "type": "uint256"
        }
      ],
      "stateMutability": "view",
      "type": "function"
    },
    {
      "inputs": [],
      "name": "masterOracle",
      "outputs": [
        {
          "internalType": "contract IMasterOracle",
          "name": "",
          "type": "address"
        }
      ],
      "stateMutability": "view",
      "type": "function"
    },
    {
      "inputs": [
        {
          "internalType": "address",
          "name": "_newStrategy",
          "type": "address"
        }
      ],
      "name": "migrate",
      "outputs": [],
      "stateMutability": "nonpayable",
      "type": "function"
    },
    {
      "inputs": [],
      "name": "pool",
      "outputs": [
        {
          "internalType": "address",
          "name": "",
          "type": "address"
        }
      ],
      "stateMutability": "view",
      "type": "function"
    },
    {
      "inputs": [],
      "name": "rebalance",
      "outputs": [
        {
          "internalType": "uint256",
          "name": "_profit",
          "type": "uint256"
        },
        {
          "internalType": "uint256",
          "name": "_loss",
          "type": "uint256"
        },
        {
          "internalType": "uint256",
          "name": "_payback",
          "type": "uint256"
        }
      ],
      "stateMutability": "nonpayable",
      "type": "function"
    },
    {
      "inputs": [],
      "name": "receiptToken",
      "outputs": [
        {
          "internalType": "address",
          "name": "",
          "type": "address"
        }
      ],
      "stateMutability": "view",
      "type": "function"
    },
    {
      "inputs": [
        {
          "internalType": "address",
          "name": "_keeperAddress",
          "type": "address"
        }
      ],
      "name": "removeKeeper",
      "outputs": [],
      "stateMutability": "nonpayable",
      "type": "function"
    },
    {
      "inputs": [
        {
          "internalType": "uint256",
          "name": "",
          "type": "uint256"
        }
      ],
      "name": "rewardTokens",
      "outputs": [
        {
          "internalType": "address",
          "name": "",
          "type": "address"
        }
      ],
      "stateMutability": "view",
      "type": "function"
    },
    {
      "inputs": [
        {
          "internalType": "address[]",
          "name": "",
          "type": "address[]"
        }
      ],
      "name": "setRewardTokens",
      "outputs": [],
      "stateMutability": "nonpayable",
      "type": "function"
    },
    {
      "inputs": [],
      "name": "swapper",
      "outputs": [
        {
          "internalType": "contract IRoutedSwapper",
          "name": "",
          "type": "address"
        }
      ],
      "stateMutability": "view",
      "type": "function"
    },
    {
      "inputs": [
        {
          "internalType": "address",
          "name": "_fromToken",
          "type": "address"
        }
      ],
      "name": "sweepERC20",
      "outputs": [],
      "stateMutability": "nonpayable",
      "type": "function"
    },
    {
      "inputs": [],
      "name": "token",
      "outputs": [
        {
          "internalType": "address",
          "name": "",
          "type": "address"
        }
      ],
      "stateMutability": "view",
      "type": "function"
    },
    {
      "inputs": [],
      "name": "tvl",
      "outputs": [
        {
          "internalType": "uint256",
          "name": "",
          "type": "uint256"
        }
      ],
      "stateMutability": "view",
      "type": "function"
    },
    {
      "inputs": [
        {
          "internalType": "uint256",
          "name": "newCrvSlippage_",
          "type": "uint256"
        }
      ],
      "name": "updateCrvSlippage",
      "outputs": [],
      "stateMutability": "nonpayable",
      "type": "function"
    },
    {
      "inputs": [
        {
          "internalType": "address",
          "name": "_feeCollector",
          "type": "address"
        }
      ],
      "name": "updateFeeCollector",
      "outputs": [],
      "stateMutability": "nonpayable",
      "type": "function"
    },
    {
      "inputs": [
        {
          "internalType": "contract IMasterOracle",
          "name": "newMasterOracle_",
          "type": "address"
        }
      ],
      "name": "updateMasterOracle",
      "outputs": [],
      "stateMutability": "nonpayable",
      "type": "function"
    },
    {
      "inputs": [
        {
          "internalType": "contract IRoutedSwapper",
          "name": "_swapper",
          "type": "address"
        }
      ],
      "name": "updateSwapper",
      "outputs": [],
      "stateMutability": "nonpayable",
      "type": "function"
    },
    {
      "inputs": [
        {
          "internalType": "uint256",
          "name": "_amount",
          "type": "uint256"
        }
      ],
      "name": "withdraw",
      "outputs": [],
      "stateMutability": "nonpayable",
      "type": "function"
    }
  ],
  "transactionHash": "0x02589e3a9b39128e1daf5962a80ce9e2bbeaaab454af48d238b1c47707e6640f",
  "args": [
    "0x83c608b3997db00B5C6D93746785857Cd22d4495",
    "0x8474DdbE98F5aA3179B3B3F5942D724aFcdec9f6",
    10,
    "0x80704Acdf97723963263c78F861F091ad04F46E2",
    "0x8f156189A3CD28dFc8FB7BbbAce58F98F09c0bB3",
    "0x803A2B40c5a9BB2B86DD630B274Fa2A9202874C2",
    0,
    14,
    "Convex_musd_MUSD"
  ],
  "numDeployments": 1,
  "solcInputHash": "ca0be09fa0c34adaa1f50ed9a412c49c",
  "bytecode": "0x6101a0604052600580546001600160a01b03191673d533a949740bb3306d119cc777fa900ba034cd521790553480156200003857600080fd5b50604051620056a9380380620056a98339810160408190526200005b91620010fc565b81898989898989898887878787878686868360006001600160a01b038316620000cb5760405162461bcd60e51b815260206004820152601460248201527f706f6f6c2d616464726573732d69732d7a65726f00000000000000000000000060448201526064015b60405180910390fd5b6001600160a01b038216620001235760405162461bcd60e51b815260206004820152601760248201527f737761707065722d616464726573732d69732d7a65726f0000000000000000006044820152606401620000c2565b600280546001600160a01b0319166001600160a01b0384811691909117909155831660a081905260408051637e062a3560e11b8152905163fc0c546a91600480820192602092909190829003018186803b1580156200018157600080fd5b505afa15801562000196573d6000803e3d6000fd5b505050506040513d601f19601f82011682018060405250810190620001bc919062001248565b6001600160a01b03908116608052600080546001600160a01b03191691831691909117905562000203620001ed3390565b600362000f8260201b62001a3f1790919060201c565b620002455760405162461bcd60e51b81526020600482015260116024820152701859190b5ad9595c195c8b59985a5b1959607a1b6044820152606401620000c2565b5050504661a86a14156200027f57600580546001600160a01b0319167347536f17f4ff30e64a96a7555826b8f9e66ec468179055620002e7565b4660891415620002b557600580546001600160a01b03191673172370d5cd63279efa6d502dab29171933a610af179055620002e7565b4661a4b11415620002e757600580546001600160a01b0319167311cdb42b0eb46d95f990bedd4695a6e3fa0349781790555b6000806000806f22d53366457f9d5e68ec105046fc43836001600160a01b031663a262904b6040518163ffffffff1660e01b815260040160206040518083038186803b1580156200033757600080fd5b505afa1580156200034c573d6000803e3d6000fd5b505050506040513d601f19601f8201168201806040525081019062000372919062001248565b604051633795104960e01b81526001600160a01b038c811660048301529192509082169063379510499060240160206040518083038186803b158015620003b857600080fd5b505afa158015620003cd573d6000803e3d6000fd5b505050506040513d601f19601f82011682018060405250810190620003f3919062001248565b93506001600160a01b03841615806200063f5760405163940494f160e01b81526001600160a01b038c8116600483015283169063940494f190602401604080518083038186803b1580156200044757600080fd5b505afa1580156200045c573d6000803e3d6000fd5b505050506040513d601f19601f820116820180604052508101906200048291906200126f565b602001518710620004cb5760405162461bcd60e51b81526020600482015260126024820152711a5b9d985b1a590b58dbdb1b185d195c985b60721b6044820152606401620000c2565b60405163a77576ef60e01b81526001600160a01b038c8116600483015283169063a77576ef906024016101006040518083038186803b1580156200050e57600080fd5b505afa15801562000523573d6000803e3d6000fd5b505050506040513d601f19601f820116820180604052508101906200054991906200130c565b87600881106200055d576200055d620012f6565b60200201516040516356059ffb60e01b81526001600160a01b038d81166004830152919450908316906356059ffb906024016101406040518083038186803b158015620005a957600080fd5b505afa158015620005be573d6000803e3d6000fd5b505050506040513d601f19601f82011682018060405250810190620005e491906200139d565b5193506001600160a01b0384161580156200061b575073dcef968d416a41cdac0ed8702fac8128a64241a26001600160a01b038c16145b15620006395773cfc25170633581bf896cb6cdee170e3e3aa5950393505b62000a8f565b60405163124fd3dd60e21b8152600360048201526000906f22d53366457f9d5e68ec105046fc43839063493f4f749060240160206040518083038186803b1580156200068a57600080fd5b505afa1580156200069f573d6000803e3d6000fd5b505050506040513d601f19601f82011682018060405250810190620006c5919062001248565b60405163e4d332a960e01b81526001600160a01b038e811660048301529192509082169063e4d332a99060240160206040518083038186803b1580156200070b57600080fd5b505afa15801562000720573d6000803e3d6000fd5b505050506040513d601f19601f8201168201806040525081019062000746919062001439565b15620008b05760405163eb73f37d60e01b81526001600160a01b038d8116600483015282169063eb73f37d90602401604080518083038186803b1580156200078d57600080fd5b505afa158015620007a2573d6000803e3d6000fd5b505050506040513d601f19601f82011682018060405250810190620007c891906200126f565b602001518810620008115760405162461bcd60e51b81526020600482015260126024820152711a5b9d985b1a590b58dbdb1b185d195c985b60721b6044820152606401620000c2565b60405163a77576ef60e01b81526001600160a01b038d8116600483015282169063a77576ef906024016101006040518083038186803b1580156200085457600080fd5b505afa15801562000869573d6000803e3d6000fd5b505050506040513d601f19601f820116820180604052508101906200088f91906200130c565b8860088110620008a357620008a3620012f6565b6020020151935062000a0b565b60405163940494f160e01b81526001600160a01b038d8116600483015282169063940494f19060240160206040518083038186803b158015620008f257600080fd5b505afa15801562000907573d6000803e3d6000fd5b505050506040513d601f19601f820116820180604052508101906200092d919062001457565b8810620009725760405162461bcd60e51b81526020600482015260126024820152711a5b9d985b1a590b58dbdb1b185d195c985b60721b6044820152606401620000c2565b604051639ac90d3d60e01b81526001600160a01b038d81166004830152821690639ac90d3d9060240160806040518083038186803b158015620009b457600080fd5b505afa158015620009c9573d6000803e3d6000fd5b505050506040513d601f19601f82011682018060405250810190620009ef919062001471565b886004811062000a035762000a03620012f6565b602002015193505b60405163daf297b960e01b81526001600160a01b03808e1660048301528d975082169063daf297b99060240160206040518083038186803b15801562000a5057600080fd5b505afa15801562000a65573d6000803e3d6000fd5b505050506040513d601f19601f8201168201806040525081019062000a8b919062001248565b9450505b8b6001600160a01b031663fc0c546a6040518163ffffffff1660e01b815260040160206040518083038186803b15801562000ac957600080fd5b505afa15801562000ade573d6000803e3d6000fd5b505050506040513d601f19601f8201168201806040525081019062000b04919062001248565b6001600160a01b0316836001600160a01b03161462000b665760405162461bcd60e51b815260206004820152601360248201527f636f6c6c61746572616c2d6d69736d61746368000000000000000000000000006044820152606401620000c2565b6001600160a01b038b1662000bad5760405162461bcd60e51b815260206004820152600c60248201526b1c1bdbdb0b5a5ccb5b9d5b1b60a21b6044820152606401620000c2565b6001600160a01b03851662000bf25760405162461bcd60e51b815260206004820152600a6024820152691b1c0b5a5ccb5b9d5b1b60b21b6044820152606401620000c2565b6001600160a01b03841662000c3a5760405162461bcd60e51b815260206004820152600d60248201526c19d85d59d94b5a5ccb5b9d5b1b609a1b6044820152606401620000c2565b6001600160a01b03808c1660e05285811660c08190529085166101005260078b9055600080546001600160a01b0319169091179055610120879052855162000c8a90600690602089019062000ff4565b5050600880546001600160a01b03998a166001600160a01b031991821617909155600554600980546001810182556000919091527f6e1540171b6c0c960b71a7020d9f60077f6af931a8bbf590da0223dacf75c7af018054909216908a161790555050505089841661014081905260c05160408051637e062a3560e11b8152905191909616985090965063fc0c546a955060048086019560209550919350908390030190508186803b15801562000d4057600080fd5b505afa15801562000d55573d6000803e3d6000fd5b505050506040513d601f19601f8201168201806040525081019062000d7b919062001248565b6001600160a01b03161462000dd35760405162461bcd60e51b815260206004820152601860248201527f696e76616c69642d6465706f7369742d636f6e747261637400000000000000006044820152606401620000c2565b5050604051631526fe2760e01b8152600481018890526000965073f403c135812408bfbe8713b5a23a04b3d48aae319550631526fe279450602401925062000e19915050565b60c06040518083038186803b15801562000e3257600080fd5b505afa15801562000e47573d6000803e3d6000fd5b505050506040513d601f19601f8201168201806040525081019062000e6d9190620014f6565b50506001600160a01b0316610160525050506101809190915250604051631526fe2760e01b81526004810183905260009073f403c135812408bfbe8713b5a23a04b3d48aae3190631526fe279060240160c06040518083038186803b15801562000ed657600080fd5b505afa15801562000eeb573d6000803e3d6000fd5b505050506040513d601f19601f8201168201806040525081019062000f119190620014f6565b5050505050905060c0516001600160a01b0316816001600160a01b03161462000f725760405162461bcd60e51b815260206004820152601260248201527134b731b7b93932b1ba16b63816ba37b5b2b760711b6044820152606401620000c2565b50505050505050505050620015c2565b600062000f99836001600160a01b03841662000fa2565b90505b92915050565b600081815260018301602052604081205462000feb5750815460018181018455600084815260208082209093018490558454848252828601909352604090209190915562000f9c565b50600062000f9c565b828054620010029062001585565b90600052602060002090601f01602090048101928262001026576000855562001071565b82601f106200104157805160ff191683800117855562001071565b8280016001018555821562001071579182015b828111156200107157825182559160200191906001019062001054565b506200107f92915062001083565b5090565b5b808211156200107f576000815560010162001084565b6001600160a01b0381168114620010b057600080fd5b50565b634e487b7160e01b600052604160045260246000fd5b604051601f8201601f191681016001600160401b0381118282101715620010f457620010f4620010b3565b604052919050565b60008060008060008060008060006101208a8c0312156200111c57600080fd5b895162001129816200109a565b809950506020808b01516200113e816200109a565b60408c015160608d0151919a50985062001158816200109a565b60808c01519097506200116b816200109a565b60a08c01519096506200117e816200109a565b60c08c015160e08d01516101008e015192975090955093506001600160401b0380821115620011ac57600080fd5b818d0191508d601f830112620011c157600080fd5b815181811115620011d657620011d6620010b3565b620011ea601f8201601f19168501620010c9565b91508082528e848285010111156200120157600080fd5b60005b818110156200122157838101850151838201860152840162001204565b81811115620012335760008583850101525b50508093505050509295985092959850929598565b6000602082840312156200125b57600080fd5b815162001268816200109a565b9392505050565b6000604082840312156200128257600080fd5b82601f8301126200129257600080fd5b604080519081016001600160401b0381118282101715620012b757620012b7620010b3565b8060405250806040840185811115620012cf57600080fd5b845b81811015620012eb578051835260209283019201620012d1565b509195945050505050565b634e487b7160e01b600052603260045260246000fd5b60006101008083850312156200132157600080fd5b83601f8401126200133157600080fd5b6040518181016001600160401b0381118282101715620013555762001355620010b3565b6040529083019080858311156200136b57600080fd5b845b838110156200139257805162001383816200109a565b8252602091820191016200136d565b509095945050505050565b6000610140808385031215620013b257600080fd5b83601f840112620013c257600080fd5b6040518181016001600160401b0381118282101715620013e657620013e6620010b3565b604052908301908085831115620013fc57600080fd5b845b838110156200139257805162001414816200109a565b825260209182019101620013fe565b805180151581146200143457600080fd5b919050565b6000602082840312156200144c57600080fd5b62000f998262001423565b6000602082840312156200146a57600080fd5b5051919050565b6000608082840312156200148457600080fd5b82601f8301126200149457600080fd5b604051608081016001600160401b0381118282101715620014b957620014b9620010b3565b604052806080840185811115620014cf57600080fd5b845b81811015620012eb578051620014e7816200109a565b835260209283019201620014d1565b60008060008060008060c087890312156200151057600080fd5b86516200151d816200109a565b602088015190965062001530816200109a565b604088015190955062001543816200109a565b606088015190945062001556816200109a565b608088015190935062001569816200109a565b91506200157960a0880162001423565b90509295509295509295565b600181811c908216806200159a57607f821691505b60208210811415620015bc57634e487b7160e01b600052602260045260246000fd5b50919050565b60805160a05160c05160e0516101005161012051610140516101605161018051613ea862001801600039600081816105d001526136fd0152600081816104830152818161106801528181611c0d01528181611cc201528181611f22015281816128b101528181612c4101526133af0152600081816104bd015281816126d101528181612ad301528181612b2701528181612df50152613610015260008181610353015281816119ca0152818161217701528181612fd30152613576015260008181610636015261353001526000818161050b015261345501526000818161041701528181610cce01528181610d5d0152818161170e015281816120c9015281816122170152818161242601528181612b050152818161350e015281816135d201526136610152600081816102900152818161067e015281816107d30152818161096a01528181610a8601528181610b6401528181610bc001528181610f26015281816110a00152818161113d0152818161136901528181611532015281816122c101528181612e6701528181612f0701526138140152600081816104e40152818161058c01528181610911015281816109c901528181610a6401528181610ad801528181610b9701528181610d09015281816112cd0152818161181401528181611a0a015281816122380152818161233c01528181612ab101528181612fa80152818161302d01528181613185015281816131c7015281816132ab0152818161343301528181613487015281816135b101526137f20152613ea86000f3fe608060405234801561001057600080fd5b506004361061025e5760003560e01c8063a7404b7011610146578063d572fd7f116100c3578063e5328e0611610087578063e5328e06146105f2578063eaada382146105fa578063ec78e8321461060d578063fc0c546a14610620578063fd57a4df14610631578063ffa1ad741461065857600080fd5b8063d572fd7f14610581578063d8dfeb451461058a578063de603fdc146105b0578063e00af4a7146105b8578063e529ee95146105cb57600080fd5b8063c415b95c1161010a578063c415b95c1461052d578063c965fa8a14610540578063ce5494bb14610548578063d2c35ce81461055b578063d3033c391461056e57600080fd5b8063a7404b701461047e578063abc9b45e146104a5578063b026e227146104b8578063b2016bd4146104df578063b20fdc0d1461050657600080fd5b806374db9ad4116101df5780637d7c2a1c116101a35780637d7c2a1c146103ef5780637f44579b14610412578063945c914214610439578063951dc22c1461044c57806399b71d5c14610461578063a3f4df7e1461046957600080fd5b806374db9ad414610383578063759cb53b1461039e57806375b0ffd1146103b9578063795dae66146103d45780637bb7bed1146103dc57600080fd5b80632b3297f9116102265780632b3297f9146102f25780632e1a7d4d146103055780634032b72b14610318578063440d72481461032b57806348cd2ddd1461034e57600080fd5b806304f4efc51461026357806314ae9f2e1461027857806316f0115b1461028b5780631848effa146102c8578063201e81a8146102df575b600080fd5b610276610271366004613a2e565b61067c565b005b610276610286366004613a6c565b6107d1565b6102b27f000000000000000000000000000000000000000000000000000000000000000081565b6040516102bf9190613a89565b60405180910390f35b6102b26f22d53366457f9d5e68ec105046fc438381565b6102766102ed366004613ab3565b6108e3565b6002546102b2906001600160a01b031681565b610276610313366004613a2e565b610967565b610276610326366004613a6c565b610bbe565b61033e610339366004613a6c565b610cca565b60405190151581526020016102bf565b6103757f000000000000000000000000000000000000000000000000000000000000000081565b6040519081526020016102bf565b6102b273d061d61a4d941c39e5453435b6345dc261c2fce081565b6102b2734e3fbd56cd56c3e72c1403e103b45db9da5b9d2b81565b6102b273f403c135812408bfbe8713b5a23a04b3d48aae3181565b610375610d43565b6102b26103ea366004613a2e565b610de7565b6103f7610e11565b604080519384526020840192909252908201526060016102bf565b6102b27f000000000000000000000000000000000000000000000000000000000000000081565b6005546102b2906001600160a01b031681565b610454610e4e565b6040516102bf9190613b78565b610276610e5a565b610471610e96565b6040516102bf9190613bf1565b6102b27f000000000000000000000000000000000000000000000000000000000000000081565b6102766104b3366004613a6c565b610f24565b6102b27f000000000000000000000000000000000000000000000000000000000000000081565b6102b27f000000000000000000000000000000000000000000000000000000000000000081565b6102b27f000000000000000000000000000000000000000000000000000000000000000081565b6001546102b2906001600160a01b031681565b61037561104e565b610276610556366004613a6c565b61109d565b610276610569366004613a6c565b611367565b61027661057c366004613a6c565b611530565b61037560075481565b7f00000000000000000000000000000000000000000000000000000000000000006102b2565b6103756116ed565b6102766105c6366004613a6c565b61179d565b6103757f000000000000000000000000000000000000000000000000000000000000000081565b6103756119b8565b6008546102b2906001600160a01b031681565b6000546102b2906001600160a01b031681565b6000546001600160a01b03166102b2565b6102b27f000000000000000000000000000000000000000000000000000000000000000081565b610471604051806040016040528060058152602001640352e302e360dc1b81525081565b7f00000000000000000000000000000000000000000000000000000000000000006001600160a01b0316630c340a246040518163ffffffff1660e01b815260040160206040518083038186803b1580156106d557600080fd5b505afa1580156106e9573d6000803e3d6000fd5b505050506040513d601f19601f8201168201806040525081019061070d9190613c24565b6001600160a01b0316336001600160a01b0316146107465760405162461bcd60e51b815260040161073d90613c41565b60405180910390fd5b61271081106107905760405162461bcd60e51b8152602060048201526016602482015275696e76616c69642d736c6970706167652d76616c756560501b604482015260640161073d565b60075460408051918252602082018390527f43a94473b3422f31e660358900c02b907f22142a3224beace1f2b9f1fa079a9e910160405180910390a1600755565b7f00000000000000000000000000000000000000000000000000000000000000006001600160a01b0316630c340a246040518163ffffffff1660e01b815260040160206040518083038186803b15801561082a57600080fd5b505afa15801561083e573d6000803e3d6000fd5b505050506040513d601f19601f820116820180604052508101906108629190613c24565b6001600160a01b0316336001600160a01b0316146108925760405162461bcd60e51b815260040161073d90613c41565b61089d600382611a5b565b6108e05760405162461bcd60e51b81526020600482015260146024820152731c995b5bdd994b5ad9595c195c8b59985a5b195960621b604482015260640161073d565b50565b6108f0335b600390611a70565b61090c5760405162461bcd60e51b815260040161073d90613c78565b6109357f0000000000000000000000000000000000000000000000000000000000000000611a92565b61093d611c06565b80516109519160099160209091019061399a565b5061095c60006120bc565b6108e06000196120bc565b337f00000000000000000000000000000000000000000000000000000000000000006001600160a01b0316146109af5760405162461bcd60e51b815260040161073d90613ca8565b6040516370a0823160e01b81526000906001600160a01b037f000000000000000000000000000000000000000000000000000000000000000016906370a08231906109fe903090600401613a89565b60206040518083038186803b158015610a1657600080fd5b505afa158015610a2a573d6000803e3d6000fd5b505050506040513d601f19601f82011682018060405250810190610a4e9190613cdb565b9050818110610aaf57610aab6001600160a01b037f0000000000000000000000000000000000000000000000000000000000000000167f00000000000000000000000000000000000000000000000000000000000000008461210d565b5050565b610ac1610abc8284613d0a565b612170565b6040516370a0823160e01b81526001600160a01b037f000000000000000000000000000000000000000000000000000000000000000016906370a0823190610b0d903090600401613a89565b60206040518083038186803b158015610b2557600080fd5b505afa158015610b39573d6000803e3d6000fd5b505050506040513d601f19601f82011682018060405250810190610b5d9190613cdb565b9050610aab7f0000000000000000000000000000000000000000000000000000000000000000610b8d8484612272565b6001600160a01b037f000000000000000000000000000000000000000000000000000000000000000016919061210d565b7f00000000000000000000000000000000000000000000000000000000000000006001600160a01b0316630c340a246040518163ffffffff1660e01b815260040160206040518083038186803b158015610c1757600080fd5b505afa158015610c2b573d6000803e3d6000fd5b505050506040513d601f19601f82011682018060405250810190610c4f9190613c24565b6001600160a01b0316336001600160a01b031614610c7f5760405162461bcd60e51b815260040161073d90613c41565b610c8a600382611a3f565b6108e05760405162461bcd60e51b81526020600482015260116024820152701859190b5ad9595c195c8b59985a5b1959607a1b604482015260640161073d565b60007f00000000000000000000000000000000000000000000000000000000000000006001600160a01b0316826001600160a01b03161480610d3d57507f00000000000000000000000000000000000000000000000000000000000000006001600160a01b0316826001600160a01b0316145b92915050565b6040516370a0823160e01b81526000906001600160a01b037f000000000000000000000000000000000000000000000000000000000000000016906370a0823190610d92903090600401613a89565b60206040518083038186803b158015610daa57600080fd5b505afa158015610dbe573d6000803e3d6000fd5b505050506040513d601f19601f82011682018060405250810190610de29190613cdb565b905090565b60098181548110610df757600080fd5b6000918252602090912001546001600160a01b0316905081565b60008080610e1e336108e8565b610e3a5760405162461bcd60e51b815260040161073d90613c78565b610e42612288565b9250925092505b909192565b6060610de2600361232d565b610e63336108e8565b610e7f5760405162461bcd60e51b815260040161073d90613c78565b610e8960006120bc565b610e946000196120bc565b565b60068054610ea390613d21565b80601f0160208091040260200160405190810160405280929190818152602001828054610ecf90613d21565b8015610f1c5780601f10610ef157610100808354040283529160200191610f1c565b820191906000526020600020905b815481529060010190602001808311610eff57829003601f168201915b505050505081565b7f00000000000000000000000000000000000000000000000000000000000000006001600160a01b0316630c340a246040518163ffffffff1660e01b815260040160206040518083038186803b158015610f7d57600080fd5b505afa158015610f91573d6000803e3d6000fd5b505050506040513d601f19601f82011682018060405250810190610fb59190613c24565b6001600160a01b0316336001600160a01b031614610fe55760405162461bcd60e51b815260040161073d90613c41565b600854604080516001600160a01b03928316815291831660208301527fc96bca3f57d35a1057a3357bced51fac157918147faa56845639671c516ec69c910160405180910390a1600880546001600160a01b0319166001600160a01b0392909216919091179055565b6040516370a0823160e01b81526000906001600160a01b037f000000000000000000000000000000000000000000000000000000000000000016906370a0823190610d92903090600401613a89565b337f00000000000000000000000000000000000000000000000000000000000000006001600160a01b0316146110e55760405162461bcd60e51b815260040161073d90613ca8565b6001600160a01b03811661113b5760405162461bcd60e51b815260206004820152601c60248201527f6e65772d73747261746567792d616464726573732d69732d7a65726f00000000604482015260640161073d565b7f00000000000000000000000000000000000000000000000000000000000000006001600160a01b0316816001600160a01b03166316f0115b6040518163ffffffff1660e01b815260040160206040518083038186803b15801561119e57600080fd5b505afa1580156111b2573d6000803e3d6000fd5b505050506040513d601f19601f820116820180604052508101906111d69190613c24565b6001600160a01b0316146112255760405162461bcd60e51b81526020600482015260166024820152756e6f742d76616c69642d6e65772d737472617465677960501b604482015260640161073d565b61122e8161233a565b6000546040516370a0823160e01b81526112c79183916001600160a01b03909116906370a0823190611264903090600401613a89565b60206040518083038186803b15801561127c57600080fd5b505afa158015611290573d6000803e3d6000fd5b505050506040513d601f19601f820116820180604052508101906112b49190613cdb565b6000546001600160a01b0316919061210d565b6108e0817f00000000000000000000000000000000000000000000000000000000000000006001600160a01b03166370a08231306040518263ffffffff1660e01b81526004016113179190613a89565b60206040518083038186803b15801561132f57600080fd5b505afa158015611343573d6000803e3d6000fd5b505050506040513d601f19601f82011682018060405250810190610b8d9190613cdb565b7f00000000000000000000000000000000000000000000000000000000000000006001600160a01b0316630c340a246040518163ffffffff1660e01b815260040160206040518083038186803b1580156113c057600080fd5b505afa1580156113d4573d6000803e3d6000fd5b505050506040513d601f19601f820116820180604052508101906113f89190613c24565b6001600160a01b0316336001600160a01b0316146114285760405162461bcd60e51b815260040161073d90613c41565b6001600160a01b03811661147e5760405162461bcd60e51b815260206004820152601d60248201527f6665652d636f6c6c6563746f722d616464726573732d69732d7a65726f000000604482015260640161073d565b6001546001600160a01b03828116911614156114d45760405162461bcd60e51b81526020600482015260156024820152746665652d636f6c6c6563746f722d69732d73616d6560581b604482015260640161073d565b6001546040516001600160a01b038084169216907f0f06062680f9bd68e786e9980d9bb03d73d5620fc3b345e417b6eacb310b970690600090a3600180546001600160a01b0319166001600160a01b0392909216919091179055565b7f00000000000000000000000000000000000000000000000000000000000000006001600160a01b0316630c340a246040518163ffffffff1660e01b815260040160206040518083038186803b15801561158957600080fd5b505afa15801561159d573d6000803e3d6000fd5b505050506040513d601f19601f820116820180604052508101906115c19190613c24565b6001600160a01b0316336001600160a01b0316146115f15760405162461bcd60e51b815260040161073d90613c41565b6001600160a01b0381166116415760405162461bcd60e51b8152602060048201526017602482015276737761707065722d616464726573732d69732d7a65726f60481b604482015260640161073d565b6002546001600160a01b03828116911614156116915760405162461bcd60e51b815260206004820152600f60248201526e737761707065722d69732d73616d6560881b604482015260640161073d565b6002546040516001600160a01b038084169216907f6c953b7ec311055c20b96a42cea31e89528e375b1bf953a503db40854b3188fe90600090a3600280546001600160a01b0319166001600160a01b0392909216919091179055565b60006116f761104e565b6040516370a0823160e01b81526001600160a01b037f000000000000000000000000000000000000000000000000000000000000000016906370a0823190611743903090600401613a89565b60206040518083038186803b15801561175b57600080fd5b505afa15801561176f573d6000803e3d6000fd5b505050506040513d601f19601f820116820180604052508101906117939190613cdb565b610de29190613d5c565b6117a6336108e8565b6117c25760405162461bcd60e51b815260040161073d90613c78565b6001546001600160a01b03166118125760405162461bcd60e51b81526020600482015260156024820152741999594b58dbdb1b1958dd1bdc8b5b9bdd0b5cd95d605a1b604482015260640161073d565b7f00000000000000000000000000000000000000000000000000000000000000006001600160a01b0316816001600160a01b031614156118945760405162461bcd60e51b815260206004820152601f60248201527f6e6f742d616c6c6f7765642d746f2d73776565702d636f6c6c61746572616c00604482015260640161073d565b61189d81610cca565b156118e15760405162461bcd60e51b815260206004820152601460248201527306e6f742d616c6c6f7765642d746f2d73776565760641b604482015260640161073d565b6001600160a01b03811673eeeeeeeeeeeeeeeeeeeeeeeeeeeeeeeeeeeeeeee141561191c576001546108e0906001600160a01b031647612513565b6040516370a0823160e01b81526000906001600160a01b038316906370a082319061194b903090600401613a89565b60206040518083038186803b15801561196357600080fd5b505afa158015611977573d6000803e3d6000fd5b505050506040513d601f19601f8201168201806040525081019061199b9190613cdb565b600154909150610aab906001600160a01b0384811691168361210d565b60006119f36119c56116ed565b6119ee7f000000000000000000000000000000000000000000000000000000000000000061262c565b6126a9565b6040516370a0823160e01b81526001600160a01b037f000000000000000000000000000000000000000000000000000000000000000016906370a0823190611743903090600401613a89565b6000611a54836001600160a01b038416612753565b9392505050565b6000611a54836001600160a01b0384166127a2565b6001600160a01b03811660009081526001830160205260408120541515611a54565b611a9a612895565b60095460005b81811015611c0157600060098281548110611abd57611abd613d74565b60009182526020822001546040516370a0823160e01b81526001600160a01b03909116925082906370a0823190611af8903090600401613a89565b60206040518083038186803b158015611b1057600080fd5b505afa158015611b24573d6000803e3d6000fd5b505050506040513d601f19601f82011682018060405250810190611b489190613cdb565b90508015611bee57600254604051636ccb2b0160e01b81526001600160a01b0384811660048301528781166024830152604482018490526001606483015230608483015290911690636ccb2b019060a401602060405180830381600087803b158015611bb357600080fd5b505af1925050508015611be3575060408051601f3d908101601f19168201909252611be091810190613cdb565b60015b611bec57611bee565b505b505080611bfa90613d8a565b9050611aa0565b505050565b60606000807f00000000000000000000000000000000000000000000000000000000000000006001600160a01b031663d55a23f46040518163ffffffff1660e01b815260040160206040518083038186803b158015611c6457600080fd5b505afa158015611c78573d6000803e3d6000fd5b505050506040513d601f19601f82011682018060405250810190611c9c9190613cdb565b905060005b81811015611e2457604051632061aa2360e11b8152600481018290526000907f00000000000000000000000000000000000000000000000000000000000000006001600160a01b0316906340c354469060240160206040518083038186803b158015611d0c57600080fd5b505afa158015611d20573d6000803e3d6000fd5b505050506040513d601f19601f82011682018060405250810190611d449190613c24565b6001600160a01b031663f7c618c16040518163ffffffff1660e01b815260040160206040518083038186803b158015611d7c57600080fd5b505afa158015611d90573d6000803e3d6000fd5b505050506040513d601f19601f82011682018060405250810190611db49190613c24565b90506001600160a01b03811673d533a949740bb3306d119cc777fa900ba034cd5214801590611e0057506001600160a01b038116734e3fbd56cd56c3e72c1403e103b45db9da5b9d2b14155b15611e135783611e0f81613d8a565b9450505b50611e1d81613d8a565b9050611ca1565b50611e30826002613d5c565b67ffffffffffffffff811115611e4857611e48613a9d565b604051908082528060200260200182016040528015611e71578160200160208202803683370190505b50925073d533a949740bb3306d119cc777fa900ba034cd5283600081518110611e9c57611e9c613d74565b60200260200101906001600160a01b031690816001600160a01b031681525050734e3fbd56cd56c3e72c1403e103b45db9da5b9d2b83600181518110611ee457611ee4613d74565b6001600160a01b0390921660209283029190910190910152600260005b828110156120b557604051632061aa2360e11b8152600481018290526000907f00000000000000000000000000000000000000000000000000000000000000006001600160a01b0316906340c354469060240160206040518083038186803b158015611f6c57600080fd5b505afa158015611f80573d6000803e3d6000fd5b505050506040513d601f19601f82011682018060405250810190611fa49190613c24565b6001600160a01b031663f7c618c16040518163ffffffff1660e01b815260040160206040518083038186803b158015611fdc57600080fd5b505afa158015611ff0573d6000803e3d6000fd5b505050506040513d601f19601f820116820180604052508101906120149190613c24565b90506001600160a01b03811673d533a949740bb3306d119cc777fa900ba034cd521480159061206057506001600160a01b038116734e3fbd56cd56c3e72c1403e103b45db9da5b9d2b14155b156120a45780868461207181613d8a565b95508151811061208357612083613d74565b60200260200101906001600160a01b031690816001600160a01b0316815250505b506120ae81613d8a565b9050611f01565b5050505090565b6121046001600160a01b037f00000000000000000000000000000000000000000000000000000000000000001673f403c135812408bfbe8713b5a23a04b3d48aae3183612977565b6108e081612a9b565b6040516001600160a01b038316602482015260448101829052611c0190849063a9059cbb60e01b906064015b60408051601f198184030181529190526020810180516001600160e01b03166001600160e01b031990931692909217909152612b4c565b600061219b7f000000000000000000000000000000000000000000000000000000000000000061262c565b905060006121a7610d43565b905060006121b361104e565b6121bd9083613d5c565b905060006121e86121ce83866126a9565b6121d88488613da5565b6121e29190613dc4565b83612272565b9050806121f6575050505050565b828111156122105761221061220b8483613d0a565b612c1e565b600061225d7f00000000000000000000000000000000000000000000000000000000000000007f000000000000000000000000000000000000000000000000000000000000000084612d11565b905061226a828287612dce565b505050505050565b60008183106122815781611a54565b5090919050565b6000806000612295612e5f565b6040516302df682360e11b815260048101849052602481018390526044810182905292955090935091507f00000000000000000000000000000000000000000000000000000000000000006001600160a01b0316906305bed04690606401600060405180830381600087803b15801561230d57600080fd5b505af1158015612321573d6000803e3d6000fd5b50505050610e49613290565b60606000611a548361333d565b7f00000000000000000000000000000000000000000000000000000000000000006001600160a01b0316816001600160a01b031663d8dfeb456040518163ffffffff1660e01b815260040160206040518083038186803b15801561239d57600080fd5b505afa1580156123b1573d6000803e3d6000fd5b505050506040513d601f19601f820116820180604052508101906123d59190613c24565b6001600160a01b0316146124245760405162461bcd60e51b81526020600482015260166024820152753bb937b73396b1b7b63630ba32b930b616ba37b5b2b760511b604482015260640161073d565b7f00000000000000000000000000000000000000000000000000000000000000006001600160a01b0316816001600160a01b031663fc0c546a6040518163ffffffff1660e01b815260040160206040518083038186803b15801561248757600080fd5b505afa15801561249b573d6000803e3d6000fd5b505050506040513d601f19601f820116820180604052508101906124bf9190613c24565b6001600160a01b03161461250b5760405162461bcd60e51b81526020600482015260136024820152723bb937b73396b932b1b2b4b83a16ba37b5b2b760691b604482015260640161073d565b6108e0613399565b804710156125635760405162461bcd60e51b815260206004820152601d60248201527f416464726573733a20696e73756666696369656e742062616c616e6365000000604482015260640161073d565b6000826001600160a01b03168260405160006040518083038185875af1925050503d80600081146125b0576040519150601f19603f3d011682016040523d82523d6000602084013e6125b5565b606091505b5050905080611c015760405162461bcd60e51b815260206004820152603a60248201527f416464726573733a20756e61626c6520746f2073656e642076616c75652c207260448201527f6563697069656e74206d61792068617665207265766572746564000000000000606482015260840161073d565b600060016001607f1b0319821215801561264957506001607f1b82125b6126a55760405162461bcd60e51b815260206004820152602760248201527f53616665436173743a2076616c756520646f65736e27742066697420696e20316044820152663238206269747360c81b606482015260840161073d565b5090565b60008215610d3d5760405163cc2b27d760e01b815260048101849052600f83900b60248201527f00000000000000000000000000000000000000000000000000000000000000006001600160a01b03169063cc2b27d79060440160206040518083038186803b15801561271b57600080fd5b505afa15801561272f573d6000803e3d6000fd5b505050506040513d601f19601f82011682018060405250810190611a549190613cdb565b600081815260018301602052604081205461279a57508154600181810184556000848152602080822090930184905584548482528286019093526040902091909155610d3d565b506000610d3d565b6000818152600183016020526040812054801561288b5760006127c6600183613d0a565b85549091506000906127da90600190613d0a565b905081811461283f5760008660000182815481106127fa576127fa613d74565b906000526020600020015490508087600001848154811061281d5761281d613d74565b6000918252602080832090910192909255918252600188019052604090208390555b855486908061285057612850613de6565b600190038181906000526020600020016000905590558560010160008681526020019081526020016000206000905560019350505050610d3d565b6000915050610d3d565b604051637050ccd960e01b8152306004820152600160248201527f00000000000000000000000000000000000000000000000000000000000000006001600160a01b031690637050ccd990604401602060405180830381600087803b1580156128fd57600080fd5b505af1158015612911573d6000803e3d6000fd5b505050506040513d601f19601f820116820180604052508101906129359190613dfc565b610e945760405162461bcd60e51b81526020600482015260136024820152721c995dd85c990b58db185a5b4b59985a5b1959606a1b604482015260640161073d565b801580612a005750604051636eb1769f60e11b81523060048201526001600160a01b03838116602483015284169063dd62ed3e9060440160206040518083038186803b1580156129c657600080fd5b505afa1580156129da573d6000803e3d6000fd5b505050506040513d601f19601f820116820180604052508101906129fe9190613cdb565b155b612a6b5760405162461bcd60e51b815260206004820152603660248201527f5361666545524332303a20617070726f76652066726f6d206e6f6e2d7a65726f60448201527520746f206e6f6e2d7a65726f20616c6c6f77616e636560501b606482015260840161073d565b6040516001600160a01b038316602482015260448101829052611c0190849063095ea7b360e01b90606401612139565b612aa481613415565b612af86001600160a01b037f0000000000000000000000000000000000000000000000000000000000000000167f000000000000000000000000000000000000000000000000000000000000000083612977565b6108e06001600160a01b037f0000000000000000000000000000000000000000000000000000000000000000167f000000000000000000000000000000000000000000000000000000000000000083612977565b6000612ba1826040518060400160405280602081526020017f5361666545524332303a206c6f772d6c6576656c2063616c6c206661696c6564815250856001600160a01b03166135559092919063ffffffff16565b805190915015611c015780806020019051810190612bbf9190613dfc565b611c015760405162461bcd60e51b815260206004820152602a60248201527f5361666545524332303a204552433230206f7065726174696f6e20646964206e6044820152691bdd081cdd58d8d9595960b21b606482015260840161073d565b80156108e057604051636197390160e11b815260048101829052600060248201527f00000000000000000000000000000000000000000000000000000000000000006001600160a01b03169063c32e720290604401602060405180830381600087803b158015612c8d57600080fd5b505af1158015612ca1573d6000803e3d6000fd5b505050506040513d601f19601f82011682018060405250810190612cc59190613dfc565b6108e05760405162461bcd60e51b815260206004820152601a60248201527f77697468647261772d616e642d756e777261702d6661696c6564000000000000604482015260640161073d565b6000612710600754612710612d269190613d0a565b600854604051632d9198e160e21b81526001600160a01b0388811660048301528781166024830152604482018790529091169063b64663849060640160206040518083038186803b158015612d7a57600080fd5b505afa158015612d8e573d6000803e3d6000fd5b505050506040513d601f19601f82011682018060405250810190612db29190613cdb565b612dbc9190613da5565b612dc69190613dc4565b949350505050565b604051630d2680e960e11b815260048101849052600f82900b6024820152604481018390527f00000000000000000000000000000000000000000000000000000000000000006001600160a01b031690631a4d01d2906064015b600060405180830381600087803b158015612e4257600080fd5b505af1158015612e56573d6000803e3d6000fd5b50505050505050565b6000806000807f00000000000000000000000000000000000000000000000000000000000000006001600160a01b031663d53ddc26306040518263ffffffff1660e01b8152600401612eb19190613a89565b60206040518083038186803b158015612ec957600080fd5b505afa158015612edd573d6000803e3d6000fd5b505050506040513d601f19601f82011682018060405250810190612f019190613cdb565b905060007f00000000000000000000000000000000000000000000000000000000000000006001600160a01b0316639f2b2833306040518263ffffffff1660e01b8152600401612f519190613a89565b60206040518083038186803b158015612f6957600080fd5b505afa158015612f7d573d6000803e3d6000fd5b505050506040513d601f19601f82011682018060405250810190612fa19190613cdb565b9050612fcc7f0000000000000000000000000000000000000000000000000000000000000000611a92565b6000612ff77f000000000000000000000000000000000000000000000000000000000000000061262c565b90506000613003610d43565b9050600061300f61104e565b6130199083613d5c565b9050600061302782856126a9565b905060007f00000000000000000000000000000000000000000000000000000000000000006001600160a01b03166370a08231306040518263ffffffff1660e01b81526004016130779190613a89565b60206040518083038186803b15801561308f57600080fd5b505afa1580156130a3573d6000803e3d6000fd5b505050506040513d601f19601f820116820180604052508101906130c79190613cdb565b905060006130d58383613d5c565b9050868111156130f0576130e98782613d0a565b9a506130fd565b6130fa8188613d0a565b99505b6000613109898d613d5c565b9050828111156132535760006131286131228584613d0a565b86612272565b90508015613251576000613150866131408985613da5565b61314a9190613dc4565b88612272565b9050801561324f578781111561316d5761316d61220b8983613d0a565b6000546131b09082906131aa906001600160a01b03167f000000000000000000000000000000000000000000000000000000000000000083612d11565b8b612dce565b6040516370a0823160e01b81526001600160a01b037f000000000000000000000000000000000000000000000000000000000000000016906370a08231906131fc903090600401613a89565b60206040518083038186803b15801561321457600080fd5b505afa158015613228573d6000803e3d6000fd5b505050506040513d601f19601f8201168201806040525081019061324c9190613cdb565b94505b505b505b61325d838a612272565b995089831161326d576000613280565b61328061327a8b85613d0a565b8d612272565b9b50505050505050505050909192565b6040516370a0823160e01b8152613335906001600160a01b037f000000000000000000000000000000000000000000000000000000000000000016906370a08231906132e0903090600401613a89565b60206040518083038186803b1580156132f857600080fd5b505afa15801561330c573d6000803e3d6000fd5b505050506040513d601f19601f820116820180604052508101906133309190613cdb565b613564565b610e94613647565b60608160000180548060200260200160405190810160405280929190818152602001828054801561338d57602002820191906000526020600020905b815481526020019060010190808311613379575b50505050509050919050565b6040516324f81cd160e11b8152600160048201527f00000000000000000000000000000000000000000000000000000000000000006001600160a01b0316906349f039a290602401600060405180830381600087803b1580156133fb57600080fd5b505af115801561340f573d6000803e3d6000fd5b50505050565b61341e816137e5565b6002546001600160a01b039081169061347a907f0000000000000000000000000000000000000000000000000000000000000000167f000000000000000000000000000000000000000000000000000000000000000084612977565b6134ae6001600160a01b037f0000000000000000000000000000000000000000000000000000000000000000168284612977565b60095460005b81811015613500576134f08385600984815481106134d4576134d4613d74565b6000918252602090912001546001600160a01b03169190612977565b6134f981613d8a565b90506134b4565b50611c016001600160a01b037f0000000000000000000000000000000000000000000000000000000000000000167f000000000000000000000000000000000000000000000000000000000000000085612977565b6060612dc68484600085613839565b80156108e0576135726139fb565b81817f0000000000000000000000000000000000000000000000000000000000000000600481106135a5576135a5613d74565b602002015260006135f77f00000000000000000000000000000000000000000000000000000000000000007f000000000000000000000000000000000000000000000000000000000000000085612d11565b60405162a6cbcd60e21b81529091506001600160a01b037f0000000000000000000000000000000000000000000000000000000000000000169063029b2f3490612e289085908590600401613e1e565b6040516370a0823160e01b81526000906001600160a01b037f000000000000000000000000000000000000000000000000000000000000000016906370a0823190613696903090600401613a89565b60206040518083038186803b1580156136ae57600080fd5b505afa1580156136c2573d6000803e3d6000fd5b505050506040513d601f19601f820116820180604052508101906136e69190613cdb565b905080156108e0576040516321d0683360e11b81527f00000000000000000000000000000000000000000000000000000000000000006004820152602481018290526001604482015273f403c135812408bfbe8713b5a23a04b3d48aae31906343a0d06690606401602060405180830381600087803b15801561376857600080fd5b505af115801561377c573d6000803e3d6000fd5b505050506040513d601f19601f820116820180604052508101906137a09190613dfc565b6108e05760405162461bcd60e51b8152602060048201526016602482015275189bdbdcdd195c8b59195c1bdcda5d0b59985a5b195960521b604482015260640161073d565b6108e06001600160a01b037f0000000000000000000000000000000000000000000000000000000000000000167f000000000000000000000000000000000000000000000000000000000000000083612977565b60608247101561389a5760405162461bcd60e51b815260206004820152602660248201527f416464726573733a20696e73756666696369656e742062616c616e636520666f6044820152651c8818d85b1b60d21b606482015260840161073d565b843b6138e85760405162461bcd60e51b815260206004820152601d60248201527f416464726573733a2063616c6c20746f206e6f6e2d636f6e7472616374000000604482015260640161073d565b600080866001600160a01b031685876040516139049190613e56565b60006040518083038185875af1925050503d8060008114613941576040519150601f19603f3d011682016040523d82523d6000602084013e613946565b606091505b5091509150613956828286613961565b979650505050505050565b60608315613970575081611a54565b8251156139805782518084602001fd5b8160405162461bcd60e51b815260040161073d9190613bf1565b8280548282559060005260206000209081019282156139ef579160200282015b828111156139ef57825182546001600160a01b0319166001600160a01b039091161782556020909201916001909101906139ba565b506126a5929150613a19565b60405180608001604052806004906020820280368337509192915050565b5b808211156126a55760008155600101613a1a565b600060208284031215613a4057600080fd5b5035919050565b6001600160a01b03811681146108e057600080fd5b8035613a6781613a47565b919050565b600060208284031215613a7e57600080fd5b8135611a5481613a47565b6001600160a01b0391909116815260200190565b634e487b7160e01b600052604160045260246000fd5b60006020808385031215613ac657600080fd5b823567ffffffffffffffff80821115613ade57600080fd5b818501915085601f830112613af257600080fd5b813581811115613b0457613b04613a9d565b8060051b604051601f19603f83011681018181108582111715613b2957613b29613a9d565b604052918252848201925083810185019188831115613b4757600080fd5b938501935b82851015613b6c57613b5d85613a5c565b84529385019392850192613b4c565b98975050505050505050565b6020808252825182820181905260009190848201906040850190845b81811015613bb95783516001600160a01b031683529284019291840191600101613b94565b50909695505050505050565b60005b83811015613be0578181015183820152602001613bc8565b8381111561340f5750506000910152565b6020815260008251806020840152613c10816040850160208701613bc5565b601f01601f19169190910160400192915050565b600060208284031215613c3657600080fd5b8151611a5481613a47565b6020808252601a908201527f63616c6c65722d69732d6e6f742d7468652d676f7665726e6f72000000000000604082015260600190565b60208082526016908201527531b0b63632b916b4b996b737ba16b096b5b2b2b832b960511b604082015260600190565b60208082526019908201527818d85b1b195c8b5a5ccb5b9bdd0b5d995cdc195c8b5c1bdbdb603a1b604082015260600190565b600060208284031215613ced57600080fd5b5051919050565b634e487b7160e01b600052601160045260246000fd5b600082821015613d1c57613d1c613cf4565b500390565b600181811c90821680613d3557607f821691505b60208210811415613d5657634e487b7160e01b600052602260045260246000fd5b50919050565b60008219821115613d6f57613d6f613cf4565b500190565b634e487b7160e01b600052603260045260246000fd5b6000600019821415613d9e57613d9e613cf4565b5060010190565b6000816000190483118215151615613dbf57613dbf613cf4565b500290565b600082613de157634e487b7160e01b600052601260045260246000fd5b500490565b634e487b7160e01b600052603160045260246000fd5b600060208284031215613e0e57600080fd5b81518015158114611a5457600080fd5b60a08101818460005b6004811015613e46578151835260209283019290910190600101613e27565b5050508260808301529392505050565b60008251613e68818460208701613bc5565b919091019291505056fea26469706673582212200ae461afb1d485603de14c4a8ff971b83975089689a0eae975b63df4e4caa02464736f6c63430008090033",
  "devdoc": {
    "kind": "dev",
    "methods": {
      "addKeeper(address)": {
        "params": {
          "_keeperAddress": "keeper address to add."
        }
      },
      "approveToken()": {
        "details": "Approve all required tokens"
      },
      "isReservedToken(address)": {
        "details": "Check whether given token is reserved or not. Reserved tokens are not allowed to sweep."
      },
      "migrate(address)": {
        "details": "_beforeMigration hook can be implemented in child strategy to do extra steps.",
        "params": {
          "_newStrategy": "Address of new strategy"
        }
      },
      "rebalance()": {
        "returns": {
          "_loss": "Realized loss, if any, in collateral.",
          "_payback": "If strategy has any excess debt, we have to liquidate asset to payback excess debt.",
          "_profit": "Realized profit in collateral."
        }
      },
      "removeKeeper(address)": {
        "params": {
          "_keeperAddress": "keeper address to remove."
        }
      },
      "setRewardTokens(address[])": {
        "details": "convex pool can add new rewards. This method refresh list."
      },
      "sweepERC20(address)": {
        "params": {
          "_fromToken": "token address to sweep"
        }
      },
      "updateFeeCollector(address)": {
        "params": {
          "_feeCollector": "fee collector address"
        }
      },
      "updateSwapper(address)": {
        "params": {
          "_swapper": "swapper address"
        }
      },
      "withdraw(uint256)": {
        "params": {
          "_amount": "Amount of collateral token"
        }
      }
    },
    "title": "This strategy will deposit collateral token in Curve 4MetaPool and stake lp token to convex.",
    "version": 1
  },
  "userdoc": {
    "kind": "user",
    "methods": {
      "addKeeper(address)": {
        "notice": "Add given address in keepers list."
      },
      "collateral()": {
        "notice": "Returns address of token correspond to collateral token"
      },
      "keepers()": {
        "notice": "Return list of keepers"
      },
      "migrate(address)": {
        "notice": "Migrate all asset and vault ownership,if any, to new strategy"
      },
      "rebalance()": {
        "notice": "OnlyKeeper: Rebalance profit, loss and investment of this strategy.  Calculate profit, loss and payback of this strategy and realize profit/loss and  withdraw fund for payback, if any, and submit this report to pool."
      },
      "removeKeeper(address)": {
        "notice": "Remove given address from keepers list."
      },
      "sweepERC20(address)": {
        "notice": "sweep given token to feeCollector of strategy"
      },
      "token()": {
        "notice": "Returns address of token correspond to receipt token"
      },
      "tvl()": {
        "notice": "Returns collateral balance + collateral deposited to curve"
      },
      "updateFeeCollector(address)": {
        "notice": "Update fee collector"
      },
      "updateSwapper(address)": {
        "notice": "Update swapper"
      },
      "withdraw(uint256)": {
        "notice": "Withdraw collateral token from end protocol."
      }
    },
    "version": 1
  },
  "storageLayout": {
    "storage": [
      {
        "astId": 13584,
        "contract": "vesper-strategies/contracts/strategies/convex/4Pool/Convex4MetaPool.sol:Convex4MetaPool",
        "label": "receiptToken",
        "offset": 0,
        "slot": "0",
        "type": "t_address"
      },
      {
        "astId": 13590,
        "contract": "vesper-strategies/contracts/strategies/convex/4Pool/Convex4MetaPool.sol:Convex4MetaPool",
        "label": "feeCollector",
        "offset": 0,
        "slot": "1",
        "type": "t_address"
      },
      {
        "astId": 13593,
        "contract": "vesper-strategies/contracts/strategies/convex/4Pool/Convex4MetaPool.sol:Convex4MetaPool",
        "label": "swapper",
        "offset": 0,
        "slot": "2",
        "type": "t_contract(IRoutedSwapper)12445"
      },
      {
        "astId": 13606,
        "contract": "vesper-strategies/contracts/strategies/convex/4Pool/Convex4MetaPool.sol:Convex4MetaPool",
        "label": "_keepers",
        "offset": 0,
        "slot": "3",
        "type": "t_struct(AddressSet)3013_storage"
      },
      {
        "astId": 21348,
        "contract": "vesper-strategies/contracts/strategies/convex/4Pool/Convex4MetaPool.sol:Convex4MetaPool",
        "label": "CRV",
        "offset": 0,
        "slot": "5",
        "type": "t_address"
      },
      {
        "astId": 21350,
        "contract": "vesper-strategies/contracts/strategies/convex/4Pool/Convex4MetaPool.sol:Convex4MetaPool",
        "label": "NAME",
        "offset": 0,
        "slot": "6",
        "type": "t_string_storage"
      },
      {
        "astId": 21354,
        "contract": "vesper-strategies/contracts/strategies/convex/4Pool/Convex4MetaPool.sol:Convex4MetaPool",
        "label": "crvSlippage",
        "offset": 0,
        "slot": "7",
        "type": "t_uint256"
      },
      {
        "astId": 21357,
        "contract": "vesper-strategies/contracts/strategies/convex/4Pool/Convex4MetaPool.sol:Convex4MetaPool",
        "label": "masterOracle",
        "offset": 0,
        "slot": "8",
        "type": "t_contract(IMasterOracle)12129"
      },
      {
        "astId": 21360,
        "contract": "vesper-strategies/contracts/strategies/convex/4Pool/Convex4MetaPool.sol:Convex4MetaPool",
        "label": "rewardTokens",
        "offset": 0,
        "slot": "9",
        "type": "t_array(t_address)dyn_storage"
      }
    ],
    "types": {
      "t_address": {
        "encoding": "inplace",
        "label": "address",
        "numberOfBytes": "20"
      },
      "t_array(t_address)dyn_storage": {
        "base": "t_address",
        "encoding": "dynamic_array",
        "label": "address[]",
        "numberOfBytes": "32"
      },
      "t_array(t_bytes32)dyn_storage": {
        "base": "t_bytes32",
        "encoding": "dynamic_array",
        "label": "bytes32[]",
        "numberOfBytes": "32"
      },
      "t_bytes32": {
        "encoding": "inplace",
        "label": "bytes32",
        "numberOfBytes": "32"
      },
      "t_contract(IMasterOracle)12129": {
        "encoding": "inplace",
        "label": "contract IMasterOracle",
        "numberOfBytes": "20"
      },
      "t_contract(IRoutedSwapper)12445": {
        "encoding": "inplace",
        "label": "contract IRoutedSwapper",
        "numberOfBytes": "20"
      },
      "t_mapping(t_bytes32,t_uint256)": {
        "encoding": "mapping",
        "key": "t_bytes32",
        "label": "mapping(bytes32 => uint256)",
        "numberOfBytes": "32",
        "value": "t_uint256"
      },
      "t_string_storage": {
        "encoding": "bytes",
        "label": "string",
        "numberOfBytes": "32"
      },
      "t_struct(AddressSet)3013_storage": {
        "encoding": "inplace",
        "label": "struct EnumerableSet.AddressSet",
        "members": [
          {
            "astId": 3012,
            "contract": "vesper-strategies/contracts/strategies/convex/4Pool/Convex4MetaPool.sol:Convex4MetaPool",
            "label": "_inner",
            "offset": 0,
            "slot": "0",
            "type": "t_struct(Set)2712_storage"
          }
        ],
        "numberOfBytes": "64"
      },
      "t_struct(Set)2712_storage": {
        "encoding": "inplace",
        "label": "struct EnumerableSet.Set",
        "members": [
          {
            "astId": 2707,
            "contract": "vesper-strategies/contracts/strategies/convex/4Pool/Convex4MetaPool.sol:Convex4MetaPool",
            "label": "_values",
            "offset": 0,
            "slot": "0",
            "type": "t_array(t_bytes32)dyn_storage"
          },
          {
            "astId": 2711,
            "contract": "vesper-strategies/contracts/strategies/convex/4Pool/Convex4MetaPool.sol:Convex4MetaPool",
            "label": "_indexes",
            "offset": 0,
            "slot": "1",
            "type": "t_mapping(t_bytes32,t_uint256)"
          }
        ],
        "numberOfBytes": "64"
      },
      "t_uint256": {
        "encoding": "inplace",
        "label": "uint256",
        "numberOfBytes": "32"
      }
    }
  }
}