{
  "address": "0xd08CFE37f44f2f9AFda5F8788cb856C63EA7c078",
  "abi": [
    {
      "inputs": [
        {
          "internalType": "address",
          "name": "_pool",
          "type": "address"
        },
        {
          "internalType": "address",
          "name": "_cm",
          "type": "address"
        },
        {
          "internalType": "address",
          "name": "_swapManager",
          "type": "address"
        },
        {
          "internalType": "address",
          "name": "_vPool",
          "type": "address"
        },
        {
          "internalType": "bytes32",
          "name": "_collateralType",
          "type": "bytes32"
        },
        {
          "internalType": "uint256",
          "name": "_highWater",
          "type": "uint256"
        },
        {
          "internalType": "uint256",
          "name": "_lowWater",
          "type": "uint256"
        },
        {
          "internalType": "string",
          "name": "_name",
          "type": "string"
        }
      ],
      "stateMutability": "nonpayable",
      "type": "constructor"
    },
    {
      "anonymous": false,
      "inputs": [
        {
          "indexed": true,
          "internalType": "address",
          "name": "previousFeeCollector",
          "type": "address"
        },
        {
          "indexed": true,
          "internalType": "address",
          "name": "newFeeCollector",
          "type": "address"
        }
      ],
      "name": "UpdatedFeeCollector",
      "type": "event"
    },
    {
      "anonymous": false,
      "inputs": [
        {
          "indexed": true,
          "internalType": "contract IRoutedSwapper",
          "name": "oldSwapper",
          "type": "address"
        },
        {
          "indexed": true,
          "internalType": "contract IRoutedSwapper",
          "name": "newSwapper",
          "type": "address"
        }
      ],
      "name": "UpdatedSwapper",
      "type": "event"
    },
    {
      "inputs": [],
      "name": "NAME",
      "outputs": [
        {
          "internalType": "string",
          "name": "",
          "type": "string"
        }
      ],
      "stateMutability": "view",
      "type": "function"
    },
    {
      "inputs": [],
      "name": "VERSION",
      "outputs": [
        {
          "internalType": "string",
          "name": "",
          "type": "string"
        }
      ],
      "stateMutability": "view",
      "type": "function"
    },
    {
      "inputs": [
        {
          "internalType": "address",
          "name": "_keeperAddress",
          "type": "address"
        }
      ],
      "name": "addKeeper",
      "outputs": [],
      "stateMutability": "nonpayable",
      "type": "function"
    },
    {
      "inputs": [
        {
          "internalType": "uint256",
          "name": "_approvalAmount",
          "type": "uint256"
        }
      ],
      "name": "approveToken",
      "outputs": [],
      "stateMutability": "nonpayable",
      "type": "function"
    },
    {
      "inputs": [
        {
          "internalType": "uint256",
          "name": "_minAmountOut",
          "type": "uint256"
        }
      ],
      "name": "claimAndSwapRewards",
      "outputs": [
        {
          "internalType": "uint256",
          "name": "_amountOut",
          "type": "uint256"
        }
      ],
      "stateMutability": "nonpayable",
      "type": "function"
    },
    {
      "inputs": [],
      "name": "cm",
      "outputs": [
        {
          "internalType": "contract ICollateralManager",
          "name": "",
          "type": "address"
        }
      ],
      "stateMutability": "view",
      "type": "function"
    },
    {
      "inputs": [],
      "name": "collateral",
      "outputs": [
        {
          "internalType": "address",
          "name": "",
          "type": "address"
        }
      ],
      "stateMutability": "view",
      "type": "function"
    },
    {
      "inputs": [],
      "name": "collateralToken",
      "outputs": [
        {
          "internalType": "contract IERC20",
          "name": "",
          "type": "address"
        }
      ],
      "stateMutability": "view",
      "type": "function"
    },
    {
      "inputs": [],
      "name": "collateralType",
      "outputs": [
        {
          "internalType": "bytes32",
          "name": "",
          "type": "bytes32"
        }
      ],
      "stateMutability": "view",
      "type": "function"
    },
    {
      "inputs": [
        {
          "internalType": "uint256",
          "name": "_amount",
          "type": "uint256"
        }
      ],
      "name": "convertFrom18",
      "outputs": [
        {
          "internalType": "uint256",
          "name": "",
          "type": "uint256"
        }
      ],
      "stateMutability": "view",
      "type": "function"
    },
    {
      "inputs": [
        {
          "internalType": "uint256",
          "name": "_amount",
          "type": "uint256"
        }
      ],
      "name": "convertTo18",
      "outputs": [
        {
          "internalType": "uint256",
          "name": "",
          "type": "uint256"
        }
      ],
      "stateMutability": "view",
      "type": "function"
    },
    {
      "inputs": [],
      "name": "createVault",
      "outputs": [],
      "stateMutability": "nonpayable",
      "type": "function"
    },
    {
      "inputs": [],
      "name": "decimalConversionFactor",
      "outputs": [
        {
          "internalType": "uint256",
          "name": "",
          "type": "uint256"
        }
      ],
      "stateMutability": "view",
      "type": "function"
    },
    {
      "inputs": [],
      "name": "feeCollector",
      "outputs": [
        {
          "internalType": "address",
          "name": "",
          "type": "address"
        }
      ],
      "stateMutability": "view",
      "type": "function"
    },
    {
      "inputs": [],
      "name": "highWater",
      "outputs": [
        {
          "internalType": "uint256",
          "name": "",
          "type": "uint256"
        }
      ],
      "stateMutability": "view",
      "type": "function"
    },
    {
      "inputs": [
        {
          "internalType": "address",
          "name": "_token",
          "type": "address"
        }
      ],
      "name": "isReservedToken",
      "outputs": [
        {
          "internalType": "bool",
          "name": "",
          "type": "bool"
        }
      ],
      "stateMutability": "view",
      "type": "function"
    },
    {
      "inputs": [],
      "name": "isUnderwater",
      "outputs": [
        {
          "internalType": "bool",
          "name": "",
          "type": "bool"
        }
      ],
      "stateMutability": "view",
      "type": "function"
    },
    {
      "inputs": [],
      "name": "keepers",
      "outputs": [
        {
          "internalType": "address[]",
          "name": "",
          "type": "address[]"
        }
      ],
      "stateMutability": "view",
      "type": "function"
    },
    {
      "inputs": [],
      "name": "lowWater",
      "outputs": [
        {
          "internalType": "uint256",
          "name": "",
          "type": "uint256"
        }
      ],
      "stateMutability": "view",
      "type": "function"
    },
    {
      "inputs": [
        {
          "internalType": "address",
          "name": "_newStrategy",
          "type": "address"
        }
      ],
      "name": "migrate",
      "outputs": [],
      "stateMutability": "nonpayable",
      "type": "function"
    },
    {
      "inputs": [],
      "name": "pool",
      "outputs": [
        {
          "internalType": "address",
          "name": "",
          "type": "address"
        }
      ],
      "stateMutability": "view",
      "type": "function"
    },
    {
      "inputs": [],
      "name": "rebalance",
      "outputs": [
        {
          "internalType": "uint256",
          "name": "_profit",
          "type": "uint256"
        },
        {
          "internalType": "uint256",
          "name": "_loss",
          "type": "uint256"
        },
        {
          "internalType": "uint256",
          "name": "_payback",
          "type": "uint256"
        }
      ],
      "stateMutability": "nonpayable",
      "type": "function"
    },
    {
      "inputs": [],
      "name": "receiptToken",
      "outputs": [
        {
          "internalType": "address",
          "name": "",
          "type": "address"
        }
      ],
      "stateMutability": "view",
      "type": "function"
    },
    {
      "inputs": [
        {
          "internalType": "address",
          "name": "_keeperAddress",
          "type": "address"
        }
      ],
      "name": "removeKeeper",
      "outputs": [],
      "stateMutability": "nonpayable",
      "type": "function"
    },
    {
      "inputs": [
        {
          "internalType": "uint256",
          "name": "_maximumCollateralForDaiSwap",
          "type": "uint256"
        }
      ],
      "name": "resurface",
      "outputs": [],
      "stateMutability": "nonpayable",
      "type": "function"
    },
    {
      "inputs": [],
      "name": "swapper",
      "outputs": [
        {
          "internalType": "contract IRoutedSwapper",
          "name": "",
          "type": "address"
        }
      ],
      "stateMutability": "view",
      "type": "function"
    },
    {
      "inputs": [
        {
          "internalType": "address",
          "name": "_fromToken",
          "type": "address"
        }
      ],
      "name": "sweepERC20",
      "outputs": [],
      "stateMutability": "nonpayable",
      "type": "function"
    },
    {
      "inputs": [],
      "name": "token",
      "outputs": [
        {
          "internalType": "address",
          "name": "",
          "type": "address"
        }
      ],
      "stateMutability": "view",
      "type": "function"
    },
    {
      "inputs": [],
      "name": "tvl",
      "outputs": [
        {
          "internalType": "uint256",
          "name": "",
          "type": "uint256"
        }
      ],
      "stateMutability": "view",
      "type": "function"
    },
    {
      "inputs": [
        {
          "internalType": "uint256",
          "name": "_highWater",
          "type": "uint256"
        },
        {
          "internalType": "uint256",
          "name": "_lowWater",
          "type": "uint256"
        }
      ],
      "name": "updateBalancingFactor",
      "outputs": [],
      "stateMutability": "nonpayable",
      "type": "function"
    },
    {
      "inputs": [
        {
          "internalType": "address",
          "name": "_feeCollector",
          "type": "address"
        }
      ],
      "name": "updateFeeCollector",
      "outputs": [],
      "stateMutability": "nonpayable",
      "type": "function"
    },
    {
      "inputs": [
        {
          "internalType": "contract IRoutedSwapper",
          "name": "_swapper",
          "type": "address"
        }
      ],
      "name": "updateSwapper",
      "outputs": [],
      "stateMutability": "nonpayable",
      "type": "function"
    },
    {
      "inputs": [],
      "name": "vaultNum",
      "outputs": [
        {
          "internalType": "uint256",
          "name": "",
          "type": "uint256"
        }
      ],
      "stateMutability": "view",
      "type": "function"
    },
    {
      "inputs": [
        {
          "internalType": "uint256",
          "name": "_amount",
          "type": "uint256"
        }
      ],
      "name": "withdraw",
      "outputs": [],
      "stateMutability": "nonpayable",
      "type": "function"
    }
  ],
  "transactionHash": "0xc8637a3b2a9466667dd82253df5b9fec7a6e34e333b27396eaed18a7b4a7c6c1",
  "args": [
    "0xDD9F61a85fFE73E41eF889817972f0B0AaE6D6Dd",
    "0xaBC64889601F01e7B26277Ef8756250d6ABf8c18",
    "0x8f156189A3CD28dFc8FB7BbbAce58F98F09c0bB3",
    "0x0538C8bAc84E95A9dF8aC10Aad17DbE81b9E36ee",
    "0x524554482d410000000000000000000000000000000000000000000000000000",
    250,
    225,
    "Maker_Vesper_RETH"
  ],
  "numDeployments": 1,
  "solcInputHash": "57d8d4de6de4c51891db3a907f2b9273",
  "bytecode": "0x6101206040523480156200001257600080fd5b5060405162004a4d38038062004a4d8339810160408190526200003591620006b7565b87878787878787878786866001600160a01b0383166200009c5760405162461bcd60e51b815260206004820152601460248201527f706f6f6c2d616464726573732d69732d7a65726f00000000000000000000000060448201526064015b60405180910390fd5b6001600160a01b038216620000f45760405162461bcd60e51b815260206004820152601760248201527f737761707065722d616464726573732d69732d7a65726f000000000000000000604482015260640162000093565b600280546001600160a01b0319166001600160a01b0384811691909117909155831660a081905260408051637e062a3560e11b8152905163fc0c546a91600480820192602092909190829003018186803b1580156200015257600080fd5b505afa15801562000167573d6000803e3d6000fd5b505050506040513d601f19601f820116820180604052508101906200018d91906200080b565b6001600160a01b03908116608052600080546001600160a01b031916918316919091179055620001d4620001be3390565b6003620004aa60201b62001ad91790919060201c565b620002165760405162461bcd60e51b81526020600482015260116024820152701859190b5ad9595c195c8b59985a5b1959607a1b604482015260640162000093565b5050506001600160a01b038716620002665760405162461bcd60e51b8152602060048201526012602482015271636d2d616464726573732d69732d7a65726f60701b604482015260640162000093565b60e08490526001600160a01b03871660c052620002848383620004ca565b6000886001600160a01b031663fc0c546a6040518163ffffffff1660e01b815260040160206040518083038186803b158015620002c057600080fd5b505afa158015620002d5573d6000803e3d6000fd5b505050506040513d601f19601f82011682018060405250810190620002fb91906200080b565b6001600160a01b031663313ce5676040518163ffffffff1660e01b815260040160206040518083038186803b1580156200033457600080fd5b505afa15801562000349573d6000803e3d6000fd5b505050506040513d601f19601f820116820180604052508101906200036f919062000832565b60ff169050620003818160126200086d565b6200038e90600a62000984565b610100528151620003a7906005906020850190620005e2565b50505050505050505050736b175474e89094c44da98b954eedeac495271d0f6001600160a01b0316856001600160a01b031663fc0c546a6040518163ffffffff1660e01b815260040160206040518083038186803b1580156200040957600080fd5b505afa1580156200041e573d6000803e3d6000fd5b505050506040513d601f19601f820116820180604052508101906200044491906200080b565b6001600160a01b0316146200049c5760405162461bcd60e51b815260206004820152601460248201527f6e6f742d612d76616c69642d6461692d706f6f6c000000000000000000000000604482015260640162000093565b5050505050505050620009f1565b6000620004c1836001600160a01b03841662000590565b90505b92915050565b600081116200050f5760405162461bcd60e51b815260206004820152601060248201526f6c6f7757617465722d69732d7a65726f60801b604482015260640162000093565b808211620005605760405162461bcd60e51b815260206004820152601c60248201527f6869676857617465722d6c6573732d7468616e2d6c6f77576174657200000000604482015260640162000093565b62000573662386f26fc100008362000992565b60065562000589662386f26fc100008262000992565b6007555050565b6000818152600183016020526040812054620005d957508154600181810184556000848152602080822090930184905584548482528286019093526040902091909155620004c4565b506000620004c4565b828054620005f090620009b4565b90600052602060002090601f0160209004810192826200061457600085556200065f565b82601f106200062f57805160ff19168380011785556200065f565b828001600101855582156200065f579182015b828111156200065f57825182559160200191906001019062000642565b506200066d92915062000671565b5090565b5b808211156200066d576000815560010162000672565b6001600160a01b03811681146200069e57600080fd5b50565b634e487b7160e01b600052604160045260246000fd5b600080600080600080600080610100898b031215620006d557600080fd5b8851620006e28162000688565b809850506020808a0151620006f78162000688565b60408b01519098506200070a8162000688565b60608b01519097506200071d8162000688565b60808b015160a08c015160c08d015160e08e0151939950919750955093506001600160401b03808211156200075157600080fd5b818c0191508c601f8301126200076657600080fd5b8151818111156200077b576200077b620006a1565b604051601f8201601f19908116603f01168101908382118183101715620007a657620007a6620006a1565b816040528281528f86848701011115620007bf57600080fd5b600093505b82841015620007e35784840186015181850187015292850192620007c4565b82841115620007f55760008684830101525b8096505050505050509295985092959890939650565b6000602082840312156200081e57600080fd5b81516200082b8162000688565b9392505050565b6000602082840312156200084557600080fd5b815160ff811681146200082b57600080fd5b634e487b7160e01b600052601160045260246000fd5b60008282101562000882576200088262000857565b500390565b600181815b80851115620008c8578160001904821115620008ac57620008ac62000857565b80851615620008ba57918102915b93841c93908002906200088c565b509250929050565b600082620008e157506001620004c4565b81620008f057506000620004c4565b8160018114620009095760028114620009145762000934565b6001915050620004c4565b60ff84111562000928576200092862000857565b50506001821b620004c4565b5060208310610133831016604e8410600b841016171562000959575081810a620004c4565b62000965838362000887565b80600019048211156200097c576200097c62000857565b029392505050565b6000620004c18383620008d0565b6000816000190483118215151615620009af57620009af62000857565b500290565b600181811c90821680620009c957607f821691505b60208210811415620009eb57634e487b7160e01b600052602260045260246000fd5b50919050565b60805160a05160c05160e05161010051613e8162000bcc60003960008181610305015281816110d40152611ab401526000818161046001528181610e820152612ce001526000818161032c01528181610af501528181610cd401528181610ea801528181611a1e01528181611c0901528181611e2b01528181611f670152818161213b0152818161225b0152818161246e0152818161271a015281816127a901528181612ae501528181612b9601528181612dd4015281816133a7015281816133fb015261344f01526000818161020b015281816106b3015281816107f401528181610910015281816109ee01528181610bb001528181610db401528181611004015281816110fc01528181611199015281816113c50152818161158e0152818161206601528181612513015281816125ce015281816129c901526138fa0152600081816103860152818161041c0152818161052b015281816105d301528181610853015281816108ee0152818161096201528181610a2101528181610d7801528181611329015281816117c00152818161197e01528181611b3301528181611d1001528181611ebf015281816128b6015281816128f501528181612a3a0152818161342d0152818161348501526138d80152613e816000f3fe608060405234801561001057600080fd5b50600436106101c65760003560e01c8063a3f4df7e116100fa578063d3033c391161009d578063d3033c3914610407578063d8dfeb451461041a578063e00af4a714610440578063e5328e0614610453578063e824600f1461045b578063ec78e83214610482578063fb589de214610495578063fc0c546a146104a8578063ffa1ad74146104b957600080fd5b8063a3f4df7e14610363578063b09e879714610378578063b2016bd414610381578063b442bb23146103a8578063c415b95c146103bb578063ce27b903146103ce578063ce5494bb146103e1578063d2c35ce8146103f457600080fd5b80633ac9fc111161016d5780633ac9fc11146102945780634032b72b146102a7578063415eea1b146102ba578063440d7248146102c25780635d12928b146102d55780637d7c2a1c146102dd5780638fe91ffb146103005780639318162014610327578063951dc22c1461034e57600080fd5b80631026013a146101cb57806314ae9f2e146101f157806316f0115b146102065780631e6a471c1461023a57806325afda831461024d5780632b3297f9146102565780632e1a7d4d146102695780632ecd89d41461027c575b600080fd5b6101de6101d9366004613a80565b6104dd565b6040519081526020015b60405180910390f35b6102046101ff366004613aae565b6106b1565b005b61022d7f000000000000000000000000000000000000000000000000000000000000000081565b6040516101e89190613acb565b610204610248366004613a80565b6107c3565b6101de60075481565b60025461022d906001600160a01b031681565b610204610277366004613a80565b6107f1565b610284610a48565b60405190151581526020016101e8565b6102046102a2366004613a80565b610b80565b6102046102b5366004613aae565b610bae565b6101de610cba565b6102846102d0366004613aae565b610d5e565b610204610db2565b6102e5610f2c565b604080519384526020840192909252908201526060016101e8565b6101de7f000000000000000000000000000000000000000000000000000000000000000081565b61022d7f000000000000000000000000000000000000000000000000000000000000000081565b610356610f68565b6040516101e89190613adf565b61036b610f74565b6040516101e89190613b58565b6101de60065481565b61022d7f000000000000000000000000000000000000000000000000000000000000000081565b6102046103b6366004613b8b565b611002565b60015461022d906001600160a01b031681565b6101de6103dc366004613a80565b6110cd565b6102046103ef366004613aae565b6110f9565b610204610402366004613aae565b6113c3565b610204610415366004613aae565b61158c565b7f000000000000000000000000000000000000000000000000000000000000000061022d565b61020461044e366004613aae565b611749565b6101de611964565b6101de7f000000000000000000000000000000000000000000000000000000000000000081565b60005461022d906001600160a01b031681565b6101de6104a3366004613a80565b611aad565b6000546001600160a01b031661022d565b61036b604051806040016040528060058152602001640352e312e360dc1b81525081565b60006104ec335b600390611af5565b6105115760405162461bcd60e51b815260040161050890613bad565b60405180910390fd5b6040516370a0823160e01b81526000906001600160a01b037f000000000000000000000000000000000000000000000000000000000000000016906370a0823190610560903090600401613acb565b60206040518083038186803b15801561057857600080fd5b505afa15801561058c573d6000803e3d6000fd5b505050506040513d601f19601f820116820180604052508101906105b09190613bdd565b90506105ba611b17565b6040516370a0823160e01b815281906001600160a01b037f000000000000000000000000000000000000000000000000000000000000000016906370a0823190610608903090600401613acb565b60206040518083038186803b15801561062057600080fd5b505afa158015610634573d6000803e3d6000fd5b505050506040513d601f19601f820116820180604052508101906106589190613bdd565b6106629190613c0c565b9150828210156106ab5760405162461bcd60e51b81526020600482015260146024820152731b9bdd0b595b9bdd59da0b585b5bdd5b9d13dd5d60621b6044820152606401610508565b50919050565b7f00000000000000000000000000000000000000000000000000000000000000006001600160a01b0316630c340a246040518163ffffffff1660e01b815260040160206040518083038186803b15801561070a57600080fd5b505afa15801561071e573d6000803e3d6000fd5b505050506040513d601f19601f820116820180604052508101906107429190613c23565b6001600160a01b0316336001600160a01b0316146107725760405162461bcd60e51b815260040161050890613c40565b61077d600382611b58565b6107c05760405162461bcd60e51b81526020600482015260146024820152731c995b5bdd994b5ad9595c195c8b59985a5b195960621b6044820152606401610508565b50565b6107cc336104e4565b6107e85760405162461bcd60e51b815260040161050890613bad565b6107c081611b6d565b337f00000000000000000000000000000000000000000000000000000000000000006001600160a01b0316146108395760405162461bcd60e51b815260040161050890613c77565b6040516370a0823160e01b81526000906001600160a01b037f000000000000000000000000000000000000000000000000000000000000000016906370a0823190610888903090600401613acb565b60206040518083038186803b1580156108a057600080fd5b505afa1580156108b4573d6000803e3d6000fd5b505050506040513d601f19601f820116820180604052508101906108d89190613bdd565b9050818110610939576109356001600160a01b037f0000000000000000000000000000000000000000000000000000000000000000167f0000000000000000000000000000000000000000000000000000000000000000846120d6565b5050565b61094b6109468284613c0c565b612131565b6040516370a0823160e01b81526001600160a01b037f000000000000000000000000000000000000000000000000000000000000000016906370a0823190610997903090600401613acb565b60206040518083038186803b1580156109af57600080fd5b505afa1580156109c3573d6000803e3d6000fd5b505050506040513d601f19601f820116820180604052508101906109e79190613bdd565b90506109357f0000000000000000000000000000000000000000000000000000000000000000610a1784846122cf565b6001600160a01b037f00000000000000000000000000000000000000000000000000000000000000001691906120d6565b6040516370a0823160e01b8152600090600080516020613e2c833981519152906370a0823190610a7c903090600401613acb565b60206040518083038186803b158015610a9457600080fd5b505afa158015610aa8573d6000803e3d6000fd5b505050506040513d601f19601f82011682018060405250810190610acc9190613bdd565b610ad46122e5565b610ade9190613caa565b60405163c0af0d3b60e01b81526001600160a01b037f0000000000000000000000000000000000000000000000000000000000000000169063c0af0d3b90610b2a903090600401613acb565b60206040518083038186803b158015610b4257600080fd5b505afa158015610b56573d6000803e3d6000fd5b505050506040513d601f19601f82011682018060405250810190610b7a9190613bdd565b11905090565b610b89336104e4565b610ba55760405162461bcd60e51b815260040161050890613bad565b6107c081612406565b7f00000000000000000000000000000000000000000000000000000000000000006001600160a01b0316630c340a246040518163ffffffff1660e01b815260040160206040518083038186803b158015610c0757600080fd5b505afa158015610c1b573d6000803e3d6000fd5b505050506040513d601f19601f82011682018060405250810190610c3f9190613c23565b6001600160a01b0316336001600160a01b031614610c6f5760405162461bcd60e51b815260040161050890613c40565b610c7a600382611ad9565b6107c05760405162461bcd60e51b81526020600482015260116024820152701859190b5ad9595c195c8b59985a5b1959607a1b6044820152606401610508565b60405163cd1adb6160e01b81526000906001600160a01b037f0000000000000000000000000000000000000000000000000000000000000000169063cd1adb6190610d09903090600401613acb565b60206040518083038186803b158015610d2157600080fd5b505afa158015610d35573d6000803e3d6000fd5b505050506040513d601f19601f82011682018060405250810190610d599190613bdd565b905090565b600080546001600160a01b0383811691161480610dac57507f00000000000000000000000000000000000000000000000000000000000000006001600160a01b0316826001600160a01b0316145b92915050565b7f00000000000000000000000000000000000000000000000000000000000000006001600160a01b0316630c340a246040518163ffffffff1660e01b815260040160206040518083038186803b158015610e0b57600080fd5b505afa158015610e1f573d6000803e3d6000fd5b505050506040513d601f19601f82011682018060405250810190610e439190613c23565b6001600160a01b0316336001600160a01b031614610e735760405162461bcd60e51b815260040161050890613c40565b604051630bbccf9b60e11b81527f000000000000000000000000000000000000000000000000000000000000000060048201527f00000000000000000000000000000000000000000000000000000000000000006001600160a01b0316906317799f3690602401602060405180830381600087803b158015610ef457600080fd5b505af1158015610f08573d6000803e3d6000fd5b505050506040513d601f19601f820116820180604052508101906107c09190613bdd565b60008080610f39336104e4565b610f555760405162461bcd60e51b815260040161050890613bad565b610f5d612461565b925092509250909192565b6060610d596003612c13565b60058054610f8190613cc2565b80601f0160208091040260200160405190810160405280929190818152602001828054610fad90613cc2565b8015610ffa5780601f10610fcf57610100808354040283529160200191610ffa565b820191906000526020600020905b815481529060010190602001808311610fdd57829003601f168201915b505050505081565b7f00000000000000000000000000000000000000000000000000000000000000006001600160a01b0316630c340a246040518163ffffffff1660e01b815260040160206040518083038186803b15801561105b57600080fd5b505afa15801561106f573d6000803e3d6000fd5b505050506040513d601f19601f820116820180604052508101906110939190613c23565b6001600160a01b0316336001600160a01b0316146110c35760405162461bcd60e51b815260040161050890613c40565b6109358282612c20565b6000610dac7f000000000000000000000000000000000000000000000000000000000000000083613cf7565b337f00000000000000000000000000000000000000000000000000000000000000006001600160a01b0316146111415760405162461bcd60e51b815260040161050890613c77565b6001600160a01b0381166111975760405162461bcd60e51b815260206004820152601c60248201527f6e65772d73747261746567792d616464726573732d69732d7a65726f000000006044820152606401610508565b7f00000000000000000000000000000000000000000000000000000000000000006001600160a01b0316816001600160a01b03166316f0115b6040518163ffffffff1660e01b815260040160206040518083038186803b1580156111fa57600080fd5b505afa15801561120e573d6000803e3d6000fd5b505050506040513d601f19601f820116820180604052508101906112329190613c23565b6001600160a01b0316146112815760405162461bcd60e51b81526020600482015260166024820152756e6f742d76616c69642d6e65772d737472617465677960501b6044820152606401610508565b61128a81612cde565b6000546040516370a0823160e01b81526113239183916001600160a01b03909116906370a08231906112c0903090600401613acb565b60206040518083038186803b1580156112d857600080fd5b505afa1580156112ec573d6000803e3d6000fd5b505050506040513d601f19601f820116820180604052508101906113109190613bdd565b6000546001600160a01b031691906120d6565b6107c0817f00000000000000000000000000000000000000000000000000000000000000006001600160a01b03166370a08231306040518263ffffffff1660e01b81526004016113739190613acb565b60206040518083038186803b15801561138b57600080fd5b505afa15801561139f573d6000803e3d6000fd5b505050506040513d601f19601f82011682018060405250810190610a179190613bdd565b7f00000000000000000000000000000000000000000000000000000000000000006001600160a01b0316630c340a246040518163ffffffff1660e01b815260040160206040518083038186803b15801561141c57600080fd5b505afa158015611430573d6000803e3d6000fd5b505050506040513d601f19601f820116820180604052508101906114549190613c23565b6001600160a01b0316336001600160a01b0316146114845760405162461bcd60e51b815260040161050890613c40565b6001600160a01b0381166114da5760405162461bcd60e51b815260206004820152601d60248201527f6665652d636f6c6c6563746f722d616464726573732d69732d7a65726f0000006044820152606401610508565b6001546001600160a01b03828116911614156115305760405162461bcd60e51b81526020600482015260156024820152746665652d636f6c6c6563746f722d69732d73616d6560581b6044820152606401610508565b6001546040516001600160a01b038084169216907f0f06062680f9bd68e786e9980d9bb03d73d5620fc3b345e417b6eacb310b970690600090a3600180546001600160a01b0319166001600160a01b0392909216919091179055565b7f00000000000000000000000000000000000000000000000000000000000000006001600160a01b0316630c340a246040518163ffffffff1660e01b815260040160206040518083038186803b1580156115e557600080fd5b505afa1580156115f9573d6000803e3d6000fd5b505050506040513d601f19601f8201168201806040525081019061161d9190613c23565b6001600160a01b0316336001600160a01b03161461164d5760405162461bcd60e51b815260040161050890613c40565b6001600160a01b03811661169d5760405162461bcd60e51b8152602060048201526017602482015276737761707065722d616464726573732d69732d7a65726f60481b6044820152606401610508565b6002546001600160a01b03828116911614156116ed5760405162461bcd60e51b815260206004820152600f60248201526e737761707065722d69732d73616d6560881b6044820152606401610508565b6002546040516001600160a01b038084169216907f6c953b7ec311055c20b96a42cea31e89528e375b1bf953a503db40854b3188fe90600090a3600280546001600160a01b0319166001600160a01b0392909216919091179055565b611752336104e4565b61176e5760405162461bcd60e51b815260040161050890613bad565b6001546001600160a01b03166117be5760405162461bcd60e51b81526020600482015260156024820152741999594b58dbdb1b1958dd1bdc8b5b9bdd0b5cd95d605a1b6044820152606401610508565b7f00000000000000000000000000000000000000000000000000000000000000006001600160a01b0316816001600160a01b031614156118405760405162461bcd60e51b815260206004820152601f60248201527f6e6f742d616c6c6f7765642d746f2d73776565702d636f6c6c61746572616c006044820152606401610508565b61184981610d5e565b1561188d5760405162461bcd60e51b815260206004820152601460248201527306e6f742d616c6c6f7765642d746f2d73776565760641b6044820152606401610508565b6001600160a01b03811673eeeeeeeeeeeeeeeeeeeeeeeeeeeeeeeeeeeeeeee14156118c8576001546107c0906001600160a01b031647612e37565b6040516370a0823160e01b81526000906001600160a01b038316906370a08231906118f7903090600401613acb565b60206040518083038186803b15801561190f57600080fd5b505afa158015611923573d6000803e3d6000fd5b505050506040513d601f19601f820116820180604052508101906119479190613bdd565b600154909150610935906001600160a01b038481169116836120d6565b6040516370a0823160e01b81526000906001600160a01b037f000000000000000000000000000000000000000000000000000000000000000016906370a08231906119b3903090600401613acb565b60206040518083038186803b1580156119cb57600080fd5b505afa1580156119df573d6000803e3d6000fd5b505050506040513d601f19601f82011682018060405250810190611a039190613bdd565b6040516369ebe00160e11b8152611aa3906001600160a01b037f0000000000000000000000000000000000000000000000000000000000000000169063d3d7c00290611a53903090600401613acb565b60206040518083038186803b158015611a6b57600080fd5b505afa158015611a7f573d6000803e3d6000fd5b505050506040513d601f19601f820116820180604052508101906104a39190613bdd565b610d599190613caa565b6000610dac7f000000000000000000000000000000000000000000000000000000000000000083613d16565b6000611aee836001600160a01b038416612f50565b9392505050565b6001600160a01b03811660009081526001830160205260408120541515611aee565b600080611b22612f9f565b9092509050801561093557610935827f00000000000000000000000000000000000000000000000000000000000000008361312b565b6000611aee836001600160a01b0384166131bd565b6040516370a0823160e01b8152600090600080516020613e2c833981519152906370a0823190611ba1903090600401613acb565b60206040518083038186803b158015611bb957600080fd5b505afa158015611bcd573d6000803e3d6000fd5b505050506040513d601f19601f82011682018060405250810190611bf19190613bdd565b611bf96122e5565b611c039190613caa565b905060007f00000000000000000000000000000000000000000000000000000000000000006001600160a01b031663c0af0d3b306040518263ffffffff1660e01b8152600401611c539190613acb565b60206040518083038186803b158015611c6b57600080fd5b505afa158015611c7f573d6000803e3d6000fd5b505050506040513d601f19601f82011682018060405250810190611ca39190613bdd565b9050818111611cea5760405162461bcd60e51b81526020600482015260136024820152723837b7b616b4b996b0b137bb3296bbb0ba32b960691b6044820152606401610508565b6000611cf68383613c0c565b6002546040516353b609b560e01b81526001600160a01b037f000000000000000000000000000000000000000000000000000000000000000081166004830152600080516020613e2c833981519152602483015260448201849052929350600092909116906353b609b590606401602060405180830381600087803b158015611d7e57600080fd5b505af1158015611d92573d6000803e3d6000fd5b505050506040513d601f19601f82011682018060405250810190611db69190613bdd565b905084811115611e085760405162461bcd60e51b815260206004820152601b60248201527f636f6c6c61746572616c2d726571756972652d746f6f2d6869676800000000006044820152606401610508565b80156120cf578080156120cd576040516330897f1760e11b8152600481018290527f00000000000000000000000000000000000000000000000000000000000000006001600160a01b031690636112fe2e90602401600060405180830381600087803b158015611e7757600080fd5b505af1158015611e8b573d6000803e3d6000fd5b50505050611e968190565b6002546040516381cc619b60e01b81529193506001600160a01b0316906381cc619b90611efd907f000000000000000000000000000000000000000000000000000000000000000090600080516020613e2c83398151915290889088903090600401613d38565b602060405180830381600087803b158015611f1757600080fd5b505af1158015611f2b573d6000803e3d6000fd5b505050506040513d601f19601f82011682018060405250810190611f4f9190613bdd565b506040516370a0823160e01b81526001600160a01b037f0000000000000000000000000000000000000000000000000000000000000000169063a846c2fd90600080516020613e2c833981519152906370a0823190611fb2903090600401613acb565b60206040518083038186803b158015611fca57600080fd5b505afa158015611fde573d6000803e3d6000fd5b505050506040513d601f19601f820116820180604052508101906120029190613bdd565b6040518263ffffffff1660e01b815260040161202091815260200190565b600060405180830381600087803b15801561203a57600080fd5b505af115801561204e573d6000803e3d6000fd5b50506040516306eeb69360e51b8152600481018590527f00000000000000000000000000000000000000000000000000000000000000006001600160a01b0316925063ddd6d2609150602401600060405180830381600087803b1580156120b457600080fd5b505af11580156120c8573d6000803e3d6000fd5b505050505b505b5050505050565b61212c8363a9059cbb60e01b84846040516024016120f5929190613d68565b60408051601f198184030181529190526020810180516001600160e01b03166001600160e01b0319909316929092179091526132b0565b505050565b60008060008060007f00000000000000000000000000000000000000000000000000000000000000006001600160a01b03166352d5aee830886040518363ffffffff1660e01b8152600401612187929190613d68565b60a06040518083038186803b15801561219f57600080fd5b505afa1580156121b3573d6000803e3d6000fd5b505050506040513d601f19601f820116820180604052508101906121d79190613d81565b945094509450945094506000841180156121f2575060075482105b15612245576006546000906122078588613cf7565b6122119190613d16565b9050818110156122295761222485613382565b612243565b848110156122435761224361223e8287613c0c565b613382565b505b6040516330897f1760e11b8152600481018790527f00000000000000000000000000000000000000000000000000000000000000006001600160a01b031690636112fe2e90602401600060405180830381600087803b1580156122a757600080fd5b505af11580156122bb573d6000803e3d6000fd5b505050506122c68690565b50505050505050565b60008183106122de5781611aee565b5090919050565b600080546040516370a0823160e01b8152670de0b6b3a7640000916001600160a01b0316906370a082319061231e903090600401613acb565b60206040518083038186803b15801561233657600080fd5b505afa15801561234a573d6000803e3d6000fd5b505050506040513d601f19601f8201168201806040525081019061236e9190613bdd565b60008054906101000a90046001600160a01b03166001600160a01b03166399530b066040518163ffffffff1660e01b815260040160206040518083038186803b1580156123ba57600080fd5b505afa1580156123ce573d6000803e3d6000fd5b505050506040513d601f19601f820116820180604052508101906123f29190613bdd565b6123fc9190613cf7565b610d599190613d16565b61240f816133de565b60005461243590600080516020613e2c833981519152906001600160a01b0316836134d0565b6002546107c090731b40183efb4dd766f11bda7a7c3ad8982e998421906001600160a01b0316836134d0565b60008060008060008060007f00000000000000000000000000000000000000000000000000000000000000006001600160a01b03166390229af7306040518263ffffffff1660e01b81526004016124b89190613acb565b60a06040518083038186803b1580156124d057600080fd5b505afa1580156124e4573d6000803e3d6000fd5b505050506040513d601f19601f820116820180604052508101906125089190613d81565b9450509350935093507f00000000000000000000000000000000000000000000000000000000000000006001600160a01b031663d53ddc26306040518263ffffffff1660e01b815260040161255d9190613acb565b60206040518083038186803b15801561257557600080fd5b505afa158015612589573d6000803e3d6000fd5b505050506040513d601f19601f820116820180604052508101906125ad9190613bdd565b9450600085156125ba5750845b60006125c586611aad565b9050600061266b7f00000000000000000000000000000000000000000000000000000000000000006001600160a01b0316639f2b2833306040518263ffffffff1660e01b81526004016126189190613acb565b60206040518083038186803b15801561263057600080fd5b505afa158015612644573d6000803e3d6000fd5b505050506040513d601f19601f820116820180604052508101906126689190613bdd565b90565b90508082111561268c5761267f8183613c0c565b6126899084613caa565b92505b81831115612698578192505b50506126a3816110cd565b6126ad9086613c0c565b94506000806126be878787876135e3565b90925090508160006126ce6122e5565b9050878111156126ef576126e28882613c0c565b6126ec9083613caa565b91505b81156126fe576126fe82613669565b831561278d5760405163a846c2fd60e01b8152600481018590527f00000000000000000000000000000000000000000000000000000000000000006001600160a01b03169063a846c2fd90602401600060405180830381600087803b15801561276657600080fd5b505af115801561277a573d6000803e3d6000fd5b50505050838861278a9190613c0c565b97505b8415612816576040516330897f1760e11b8152600481018690527f00000000000000000000000000000000000000000000000000000000000000006001600160a01b031690636112fe2e90602401600060405180830381600087803b1580156127f557600080fd5b505af1158015612809573d6000803e3d6000fd5b505050506128148590565b505b6040516370a0823160e01b8152600090600080516020613e2c833981519152906370a082319061284a903090600401613acb565b60206040518083038186803b15801561286257600080fd5b505afa158015612876573d6000803e3d6000fd5b505050506040513d601f19601f8201168201806040525081019061289a9190613bdd565b905080156128db576128db600080516020613e2c8339815191527f00000000000000000000000000000000000000000000000000000000000000008361312b565b6040516370a0823160e01b81526000906001600160a01b037f000000000000000000000000000000000000000000000000000000000000000016906370a082319061292a903090600401613acb565b60206040518083038186803b15801561294257600080fd5b505afa158015612956573d6000803e3d6000fd5b505050506040513d601f19601f8201168201806040525081019061297a9190613bdd565b90506129868c826122cf565b9b508b81111561299d5761299a8c82613c0c565b9d505b6040516302df682360e11b8152600481018f9052602481018e9052604481018d90526001600160a01b037f000000000000000000000000000000000000000000000000000000000000000016906305bed04690606401600060405180830381600087803b158015612a0d57600080fd5b505af1158015612a21573d6000803e3d6000fd5b50506040516370a0823160e01b81526001600160a01b037f00000000000000000000000000000000000000000000000000000000000000001692506370a082319150612a71903090600401613acb565b60206040518083038186803b158015612a8957600080fd5b505afa158015612a9d573d6000803e3d6000fd5b505050506040513d601f19601f82011682018060405250810190612ac19190613bdd565b90508015612b6f5760008160405163bad4a01f60e01b8152600481018290529091507f00000000000000000000000000000000000000000000000000000000000000006001600160a01b03169063bad4a01f90602401600060405180830381600087803b158015612b3157600080fd5b505af1158015612b45573d6000803e3d6000fd5b50505050612b52816110cd565b612b5c908d613caa565b9b50612b6a8c8c8c8c6135e3565b965050505b68056bc75e2d63100000851115612c035760405163317afabb60e21b8152600481018690527f00000000000000000000000000000000000000000000000000000000000000006001600160a01b03169063c5ebeaec90602401600060405180830381600087803b158015612be257600080fd5b505af1158015612bf6573d6000803e3d6000fd5b50505050612c0385613827565b5050505050505050505050909192565b60606000611aee83613858565b60008111612c635760405162461bcd60e51b815260206004820152601060248201526f6c6f7757617465722d69732d7a65726f60801b6044820152606401610508565b808211612cb25760405162461bcd60e51b815260206004820152601c60248201527f6869676857617465722d6c6573732d7468616e2d6c6f775761746572000000006044820152606401610508565b612cc3662386f26fc1000083613cf7565b600655612cd7662386f26fc1000082613cf7565b6007555050565b7f0000000000000000000000000000000000000000000000000000000000000000816001600160a01b031663e824600f6040518163ffffffff1660e01b815260040160206040518083038186803b158015612d3857600080fd5b505afa158015612d4c573d6000803e3d6000fd5b505050506040513d601f19601f82011682018060405250810190612d709190613bdd565b14612dbd5760405162461bcd60e51b815260206004820181905260248201527f636f6c6c61746572616c2d747970652d6d7573742d62652d7468652d73616d656044820152606401610508565b604051637038e06560e11b81526001600160a01b037f0000000000000000000000000000000000000000000000000000000000000000169063e071c0ca90612e09908490600401613acb565b600060405180830381600087803b158015612e2357600080fd5b505af11580156120cf573d6000803e3d6000fd5b80471015612e875760405162461bcd60e51b815260206004820152601d60248201527f416464726573733a20696e73756666696369656e742062616c616e63650000006044820152606401610508565b6000826001600160a01b03168260405160006040518083038185875af1925050503d8060008114612ed4576040519150601f19603f3d011682016040523d82523d6000602084013e612ed9565b606091505b505090508061212c5760405162461bcd60e51b815260206004820152603a60248201527f416464726573733a20756e61626c6520746f2073656e642076616c75652c207260448201527f6563697069656e74206d617920686176652072657665727465640000000000006064820152608401610508565b6000818152600183016020526040812054612f9757508154600181810184556000848152602080822090930184905584548482528286019093526040902091909155610dac565b506000610dac565b60008060008060009054906101000a90046001600160a01b03166001600160a01b0316638bc6beb26040518163ffffffff1660e01b815260040160206040518083038186803b158015612ff157600080fd5b505afa158015613005573d6000803e3d6000fd5b505050506040513d601f19601f820116820180604052508101906130299190613c23565b90506001600160a01b038116156130995760405163d279c19160e01b81526001600160a01b0382169063d279c19190613066903090600401613acb565b600060405180830381600087803b15801561308057600080fd5b505af1158015613094573d6000803e3d6000fd5b505050505b6040516370a0823160e01b8152731b40183efb4dd766f11bda7a7c3ad8982e9984219081906370a08231906130d2903090600401613acb565b60206040518083038186803b1580156130ea57600080fd5b505afa1580156130fe573d6000803e3d6000fd5b505050506040513d601f19601f820116820180604052508101906131229190613bdd565b92509250509091565b600254604051636ccb2b0160e01b81526001600160a01b0390911690636ccb2b0190613164908690869086906001903090600401613d38565b602060405180830381600087803b15801561317e57600080fd5b505af19250505080156131ae575060408051601f3d908101601f191682019092526131ab91810190613bdd565b60015b6131b757505050565b50505050565b600081815260018301602052604081205480156132a65760006131e1600183613c0c565b85549091506000906131f590600190613c0c565b905081811461325a57600086600001828154811061321557613215613dc1565b906000526020600020015490508087600001848154811061323857613238613dc1565b6000918252602080832090910192909255918252600188019052604090208390555b855486908061326b5761326b613dd7565b600190038181906000526020600020016000905590558560010160008681526020019081526020016000206000905560019350505050610dac565b6000915050610dac565b6000613305826040518060400160405280602081526020017f5361666545524332303a206c6f772d6c6576656c2063616c6c206661696c6564815250856001600160a01b03166138b49092919063ffffffff16565b80519091501561212c57808060200190518101906133239190613ded565b61212c5760405162461bcd60e51b815260206004820152602a60248201527f5361666545524332303a204552433230206f7065726174696f6e20646964206e6044820152691bdd081cdd58d8d9595960b21b6064820152608401610508565b80156107c05761339181613669565b60405163a846c2fd60e01b8152600481018290527f00000000000000000000000000000000000000000000000000000000000000006001600160a01b03169063a846c2fd90602401612e09565b6133e7816138cb565b613420600080516020613e2c8339815191527f0000000000000000000000000000000000000000000000000000000000000000836134d0565b6134746001600160a01b037f0000000000000000000000000000000000000000000000000000000000000000167f0000000000000000000000000000000000000000000000000000000000000000836134d0565b6002546134ae906001600160a01b037f000000000000000000000000000000000000000000000000000000000000000081169116836134d0565b6002546107c090600080516020613e2c833981519152906001600160a01b0316835b8015806135595750604051636eb1769f60e11b81523060048201526001600160a01b03838116602483015284169063dd62ed3e9060440160206040518083038186803b15801561351f57600080fd5b505afa158015613533573d6000803e3d6000fd5b505050506040513d601f19601f820116820180604052508101906135579190613bdd565b155b6135c45760405162461bcd60e51b815260206004820152603660248201527f5361666545524332303a20617070726f76652066726f6d206e6f6e2d7a65726f60448201527520746f206e6f6e2d7a65726f20616c6c6f77616e636560501b6064820152608401610508565b61212c8363095ea7b360e01b84846040516024016120f5929190613d68565b600080600060065485886135f79190613cf7565b6136019190613d16565b9050838110156136135785925061365f565b600754600090613623878a613cf7565b61362d9190613d16565b905080871115613648576136418288613c0c565b935061365d565b8187101561365d5761365a8783613c0c565b92505b505b5094509492505050565b60008060009054906101000a90046001600160a01b03166001600160a01b03166399530b066040518163ffffffff1660e01b815260040160206040518083038186803b1580156136b857600080fd5b505afa1580156136cc573d6000803e3d6000fd5b505050506040513d601f19601f820116820180604052508101906136f09190613bdd565b905060008161370784670de0b6b3a7640000613cf7565b6137119190613d16565b9050670de0b6b3a76400006137268383613cf7565b6137309190613d16565b831161373c5780613747565b613747816001613caa565b6000546040516370a0823160e01b81529192506001600160a01b031690632e1a7d4d906137db90849084906370a0823190613786903090600401613acb565b60206040518083038186803b15801561379e57600080fd5b505afa1580156137b2573d6000803e3d6000fd5b505050506040513d601f19601f820116820180604052508101906137d69190613bdd565b6122cf565b6040518263ffffffff1660e01b81526004016137f991815260200190565b600060405180830381600087803b15801561381357600080fd5b505af11580156122c6573d6000803e3d6000fd5b60005460405163b6b55f2560e01b8152600481018390526001600160a01b039091169063b6b55f2590602401612e09565b6060816000018054806020026020016040519081016040528092919081815260200182805480156138a857602002820191906000526020600020905b815481526020019060010190808311613894575b50505050509050919050565b60606138c3848460008561391f565b949350505050565b6107c06001600160a01b037f0000000000000000000000000000000000000000000000000000000000000000167f0000000000000000000000000000000000000000000000000000000000000000836134d0565b6060824710156139805760405162461bcd60e51b815260206004820152602660248201527f416464726573733a20696e73756666696369656e742062616c616e636520666f6044820152651c8818d85b1b60d21b6064820152608401610508565b843b6139ce5760405162461bcd60e51b815260206004820152601d60248201527f416464726573733a2063616c6c20746f206e6f6e2d636f6e74726163740000006044820152606401610508565b600080866001600160a01b031685876040516139ea9190613e0f565b60006040518083038185875af1925050503d8060008114613a27576040519150601f19603f3d011682016040523d82523d6000602084013e613a2c565b606091505b5091509150613a3c828286613a47565b979650505050505050565b60608315613a56575081611aee565b825115613a665782518084602001fd5b8160405162461bcd60e51b81526004016105089190613b58565b600060208284031215613a9257600080fd5b5035919050565b6001600160a01b03811681146107c057600080fd5b600060208284031215613ac057600080fd5b8135611aee81613a99565b6001600160a01b0391909116815260200190565b6020808252825182820181905260009190848201906040850190845b81811015613b205783516001600160a01b031683529284019291840191600101613afb565b50909695505050505050565b60005b83811015613b47578181015183820152602001613b2f565b838111156131b75750506000910152565b6020815260008251806020840152613b77816040850160208701613b2c565b601f01601f19169190910160400192915050565b60008060408385031215613b9e57600080fd5b50508035926020909101359150565b60208082526016908201527531b0b63632b916b4b996b737ba16b096b5b2b2b832b960511b604082015260600190565b600060208284031215613bef57600080fd5b5051919050565b634e487b7160e01b600052601160045260246000fd5b600082821015613c1e57613c1e613bf6565b500390565b600060208284031215613c3557600080fd5b8151611aee81613a99565b6020808252601a908201527f63616c6c65722d69732d6e6f742d7468652d676f7665726e6f72000000000000604082015260600190565b60208082526019908201527818d85b1b195c8b5a5ccb5b9bdd0b5d995cdc195c8b5c1bdbdb603a1b604082015260600190565b60008219821115613cbd57613cbd613bf6565b500190565b600181811c90821680613cd657607f821691505b602082108114156106ab57634e487b7160e01b600052602260045260246000fd5b6000816000190483118215151615613d1157613d11613bf6565b500290565b600082613d3357634e487b7160e01b600052601260045260246000fd5b500490565b6001600160a01b039586168152938516602085015260408401929092526060830152909116608082015260a00190565b6001600160a01b03929092168252602082015260400190565b600080600080600060a08688031215613d9957600080fd5b5050835160208501516040860151606087015160809097015192989197509594509092509050565b634e487b7160e01b600052603260045260246000fd5b634e487b7160e01b600052603160045260246000fd5b600060208284031215613dff57600080fd5b81518015158114611aee57600080fd5b60008251613e21818460208701613b2c565b919091019291505056fe0000000000000000000000006b175474e89094c44da98b954eedeac495271d0fa2646970667358221220f43c8dd3990bfb55b4b39d5f1ab6842b1e5e08812540e05ebc469e3a84a8327864736f6c63430008090033",
  "devdoc": {
    "kind": "dev",
    "methods": {
      "addKeeper(address)": {
        "params": {
          "_keeperAddress": "keeper address to add."
        }
      },
      "approveToken(uint256)": {
        "details": "Approve all required tokens"
      },
      "migrate(address)": {
        "details": "_beforeMigration hook can be implemented in child strategy to do extra steps.",
        "params": {
          "_newStrategy": "Address of new strategy"
        }
      },
      "rebalance()": {
        "returns": {
          "_loss": "Realized loss, if any, in collateral.",
          "_payback": "If strategy has any excess debt, we have to liquidate asset to payback excess debt.",
          "_profit": "Realized profit in collateral."
        }
      },
      "removeKeeper(address)": {
        "params": {
          "_keeperAddress": "keeper address to remove."
        }
      },
      "resurface(uint256)": {
        "details": "If pool is underwater this function will resolve underwater condition. If Debt in Maker is greater than Dai balance in lender then pool is underwater. Lowering DAI debt in Maker will resolve underwater condition. Resolve: Calculate required collateral token to lower DAI debt. Withdraw required collateral token from Maker and convert those to DAI via Uniswap. Finally payback debt in Maker using DAI.Also report loss in pool.",
        "params": {
          "_maximumCollateralForDaiSwap": "To protect from sandwich attack let keeper send _maximumCollateralForDaiSwap"
        }
      },
      "sweepERC20(address)": {
        "params": {
          "_fromToken": "token address to sweep"
        }
      },
      "updateBalancingFactor(uint256,uint256)": {
        "params": {
          "_highWater": "Value for high water mark.",
          "_lowWater": "Value for low water mark."
        }
      },
      "updateFeeCollector(address)": {
        "params": {
          "_feeCollector": "fee collector address"
        }
      },
      "updateSwapper(address)": {
        "params": {
          "_swapper": "swapper address"
        }
      },
      "withdraw(uint256)": {
        "params": {
          "_amount": "Amount of collateral token"
        }
      }
    },
    "title": "This strategy will deposit collateral token in Maker, borrow Dai and deposit borrowed DAI in Vesper DAI pool to earn interest.",
    "version": 1
  },
  "userdoc": {
    "kind": "user",
    "methods": {
      "addKeeper(address)": {
        "notice": "Add given address in keepers list."
      },
      "claimAndSwapRewards(uint256)": {
        "notice": "Claim rewardToken and convert rewardToken into collateral token."
      },
      "collateral()": {
        "notice": "Returns address of token correspond to collateral token"
      },
      "convertFrom18(uint256)": {
        "notice": "Convert from 18 decimals to token defined decimals."
      },
      "convertTo18(uint256)": {
        "notice": "Convert from 18 decimals to token defined decimals."
      },
      "createVault()": {
        "notice": "Create new Maker vault"
      },
      "isReservedToken(address)": {
        "notice": "Check whether given token is reserved or not. Reserved tokens are not allowed to sweep."
      },
      "isUnderwater()": {
        "notice": "Returns true if pool is underwater.Underwater - If debt is greater than (earning of pool + DAI in pool + some wei buffer).Earning - Sum of DAI balance and DAI from accrued reward, if any, in lending pool."
      },
      "keepers()": {
        "notice": "Return list of keepers"
      },
      "migrate(address)": {
        "notice": "Migrate all asset and vault ownership,if any, to new strategy"
      },
      "rebalance()": {
        "notice": "OnlyKeeper: Rebalance profit, loss and investment of this strategy.  Calculate profit, loss and payback of this strategy and realize profit/loss and  withdraw fund for payback, if any, and submit this report to pool."
      },
      "removeKeeper(address)": {
        "notice": "Remove given address from keepers list."
      },
      "sweepERC20(address)": {
        "notice": "sweep given token to feeCollector of strategy"
      },
      "token()": {
        "notice": "Returns address of token correspond to receipt token"
      },
      "tvl()": {
        "notice": "Returns total collateral locked in the strategy"
      },
      "updateBalancingFactor(uint256,uint256)": {
        "notice": "Update balancing factors aka high water and low water values. Water mark values represent Collateral Ratio in Maker. For example 300 as high water means 300% collateral ratio."
      },
      "updateFeeCollector(address)": {
        "notice": "Update fee collector"
      },
      "updateSwapper(address)": {
        "notice": "Update swapper"
      },
      "withdraw(uint256)": {
        "notice": "Withdraw collateral token from end protocol."
      }
    },
    "version": 1
  },
  "storageLayout": {
    "storage": [
      {
        "astId": 14536,
        "contract": "vesper-strategies/contracts/strategies/maker/MakerVesper.sol:MakerVesper",
        "label": "receiptToken",
        "offset": 0,
        "slot": "0",
        "type": "t_address"
      },
      {
        "astId": 14542,
        "contract": "vesper-strategies/contracts/strategies/maker/MakerVesper.sol:MakerVesper",
        "label": "feeCollector",
        "offset": 0,
        "slot": "1",
        "type": "t_address"
      },
      {
        "astId": 14545,
        "contract": "vesper-strategies/contracts/strategies/maker/MakerVesper.sol:MakerVesper",
        "label": "swapper",
        "offset": 0,
        "slot": "2",
        "type": "t_contract(IRoutedSwapper)13384"
      },
      {
        "astId": 14558,
        "contract": "vesper-strategies/contracts/strategies/maker/MakerVesper.sol:MakerVesper",
        "label": "_keepers",
        "offset": 0,
        "slot": "3",
        "type": "t_struct(AddressSet)3024_storage"
      },
      {
        "astId": 30628,
        "contract": "vesper-strategies/contracts/strategies/maker/MakerVesper.sol:MakerVesper",
        "label": "NAME",
        "offset": 0,
        "slot": "5",
        "type": "t_string_storage"
      },
      {
        "astId": 30641,
        "contract": "vesper-strategies/contracts/strategies/maker/MakerVesper.sol:MakerVesper",
        "label": "highWater",
        "offset": 0,
        "slot": "6",
        "type": "t_uint256"
      },
      {
        "astId": 30643,
        "contract": "vesper-strategies/contracts/strategies/maker/MakerVesper.sol:MakerVesper",
        "label": "lowWater",
        "offset": 0,
        "slot": "7",
        "type": "t_uint256"
      }
    ],
    "types": {
      "t_address": {
        "encoding": "inplace",
        "label": "address",
        "numberOfBytes": "20"
      },
      "t_array(t_bytes32)dyn_storage": {
        "base": "t_bytes32",
        "encoding": "dynamic_array",
        "label": "bytes32[]",
        "numberOfBytes": "32"
      },
      "t_bytes32": {
        "encoding": "inplace",
        "label": "bytes32",
        "numberOfBytes": "32"
      },
      "t_contract(IRoutedSwapper)13384": {
        "encoding": "inplace",
        "label": "contract IRoutedSwapper",
        "numberOfBytes": "20"
      },
      "t_mapping(t_bytes32,t_uint256)": {
        "encoding": "mapping",
        "key": "t_bytes32",
        "label": "mapping(bytes32 => uint256)",
        "numberOfBytes": "32",
        "value": "t_uint256"
      },
      "t_string_storage": {
        "encoding": "bytes",
        "label": "string",
        "numberOfBytes": "32"
      },
      "t_struct(AddressSet)3024_storage": {
        "encoding": "inplace",
        "label": "struct EnumerableSet.AddressSet",
        "members": [
          {
            "astId": 3023,
            "contract": "vesper-strategies/contracts/strategies/maker/MakerVesper.sol:MakerVesper",
            "label": "_inner",
            "offset": 0,
            "slot": "0",
            "type": "t_struct(Set)2723_storage"
          }
        ],
        "numberOfBytes": "64"
      },
      "t_struct(Set)2723_storage": {
        "encoding": "inplace",
        "label": "struct EnumerableSet.Set",
        "members": [
          {
            "astId": 2718,
            "contract": "vesper-strategies/contracts/strategies/maker/MakerVesper.sol:MakerVesper",
            "label": "_values",
            "offset": 0,
            "slot": "0",
            "type": "t_array(t_bytes32)dyn_storage"
          },
          {
            "astId": 2722,
            "contract": "vesper-strategies/contracts/strategies/maker/MakerVesper.sol:MakerVesper",
            "label": "_indexes",
            "offset": 0,
            "slot": "1",
            "type": "t_mapping(t_bytes32,t_uint256)"
          }
        ],
        "numberOfBytes": "64"
      },
      "t_uint256": {
        "encoding": "inplace",
        "label": "uint256",
        "numberOfBytes": "32"
      }
    }
  }
}