{
  "address": "0xb2af500c94F7b4DFF189120c97cb25d8ad5aa028",
  "abi": [
    {
      "inputs": [
        {
          "internalType": "address",
          "name": "_multicall",
          "type": "address"
        }
      ],
      "stateMutability": "nonpayable",
      "type": "constructor"
    },
    {
      "anonymous": false,
      "inputs": [
        {
          "indexed": true,
          "internalType": "address",
          "name": "previousOwner",
          "type": "address"
        },
        {
          "indexed": true,
          "internalType": "address",
          "name": "newOwner",
          "type": "address"
        }
      ],
      "name": "OwnershipTransferred",
      "type": "event"
    },
    {
      "inputs": [
        {
          "internalType": "contract TransparentUpgradeableProxy",
          "name": "proxy",
          "type": "address"
        },
        {
          "internalType": "address",
          "name": "newAdmin",
          "type": "address"
        }
      ],
      "name": "changeProxyAdmin",
      "outputs": [],
      "stateMutability": "nonpayable",
      "type": "function"
    },
    {
      "inputs": [
        {
          "internalType": "contract TransparentUpgradeableProxy",
          "name": "proxy",
          "type": "address"
        }
      ],
      "name": "getProxyAdmin",
      "outputs": [
        {
          "internalType": "address",
          "name": "",
          "type": "address"
        }
      ],
      "stateMutability": "view",
      "type": "function"
    },
    {
      "inputs": [
        {
          "internalType": "contract TransparentUpgradeableProxy",
          "name": "proxy",
          "type": "address"
        }
      ],
      "name": "getProxyImplementation",
      "outputs": [
        {
          "internalType": "address",
          "name": "",
          "type": "address"
        }
      ],
      "stateMutability": "view",
      "type": "function"
    },
    {
      "inputs": [],
      "name": "multicall",
      "outputs": [
        {
          "internalType": "address",
          "name": "",
          "type": "address"
        }
      ],
      "stateMutability": "view",
      "type": "function"
    },
    {
      "inputs": [],
      "name": "owner",
      "outputs": [
        {
          "internalType": "address",
          "name": "",
          "type": "address"
        }
      ],
      "stateMutability": "view",
      "type": "function"
    },
    {
      "inputs": [],
      "name": "renounceOwnership",
      "outputs": [],
      "stateMutability": "nonpayable",
      "type": "function"
    },
    {
      "inputs": [
        {
          "internalType": "address",
          "name": "_proxy",
          "type": "address"
        },
        {
          "internalType": "address",
          "name": "_implementation",
          "type": "address"
        }
      ],
      "name": "safeUpgrade",
      "outputs": [],
      "stateMutability": "nonpayable",
      "type": "function"
    },
    {
      "inputs": [
        {
          "internalType": "address",
          "name": "_proxy",
          "type": "address"
        },
        {
          "internalType": "address",
          "name": "_implementation",
          "type": "address"
        },
        {
          "internalType": "bytes",
          "name": "_data",
          "type": "bytes"
        }
      ],
      "name": "safeUpgradeToAndCall",
      "outputs": [],
      "stateMutability": "payable",
      "type": "function"
    },
    {
      "inputs": [
        {
          "internalType": "address",
          "name": "newOwner",
          "type": "address"
        }
      ],
      "name": "transferOwnership",
      "outputs": [],
      "stateMutability": "nonpayable",
      "type": "function"
    },
    {
      "inputs": [
        {
          "internalType": "contract TransparentUpgradeableProxy",
          "name": "proxy",
          "type": "address"
        },
        {
          "internalType": "address",
          "name": "implementation",
          "type": "address"
        }
      ],
      "name": "upgrade",
      "outputs": [],
      "stateMutability": "nonpayable",
      "type": "function"
    },
    {
      "inputs": [
        {
          "internalType": "contract TransparentUpgradeableProxy",
          "name": "proxy",
          "type": "address"
        },
        {
          "internalType": "address",
          "name": "implementation",
          "type": "address"
        },
        {
          "internalType": "bytes",
          "name": "data",
          "type": "bytes"
        }
      ],
      "name": "upgradeAndCall",
      "outputs": [],
      "stateMutability": "payable",
      "type": "function"
    }
  ],
  "transactionHash": "0xabee935491478ac16ce2f580cb7638177ce0dd1d03f899da4d96fc8151e9e893",
  "args": [
    "0x80Ae459D058436ecB4e043ac48cfd209B578CBF0"
  ],
  "numDeployments": 1,
  "solcInputHash": "a0b662b50d0a8da264ba4c9ad8296fd3",
  "bytecode": "0x608060405234801561001057600080fd5b5060405161135338038061135383398101604081905261002f91610096565b600080546001600160a01b031916339081178255604051839282917f8be0079c531659141344cd1fd0a4f28419497f9722a3daafe3b4186f6b6457e0908290a350600180546001600160a01b0319166001600160a01b0392909216919091179055506100c6565b6000602082840312156100a857600080fd5b81516001600160a01b03811681146100bf57600080fd5b9392505050565b61127e806100d56000396000f3fe6080604052600436106100ac5760003560e01c80637eff275e1161007457806399a88ec41161004e57806399a88ec4146101a8578063f2fde38b146101c8578063f3b7dead146101e857600080fd5b80637eff275e146101575780638da5cb5b146101775780639623609d1461019557600080fd5b80631cdcf85a146100b1578063204e1c7a146100ed5780635e79c9771461010d578063715018a61461012f57806371a2d69814610144575b600080fd5b3480156100bd57600080fd5b506001546100d1906001600160a01b031681565b6040516001600160a01b03909116815260200160405180910390f35b3480156100f957600080fd5b506100d1610108366004610d29565b610208565b34801561011957600080fd5b5061012d610128366004610d4d565b610299565b005b34801561013b57600080fd5b5061012d61037c565b61012d610152366004610e4b565b61041b565b34801561016357600080fd5b5061012d610172366004610d4d565b6104fe565b34801561018357600080fd5b506000546001600160a01b03166100d1565b61012d6101a3366004610e4b565b61059e565b3480156101b457600080fd5b5061012d6101c3366004610d4d565b61064d565b3480156101d457600080fd5b5061012d6101e3366004610d29565b6106c3565b3480156101f457600080fd5b506100d1610203366004610d29565b6107d8565b6000806000836001600160a01b031660405161022e90635c60da1b60e01b815260040190565b600060405180830381855afa9150503d8060008114610269576040519150601f19603f3d011682016040523d82523d6000602084013e61026e565b606091505b50915091508161027d57600080fd5b808060200190518101906102919190610ead565b949350505050565b6000546001600160a01b031633146102e65760405162461bcd60e51b8152602060048201819052602482015260008051602061122983398151915260448201526064015b60405180910390fd5b60006102f06107fe565b905060006102fe8483610911565b604051631b2ce7f360e11b81526001600160a01b03858116600483015291925090851690633659cfe690602401600060405180830381600087803b15801561034557600080fd5b505af1158015610359573d6000803e3d6000fd5b5050505060006103698584610911565b90506103758282610a8f565b5050505050565b6000546001600160a01b031633146103c45760405162461bcd60e51b8152602060048201819052602482015260008051602061122983398151915260448201526064016102dd565b600080546040516001600160a01b03909116907f8be0079c531659141344cd1fd0a4f28419497f9722a3daafe3b4186f6b6457e0908390a36000805473ffffffffffffffffffffffffffffffffffffffff19169055565b6000546001600160a01b031633146104635760405162461bcd60e51b8152602060048201819052602482015260008051602061122983398151915260448201526064016102dd565b600061046d6107fe565b9050600061047b8583610911565b9050846001600160a01b0316634f1ef2863486866040518463ffffffff1660e01b81526004016104ac929190610f26565b6000604051808303818588803b1580156104c557600080fd5b505af11580156104d9573d6000803e3d6000fd5b505050505060006104ea8684610911565b90506104f68282610a8f565b505050505050565b6000546001600160a01b031633146105465760405162461bcd60e51b8152602060048201819052602482015260008051602061122983398151915260448201526064016102dd565b6040516308f2839760e41b81526001600160a01b038281166004830152831690638f283970906024015b600060405180830381600087803b15801561058a57600080fd5b505af11580156104f6573d6000803e3d6000fd5b6000546001600160a01b031633146105e65760405162461bcd60e51b8152602060048201819052602482015260008051602061122983398151915260448201526064016102dd565b60405163278f794360e11b81526001600160a01b03841690634f1ef2869034906106169086908690600401610f26565b6000604051808303818588803b15801561062f57600080fd5b505af1158015610643573d6000803e3d6000fd5b5050505050505050565b6000546001600160a01b031633146106955760405162461bcd60e51b8152602060048201819052602482015260008051602061122983398151915260448201526064016102dd565b604051631b2ce7f360e11b81526001600160a01b038281166004830152831690633659cfe690602401610570565b6000546001600160a01b0316331461070b5760405162461bcd60e51b8152602060048201819052602482015260008051602061122983398151915260448201526064016102dd565b6001600160a01b0381166107705760405162461bcd60e51b815260206004820152602660248201527f4f776e61626c653a206e6577206f776e657220697320746865207a65726f206160448201526564647265737360d01b60648201526084016102dd565b600080546040516001600160a01b03808516939216917f8be0079c531659141344cd1fd0a4f28419497f9722a3daafe3b4186f6b6457e091a36000805473ffffffffffffffffffffffffffffffffffffffff19166001600160a01b0392909216919091179055565b6000806000836001600160a01b031660405161022e906303e1469160e61b815260040190565b60408051600380825260808201909252606091816020015b6060815260200190600190039081610816579050506040805160048152602481019091526020810180516001600160e01b03166316f0115b60e01b179052815191925090829060009061086b5761086b610f48565b60209081029190910181019190915260408051600481526024810190915290810180516001600160e01b031663c4f59f9b60e01b1790528151829060019081106108b7576108b7610f48565b60209081029190910181019190915260408051600481526024810190915290810180516001600160e01b031663cd3daf9d60e01b17905281518290600290811061090357610903610f48565b602002602001018190525090565b60606000825167ffffffffffffffff81111561092f5761092f610d86565b60405190808252806020026020018201604052801561097557816020015b60408051808201909152600081526060602082015281526020019060019003908161094d5790505b50905060005b83518110156109ff578482828151811061099757610997610f48565b60209081029190910101516001600160a01b03909116905283518490829081106109c3576109c3610f48565b60200260200101518282815181106109dd576109dd610f48565b60200260200101516020018190525080806109f790610f5e565b91505061097b565b50600154604051631296dd2160e11b81526001600160a01b039091169063252dba4290610a30908490600401610f87565b600060405180830381600087803b158015610a4a57600080fd5b505af1158015610a5e573d6000803e3d6000fd5b505050506040513d6000823e601f3d908101601f19168201604052610a869190810190611028565b95945050505050565b600082600081518110610aa457610aa4610f48565b6020026020010151806020019051810190610abf9190610ead565b9050600083600181518110610ad657610ad6610f48565b6020026020010151806020019051810190610af1919061118f565b9050600084600281518110610b0857610b08610f48565b6020026020010151806020019051810190610b2391906111c4565b915050600084600081518110610b3b57610b3b610f48565b6020026020010151806020019051810190610b569190610ead565b9050600085600181518110610b6d57610b6d610f48565b6020026020010151806020019051810190610b88919061118f565b9050600086600281518110610b9f57610b9f610f48565b6020026020010151806020019051810190610bba91906111c4565b915050826001600160a01b0316866001600160a01b031614610c1e5760405162461bcd60e51b815260206004820152601260248201527f6669656c64732d746573742d6661696c6564000000000000000000000000000060448201526064016102dd565b81518551148015610c74575081600081518110610c3d57610c3d610f48565b60200260200101516001600160a01b031685600081518110610c6157610c61610f48565b60200260200101516001600160a01b0316145b8015610cc5575080600081518110610c8e57610c8e610f48565b60200260200101516001600160a01b031684600081518110610cb257610cb2610f48565b60200260200101516001600160a01b0316145b6106435760405162461bcd60e51b815260206004820152601360248201527f6d6574686f64732d746573742d6661696c65640000000000000000000000000060448201526064016102dd565b6001600160a01b0381168114610d2657600080fd5b50565b600060208284031215610d3b57600080fd5b8135610d4681610d11565b9392505050565b60008060408385031215610d6057600080fd5b8235610d6b81610d11565b91506020830135610d7b81610d11565b809150509250929050565b634e487b7160e01b600052604160045260246000fd5b604051601f8201601f1916810167ffffffffffffffff81118282101715610dc557610dc5610d86565b604052919050565b600067ffffffffffffffff821115610de757610de7610d86565b50601f01601f191660200190565b600082601f830112610e0657600080fd5b8135610e19610e1482610dcd565b610d9c565b818152846020838601011115610e2e57600080fd5b816020850160208301376000918101602001919091529392505050565b600080600060608486031215610e6057600080fd5b8335610e6b81610d11565b92506020840135610e7b81610d11565b9150604084013567ffffffffffffffff811115610e9757600080fd5b610ea386828701610df5565b9150509250925092565b600060208284031215610ebf57600080fd5b8151610d4681610d11565b60005b83811015610ee5578181015183820152602001610ecd565b83811115610ef4576000848401525b50505050565b60008151808452610f12816020860160208601610eca565b601f01601f19169290920160200192915050565b6001600160a01b03831681526040602082015260006102916040830184610efa565b634e487b7160e01b600052603260045260246000fd5b6000600019821415610f8057634e487b7160e01b600052601160045260246000fd5b5060010190565b60006020808301818452808551808352604092508286019150828160051b87010184880160005b83811015610ff657888303603f19018552815180516001600160a01b03168452870151878401879052610fe387850182610efa565b9588019593505090860190600101610fae565b509098975050505050505050565b600067ffffffffffffffff82111561101e5761101e610d86565b5060051b60200190565b600080604080848603121561103c57600080fd5b8351925060208085015167ffffffffffffffff8082111561105c57600080fd5b818701915087601f83011261107057600080fd5b815161107e610e1482611004565b81815260059190911b8301840190848101908a83111561109d57600080fd5b8585015b8381101561110e578051858111156110b95760008081fd5b8601603f81018d136110cb5760008081fd5b878101516110db610e1482610dcd565b8181528e8b8385010111156110f05760008081fd5b6110ff828b83018d8601610eca565b855250509186019186016110a1565b50809750505050505050509250929050565b600082601f83011261113157600080fd5b81516020611141610e1483611004565b82815260059290921b8401810191818101908684111561116057600080fd5b8286015b8481101561118457805161117781610d11565b8352918301918301611164565b509695505050505050565b6000602082840312156111a157600080fd5b815167ffffffffffffffff8111156111b857600080fd5b61029184828501611120565b600080604083850312156111d757600080fd5b825167ffffffffffffffff808211156111ef57600080fd5b6111fb86838701611120565b9350602085015191508082111561121157600080fd5b5061121e85828601611120565b915050925092905056fe4f776e61626c653a2063616c6c6572206973206e6f7420746865206f776e6572a26469706673582212203cdd432a0e767e3d56401302de8194686f79f14a958df72e580d9cd386cafb1c64736f6c63430008090033",
  "devdoc": {
    "kind": "dev",
    "methods": {
      "changeProxyAdmin(address,address)": {
        "details": "Changes the admin of `proxy` to `newAdmin`. Requirements: - This contract must be the current admin of `proxy`."
      },
      "getProxyAdmin(address)": {
        "details": "Returns the current admin of `proxy`. Requirements: - This contract must be the admin of `proxy`."
      },
      "getProxyImplementation(address)": {
        "details": "Returns the current implementation of `proxy`. Requirements: - This contract must be the admin of `proxy`."
      },
      "owner()": {
        "details": "Returns the address of the current owner."
      },
      "renounceOwnership()": {
        "details": "Leaves the contract without owner. It will not be possible to call `onlyOwner` functions anymore. Can only be called by the current owner. NOTE: Renouncing ownership will leave the contract without an owner, thereby removing any functionality that is only available to the owner."
      },
      "transferOwnership(address)": {
        "details": "Transfers ownership of the contract to a new account (`newOwner`). Can only be called by the current owner."
      },
      "upgrade(address,address)": {
        "details": "Upgrades `proxy` to `implementation`. See {TransparentUpgradeableProxy-upgradeTo}. Requirements: - This contract must be the admin of `proxy`."
      },
      "upgradeAndCall(address,address,bytes)": {
        "details": "Upgrades `proxy` to `implementation` and calls a function on the new implementation. See {TransparentUpgradeableProxy-upgradeToAndCall}. Requirements: - This contract must be the admin of `proxy`."
      }
    },
    "version": 1
  },
  "userdoc": {
    "kind": "user",
    "methods": {},
    "version": 1
  },
  "storageLayout": {
    "storage": [
      {
        "astId": 483,
        "contract": "vesper-pools/contracts/upgraders/PoolRewardsUpgrader.sol:PoolRewardsUpgrader",
        "label": "_owner",
        "offset": 0,
        "slot": "0",
        "type": "t_address"
      },
      {
        "astId": 9532,
        "contract": "vesper-pools/contracts/upgraders/PoolRewardsUpgrader.sol:PoolRewardsUpgrader",
        "label": "multicall",
        "offset": 0,
        "slot": "1",
        "type": "t_address"
      }
    ],
    "types": {
      "t_address": {
        "encoding": "inplace",
        "label": "address",
        "numberOfBytes": "20"
      }
    }
  }
}