{
  "address": "0x1C8f469e3c1D87B108eC69b165037d5d7365F8C3",
  "abi": [
    {
      "anonymous": false,
      "inputs": [
        {
          "indexed": true,
          "internalType": "address",
          "name": "strategy",
          "type": "address"
        },
        {
          "indexed": false,
          "internalType": "uint256",
          "name": "profit",
          "type": "uint256"
        },
        {
          "indexed": false,
          "internalType": "uint256",
          "name": "loss",
          "type": "uint256"
        },
        {
          "indexed": false,
          "internalType": "uint256",
          "name": "payback",
          "type": "uint256"
        },
        {
          "indexed": false,
          "internalType": "uint256",
          "name": "strategyDebt",
          "type": "uint256"
        },
        {
          "indexed": false,
          "internalType": "uint256",
          "name": "poolDebt",
          "type": "uint256"
        },
        {
          "indexed": false,
          "internalType": "uint256",
          "name": "creditLine",
          "type": "uint256"
        }
      ],
      "name": "EarningReported",
      "type": "event"
    },
    {
      "anonymous": false,
      "inputs": [
        {
          "indexed": true,
          "internalType": "address",
          "name": "strategy",
          "type": "address"
        },
        {
          "indexed": false,
          "internalType": "uint256",
          "name": "loss",
          "type": "uint256"
        }
      ],
      "name": "LossReported",
      "type": "event"
    },
    {
      "anonymous": false,
      "inputs": [
        {
          "indexed": true,
          "internalType": "address",
          "name": "strategy",
          "type": "address"
        },
        {
          "indexed": false,
          "internalType": "uint256",
          "name": "debtRatio",
          "type": "uint256"
        },
        {
          "indexed": false,
          "internalType": "uint256",
          "name": "externalDepositFee",
          "type": "uint256"
        }
      ],
      "name": "StrategyAdded",
      "type": "event"
    },
    {
      "anonymous": false,
      "inputs": [
        {
          "indexed": true,
          "internalType": "address",
          "name": "oldStrategy",
          "type": "address"
        },
        {
          "indexed": true,
          "internalType": "address",
          "name": "newStrategy",
          "type": "address"
        }
      ],
      "name": "StrategyMigrated",
      "type": "event"
    },
    {
      "anonymous": false,
      "inputs": [
        {
          "indexed": true,
          "internalType": "address",
          "name": "strategy",
          "type": "address"
        }
      ],
      "name": "StrategyRemoved",
      "type": "event"
    },
    {
      "anonymous": false,
      "inputs": [
        {
          "indexed": true,
          "internalType": "address",
          "name": "strategy",
          "type": "address"
        },
        {
          "indexed": false,
          "internalType": "uint256",
          "name": "oldFee",
          "type": "uint256"
        },
        {
          "indexed": false,
          "internalType": "uint256",
          "name": "newFee",
          "type": "uint256"
        }
      ],
      "name": "UpdatedExternalDepositFee",
      "type": "event"
    },
    {
      "anonymous": false,
      "inputs": [
        {
          "indexed": false,
          "internalType": "uint256",
          "name": "oldFee",
          "type": "uint256"
        },
        {
          "indexed": false,
          "internalType": "uint256",
          "name": "newFee",
          "type": "uint256"
        }
      ],
      "name": "UpdatedPoolExternalDepositFee",
      "type": "event"
    },
    {
      "anonymous": false,
      "inputs": [
        {
          "indexed": true,
          "internalType": "address",
          "name": "strategy",
          "type": "address"
        },
        {
          "indexed": false,
          "internalType": "uint256",
          "name": "oldDebtRatio",
          "type": "uint256"
        },
        {
          "indexed": false,
          "internalType": "uint256",
          "name": "newDebtRatio",
          "type": "uint256"
        }
      ],
      "name": "UpdatedStrategyDebtRatio",
      "type": "event"
    },
    {
      "inputs": [],
      "name": "MAX_BPS",
      "outputs": [
        {
          "internalType": "uint256",
          "name": "",
          "type": "uint256"
        }
      ],
      "stateMutability": "view",
      "type": "function"
    },
    {
      "inputs": [],
      "name": "VERSION",
      "outputs": [
        {
          "internalType": "string",
          "name": "",
          "type": "string"
        }
      ],
      "stateMutability": "view",
      "type": "function"
    },
    {
      "inputs": [
        {
          "internalType": "address",
          "name": "strategy_",
          "type": "address"
        },
        {
          "internalType": "uint256",
          "name": "debtRatio_",
          "type": "uint256"
        },
        {
          "internalType": "uint256",
          "name": "externalDepositFee_",
          "type": "uint256"
        }
      ],
      "name": "addStrategy",
      "outputs": [],
      "stateMutability": "nonpayable",
      "type": "function"
    },
    {
      "inputs": [
        {
          "internalType": "address",
          "name": "strategy_",
          "type": "address"
        }
      ],
      "name": "availableCreditLimit",
      "outputs": [
        {
          "internalType": "uint256",
          "name": "",
          "type": "uint256"
        }
      ],
      "stateMutability": "view",
      "type": "function"
    },
    {
      "inputs": [
        {
          "internalType": "address",
          "name": "strategy_",
          "type": "address"
        },
        {
          "internalType": "uint256",
          "name": "decreaseBy_",
          "type": "uint256"
        }
      ],
      "name": "decreaseDebt",
      "outputs": [],
      "stateMutability": "nonpayable",
      "type": "function"
    },
    {
      "inputs": [
        {
          "internalType": "address",
          "name": "strategy_",
          "type": "address"
        }
      ],
      "name": "excessDebt",
      "outputs": [
        {
          "internalType": "uint256",
          "name": "",
          "type": "uint256"
        }
      ],
      "stateMutability": "view",
      "type": "function"
    },
    {
      "inputs": [],
      "name": "externalDepositFee",
      "outputs": [
        {
          "internalType": "uint256",
          "name": "",
          "type": "uint256"
        }
      ],
      "stateMutability": "view",
      "type": "function"
    },
    {
      "inputs": [],
      "name": "getStrategies",
      "outputs": [
        {
          "internalType": "address[]",
          "name": "",
          "type": "address[]"
        }
      ],
      "stateMutability": "view",
      "type": "function"
    },
    {
      "inputs": [],
      "name": "getWithdrawQueue",
      "outputs": [
        {
          "internalType": "address[]",
          "name": "",
          "type": "address[]"
        }
      ],
      "stateMutability": "view",
      "type": "function"
    },
    {
      "inputs": [
        {
          "internalType": "address",
          "name": "pool_",
          "type": "address"
        }
      ],
      "name": "init",
      "outputs": [],
      "stateMutability": "nonpayable",
      "type": "function"
    },
    {
      "inputs": [
        {
          "internalType": "address",
          "name": "old_",
          "type": "address"
        },
        {
          "internalType": "address",
          "name": "new_",
          "type": "address"
        }
      ],
      "name": "migrateStrategy",
      "outputs": [],
      "stateMutability": "nonpayable",
      "type": "function"
    },
    {
      "inputs": [],
      "name": "pool",
      "outputs": [
        {
          "internalType": "address",
          "name": "",
          "type": "address"
        }
      ],
      "stateMutability": "view",
      "type": "function"
    },
    {
      "inputs": [],
      "name": "recalculatePoolExternalDepositFee",
      "outputs": [],
      "stateMutability": "nonpayable",
      "type": "function"
    },
    {
      "inputs": [
        {
          "internalType": "uint256",
          "name": "index_",
          "type": "uint256"
        }
      ],
      "name": "removeStrategy",
      "outputs": [],
      "stateMutability": "nonpayable",
      "type": "function"
    },
    {
      "inputs": [
        {
          "internalType": "address",
          "name": "strategy_",
          "type": "address"
        },
        {
          "internalType": "uint256",
          "name": "profit_",
          "type": "uint256"
        },
        {
          "internalType": "uint256",
          "name": "loss_",
          "type": "uint256"
        },
        {
          "internalType": "uint256",
          "name": "payback_",
          "type": "uint256"
        }
      ],
      "name": "reportEarning",
      "outputs": [
        {
          "internalType": "uint256",
          "name": "_actualPayback",
          "type": "uint256"
        },
        {
          "internalType": "uint256",
          "name": "_creditLine",
          "type": "uint256"
        }
      ],
      "stateMutability": "nonpayable",
      "type": "function"
    },
    {
      "inputs": [
        {
          "internalType": "address",
          "name": "strategy_",
          "type": "address"
        },
        {
          "internalType": "uint256",
          "name": "loss_",
          "type": "uint256"
        }
      ],
      "name": "reportLoss",
      "outputs": [],
      "stateMutability": "nonpayable",
      "type": "function"
    },
    {
      "inputs": [
        {
          "internalType": "uint256",
          "name": "",
          "type": "uint256"
        }
      ],
      "name": "strategies",
      "outputs": [
        {
          "internalType": "address",
          "name": "",
          "type": "address"
        }
      ],
      "stateMutability": "view",
      "type": "function"
    },
    {
      "inputs": [
        {
          "internalType": "address",
          "name": "",
          "type": "address"
        }
      ],
      "name": "strategy",
      "outputs": [
        {
          "internalType": "bool",
          "name": "active",
          "type": "bool"
        },
        {
          "internalType": "uint256",
          "name": "interestFee",
          "type": "uint256"
        },
        {
          "internalType": "uint256",
          "name": "debtRate",
          "type": "uint256"
        },
        {
          "internalType": "uint256",
          "name": "lastRebalance",
          "type": "uint256"
        },
        {
          "internalType": "uint256",
          "name": "totalDebt",
          "type": "uint256"
        },
        {
          "internalType": "uint256",
          "name": "totalLoss",
          "type": "uint256"
        },
        {
          "internalType": "uint256",
          "name": "totalProfit",
          "type": "uint256"
        },
        {
          "internalType": "uint256",
          "name": "debtRatio",
          "type": "uint256"
        },
        {
          "internalType": "uint256",
          "name": "externalDepositFee",
          "type": "uint256"
        }
      ],
      "stateMutability": "view",
      "type": "function"
    },
    {
      "inputs": [
        {
          "internalType": "address",
          "name": "fromToken_",
          "type": "address"
        }
      ],
      "name": "sweep",
      "outputs": [],
      "stateMutability": "nonpayable",
      "type": "function"
    },
    {
      "inputs": [],
      "name": "totalDebt",
      "outputs": [
        {
          "internalType": "uint256",
          "name": "",
          "type": "uint256"
        }
      ],
      "stateMutability": "view",
      "type": "function"
    },
    {
      "inputs": [
        {
          "internalType": "address",
          "name": "strategy_",
          "type": "address"
        }
      ],
      "name": "totalDebtOf",
      "outputs": [
        {
          "internalType": "uint256",
          "name": "",
          "type": "uint256"
        }
      ],
      "stateMutability": "view",
      "type": "function"
    },
    {
      "inputs": [],
      "name": "totalDebtRatio",
      "outputs": [
        {
          "internalType": "uint256",
          "name": "",
          "type": "uint256"
        }
      ],
      "stateMutability": "view",
      "type": "function"
    },
    {
      "inputs": [
        {
          "internalType": "address",
          "name": "strategy_",
          "type": "address"
        },
        {
          "internalType": "uint256",
          "name": "debtRatio_",
          "type": "uint256"
        }
      ],
      "name": "updateDebtRatio",
      "outputs": [],
      "stateMutability": "nonpayable",
      "type": "function"
    },
    {
      "inputs": [
        {
          "internalType": "address",
          "name": "strategy_",
          "type": "address"
        },
        {
          "internalType": "uint256",
          "name": "externalDepositFee_",
          "type": "uint256"
        }
      ],
      "name": "updateExternalDepositFee",
      "outputs": [],
      "stateMutability": "nonpayable",
      "type": "function"
    },
    {
      "inputs": [
        {
          "internalType": "address[]",
          "name": "withdrawQueue_",
          "type": "address[]"
        }
      ],
      "name": "updateWithdrawQueue",
      "outputs": [],
      "stateMutability": "nonpayable",
      "type": "function"
    },
    {
      "inputs": [
        {
          "internalType": "uint256",
          "name": "",
          "type": "uint256"
        }
      ],
      "name": "withdrawQueue",
      "outputs": [
        {
          "internalType": "address",
          "name": "",
          "type": "address"
        }
      ],
      "stateMutability": "view",
      "type": "function"
    }
  ],
  "transactionHash": "0x756bee29d663a625ce8a426a690bdbc605289cb67d4a1f1af9bd4f232e432432",
  "args": [],
  "numDeployments": 2,
  "solcInputHash": "56a6354551c0167036980230b4124393",
  "bytecode": "0x608060405234801561001057600080fd5b506130f1806100206000396000f3fe608060405234801561001057600080fd5b50600436106101ae5760003560e01c8063854f4d80116100ee578063c0cbbca611610097578063fa34d61111610071578063fa34d61114610423578063fc7b9c1814610436578063fd967f471461043f578063ffa1ad741461044857600080fd5b8063c0cbbca6146103ea578063d53ddc26146103fd578063d574ea3d1461041057600080fd5b8063a066654b116100c8578063a066654b146103a7578063b49a60bb146103cf578063b64321ec146103d757600080fd5b8063854f4d80146103555780638f88d18c146103685780639f2b28331461037b57600080fd5b80632df9eab91161015b578063346162d511610135578063346162d51461031357806362518ddf1461031c5780636cb56d191461032f5780637f13086e1461034257600080fd5b80632df9eab9146102d65780632fb9ba31146102ed57806332b77a761461030057600080fd5b806319ab453c1161018c57806319ab453c14610217578063228bfd9f1461022a5780632a1f6ec1146102ce57600080fd5b806301681a62146101b357806311183052146101c857806316f0115b146101e6575b600080fd5b6101c66101c1366004612ce8565b610479565b005b6101d0610677565b6040516101dd9190612d05565b60405180910390f35b6000546101ff906201000090046001600160a01b031681565b6040516001600160a01b0390911681526020016101dd565b6101c6610225366004612ce8565b6106d9565b610288610238366004612ce8565b600560208190526000918252604090912080546001820154600283015460038401546004850154958501546006860154600787015460089097015460ff9096169794969395929493919290919089565b604080519915158a5260208a0198909852968801959095526060870193909352608086019190915260a085015260c084015260e0830152610100820152610120016101dd565b6101c661080c565b6102df60015481565b6040519081526020016101dd565b6101c66102fb366004612d52565b610972565b6101c661030e366004612d52565b610a38565b6102df60065481565b6101ff61032a366004612d7e565b610c01565b6101c661033d366004612d97565b610c2b565b6101c6610350366004612d52565b6110ac565b6101c6610363366004612de6565b6111a2565b6101c6610376366004612d52565b611409565b6102df610389366004612ce8565b6001600160a01b031660009081526005602052604090206004015490565b6103ba6103b5366004612eab565b6116b2565b604080519283526020830191909152016101dd565b6101d0611a30565b6102df6103e5366004612ce8565b611a90565b6101c66103f8366004612d7e565b611aa1565b6102df61040b366004612ce8565b611ee3565b6101ff61041e366004612d7e565b611eee565b6101c6610431366004612ee6565b611efe565b6102df60025481565b6102df61271081565b61046c604051806040016040528060058152602001640352e312e360dc1b81525081565b6040516101dd9190612f47565b6000546040805163030d028960e21b8152905133926201000090046001600160a01b031691630c340a24916004808301926020929190829003018186803b1580156104c357600080fd5b505afa1580156104d7573d6000803e3d6000fd5b505050506040513d601f19601f820116820180604052508101906104fb9190612f7a565b6001600160a01b0316148061059a57506000546201000090046001600160a01b0316636ba42aaa336040516001600160e01b031960e084901b1681526001600160a01b03909116600482015260240160206040518083038186803b15801561056257600080fd5b505afa158015610576573d6000803e3d6000fd5b505050506040513d601f19601f8201168201806040525081019061059a9190612f97565b6105da5760405162461bcd60e51b815260206004820152600c60248201526b3737ba16b096b5b2b2b832b960a11b60448201526064015b60405180910390fd5b6000546040516370a0823160e01b8152306004820152610674916201000090046001600160a01b0390811691908416906370a082319060240160206040518083038186803b15801561062b57600080fd5b505afa15801561063f573d6000803e3d6000fd5b505050506040513d601f19601f820116820180604052508101906106639190612fb9565b6001600160a01b03841691906122bb565b50565b606060048054806020026020016040519081016040528092919081815260200182805480156106cf57602002820191906000526020600020905b81546001600160a01b031681526001909101906020018083116106b1575b5050505050905090565b600054610100900460ff16806106f2575060005460ff16155b6107645760405162461bcd60e51b815260206004820152602e60248201527f496e697469616c697a61626c653a20636f6e747261637420697320616c72656160448201527f647920696e697469616c697a656400000000000000000000000000000000000060648201526084016105d1565b600054610100900460ff16158015610786576000805461ffff19166101011790555b604080518082019091526002815261031360f41b60208201526001600160a01b0383166107c65760405162461bcd60e51b81526004016105d19190612f47565b506000805475ffffffffffffffffffffffffffffffffffffffff00001916620100006001600160a01b038516021790558015610808576000805461ff00191690555b5050565b6000546040805163030d028960e21b8152905133926201000090046001600160a01b031691630c340a24916004808301926020929190829003018186803b15801561085657600080fd5b505afa15801561086a573d6000803e3d6000fd5b505050506040513d601f19601f8201168201806040525081019061088e9190612f7a565b6001600160a01b0316148061092d57506000546201000090046001600160a01b0316636ba42aaa336040516001600160e01b031960e084901b1681526001600160a01b03909116600482015260240160206040518083038186803b1580156108f557600080fd5b505afa158015610909573d6000803e3d6000fd5b505050506040513d601f19601f8201168201806040525081019061092d9190612f97565b6109685760405162461bcd60e51b815260206004820152600c60248201526b3737ba16b096b5b2b2b832b960a11b60448201526064016105d1565b610970612322565b565b6000546001600160a01b03620100009091041633146109c05760405162461bcd60e51b815260206004820152600a6024820152691b9bdd0b584b5c1bdbdb60b21b60448201526064016105d1565b6001600160a01b0382166000908152600560205260409020600401546109e6908261244f565b6001600160a01b038316600090815260056020526040812060040180549293508392909190610a16908490612fe8565b925050819055508060026000828254610a2f9190612fe8565b90915550505050565b6000546040805163030d028960e21b8152905133926201000090046001600160a01b031691630c340a24916004808301926020929190829003018186803b158015610a8257600080fd5b505afa158015610a96573d6000803e3d6000fd5b505050506040513d601f19601f82011682018060405250810190610aba9190612f7a565b6001600160a01b031614610b035760405162461bcd60e51b815260206004820152601060248201526f3737ba16ba343296b3b7bb32b93737b960811b60448201526064016105d1565b6001600160a01b0382166000908152600560209081526040918290205482518084019093526002835261189b60f11b9183019190915260ff16610b595760405162461bcd60e51b81526004016105d19190612f47565b50604080518082019091526002815261313160f01b6020820152612710821115610b965760405162461bcd60e51b81526004016105d19190612f47565b506001600160a01b038216600081815260056020908152604091829020600801805490859055825181815291820185905292917f3e57eabb1906726caa174b6716b34373026dfd25dbae17ba47ec46e8a9ced9ee910160405180910390a2610bfc612322565b505050565b60048181548110610c1157600080fd5b6000918252602090912001546001600160a01b0316905081565b6000546001600160a01b0362010000909104163314610c795760405162461bcd60e51b815260206004820152600a6024820152691b9bdd0b584b5c1bdbdb60b21b60448201526064016105d1565b6001600160a01b0382166000908152600560209081526040918290205482518084019093526002835261189b60f11b9183019190915260ff16610ccf5760405162461bcd60e51b81526004016105d19190612f47565b506001600160a01b0381166000908152600560209081526040918290205482518084019093526002835261313560f01b9183019190915260ff1615610d275760405162461bcd60e51b81526004016105d19190612f47565b506000604051806101200160405280600115158152602001600081526020016000815260200160056000866001600160a01b03166001600160a01b0316815260200190815260200160002060030154815260200160056000866001600160a01b03166001600160a01b03168152602001908152602001600020600401548152602001600081526020016000815260200160056000866001600160a01b03166001600160a01b0316815260200190815260200160002060070154815260200160056000866001600160a01b03166001600160a01b0316815260200190815260200160002060080154815250905060056000846001600160a01b03166001600160a01b03168152602001908152602001600020600080820160006101000a81549060ff02191690556001820160009055600282016000905560038201600090556004820160009055600582016000905560068201600090556007820160009055600882016000905550508060056000846001600160a01b03166001600160a01b0316815260200190815260200160002060008201518160000160006101000a81548160ff0219169083151502179055506020820151816001015560408201518160020155606082015181600301556080820151816004015560a0820151816005015560c0820151816006015560e08201518160070155610100820151816008015590505060005b600354811015610fc757836001600160a01b031660038281548110610f5357610f53612fff565b6000918252602090912001546001600160a01b03161415610fb5578260038281548110610f8257610f82612fff565b9060005260206000200160006101000a8154816001600160a01b0302191690836001600160a01b03160217905550610fc7565b80610fbf81613015565b915050610f2c565b5060005b60045481101561106657836001600160a01b031660048281548110610ff257610ff2612fff565b6000918252602090912001546001600160a01b0316141561105457826004828154811061102157611021612fff565b9060005260206000200160006101000a8154816001600160a01b0302191690836001600160a01b03160217905550611066565b8061105e81613015565b915050610fcb565b50816001600160a01b0316836001600160a01b03167f100b69bb6b504e1252e36b375233158edee64d071b399e2f81473a695fd1b02160405160405180910390a3505050565b6000546001600160a01b03620100009091041633146110fa5760405162461bcd60e51b815260206004820152600a6024820152691b9bdd0b584b5c1bdbdb60b21b60448201526064016105d1565b6001600160a01b0382166000908152600560209081526040918290205482518084019093526002835261189b60f11b9183019190915260ff166111505760405162461bcd60e51b81526004016105d19190612f47565b5061115b8282612467565b816001600160a01b03167f3ffa9beb41b46c88b16758ef6c236ebd4d07cdfd4d22471030eb6b2d662482d98260405161119691815260200190565b60405180910390a25050565b6000546040805163030d028960e21b8152905133926201000090046001600160a01b031691630c340a24916004808301926020929190829003018186803b1580156111ec57600080fd5b505afa158015611200573d6000803e3d6000fd5b505050506040513d601f19601f820116820180604052508101906112249190612f7a565b6001600160a01b031614806112c357506000546201000090046001600160a01b031663dd57366a336040516001600160e01b031960e084901b1681526001600160a01b03909116600482015260240160206040518083038186803b15801561128b57600080fd5b505afa15801561129f573d6000803e3d6000fd5b505050506040513d601f19601f820116820180604052508101906112c39190612f97565b6113025760405162461bcd60e51b815260206004820152601060248201526f3737ba16b096b6b0b4b73a30b4b732b960811b60448201526064016105d1565b805160045481148015611316575060035481145b604051806040016040528060018152602001600d60fa1b8152509061134e5760405162461bcd60e51b81526004016105d19190612f47565b5060005b818110156113f5576005600084838151811061137057611370612fff565b60200260200101516001600160a01b03166001600160a01b0316815260200190815260200160002060000160009054906101000a900460ff1660405180604001604052806002815260200161189b60f11b815250906113e25760405162461bcd60e51b81526004016105d19190612f47565b50806113ed81613015565b915050611352565b508151610bfc906004906020850190612c3c565b6000546040805163030d028960e21b8152905133926201000090046001600160a01b031691630c340a24916004808301926020929190829003018186803b15801561145357600080fd5b505afa158015611467573d6000803e3d6000fd5b505050506040513d601f19601f8201168201806040525081019061148b9190612f7a565b6001600160a01b0316148061152a57506000546201000090046001600160a01b031663dd57366a336040516001600160e01b031960e084901b1681526001600160a01b03909116600482015260240160206040518083038186803b1580156114f257600080fd5b505afa158015611506573d6000803e3d6000fd5b505050506040513d601f19601f8201168201806040525081019061152a9190612f97565b6115695760405162461bcd60e51b815260206004820152601060248201526f3737ba16b096b6b0b4b73a30b4b732b960811b60448201526064016105d1565b6001600160a01b0382166000908152600560209081526040918290205482518084019093526002835261189b60f11b9183019190915260ff166115bf5760405162461bcd60e51b81526004016105d19190612f47565b506001600160a01b03821660009081526005602052604090206007015460015482916115ea91612fe8565b6115f49190613030565b6001819055604080518082019091526002815261062760f31b60208201529061271010156116355760405162461bcd60e51b81526004016105d19190612f47565b506001600160a01b0382166000818152600560209081526040918290206007015482519081529081018490527fab9990442b7ef5dfed05018d2d947ceb38710eda84b3e3b32940cbb28867ee0e910160405180910390a26001600160a01b0382166000908152600560205260409020600701819055610808612322565b6000805481906001600160a01b03620100009091041633146117035760405162461bcd60e51b815260206004820152600a6024820152691b9bdd0b584b5c1bdbdb60b21b60448201526064016105d1565b6001600160a01b0386166000908152600560209081526040918290205482518084019093526002835261189b60f11b9183019190915260ff166117595760405162461bcd60e51b81526004016105d19190612f47565b506117648386613030565b600060029054906101000a90046001600160a01b03166001600160a01b031663fc0c546a6040518163ffffffff1660e01b815260040160206040518083038186803b1580156117b257600080fd5b505afa1580156117c6573d6000803e3d6000fd5b505050506040513d601f19601f820116820180604052508101906117ea9190612f7a565b6040516370a0823160e01b81526001600160a01b03898116600483015291909116906370a082319060240160206040518083038186803b15801561182d57600080fd5b505afa158015611841573d6000803e3d6000fd5b505050506040513d601f19601f820116820180604052508101906118659190612fb9565b1015604051806040016040528060018152602001603960f81b8152509061189f5760405162461bcd60e51b81526004016105d19190612f47565b5083156118b0576118b08685612467565b60006118bb8761265d565b90506118c7818561244f565b92508215611919576001600160a01b038716600090815260056020526040812060040180548592906118fa908490612fe8565b9250508190555082600260008282546119139190612fe8565b90915550505b611922876127f9565b91508115611974576001600160a01b03871660009081526005602052604081206004018054849290611955908490613030565b92505081905550816002600082825461196e9190613030565b90915550505b85156119ab576001600160a01b038716600090815260056020526040812060060180548892906119a5908490613030565b90915550505b6001600160a01b0387166000818152600560209081526040918290204260038201556004015460025483518b81529283018a90529282018790526060820152608081019190915260a081018490527f29c6c60e040fcd722949346bda66341e8859b20b9a2124a625326ad10373391b9060c00160405180910390a25094509492505050565b606060038054806020026020016040519081016040528092919081815260200182805480156106cf576020028201919060005260206000209081546001600160a01b031681526001909101906020018083116106b1575050505050905090565b6000611a9b826127f9565b92915050565b6000546040805163030d028960e21b8152905133926201000090046001600160a01b031691630c340a24916004808301926020929190829003018186803b158015611aeb57600080fd5b505afa158015611aff573d6000803e3d6000fd5b505050506040513d601f19601f82011682018060405250810190611b239190612f7a565b6001600160a01b031614611b6c5760405162461bcd60e51b815260206004820152601060248201526f3737ba16ba343296b3b7bb32b93737b960811b60448201526064016105d1565b600060038281548110611b8157611b81612fff565b60009182526020808320909101546001600160a01b0316808352600582526040928390205483518085019094526002845261189b60f11b92840192909252925060ff16611be15760405162461bcd60e51b81526004016105d19190612f47565b506001600160a01b0381166000908152600560209081526040918290206004015482518084019093526002835261313960f01b9183019190915215611c395760405162461bcd60e51b81526004016105d19190612f47565b506001600160a01b0381166000908152600560205260408120600701546001805491929091611c69908490612fe8565b90915550506001600160a01b03811660009081526005602081905260408220805460ff19168155600180820184905560028201849055600380830185905560048301859055928201849055600682018490556007820184905560089091019290925580549091611cd891612fe8565b81548110611ce857611ce8612fff565b600091825260209091200154600380546001600160a01b039092169184908110611d1457611d14612fff565b9060005260206000200160006101000a8154816001600160a01b0302191690836001600160a01b031602179055506003805480611d5357611d53613048565b6000828152602081208201600019908101805473ffffffffffffffffffffffffffffffffffffffff1916905590910190915560035467ffffffffffffffff811115611da057611da0612dd0565b604051908082528060200260200182016040528015611dc9578160200160208202803683370190505b5090506000805b600454811015611e8c57836001600160a01b031660048281548110611df757611df7612fff565b6000918252602090912001546001600160a01b031614611e7a5760048181548110611e2457611e24612fff565b9060005260206000200160009054906101000a90046001600160a01b0316838381518110611e5457611e54612fff565b6001600160a01b039092166020928302919091019091015281611e7681613015565b9250505b80611e8481613015565b915050611dd0565b508151611ea0906004906020850190612c3c565b506040516001600160a01b038416907f09a1db4b80c32706328728508c941a6b954f31eb5affd32f236c1fd405f8fea490600090a2611edd612322565b50505050565b6000611a9b8261265d565b60038181548110610c1157600080fd5b6000546040805163030d028960e21b8152905133926201000090046001600160a01b031691630c340a24916004808301926020929190829003018186803b158015611f4857600080fd5b505afa158015611f5c573d6000803e3d6000fd5b505050506040513d601f19601f82011682018060405250810190611f809190612f7a565b6001600160a01b031614611fc95760405162461bcd60e51b815260206004820152601060248201526f3737ba16ba343296b3b7bb32b93737b960811b60448201526064016105d1565b604080518082019091526002815261031360f41b60208201526001600160a01b0384166120095760405162461bcd60e51b81526004016105d19190612f47565b506001600160a01b0383166000908152600560209081526040918290205482518084019093526002835261313560f01b9183019190915260ff16156120615760405162461bcd60e51b81526004016105d19190612f47565b50816001546120709190613030565b6001819055604080518082019091526002815261062760f31b60208201529061271010156120b15760405162461bcd60e51b81526004016105d19190612f47565b50604080518082019091526002815261313160f01b60208201526127108211156120ee5760405162461bcd60e51b81526004016105d19190612f47565b50600060405180610120016040528060011515815260200160008152602001600081526020014281526020016000815260200160008152602001600081526020018481526020018381525090508060056000866001600160a01b03166001600160a01b0316815260200190815260200160002060008201518160000160006101000a81548160ff0219169083151502179055506020820151816001015560408201518160020155606082015181600301556080820151816004015560a0820151816005015560c0820151816006015560e0820151816007015561010082015181600801559050506003849080600181540180825580915050600190039060005260206000200160009091909190916101000a8154816001600160a01b0302191690836001600160a01b031602179055506004849080600181540180825580915050600190039060005260206000200160009091909190916101000a8154816001600160a01b0302191690836001600160a01b03160217905550836001600160a01b03167f45bb3eed5cd098efb0a286413fb1f3c11841762610cefbabae6a772963e916ba84846040516122ab929190918252602082015260400190565b60405180910390a2611edd612322565b604080516001600160a01b038416602482015260448082018490528251808303909101815260649091019091526020810180517bffffffffffffffffffffffffffffffffffffffffffffffffffffffff1663a9059cbb60e01b179052610bfc908490612a6f565b6003546001546000901561240a5760005b8281101561240857600154600560006003848154811061235557612355612fff565b9060005260206000200160009054906101000a90046001600160a01b03166001600160a01b03166001600160a01b031681526020019081526020016000206007015460056000600385815481106123ae576123ae612fff565b60009182526020808320909101546001600160a01b031683528201929092526040019020600801546123e0919061305e565b6123ea919061307d565b6123f49083613030565b91508061240081613015565b915050612333565b505b600680549082905560408051918252602082018390527f2d6a5770d560080bb77885132eea46b6db3b15e70e6e5e73087ea7bcd138fcf0910160405180910390a15050565b600081831061245e5781612460565b825b9392505050565b8060056000846001600160a01b03166001600160a01b0316815260200190815260200160002060040154101560405180604001604052806002815260200161032360f41b815250906124cc5760405162461bcd60e51b81526004016105d19190612f47565b506001600160a01b038216600090815260056020819052604082200180548392906124f8908490613030565b90915550506001600160a01b03821660009081526005602052604081206004018054839290612528908490612fe8565b9250508190555080600260008282546125419190612fe8565b92505081905550600061260a600060029054906101000a90046001600160a01b03166001600160a01b031663d4c3eea06040518163ffffffff1660e01b815260040160206040518083038186803b15801561259b57600080fd5b505afa1580156125af573d6000803e3d6000fd5b505050506040513d601f19601f820116820180604052508101906125d39190612fb9565b6125df6127108561305e565b6125e9919061307d565b6001600160a01b03851660009081526005602052604090206007015461244f565b6001600160a01b03841660009081526005602052604081206007018054929350839290919061263a908490612fe8565b9250508190555080600160008282546126539190612fe8565b9091555050505050565b60008060056000846001600160a01b03166001600160a01b03168152602001908152602001600020600401549050600060029054906101000a90046001600160a01b03166001600160a01b0316634938649a6040518163ffffffff1660e01b815260040160206040518083038186803b1580156126d957600080fd5b505afa1580156126ed573d6000803e3d6000fd5b505050506040513d601f19601f820116820180604052508101906127119190612f97565b1561271c5792915050565b6000612710600060029054906101000a90046001600160a01b03166001600160a01b031663d4c3eea06040518163ffffffff1660e01b815260040160206040518083038186803b15801561276f57600080fd5b505afa158015612783573d6000803e3d6000fd5b505050506040513d601f19601f820116820180604052508101906127a79190612fb9565b6001600160a01b0386166000908152600560205260409020600701546127cd919061305e565b6127d7919061307d565b90508082116127e75760006127f1565b6127f18183612fe8565b949350505050565b60008060029054906101000a90046001600160a01b03166001600160a01b0316634938649a6040518163ffffffff1660e01b815260040160206040518083038186803b15801561284857600080fd5b505afa15801561285c573d6000803e3d6000fd5b505050506040513d601f19601f820116820180604052508101906128809190612f97565b1561288d57506000919050565b60008060029054906101000a90046001600160a01b03166001600160a01b031663d4c3eea06040518163ffffffff1660e01b815260040160206040518083038186803b1580156128dc57600080fd5b505afa1580156128f0573d6000803e3d6000fd5b505050506040513d601f19601f820116820180604052508101906129149190612fb9565b6001600160a01b038416600090815260056020526040812060070154919250906127109061294390849061305e565b61294d919061307d565b6001600160a01b03851660009081526005602052604090206004015490915081811061297e57506000949350505050565b600061271084600154612991919061305e565b61299b919061307d565b905080600254106129b25750600095945050505050565b60006129be8385612fe8565b9050612a64612a52600060029054906101000a90046001600160a01b03166001600160a01b031663b8cb343d6040518163ffffffff1660e01b815260040160206040518083038186803b158015612a1457600080fd5b505afa158015612a28573d6000803e3d6000fd5b505050506040513d601f19601f82011682018060405250810190612a4c9190612fb9565b8361244f565b600254612a5f9085612fe8565b61244f565b979650505050505050565b6000612ac4826040518060400160405280602081526020017f5361666545524332303a206c6f772d6c6576656c2063616c6c206661696c6564815250856001600160a01b0316612b419092919063ffffffff16565b805190915015610bfc5780806020019051810190612ae29190612f97565b610bfc5760405162461bcd60e51b815260206004820152602a60248201527f5361666545524332303a204552433230206f7065726174696f6e20646964206e6044820152691bdd081cdd58d8d9595960b21b60648201526084016105d1565b60606127f1848460008585843b612b9a5760405162461bcd60e51b815260206004820152601d60248201527f416464726573733a2063616c6c20746f206e6f6e2d636f6e747261637400000060448201526064016105d1565b600080866001600160a01b03168587604051612bb6919061309f565b60006040518083038185875af1925050503d8060008114612bf3576040519150601f19603f3d011682016040523d82523d6000602084013e612bf8565b606091505b5091509150612a6482828660608315612c12575081612460565b825115612c225782518084602001fd5b8160405162461bcd60e51b81526004016105d19190612f47565b828054828255906000526020600020908101928215612c9e579160200282015b82811115612c9e578251825473ffffffffffffffffffffffffffffffffffffffff19166001600160a01b03909116178255602090920191600190910190612c5c565b50612caa929150612cae565b5090565b5b80821115612caa5760008155600101612caf565b6001600160a01b038116811461067457600080fd5b8035612ce381612cc3565b919050565b600060208284031215612cfa57600080fd5b813561246081612cc3565b6020808252825182820181905260009190848201906040850190845b81811015612d465783516001600160a01b031683529284019291840191600101612d21565b50909695505050505050565b60008060408385031215612d6557600080fd5b8235612d7081612cc3565b946020939093013593505050565b600060208284031215612d9057600080fd5b5035919050565b60008060408385031215612daa57600080fd5b8235612db581612cc3565b91506020830135612dc581612cc3565b809150509250929050565b634e487b7160e01b600052604160045260246000fd5b60006020808385031215612df957600080fd5b823567ffffffffffffffff80821115612e1157600080fd5b818501915085601f830112612e2557600080fd5b813581811115612e3757612e37612dd0565b8060051b604051601f19603f83011681018181108582111715612e5c57612e5c612dd0565b604052918252848201925083810185019188831115612e7a57600080fd5b938501935b82851015612e9f57612e9085612cd8565b84529385019392850192612e7f565b98975050505050505050565b60008060008060808587031215612ec157600080fd5b8435612ecc81612cc3565b966020860135965060408601359560600135945092505050565b600080600060608486031215612efb57600080fd5b8335612f0681612cc3565b95602085013595506040909401359392505050565b60005b83811015612f36578181015183820152602001612f1e565b83811115611edd5750506000910152565b6020815260008251806020840152612f66816040850160208701612f1b565b601f01601f19169190910160400192915050565b600060208284031215612f8c57600080fd5b815161246081612cc3565b600060208284031215612fa957600080fd5b8151801515811461246057600080fd5b600060208284031215612fcb57600080fd5b5051919050565b634e487b7160e01b600052601160045260246000fd5b600082821015612ffa57612ffa612fd2565b500390565b634e487b7160e01b600052603260045260246000fd5b600060001982141561302957613029612fd2565b5060010190565b6000821982111561304357613043612fd2565b500190565b634e487b7160e01b600052603160045260246000fd5b600081600019048311821515161561307857613078612fd2565b500290565b60008261309a57634e487b7160e01b600052601260045260246000fd5b500490565b600082516130b1818460208701612f1b565b919091019291505056fea26469706673582212203678b2a39cfa651d5adc7bdce7acf7898228010e33ba2bfd11d258c25b906e1a64736f6c63430008090033",
  "devdoc": {
    "kind": "dev",
    "methods": {
      "addStrategy(address,uint256,uint256)": {
        "details": "Recalculate pool level external deposit fee after all state variables are updated.",
        "params": {
          "debtRatio_": "Pool fund allocation to this strategy",
          "externalDepositFee_": "External deposit fee of strategy",
          "strategy_": "Strategy address"
        }
      },
      "availableCreditLimit(address)": {
        "details": "Available credit limit is calculated based on current debt of pool and strategy, current debt limit of pool and strategy. credit available = min(pool's debt limit, strategy's debt limit, max debt per rebalance) when some strategy do not pay back outstanding debt, this impact credit line of other strategy if totalDebt of pool >= debtLimit of pool",
        "params": {
          "strategy_": "Strategy address"
        }
      },
      "decreaseDebt(address,uint256)": {
        "details": "In case of withdraw from strategy, pool will decrease debt by amount withdrawn",
        "params": {
          "decreaseBy_": "Amount by which strategy debt will be decreased",
          "strategy_": "Strategy Address"
        }
      },
      "excessDebt(address)": {
        "params": {
          "strategy_": "Address of strategy"
        }
      },
      "init(address)": {
        "details": "This init function meant to be called after proxy deployment.DO NOT CALL it with proxy deploy",
        "params": {
          "pool_": "Address of Vesper pool proxy"
        }
      },
      "migrateStrategy(address,address)": {
        "details": "Migrating strategy aka old and new strategy should be of same type.New strategy will replace old strategy in strategy mapping, strategies array, withdraw queue.",
        "params": {
          "new_": "Address of new strategy",
          "old_": "Address of strategy being migrated"
        }
      },
      "recalculatePoolExternalDepositFee()": {
        "details": "Whenever debtRatio changes recalculation is required. DebtRatio changes if strategy reports loss and in that case an off chain application can watch for it and take action accordingly.This function is gas heavy hence we do not want to call during reportLoss."
      },
      "removeStrategy(uint256)": {
        "details": "Revoke and remove strategy from array. Update withdraw queue. Withdraw queue order should not change after remove. Strategy can be removed only after it has paid all debt. Use migrate strategy if debt is not paid and want to upgrade strategy."
      },
      "reportEarning(address,uint256,uint256,uint256)": {
        "details": "Strategy call this in regular interval.",
        "params": {
          "loss_": "Reduce debt ,also reduce debtRatio, increase loss in record.",
          "payback_": "strategy willing to payback outstanding above debtLimit. no performance fee on this amount.  when governance has reduced debtRatio of strategy, strategy will report profit and payback amount separately.",
          "profit_": "yield generated by strategy. Strategy get performance fee on this amount"
        }
      },
      "reportLoss(address,uint256)": {
        "params": {
          "loss_": "Loss of strategy",
          "strategy_": "Strategy which incur loss"
        }
      },
      "sweep(address)": {
        "details": "Transfer given ERC20 token to pool",
        "params": {
          "fromToken_": "Token address to sweep"
        }
      },
      "totalDebtOf(address)": {
        "params": {
          "strategy_": "Strategy address"
        }
      },
      "updateDebtRatio(address,uint256)": {
        "details": "A strategy is retired when debtRatio is 0As debtRatio impacts pool level external deposit fee hence recalculate it after updating debtRatio.",
        "params": {
          "debtRatio_": "New debt ratio",
          "strategy_": "Strategy address for which debt ratio is being updated"
        }
      },
      "updateExternalDepositFee(address,uint256)": {
        "params": {
          "externalDepositFee_": "New external deposit fee",
          "strategy_": "Strategy address for which external deposit fee is being updated"
        }
      },
      "updateWithdrawQueue(address[])": {
        "details": "Pool always keep some buffer amount to satisfy withdrawal request, any withdrawal request higher than buffer will withdraw from withdraw queue. So withdrawQueue[0] will be the first strategy where withdrawal request will be send.",
        "params": {
          "withdrawQueue_": "Ordered list of strategy."
        }
      }
    },
    "title": "Accountant for Vesper pools which keep records of strategies.",
    "version": 1
  },
  "userdoc": {
    "kind": "user",
    "methods": {
      "addStrategy(address,uint256,uint256)": {
        "notice": "Add strategy. Once strategy is added it can call rebalance and borrow fund from pool and invest that fund in provider/lender."
      },
      "availableCreditLimit(address)": {
        "notice": "Get available credit limit of strategy. This is the amount strategy can borrow from pool"
      },
      "decreaseDebt(address,uint256)": {
        "notice": "Decrease debt of strategy, also decrease totalDebt"
      },
      "excessDebt(address)": {
        "notice": "Debt above current debt limit"
      },
      "getStrategies()": {
        "notice": "Return strategies array"
      },
      "getWithdrawQueue()": {
        "notice": "Return withdrawQueue"
      },
      "migrateStrategy(address,address)": {
        "notice": "Migrate existing strategy to new strategy."
      },
      "recalculatePoolExternalDepositFee()": {
        "notice": "Recalculate pool external deposit fee. It is calculated using debtRatio and external deposit fee of each strategy."
      },
      "removeStrategy(uint256)": {
        "notice": "Remove strategy and recalculate pool level external deposit fee."
      },
      "reportLoss(address,uint256)": {
        "notice": "Update strategy loss."
      },
      "totalDebtOf(address)": {
        "notice": "Get total debt of given strategy"
      },
      "updateDebtRatio(address,uint256)": {
        "notice": "Update debt ratio."
      },
      "updateExternalDepositFee(address,uint256)": {
        "notice": "Update external deposit fee of strategy and recalculate pool level external deposit fee."
      },
      "updateWithdrawQueue(address[])": {
        "notice": "Update withdraw queue. Withdraw queue is list of strategy in the order in which funds should be withdrawn."
      }
    },
    "version": 1
  },
  "storageLayout": {
    "storage": [
      {
        "astId": 1361,
        "contract": "vesper-pools/contracts/pool/PoolAccountant.sol:PoolAccountant",
        "label": "_initialized",
        "offset": 0,
        "slot": "0",
        "type": "t_bool"
      },
      {
        "astId": 1364,
        "contract": "vesper-pools/contracts/pool/PoolAccountant.sol:PoolAccountant",
        "label": "_initializing",
        "offset": 1,
        "slot": "0",
        "type": "t_bool"
      },
      {
        "astId": 5046,
        "contract": "vesper-pools/contracts/pool/PoolAccountant.sol:PoolAccountant",
        "label": "pool",
        "offset": 2,
        "slot": "0",
        "type": "t_address"
      },
      {
        "astId": 5048,
        "contract": "vesper-pools/contracts/pool/PoolAccountant.sol:PoolAccountant",
        "label": "totalDebtRatio",
        "offset": 0,
        "slot": "1",
        "type": "t_uint256"
      },
      {
        "astId": 5050,
        "contract": "vesper-pools/contracts/pool/PoolAccountant.sol:PoolAccountant",
        "label": "totalDebt",
        "offset": 0,
        "slot": "2",
        "type": "t_uint256"
      },
      {
        "astId": 5053,
        "contract": "vesper-pools/contracts/pool/PoolAccountant.sol:PoolAccountant",
        "label": "strategies",
        "offset": 0,
        "slot": "3",
        "type": "t_array(t_address)dyn_storage"
      },
      {
        "astId": 5056,
        "contract": "vesper-pools/contracts/pool/PoolAccountant.sol:PoolAccountant",
        "label": "withdrawQueue",
        "offset": 0,
        "slot": "4",
        "type": "t_array(t_address)dyn_storage"
      },
      {
        "astId": 5083,
        "contract": "vesper-pools/contracts/pool/PoolAccountant.sol:PoolAccountant",
        "label": "strategy",
        "offset": 0,
        "slot": "5",
        "type": "t_mapping(t_address,t_struct(StrategyConfig)5078_storage)"
      },
      {
        "astId": 5085,
        "contract": "vesper-pools/contracts/pool/PoolAccountant.sol:PoolAccountant",
        "label": "externalDepositFee",
        "offset": 0,
        "slot": "6",
        "type": "t_uint256"
      }
    ],
    "types": {
      "t_address": {
        "encoding": "inplace",
        "label": "address",
        "numberOfBytes": "20"
      },
      "t_array(t_address)dyn_storage": {
        "base": "t_address",
        "encoding": "dynamic_array",
        "label": "address[]",
        "numberOfBytes": "32"
      },
      "t_bool": {
        "encoding": "inplace",
        "label": "bool",
        "numberOfBytes": "1"
      },
      "t_mapping(t_address,t_struct(StrategyConfig)5078_storage)": {
        "encoding": "mapping",
        "key": "t_address",
        "label": "mapping(address => struct PoolAccountantStorageV2.StrategyConfig)",
        "numberOfBytes": "32",
        "value": "t_struct(StrategyConfig)5078_storage"
      },
      "t_struct(StrategyConfig)5078_storage": {
        "encoding": "inplace",
        "label": "struct PoolAccountantStorageV2.StrategyConfig",
        "members": [
          {
            "astId": 5061,
            "contract": "vesper-pools/contracts/pool/PoolAccountant.sol:PoolAccountant",
            "label": "active",
            "offset": 0,
            "slot": "0",
            "type": "t_bool"
          },
          {
            "astId": 5063,
            "contract": "vesper-pools/contracts/pool/PoolAccountant.sol:PoolAccountant",
            "label": "interestFee",
            "offset": 0,
            "slot": "1",
            "type": "t_uint256"
          },
          {
            "astId": 5065,
            "contract": "vesper-pools/contracts/pool/PoolAccountant.sol:PoolAccountant",
            "label": "debtRate",
            "offset": 0,
            "slot": "2",
            "type": "t_uint256"
          },
          {
            "astId": 5067,
            "contract": "vesper-pools/contracts/pool/PoolAccountant.sol:PoolAccountant",
            "label": "lastRebalance",
            "offset": 0,
            "slot": "3",
            "type": "t_uint256"
          },
          {
            "astId": 5069,
            "contract": "vesper-pools/contracts/pool/PoolAccountant.sol:PoolAccountant",
            "label": "totalDebt",
            "offset": 0,
            "slot": "4",
            "type": "t_uint256"
          },
          {
            "astId": 5071,
            "contract": "vesper-pools/contracts/pool/PoolAccountant.sol:PoolAccountant",
            "label": "totalLoss",
            "offset": 0,
            "slot": "5",
            "type": "t_uint256"
          },
          {
            "astId": 5073,
            "contract": "vesper-pools/contracts/pool/PoolAccountant.sol:PoolAccountant",
            "label": "totalProfit",
            "offset": 0,
            "slot": "6",
            "type": "t_uint256"
          },
          {
            "astId": 5075,
            "contract": "vesper-pools/contracts/pool/PoolAccountant.sol:PoolAccountant",
            "label": "debtRatio",
            "offset": 0,
            "slot": "7",
            "type": "t_uint256"
          },
          {
            "astId": 5077,
            "contract": "vesper-pools/contracts/pool/PoolAccountant.sol:PoolAccountant",
            "label": "externalDepositFee",
            "offset": 0,
            "slot": "8",
            "type": "t_uint256"
          }
        ],
        "numberOfBytes": "288"
      },
      "t_uint256": {
        "encoding": "inplace",
        "label": "uint256",
        "numberOfBytes": "32"
      }
    }
  }
}