{
  "address": "0x655952146E18ec662bF2BC7cC3d85247fd5d86D4",
  "abi": [
    {
      "inputs": [
        {
          "internalType": "string",
          "name": "name_",
          "type": "string"
        },
        {
          "internalType": "string",
          "name": "symbol_",
          "type": "string"
        },
        {
          "internalType": "address",
          "name": "token_",
          "type": "address"
        }
      ],
      "stateMutability": "nonpayable",
      "type": "constructor"
    },
    {
      "anonymous": false,
      "inputs": [
        {
          "indexed": true,
          "internalType": "address",
          "name": "owner",
          "type": "address"
        },
        {
          "indexed": true,
          "internalType": "address",
          "name": "spender",
          "type": "address"
        },
        {
          "indexed": false,
          "internalType": "uint256",
          "name": "value",
          "type": "uint256"
        }
      ],
      "name": "Approval",
      "type": "event"
    },
    {
      "anonymous": false,
      "inputs": [
        {
          "indexed": true,
          "internalType": "address",
          "name": "owner",
          "type": "address"
        },
        {
          "indexed": false,
          "internalType": "uint256",
          "name": "shares",
          "type": "uint256"
        },
        {
          "indexed": false,
          "internalType": "uint256",
          "name": "amount",
          "type": "uint256"
        }
      ],
      "name": "Deposit",
      "type": "event"
    },
    {
      "anonymous": false,
      "inputs": [
        {
          "indexed": false,
          "internalType": "address",
          "name": "account",
          "type": "address"
        }
      ],
      "name": "Open",
      "type": "event"
    },
    {
      "anonymous": false,
      "inputs": [
        {
          "indexed": false,
          "internalType": "address",
          "name": "account",
          "type": "address"
        }
      ],
      "name": "Paused",
      "type": "event"
    },
    {
      "anonymous": false,
      "inputs": [
        {
          "indexed": false,
          "internalType": "address",
          "name": "account",
          "type": "address"
        }
      ],
      "name": "Shutdown",
      "type": "event"
    },
    {
      "anonymous": false,
      "inputs": [
        {
          "indexed": true,
          "internalType": "address",
          "name": "from",
          "type": "address"
        },
        {
          "indexed": true,
          "internalType": "address",
          "name": "to",
          "type": "address"
        },
        {
          "indexed": false,
          "internalType": "uint256",
          "name": "value",
          "type": "uint256"
        }
      ],
      "name": "Transfer",
      "type": "event"
    },
    {
      "anonymous": false,
      "inputs": [
        {
          "indexed": false,
          "internalType": "uint256",
          "name": "strategyDebt",
          "type": "uint256"
        },
        {
          "indexed": false,
          "internalType": "uint256",
          "name": "profit",
          "type": "uint256"
        },
        {
          "indexed": false,
          "internalType": "uint256",
          "name": "fee",
          "type": "uint256"
        }
      ],
      "name": "UniversalFeePaid",
      "type": "event"
    },
    {
      "anonymous": false,
      "inputs": [
        {
          "indexed": false,
          "internalType": "address",
          "name": "account",
          "type": "address"
        }
      ],
      "name": "Unpaused",
      "type": "event"
    },
    {
      "anonymous": false,
      "inputs": [
        {
          "indexed": true,
          "internalType": "address",
          "name": "previousGovernor",
          "type": "address"
        },
        {
          "indexed": true,
          "internalType": "address",
          "name": "proposedGovernor",
          "type": "address"
        }
      ],
      "name": "UpdatedGovernor",
      "type": "event"
    },
    {
      "anonymous": false,
      "inputs": [
        {
          "indexed": false,
          "internalType": "uint256",
          "name": "oldMaxProfitAsFee",
          "type": "uint256"
        },
        {
          "indexed": false,
          "internalType": "uint256",
          "name": "newMaxProfitAsFee",
          "type": "uint256"
        }
      ],
      "name": "UpdatedMaximumProfitAsFee",
      "type": "event"
    },
    {
      "anonymous": false,
      "inputs": [
        {
          "indexed": false,
          "internalType": "uint256",
          "name": "oldDepositLimit",
          "type": "uint256"
        },
        {
          "indexed": false,
          "internalType": "uint256",
          "name": "newDepositLimit",
          "type": "uint256"
        }
      ],
      "name": "UpdatedMinimumDepositLimit",
      "type": "event"
    },
    {
      "anonymous": false,
      "inputs": [
        {
          "indexed": true,
          "internalType": "address",
          "name": "previousPoolRewards",
          "type": "address"
        },
        {
          "indexed": true,
          "internalType": "address",
          "name": "newPoolRewards",
          "type": "address"
        }
      ],
      "name": "UpdatedPoolRewards",
      "type": "event"
    },
    {
      "anonymous": false,
      "inputs": [
        {
          "indexed": false,
          "internalType": "uint256",
          "name": "oldUniversalFee",
          "type": "uint256"
        },
        {
          "indexed": false,
          "internalType": "uint256",
          "name": "newUniversalFee",
          "type": "uint256"
        }
      ],
      "name": "UpdatedUniversalFee",
      "type": "event"
    },
    {
      "anonymous": false,
      "inputs": [
        {
          "indexed": false,
          "internalType": "uint256",
          "name": "previousWithdrawFee",
          "type": "uint256"
        },
        {
          "indexed": false,
          "internalType": "uint256",
          "name": "newWithdrawFee",
          "type": "uint256"
        }
      ],
      "name": "UpdatedWithdrawFee",
      "type": "event"
    },
    {
      "anonymous": false,
      "inputs": [
        {
          "indexed": true,
          "internalType": "address",
          "name": "owner",
          "type": "address"
        },
        {
          "indexed": false,
          "internalType": "uint256",
          "name": "shares",
          "type": "uint256"
        },
        {
          "indexed": false,
          "internalType": "uint256",
          "name": "amount",
          "type": "uint256"
        }
      ],
      "name": "Withdraw",
      "type": "event"
    },
    {
      "inputs": [],
      "name": "DOMAIN_SEPARATOR",
      "outputs": [
        {
          "internalType": "bytes32",
          "name": "",
          "type": "bytes32"
        }
      ],
      "stateMutability": "view",
      "type": "function"
    },
    {
      "inputs": [],
      "name": "MAX_BPS",
      "outputs": [
        {
          "internalType": "uint256",
          "name": "",
          "type": "uint256"
        }
      ],
      "stateMutability": "view",
      "type": "function"
    },
    {
      "inputs": [],
      "name": "ONE_YEAR",
      "outputs": [
        {
          "internalType": "uint256",
          "name": "",
          "type": "uint256"
        }
      ],
      "stateMutability": "view",
      "type": "function"
    },
    {
      "inputs": [],
      "name": "VERSION",
      "outputs": [
        {
          "internalType": "string",
          "name": "",
          "type": "string"
        }
      ],
      "stateMutability": "view",
      "type": "function"
    },
    {
      "inputs": [],
      "name": "acceptGovernorship",
      "outputs": [],
      "stateMutability": "nonpayable",
      "type": "function"
    },
    {
      "inputs": [
        {
          "internalType": "address",
          "name": "keeperAddress_",
          "type": "address"
        }
      ],
      "name": "addKeeper",
      "outputs": [],
      "stateMutability": "nonpayable",
      "type": "function"
    },
    {
      "inputs": [
        {
          "internalType": "address",
          "name": "maintainerAddress_",
          "type": "address"
        }
      ],
      "name": "addMaintainer",
      "outputs": [],
      "stateMutability": "nonpayable",
      "type": "function"
    },
    {
      "inputs": [
        {
          "internalType": "address",
          "name": "owner",
          "type": "address"
        },
        {
          "internalType": "address",
          "name": "spender",
          "type": "address"
        }
      ],
      "name": "allowance",
      "outputs": [
        {
          "internalType": "uint256",
          "name": "",
          "type": "uint256"
        }
      ],
      "stateMutability": "view",
      "type": "function"
    },
    {
      "inputs": [
        {
          "internalType": "address",
          "name": "spender",
          "type": "address"
        },
        {
          "internalType": "uint256",
          "name": "amount",
          "type": "uint256"
        }
      ],
      "name": "approve",
      "outputs": [
        {
          "internalType": "bool",
          "name": "",
          "type": "bool"
        }
      ],
      "stateMutability": "nonpayable",
      "type": "function"
    },
    {
      "inputs": [
        {
          "internalType": "address",
          "name": "strategy_",
          "type": "address"
        }
      ],
      "name": "availableCreditLimit",
      "outputs": [
        {
          "internalType": "uint256",
          "name": "",
          "type": "uint256"
        }
      ],
      "stateMutability": "view",
      "type": "function"
    },
    {
      "inputs": [
        {
          "internalType": "address",
          "name": "account",
          "type": "address"
        }
      ],
      "name": "balanceOf",
      "outputs": [
        {
          "internalType": "uint256",
          "name": "",
          "type": "uint256"
        }
      ],
      "stateMutability": "view",
      "type": "function"
    },
    {
      "inputs": [
        {
          "internalType": "uint256",
          "name": "amount_",
          "type": "uint256"
        }
      ],
      "name": "calculateMintage",
      "outputs": [
        {
          "internalType": "uint256",
          "name": "_shares",
          "type": "uint256"
        }
      ],
      "stateMutability": "view",
      "type": "function"
    },
    {
      "inputs": [
        {
          "internalType": "uint256",
          "name": "profit_",
          "type": "uint256"
        }
      ],
      "name": "calculateUniversalFee",
      "outputs": [
        {
          "internalType": "uint256",
          "name": "_fee",
          "type": "uint256"
        }
      ],
      "stateMutability": "view",
      "type": "function"
    },
    {
      "inputs": [],
      "name": "decimals",
      "outputs": [
        {
          "internalType": "uint8",
          "name": "",
          "type": "uint8"
        }
      ],
      "stateMutability": "view",
      "type": "function"
    },
    {
      "inputs": [
        {
          "internalType": "uint256",
          "name": "amount_",
          "type": "uint256"
        }
      ],
      "name": "deposit",
      "outputs": [],
      "stateMutability": "nonpayable",
      "type": "function"
    },
    {
      "inputs": [],
      "name": "deposit",
      "outputs": [],
      "stateMutability": "payable",
      "type": "function"
    },
    {
      "inputs": [
        {
          "internalType": "uint256",
          "name": "amount_",
          "type": "uint256"
        }
      ],
      "name": "depositAndClaim",
      "outputs": [],
      "stateMutability": "nonpayable",
      "type": "function"
    },
    {
      "inputs": [],
      "name": "depositAndClaim",
      "outputs": [],
      "stateMutability": "payable",
      "type": "function"
    },
    {
      "inputs": [
        {
          "internalType": "uint256",
          "name": "amount_",
          "type": "uint256"
        },
        {
          "internalType": "uint256",
          "name": "deadline_",
          "type": "uint256"
        },
        {
          "internalType": "uint8",
          "name": "v_",
          "type": "uint8"
        },
        {
          "internalType": "bytes32",
          "name": "r_",
          "type": "bytes32"
        },
        {
          "internalType": "bytes32",
          "name": "s_",
          "type": "bytes32"
        }
      ],
      "name": "depositWithPermit",
      "outputs": [],
      "stateMutability": "nonpayable",
      "type": "function"
    },
    {
      "inputs": [
        {
          "internalType": "address",
          "name": "strategy_",
          "type": "address"
        }
      ],
      "name": "excessDebt",
      "outputs": [
        {
          "internalType": "uint256",
          "name": "",
          "type": "uint256"
        }
      ],
      "stateMutability": "view",
      "type": "function"
    },
    {
      "inputs": [],
      "name": "getStrategies",
      "outputs": [
        {
          "internalType": "address[]",
          "name": "",
          "type": "address[]"
        }
      ],
      "stateMutability": "view",
      "type": "function"
    },
    {
      "inputs": [],
      "name": "getWithdrawQueue",
      "outputs": [
        {
          "internalType": "address[]",
          "name": "",
          "type": "address[]"
        }
      ],
      "stateMutability": "view",
      "type": "function"
    },
    {
      "inputs": [],
      "name": "governor",
      "outputs": [
        {
          "internalType": "address",
          "name": "",
          "type": "address"
        }
      ],
      "stateMutability": "view",
      "type": "function"
    },
    {
      "inputs": [
        {
          "internalType": "string",
          "name": "name_",
          "type": "string"
        },
        {
          "internalType": "string",
          "name": "symbol_",
          "type": "string"
        },
        {
          "internalType": "address",
          "name": "token_",
          "type": "address"
        },
        {
          "internalType": "address",
          "name": "poolAccountant_",
          "type": "address"
        }
      ],
      "name": "initialize",
      "outputs": [],
      "stateMutability": "nonpayable",
      "type": "function"
    },
    {
      "inputs": [
        {
          "internalType": "address",
          "name": "address_",
          "type": "address"
        }
      ],
      "name": "isKeeper",
      "outputs": [
        {
          "internalType": "bool",
          "name": "",
          "type": "bool"
        }
      ],
      "stateMutability": "view",
      "type": "function"
    },
    {
      "inputs": [
        {
          "internalType": "address",
          "name": "address_",
          "type": "address"
        }
      ],
      "name": "isMaintainer",
      "outputs": [
        {
          "internalType": "bool",
          "name": "",
          "type": "bool"
        }
      ],
      "stateMutability": "view",
      "type": "function"
    },
    {
      "inputs": [],
      "name": "keepers",
      "outputs": [
        {
          "internalType": "address[]",
          "name": "",
          "type": "address[]"
        }
      ],
      "stateMutability": "view",
      "type": "function"
    },
    {
      "inputs": [],
      "name": "maintainers",
      "outputs": [
        {
          "internalType": "address[]",
          "name": "",
          "type": "address[]"
        }
      ],
      "stateMutability": "view",
      "type": "function"
    },
    {
      "inputs": [],
      "name": "maxProfitAsFee",
      "outputs": [
        {
          "internalType": "uint256",
          "name": "",
          "type": "uint256"
        }
      ],
      "stateMutability": "view",
      "type": "function"
    },
    {
      "inputs": [
        {
          "internalType": "address",
          "name": "old_",
          "type": "address"
        },
        {
          "internalType": "address",
          "name": "new_",
          "type": "address"
        }
      ],
      "name": "migrateStrategy",
      "outputs": [],
      "stateMutability": "nonpayable",
      "type": "function"
    },
    {
      "inputs": [],
      "name": "minDepositLimit",
      "outputs": [
        {
          "internalType": "uint256",
          "name": "",
          "type": "uint256"
        }
      ],
      "stateMutability": "view",
      "type": "function"
    },
    {
      "inputs": [],
      "name": "name",
      "outputs": [
        {
          "internalType": "string",
          "name": "",
          "type": "string"
        }
      ],
      "stateMutability": "view",
      "type": "function"
    },
    {
      "inputs": [
        {
          "internalType": "address",
          "name": "",
          "type": "address"
        }
      ],
      "name": "nonces",
      "outputs": [
        {
          "internalType": "uint256",
          "name": "",
          "type": "uint256"
        }
      ],
      "stateMutability": "view",
      "type": "function"
    },
    {
      "inputs": [],
      "name": "open",
      "outputs": [],
      "stateMutability": "nonpayable",
      "type": "function"
    },
    {
      "inputs": [],
      "name": "pause",
      "outputs": [],
      "stateMutability": "nonpayable",
      "type": "function"
    },
    {
      "inputs": [],
      "name": "paused",
      "outputs": [
        {
          "internalType": "bool",
          "name": "",
          "type": "bool"
        }
      ],
      "stateMutability": "view",
      "type": "function"
    },
    {
      "inputs": [
        {
          "internalType": "address",
          "name": "owner",
          "type": "address"
        },
        {
          "internalType": "address",
          "name": "spender",
          "type": "address"
        },
        {
          "internalType": "uint256",
          "name": "value",
          "type": "uint256"
        },
        {
          "internalType": "uint256",
          "name": "deadline",
          "type": "uint256"
        },
        {
          "internalType": "uint8",
          "name": "v",
          "type": "uint8"
        },
        {
          "internalType": "bytes32",
          "name": "r",
          "type": "bytes32"
        },
        {
          "internalType": "bytes32",
          "name": "s",
          "type": "bytes32"
        }
      ],
      "name": "permit",
      "outputs": [],
      "stateMutability": "nonpayable",
      "type": "function"
    },
    {
      "inputs": [],
      "name": "poolAccountant",
      "outputs": [
        {
          "internalType": "address",
          "name": "",
          "type": "address"
        }
      ],
      "stateMutability": "view",
      "type": "function"
    },
    {
      "inputs": [],
      "name": "poolRewards",
      "outputs": [
        {
          "internalType": "address",
          "name": "",
          "type": "address"
        }
      ],
      "stateMutability": "view",
      "type": "function"
    },
    {
      "inputs": [],
      "name": "pricePerShare",
      "outputs": [
        {
          "internalType": "uint256",
          "name": "",
          "type": "uint256"
        }
      ],
      "stateMutability": "view",
      "type": "function"
    },
    {
      "inputs": [
        {
          "internalType": "address",
          "name": "keeperAddress_",
          "type": "address"
        }
      ],
      "name": "removeKeeper",
      "outputs": [],
      "stateMutability": "nonpayable",
      "type": "function"
    },
    {
      "inputs": [
        {
          "internalType": "address",
          "name": "maintainerAddress_",
          "type": "address"
        }
      ],
      "name": "removeMaintainer",
      "outputs": [],
      "stateMutability": "nonpayable",
      "type": "function"
    },
    {
      "inputs": [
        {
          "internalType": "uint256",
          "name": "profit_",
          "type": "uint256"
        },
        {
          "internalType": "uint256",
          "name": "loss_",
          "type": "uint256"
        },
        {
          "internalType": "uint256",
          "name": "payback_",
          "type": "uint256"
        }
      ],
      "name": "reportEarning",
      "outputs": [],
      "stateMutability": "nonpayable",
      "type": "function"
    },
    {
      "inputs": [
        {
          "internalType": "uint256",
          "name": "loss_",
          "type": "uint256"
        }
      ],
      "name": "reportLoss",
      "outputs": [],
      "stateMutability": "nonpayable",
      "type": "function"
    },
    {
      "inputs": [],
      "name": "shutdown",
      "outputs": [],
      "stateMutability": "nonpayable",
      "type": "function"
    },
    {
      "inputs": [],
      "name": "stopEverything",
      "outputs": [
        {
          "internalType": "bool",
          "name": "",
          "type": "bool"
        }
      ],
      "stateMutability": "view",
      "type": "function"
    },
    {
      "inputs": [
        {
          "internalType": "address",
          "name": "strategy_",
          "type": "address"
        }
      ],
      "name": "strategy",
      "outputs": [
        {
          "internalType": "bool",
          "name": "_active",
          "type": "bool"
        },
        {
          "internalType": "uint256",
          "name": "_interestFee",
          "type": "uint256"
        },
        {
          "internalType": "uint256",
          "name": "_debtRate",
          "type": "uint256"
        },
        {
          "internalType": "uint256",
          "name": "_lastRebalance",
          "type": "uint256"
        },
        {
          "internalType": "uint256",
          "name": "_totalDebt",
          "type": "uint256"
        },
        {
          "internalType": "uint256",
          "name": "_totalLoss",
          "type": "uint256"
        },
        {
          "internalType": "uint256",
          "name": "_totalProfit",
          "type": "uint256"
        },
        {
          "internalType": "uint256",
          "name": "_debtRatio",
          "type": "uint256"
        },
        {
          "internalType": "uint256",
          "name": "_externalDepositFee",
          "type": "uint256"
        }
      ],
      "stateMutability": "view",
      "type": "function"
    },
    {
      "inputs": [
        {
          "internalType": "address",
          "name": "fromToken_",
          "type": "address"
        }
      ],
      "name": "sweepERC20",
      "outputs": [],
      "stateMutability": "nonpayable",
      "type": "function"
    },
    {
      "inputs": [],
      "name": "symbol",
      "outputs": [
        {
          "internalType": "string",
          "name": "",
          "type": "string"
        }
      ],
      "stateMutability": "view",
      "type": "function"
    },
    {
      "inputs": [],
      "name": "token",
      "outputs": [
        {
          "internalType": "contract IERC20",
          "name": "",
          "type": "address"
        }
      ],
      "stateMutability": "view",
      "type": "function"
    },
    {
      "inputs": [],
      "name": "tokensHere",
      "outputs": [
        {
          "internalType": "uint256",
          "name": "",
          "type": "uint256"
        }
      ],
      "stateMutability": "view",
      "type": "function"
    },
    {
      "inputs": [],
      "name": "totalDebt",
      "outputs": [
        {
          "internalType": "uint256",
          "name": "",
          "type": "uint256"
        }
      ],
      "stateMutability": "view",
      "type": "function"
    },
    {
      "inputs": [
        {
          "internalType": "address",
          "name": "strategy_",
          "type": "address"
        }
      ],
      "name": "totalDebtOf",
      "outputs": [
        {
          "internalType": "uint256",
          "name": "",
          "type": "uint256"
        }
      ],
      "stateMutability": "view",
      "type": "function"
    },
    {
      "inputs": [],
      "name": "totalDebtRatio",
      "outputs": [
        {
          "internalType": "uint256",
          "name": "",
          "type": "uint256"
        }
      ],
      "stateMutability": "view",
      "type": "function"
    },
    {
      "inputs": [],
      "name": "totalSupply",
      "outputs": [
        {
          "internalType": "uint256",
          "name": "",
          "type": "uint256"
        }
      ],
      "stateMutability": "view",
      "type": "function"
    },
    {
      "inputs": [],
      "name": "totalValue",
      "outputs": [
        {
          "internalType": "uint256",
          "name": "",
          "type": "uint256"
        }
      ],
      "stateMutability": "view",
      "type": "function"
    },
    {
      "inputs": [
        {
          "internalType": "address",
          "name": "recipient",
          "type": "address"
        },
        {
          "internalType": "uint256",
          "name": "amount",
          "type": "uint256"
        }
      ],
      "name": "transfer",
      "outputs": [
        {
          "internalType": "bool",
          "name": "",
          "type": "bool"
        }
      ],
      "stateMutability": "nonpayable",
      "type": "function"
    },
    {
      "inputs": [
        {
          "internalType": "address",
          "name": "sender",
          "type": "address"
        },
        {
          "internalType": "address",
          "name": "recipient",
          "type": "address"
        },
        {
          "internalType": "uint256",
          "name": "amount",
          "type": "uint256"
        }
      ],
      "name": "transferFrom",
      "outputs": [
        {
          "internalType": "bool",
          "name": "",
          "type": "bool"
        }
      ],
      "stateMutability": "nonpayable",
      "type": "function"
    },
    {
      "inputs": [
        {
          "internalType": "address",
          "name": "_proposedGovernor",
          "type": "address"
        }
      ],
      "name": "transferGovernorship",
      "outputs": [],
      "stateMutability": "nonpayable",
      "type": "function"
    },
    {
      "inputs": [],
      "name": "universalFee",
      "outputs": [
        {
          "internalType": "uint256",
          "name": "",
          "type": "uint256"
        }
      ],
      "stateMutability": "view",
      "type": "function"
    },
    {
      "inputs": [],
      "name": "unpause",
      "outputs": [],
      "stateMutability": "nonpayable",
      "type": "function"
    },
    {
      "inputs": [
        {
          "internalType": "uint256",
          "name": "newMaxProfitAsFee_",
          "type": "uint256"
        }
      ],
      "name": "updateMaximumProfitAsFee",
      "outputs": [],
      "stateMutability": "nonpayable",
      "type": "function"
    },
    {
      "inputs": [
        {
          "internalType": "uint256",
          "name": "newLimit_",
          "type": "uint256"
        }
      ],
      "name": "updateMinimumDepositLimit",
      "outputs": [],
      "stateMutability": "nonpayable",
      "type": "function"
    },
    {
      "inputs": [
        {
          "internalType": "address",
          "name": "newPoolRewards_",
          "type": "address"
        }
      ],
      "name": "updatePoolRewards",
      "outputs": [],
      "stateMutability": "nonpayable",
      "type": "function"
    },
    {
      "inputs": [
        {
          "internalType": "uint256",
          "name": "newUniversalFee_",
          "type": "uint256"
        }
      ],
      "name": "updateUniversalFee",
      "outputs": [],
      "stateMutability": "nonpayable",
      "type": "function"
    },
    {
      "inputs": [
        {
          "internalType": "uint256",
          "name": "shares_",
          "type": "uint256"
        }
      ],
      "name": "withdraw",
      "outputs": [],
      "stateMutability": "nonpayable",
      "type": "function"
    },
    {
      "inputs": [
        {
          "internalType": "uint256",
          "name": "shares_",
          "type": "uint256"
        }
      ],
      "name": "withdrawAndClaim",
      "outputs": [],
      "stateMutability": "nonpayable",
      "type": "function"
    },
    {
      "inputs": [
        {
          "internalType": "uint256",
          "name": "shares_",
          "type": "uint256"
        }
      ],
      "name": "withdrawETH",
      "outputs": [],
      "stateMutability": "nonpayable",
      "type": "function"
    },
    {
      "inputs": [
        {
          "internalType": "uint256",
          "name": "shares_",
          "type": "uint256"
        }
      ],
      "name": "withdrawETHAndClaim",
      "outputs": [],
      "stateMutability": "nonpayable",
      "type": "function"
    },
    {
      "stateMutability": "payable",
      "type": "receive"
    }
  ],
  "transactionHash": "0x4df7c7ed9c8943c50fab2065e20f9df7f85d39e673950620a8408c0645562ab2",
  "args": [
    "Vesper pool",
    "vPool",
    "0x0000000000000000000000000000000000000000"
  ],
  "numDeployments": 1,
  "solcInputHash": "4115a5757f856e0aa108c700c4236697",
  "bytecode": "0x608060405260c8601d55611388601e556001601f553480156200002157600080fd5b5060405162004e9538038062004e95833981016040819052620000449162000282565b82828282828160039080519060200190620000619291906200010f565b508051620000779060049060208401906200010f565b50505060006200008c6200010b60201b60201c565b600a80546001600160a01b0319166001600160a01b038316908117909155604051919250906000907fd4459d5b8b913cab0244230fd9b1c08b6ceace7fe9230e60d0f74cbffdf849d0908290a3506001600c55600d80546001600160a01b0319166001600160a01b0392909216919091179055506200034c9350505050565b3390565b8280546200011d906200030f565b90600052602060002090601f0160209004810192826200014157600085556200018c565b82601f106200015c57805160ff19168380011785556200018c565b828001600101855582156200018c579182015b828111156200018c5782518255916020019190600101906200016f565b506200019a9291506200019e565b5090565b5b808211156200019a57600081556001016200019f565b634e487b7160e01b600052604160045260246000fd5b600082601f830112620001dd57600080fd5b81516001600160401b0380821115620001fa57620001fa620001b5565b604051601f8301601f19908116603f01168101908282118183101715620002255762000225620001b5565b816040528381526020925086838588010111156200024257600080fd5b600091505b8382101562000266578582018301518183018401529082019062000247565b83821115620002785760008385830101525b9695505050505050565b6000806000606084860312156200029857600080fd5b83516001600160401b0380821115620002b057600080fd5b620002be87838801620001cb565b94506020860151915080821115620002d557600080fd5b50620002e486828701620001cb565b604086015190935090506001600160a01b03811681146200030457600080fd5b809150509250925092565b600181811c908216806200032457607f821691505b602082108114156200034657634e487b7160e01b600052602260045260246000fd5b50919050565b614b39806200035c6000396000f3fe60806040526004361061037e5760003560e01c80638f15b414116101d3578063c9d7f67211610103578063e00af4a71161009b578063e00af4a714610b0f578063f14210a614610b2f578063f3b27bc314610b4f578063fc0c546a14610b64578063fc0e74d114610b84578063fc7b9c1814610b99578063fcfff16f14610bae578063fd967f4714610bc3578063ffa1ad7414610bd957600080fd5b8063c9d7f67214610a04578063d0e30db014610a0c578063d4c3eea014610a14578063d505accf14610a29578063d53ddc2614610a49578063d8baf7cf14610a69578063dd57366a14610a89578063dd62ed3e14610aa9578063ddd6d26014610aef57600080fd5b8063a9059cbb11610176578063a9059cbb146108fa578063a941a90e1461091a578063b49a60bb1461093a578063b64321ec1461094f578063b6aa515b1461096f578063b6b55f251461098f578063b8cb343d146109af578063c01e0d40146109c4578063c12d636b146109e457600080fd5b80638f15b41414610825578063940c408214610845578063951dc22c1461086557806395d89b411461087a57806399530b061461088f5780639b6da8df146108a45780639f2b2833146108c45780639fd5be18146108e457600080fd5b80633f4ba83a116102ae5780636b453c1f116102515780636b453c1f146106ed5780636ba42aaa1461070d5780636cb56d191461072d5780636d43aed81461074d57806370a082311461076d5780637ecebe00146107a35780638456cb59146107d05780638bc6beb2146107e55780638d3d0a261461080557600080fd5b80633f4ba83a1461060b5780634032b72b14610620578063448a1047146106405780634938649a1461066057806349eeb860146106815780634a970be7146106965780635c975abb146106b65780635f895e54146106d757600080fd5b806318160ddd1161032157806318160ddd146104d4578063228bfd9f146104e957806323b872dd1461054f5780632df9eab91461056f5780632e1a7d4d14610584578063313ce567146105a457806332dd0f49146105c05780633644e515146105e05780633e772925146105f557600080fd5b806305bed046146103a457806306fdde03146103c4578063095ea7b3146103ef5780630c340a241461041f5780630da3fe201461044c578063111830521461046c57806314ae9f2e1461048e57806316d3bfbb146104ae57600080fd5b3661039f57600d546001600160a01b0316331461039d5761039d610c0a565b005b600080fd5b3480156103b057600080fd5b5061039d6103bf3660046141f1565b610c82565b3480156103d057600080fd5b506103d9610f03565b6040516103e69190614249565b60405180910390f35b3480156103fb57600080fd5b5061040f61040a366004614291565b610f95565b60405190151581526020016103e6565b34801561042b57600080fd5b50600a5461043f906001600160a01b031681565b6040516103e691906142bd565b34801561045857600080fd5b5061039d6104673660046142d1565b610fac565b34801561047857600080fd5b5061048161108f565b6040516103e691906142ea565b34801561049a57600080fd5b5061039d6104a9366004614337565b611115565b3480156104ba57600080fd5b506104c66301e1338081565b6040519081526020016103e6565b3480156104e057600080fd5b506002546104c6565b3480156104f557600080fd5b50610509610504366004614337565b61119a565b604080519915158a5260208a0198909852968801959095526060870193909352608086019190915260a085015260c084015260e0830152610100820152610120016103e6565b34801561055b57600080fd5b5061040f61056a366004614354565b61124b565b34801561057b57600080fd5b506104c66112fe565b34801561059057600080fd5b5061039d61059f3660046142d1565b61137b565b3480156105b057600080fd5b50604051601281526020016103e6565b3480156105cc57600080fd5b506104c66105db3660046142d1565b6113e7565b3480156105ec57600080fd5b506104c66113f3565b34801561060157600080fd5b506104c6601e5481565b34801561061757600080fd5b5061039d6113fd565b34801561062c57600080fd5b5061039d61063b366004614337565b611440565b34801561064c57600080fd5b5061039d61065b3660046142d1565b6114bd565b34801561066c57600080fd5b50600b5461040f90600160a81b900460ff1681565b34801561068d57600080fd5b5061048161151d565b3480156106a257600080fd5b5061039d6106b13660046143a4565b611529565b3480156106c257600080fd5b50600b5461040f90600160a01b900460ff1681565b3480156106e357600080fd5b506104c6601d5481565b3480156106f957600080fd5b5061039d610708366004614337565b611630565b34801561071957600080fd5b5061040f610728366004614337565b611674565b34801561073957600080fd5b5061039d6107483660046143ed565b611681565b34801561075957600080fd5b5061039d6107683660046142d1565b6118c0565b34801561077957600080fd5b506104c6610788366004614337565b6001600160a01b031660009081526020819052604090205490565b3480156107af57600080fd5b506104c66107be366004614337565b60096020526000908152604090205481565b3480156107dc57600080fd5b5061039d611944565b3480156107f157600080fd5b50600f5461043f906001600160a01b031681565b34801561081157600080fd5b5061039d6108203660046142d1565b611985565b34801561083157600080fd5b5061039d6108403660046144dd565b611a2d565b34801561085157600080fd5b5061039d610860366004614337565b611c0b565b34801561087157600080fd5b50610481611cd2565b34801561088657600080fd5b506103d9611cde565b34801561089b57600080fd5b506104c6611ced565b3480156108b057600080fd5b5061039d6108bf3660046142d1565b611dc6565b3480156108d057600080fd5b506104c66108df366004614337565b611e71565b3480156108f057600080fd5b506104c6601f5481565b34801561090657600080fd5b5061040f610915366004614291565b611ef2565b34801561092657600080fd5b5061039d6109353660046142d1565b611eff565b34801561094657600080fd5b50610481611f63565b34801561095b57600080fd5b506104c661096a366004614337565b611fa8565b34801561097b57600080fd5b5061039d61098a366004614337565b611fd9565b34801561099b57600080fd5b5061039d6109aa3660046142d1565b612077565b3480156109bb57600080fd5b506104c66120d2565b3480156109d057600080fd5b506104c66109df3660046142d1565b61211b565b3480156109f057600080fd5b50600e5461043f906001600160a01b031681565b61039d61220f565b61039d610c0a565b348015610a2057600080fd5b506104c661226a565b348015610a3557600080fd5b5061039d610a44366004614566565b612304565b348015610a5557600080fd5b506104c6610a64366004614337565b6124c4565b348015610a7557600080fd5b5061039d610a84366004614337565b6124f5565b348015610a9557600080fd5b5061040f610aa4366004614337565b612539565b348015610ab557600080fd5b506104c6610ac43660046143ed565b6001600160a01b03918216600090815260016020908152604080832093909416825291909152205490565b348015610afb57600080fd5b5061039d610b0a3660046142d1565b612546565b348015610b1b57600080fd5b5061039d610b2a366004614337565b6125ad565b348015610b3b57600080fd5b5061039d610b4a3660046142d1565b6126c8565b348015610b5b57600080fd5b5061039d612731565b348015610b7057600080fd5b50600d5461043f906001600160a01b031681565b348015610b9057600080fd5b5061039d6127ed565b348015610ba557600080fd5b506104c661282e565b348015610bba57600080fd5b5061039d612873565b348015610bcf57600080fd5b506104c661271081565b348015610be557600080fd5b506103d9604051806040016040528060058152602001640352e312e360dc1b81525081565b600b54600160a01b900460ff1615610c3d5760405162461bcd60e51b8152600401610c34906145d7565b60405180910390fd5b6002600c541415610c605760405162461bcd60e51b8152600401610c34906145f7565b6002600c55610c73336128b4565b6128b4565b610c7b6128f5565b6001600c55565b338315610df757600e5460405163228bfd9f60e01b815260009182916001600160a01b039091169063228bfd9f90610cbe9086906004016142bd565b6101206040518083038186803b158015610cd757600080fd5b505afa158015610ceb573d6000803e3d6000fd5b505050506040513d601f19601f82011682018060405250810190610d0f9190614643565b50505050945094505050506000610d278383896129b8565b90508015610df357610db1846001600160a01b031663c415b95c6040518163ffffffff1660e01b815260040160206040518083038186803b158015610d6b57600080fd5b505afa158015610d7f573d6000803e3d6000fd5b505050506040513d601f19601f82011682018060405250810190610da391906146b3565b610dac83612a2b565b612a90565b60408051838152602081018990529081018290527f692ef79cc704efab4328e6c217b5fb3b1045d0a0314e3e8137029bcb2d59ce4a9060600160405180910390a15b5050505b600e5460405163a066654b60e01b81526001600160a01b038381166004830152602482018790526044820186905260648201859052600092839291169063a066654b906084016040805180830381600087803b158015610e5657600080fd5b505af1158015610e6a573d6000803e3d6000fd5b505050506040513d601f19601f82011682018060405250810190610e8e91906146d0565b90925090506000610e9f838861470a565b905081811015610ecf57610eca84610eb78385614722565b600d546001600160a01b03169190612b5d565b610efa565b81811115610efa57610efa8430610ee68585614722565b600d546001600160a01b0316929190612bb8565b50505050505050565b606060038054610f1290614739565b80601f0160208091040260200160405190810160405280929190818152602001828054610f3e90614739565b8015610f8b5780601f10610f6057610100808354040283529160200191610f8b565b820191906000526020600020905b815481529060010190602001808311610f6e57829003601f168201915b5050505050905090565b6000610fa2338484612bf6565b5060015b92915050565b600a546001600160a01b03163314610fd65760405162461bcd60e51b8152600401610c3490614774565b604080518082019091526002815261199960f11b60208201528161100d5760405162461bcd60e51b8152600401610c349190614249565b50601f5481141560405180604001604052806002815260200161333160f01b8152509061104d5760405162461bcd60e51b8152600401610c349190614249565b50601f5460408051918252602082018390527f25c9f41f0fb7a055d44b070262516fbd0111daea3b55d40fae1983827dc99292910160405180910390a1601f55565b600e546040805163088c182960e11b815290516060926001600160a01b0316916311183052916004808301926000929190829003018186803b1580156110d457600080fd5b505afa1580156110e8573d6000803e3d6000fd5b505050506040513d6000823e601f3d908101601f19168201604052611110919081019061479a565b905090565b600a546001600160a01b03163314806111365750611136335b601990612d1b565b6111525760405162461bcd60e51b8152600401610c349061484c565b61115d601982612d3d565b604051806040016040528060028152602001610c4d60f21b815250906111965760405162461bcd60e51b8152600401610c349190614249565b5050565b600e5460405163228bfd9f60e01b8152600091829182918291829182918291829182916001600160a01b03169063228bfd9f906111db908d906004016142bd565b6101206040518083038186803b1580156111f457600080fd5b505afa158015611208573d6000803e3d6000fd5b505050506040513d601f19601f8201168201806040525081019061122c9190614643565b9850985098509850985098509850985098509193959799909294969850565b6000611258848484612d52565b6001600160a01b0384166000908152600160209081526040808320338452909152902054828110156112dd5760405162461bcd60e51b815260206004820152602860248201527f45524332303a207472616e7366657220616d6f756e74206578636565647320616044820152676c6c6f77616e636560c01b6064820152608401610c34565b6112f185336112ec8685614722565b612bf6565b60019150505b9392505050565b600e5460408051632df9eab960e01b815290516000926001600160a01b031691632df9eab9916004808301926020929190829003018186803b15801561134357600080fd5b505afa158015611357573d6000803e3d6000fd5b505050506040513d601f19601f820116820180604052508101906111109190614872565b6002600c54141561139e5760405162461bcd60e51b8152600401610c34906145f7565b6002600c55600b54600160a81b900460ff16156113cd5760405162461bcd60e51b8152600401610c349061488b565b6113d6336128b4565b6113df81612e33565b506001600c55565b6000610fa63383612eef565b6000611110612f94565b600a546001600160a01b031633148061141a575061141a3361112e565b6114365760405162461bcd60e51b8152600401610c349061484c565b61143e61300f565b565b600a546001600160a01b031633148061145d575061145d3361112e565b6114795760405162461bcd60e51b8152600401610c349061484c565b6114846019826130c6565b60405180604001604052806002815260200161313360f01b815250906111965760405162461bcd60e51b8152600401610c349190614249565b6002600c5414156114e05760405162461bcd60e51b8152600401610c34906145f7565b6002600c55600b54600160a81b900460ff161561150f5760405162461bcd60e51b8152600401610c349061488b565b6113d6336130db565b6130db565b6060611110601b61311c565b6002600c54141561154c5760405162461bcd60e51b8152600401610c34906145f7565b6002600c55600b54600160a01b900460ff161561157b5760405162461bcd60e51b8152600401610c34906145d7565b600d546001600160a01b031663d505accf336040516001600160e01b031960e084901b1681526001600160a01b039091166004820152306024820152604481018890526064810187905260ff8616608482015260a4810185905260c4810184905260e401600060405180830381600087803b1580156115f957600080fd5b505af115801561160d573d6000803e3d6000fd5b5050505061161b610c6e3390565b61162485613129565b50506001600c55505050565b600a546001600160a01b031633148061164d575061164d3361112e565b6116695760405162461bcd60e51b8152600401610c349061484c565b611484601b826130c6565b6000610fa6601983612d1b565b600a546001600160a01b031633146116ab5760405162461bcd60e51b8152600401610c3490614774565b306001600160a01b0316816001600160a01b03166316f0115b6040518163ffffffff1660e01b815260040160206040518083038186803b1580156116ee57600080fd5b505afa158015611702573d6000803e3d6000fd5b505050506040513d601f19601f8201168201806040525081019061172691906146b3565b6001600160a01b03161480156117bd5750306001600160a01b0316826001600160a01b03166316f0115b6040518163ffffffff1660e01b815260040160206040518083038186803b15801561177a57600080fd5b505afa15801561178e573d6000803e3d6000fd5b505050506040513d601f19601f820116820180604052508101906117b291906146b3565b6001600160a01b0316145b60405180604001604052806002815260200161313760f01b815250906117f65760405162461bcd60e51b8152600401610c349190614249565b50600e54604051636cb56d1960e01b81526001600160a01b038481166004830152838116602483015290911690636cb56d1990604401600060405180830381600087803b15801561184657600080fd5b505af115801561185a573d6000803e3d6000fd5b505060405163ce5494bb60e01b81526001600160a01b038516925063ce5494bb915061188a9084906004016142bd565b600060405180830381600087803b1580156118a457600080fd5b505af11580156118b8573d6000803e3d6000fd5b505050505050565b600b54600160a81b900460ff16156118ea5760405162461bcd60e51b8152600401610c349061488b565b6002600c54141561190d5760405162461bcd60e51b8152600401610c34906145f7565b6002600c556016805460ff191660011790556119296115183390565b61193281612e33565b506016805460ff191690556001600c55565b600a546001600160a01b031633148061196157506119613361112e565b61197d5760405162461bcd60e51b8152600401610c349061484c565b61143e613196565b600a546001600160a01b031633146119af5760405162461bcd60e51b8152600401610c3490614774565b604080518082019091526002815261313160f01b60208201526127108211156119eb5760405162461bcd60e51b8152600401610c349190614249565b50601d5460408051918252602082018390527f905d672396c48f9d1e13c57aec0819f00d39364ab4bf40a46a687aa607b67d81910160405180910390a1601d55565b600554610100900460ff1680611a46575060055460ff16155b611a625760405162461bcd60e51b8152600401610c34906148ad565b600554610100900460ff16158015611a84576005805461ffff19166101011790555b604080518082019091526002815261031360f41b60208201526001600160a01b038416611ac45760405162461bcd60e51b8152600401610c349190614249565b50604080518082019091526002815261031360f41b60208201526001600160a01b038316611b055760405162461bcd60e51b8152600401610c349190614249565b50611b1085856131fb565b611b1985613222565b611b216132a1565b600d80546001600160a01b0319166001600160a01b038516179055611b48336019906130c6565b60405180604001604052806002815260200161313360f01b81525090611b815760405162461bcd60e51b8152600401610c349190614249565b50611b8d601b336130c6565b60405180604001604052806002815260200161313360f01b81525090611bc65760405162461bcd60e51b8152600401610c349190614249565b50600e80546001600160a01b0319166001600160a01b03841617905560c8601d55611388601e556001601f558015611c04576005805461ff00191690555b5050505050565b600a546001600160a01b03163314611c355760405162461bcd60e51b8152600401610c3490614774565b604080518082019091526002815261031360f41b60208201526001600160a01b038216611c755760405162461bcd60e51b8152600401610c349190614249565b50600f546040516001600160a01b038084169216907fe239974dad08ac696e723caf1886bd0b5afc0870088f9a1266082757f824927690600090a3600f80546001600160a01b0319166001600160a01b0392909216919091179055565b6060611110601961311c565b606060048054610f1290614739565b6000611cf860025490565b1580611d095750611d0761226a565b155b15611d9f57600d60009054906101000a90046001600160a01b03166001600160a01b031663313ce5676040518163ffffffff1660e01b815260040160206040518083038186803b158015611d5c57600080fd5b505afa158015611d70573d6000803e3d6000fd5b505050506040513d601f19601f82011682018060405250810190611d9491906148fb565b61111090600a6149fc565b600254611daa61226a565b611dbc90670de0b6b3a7640000614a0b565b6111109190614a2a565b600a546001600160a01b03163314611df05760405162461bcd60e51b8152600401610c3490614774565b601e5481141560405180604001604052806002815260200161333160f01b81525090611e2f5760405162461bcd60e51b8152600401610c349190614249565b50601e5460408051918252602082018390527fafe4d3ceb3295a8d4ef49288a92d32d94e39396e823d414b81caff61b9fc3990910160405180910390a1601e55565b600e54604051639f2b283360e01b81526000916001600160a01b031690639f2b283390611ea29085906004016142bd565b60206040518083038186803b158015611eba57600080fd5b505afa158015611ece573d6000803e3d6000fd5b505050506040513d601f19601f82011682018060405250810190610fa69190614872565b6000610fa2338484612d52565b6002600c541415611f225760405162461bcd60e51b8152600401610c34906145f7565b6002600c55600b54600160a01b900460ff1615611f515760405162461bcd60e51b8152600401610c34906145d7565b611f5a336130db565b6113df81613129565b600e546040805163b49a60bb60e01b815290516060926001600160a01b03169163b49a60bb916004808301926000929190829003018186803b1580156110d457600080fd5b600e54604051632d90c87b60e21b81526000916001600160a01b03169063b64321ec90611ea29085906004016142bd565b600a546001600160a01b031633146120035760405162461bcd60e51b8152600401610c3490614774565b6001600160a01b0381166120555760405162461bcd60e51b815260206004820152601960248201527870726f706f7365642d676f7665726e6f722d69732d7a65726f60381b6044820152606401610c34565b600b80546001600160a01b0319166001600160a01b0392909216919091179055565b6002600c54141561209a5760405162461bcd60e51b8152600401610c34906145f7565b6002600c55600b54600160a01b900460ff16156120c95760405162461bcd60e51b8152600401610c34906145d7565b611f5a336128b4565b600d546040516370a0823160e01b81526000916001600160a01b0316906370a08231906121039030906004016142bd565b60206040518083038186803b15801561134357600080fd5b6000601f54821015604051806040016040528060018152602001603160f81b8152509061215b5760405162461bcd60e51b8152600401610c349190614249565b506000612710600e60009054906101000a90046001600160a01b03166001600160a01b031663346162d56040518163ffffffff1660e01b815260040160206040518083038186803b1580156121af57600080fd5b505afa1580156121c3573d6000803e3d6000fd5b505050506040513d601f19601f820116820180604052508101906121e79190614872565b6121f19085614a0b565b6121fb9190614a2a565b90506112f761220a8285614722565b612a2b565b600b54600160a01b900460ff16156122395760405162461bcd60e51b8152600401610c34906145d7565b6002600c54141561225c5760405162461bcd60e51b8152600401610c34906145f7565b6002600c55610c73336130db565b60006122746120d2565b600e60009054906101000a90046001600160a01b03166001600160a01b031663fc7b9c186040518163ffffffff1660e01b815260040160206040518083038186803b1580156122c257600080fd5b505afa1580156122d6573d6000803e3d6000fd5b505050506040513d601f19601f820116820180604052508101906122fa9190614872565b611110919061470a565b834211156123545760405162461bcd60e51b815260206004820152601d60248201527f45524332305065726d69743a206578706972656420646561646c696e650000006044820152606401610c34565b6001600160a01b0387811660008181526009602090815260408083205481517f6e71edae12b1b97f4d1f60370fef10105fa2faae0126114a169c64845d6126c98185015280830195909552948b166060850152608084018a905260a0840185905260c08085018a90528151808603909101815260e090940190528251920191909120906123df612f94565b60405161190160f01b602082015260228101919091526042810183905260620160405160208183030381529060405280519060200120905060006124258288888861334f565b90508a6001600160a01b0316816001600160a01b0316146124885760405162461bcd60e51b815260206004820152601e60248201527f45524332305065726d69743a20696e76616c6964207369676e617475726500006044820152606401610c34565b61249384600161470a565b6001600160a01b038c166000908152600960205260409020556124b78b8b8b612bf6565b5050505050505050505050565b600e54604051636a9eee1360e11b81526000916001600160a01b03169063d53ddc2690611ea29085906004016142bd565b600a546001600160a01b031633148061251257506125123361112e565b61252e5760405162461bcd60e51b8152600401610c349061484c565b61115d601b82612d3d565b6000610fa6601b83612d1b565b80156125aa57600e546001600160a01b0316637f13086e33836040518363ffffffff1660e01b815260040161257c929190614a4c565b600060405180830381600087803b15801561259657600080fd5b505af1158015611c04573d6000803e3d6000fd5b50565b600a546001600160a01b03163314806125ca57506125ca3361112e565b6125e65760405162461bcd60e51b8152600401610c349061484c565b600d546040805180820190915260018152600760fb1b6020820152906001600160a01b038381169116141561262e5760405162461bcd60e51b8152600401610c349190614249565b50600a546040516370a0823160e01b81526125aa916001600160a01b0390811691908416906370a08231906126679030906004016142bd565b60206040518083038186803b15801561267f57600080fd5b505afa158015612693573d6000803e3d6000fd5b505050506040513d601f19601f820116820180604052508101906126b79190614872565b6001600160a01b0384169190612b5d565b600b54600160a81b900460ff16156126f25760405162461bcd60e51b8152600401610c349061488b565b6002600c5414156127155760405162461bcd60e51b8152600401610c34906145f7565b6002600c556016805460ff19166001179055611929610c6e3390565b600b546001600160a01b031633146127875760405162461bcd60e51b81526020600482015260196024820152783737ba16ba343296b83937b837b9b2b216b3b7bb32b93737b960391b6044820152606401610c34565b600b54600a546040516001600160a01b0392831692909116907fd4459d5b8b913cab0244230fd9b1c08b6ceace7fe9230e60d0f74cbffdf849d090600090a3600b8054600a80546001600160a01b03199081166001600160a01b03841617909155169055565b600a546001600160a01b031633148061280a575061280a3361112e565b6128265760405162461bcd60e51b8152600401610c349061484c565b61143e6134e0565b600e5460408051631f8f738360e31b815290516000926001600160a01b03169163fc7b9c18916004808301926020929190829003018186803b15801561134357600080fd5b600a546001600160a01b031633148061289057506128903361112e565b6128ac5760405162461bcd60e51b8152600401610c349061484c565b61143e613546565b600f546001600160a01b0316156125aa57600f5460405163632447c960e01b81526001600160a01b039091169063632447c99061257c9084906004016142bd565b60006129003461211b565b9050600d60009054906101000a90046001600160a01b03166001600160a01b031663d0e30db0346040518263ffffffff1660e01b81526004016000604051808303818588803b15801561295257600080fd5b505af1158015612966573d6000803e3d6000fd5b505050505061297b6129753390565b82612a90565b6040805182815234602082015233917f90890809c654f11d6e72a28fa60149770a0d11ec6c92319d6ceb2bb0a4ea1a15910160405180910390a250565b60006129ca6301e13380612710614a0b565b836129d58642614722565b601d546129e29190614a0b565b6129ec9190614a0b565b6129f69190614a2a565b90506000612710601e5484612a0b9190614a0b565b612a159190614a2a565b905080821115612a23578091505b509392505050565b600080612a36611ced565b612a4884670de0b6b3a7640000614a0b565b612a529190614a2a565b9050670de0b6b3a7640000612a65611ced565b612a6f9083614a0b565b612a799190614a2a565b8311612a8557806112f7565b6112f781600161470a565b6001600160a01b038216612ae65760405162461bcd60e51b815260206004820152601f60248201527f45524332303a206d696e7420746f20746865207a65726f2061646472657373006044820152606401610c34565b8060026000828254612af8919061470a565b90915550506001600160a01b03821660009081526020819052604081208054839290612b2590849061470a565b90915550506040518181526001600160a01b03831690600090600080516020614ae48339815191529060200160405180910390a35050565b612bb38363a9059cbb60e01b8484604051602401612b7c929190614a4c565b60408051601f198184030181529190526020810180516001600160e01b03166001600160e01b0319909316929092179091526135c2565b505050565b6040516001600160a01b0380851660248301528316604482015260648101829052612bf09085906323b872dd60e01b90608401612b7c565b50505050565b6001600160a01b038316612c585760405162461bcd60e51b8152602060048201526024808201527f45524332303a20617070726f76652066726f6d20746865207a65726f206164646044820152637265737360e01b6064820152608401610c34565b6001600160a01b038216612cb95760405162461bcd60e51b815260206004820152602260248201527f45524332303a20617070726f766520746f20746865207a65726f206164647265604482015261737360f01b6064820152608401610c34565b6001600160a01b0383811660008181526001602090815260408083209487168084529482529182902085905590518481527f8c5be1e5ebec7d5bd14f71427d1e84f3dd0314c0f7b2291e5b200ac8c7c3b92591015b60405180910390a3505050565b6001600160a01b038116600090815260018301602052604081205415156112f7565b60006112f7836001600160a01b038416613694565b600f546001600160a01b031615612e2857600f5460405163632447c960e01b81526001600160a01b039091169063632447c990612d939086906004016142bd565b600060405180830381600087803b158015612dad57600080fd5b505af1158015612dc1573d6000803e3d6000fd5b5050600f5460405163632447c960e01b81526001600160a01b03909116925063632447c99150612df59085906004016142bd565b600060405180830381600087803b158015612e0f57600080fd5b505af1158015612e23573d6000803e3d6000fd5b505050505b612bb3838383613787565b6040805180820190915260018152601960f91b602082015281612e695760405162461bcd60e51b8152600401610c349190614249565b50600080612e768361394d565b915091508015612e9b576000612e8b83612a2b565b905083811015612e99578093505b505b612ea533846139f4565b612eae82613b31565b50604080518481526020810184905233917ff279e6a1f5e320cca91135676d9cb6e44ca8a08c0b88342bcdb1144f6511b568910160405180910390a2505050565b600e5460405163228bfd9f60e01b8152600091829182916001600160a01b03169063228bfd9f90612f249088906004016142bd565b6101206040518083038186803b158015612f3d57600080fd5b505afa158015612f51573d6000803e3d6000fd5b505050506040513d601f19601f82011682018060405250810190612f759190614643565b5050505094509450505050612f8b8282866129b8565b95945050505050565b6000600854461415612fa7575060065490565b6007546040805180820190915260018152603160f81b602090910152611110907f8b73c3c69bb8fe3d512ecc4cf759cc79239f7b179b0ffacaa9a75d522b39400f907fc89efdaa54c0f20c7adf612882df0950f5a951637e0307cdcb4c672f298b8bc6613bbf565b600b54600160a01b900460ff166130555760405162461bcd60e51b815260206004820152600a6024820152691b9bdd0b5c185d5cd95960b21b6044820152606401610c34565b600b54600160a81b900460ff161561307f5760405162461bcd60e51b8152600401610c349061488b565b600b805460ff60a01b191690557f5db9ee0a495bf2e6ff9c91a7834c1ba4fdd244a5e8aa4e537bd38aeae4b073aa335b6040516130bc91906142bd565b60405180910390a1565b60006112f7836001600160a01b038416613c08565b600f546001600160a01b0316156125aa57600f5460405163d279c19160e01b81526001600160a01b039091169063d279c1919061257c9084906004016142bd565b606060006112f783613c57565b60006131348261211b565b905061314e33600d546001600160a01b0316903085612bb8565b61315733612975565b604080518281526020810184905233917f90890809c654f11d6e72a28fa60149770a0d11ec6c92319d6ceb2bb0a4ea1a15910160405180910390a25050565b600b54600160a01b900460ff16156131c05760405162461bcd60e51b8152600401610c34906145d7565b600b805460ff60a01b1916600160a01b1790557f62e78cea01bee320cd4e420270b5ea74000d11b0c9f74754ebdbfc544b05a2586130af3390565b815161320e906003906020850190614161565b508051612bb3906004906020840190614161565b80516020808301919091206007819055466008556040805180820190915260018152603160f81b92019190915261329b907f8b73c3c69bb8fe3d512ecc4cf759cc79239f7b179b0ffacaa9a75d522b39400f907fc89efdaa54c0f20c7adf612882df0950f5a951637e0307cdcb4c672f298b8bc6613bbf565b60065550565b600554610100900460ff16806132ba575060055460ff16155b6132d65760405162461bcd60e51b8152600401610c34906148ad565b600554610100900460ff161580156132f8576005805461ffff19166101011790555b600a80546001600160a01b0319163390811790915560405181906000907fd4459d5b8b913cab0244230fd9b1c08b6ceace7fe9230e60d0f74cbffdf849d0908290a35080156125aa576005805461ff001916905550565b60006fa2a8918ca85bafe22016d0b997e4df60600160ff1b038211156133c25760405162461bcd60e51b815260206004820152602260248201527f45434453413a20696e76616c6964207369676e6174757265202773272076616c604482015261756560f01b6064820152608401610c34565b8360ff16601b14806133d757508360ff16601c145b61342e5760405162461bcd60e51b815260206004820152602260248201527f45434453413a20696e76616c6964207369676e6174757265202776272076616c604482015261756560f01b6064820152608401610c34565b6040805160008082526020820180845288905260ff871692820192909252606081018590526080810184905260019060a0016020604051602081039080840390855afa158015613482573d6000803e3d6000fd5b5050604051601f1901519150506001600160a01b038116612f8b5760405162461bcd60e51b815260206004820152601860248201527745434453413a20696e76616c6964207369676e617475726560401b6044820152606401610c34565b600b54600160a81b900460ff161561350a5760405162461bcd60e51b8152600401610c349061488b565b600b805461ffff60a01b191661010160a01b1790557f28b4c24cb1012c094cd2f59f98e89d791973295f8fda6eaa118022d6d318960a336130af565b600b54600160a81b900460ff1661358e5760405162461bcd60e51b815260206004820152600c60248201526b3737ba16b9b43aba3237bbb760a11b6044820152606401610c34565b600b805460ff60a81b191690557fece7583a70a505ef0e36d4dec768f5ae597713e09c26011022599ee01abdabfc336130af565b6000613617826040518060400160405280602081526020017f5361666545524332303a206c6f772d6c6576656c2063616c6c206661696c6564815250856001600160a01b0316613cb39092919063ffffffff16565b805190915015612bb357808060200190518101906136359190614a65565b612bb35760405162461bcd60e51b815260206004820152602a60248201527f5361666545524332303a204552433230206f7065726174696f6e20646964206e6044820152691bdd081cdd58d8d9595960b21b6064820152608401610c34565b6000818152600183016020526040812054801561377d5760006136b8600183614722565b85549091506000906136cc90600190614722565b90508181146137315760008660000182815481106136ec576136ec614a80565b906000526020600020015490508087600001848154811061370f5761370f614a80565b6000918252602080832090910192909255918252600188019052604090208390555b855486908061374257613742614a96565b600190038181906000526020600020016000905590558560010160008681526020019081526020016000206000905560019350505050610fa6565b6000915050610fa6565b6001600160a01b0383166137eb5760405162461bcd60e51b815260206004820152602560248201527f45524332303a207472616e736665722066726f6d20746865207a65726f206164604482015264647265737360d81b6064820152608401610c34565b6001600160a01b03821661384d5760405162461bcd60e51b815260206004820152602360248201527f45524332303a207472616e7366657220746f20746865207a65726f206164647260448201526265737360e81b6064820152608401610c34565b6001600160a01b038316600090815260208190526040902054818110156138c55760405162461bcd60e51b815260206004820152602660248201527f45524332303a207472616e7366657220616d6f756e7420657863656564732062604482015265616c616e636560d01b6064820152608401610c34565b6138cf8282614722565b6001600160a01b03808616600090815260208190526040808220939093559085168152908120805484929061390590849061470a565b92505081905550826001600160a01b0316846001600160a01b0316600080516020614ae48339815191528460405161393f91815260200190565b60405180910390a350505050565b600080670de0b6b3a7640000613961611ced565b61396b9085614a0b565b6139759190614a2a565b915060006139816120d2565b9050808311156139b75761399d6139988285614722565b613cca565b6139a56120d2565b9050808311156139b757809250600191505b6040805180820190915260018152603160f81b6020820152836139ed5760405162461bcd60e51b8152600401610c349190614249565b5050915091565b6001600160a01b038216613a545760405162461bcd60e51b815260206004820152602160248201527f45524332303a206275726e2066726f6d20746865207a65726f206164647265736044820152607360f81b6064820152608401610c34565b6001600160a01b03821660009081526020819052604090205481811015613ac85760405162461bcd60e51b815260206004820152602260248201527f45524332303a206275726e20616d6f756e7420657863656564732062616c616e604482015261636560f01b6064820152608401610c34565b613ad28282614722565b6001600160a01b03841660009081526020819052604081209190915560028054849290613b00908490614722565b90915550506040518281526000906001600160a01b03851690600080516020614ae483398151915290602001612d0e565b60165460009060ff1615613bb157600d54604051632e1a7d4d60e01b8152600481018490526001600160a01b0390911690632e1a7d4d90602401600060405180830381600087803b158015613b8557600080fd5b505af1158015613b99573d6000803e3d6000fd5b50505050613bad613ba73390565b83613ece565b5090565b613bba82613fe7565b505090565b6040805160208101859052908101839052606081018290524660808201523060a082015260009060c0016040516020818303038152906040528051906020012090509392505050565b6000818152600183016020526040812054613c4f57508154600181810184556000848152602080822090930184905584548482528286019093526040902091909155610fa6565b506000610fa6565b606081600001805480602002602001604051908101604052809291908181526020018280548015613ca757602002820191906000526020600020905b815481526020019060010190808311613c93575b50505050509050919050565b6060613cc28484600085614000565b949350505050565b6000806000806000613cda61108f565b805190915060005b81811015613ec4576000613cf6858a614722565b90506000848381518110613d0c57613d0c614a80565b6020908102919091010151600e54604051639f2b283360e01b81529192506001600160a01b031690639f2b283390613d489084906004016142bd565b60206040518083038186803b158015613d6057600080fd5b505afa158015613d74573d6000803e3d6000fd5b505050506040513d601f19601f82011682018060405250810190613d989190614872565b985088613da6575050613eb2565b88821115613db2578891505b613dba6120d2565b604051632e1a7d4d60e01b8152600481018490529098506001600160a01b03821690632e1a7d4d90602401600060405180830381600087803b158015613dff57600080fd5b505af1925050508015613e10575060015b613e1b575050613eb2565b87613e246120d2565b613e2e9190614722565b600e54604051632fb9ba3160e01b81529198506001600160a01b031690632fb9ba3190613e619084908b90600401614a4c565b600060405180830381600087803b158015613e7b57600080fd5b505af1158015613e8f573d6000803e3d6000fd5b505050508686613e9f919061470a565b9550898610613eaf575050613ec4565b50505b80613ebc81614aac565b915050613ce2565b5050505050505050565b80471015613f1e5760405162461bcd60e51b815260206004820152601d60248201527f416464726573733a20696e73756666696369656e742062616c616e63650000006044820152606401610c34565b6000826001600160a01b03168260405160006040518083038185875af1925050503d8060008114613f6b576040519150601f19603f3d011682016040523d82523d6000602084013e613f70565b606091505b5050905080612bb35760405162461bcd60e51b815260206004820152603a60248201527f416464726573733a20756e61626c6520746f2073656e642076616c75652c207260448201527f6563697069656e74206d617920686176652072657665727465640000000000006064820152608401610c34565b6000613bad33600d546001600160a01b03169084612b5d565b6060824710156140615760405162461bcd60e51b815260206004820152602660248201527f416464726573733a20696e73756666696369656e742062616c616e636520666f6044820152651c8818d85b1b60d21b6064820152608401610c34565b843b6140af5760405162461bcd60e51b815260206004820152601d60248201527f416464726573733a2063616c6c20746f206e6f6e2d636f6e74726163740000006044820152606401610c34565b600080866001600160a01b031685876040516140cb9190614ac7565b60006040518083038185875af1925050503d8060008114614108576040519150601f19603f3d011682016040523d82523d6000602084013e61410d565b606091505b509150915061411d828286614128565b979650505050505050565b606083156141375750816112f7565b8251156141475782518084602001fd5b8160405162461bcd60e51b8152600401610c349190614249565b82805461416d90614739565b90600052602060002090601f01602090048101928261418f57600085556141d5565b82601f106141a857805160ff19168380011785556141d5565b828001600101855582156141d5579182015b828111156141d55782518255916020019190600101906141ba565b50613bad9291505b80821115613bad57600081556001016141dd565b60008060006060848603121561420657600080fd5b505081359360208301359350604090920135919050565b60005b83811015614238578181015183820152602001614220565b83811115612bf05750506000910152565b602081526000825180602084015261426881604085016020870161421d565b601f01601f19169190910160400192915050565b6001600160a01b03811681146125aa57600080fd5b600080604083850312156142a457600080fd5b82356142af8161427c565b946020939093013593505050565b6001600160a01b0391909116815260200190565b6000602082840312156142e357600080fd5b5035919050565b6020808252825182820181905260009190848201906040850190845b8181101561432b5783516001600160a01b031683529284019291840191600101614306565b50909695505050505050565b60006020828403121561434957600080fd5b81356112f78161427c565b60008060006060848603121561436957600080fd5b83356143748161427c565b925060208401356143848161427c565b929592945050506040919091013590565b60ff811681146125aa57600080fd5b600080600080600060a086880312156143bc57600080fd5b853594506020860135935060408601356143d581614395565b94979396509394606081013594506080013592915050565b6000806040838503121561440057600080fd5b823561440b8161427c565b9150602083013561441b8161427c565b809150509250929050565b634e487b7160e01b600052604160045260246000fd5b604051601f8201601f1916810167ffffffffffffffff8111828210171561446557614465614426565b604052919050565b600082601f83011261447e57600080fd5b813567ffffffffffffffff81111561449857614498614426565b6144ab601f8201601f191660200161443c565b8181528460208386010111156144c057600080fd5b816020850160208301376000918101602001919091529392505050565b600080600080608085870312156144f357600080fd5b843567ffffffffffffffff8082111561450b57600080fd5b6145178883890161446d565b9550602087013591508082111561452d57600080fd5b5061453a8782880161446d565b935050604085013561454b8161427c565b9150606085013561455b8161427c565b939692955090935050565b600080600080600080600060e0888a03121561458157600080fd5b873561458c8161427c565b9650602088013561459c8161427c565b9550604088013594506060880135935060808801356145ba81614395565b9699959850939692959460a0840135945060c09093013592915050565b6020808252600690820152651c185d5cd95960d21b604082015260600190565b6020808252601f908201527f5265656e7472616e637947756172643a207265656e7472616e742063616c6c00604082015260600190565b8051801515811461463e57600080fd5b919050565b60008060008060008060008060006101208a8c03121561466257600080fd5b61466b8a61462e565b985060208a0151975060408a0151965060608a0151955060808a0151945060a08a0151935060c08a0151925060e08a015191506101008a015190509295985092959850929598565b6000602082840312156146c557600080fd5b81516112f78161427c565b600080604083850312156146e357600080fd5b505080516020909101519092909150565b634e487b7160e01b600052601160045260246000fd5b6000821982111561471d5761471d6146f4565b500190565b600082821015614734576147346146f4565b500390565b600181811c9082168061474d57607f821691505b6020821081141561476e57634e487b7160e01b600052602260045260246000fd5b50919050565b6020808252600c908201526b3737ba16b3b7bb32b93737b960a11b604082015260600190565b600060208083850312156147ad57600080fd5b825167ffffffffffffffff808211156147c557600080fd5b818501915085601f8301126147d957600080fd5b8151818111156147eb576147eb614426565b8060051b91506147fc84830161443c565b818152918301840191848101908884111561481657600080fd5b938501935b8385101561484057845192506148308361427c565b828252938501939085019061481b565b98975050505050505050565b6020808252600c908201526b3737ba16b096b5b2b2b832b960a11b604082015260600190565b60006020828403121561488457600080fd5b5051919050565b60208082526008908201526739b43aba3237bbb760c11b604082015260600190565b6020808252602e908201527f496e697469616c697a61626c653a20636f6e747261637420697320616c72656160408201526d191e481a5b9a5d1a585b1a5e995960921b606082015260800190565b60006020828403121561490d57600080fd5b81516112f781614395565b600181815b80851115614953578160001904821115614939576149396146f4565b8085161561494657918102915b93841c939080029061491d565b509250929050565b60008261496a57506001610fa6565b8161497757506000610fa6565b816001811461498d5760028114614997576149b3565b6001915050610fa6565b60ff8411156149a8576149a86146f4565b50506001821b610fa6565b5060208310610133831016604e8410600b84101617156149d6575081810a610fa6565b6149e08383614918565b80600019048211156149f4576149f46146f4565b029392505050565b60006112f760ff84168361495b565b6000816000190483118215151615614a2557614a256146f4565b500290565b600082614a4757634e487b7160e01b600052601260045260246000fd5b500490565b6001600160a01b03929092168252602082015260400190565b600060208284031215614a7757600080fd5b6112f78261462e565b634e487b7160e01b600052603260045260246000fd5b634e487b7160e01b600052603160045260246000fd5b6000600019821415614ac057614ac06146f4565b5060010190565b60008251614ad981846020870161421d565b919091019291505056feddf252ad1be2c89b69c2b068fc378daa952ba7f163c4a11628f55a4df523b3efa2646970667358221220a15d9131346e8f5a97d5e74014215060cbe60218609a76aeb22d1338905dbf4764736f6c63430008090033",
  "devdoc": {
    "kind": "dev",
    "methods": {
      "DOMAIN_SEPARATOR()": {
        "details": "See {IERC20Permit-DOMAIN_SEPARATOR}."
      },
      "acceptGovernorship()": {
        "details": "Allows new governor to accept governorship of the contract."
      },
      "addKeeper(address)": {
        "params": {
          "keeperAddress_": "keeper address to add."
        }
      },
      "addMaintainer(address)": {
        "params": {
          "maintainerAddress_": "maintainer address to add."
        }
      },
      "allowance(address,address)": {
        "details": "See {IERC20-allowance}."
      },
      "approve(address,uint256)": {
        "details": "See {IERC20-approve}. Requirements: - `spender` cannot be the zero address."
      },
      "availableCreditLimit(address)": {
        "details": "Available credit limit is calculated based on current debt of pool and strategy, current debt limit of pool and strategy. credit available = min(pool's debt limit, strategy's debt limit, max debt per rebalance) when some strategy do not pay back outstanding debt, this impact credit line of other strategy if totalDebt of pool >= debtLimit of pool",
        "params": {
          "strategy_": "Strategy address"
        }
      },
      "balanceOf(address)": {
        "details": "Returns the amount of tokens owned by `account`."
      },
      "calculateMintage(uint256)": {
        "details": "Amount should be >= minimum deposit limit which default to 1",
        "params": {
          "amount_": "Collateral amount"
        },
        "returns": {
          "_shares": "Amount of share that user will get"
        }
      },
      "calculateUniversalFee(uint256)": {
        "details": "Earn strategies will call this during rebalance."
      },
      "decimals()": {
        "details": "Returns the decimals of the token. default to 18"
      },
      "deposit()": {
        "details": "Receives ETH and grants new tokens/shares to the sender depending on the value of pool's share."
      },
      "deposit(uint256)": {
        "params": {
          "amount_": "ERC20 token amount."
        }
      },
      "depositAndClaim()": {
        "details": "Deposit ETH and claim rewards if any"
      },
      "depositAndClaim(uint256)": {
        "params": {
          "amount_": "ERC20 token amount."
        }
      },
      "depositWithPermit(uint256,uint256,uint8,bytes32,bytes32)": {
        "params": {
          "amount_": "ERC20 token amount.",
          "deadline_": "The time at which signature will expire",
          "r_": "Half of the ECDSA signature pair",
          "s_": "Half of the ECDSA signature pair",
          "v_": "The recovery byte of the signature"
        }
      },
      "excessDebt(address)": {
        "params": {
          "strategy_": "Address of strategy"
        }
      },
      "initialize(string,string,address,address)": {
        "details": "Equivalent to constructor for proxy. It can be called only once per proxy."
      },
      "migrateStrategy(address,address)": {
        "details": "Migrating strategy aka old and new strategy should be of same type.",
        "params": {
          "new_": "Address of new strategy",
          "old_": "Address of strategy being migrated"
        }
      },
      "name()": {
        "details": "Returns the name of the token."
      },
      "permit(address,address,uint256,uint256,uint8,bytes32,bytes32)": {
        "details": "See {IERC20Permit-permit}."
      },
      "pricePerShare()": {
        "details": "Return value will be in token defined decimals."
      },
      "removeKeeper(address)": {
        "params": {
          "keeperAddress_": "keeper address to remove."
        }
      },
      "removeMaintainer(address)": {
        "params": {
          "maintainerAddress_": "maintainer address to remove."
        }
      },
      "reportEarning(uint256,uint256,uint256)": {
        "params": {
          "loss_": "Reduce debt ,also reduce debtRatio, increase loss in record.",
          "payback_": "strategy willing to payback outstanding above debtLimit. no performance fee on this amount.  when governance has reduced debtRatio of strategy, strategy will report profit and payback amount separately.",
          "profit_": "yield generated by strategy. Strategy get performance fee on this amount"
        }
      },
      "reportLoss(uint256)": {
        "details": "Some strategies pay deposit fee thus realizing loss at deposit. For example: Curve's 3pool has some slippage due to deposit of one asset in 3pool. Strategy may want report this loss instead of waiting for next rebalance.",
        "params": {
          "loss_": "Loss that strategy want to report"
        }
      },
      "sweepERC20(address)": {
        "details": "Transfer given ERC20 token to governor",
        "params": {
          "fromToken_": "Token address to sweep"
        }
      },
      "symbol()": {
        "details": "Returns the symbol of the token, usually a shorter version of the name."
      },
      "tokensHere()": {
        "details": "Returns the token stored in the pool. It will be in token defined decimals."
      },
      "totalDebtOf(address)": {
        "params": {
          "strategy_": "Strategy address"
        }
      },
      "totalSupply()": {
        "details": "Returns total supply of the token."
      },
      "transfer(address,uint256)": {
        "details": "See {IERC20-transfer}. Requirements: - `recipient` cannot be the zero address. - the caller must have a balance of at least `amount`."
      },
      "transferFrom(address,address,uint256)": {
        "details": "See {IERC20-transferFrom}. Emits an {Approval} event indicating the updated allowance. This is not required by the EIP. See the note at the beginning of {ERC20}. Requirements: - `sender` and `recipient` cannot be the zero address. - `sender` must have a balance of at least `amount`. - the caller must have allowance for ``sender``'s tokens of at least `amount`."
      },
      "transferGovernorship(address)": {
        "details": "Transfers governorship of the contract to a new account (`proposedGovernor`). Can only be called by the current owner."
      },
      "updateMaximumProfitAsFee(uint256)": {
        "params": {
          "newMaxProfitAsFee_": "New max profit as fee"
        }
      },
      "updateMinimumDepositLimit(uint256)": {
        "params": {
          "newLimit_": "New minimum deposit limit"
        }
      },
      "updatePoolRewards(address)": {
        "params": {
          "newPoolRewards_": "new pool rewards address"
        }
      },
      "updateUniversalFee(uint256)": {
        "details": "Format: 1500 = 15% fee, 100 = 1%",
        "params": {
          "newUniversalFee_": "new universal fee"
        }
      },
      "withdraw(uint256)": {
        "params": {
          "shares_": "Pool shares. It will be in 18 decimals."
        }
      },
      "withdrawAndClaim(uint256)": {
        "params": {
          "shares_": "Pool shares. It will be in 18 decimals."
        }
      },
      "withdrawETH(uint256)": {
        "details": "Burns tokens/shares and returns the ETH value, after fee, of those."
      },
      "withdrawETHAndClaim(uint256)": {
        "details": "Burns tokens/shares and returns the ETH value and claim rewards if any"
      }
    },
    "version": 1
  },
  "userdoc": {
    "kind": "user",
    "methods": {
      "addKeeper(address)": {
        "notice": "Add given address in keepers list."
      },
      "addMaintainer(address)": {
        "notice": "Add given address in maintainers list."
      },
      "availableCreditLimit(address)": {
        "notice": "Get available credit limit of strategy. This is the amount strategy can borrow from pool"
      },
      "calculateMintage(uint256)": {
        "notice": "Calculate how much shares user will get for given amount. Also return externalDepositFee if any."
      },
      "calculateUniversalFee(uint256)": {
        "notice": "Calculate universal fee for calling strategy. This is only strategy function."
      },
      "deposit(uint256)": {
        "notice": "Deposit ERC20 tokens and receive pool shares depending on the current share price."
      },
      "depositAndClaim(uint256)": {
        "notice": "Deposit ERC20 tokens and claim rewards if any"
      },
      "depositWithPermit(uint256,uint256,uint8,bytes32,bytes32)": {
        "notice": "Deposit ERC20 tokens with permit aka gasless approval."
      },
      "excessDebt(address)": {
        "notice": "Debt above current debt limit"
      },
      "keepers()": {
        "notice": "Return list of keepers"
      },
      "maintainers()": {
        "notice": "Return list of maintainers"
      },
      "maxProfitAsFee()": {
        "notice": "Maximum percentage of profit that can be counted as universal fee. Default to 50%"
      },
      "migrateStrategy(address,address)": {
        "notice": "Migrate existing strategy to new strategy."
      },
      "minDepositLimit()": {
        "notice": "Minimum deposit limit."
      },
      "poolAccountant()": {
        "notice": "PoolAccountant address"
      },
      "poolRewards()": {
        "notice": "PoolRewards contract address"
      },
      "pricePerShare()": {
        "notice": "Get price per share"
      },
      "removeKeeper(address)": {
        "notice": "Remove given address from keepers list."
      },
      "removeMaintainer(address)": {
        "notice": "Remove given address from maintainers list."
      },
      "reportEarning(uint256,uint256,uint256)": {
        "notice": "Strategy call this in regular interval. Only strategy function."
      },
      "reportLoss(uint256)": {
        "notice": "Report loss outside of rebalance activity."
      },
      "token()": {
        "notice": "Collateral token address"
      },
      "totalDebt()": {
        "notice": "Get total debt of pool"
      },
      "totalDebtOf(address)": {
        "notice": "Get total debt of given strategy"
      },
      "totalDebtRatio()": {
        "notice": "Get total debt ratio. Total debt ratio helps us keep buffer in pool"
      },
      "totalValue()": {
        "notice": "Returns sum of token locked in other contracts and token stored in the pool. It will be in token defined decimals."
      },
      "universalFee()": {
        "notice": "Universal fee of this pool. Default to 2%"
      },
      "updateMaximumProfitAsFee(uint256)": {
        "notice": "Only Governor:: Update maximum profit that can be used as universal fee"
      },
      "updateMinimumDepositLimit(uint256)": {
        "notice": "Only Governor:: Update minimum deposit limit"
      },
      "updatePoolRewards(address)": {
        "notice": "Update pool rewards address for this pool"
      },
      "updateUniversalFee(uint256)": {
        "notice": "Update universal fee for this pool"
      },
      "withdraw(uint256)": {
        "notice": "Withdraw collateral based on given shares and the current share price. Burn remaining shares and return collateral."
      },
      "withdrawAndClaim(uint256)": {
        "notice": "Withdraw collateral and claim rewards if any"
      }
    },
    "version": 1
  },
  "storageLayout": {
    "storage": [
      {
        "astId": 5095,
        "contract": "vesper-pools/contracts/pool/VETH.sol:VETH",
        "label": "_balances",
        "offset": 0,
        "slot": "0",
        "type": "t_mapping(t_address,t_uint256)"
      },
      {
        "astId": 5101,
        "contract": "vesper-pools/contracts/pool/VETH.sol:VETH",
        "label": "_allowances",
        "offset": 0,
        "slot": "1",
        "type": "t_mapping(t_address,t_mapping(t_address,t_uint256))"
      },
      {
        "astId": 5103,
        "contract": "vesper-pools/contracts/pool/VETH.sol:VETH",
        "label": "_totalSupply",
        "offset": 0,
        "slot": "2",
        "type": "t_uint256"
      },
      {
        "astId": 5105,
        "contract": "vesper-pools/contracts/pool/VETH.sol:VETH",
        "label": "_name",
        "offset": 0,
        "slot": "3",
        "type": "t_string_storage"
      },
      {
        "astId": 5107,
        "contract": "vesper-pools/contracts/pool/VETH.sol:VETH",
        "label": "_symbol",
        "offset": 0,
        "slot": "4",
        "type": "t_string_storage"
      },
      {
        "astId": 1360,
        "contract": "vesper-pools/contracts/pool/VETH.sol:VETH",
        "label": "_initialized",
        "offset": 0,
        "slot": "5",
        "type": "t_bool"
      },
      {
        "astId": 1363,
        "contract": "vesper-pools/contracts/pool/VETH.sol:VETH",
        "label": "_initializing",
        "offset": 1,
        "slot": "5",
        "type": "t_bool"
      },
      {
        "astId": 5568,
        "contract": "vesper-pools/contracts/pool/VETH.sol:VETH",
        "label": "_CACHED_DOMAIN_SEPARATOR",
        "offset": 0,
        "slot": "6",
        "type": "t_bytes32"
      },
      {
        "astId": 5570,
        "contract": "vesper-pools/contracts/pool/VETH.sol:VETH",
        "label": "_HASHED_NAME",
        "offset": 0,
        "slot": "7",
        "type": "t_bytes32"
      },
      {
        "astId": 5572,
        "contract": "vesper-pools/contracts/pool/VETH.sol:VETH",
        "label": "_CACHED_CHAIN_ID",
        "offset": 0,
        "slot": "8",
        "type": "t_uint256"
      },
      {
        "astId": 5578,
        "contract": "vesper-pools/contracts/pool/VETH.sol:VETH",
        "label": "nonces",
        "offset": 0,
        "slot": "9",
        "type": "t_mapping(t_address,t_uint256)"
      },
      {
        "astId": 214,
        "contract": "vesper-pools/contracts/pool/VETH.sol:VETH",
        "label": "governor",
        "offset": 0,
        "slot": "10",
        "type": "t_address"
      },
      {
        "astId": 216,
        "contract": "vesper-pools/contracts/pool/VETH.sol:VETH",
        "label": "proposedGovernor",
        "offset": 0,
        "slot": "11",
        "type": "t_address"
      },
      {
        "astId": 361,
        "contract": "vesper-pools/contracts/pool/VETH.sol:VETH",
        "label": "paused",
        "offset": 20,
        "slot": "11",
        "type": "t_bool"
      },
      {
        "astId": 363,
        "contract": "vesper-pools/contracts/pool/VETH.sol:VETH",
        "label": "stopEverything",
        "offset": 21,
        "slot": "11",
        "type": "t_bool"
      },
      {
        "astId": 1411,
        "contract": "vesper-pools/contracts/pool/VETH.sol:VETH",
        "label": "_status",
        "offset": 0,
        "slot": "12",
        "type": "t_uint256"
      },
      {
        "astId": 6765,
        "contract": "vesper-pools/contracts/pool/VETH.sol:VETH",
        "label": "token",
        "offset": 0,
        "slot": "13",
        "type": "t_contract(IERC20)1518"
      },
      {
        "astId": 6768,
        "contract": "vesper-pools/contracts/pool/VETH.sol:VETH",
        "label": "poolAccountant",
        "offset": 0,
        "slot": "14",
        "type": "t_address"
      },
      {
        "astId": 6771,
        "contract": "vesper-pools/contracts/pool/VETH.sol:VETH",
        "label": "poolRewards",
        "offset": 0,
        "slot": "15",
        "type": "t_address"
      },
      {
        "astId": 6773,
        "contract": "vesper-pools/contracts/pool/VETH.sol:VETH",
        "label": "feeWhitelistObsolete",
        "offset": 0,
        "slot": "16",
        "type": "t_address"
      },
      {
        "astId": 6775,
        "contract": "vesper-pools/contracts/pool/VETH.sol:VETH",
        "label": "keepersObsolete",
        "offset": 0,
        "slot": "17",
        "type": "t_address"
      },
      {
        "astId": 6777,
        "contract": "vesper-pools/contracts/pool/VETH.sol:VETH",
        "label": "maintainersObsolete",
        "offset": 0,
        "slot": "18",
        "type": "t_address"
      },
      {
        "astId": 6779,
        "contract": "vesper-pools/contracts/pool/VETH.sol:VETH",
        "label": "feeCollectorObsolete",
        "offset": 0,
        "slot": "19",
        "type": "t_address"
      },
      {
        "astId": 6781,
        "contract": "vesper-pools/contracts/pool/VETH.sol:VETH",
        "label": "withdrawFeeObsolete",
        "offset": 0,
        "slot": "20",
        "type": "t_uint256"
      },
      {
        "astId": 6783,
        "contract": "vesper-pools/contracts/pool/VETH.sol:VETH",
        "label": "decimalConversionFactorObsolete",
        "offset": 0,
        "slot": "21",
        "type": "t_uint256"
      },
      {
        "astId": 6785,
        "contract": "vesper-pools/contracts/pool/VETH.sol:VETH",
        "label": "withdrawInETH",
        "offset": 0,
        "slot": "22",
        "type": "t_bool"
      },
      {
        "astId": 6791,
        "contract": "vesper-pools/contracts/pool/VETH.sol:VETH",
        "label": "_feeWhitelistObsolete",
        "offset": 0,
        "slot": "23",
        "type": "t_struct(AddressSet)3024_storage"
      },
      {
        "astId": 6794,
        "contract": "vesper-pools/contracts/pool/VETH.sol:VETH",
        "label": "_keepers",
        "offset": 0,
        "slot": "25",
        "type": "t_struct(AddressSet)3024_storage"
      },
      {
        "astId": 6797,
        "contract": "vesper-pools/contracts/pool/VETH.sol:VETH",
        "label": "_maintainers",
        "offset": 0,
        "slot": "27",
        "type": "t_struct(AddressSet)3024_storage"
      },
      {
        "astId": 6804,
        "contract": "vesper-pools/contracts/pool/VETH.sol:VETH",
        "label": "universalFee",
        "offset": 0,
        "slot": "29",
        "type": "t_uint256"
      },
      {
        "astId": 6808,
        "contract": "vesper-pools/contracts/pool/VETH.sol:VETH",
        "label": "maxProfitAsFee",
        "offset": 0,
        "slot": "30",
        "type": "t_uint256"
      },
      {
        "astId": 6812,
        "contract": "vesper-pools/contracts/pool/VETH.sol:VETH",
        "label": "minDepositLimit",
        "offset": 0,
        "slot": "31",
        "type": "t_uint256"
      }
    ],
    "types": {
      "t_address": {
        "encoding": "inplace",
        "label": "address",
        "numberOfBytes": "20"
      },
      "t_array(t_bytes32)dyn_storage": {
        "base": "t_bytes32",
        "encoding": "dynamic_array",
        "label": "bytes32[]",
        "numberOfBytes": "32"
      },
      "t_bool": {
        "encoding": "inplace",
        "label": "bool",
        "numberOfBytes": "1"
      },
      "t_bytes32": {
        "encoding": "inplace",
        "label": "bytes32",
        "numberOfBytes": "32"
      },
      "t_contract(IERC20)1518": {
        "encoding": "inplace",
        "label": "contract IERC20",
        "numberOfBytes": "20"
      },
      "t_mapping(t_address,t_mapping(t_address,t_uint256))": {
        "encoding": "mapping",
        "key": "t_address",
        "label": "mapping(address => mapping(address => uint256))",
        "numberOfBytes": "32",
        "value": "t_mapping(t_address,t_uint256)"
      },
      "t_mapping(t_address,t_uint256)": {
        "encoding": "mapping",
        "key": "t_address",
        "label": "mapping(address => uint256)",
        "numberOfBytes": "32",
        "value": "t_uint256"
      },
      "t_mapping(t_bytes32,t_uint256)": {
        "encoding": "mapping",
        "key": "t_bytes32",
        "label": "mapping(bytes32 => uint256)",
        "numberOfBytes": "32",
        "value": "t_uint256"
      },
      "t_string_storage": {
        "encoding": "bytes",
        "label": "string",
        "numberOfBytes": "32"
      },
      "t_struct(AddressSet)3024_storage": {
        "encoding": "inplace",
        "label": "struct EnumerableSet.AddressSet",
        "members": [
          {
            "astId": 3023,
            "contract": "vesper-pools/contracts/pool/VETH.sol:VETH",
            "label": "_inner",
            "offset": 0,
            "slot": "0",
            "type": "t_struct(Set)2723_storage"
          }
        ],
        "numberOfBytes": "64"
      },
      "t_struct(Set)2723_storage": {
        "encoding": "inplace",
        "label": "struct EnumerableSet.Set",
        "members": [
          {
            "astId": 2718,
            "contract": "vesper-pools/contracts/pool/VETH.sol:VETH",
            "label": "_values",
            "offset": 0,
            "slot": "0",
            "type": "t_array(t_bytes32)dyn_storage"
          },
          {
            "astId": 2722,
            "contract": "vesper-pools/contracts/pool/VETH.sol:VETH",
            "label": "_indexes",
            "offset": 0,
            "slot": "1",
            "type": "t_mapping(t_bytes32,t_uint256)"
          }
        ],
        "numberOfBytes": "64"
      },
      "t_uint256": {
        "encoding": "inplace",
        "label": "uint256",
        "numberOfBytes": "32"
      }
    }
  }
}