{
  "address": "0x9A1a37e573dEd585299FdDbe99Ca43853DD21d9D",
  "abi": [
    {
      "inputs": [
        {
          "internalType": "address",
          "name": "_pool",
          "type": "address"
        },
        {
          "internalType": "address",
          "name": "_swapper",
          "type": "address"
        },
        {
          "internalType": "address",
          "name": "_rewardToken",
          "type": "address"
        },
        {
          "internalType": "address",
          "name": "_receiptToken",
          "type": "address"
        },
        {
          "internalType": "address",
          "name": "_borrowToken",
          "type": "address"
        },
        {
          "internalType": "address",
          "name": "_vPool",
          "type": "address"
        },
        {
          "internalType": "address",
          "name": "_vspAddress",
          "type": "address"
        },
        {
          "internalType": "string",
          "name": "_name",
          "type": "string"
        }
      ],
      "stateMutability": "nonpayable",
      "type": "constructor"
    },
    {
      "anonymous": false,
      "inputs": [
        {
          "indexed": false,
          "internalType": "uint256",
          "name": "previousMinBorrowLimit",
          "type": "uint256"
        },
        {
          "indexed": false,
          "internalType": "uint256",
          "name": "newMinBorrowLimit",
          "type": "uint256"
        },
        {
          "indexed": false,
          "internalType": "uint256",
          "name": "previousMaxBorrowLimit",
          "type": "uint256"
        },
        {
          "indexed": false,
          "internalType": "uint256",
          "name": "newMaxBorrowLimit",
          "type": "uint256"
        }
      ],
      "name": "UpdatedBorrowLimit",
      "type": "event"
    },
    {
      "anonymous": false,
      "inputs": [
        {
          "indexed": true,
          "internalType": "address",
          "name": "previousFeeCollector",
          "type": "address"
        },
        {
          "indexed": true,
          "internalType": "address",
          "name": "newFeeCollector",
          "type": "address"
        }
      ],
      "name": "UpdatedFeeCollector",
      "type": "event"
    },
    {
      "anonymous": false,
      "inputs": [
        {
          "indexed": true,
          "internalType": "contract IRoutedSwapper",
          "name": "oldSwapper",
          "type": "address"
        },
        {
          "indexed": true,
          "internalType": "contract IRoutedSwapper",
          "name": "newSwapper",
          "type": "address"
        }
      ],
      "name": "UpdatedSwapper",
      "type": "event"
    },
    {
      "inputs": [],
      "name": "AAVE",
      "outputs": [
        {
          "internalType": "address",
          "name": "",
          "type": "address"
        }
      ],
      "stateMutability": "view",
      "type": "function"
    },
    {
      "inputs": [],
      "name": "NAME",
      "outputs": [
        {
          "internalType": "string",
          "name": "",
          "type": "string"
        }
      ],
      "stateMutability": "view",
      "type": "function"
    },
    {
      "inputs": [],
      "name": "VERSION",
      "outputs": [
        {
          "internalType": "string",
          "name": "",
          "type": "string"
        }
      ],
      "stateMutability": "view",
      "type": "function"
    },
    {
      "inputs": [],
      "name": "aaveIncentivesController",
      "outputs": [
        {
          "internalType": "contract AaveIncentivesController",
          "name": "",
          "type": "address"
        }
      ],
      "stateMutability": "view",
      "type": "function"
    },
    {
      "inputs": [],
      "name": "aaveLendingPool",
      "outputs": [
        {
          "internalType": "contract AaveLendingPool",
          "name": "",
          "type": "address"
        }
      ],
      "stateMutability": "view",
      "type": "function"
    },
    {
      "inputs": [],
      "name": "aaveProtocolDataProvider",
      "outputs": [
        {
          "internalType": "contract AaveProtocolDataProvider",
          "name": "",
          "type": "address"
        }
      ],
      "stateMutability": "view",
      "type": "function"
    },
    {
      "inputs": [
        {
          "internalType": "address",
          "name": "_keeperAddress",
          "type": "address"
        }
      ],
      "name": "addKeeper",
      "outputs": [],
      "stateMutability": "nonpayable",
      "type": "function"
    },
    {
      "inputs": [],
      "name": "approveToken",
      "outputs": [],
      "stateMutability": "nonpayable",
      "type": "function"
    },
    {
      "inputs": [],
      "name": "borrowToken",
      "outputs": [
        {
          "internalType": "address",
          "name": "",
          "type": "address"
        }
      ],
      "stateMutability": "view",
      "type": "function"
    },
    {
      "inputs": [],
      "name": "canStartCooldown",
      "outputs": [
        {
          "internalType": "bool",
          "name": "",
          "type": "bool"
        }
      ],
      "stateMutability": "view",
      "type": "function"
    },
    {
      "inputs": [],
      "name": "canUnstake",
      "outputs": [
        {
          "internalType": "bool",
          "name": "",
          "type": "bool"
        }
      ],
      "stateMutability": "view",
      "type": "function"
    },
    {
      "inputs": [],
      "name": "collateral",
      "outputs": [
        {
          "internalType": "address",
          "name": "",
          "type": "address"
        }
      ],
      "stateMutability": "view",
      "type": "function"
    },
    {
      "inputs": [],
      "name": "collateralToken",
      "outputs": [
        {
          "internalType": "contract IERC20",
          "name": "",
          "type": "address"
        }
      ],
      "stateMutability": "view",
      "type": "function"
    },
    {
      "inputs": [],
      "name": "cooldownData",
      "outputs": [
        {
          "internalType": "uint256",
          "name": "_cooldownStart",
          "type": "uint256"
        },
        {
          "internalType": "uint256",
          "name": "_cooldownEnd",
          "type": "uint256"
        },
        {
          "internalType": "uint256",
          "name": "_unstakeEnd",
          "type": "uint256"
        }
      ],
      "stateMutability": "view",
      "type": "function"
    },
    {
      "inputs": [],
      "name": "feeCollector",
      "outputs": [
        {
          "internalType": "address",
          "name": "",
          "type": "address"
        }
      ],
      "stateMutability": "view",
      "type": "function"
    },
    {
      "inputs": [],
      "name": "harvestVSP",
      "outputs": [],
      "stateMutability": "nonpayable",
      "type": "function"
    },
    {
      "inputs": [
        {
          "internalType": "address",
          "name": "_token",
          "type": "address"
        }
      ],
      "name": "isReservedToken",
      "outputs": [
        {
          "internalType": "bool",
          "name": "",
          "type": "bool"
        }
      ],
      "stateMutability": "view",
      "type": "function"
    },
    {
      "inputs": [],
      "name": "keepers",
      "outputs": [
        {
          "internalType": "address[]",
          "name": "",
          "type": "address[]"
        }
      ],
      "stateMutability": "view",
      "type": "function"
    },
    {
      "inputs": [],
      "name": "maxBorrowLimit",
      "outputs": [
        {
          "internalType": "uint256",
          "name": "",
          "type": "uint256"
        }
      ],
      "stateMutability": "view",
      "type": "function"
    },
    {
      "inputs": [
        {
          "internalType": "address",
          "name": "_newStrategy",
          "type": "address"
        }
      ],
      "name": "migrate",
      "outputs": [],
      "stateMutability": "nonpayable",
      "type": "function"
    },
    {
      "inputs": [],
      "name": "minBorrowLimit",
      "outputs": [
        {
          "internalType": "uint256",
          "name": "",
          "type": "uint256"
        }
      ],
      "stateMutability": "view",
      "type": "function"
    },
    {
      "inputs": [],
      "name": "pool",
      "outputs": [
        {
          "internalType": "address",
          "name": "",
          "type": "address"
        }
      ],
      "stateMutability": "view",
      "type": "function"
    },
    {
      "inputs": [],
      "name": "rebalance",
      "outputs": [
        {
          "internalType": "uint256",
          "name": "_profit",
          "type": "uint256"
        },
        {
          "internalType": "uint256",
          "name": "_loss",
          "type": "uint256"
        },
        {
          "internalType": "uint256",
          "name": "_payback",
          "type": "uint256"
        }
      ],
      "stateMutability": "nonpayable",
      "type": "function"
    },
    {
      "inputs": [],
      "name": "receiptToken",
      "outputs": [
        {
          "internalType": "address",
          "name": "",
          "type": "address"
        }
      ],
      "stateMutability": "view",
      "type": "function"
    },
    {
      "inputs": [
        {
          "internalType": "address",
          "name": "_keeperAddress",
          "type": "address"
        }
      ],
      "name": "removeKeeper",
      "outputs": [],
      "stateMutability": "nonpayable",
      "type": "function"
    },
    {
      "inputs": [],
      "name": "rewardToken",
      "outputs": [
        {
          "internalType": "address",
          "name": "",
          "type": "address"
        }
      ],
      "stateMutability": "view",
      "type": "function"
    },
    {
      "inputs": [],
      "name": "stkAAVE",
      "outputs": [
        {
          "internalType": "contract StakedAave",
          "name": "",
          "type": "address"
        }
      ],
      "stateMutability": "view",
      "type": "function"
    },
    {
      "inputs": [],
      "name": "swapper",
      "outputs": [
        {
          "internalType": "contract IRoutedSwapper",
          "name": "",
          "type": "address"
        }
      ],
      "stateMutability": "view",
      "type": "function"
    },
    {
      "inputs": [
        {
          "internalType": "address",
          "name": "_fromToken",
          "type": "address"
        }
      ],
      "name": "sweepERC20",
      "outputs": [],
      "stateMutability": "nonpayable",
      "type": "function"
    },
    {
      "inputs": [],
      "name": "token",
      "outputs": [
        {
          "internalType": "address",
          "name": "",
          "type": "address"
        }
      ],
      "stateMutability": "view",
      "type": "function"
    },
    {
      "inputs": [],
      "name": "tvl",
      "outputs": [
        {
          "internalType": "uint256",
          "name": "",
          "type": "uint256"
        }
      ],
      "stateMutability": "view",
      "type": "function"
    },
    {
      "inputs": [
        {
          "internalType": "uint256",
          "name": "_minBorrowLimit",
          "type": "uint256"
        },
        {
          "internalType": "uint256",
          "name": "_maxBorrowLimit",
          "type": "uint256"
        }
      ],
      "name": "updateBorrowLimit",
      "outputs": [],
      "stateMutability": "nonpayable",
      "type": "function"
    },
    {
      "inputs": [
        {
          "internalType": "address",
          "name": "_feeCollector",
          "type": "address"
        }
      ],
      "name": "updateFeeCollector",
      "outputs": [],
      "stateMutability": "nonpayable",
      "type": "function"
    },
    {
      "inputs": [
        {
          "internalType": "contract IRoutedSwapper",
          "name": "_swapper",
          "type": "address"
        }
      ],
      "name": "updateSwapper",
      "outputs": [],
      "stateMutability": "nonpayable",
      "type": "function"
    },
    {
      "inputs": [],
      "name": "vPool",
      "outputs": [
        {
          "internalType": "contract IVesperPool",
          "name": "",
          "type": "address"
        }
      ],
      "stateMutability": "view",
      "type": "function"
    },
    {
      "inputs": [],
      "name": "vdToken",
      "outputs": [
        {
          "internalType": "contract AToken",
          "name": "",
          "type": "address"
        }
      ],
      "stateMutability": "view",
      "type": "function"
    },
    {
      "inputs": [],
      "name": "vsp",
      "outputs": [
        {
          "internalType": "address",
          "name": "",
          "type": "address"
        }
      ],
      "stateMutability": "view",
      "type": "function"
    },
    {
      "inputs": [
        {
          "internalType": "uint256",
          "name": "_amount",
          "type": "uint256"
        }
      ],
      "name": "withdraw",
      "outputs": [],
      "stateMutability": "nonpayable",
      "type": "function"
    }
  ],
  "transactionHash": "0xa18f5cc52ef96564eb6117dd3e0071ce28775956fbc4703a0a11166b28ca2547",
  "args": [
    "0xd1C117319B3595fbc39b471AB1fd485629eb05F2",
    "0x8f156189A3CD28dFc8FB7BbbAce58F98F09c0bB3",
    "0x7Fc66500c84A76Ad7e9c93437bFc5Ac33E2DDaE9",
    "0x030bA81f1c18d280636F32af80b9AAd02Cf0854e",
    "0x6B175474E89094C44Da98b954EedeAC495271d0F",
    "0x0538C8bAc84E95A9dF8aC10Aad17DbE81b9E36ee",
    "0x1b40183EFB4Dd766f11bDa7A7c3AD8982e998421",
    "AaveV2_Vesper_Xy_ETH_DAI"
  ],
  "numDeployments": 1,
  "solcInputHash": "c843cc7c3b4219d4b265803edc8f79ad",
  "bytecode": "0x610180604052611b586007556121346008553480156200001e57600080fd5b50604051620056d5380380620056d58339810160408190526200004191620007ea565b878787878785828686826001600160a01b038316620000a75760405162461bcd60e51b815260206004820152601460248201527f706f6f6c2d616464726573732d69732d7a65726f00000000000000000000000060448201526064015b60405180910390fd5b6001600160a01b038216620000ff5760405162461bcd60e51b815260206004820152601760248201527f737761707065722d616464726573732d69732d7a65726f00000000000000000060448201526064016200009e565b600280546001600160a01b0319166001600160a01b0384811691909117909155831660a081905260408051637e062a3560e11b8152905163fc0c546a91600480820192602092909190829003018186803b1580156200015d57600080fd5b505afa15801562000172573d6000803e3d6000fd5b505050506040513d601f19601f820116820180604052508101906200019891906200093c565b6001600160a01b03908116608052600080546001600160a01b031916918316919091179055620001df620001c93390565b60036200067060201b62001ae91790919060201c565b620002215760405162461bcd60e51b81526020600482015260116024820152701859190b5ad9595c195c8b59985a5b1959607a1b60448201526064016200009e565b5050604080518082019091526002815261031360f41b602082015290506001600160a01b038216620002685760405162461bcd60e51b81526004016200009e919062000963565b506001600160a01b038116610120819052604080516375d2641360e01b815290516375d2641391600480820192602092909190829003018186803b158015620002b057600080fd5b505afa925050508015620002e3575060408051601f3d908101601f19168201909252620002e0918101906200093c565b60015b620002ee57620002fb565b6001600160a01b031660e0525b73b53c1a33016b2dc2ff3653530bff1848a515c8c561010081905260408051630261bf8b60e01b81529051630261bf8b91600480820192602092909190829003018186803b1580156200034d57600080fd5b505afa15801562000362573d6000803e3d6000fd5b505050506040513d601f19601f820116820180604052508101906200038891906200093c565b6001600160a01b0390811660c052610100516040516321f8a72160e01b8152600160f81b60048201529116906321f8a7219060240160206040518083038186803b158015620003d657600080fd5b505afa158015620003eb573d6000803e3d6000fd5b505050506040513d601f19601f820116820180604052508101906200041191906200093c565b600580546001600160a01b0319166001600160a01b039290921691909117905550805162000447906006906020840190620006e2565b50600980546001600160a01b0319166001600160a01b03868116919091179091556005546040516334924edb60e21b815284831660048201526000928392169063d2493b6c9060240160606040518083038186803b158015620004a957600080fd5b505afa158015620004be573d6000803e3d6000fd5b505050506040513d601f19601f82011682018060405250810190620004e4919062000998565b600b80546001600160a01b03199081166001600160a01b0393841617909155600a8054821698831698909817909755600c8054909716928116929092179095558a16151597506200058096505050505050505760405162461bcd60e51b815260206004820152601360248201527f696e76616c69642d7673702d616464726573730000000000000000000000000060448201526064016200009e565b600a5460408051637e062a3560e11b815290516001600160a01b039283169286169163fc0c546a916004808301926020929190829003018186803b158015620005c857600080fd5b505afa158015620005dd573d6000803e3d6000fd5b505050506040513d601f19601f820116820180604052508101906200060391906200093c565b6001600160a01b0316146200064f5760405162461bcd60e51b81526020600482015260116024820152701a5b9d985b1a590b59dc9bddcb5c1bdbdb607a1b60448201526064016200009e565b506001600160a01b039182166101405216610160525062000a299350505050565b600062000687836001600160a01b03841662000690565b90505b92915050565b6000818152600183016020526040812054620006d9575081546001818101845560008481526020808220909301849055845484825282860190935260409020919091556200068a565b5060006200068a565b828054620006f090620009ec565b90600052602060002090601f0160209004810192826200071457600085556200075f565b82601f106200072f57805160ff19168380011785556200075f565b828001600101855582156200075f579182015b828111156200075f57825182559160200191906001019062000742565b506200076d92915062000771565b5090565b5b808211156200076d576000815560010162000772565b6001600160a01b03811681146200079e57600080fd5b50565b634e487b7160e01b600052604160045260246000fd5b60005b83811015620007d4578181015183820152602001620007ba565b83811115620007e4576000848401525b50505050565b600080600080600080600080610100898b0312156200080857600080fd5b8851620008158162000788565b60208a0151909850620008288162000788565b60408a01519097506200083b8162000788565b60608a01519096506200084e8162000788565b60808a0151909550620008618162000788565b60a08a0151909450620008748162000788565b60c08a0151909350620008878162000788565b60e08a01519092506001600160401b0380821115620008a557600080fd5b818b0191508b601f830112620008ba57600080fd5b815181811115620008cf57620008cf620007a1565b604051601f8201601f19908116603f01168101908382118183101715620008fa57620008fa620007a1565b816040528281528e60208487010111156200091457600080fd5b62000927836020830160208801620007b7565b80955050505050509295985092959890939650565b6000602082840312156200094f57600080fd5b81516200095c8162000788565b9392505050565b602081526000825180602084015262000984816040850160208701620007b7565b601f01601f19169190910160400192915050565b600080600060608486031215620009ae57600080fd5b8351620009bb8162000788565b6020850151909350620009ce8162000788565b6040850151909250620009e18162000788565b809150509250925092565b600181811c9082168062000a0157607f821691505b6020821081141562000a2357634e487b7160e01b600052602260045260246000fd5b50919050565b60805160a05160c05160e05161010051610120516101405161016051614a7162000c64600039600081816102bf01528181610d4201528181610dd401526122d50152600081816103ba01528181610c290152818161229f0152818161331e015281816133ba01528181613cdf01528181613dc901528181613dfc015261435d015260008181610bbc0152818161187901528181611f7101528181612300015281816128af015281816138a301528181613afb01528181613baa0152613c860152600061298001526000818161037801528181612f7d0152612fd70152600081816104eb01528181612eec015281816138f70152818161392e01528181613f5801528181614173015261426d01526000818161024d01528181610585015281816108580152818161097401528181610a5201528181610aae01528181610f5b01528181610ff801528181611224015281816113ed0152818161192601528181611d1201528181611db2015281816121fd0152613fee01526000818161042e0152818161049e015281816108b701528181610952015281816109c601528181610a8501528181610df5015281816111880152818161161f015281816117dd01528181611e7201528181611ffc0152818161211f01528181612aac01528181612b8401528181612c0c01528181612f53015281816134aa01528181613564015281816136300152818161370c0152818161374b01528181613881015281816138d50152818161396401528181613ef00152613fcc0152614a716000f3fe608060405234801561001057600080fd5b50600436106102125760003560e01c8063951dc22c11610120578063e00af4a7116100b8578063f51896f81161007c578063f51896f814610520578063f7c618c114610528578063fb7ee1021461053b578063fc0c546a1461054e578063ffa1ad741461055f57600080fd5b8063e00af4a7146104c2578063e260d747146104d5578063e5328e06146104de578063e9d337b8146104e6578063ec78e8321461050d57600080fd5b8063951dc22c146103f757806399b71d5c1461040c578063a3f4df7e14610414578063b2016bd414610429578063c415b95c14610450578063ce5494bb14610463578063d2c35ce814610476578063d3033c3914610489578063d8dfeb451461049c57600080fd5b8063440d7248116101ae5780635f9d4d2e116101725780635f9d4d2e1461039a57806360a05a85146103ad5780636719578c146103b55780637d7c2a1c146103dc57806390d67514146103e457600080fd5b8063440d72481461031a578063456dc17a1461033d57806348ccda3c146103505780634fc90c2c1461036b5780635f2475ca1461037357600080fd5b80630181686c1461021757806314ae9f2e1461023357806316f0115b146102485780631fc29c011461027c57806321fc6bb01461029757806329ba73ed146102ba5780632b3297f9146102e15780632e1a7d4d146102f45780634032b72b14610307575b600080fd5b61022060085481565b6040519081526020015b60405180910390f35b6102466102413660046143e2565b610583565b005b61026f7f000000000000000000000000000000000000000000000000000000000000000081565b60405161022a91906143ff565b61026f734da27a545c0c5b758a6ba100e3a049001de870f581565b61029f61069e565b6040805193845260208401929092529082015260600161022a565b61026f7f000000000000000000000000000000000000000000000000000000000000000081565b60025461026f906001600160a01b031681565b610246610302366004614413565b610855565b6102466103153660046143e2565b610aac565b61032d6103283660046143e2565b610bb8565b604051901515815260200161022a565b600a5461026f906001600160a01b031681565b61026f737fc66500c84a76ad7e9c93437bfc5ac33e2ddae981565b610246610c25565b61026f7f000000000000000000000000000000000000000000000000000000000000000081565b60055461026f906001600160a01b031681565b61032d610e1a565b61026f7f000000000000000000000000000000000000000000000000000000000000000081565b61029f610e3d565b600b5461026f906001600160a01b031681565b6103ff610e7d565b60405161022a9190614470565b610246610e8e565b61041c610eca565b60405161022a91906144af565b61026f7f000000000000000000000000000000000000000000000000000000000000000081565b60015461026f906001600160a01b031681565b6102466104713660046143e2565b610f58565b6102466104843660046143e2565b611222565b6102466104973660046143e2565b6113eb565b7f000000000000000000000000000000000000000000000000000000000000000061026f565b6102466104d03660046143e2565b6115a8565b61022060075481565b6102206117c3565b61026f7f000000000000000000000000000000000000000000000000000000000000000081565b60005461026f906001600160a01b031681565b61032d611908565b60095461026f906001600160a01b031681565b6102466105493660046144e2565b611924565b6000546001600160a01b031661026f565b61041c604051806040016040528060058152602001640352e302e360dc1b81525081565b7f00000000000000000000000000000000000000000000000000000000000000006001600160a01b0316630c340a246040518163ffffffff1660e01b815260040160206040518083038186803b1580156105dc57600080fd5b505afa1580156105f0573d6000803e3d6000fd5b505050506040513d601f19601f820116820180604052508101906106149190614504565b6001600160a01b0316336001600160a01b03161461064d5760405162461bcd60e51b815260040161064490614521565b60405180910390fd5b610658600382611b05565b61069b5760405162461bcd60e51b81526020600482015260146024820152731c995b5bdd994b5ad9595c195c8b59985a5b195960621b6044820152606401610644565b50565b60405163091030c360e01b815260009081908190734da27a545c0c5b758a6ba100e3a049001de870f59063091030c3906106dc9030906004016143ff565b60206040518083038186803b1580156106f457600080fd5b505afa158015610708573d6000803e3d6000fd5b505050506040513d601f19601f8201168201806040525081019061072c9190614558565b9250734da27a545c0c5b758a6ba100e3a049001de870f56001600160a01b03166372b49d636040518163ffffffff1660e01b815260040160206040518083038186803b15801561077b57600080fd5b505afa15801561078f573d6000803e3d6000fd5b505050506040513d601f19601f820116820180604052508101906107b39190614558565b6107bd9084614587565b9150734da27a545c0c5b758a6ba100e3a049001de870f56001600160a01b031663359c4a966040518163ffffffff1660e01b815260040160206040518083038186803b15801561080c57600080fd5b505afa158015610820573d6000803e3d6000fd5b505050506040513d601f19601f820116820180604052508101906108449190614558565b61084e9083614587565b9050909192565b337f00000000000000000000000000000000000000000000000000000000000000006001600160a01b03161461089d5760405162461bcd60e51b81526004016106449061459f565b6040516370a0823160e01b81526000906001600160a01b037f000000000000000000000000000000000000000000000000000000000000000016906370a08231906108ec9030906004016143ff565b60206040518083038186803b15801561090457600080fd5b505afa158015610918573d6000803e3d6000fd5b505050506040513d601f19601f8201168201806040525081019061093c9190614558565b905081811061099d576109996001600160a01b037f0000000000000000000000000000000000000000000000000000000000000000167f000000000000000000000000000000000000000000000000000000000000000084611b1a565b5050565b6109af6109aa82846145d2565b611b75565b6040516370a0823160e01b81526001600160a01b037f000000000000000000000000000000000000000000000000000000000000000016906370a08231906109fb9030906004016143ff565b60206040518083038186803b158015610a1357600080fd5b505afa158015610a27573d6000803e3d6000fd5b505050506040513d601f19601f82011682018060405250810190610a4b9190614558565b90506109997f0000000000000000000000000000000000000000000000000000000000000000610a7b8484611b9d565b6001600160a01b037f0000000000000000000000000000000000000000000000000000000000000000169190611b1a565b7f00000000000000000000000000000000000000000000000000000000000000006001600160a01b0316630c340a246040518163ffffffff1660e01b815260040160206040518083038186803b158015610b0557600080fd5b505afa158015610b19573d6000803e3d6000fd5b505050506040513d601f19601f82011682018060405250810190610b3d9190614504565b6001600160a01b0316336001600160a01b031614610b6d5760405162461bcd60e51b815260040161064490614521565b610b78600382611ae9565b61069b5760405162461bcd60e51b81526020600482015260116024820152701859190b5ad9595c195c8b59985a5b1959607a1b6044820152606401610644565b60007f00000000000000000000000000000000000000000000000000000000000000006001600160a01b0316826001600160a01b03161480610c075750600b546001600160a01b038381169116145b80610c1f5750600a546001600160a01b038381169116145b92915050565b60007f00000000000000000000000000000000000000000000000000000000000000006001600160a01b0316638bc6beb26040518163ffffffff1660e01b815260040160206040518083038186803b158015610c8057600080fd5b505afa158015610c94573d6000803e3d6000fd5b505050506040513d601f19601f82011682018060405250810190610cb89190614504565b90506001600160a01b03811615610d285760405163d279c19160e01b81526001600160a01b0382169063d279c19190610cf59030906004016143ff565b600060405180830381600087803b158015610d0f57600080fd5b505af1158015610d23573d6000803e3d6000fd5b505050505b6040516370a0823160e01b81526000906001600160a01b037f000000000000000000000000000000000000000000000000000000000000000016906370a0823190610d779030906004016143ff565b60206040518083038186803b158015610d8f57600080fd5b505afa158015610da3573d6000803e3d6000fd5b505050506040513d601f19601f82011682018060405250810190610dc79190614558565b90508015610999576109997f00000000000000000000000000000000000000000000000000000000000000007f000000000000000000000000000000000000000000000000000000000000000083611bb3565b6000806000610e2761069e565b9250509150610e368282611c44565b9250505090565b60008080610e4e335b600390611ce8565b610e6a5760405162461bcd60e51b8152600401610644906145e9565b610e72611d0a565b925092509250909192565b6060610e896003612277565b905090565b610e9733610e46565b610eb35760405162461bcd60e51b8152600401610644906145e9565b610ebd6000612284565b610ec8600019612284565b565b60068054610ed790614619565b80601f0160208091040260200160405190810160405280929190818152602001828054610f0390614619565b8015610f505780601f10610f2557610100808354040283529160200191610f50565b820191906000526020600020905b815481529060010190602001808311610f3357829003601f168201915b505050505081565b337f00000000000000000000000000000000000000000000000000000000000000006001600160a01b031614610fa05760405162461bcd60e51b81526004016106449061459f565b6001600160a01b038116610ff65760405162461bcd60e51b815260206004820152601c60248201527f6e65772d73747261746567792d616464726573732d69732d7a65726f000000006044820152606401610644565b7f00000000000000000000000000000000000000000000000000000000000000006001600160a01b0316816001600160a01b03166316f0115b6040518163ffffffff1660e01b815260040160206040518083038186803b15801561105957600080fd5b505afa15801561106d573d6000803e3d6000fd5b505050506040513d601f19601f820116820180604052508101906110919190614504565b6001600160a01b0316146110e05760405162461bcd60e51b81526020600482015260166024820152756e6f742d76616c69642d6e65772d737472617465677960501b6044820152606401610644565b6110e9816122fe565b6000546040516370a0823160e01b81526111829183916001600160a01b03909116906370a082319061111f9030906004016143ff565b60206040518083038186803b15801561113757600080fd5b505afa15801561114b573d6000803e3d6000fd5b505050506040513d601f19601f8201168201806040525081019061116f9190614558565b6000546001600160a01b03169190611b1a565b61069b817f00000000000000000000000000000000000000000000000000000000000000006001600160a01b03166370a08231306040518263ffffffff1660e01b81526004016111d291906143ff565b60206040518083038186803b1580156111ea57600080fd5b505afa1580156111fe573d6000803e3d6000fd5b505050506040513d601f19601f82011682018060405250810190610a7b9190614558565b7f00000000000000000000000000000000000000000000000000000000000000006001600160a01b0316630c340a246040518163ffffffff1660e01b815260040160206040518083038186803b15801561127b57600080fd5b505afa15801561128f573d6000803e3d6000fd5b505050506040513d601f19601f820116820180604052508101906112b39190614504565b6001600160a01b0316336001600160a01b0316146112e35760405162461bcd60e51b815260040161064490614521565b6001600160a01b0381166113395760405162461bcd60e51b815260206004820152601d60248201527f6665652d636f6c6c6563746f722d616464726573732d69732d7a65726f0000006044820152606401610644565b6001546001600160a01b038281169116141561138f5760405162461bcd60e51b81526020600482015260156024820152746665652d636f6c6c6563746f722d69732d73616d6560581b6044820152606401610644565b6001546040516001600160a01b038084169216907f0f06062680f9bd68e786e9980d9bb03d73d5620fc3b345e417b6eacb310b970690600090a3600180546001600160a01b0319166001600160a01b0392909216919091179055565b7f00000000000000000000000000000000000000000000000000000000000000006001600160a01b0316630c340a246040518163ffffffff1660e01b815260040160206040518083038186803b15801561144457600080fd5b505afa158015611458573d6000803e3d6000fd5b505050506040513d601f19601f8201168201806040525081019061147c9190614504565b6001600160a01b0316336001600160a01b0316146114ac5760405162461bcd60e51b815260040161064490614521565b6001600160a01b0381166114fc5760405162461bcd60e51b8152602060048201526017602482015276737761707065722d616464726573732d69732d7a65726f60481b6044820152606401610644565b6002546001600160a01b038281169116141561154c5760405162461bcd60e51b815260206004820152600f60248201526e737761707065722d69732d73616d6560881b6044820152606401610644565b6002546040516001600160a01b038084169216907f6c953b7ec311055c20b96a42cea31e89528e375b1bf953a503db40854b3188fe90600090a3600280546001600160a01b0319166001600160a01b0392909216919091179055565b6115b133610e46565b6115cd5760405162461bcd60e51b8152600401610644906145e9565b6001546001600160a01b031661161d5760405162461bcd60e51b81526020600482015260156024820152741999594b58dbdb1b1958dd1bdc8b5b9bdd0b5cd95d605a1b6044820152606401610644565b7f00000000000000000000000000000000000000000000000000000000000000006001600160a01b0316816001600160a01b0316141561169f5760405162461bcd60e51b815260206004820152601f60248201527f6e6f742d616c6c6f7765642d746f2d73776565702d636f6c6c61746572616c006044820152606401610644565b6116a881610bb8565b156116ec5760405162461bcd60e51b815260206004820152601460248201527306e6f742d616c6c6f7765642d746f2d73776565760641b6044820152606401610644565b6001600160a01b03811673eeeeeeeeeeeeeeeeeeeeeeeeeeeeeeeeeeeeeeee14156117275760015461069b906001600160a01b03164761246c565b6040516370a0823160e01b81526000906001600160a01b038316906370a08231906117569030906004016143ff565b60206040518083038186803b15801561176e57600080fd5b505afa158015611782573d6000803e3d6000fd5b505050506040513d601f19601f820116820180604052508101906117a69190614558565b600154909150610999906001600160a01b03848116911683611b1a565b6040516370a0823160e01b81526000906001600160a01b037f000000000000000000000000000000000000000000000000000000000000000016906370a08231906118129030906004016143ff565b60206040518083038186803b15801561182a57600080fd5b505afa15801561183e573d6000803e3d6000fd5b505050506040513d601f19601f820116820180604052508101906118629190614558565b6040516370a0823160e01b81526001600160a01b037f000000000000000000000000000000000000000000000000000000000000000016906370a08231906118ae9030906004016143ff565b60206040518083038186803b1580156118c657600080fd5b505afa1580156118da573d6000803e3d6000fd5b505050506040513d601f19601f820116820180604052508101906118fe9190614558565b610e899190614587565b600080600061191561069e565b9250925050610e368282612585565b7f00000000000000000000000000000000000000000000000000000000000000006001600160a01b0316630c340a246040518163ffffffff1660e01b815260040160206040518083038186803b15801561197d57600080fd5b505afa158015611991573d6000803e3d6000fd5b505050506040513d601f19601f820116820180604052508101906119b59190614504565b6001600160a01b0316336001600160a01b0316146119e55760405162461bcd60e51b815260040161064490614521565b6127108110611a315760405162461bcd60e51b81526020600482015260186024820152771a5b9d985b1a590b5b585e0b589bdc9c9bddcb5b1a5b5a5d60421b6044820152606401610644565b80158015611a3d575081155b80611a4757508181115b611a935760405162461bcd60e51b815260206004820152601d60248201527f6d61782d73686f756c642d62652d6869676865722d7468616e2d6d696e0000006044820152606401610644565b6007546008546040805192835260208301859052820152606081018290527fedd77444afdf63401315e81ffe86d08f7865796e8ad2e11acf1d56a1393f07d59060800160405180910390a1600791909155600855565b6000611afe836001600160a01b03841661259a565b9392505050565b6000611afe836001600160a01b0384166125e9565b611b708363a9059cbb60e01b8484604051602401611b39929190614654565b60408051601f198184030181529190526020810180516001600160e01b03166001600160e01b0319909316929092179091526126dc565b505050565b6000611b826000836127ae565b9150508015611b9457611b9481612ead565b61099982612f4e565b6000818310611bac5781611afe565b5090919050565b600254604051636ccb2b0160e01b81526001600160a01b0390911690636ccb2b0190611bec90869086908690600190309060040161466d565b602060405180830381600087803b158015611c0657600080fd5b505af1158015611c1a573d6000803e3d6000fd5b505050506040513d601f19601f82011682018060405250810190611c3e9190614558565b50505050565b6040516370a0823160e01b81526000908190734da27a545c0c5b758a6ba100e3a049001de870f5906370a0823190611c809030906004016143ff565b60206040518083038186803b158015611c9857600080fd5b505afa158015611cac573d6000803e3d6000fd5b505050506040513d601f19601f82011682018060405250810190611cd09190614558565b118015611afe5750821580611afe5750504211919050565b6001600160a01b03811660009081526001830160205260408120541515611afe565b6000806000807f00000000000000000000000000000000000000000000000000000000000000006001600160a01b031663d53ddc26306040518263ffffffff1660e01b8152600401611d5c91906143ff565b60206040518083038186803b158015611d7457600080fd5b505afa158015611d88573d6000803e3d6000fd5b505050506040513d601f19601f82011682018060405250810190611dac9190614558565b905060007f00000000000000000000000000000000000000000000000000000000000000006001600160a01b0316639f2b2833306040518263ffffffff1660e01b8152600401611dfc91906143ff565b60206040518083038186803b158015611e1457600080fd5b505afa158015611e28573d6000803e3d6000fd5b505050506040513d601f19601f82011682018060405250810190611e4c9190614558565b90506000611e58612f79565b90508015611e9757600954611e97906001600160a01b03167f000000000000000000000000000000000000000000000000000000000000000083613285565b600b546040516370a0823160e01b81526000916001600160a01b0316906370a0823190611ec89030906004016143ff565b60206040518083038186803b158015611ee057600080fd5b505afa158015611ef4573d6000803e3d6000fd5b505050506040513d601f19601f82011682018060405250810190611f189190614558565b90506000611f24613311565b905080821115611f4557611f40611f3b82846145d2565b61348d565b611f57565b611f57611f5283836145d2565b613662565b6040516370a0823160e01b81526000906001600160a01b037f000000000000000000000000000000000000000000000000000000000000000016906370a0823190611fa69030906004016143ff565b60206040518083038186803b158015611fbe57600080fd5b505afa158015611fd2573d6000803e3d6000fd5b505050506040513d601f19601f82011682018060405250810190611ff69190614558565b905060007f00000000000000000000000000000000000000000000000000000000000000006001600160a01b03166370a08231306040518263ffffffff1660e01b815260040161204691906143ff565b60206040518083038186803b15801561205e57600080fd5b505afa158015612072573d6000803e3d6000fd5b505050506040513d601f19601f820116820180604052508101906120969190614558565b905060006120a48284614587565b9050868111156120bf576120b887826145d2565b9a506120cc565b6120c981886145d2565b99505b60006120d8898d614587565b9050808310156121a95760006120f76120f185846145d2565b86611b9d565b905080156121a75761210881611b75565b6040516370a0823160e01b81526001600160a01b037f000000000000000000000000000000000000000000000000000000000000000016906370a08231906121549030906004016143ff565b60206040518083038186803b15801561216c57600080fd5b505afa158015612180573d6000803e3d6000fd5b505050506040513d601f19601f820116820180604052508101906121a49190614558565b93505b505b6121b3838a611b9d565b99508983116121c35760006121d6565b6121d66121d08b856145d2565b8d611b9d565b6040516302df682360e11b815260048101829052602481018d9052604481018c9052909c507f00000000000000000000000000000000000000000000000000000000000000006001600160a01b0316906305bed04690606401600060405180830381600087803b15801561224957600080fd5b505af115801561225d573d6000803e3d6000fd5b50505050612269613731565b505050505050505050909192565b60606000611afe8361380f565b61228d8161386b565b600a546122c4906001600160a01b03167f0000000000000000000000000000000000000000000000000000000000000000836139c3565b60025461069b906001600160a01b037f000000000000000000000000000000000000000000000000000000000000000081169116836139c3565b7f00000000000000000000000000000000000000000000000000000000000000006001600160a01b0316816001600160a01b031663fc0c546a6040518163ffffffff1660e01b815260040160206040518083038186803b15801561236157600080fd5b505afa158015612375573d6000803e3d6000fd5b505050506040513d601f19601f820116820180604052508101906123999190614504565b6001600160a01b0316146123e55760405162461bcd60e51b81526020600482015260136024820152723bb937b73396b932b1b2b4b83a16ba37b5b2b760691b6044820152606401610644565b600b546040516370a0823160e01b815261069b916001600160a01b0316906370a08231906124179030906004016143ff565b60206040518083038186803b15801561242f57600080fd5b505afa158015612443573d6000803e3d6000fd5b505050506040513d601f19601f820116820180604052508101906124679190614558565b612ead565b804710156124bc5760405162461bcd60e51b815260206004820152601d60248201527f416464726573733a20696e73756666696369656e742062616c616e63650000006044820152606401610644565b6000826001600160a01b03168260405160006040518083038185875af1925050503d8060008114612509576040519150601f19603f3d011682016040523d82523d6000602084013e61250e565b606091505b5050905080611b705760405162461bcd60e51b815260206004820152603a60248201527f416464726573733a20756e61626c6520746f2073656e642076616c75652c207260448201527f6563697069656e74206d617920686176652072657665727465640000000000006064820152608401610644565b60008242118015611afe575050421115919050565b60008181526001830160205260408120546125e157508154600181810184556000848152602080822090930184905584548482528286019093526040902091909155610c1f565b506000610c1f565b600081815260018301602052604081205480156126d257600061260d6001836145d2565b8554909150600090612621906001906145d2565b90508181146126865760008660000182815481106126415761264161469d565b90600052602060002001549050808760000184815481106126645761266461469d565b6000918252602080832090910192909255918252600188019052604090208390555b8554869080612697576126976146b3565b600190038181906000526020600020016000905590558560010160008681526020019081526020016000206000905560019350505050610c1f565b6000915050610c1f565b6000612731826040518060400160405280602081526020017f5361666545524332303a206c6f772d6c6576656c2063616c6c206661696c6564815250856001600160a01b0316613ad69092919063ffffffff16565b805190915015611b70578080602001905181019061274f91906146de565b611b705760405162461bcd60e51b815260206004820152602a60248201527f5361666545524332303a204552433230206f7065726174696f6e20646964206e6044820152691bdd081cdd58d8d9595960b21b6064820152608401610644565b6000808315806127bc575082155b6127fc5760405162461bcd60e51b8152602060048201526011602482015270616c6c2d696e7075742d67742d7a65726f60781b6044820152606401610644565b600b546040516370a0823160e01b81526000916001600160a01b0316906370a082319061282d9030906004016143ff565b60206040518083038186803b15801561284557600080fd5b505afa158015612859573d6000803e3d6000fd5b505050506040513d601f19601f8201168201806040525081019061287d9190614558565b90506008546000141561289557600092509050612ea6565b6040516370a0823160e01b81526000906001600160a01b037f000000000000000000000000000000000000000000000000000000000000000016906370a08231906128e49030906004016143ff565b60206040518083038186803b1580156128fc57600080fd5b505afa158015612910573d6000803e3d6000fd5b505050506040513d601f19601f820116820180604052508101906129349190614558565b9050600080871161295c5785821161294d576000612966565b61295786836145d2565b612966565b6129668783614587565b90508061297c5760008394509450505050612ea6565b60007f00000000000000000000000000000000000000000000000000000000000000006001600160a01b031663fca513a86040518163ffffffff1660e01b815260040160206040518083038186803b1580156129d757600080fd5b505afa1580156129eb573d6000803e3d6000fd5b505050506040513d601f19601f82011682018060405250810190612a0f9190614504565b600a5460405163b3596f0760e01b81529192506000916001600160a01b038085169263b3596f0792612a4792909116906004016143ff565b60206040518083038186803b158015612a5f57600080fd5b505afa158015612a73573d6000803e3d6000fd5b505050506040513d601f19601f82011682018060405250810190612a979190614558565b90506000826001600160a01b031663b3596f077f00000000000000000000000000000000000000000000000000000000000000006040518263ffffffff1660e01b8152600401612ae791906143ff565b60206040518083038186803b158015612aff57600080fd5b505afa158015612b13573d6000803e3d6000fd5b505050506040513d601f19601f82011682018060405250810190612b379190614558565b9050811580612b44575080155b15612b5b5760008697509750505050505050612ea6565b600554604051633e15014160e01b81526000916001600160a01b031690633e15014190612bac907f0000000000000000000000000000000000000000000000000000000000000000906004016143ff565b6101406040518083038186803b158015612bc557600080fd5b505afa158015612bd9573d6000803e3d6000fd5b505050506040513d601f19601f82011682018060405250810190612bfd91906146f9565b505050505050505091505060007f00000000000000000000000000000000000000000000000000000000000000006001600160a01b031663313ce5676040518163ffffffff1660e01b815260040160206040518083038186803b158015612c6357600080fd5b505afa158015612c77573d6000803e3d6000fd5b505050506040513d601f19601f82011682018060405250810190612c9b9190614790565b612ca690600a614897565b612cb2906127106148a6565b83612cbd84896148a6565b612cc791906148a6565b612cd191906148c5565b9050600084600a60009054906101000a90046001600160a01b03166001600160a01b031663313ce5676040518163ffffffff1660e01b815260040160206040518083038186803b158015612d2457600080fd5b505afa158015612d38573d6000803e3d6000fd5b505050506040513d601f19601f82011682018060405250810190612d5c9190614790565b612d6790600a614897565b612d7190846148a6565b612d7b91906148c5565b905080612d97576000899a509a50505050505050505050612ea6565b600061271060085483612daa91906148a6565b612db491906148c5565b9050600061271060075484612dc991906148a6565b612dd391906148c5565b9050818b1115612dee57612de7818c6145d2565b9b50612e9a565b8a811115612e9a57612e008b826145d2565b600a54600c546040516370a0823160e01b8152929f506000926001600160a01b03928316926370a0823192612e3a929116906004016143ff565b60206040518083038186803b158015612e5257600080fd5b505afa158015612e66573d6000803e3d6000fd5b505050506040513d601f19601f82011682018060405250810190612e8a9190614558565b9050808e1115612e9857809d505b505b50505050505050505050505b9250929050565b612eb681613aed565b600a5460405163573ade8160e01b81526001600160a01b03918216600482015260248101839052600260448201523060648201527f00000000000000000000000000000000000000000000000000000000000000009091169063573ade81906084015b600060405180830381600087803b158015612f3357600080fd5b505af1158015612f47573d6000803e3d6000fd5b5050505050565b6109997f00000000000000000000000000000000000000000000000000000000000000003083613af6565b60007f00000000000000000000000000000000000000000000000000000000000000006001600160a01b0316612faf5750600090565b6000806000612fbc61069e565b9250925092508260001480612fd057508042115b15613082577f00000000000000000000000000000000000000000000000000000000000000006001600160a01b0316633111e7b361300c613c5e565b600019306040518463ffffffff1660e01b815260040161302e939291906148e7565b602060405180830381600087803b15801561304857600080fd5b505af115801561305c573d6000803e3d6000fd5b505050506040513d601f19601f820116820180604052508101906130809190614558565b505b61308a61069e565b9194509250905061309b8282612585565b15613112576040516301e9a69560e41b8152734da27a545c0c5b758a6ba100e3a049001de870f590631e9a6950906130db90309060001990600401614654565b600060405180830381600087803b1580156130f557600080fd5b505af1158015613109573d6000803e3d6000fd5b50505050613189565b61311c8382611c44565b1561318957734da27a545c0c5b758a6ba100e3a049001de870f56001600160a01b031663787a08a66040518163ffffffff1660e01b8152600401600060405180830381600087803b15801561317057600080fd5b505af1158015613184573d6000803e3d6000fd5b505050505b6040516309a99b4f60e41b8152734da27a545c0c5b758a6ba100e3a049001de870f590639a99b4f0906131c490309060001990600401614654565b600060405180830381600087803b1580156131de57600080fd5b505af11580156131f2573d6000803e3d6000fd5b50506040516370a0823160e01b8152737fc66500c84a76ad7e9c93437bfc5ac33e2ddae992506370a08231915061322d9030906004016143ff565b60206040518083038186803b15801561324557600080fd5b505afa158015613259573d6000803e3d6000fd5b505050506040513d601f19601f8201168201806040525081019061327d9190614558565b935050505090565b600254604051636ccb2b0160e01b81526001600160a01b0390911690636ccb2b01906132be90869086908690600190309060040161466d565b602060405180830381600087803b1580156132d857600080fd5b505af1925050508015613308575060408051601f3d908101601f1916820190925261330591810190614558565b60015b611c3e57505050565b6000670de0b6b3a76400007f00000000000000000000000000000000000000000000000000000000000000006001600160a01b03166370a08231306040518263ffffffff1660e01b815260040161336891906143ff565b60206040518083038186803b15801561338057600080fd5b505afa158015613394573d6000803e3d6000fd5b505050506040513d601f19601f820116820180604052508101906133b89190614558565b7f00000000000000000000000000000000000000000000000000000000000000006001600160a01b03166399530b066040518163ffffffff1660e01b815260040160206040518083038186803b15801561341157600080fd5b505afa158015613425573d6000803e3d6000fd5b505050506040513d601f19601f820116820180604052508101906134499190614558565b61345391906148a6565b61345d91906148c5565b600a546040516370a0823160e01b81526001600160a01b03909116906370a08231906118ae9030906004016143ff565b600254600a546040516353b609b560e01b81526001600160a01b037f00000000000000000000000000000000000000000000000000000000000000008116600483015291821660248201526044810184905260009291909116906353b609b590606401602060405180830381600087803b15801561350a57600080fd5b505af115801561351e573d6000803e3d6000fd5b505050506040513d601f19601f820116820180604052508101906135429190614558565b90508015610999576040516370a0823160e01b81526000906001600160a01b037f000000000000000000000000000000000000000000000000000000000000000016906370a08231906135999030906004016143ff565b60206040518083038186803b1580156135b157600080fd5b505afa1580156135c5573d6000803e3d6000fd5b505050506040513d601f19601f820116820180604052508101906135e99190614558565b9050808211156136055761360561360082846145d2565b612f4e565b600254600a546040516381cc619b60e01b81526001600160a01b03928316926381cc619b92611bec927f0000000000000000000000000000000000000000000000000000000000000000929091169088908890309060040161466d565b801561069b5761367181613cd5565b600a546040516370a0823160e01b81526000916001600160a01b0316906370a08231906136a29030906004016143ff565b60206040518083038186803b1580156136ba57600080fd5b505afa1580156136ce573d6000803e3d6000fd5b505050506040513d601f19601f820116820180604052508101906136f29190614558565b9050801561099957600a54610999906001600160a01b03167f000000000000000000000000000000000000000000000000000000000000000083613285565b6040516370a0823160e01b81526000906001600160a01b037f000000000000000000000000000000000000000000000000000000000000000016906370a08231906137809030906004016143ff565b60206040518083038186803b15801561379857600080fd5b505afa1580156137ac573d6000803e3d6000fd5b505050506040513d601f19601f820116820180604052508101906137d09190614558565b90506000806137e08360006127ae565b909250905080156137fd576137f481612ead565b611b7083613eeb565b61380683613eeb565b611b7082613f15565b60608160000180548060200260200160405190810160405280929190818152602001828054801561385f57602002820191906000526020600020905b81548152602001906001019080831161384b575b50505050509050919050565b61387481613fbf565b6138c86001600160a01b037f0000000000000000000000000000000000000000000000000000000000000000167f0000000000000000000000000000000000000000000000000000000000000000836139c3565b61391c6001600160a01b037f0000000000000000000000000000000000000000000000000000000000000000167f0000000000000000000000000000000000000000000000000000000000000000836139c3565b600a54613953906001600160a01b03167f0000000000000000000000000000000000000000000000000000000000000000836139c3565b60025461398d906001600160a01b037f000000000000000000000000000000000000000000000000000000000000000081169116836139c3565b6002546009546139aa916001600160a01b039182169116836139c3565b600254600a5461069b916001600160a01b039182169116835b801580613a4c5750604051636eb1769f60e11b81523060048201526001600160a01b03838116602483015284169063dd62ed3e9060440160206040518083038186803b158015613a1257600080fd5b505afa158015613a26573d6000803e3d6000fd5b505050506040513d601f19601f82011682018060405250810190613a4a9190614558565b155b613ab75760405162461bcd60e51b815260206004820152603660248201527f5361666545524332303a20617070726f76652066726f6d206e6f6e2d7a65726f60448201527520746f206e6f6e2d7a65726f20616c6c6f77616e636560501b6064820152608401610644565b611b708363095ea7b360e01b8484604051602401611b39929190614654565b6060613ae58484600085614013565b949350505050565b61069b81613cd5565b6000807f00000000000000000000000000000000000000000000000000000000000000006001600160a01b03166370a08231306040518263ffffffff1660e01b8152600401613b4591906143ff565b60206040518083038186803b158015613b5d57600080fd5b505afa158015613b71573d6000803e3d6000fd5b505050506040513d601f19601f82011682018060405250810190613b959190614558565b90506000856001600160a01b03166370a082317f00000000000000000000000000000000000000000000000000000000000000006040518263ffffffff1660e01b8152600401613be591906143ff565b60206040518083038186803b158015613bfd57600080fd5b505afa158015613c11573d6000803e3d6000fd5b505050506040513d601f19601f82011682018060405250810190613c359190614558565b9050613c548686613c4f87613c4a8787611b9d565b611b9d565b61413b565b9695505050505050565b60408051600180825281830190925260609160009190602080830190803683370190505090507f000000000000000000000000000000000000000000000000000000000000000081600081518110613cb857613cb861469d565b6001600160a01b0390921660209283029190910190910152919050565b801561069b5760007f00000000000000000000000000000000000000000000000000000000000000006001600160a01b03166399530b066040518163ffffffff1660e01b815260040160206040518083038186803b158015613d3657600080fd5b505afa158015613d4a573d6000803e3d6000fd5b505050506040513d601f19601f82011682018060405250810190613d6e9190614558565b9050600081613d8584670de0b6b3a76400006148a6565b613d8f91906148c5565b9050670de0b6b3a7640000613da483836148a6565b613dae91906148c5565b8311613dba5780613dc5565b613dc5816001614587565b90507f00000000000000000000000000000000000000000000000000000000000000006001600160a01b0316632e1a7d4d613e96837f00000000000000000000000000000000000000000000000000000000000000006001600160a01b03166370a08231306040518263ffffffff1660e01b8152600401613e4691906143ff565b60206040518083038186803b158015613e5e57600080fd5b505afa158015613e72573d6000803e3d6000fd5b505050506040513d601f19601f82011682018060405250810190613c4a9190614558565b6040518263ffffffff1660e01b8152600401613eb491815260200190565b600060405180830381600087803b158015613ece57600080fd5b505af1158015613ee2573d6000803e3d6000fd5b50505050505050565b61069b7f000000000000000000000000000000000000000000000000000000000000000082614234565b801561069b57600a5460405163a415bcad60e01b81526001600160a01b0391821660048201526024810183905260026044820152600060648201523060848201527f00000000000000000000000000000000000000000000000000000000000000009091169063a415bcad9060a401600060405180830381600087803b158015613f9e57600080fd5b505af1158015613fb2573d6000803e3d6000fd5b5050505061069b81614347565b61069b6001600160a01b037f0000000000000000000000000000000000000000000000000000000000000000167f0000000000000000000000000000000000000000000000000000000000000000836139c3565b6060824710156140745760405162461bcd60e51b815260206004820152602660248201527f416464726573733a20696e73756666696369656e742062616c616e636520666f6044820152651c8818d85b1b60d21b6064820152608401610644565b843b6140c25760405162461bcd60e51b815260206004820152601d60248201527f416464726573733a2063616c6c20746f206e6f6e2d636f6e74726163740000006044820152606401610644565b600080866001600160a01b031685876040516140de919061491a565b60006040518083038185875af1925050503d806000811461411b576040519150601f19603f3d011682016040523d82523d6000602084013e614120565b606091505b5091509150614130828286614394565b979650505050505050565b6000811561422d57604051631a4ca37b60e21b81526001600160a01b03858116600483015260248201849052848116604483015283917f0000000000000000000000000000000000000000000000000000000000000000909116906369328dec90606401602060405180830381600087803b1580156141b957600080fd5b505af11580156141cd573d6000803e3d6000fd5b505050506040513d601f19601f820116820180604052508101906141f19190614558565b1460405180604001604052806002815260200161323960f01b8152509061422b5760405162461bcd60e51b815260040161064491906144af565b505b5092915050565b80156109995760405163e8eda9df60e01b81526001600160a01b03838116600483015260248201839052306044830152600060648301527f0000000000000000000000000000000000000000000000000000000000000000169063e8eda9df90608401600060405180830381600087803b1580156142b157600080fd5b505af19250505080156142c2575060015b610999576142ce614936565b806308c379a0141561433b57506142e361498d565b806142ee575061433d565b6142f781614a17565b611a9b60f11b14611b705760405162461bcd60e51b815260206004820152600e60248201526d19195c1bdcda5d0819985a5b195960921b6044820152606401610644565b505b3d6000803e3d6000fd5b60405163b6b55f2560e01b8152600481018290527f00000000000000000000000000000000000000000000000000000000000000006001600160a01b03169063b6b55f2590602401612f19565b606083156143a3575081611afe565b8251156143b35782518084602001fd5b8160405162461bcd60e51b815260040161064491906144af565b6001600160a01b038116811461069b57600080fd5b6000602082840312156143f457600080fd5b8135611afe816143cd565b6001600160a01b0391909116815260200190565b60006020828403121561442557600080fd5b5035919050565b600081518084526020808501945080840160005b838110156144655781516001600160a01b031687529582019590820190600101614440565b509495945050505050565b602081526000611afe602083018461442c565b60005b8381101561449e578181015183820152602001614486565b83811115611c3e5750506000910152565b60208152600082518060208401526144ce816040850160208701614483565b601f01601f19169190910160400192915050565b600080604083850312156144f557600080fd5b50508035926020909101359150565b60006020828403121561451657600080fd5b8151611afe816143cd565b6020808252601a908201527f63616c6c65722d69732d6e6f742d7468652d676f7665726e6f72000000000000604082015260600190565b60006020828403121561456a57600080fd5b5051919050565b634e487b7160e01b600052601160045260246000fd5b6000821982111561459a5761459a614571565b500190565b60208082526019908201527818d85b1b195c8b5a5ccb5b9bdd0b5d995cdc195c8b5c1bdbdb603a1b604082015260600190565b6000828210156145e4576145e4614571565b500390565b60208082526016908201527531b0b63632b916b4b996b737ba16b096b5b2b2b832b960511b604082015260600190565b600181811c9082168061462d57607f821691505b6020821081141561464e57634e487b7160e01b600052602260045260246000fd5b50919050565b6001600160a01b03929092168252602082015260400190565b6001600160a01b039586168152938516602085015260408401929092526060830152909116608082015260a00190565b634e487b7160e01b600052603260045260246000fd5b634e487b7160e01b600052603160045260246000fd5b805180151581146146d957600080fd5b919050565b6000602082840312156146f057600080fd5b611afe826146c9565b6000806000806000806000806000806101408b8d03121561471957600080fd5b8a51995060208b0151985060408b0151975060608b0151965060808b0151955061474560a08c016146c9565b945061475360c08c016146c9565b935061476160e08c016146c9565b92506147706101008c016146c9565b915061477f6101208c016146c9565b90509295989b9194979a5092959850565b6000602082840312156147a257600080fd5b815160ff81168114611afe57600080fd5b600181815b808511156147ee5781600019048211156147d4576147d4614571565b808516156147e157918102915b93841c93908002906147b8565b509250929050565b60008261480557506001610c1f565b8161481257506000610c1f565b816001811461482857600281146148325761484e565b6001915050610c1f565b60ff84111561484357614843614571565b50506001821b610c1f565b5060208310610133831016604e8410600b8410161715614871575081810a610c1f565b61487b83836147b3565b806000190482111561488f5761488f614571565b029392505050565b6000611afe60ff8416836147f6565b60008160001904831182151516156148c0576148c0614571565b500290565b6000826148e257634e487b7160e01b600052601260045260246000fd5b500490565b6060815260006148fa606083018661442c565b6020830194909452506001600160a01b0391909116604090910152919050565b6000825161492c818460208701614483565b9190910192915050565b600060033d111561494f5760046000803e5060005160e01c5b90565b601f8201601f1916810167ffffffffffffffff8111828210171561498657634e487b7160e01b600052604160045260246000fd5b6040525050565b600060443d101561499b5790565b6040516003193d81016004833e81513d67ffffffffffffffff81602484011181841117156149cb57505050505090565b82850191508151818111156149e35750505050505090565b843d87010160208285010111156149fd5750505050505090565b614a0c60208286010187614952565b509095945050505050565b8051602080830151919081101561464e5760001960209190910360031b1b1691905056fea264697066735822122061b8dddc49f4bccaed5b44cac522a1a7695b245ddf171b3a04504a63c6cf553864736f6c63430008090033",
  "devdoc": {
    "kind": "dev",
    "methods": {
      "addKeeper(address)": {
        "params": {
          "_keeperAddress": "keeper address to add."
        }
      },
      "approveToken()": {
        "details": "Approve all required tokens"
      },
      "migrate(address)": {
        "details": "_beforeMigration hook can be implemented in child strategy to do extra steps.",
        "params": {
          "_newStrategy": "Address of new strategy"
        }
      },
      "rebalance()": {
        "returns": {
          "_loss": "Realized loss, if any, in collateral.",
          "_payback": "If strategy has any excess debt, we have to liquidate asset to payback excess debt.",
          "_profit": "Realized profit in collateral."
        }
      },
      "removeKeeper(address)": {
        "params": {
          "_keeperAddress": "keeper address to remove."
        }
      },
      "sweepERC20(address)": {
        "params": {
          "_fromToken": "token address to sweep"
        }
      },
      "updateBorrowLimit(uint256,uint256)": {
        "details": "It is possible to set _maxBorrowLimit and _minBorrowLimit as 0 to not borrow anything",
        "params": {
          "_maxBorrowLimit": "It is % of actual collateral factor of protocol",
          "_minBorrowLimit": "It is % of actual collateral factor of protocol"
        }
      },
      "updateFeeCollector(address)": {
        "params": {
          "_feeCollector": "fee collector address"
        }
      },
      "updateSwapper(address)": {
        "params": {
          "_swapper": "swapper address"
        }
      },
      "withdraw(uint256)": {
        "params": {
          "_amount": "Amount of collateral token"
        }
      }
    },
    "title": "Deposit Collateral in Aave and earn interest by depositing borrowed token in a Vesper Pool.",
    "version": 1
  },
  "userdoc": {
    "kind": "user",
    "methods": {
      "addKeeper(address)": {
        "notice": "Add given address in keepers list."
      },
      "canStartCooldown()": {
        "notice": "Returns true if we should start cooldown"
      },
      "canUnstake()": {
        "notice": "Returns true if Aave can be unstaked"
      },
      "collateral()": {
        "notice": "Returns address of token correspond to collateral token"
      },
      "cooldownData()": {
        "notice": "Return cooldown related timestamps"
      },
      "harvestVSP()": {
        "notice": "Claim VSP and convert to collateral token"
      },
      "isReservedToken(address)": {
        "notice": "Check whether given token is reserved or not. Reserved tokens are not allowed to sweep."
      },
      "keepers()": {
        "notice": "Return list of keepers"
      },
      "migrate(address)": {
        "notice": "Migrate all asset and vault ownership,if any, to new strategy"
      },
      "rebalance()": {
        "notice": "OnlyKeeper: Rebalance profit, loss and investment of this strategy.  Calculate profit, loss and payback of this strategy and realize profit/loss and  withdraw fund for payback, if any, and submit this report to pool."
      },
      "removeKeeper(address)": {
        "notice": "Remove given address from keepers list."
      },
      "sweepERC20(address)": {
        "notice": "sweep given token to feeCollector of strategy"
      },
      "token()": {
        "notice": "Returns address of token correspond to receipt token"
      },
      "tvl()": {
        "notice": "Returns total collateral locked in the strategy"
      },
      "updateBorrowLimit(uint256,uint256)": {
        "notice": "Update upper and lower borrow limit. Usually maxBorrowLimit < 100% of actual collateral factor of protocol."
      },
      "updateFeeCollector(address)": {
        "notice": "Update fee collector"
      },
      "updateSwapper(address)": {
        "notice": "Update swapper"
      },
      "withdraw(uint256)": {
        "notice": "Withdraw collateral token from end protocol."
      }
    },
    "version": 1
  },
  "storageLayout": {
    "storage": [
      {
        "astId": 10341,
        "contract": "vesper-strategies/contracts/strategies/aave/v2/AaveV2VesperXy.sol:AaveV2VesperXy",
        "label": "receiptToken",
        "offset": 0,
        "slot": "0",
        "type": "t_address"
      },
      {
        "astId": 10347,
        "contract": "vesper-strategies/contracts/strategies/aave/v2/AaveV2VesperXy.sol:AaveV2VesperXy",
        "label": "feeCollector",
        "offset": 0,
        "slot": "1",
        "type": "t_address"
      },
      {
        "astId": 10350,
        "contract": "vesper-strategies/contracts/strategies/aave/v2/AaveV2VesperXy.sol:AaveV2VesperXy",
        "label": "swapper",
        "offset": 0,
        "slot": "2",
        "type": "t_contract(IRoutedSwapper)10314"
      },
      {
        "astId": 10363,
        "contract": "vesper-strategies/contracts/strategies/aave/v2/AaveV2VesperXy.sol:AaveV2VesperXy",
        "label": "_keepers",
        "offset": 0,
        "slot": "3",
        "type": "t_struct(AddressSet)2691_storage"
      },
      {
        "astId": 10975,
        "contract": "vesper-strategies/contracts/strategies/aave/v2/AaveV2VesperXy.sol:AaveV2VesperXy",
        "label": "aaveProtocolDataProvider",
        "offset": 0,
        "slot": "5",
        "type": "t_contract(AaveProtocolDataProvider)9987"
      },
      {
        "astId": 11889,
        "contract": "vesper-strategies/contracts/strategies/aave/v2/AaveV2VesperXy.sol:AaveV2VesperXy",
        "label": "NAME",
        "offset": 0,
        "slot": "6",
        "type": "t_string_storage"
      },
      {
        "astId": 11898,
        "contract": "vesper-strategies/contracts/strategies/aave/v2/AaveV2VesperXy.sol:AaveV2VesperXy",
        "label": "minBorrowLimit",
        "offset": 0,
        "slot": "7",
        "type": "t_uint256"
      },
      {
        "astId": 11901,
        "contract": "vesper-strategies/contracts/strategies/aave/v2/AaveV2VesperXy.sol:AaveV2VesperXy",
        "label": "maxBorrowLimit",
        "offset": 0,
        "slot": "8",
        "type": "t_uint256"
      },
      {
        "astId": 11906,
        "contract": "vesper-strategies/contracts/strategies/aave/v2/AaveV2VesperXy.sol:AaveV2VesperXy",
        "label": "rewardToken",
        "offset": 0,
        "slot": "9",
        "type": "t_address"
      },
      {
        "astId": 11908,
        "contract": "vesper-strategies/contracts/strategies/aave/v2/AaveV2VesperXy.sol:AaveV2VesperXy",
        "label": "borrowToken",
        "offset": 0,
        "slot": "10",
        "type": "t_address"
      },
      {
        "astId": 11911,
        "contract": "vesper-strategies/contracts/strategies/aave/v2/AaveV2VesperXy.sol:AaveV2VesperXy",
        "label": "vdToken",
        "offset": 0,
        "slot": "11",
        "type": "t_contract(AToken)9787"
      },
      {
        "astId": 11913,
        "contract": "vesper-strategies/contracts/strategies/aave/v2/AaveV2VesperXy.sol:AaveV2VesperXy",
        "label": "aBorrowToken",
        "offset": 0,
        "slot": "12",
        "type": "t_address"
      }
    ],
    "types": {
      "t_address": {
        "encoding": "inplace",
        "label": "address",
        "numberOfBytes": "20"
      },
      "t_array(t_bytes32)dyn_storage": {
        "base": "t_bytes32",
        "encoding": "dynamic_array",
        "label": "bytes32[]",
        "numberOfBytes": "32"
      },
      "t_bytes32": {
        "encoding": "inplace",
        "label": "bytes32",
        "numberOfBytes": "32"
      },
      "t_contract(AToken)9787": {
        "encoding": "inplace",
        "label": "contract AToken",
        "numberOfBytes": "20"
      },
      "t_contract(AaveProtocolDataProvider)9987": {
        "encoding": "inplace",
        "label": "contract AaveProtocolDataProvider",
        "numberOfBytes": "20"
      },
      "t_contract(IRoutedSwapper)10314": {
        "encoding": "inplace",
        "label": "contract IRoutedSwapper",
        "numberOfBytes": "20"
      },
      "t_mapping(t_bytes32,t_uint256)": {
        "encoding": "mapping",
        "key": "t_bytes32",
        "label": "mapping(bytes32 => uint256)",
        "numberOfBytes": "32",
        "value": "t_uint256"
      },
      "t_string_storage": {
        "encoding": "bytes",
        "label": "string",
        "numberOfBytes": "32"
      },
      "t_struct(AddressSet)2691_storage": {
        "encoding": "inplace",
        "label": "struct EnumerableSet.AddressSet",
        "members": [
          {
            "astId": 2690,
            "contract": "vesper-strategies/contracts/strategies/aave/v2/AaveV2VesperXy.sol:AaveV2VesperXy",
            "label": "_inner",
            "offset": 0,
            "slot": "0",
            "type": "t_struct(Set)2390_storage"
          }
        ],
        "numberOfBytes": "64"
      },
      "t_struct(Set)2390_storage": {
        "encoding": "inplace",
        "label": "struct EnumerableSet.Set",
        "members": [
          {
            "astId": 2385,
            "contract": "vesper-strategies/contracts/strategies/aave/v2/AaveV2VesperXy.sol:AaveV2VesperXy",
            "label": "_values",
            "offset": 0,
            "slot": "0",
            "type": "t_array(t_bytes32)dyn_storage"
          },
          {
            "astId": 2389,
            "contract": "vesper-strategies/contracts/strategies/aave/v2/AaveV2VesperXy.sol:AaveV2VesperXy",
            "label": "_indexes",
            "offset": 0,
            "slot": "1",
            "type": "t_mapping(t_bytes32,t_uint256)"
          }
        ],
        "numberOfBytes": "64"
      },
      "t_uint256": {
        "encoding": "inplace",
        "label": "uint256",
        "numberOfBytes": "32"
      }
    }
  }
}