{
  "address": "0xaB1A2802F0Ba6F958009DE8739250e04BAE67E3b",
  "abi": [
    {
      "inputs": [
        {
          "internalType": "address",
          "name": "_pool",
          "type": "address"
        },
        {
          "internalType": "address",
          "name": "_swapper",
          "type": "address"
        },
        {
          "internalType": "address",
          "name": "_receiptToken",
          "type": "address"
        },
        {
          "internalType": "address",
          "name": "_borrowToken",
          "type": "address"
        },
        {
          "internalType": "address",
          "name": "_aaveAddressProvider",
          "type": "address"
        },
        {
          "internalType": "address",
          "name": "_vPool",
          "type": "address"
        },
        {
          "internalType": "address",
          "name": "_vspAddress",
          "type": "address"
        },
        {
          "internalType": "string",
          "name": "_name",
          "type": "string"
        }
      ],
      "stateMutability": "nonpayable",
      "type": "constructor"
    },
    {
      "anonymous": false,
      "inputs": [
        {
          "indexed": false,
          "internalType": "uint256",
          "name": "previousMinBorrowLimit",
          "type": "uint256"
        },
        {
          "indexed": false,
          "internalType": "uint256",
          "name": "newMinBorrowLimit",
          "type": "uint256"
        },
        {
          "indexed": false,
          "internalType": "uint256",
          "name": "previousMaxBorrowLimit",
          "type": "uint256"
        },
        {
          "indexed": false,
          "internalType": "uint256",
          "name": "newMaxBorrowLimit",
          "type": "uint256"
        }
      ],
      "name": "UpdatedBorrowLimit",
      "type": "event"
    },
    {
      "anonymous": false,
      "inputs": [
        {
          "indexed": true,
          "internalType": "address",
          "name": "previousFeeCollector",
          "type": "address"
        },
        {
          "indexed": true,
          "internalType": "address",
          "name": "newFeeCollector",
          "type": "address"
        }
      ],
      "name": "UpdatedFeeCollector",
      "type": "event"
    },
    {
      "anonymous": false,
      "inputs": [
        {
          "indexed": true,
          "internalType": "contract IRoutedSwapper",
          "name": "oldSwapper",
          "type": "address"
        },
        {
          "indexed": true,
          "internalType": "contract IRoutedSwapper",
          "name": "newSwapper",
          "type": "address"
        }
      ],
      "name": "UpdatedSwapper",
      "type": "event"
    },
    {
      "inputs": [],
      "name": "NAME",
      "outputs": [
        {
          "internalType": "string",
          "name": "",
          "type": "string"
        }
      ],
      "stateMutability": "view",
      "type": "function"
    },
    {
      "inputs": [],
      "name": "VERSION",
      "outputs": [
        {
          "internalType": "string",
          "name": "",
          "type": "string"
        }
      ],
      "stateMutability": "view",
      "type": "function"
    },
    {
      "inputs": [],
      "name": "aaveAddressProvider",
      "outputs": [
        {
          "internalType": "contract PoolAddressesProvider",
          "name": "",
          "type": "address"
        }
      ],
      "stateMutability": "view",
      "type": "function"
    },
    {
      "inputs": [
        {
          "internalType": "address",
          "name": "_keeperAddress",
          "type": "address"
        }
      ],
      "name": "addKeeper",
      "outputs": [],
      "stateMutability": "nonpayable",
      "type": "function"
    },
    {
      "inputs": [
        {
          "internalType": "uint256",
          "name": "_approvalAmount",
          "type": "uint256"
        }
      ],
      "name": "approveToken",
      "outputs": [],
      "stateMutability": "nonpayable",
      "type": "function"
    },
    {
      "inputs": [],
      "name": "borrowToken",
      "outputs": [
        {
          "internalType": "address",
          "name": "",
          "type": "address"
        }
      ],
      "stateMutability": "view",
      "type": "function"
    },
    {
      "inputs": [
        {
          "internalType": "uint256",
          "name": "_minAmountOut",
          "type": "uint256"
        }
      ],
      "name": "claimAndSwapRewards",
      "outputs": [
        {
          "internalType": "uint256",
          "name": "_amountOut",
          "type": "uint256"
        }
      ],
      "stateMutability": "nonpayable",
      "type": "function"
    },
    {
      "inputs": [],
      "name": "collateral",
      "outputs": [
        {
          "internalType": "address",
          "name": "",
          "type": "address"
        }
      ],
      "stateMutability": "view",
      "type": "function"
    },
    {
      "inputs": [],
      "name": "collateralToken",
      "outputs": [
        {
          "internalType": "contract IERC20",
          "name": "",
          "type": "address"
        }
      ],
      "stateMutability": "view",
      "type": "function"
    },
    {
      "inputs": [],
      "name": "feeCollector",
      "outputs": [
        {
          "internalType": "address",
          "name": "",
          "type": "address"
        }
      ],
      "stateMutability": "view",
      "type": "function"
    },
    {
      "inputs": [
        {
          "internalType": "address",
          "name": "_token",
          "type": "address"
        }
      ],
      "name": "isReservedToken",
      "outputs": [
        {
          "internalType": "bool",
          "name": "",
          "type": "bool"
        }
      ],
      "stateMutability": "view",
      "type": "function"
    },
    {
      "inputs": [],
      "name": "keepers",
      "outputs": [
        {
          "internalType": "address[]",
          "name": "",
          "type": "address[]"
        }
      ],
      "stateMutability": "view",
      "type": "function"
    },
    {
      "inputs": [],
      "name": "maxBorrowLimit",
      "outputs": [
        {
          "internalType": "uint256",
          "name": "",
          "type": "uint256"
        }
      ],
      "stateMutability": "view",
      "type": "function"
    },
    {
      "inputs": [
        {
          "internalType": "address",
          "name": "_newStrategy",
          "type": "address"
        }
      ],
      "name": "migrate",
      "outputs": [],
      "stateMutability": "nonpayable",
      "type": "function"
    },
    {
      "inputs": [],
      "name": "minBorrowLimit",
      "outputs": [
        {
          "internalType": "uint256",
          "name": "",
          "type": "uint256"
        }
      ],
      "stateMutability": "view",
      "type": "function"
    },
    {
      "inputs": [],
      "name": "pool",
      "outputs": [
        {
          "internalType": "address",
          "name": "",
          "type": "address"
        }
      ],
      "stateMutability": "view",
      "type": "function"
    },
    {
      "inputs": [],
      "name": "rebalance",
      "outputs": [
        {
          "internalType": "uint256",
          "name": "_profit",
          "type": "uint256"
        },
        {
          "internalType": "uint256",
          "name": "_loss",
          "type": "uint256"
        },
        {
          "internalType": "uint256",
          "name": "_payback",
          "type": "uint256"
        }
      ],
      "stateMutability": "nonpayable",
      "type": "function"
    },
    {
      "inputs": [],
      "name": "receiptToken",
      "outputs": [
        {
          "internalType": "address",
          "name": "",
          "type": "address"
        }
      ],
      "stateMutability": "view",
      "type": "function"
    },
    {
      "inputs": [
        {
          "internalType": "address",
          "name": "_keeperAddress",
          "type": "address"
        }
      ],
      "name": "removeKeeper",
      "outputs": [],
      "stateMutability": "nonpayable",
      "type": "function"
    },
    {
      "inputs": [],
      "name": "swapper",
      "outputs": [
        {
          "internalType": "contract IRoutedSwapper",
          "name": "",
          "type": "address"
        }
      ],
      "stateMutability": "view",
      "type": "function"
    },
    {
      "inputs": [
        {
          "internalType": "address",
          "name": "_fromToken",
          "type": "address"
        }
      ],
      "name": "sweepERC20",
      "outputs": [],
      "stateMutability": "nonpayable",
      "type": "function"
    },
    {
      "inputs": [],
      "name": "token",
      "outputs": [
        {
          "internalType": "address",
          "name": "",
          "type": "address"
        }
      ],
      "stateMutability": "view",
      "type": "function"
    },
    {
      "inputs": [],
      "name": "tvl",
      "outputs": [
        {
          "internalType": "uint256",
          "name": "",
          "type": "uint256"
        }
      ],
      "stateMutability": "view",
      "type": "function"
    },
    {
      "inputs": [
        {
          "internalType": "uint256",
          "name": "_minBorrowLimit",
          "type": "uint256"
        },
        {
          "internalType": "uint256",
          "name": "_maxBorrowLimit",
          "type": "uint256"
        }
      ],
      "name": "updateBorrowLimit",
      "outputs": [],
      "stateMutability": "nonpayable",
      "type": "function"
    },
    {
      "inputs": [
        {
          "internalType": "address",
          "name": "_feeCollector",
          "type": "address"
        }
      ],
      "name": "updateFeeCollector",
      "outputs": [],
      "stateMutability": "nonpayable",
      "type": "function"
    },
    {
      "inputs": [
        {
          "internalType": "contract IRoutedSwapper",
          "name": "_swapper",
          "type": "address"
        }
      ],
      "name": "updateSwapper",
      "outputs": [],
      "stateMutability": "nonpayable",
      "type": "function"
    },
    {
      "inputs": [],
      "name": "vPool",
      "outputs": [
        {
          "internalType": "contract IVesperPool",
          "name": "",
          "type": "address"
        }
      ],
      "stateMutability": "view",
      "type": "function"
    },
    {
      "inputs": [],
      "name": "vdToken",
      "outputs": [
        {
          "internalType": "contract AToken",
          "name": "",
          "type": "address"
        }
      ],
      "stateMutability": "view",
      "type": "function"
    },
    {
      "inputs": [],
      "name": "vsp",
      "outputs": [
        {
          "internalType": "address",
          "name": "",
          "type": "address"
        }
      ],
      "stateMutability": "view",
      "type": "function"
    },
    {
      "inputs": [
        {
          "internalType": "uint256",
          "name": "_amount",
          "type": "uint256"
        }
      ],
      "name": "withdraw",
      "outputs": [],
      "stateMutability": "nonpayable",
      "type": "function"
    }
  ],
  "transactionHash": "0x49afdbaa0d3b15753dbf49a65e0ef7541cddc23354cb5426216ccacca93df53f",
  "args": [
    "0xd1C117319B3595fbc39b471AB1fd485629eb05F2",
    "0x8f156189A3CD28dFc8FB7BbbAce58F98F09c0bB3",
    "0x4d5F47FA6A74757f35C14fD3a6Ef8E3C9BC514E8",
    "0x6B175474E89094C44Da98b954EedeAC495271d0F",
    "0x2f39d218133AFaB8F2B819B1066c7E434Ad94E9e",
    "0x0538C8bAc84E95A9dF8aC10Aad17DbE81b9E36ee",
    "0x1b40183EFB4Dd766f11bDa7A7c3AD8982e998421",
    "AaveV3_Vesper_Xy_ETH_DAI"
  ],
  "numDeployments": 1,
  "solcInputHash": "9a057f4e03bcd37a5b962431b9d113eb",
  "bytecode": "0x610120604052611b586006556121346007553480156200001e57600080fd5b5060405162005a3738038062005a378339810160408190526200004191620007aa565b8787878787858585856001600160a01b038316620000a65760405162461bcd60e51b815260206004820152601460248201527f706f6f6c2d616464726573732d69732d7a65726f00000000000000000000000060448201526064015b60405180910390fd5b6001600160a01b038216620000fe5760405162461bcd60e51b815260206004820152601760248201527f737761707065722d616464726573732d69732d7a65726f00000000000000000060448201526064016200009d565b600280546001600160a01b0319166001600160a01b0384811691909117909155831660a081905260408051637e062a3560e11b8152905163fc0c546a91600480820192602092909190829003018186803b1580156200015c57600080fd5b505afa15801562000171573d6000803e3d6000fd5b505050506040513d601f19601f8201168201806040525081019062000197919062000921565b6001600160a01b03908116608052600080546001600160a01b031916918316919091179055620001de620001c83390565b60036200066360201b620017b61790919060201c565b620002205760405162461bcd60e51b81526020600482015260116024820152701859190b5ad9595c195c8b59985a5b1959607a1b60448201526064016200009d565b505081516200023891506005906020840190620006d5565b506001600160a01b038216620002915760405162461bcd60e51b815260206004820152601760248201527f6164647265737350726f76696465722d69732d7a65726f00000000000000000060448201526064016200009d565b856001600160a01b031663fc0c546a6040518163ffffffff1660e01b815260040160206040518083038186803b158015620002cb57600080fd5b505afa158015620002e0573d6000803e3d6000fd5b505050506040513d601f19601f8201168201806040525081019062000306919062000921565b6001600160a01b0316846001600160a01b031663b16a19de6040518163ffffffff1660e01b815260040160206040518083038186803b1580156200034957600080fd5b505afa1580156200035e573d6000803e3d6000fd5b505050506040513d601f19601f8201168201806040525081019062000384919062000921565b6001600160a01b031614620003dc5760405162461bcd60e51b815260206004820152601560248201527f696e76616c69642d726563656970742d746f6b656e000000000000000000000060448201526064016200009d565b600080836001600160a01b031663e860accb6040518163ffffffff1660e01b815260040160206040518083038186803b1580156200041957600080fd5b505afa1580156200042e573d6000803e3d6000fd5b505050506040513d601f19601f8201168201806040525081019062000454919062000921565b6040516334924edb60e21b81526001600160a01b038781166004830152919091169063d2493b6c9060240160606040518083038186803b1580156200049857600080fd5b505afa158015620004ad573d6000803e3d6000fd5b505050506040513d601f19601f82011682018060405250810190620004d3919062000948565b600980546001600160a01b03199081166001600160a01b039384161790915560088054821699831699909917909855600a80549098169281169290921790965593841660c05250505086161515935062000574925050505760405162461bcd60e51b815260206004820152601360248201527f696e76616c69642d7673702d616464726573730000000000000000000000000060448201526064016200009d565b60085460408051637e062a3560e11b815290516001600160a01b039283169286169163fc0c546a916004808301926020929190829003018186803b158015620005bc57600080fd5b505afa158015620005d1573d6000803e3d6000fd5b505050506040513d601f19601f82011682018060405250810190620005f7919062000921565b6001600160a01b031614620006435760405162461bcd60e51b81526020600482015260116024820152701a5b9d985b1a590b59dc9bddcb5c1bdbdb607a1b60448201526064016200009d565b506001600160a01b0391821660e052166101005250620009d99350505050565b60006200067a836001600160a01b03841662000683565b90505b92915050565b6000818152600183016020526040812054620006cc575081546001818101845560008481526020808220909301849055845484825282860190935260409020919091556200067d565b5060006200067d565b828054620006e3906200099c565b90600052602060002090601f01602090048101928262000707576000855562000752565b82601f106200072257805160ff191683800117855562000752565b8280016001018555821562000752579182015b828111156200075257825182559160200191906001019062000735565b506200076092915062000764565b5090565b5b8082111562000760576000815560010162000765565b6001600160a01b03811681146200079157600080fd5b50565b634e487b7160e01b600052604160045260246000fd5b600080600080600080600080610100898b031215620007c857600080fd5b8851620007d5816200077b565b809850506020808a0151620007ea816200077b565b60408b0151909850620007fd816200077b565b60608b015190975062000810816200077b565b60808b015190965062000823816200077b565b60a08b015190955062000836816200077b565b60c08b015190945062000849816200077b565b60e08b01519093506001600160401b03808211156200086757600080fd5b818c0191508c601f8301126200087c57600080fd5b81518181111562000891576200089162000794565b604051601f8201601f19908116603f01168101908382118183101715620008bc57620008bc62000794565b816040528281528f86848701011115620008d557600080fd5b600093505b82841015620008f95784840186015181850187015292850192620008da565b828411156200090b5760008684830101525b8096505050505050509295985092959890939650565b6000602082840312156200093457600080fd5b815162000941816200077b565b9392505050565b6000806000606084860312156200095e57600080fd5b83516200096b816200077b565b60208501519093506200097e816200077b565b604085015190925062000991816200077b565b809150509250925092565b600181811c90821680620009b157607f821691505b60208210811415620009d357634e487b7160e01b600052602260045260246000fd5b50919050565b60805160a05160c05160e05161010051614e5962000bde6000396000818161021c01528181611919015281816119ab0152611c6f0152600081816102c50152818161180001528181611c390152818161331f015281816133bb01528181614067015281816142e1015281816143cb01526143fe01526000818161038601528181611a7401528181611dd20152818161268d01528181612e5301528181612f4c01528181613a1b0152613bf80152600081816101e80152818161065c0152818161076f0152818161088b01528181610969015281816109f301528181610c6001528181610cfd01528181610f29015281816110f2015281816115f301528181611ca001528181611fce015281816121c401526142b201526000818161034c015281816103e3015281816104d40152818161057c015281816107ce01528181610869015281816108dd0152818161099c01528181610b0101528181610e8d01528181611324015281816114e2015281816119cc01528181611eaf015281816120e601528181612241015281816128d90152818161294b01528181612cb501528181612d5701528181612eec01528181612f2001528181613110015281816134ab01528181613565015281816136140152818161370d0152818161383b0152818161387d01528181613b4701528181613c9701528181613d3201526142900152614e596000f3fe608060405234801561001057600080fd5b506004361061019a5760003560e01c8063a3f4df7e116100e4578063d8dfeb4511610092578063d8dfeb45146103e1578063e00af4a714610407578063e260d7471461041a578063e5328e0614610423578063ec78e8321461042b578063fb7ee1021461043e578063fc0c546a14610451578063ffa1ad741461046257600080fd5b8063a3f4df7e14610332578063b2016bd414610347578063c415b95c1461036e578063cdaabe4114610381578063ce5494bb146103a8578063d2c35ce8146103bb578063d3033c39146103ce57600080fd5b80633ac9fc111161014c5780633ac9fc11146102645780634032b72b14610277578063440d72481461028a578063456dc17a146102ad5780636719578c146102c05780637d7c2a1c146102e757806390d675141461030a578063951dc22c1461031d57600080fd5b80630181686c1461019f5780631026013a146101bb57806314ae9f2e146101ce57806316f0115b146101e357806329ba73ed146102175780632b3297f91461023e5780632e1a7d4d14610251575b600080fd5b6101a860075481565b6040519081526020015b60405180910390f35b6101a86101c93660046145fe565b610486565b6101e16101dc36600461462c565b61065a565b005b61020a7f000000000000000000000000000000000000000000000000000000000000000081565b6040516101b29190614649565b61020a7f000000000000000000000000000000000000000000000000000000000000000081565b60025461020a906001600160a01b031681565b6101e161025f3660046145fe565b61076c565b6101e16102723660046145fe565b6109c3565b6101e161028536600461462c565b6109f1565b61029d61029836600461462c565b610afd565b60405190151581526020016101b2565b60085461020a906001600160a01b031681565b61020a7f000000000000000000000000000000000000000000000000000000000000000081565b6102ef610b82565b604080519384526020840192909252908201526060016101b2565b60095461020a906001600160a01b031681565b610325610bbe565b6040516101b291906146a1565b61033a610bcf565b6040516101b291906146e0565b61020a7f000000000000000000000000000000000000000000000000000000000000000081565b60015461020a906001600160a01b031681565b61020a7f000000000000000000000000000000000000000000000000000000000000000081565b6101e16103b636600461462c565b610c5d565b6101e16103c936600461462c565b610f27565b6101e16103dc36600461462c565b6110f0565b7f000000000000000000000000000000000000000000000000000000000000000061020a565b6101e161041536600461462c565b6112ad565b6101a860065481565b6101a86114c8565b60005461020a906001600160a01b031681565b6101e161044c366004614713565b6115f1565b6000546001600160a01b031661020a565b61033a604051806040016040528060058152602001640352e312e360dc1b81525081565b6000610495335b6003906117d2565b6104ba5760405162461bcd60e51b81526004016104b190614735565b60405180910390fd5b6040516370a0823160e01b81526000906001600160a01b037f000000000000000000000000000000000000000000000000000000000000000016906370a0823190610509903090600401614649565b60206040518083038186803b15801561052157600080fd5b505afa158015610535573d6000803e3d6000fd5b505050506040513d601f19601f820116820180604052508101906105599190614765565b90506105636117f4565b6040516370a0823160e01b815281906001600160a01b037f000000000000000000000000000000000000000000000000000000000000000016906370a08231906105b1903090600401614649565b60206040518083038186803b1580156105c957600080fd5b505afa1580156105dd573d6000803e3d6000fd5b505050506040513d601f19601f820116820180604052508101906106019190614765565b61060b9190614794565b9150828210156106545760405162461bcd60e51b81526020600482015260146024820152731b9bdd0b595b9bdd59da0b585b5bdd5b9d13dd5d60621b60448201526064016104b1565b50919050565b7f00000000000000000000000000000000000000000000000000000000000000006001600160a01b0316630c340a246040518163ffffffff1660e01b815260040160206040518083038186803b1580156106b357600080fd5b505afa1580156106c7573d6000803e3d6000fd5b505050506040513d601f19601f820116820180604052508101906106eb91906147ab565b6001600160a01b0316336001600160a01b03161461071b5760405162461bcd60e51b81526004016104b1906147c8565b6107266003826119f1565b6107695760405162461bcd60e51b81526020600482015260146024820152731c995b5bdd994b5ad9595c195c8b59985a5b195960621b60448201526064016104b1565b50565b337f00000000000000000000000000000000000000000000000000000000000000006001600160a01b0316146107b45760405162461bcd60e51b81526004016104b1906147ff565b6040516370a0823160e01b81526000906001600160a01b037f000000000000000000000000000000000000000000000000000000000000000016906370a0823190610803903090600401614649565b60206040518083038186803b15801561081b57600080fd5b505afa15801561082f573d6000803e3d6000fd5b505050506040513d601f19601f820116820180604052508101906108539190614765565b90508181106108b4576108b06001600160a01b037f0000000000000000000000000000000000000000000000000000000000000000167f000000000000000000000000000000000000000000000000000000000000000084611a06565b5050565b6108c66108c18284614794565b611a6e565b6040516370a0823160e01b81526001600160a01b037f000000000000000000000000000000000000000000000000000000000000000016906370a0823190610912903090600401614649565b60206040518083038186803b15801561092a57600080fd5b505afa15801561093e573d6000803e3d6000fd5b505050506040513d601f19601f820116820180604052508101906109629190614765565b90506108b07f00000000000000000000000000000000000000000000000000000000000000006109928484611c08565b6001600160a01b037f0000000000000000000000000000000000000000000000000000000000000000169190611a06565b6109cc3361048d565b6109e85760405162461bcd60e51b81526004016104b190614735565b61076981611c1e565b7f00000000000000000000000000000000000000000000000000000000000000006001600160a01b0316630c340a246040518163ffffffff1660e01b815260040160206040518083038186803b158015610a4a57600080fd5b505afa158015610a5e573d6000803e3d6000fd5b505050506040513d601f19601f82011682018060405250810190610a8291906147ab565b6001600160a01b0316336001600160a01b031614610ab25760405162461bcd60e51b81526004016104b1906147c8565b610abd6003826117b6565b6107695760405162461bcd60e51b81526020600482015260116024820152701859190b5ad9595c195c8b59985a5b1959607a1b60448201526064016104b1565b60007f00000000000000000000000000000000000000000000000000000000000000006001600160a01b0316826001600160a01b03161480610b4c57506000546001600160a01b038381169116145b80610b6457506009546001600160a01b038381169116145b80610b7c57506008546001600160a01b038381169116145b92915050565b60008080610b8f3361048d565b610bab5760405162461bcd60e51b81526004016104b190614735565b610bb3611c98565b925092509250909192565b6060610bca6003612522565b905090565b60058054610bdc90614832565b80601f0160208091040260200160405190810160405280929190818152602001828054610c0890614832565b8015610c555780601f10610c2a57610100808354040283529160200191610c55565b820191906000526020600020905b815481529060010190602001808311610c3857829003601f168201915b505050505081565b337f00000000000000000000000000000000000000000000000000000000000000006001600160a01b031614610ca55760405162461bcd60e51b81526004016104b1906147ff565b6001600160a01b038116610cfb5760405162461bcd60e51b815260206004820152601c60248201527f6e65772d73747261746567792d616464726573732d69732d7a65726f0000000060448201526064016104b1565b7f00000000000000000000000000000000000000000000000000000000000000006001600160a01b0316816001600160a01b03166316f0115b6040518163ffffffff1660e01b815260040160206040518083038186803b158015610d5e57600080fd5b505afa158015610d72573d6000803e3d6000fd5b505050506040513d601f19601f82011682018060405250810190610d9691906147ab565b6001600160a01b031614610de55760405162461bcd60e51b81526020600482015260166024820152756e6f742d76616c69642d6e65772d737472617465677960501b60448201526064016104b1565b610dee8161252f565b6000546040516370a0823160e01b8152610e879183916001600160a01b03909116906370a0823190610e24903090600401614649565b60206040518083038186803b158015610e3c57600080fd5b505afa158015610e50573d6000803e3d6000fd5b505050506040513d601f19601f82011682018060405250810190610e749190614765565b6000546001600160a01b03169190611a06565b610769817f00000000000000000000000000000000000000000000000000000000000000006001600160a01b03166370a08231306040518263ffffffff1660e01b8152600401610ed79190614649565b60206040518083038186803b158015610eef57600080fd5b505afa158015610f03573d6000803e3d6000fd5b505050506040513d601f19601f820116820180604052508101906109929190614765565b7f00000000000000000000000000000000000000000000000000000000000000006001600160a01b0316630c340a246040518163ffffffff1660e01b815260040160206040518083038186803b158015610f8057600080fd5b505afa158015610f94573d6000803e3d6000fd5b505050506040513d601f19601f82011682018060405250810190610fb891906147ab565b6001600160a01b0316336001600160a01b031614610fe85760405162461bcd60e51b81526004016104b1906147c8565b6001600160a01b03811661103e5760405162461bcd60e51b815260206004820152601d60248201527f6665652d636f6c6c6563746f722d616464726573732d69732d7a65726f00000060448201526064016104b1565b6001546001600160a01b03828116911614156110945760405162461bcd60e51b81526020600482015260156024820152746665652d636f6c6c6563746f722d69732d73616d6560581b60448201526064016104b1565b6001546040516001600160a01b038084169216907f0f06062680f9bd68e786e9980d9bb03d73d5620fc3b345e417b6eacb310b970690600090a3600180546001600160a01b0319166001600160a01b0392909216919091179055565b7f00000000000000000000000000000000000000000000000000000000000000006001600160a01b0316630c340a246040518163ffffffff1660e01b815260040160206040518083038186803b15801561114957600080fd5b505afa15801561115d573d6000803e3d6000fd5b505050506040513d601f19601f8201168201806040525081019061118191906147ab565b6001600160a01b0316336001600160a01b0316146111b15760405162461bcd60e51b81526004016104b1906147c8565b6001600160a01b0381166112015760405162461bcd60e51b8152602060048201526017602482015276737761707065722d616464726573732d69732d7a65726f60481b60448201526064016104b1565b6002546001600160a01b03828116911614156112515760405162461bcd60e51b815260206004820152600f60248201526e737761707065722d69732d73616d6560881b60448201526064016104b1565b6002546040516001600160a01b038084169216907f6c953b7ec311055c20b96a42cea31e89528e375b1bf953a503db40854b3188fe90600090a3600280546001600160a01b0319166001600160a01b0392909216919091179055565b6112b63361048d565b6112d25760405162461bcd60e51b81526004016104b190614735565b6001546001600160a01b03166113225760405162461bcd60e51b81526020600482015260156024820152741999594b58dbdb1b1958dd1bdc8b5b9bdd0b5cd95d605a1b60448201526064016104b1565b7f00000000000000000000000000000000000000000000000000000000000000006001600160a01b0316816001600160a01b031614156113a45760405162461bcd60e51b815260206004820152601f60248201527f6e6f742d616c6c6f7765642d746f2d73776565702d636f6c6c61746572616c0060448201526064016104b1565b6113ad81610afd565b156113f15760405162461bcd60e51b815260206004820152601460248201527306e6f742d616c6c6f7765642d746f2d73776565760641b60448201526064016104b1565b6001600160a01b03811673eeeeeeeeeeeeeeeeeeeeeeeeeeeeeeeeeeeeeeee141561142c57600154610769906001600160a01b031647612721565b6040516370a0823160e01b81526000906001600160a01b038316906370a082319061145b903090600401614649565b60206040518083038186803b15801561147357600080fd5b505afa158015611487573d6000803e3d6000fd5b505050506040513d601f19601f820116820180604052508101906114ab9190614765565b6001549091506108b0906001600160a01b03848116911683611a06565b6040516370a0823160e01b81526000906001600160a01b037f000000000000000000000000000000000000000000000000000000000000000016906370a0823190611517903090600401614649565b60206040518083038186803b15801561152f57600080fd5b505afa158015611543573d6000803e3d6000fd5b505050506040513d601f19601f820116820180604052508101906115679190614765565b6000546040516370a0823160e01b81526001600160a01b03909116906370a0823190611597903090600401614649565b60206040518083038186803b1580156115af57600080fd5b505afa1580156115c3573d6000803e3d6000fd5b505050506040513d601f19601f820116820180604052508101906115e79190614765565b610bca9190614867565b7f00000000000000000000000000000000000000000000000000000000000000006001600160a01b0316630c340a246040518163ffffffff1660e01b815260040160206040518083038186803b15801561164a57600080fd5b505afa15801561165e573d6000803e3d6000fd5b505050506040513d601f19601f8201168201806040525081019061168291906147ab565b6001600160a01b0316336001600160a01b0316146116b25760405162461bcd60e51b81526004016104b1906147c8565b61271081106116fe5760405162461bcd60e51b81526020600482015260186024820152771a5b9d985b1a590b5b585e0b589bdc9c9bddcb5b1a5b5a5d60421b60448201526064016104b1565b8015801561170a575081155b8061171457508181115b6117605760405162461bcd60e51b815260206004820152601d60248201527f6d61782d73686f756c642d62652d6869676865722d7468616e2d6d696e00000060448201526064016104b1565b6006546007546040805192835260208301859052820152606081018290527fedd77444afdf63401315e81ffe86d08f7865796e8ad2e11acf1d56a1393f07d59060800160405180910390a1600691909155600755565b60006117cb836001600160a01b03841661283a565b9392505050565b6001600160a01b038116600090815260018301602052604081205415156117cb565b6117fc612889565b60007f00000000000000000000000000000000000000000000000000000000000000006001600160a01b0316638bc6beb26040518163ffffffff1660e01b815260040160206040518083038186803b15801561185757600080fd5b505afa15801561186b573d6000803e3d6000fd5b505050506040513d601f19601f8201168201806040525081019061188f91906147ab565b90506001600160a01b038116156118ff5760405163d279c19160e01b81526001600160a01b0382169063d279c191906118cc903090600401614649565b600060405180830381600087803b1580156118e657600080fd5b505af11580156118fa573d6000803e3d6000fd5b505050505b6040516370a0823160e01b81526000906001600160a01b037f000000000000000000000000000000000000000000000000000000000000000016906370a082319061194e903090600401614649565b60206040518083038186803b15801561196657600080fd5b505afa15801561197a573d6000803e3d6000fd5b505050506040513d601f19601f8201168201806040525081019061199e9190614765565b905080156108b0576108b07f00000000000000000000000000000000000000000000000000000000000000007f00000000000000000000000000000000000000000000000000000000000000008361299f565b60006117cb836001600160a01b038416612a2b565b6040516001600160a01b038316602482015260448101829052611a6990849063a9059cbb60e01b906064015b60408051601f198184030181529190526020810180516001600160e01b03166001600160e01b031990931692909217909152612b1e565b505050565b610769817f00000000000000000000000000000000000000000000000000000000000000006001600160a01b031663026b1d5f6040518163ffffffff1660e01b815260040160206040518083038186803b158015611acb57600080fd5b505afa158015611adf573d6000803e3d6000fd5b505050506040513d601f19601f82011682018060405250810190611b0391906147ab565b6009546040516370a0823160e01b81526001600160a01b03909116906370a0823190611b33903090600401614649565b60206040518083038186803b158015611b4b57600080fd5b505afa158015611b5f573d6000803e3d6000fd5b505050506040513d601f19601f82011682018060405250810190611b839190614765565b6000546040516370a0823160e01b81526001600160a01b03909116906370a0823190611bb3903090600401614649565b60206040518083038186803b158015611bcb57600080fd5b505afa158015611bdf573d6000803e3d6000fd5b505050506040513d601f19601f82011682018060405250810190611c039190614765565b612bf0565b6000818310611c1757816117cb565b5090919050565b611c2781612e2b565b600854611c5e906001600160a01b03167f0000000000000000000000000000000000000000000000000000000000000000836131ee565b600254610769906001600160a01b037f000000000000000000000000000000000000000000000000000000000000000081169116836131ee565b6000806000807f00000000000000000000000000000000000000000000000000000000000000006001600160a01b031663d53ddc26306040518263ffffffff1660e01b8152600401611cea9190614649565b60206040518083038186803b158015611d0257600080fd5b505afa158015611d16573d6000803e3d6000fd5b505050506040513d601f19601f82011682018060405250810190611d3a9190614765565b6009546040516370a0823160e01b81529192506000916001600160a01b03909116906370a0823190611d70903090600401614649565b60206040518083038186803b158015611d8857600080fd5b505afa158015611d9c573d6000803e3d6000fd5b505050506040513d601f19601f82011682018060405250810190611dc09190614765565b90506000611dcc613312565b905060007f00000000000000000000000000000000000000000000000000000000000000006001600160a01b031663026b1d5f6040518163ffffffff1660e01b815260040160206040518083038186803b158015611e2957600080fd5b505afa158015611e3d573d6000803e3d6000fd5b505050506040513d601f19601f82011682018060405250810190611e6191906147ab565b905081831115611e8357611e7e611e788385614794565b8261348e565b611e95565b611e95611e908484614794565b613791565b6040516370a0823160e01b81526000906001600160a01b037f000000000000000000000000000000000000000000000000000000000000000016906370a0823190611ee4903090600401614649565b60206040518083038186803b158015611efc57600080fd5b505afa158015611f10573d6000803e3d6000fd5b505050506040513d601f19601f82011682018060405250810190611f349190614765565b600080546040516370a0823160e01b815292935090916001600160a01b03909116906370a0823190611f6a903090600401614649565b60206040518083038186803b158015611f8257600080fd5b505afa158015611f96573d6000803e3d6000fd5b505050506040513d601f19601f82011682018060405250810190611fba9190614765565b90506000611fc88383614867565b905060007f00000000000000000000000000000000000000000000000000000000000000006001600160a01b0316639f2b2833306040518263ffffffff1660e01b81526004016120189190614649565b60206040518083038186803b15801561203057600080fd5b505afa158015612044573d6000803e3d6000fd5b505050506040513d601f19601f820116820180604052508101906120689190614765565b9050808211156120835761207c8183614794565b9a50612090565b61208d8282614794565b99505b600061209c898d614867565b9050808510156121705760006120bb6120b58784614794565b86611c08565b9050801561216e576120cf81888b88612bf0565b6040516370a0823160e01b81526001600160a01b037f000000000000000000000000000000000000000000000000000000000000000016906370a082319061211b903090600401614649565b60206040518083038186803b15801561213357600080fd5b505afa158015612147573d6000803e3d6000fd5b505050506040513d601f19601f8201168201806040525081019061216b9190614765565b95505b505b61217a858a611c08565b995089851161218a57600061219d565b61219d6121978b87614794565b8d611c08565b6040516302df682360e11b815260048101829052602481018d9052604481018c9052909c507f00000000000000000000000000000000000000000000000000000000000000006001600160a01b0316906305bed04690606401600060405180830381600087803b15801561221057600080fd5b505af1158015612224573d6000803e3d6000fd5b50506040516370a0823160e01b8152600092506001600160a01b037f00000000000000000000000000000000000000000000000000000000000000001691506370a0823190612277903090600401614649565b60206040518083038186803b15801561228f57600080fd5b505afa1580156122a3573d6000803e3d6000fd5b505050506040513d601f19601f820116820180604052508101906122c79190614765565b90506122d38188613860565b6009546040516370a0823160e01b815260009182916123e391839182916001600160a01b0316906370a082319061230e903090600401614649565b60206040518083038186803b15801561232657600080fd5b505afa15801561233a573d6000803e3d6000fd5b505050506040513d601f19601f8201168201806040525081019061235e9190614765565b6000546040516370a0823160e01b81526001600160a01b03909116906370a082319061238e903090600401614649565b60206040518083038186803b1580156123a657600080fd5b505afa1580156123ba573d6000803e3d6000fd5b505050506040513d601f19601f820116820180604052508101906123de9190614765565b613973565b909250905080156123fd576123f8818a613fd1565b61247e565b811561247e5760085460405163a415bcad60e01b81526001600160a01b039182166004820152602481018490526002604482015260006064820152306084820152908a169063a415bcad9060a401600060405180830381600087803b15801561246557600080fd5b505af1158015612479573d6000803e3d6000fd5b505050505b6008546040516370a0823160e01b81526000916001600160a01b0316906370a08231906124af903090600401614649565b60206040518083038186803b1580156124c757600080fd5b505afa1580156124db573d6000803e3d6000fd5b505050506040513d601f19601f820116820180604052508101906124ff9190614765565b905080156125105761251081614051565b50505050505050505050505050909192565b606060006117cb836140c7565b60008054906101000a90046001600160a01b03166001600160a01b0316816001600160a01b031663fc0c546a6040518163ffffffff1660e01b815260040160206040518083038186803b15801561258557600080fd5b505afa158015612599573d6000803e3d6000fd5b505050506040513d601f19601f820116820180604052508101906125bd91906147ab565b6001600160a01b0316146126095760405162461bcd60e51b81526020600482015260136024820152723bb937b73396b932b1b2b4b83a16ba37b5b2b760691b60448201526064016104b1565b6009546040516370a0823160e01b8152610769916001600160a01b0316906370a082319061263b903090600401614649565b60206040518083038186803b15801561265357600080fd5b505afa158015612667573d6000803e3d6000fd5b505050506040513d601f19601f8201168201806040525081019061268b9190614765565b7f00000000000000000000000000000000000000000000000000000000000000006001600160a01b031663026b1d5f6040518163ffffffff1660e01b815260040160206040518083038186803b1580156126e457600080fd5b505afa1580156126f8573d6000803e3d6000fd5b505050506040513d601f19601f8201168201806040525081019061271c91906147ab565b613fd1565b804710156127715760405162461bcd60e51b815260206004820152601d60248201527f416464726573733a20696e73756666696369656e742062616c616e636500000060448201526064016104b1565b6000826001600160a01b03168260405160006040518083038185875af1925050503d80600081146127be576040519150601f19603f3d011682016040523d82523d6000602084013e6127c3565b606091505b5050905080611a695760405162461bcd60e51b815260206004820152603a60248201527f416464726573733a20756e61626c6520746f2073656e642076616c75652c207260448201527f6563697069656e74206d6179206861766520726576657274656400000000000060648201526084016104b1565b600081815260018301602052604081205461288157508154600181810184556000848152602080822090930184905584548482528286019093526040902091909155610b7c565b506000610b7c565b6000805481906128a1906001600160a01b0316614123565b8151919350915060005b818110156129995760008382815181106128c7576128c761487f565b602002602001015111801561292757507f00000000000000000000000000000000000000000000000000000000000000006001600160a01b03168482815181106129135761291361487f565b60200260200101516001600160a01b031614155b15612989576129898482815181106129415761294161487f565b60200260200101517f000000000000000000000000000000000000000000000000000000000000000085848151811061297c5761297c61487f565b602002602001015161299f565b61299281614895565b90506128ab565b50505050565b600254604051636ccb2b0160e01b81526001600160a01b0390911690636ccb2b01906129d89086908690869060019030906004016148b0565b602060405180830381600087803b1580156129f257600080fd5b505af1925050508015612a22575060408051601f3d908101601f19168201909252612a1f91810190614765565b60015b61299957505050565b60008181526001830160205260408120548015612b14576000612a4f600183614794565b8554909150600090612a6390600190614794565b9050818114612ac8576000866000018281548110612a8357612a8361487f565b9060005260206000200154905080876000018481548110612aa657612aa661487f565b6000918252602080832090910192909255918252600188019052604090208390555b8554869080612ad957612ad96148e0565b600190038181906000526020600020016000905590558560010160008681526020019081526020016000206000905560019350505050610b7c565b6000915050610b7c565b6000612b73826040518060400160405280602081526020017f5361666545524332303a206c6f772d6c6576656c2063616c6c206661696c6564815250856001600160a01b031661426c9092919063ffffffff16565b805190915015611a695780806020019051810190612b91919061490b565b611a695760405162461bcd60e51b815260206004820152602a60248201527f5361666545524332303a204552433230206f7065726174696f6e20646964206e6044820152691bdd081cdd58d8d9595960b21b60648201526084016104b1565b6000612bff6000868585613973565b9150508015612c1257612c128185613fd1565b600080546040516370a0823160e01b8152612d43918891612d3e916001600160a01b0316906370a0823190612c4b903090600401614649565b60206040518083038186803b158015612c6357600080fd5b505afa158015612c77573d6000803e3d6000fd5b505050506040513d601f19601f82011682018060405250810190612c9b9190614765565b6000546040516370a0823160e01b81526001600160a01b037f00000000000000000000000000000000000000000000000000000000000000008116926370a0823192612cee929190911690600401614649565b60206040518083038186803b158015612d0657600080fd5b505afa158015612d1a573d6000803e3d6000fd5b505050506040513d601f19601f82011682018060405250810190612d3e9190614765565b611c08565b905080856001600160a01b03166369328dec7f000000000000000000000000000000000000000000000000000000000000000084306040518463ffffffff1660e01b8152600401612d9693929190614926565b602060405180830381600087803b158015612db057600080fd5b505af1158015612dc4573d6000803e3d6000fd5b505050506040513d601f19601f82011682018060405250810190612de89190614765565b1460405180604001604052806002815260200161323960f01b81525090612e225760405162461bcd60e51b81526004016104b191906146e0565b50505050505050565b612e3481614283565b6000600260009054906101000a90046001600160a01b03169050612f137f00000000000000000000000000000000000000000000000000000000000000006001600160a01b031663026b1d5f6040518163ffffffff1660e01b815260040160206040518083038186803b158015612eaa57600080fd5b505afa158015612ebe573d6000803e3d6000fd5b505050506040513d601f19601f82011682018060405250810190612ee291906147ab565b6001600160a01b037f00000000000000000000000000000000000000000000000000000000000000001690846131ee565b612f476001600160a01b037f00000000000000000000000000000000000000000000000000000000000000001682846131ee565b612fee7f00000000000000000000000000000000000000000000000000000000000000006001600160a01b031663026b1d5f6040518163ffffffff1660e01b815260040160206040518083038186803b158015612fa357600080fd5b505afa158015612fb7573d6000803e3d6000fd5b505050506040513d601f19601f82011682018060405250810190612fdb91906147ab565b6008546001600160a01b031690846131ee565b600854613005906001600160a01b031682846131ee565b60008054906101000a90046001600160a01b03166001600160a01b03166375d264136040518163ffffffff1660e01b815260040160206040518083038186803b15801561305157600080fd5b505afa925050508015613081575060408051601f3d908101601f1916820190925261307e918101906147ab565b60015b613089575050565b6000816001600160a01b031663b45ac1a96040518163ffffffff1660e01b815260040160006040518083038186803b1580156130c457600080fd5b505afa1580156130d8573d6000803e3d6000fd5b505050506040513d6000823e601f3d908101601f191682016040526131009190810190614a2a565b905060005b81518110156131e7577f00000000000000000000000000000000000000000000000000000000000000006001600160a01b031682828151811061314a5761314a61487f565b60200260200101516001600160a01b03161415801561319b575060085482516001600160a01b03909116908390839081106131875761318761487f565b60200260200101516001600160a01b031614155b156131d7576131d784868484815181106131b7576131b761487f565b60200260200101516001600160a01b03166131ee9092919063ffffffff16565b6131e081614895565b9050613105565b5050505050565b8015806132775750604051636eb1769f60e11b81523060048201526001600160a01b03838116602483015284169063dd62ed3e9060440160206040518083038186803b15801561323d57600080fd5b505afa158015613251573d6000803e3d6000fd5b505050506040513d601f19601f820116820180604052508101906132759190614765565b155b6132e25760405162461bcd60e51b815260206004820152603660248201527f5361666545524332303a20617070726f76652066726f6d206e6f6e2d7a65726f60448201527520746f206e6f6e2d7a65726f20616c6c6f77616e636560501b60648201526084016104b1565b6040516001600160a01b038316602482015260448101829052611a6990849063095ea7b360e01b90606401611a32565b6000670de0b6b3a76400007f00000000000000000000000000000000000000000000000000000000000000006001600160a01b03166370a08231306040518263ffffffff1660e01b81526004016133699190614649565b60206040518083038186803b15801561338157600080fd5b505afa158015613395573d6000803e3d6000fd5b505050506040513d601f19601f820116820180604052508101906133b99190614765565b7f00000000000000000000000000000000000000000000000000000000000000006001600160a01b03166399530b066040518163ffffffff1660e01b815260040160206040518083038186803b15801561341257600080fd5b505afa158015613426573d6000803e3d6000fd5b505050506040513d601f19601f8201168201806040525081019061344a9190614765565b6134549190614a5f565b61345e9190614a7e565b6008546040516370a0823160e01b81526001600160a01b03909116906370a0823190611597903090600401614649565b6002546008546040516353b609b560e01b81526001600160a01b037f00000000000000000000000000000000000000000000000000000000000000008116600483015291821660248201526044810185905260009291909116906353b609b590606401602060405180830381600087803b15801561350b57600080fd5b505af115801561351f573d6000803e3d6000fd5b505050506040513d601f19601f820116820180604052508101906135439190614765565b90508015611a69576040516370a0823160e01b81526000906001600160a01b037f000000000000000000000000000000000000000000000000000000000000000016906370a082319061359a903090600401614649565b60206040518083038186803b1580156135b257600080fd5b505afa1580156135c6573d6000803e3d6000fd5b505050506040513d601f19601f820116820180604052508101906135ea9190614765565b9050808211156136e25760006136008284614794565b905080846001600160a01b03166369328dec7f000000000000000000000000000000000000000000000000000000000000000084306040518463ffffffff1660e01b815260040161365393929190614926565b602060405180830381600087803b15801561366d57600080fd5b505af1158015613681573d6000803e3d6000fd5b505050506040513d601f19601f820116820180604052508101906136a59190614765565b1460405180604001604052806002815260200161323960f01b815250906136df5760405162461bcd60e51b81526004016104b191906146e0565b50505b6002546008546040516381cc619b60e01b81526001600160a01b03928316926381cc619b9261373f927f000000000000000000000000000000000000000000000000000000000000000092909116908990889030906004016148b0565b602060405180830381600087803b15801561375957600080fd5b505af115801561376d573d6000803e3d6000fd5b505050506040513d601f19601f820116820180604052508101906131e79190614765565b8015610769576137a0816142d7565b6008546040516370a0823160e01b81526000916001600160a01b0316906370a08231906137d1903090600401614649565b60206040518083038186803b1580156137e957600080fd5b505afa1580156137fd573d6000803e3d6000fd5b505050506040513d601f19601f820116820180604052508101906138219190614765565b905080156108b0576008546108b0906001600160a01b03167f00000000000000000000000000000000000000000000000000000000000000008361299f565b81156108b05760405163617ba03760e01b81526001600160a01b037f000000000000000000000000000000000000000000000000000000000000000081166004830152602482018490523060448301526000606483015282169063617ba03790608401600060405180830381600087803b1580156138dd57600080fd5b505af19250505080156138ee575060015b6108b0576138fa614aa0565b806308c379a01415613967575061390f614abc565b8061391a5750613969565b61392381614b46565b611a9b60f11b14611a695760405162461bcd60e51b815260206004820152600e60248201526d19195c1bdcda5d0819985a5b195960921b60448201526064016104b1565b505b3d6000803e3d6000fd5b600080851580613981575084155b6139c15760405162461bcd60e51b8152602060048201526011602482015270616c6c2d696e7075742d67742d7a65726f60781b60448201526064016104b1565b6007546139d357506000905082613fc8565b60008087116139f9578584116139ea576000613a03565b6139f48685614794565b613a03565b613a038785614867565b905080613a17576000859250925050613fc8565b60007f00000000000000000000000000000000000000000000000000000000000000006001600160a01b031663fca513a86040518163ffffffff1660e01b815260040160206040518083038186803b158015613a7257600080fd5b505afa158015613a86573d6000803e3d6000fd5b505050506040513d601f19601f82011682018060405250810190613aaa91906147ab565b60085460405163b3596f0760e01b81529192506000916001600160a01b038085169263b3596f0792613ae29290911690600401614649565b60206040518083038186803b158015613afa57600080fd5b505afa158015613b0e573d6000803e3d6000fd5b505050506040513d601f19601f82011682018060405250810190613b329190614765565b90506000826001600160a01b031663b3596f077f00000000000000000000000000000000000000000000000000000000000000006040518263ffffffff1660e01b8152600401613b829190614649565b60206040518083038186803b158015613b9a57600080fd5b505afa158015613bae573d6000803e3d6000fd5b505050506040513d601f19601f82011682018060405250810190613bd29190614765565b9050811580613bdf575080155b15613bf4576000889550955050505050613fc8565b60007f00000000000000000000000000000000000000000000000000000000000000006001600160a01b031663e860accb6040518163ffffffff1660e01b815260040160206040518083038186803b158015613c4f57600080fd5b505afa158015613c63573d6000803e3d6000fd5b505050506040513d601f19601f82011682018060405250810190613c8791906147ab565b6001600160a01b0316633e1501417f00000000000000000000000000000000000000000000000000000000000000006040518263ffffffff1660e01b8152600401613cd29190614649565b6101406040518083038186803b158015613ceb57600080fd5b505afa158015613cff573d6000803e3d6000fd5b505050506040513d601f19601f82011682018060405250810190613d239190614b6a565b505050505050505091505060007f00000000000000000000000000000000000000000000000000000000000000006001600160a01b031663313ce5676040518163ffffffff1660e01b815260040160206040518083038186803b158015613d8957600080fd5b505afa158015613d9d573d6000803e3d6000fd5b505050506040513d601f19601f82011682018060405250810190613dc19190614c01565b613dcc90600a614d08565b613dd890612710614a5f565b83613de38489614a5f565b613ded9190614a5f565b613df79190614a7e565b9050600084600860009054906101000a90046001600160a01b03166001600160a01b031663313ce5676040518163ffffffff1660e01b815260040160206040518083038186803b158015613e4a57600080fd5b505afa158015613e5e573d6000803e3d6000fd5b505050506040513d601f19601f82011682018060405250810190613e829190614c01565b613e8d90600a614d08565b613e979084614a5f565b613ea19190614a7e565b905080613ebb5760008b9850985050505050505050613fc8565b600061271060075483613ece9190614a5f565b613ed89190614a7e565b9050600061271060065484613eed9190614a5f565b613ef79190614a7e565b9050818d1115613f1257613f0b818e614794565b9950613fbe565b8c811115613fbe57613f248d82614794565b600854600a546040516370a0823160e01b8152929d506000926001600160a01b03928316926370a0823192613f5e92911690600401614649565b60206040518083038186803b158015613f7657600080fd5b505afa158015613f8a573d6000803e3d6000fd5b505050506040513d601f19601f82011682018060405250810190613fae9190614765565b9050808c1115613fbc57809b505b505b5050505050505050505b94509492505050565b613fda82614494565b60085460405163573ade8160e01b81526001600160a01b03918216600482015260248101849052600260448201523060648201529082169063573ade8190608401600060405180830381600087803b15801561403557600080fd5b505af1158015614049573d6000803e3d6000fd5b505050505050565b60405163b6b55f2560e01b8152600481018290527f00000000000000000000000000000000000000000000000000000000000000006001600160a01b03169063b6b55f2590602401600060405180830381600087803b1580156140b357600080fd5b505af11580156131e7573d6000803e3d6000fd5b60608160000180548060200260200160405190810160405280929190818152602001828054801561411757602002820191906000526020600020905b815481526020019060010190808311614103575b50505050509050919050565b606080826001600160a01b03166375d264136040518163ffffffff1660e01b815260040160206040518083038186803b15801561415f57600080fd5b505afa92505050801561418f575060408051601f3d908101601f1916820190925261418c918101906147ab565b60015b61419857915091565b6040805160018082528183019092526000916020808301908036833701905050905084816000815181106141ce576141ce61487f565b6001600160a01b03928316602091820292909201015260405163bb492bf560e01b81529083169063bb492bf59061420b9084903090600401614d17565b600060405180830381600087803b15801561422557600080fd5b505af1158015614239573d6000803e3d6000fd5b505050506040513d6000823e601f3d908101601f191682016040526142619190810190614d41565b935093505050915091565b606061427b848460008561449d565b949350505050565b6107696001600160a01b037f0000000000000000000000000000000000000000000000000000000000000000167f0000000000000000000000000000000000000000000000000000000000000000836131ee565b80156107695760007f00000000000000000000000000000000000000000000000000000000000000006001600160a01b03166399530b066040518163ffffffff1660e01b815260040160206040518083038186803b15801561433857600080fd5b505afa15801561434c573d6000803e3d6000fd5b505050506040513d601f19601f820116820180604052508101906143709190614765565b905060008161438784670de0b6b3a7640000614a5f565b6143919190614a7e565b9050670de0b6b3a76400006143a68383614a5f565b6143b09190614a7e565b83116143bc57806143c7565b6143c7816001614867565b90507f00000000000000000000000000000000000000000000000000000000000000006001600160a01b0316632e1a7d4d614448837f00000000000000000000000000000000000000000000000000000000000000006001600160a01b03166370a08231306040518263ffffffff1660e01b8152600401612cee9190614649565b6040518263ffffffff1660e01b815260040161446691815260200190565b600060405180830381600087803b15801561448057600080fd5b505af1158015612e22573d6000803e3d6000fd5b610769816142d7565b6060824710156144fe5760405162461bcd60e51b815260206004820152602660248201527f416464726573733a20696e73756666696369656e742062616c616e636520666f6044820152651c8818d85b1b60d21b60648201526084016104b1565b843b61454c5760405162461bcd60e51b815260206004820152601d60248201527f416464726573733a2063616c6c20746f206e6f6e2d636f6e747261637400000060448201526064016104b1565b600080866001600160a01b031685876040516145689190614e07565b60006040518083038185875af1925050503d80600081146145a5576040519150601f19603f3d011682016040523d82523d6000602084013e6145aa565b606091505b50915091506145ba8282866145c5565b979650505050505050565b606083156145d45750816117cb565b8251156145e45782518084602001fd5b8160405162461bcd60e51b81526004016104b191906146e0565b60006020828403121561461057600080fd5b5035919050565b6001600160a01b038116811461076957600080fd5b60006020828403121561463e57600080fd5b81356117cb81614617565b6001600160a01b0391909116815260200190565b600081518084526020808501945080840160005b838110156146965781516001600160a01b031687529582019590820190600101614671565b509495945050505050565b6020815260006117cb602083018461465d565b60005b838110156146cf5781810151838201526020016146b7565b838111156129995750506000910152565b60208152600082518060208401526146ff8160408501602087016146b4565b601f01601f19169190910160400192915050565b6000806040838503121561472657600080fd5b50508035926020909101359150565b60208082526016908201527531b0b63632b916b4b996b737ba16b096b5b2b2b832b960511b604082015260600190565b60006020828403121561477757600080fd5b5051919050565b634e487b7160e01b600052601160045260246000fd5b6000828210156147a6576147a661477e565b500390565b6000602082840312156147bd57600080fd5b81516117cb81614617565b6020808252601a908201527f63616c6c65722d69732d6e6f742d7468652d676f7665726e6f72000000000000604082015260600190565b60208082526019908201527818d85b1b195c8b5a5ccb5b9bdd0b5d995cdc195c8b5c1bdbdb603a1b604082015260600190565b600181811c9082168061484657607f821691505b6020821081141561065457634e487b7160e01b600052602260045260246000fd5b6000821982111561487a5761487a61477e565b500190565b634e487b7160e01b600052603260045260246000fd5b60006000198214156148a9576148a961477e565b5060010190565b6001600160a01b039586168152938516602085015260408401929092526060830152909116608082015260a00190565b634e487b7160e01b600052603160045260246000fd5b8051801515811461490657600080fd5b919050565b60006020828403121561491d57600080fd5b6117cb826148f6565b6001600160a01b0393841681526020810192909252909116604082015260600190565b634e487b7160e01b600052604160045260246000fd5b601f8201601f1916810167ffffffffffffffff8111828210171561498557614985614949565b6040525050565b600067ffffffffffffffff8211156149a6576149a6614949565b5060051b60200190565b600082601f8301126149c157600080fd5b815160206149ce8261498c565b6040516149db828261495f565b83815260059390931b85018201928281019150868411156149fb57600080fd5b8286015b84811015614a1f578051614a1281614617565b83529183019183016149ff565b509695505050505050565b600060208284031215614a3c57600080fd5b815167ffffffffffffffff811115614a5357600080fd5b61427b848285016149b0565b6000816000190483118215151615614a7957614a7961477e565b500290565b600082614a9b57634e487b7160e01b600052601260045260246000fd5b500490565b600060033d1115614ab95760046000803e5060005160e01c5b90565b600060443d1015614aca5790565b6040516003193d81016004833e81513d67ffffffffffffffff8160248401118184111715614afa57505050505090565b8285019150815181811115614b125750505050505090565b843d8701016020828501011115614b2c5750505050505090565b614b3b6020828601018761495f565b509095945050505050565b805160208083015191908110156106545760001960209190910360031b1b16919050565b6000806000806000806000806000806101408b8d031215614b8a57600080fd5b8a51995060208b0151985060408b0151975060608b0151965060808b01519550614bb660a08c016148f6565b9450614bc460c08c016148f6565b9350614bd260e08c016148f6565b9250614be16101008c016148f6565b9150614bf06101208c016148f6565b90509295989b9194979a5092959850565b600060208284031215614c1357600080fd5b815160ff811681146117cb57600080fd5b600181815b80851115614c5f578160001904821115614c4557614c4561477e565b80851615614c5257918102915b93841c9390800290614c29565b509250929050565b600082614c7657506001610b7c565b81614c8357506000610b7c565b8160018114614c995760028114614ca357614cbf565b6001915050610b7c565b60ff841115614cb457614cb461477e565b50506001821b610b7c565b5060208310610133831016604e8410600b8410161715614ce2575081810a610b7c565b614cec8383614c24565b8060001904821115614d0057614d0061477e565b029392505050565b60006117cb60ff841683614c67565b604081526000614d2a604083018561465d565b905060018060a01b03831660208301529392505050565b60008060408385031215614d5457600080fd5b825167ffffffffffffffff80821115614d6c57600080fd5b614d78868387016149b0565b9350602091508185015181811115614d8f57600080fd5b85019050601f81018613614da257600080fd5b8051614dad8161498c565b604051614dba828261495f565b82815260059290921b8301840191848101915088831115614dda57600080fd5b928401925b82841015614df857835182529284019290840190614ddf565b80955050505050509250929050565b60008251614e198184602087016146b4565b919091019291505056fea264697066735822122018fd2d5fd90e59e13b24b477a588c21ac990ba0fb504f280ca96d2c0d626021364736f6c63430008090033",
  "devdoc": {
    "kind": "dev",
    "methods": {
      "addKeeper(address)": {
        "params": {
          "_keeperAddress": "keeper address to add."
        }
      },
      "approveToken(uint256)": {
        "details": "Approve all required tokens"
      },
      "migrate(address)": {
        "details": "_beforeMigration hook can be implemented in child strategy to do extra steps.",
        "params": {
          "_newStrategy": "Address of new strategy"
        }
      },
      "rebalance()": {
        "returns": {
          "_loss": "Realized loss, if any, in collateral.",
          "_payback": "If strategy has any excess debt, we have to liquidate asset to payback excess debt.",
          "_profit": "Realized profit in collateral."
        }
      },
      "removeKeeper(address)": {
        "params": {
          "_keeperAddress": "keeper address to remove."
        }
      },
      "sweepERC20(address)": {
        "params": {
          "_fromToken": "token address to sweep"
        }
      },
      "updateBorrowLimit(uint256,uint256)": {
        "details": "It is possible to set _maxBorrowLimit and _minBorrowLimit as 0 to not borrow anything",
        "params": {
          "_maxBorrowLimit": "It is % of actual collateral factor of protocol",
          "_minBorrowLimit": "It is % of actual collateral factor of protocol"
        }
      },
      "updateFeeCollector(address)": {
        "params": {
          "_feeCollector": "fee collector address"
        }
      },
      "updateSwapper(address)": {
        "params": {
          "_swapper": "swapper address"
        }
      },
      "withdraw(uint256)": {
        "params": {
          "_amount": "Amount of collateral token"
        }
      }
    },
    "title": "Deposit Collateral in Aave and earn interest by depositing borrowed token in a Vesper Pool.",
    "version": 1
  },
  "userdoc": {
    "kind": "user",
    "methods": {
      "addKeeper(address)": {
        "notice": "Add given address in keepers list."
      },
      "claimAndSwapRewards(uint256)": {
        "notice": "Claim rewardToken and convert rewardToken into collateral token."
      },
      "collateral()": {
        "notice": "Returns address of token correspond to collateral token"
      },
      "isReservedToken(address)": {
        "notice": "Check whether given token is reserved or not. Reserved tokens are not allowed to sweep."
      },
      "keepers()": {
        "notice": "Return list of keepers"
      },
      "migrate(address)": {
        "notice": "Migrate all asset and vault ownership,if any, to new strategy"
      },
      "rebalance()": {
        "notice": "OnlyKeeper: Rebalance profit, loss and investment of this strategy.  Calculate profit, loss and payback of this strategy and realize profit/loss and  withdraw fund for payback, if any, and submit this report to pool."
      },
      "removeKeeper(address)": {
        "notice": "Remove given address from keepers list."
      },
      "sweepERC20(address)": {
        "notice": "sweep given token to feeCollector of strategy"
      },
      "token()": {
        "notice": "Returns address of token correspond to receipt token"
      },
      "tvl()": {
        "notice": "Returns total collateral locked in the strategy"
      },
      "updateBorrowLimit(uint256,uint256)": {
        "notice": "Update upper and lower borrow limit. Usually maxBorrowLimit < 100% of actual collateral factor of protocol."
      },
      "updateFeeCollector(address)": {
        "notice": "Update fee collector"
      },
      "updateSwapper(address)": {
        "notice": "Update swapper"
      },
      "withdraw(uint256)": {
        "notice": "Withdraw collateral token from end protocol."
      }
    },
    "version": 1
  },
  "storageLayout": {
    "storage": [
      {
        "astId": 14536,
        "contract": "vesper-strategies/contracts/strategies/aave/v3/AaveV3VesperXy.sol:AaveV3VesperXy",
        "label": "receiptToken",
        "offset": 0,
        "slot": "0",
        "type": "t_address"
      },
      {
        "astId": 14542,
        "contract": "vesper-strategies/contracts/strategies/aave/v3/AaveV3VesperXy.sol:AaveV3VesperXy",
        "label": "feeCollector",
        "offset": 0,
        "slot": "1",
        "type": "t_address"
      },
      {
        "astId": 14545,
        "contract": "vesper-strategies/contracts/strategies/aave/v3/AaveV3VesperXy.sol:AaveV3VesperXy",
        "label": "swapper",
        "offset": 0,
        "slot": "2",
        "type": "t_contract(IRoutedSwapper)13384"
      },
      {
        "astId": 14558,
        "contract": "vesper-strategies/contracts/strategies/aave/v3/AaveV3VesperXy.sol:AaveV3VesperXy",
        "label": "_keepers",
        "offset": 0,
        "slot": "3",
        "type": "t_struct(AddressSet)3024_storage"
      },
      {
        "astId": 17988,
        "contract": "vesper-strategies/contracts/strategies/aave/v3/AaveV3VesperXy.sol:AaveV3VesperXy",
        "label": "NAME",
        "offset": 0,
        "slot": "5",
        "type": "t_string_storage"
      },
      {
        "astId": 17997,
        "contract": "vesper-strategies/contracts/strategies/aave/v3/AaveV3VesperXy.sol:AaveV3VesperXy",
        "label": "minBorrowLimit",
        "offset": 0,
        "slot": "6",
        "type": "t_uint256"
      },
      {
        "astId": 18000,
        "contract": "vesper-strategies/contracts/strategies/aave/v3/AaveV3VesperXy.sol:AaveV3VesperXy",
        "label": "maxBorrowLimit",
        "offset": 0,
        "slot": "7",
        "type": "t_uint256"
      },
      {
        "astId": 18005,
        "contract": "vesper-strategies/contracts/strategies/aave/v3/AaveV3VesperXy.sol:AaveV3VesperXy",
        "label": "borrowToken",
        "offset": 0,
        "slot": "8",
        "type": "t_address"
      },
      {
        "astId": 18008,
        "contract": "vesper-strategies/contracts/strategies/aave/v3/AaveV3VesperXy.sol:AaveV3VesperXy",
        "label": "vdToken",
        "offset": 0,
        "slot": "9",
        "type": "t_contract(AToken)10138"
      },
      {
        "astId": 18010,
        "contract": "vesper-strategies/contracts/strategies/aave/v3/AaveV3VesperXy.sol:AaveV3VesperXy",
        "label": "aBorrowToken",
        "offset": 0,
        "slot": "10",
        "type": "t_address"
      }
    ],
    "types": {
      "t_address": {
        "encoding": "inplace",
        "label": "address",
        "numberOfBytes": "20"
      },
      "t_array(t_bytes32)dyn_storage": {
        "base": "t_bytes32",
        "encoding": "dynamic_array",
        "label": "bytes32[]",
        "numberOfBytes": "32"
      },
      "t_bytes32": {
        "encoding": "inplace",
        "label": "bytes32",
        "numberOfBytes": "32"
      },
      "t_contract(AToken)10138": {
        "encoding": "inplace",
        "label": "contract AToken",
        "numberOfBytes": "20"
      },
      "t_contract(IRoutedSwapper)13384": {
        "encoding": "inplace",
        "label": "contract IRoutedSwapper",
        "numberOfBytes": "20"
      },
      "t_mapping(t_bytes32,t_uint256)": {
        "encoding": "mapping",
        "key": "t_bytes32",
        "label": "mapping(bytes32 => uint256)",
        "numberOfBytes": "32",
        "value": "t_uint256"
      },
      "t_string_storage": {
        "encoding": "bytes",
        "label": "string",
        "numberOfBytes": "32"
      },
      "t_struct(AddressSet)3024_storage": {
        "encoding": "inplace",
        "label": "struct EnumerableSet.AddressSet",
        "members": [
          {
            "astId": 3023,
            "contract": "vesper-strategies/contracts/strategies/aave/v3/AaveV3VesperXy.sol:AaveV3VesperXy",
            "label": "_inner",
            "offset": 0,
            "slot": "0",
            "type": "t_struct(Set)2723_storage"
          }
        ],
        "numberOfBytes": "64"
      },
      "t_struct(Set)2723_storage": {
        "encoding": "inplace",
        "label": "struct EnumerableSet.Set",
        "members": [
          {
            "astId": 2718,
            "contract": "vesper-strategies/contracts/strategies/aave/v3/AaveV3VesperXy.sol:AaveV3VesperXy",
            "label": "_values",
            "offset": 0,
            "slot": "0",
            "type": "t_array(t_bytes32)dyn_storage"
          },
          {
            "astId": 2722,
            "contract": "vesper-strategies/contracts/strategies/aave/v3/AaveV3VesperXy.sol:AaveV3VesperXy",
            "label": "_indexes",
            "offset": 0,
            "slot": "1",
            "type": "t_mapping(t_bytes32,t_uint256)"
          }
        ],
        "numberOfBytes": "64"
      },
      "t_uint256": {
        "encoding": "inplace",
        "label": "uint256",
        "numberOfBytes": "32"
      }
    }
  }
}