{
  "address": "0xaF3F68C2f40b625Ef301B3fd0C39E013628ea59B",
  "abi": [
    {
      "inputs": [
        {
          "internalType": "address",
          "name": "_pool",
          "type": "address"
        },
        {
          "internalType": "address",
          "name": "_swapper",
          "type": "address"
        },
        {
          "internalType": "address",
          "name": "_comptroller",
          "type": "address"
        },
        {
          "internalType": "address",
          "name": "_rewardToken",
          "type": "address"
        },
        {
          "internalType": "address",
          "name": "_receiptToken",
          "type": "address"
        },
        {
          "internalType": "address",
          "name": "_borrowCToken",
          "type": "address"
        },
        {
          "internalType": "string",
          "name": "_name",
          "type": "string"
        }
      ],
      "stateMutability": "nonpayable",
      "type": "constructor"
    },
    {
      "anonymous": false,
      "inputs": [
        {
          "indexed": false,
          "internalType": "uint256",
          "name": "previousMinBorrowLimit",
          "type": "uint256"
        },
        {
          "indexed": false,
          "internalType": "uint256",
          "name": "newMinBorrowLimit",
          "type": "uint256"
        },
        {
          "indexed": false,
          "internalType": "uint256",
          "name": "previousMaxBorrowLimit",
          "type": "uint256"
        },
        {
          "indexed": false,
          "internalType": "uint256",
          "name": "newMaxBorrowLimit",
          "type": "uint256"
        }
      ],
      "name": "UpdatedBorrowLimit",
      "type": "event"
    },
    {
      "anonymous": false,
      "inputs": [
        {
          "indexed": true,
          "internalType": "address",
          "name": "previousFeeCollector",
          "type": "address"
        },
        {
          "indexed": true,
          "internalType": "address",
          "name": "newFeeCollector",
          "type": "address"
        }
      ],
      "name": "UpdatedFeeCollector",
      "type": "event"
    },
    {
      "anonymous": false,
      "inputs": [
        {
          "indexed": true,
          "internalType": "contract IRoutedSwapper",
          "name": "oldSwapper",
          "type": "address"
        },
        {
          "indexed": true,
          "internalType": "contract IRoutedSwapper",
          "name": "newSwapper",
          "type": "address"
        }
      ],
      "name": "UpdatedSwapper",
      "type": "event"
    },
    {
      "inputs": [],
      "name": "NAME",
      "outputs": [
        {
          "internalType": "string",
          "name": "",
          "type": "string"
        }
      ],
      "stateMutability": "view",
      "type": "function"
    },
    {
      "inputs": [],
      "name": "VERSION",
      "outputs": [
        {
          "internalType": "string",
          "name": "",
          "type": "string"
        }
      ],
      "stateMutability": "view",
      "type": "function"
    },
    {
      "inputs": [
        {
          "internalType": "address",
          "name": "_keeperAddress",
          "type": "address"
        }
      ],
      "name": "addKeeper",
      "outputs": [],
      "stateMutability": "nonpayable",
      "type": "function"
    },
    {
      "inputs": [],
      "name": "approveToken",
      "outputs": [],
      "stateMutability": "nonpayable",
      "type": "function"
    },
    {
      "inputs": [],
      "name": "borrowCToken",
      "outputs": [
        {
          "internalType": "contract CToken",
          "name": "",
          "type": "address"
        }
      ],
      "stateMutability": "view",
      "type": "function"
    },
    {
      "inputs": [],
      "name": "borrowToken",
      "outputs": [
        {
          "internalType": "address",
          "name": "",
          "type": "address"
        }
      ],
      "stateMutability": "view",
      "type": "function"
    },
    {
      "inputs": [],
      "name": "collateral",
      "outputs": [
        {
          "internalType": "address",
          "name": "",
          "type": "address"
        }
      ],
      "stateMutability": "view",
      "type": "function"
    },
    {
      "inputs": [],
      "name": "collateralToken",
      "outputs": [
        {
          "internalType": "contract IERC20",
          "name": "",
          "type": "address"
        }
      ],
      "stateMutability": "view",
      "type": "function"
    },
    {
      "inputs": [],
      "name": "comptroller",
      "outputs": [
        {
          "internalType": "contract Comptroller",
          "name": "",
          "type": "address"
        }
      ],
      "stateMutability": "view",
      "type": "function"
    },
    {
      "inputs": [],
      "name": "feeCollector",
      "outputs": [
        {
          "internalType": "address",
          "name": "",
          "type": "address"
        }
      ],
      "stateMutability": "view",
      "type": "function"
    },
    {
      "inputs": [
        {
          "internalType": "address",
          "name": "_token",
          "type": "address"
        }
      ],
      "name": "isReservedToken",
      "outputs": [
        {
          "internalType": "bool",
          "name": "",
          "type": "bool"
        }
      ],
      "stateMutability": "view",
      "type": "function"
    },
    {
      "inputs": [],
      "name": "keepers",
      "outputs": [
        {
          "internalType": "address[]",
          "name": "",
          "type": "address[]"
        }
      ],
      "stateMutability": "view",
      "type": "function"
    },
    {
      "inputs": [],
      "name": "maxBorrowLimit",
      "outputs": [
        {
          "internalType": "uint256",
          "name": "",
          "type": "uint256"
        }
      ],
      "stateMutability": "view",
      "type": "function"
    },
    {
      "inputs": [
        {
          "internalType": "address",
          "name": "_newStrategy",
          "type": "address"
        }
      ],
      "name": "migrate",
      "outputs": [],
      "stateMutability": "nonpayable",
      "type": "function"
    },
    {
      "inputs": [],
      "name": "minBorrowLimit",
      "outputs": [
        {
          "internalType": "uint256",
          "name": "",
          "type": "uint256"
        }
      ],
      "stateMutability": "view",
      "type": "function"
    },
    {
      "inputs": [],
      "name": "pool",
      "outputs": [
        {
          "internalType": "address",
          "name": "",
          "type": "address"
        }
      ],
      "stateMutability": "view",
      "type": "function"
    },
    {
      "inputs": [],
      "name": "rebalance",
      "outputs": [
        {
          "internalType": "uint256",
          "name": "_profit",
          "type": "uint256"
        },
        {
          "internalType": "uint256",
          "name": "_loss",
          "type": "uint256"
        },
        {
          "internalType": "uint256",
          "name": "_payback",
          "type": "uint256"
        }
      ],
      "stateMutability": "nonpayable",
      "type": "function"
    },
    {
      "inputs": [],
      "name": "receiptToken",
      "outputs": [
        {
          "internalType": "address",
          "name": "",
          "type": "address"
        }
      ],
      "stateMutability": "view",
      "type": "function"
    },
    {
      "inputs": [
        {
          "internalType": "uint256",
          "name": "_amountToRecover",
          "type": "uint256"
        }
      ],
      "name": "recoverBorrowToken",
      "outputs": [],
      "stateMutability": "nonpayable",
      "type": "function"
    },
    {
      "inputs": [
        {
          "internalType": "address",
          "name": "_keeperAddress",
          "type": "address"
        }
      ],
      "name": "removeKeeper",
      "outputs": [],
      "stateMutability": "nonpayable",
      "type": "function"
    },
    {
      "inputs": [],
      "name": "repayAll",
      "outputs": [],
      "stateMutability": "nonpayable",
      "type": "function"
    },
    {
      "inputs": [],
      "name": "rewardToken",
      "outputs": [
        {
          "internalType": "address",
          "name": "",
          "type": "address"
        }
      ],
      "stateMutability": "view",
      "type": "function"
    },
    {
      "inputs": [],
      "name": "supplyCToken",
      "outputs": [
        {
          "internalType": "contract CToken",
          "name": "",
          "type": "address"
        }
      ],
      "stateMutability": "view",
      "type": "function"
    },
    {
      "inputs": [],
      "name": "swapper",
      "outputs": [
        {
          "internalType": "contract IRoutedSwapper",
          "name": "",
          "type": "address"
        }
      ],
      "stateMutability": "view",
      "type": "function"
    },
    {
      "inputs": [
        {
          "internalType": "address",
          "name": "_fromToken",
          "type": "address"
        }
      ],
      "name": "sweepERC20",
      "outputs": [],
      "stateMutability": "nonpayable",
      "type": "function"
    },
    {
      "inputs": [],
      "name": "token",
      "outputs": [
        {
          "internalType": "address",
          "name": "",
          "type": "address"
        }
      ],
      "stateMutability": "view",
      "type": "function"
    },
    {
      "inputs": [],
      "name": "tvl",
      "outputs": [
        {
          "internalType": "uint256",
          "name": "",
          "type": "uint256"
        }
      ],
      "stateMutability": "view",
      "type": "function"
    },
    {
      "inputs": [
        {
          "internalType": "uint256",
          "name": "_minBorrowLimit",
          "type": "uint256"
        },
        {
          "internalType": "uint256",
          "name": "_maxBorrowLimit",
          "type": "uint256"
        }
      ],
      "name": "updateBorrowLimit",
      "outputs": [],
      "stateMutability": "nonpayable",
      "type": "function"
    },
    {
      "inputs": [
        {
          "internalType": "address",
          "name": "_feeCollector",
          "type": "address"
        }
      ],
      "name": "updateFeeCollector",
      "outputs": [],
      "stateMutability": "nonpayable",
      "type": "function"
    },
    {
      "inputs": [
        {
          "internalType": "contract IRoutedSwapper",
          "name": "_swapper",
          "type": "address"
        }
      ],
      "name": "updateSwapper",
      "outputs": [],
      "stateMutability": "nonpayable",
      "type": "function"
    },
    {
      "inputs": [
        {
          "internalType": "uint256",
          "name": "_amount",
          "type": "uint256"
        }
      ],
      "name": "withdraw",
      "outputs": [],
      "stateMutability": "nonpayable",
      "type": "function"
    },
    {
      "stateMutability": "payable",
      "type": "receive"
    }
  ],
  "transactionHash": "0x65d8f2798e4409cff4cd2188dca4a30cc1beca287989e818a272d48743f4943c",
  "args": [
    "0xd1C117319B3595fbc39b471AB1fd485629eb05F2",
    "0x8f156189A3CD28dFc8FB7BbbAce58F98F09c0bB3",
    "0x3d9819210A31b4961b30EF54bE2aeD79B9c9Cd3B",
    "0xc00e94Cb662C3520282E6f5717214004A7f26888",
    "0x4Ddc2D193948926D02f9B1fE9e1daa0718270ED5",
    "0x5d3a536E4D6DbD6114cc1Ead35777bAB948E3643",
    "Compound_Xy_ETH_DAI"
  ],
  "numDeployments": 1,
  "solcInputHash": "77c93dd1e7e553126485d5a31c142036",
  "bytecode": "0x610120604052611b586006556121346007553480156200001e57600080fd5b5060405162004f5038038062004f50833981016040819052620000419162000705565b868686868686868686868585858585846001600160a01b038316620000ad5760405162461bcd60e51b815260206004820152601460248201527f706f6f6c2d616464726573732d69732d7a65726f00000000000000000000000060448201526064015b60405180910390fd5b6001600160a01b038216620001055760405162461bcd60e51b815260206004820152601760248201527f737761707065722d616464726573732d69732d7a65726f0000000000000000006044820152606401620000a4565b600280546001600160a01b0319166001600160a01b0384811691909117909155831660a081905260408051637e062a3560e11b8152905163fc0c546a91600480820192602092909190829003018186803b1580156200016357600080fd5b505afa15801562000178573d6000803e3d6000fd5b505050506040513d601f19601f820116820180604052508101906200019e919062000848565b6001600160a01b03908116608052600080546001600160a01b031916918316919091179055620001e5620001cf3390565b6003620004d360201b62001d131790919060201c565b620002275760405162461bcd60e51b81526020600482015260116024820152701859190b5ad9595c195c8b59985a5b1959607a1b6044820152606401620000a4565b5050506001600160a01b038316620002825760405162461bcd60e51b815260206004820152601660248201527f63546f6b656e2d616464726573732d69732d7a65726f000000000000000000006044820152606401620000a4565b6001600160a01b038416620002da5760405162461bcd60e51b815260206004820152601b60248201527f636f6d7074726f6c6c65722d616464726573732d69732d7a65726f00000000006044820152606401620000a4565b8051620002ef906005906020840190620005fd565b50600980546001600160a01b0319166001600160a01b038681169190911790915583811660c052821660e0526200032682620004f3565b600880546001600160a01b0319166001600160a01b039290921691909117905560408051600280825260608201835260009260208301908036833701905050905083816000815181106200037e576200037e6200086f565b60200260200101906001600160a01b031690816001600160a01b0316815250508281600181518110620003b557620003b56200086f565b6001600160a01b039283166020918202929092010152600954604051631853304760e31b815291169063c299823890620003f490849060040162000885565b600060405180830381600087803b1580156200040f57600080fd5b505af115801562000424573d6000803e3d6000fd5b505050506040513d6000823e601f3d908101601f191682016040526200044e9190810190620008d4565b50505050506001600160a01b03871615159250620004b29150505760405162461bcd60e51b815260206004820152601b60248201527f726577617264546f6b656e2d616464726573732d69732d7a65726f00000000006044820152606401620000a4565b5050506001600160a01b03166101005250620009c198505050505050505050565b6000620004ea836001600160a01b038416620005ab565b90505b92915050565b60006001600160a01b038216734ddc2d193948926d02f9b1fe9e1daa0718270ed5141562000536575073c02aaa39b223fe8d0a0e5c4f27ead9083c756cc2919050565b816001600160a01b0316636f307dc36040518163ffffffff1660e01b815260040160206040518083038186803b1580156200057057600080fd5b505afa15801562000585573d6000803e3d6000fd5b505050506040513d601f19601f82011682018060405250810190620004ed919062000848565b6000818152600183016020526040812054620005f457508154600181810184556000848152602080822090930184905584548482528286019093526040902091909155620004ed565b506000620004ed565b8280546200060b9062000984565b90600052602060002090601f0160209004810192826200062f57600085556200067a565b82601f106200064a57805160ff19168380011785556200067a565b828001600101855582156200067a579182015b828111156200067a5782518255916020019190600101906200065d565b50620006889291506200068c565b5090565b5b808211156200068857600081556001016200068d565b6001600160a01b0381168114620006b957600080fd5b50565b634e487b7160e01b600052604160045260246000fd5b604051601f8201601f191681016001600160401b0381118282101715620006fd57620006fd620006bc565b604052919050565b600080600080600080600060e0888a0312156200072157600080fd5b87516200072e81620006a3565b809750506020808901516200074381620006a3565b60408a01519097506200075681620006a3565b60608a01519096506200076981620006a3565b60808a01519095506200077c81620006a3565b60a08a01519094506200078f81620006a3565b60c08a01519093506001600160401b0380821115620007ad57600080fd5b818b0191508b601f830112620007c257600080fd5b815181811115620007d757620007d7620006bc565b620007eb601f8201601f19168501620006d2565b91508082528c848285010111156200080257600080fd5b60005b818110156200082257838101850151838201860152840162000805565b81811115620008345760008583850101525b505080935050505092959891949750929550565b6000602082840312156200085b57600080fd5b81516200086881620006a3565b9392505050565b634e487b7160e01b600052603260045260246000fd5b6020808252825182820181905260009190848201906040850190845b81811015620008c85783516001600160a01b031683529284019291840191600101620008a1565b50909695505050505050565b60006020808385031215620008e857600080fd5b82516001600160401b03808211156200090057600080fd5b818501915085601f8301126200091557600080fd5b8151818111156200092a576200092a620006bc565b8060051b91506200093d848301620006d2565b81815291830184019184810190888411156200095857600080fd5b938501935b8385101562000978578451825293850193908501906200095d565b98975050505050505050565b600181811c908216806200099957607f821691505b60208210811415620009bb57634e487b7160e01b600052602260045260246000fd5b50919050565b60805160a05160c05160e0516101005161436e62000be26000396000818161057901528181612437015281816130fb015261318e01526000818161031601528181610cf501528181611ab40152818161202e015281816125f4015281816127fe01528181612b1b01528181612e1601528181613040015281816136de015281816138bd0152818161392c0152613c5301526000818161054501528181610aa1015281816118860152818161192c01528181611dcf01528181612194015281816124f401528181612bd401528181612c6401528181612d7601528181612fec0152818161366d01528181613aae0152613bde015260008181610205015281816106210152818161073d01528181610859015281816109370152818161099301528181610ece01528181611010015281816110ad015281816112d9015281816114a201528181611b5001528181611eaf01528181611f4f015281816123970152613dc90152600081816103d3015281816104a40152818161079c01528181610837015281816108ab0152818161096a01528181610adc01528181610dc901528181610e7801528181610e9f01528181610ef00152818161123d015281816116d4015281816119df01528181611ff001528181612109015281816122b9015281816127c0015281816132520152818161330c015281816133d3015281816134710152818161353d0152818161364b015281816136a30152613da7015261436e6000f3fe60806040526004361061019c5760003560e01c8063c415b95c116100e2578063e5328e0611610085578063e5328e06146104fe578063ec78e83214610513578063efead58c14610533578063f7c618c114610567578063fa3ae6dc1461059b578063fb7ee102146105b0578063fc0c546a146105d0578063ffa1ad74146105ee57600080fd5b8063c415b95c146103f5578063c7ad274814610415578063ce5494bb14610435578063d2c35ce814610455578063d3033c3914610475578063d8dfeb4514610495578063e00af4a7146104c8578063e260d747146104e857600080fd5b8063456dc17a1161014a578063456dc17a146102c45780635fe3b567146102e4578063620a96d5146103045780637d7c2a1c14610338578063951dc22c1461036857806399b71d5c1461038a578063a3f4df7e1461039f578063b2016bd4146103c157600080fd5b80630181686c146101a857806314ae9f2e146101d157806316f0115b146101f35780632b3297f9146102345780632e1a7d4d146102545780634032b72b14610274578063440d72481461029457600080fd5b366101a357005b600080fd5b3480156101b457600080fd5b506101be60075481565b6040519081526020015b60405180910390f35b3480156101dd57600080fd5b506101f16101ec366004613f64565b61061f565b005b3480156101ff57600080fd5b506102277f000000000000000000000000000000000000000000000000000000000000000081565b6040516101c89190613f81565b34801561024057600080fd5b50600254610227906001600160a01b031681565b34801561026057600080fd5b506101f161026f366004613f95565b61073a565b34801561028057600080fd5b506101f161028f366004613f64565b610991565b3480156102a057600080fd5b506102b46102af366004613f64565b610a9d565b60405190151581526020016101c8565b3480156102d057600080fd5b50600854610227906001600160a01b031681565b3480156102f057600080fd5b50600954610227906001600160a01b031681565b34801561031057600080fd5b506102277f000000000000000000000000000000000000000000000000000000000000000081565b34801561034457600080fd5b5061034d610b2e565b604080519384526020840192909252908201526060016101c8565b34801561037457600080fd5b5061037d610b6e565b6040516101c89190613ff2565b34801561039657600080fd5b506101f1610b7f565b3480156103ab57600080fd5b506103b4610bbb565b6040516101c89190614031565b3480156103cd57600080fd5b506102277f000000000000000000000000000000000000000000000000000000000000000081565b34801561040157600080fd5b50600154610227906001600160a01b031681565b34801561042157600080fd5b506101f1610430366004613f95565b610c49565b34801561044157600080fd5b506101f1610450366004613f64565b61100d565b34801561046157600080fd5b506101f1610470366004613f64565b6112d7565b34801561048157600080fd5b506101f1610490366004613f64565b6114a0565b3480156104a157600080fd5b507f0000000000000000000000000000000000000000000000000000000000000000610227565b3480156104d457600080fd5b506101f16104e3366004613f64565b61165d565b3480156104f457600080fd5b506101be60065481565b34801561050a57600080fd5b506101be611878565b34801561051f57600080fd5b50600054610227906001600160a01b031681565b34801561053f57600080fd5b506102277f000000000000000000000000000000000000000000000000000000000000000081565b34801561057357600080fd5b506102277f000000000000000000000000000000000000000000000000000000000000000081565b3480156105a757600080fd5b506101f1611a74565b3480156105bc57600080fd5b506101f16105cb366004614064565b611b4e565b3480156105dc57600080fd5b506000546001600160a01b0316610227565b3480156105fa57600080fd5b506103b4604051806040016040528060058152602001640352e302e360dc1b81525081565b7f00000000000000000000000000000000000000000000000000000000000000006001600160a01b0316630c340a246040518163ffffffff1660e01b815260040160206040518083038186803b15801561067857600080fd5b505afa15801561068c573d6000803e3d6000fd5b505050506040513d601f19601f820116820180604052508101906106b09190614086565b6001600160a01b0316336001600160a01b0316146106e95760405162461bcd60e51b81526004016106e0906140a3565b60405180910390fd5b6106f4600382611d2f565b6107375760405162461bcd60e51b81526020600482015260146024820152731c995b5bdd994b5ad9595c195c8b59985a5b195960621b60448201526064016106e0565b50565b337f00000000000000000000000000000000000000000000000000000000000000006001600160a01b0316146107825760405162461bcd60e51b81526004016106e0906140da565b6040516370a0823160e01b81526000906001600160a01b037f000000000000000000000000000000000000000000000000000000000000000016906370a08231906107d1903090600401613f81565b60206040518083038186803b1580156107e957600080fd5b505afa1580156107fd573d6000803e3d6000fd5b505050506040513d601f19601f82011682018060405250810190610821919061410d565b90508181106108825761087e6001600160a01b037f0000000000000000000000000000000000000000000000000000000000000000167f000000000000000000000000000000000000000000000000000000000000000084611d44565b5050565b61089461088f828461413c565b611d9a565b6040516370a0823160e01b81526001600160a01b037f000000000000000000000000000000000000000000000000000000000000000016906370a08231906108e0903090600401613f81565b60206040518083038186803b1580156108f857600080fd5b505afa15801561090c573d6000803e3d6000fd5b505050506040513d601f19601f82011682018060405250810190610930919061410d565b905061087e7f00000000000000000000000000000000000000000000000000000000000000006109608484611e6f565b6001600160a01b037f0000000000000000000000000000000000000000000000000000000000000000169190611d44565b7f00000000000000000000000000000000000000000000000000000000000000006001600160a01b0316630c340a246040518163ffffffff1660e01b815260040160206040518083038186803b1580156109ea57600080fd5b505afa1580156109fe573d6000803e3d6000fd5b505050506040513d601f19601f82011682018060405250810190610a229190614086565b6001600160a01b0316336001600160a01b031614610a525760405162461bcd60e51b81526004016106e0906140a3565b610a5d600382611d13565b6107375760405162461bcd60e51b81526020600482015260116024820152701859190b5ad9595c195c8b59985a5b1959607a1b60448201526064016106e0565b60007f00000000000000000000000000000000000000000000000000000000000000006001600160a01b0316826001600160a01b03161480610b1057507f00000000000000000000000000000000000000000000000000000000000000006001600160a01b0316826001600160a01b0316145b80610b2857506008546001600160a01b038381169116145b92915050565b60008080610b3f335b600390611e85565b610b5b5760405162461bcd60e51b81526004016106e090614153565b610b63611ea7565b925092509250909192565b6060610b7a6003612410565b905090565b610b8833610b37565b610ba45760405162461bcd60e51b81526004016106e090614153565b610bae600061241d565b610bb960001961241d565b565b60058054610bc890614183565b80601f0160208091040260200160405190810160405280929190818152602001828054610bf490614183565b8015610c415780601f10610c1657610100808354040283529160200191610c41565b820191906000526020600020905b815481529060010190602001808311610c2457829003601f168201915b505050505081565b610c5233610b37565b610c6e5760405162461bcd60e51b81526004016106e090614153565b6008546040516370a0823160e01b81526000916001600160a01b0316906370a0823190610c9f903090600401613f81565b60206040518083038186803b158015610cb757600080fd5b505afa158015610ccb573d6000803e3d6000fd5b505050506040513d601f19601f82011682018060405250810190610cef919061410d565b905060007f00000000000000000000000000000000000000000000000000000000000000006001600160a01b03166395dd9193306040518263ffffffff1660e01b8152600401610d3f9190613f81565b60206040518083038186803b158015610d5757600080fd5b505afa158015610d6b573d6000803e3d6000fd5b505050506040513d601f19601f82011682018060405250810190610d8f919061410d565b905080821115611008576000610da5828461413c565b905060008085118015610db757508482115b610dc15781610dc3565b845b905060007f00000000000000000000000000000000000000000000000000000000000000006001600160a01b03166370a08231306040518263ffffffff1660e01b8152600401610e139190613f81565b60206040518083038186803b158015610e2b57600080fd5b505afa158015610e3f573d6000803e3d6000fd5b505050506040513d601f19601f82011682018060405250810190610e63919061410d565b600854909150610e9d906001600160a01b03167f000000000000000000000000000000000000000000000000000000000000000084612460565b7f00000000000000000000000000000000000000000000000000000000000000006001600160a01b031663a9059cbb7f0000000000000000000000000000000000000000000000000000000000000000837f00000000000000000000000000000000000000000000000000000000000000006001600160a01b03166370a08231306040518263ffffffff1660e01b8152600401610f3a9190613f81565b60206040518083038186803b158015610f5257600080fd5b505afa158015610f66573d6000803e3d6000fd5b505050506040513d601f19601f82011682018060405250810190610f8a919061410d565b610f94919061413c565b6040518363ffffffff1660e01b8152600401610fb19291906141be565b602060405180830381600087803b158015610fcb57600080fd5b505af1158015610fdf573d6000803e3d6000fd5b505050506040513d601f19601f8201168201806040525081019061100391906141ec565b505050505b505050565b337f00000000000000000000000000000000000000000000000000000000000000006001600160a01b0316146110555760405162461bcd60e51b81526004016106e0906140da565b6001600160a01b0381166110ab5760405162461bcd60e51b815260206004820152601c60248201527f6e65772d73747261746567792d616464726573732d69732d7a65726f0000000060448201526064016106e0565b7f00000000000000000000000000000000000000000000000000000000000000006001600160a01b0316816001600160a01b03166316f0115b6040518163ffffffff1660e01b815260040160206040518083038186803b15801561110e57600080fd5b505afa158015611122573d6000803e3d6000fd5b505050506040513d601f19601f820116820180604052508101906111469190614086565b6001600160a01b0316146111955760405162461bcd60e51b81526020600482015260166024820152756e6f742d76616c69642d6e65772d737472617465677960501b60448201526064016106e0565b61119e816124f2565b6000546040516370a0823160e01b81526112379183916001600160a01b03909116906370a08231906111d4903090600401613f81565b60206040518083038186803b1580156111ec57600080fd5b505afa158015611200573d6000803e3d6000fd5b505050506040513d601f19601f82011682018060405250810190611224919061410d565b6000546001600160a01b03169190611d44565b610737817f00000000000000000000000000000000000000000000000000000000000000006001600160a01b03166370a08231306040518263ffffffff1660e01b81526004016112879190613f81565b60206040518083038186803b15801561129f57600080fd5b505afa1580156112b3573d6000803e3d6000fd5b505050506040513d601f19601f82011682018060405250810190610960919061410d565b7f00000000000000000000000000000000000000000000000000000000000000006001600160a01b0316630c340a246040518163ffffffff1660e01b815260040160206040518083038186803b15801561133057600080fd5b505afa158015611344573d6000803e3d6000fd5b505050506040513d601f19601f820116820180604052508101906113689190614086565b6001600160a01b0316336001600160a01b0316146113985760405162461bcd60e51b81526004016106e0906140a3565b6001600160a01b0381166113ee5760405162461bcd60e51b815260206004820152601d60248201527f6665652d636f6c6c6563746f722d616464726573732d69732d7a65726f00000060448201526064016106e0565b6001546001600160a01b03828116911614156114445760405162461bcd60e51b81526020600482015260156024820152746665652d636f6c6c6563746f722d69732d73616d6560581b60448201526064016106e0565b6001546040516001600160a01b038084169216907f0f06062680f9bd68e786e9980d9bb03d73d5620fc3b345e417b6eacb310b970690600090a3600180546001600160a01b0319166001600160a01b0392909216919091179055565b7f00000000000000000000000000000000000000000000000000000000000000006001600160a01b0316630c340a246040518163ffffffff1660e01b815260040160206040518083038186803b1580156114f957600080fd5b505afa15801561150d573d6000803e3d6000fd5b505050506040513d601f19601f820116820180604052508101906115319190614086565b6001600160a01b0316336001600160a01b0316146115615760405162461bcd60e51b81526004016106e0906140a3565b6001600160a01b0381166115b15760405162461bcd60e51b8152602060048201526017602482015276737761707065722d616464726573732d69732d7a65726f60481b60448201526064016106e0565b6002546001600160a01b03828116911614156116015760405162461bcd60e51b815260206004820152600f60248201526e737761707065722d69732d73616d6560881b60448201526064016106e0565b6002546040516001600160a01b038084169216907f6c953b7ec311055c20b96a42cea31e89528e375b1bf953a503db40854b3188fe90600090a3600280546001600160a01b0319166001600160a01b0392909216919091179055565b61166633610b37565b6116825760405162461bcd60e51b81526004016106e090614153565b6001546001600160a01b03166116d25760405162461bcd60e51b81526020600482015260156024820152741999594b58dbdb1b1958dd1bdc8b5b9bdd0b5cd95d605a1b60448201526064016106e0565b7f00000000000000000000000000000000000000000000000000000000000000006001600160a01b0316816001600160a01b031614156117545760405162461bcd60e51b815260206004820152601f60248201527f6e6f742d616c6c6f7765642d746f2d73776565702d636f6c6c61746572616c0060448201526064016106e0565b61175d81610a9d565b156117a15760405162461bcd60e51b815260206004820152601460248201527306e6f742d616c6c6f7765642d746f2d73776565760641b60448201526064016106e0565b6001600160a01b03811673eeeeeeeeeeeeeeeeeeeeeeeeeeeeeeeeeeeeeeee14156117dc57600154610737906001600160a01b031647612682565b6040516370a0823160e01b81526000906001600160a01b038316906370a082319061180b903090600401613f81565b60206040518083038186803b15801561182357600080fd5b505afa158015611837573d6000803e3d6000fd5b505050506040513d601f19601f8201168201806040525081019061185b919061410d565b60015490915061087e906001600160a01b03848116911683611d44565b600080670de0b6b3a76400007f00000000000000000000000000000000000000000000000000000000000000006001600160a01b031663182df0f56040518163ffffffff1660e01b815260040160206040518083038186803b1580156118dd57600080fd5b505afa1580156118f1573d6000803e3d6000fd5b505050506040513d601f19601f82011682018060405250810190611915919061410d565b6040516370a0823160e01b81526001600160a01b037f000000000000000000000000000000000000000000000000000000000000000016906370a0823190611961903090600401613f81565b60206040518083038186803b15801561197957600080fd5b505afa15801561198d573d6000803e3d6000fd5b505050506040513d601f19601f820116820180604052508101906119b1919061410d565b6119bb9190614207565b6119c59190614226565b6040516370a0823160e01b81529091506001600160a01b037f000000000000000000000000000000000000000000000000000000000000000016906370a0823190611a14903090600401613f81565b60206040518083038186803b158015611a2c57600080fd5b505afa158015611a40573d6000803e3d6000fd5b505050506040513d601f19601f82011682018060405250810190611a64919061410d565b611a6e9082614248565b91505090565b611a7d33610b37565b611a995760405162461bcd60e51b81526004016106e090614153565b6040516305eff7ef60e21b8152611b42906001600160a01b037f000000000000000000000000000000000000000000000000000000000000000016906317bfdfbc90611ae9903090600401613f81565b602060405180830381600087803b158015611b0357600080fd5b505af1158015611b17573d6000803e3d6000fd5b505050506040513d601f19601f82011682018060405250810190611b3b919061410d565b600161279b565b60006006819055600755565b7f00000000000000000000000000000000000000000000000000000000000000006001600160a01b0316630c340a246040518163ffffffff1660e01b815260040160206040518083038186803b158015611ba757600080fd5b505afa158015611bbb573d6000803e3d6000fd5b505050506040513d601f19601f82011682018060405250810190611bdf9190614086565b6001600160a01b0316336001600160a01b031614611c0f5760405162461bcd60e51b81526004016106e0906140a3565b6127108110611c5b5760405162461bcd60e51b81526020600482015260186024820152771a5b9d985b1a590b5b585e0b589bdc9c9bddcb5b1a5b5a5d60421b60448201526064016106e0565b80158015611c67575081155b80611c7157508181115b611cbd5760405162461bcd60e51b815260206004820152601d60248201527f6d61782d73686f756c642d62652d6869676865722d7468616e2d6d696e00000060448201526064016106e0565b6006546007546040805192835260208301859052820152606081018290527fedd77444afdf63401315e81ffe86d08f7865796e8ad2e11acf1d56a1393f07d59060800160405180910390a1600691909155600755565b6000611d28836001600160a01b03841661289f565b9392505050565b6000611d28836001600160a01b0384166128ee565b6110088363a9059cbb60e01b8484604051602401611d639291906141be565b60408051601f198184030181529190526020810180516001600160e01b03166001600160e01b0319909316929092179091526129e1565b6000611da7600083612ab3565b915050611db581600161279b565b604051633af9e66960e01b81526000906001600160a01b037f00000000000000000000000000000000000000000000000000000000000000001690633af9e66990611e04903090600401613f81565b602060405180830381600087803b158015611e1e57600080fd5b505af1158015611e32573d6000803e3d6000fd5b505050506040513d601f19601f82011682018060405250810190611e56919061410d565b9050611008838211611e685781612f55565b835b612f55565b6000818310611e7e5781611d28565b5090919050565b6001600160a01b03811660009081526001830160205260408120541515611d28565b6000806000807f00000000000000000000000000000000000000000000000000000000000000006001600160a01b031663d53ddc26306040518263ffffffff1660e01b8152600401611ef99190613f81565b60206040518083038186803b158015611f1157600080fd5b505afa158015611f25573d6000803e3d6000fd5b505050506040513d601f19601f82011682018060405250810190611f49919061410d565b905060007f00000000000000000000000000000000000000000000000000000000000000006001600160a01b0316639f2b2833306040518263ffffffff1660e01b8152600401611f999190613f81565b60206040518083038186803b158015611fb157600080fd5b505afa158015611fc5573d6000803e3d6000fd5b505050506040513d601f19601f82011682018060405250810190611fe9919061410d565b90506120147f0000000000000000000000000000000000000000000000000000000000000000612fc9565b6040516305eff7ef60e21b81526000906001600160a01b037f000000000000000000000000000000000000000000000000000000000000000016906317bfdfbc90612063903090600401613f81565b602060405180830381600087803b15801561207d57600080fd5b505af1158015612091573d6000803e3d6000fd5b505050506040513d601f19601f820116820180604052508101906120b5919061410d565b905060006120c16131b4565b9050808211156120e2576120dd6120d8828461413c565b613235565b6120ef565b6120ef610737838361413c565b6040516370a0823160e01b81526000906001600160a01b037f000000000000000000000000000000000000000000000000000000000000000016906370a082319061213e903090600401613f81565b60206040518083038186803b15801561215657600080fd5b505afa15801561216a573d6000803e3d6000fd5b505050506040513d601f19601f8201168201806040525081019061218e919061410d565b905060007f00000000000000000000000000000000000000000000000000000000000000006001600160a01b0316633af9e669306040518263ffffffff1660e01b81526004016121de9190613f81565b602060405180830381600087803b1580156121f857600080fd5b505af115801561220c573d6000803e3d6000fd5b505050506040513d601f19601f82011682018060405250810190612230919061410d565b9050600061223e8383614248565b90508581111561225957612252868261413c565b9950612266565b612263818761413c565b98505b6000612272888c614248565b90508084101561234357600061229161228b868461413c565b85611e6f565b90508015612341576122a281611d9a565b6040516370a0823160e01b81526001600160a01b037f000000000000000000000000000000000000000000000000000000000000000016906370a08231906122ee903090600401613f81565b60206040518083038186803b15801561230657600080fd5b505afa15801561231a573d6000803e3d6000fd5b505050506040513d601f19601f8201168201806040525081019061233e919061410d565b94505b505b61234d8489611e6f565b985088841161235d576000612370565b61237061236a8a8661413c565b8c611e6f565b6040516302df682360e11b815260048101829052602481018c9052604481018b9052909b507f00000000000000000000000000000000000000000000000000000000000000006001600160a01b0316906305bed04690606401600060405180830381600087803b1580156123e357600080fd5b505af11580156123f7573d6000803e3d6000fd5b50505050612403613457565b5050505050505050909192565b60606000611d28836135d9565b61242681613635565b600254610737906001600160a01b037f0000000000000000000000000000000000000000000000000000000000000000811691168361371c565b600254604051636ccb2b0160e01b81526001600160a01b0390911690636ccb2b0190612499908690869086906001903090600401614260565b602060405180830381600087803b1580156124b357600080fd5b505af19250505080156124e3575060408051601f3d908101601f191682019092526124e09181019061410d565b60015b6124ec57505050565b50505050565b7f00000000000000000000000000000000000000000000000000000000000000006001600160a01b0316816001600160a01b031663fc0c546a6040518163ffffffff1660e01b815260040160206040518083038186803b15801561255557600080fd5b505afa158015612569573d6000803e3d6000fd5b505050506040513d601f19601f8201168201806040525081019061258d9190614086565b6001600160a01b0316146125d95760405162461bcd60e51b81526020600482015260136024820152723bb937b73396b932b1b2b4b83a16ba37b5b2b760691b60448201526064016106e0565b6040516305eff7ef60e21b8152610737906001600160a01b037f000000000000000000000000000000000000000000000000000000000000000016906317bfdfbc90612629903090600401613f81565b602060405180830381600087803b15801561264357600080fd5b505af1158015612657573d6000803e3d6000fd5b505050506040513d601f19601f8201168201806040525081019061267b919061410d565b600061279b565b804710156126d25760405162461bcd60e51b815260206004820152601d60248201527f416464726573733a20696e73756666696369656e742062616c616e636500000060448201526064016106e0565b6000826001600160a01b03168260405160006040518083038185875af1925050503d806000811461271f576040519150601f19603f3d011682016040523d82523d6000602084013e612724565b606091505b50509050806110085760405162461bcd60e51b815260206004820152603a60248201527f416464726573733a20756e61626c6520746f2073656e642076616c75652c207260448201527f6563697069656e74206d6179206861766520726576657274656400000000000060648201526084016106e0565b811561087e5760006127ab6131b4565b9050808311156128965781156127e4576127e47f0000000000000000000000000000000000000000000000000000000000000000612fc9565b6040516305eff7ef60e21b81526000906001600160a01b037f000000000000000000000000000000000000000000000000000000000000000016906317bfdfbc90612833903090600401613f81565b602060405180830381600087803b15801561284d57600080fd5b505af1158015612861573d6000803e3d6000fd5b505050506040513d601f19601f82011682018060405250810190612885919061410d565b90506128946120d8838361413c565b505b6110088361382f565b60008181526001830160205260408120546128e657508154600181810184556000848152602080822090930184905584548482528286019093526040902091909155610b28565b506000610b28565b600081815260018301602052604081205480156129d757600061291260018361413c565b85549091506000906129269060019061413c565b905081811461298b57600086600001828154811061294657612946614290565b906000526020600020015490508087600001848154811061296957612969614290565b6000918252602080832090910192909255918252600188019052604090208390555b855486908061299c5761299c6142a6565b600190038181906000526020600020016000905590558560010160008681526020019081526020016000206000905560019350505050610b28565b6000915050610b28565b6000612a36826040518060400160405280602081526020017f5361666545524332303a206c6f772d6c6576656c2063616c6c206661696c6564815250856001600160a01b03166139f89092919063ffffffff16565b8051909150156110085780806020019051810190612a5491906141ec565b6110085760405162461bcd60e51b815260206004820152602a60248201527f5361666545524332303a204552433230206f7065726174696f6e20646964206e6044820152691bdd081cdd58d8d9595960b21b60648201526084016106e0565b600080831580612ac1575082155b612b015760405162461bcd60e51b8152602060048201526011602482015270616c6c2d696e7075742d67742d7a65726f60781b60448201526064016106e0565b6040516305eff7ef60e21b81526000906001600160a01b037f000000000000000000000000000000000000000000000000000000000000000016906317bfdfbc90612b50903090600401613f81565b602060405180830381600087803b158015612b6a57600080fd5b505af1158015612b7e573d6000803e3d6000fd5b505050506040513d601f19601f82011682018060405250810190612ba2919061410d565b905060075460001415612bba57600092509050612f4e565b604051633af9e66960e01b81526000906001600160a01b037f00000000000000000000000000000000000000000000000000000000000000001690633af9e66990612c09903090600401613f81565b602060405180830381600087803b158015612c2357600080fd5b505af1158015612c37573d6000803e3d6000fd5b505050506040513d601f19601f82011682018060405250810190612c5b919061410d565b90506000612c887f0000000000000000000000000000000000000000000000000000000000000000613a0f565b905060008715612ca357612c9c8884614248565b9050612cb8565b86831115612cb857612cb5878461413c565b90505b6000670de0b6b3a7640000612ccd8484614207565b612cd79190614226565b90506000600960009054906101000a90046001600160a01b03166001600160a01b0316637dc0d1d06040518163ffffffff1660e01b815260040160206040518083038186803b158015612d2957600080fd5b505afa158015612d3d573d6000803e3d6000fd5b505050506040513d601f19601f82011682018060405250810190612d619190614086565b90506000816001600160a01b031663fc57d4df7f00000000000000000000000000000000000000000000000000000000000000006040518263ffffffff1660e01b8152600401612db19190613f81565b60206040518083038186803b158015612dc957600080fd5b505afa158015612ddd573d6000803e3d6000fd5b505050506040513d601f19601f82011682018060405250810190612e01919061410d565b90506000826001600160a01b031663fc57d4df7f00000000000000000000000000000000000000000000000000000000000000006040518263ffffffff1660e01b8152600401612e519190613f81565b60206040518083038186803b158015612e6957600080fd5b505afa158015612e7d573d6000803e3d6000fd5b505050506040513d601f19601f82011682018060405250810190612ea1919061410d565b9050600081612eb08487614207565b612eba9190614226565b905080612ed6576000899a509a50505050505050505050612f4e565b600061271060075483612ee99190614207565b612ef39190614226565b9050600061271060065484612f089190614207565b612f129190614226565b9050818b1115612f2d57612f26818c61413c565b9b50612f42565b8a811115612f4257612f3f8b8261413c565b9c505b50505050505050505050505b9250929050565b612f5e81613a98565b73c02aaa39b223fe8d0a0e5c4f27ead9083c756cc26001600160a01b031663d0e30db0476040518263ffffffff1660e01b81526004016000604051808303818588803b158015612fad57600080fd5b505af1158015612fc1573d6000803e3d6000fd5b505050505050565b6040805160028082526060820183526000926020830190803683370190505090507f00000000000000000000000000000000000000000000000000000000000000008160008151811061301e5761301e614290565b60200260200101906001600160a01b031690816001600160a01b0316815250507f00000000000000000000000000000000000000000000000000000000000000008160018151811061307257613072614290565b6001600160a01b03928316602091820292909201015260095460405162e1ed9760e51b8152911690631c3db2e0906130b090309085906004016142bc565b600060405180830381600087803b1580156130ca57600080fd5b505af11580156130de573d6000803e3d6000fd5b50506040516370a0823160e01b8152600092506001600160a01b037f00000000000000000000000000000000000000000000000000000000000000001691506370a0823190613131903090600401613f81565b60206040518083038186803b15801561314957600080fd5b505afa15801561315d573d6000803e3d6000fd5b505050506040513d601f19601f82011682018060405250810190613181919061410d565b90508015611008576110087f00000000000000000000000000000000000000000000000000000000000000008483612460565b6008546040516370a0823160e01b81526000916001600160a01b0316906370a08231906131e5903090600401613f81565b60206040518083038186803b1580156131fd57600080fd5b505afa158015613211573d6000803e3d6000fd5b505050506040513d601f19601f82011682018060405250810190610b7a919061410d565b6002546008546040516353b609b560e01b81526001600160a01b037f00000000000000000000000000000000000000000000000000000000000000008116600483015291821660248201526044810184905260009291909116906353b609b590606401602060405180830381600087803b1580156132b257600080fd5b505af11580156132c6573d6000803e3d6000fd5b505050506040513d601f19601f820116820180604052508101906132ea919061410d565b9050801561087e576040516370a0823160e01b81526000906001600160a01b037f000000000000000000000000000000000000000000000000000000000000000016906370a0823190613341903090600401613f81565b60206040518083038186803b15801561335957600080fd5b505afa15801561336d573d6000803e3d6000fd5b505050506040513d601f19601f82011682018060405250810190613391919061410d565b9050808211156133a8576133a8611e6a828461413c565b6002546008546040516381cc619b60e01b81526001600160a01b03928316926381cc619b92613405927f00000000000000000000000000000000000000000000000000000000000000009290911690889088903090600401614260565b602060405180830381600087803b15801561341f57600080fd5b505af1158015613433573d6000803e3d6000fd5b505050506040513d601f19601f820116820180604052508101906124ec919061410d565b6040516370a0823160e01b81526000906001600160a01b037f000000000000000000000000000000000000000000000000000000000000000016906370a08231906134a6903090600401613f81565b60206040518083038186803b1580156134be57600080fd5b505afa1580156134d2573d6000803e3d6000fd5b505050506040513d601f19601f820116820180604052508101906134f6919061410d565b905080156107375760008061350c836000612ab3565b909250905080156135c75761352281600061279b565b6040516370a0823160e01b8152611008906001600160a01b037f000000000000000000000000000000000000000000000000000000000000000016906370a0823190613572903090600401613f81565b60206040518083038186803b15801561358a57600080fd5b505afa15801561359e573d6000803e3d6000fd5b505050506040513d601f19601f820116820180604052508101906135c2919061410d565b613b71565b6135d083613b71565b61100882613c37565b60608160000180548060200260200160405190810160405280929190818152602001828054801561362957602002820191906000526020600020905b815481526020019060010190808311613615575b50505050509050919050565b61363e81613d9a565b6136926001600160a01b037f0000000000000000000000000000000000000000000000000000000000000000167f00000000000000000000000000000000000000000000000000000000000000008361371c565b6002546136cc906001600160a01b037f0000000000000000000000000000000000000000000000000000000000000000811691168361371c565b600854613703906001600160a01b03167f00000000000000000000000000000000000000000000000000000000000000008361371c565b600254600854610737916001600160a01b039182169116835b8015806137a55750604051636eb1769f60e11b81523060048201526001600160a01b03838116602483015284169063dd62ed3e9060440160206040518083038186803b15801561376b57600080fd5b505afa15801561377f573d6000803e3d6000fd5b505050506040513d601f19601f820116820180604052508101906137a3919061410d565b155b6138105760405162461bcd60e51b815260206004820152603660248201527f5361666545524332303a20617070726f76652066726f6d206e6f6e2d7a65726f60448201527520746f206e6f6e2d7a65726f20616c6c6f77616e636560501b60648201526084016106e0565b6110088363095ea7b360e01b8484604051602401611d639291906141be565b6008546001600160a01b031673c02aaa39b223fe8d0a0e5c4f27ead9083c756cc2141561391657604051632e1a7d4d60e01b81526004810182905273c02aaa39b223fe8d0a0e5c4f27ead9083c756cc290632e1a7d4d90602401600060405180830381600087803b1580156138a357600080fd5b505af11580156138b7573d6000803e3d6000fd5b505050507f00000000000000000000000000000000000000000000000000000000000000006001600160a01b0316634e4d9fea826040518263ffffffff1660e01b81526004016000604051808303818588803b158015612fad57600080fd5b60405163073a938160e11b8152600481018290527f00000000000000000000000000000000000000000000000000000000000000006001600160a01b031690630e75270290602401602060405180830381600087803b15801561397857600080fd5b505af115801561398c573d6000803e3d6000fd5b505050506040513d601f19601f820116820180604052508101906139b0919061410d565b156107375760405162461bcd60e51b81526020600482015260186024820152771c995c185e4b5d1bcb58dbdb5c1bdd5b990b59985a5b195960421b60448201526064016106e0565b6060613a078484600085613dee565b949350505050565b600954604051638e8f294b60e01b81526000916001600160a01b031690638e8f294b90613a40908590600401613f81565b60606040518083038186803b158015613a5857600080fd5b505afa158015613a6c573d6000803e3d6000fd5b505050506040513d601f19601f82011682018060405250810190613a9091906142e0565b509392505050565b60405163852a12e360e01b8152600481018290527f00000000000000000000000000000000000000000000000000000000000000006001600160a01b03169063852a12e390602401602060405180830381600087803b158015613afa57600080fd5b505af1158015613b0e573d6000803e3d6000fd5b505050506040513d601f19601f82011682018060405250810190613b32919061410d565b156107375760405162461bcd60e51b815260206004820152600f60248201526e1dda5d1a191c985dcb59985a5b1959608a1b60448201526064016106e0565b801561073757604051632e1a7d4d60e01b81526004810182905273c02aaa39b223fe8d0a0e5c4f27ead9083c756cc290632e1a7d4d90602401600060405180830381600087803b158015613bc457600080fd5b505af1158015613bd8573d6000803e3d6000fd5b505050507f00000000000000000000000000000000000000000000000000000000000000006001600160a01b0316631249c58b826040518263ffffffff1660e01b81526004016000604051808303818588803b158015612fad57600080fd5b80156107375760405163317afabb60e21b8152600481018290527f00000000000000000000000000000000000000000000000000000000000000006001600160a01b03169063c5ebeaec90602401602060405180830381600087803b158015613c9f57600080fd5b505af1158015613cb3573d6000803e3d6000fd5b505050506040513d601f19601f82011682018060405250810190613cd7919061410d565b15613d245760405162461bcd60e51b815260206004820152601b60248201527f626f72726f772d66726f6d2d636f6d706f756e642d6661696c6564000000000060448201526064016106e0565b6008546001600160a01b031673c02aaa39b223fe8d0a0e5c4f27ead9083c756cc214156107375773c02aaa39b223fe8d0a0e5c4f27ead9083c756cc26001600160a01b031663d0e30db0476040518263ffffffff1660e01b81526004016000604051808303818588803b158015612fad57600080fd5b6107376001600160a01b037f0000000000000000000000000000000000000000000000000000000000000000167f00000000000000000000000000000000000000000000000000000000000000008361371c565b606082471015613e4f5760405162461bcd60e51b815260206004820152602660248201527f416464726573733a20696e73756666696369656e742062616c616e636520666f6044820152651c8818d85b1b60d21b60648201526084016106e0565b843b613e9d5760405162461bcd60e51b815260206004820152601d60248201527f416464726573733a2063616c6c20746f206e6f6e2d636f6e747261637400000060448201526064016106e0565b600080866001600160a01b03168587604051613eb9919061431c565b60006040518083038185875af1925050503d8060008114613ef6576040519150601f19603f3d011682016040523d82523d6000602084013e613efb565b606091505b5091509150613f0b828286613f16565b979650505050505050565b60608315613f25575081611d28565b825115613f355782518084602001fd5b8160405162461bcd60e51b81526004016106e09190614031565b6001600160a01b038116811461073757600080fd5b600060208284031215613f7657600080fd5b8135611d2881613f4f565b6001600160a01b0391909116815260200190565b600060208284031215613fa757600080fd5b5035919050565b600081518084526020808501945080840160005b83811015613fe75781516001600160a01b031687529582019590820190600101613fc2565b509495945050505050565b602081526000611d286020830184613fae565b60005b83811015614020578181015183820152602001614008565b838111156124ec5750506000910152565b6020815260008251806020840152614050816040850160208701614005565b601f01601f19169190910160400192915050565b6000806040838503121561407757600080fd5b50508035926020909101359150565b60006020828403121561409857600080fd5b8151611d2881613f4f565b6020808252601a908201527f63616c6c65722d69732d6e6f742d7468652d676f7665726e6f72000000000000604082015260600190565b60208082526019908201527818d85b1b195c8b5a5ccb5b9bdd0b5d995cdc195c8b5c1bdbdb603a1b604082015260600190565b60006020828403121561411f57600080fd5b5051919050565b634e487b7160e01b600052601160045260246000fd5b60008282101561414e5761414e614126565b500390565b60208082526016908201527531b0b63632b916b4b996b737ba16b096b5b2b2b832b960511b604082015260600190565b600181811c9082168061419757607f821691505b602082108114156141b857634e487b7160e01b600052602260045260246000fd5b50919050565b6001600160a01b03929092168252602082015260400190565b805180151581146141e757600080fd5b919050565b6000602082840312156141fe57600080fd5b611d28826141d7565b600081600019048311821515161561422157614221614126565b500290565b60008261424357634e487b7160e01b600052601260045260246000fd5b500490565b6000821982111561425b5761425b614126565b500190565b6001600160a01b039586168152938516602085015260408401929092526060830152909116608082015260a00190565b634e487b7160e01b600052603260045260246000fd5b634e487b7160e01b600052603160045260246000fd5b6001600160a01b0383168152604060208201819052600090613a0790830184613fae565b6000806000606084860312156142f557600080fd5b6142fe846141d7565b925060208401519150614313604085016141d7565b90509250925092565b6000825161432e818460208701614005565b919091019291505056fea2646970667358221220401e25a2943b2e99a5c2cad0e4b871f82c09ab4fc6ed781b725d21304efc105e64736f6c63430008090033",
  "devdoc": {
    "kind": "dev",
    "methods": {
      "addKeeper(address)": {
        "params": {
          "_keeperAddress": "keeper address to add."
        }
      },
      "approveToken()": {
        "details": "Approve all required tokens"
      },
      "migrate(address)": {
        "details": "_beforeMigration hook can be implemented in child strategy to do extra steps.",
        "params": {
          "_newStrategy": "Address of new strategy"
        }
      },
      "rebalance()": {
        "returns": {
          "_loss": "Realized loss, if any, in collateral.",
          "_payback": "If strategy has any excess debt, we have to liquidate asset to payback excess debt.",
          "_profit": "Realized profit in collateral."
        }
      },
      "recoverBorrowToken(uint256)": {
        "details": "If we get liquidation in Compound, we will have borrowToken sitting in strategy. This function allows to recover idle borrow token amount.",
        "params": {
          "_amountToRecover": "Amount of borrow token we want to recover in 1 call.      Set it 0 to recover all available borrow tokens"
        }
      },
      "removeKeeper(address)": {
        "params": {
          "_keeperAddress": "keeper address to remove."
        }
      },
      "repayAll()": {
        "details": "This action usually done when loss is detected in strategy.0 borrow limit make sure that any future rebalance do not borrow again."
      },
      "sweepERC20(address)": {
        "params": {
          "_fromToken": "token address to sweep"
        }
      },
      "updateBorrowLimit(uint256,uint256)": {
        "details": "It is possible to set 0 as _minBorrowLimit to not borrow anything",
        "params": {
          "_maxBorrowLimit": "It is % of actual collateral factor of protocol",
          "_minBorrowLimit": "It is % of actual collateral factor of protocol"
        }
      },
      "updateFeeCollector(address)": {
        "params": {
          "_feeCollector": "fee collector address"
        }
      },
      "updateSwapper(address)": {
        "params": {
          "_swapper": "swapper address"
        }
      },
      "withdraw(uint256)": {
        "params": {
          "_amount": "Amount of collateral token"
        }
      }
    },
    "title": "Deposit ETH/WETH in Compound and earn interest.",
    "version": 1
  },
  "userdoc": {
    "kind": "user",
    "methods": {
      "addKeeper(address)": {
        "notice": "Add given address in keepers list."
      },
      "collateral()": {
        "notice": "Returns address of token correspond to collateral token"
      },
      "isReservedToken(address)": {
        "notice": "Check whether given token is reserved or not. Reserved tokens are not allowed to sweep."
      },
      "keepers()": {
        "notice": "Return list of keepers"
      },
      "migrate(address)": {
        "notice": "Migrate all asset and vault ownership,if any, to new strategy"
      },
      "rebalance()": {
        "notice": "OnlyKeeper: Rebalance profit, loss and investment of this strategy.  Calculate profit, loss and payback of this strategy and realize profit/loss and  withdraw fund for payback, if any, and submit this report to pool."
      },
      "recoverBorrowToken(uint256)": {
        "notice": "Recover extra borrow tokens from strategy"
      },
      "removeKeeper(address)": {
        "notice": "Remove given address from keepers list."
      },
      "repayAll()": {
        "notice": "Repay all borrow amount and set min borrow limit to 0."
      },
      "sweepERC20(address)": {
        "notice": "sweep given token to feeCollector of strategy"
      },
      "token()": {
        "notice": "Returns address of token correspond to receipt token"
      },
      "tvl()": {
        "notice": "Returns total collateral locked in the strategy"
      },
      "updateBorrowLimit(uint256,uint256)": {
        "notice": "Update upper and lower borrow limit. Usually maxBorrowLimit < 100% of actual collateral factor of protocol."
      },
      "updateFeeCollector(address)": {
        "notice": "Update fee collector"
      },
      "updateSwapper(address)": {
        "notice": "Update swapper"
      },
      "withdraw(uint256)": {
        "notice": "Withdraw collateral token from end protocol."
      }
    },
    "version": 1
  },
  "storageLayout": {
    "storage": [
      {
        "astId": 10339,
        "contract": "vesper-strategies/contracts/strategies/compound/CompoundXyETH.sol:CompoundXyETH",
        "label": "receiptToken",
        "offset": 0,
        "slot": "0",
        "type": "t_address"
      },
      {
        "astId": 10345,
        "contract": "vesper-strategies/contracts/strategies/compound/CompoundXyETH.sol:CompoundXyETH",
        "label": "feeCollector",
        "offset": 0,
        "slot": "1",
        "type": "t_address"
      },
      {
        "astId": 10348,
        "contract": "vesper-strategies/contracts/strategies/compound/CompoundXyETH.sol:CompoundXyETH",
        "label": "swapper",
        "offset": 0,
        "slot": "2",
        "type": "t_contract(IRoutedSwapper)10312"
      },
      {
        "astId": 10361,
        "contract": "vesper-strategies/contracts/strategies/compound/CompoundXyETH.sol:CompoundXyETH",
        "label": "_keepers",
        "offset": 0,
        "slot": "3",
        "type": "t_struct(AddressSet)2689_storage"
      },
      {
        "astId": 13173,
        "contract": "vesper-strategies/contracts/strategies/compound/CompoundXyETH.sol:CompoundXyETH",
        "label": "NAME",
        "offset": 0,
        "slot": "5",
        "type": "t_string_storage"
      },
      {
        "astId": 13185,
        "contract": "vesper-strategies/contracts/strategies/compound/CompoundXyETH.sol:CompoundXyETH",
        "label": "minBorrowLimit",
        "offset": 0,
        "slot": "6",
        "type": "t_uint256"
      },
      {
        "astId": 13188,
        "contract": "vesper-strategies/contracts/strategies/compound/CompoundXyETH.sol:CompoundXyETH",
        "label": "maxBorrowLimit",
        "offset": 0,
        "slot": "7",
        "type": "t_uint256"
      },
      {
        "astId": 13190,
        "contract": "vesper-strategies/contracts/strategies/compound/CompoundXyETH.sol:CompoundXyETH",
        "label": "borrowToken",
        "offset": 0,
        "slot": "8",
        "type": "t_address"
      },
      {
        "astId": 13193,
        "contract": "vesper-strategies/contracts/strategies/compound/CompoundXyETH.sol:CompoundXyETH",
        "label": "comptroller",
        "offset": 0,
        "slot": "9",
        "type": "t_contract(Comptroller)10230"
      }
    ],
    "types": {
      "t_address": {
        "encoding": "inplace",
        "label": "address",
        "numberOfBytes": "20"
      },
      "t_array(t_bytes32)dyn_storage": {
        "base": "t_bytes32",
        "encoding": "dynamic_array",
        "label": "bytes32[]",
        "numberOfBytes": "32"
      },
      "t_bytes32": {
        "encoding": "inplace",
        "label": "bytes32",
        "numberOfBytes": "32"
      },
      "t_contract(Comptroller)10230": {
        "encoding": "inplace",
        "label": "contract Comptroller",
        "numberOfBytes": "20"
      },
      "t_contract(IRoutedSwapper)10312": {
        "encoding": "inplace",
        "label": "contract IRoutedSwapper",
        "numberOfBytes": "20"
      },
      "t_mapping(t_bytes32,t_uint256)": {
        "encoding": "mapping",
        "key": "t_bytes32",
        "label": "mapping(bytes32 => uint256)",
        "numberOfBytes": "32",
        "value": "t_uint256"
      },
      "t_string_storage": {
        "encoding": "bytes",
        "label": "string",
        "numberOfBytes": "32"
      },
      "t_struct(AddressSet)2689_storage": {
        "encoding": "inplace",
        "label": "struct EnumerableSet.AddressSet",
        "members": [
          {
            "astId": 2688,
            "contract": "vesper-strategies/contracts/strategies/compound/CompoundXyETH.sol:CompoundXyETH",
            "label": "_inner",
            "offset": 0,
            "slot": "0",
            "type": "t_struct(Set)2388_storage"
          }
        ],
        "numberOfBytes": "64"
      },
      "t_struct(Set)2388_storage": {
        "encoding": "inplace",
        "label": "struct EnumerableSet.Set",
        "members": [
          {
            "astId": 2383,
            "contract": "vesper-strategies/contracts/strategies/compound/CompoundXyETH.sol:CompoundXyETH",
            "label": "_values",
            "offset": 0,
            "slot": "0",
            "type": "t_array(t_bytes32)dyn_storage"
          },
          {
            "astId": 2387,
            "contract": "vesper-strategies/contracts/strategies/compound/CompoundXyETH.sol:CompoundXyETH",
            "label": "_indexes",
            "offset": 0,
            "slot": "1",
            "type": "t_mapping(t_bytes32,t_uint256)"
          }
        ],
        "numberOfBytes": "64"
      },
      "t_uint256": {
        "encoding": "inplace",
        "label": "uint256",
        "numberOfBytes": "32"
      }
    }
  }
}