{
  "address": "0x67bE8549cc27f0E10dD5925191354F7aefcC1165",
  "abi": [
    {
      "inputs": [
        {
          "internalType": "address",
          "name": "pool_",
          "type": "address"
        },
        {
          "internalType": "address",
          "name": "swapper_",
          "type": "address"
        },
        {
          "internalType": "address",
          "name": "euler_",
          "type": "address"
        },
        {
          "internalType": "address",
          "name": "eulerMarkets_",
          "type": "address"
        },
        {
          "internalType": "string",
          "name": "name_",
          "type": "string"
        }
      ],
      "stateMutability": "nonpayable",
      "type": "constructor"
    },
    {
      "anonymous": false,
      "inputs": [
        {
          "indexed": true,
          "internalType": "address",
          "name": "previousFeeCollector",
          "type": "address"
        },
        {
          "indexed": true,
          "internalType": "address",
          "name": "newFeeCollector",
          "type": "address"
        }
      ],
      "name": "UpdatedFeeCollector",
      "type": "event"
    },
    {
      "anonymous": false,
      "inputs": [
        {
          "indexed": true,
          "internalType": "contract IRoutedSwapper",
          "name": "oldSwapper",
          "type": "address"
        },
        {
          "indexed": true,
          "internalType": "contract IRoutedSwapper",
          "name": "newSwapper",
          "type": "address"
        }
      ],
      "name": "UpdatedSwapper",
      "type": "event"
    },
    {
      "inputs": [],
      "name": "NAME",
      "outputs": [
        {
          "internalType": "string",
          "name": "",
          "type": "string"
        }
      ],
      "stateMutability": "view",
      "type": "function"
    },
    {
      "inputs": [],
      "name": "VERSION",
      "outputs": [
        {
          "internalType": "string",
          "name": "",
          "type": "string"
        }
      ],
      "stateMutability": "view",
      "type": "function"
    },
    {
      "inputs": [
        {
          "internalType": "address",
          "name": "_keeperAddress",
          "type": "address"
        }
      ],
      "name": "addKeeper",
      "outputs": [],
      "stateMutability": "nonpayable",
      "type": "function"
    },
    {
      "inputs": [],
      "name": "approveToken",
      "outputs": [],
      "stateMutability": "nonpayable",
      "type": "function"
    },
    {
      "inputs": [],
      "name": "collateral",
      "outputs": [
        {
          "internalType": "address",
          "name": "",
          "type": "address"
        }
      ],
      "stateMutability": "view",
      "type": "function"
    },
    {
      "inputs": [],
      "name": "collateralToken",
      "outputs": [
        {
          "internalType": "contract IERC20",
          "name": "",
          "type": "address"
        }
      ],
      "stateMutability": "view",
      "type": "function"
    },
    {
      "inputs": [],
      "name": "feeCollector",
      "outputs": [
        {
          "internalType": "address",
          "name": "",
          "type": "address"
        }
      ],
      "stateMutability": "view",
      "type": "function"
    },
    {
      "inputs": [
        {
          "internalType": "address",
          "name": "token_",
          "type": "address"
        }
      ],
      "name": "isReservedToken",
      "outputs": [
        {
          "internalType": "bool",
          "name": "",
          "type": "bool"
        }
      ],
      "stateMutability": "view",
      "type": "function"
    },
    {
      "inputs": [],
      "name": "keepers",
      "outputs": [
        {
          "internalType": "address[]",
          "name": "",
          "type": "address[]"
        }
      ],
      "stateMutability": "view",
      "type": "function"
    },
    {
      "inputs": [
        {
          "internalType": "address",
          "name": "_newStrategy",
          "type": "address"
        }
      ],
      "name": "migrate",
      "outputs": [],
      "stateMutability": "nonpayable",
      "type": "function"
    },
    {
      "inputs": [],
      "name": "pool",
      "outputs": [
        {
          "internalType": "address",
          "name": "",
          "type": "address"
        }
      ],
      "stateMutability": "view",
      "type": "function"
    },
    {
      "inputs": [],
      "name": "rebalance",
      "outputs": [
        {
          "internalType": "uint256",
          "name": "_profit",
          "type": "uint256"
        },
        {
          "internalType": "uint256",
          "name": "_loss",
          "type": "uint256"
        },
        {
          "internalType": "uint256",
          "name": "_payback",
          "type": "uint256"
        }
      ],
      "stateMutability": "nonpayable",
      "type": "function"
    },
    {
      "inputs": [],
      "name": "receiptToken",
      "outputs": [
        {
          "internalType": "address",
          "name": "",
          "type": "address"
        }
      ],
      "stateMutability": "view",
      "type": "function"
    },
    {
      "inputs": [
        {
          "internalType": "address",
          "name": "_keeperAddress",
          "type": "address"
        }
      ],
      "name": "removeKeeper",
      "outputs": [],
      "stateMutability": "nonpayable",
      "type": "function"
    },
    {
      "inputs": [],
      "name": "swapper",
      "outputs": [
        {
          "internalType": "contract IRoutedSwapper",
          "name": "",
          "type": "address"
        }
      ],
      "stateMutability": "view",
      "type": "function"
    },
    {
      "inputs": [
        {
          "internalType": "address",
          "name": "_fromToken",
          "type": "address"
        }
      ],
      "name": "sweepERC20",
      "outputs": [],
      "stateMutability": "nonpayable",
      "type": "function"
    },
    {
      "inputs": [],
      "name": "token",
      "outputs": [
        {
          "internalType": "address",
          "name": "",
          "type": "address"
        }
      ],
      "stateMutability": "view",
      "type": "function"
    },
    {
      "inputs": [],
      "name": "tvl",
      "outputs": [
        {
          "internalType": "uint256",
          "name": "",
          "type": "uint256"
        }
      ],
      "stateMutability": "view",
      "type": "function"
    },
    {
      "inputs": [
        {
          "internalType": "address",
          "name": "_feeCollector",
          "type": "address"
        }
      ],
      "name": "updateFeeCollector",
      "outputs": [],
      "stateMutability": "nonpayable",
      "type": "function"
    },
    {
      "inputs": [
        {
          "internalType": "contract IRoutedSwapper",
          "name": "_swapper",
          "type": "address"
        }
      ],
      "name": "updateSwapper",
      "outputs": [],
      "stateMutability": "nonpayable",
      "type": "function"
    },
    {
      "inputs": [
        {
          "internalType": "uint256",
          "name": "_amount",
          "type": "uint256"
        }
      ],
      "name": "withdraw",
      "outputs": [],
      "stateMutability": "nonpayable",
      "type": "function"
    }
  ],
  "transactionHash": "0x8805bd3118eabb5bd772461c1d6e1b19e08c1273133c8fec854b3fb84325f02f",
  "args": [
    "0xd1C117319B3595fbc39b471AB1fd485629eb05F2",
    "0x8f156189A3CD28dFc8FB7BbbAce58F98F09c0bB3",
    "0x27182842E098f60e3D576794A5bFFb0777E025d3",
    "0x3520d5a913427E6F0D6A83E07ccD4A4da316e4d3",
    "Euler_ETH"
  ],
  "numDeployments": 1,
  "solcInputHash": "0477a5c3a218ea5c70393c1ae2c211e7",
  "bytecode": "0x6101006040523480156200001257600080fd5b5060405162002c7738038062002c7783398101604081905262000035916200052e565b848460006001600160a01b038316620000955760405162461bcd60e51b815260206004820152601460248201527f706f6f6c2d616464726573732d69732d7a65726f00000000000000000000000060448201526064015b60405180910390fd5b6001600160a01b038216620000ed5760405162461bcd60e51b815260206004820152601760248201527f737761707065722d616464726573732d69732d7a65726f00000000000000000060448201526064016200008c565b600280546001600160a01b0319166001600160a01b0384811691909117909155831660a081905260408051637e062a3560e11b8152905163fc0c546a91600480820192602092909190829003018186803b1580156200014b57600080fd5b505afa15801562000160573d6000803e3d6000fd5b505050506040513d601f19601f8201168201806040525081019062000186919062000664565b6001600160a01b03908116608052600080546001600160a01b031916918316919091179055620001cd620001b73390565b6003620003e760201b620012bb1790919060201c565b6200020f5760405162461bcd60e51b81526020600482015260116024820152701859190b5ad9595c195c8b59985a5b1959607a1b60448201526064016200008c565b5050506001600160a01b0383166200026a5760405162461bcd60e51b815260206004820152601e60248201527f65756c65722d70726f746f636f6c2d616464726573732d69732d6e756c6c000060448201526064016200008c565b6001600160a01b038216620002c25760405162461bcd60e51b815260206004820152601660248201527f6d61726b65742d616464726573732d69732d6e756c6c0000000000000000000060448201526064016200008c565b608051604051638948874960e01b81526001600160a01b0391821660048201529083169063894887499060240160206040518083038186803b1580156200030857600080fd5b505afa1580156200031d573d6000803e3d6000fd5b505050506040513d601f19601f8201168201806040525081019062000343919062000664565b600080546001600160a01b0319166001600160a01b03929092169182179055620003b05760405162461bcd60e51b815260206004820152601560248201527f6d61726b65742d646f65732d6e6f742d6578697374000000000000000000000060448201526064016200008c565b6000546001600160a01b0390811660c052831660e0528051620003db90600590602084019062000459565b505050505050620006c8565b6000620003fe836001600160a01b03841662000407565b90505b92915050565b6000818152600183016020526040812054620004505750815460018181018455600084815260208082209093018490558454848252828601909352604090209190915562000401565b50600062000401565b82805462000467906200068b565b90600052602060002090601f0160209004810192826200048b5760008555620004d6565b82601f10620004a657805160ff1916838001178555620004d6565b82800160010185558215620004d6579182015b82811115620004d6578251825591602001919060010190620004b9565b50620004e4929150620004e8565b5090565b5b80821115620004e45760008155600101620004e9565b6001600160a01b03811681146200051557600080fd5b50565b634e487b7160e01b600052604160045260246000fd5b600080600080600060a086880312156200054757600080fd5b85516200055481620004ff565b809550506020808701516200056981620004ff565b60408801519095506200057c81620004ff565b60608801519094506200058f81620004ff565b60808801519093506001600160401b0380821115620005ad57600080fd5b818901915089601f830112620005c257600080fd5b815181811115620005d757620005d762000518565b604051601f8201601f19908116603f0116810190838211818310171562000602576200060262000518565b816040528281528c868487010111156200061b57600080fd5b600093505b828410156200063f578484018601518185018701529285019262000620565b82841115620006515760008684830101525b8096505050505050509295509295909350565b6000602082840312156200067757600080fd5b81516200068481620004ff565b9392505050565b600181811c90821680620006a057607f821691505b60208210811415620006c257634e487b7160e01b600052602260045260246000fd5b50919050565b60805160a05160c05160e051612495620007e26000396000611afc0152600081816107c90152818161122c01528181611361015281816113fd015281816114b10152818161173a0152611a410152600081816101560152818161034b015281816104670152818161058301528181610661015281816106bd01528181610917015281816109b401528181610bd701528181610da001528181611559015281816115f90152818161191c0152611ed9015260008181610244015281816102b4015281816104c601528181610561015281816105d50152818161069401528181610b3b01528181610fd201528181611190015281816116af015281816118400152818161199501528181611ada0152611eb701526124956000f3fe608060405234801561001057600080fd5b50600436106101375760003560e01c8063b2016bd4116100b8578063d8dfeb451161007c578063d8dfeb45146102b2578063e00af4a7146102d8578063e5328e06146102eb578063ec78e83214610301578063fc0c546a14610314578063ffa1ad741461032557600080fd5b8063b2016bd41461023f578063c415b95c14610266578063ce5494bb14610279578063d2c35ce81461028c578063d3033c391461029f57600080fd5b8063440d7248116100ff578063440d7248146101c75780637d7c2a1c146101ea578063951dc22c1461020d57806399b71d5c14610222578063a3f4df7e1461022a57600080fd5b806314ae9f2e1461013c57806316f0115b146101515780632b3297f91461018e5780632e1a7d4d146101a15780634032b72b146101b4575b600080fd5b61014f61014a3660046121ab565b610349565b005b6101787f000000000000000000000000000000000000000000000000000000000000000081565b60405161018591906121c8565b60405180910390f35b600254610178906001600160a01b031681565b61014f6101af3660046121dc565b610464565b61014f6101c23660046121ab565b6106bb565b6101da6101d53660046121ab565b6107c7565b6040519015158152602001610185565b6101f26107f9565b60408051938452602084019290925290820152606001610185565b610215610839565b60405161018591906121f5565b61014f61084a565b610232610886565b6040516101859190612272565b6101787f000000000000000000000000000000000000000000000000000000000000000081565b600154610178906001600160a01b031681565b61014f6102873660046121ab565b610914565b61014f61029a3660046121ab565b610bd5565b61014f6102ad3660046121ab565b610d9e565b7f0000000000000000000000000000000000000000000000000000000000000000610178565b61014f6102e63660046121ab565b610f5b565b6102f3611176565b604051908152602001610185565b600054610178906001600160a01b031681565b6000546001600160a01b0316610178565b610232604051806040016040528060058152602001640352e302e360dc1b81525081565b7f00000000000000000000000000000000000000000000000000000000000000006001600160a01b0316630c340a246040518163ffffffff1660e01b815260040160206040518083038186803b1580156103a257600080fd5b505afa1580156103b6573d6000803e3d6000fd5b505050506040513d601f19601f820116820180604052508101906103da91906122a5565b6001600160a01b0316336001600160a01b0316146104135760405162461bcd60e51b815260040161040a906122c2565b60405180910390fd5b61041e6003826112d9565b6104615760405162461bcd60e51b81526020600482015260146024820152731c995b5bdd994b5ad9595c195c8b59985a5b195960621b604482015260640161040a565b50565b337f00000000000000000000000000000000000000000000000000000000000000006001600160a01b0316146104ac5760405162461bcd60e51b815260040161040a906122f9565b6040516370a0823160e01b81526000906001600160a01b037f000000000000000000000000000000000000000000000000000000000000000016906370a08231906104fb9030906004016121c8565b60206040518083038186803b15801561051357600080fd5b505afa158015610527573d6000803e3d6000fd5b505050506040513d601f19601f8201168201806040525081019061054b919061232c565b90508181106105ac576105a86001600160a01b037f0000000000000000000000000000000000000000000000000000000000000000167f0000000000000000000000000000000000000000000000000000000000000000846112ee565b5050565b6105be6105b9828461235b565b611356565b6040516370a0823160e01b81526001600160a01b037f000000000000000000000000000000000000000000000000000000000000000016906370a082319061060a9030906004016121c8565b60206040518083038186803b15801561062257600080fd5b505afa158015610636573d6000803e3d6000fd5b505050506040513d601f19601f8201168201806040525081019061065a919061232c565b90506105a87f000000000000000000000000000000000000000000000000000000000000000061068a8484611519565b6001600160a01b037f00000000000000000000000000000000000000000000000000000000000000001691906112ee565b7f00000000000000000000000000000000000000000000000000000000000000006001600160a01b0316630c340a246040518163ffffffff1660e01b815260040160206040518083038186803b15801561071457600080fd5b505afa158015610728573d6000803e3d6000fd5b505050506040513d601f19601f8201168201806040525081019061074c91906122a5565b6001600160a01b0316336001600160a01b03161461077c5760405162461bcd60e51b815260040161040a906122c2565b6107876003826112bb565b6104615760405162461bcd60e51b81526020600482015260116024820152701859190b5ad9595c195c8b59985a5b1959607a1b604482015260640161040a565b7f00000000000000000000000000000000000000000000000000000000000000006001600160a01b0390811691161490565b6000808061080a335b60039061152f565b6108265760405162461bcd60e51b815260040161040a90612372565b61082e611551565b925092509250909192565b60606108456003611ab0565b905090565b61085333610802565b61086f5760405162461bcd60e51b815260040161040a90612372565b6108796000611ac4565b610884600019611ac4565b565b60058054610893906123a2565b80601f01602080910402602001604051908101604052809291908181526020018280546108bf906123a2565b801561090c5780601f106108e15761010080835404028352916020019161090c565b820191906000526020600020905b8154815290600101906020018083116108ef57829003601f168201915b505050505081565b337f00000000000000000000000000000000000000000000000000000000000000006001600160a01b03161461095c5760405162461bcd60e51b815260040161040a906122f9565b6001600160a01b0381166109b25760405162461bcd60e51b815260206004820152601c60248201527f6e65772d73747261746567792d616464726573732d69732d7a65726f00000000604482015260640161040a565b7f00000000000000000000000000000000000000000000000000000000000000006001600160a01b0316816001600160a01b03166316f0115b6040518163ffffffff1660e01b815260040160206040518083038186803b158015610a1557600080fd5b505afa158015610a29573d6000803e3d6000fd5b505050506040513d601f19601f82011682018060405250810190610a4d91906122a5565b6001600160a01b031614610a9c5760405162461bcd60e51b81526020600482015260166024820152756e6f742d76616c69642d6e65772d737472617465677960501b604482015260640161040a565b6000546040516370a0823160e01b8152610b359183916001600160a01b03909116906370a0823190610ad29030906004016121c8565b60206040518083038186803b158015610aea57600080fd5b505afa158015610afe573d6000803e3d6000fd5b505050506040513d601f19601f82011682018060405250810190610b22919061232c565b6000546001600160a01b031691906112ee565b610461817f00000000000000000000000000000000000000000000000000000000000000006001600160a01b03166370a08231306040518263ffffffff1660e01b8152600401610b8591906121c8565b60206040518083038186803b158015610b9d57600080fd5b505afa158015610bb1573d6000803e3d6000fd5b505050506040513d601f19601f8201168201806040525081019061068a919061232c565b7f00000000000000000000000000000000000000000000000000000000000000006001600160a01b0316630c340a246040518163ffffffff1660e01b815260040160206040518083038186803b158015610c2e57600080fd5b505afa158015610c42573d6000803e3d6000fd5b505050506040513d601f19601f82011682018060405250810190610c6691906122a5565b6001600160a01b0316336001600160a01b031614610c965760405162461bcd60e51b815260040161040a906122c2565b6001600160a01b038116610cec5760405162461bcd60e51b815260206004820152601d60248201527f6665652d636f6c6c6563746f722d616464726573732d69732d7a65726f000000604482015260640161040a565b6001546001600160a01b0382811691161415610d425760405162461bcd60e51b81526020600482015260156024820152746665652d636f6c6c6563746f722d69732d73616d6560581b604482015260640161040a565b6001546040516001600160a01b038084169216907f0f06062680f9bd68e786e9980d9bb03d73d5620fc3b345e417b6eacb310b970690600090a3600180546001600160a01b0319166001600160a01b0392909216919091179055565b7f00000000000000000000000000000000000000000000000000000000000000006001600160a01b0316630c340a246040518163ffffffff1660e01b815260040160206040518083038186803b158015610df757600080fd5b505afa158015610e0b573d6000803e3d6000fd5b505050506040513d601f19601f82011682018060405250810190610e2f91906122a5565b6001600160a01b0316336001600160a01b031614610e5f5760405162461bcd60e51b815260040161040a906122c2565b6001600160a01b038116610eaf5760405162461bcd60e51b8152602060048201526017602482015276737761707065722d616464726573732d69732d7a65726f60481b604482015260640161040a565b6002546001600160a01b0382811691161415610eff5760405162461bcd60e51b815260206004820152600f60248201526e737761707065722d69732d73616d6560881b604482015260640161040a565b6002546040516001600160a01b038084169216907f6c953b7ec311055c20b96a42cea31e89528e375b1bf953a503db40854b3188fe90600090a3600280546001600160a01b0319166001600160a01b0392909216919091179055565b610f6433610802565b610f805760405162461bcd60e51b815260040161040a90612372565b6001546001600160a01b0316610fd05760405162461bcd60e51b81526020600482015260156024820152741999594b58dbdb1b1958dd1bdc8b5b9bdd0b5cd95d605a1b604482015260640161040a565b7f00000000000000000000000000000000000000000000000000000000000000006001600160a01b0316816001600160a01b031614156110525760405162461bcd60e51b815260206004820152601f60248201527f6e6f742d616c6c6f7765642d746f2d73776565702d636f6c6c61746572616c00604482015260640161040a565b61105b816107c7565b1561109f5760405162461bcd60e51b815260206004820152601460248201527306e6f742d616c6c6f7765642d746f2d73776565760641b604482015260640161040a565b6001600160a01b03811673eeeeeeeeeeeeeeeeeeeeeeeeeeeeeeeeeeeeeeee14156110da57600154610461906001600160a01b031647611b21565b6040516370a0823160e01b81526000906001600160a01b038316906370a08231906111099030906004016121c8565b60206040518083038186803b15801561112157600080fd5b505afa158015611135573d6000803e3d6000fd5b505050506040513d601f19601f82011682018060405250810190611159919061232c565b6001549091506105a8906001600160a01b038481169116836112ee565b6040516370a0823160e01b81526000906001600160a01b037f000000000000000000000000000000000000000000000000000000000000000016906370a08231906111c59030906004016121c8565b60206040518083038186803b1580156111dd57600080fd5b505afa1580156111f1573d6000803e3d6000fd5b505050506040513d601f19601f82011682018060405250810190611215919061232c565b604051633af9e66960e01b81526001600160a01b037f00000000000000000000000000000000000000000000000000000000000000001690633af9e669906112619030906004016121c8565b60206040518083038186803b15801561127957600080fd5b505afa15801561128d573d6000803e3d6000fd5b505050506040513d601f19601f820116820180604052508101906112b1919061232c565b61084591906123dd565b60006112d0836001600160a01b038416611c3a565b90505b92915050565b60006112d0836001600160a01b038416611c89565b6040516001600160a01b03831660248201526044810182905261135190849063a9059cbb60e01b906064015b60408051601f198184030181529190526020810180516001600160e01b03166001600160e01b031990931692909217909152611d7c565b505050565b60006114918261148c7f00000000000000000000000000000000000000000000000000000000000000006001600160a01b0316633af9e669306040518263ffffffff1660e01b81526004016113ab91906121c8565b60206040518083038186803b1580156113c357600080fd5b505afa1580156113d7573d6000803e3d6000fd5b505050506040513d601f19601f820116820180604052508101906113fb919061232c565b7f00000000000000000000000000000000000000000000000000000000000000006001600160a01b031663fea61faa6040518163ffffffff1660e01b815260040160206040518083038186803b15801561145457600080fd5b505afa158015611468573d6000803e3d6000fd5b505050506040513d601f19601f8201168201806040525081019061148c919061232c565b611519565b604051630441a3e760e41b815260006004820152602481018290529091507f00000000000000000000000000000000000000000000000000000000000000006001600160a01b03169063441a3e7090604401600060405180830381600087803b1580156114fd57600080fd5b505af1158015611511573d6000803e3d6000fd5b505050505050565b600081831061152857816112d0565b5090919050565b6001600160a01b038116600090815260018301602052604081205415156112d0565b6000806000807f00000000000000000000000000000000000000000000000000000000000000006001600160a01b031663d53ddc26306040518263ffffffff1660e01b81526004016115a391906121c8565b60206040518083038186803b1580156115bb57600080fd5b505afa1580156115cf573d6000803e3d6000fd5b505050506040513d601f19601f820116820180604052508101906115f3919061232c565b905060007f00000000000000000000000000000000000000000000000000000000000000006001600160a01b0316639f2b2833306040518263ffffffff1660e01b815260040161164391906121c8565b60206040518083038186803b15801561165b57600080fd5b505afa15801561166f573d6000803e3d6000fd5b505050506040513d601f19601f82011682018060405250810190611693919061232c565b90506040516370a0823160e01b81526000906001600160a01b037f000000000000000000000000000000000000000000000000000000000000000016906370a08231906116e49030906004016121c8565b60206040518083038186803b1580156116fc57600080fd5b505afa158015611710573d6000803e3d6000fd5b505050506040513d601f19601f82011682018060405250810190611734919061232c565b905060007f00000000000000000000000000000000000000000000000000000000000000006001600160a01b0316633af9e669306040518263ffffffff1660e01b815260040161178491906121c8565b60206040518083038186803b15801561179c57600080fd5b505afa1580156117b0573d6000803e3d6000fd5b505050506040513d601f19601f820116820180604052508101906117d4919061232c565b6117de90836123dd565b9050828111156117f9576117f2838261235b565b9650611806565b611803818461235b565b95505b600061181285896123dd565b9050828111156118c8576118296105b9848361235b565b6040516370a0823160e01b81526001600160a01b037f000000000000000000000000000000000000000000000000000000000000000016906370a08231906118759030906004016121c8565b60206040518083038186803b15801561188d57600080fd5b505afa1580156118a1573d6000803e3d6000fd5b505050506040513d601f19601f820116820180604052508101906118c5919061232c565b92505b6118d28386611519565b95508583116118e25760006118f5565b6118f56118ef878561235b565b89611519565b6040516302df682360e11b81526004810182905260248101899052604481018890529098507f00000000000000000000000000000000000000000000000000000000000000006001600160a01b0316906305bed04690606401600060405180830381600087803b15801561196857600080fd5b505af115801561197c573d6000803e3d6000fd5b50506040516370a0823160e01b81526001600160a01b037f00000000000000000000000000000000000000000000000000000000000000001692506370a0823191506119cc9030906004016121c8565b60206040518083038186803b1580156119e457600080fd5b505afa1580156119f8573d6000803e3d6000fd5b505050506040513d601f19601f82011682018060405250810190611a1c919061232c565b92508215611aa657604051631c57762b60e31b815260006004820152602481018490527f00000000000000000000000000000000000000000000000000000000000000006001600160a01b03169063e2bbb15890604401600060405180830381600087803b158015611a8d57600080fd5b505af1158015611aa1573d6000803e3d6000fd5b505050505b5050505050909192565b60606000611abd83611e4e565b9392505050565b611acd81611eaa565b6104616001600160a01b037f0000000000000000000000000000000000000000000000000000000000000000167f000000000000000000000000000000000000000000000000000000000000000083611efa565b80471015611b715760405162461bcd60e51b815260206004820152601d60248201527f416464726573733a20696e73756666696369656e742062616c616e6365000000604482015260640161040a565b6000826001600160a01b03168260405160006040518083038185875af1925050503d8060008114611bbe576040519150601f19603f3d011682016040523d82523d6000602084013e611bc3565b606091505b50509050806113515760405162461bcd60e51b815260206004820152603a60248201527f416464726573733a20756e61626c6520746f2073656e642076616c75652c207260448201527f6563697069656e74206d61792068617665207265766572746564000000000000606482015260840161040a565b6000818152600183016020526040812054611c81575081546001818101845560008481526020808220909301849055845484825282860190935260409020919091556112d3565b5060006112d3565b60008181526001830160205260408120548015611d72576000611cad60018361235b565b8554909150600090611cc19060019061235b565b9050818114611d26576000866000018281548110611ce157611ce16123f5565b9060005260206000200154905080876000018481548110611d0457611d046123f5565b6000918252602080832090910192909255918252600188019052604090208390555b8554869080611d3757611d3761240b565b6001900381819060005260206000200160009055905585600101600086815260200190815260200160002060009055600193505050506112d3565b60009150506112d3565b6000611dd1826040518060400160405280602081526020017f5361666545524332303a206c6f772d6c6576656c2063616c6c206661696c6564815250856001600160a01b031661201e9092919063ffffffff16565b8051909150156113515780806020019051810190611def9190612421565b6113515760405162461bcd60e51b815260206004820152602a60248201527f5361666545524332303a204552433230206f7065726174696f6e20646964206e6044820152691bdd081cdd58d8d9595960b21b606482015260840161040a565b606081600001805480602002602001604051908101604052809291908181526020018280548015611e9e57602002820191906000526020600020905b815481526020019060010190808311611e8a575b50505050509050919050565b6104616001600160a01b037f0000000000000000000000000000000000000000000000000000000000000000167f0000000000000000000000000000000000000000000000000000000000000000835b801580611f835750604051636eb1769f60e11b81523060048201526001600160a01b03838116602483015284169063dd62ed3e9060440160206040518083038186803b158015611f4957600080fd5b505afa158015611f5d573d6000803e3d6000fd5b505050506040513d601f19601f82011682018060405250810190611f81919061232c565b155b611fee5760405162461bcd60e51b815260206004820152603660248201527f5361666545524332303a20617070726f76652066726f6d206e6f6e2d7a65726f60448201527520746f206e6f6e2d7a65726f20616c6c6f77616e636560501b606482015260840161040a565b6040516001600160a01b03831660248201526044810182905261135190849063095ea7b360e01b9060640161131a565b606061202d8484600085612035565b949350505050565b6060824710156120965760405162461bcd60e51b815260206004820152602660248201527f416464726573733a20696e73756666696369656e742062616c616e636520666f6044820152651c8818d85b1b60d21b606482015260840161040a565b843b6120e45760405162461bcd60e51b815260206004820152601d60248201527f416464726573733a2063616c6c20746f206e6f6e2d636f6e7472616374000000604482015260640161040a565b600080866001600160a01b031685876040516121009190612443565b60006040518083038185875af1925050503d806000811461213d576040519150601f19603f3d011682016040523d82523d6000602084013e612142565b606091505b509150915061215282828661215d565b979650505050505050565b6060831561216c575081611abd565b82511561217c5782518084602001fd5b8160405162461bcd60e51b815260040161040a9190612272565b6001600160a01b038116811461046157600080fd5b6000602082840312156121bd57600080fd5b8135611abd81612196565b6001600160a01b0391909116815260200190565b6000602082840312156121ee57600080fd5b5035919050565b6020808252825182820181905260009190848201906040850190845b818110156122365783516001600160a01b031683529284019291840191600101612211565b50909695505050505050565b60005b8381101561225d578181015183820152602001612245565b8381111561226c576000848401525b50505050565b6020815260008251806020840152612291816040850160208701612242565b601f01601f19169190910160400192915050565b6000602082840312156122b757600080fd5b8151611abd81612196565b6020808252601a908201527f63616c6c65722d69732d6e6f742d7468652d676f7665726e6f72000000000000604082015260600190565b60208082526019908201527818d85b1b195c8b5a5ccb5b9bdd0b5d995cdc195c8b5c1bdbdb603a1b604082015260600190565b60006020828403121561233e57600080fd5b5051919050565b634e487b7160e01b600052601160045260246000fd5b60008282101561236d5761236d612345565b500390565b60208082526016908201527531b0b63632b916b4b996b737ba16b096b5b2b2b832b960511b604082015260600190565b600181811c908216806123b657607f821691505b602082108114156123d757634e487b7160e01b600052602260045260246000fd5b50919050565b600082198211156123f0576123f0612345565b500190565b634e487b7160e01b600052603260045260246000fd5b634e487b7160e01b600052603160045260246000fd5b60006020828403121561243357600080fd5b81518015158114611abd57600080fd5b60008251612455818460208701612242565b919091019291505056fea26469706673582212204a7c100e7d43d5b976273c76d00f59d8c9803b76ceb6c709af5ac9181bc9895464736f6c63430008090033",
  "devdoc": {
    "kind": "dev",
    "methods": {
      "addKeeper(address)": {
        "params": {
          "_keeperAddress": "keeper address to add."
        }
      },
      "approveToken()": {
        "details": "Approve all required tokens"
      },
      "migrate(address)": {
        "details": "_beforeMigration hook can be implemented in child strategy to do extra steps.",
        "params": {
          "_newStrategy": "Address of new strategy"
        }
      },
      "rebalance()": {
        "returns": {
          "_loss": "Realized loss, if any, in collateral.",
          "_payback": "If strategy has any excess debt, we have to liquidate asset to payback excess debt.",
          "_profit": "Realized profit in collateral."
        }
      },
      "removeKeeper(address)": {
        "params": {
          "_keeperAddress": "keeper address to remove."
        }
      },
      "sweepERC20(address)": {
        "params": {
          "_fromToken": "token address to sweep"
        }
      },
      "updateFeeCollector(address)": {
        "params": {
          "_feeCollector": "fee collector address"
        }
      },
      "updateSwapper(address)": {
        "params": {
          "_swapper": "swapper address"
        }
      },
      "withdraw(uint256)": {
        "params": {
          "_amount": "Amount of collateral token"
        }
      }
    },
    "title": "This strategy will deposit collateral token in Euler and earn interest.",
    "version": 1
  },
  "userdoc": {
    "kind": "user",
    "methods": {
      "addKeeper(address)": {
        "notice": "Add given address in keepers list."
      },
      "collateral()": {
        "notice": "Returns address of token correspond to collateral token"
      },
      "keepers()": {
        "notice": "Return list of keepers"
      },
      "migrate(address)": {
        "notice": "Migrate all asset and vault ownership,if any, to new strategy"
      },
      "rebalance()": {
        "notice": "OnlyKeeper: Rebalance profit, loss and investment of this strategy.  Calculate profit, loss and payback of this strategy and realize profit/loss and  withdraw fund for payback, if any, and submit this report to pool."
      },
      "removeKeeper(address)": {
        "notice": "Remove given address from keepers list."
      },
      "sweepERC20(address)": {
        "notice": "sweep given token to feeCollector of strategy"
      },
      "token()": {
        "notice": "Returns address of token correspond to receipt token"
      },
      "tvl()": {
        "notice": "Returns total collateral locked in the strategy"
      },
      "updateFeeCollector(address)": {
        "notice": "Update fee collector"
      },
      "updateSwapper(address)": {
        "notice": "Update swapper"
      },
      "withdraw(uint256)": {
        "notice": "Withdraw collateral token from end protocol."
      }
    },
    "version": 1
  },
  "storageLayout": {
    "storage": [
      {
        "astId": 13720,
        "contract": "vesper-strategies/contracts/strategies/euler/Euler.sol:Euler",
        "label": "receiptToken",
        "offset": 0,
        "slot": "0",
        "type": "t_address"
      },
      {
        "astId": 13726,
        "contract": "vesper-strategies/contracts/strategies/euler/Euler.sol:Euler",
        "label": "feeCollector",
        "offset": 0,
        "slot": "1",
        "type": "t_address"
      },
      {
        "astId": 13729,
        "contract": "vesper-strategies/contracts/strategies/euler/Euler.sol:Euler",
        "label": "swapper",
        "offset": 0,
        "slot": "2",
        "type": "t_contract(IRoutedSwapper)12581"
      },
      {
        "astId": 13742,
        "contract": "vesper-strategies/contracts/strategies/euler/Euler.sol:Euler",
        "label": "_keepers",
        "offset": 0,
        "slot": "3",
        "type": "t_struct(AddressSet)3015_storage"
      },
      {
        "astId": 22987,
        "contract": "vesper-strategies/contracts/strategies/euler/Euler.sol:Euler",
        "label": "NAME",
        "offset": 0,
        "slot": "5",
        "type": "t_string_storage"
      }
    ],
    "types": {
      "t_address": {
        "encoding": "inplace",
        "label": "address",
        "numberOfBytes": "20"
      },
      "t_array(t_bytes32)dyn_storage": {
        "base": "t_bytes32",
        "encoding": "dynamic_array",
        "label": "bytes32[]",
        "numberOfBytes": "32"
      },
      "t_bytes32": {
        "encoding": "inplace",
        "label": "bytes32",
        "numberOfBytes": "32"
      },
      "t_contract(IRoutedSwapper)12581": {
        "encoding": "inplace",
        "label": "contract IRoutedSwapper",
        "numberOfBytes": "20"
      },
      "t_mapping(t_bytes32,t_uint256)": {
        "encoding": "mapping",
        "key": "t_bytes32",
        "label": "mapping(bytes32 => uint256)",
        "numberOfBytes": "32",
        "value": "t_uint256"
      },
      "t_string_storage": {
        "encoding": "bytes",
        "label": "string",
        "numberOfBytes": "32"
      },
      "t_struct(AddressSet)3015_storage": {
        "encoding": "inplace",
        "label": "struct EnumerableSet.AddressSet",
        "members": [
          {
            "astId": 3014,
            "contract": "vesper-strategies/contracts/strategies/euler/Euler.sol:Euler",
            "label": "_inner",
            "offset": 0,
            "slot": "0",
            "type": "t_struct(Set)2714_storage"
          }
        ],
        "numberOfBytes": "64"
      },
      "t_struct(Set)2714_storage": {
        "encoding": "inplace",
        "label": "struct EnumerableSet.Set",
        "members": [
          {
            "astId": 2709,
            "contract": "vesper-strategies/contracts/strategies/euler/Euler.sol:Euler",
            "label": "_values",
            "offset": 0,
            "slot": "0",
            "type": "t_array(t_bytes32)dyn_storage"
          },
          {
            "astId": 2713,
            "contract": "vesper-strategies/contracts/strategies/euler/Euler.sol:Euler",
            "label": "_indexes",
            "offset": 0,
            "slot": "1",
            "type": "t_mapping(t_bytes32,t_uint256)"
          }
        ],
        "numberOfBytes": "64"
      },
      "t_uint256": {
        "encoding": "inplace",
        "label": "uint256",
        "numberOfBytes": "32"
      }
    }
  }
}