{
  "address": "0xd21105aCf65386A10A8BDaaeD68D6f03068248B3",
  "abi": [
    {
      "inputs": [
        {
          "internalType": "address",
          "name": "pool_",
          "type": "address"
        },
        {
          "internalType": "address",
          "name": "swapper_",
          "type": "address"
        },
        {
          "internalType": "contract IStargateRouter",
          "name": "stargateRouter_",
          "type": "address"
        },
        {
          "internalType": "contract IStargatePool",
          "name": "stargateLp_",
          "type": "address"
        },
        {
          "internalType": "contract IStargateLpStaking",
          "name": "stargateLpStaking_",
          "type": "address"
        },
        {
          "internalType": "uint256",
          "name": "stargatePoolId_",
          "type": "uint256"
        },
        {
          "internalType": "uint256",
          "name": "stargateLpStakingPoolId_",
          "type": "uint256"
        },
        {
          "internalType": "contract TokenLike",
          "name": "wrappedNativeToken_",
          "type": "address"
        },
        {
          "internalType": "string",
          "name": "name_",
          "type": "string"
        }
      ],
      "stateMutability": "nonpayable",
      "type": "constructor"
    },
    {
      "anonymous": false,
      "inputs": [
        {
          "indexed": true,
          "internalType": "address",
          "name": "previousFeeCollector",
          "type": "address"
        },
        {
          "indexed": true,
          "internalType": "address",
          "name": "newFeeCollector",
          "type": "address"
        }
      ],
      "name": "UpdatedFeeCollector",
      "type": "event"
    },
    {
      "anonymous": false,
      "inputs": [
        {
          "indexed": true,
          "internalType": "contract IRoutedSwapper",
          "name": "oldSwapper",
          "type": "address"
        },
        {
          "indexed": true,
          "internalType": "contract IRoutedSwapper",
          "name": "newSwapper",
          "type": "address"
        }
      ],
      "name": "UpdatedSwapper",
      "type": "event"
    },
    {
      "inputs": [],
      "name": "NAME",
      "outputs": [
        {
          "internalType": "string",
          "name": "",
          "type": "string"
        }
      ],
      "stateMutability": "view",
      "type": "function"
    },
    {
      "inputs": [],
      "name": "VERSION",
      "outputs": [
        {
          "internalType": "string",
          "name": "",
          "type": "string"
        }
      ],
      "stateMutability": "view",
      "type": "function"
    },
    {
      "inputs": [
        {
          "internalType": "address",
          "name": "_keeperAddress",
          "type": "address"
        }
      ],
      "name": "addKeeper",
      "outputs": [],
      "stateMutability": "nonpayable",
      "type": "function"
    },
    {
      "inputs": [],
      "name": "approveToken",
      "outputs": [],
      "stateMutability": "nonpayable",
      "type": "function"
    },
    {
      "inputs": [],
      "name": "collateral",
      "outputs": [
        {
          "internalType": "address",
          "name": "",
          "type": "address"
        }
      ],
      "stateMutability": "view",
      "type": "function"
    },
    {
      "inputs": [],
      "name": "collateralToken",
      "outputs": [
        {
          "internalType": "contract IERC20",
          "name": "",
          "type": "address"
        }
      ],
      "stateMutability": "view",
      "type": "function"
    },
    {
      "inputs": [],
      "name": "feeCollector",
      "outputs": [
        {
          "internalType": "address",
          "name": "",
          "type": "address"
        }
      ],
      "stateMutability": "view",
      "type": "function"
    },
    {
      "inputs": [
        {
          "internalType": "address",
          "name": "token_",
          "type": "address"
        }
      ],
      "name": "isReservedToken",
      "outputs": [
        {
          "internalType": "bool",
          "name": "",
          "type": "bool"
        }
      ],
      "stateMutability": "view",
      "type": "function"
    },
    {
      "inputs": [],
      "name": "keepers",
      "outputs": [
        {
          "internalType": "address[]",
          "name": "",
          "type": "address[]"
        }
      ],
      "stateMutability": "view",
      "type": "function"
    },
    {
      "inputs": [],
      "name": "lpAmountStaked",
      "outputs": [
        {
          "internalType": "uint256",
          "name": "_lpAmountStaked",
          "type": "uint256"
        }
      ],
      "stateMutability": "view",
      "type": "function"
    },
    {
      "inputs": [
        {
          "internalType": "address",
          "name": "_newStrategy",
          "type": "address"
        }
      ],
      "name": "migrate",
      "outputs": [],
      "stateMutability": "nonpayable",
      "type": "function"
    },
    {
      "inputs": [],
      "name": "pendingStargate",
      "outputs": [
        {
          "internalType": "uint256",
          "name": "_pendingStargate",
          "type": "uint256"
        }
      ],
      "stateMutability": "view",
      "type": "function"
    },
    {
      "inputs": [],
      "name": "pool",
      "outputs": [
        {
          "internalType": "address",
          "name": "",
          "type": "address"
        }
      ],
      "stateMutability": "view",
      "type": "function"
    },
    {
      "inputs": [],
      "name": "rebalance",
      "outputs": [
        {
          "internalType": "uint256",
          "name": "_profit",
          "type": "uint256"
        },
        {
          "internalType": "uint256",
          "name": "_loss",
          "type": "uint256"
        },
        {
          "internalType": "uint256",
          "name": "_payback",
          "type": "uint256"
        }
      ],
      "stateMutability": "nonpayable",
      "type": "function"
    },
    {
      "inputs": [],
      "name": "receiptToken",
      "outputs": [
        {
          "internalType": "address",
          "name": "",
          "type": "address"
        }
      ],
      "stateMutability": "view",
      "type": "function"
    },
    {
      "inputs": [
        {
          "internalType": "address",
          "name": "_keeperAddress",
          "type": "address"
        }
      ],
      "name": "removeKeeper",
      "outputs": [],
      "stateMutability": "nonpayable",
      "type": "function"
    },
    {
      "inputs": [],
      "name": "rewardToken",
      "outputs": [
        {
          "internalType": "address",
          "name": "",
          "type": "address"
        }
      ],
      "stateMutability": "view",
      "type": "function"
    },
    {
      "inputs": [],
      "name": "stargateETH",
      "outputs": [
        {
          "internalType": "contract TokenLike",
          "name": "",
          "type": "address"
        }
      ],
      "stateMutability": "view",
      "type": "function"
    },
    {
      "inputs": [],
      "name": "stargateLpStaking",
      "outputs": [
        {
          "internalType": "contract IStargateLpStaking",
          "name": "",
          "type": "address"
        }
      ],
      "stateMutability": "view",
      "type": "function"
    },
    {
      "inputs": [],
      "name": "stargateLpStakingPoolId",
      "outputs": [
        {
          "internalType": "uint256",
          "name": "",
          "type": "uint256"
        }
      ],
      "stateMutability": "view",
      "type": "function"
    },
    {
      "inputs": [],
      "name": "stargatePoolId",
      "outputs": [
        {
          "internalType": "uint256",
          "name": "",
          "type": "uint256"
        }
      ],
      "stateMutability": "view",
      "type": "function"
    },
    {
      "inputs": [],
      "name": "swapper",
      "outputs": [
        {
          "internalType": "contract IRoutedSwapper",
          "name": "",
          "type": "address"
        }
      ],
      "stateMutability": "view",
      "type": "function"
    },
    {
      "inputs": [
        {
          "internalType": "address",
          "name": "_fromToken",
          "type": "address"
        }
      ],
      "name": "sweepERC20",
      "outputs": [],
      "stateMutability": "nonpayable",
      "type": "function"
    },
    {
      "inputs": [],
      "name": "token",
      "outputs": [
        {
          "internalType": "address",
          "name": "",
          "type": "address"
        }
      ],
      "stateMutability": "view",
      "type": "function"
    },
    {
      "inputs": [],
      "name": "tvl",
      "outputs": [
        {
          "internalType": "uint256",
          "name": "",
          "type": "uint256"
        }
      ],
      "stateMutability": "view",
      "type": "function"
    },
    {
      "inputs": [
        {
          "internalType": "address",
          "name": "_feeCollector",
          "type": "address"
        }
      ],
      "name": "updateFeeCollector",
      "outputs": [],
      "stateMutability": "nonpayable",
      "type": "function"
    },
    {
      "inputs": [
        {
          "internalType": "contract IRoutedSwapper",
          "name": "_swapper",
          "type": "address"
        }
      ],
      "name": "updateSwapper",
      "outputs": [],
      "stateMutability": "nonpayable",
      "type": "function"
    },
    {
      "inputs": [
        {
          "internalType": "uint256",
          "name": "_amount",
          "type": "uint256"
        }
      ],
      "name": "withdraw",
      "outputs": [],
      "stateMutability": "nonpayable",
      "type": "function"
    },
    {
      "inputs": [
        {
          "internalType": "uint16",
          "name": "dstChainId_",
          "type": "uint16"
        }
      ],
      "name": "withdrawForRebalance",
      "outputs": [],
      "stateMutability": "payable",
      "type": "function"
    },
    {
      "inputs": [],
      "name": "wrappedNativeToken",
      "outputs": [
        {
          "internalType": "contract TokenLike",
          "name": "",
          "type": "address"
        }
      ],
      "stateMutability": "view",
      "type": "function"
    },
    {
      "stateMutability": "payable",
      "type": "receive"
    }
  ],
  "transactionHash": "0x0a782f65d7eaa09d187c6e56209e9b3c9d2b03c5ea1a80485cc4357d9cba2f6d",
  "args": [
    "0xd1C117319B3595fbc39b471AB1fd485629eb05F2",
    "0x8f156189A3CD28dFc8FB7BbbAce58F98F09c0bB3",
    "0x8731d54E9D02c286767d56ac03e8037C07e01e98",
    "0x101816545F6bd2b1076434B54383a1E633390A2E",
    "0xB0D502E938ed5f4df2E681fE6E419ff29631d62b",
    13,
    2,
    "0xC02aaA39b223FE8D0A0e5C4F27eAD9083C756Cc2",
    "Stargate_ETH"
  ],
  "numDeployments": 1,
  "solcInputHash": "7d147ba8d008517e8250ce5497ceef7b",
  "bytecode": "0x6101c06040523480156200001257600080fd5b506040516200420238038062004202833981016040819052620000359162000679565b8888888888888887878760006001600160a01b0383166200009d5760405162461bcd60e51b815260206004820152601460248201527f706f6f6c2d616464726573732d69732d7a65726f00000000000000000000000060448201526064015b60405180910390fd5b6001600160a01b038216620000f55760405162461bcd60e51b815260206004820152601760248201527f737761707065722d616464726573732d69732d7a65726f000000000000000000604482015260640162000094565b600280546001600160a01b0319166001600160a01b0384811691909117909155831660a081905260408051637e062a3560e11b8152905163fc0c546a91600480820192602092909190829003018186803b1580156200015357600080fd5b505afa15801562000168573d6000803e3d6000fd5b505050506040513d601f19601f820116820180604052508101906200018e9190620007f2565b6001600160a01b03908116608052600080546001600160a01b031916918316919091179055620001d5620001bf3390565b60036200053260201b62001a031790919060201c565b620002175760405162461bcd60e51b81526020600482015260116024820152701859190b5ad9595c195c8b59985a5b1959607a1b604482015260640162000094565b5050506001600160a01b038616620002675760405162461bcd60e51b81526020600482015260126024820152717374672d726f757465722d69732d7a65726f60701b604482015260640162000094565b6001600160a01b038516620002bf5760405162461bcd60e51b815260206004820152601360248201527f7374672d6c702d706f6f6c2d69732d7a65726f00000000000000000000000000604482015260640162000094565b6001600160a01b038416620003175760405162461bcd60e51b815260206004820152601360248201527f7374672d7374616b696e672d69732d7a65726f00000000000000000000000000604482015260640162000094565b600083116200035c5760405162461bcd60e51b815260206004820152601060248201526f7374672d706f6f6c2d69732d7a65726f60801b604482015260640162000094565b6001600160a01b038681166101605284811660c0819052600080546001600160a01b03191692881692831790556101409190915261010084905260e083905260408051633604cef760e11b81529051636c099dee91600480820192602092909190829003018186803b158015620003d257600080fd5b505afa158015620003e7573d6000803e3d6000fd5b505050506040513d601f19601f820116820180604052508101906200040d9190620007f2565b6001600160a01b03166101205280516200042f906005906020840190620005a4565b50505050506001600160a01b0386161515935062000494925050505760405162461bcd60e51b815260206004820152601360248201527f777261707065642d6574682d69732d6e756c6c00000000000000000000000000604482015260640162000094565b610140516001600160a01b031663fc0c546a6040518163ffffffff1660e01b815260040160206040518083038186803b158015620004d157600080fd5b505afa158015620004e6573d6000803e3d6000fd5b505050506040513d601f19601f820116820180604052508101906200050c9190620007f2565b6001600160a01b0390811661018052919091166101a05250620008569650505050505050565b600062000549836001600160a01b03841662000552565b90505b92915050565b60008181526001830160205260408120546200059b575081546001818101845560008481526020808220909301849055845484825282860190935260409020919091556200054c565b5060006200054c565b828054620005b29062000819565b90600052602060002090601f016020900481019282620005d6576000855562000621565b82601f10620005f157805160ff191683800117855562000621565b8280016001018555821562000621579182015b828111156200062157825182559160200191906001019062000604565b506200062f92915062000633565b5090565b5b808211156200062f576000815560010162000634565b6001600160a01b03811681146200066057600080fd5b50565b634e487b7160e01b600052604160045260246000fd5b60008060008060008060008060006101208a8c0312156200069957600080fd5b8951620006a6816200064a565b60208b0151909950620006b9816200064a565b60408b0151909850620006cc816200064a565b60608b0151909750620006df816200064a565b60808b0151909650620006f2816200064a565b8095505060a08a0151935060c08a0151925060e08a015162000714816200064a565b6101008b01519092506001600160401b03808211156200073357600080fd5b818c0191508c601f8301126200074857600080fd5b8151818111156200075d576200075d62000663565b604051601f8201601f19908116603f0116810190838211818310171562000788576200078862000663565b816040528281528f6020848701011115620007a257600080fd5b600093505b82841015620007ca576020848601015160208583010152602084019350620007a7565b82841115620007dd576000602084830101525b80955050505050509295985092959850929598565b6000602082840312156200080557600080fd5b815162000812816200064a565b9392505050565b600181811c908216806200082e57607f821691505b602082108114156200085057634e487b7160e01b600052602260045260246000fd5b50919050565b60805160a05160c05160e05161010051610120516101405161016051610180516101a05161375b62000aa7600039600081816101a1015281816101c8015281816102d101526130c60152600081816103050152818161234b015261312c0152600081816109a701528181611dc10152818161236d01528181612bec01528181612dd00152612e78015260008181611a7201528181611b4101528181611cbf0152818161277601528181612819015281816128aa01528181612ca201528181612e020152612e5601526000818161067101528181612ae201528181612b750152612eae015260008181610535015281816109d8015281816109f901528181611df00152612bb901526000818161047401528181610e5101528181610f1601528181611c190152818161249d01528181612a380152612c8101526000818161044001528181610e8001528181610f4501528181611c460152818161246e01528181612a6501528181612c520152612e24015260008181610287015281816106e401528181610840015281816108cb01528181610ae201528181610bfe01528181610cdc01528181610d38015281816110e20152818161117f015281816113ab0152818161157401528181611eb501528181611f550152818161220e01526131d0015260008181610501015281816105e601528181610b4101528181610bdc01528181610c5001528181610d0f0152818161130f015281816117a60152818161196c01528181611ff601528181612034015281816121320152818161228c01528181612dae01526131ae015261375b6000f3fe6080604052600436106101915760003560e01c806399b71d5c116100d7578063d3033c3911610085578063d3033c39146105b7578063d8dfeb45146105d7578063e00af4a71461060a578063e5328e061461062a578063ec78e8321461063f578063f7c618c11461065f578063fc0c546a14610693578063ffa1ad74146106b157600080fd5b806399b71d5c146104b8578063a3f4df7e146104cd578063b2016bd4146104ef578063b2bc229814610523578063c415b95c14610557578063ce5494bb14610577578063d2c35ce81461059757600080fd5b80634032b72b1161013f5780634032b72b14610367578063440d7248146103875780634dadd90a146103c6578063698a0cc3146103e95780637d7c2a1c146103fe5780637e2d57591461042e5780638fe14eec14610462578063951dc22c1461049657600080fd5b806314ae9f2e14610242578063162514281461026257806316f0115b1461027557806317fcb39b146102bf578063293e973c146102f35780632b3297f9146103275780632e1a7d4d1461034757600080fd5b3661023d57336001600160a01b037f0000000000000000000000000000000000000000000000000000000000000000161461023b577f00000000000000000000000000000000000000000000000000000000000000006001600160a01b031663d0e30db0476040518263ffffffff1660e01b81526004016000604051808303818588803b15801561022157600080fd5b505af1158015610235573d6000803e3d6000fd5b50505050505b005b600080fd5b34801561024e57600080fd5b5061023b61025d36600461336b565b6106e2565b61023b610270366004613388565b6107fd565b34801561028157600080fd5b506102a97f000000000000000000000000000000000000000000000000000000000000000081565b6040516102b691906133ac565b60405180910390f35b3480156102cb57600080fd5b506102a97f000000000000000000000000000000000000000000000000000000000000000081565b3480156102ff57600080fd5b506102a97f000000000000000000000000000000000000000000000000000000000000000081565b34801561033357600080fd5b506002546102a9906001600160a01b031681565b34801561035357600080fd5b5061023b6103623660046133c0565b610adf565b34801561037357600080fd5b5061023b61038236600461336b565b610d36565b34801561039357600080fd5b506103b66103a236600461336b565b6000546001600160a01b0391821691161490565b60405190151581526020016102b6565b3480156103d257600080fd5b506103db610e42565b6040519081526020016102b6565b3480156103f557600080fd5b506103db610f07565b34801561040a57600080fd5b50610413610fcd565b604080519384526020840192909252908201526060016102b6565b34801561043a57600080fd5b506102a97f000000000000000000000000000000000000000000000000000000000000000081565b34801561046e57600080fd5b506103db7f000000000000000000000000000000000000000000000000000000000000000081565b3480156104a257600080fd5b506104ab611009565b6040516102b691906133d9565b3480156104c457600080fd5b5061023b611015565b3480156104d957600080fd5b506104e2611051565b6040516102b6919061347e565b3480156104fb57600080fd5b506102a97f000000000000000000000000000000000000000000000000000000000000000081565b34801561052f57600080fd5b506103db7f000000000000000000000000000000000000000000000000000000000000000081565b34801561056357600080fd5b506001546102a9906001600160a01b031681565b34801561058357600080fd5b5061023b61059236600461336b565b6110df565b3480156105a357600080fd5b5061023b6105b236600461336b565b6113a9565b3480156105c357600080fd5b5061023b6105d236600461336b565b611572565b3480156105e357600080fd5b507f00000000000000000000000000000000000000000000000000000000000000006102a9565b34801561061657600080fd5b5061023b61062536600461336b565b61172f565b34801561063657600080fd5b506103db611952565b34801561064b57600080fd5b506000546102a9906001600160a01b031681565b34801561066b57600080fd5b506102a97f000000000000000000000000000000000000000000000000000000000000000081565b34801561069f57600080fd5b506000546001600160a01b03166102a9565b3480156106bd57600080fd5b506104e2604051806040016040528060058152602001640352e302e360dc1b81525081565b7f00000000000000000000000000000000000000000000000000000000000000006001600160a01b0316630c340a246040518163ffffffff1660e01b815260040160206040518083038186803b15801561073b57600080fd5b505afa15801561074f573d6000803e3d6000fd5b505050506040513d601f19601f820116820180604052508101906107739190613491565b6001600160a01b0316336001600160a01b0316146107ac5760405162461bcd60e51b81526004016107a3906134ae565b60405180910390fd5b6107b7600382611a21565b6107fa5760405162461bcd60e51b81526020600482015260146024820152731c995b5bdd994b5ad9595c195c8b59985a5b195960621b60448201526064016107a3565b50565b61080a335b600390611a36565b6108265760405162461bcd60e51b81526004016107a3906134e5565b604051636a9eee1360e11b81526000906001600160a01b037f0000000000000000000000000000000000000000000000000000000000000000169063d53ddc26906108759030906004016133ac565b60206040518083038186803b15801561088d57600080fd5b505afa1580156108a1573d6000803e3d6000fd5b505050506040513d601f19601f820116820180604052508101906108c59190613515565b905060007f00000000000000000000000000000000000000000000000000000000000000006001600160a01b0316639f2b2833306040518263ffffffff1660e01b815260040161091591906133ac565b60206040518083038186803b15801561092d57600080fd5b505afa158015610941573d6000803e3d6000fd5b505050506040513d601f19601f820116820180604052508101906109659190613515565b90506000610971611a58565b905081811115610992576109858282613544565b61098f908461355b565b92505b600061099d84611b2f565b90508015610ad8577f00000000000000000000000000000000000000000000000000000000000000006001600160a01b0316638f2e1d1834877f00000000000000000000000000000000000000000000000000000000000000007f0000000000000000000000000000000000000000000000000000000000000000338730604051602001610a43919060609190911b6bffffffffffffffffffffffff1916815260140190565b60408051601f198184030181526060830182526000808452602084810191909152825180840184526002815261060f60f31b918101919091528383015290516001600160e01b031960e08b901b168152610aa597969594939290600401613573565b6000604051808303818588803b158015610abe57600080fd5b505af1158015610ad2573d6000803e3d6000fd5b50505050505b5050505050565b337f00000000000000000000000000000000000000000000000000000000000000006001600160a01b031614610b275760405162461bcd60e51b81526004016107a3906135ee565b6040516370a0823160e01b81526000906001600160a01b037f000000000000000000000000000000000000000000000000000000000000000016906370a0823190610b769030906004016133ac565b60206040518083038186803b158015610b8e57600080fd5b505afa158015610ba2573d6000803e3d6000fd5b505050506040513d601f19601f82011682018060405250810190610bc69190613515565b9050818110610c2757610c236001600160a01b037f0000000000000000000000000000000000000000000000000000000000000000167f000000000000000000000000000000000000000000000000000000000000000084611d57565b5050565b610c39610c348284613544565b611dbf565b6040516370a0823160e01b81526001600160a01b037f000000000000000000000000000000000000000000000000000000000000000016906370a0823190610c859030906004016133ac565b60206040518083038186803b158015610c9d57600080fd5b505afa158015610cb1573d6000803e3d6000fd5b505050506040513d601f19601f82011682018060405250810190610cd59190613515565b9050610c237f0000000000000000000000000000000000000000000000000000000000000000610d058484611e97565b6001600160a01b037f0000000000000000000000000000000000000000000000000000000000000000169190611d57565b7f00000000000000000000000000000000000000000000000000000000000000006001600160a01b0316630c340a246040518163ffffffff1660e01b815260040160206040518083038186803b158015610d8f57600080fd5b505afa158015610da3573d6000803e3d6000fd5b505050506040513d601f19601f82011682018060405250810190610dc79190613491565b6001600160a01b0316336001600160a01b031614610df75760405162461bcd60e51b81526004016107a3906134ae565b610e02600382611a03565b6107fa5760405162461bcd60e51b81526020600482015260116024820152701859190b5ad9595c195c8b59985a5b1959607a1b60448201526064016107a3565b6040516393f1a40b60e01b81527f000000000000000000000000000000000000000000000000000000000000000060048201523060248201526000907f00000000000000000000000000000000000000000000000000000000000000006001600160a01b0316906393f1a40b90604401604080518083038186803b158015610ec957600080fd5b505afa158015610edd573d6000803e3d6000fd5b505050506040513d601f19601f82011682018060405250810190610f019190613621565b50919050565b604051632f607fdd60e01b81527f000000000000000000000000000000000000000000000000000000000000000060048201523060248201526000907f00000000000000000000000000000000000000000000000000000000000000006001600160a01b031690632f607fdd906044015b60206040518083038186803b158015610f9057600080fd5b505afa158015610fa4573d6000803e3d6000fd5b505050506040513d601f19601f82011682018060405250810190610fc89190613515565b905090565b60008080610fda33610802565b610ff65760405162461bcd60e51b81526004016107a3906134e5565b610ffe611ead565b925092509250909192565b6060610fc86003612321565b61101e33610802565b61103a5760405162461bcd60e51b81526004016107a3906134e5565b6110446000612335565b61104f600019612335565b565b6005805461105e90613645565b80601f016020809104026020016040519081016040528092919081815260200182805461108a90613645565b80156110d75780601f106110ac576101008083540402835291602001916110d7565b820191906000526020600020905b8154815290600101906020018083116110ba57829003601f168201915b505050505081565b337f00000000000000000000000000000000000000000000000000000000000000006001600160a01b0316146111275760405162461bcd60e51b81526004016107a3906135ee565b6001600160a01b03811661117d5760405162461bcd60e51b815260206004820152601c60248201527f6e65772d73747261746567792d616464726573732d69732d7a65726f0000000060448201526064016107a3565b7f00000000000000000000000000000000000000000000000000000000000000006001600160a01b0316816001600160a01b03166316f0115b6040518163ffffffff1660e01b815260040160206040518083038186803b1580156111e057600080fd5b505afa1580156111f4573d6000803e3d6000fd5b505050506040513d601f19601f820116820180604052508101906112189190613491565b6001600160a01b0316146112675760405162461bcd60e51b81526020600482015260166024820152756e6f742d76616c69642d6e65772d737472617465677960501b60448201526064016107a3565b61127081612392565b6000546040516370a0823160e01b81526113099183916001600160a01b03909116906370a08231906112a69030906004016133ac565b60206040518083038186803b1580156112be57600080fd5b505afa1580156112d2573d6000803e3d6000fd5b505050506040513d601f19601f820116820180604052508101906112f69190613515565b6000546001600160a01b03169190611d57565b6107fa817f00000000000000000000000000000000000000000000000000000000000000006001600160a01b03166370a08231306040518263ffffffff1660e01b815260040161135991906133ac565b60206040518083038186803b15801561137157600080fd5b505afa158015611385573d6000803e3d6000fd5b505050506040513d601f19601f82011682018060405250810190610d059190613515565b7f00000000000000000000000000000000000000000000000000000000000000006001600160a01b0316630c340a246040518163ffffffff1660e01b815260040160206040518083038186803b15801561140257600080fd5b505afa158015611416573d6000803e3d6000fd5b505050506040513d601f19601f8201168201806040525081019061143a9190613491565b6001600160a01b0316336001600160a01b03161461146a5760405162461bcd60e51b81526004016107a3906134ae565b6001600160a01b0381166114c05760405162461bcd60e51b815260206004820152601d60248201527f6665652d636f6c6c6563746f722d616464726573732d69732d7a65726f00000060448201526064016107a3565b6001546001600160a01b03828116911614156115165760405162461bcd60e51b81526020600482015260156024820152746665652d636f6c6c6563746f722d69732d73616d6560581b60448201526064016107a3565b6001546040516001600160a01b038084169216907f0f06062680f9bd68e786e9980d9bb03d73d5620fc3b345e417b6eacb310b970690600090a3600180546001600160a01b0319166001600160a01b0392909216919091179055565b7f00000000000000000000000000000000000000000000000000000000000000006001600160a01b0316630c340a246040518163ffffffff1660e01b815260040160206040518083038186803b1580156115cb57600080fd5b505afa1580156115df573d6000803e3d6000fd5b505050506040513d601f19601f820116820180604052508101906116039190613491565b6001600160a01b0316336001600160a01b0316146116335760405162461bcd60e51b81526004016107a3906134ae565b6001600160a01b0381166116835760405162461bcd60e51b8152602060048201526017602482015276737761707065722d616464726573732d69732d7a65726f60481b60448201526064016107a3565b6002546001600160a01b03828116911614156116d35760405162461bcd60e51b815260206004820152600f60248201526e737761707065722d69732d73616d6560881b60448201526064016107a3565b6002546040516001600160a01b038084169216907f6c953b7ec311055c20b96a42cea31e89528e375b1bf953a503db40854b3188fe90600090a3600280546001600160a01b0319166001600160a01b0392909216919091179055565b61173833610802565b6117545760405162461bcd60e51b81526004016107a3906134e5565b6001546001600160a01b03166117a45760405162461bcd60e51b81526020600482015260156024820152741999594b58dbdb1b1958dd1bdc8b5b9bdd0b5cd95d605a1b60448201526064016107a3565b7f00000000000000000000000000000000000000000000000000000000000000006001600160a01b0316816001600160a01b031614156118265760405162461bcd60e51b815260206004820152601f60248201527f6e6f742d616c6c6f7765642d746f2d73776565702d636f6c6c61746572616c0060448201526064016107a3565b6000546001600160a01b038281169116141561187b5760405162461bcd60e51b815260206004820152601460248201527306e6f742d616c6c6f7765642d746f2d73776565760641b60448201526064016107a3565b6001600160a01b03811673eeeeeeeeeeeeeeeeeeeeeeeeeeeeeeeeeeeeeeee14156118b6576001546107fa906001600160a01b031647612516565b6040516370a0823160e01b81526000906001600160a01b038316906370a08231906118e59030906004016133ac565b60206040518083038186803b1580156118fd57600080fd5b505afa158015611911573d6000803e3d6000fd5b505050506040513d601f19601f820116820180604052508101906119359190613515565b600154909150610c23906001600160a01b03848116911683611d57565b6040516370a0823160e01b81526000906001600160a01b037f000000000000000000000000000000000000000000000000000000000000000016906370a08231906119a19030906004016133ac565b60206040518083038186803b1580156119b957600080fd5b505afa1580156119cd573d6000803e3d6000fd5b505050506040513d601f19601f820116820180604052508101906119f19190613515565b6119f9611a58565b610fc8919061355b565b6000611a18836001600160a01b03841661262f565b90505b92915050565b6000611a18836001600160a01b03841661267e565b6001600160a01b03811660009081526001830160205260408120541515611a18565b6040516370a0823160e01b81526000906001600160a01b037f0000000000000000000000000000000000000000000000000000000000000000169063f6cd35ee9082906370a0823190611aaf9030906004016133ac565b60206040518083038186803b158015611ac757600080fd5b505afa158015611adb573d6000803e3d6000fd5b505050506040513d601f19601f82011682018060405250810190611aff9190613515565b611b07610e42565b611b11919061355b565b6040518263ffffffff1660e01b8152600401610f7891815260200190565b600080611b3b83612771565b905060007f00000000000000000000000000000000000000000000000000000000000000006001600160a01b03166370a08231306040518263ffffffff1660e01b8152600401611b8b91906133ac565b60206040518083038186803b158015611ba357600080fd5b505afa158015611bb7573d6000803e3d6000fd5b505050506040513d601f19601f82011682018060405250810190611bdb9190613515565b905080821115611d50576000611bef610e42565b90506000611bfd8385613544565b905081811115611c0a5750805b604051630441a3e760e41b81527f00000000000000000000000000000000000000000000000000000000000000006004820152602481018290527f00000000000000000000000000000000000000000000000000000000000000006001600160a01b03169063441a3e7090604401600060405180830381600087803b158015611c9257600080fd5b505af1158015611ca6573d6000803e3d6000fd5b50506040516370a0823160e01b81526001600160a01b037f00000000000000000000000000000000000000000000000000000000000000001692506370a082319150611cf69030906004016133ac565b60206040518083038186803b158015611d0e57600080fd5b505afa158015611d22573d6000803e3d6000fd5b505050506040513d601f19601f82011682018060405250810190611d469190613515565b9695505050505050565b5092915050565b6040516001600160a01b038316602482015260448101829052611dba90849063a9059cbb60e01b906064015b60408051601f198184030181529190526020810180516001600160e01b03166001600160e01b031990931692909217909152612957565b505050565b7f00000000000000000000000000000000000000000000000000000000000000006001600160a01b031663c4de93a57f0000000000000000000000000000000000000000000000000000000000000000611e1884611b2f565b6040516001600160e01b031960e085901b16815261ffff90921660048301526024820152306044820152606401602060405180830381600087803b158015611e5f57600080fd5b505af1158015611e73573d6000803e3d6000fd5b505050506040513d601f19601f82011682018060405250810190610c239190613515565b6000818310611ea65781611a18565b5090919050565b6000806000807f00000000000000000000000000000000000000000000000000000000000000006001600160a01b031663d53ddc26306040518263ffffffff1660e01b8152600401611eff91906133ac565b60206040518083038186803b158015611f1757600080fd5b505afa158015611f2b573d6000803e3d6000fd5b505050506040513d601f19601f82011682018060405250810190611f4f9190613515565b905060007f00000000000000000000000000000000000000000000000000000000000000006001600160a01b0316639f2b2833306040518263ffffffff1660e01b8152600401611f9f91906133ac565b60206040518083038186803b158015611fb757600080fd5b505afa158015611fcb573d6000803e3d6000fd5b505050506040513d601f19601f82011682018060405250810190611fef9190613515565b905061201a7f0000000000000000000000000000000000000000000000000000000000000000612a29565b6040516370a0823160e01b81526000906001600160a01b037f000000000000000000000000000000000000000000000000000000000000000016906370a08231906120699030906004016133ac565b60206040518083038186803b15801561208157600080fd5b505afa158015612095573d6000803e3d6000fd5b505050506040513d601f19601f820116820180604052508101906120b99190613515565b90506000816120c6611a58565b6120d0919061355b565b9050828111156120eb576120e48382613544565b96506120f8565b6120f58184613544565b95505b6000612104858961355b565b9050828111156121ba5761211b610c348483613544565b6040516370a0823160e01b81526001600160a01b037f000000000000000000000000000000000000000000000000000000000000000016906370a08231906121679030906004016133ac565b60206040518083038186803b15801561217f57600080fd5b505afa158015612193573d6000803e3d6000fd5b505050506040513d601f19601f820116820180604052508101906121b79190613515565b92505b6121c48386611e97565b95508583116121d45760006121e7565b6121e76121e18785613544565b89611e97565b6040516302df682360e11b81526004810182905260248101899052604481018890529098507f00000000000000000000000000000000000000000000000000000000000000006001600160a01b0316906305bed04690606401600060405180830381600087803b15801561225a57600080fd5b505af115801561226e573d6000803e3d6000fd5b50506040516370a0823160e01b815261231792506001600160a01b037f00000000000000000000000000000000000000000000000000000000000000001691506370a08231906122c29030906004016133ac565b60206040518083038186803b1580156122da57600080fd5b505afa1580156122ee573d6000803e3d6000fd5b505050506040513d601f19601f820116820180604052508101906123129190613515565b612b9b565b5050505050909192565b6060600061232e83612d3c565b9392505050565b61233e81612d98565b6107fa6001600160a01b037f0000000000000000000000000000000000000000000000000000000000000000167f000000000000000000000000000000000000000000000000000000000000000083612ed3565b60008054906101000a90046001600160a01b03166001600160a01b0316816001600160a01b031663fc0c546a6040518163ffffffff1660e01b815260040160206040518083038186803b1580156123e857600080fd5b505afa1580156123fc573d6000803e3d6000fd5b505050506040513d601f19601f820116820180604052508101906124209190613491565b6001600160a01b03161461246c5760405162461bcd60e51b81526020600482015260136024820152723bb937b73396b932b1b2b4b83a16ba37b5b2b760691b60448201526064016107a3565b7f00000000000000000000000000000000000000000000000000000000000000006001600160a01b031663441a3e707f00000000000000000000000000000000000000000000000000000000000000006124c4610e42565b6040516001600160e01b031960e085901b16815260048101929092526024820152604401600060405180830381600087803b15801561250257600080fd5b505af1158015610ad8573d6000803e3d6000fd5b804710156125665760405162461bcd60e51b815260206004820152601d60248201527f416464726573733a20696e73756666696369656e742062616c616e636500000060448201526064016107a3565b6000826001600160a01b03168260405160006040518083038185875af1925050503d80600081146125b3576040519150601f19603f3d011682016040523d82523d6000602084013e6125b8565b606091505b5050905080611dba5760405162461bcd60e51b815260206004820152603a60248201527f416464726573733a20756e61626c6520746f2073656e642076616c75652c207260448201527f6563697069656e74206d6179206861766520726576657274656400000000000060648201526084016107a3565b600081815260018301602052604081205461267657508154600181810184556000848152602080822090930184905584548482528286019093526040902091909155611a1b565b506000611a1b565b600081815260018301602052604081205480156127675760006126a2600183613544565b85549091506000906126b690600190613544565b905081811461271b5760008660000182815481106126d6576126d661367a565b90600052602060002001549050808760000184815481106126f9576126f961367a565b6000918252602080832090910192909255918252600188019052604090208390555b855486908061272c5761272c613690565b600190038181906000526020600020016000905590558560010160008681526020019081526020016000206000905560019350505050611a1b565b6000915050611a1b565b6000807f00000000000000000000000000000000000000000000000000000000000000006001600160a01b03166315770f926040518163ffffffff1660e01b815260040160206040518083038186803b1580156127cd57600080fd5b505afa1580156127e1573d6000803e3d6000fd5b505050506040513d601f19601f820116820180604052508101906128059190613515565b90506000811161281657600061232e565b807f00000000000000000000000000000000000000000000000000000000000000006001600160a01b03166318160ddd6040518163ffffffff1660e01b815260040160206040518083038186803b15801561287057600080fd5b505afa158015612884573d6000803e3d6000fd5b505050506040513d601f19601f820116820180604052508101906128a89190613515565b7f00000000000000000000000000000000000000000000000000000000000000006001600160a01b031663feb56b156040518163ffffffff1660e01b815260040160206040518083038186803b15801561290157600080fd5b505afa158015612915573d6000803e3d6000fd5b505050506040513d601f19601f820116820180604052508101906129399190613515565b61294390866136a6565b61294d91906136c8565b61232e91906136a6565b60006129ac826040518060400160405280602081526020017f5361666545524332303a206c6f772d6c6576656c2063616c6c206661696c6564815250856001600160a01b0316612ff79092919063ffffffff16565b805190915015611dba57808060200190518101906129ca91906136e7565b611dba5760405162461bcd60e51b815260206004820152602a60248201527f5361666545524332303a204552433230206f7065726174696f6e20646964206e6044820152691bdd081cdd58d8d9595960b21b60648201526084016107a3565b604051630441a3e760e41b81527f00000000000000000000000000000000000000000000000000000000000000006004820152600060248201527f00000000000000000000000000000000000000000000000000000000000000006001600160a01b03169063441a3e7090604401600060405180830381600087803b158015612ab157600080fd5b505af1158015612ac5573d6000803e3d6000fd5b50506040516370a0823160e01b8152600092506001600160a01b037f00000000000000000000000000000000000000000000000000000000000000001691506370a0823190612b189030906004016133ac565b60206040518083038186803b158015612b3057600080fd5b505afa158015612b44573d6000803e3d6000fd5b505050506040513d601f19601f82011682018060405250810190612b689190613515565b90508015610c2357610c237f0000000000000000000000000000000000000000000000000000000000000000838361300e565b80156107fa57612baa816130b0565b6040516321ec87bf60e21b81527f00000000000000000000000000000000000000000000000000000000000000006004820152602481018290523060448201527f00000000000000000000000000000000000000000000000000000000000000006001600160a01b0316906387b21efc90606401600060405180830381600087803b158015612c3857600080fd5b505af1158015612c4c573d6000803e3d6000fd5b505050507f00000000000000000000000000000000000000000000000000000000000000006001600160a01b031663e2bbb1587f00000000000000000000000000000000000000000000000000000000000000007f00000000000000000000000000000000000000000000000000000000000000006001600160a01b03166370a08231306040518263ffffffff1660e01b8152600401612cec91906133ac565b60206040518083038186803b158015612d0457600080fd5b505afa158015612d18573d6000803e3d6000fd5b505050506040513d601f19601f820116820180604052508101906124c49190613515565b606081600001805480602002602001604051908101604052809291908181526020018280548015612d8c57602002820191906000526020600020905b815481526020019060010190808311612d78575b50505050509050919050565b612da1816131a1565b612df56001600160a01b037f0000000000000000000000000000000000000000000000000000000000000000167f000000000000000000000000000000000000000000000000000000000000000083612ed3565b612e496001600160a01b037f0000000000000000000000000000000000000000000000000000000000000000167f000000000000000000000000000000000000000000000000000000000000000083612ed3565b612e9d6001600160a01b037f0000000000000000000000000000000000000000000000000000000000000000167f000000000000000000000000000000000000000000000000000000000000000083612ed3565b6002546107fa906001600160a01b037f000000000000000000000000000000000000000000000000000000000000000081169116835b801580612f5c5750604051636eb1769f60e11b81523060048201526001600160a01b03838116602483015284169063dd62ed3e9060440160206040518083038186803b158015612f2257600080fd5b505afa158015612f36573d6000803e3d6000fd5b505050506040513d601f19601f82011682018060405250810190612f5a9190613515565b155b612fc75760405162461bcd60e51b815260206004820152603660248201527f5361666545524332303a20617070726f76652066726f6d206e6f6e2d7a65726f60448201527520746f206e6f6e2d7a65726f20616c6c6f77616e636560501b60648201526084016107a3565b6040516001600160a01b038316602482015260448101829052611dba90849063095ea7b360e01b90606401611d83565b606061300684846000856131f5565b949350505050565b600254604051636ccb2b0160e01b81526001600160a01b0385811660048301528481166024830152604482018490526001606483015230608483015290911690636ccb2b019060a401602060405180830381600087803b15801561307157600080fd5b505af19250505080156130a1575060408051601f3d908101601f1916820190925261309e91810190613515565b60015b6130aa57505050565b50505050565b604051632e1a7d4d60e01b8152600481018290527f00000000000000000000000000000000000000000000000000000000000000006001600160a01b031690632e1a7d4d90602401600060405180830381600087803b15801561311257600080fd5b505af1158015613126573d6000803e3d6000fd5b505050507f00000000000000000000000000000000000000000000000000000000000000006001600160a01b031663d0e30db0826040518263ffffffff1660e01b81526004016000604051808303818588803b15801561318557600080fd5b505af1158015613199573d6000803e3d6000fd5b505050505050565b6107fa6001600160a01b037f0000000000000000000000000000000000000000000000000000000000000000167f000000000000000000000000000000000000000000000000000000000000000083612ed3565b6060824710156132565760405162461bcd60e51b815260206004820152602660248201527f416464726573733a20696e73756666696369656e742062616c616e636520666f6044820152651c8818d85b1b60d21b60648201526084016107a3565b843b6132a45760405162461bcd60e51b815260206004820152601d60248201527f416464726573733a2063616c6c20746f206e6f6e2d636f6e747261637400000060448201526064016107a3565b600080866001600160a01b031685876040516132c09190613709565b60006040518083038185875af1925050503d80600081146132fd576040519150601f19603f3d011682016040523d82523d6000602084013e613302565b606091505b509150915061331282828661331d565b979650505050505050565b6060831561332c57508161232e565b82511561333c5782518084602001fd5b8160405162461bcd60e51b81526004016107a3919061347e565b6001600160a01b03811681146107fa57600080fd5b60006020828403121561337d57600080fd5b813561232e81613356565b60006020828403121561339a57600080fd5b813561ffff8116811461232e57600080fd5b6001600160a01b0391909116815260200190565b6000602082840312156133d257600080fd5b5035919050565b6020808252825182820181905260009190848201906040850190845b8181101561341a5783516001600160a01b0316835292840192918401916001016133f5565b50909695505050505050565b60005b83811015613441578181015183820152602001613429565b838111156130aa5750506000910152565b6000815180845261346a816020860160208601613426565b601f01601f19169290920160200192915050565b602081526000611a186020830184613452565b6000602082840312156134a357600080fd5b815161232e81613356565b6020808252601a908201527f63616c6c65722d69732d6e6f742d7468652d676f7665726e6f72000000000000604082015260600190565b60208082526016908201527531b0b63632b916b4b996b737ba16b096b5b2b2b832b960511b604082015260600190565b60006020828403121561352757600080fd5b5051919050565b634e487b7160e01b600052601160045260246000fd5b6000828210156135565761355661352e565b500390565b6000821982111561356e5761356e61352e565b500190565b61ffff8816815286602082015285604082015260018060a01b038516606082015283608082015260e060a082015260006135b060e0830185613452565b82810360c084015283518152602084015160208201526040840151606060408301526135df6060830182613452565b9b9a5050505050505050505050565b60208082526019908201527818d85b1b195c8b5a5ccb5b9bdd0b5d995cdc195c8b5c1bdbdb603a1b604082015260600190565b6000806040838503121561363457600080fd5b505080516020909101519092909150565b600181811c9082168061365957607f821691505b60208210811415610f0157634e487b7160e01b600052602260045260246000fd5b634e487b7160e01b600052603260045260246000fd5b634e487b7160e01b600052603160045260246000fd5b6000826136c357634e487b7160e01b600052601260045260246000fd5b500490565b60008160001904831182151516156136e2576136e261352e565b500290565b6000602082840312156136f957600080fd5b8151801515811461232e57600080fd5b6000825161371b818460208701613426565b919091019291505056fea26469706673582212200090d2c8f1727f4de1bc221f583b13a7feadcaa38231739311233f20f742933564736f6c63430008090033",
  "devdoc": {
    "kind": "dev",
    "methods": {
      "addKeeper(address)": {
        "params": {
          "_keeperAddress": "keeper address to add."
        }
      },
      "approveToken()": {
        "details": "Approve all required tokens"
      },
      "migrate(address)": {
        "details": "_beforeMigration hook can be implemented in child strategy to do extra steps.",
        "params": {
          "_newStrategy": "Address of new strategy"
        }
      },
      "rebalance()": {
        "returns": {
          "_loss": "Realized loss, if any, in collateral.",
          "_payback": "If strategy has any excess debt, we have to liquidate asset to payback excess debt.",
          "_profit": "Realized profit in collateral."
        }
      },
      "removeKeeper(address)": {
        "params": {
          "_keeperAddress": "keeper address to remove."
        }
      },
      "sweepERC20(address)": {
        "params": {
          "_fromToken": "token address to sweep"
        }
      },
      "updateFeeCollector(address)": {
        "params": {
          "_feeCollector": "fee collector address"
        }
      },
      "updateSwapper(address)": {
        "params": {
          "_swapper": "swapper address"
        }
      },
      "withdraw(uint256)": {
        "params": {
          "_amount": "Amount of collateral token"
        }
      },
      "withdrawForRebalance(uint16)": {
        "details": "Stargate has different chainId than EVM chainId.",
        "params": {
          "dstChainId_": "Destination chainId."
        }
      }
    },
    "title": "This Strategy will deposit ETH in a Stargate Pool Stake LP Token and accrue swap rewards",
    "version": 1
  },
  "userdoc": {
    "kind": "user",
    "methods": {
      "addKeeper(address)": {
        "notice": "Add given address in keepers list."
      },
      "collateral()": {
        "notice": "Returns address of token correspond to collateral token"
      },
      "keepers()": {
        "notice": "Return list of keepers"
      },
      "migrate(address)": {
        "notice": "Migrate all asset and vault ownership,if any, to new strategy"
      },
      "rebalance()": {
        "notice": "OnlyKeeper: Rebalance profit, loss and investment of this strategy.  Calculate profit, loss and payback of this strategy and realize profit/loss and  withdraw fund for payback, if any, and submit this report to pool."
      },
      "removeKeeper(address)": {
        "notice": "Remove given address from keepers list."
      },
      "rewardToken()": {
        "notice": "rewardToken, usually STG"
      },
      "stargateLpStaking()": {
        "notice": "Address of Staking contract (MasterChef V2 behavior)"
      },
      "stargateLpStakingPoolId()": {
        "notice": "Reward pool id of the MasterChef"
      },
      "stargatePoolId()": {
        "notice": "Stargate Factory LP Pool Id"
      },
      "sweepERC20(address)": {
        "notice": "sweep given token to feeCollector of strategy"
      },
      "token()": {
        "notice": "Returns address of token correspond to receipt token"
      },
      "tvl()": {
        "notice": "Returns total collateral locked in the strategy"
      },
      "updateFeeCollector(address)": {
        "notice": "Update fee collector"
      },
      "updateSwapper(address)": {
        "notice": "Update swapper"
      },
      "withdraw(uint256)": {
        "notice": "Withdraw collateral token from end protocol."
      },
      "withdrawForRebalance(uint16)": {
        "notice": "OnlyKeeper: This function will withdraw required collateral from given   destination chain to the chain where this contract is deployed."
      }
    },
    "version": 1
  },
  "storageLayout": {
    "storage": [
      {
        "astId": 13788,
        "contract": "vesper-strategies/contracts/strategies/stargate/StargateETH.sol:StargateETH",
        "label": "receiptToken",
        "offset": 0,
        "slot": "0",
        "type": "t_address"
      },
      {
        "astId": 13794,
        "contract": "vesper-strategies/contracts/strategies/stargate/StargateETH.sol:StargateETH",
        "label": "feeCollector",
        "offset": 0,
        "slot": "1",
        "type": "t_address"
      },
      {
        "astId": 13797,
        "contract": "vesper-strategies/contracts/strategies/stargate/StargateETH.sol:StargateETH",
        "label": "swapper",
        "offset": 0,
        "slot": "2",
        "type": "t_contract(IRoutedSwapper)12649"
      },
      {
        "astId": 13810,
        "contract": "vesper-strategies/contracts/strategies/stargate/StargateETH.sol:StargateETH",
        "label": "_keepers",
        "offset": 0,
        "slot": "3",
        "type": "t_struct(AddressSet)3019_storage"
      },
      {
        "astId": 26744,
        "contract": "vesper-strategies/contracts/strategies/stargate/StargateETH.sol:StargateETH",
        "label": "NAME",
        "offset": 0,
        "slot": "5",
        "type": "t_string_storage"
      }
    ],
    "types": {
      "t_address": {
        "encoding": "inplace",
        "label": "address",
        "numberOfBytes": "20"
      },
      "t_array(t_bytes32)dyn_storage": {
        "base": "t_bytes32",
        "encoding": "dynamic_array",
        "label": "bytes32[]",
        "numberOfBytes": "32"
      },
      "t_bytes32": {
        "encoding": "inplace",
        "label": "bytes32",
        "numberOfBytes": "32"
      },
      "t_contract(IRoutedSwapper)12649": {
        "encoding": "inplace",
        "label": "contract IRoutedSwapper",
        "numberOfBytes": "20"
      },
      "t_mapping(t_bytes32,t_uint256)": {
        "encoding": "mapping",
        "key": "t_bytes32",
        "label": "mapping(bytes32 => uint256)",
        "numberOfBytes": "32",
        "value": "t_uint256"
      },
      "t_string_storage": {
        "encoding": "bytes",
        "label": "string",
        "numberOfBytes": "32"
      },
      "t_struct(AddressSet)3019_storage": {
        "encoding": "inplace",
        "label": "struct EnumerableSet.AddressSet",
        "members": [
          {
            "astId": 3018,
            "contract": "vesper-strategies/contracts/strategies/stargate/StargateETH.sol:StargateETH",
            "label": "_inner",
            "offset": 0,
            "slot": "0",
            "type": "t_struct(Set)2718_storage"
          }
        ],
        "numberOfBytes": "64"
      },
      "t_struct(Set)2718_storage": {
        "encoding": "inplace",
        "label": "struct EnumerableSet.Set",
        "members": [
          {
            "astId": 2713,
            "contract": "vesper-strategies/contracts/strategies/stargate/StargateETH.sol:StargateETH",
            "label": "_values",
            "offset": 0,
            "slot": "0",
            "type": "t_array(t_bytes32)dyn_storage"
          },
          {
            "astId": 2717,
            "contract": "vesper-strategies/contracts/strategies/stargate/StargateETH.sol:StargateETH",
            "label": "_indexes",
            "offset": 0,
            "slot": "1",
            "type": "t_mapping(t_bytes32,t_uint256)"
          }
        ],
        "numberOfBytes": "64"
      },
      "t_uint256": {
        "encoding": "inplace",
        "label": "uint256",
        "numberOfBytes": "32"
      }
    }
  }
}