{
  "address": "0x79D198221D0BB53a1f03491aE902Eb0dac63828A",
  "abi": [
    {
      "inputs": [
        {
          "internalType": "address",
          "name": "_pool",
          "type": "address"
        },
        {
          "internalType": "address",
          "name": "_swapManager",
          "type": "address"
        },
        {
          "internalType": "address",
          "name": "_unitroller",
          "type": "address"
        },
        {
          "internalType": "address",
          "name": "_receiptToken",
          "type": "address"
        },
        {
          "internalType": "address",
          "name": "_borrowCToken",
          "type": "address"
        },
        {
          "internalType": "address",
          "name": "_vPool",
          "type": "address"
        },
        {
          "internalType": "address",
          "name": "_vsp",
          "type": "address"
        },
        {
          "internalType": "string",
          "name": "_name",
          "type": "string"
        }
      ],
      "stateMutability": "nonpayable",
      "type": "constructor"
    },
    {
      "anonymous": false,
      "inputs": [
        {
          "indexed": false,
          "internalType": "uint256",
          "name": "previousMinBorrowLimit",
          "type": "uint256"
        },
        {
          "indexed": false,
          "internalType": "uint256",
          "name": "newMinBorrowLimit",
          "type": "uint256"
        },
        {
          "indexed": false,
          "internalType": "uint256",
          "name": "previousMaxBorrowLimit",
          "type": "uint256"
        },
        {
          "indexed": false,
          "internalType": "uint256",
          "name": "newMaxBorrowLimit",
          "type": "uint256"
        }
      ],
      "name": "UpdatedBorrowLimit",
      "type": "event"
    },
    {
      "anonymous": false,
      "inputs": [
        {
          "indexed": true,
          "internalType": "address",
          "name": "previousFeeCollector",
          "type": "address"
        },
        {
          "indexed": true,
          "internalType": "address",
          "name": "newFeeCollector",
          "type": "address"
        }
      ],
      "name": "UpdatedFeeCollector",
      "type": "event"
    },
    {
      "anonymous": false,
      "inputs": [
        {
          "indexed": false,
          "internalType": "uint256",
          "name": "oldPeriod",
          "type": "uint256"
        },
        {
          "indexed": false,
          "internalType": "uint256",
          "name": "newPeriod",
          "type": "uint256"
        },
        {
          "indexed": false,
          "internalType": "uint256",
          "name": "oldRouterIdx",
          "type": "uint256"
        },
        {
          "indexed": false,
          "internalType": "uint256",
          "name": "newRouterIdx",
          "type": "uint256"
        }
      ],
      "name": "UpdatedOracleConfig",
      "type": "event"
    },
    {
      "anonymous": false,
      "inputs": [
        {
          "indexed": true,
          "internalType": "address",
          "name": "previousSwapManager",
          "type": "address"
        },
        {
          "indexed": true,
          "internalType": "address",
          "name": "newSwapManager",
          "type": "address"
        }
      ],
      "name": "UpdatedSwapManager",
      "type": "event"
    },
    {
      "anonymous": false,
      "inputs": [
        {
          "indexed": false,
          "internalType": "uint256",
          "name": "oldSwapSlippage",
          "type": "uint256"
        },
        {
          "indexed": false,
          "internalType": "uint256",
          "name": "newSwapSlippage",
          "type": "uint256"
        }
      ],
      "name": "UpdatedSwapSlippage",
      "type": "event"
    },
    {
      "inputs": [],
      "name": "NAME",
      "outputs": [
        {
          "internalType": "string",
          "name": "",
          "type": "string"
        }
      ],
      "stateMutability": "view",
      "type": "function"
    },
    {
      "inputs": [],
      "name": "VERSION",
      "outputs": [
        {
          "internalType": "string",
          "name": "",
          "type": "string"
        }
      ],
      "stateMutability": "view",
      "type": "function"
    },
    {
      "inputs": [
        {
          "internalType": "address",
          "name": "_keeperAddress",
          "type": "address"
        }
      ],
      "name": "addKeeper",
      "outputs": [],
      "stateMutability": "nonpayable",
      "type": "function"
    },
    {
      "inputs": [],
      "name": "approveToken",
      "outputs": [],
      "stateMutability": "nonpayable",
      "type": "function"
    },
    {
      "inputs": [],
      "name": "borrowBalance",
      "outputs": [
        {
          "internalType": "uint256",
          "name": "",
          "type": "uint256"
        }
      ],
      "stateMutability": "view",
      "type": "function"
    },
    {
      "inputs": [],
      "name": "borrowCToken",
      "outputs": [
        {
          "internalType": "contract CToken",
          "name": "",
          "type": "address"
        }
      ],
      "stateMutability": "view",
      "type": "function"
    },
    {
      "inputs": [],
      "name": "borrowToken",
      "outputs": [
        {
          "internalType": "address",
          "name": "",
          "type": "address"
        }
      ],
      "stateMutability": "view",
      "type": "function"
    },
    {
      "inputs": [],
      "name": "collateralToken",
      "outputs": [
        {
          "internalType": "contract IERC20",
          "name": "",
          "type": "address"
        }
      ],
      "stateMutability": "view",
      "type": "function"
    },
    {
      "inputs": [],
      "name": "comptroller",
      "outputs": [
        {
          "internalType": "contract Comptroller",
          "name": "",
          "type": "address"
        }
      ],
      "stateMutability": "view",
      "type": "function"
    },
    {
      "inputs": [],
      "name": "feeCollector",
      "outputs": [
        {
          "internalType": "address",
          "name": "",
          "type": "address"
        }
      ],
      "stateMutability": "view",
      "type": "function"
    },
    {
      "inputs": [],
      "name": "isLossMaking",
      "outputs": [
        {
          "internalType": "bool",
          "name": "",
          "type": "bool"
        }
      ],
      "stateMutability": "view",
      "type": "function"
    },
    {
      "inputs": [
        {
          "internalType": "address",
          "name": "_token",
          "type": "address"
        }
      ],
      "name": "isReservedToken",
      "outputs": [
        {
          "internalType": "bool",
          "name": "",
          "type": "bool"
        }
      ],
      "stateMutability": "view",
      "type": "function"
    },
    {
      "inputs": [],
      "name": "keepers",
      "outputs": [
        {
          "internalType": "address[]",
          "name": "",
          "type": "address[]"
        }
      ],
      "stateMutability": "view",
      "type": "function"
    },
    {
      "inputs": [],
      "name": "maxBorrowLimit",
      "outputs": [
        {
          "internalType": "uint256",
          "name": "",
          "type": "uint256"
        }
      ],
      "stateMutability": "view",
      "type": "function"
    },
    {
      "inputs": [
        {
          "internalType": "address",
          "name": "_newStrategy",
          "type": "address"
        }
      ],
      "name": "migrate",
      "outputs": [],
      "stateMutability": "nonpayable",
      "type": "function"
    },
    {
      "inputs": [],
      "name": "minBorrowLimit",
      "outputs": [
        {
          "internalType": "uint256",
          "name": "",
          "type": "uint256"
        }
      ],
      "stateMutability": "view",
      "type": "function"
    },
    {
      "inputs": [],
      "name": "oraclePeriod",
      "outputs": [
        {
          "internalType": "uint256",
          "name": "",
          "type": "uint256"
        }
      ],
      "stateMutability": "view",
      "type": "function"
    },
    {
      "inputs": [],
      "name": "oracleRouterIdx",
      "outputs": [
        {
          "internalType": "uint256",
          "name": "",
          "type": "uint256"
        }
      ],
      "stateMutability": "view",
      "type": "function"
    },
    {
      "inputs": [],
      "name": "pool",
      "outputs": [
        {
          "internalType": "address",
          "name": "",
          "type": "address"
        }
      ],
      "stateMutability": "view",
      "type": "function"
    },
    {
      "inputs": [],
      "name": "rebalance",
      "outputs": [],
      "stateMutability": "nonpayable",
      "type": "function"
    },
    {
      "inputs": [],
      "name": "receiptToken",
      "outputs": [
        {
          "internalType": "address",
          "name": "",
          "type": "address"
        }
      ],
      "stateMutability": "view",
      "type": "function"
    },
    {
      "inputs": [
        {
          "internalType": "uint256",
          "name": "_amountToRecover",
          "type": "uint256"
        }
      ],
      "name": "recoverBorrowToken",
      "outputs": [],
      "stateMutability": "nonpayable",
      "type": "function"
    },
    {
      "inputs": [
        {
          "internalType": "address",
          "name": "_keeperAddress",
          "type": "address"
        }
      ],
      "name": "removeKeeper",
      "outputs": [],
      "stateMutability": "nonpayable",
      "type": "function"
    },
    {
      "inputs": [],
      "name": "repayAll",
      "outputs": [],
      "stateMutability": "nonpayable",
      "type": "function"
    },
    {
      "inputs": [],
      "name": "setupOracles",
      "outputs": [],
      "stateMutability": "nonpayable",
      "type": "function"
    },
    {
      "inputs": [],
      "name": "supplyCToken",
      "outputs": [
        {
          "internalType": "contract CToken",
          "name": "",
          "type": "address"
        }
      ],
      "stateMutability": "view",
      "type": "function"
    },
    {
      "inputs": [],
      "name": "swapManager",
      "outputs": [
        {
          "internalType": "contract ISwapManager",
          "name": "",
          "type": "address"
        }
      ],
      "stateMutability": "view",
      "type": "function"
    },
    {
      "inputs": [],
      "name": "swapSlippage",
      "outputs": [
        {
          "internalType": "uint256",
          "name": "",
          "type": "uint256"
        }
      ],
      "stateMutability": "view",
      "type": "function"
    },
    {
      "inputs": [
        {
          "internalType": "address",
          "name": "_fromToken",
          "type": "address"
        }
      ],
      "name": "sweepERC20",
      "outputs": [],
      "stateMutability": "nonpayable",
      "type": "function"
    },
    {
      "inputs": [],
      "name": "token",
      "outputs": [
        {
          "internalType": "address",
          "name": "",
          "type": "address"
        }
      ],
      "stateMutability": "view",
      "type": "function"
    },
    {
      "inputs": [],
      "name": "totalValue",
      "outputs": [
        {
          "internalType": "uint256",
          "name": "_totalValue",
          "type": "uint256"
        }
      ],
      "stateMutability": "view",
      "type": "function"
    },
    {
      "inputs": [],
      "name": "totalValueCurrent",
      "outputs": [
        {
          "internalType": "uint256",
          "name": "",
          "type": "uint256"
        }
      ],
      "stateMutability": "nonpayable",
      "type": "function"
    },
    {
      "inputs": [
        {
          "internalType": "uint256",
          "name": "_minBorrowLimit",
          "type": "uint256"
        },
        {
          "internalType": "uint256",
          "name": "_maxBorrowLimit",
          "type": "uint256"
        }
      ],
      "name": "updateBorrowLimit",
      "outputs": [],
      "stateMutability": "nonpayable",
      "type": "function"
    },
    {
      "inputs": [
        {
          "internalType": "address",
          "name": "_feeCollector",
          "type": "address"
        }
      ],
      "name": "updateFeeCollector",
      "outputs": [],
      "stateMutability": "nonpayable",
      "type": "function"
    },
    {
      "inputs": [
        {
          "internalType": "uint256",
          "name": "_newPeriod",
          "type": "uint256"
        },
        {
          "internalType": "uint256",
          "name": "_newRouterIdx",
          "type": "uint256"
        }
      ],
      "name": "updateOracleConfig",
      "outputs": [],
      "stateMutability": "nonpayable",
      "type": "function"
    },
    {
      "inputs": [
        {
          "internalType": "address",
          "name": "_swapManager",
          "type": "address"
        }
      ],
      "name": "updateSwapManager",
      "outputs": [],
      "stateMutability": "nonpayable",
      "type": "function"
    },
    {
      "inputs": [
        {
          "internalType": "uint256",
          "name": "_newSwapSlippage",
          "type": "uint256"
        }
      ],
      "name": "updateSwapSlippage",
      "outputs": [],
      "stateMutability": "nonpayable",
      "type": "function"
    },
    {
      "inputs": [],
      "name": "vPool",
      "outputs": [
        {
          "internalType": "contract IVesperPool",
          "name": "",
          "type": "address"
        }
      ],
      "stateMutability": "view",
      "type": "function"
    },
    {
      "inputs": [],
      "name": "vsp",
      "outputs": [
        {
          "internalType": "address",
          "name": "",
          "type": "address"
        }
      ],
      "stateMutability": "view",
      "type": "function"
    },
    {
      "inputs": [
        {
          "internalType": "uint256",
          "name": "_amount",
          "type": "uint256"
        }
      ],
      "name": "withdraw",
      "outputs": [],
      "stateMutability": "nonpayable",
      "type": "function"
    }
  ],
  "transactionHash": "0x0670e8d929225c68ccd57cca8b160d03fc74db94cdd7d2a38804729c57f4e9df",
  "args": [
    "0xd1C117319B3595fbc39b471AB1fd485629eb05F2",
    "0xe382d9f2394A359B01006faa8A1864b8a60d2710",
    "0xAB1c342C7bf5Ec5F02ADEA1c2270670bCa144CbB",
    "0x41c84c0e2EE0b740Cf0d31F63f3B6F627DC6b393",
    "0x8e595470Ed749b85C6F7669de83EAe304C2ec68F",
    "0x0538C8bAc84E95A9dF8aC10Aad17DbE81b9E36ee",
    "0x1b40183EFB4Dd766f11bDa7A7c3AD8982e998421",
    "VesperIronBankXYStrategyETH_DAI"
  ],
  "numDeployments": 1,
  "solcInputHash": "0c127abe11d6bc13fb99083a5f2331b8",
  "bytecode": "0x610140604052600080546001600160a01b03191673c02aaa39b223fe8d0a0e5c4f27ead9083c756cc2178155610e10600455600555612710600655611b58600a55612134600b553480156200005357600080fd5b506040516200616d3803806200616d8339810160408190526200007691620007b6565b8787878787858585846001600160a01b038316620000db5760405162461bcd60e51b815260206004820152601460248201527f706f6f6c2d616464726573732d69732d7a65726f00000000000000000000000060448201526064015b60405180910390fd5b6001600160a01b038216620001285760405162461bcd60e51b8152602060048201526012602482015271736d2d616464726573732d69732d7a65726f60701b6044820152606401620000d2565b600380546001600160a01b0319166001600160a01b0384811691909117909155831660a081905260408051637e062a3560e11b8152905163fc0c546a91600480820192602092909190829003018186803b1580156200018657600080fd5b505afa1580156200019b573d6000803e3d6000fd5b505050506040513d601f19601f82011682018060405250810190620001c191906200090f565b6001600160a01b03908116608052600180546001600160a01b03191691831691909117905562000208620001f23390565b6007620005c560201b62001f8b1790919060201c565b6200024a5760405162461bcd60e51b81526020600482015260116024820152701859190b5ad9595c195c8b59985a5b1959607a1b6044820152606401620000d2565b5050506001600160a01b038316620002a55760405162461bcd60e51b815260206004820152601660248201527f63546f6b656e2d616464726573732d69732d7a65726f000000000000000000006044820152606401620000d2565b6001600160a01b038416620002fd5760405162461bcd60e51b815260206004820152601b60248201527f636f6d7074726f6c6c65722d616464726573732d69732d7a65726f00000000006044820152606401620000d2565b805162000312906009906020840190620006ae565b50600d80546001600160a01b0319166001600160a01b038681169190911790915583811660c052821660e0526200034982620005e5565b600c80546001600160a01b0319166001600160a01b03929092169190911790556040805160028082526060820183526000926020830190803683370190505090508381600081518110620003a157620003a162000936565b60200260200101906001600160a01b031690816001600160a01b0316815250508281600181518110620003d857620003d862000936565b6001600160a01b039283166020918202929092010152600d54604051631853304760e31b815291169063c299823890620004179084906004016200094c565b600060405180830381600087803b1580156200043257600080fd5b505af115801562000447573d6000803e3d6000fd5b505050506040513d6000823e601f3d908101601f191682016040526200047191908101906200099b565b50505050506001600160a01b03851615159250620004d59150505760405162461bcd60e51b815260206004820152601360248201527f7673702d616464726573732d69732d7a65726f000000000000000000000000006044820152606401620000d2565b600c5460408051637e062a3560e11b815290516001600160a01b039283169286169163fc0c546a916004808301926020929190829003018186803b1580156200051d57600080fd5b505afa15801562000532573d6000803e3d6000fd5b505050506040513d601f19601f820116820180604052508101906200055891906200090f565b6001600160a01b031614620005a45760405162461bcd60e51b81526020600482015260116024820152701a5b9d985b1a590b59dc9bddcb5c1bdbdb607a1b6044820152606401620000d2565b506001600160a01b039182166101005216610120525062000a889350505050565b6000620005dc836001600160a01b0384166200065c565b90505b92915050565b6000816001600160a01b0316636f307dc36040518163ffffffff1660e01b815260040160206040518083038186803b1580156200062157600080fd5b505afa15801562000636573d6000803e3d6000fd5b505050506040513d601f19601f82011682018060405250810190620005df91906200090f565b6000818152600183016020526040812054620006a557508154600181810184556000848152602080822090930184905584548482528286019093526040902091909155620005df565b506000620005df565b828054620006bc9062000a4b565b90600052602060002090601f016020900481019282620006e057600085556200072b565b82601f10620006fb57805160ff19168380011785556200072b565b828001600101855582156200072b579182015b828111156200072b5782518255916020019190600101906200070e565b50620007399291506200073d565b5090565b5b808211156200073957600081556001016200073e565b6001600160a01b03811681146200076a57600080fd5b50565b634e487b7160e01b600052604160045260246000fd5b604051601f8201601f191681016001600160401b0381118282101715620007ae57620007ae6200076d565b604052919050565b600080600080600080600080610100898b031215620007d457600080fd5b8851620007e18162000754565b809850506020808a0151620007f68162000754565b60408b0151909850620008098162000754565b60608b01519097506200081c8162000754565b60808b01519096506200082f8162000754565b60a08b0151909550620008428162000754565b60c08b0151909450620008558162000754565b60e08b01519093506001600160401b03808211156200087357600080fd5b818c0191508c601f8301126200088857600080fd5b8151818111156200089d576200089d6200076d565b620008b1601f8201601f1916850162000783565b91508082528d84828501011115620008c857600080fd5b60005b81811015620008e8578381018501518382018601528401620008cb565b81811115620008fa5760008583850101525b50508093505050509295985092959890939650565b6000602082840312156200092257600080fd5b81516200092f8162000754565b9392505050565b634e487b7160e01b600052603260045260246000fd5b6020808252825182820181905260009190848201906040850190845b818110156200098f5783516001600160a01b03168352928401929184019160010162000968565b50909695505050505050565b60006020808385031215620009af57600080fd5b82516001600160401b0380821115620009c757600080fd5b818501915085601f830112620009dc57600080fd5b815181811115620009f157620009f16200076d565b8060051b915062000a0484830162000783565b818152918301840191848101908884111562000a1f57600080fd5b938501935b8385101562000a3f5784518252938501939085019062000a24565b98975050505050505050565b600181811c9082168062000a6057607f821691505b6020821081141562000a8257634e487b7160e01b600052602260045260246000fd5b50919050565b60805160a05160c05160e051610100516101205161546c62000d01600039600081816102c801528181611a09015281816135cb0152818161365e0152614c5b0152600081816103a1015281816108120152818161189201528181611fc901528181612065015281816128d5015281816134b40152818161493601528181614a2201528181614ac00152614be701526000818161037a015281816110a701528181611d2c015281816123f601528181612ad301528181612d16015281816130a601528181613aea01528181613de901528181614021015281816142010152614799015260008181610506015281816121c301528181612561015281816129d301528181612bc501528181612c6b0152818161334a01528181613ba301528181613c3301528181613d4901528181613f44015281816141ca015261486f0152600081816102830152818161057a015281816106a5015281816106f50152818161084e01528181610a0101528181610bb501528181610c3801528181610da301528181611280015281816113c10152818161145e015281816116bb01528181611dc8015281816121970152818161227701528181612317015261417601526000818161044b0152818161117b0152818161122a01528181611251015281816112a2015281816115ee0152818161169201528181611a2b01528181611b3a015281816121fe015281816123b8015281816124d6015281816126870152818161274b0152818161281101528181612dd601528181612e9101528181613068015281816132bf01528181613418015281816136b80152818161376101528181613a4501528181614154015281816141a8015261434c015261546c6000f3fe608060405234801561001057600080fd5b50600436106102485760003560e01c806399b71d5c1161013b578063d4c3eea0116100b8578063efead58c1161007c578063efead58c14610501578063fa3ae6dc14610528578063fb7ee10214610530578063fc0c546a14610543578063ffa1ad741461055457600080fd5b8063d4c3eea0146104c2578063e00af4a7146104ca578063e260d747146104dd578063e645c202146104e6578063ec78e832146104ee57600080fd5b8063c415b95c116100ff578063c415b95c1461046d578063c7ad274814610480578063cd2d7ebe14610493578063ce5494bb1461049c578063d2c35ce8146104af57600080fd5b806399b71d5c1461040e578063a3f4df7e14610416578063a923b2a61461042b578063aa1018861461043e578063b2016bd41461044657600080fd5b8063456dc17a116101c957806367f5e4b81161018d57806367f5e4b8146103c3578063709d039d146103d65780637d7c2a1c146103e957806392986024146103f1578063951dc22c146103f957600080fd5b8063456dc17a1461033c5780634c36fad71461034f5780635fe3b56714610362578063620a96d5146103755780636719578c1461039c57600080fd5b806329ba73ed1161021057806329ba73ed146102c35780632e1a7d4d146102ea5780634032b72b146102fd57806342189c8f14610310578063440d72481461031957600080fd5b80630181686c1461024d57806314ae9f2e1461026957806316f0115b1461027e5780631aedeabe146102b2578063243cd14e146102bb575b600080fd5b610256600b5481565b6040519081526020015b60405180910390f35b61027c610277366004614e18565b610578565b005b6102a57f000000000000000000000000000000000000000000000000000000000000000081565b6040516102609190614e35565b61025660065481565b610256610693565b6102a57f000000000000000000000000000000000000000000000000000000000000000081565b61027c6102f8366004614e49565b6106a2565b61027c61030b366004614e18565b6106f3565b61025660045481565b61032c610327366004614e18565b6107ff565b6040519015158152602001610260565b600c546102a5906001600160a01b031681565b61027c61035d366004614e18565b61084c565b600d546102a5906001600160a01b031681565b6102a57f000000000000000000000000000000000000000000000000000000000000000081565b6102a57f000000000000000000000000000000000000000000000000000000000000000081565b61027c6103d1366004614e49565b6109ff565b6003546102a5906001600160a01b031681565b61027c610b4b565b61032c610c1e565b610401610ccb565b6040516102609190614ea6565b61027c610cd7565b61041e610d13565b6040516102609190614ee5565b61027c610439366004614f18565b610da1565b61027c610fd6565b6102a57f000000000000000000000000000000000000000000000000000000000000000081565b6002546102a5906001600160a01b031681565b61027c61048e366004614e49565b610ffb565b61025660055481565b61027c6104aa366004614e18565b6113be565b61027c6104bd366004614e18565b6116b9565b610256611882565b61027c6104d8366004614e18565b611ac3565b610256600a5481565b610256611ce2565b6001546102a5906001600160a01b031681565b6102a57f000000000000000000000000000000000000000000000000000000000000000081565b61027c611cec565b61027c61053e366004614f18565b611dc6565b6001546001600160a01b03166102a5565b61041e604051806040016040528060058152602001640342e302e360dc1b81525081565b7f00000000000000000000000000000000000000000000000000000000000000006001600160a01b0316630c340a246040518163ffffffff1660e01b815260040160206040518083038186803b1580156105d157600080fd5b505afa1580156105e5573d6000803e3d6000fd5b505050506040513d601f19601f820116820180604052508101906106099190614f3a565b6001600160a01b0316336001600160a01b0316146106425760405162461bcd60e51b815260040161063990614f57565b60405180910390fd5b61064d600782611fa7565b6106905760405162461bcd60e51b81526020600482015260146024820152731c995b5bdd994b5ad9595c195c8b59985a5b195960621b6044820152606401610639565b50565b600061069d611fbc565b905090565b337f00000000000000000000000000000000000000000000000000000000000000006001600160a01b0316146106ea5760405162461bcd60e51b815260040161063990614f8e565b61069081612192565b7f00000000000000000000000000000000000000000000000000000000000000006001600160a01b0316630c340a246040518163ffffffff1660e01b815260040160206040518083038186803b15801561074c57600080fd5b505afa158015610760573d6000803e3d6000fd5b505050506040513d601f19601f820116820180604052508101906107849190614f3a565b6001600160a01b0316336001600160a01b0316146107b45760405162461bcd60e51b815260040161063990614f57565b6107bf600782611f8b565b6106905760405162461bcd60e51b81526020600482015260116024820152701859190b5ad9595c195c8b59985a5b1959607a1b6044820152606401610639565b600061080a826121bf565b8061084657507f00000000000000000000000000000000000000000000000000000000000000006001600160a01b0316826001600160a01b0316145b92915050565b7f00000000000000000000000000000000000000000000000000000000000000006001600160a01b0316630c340a246040518163ffffffff1660e01b815260040160206040518083038186803b1580156108a557600080fd5b505afa1580156108b9573d6000803e3d6000fd5b505050506040513d601f19601f820116820180604052508101906108dd9190614f3a565b6001600160a01b0316336001600160a01b03161461090d5760405162461bcd60e51b815260040161063990614f57565b6001600160a01b0381166109585760405162461bcd60e51b8152602060048201526012602482015271736d2d616464726573732d69732d7a65726f60701b6044820152606401610639565b6003546001600160a01b03828116911614156109a35760405162461bcd60e51b815260206004820152600a602482015269736d2d69732d73616d6560b01b6044820152606401610639565b6003546040516001600160a01b038084169216907f2d19927e7cac08ceb98b38898a4fdff6da6a27295b9a2d62fe250408ebe044e190600090a3600380546001600160a01b0319166001600160a01b0392909216919091179055565b7f00000000000000000000000000000000000000000000000000000000000000006001600160a01b0316630c340a246040518163ffffffff1660e01b815260040160206040518083038186803b158015610a5857600080fd5b505afa158015610a6c573d6000803e3d6000fd5b505050506040513d601f19601f82011682018060405250810190610a909190614f3a565b6001600160a01b0316336001600160a01b031614610ac05760405162461bcd60e51b815260040161063990614f57565b612710811115610b0b5760405162461bcd60e51b8152602060048201526016602482015275696e76616c69642d736c6970706167652d76616c756560501b6044820152606401610639565b60065460408051918252602082018390527ef1c5db862c7598b3b6765552ca951f498611e06412c2d57f8d0b58f82e7f82910160405180910390a1600655565b610b58335b60079061224d565b610b745760405162461bcd60e51b815260040161063990614fc1565b6000806000610b8161226f565b6040516302df682360e11b815260048101849052602481018390526044810182905292955090935091506001600160a01b037f000000000000000000000000000000000000000000000000000000000000000016906305bed04690606401600060405180830381600087803b158015610bf957600080fd5b505af1158015610c0d573d6000803e3d6000fd5b50505050610c19612731565b505050565b604051639f2b283360e01b81526000906001600160a01b037f00000000000000000000000000000000000000000000000000000000000000001690639f2b283390610c6d903090600401614e35565b60206040518083038186803b158015610c8557600080fd5b505afa158015610c99573d6000803e3d6000fd5b505050506040513d601f19601f82011682018060405250810190610cbd9190614ff1565b610cc5611882565b10905090565b606061069d60076128ad565b610ce033610b50565b610cfc5760405162461bcd60e51b815260040161063990614fc1565b610d0660006128ba565b610d116000196128ba565b565b60098054610d209061500a565b80601f0160208091040260200160405190810160405280929190818152602001828054610d4c9061500a565b8015610d995780601f10610d6e57610100808354040283529160200191610d99565b820191906000526020600020905b815481529060010190602001808311610d7c57829003601f168201915b505050505081565b7f00000000000000000000000000000000000000000000000000000000000000006001600160a01b0316630c340a246040518163ffffffff1660e01b815260040160206040518083038186803b158015610dfa57600080fd5b505afa158015610e0e573d6000803e3d6000fd5b505050506040513d601f19601f82011682018060405250810190610e329190614f3a565b6001600160a01b0316336001600160a01b031614610e625760405162461bcd60e51b815260040161063990614f57565b600360009054906101000a90046001600160a01b03166001600160a01b031663c2fba6676040518163ffffffff1660e01b815260040160206040518083038186803b158015610eb057600080fd5b505afa158015610ec4573d6000803e3d6000fd5b505050506040513d601f19601f82011682018060405250810190610ee89190614ff1565b8110610f2d5760405162461bcd60e51b81526020600482015260146024820152730d2dcecc2d8d2c85ae4deeae8cae45ad2dcc8caf60631b6044820152606401610639565b81610f385760045491505b603b8211610f805760405162461bcd60e51b81526020600482015260156024820152741a5b9d985b1a590b5bdc9858db194b5c195c9a5bd9605a1b6044820152606401610639565b6004546005546040805192835260208301859052820152606081018290527f83bc5ab8030537fcf1d29c2334f6d22c26c82dcbe5ff03923d2cff5c692c0a7f9060800160405180910390a1600491909155600555565b610fdf33610b50565b610d115760405162461bcd60e51b815260040161063990614fc1565b61100433610b50565b6110205760405162461bcd60e51b815260040161063990614fc1565b600c546040516370a0823160e01b81526000916001600160a01b0316906370a0823190611051903090600401614e35565b60206040518083038186803b15801561106957600080fd5b505afa15801561107d573d6000803e3d6000fd5b505050506040513d601f19601f820116820180604052508101906110a19190614ff1565b905060007f00000000000000000000000000000000000000000000000000000000000000006001600160a01b03166395dd9193306040518263ffffffff1660e01b81526004016110f19190614e35565b60206040518083038186803b15801561110957600080fd5b505afa15801561111d573d6000803e3d6000fd5b505050506040513d601f19601f820116820180604052508101906111419190614ff1565b905080821115610c19576000611157828461505b565b90506000808511801561116957508482115b6111735781611175565b845b905060007f00000000000000000000000000000000000000000000000000000000000000006001600160a01b03166370a08231306040518263ffffffff1660e01b81526004016111c59190614e35565b60206040518083038186803b1580156111dd57600080fd5b505afa1580156111f1573d6000803e3d6000fd5b505050506040513d601f19601f820116820180604052508101906112159190614ff1565b600c5490915061124f906001600160a01b03167f0000000000000000000000000000000000000000000000000000000000000000846128fa565b7f00000000000000000000000000000000000000000000000000000000000000006001600160a01b031663a9059cbb7f0000000000000000000000000000000000000000000000000000000000000000837f00000000000000000000000000000000000000000000000000000000000000006001600160a01b03166370a08231306040518263ffffffff1660e01b81526004016112ec9190614e35565b60206040518083038186803b15801561130457600080fd5b505afa158015611318573d6000803e3d6000fd5b505050506040513d601f19601f8201168201806040525081019061133c9190614ff1565b611346919061505b565b6040518363ffffffff1660e01b8152600401611363929190615072565b602060405180830381600087803b15801561137d57600080fd5b505af1158015611391573d6000803e3d6000fd5b505050506040513d601f19601f820116820180604052508101906113b591906150a0565b50505050505050565b337f00000000000000000000000000000000000000000000000000000000000000006001600160a01b0316146114065760405162461bcd60e51b815260040161063990614f8e565b6001600160a01b03811661145c5760405162461bcd60e51b815260206004820152601c60248201527f6e65772d73747261746567792d616464726573732d69732d7a65726f000000006044820152606401610639565b7f00000000000000000000000000000000000000000000000000000000000000006001600160a01b0316816001600160a01b03166316f0115b6040518163ffffffff1660e01b815260040160206040518083038186803b1580156114bf57600080fd5b505afa1580156114d3573d6000803e3d6000fd5b505050506040513d601f19601f820116820180604052508101906114f79190614f3a565b6001600160a01b0316146115465760405162461bcd60e51b81526020600482015260166024820152756e6f742d76616c69642d6e65772d737472617465677960501b6044820152606401610639565b61154f816129d1565b6001546040516370a0823160e01b81526115e89183916001600160a01b03909116906370a0823190611585903090600401614e35565b60206040518083038186803b15801561159d57600080fd5b505afa1580156115b1573d6000803e3d6000fd5b505050506040513d601f19601f820116820180604052508101906115d59190614ff1565b6001546001600160a01b03169190612b61565b610690817f00000000000000000000000000000000000000000000000000000000000000006001600160a01b03166370a08231306040518263ffffffff1660e01b81526004016116389190614e35565b60206040518083038186803b15801561165057600080fd5b505afa158015611664573d6000803e3d6000fd5b505050506040513d601f19601f820116820180604052508101906116889190614ff1565b6001600160a01b037f0000000000000000000000000000000000000000000000000000000000000000169190612b61565b7f00000000000000000000000000000000000000000000000000000000000000006001600160a01b0316630c340a246040518163ffffffff1660e01b815260040160206040518083038186803b15801561171257600080fd5b505afa158015611726573d6000803e3d6000fd5b505050506040513d601f19601f8201168201806040525081019061174a9190614f3a565b6001600160a01b0316336001600160a01b03161461177a5760405162461bcd60e51b815260040161063990614f57565b6001600160a01b0381166117d05760405162461bcd60e51b815260206004820152601d60248201527f6665652d636f6c6c6563746f722d616464726573732d69732d7a65726f0000006044820152606401610639565b6002546001600160a01b03828116911614156118265760405162461bcd60e51b81526020600482015260156024820152746665652d636f6c6c6563746f722d69732d73616d6560581b6044820152606401610639565b6002546040516001600160a01b038084169216907f0f06062680f9bd68e786e9980d9bb03d73d5620fc3b345e417b6eacb310b970690600090a3600280546001600160a01b0319166001600160a01b0392909216919091179055565b600061188c612bb7565b905060007f00000000000000000000000000000000000000000000000000000000000000006001600160a01b0316638bc6beb26040518163ffffffff1660e01b815260040160206040518083038186803b1580156118e957600080fd5b505afa1580156118fd573d6000803e3d6000fd5b505050506040513d601f19601f820116820180604052508101906119219190614f3a565b90506001600160a01b03811615611abf5760405163402914f560e01b81526000906001600160a01b0383169063402914f590611961903090600401614e35565b60006040518083038186803b15801561197957600080fd5b505afa15801561198d573d6000803e3d6000fd5b505050506040513d6000823e601f3d908101601f191682016040526119b591908101906151f5565b9150506000816000815181106119cd576119cd615259565b602002602001015190506000811115611abc57600354604051631d1f307960e31b81526000916001600160a01b03169063e8f983c890611a55907f0000000000000000000000000000000000000000000000000000000000000000907f000000000000000000000000000000000000000000000000000000000000000090879060040161526f565b60006040518083038186803b158015611a6d57600080fd5b505afa158015611a81573d6000803e3d6000fd5b505050506040513d6000823e601f3d908101601f19168201604052611aa99190810190615293565b509150611ab8905081866152e3565b9450505b50505b5090565b611acc33610b50565b611ae85760405162461bcd60e51b815260040161063990614fc1565b6002546001600160a01b0316611b385760405162461bcd60e51b81526020600482015260156024820152741999594b58dbdb1b1958dd1bdc8b5b9bdd0b5cd95d605a1b6044820152606401610639565b7f00000000000000000000000000000000000000000000000000000000000000006001600160a01b0316816001600160a01b03161415611bba5760405162461bcd60e51b815260206004820152601f60248201527f6e6f742d616c6c6f7765642d746f2d73776565702d636f6c6c61746572616c006044820152606401610639565b611bc3816107ff565b15611c075760405162461bcd60e51b815260206004820152601460248201527306e6f742d616c6c6f7765642d746f2d73776565760641b6044820152606401610639565b6001600160a01b03811673eeeeeeeeeeeeeeeeeeeeeeeeeeeeeeeeeeeeeeee1415611c4257600254610690906001600160a01b031647612f2a565b6040516370a0823160e01b81526000906001600160a01b038316906370a0823190611c71903090600401614e35565b60206040518083038186803b158015611c8957600080fd5b505afa158015611c9d573d6000803e3d6000fd5b505050506040513d601f19601f82011682018060405250810190611cc19190614ff1565b600254909150611cde906001600160a01b03848116911683612b61565b5050565b600061069d611882565b611cf533610b50565b611d115760405162461bcd60e51b815260040161063990614fc1565b6040516305eff7ef60e21b8152611dba906001600160a01b037f000000000000000000000000000000000000000000000000000000000000000016906317bfdfbc90611d61903090600401614e35565b602060405180830381600087803b158015611d7b57600080fd5b505af1158015611d8f573d6000803e3d6000fd5b505050506040513d601f19601f82011682018060405250810190611db39190614ff1565b6001613043565b6000600a819055600b55565b7f00000000000000000000000000000000000000000000000000000000000000006001600160a01b0316630c340a246040518163ffffffff1660e01b815260040160206040518083038186803b158015611e1f57600080fd5b505afa158015611e33573d6000803e3d6000fd5b505050506040513d601f19601f82011682018060405250810190611e579190614f3a565b6001600160a01b0316336001600160a01b031614611e875760405162461bcd60e51b815260040161063990614f57565b6127108110611ed35760405162461bcd60e51b81526020600482015260186024820152771a5b9d985b1a590b5b585e0b589bdc9c9bddcb5b1a5b5a5d60421b6044820152606401610639565b80158015611edf575081155b80611ee957508181115b611f355760405162461bcd60e51b815260206004820152601d60248201527f6d61782d73686f756c642d62652d6869676865722d7468616e2d6d696e0000006044820152606401610639565b600a54600b546040805192835260208301859052820152606081018290527fedd77444afdf63401315e81ffe86d08f7865796e8ad2e11acf1d56a1393f07d59060800160405180910390a1600a91909155600b55565b6000611fa0836001600160a01b038416613147565b9392505050565b6000611fa0836001600160a01b038416613196565b6000670de0b6b3a76400007f00000000000000000000000000000000000000000000000000000000000000006001600160a01b03166370a08231306040518263ffffffff1660e01b81526004016120139190614e35565b60206040518083038186803b15801561202b57600080fd5b505afa15801561203f573d6000803e3d6000fd5b505050506040513d601f19601f820116820180604052508101906120639190614ff1565b7f00000000000000000000000000000000000000000000000000000000000000006001600160a01b03166399530b066040518163ffffffff1660e01b815260040160206040518083038186803b1580156120bc57600080fd5b505afa1580156120d0573d6000803e3d6000fd5b505050506040513d601f19601f820116820180604052508101906120f49190614ff1565b6120fe91906152fb565b612108919061531a565b600c546040516370a0823160e01b81526001600160a01b03909116906370a0823190612138903090600401614e35565b60206040518083038186803b15801561215057600080fd5b505afa158015612164573d6000803e3d6000fd5b505050506040513d601f19601f820116820180604052508101906121889190614ff1565b61069d91906152e3565b6106907f000000000000000000000000000000000000000000000000000000000000000061168883613289565b60007f00000000000000000000000000000000000000000000000000000000000000006001600160a01b0316826001600160a01b0316148061223257507f00000000000000000000000000000000000000000000000000000000000000006001600160a01b0316826001600160a01b0316145b80610846575050600c546001600160a01b0390811691161490565b6001600160a01b03811660009081526001830160205260408120541515611fa0565b6000806000807f00000000000000000000000000000000000000000000000000000000000000006001600160a01b031663d53ddc26306040518263ffffffff1660e01b81526004016122c19190614e35565b60206040518083038186803b1580156122d957600080fd5b505afa1580156122ed573d6000803e3d6000fd5b505050506040513d601f19601f820116820180604052508101906123119190614ff1565b905060007f00000000000000000000000000000000000000000000000000000000000000006001600160a01b0316639f2b2833306040518263ffffffff1660e01b81526004016123619190614e35565b60206040518083038186803b15801561237957600080fd5b505afa15801561238d573d6000803e3d6000fd5b505050506040513d601f19601f820116820180604052508101906123b19190614ff1565b90506123dc7f00000000000000000000000000000000000000000000000000000000000000006134b0565b6040516305eff7ef60e21b81526000906001600160a01b037f000000000000000000000000000000000000000000000000000000000000000016906317bfdfbc9061242b903090600401614e35565b602060405180830381600087803b15801561244557600080fd5b505af1158015612459573d6000803e3d6000fd5b505050506040513d601f19601f8201168201806040525081019061247d9190614ff1565b90506000612489611fbc565b9050808211156124aa576124a56124a0828461505b565b613686565b6124bc565b6124bc6124b7838361505b565b61390a565b6040516370a0823160e01b81526000906001600160a01b037f000000000000000000000000000000000000000000000000000000000000000016906370a082319061250b903090600401614e35565b60206040518083038186803b15801561252357600080fd5b505afa158015612537573d6000803e3d6000fd5b505050506040513d601f19601f8201168201806040525081019061255b9190614ff1565b905060007f00000000000000000000000000000000000000000000000000000000000000006001600160a01b0316633af9e669306040518263ffffffff1660e01b81526004016125ab9190614e35565b602060405180830381600087803b1580156125c557600080fd5b505af11580156125d9573d6000803e3d6000fd5b505050506040513d601f19601f820116820180604052508101906125fd9190614ff1565b9050600061260b83836152e3565b9050858111156126265761261f868261505b565b9950612633565b612630818761505b565b98505b600061263f888c6152e3565b90508084101561271157600061265e612658868461505b565b85613a6c565b9050801561270f5761266f81613289565b506040516370a0823160e01b81526001600160a01b037f000000000000000000000000000000000000000000000000000000000000000016906370a08231906126bc903090600401614e35565b60206040518083038186803b1580156126d457600080fd5b505afa1580156126e8573d6000803e3d6000fd5b505050506040513d601f19601f8201168201806040525081019061270c9190614ff1565b94505b505b8715612724576127218489613a6c565b98505b5050505050505050909192565b6040516370a0823160e01b81526000906001600160a01b037f000000000000000000000000000000000000000000000000000000000000000016906370a0823190612780903090600401614e35565b60206040518083038186803b15801561279857600080fd5b505afa1580156127ac573d6000803e3d6000fd5b505050506040513d601f19601f820116820180604052508101906127d09190614ff1565b90506000806127e0836000613a82565b9092509050801561289b576127f6816000613043565b6040516370a0823160e01b8152610c19906001600160a01b037f000000000000000000000000000000000000000000000000000000000000000016906370a0823190612846903090600401614e35565b60206040518083038186803b15801561285e57600080fd5b505afa158015612872573d6000803e3d6000fd5b505050506040513d601f19601f820116820180604052508101906128969190614ff1565b613f28565b6128a483613f28565b610c1982614005565b60606000611fa0836140eb565b6128c381614147565b600c54610690906001600160a01b03167f00000000000000000000000000000000000000000000000000000000000000008361439d565b6000600654612710141561290f5760016129bd565b6040516358fac00360e01b81526001600160a01b0380861660048301526024820184905284166044820152610e1060648201526129bd90730f1f5a87f99f0918e6c81f16e59f3518698221ff906358fac0039060840160206040518083038186803b15801561297d57600080fd5b505afa158015612991573d6000803e3d6000fd5b505050506040513d601f19601f820116820180604052508101906129b59190614ff1565b6006546144b0565b90506129cb848484846144d3565b50505050565b7f00000000000000000000000000000000000000000000000000000000000000006001600160a01b0316816001600160a01b031663fc0c546a6040518163ffffffff1660e01b815260040160206040518083038186803b158015612a3457600080fd5b505afa158015612a48573d6000803e3d6000fd5b505050506040513d601f19601f82011682018060405250810190612a6c9190614f3a565b6001600160a01b031614612ab85760405162461bcd60e51b81526020600482015260136024820152723bb937b73396b932b1b2b4b83a16ba37b5b2b760691b6044820152606401610639565b6040516305eff7ef60e21b8152610690906001600160a01b037f000000000000000000000000000000000000000000000000000000000000000016906317bfdfbc90612b08903090600401614e35565b602060405180830381600087803b158015612b2257600080fd5b505af1158015612b36573d6000803e3d6000fd5b505050506040513d601f19601f82011682018060405250810190612b5a9190614ff1565b6000613043565b610c198363a9059cbb60e01b8484604051602401612b80929190615072565b60408051601f198184030181529190526020810180516001600160e01b03166001600160e01b0319909316929092179091526146a8565b600080670de0b6b3a76400007f00000000000000000000000000000000000000000000000000000000000000006001600160a01b031663182df0f56040518163ffffffff1660e01b815260040160206040518083038186803b158015612c1c57600080fd5b505afa158015612c30573d6000803e3d6000fd5b505050506040513d601f19601f82011682018060405250810190612c549190614ff1565b6040516370a0823160e01b81526001600160a01b037f000000000000000000000000000000000000000000000000000000000000000016906370a0823190612ca0903090600401614e35565b60206040518083038186803b158015612cb857600080fd5b505afa158015612ccc573d6000803e3d6000fd5b505050506040513d601f19601f82011682018060405250810190612cf09190614ff1565b612cfa91906152fb565b612d04919061531a565b90506000612d10611fbc565b905060007f00000000000000000000000000000000000000000000000000000000000000006001600160a01b03166395dd9193306040518263ffffffff1660e01b8152600401612d609190614e35565b60206040518083038186803b158015612d7857600080fd5b505afa158015612d8c573d6000803e3d6000fd5b505050506040513d601f19601f82011682018060405250810190612db09190614ff1565b9050600082821115612e7857600354600c546001600160a01b039182169163f4de46f6917f00000000000000000000000000000000000000000000000000000000000000009116612e01878761505b565b6040518463ffffffff1660e01b8152600401612e1f9392919061526f565b60006040518083038186803b158015612e3757600080fd5b505afa158015612e4b573d6000803e3d6000fd5b505050506040513d6000823e601f3d908101601f19168201604052612e739190810190615293565b509150505b6040516370a0823160e01b815281906001600160a01b037f000000000000000000000000000000000000000000000000000000000000000016906370a0823190612ec6903090600401614e35565b60206040518083038186803b158015612ede57600080fd5b505afa158015612ef2573d6000803e3d6000fd5b505050506040513d601f19601f82011682018060405250810190612f169190614ff1565b612f2090866152e3565b611ab8919061505b565b80471015612f7a5760405162461bcd60e51b815260206004820152601d60248201527f416464726573733a20696e73756666696369656e742062616c616e63650000006044820152606401610639565b6000826001600160a01b03168260405160006040518083038185875af1925050503d8060008114612fc7576040519150601f19603f3d011682016040523d82523d6000602084013e612fcc565b606091505b5050905080610c195760405162461bcd60e51b815260206004820152603a60248201527f416464726573733a20756e61626c6520746f2073656e642076616c75652c207260448201527f6563697069656e74206d617920686176652072657665727465640000000000006064820152608401610639565b8115611cde576000613053611fbc565b90508083111561313e57811561308c5761308c7f00000000000000000000000000000000000000000000000000000000000000006134b0565b6040516305eff7ef60e21b81526000906001600160a01b037f000000000000000000000000000000000000000000000000000000000000000016906317bfdfbc906130db903090600401614e35565b602060405180830381600087803b1580156130f557600080fd5b505af1158015613109573d6000803e3d6000fd5b505050506040513d601f19601f8201168201806040525081019061312d9190614ff1565b905061313c6124a0838361505b565b505b610c198361477a565b600081815260018301602052604081205461318e57508154600181810184556000848152602080822090930184905584548482528286019093526040902091909155610846565b506000610846565b6000818152600183016020526040812054801561327f5760006131ba60018361505b565b85549091506000906131ce9060019061505b565b90508181146132335760008660000182815481106131ee576131ee615259565b906000526020600020015490508087600001848154811061321157613211615259565b6000918252602080832090910192909255918252600188019052604090208390555b85548690806132445761324461533c565b600190038181906000526020600020016000905590558560010160008681526020019081526020016000206000905560019350505050610846565b6000915050610846565b600080613297600084613a82565b9150506132a5816001613043565b6040516370a0823160e01b81526000906001600160a01b037f000000000000000000000000000000000000000000000000000000000000000016906370a08231906132f4903090600401614e35565b60206040518083038186803b15801561330c57600080fd5b505afa158015613320573d6000803e3d6000fd5b505050506040513d601f19601f820116820180604052508101906133449190614ff1565b905060007f00000000000000000000000000000000000000000000000000000000000000006001600160a01b0316633af9e669306040518263ffffffff1660e01b81526004016133949190614e35565b602060405180830381600087803b1580156133ae57600080fd5b505af11580156133c2573d6000803e3d6000fd5b505050506040513d601f19601f820116820180604052508101906133e69190614ff1565b90506133ff8582116133f85781614859565b855b614859565b6040516370a0823160e01b815282906001600160a01b037f000000000000000000000000000000000000000000000000000000000000000016906370a082319061344d903090600401614e35565b60206040518083038186803b15801561346557600080fd5b505afa158015613479573d6000803e3d6000fd5b505050506040513d601f19601f8201168201806040525081019061349d9190614ff1565b6134a7919061505b565b95945050505050565b60007f00000000000000000000000000000000000000000000000000000000000000006001600160a01b0316638bc6beb26040518163ffffffff1660e01b815260040160206040518083038186803b15801561350b57600080fd5b505afa15801561351f573d6000803e3d6000fd5b505050506040513d601f19601f820116820180604052508101906135439190614f3a565b90506001600160a01b03811615611cde5760405163d279c19160e01b81526001600160a01b0382169063d279c19190613580903090600401614e35565b600060405180830381600087803b15801561359a57600080fd5b505af11580156135ae573d6000803e3d6000fd5b50506040516370a0823160e01b8152600092506001600160a01b037f00000000000000000000000000000000000000000000000000000000000000001691506370a0823190613601903090600401614e35565b60206040518083038186803b15801561361957600080fd5b505afa15801561362d573d6000803e3d6000fd5b505050506040513d601f19601f820116820180604052508101906136519190614ff1565b90508015610c1957610c197f0000000000000000000000000000000000000000000000000000000000000000848360016144d3565b600354600c54604051637a6f237b60e11b8152600092839283926001600160a01b039283169263f4de46f6926136e6927f00000000000000000000000000000000000000000000000000000000000000009290911690899060040161526f565b60006040518083038186803b1580156136fe57600080fd5b505afa158015613712573d6000803e3d6000fd5b505050506040513d6000823e601f3d908101601f1916820160405261373a9190810190615293565b9194509250905081156129cb576040516370a0823160e01b81526000906001600160a01b037f000000000000000000000000000000000000000000000000000000000000000016906370a0823190613796903090600401614e35565b60206040518083038186803b1580156137ae57600080fd5b505afa1580156137c2573d6000803e3d6000fd5b505050506040513d601f19601f820116820180604052508101906137e69190614ff1565b9050808311156137fd576137fd6133fa828561505b565b600354604051636e74a6f760e01b8152600481018490526001600160a01b0390911690636e74a6f79060240160206040518083038186803b15801561384157600080fd5b505afa158015613855573d6000803e3d6000fd5b505050506040513d601f19601f820116820180604052508101906138799190614f3a565b6001600160a01b0316638803dbee86858730426040518663ffffffff1660e01b81526004016138ac959493929190615352565b600060405180830381600087803b1580156138c657600080fd5b505af11580156138da573d6000803e3d6000fd5b505050506040513d6000823e601f3d908101601f19168201604052613902919081019061538e565b505050505050565b801561069057600c546040516370a0823160e01b81526000916001600160a01b0316906370a0823190613941903090600401614e35565b60206040518083038186803b15801561395957600080fd5b505afa15801561396d573d6000803e3d6000fd5b505050506040513d601f19601f820116820180604052508101906139919190614ff1565b905061399c82614932565b600c546040516370a0823160e01b815260009183916001600160a01b03909116906370a08231906139d1903090600401614e35565b60206040518083038186803b1580156139e957600080fd5b505afa1580156139fd573d6000803e3d6000fd5b505050506040513d601f19601f82011682018060405250810190613a219190614ff1565b613a2b919061505b565b90508015610c1957600c54610c19906001600160a01b03167f00000000000000000000000000000000000000000000000000000000000000008360016144d3565b6000818310613a7b5781611fa0565b5090919050565b600080831580613a90575082155b613ad05760405162461bcd60e51b8152602060048201526011602482015270616c6c2d696e7075742d67742d7a65726f60781b6044820152606401610639565b6040516305eff7ef60e21b81526000906001600160a01b037f000000000000000000000000000000000000000000000000000000000000000016906317bfdfbc90613b1f903090600401614e35565b602060405180830381600087803b158015613b3957600080fd5b505af1158015613b4d573d6000803e3d6000fd5b505050506040513d601f19601f82011682018060405250810190613b719190614ff1565b9050600b5460001415613b8957600092509050613f21565b604051633af9e66960e01b81526000906001600160a01b037f00000000000000000000000000000000000000000000000000000000000000001690633af9e66990613bd8903090600401614e35565b602060405180830381600087803b158015613bf257600080fd5b505af1158015613c06573d6000803e3d6000fd5b505050506040513d601f19601f82011682018060405250810190613c2a9190614ff1565b90506000613c577f0000000000000000000000000000000000000000000000000000000000000000614b48565b90506000808811613c7f57868311613c70576000613c89565b613c7a878461505b565b613c89565b613c8988846152e3565b90506000670de0b6b3a7640000613ca084846152fb565b613caa919061531a565b90506000600d60009054906101000a90046001600160a01b03166001600160a01b0316637dc0d1d06040518163ffffffff1660e01b815260040160206040518083038186803b158015613cfc57600080fd5b505afa158015613d10573d6000803e3d6000fd5b505050506040513d601f19601f82011682018060405250810190613d349190614f3a565b90506000816001600160a01b031663fc57d4df7f00000000000000000000000000000000000000000000000000000000000000006040518263ffffffff1660e01b8152600401613d849190614e35565b60206040518083038186803b158015613d9c57600080fd5b505afa158015613db0573d6000803e3d6000fd5b505050506040513d601f19601f82011682018060405250810190613dd49190614ff1565b90506000826001600160a01b031663fc57d4df7f00000000000000000000000000000000000000000000000000000000000000006040518263ffffffff1660e01b8152600401613e249190614e35565b60206040518083038186803b158015613e3c57600080fd5b505afa158015613e50573d6000803e3d6000fd5b505050506040513d601f19601f82011682018060405250810190613e749190614ff1565b9050600081613e8384876152fb565b613e8d919061531a565b905080613ea9576000899a509a50505050505050505050613f21565b6000612710600b5483613ebc91906152fb565b613ec6919061531a565b90506000612710600a5484613edb91906152fb565b613ee5919061531a565b9050818b1115613f0057613ef9818c61505b565b9b50613f15565b8a811115613f1557613f128b8261505b565b9c505b50505050505050505050505b9250929050565b80156106905760405163140e25ad60e31b8152600481018290527f00000000000000000000000000000000000000000000000000000000000000006001600160a01b03169063a0712d6890602401602060405180830381600087803b158015613f9057600080fd5b505af1158015613fa4573d6000803e3d6000fd5b505050506040513d601f19601f82011682018060405250810190613fc89190614ff1565b156106905760405162461bcd60e51b815260206004820152600d60248201526c1cdd5c1c1b1e4b59985a5b1959609a1b6044820152606401610639565b80156106905760405163317afabb60e21b8152600481018290527f00000000000000000000000000000000000000000000000000000000000000006001600160a01b03169063c5ebeaec90602401602060405180830381600087803b15801561406d57600080fd5b505af1158015614081573d6000803e3d6000fd5b505050506040513d601f19601f820116820180604052508101906140a59190614ff1565b156140e25760405162461bcd60e51b815260206004820152600d60248201526c189bdc9c9bddcb59985a5b1959609a1b6044820152606401610639565b61069081614bd1565b60608160000180548060200260200160405190810160405280929190818152602001828054801561413b57602002820191906000526020600020905b815481526020019060010190808311614127575b50505050509050919050565b61419b6001600160a01b037f0000000000000000000000000000000000000000000000000000000000000000167f00000000000000000000000000000000000000000000000000000000000000008361439d565b6141ef6001600160a01b037f0000000000000000000000000000000000000000000000000000000000000000167f00000000000000000000000000000000000000000000000000000000000000008361439d565b600c54614226906001600160a01b03167f00000000000000000000000000000000000000000000000000000000000000008361439d565b60005b600360009054906101000a90046001600160a01b03166001600160a01b031663c2fba6676040518163ffffffff1660e01b815260040160206040518083038186803b15801561427757600080fd5b505afa15801561428b573d6000803e3d6000fd5b505050506040513d601f19601f820116820180604052508101906142af9190614ff1565b811015611cde57600354604051636e74a6f760e01b8152600481018390526000916001600160a01b031690636e74a6f79060240160206040518083038186803b1580156142fb57600080fd5b505afa15801561430f573d6000803e3d6000fd5b505050506040513d601f19601f820116820180604052508101906143339190614f3a565b905061433f8184614c4e565b6143736001600160a01b037f000000000000000000000000000000000000000000000000000000000000000016828561439d565b600c5461438a906001600160a01b0316828561439d565b5080614395816153c3565b915050614229565b8015806144265750604051636eb1769f60e11b81523060048201526001600160a01b03838116602483015284169063dd62ed3e9060440160206040518083038186803b1580156143ec57600080fd5b505afa158015614400573d6000803e3d6000fd5b505050506040513d601f19601f820116820180604052508101906144249190614ff1565b155b6144915760405162461bcd60e51b815260206004820152603660248201527f5361666545524332303a20617070726f76652066726f6d206e6f6e2d7a65726f60448201527520746f206e6f6e2d7a65726f20616c6c6f77616e636560501b6064820152608401610639565b610c198363095ea7b360e01b8484604051602401612b80929190615072565b60006127106144bf838261505b565b6144c990856152fb565b611fa0919061531a565b826001600160a01b0316846001600160a01b031614156144f2576129cb565b600354604051631d1f307960e31b8152600091829182916001600160a01b03169063e8f983c89061452b908a908a908a9060040161526f565b60006040518083038186803b15801561454357600080fd5b505afa158015614557573d6000803e3d6000fd5b505050506040513d6000823e601f3d908101601f1916820160405261457f9190810190615293565b925092509250836000141561459357600193505b81156113b557600354604051636e74a6f760e01b8152600481018390526001600160a01b0390911690636e74a6f79060240160206040518083038186803b1580156145dd57600080fd5b505afa1580156145f1573d6000803e3d6000fd5b505050506040513d601f19601f820116820180604052508101906146159190614f3a565b6001600160a01b03166338ed173986868630426040518663ffffffff1660e01b8152600401614648959493929190615352565b600060405180830381600087803b15801561466257600080fd5b505af1158015614676573d6000803e3d6000fd5b505050506040513d6000823e601f3d908101601f1916820160405261469e919081019061538e565b5050505050505050565b60006146fd826040518060400160405280602081526020017f5361666545524332303a206c6f772d6c6576656c2063616c6c206661696c6564815250856001600160a01b0316614c829092919063ffffffff16565b805190915015610c19578080602001905181019061471b91906150a0565b610c195760405162461bcd60e51b815260206004820152602a60248201527f5361666545524332303a204552433230206f7065726174696f6e20646964206e6044820152691bdd081cdd58d8d9595960b21b6064820152608401610639565b61478381614c99565b60405163073a938160e11b8152600481018290527f00000000000000000000000000000000000000000000000000000000000000006001600160a01b031690630e75270290602401602060405180830381600087803b1580156147e557600080fd5b505af11580156147f9573d6000803e3d6000fd5b505050506040513d601f19601f8201168201806040525081019061481d9190614ff1565b156106905760405162461bcd60e51b815260206004820152600c60248201526b1c995c185e4b59985a5b195960a21b6044820152606401610639565b60405163852a12e360e01b8152600481018290527f00000000000000000000000000000000000000000000000000000000000000006001600160a01b03169063852a12e390602401602060405180830381600087803b1580156148bb57600080fd5b505af11580156148cf573d6000803e3d6000fd5b505050506040513d601f19601f820116820180604052508101906148f39190614ff1565b156106905760405162461bcd60e51b815260206004820152600f60248201526e1dda5d1a191c985dcb59985a5b1959608a1b6044820152606401610639565b60007f00000000000000000000000000000000000000000000000000000000000000006001600160a01b03166399530b066040518163ffffffff1660e01b815260040160206040518083038186803b15801561498d57600080fd5b505afa1580156149a1573d6000803e3d6000fd5b505050506040513d601f19601f820116820180604052508101906149c59190614ff1565b90506000816149dc84670de0b6b3a76400006152fb565b6149e6919061531a565b9050670de0b6b3a76400006149fb83836152fb565b614a05919061531a565b8311614a115780614a1c565b614a1c8160016152e3565b905060007f00000000000000000000000000000000000000000000000000000000000000006001600160a01b03166370a08231306040518263ffffffff1660e01b8152600401614a6c9190614e35565b60206040518083038186803b158015614a8457600080fd5b505afa158015614a98573d6000803e3d6000fd5b505050506040513d601f19601f82011682018060405250810190614abc9190614ff1565b90507f00000000000000000000000000000000000000000000000000000000000000006001600160a01b0316632e1a7d4d828411614afa5783614afc565b825b6040518263ffffffff1660e01b8152600401614b1a91815260200190565b600060405180830381600087803b158015614b3457600080fd5b505af115801561469e573d6000803e3d6000fd5b600d54604051638e8f294b60e01b81526000916001600160a01b031690638e8f294b90614b79908590600401614e35565b60606040518083038186803b158015614b9157600080fd5b505afa158015614ba5573d6000803e3d6000fd5b505050506040513d601f19601f82011682018060405250810190614bc991906153de565b509392505050565b60405163b6b55f2560e01b8152600481018290527f00000000000000000000000000000000000000000000000000000000000000006001600160a01b03169063b6b55f2590602401600060405180830381600087803b158015614c3357600080fd5b505af1158015614c47573d6000803e3d6000fd5b5050505050565b611cde6001600160a01b037f000000000000000000000000000000000000000000000000000000000000000016838361439d565b6060614c918484600085614ca2565b949350505050565b61069081614932565b606082471015614d035760405162461bcd60e51b815260206004820152602660248201527f416464726573733a20696e73756666696369656e742062616c616e636520666f6044820152651c8818d85b1b60d21b6064820152608401610639565b843b614d515760405162461bcd60e51b815260206004820152601d60248201527f416464726573733a2063616c6c20746f206e6f6e2d636f6e74726163740000006044820152606401610639565b600080866001600160a01b03168587604051614d6d919061541a565b60006040518083038185875af1925050503d8060008114614daa576040519150601f19603f3d011682016040523d82523d6000602084013e614daf565b606091505b5091509150614dbf828286614dca565b979650505050505050565b60608315614dd9575081611fa0565b825115614de95782518084602001fd5b8160405162461bcd60e51b81526004016106399190614ee5565b6001600160a01b038116811461069057600080fd5b600060208284031215614e2a57600080fd5b8135611fa081614e03565b6001600160a01b0391909116815260200190565b600060208284031215614e5b57600080fd5b5035919050565b600081518084526020808501945080840160005b83811015614e9b5781516001600160a01b031687529582019590820190600101614e76565b509495945050505050565b602081526000611fa06020830184614e62565b60005b83811015614ed4578181015183820152602001614ebc565b838111156129cb5750506000910152565b6020815260008251806020840152614f04816040850160208701614eb9565b601f01601f19169190910160400192915050565b60008060408385031215614f2b57600080fd5b50508035926020909101359150565b600060208284031215614f4c57600080fd5b8151611fa081614e03565b6020808252601a908201527f63616c6c65722d69732d6e6f742d7468652d676f7665726e6f72000000000000604082015260600190565b60208082526019908201527818d85b1b195c8b5a5ccb5b9bdd0b5d995cdc195c8b5c1bdbdb603a1b604082015260600190565b60208082526016908201527531b0b63632b916b4b996b737ba16b096b5b2b2b832b960511b604082015260600190565b60006020828403121561500357600080fd5b5051919050565b600181811c9082168061501e57607f821691505b6020821081141561503f57634e487b7160e01b600052602260045260246000fd5b50919050565b634e487b7160e01b600052601160045260246000fd5b60008282101561506d5761506d615045565b500390565b6001600160a01b03929092168252602082015260400190565b8051801515811461509b57600080fd5b919050565b6000602082840312156150b257600080fd5b611fa08261508b565b634e487b7160e01b600052604160045260246000fd5b604051601f8201601f1916810167ffffffffffffffff811182821017156150fa576150fa6150bb565b604052919050565b600067ffffffffffffffff82111561511c5761511c6150bb565b5060051b60200190565b600082601f83011261513757600080fd5b8151602061514c61514783615102565b6150d1565b82815260059290921b8401810191818101908684111561516b57600080fd5b8286015b8481101561518f57805161518281614e03565b835291830191830161516f565b509695505050505050565b600082601f8301126151ab57600080fd5b815160206151bb61514783615102565b82815260059290921b840181019181810190868411156151da57600080fd5b8286015b8481101561518f57805183529183019183016151de565b6000806040838503121561520857600080fd5b825167ffffffffffffffff8082111561522057600080fd5b61522c86838701615126565b9350602085015191508082111561524257600080fd5b5061524f8582860161519a565b9150509250929050565b634e487b7160e01b600052603260045260246000fd5b6001600160a01b039384168152919092166020820152604081019190915260600190565b6000806000606084860312156152a857600080fd5b835167ffffffffffffffff8111156152bf57600080fd5b6152cb86828701615126565b93505060208401519150604084015190509250925092565b600082198211156152f6576152f6615045565b500190565b600081600019048311821515161561531557615315615045565b500290565b60008261533757634e487b7160e01b600052601260045260246000fd5b500490565b634e487b7160e01b600052603160045260246000fd5b85815284602082015260a06040820152600061537160a0830186614e62565b6001600160a01b0394909416606083015250608001529392505050565b6000602082840312156153a057600080fd5b815167ffffffffffffffff8111156153b757600080fd5b614c918482850161519a565b60006000198214156153d7576153d7615045565b5060010190565b6000806000606084860312156153f357600080fd5b6153fc8461508b565b9250602084015191506154116040850161508b565b90509250925092565b6000825161542c818460208701614eb9565b919091019291505056fea2646970667358221220f1e5a8c198ade7e680e70cae4f2977eed26c5c893829fdcb45c161287ad1842d64736f6c63430008090033",
  "devdoc": {
    "kind": "dev",
    "methods": {
      "addKeeper(address)": {
        "params": {
          "_keeperAddress": "keeper address to add."
        }
      },
      "approveToken()": {
        "details": "Approve all required tokens"
      },
      "migrate(address)": {
        "details": "_beforeMigration hook can be implemented in child strategy to do extra steps.",
        "params": {
          "_newStrategy": "Address of new strategy"
        }
      },
      "rebalance()": {
        "details": "Rebalance profit, loss and investment of this strategy"
      },
      "recoverBorrowToken(uint256)": {
        "details": "If we get liquidation in Compound, we will have borrowToken sitting in strategy. This function allows to recover idle borrow token amount.",
        "params": {
          "_amountToRecover": "Amount of borrow token we want to recover in 1 call.      Set it 0 to recover all available borrow tokens"
        }
      },
      "removeKeeper(address)": {
        "params": {
          "_keeperAddress": "keeper address to remove."
        }
      },
      "repayAll()": {
        "details": "This action usually done when loss is detected in strategy.0 borrow limit make sure that any future rebalance do not borrow again."
      },
      "sweepERC20(address)": {
        "details": "sweep given token to feeCollector of strategy",
        "params": {
          "_fromToken": "token address to sweep"
        }
      },
      "totalValueCurrent()": {
        "details": "Report total value in collateral token"
      },
      "updateBorrowLimit(uint256,uint256)": {
        "details": "It is possible to set 0 as _minBorrowLimit to not borrow anything",
        "params": {
          "_maxBorrowLimit": "It is % of actual collateral factor of protocol",
          "_minBorrowLimit": "It is % of actual collateral factor of protocol"
        }
      },
      "updateFeeCollector(address)": {
        "params": {
          "_feeCollector": "fee collector address"
        }
      },
      "updateSwapManager(address)": {
        "params": {
          "_swapManager": "swap manager address"
        }
      },
      "withdraw(uint256)": {
        "details": "Withdraw collateral token from lending pool.",
        "params": {
          "_amount": "Amount of collateral token"
        }
      }
    },
    "title": "Deposit Collateral in IronBank and earn interest by depositing borrowed token in a Vesper Pool.",
    "version": 1
  },
  "userdoc": {
    "kind": "user",
    "methods": {
      "addKeeper(address)": {
        "notice": "Add given address in keepers list."
      },
      "borrowBalance()": {
        "notice": "Gets amount of borrowed Y collateral in strategy + Y collateral amount deposited in vPool"
      },
      "isLossMaking()": {
        "notice": "Calculate current position based on totalValue and debt of strategy"
      },
      "isReservedToken(address)": {
        "notice": "Check whether given token is reserved or not. Reserved tokens are not allowed to sweep."
      },
      "keepers()": {
        "notice": "Return list of keepers"
      },
      "migrate(address)": {
        "notice": "Migrate all asset and vault ownership,if any, to new strategy"
      },
      "recoverBorrowToken(uint256)": {
        "notice": "Recover extra borrow tokens from strategy"
      },
      "removeKeeper(address)": {
        "notice": "Remove given address from keepers list."
      },
      "repayAll()": {
        "notice": "Repay all borrow amount and set min borrow limit to 0."
      },
      "token()": {
        "notice": "Returns address of token correspond to collateral token"
      },
      "totalValue()": {
        "notice": "Calculate total value based VSP rewards, supply and borrow position"
      },
      "totalValueCurrent()": {
        "notice": "Calculate total value of asset under management (in real-time)"
      },
      "updateBorrowLimit(uint256,uint256)": {
        "notice": "Update upper and lower borrow limit. Usually maxBorrowLimit < 100% of actual collateral factor of protocol."
      },
      "updateFeeCollector(address)": {
        "notice": "Update fee collector"
      },
      "updateSwapManager(address)": {
        "notice": "Update swap manager address"
      }
    },
    "version": 1
  },
  "storageLayout": {
    "storage": [
      {
        "astId": 13972,
        "contract": "contracts/strategies/compound/VesperIronBankXYStrategy.sol:VesperIronBankXYStrategy",
        "label": "WETH",
        "offset": 0,
        "slot": "0",
        "type": "t_address"
      },
      {
        "astId": 13977,
        "contract": "contracts/strategies/compound/VesperIronBankXYStrategy.sol:VesperIronBankXYStrategy",
        "label": "receiptToken",
        "offset": 0,
        "slot": "1",
        "type": "t_address"
      },
      {
        "astId": 13983,
        "contract": "contracts/strategies/compound/VesperIronBankXYStrategy.sol:VesperIronBankXYStrategy",
        "label": "feeCollector",
        "offset": 0,
        "slot": "2",
        "type": "t_address"
      },
      {
        "astId": 13986,
        "contract": "contracts/strategies/compound/VesperIronBankXYStrategy.sol:VesperIronBankXYStrategy",
        "label": "swapManager",
        "offset": 0,
        "slot": "3",
        "type": "t_contract(ISwapManager)5729"
      },
      {
        "astId": 13989,
        "contract": "contracts/strategies/compound/VesperIronBankXYStrategy.sol:VesperIronBankXYStrategy",
        "label": "oraclePeriod",
        "offset": 0,
        "slot": "4",
        "type": "t_uint256"
      },
      {
        "astId": 13992,
        "contract": "contracts/strategies/compound/VesperIronBankXYStrategy.sol:VesperIronBankXYStrategy",
        "label": "oracleRouterIdx",
        "offset": 0,
        "slot": "5",
        "type": "t_uint256"
      },
      {
        "astId": 13995,
        "contract": "contracts/strategies/compound/VesperIronBankXYStrategy.sol:VesperIronBankXYStrategy",
        "label": "swapSlippage",
        "offset": 0,
        "slot": "6",
        "type": "t_uint256"
      },
      {
        "astId": 13998,
        "contract": "contracts/strategies/compound/VesperIronBankXYStrategy.sol:VesperIronBankXYStrategy",
        "label": "_keepers",
        "offset": 0,
        "slot": "7",
        "type": "t_struct(AddressSet)4634_storage"
      },
      {
        "astId": 26379,
        "contract": "contracts/strategies/compound/VesperIronBankXYStrategy.sol:VesperIronBankXYStrategy",
        "label": "NAME",
        "offset": 0,
        "slot": "9",
        "type": "t_string_storage"
      },
      {
        "astId": 26391,
        "contract": "contracts/strategies/compound/VesperIronBankXYStrategy.sol:VesperIronBankXYStrategy",
        "label": "minBorrowLimit",
        "offset": 0,
        "slot": "10",
        "type": "t_uint256"
      },
      {
        "astId": 26394,
        "contract": "contracts/strategies/compound/VesperIronBankXYStrategy.sol:VesperIronBankXYStrategy",
        "label": "maxBorrowLimit",
        "offset": 0,
        "slot": "11",
        "type": "t_uint256"
      },
      {
        "astId": 26396,
        "contract": "contracts/strategies/compound/VesperIronBankXYStrategy.sol:VesperIronBankXYStrategy",
        "label": "borrowToken",
        "offset": 0,
        "slot": "12",
        "type": "t_address"
      },
      {
        "astId": 26399,
        "contract": "contracts/strategies/compound/VesperIronBankXYStrategy.sol:VesperIronBankXYStrategy",
        "label": "comptroller",
        "offset": 0,
        "slot": "13",
        "type": "t_contract(Comptroller)5923"
      }
    ],
    "types": {
      "t_address": {
        "encoding": "inplace",
        "label": "address",
        "numberOfBytes": "20"
      },
      "t_array(t_bytes32)dyn_storage": {
        "base": "t_bytes32",
        "encoding": "dynamic_array",
        "label": "bytes32[]",
        "numberOfBytes": "32"
      },
      "t_bytes32": {
        "encoding": "inplace",
        "label": "bytes32",
        "numberOfBytes": "32"
      },
      "t_contract(Comptroller)5923": {
        "encoding": "inplace",
        "label": "contract Comptroller",
        "numberOfBytes": "20"
      },
      "t_contract(ISwapManager)5729": {
        "encoding": "inplace",
        "label": "contract ISwapManager",
        "numberOfBytes": "20"
      },
      "t_mapping(t_bytes32,t_uint256)": {
        "encoding": "mapping",
        "key": "t_bytes32",
        "label": "mapping(bytes32 => uint256)",
        "numberOfBytes": "32",
        "value": "t_uint256"
      },
      "t_string_storage": {
        "encoding": "bytes",
        "label": "string",
        "numberOfBytes": "32"
      },
      "t_struct(AddressSet)4634_storage": {
        "encoding": "inplace",
        "label": "struct EnumerableSet.AddressSet",
        "members": [
          {
            "astId": 4633,
            "contract": "contracts/strategies/compound/VesperIronBankXYStrategy.sol:VesperIronBankXYStrategy",
            "label": "_inner",
            "offset": 0,
            "slot": "0",
            "type": "t_struct(Set)4333_storage"
          }
        ],
        "numberOfBytes": "64"
      },
      "t_struct(Set)4333_storage": {
        "encoding": "inplace",
        "label": "struct EnumerableSet.Set",
        "members": [
          {
            "astId": 4328,
            "contract": "contracts/strategies/compound/VesperIronBankXYStrategy.sol:VesperIronBankXYStrategy",
            "label": "_values",
            "offset": 0,
            "slot": "0",
            "type": "t_array(t_bytes32)dyn_storage"
          },
          {
            "astId": 4332,
            "contract": "contracts/strategies/compound/VesperIronBankXYStrategy.sol:VesperIronBankXYStrategy",
            "label": "_indexes",
            "offset": 0,
            "slot": "1",
            "type": "t_mapping(t_bytes32,t_uint256)"
          }
        ],
        "numberOfBytes": "64"
      },
      "t_uint256": {
        "encoding": "inplace",
        "label": "uint256",
        "numberOfBytes": "32"
      }
    }
  }
}