{
  "address": "0xd50A7D1Bf1fC1624F26B5Bb75EB13b4C8d81e367",
  "abi": [
    {
      "inputs": [
        {
          "internalType": "address",
          "name": "_pool",
          "type": "address"
        },
        {
          "internalType": "address",
          "name": "_swapManager",
          "type": "address"
        },
        {
          "internalType": "address",
          "name": "_comptroller",
          "type": "address"
        },
        {
          "internalType": "address",
          "name": "_rewardToken",
          "type": "address"
        },
        {
          "internalType": "address",
          "name": "_receiptToken",
          "type": "address"
        },
        {
          "internalType": "address",
          "name": "_borrowCToken",
          "type": "address"
        },
        {
          "internalType": "address",
          "name": "_vPool",
          "type": "address"
        },
        {
          "internalType": "address",
          "name": "_vspAddress",
          "type": "address"
        },
        {
          "internalType": "string",
          "name": "_name",
          "type": "string"
        }
      ],
      "stateMutability": "nonpayable",
      "type": "constructor"
    },
    {
      "anonymous": false,
      "inputs": [
        {
          "indexed": false,
          "internalType": "uint256",
          "name": "previousMinBorrowLimit",
          "type": "uint256"
        },
        {
          "indexed": false,
          "internalType": "uint256",
          "name": "newMinBorrowLimit",
          "type": "uint256"
        },
        {
          "indexed": false,
          "internalType": "uint256",
          "name": "previousMaxBorrowLimit",
          "type": "uint256"
        },
        {
          "indexed": false,
          "internalType": "uint256",
          "name": "newMaxBorrowLimit",
          "type": "uint256"
        }
      ],
      "name": "UpdatedBorrowLimit",
      "type": "event"
    },
    {
      "anonymous": false,
      "inputs": [
        {
          "indexed": true,
          "internalType": "address",
          "name": "previousFeeCollector",
          "type": "address"
        },
        {
          "indexed": true,
          "internalType": "address",
          "name": "newFeeCollector",
          "type": "address"
        }
      ],
      "name": "UpdatedFeeCollector",
      "type": "event"
    },
    {
      "anonymous": false,
      "inputs": [
        {
          "indexed": false,
          "internalType": "uint256",
          "name": "oldPeriod",
          "type": "uint256"
        },
        {
          "indexed": false,
          "internalType": "uint256",
          "name": "newPeriod",
          "type": "uint256"
        },
        {
          "indexed": false,
          "internalType": "uint256",
          "name": "oldRouterIdx",
          "type": "uint256"
        },
        {
          "indexed": false,
          "internalType": "uint256",
          "name": "newRouterIdx",
          "type": "uint256"
        }
      ],
      "name": "UpdatedOracleConfig",
      "type": "event"
    },
    {
      "anonymous": false,
      "inputs": [
        {
          "indexed": true,
          "internalType": "address",
          "name": "previousSwapManager",
          "type": "address"
        },
        {
          "indexed": true,
          "internalType": "address",
          "name": "newSwapManager",
          "type": "address"
        }
      ],
      "name": "UpdatedSwapManager",
      "type": "event"
    },
    {
      "anonymous": false,
      "inputs": [
        {
          "indexed": false,
          "internalType": "uint256",
          "name": "oldSwapSlippage",
          "type": "uint256"
        },
        {
          "indexed": false,
          "internalType": "uint256",
          "name": "newSwapSlippage",
          "type": "uint256"
        }
      ],
      "name": "UpdatedSwapSlippage",
      "type": "event"
    },
    {
      "inputs": [],
      "name": "NAME",
      "outputs": [
        {
          "internalType": "string",
          "name": "",
          "type": "string"
        }
      ],
      "stateMutability": "view",
      "type": "function"
    },
    {
      "inputs": [],
      "name": "VERSION",
      "outputs": [
        {
          "internalType": "string",
          "name": "",
          "type": "string"
        }
      ],
      "stateMutability": "view",
      "type": "function"
    },
    {
      "inputs": [
        {
          "internalType": "address",
          "name": "_keeperAddress",
          "type": "address"
        }
      ],
      "name": "addKeeper",
      "outputs": [],
      "stateMutability": "nonpayable",
      "type": "function"
    },
    {
      "inputs": [],
      "name": "approveToken",
      "outputs": [],
      "stateMutability": "nonpayable",
      "type": "function"
    },
    {
      "inputs": [],
      "name": "borrowBalance",
      "outputs": [
        {
          "internalType": "uint256",
          "name": "",
          "type": "uint256"
        }
      ],
      "stateMutability": "view",
      "type": "function"
    },
    {
      "inputs": [],
      "name": "borrowCToken",
      "outputs": [
        {
          "internalType": "contract CToken",
          "name": "",
          "type": "address"
        }
      ],
      "stateMutability": "view",
      "type": "function"
    },
    {
      "inputs": [],
      "name": "borrowToken",
      "outputs": [
        {
          "internalType": "address",
          "name": "",
          "type": "address"
        }
      ],
      "stateMutability": "view",
      "type": "function"
    },
    {
      "inputs": [],
      "name": "collateralToken",
      "outputs": [
        {
          "internalType": "contract IERC20",
          "name": "",
          "type": "address"
        }
      ],
      "stateMutability": "view",
      "type": "function"
    },
    {
      "inputs": [],
      "name": "comptroller",
      "outputs": [
        {
          "internalType": "contract Comptroller",
          "name": "",
          "type": "address"
        }
      ],
      "stateMutability": "view",
      "type": "function"
    },
    {
      "inputs": [],
      "name": "feeCollector",
      "outputs": [
        {
          "internalType": "address",
          "name": "",
          "type": "address"
        }
      ],
      "stateMutability": "view",
      "type": "function"
    },
    {
      "inputs": [],
      "name": "isLossMaking",
      "outputs": [
        {
          "internalType": "bool",
          "name": "",
          "type": "bool"
        }
      ],
      "stateMutability": "view",
      "type": "function"
    },
    {
      "inputs": [
        {
          "internalType": "address",
          "name": "_token",
          "type": "address"
        }
      ],
      "name": "isReservedToken",
      "outputs": [
        {
          "internalType": "bool",
          "name": "",
          "type": "bool"
        }
      ],
      "stateMutability": "view",
      "type": "function"
    },
    {
      "inputs": [],
      "name": "keepers",
      "outputs": [
        {
          "internalType": "address[]",
          "name": "",
          "type": "address[]"
        }
      ],
      "stateMutability": "view",
      "type": "function"
    },
    {
      "inputs": [],
      "name": "maxBorrowLimit",
      "outputs": [
        {
          "internalType": "uint256",
          "name": "",
          "type": "uint256"
        }
      ],
      "stateMutability": "view",
      "type": "function"
    },
    {
      "inputs": [
        {
          "internalType": "address",
          "name": "_newStrategy",
          "type": "address"
        }
      ],
      "name": "migrate",
      "outputs": [],
      "stateMutability": "nonpayable",
      "type": "function"
    },
    {
      "inputs": [],
      "name": "minBorrowLimit",
      "outputs": [
        {
          "internalType": "uint256",
          "name": "",
          "type": "uint256"
        }
      ],
      "stateMutability": "view",
      "type": "function"
    },
    {
      "inputs": [],
      "name": "oraclePeriod",
      "outputs": [
        {
          "internalType": "uint256",
          "name": "",
          "type": "uint256"
        }
      ],
      "stateMutability": "view",
      "type": "function"
    },
    {
      "inputs": [],
      "name": "oracleRouterIdx",
      "outputs": [
        {
          "internalType": "uint256",
          "name": "",
          "type": "uint256"
        }
      ],
      "stateMutability": "view",
      "type": "function"
    },
    {
      "inputs": [],
      "name": "pool",
      "outputs": [
        {
          "internalType": "address",
          "name": "",
          "type": "address"
        }
      ],
      "stateMutability": "view",
      "type": "function"
    },
    {
      "inputs": [],
      "name": "rebalance",
      "outputs": [],
      "stateMutability": "nonpayable",
      "type": "function"
    },
    {
      "inputs": [],
      "name": "receiptToken",
      "outputs": [
        {
          "internalType": "address",
          "name": "",
          "type": "address"
        }
      ],
      "stateMutability": "view",
      "type": "function"
    },
    {
      "inputs": [
        {
          "internalType": "uint256",
          "name": "_amountToRecover",
          "type": "uint256"
        }
      ],
      "name": "recoverBorrowToken",
      "outputs": [],
      "stateMutability": "nonpayable",
      "type": "function"
    },
    {
      "inputs": [
        {
          "internalType": "address",
          "name": "_keeperAddress",
          "type": "address"
        }
      ],
      "name": "removeKeeper",
      "outputs": [],
      "stateMutability": "nonpayable",
      "type": "function"
    },
    {
      "inputs": [],
      "name": "repayAll",
      "outputs": [],
      "stateMutability": "nonpayable",
      "type": "function"
    },
    {
      "inputs": [],
      "name": "rewardToken",
      "outputs": [
        {
          "internalType": "address",
          "name": "",
          "type": "address"
        }
      ],
      "stateMutability": "view",
      "type": "function"
    },
    {
      "inputs": [],
      "name": "setupOracles",
      "outputs": [],
      "stateMutability": "nonpayable",
      "type": "function"
    },
    {
      "inputs": [],
      "name": "supplyCToken",
      "outputs": [
        {
          "internalType": "contract CToken",
          "name": "",
          "type": "address"
        }
      ],
      "stateMutability": "view",
      "type": "function"
    },
    {
      "inputs": [],
      "name": "swapManager",
      "outputs": [
        {
          "internalType": "contract ISwapManager",
          "name": "",
          "type": "address"
        }
      ],
      "stateMutability": "view",
      "type": "function"
    },
    {
      "inputs": [],
      "name": "swapSlippage",
      "outputs": [
        {
          "internalType": "uint256",
          "name": "",
          "type": "uint256"
        }
      ],
      "stateMutability": "view",
      "type": "function"
    },
    {
      "inputs": [
        {
          "internalType": "address",
          "name": "_fromToken",
          "type": "address"
        }
      ],
      "name": "sweepERC20",
      "outputs": [],
      "stateMutability": "nonpayable",
      "type": "function"
    },
    {
      "inputs": [],
      "name": "token",
      "outputs": [
        {
          "internalType": "address",
          "name": "",
          "type": "address"
        }
      ],
      "stateMutability": "view",
      "type": "function"
    },
    {
      "inputs": [],
      "name": "totalValue",
      "outputs": [
        {
          "internalType": "uint256",
          "name": "_totalValue",
          "type": "uint256"
        }
      ],
      "stateMutability": "view",
      "type": "function"
    },
    {
      "inputs": [],
      "name": "totalValueCurrent",
      "outputs": [
        {
          "internalType": "uint256",
          "name": "",
          "type": "uint256"
        }
      ],
      "stateMutability": "nonpayable",
      "type": "function"
    },
    {
      "inputs": [
        {
          "internalType": "uint256",
          "name": "_minBorrowLimit",
          "type": "uint256"
        },
        {
          "internalType": "uint256",
          "name": "_maxBorrowLimit",
          "type": "uint256"
        }
      ],
      "name": "updateBorrowLimit",
      "outputs": [],
      "stateMutability": "nonpayable",
      "type": "function"
    },
    {
      "inputs": [
        {
          "internalType": "address",
          "name": "_feeCollector",
          "type": "address"
        }
      ],
      "name": "updateFeeCollector",
      "outputs": [],
      "stateMutability": "nonpayable",
      "type": "function"
    },
    {
      "inputs": [
        {
          "internalType": "uint256",
          "name": "_newPeriod",
          "type": "uint256"
        },
        {
          "internalType": "uint256",
          "name": "_newRouterIdx",
          "type": "uint256"
        }
      ],
      "name": "updateOracleConfig",
      "outputs": [],
      "stateMutability": "nonpayable",
      "type": "function"
    },
    {
      "inputs": [
        {
          "internalType": "address",
          "name": "_swapManager",
          "type": "address"
        }
      ],
      "name": "updateSwapManager",
      "outputs": [],
      "stateMutability": "nonpayable",
      "type": "function"
    },
    {
      "inputs": [
        {
          "internalType": "uint256",
          "name": "_newSwapSlippage",
          "type": "uint256"
        }
      ],
      "name": "updateSwapSlippage",
      "outputs": [],
      "stateMutability": "nonpayable",
      "type": "function"
    },
    {
      "inputs": [],
      "name": "vPool",
      "outputs": [
        {
          "internalType": "contract IVesperPool",
          "name": "",
          "type": "address"
        }
      ],
      "stateMutability": "view",
      "type": "function"
    },
    {
      "inputs": [],
      "name": "vsp",
      "outputs": [
        {
          "internalType": "address",
          "name": "",
          "type": "address"
        }
      ],
      "stateMutability": "view",
      "type": "function"
    },
    {
      "inputs": [
        {
          "internalType": "uint256",
          "name": "_amount",
          "type": "uint256"
        }
      ],
      "name": "withdraw",
      "outputs": [],
      "stateMutability": "nonpayable",
      "type": "function"
    },
    {
      "stateMutability": "payable",
      "type": "receive"
    }
  ],
  "transactionHash": "0xc34d386fd8c6dd018cbacc5b2d6127929096e544b61b4b6e5392cec33df530ed",
  "args": [
    "0xd1C117319B3595fbc39b471AB1fd485629eb05F2",
    "0xe382d9f2394A359B01006faa8A1864b8a60d2710",
    "0x3d9819210A31b4961b30EF54bE2aeD79B9c9Cd3B",
    "0xc00e94Cb662C3520282E6f5717214004A7f26888",
    "0x4Ddc2D193948926D02f9B1fE9e1daa0718270ED5",
    "0xFAce851a4921ce59e912d19329929CE6da6EB0c7",
    "0xef4F4604106de23CDadfEAE08fcC34602cB475C1",
    "0x1b40183EFB4Dd766f11bDa7A7c3AD8982e998421",
    "VesperCompoundXYStrategyETH_LINK"
  ],
  "numDeployments": 2,
  "solcInputHash": "0c127abe11d6bc13fb99083a5f2331b8",
  "bytecode": "0x610160604052600080546001600160a01b03191673c02aaa39b223fe8d0a0e5c4f27ead9083c756cc2178155610e10600455600555612710600655611b58600a55612134600b553480156200005357600080fd5b5060405162006ab738038062006ab7833981016040819052620000769162000905565b888888888888888888888888888888868686868585858585846001600160a01b038316620000eb5760405162461bcd60e51b815260206004820152601460248201527f706f6f6c2d616464726573732d69732d7a65726f00000000000000000000000060448201526064015b60405180910390fd5b6001600160a01b038216620001385760405162461bcd60e51b8152602060048201526012602482015271736d2d616464726573732d69732d7a65726f60701b6044820152606401620000e2565b600380546001600160a01b0319166001600160a01b0384811691909117909155831660a081905260408051637e062a3560e11b8152905163fc0c546a91600480820192602092909190829003018186803b1580156200019657600080fd5b505afa158015620001ab573d6000803e3d6000fd5b505050506040513d601f19601f82011682018060405250810190620001d19190620009f3565b6001600160a01b03908116608052600180546001600160a01b03191691831691909117905562000218620002023390565b60076200064860201b620021d01790919060201c565b6200025a5760405162461bcd60e51b81526020600482015260116024820152701859190b5ad9595c195c8b59985a5b1959607a1b6044820152606401620000e2565b5050506001600160a01b038316620002b55760405162461bcd60e51b815260206004820152601660248201527f63546f6b656e2d616464726573732d69732d7a65726f000000000000000000006044820152606401620000e2565b6001600160a01b0384166200030d5760405162461bcd60e51b815260206004820152601b60248201527f636f6d7074726f6c6c65722d616464726573732d69732d7a65726f00000000006044820152606401620000e2565b80516200032290600990602084019062000768565b50600d80546001600160a01b0319166001600160a01b038681169190911790915583811660c052821660e052620003598262000668565b600c80546001600160a01b0319166001600160a01b03929092169190911790556040805160028082526060820183526000926020830190803683370190505090508381600081518110620003b157620003b162000a1a565b60200260200101906001600160a01b031690816001600160a01b0316815250508281600181518110620003e857620003e862000a1a565b6001600160a01b039283166020918202929092010152600d54604051631853304760e31b815291169063c2998238906200042790849060040162000a30565b600060405180830381600087803b1580156200044257600080fd5b505af115801562000457573d6000803e3d6000fd5b505050506040513d6000823e601f3d908101601f1916820160405262000481919081019062000a7f565b50505050506001600160a01b03871615159250620004e59150505760405162461bcd60e51b815260206004820152601b60248201527f726577617264546f6b656e2d616464726573732d69732d7a65726f00000000006044820152606401620000e2565b5050506001600160a01b03908116610100528516151592506200054e9150505760405162461bcd60e51b815260206004820152601360248201527f7673702d616464726573732d69732d7a65726f000000000000000000000000006044820152606401620000e2565b600c5460408051637e062a3560e11b815290516001600160a01b039283169286169163fc0c546a916004808301926020929190829003018186803b1580156200059657600080fd5b505afa158015620005ab573d6000803e3d6000fd5b505050506040513d601f19601f82011682018060405250810190620005d19190620009f3565b6001600160a01b0316146200061d5760405162461bcd60e51b81526020600482015260116024820152701a5b9d985b1a590b59dc9bddcb5c1bdbdb607a1b6044820152606401620000e2565b506001600160a01b039182166101205216610140525062000b6c9d5050505050505050505050505050565b60006200065f836001600160a01b03841662000716565b90505b92915050565b60006001600160a01b038216734ddc2d193948926d02f9b1fe9e1daa0718270ed51415620006a15750506000546001600160a01b031690565b816001600160a01b0316636f307dc36040518163ffffffff1660e01b815260040160206040518083038186803b158015620006db57600080fd5b505afa158015620006f0573d6000803e3d6000fd5b505050506040513d601f19601f82011682018060405250810190620006629190620009f3565b60008181526001830160205260408120546200075f5750815460018181018455600084815260208082209093018490558454848252828601909352604090209190915562000662565b50600062000662565b828054620007769062000b2f565b90600052602060002090601f0160209004810192826200079a5760008555620007e5565b82601f10620007b557805160ff1916838001178555620007e5565b82800160010185558215620007e5579182015b82811115620007e5578251825591602001919060010190620007c8565b50620007f3929150620007f7565b5090565b5b80821115620007f35760008155600101620007f8565b6001600160a01b03811681146200082457600080fd5b50565b634e487b7160e01b600052604160045260246000fd5b604051601f8201601f191681016001600160401b038111828210171562000868576200086862000827565b604052919050565b600082601f8301126200088257600080fd5b81516001600160401b038111156200089e576200089e62000827565b6020620008b4601f8301601f191682016200083d565b8281528582848701011115620008c957600080fd5b60005b83811015620008e9578581018301518282018401528201620008cc565b83811115620008fb5760008385840101525b5095945050505050565b60008060008060008060008060006101208a8c0312156200092557600080fd5b895162000932816200080e565b60208b015190995062000945816200080e565b60408b015190985062000958816200080e565b60608b01519097506200096b816200080e565b60808b01519096506200097e816200080e565b60a08b015190955062000991816200080e565b60c08b0151909450620009a4816200080e565b60e08b0151909350620009b7816200080e565b6101008b01519092506001600160401b03811115620009d557600080fd5b620009e38c828d0162000870565b9150509295985092959850929598565b60006020828403121562000a0657600080fd5b815162000a13816200080e565b9392505050565b634e487b7160e01b600052603260045260246000fd5b6020808252825182820181905260009190848201906040850190845b8181101562000a735783516001600160a01b03168352928401929184019160010162000a4c565b50909695505050505050565b6000602080838503121562000a9357600080fd5b82516001600160401b038082111562000aab57600080fd5b818501915085601f83011262000ac057600080fd5b81518181111562000ad55762000ad562000827565b8060051b915062000ae88483016200083d565b818152918301840191848101908884111562000b0357600080fd5b938501935b8385101562000b235784518252938501939085019062000b08565b98975050505050505050565b600181811c9082168062000b4457607f821691505b6020821081141562000b6657634e487b7160e01b600052602260045260246000fd5b50919050565b60805160a05160c05160e051610100516101205161014051615c8862000e2f6000396000818161031f01528181611c4e01528181613669015281816136fc015261534601526000818161046d01528181610a5701528181611ad70152818161220e015281816122aa01528181612ad8015281816135520152818161501701528181615103015281816151a101526152c80152600081816107170152818161241701528181612e7b01528181614f5801528181614feb0152615473015260008181610439015281816112ec01528181611f71015281816125f901528181612cd6015281816130ad01528181613b8801528181613e87015281816140b501528181614326015281816149fe01528181614c9401528181614d030152614e9d0152600081816106e30152818161276401528181612bd601528181613351015281816134bb01528181613c4101528181613cd101528181613de70152818161402c015281816142ef015281816148ad0152818161495301528181614e4901526153a30152600081816102b3015281816107bf015281816108ea0152818161093a01528181610a9301528181610c4601528181610dfa01528181610e7d01528181610fe8015281816114c501528181611606015281816116a3015281816119000152818161200d015281816123dc0152818161247a0152818161251a015261429b015260008181610599015281816113c00152818161146f01528181611496015281816114e701528181611833015281816118d701528181611c7001528181611d7f015281816125bb015281816126d90152818161288a0152818161294e01528181612a1401528181612e9d0152818161306f015281816132c60152818161341f015281816134f601528181613756015281816137ff01528181613ae301528181614279015281816142cd0152818161447101528181614abe0152614b790152615c886000f3fe60806040526004361061024a5760003560e01c806399b71d5c11610139578063d4c3eea0116100b6578063efead58c1161007a578063efead58c146106d1578063f7c618c114610705578063fa3ae6dc14610739578063fb7ee1021461074e578063fc0c546a1461076e578063ffa1ad741461078c57600080fd5b8063d4c3eea014610651578063e00af4a714610666578063e260d74714610686578063e645c2021461069c578063ec78e832146106b157600080fd5b8063c415b95c116100fd578063c415b95c146105bb578063c7ad2748146105db578063cd2d7ebe146105fb578063ce5494bb14610611578063d2c35ce81461063157600080fd5b806399b71d5c1461051b578063a3f4df7e14610530578063a923b2a614610552578063aa10188614610572578063b2016bd41461058757600080fd5b8063456dc17a116101c757806367f5e4b81161018b57806367f5e4b81461048f578063709d039d146104af5780637d7c2a1c146104cf57806392986024146104e4578063951dc22c146104f957600080fd5b8063456dc17a146103c75780634c36fad7146103e75780635fe3b56714610407578063620a96d5146104275780636719578c1461045b57600080fd5b806329ba73ed1161020e57806329ba73ed1461030d5780632e1a7d4d146103415780634032b72b1461036157806342189c8f14610381578063440d72481461039757600080fd5b80630181686c1461025657806314ae9f2e1461027f57806316f0115b146102a15780631aedeabe146102e2578063243cd14e146102f857600080fd5b3661025157005b600080fd5b34801561026257600080fd5b5061026c600b5481565b6040519081526020015b60405180910390f35b34801561028b57600080fd5b5061029f61029a366004615610565b6107bd565b005b3480156102ad57600080fd5b506102d57f000000000000000000000000000000000000000000000000000000000000000081565b604051610276919061562d565b3480156102ee57600080fd5b5061026c60065481565b34801561030457600080fd5b5061026c6108d8565b34801561031957600080fd5b506102d57f000000000000000000000000000000000000000000000000000000000000000081565b34801561034d57600080fd5b5061029f61035c366004615641565b6108e7565b34801561036d57600080fd5b5061029f61037c366004615610565b610938565b34801561038d57600080fd5b5061026c60045481565b3480156103a357600080fd5b506103b76103b2366004615610565b610a44565b6040519015158152602001610276565b3480156103d357600080fd5b50600c546102d5906001600160a01b031681565b3480156103f357600080fd5b5061029f610402366004615610565b610a91565b34801561041357600080fd5b50600d546102d5906001600160a01b031681565b34801561043357600080fd5b506102d57f000000000000000000000000000000000000000000000000000000000000000081565b34801561046757600080fd5b506102d57f000000000000000000000000000000000000000000000000000000000000000081565b34801561049b57600080fd5b5061029f6104aa366004615641565b610c44565b3480156104bb57600080fd5b506003546102d5906001600160a01b031681565b3480156104db57600080fd5b5061029f610d90565b3480156104f057600080fd5b506103b7610e63565b34801561050557600080fd5b5061050e610f10565b604051610276919061569e565b34801561052757600080fd5b5061029f610f1c565b34801561053c57600080fd5b50610545610f58565b60405161027691906156dd565b34801561055e57600080fd5b5061029f61056d366004615710565b610fe6565b34801561057e57600080fd5b5061029f61121b565b34801561059357600080fd5b506102d57f000000000000000000000000000000000000000000000000000000000000000081565b3480156105c757600080fd5b506002546102d5906001600160a01b031681565b3480156105e757600080fd5b5061029f6105f6366004615641565b611240565b34801561060757600080fd5b5061026c60055481565b34801561061d57600080fd5b5061029f61062c366004615610565b611603565b34801561063d57600080fd5b5061029f61064c366004615610565b6118fe565b34801561065d57600080fd5b5061026c611ac7565b34801561067257600080fd5b5061029f610681366004615610565b611d08565b34801561069257600080fd5b5061026c600a5481565b3480156106a857600080fd5b5061026c611f27565b3480156106bd57600080fd5b506001546102d5906001600160a01b031681565b3480156106dd57600080fd5b506102d57f000000000000000000000000000000000000000000000000000000000000000081565b34801561071157600080fd5b506102d57f000000000000000000000000000000000000000000000000000000000000000081565b34801561074557600080fd5b5061029f611f31565b34801561075a57600080fd5b5061029f610769366004615710565b61200b565b34801561077a57600080fd5b506001546001600160a01b03166102d5565b34801561079857600080fd5b50610545604051806040016040528060058152602001640342e302e360dc1b81525081565b7f00000000000000000000000000000000000000000000000000000000000000006001600160a01b0316630c340a246040518163ffffffff1660e01b815260040160206040518083038186803b15801561081657600080fd5b505afa15801561082a573d6000803e3d6000fd5b505050506040513d601f19601f8201168201806040525081019061084e9190615732565b6001600160a01b0316336001600160a01b0316146108875760405162461bcd60e51b815260040161087e9061574f565b60405180910390fd5b6108926007826121ec565b6108d55760405162461bcd60e51b81526020600482015260146024820152731c995b5bdd994b5ad9595c195c8b59985a5b195960621b604482015260640161087e565b50565b60006108e2612201565b905090565b337f00000000000000000000000000000000000000000000000000000000000000006001600160a01b03161461092f5760405162461bcd60e51b815260040161087e90615786565b6108d5816123d7565b7f00000000000000000000000000000000000000000000000000000000000000006001600160a01b0316630c340a246040518163ffffffff1660e01b815260040160206040518083038186803b15801561099157600080fd5b505afa1580156109a5573d6000803e3d6000fd5b505050506040513d601f19601f820116820180604052508101906109c99190615732565b6001600160a01b0316336001600160a01b0316146109f95760405162461bcd60e51b815260040161087e9061574f565b610a046007826121d0565b6108d55760405162461bcd60e51b81526020600482015260116024820152701859190b5ad9595c195c8b59985a5b1959607a1b604482015260640161087e565b6000610a4f82612404565b80610a8b57507f00000000000000000000000000000000000000000000000000000000000000006001600160a01b0316826001600160a01b0316145b92915050565b7f00000000000000000000000000000000000000000000000000000000000000006001600160a01b0316630c340a246040518163ffffffff1660e01b815260040160206040518083038186803b158015610aea57600080fd5b505afa158015610afe573d6000803e3d6000fd5b505050506040513d601f19601f82011682018060405250810190610b229190615732565b6001600160a01b0316336001600160a01b031614610b525760405162461bcd60e51b815260040161087e9061574f565b6001600160a01b038116610b9d5760405162461bcd60e51b8152602060048201526012602482015271736d2d616464726573732d69732d7a65726f60701b604482015260640161087e565b6003546001600160a01b0382811691161415610be85760405162461bcd60e51b815260206004820152600a602482015269736d2d69732d73616d6560b01b604482015260640161087e565b6003546040516001600160a01b038084169216907f2d19927e7cac08ceb98b38898a4fdff6da6a27295b9a2d62fe250408ebe044e190600090a3600380546001600160a01b0319166001600160a01b0392909216919091179055565b7f00000000000000000000000000000000000000000000000000000000000000006001600160a01b0316630c340a246040518163ffffffff1660e01b815260040160206040518083038186803b158015610c9d57600080fd5b505afa158015610cb1573d6000803e3d6000fd5b505050506040513d601f19601f82011682018060405250810190610cd59190615732565b6001600160a01b0316336001600160a01b031614610d055760405162461bcd60e51b815260040161087e9061574f565b612710811115610d505760405162461bcd60e51b8152602060048201526016602482015275696e76616c69642d736c6970706167652d76616c756560501b604482015260640161087e565b60065460408051918252602082018390527ef1c5db862c7598b3b6765552ca951f498611e06412c2d57f8d0b58f82e7f82910160405180910390a1600655565b610d9d335b600790612450565b610db95760405162461bcd60e51b815260040161087e906157b9565b6000806000610dc6612472565b6040516302df682360e11b815260048101849052602481018390526044810182905292955090935091506001600160a01b037f000000000000000000000000000000000000000000000000000000000000000016906305bed04690606401600060405180830381600087803b158015610e3e57600080fd5b505af1158015610e52573d6000803e3d6000fd5b50505050610e5e612934565b505050565b604051639f2b283360e01b81526000906001600160a01b037f00000000000000000000000000000000000000000000000000000000000000001690639f2b283390610eb290309060040161562d565b60206040518083038186803b158015610eca57600080fd5b505afa158015610ede573d6000803e3d6000fd5b505050506040513d601f19601f82011682018060405250810190610f0291906157e9565b610f0a611ac7565b10905090565b60606108e26007612ab0565b610f2533610d95565b610f415760405162461bcd60e51b815260040161087e906157b9565b610f4b6000612abd565b610f56600019612abd565b565b60098054610f6590615802565b80601f0160208091040260200160405190810160405280929190818152602001828054610f9190615802565b8015610fde5780601f10610fb357610100808354040283529160200191610fde565b820191906000526020600020905b815481529060010190602001808311610fc157829003601f168201915b505050505081565b7f00000000000000000000000000000000000000000000000000000000000000006001600160a01b0316630c340a246040518163ffffffff1660e01b815260040160206040518083038186803b15801561103f57600080fd5b505afa158015611053573d6000803e3d6000fd5b505050506040513d601f19601f820116820180604052508101906110779190615732565b6001600160a01b0316336001600160a01b0316146110a75760405162461bcd60e51b815260040161087e9061574f565b600360009054906101000a90046001600160a01b03166001600160a01b031663c2fba6676040518163ffffffff1660e01b815260040160206040518083038186803b1580156110f557600080fd5b505afa158015611109573d6000803e3d6000fd5b505050506040513d601f19601f8201168201806040525081019061112d91906157e9565b81106111725760405162461bcd60e51b81526020600482015260146024820152730d2dcecc2d8d2c85ae4deeae8cae45ad2dcc8caf60631b604482015260640161087e565b8161117d5760045491505b603b82116111c55760405162461bcd60e51b81526020600482015260156024820152741a5b9d985b1a590b5bdc9858db194b5c195c9a5bd9605a1b604482015260640161087e565b6004546005546040805192835260208301859052820152606081018290527f83bc5ab8030537fcf1d29c2334f6d22c26c82dcbe5ff03923d2cff5c692c0a7f9060800160405180910390a1600491909155600555565b61122433610d95565b610f565760405162461bcd60e51b815260040161087e906157b9565b61124933610d95565b6112655760405162461bcd60e51b815260040161087e906157b9565b600c546040516370a0823160e01b81526000916001600160a01b0316906370a082319061129690309060040161562d565b60206040518083038186803b1580156112ae57600080fd5b505afa1580156112c2573d6000803e3d6000fd5b505050506040513d601f19601f820116820180604052508101906112e691906157e9565b905060007f00000000000000000000000000000000000000000000000000000000000000006001600160a01b03166395dd9193306040518263ffffffff1660e01b8152600401611336919061562d565b60206040518083038186803b15801561134e57600080fd5b505afa158015611362573d6000803e3d6000fd5b505050506040513d601f19601f8201168201806040525081019061138691906157e9565b905080821115610e5e57600061139c8284615853565b9050600080851180156113ae57508482115b6113b857816113ba565b845b905060007f00000000000000000000000000000000000000000000000000000000000000006001600160a01b03166370a08231306040518263ffffffff1660e01b815260040161140a919061562d565b60206040518083038186803b15801561142257600080fd5b505afa158015611436573d6000803e3d6000fd5b505050506040513d601f19601f8201168201806040525081019061145a91906157e9565b600c54909150611494906001600160a01b03167f000000000000000000000000000000000000000000000000000000000000000084612afd565b7f00000000000000000000000000000000000000000000000000000000000000006001600160a01b031663a9059cbb7f0000000000000000000000000000000000000000000000000000000000000000837f00000000000000000000000000000000000000000000000000000000000000006001600160a01b03166370a08231306040518263ffffffff1660e01b8152600401611531919061562d565b60206040518083038186803b15801561154957600080fd5b505afa15801561155d573d6000803e3d6000fd5b505050506040513d601f19601f8201168201806040525081019061158191906157e9565b61158b9190615853565b6040518363ffffffff1660e01b81526004016115a892919061586a565b602060405180830381600087803b1580156115c257600080fd5b505af11580156115d6573d6000803e3d6000fd5b505050506040513d601f19601f820116820180604052508101906115fa9190615898565b50505050505050565b337f00000000000000000000000000000000000000000000000000000000000000006001600160a01b03161461164b5760405162461bcd60e51b815260040161087e90615786565b6001600160a01b0381166116a15760405162461bcd60e51b815260206004820152601c60248201527f6e65772d73747261746567792d616464726573732d69732d7a65726f00000000604482015260640161087e565b7f00000000000000000000000000000000000000000000000000000000000000006001600160a01b0316816001600160a01b03166316f0115b6040518163ffffffff1660e01b815260040160206040518083038186803b15801561170457600080fd5b505afa158015611718573d6000803e3d6000fd5b505050506040513d601f19601f8201168201806040525081019061173c9190615732565b6001600160a01b03161461178b5760405162461bcd60e51b81526020600482015260166024820152756e6f742d76616c69642d6e65772d737472617465677960501b604482015260640161087e565b61179481612bd4565b6001546040516370a0823160e01b815261182d9183916001600160a01b03909116906370a08231906117ca90309060040161562d565b60206040518083038186803b1580156117e257600080fd5b505afa1580156117f6573d6000803e3d6000fd5b505050506040513d601f19601f8201168201806040525081019061181a91906157e9565b6001546001600160a01b03169190612d64565b6108d5817f00000000000000000000000000000000000000000000000000000000000000006001600160a01b03166370a08231306040518263ffffffff1660e01b815260040161187d919061562d565b60206040518083038186803b15801561189557600080fd5b505afa1580156118a9573d6000803e3d6000fd5b505050506040513d601f19601f820116820180604052508101906118cd91906157e9565b6001600160a01b037f0000000000000000000000000000000000000000000000000000000000000000169190612d64565b7f00000000000000000000000000000000000000000000000000000000000000006001600160a01b0316630c340a246040518163ffffffff1660e01b815260040160206040518083038186803b15801561195757600080fd5b505afa15801561196b573d6000803e3d6000fd5b505050506040513d601f19601f8201168201806040525081019061198f9190615732565b6001600160a01b0316336001600160a01b0316146119bf5760405162461bcd60e51b815260040161087e9061574f565b6001600160a01b038116611a155760405162461bcd60e51b815260206004820152601d60248201527f6665652d636f6c6c6563746f722d616464726573732d69732d7a65726f000000604482015260640161087e565b6002546001600160a01b0382811691161415611a6b5760405162461bcd60e51b81526020600482015260156024820152746665652d636f6c6c6563746f722d69732d73616d6560581b604482015260640161087e565b6002546040516001600160a01b038084169216907f0f06062680f9bd68e786e9980d9bb03d73d5620fc3b345e417b6eacb310b970690600090a3600280546001600160a01b0319166001600160a01b0392909216919091179055565b6000611ad1612dba565b905060007f00000000000000000000000000000000000000000000000000000000000000006001600160a01b0316638bc6beb26040518163ffffffff1660e01b815260040160206040518083038186803b158015611b2e57600080fd5b505afa158015611b42573d6000803e3d6000fd5b505050506040513d601f19601f82011682018060405250810190611b669190615732565b90506001600160a01b03811615611d045760405163402914f560e01b81526000906001600160a01b0383169063402914f590611ba690309060040161562d565b60006040518083038186803b158015611bbe57600080fd5b505afa158015611bd2573d6000803e3d6000fd5b505050506040513d6000823e601f3d908101601f19168201604052611bfa91908101906159ed565b915050600081600081518110611c1257611c12615a51565b602002602001015190506000811115611d0157600354604051631d1f307960e31b81526000916001600160a01b03169063e8f983c890611c9a907f0000000000000000000000000000000000000000000000000000000000000000907f0000000000000000000000000000000000000000000000000000000000000000908790600401615a67565b60006040518083038186803b158015611cb257600080fd5b505afa158015611cc6573d6000803e3d6000fd5b505050506040513d6000823e601f3d908101601f19168201604052611cee9190810190615a8b565b509150611cfd90508186615adb565b9450505b50505b5090565b611d1133610d95565b611d2d5760405162461bcd60e51b815260040161087e906157b9565b6002546001600160a01b0316611d7d5760405162461bcd60e51b81526020600482015260156024820152741999594b58dbdb1b1958dd1bdc8b5b9bdd0b5cd95d605a1b604482015260640161087e565b7f00000000000000000000000000000000000000000000000000000000000000006001600160a01b0316816001600160a01b03161415611dff5760405162461bcd60e51b815260206004820152601f60248201527f6e6f742d616c6c6f7765642d746f2d73776565702d636f6c6c61746572616c00604482015260640161087e565b611e0881610a44565b15611e4c5760405162461bcd60e51b815260206004820152601460248201527306e6f742d616c6c6f7765642d746f2d73776565760641b604482015260640161087e565b6001600160a01b03811673eeeeeeeeeeeeeeeeeeeeeeeeeeeeeeeeeeeeeeee1415611e87576002546108d5906001600160a01b031647612f31565b6040516370a0823160e01b81526000906001600160a01b038316906370a0823190611eb690309060040161562d565b60206040518083038186803b158015611ece57600080fd5b505afa158015611ee2573d6000803e3d6000fd5b505050506040513d601f19601f82011682018060405250810190611f0691906157e9565b600254909150611f23906001600160a01b03848116911683612d64565b5050565b60006108e2611ac7565b611f3a33610d95565b611f565760405162461bcd60e51b815260040161087e906157b9565b6040516305eff7ef60e21b8152611fff906001600160a01b037f000000000000000000000000000000000000000000000000000000000000000016906317bfdfbc90611fa690309060040161562d565b602060405180830381600087803b158015611fc057600080fd5b505af1158015611fd4573d6000803e3d6000fd5b505050506040513d601f19601f82011682018060405250810190611ff891906157e9565b600161304a565b6000600a819055600b55565b7f00000000000000000000000000000000000000000000000000000000000000006001600160a01b0316630c340a246040518163ffffffff1660e01b815260040160206040518083038186803b15801561206457600080fd5b505afa158015612078573d6000803e3d6000fd5b505050506040513d601f19601f8201168201806040525081019061209c9190615732565b6001600160a01b0316336001600160a01b0316146120cc5760405162461bcd60e51b815260040161087e9061574f565b61271081106121185760405162461bcd60e51b81526020600482015260186024820152771a5b9d985b1a590b5b585e0b589bdc9c9bddcb5b1a5b5a5d60421b604482015260640161087e565b80158015612124575081155b8061212e57508181115b61217a5760405162461bcd60e51b815260206004820152601d60248201527f6d61782d73686f756c642d62652d6869676865722d7468616e2d6d696e000000604482015260640161087e565b600a54600b546040805192835260208301859052820152606081018290527fedd77444afdf63401315e81ffe86d08f7865796e8ad2e11acf1d56a1393f07d59060800160405180910390a1600a91909155600b55565b60006121e5836001600160a01b03841661314e565b9392505050565b60006121e5836001600160a01b03841661319d565b6000670de0b6b3a76400007f00000000000000000000000000000000000000000000000000000000000000006001600160a01b03166370a08231306040518263ffffffff1660e01b8152600401612258919061562d565b60206040518083038186803b15801561227057600080fd5b505afa158015612284573d6000803e3d6000fd5b505050506040513d601f19601f820116820180604052508101906122a891906157e9565b7f00000000000000000000000000000000000000000000000000000000000000006001600160a01b03166399530b066040518163ffffffff1660e01b815260040160206040518083038186803b15801561230157600080fd5b505afa158015612315573d6000803e3d6000fd5b505050506040513d601f19601f8201168201806040525081019061233991906157e9565b6123439190615af3565b61234d9190615b12565b600c546040516370a0823160e01b81526001600160a01b03909116906370a082319061237d90309060040161562d565b60206040518083038186803b15801561239557600080fd5b505afa1580156123a9573d6000803e3d6000fd5b505050506040513d601f19601f820116820180604052508101906123cd91906157e9565b6108e29190615adb565b6108d57f00000000000000000000000000000000000000000000000000000000000000006118cd83613290565b600061240f826134b7565b80610a8b57507f00000000000000000000000000000000000000000000000000000000000000006001600160a01b0316826001600160a01b03161492915050565b6001600160a01b038116600090815260018301602052604081205415156121e5565b6000806000807f00000000000000000000000000000000000000000000000000000000000000006001600160a01b031663d53ddc26306040518263ffffffff1660e01b81526004016124c4919061562d565b60206040518083038186803b1580156124dc57600080fd5b505afa1580156124f0573d6000803e3d6000fd5b505050506040513d601f19601f8201168201806040525081019061251491906157e9565b905060007f00000000000000000000000000000000000000000000000000000000000000006001600160a01b0316639f2b2833306040518263ffffffff1660e01b8152600401612564919061562d565b60206040518083038186803b15801561257c57600080fd5b505afa158015612590573d6000803e3d6000fd5b505050506040513d601f19601f820116820180604052508101906125b491906157e9565b90506125df7f0000000000000000000000000000000000000000000000000000000000000000613545565b6040516305eff7ef60e21b81526000906001600160a01b037f000000000000000000000000000000000000000000000000000000000000000016906317bfdfbc9061262e90309060040161562d565b602060405180830381600087803b15801561264857600080fd5b505af115801561265c573d6000803e3d6000fd5b505050506040513d601f19601f8201168201806040525081019061268091906157e9565b9050600061268c612201565b9050808211156126ad576126a86126a38284615853565b613724565b6126bf565b6126bf6126ba8383615853565b6139a8565b6040516370a0823160e01b81526000906001600160a01b037f000000000000000000000000000000000000000000000000000000000000000016906370a082319061270e90309060040161562d565b60206040518083038186803b15801561272657600080fd5b505afa15801561273a573d6000803e3d6000fd5b505050506040513d601f19601f8201168201806040525081019061275e91906157e9565b905060007f00000000000000000000000000000000000000000000000000000000000000006001600160a01b0316633af9e669306040518263ffffffff1660e01b81526004016127ae919061562d565b602060405180830381600087803b1580156127c857600080fd5b505af11580156127dc573d6000803e3d6000fd5b505050506040513d601f19601f8201168201806040525081019061280091906157e9565b9050600061280e8383615adb565b905085811115612829576128228682615853565b9950612836565b6128338187615853565b98505b6000612842888c615adb565b90508084101561291457600061286161285b8684615853565b85613b0a565b905080156129125761287281613290565b506040516370a0823160e01b81526001600160a01b037f000000000000000000000000000000000000000000000000000000000000000016906370a08231906128bf90309060040161562d565b60206040518083038186803b1580156128d757600080fd5b505afa1580156128eb573d6000803e3d6000fd5b505050506040513d601f19601f8201168201806040525081019061290f91906157e9565b94505b505b8715612927576129248489613b0a565b98505b5050505050505050909192565b6040516370a0823160e01b81526000906001600160a01b037f000000000000000000000000000000000000000000000000000000000000000016906370a082319061298390309060040161562d565b60206040518083038186803b15801561299b57600080fd5b505afa1580156129af573d6000803e3d6000fd5b505050506040513d601f19601f820116820180604052508101906129d391906157e9565b90506000806129e3836000613b20565b90925090508015612a9e576129f981600061304a565b6040516370a0823160e01b8152610e5e906001600160a01b037f000000000000000000000000000000000000000000000000000000000000000016906370a0823190612a4990309060040161562d565b60206040518083038186803b158015612a6157600080fd5b505afa158015612a75573d6000803e3d6000fd5b505050506040513d601f19601f82011682018060405250810190612a9991906157e9565b613fc6565b612aa783613fc6565b610e5e82614099565b606060006121e583614210565b612ac68161426c565b600c546108d5906001600160a01b03167f0000000000000000000000000000000000000000000000000000000000000000836144c2565b60006006546127101415612b12576001612bc0565b6040516358fac00360e01b81526001600160a01b0380861660048301526024820184905284166044820152610e106064820152612bc090730f1f5a87f99f0918e6c81f16e59f3518698221ff906358fac0039060840160206040518083038186803b158015612b8057600080fd5b505afa158015612b94573d6000803e3d6000fd5b505050506040513d601f19601f82011682018060405250810190612bb891906157e9565b6006546145d5565b9050612bce848484846145f8565b50505050565b7f00000000000000000000000000000000000000000000000000000000000000006001600160a01b0316816001600160a01b031663fc0c546a6040518163ffffffff1660e01b815260040160206040518083038186803b158015612c3757600080fd5b505afa158015612c4b573d6000803e3d6000fd5b505050506040513d601f19601f82011682018060405250810190612c6f9190615732565b6001600160a01b031614612cbb5760405162461bcd60e51b81526020600482015260136024820152723bb937b73396b932b1b2b4b83a16ba37b5b2b760691b604482015260640161087e565b6040516305eff7ef60e21b81526108d5906001600160a01b037f000000000000000000000000000000000000000000000000000000000000000016906317bfdfbc90612d0b90309060040161562d565b602060405180830381600087803b158015612d2557600080fd5b505af1158015612d39573d6000803e3d6000fd5b505050506040513d601f19601f82011682018060405250810190612d5d91906157e9565b600061304a565b610e5e8363a9059cbb60e01b8484604051602401612d8392919061586a565b60408051601f198184030181529190526020810180516001600160e01b03166001600160e01b0319909316929092179091526147cd565b6000612dc461489f565b600d5460405163331faf7160e21b81529192506000916001600160a01b039091169063cc7ebdc490612dfa90309060040161562d565b60206040518083038186803b158015612e1257600080fd5b505afa158015612e26573d6000803e3d6000fd5b505050506040513d601f19601f82011682018060405250810190612e4a91906157e9565b90508015611d0457600354604051631d1f307960e31b81526000916001600160a01b03169063e8f983c890612ec7907f0000000000000000000000000000000000000000000000000000000000000000907f0000000000000000000000000000000000000000000000000000000000000000908790600401615a67565b60006040518083038186803b158015612edf57600080fd5b505afa158015612ef3573d6000803e3d6000fd5b505050506040513d6000823e601f3d908101601f19168201604052612f1b9190810190615a8b565b509150612f2a90508184615adb565b9250505090565b80471015612f815760405162461bcd60e51b815260206004820152601d60248201527f416464726573733a20696e73756666696369656e742062616c616e6365000000604482015260640161087e565b6000826001600160a01b03168260405160006040518083038185875af1925050503d8060008114612fce576040519150601f19603f3d011682016040523d82523d6000602084013e612fd3565b606091505b5050905080610e5e5760405162461bcd60e51b815260206004820152603a60248201527f416464726573733a20756e61626c6520746f2073656e642076616c75652c207260448201527f6563697069656e74206d61792068617665207265766572746564000000000000606482015260840161087e565b8115611f2357600061305a612201565b905080831115613145578115613093576130937f0000000000000000000000000000000000000000000000000000000000000000613545565b6040516305eff7ef60e21b81526000906001600160a01b037f000000000000000000000000000000000000000000000000000000000000000016906317bfdfbc906130e290309060040161562d565b602060405180830381600087803b1580156130fc57600080fd5b505af1158015613110573d6000803e3d6000fd5b505050506040513d601f19601f8201168201806040525081019061313491906157e9565b90506131436126a38383615853565b505b610e5e83614c12565b600081815260018301602052604081205461319557508154600181810184556000848152602080822090930184905584548482528286019093526040902091909155610a8b565b506000610a8b565b600081815260018301602052604081205480156132865760006131c1600183615853565b85549091506000906131d590600190615853565b905081811461323a5760008660000182815481106131f5576131f5615a51565b906000526020600020015490508087600001848154811061321857613218615a51565b6000918252602080832090910192909255918252600188019052604090208390555b855486908061324b5761324b615b34565b600190038181906000526020600020016000905590558560010160008681526020019081526020016000206000905560019350505050610a8b565b6000915050610a8b565b60008061329e600084613b20565b9150506132ac81600161304a565b6040516370a0823160e01b81526000906001600160a01b037f000000000000000000000000000000000000000000000000000000000000000016906370a08231906132fb90309060040161562d565b60206040518083038186803b15801561331357600080fd5b505afa158015613327573d6000803e3d6000fd5b505050506040513d601f19601f8201168201806040525081019061334b91906157e9565b905060007f00000000000000000000000000000000000000000000000000000000000000006001600160a01b0316633af9e669306040518263ffffffff1660e01b815260040161339b919061562d565b602060405180830381600087803b1580156133b557600080fd5b505af11580156133c9573d6000803e3d6000fd5b505050506040513d601f19601f820116820180604052508101906133ed91906157e9565b90506134068582116133ff5781614dcf565b855b614dcf565b6040516370a0823160e01b815282906001600160a01b037f000000000000000000000000000000000000000000000000000000000000000016906370a082319061345490309060040161562d565b60206040518083038186803b15801561346c57600080fd5b505afa158015613480573d6000803e3d6000fd5b505050506040513d601f19601f820116820180604052508101906134a491906157e9565b6134ae9190615853565b95945050505050565b60007f00000000000000000000000000000000000000000000000000000000000000006001600160a01b0316826001600160a01b0316148061352a57507f00000000000000000000000000000000000000000000000000000000000000006001600160a01b0316826001600160a01b0316145b80610a8b575050600c546001600160a01b0390811691161490565b61354e81614e26565b60007f00000000000000000000000000000000000000000000000000000000000000006001600160a01b0316638bc6beb26040518163ffffffff1660e01b815260040160206040518083038186803b1580156135a957600080fd5b505afa1580156135bd573d6000803e3d6000fd5b505050506040513d601f19601f820116820180604052508101906135e19190615732565b90506001600160a01b03811615611f235760405163d279c19160e01b81526001600160a01b0382169063d279c1919061361e90309060040161562d565b600060405180830381600087803b15801561363857600080fd5b505af115801561364c573d6000803e3d6000fd5b50506040516370a0823160e01b8152600092506001600160a01b037f00000000000000000000000000000000000000000000000000000000000000001691506370a082319061369f90309060040161562d565b60206040518083038186803b1580156136b757600080fd5b505afa1580156136cb573d6000803e3d6000fd5b505050506040513d601f19601f820116820180604052508101906136ef91906157e9565b90508015610e5e57610e5e7f0000000000000000000000000000000000000000000000000000000000000000848360016145f8565b600354600c54604051637a6f237b60e11b8152600092839283926001600160a01b039283169263f4de46f692613784927f000000000000000000000000000000000000000000000000000000000000000092909116908990600401615a67565b60006040518083038186803b15801561379c57600080fd5b505afa1580156137b0573d6000803e3d6000fd5b505050506040513d6000823e601f3d908101601f191682016040526137d89190810190615a8b565b919450925090508115612bce576040516370a0823160e01b81526000906001600160a01b037f000000000000000000000000000000000000000000000000000000000000000016906370a082319061383490309060040161562d565b60206040518083038186803b15801561384c57600080fd5b505afa158015613860573d6000803e3d6000fd5b505050506040513d601f19601f8201168201806040525081019061388491906157e9565b90508083111561389b5761389b6134018285615853565b600354604051636e74a6f760e01b8152600481018490526001600160a01b0390911690636e74a6f79060240160206040518083038186803b1580156138df57600080fd5b505afa1580156138f3573d6000803e3d6000fd5b505050506040513d601f19601f820116820180604052508101906139179190615732565b6001600160a01b0316638803dbee86858730426040518663ffffffff1660e01b815260040161394a959493929190615b4a565b600060405180830381600087803b15801561396457600080fd5b505af1158015613978573d6000803e3d6000fd5b505050506040513d6000823e601f3d908101601f191682016040526139a09190810190615b86565b505050505050565b80156108d557600c546040516370a0823160e01b81526000916001600160a01b0316906370a08231906139df90309060040161562d565b60206040518083038186803b1580156139f757600080fd5b505afa158015613a0b573d6000803e3d6000fd5b505050506040513d601f19601f82011682018060405250810190613a2f91906157e9565b9050613a3a82615013565b600c546040516370a0823160e01b815260009183916001600160a01b03909116906370a0823190613a6f90309060040161562d565b60206040518083038186803b158015613a8757600080fd5b505afa158015613a9b573d6000803e3d6000fd5b505050506040513d601f19601f82011682018060405250810190613abf91906157e9565b613ac99190615853565b90508015610e5e57600c54610e5e906001600160a01b03167f00000000000000000000000000000000000000000000000000000000000000008360016145f8565b6000818310613b1957816121e5565b5090919050565b600080831580613b2e575082155b613b6e5760405162461bcd60e51b8152602060048201526011602482015270616c6c2d696e7075742d67742d7a65726f60781b604482015260640161087e565b6040516305eff7ef60e21b81526000906001600160a01b037f000000000000000000000000000000000000000000000000000000000000000016906317bfdfbc90613bbd90309060040161562d565b602060405180830381600087803b158015613bd757600080fd5b505af1158015613beb573d6000803e3d6000fd5b505050506040513d601f19601f82011682018060405250810190613c0f91906157e9565b9050600b5460001415613c2757600092509050613fbf565b604051633af9e66960e01b81526000906001600160a01b037f00000000000000000000000000000000000000000000000000000000000000001690633af9e66990613c7690309060040161562d565b602060405180830381600087803b158015613c9057600080fd5b505af1158015613ca4573d6000803e3d6000fd5b505050506040513d601f19601f82011682018060405250810190613cc891906157e9565b90506000613cf57f0000000000000000000000000000000000000000000000000000000000000000615229565b90506000808811613d1d57868311613d0e576000613d27565b613d188784615853565b613d27565b613d278884615adb565b90506000670de0b6b3a7640000613d3e8484615af3565b613d489190615b12565b90506000600d60009054906101000a90046001600160a01b03166001600160a01b0316637dc0d1d06040518163ffffffff1660e01b815260040160206040518083038186803b158015613d9a57600080fd5b505afa158015613dae573d6000803e3d6000fd5b505050506040513d601f19601f82011682018060405250810190613dd29190615732565b90506000816001600160a01b031663fc57d4df7f00000000000000000000000000000000000000000000000000000000000000006040518263ffffffff1660e01b8152600401613e22919061562d565b60206040518083038186803b158015613e3a57600080fd5b505afa158015613e4e573d6000803e3d6000fd5b505050506040513d601f19601f82011682018060405250810190613e7291906157e9565b90506000826001600160a01b031663fc57d4df7f00000000000000000000000000000000000000000000000000000000000000006040518263ffffffff1660e01b8152600401613ec2919061562d565b60206040518083038186803b158015613eda57600080fd5b505afa158015613eee573d6000803e3d6000fd5b505050506040513d601f19601f82011682018060405250810190613f1291906157e9565b9050600081613f218487615af3565b613f2b9190615b12565b905080613f47576000899a509a50505050505050505050613fbf565b6000612710600b5483613f5a9190615af3565b613f649190615b12565b90506000612710600a5484613f799190615af3565b613f839190615b12565b9050818b1115613f9e57613f97818c615853565b9b50613fb3565b8a811115613fb357613fb08b82615853565b9c505b50505050505050505050505b9250929050565b80156108d557600054604051632e1a7d4d60e01b8152600481018390526001600160a01b0390911690632e1a7d4d90602401600060405180830381600087803b15801561401257600080fd5b505af1158015614026573d6000803e3d6000fd5b505050507f00000000000000000000000000000000000000000000000000000000000000006001600160a01b0316631249c58b826040518263ffffffff1660e01b81526004016000604051808303818588803b15801561408557600080fd5b505af11580156139a0573d6000803e3d6000fd5b80156108d55760405163317afabb60e21b8152600481018290527f00000000000000000000000000000000000000000000000000000000000000006001600160a01b03169063c5ebeaec90602401602060405180830381600087803b15801561410157600080fd5b505af1158015614115573d6000803e3d6000fd5b505050506040513d601f19601f8201168201806040525081019061413991906157e9565b156141865760405162461bcd60e51b815260206004820152601b60248201527f626f72726f772d66726f6d2d636f6d706f756e642d6661696c65640000000000604482015260640161087e565b600054600c546001600160a01b03908116911614156142075760008054906101000a90046001600160a01b03166001600160a01b031663d0e30db0476040518263ffffffff1660e01b81526004016000604051808303818588803b1580156141ed57600080fd5b505af1158015614201573d6000803e3d6000fd5b50505050505b6108d5816152b2565b60608160000180548060200260200160405190810160405280929190818152602001828054801561426057602002820191906000526020600020905b81548152602001906001019080831161424c575b50505050509050919050565b6142c06001600160a01b037f0000000000000000000000000000000000000000000000000000000000000000167f0000000000000000000000000000000000000000000000000000000000000000836144c2565b6143146001600160a01b037f0000000000000000000000000000000000000000000000000000000000000000167f0000000000000000000000000000000000000000000000000000000000000000836144c2565b600c5461434b906001600160a01b03167f0000000000000000000000000000000000000000000000000000000000000000836144c2565b60005b600360009054906101000a90046001600160a01b03166001600160a01b031663c2fba6676040518163ffffffff1660e01b815260040160206040518083038186803b15801561439c57600080fd5b505afa1580156143b0573d6000803e3d6000fd5b505050506040513d601f19601f820116820180604052508101906143d491906157e9565b811015611f2357600354604051636e74a6f760e01b8152600481018390526000916001600160a01b031690636e74a6f79060240160206040518083038186803b15801561442057600080fd5b505afa158015614434573d6000803e3d6000fd5b505050506040513d601f19601f820116820180604052508101906144589190615732565b9050614464818461532f565b6144986001600160a01b037f00000000000000000000000000000000000000000000000000000000000000001682856144c2565b600c546144af906001600160a01b031682856144c2565b50806144ba81615bbb565b91505061434e565b80158061454b5750604051636eb1769f60e11b81523060048201526001600160a01b03838116602483015284169063dd62ed3e9060440160206040518083038186803b15801561451157600080fd5b505afa158015614525573d6000803e3d6000fd5b505050506040513d601f19601f8201168201806040525081019061454991906157e9565b155b6145b65760405162461bcd60e51b815260206004820152603660248201527f5361666545524332303a20617070726f76652066726f6d206e6f6e2d7a65726f60448201527520746f206e6f6e2d7a65726f20616c6c6f77616e636560501b606482015260840161087e565b610e5e8363095ea7b360e01b8484604051602401612d8392919061586a565b60006127106145e48382615853565b6145ee9085615af3565b6121e59190615b12565b826001600160a01b0316846001600160a01b0316141561461757612bce565b600354604051631d1f307960e31b8152600091829182916001600160a01b03169063e8f983c890614650908a908a908a90600401615a67565b60006040518083038186803b15801561466857600080fd5b505afa15801561467c573d6000803e3d6000fd5b505050506040513d6000823e601f3d908101601f191682016040526146a49190810190615a8b565b92509250925083600014156146b857600193505b81156115fa57600354604051636e74a6f760e01b8152600481018390526001600160a01b0390911690636e74a6f79060240160206040518083038186803b15801561470257600080fd5b505afa158015614716573d6000803e3d6000fd5b505050506040513d601f19601f8201168201806040525081019061473a9190615732565b6001600160a01b03166338ed173986868630426040518663ffffffff1660e01b815260040161476d959493929190615b4a565b600060405180830381600087803b15801561478757600080fd5b505af115801561479b573d6000803e3d6000fd5b505050506040513d6000823e601f3d908101601f191682016040526147c39190810190615b86565b5050505050505050565b6000614822826040518060400160405280602081526020017f5361666545524332303a206c6f772d6c6576656c2063616c6c206661696c6564815250856001600160a01b031661536d9092919063ffffffff16565b805190915015610e5e57808060200190518101906148409190615898565b610e5e5760405162461bcd60e51b815260206004820152602a60248201527f5361666545524332303a204552433230206f7065726174696f6e20646964206e6044820152691bdd081cdd58d8d9595960b21b606482015260840161087e565b600080670de0b6b3a76400007f00000000000000000000000000000000000000000000000000000000000000006001600160a01b031663182df0f56040518163ffffffff1660e01b815260040160206040518083038186803b15801561490457600080fd5b505afa158015614918573d6000803e3d6000fd5b505050506040513d601f19601f8201168201806040525081019061493c91906157e9565b6040516370a0823160e01b81526001600160a01b037f000000000000000000000000000000000000000000000000000000000000000016906370a082319061498890309060040161562d565b60206040518083038186803b1580156149a057600080fd5b505afa1580156149b4573d6000803e3d6000fd5b505050506040513d601f19601f820116820180604052508101906149d891906157e9565b6149e29190615af3565b6149ec9190615b12565b905060006149f8612201565b905060007f00000000000000000000000000000000000000000000000000000000000000006001600160a01b03166395dd9193306040518263ffffffff1660e01b8152600401614a48919061562d565b60206040518083038186803b158015614a6057600080fd5b505afa158015614a74573d6000803e3d6000fd5b505050506040513d601f19601f82011682018060405250810190614a9891906157e9565b9050600082821115614b6057600354600c546001600160a01b039182169163f4de46f6917f00000000000000000000000000000000000000000000000000000000000000009116614ae98787615853565b6040518463ffffffff1660e01b8152600401614b0793929190615a67565b60006040518083038186803b158015614b1f57600080fd5b505afa158015614b33573d6000803e3d6000fd5b505050506040513d6000823e601f3d908101601f19168201604052614b5b9190810190615a8b565b509150505b6040516370a0823160e01b815281906001600160a01b037f000000000000000000000000000000000000000000000000000000000000000016906370a0823190614bae90309060040161562d565b60206040518083038186803b158015614bc657600080fd5b505afa158015614bda573d6000803e3d6000fd5b505050506040513d601f19601f82011682018060405250810190614bfe91906157e9565b614c089086615adb565b611cfd9190615853565b614c1b81615384565b600054600c546001600160a01b0390811691161415614ced57600054604051632e1a7d4d60e01b8152600481018390526001600160a01b0390911690632e1a7d4d90602401600060405180830381600087803b158015614c7a57600080fd5b505af1158015614c8e573d6000803e3d6000fd5b505050507f00000000000000000000000000000000000000000000000000000000000000006001600160a01b0316634e4d9fea826040518263ffffffff1660e01b81526004016000604051808303818588803b15801561408557600080fd5b60405163073a938160e11b8152600481018290527f00000000000000000000000000000000000000000000000000000000000000006001600160a01b031690630e75270290602401602060405180830381600087803b158015614d4f57600080fd5b505af1158015614d63573d6000803e3d6000fd5b505050506040513d601f19601f82011682018060405250810190614d8791906157e9565b156108d55760405162461bcd60e51b81526020600482015260186024820152771c995c185e4b5d1bcb58dbdb5c1bdd5b990b59985a5b195960421b604482015260640161087e565b614dd88161538d565b60008054906101000a90046001600160a01b03166001600160a01b031663d0e30db0476040518263ffffffff1660e01b81526004016000604051808303818588803b15801561408557600080fd5b6040805160028082526060820183526000926020830190803683370190505090507f000000000000000000000000000000000000000000000000000000000000000081600081518110614e7b57614e7b615a51565b60200260200101906001600160a01b031690816001600160a01b0316815250507f000000000000000000000000000000000000000000000000000000000000000081600181518110614ecf57614ecf615a51565b6001600160a01b039283166020918202929092010152600d5460405162e1ed9760e51b8152911690631c3db2e090614f0d9030908590600401615bd6565b600060405180830381600087803b158015614f2757600080fd5b505af1158015614f3b573d6000803e3d6000fd5b50506040516370a0823160e01b8152600092506001600160a01b037f00000000000000000000000000000000000000000000000000000000000000001691506370a0823190614f8e90309060040161562d565b60206040518083038186803b158015614fa657600080fd5b505afa158015614fba573d6000803e3d6000fd5b505050506040513d601f19601f82011682018060405250810190614fde91906157e9565b90508015610e5e57610e5e7f0000000000000000000000000000000000000000000000000000000000000000848360016145f8565b60007f00000000000000000000000000000000000000000000000000000000000000006001600160a01b03166399530b066040518163ffffffff1660e01b815260040160206040518083038186803b15801561506e57600080fd5b505afa158015615082573d6000803e3d6000fd5b505050506040513d601f19601f820116820180604052508101906150a691906157e9565b90506000816150bd84670de0b6b3a7640000615af3565b6150c79190615b12565b9050670de0b6b3a76400006150dc8383615af3565b6150e69190615b12565b83116150f257806150fd565b6150fd816001615adb565b905060007f00000000000000000000000000000000000000000000000000000000000000006001600160a01b03166370a08231306040518263ffffffff1660e01b815260040161514d919061562d565b60206040518083038186803b15801561516557600080fd5b505afa158015615179573d6000803e3d6000fd5b505050506040513d601f19601f8201168201806040525081019061519d91906157e9565b90507f00000000000000000000000000000000000000000000000000000000000000006001600160a01b0316632e1a7d4d8284116151db57836151dd565b825b6040518263ffffffff1660e01b81526004016151fb91815260200190565b600060405180830381600087803b15801561521557600080fd5b505af11580156147c3573d6000803e3d6000fd5b600d54604051638e8f294b60e01b81526000916001600160a01b031690638e8f294b9061525a90859060040161562d565b60606040518083038186803b15801561527257600080fd5b505afa158015615286573d6000803e3d6000fd5b505050506040513d601f19601f820116820180604052508101906152aa9190615bfa565b509392505050565b60405163b6b55f2560e01b8152600481018290527f00000000000000000000000000000000000000000000000000000000000000006001600160a01b03169063b6b55f2590602401600060405180830381600087803b15801561531457600080fd5b505af1158015615328573d6000803e3d6000fd5b5050505050565b6153398282615466565b611f236001600160a01b037f00000000000000000000000000000000000000000000000000000000000000001683836144c2565b606061537c848460008561549a565b949350505050565b6108d581615013565b60405163852a12e360e01b8152600481018290527f00000000000000000000000000000000000000000000000000000000000000006001600160a01b03169063852a12e390602401602060405180830381600087803b1580156153ef57600080fd5b505af1158015615403573d6000803e3d6000fd5b505050506040513d601f19601f8201168201806040525081019061542791906157e9565b156108d55760405162461bcd60e51b815260206004820152600f60248201526e1dda5d1a191c985dcb59985a5b1959608a1b604482015260640161087e565b611f236001600160a01b037f00000000000000000000000000000000000000000000000000000000000000001683836144c2565b6060824710156154fb5760405162461bcd60e51b815260206004820152602660248201527f416464726573733a20696e73756666696369656e742062616c616e636520666f6044820152651c8818d85b1b60d21b606482015260840161087e565b843b6155495760405162461bcd60e51b815260206004820152601d60248201527f416464726573733a2063616c6c20746f206e6f6e2d636f6e7472616374000000604482015260640161087e565b600080866001600160a01b031685876040516155659190615c36565b60006040518083038185875af1925050503d80600081146155a2576040519150601f19603f3d011682016040523d82523d6000602084013e6155a7565b606091505b50915091506155b78282866155c2565b979650505050505050565b606083156155d15750816121e5565b8251156155e15782518084602001fd5b8160405162461bcd60e51b815260040161087e91906156dd565b6001600160a01b03811681146108d557600080fd5b60006020828403121561562257600080fd5b81356121e5816155fb565b6001600160a01b0391909116815260200190565b60006020828403121561565357600080fd5b5035919050565b600081518084526020808501945080840160005b838110156156935781516001600160a01b03168752958201959082019060010161566e565b509495945050505050565b6020815260006121e5602083018461565a565b60005b838110156156cc5781810151838201526020016156b4565b83811115612bce5750506000910152565b60208152600082518060208401526156fc8160408501602087016156b1565b601f01601f19169190910160400192915050565b6000806040838503121561572357600080fd5b50508035926020909101359150565b60006020828403121561574457600080fd5b81516121e5816155fb565b6020808252601a908201527f63616c6c65722d69732d6e6f742d7468652d676f7665726e6f72000000000000604082015260600190565b60208082526019908201527818d85b1b195c8b5a5ccb5b9bdd0b5d995cdc195c8b5c1bdbdb603a1b604082015260600190565b60208082526016908201527531b0b63632b916b4b996b737ba16b096b5b2b2b832b960511b604082015260600190565b6000602082840312156157fb57600080fd5b5051919050565b600181811c9082168061581657607f821691505b6020821081141561583757634e487b7160e01b600052602260045260246000fd5b50919050565b634e487b7160e01b600052601160045260246000fd5b6000828210156158655761586561583d565b500390565b6001600160a01b03929092168252602082015260400190565b8051801515811461589357600080fd5b919050565b6000602082840312156158aa57600080fd5b6121e582615883565b634e487b7160e01b600052604160045260246000fd5b604051601f8201601f1916810167ffffffffffffffff811182821017156158f2576158f26158b3565b604052919050565b600067ffffffffffffffff821115615914576159146158b3565b5060051b60200190565b600082601f83011261592f57600080fd5b8151602061594461593f836158fa565b6158c9565b82815260059290921b8401810191818101908684111561596357600080fd5b8286015b8481101561598757805161597a816155fb565b8352918301918301615967565b509695505050505050565b600082601f8301126159a357600080fd5b815160206159b361593f836158fa565b82815260059290921b840181019181810190868411156159d257600080fd5b8286015b8481101561598757805183529183019183016159d6565b60008060408385031215615a0057600080fd5b825167ffffffffffffffff80821115615a1857600080fd5b615a248683870161591e565b93506020850151915080821115615a3a57600080fd5b50615a4785828601615992565b9150509250929050565b634e487b7160e01b600052603260045260246000fd5b6001600160a01b039384168152919092166020820152604081019190915260600190565b600080600060608486031215615aa057600080fd5b835167ffffffffffffffff811115615ab757600080fd5b615ac38682870161591e565b93505060208401519150604084015190509250925092565b60008219821115615aee57615aee61583d565b500190565b6000816000190483118215151615615b0d57615b0d61583d565b500290565b600082615b2f57634e487b7160e01b600052601260045260246000fd5b500490565b634e487b7160e01b600052603160045260246000fd5b85815284602082015260a060408201526000615b6960a083018661565a565b6001600160a01b0394909416606083015250608001529392505050565b600060208284031215615b9857600080fd5b815167ffffffffffffffff811115615baf57600080fd5b61537c84828501615992565b6000600019821415615bcf57615bcf61583d565b5060010190565b6001600160a01b038316815260406020820181905260009061537c9083018461565a565b600080600060608486031215615c0f57600080fd5b615c1884615883565b925060208401519150615c2d60408501615883565b90509250925092565b60008251615c488184602087016156b1565b919091019291505056fea2646970667358221220f545b309a50e6439ad4df41af5b909a73c7d5cbcc2355f45316a235999b1841364736f6c63430008090033",
  "devdoc": {
    "kind": "dev",
    "methods": {
      "addKeeper(address)": {
        "params": {
          "_keeperAddress": "keeper address to add."
        }
      },
      "approveToken()": {
        "details": "Approve all required tokens"
      },
      "migrate(address)": {
        "details": "_beforeMigration hook can be implemented in child strategy to do extra steps.",
        "params": {
          "_newStrategy": "Address of new strategy"
        }
      },
      "rebalance()": {
        "details": "Rebalance profit, loss and investment of this strategy"
      },
      "recoverBorrowToken(uint256)": {
        "details": "If we get liquidation in Compound, we will have borrowToken sitting in strategy. This function allows to recover idle borrow token amount.",
        "params": {
          "_amountToRecover": "Amount of borrow token we want to recover in 1 call.      Set it 0 to recover all available borrow tokens"
        }
      },
      "removeKeeper(address)": {
        "params": {
          "_keeperAddress": "keeper address to remove."
        }
      },
      "repayAll()": {
        "details": "This action usually done when loss is detected in strategy.0 borrow limit make sure that any future rebalance do not borrow again."
      },
      "sweepERC20(address)": {
        "details": "sweep given token to feeCollector of strategy",
        "params": {
          "_fromToken": "token address to sweep"
        }
      },
      "totalValueCurrent()": {
        "details": "Report total value in collateral token"
      },
      "updateBorrowLimit(uint256,uint256)": {
        "details": "It is possible to set 0 as _minBorrowLimit to not borrow anything",
        "params": {
          "_maxBorrowLimit": "It is % of actual collateral factor of protocol",
          "_minBorrowLimit": "It is % of actual collateral factor of protocol"
        }
      },
      "updateFeeCollector(address)": {
        "params": {
          "_feeCollector": "fee collector address"
        }
      },
      "updateSwapManager(address)": {
        "params": {
          "_swapManager": "swap manager address"
        }
      },
      "withdraw(uint256)": {
        "details": "Withdraw collateral token from lending pool.",
        "params": {
          "_amount": "Amount of collateral token"
        }
      }
    },
    "title": "Deposit ETH in Compound and earn interest by depositing borrowed token in a Vesper Pool.",
    "version": 1
  },
  "userdoc": {
    "kind": "user",
    "methods": {
      "addKeeper(address)": {
        "notice": "Add given address in keepers list."
      },
      "borrowBalance()": {
        "notice": "Gets amount of borrowed Y collateral in strategy + Y collateral amount deposited in vPool"
      },
      "isLossMaking()": {
        "notice": "Calculate current position based on totalValue and debt of strategy"
      },
      "isReservedToken(address)": {
        "notice": "Check whether given token is reserved or not. Reserved tokens are not allowed to sweep."
      },
      "keepers()": {
        "notice": "Return list of keepers"
      },
      "migrate(address)": {
        "notice": "Migrate all asset and vault ownership,if any, to new strategy"
      },
      "recoverBorrowToken(uint256)": {
        "notice": "Recover extra borrow tokens from strategy"
      },
      "removeKeeper(address)": {
        "notice": "Remove given address from keepers list."
      },
      "repayAll()": {
        "notice": "Repay all borrow amount and set min borrow limit to 0."
      },
      "token()": {
        "notice": "Returns address of token correspond to collateral token"
      },
      "totalValue()": {
        "notice": "Calculate total value based reward accrued (COMP and VSP), supply and borrow position"
      },
      "totalValueCurrent()": {
        "notice": "Calculate total value of asset under management (in real-time)"
      },
      "updateBorrowLimit(uint256,uint256)": {
        "notice": "Update upper and lower borrow limit. Usually maxBorrowLimit < 100% of actual collateral factor of protocol."
      },
      "updateFeeCollector(address)": {
        "notice": "Update fee collector"
      },
      "updateSwapManager(address)": {
        "notice": "Update swap manager address"
      }
    },
    "version": 1
  },
  "storageLayout": {
    "storage": [
      {
        "astId": 13972,
        "contract": "contracts/strategies/compound/VesperCompoundXYStrategyETH.sol:VesperCompoundXYStrategyETH",
        "label": "WETH",
        "offset": 0,
        "slot": "0",
        "type": "t_address"
      },
      {
        "astId": 13977,
        "contract": "contracts/strategies/compound/VesperCompoundXYStrategyETH.sol:VesperCompoundXYStrategyETH",
        "label": "receiptToken",
        "offset": 0,
        "slot": "1",
        "type": "t_address"
      },
      {
        "astId": 13983,
        "contract": "contracts/strategies/compound/VesperCompoundXYStrategyETH.sol:VesperCompoundXYStrategyETH",
        "label": "feeCollector",
        "offset": 0,
        "slot": "2",
        "type": "t_address"
      },
      {
        "astId": 13986,
        "contract": "contracts/strategies/compound/VesperCompoundXYStrategyETH.sol:VesperCompoundXYStrategyETH",
        "label": "swapManager",
        "offset": 0,
        "slot": "3",
        "type": "t_contract(ISwapManager)5729"
      },
      {
        "astId": 13989,
        "contract": "contracts/strategies/compound/VesperCompoundXYStrategyETH.sol:VesperCompoundXYStrategyETH",
        "label": "oraclePeriod",
        "offset": 0,
        "slot": "4",
        "type": "t_uint256"
      },
      {
        "astId": 13992,
        "contract": "contracts/strategies/compound/VesperCompoundXYStrategyETH.sol:VesperCompoundXYStrategyETH",
        "label": "oracleRouterIdx",
        "offset": 0,
        "slot": "5",
        "type": "t_uint256"
      },
      {
        "astId": 13995,
        "contract": "contracts/strategies/compound/VesperCompoundXYStrategyETH.sol:VesperCompoundXYStrategyETH",
        "label": "swapSlippage",
        "offset": 0,
        "slot": "6",
        "type": "t_uint256"
      },
      {
        "astId": 13998,
        "contract": "contracts/strategies/compound/VesperCompoundXYStrategyETH.sol:VesperCompoundXYStrategyETH",
        "label": "_keepers",
        "offset": 0,
        "slot": "7",
        "type": "t_struct(AddressSet)4634_storage"
      },
      {
        "astId": 26379,
        "contract": "contracts/strategies/compound/VesperCompoundXYStrategyETH.sol:VesperCompoundXYStrategyETH",
        "label": "NAME",
        "offset": 0,
        "slot": "9",
        "type": "t_string_storage"
      },
      {
        "astId": 26391,
        "contract": "contracts/strategies/compound/VesperCompoundXYStrategyETH.sol:VesperCompoundXYStrategyETH",
        "label": "minBorrowLimit",
        "offset": 0,
        "slot": "10",
        "type": "t_uint256"
      },
      {
        "astId": 26394,
        "contract": "contracts/strategies/compound/VesperCompoundXYStrategyETH.sol:VesperCompoundXYStrategyETH",
        "label": "maxBorrowLimit",
        "offset": 0,
        "slot": "11",
        "type": "t_uint256"
      },
      {
        "astId": 26396,
        "contract": "contracts/strategies/compound/VesperCompoundXYStrategyETH.sol:VesperCompoundXYStrategyETH",
        "label": "borrowToken",
        "offset": 0,
        "slot": "12",
        "type": "t_address"
      },
      {
        "astId": 26399,
        "contract": "contracts/strategies/compound/VesperCompoundXYStrategyETH.sol:VesperCompoundXYStrategyETH",
        "label": "comptroller",
        "offset": 0,
        "slot": "13",
        "type": "t_contract(Comptroller)5923"
      }
    ],
    "types": {
      "t_address": {
        "encoding": "inplace",
        "label": "address",
        "numberOfBytes": "20"
      },
      "t_array(t_bytes32)dyn_storage": {
        "base": "t_bytes32",
        "encoding": "dynamic_array",
        "label": "bytes32[]",
        "numberOfBytes": "32"
      },
      "t_bytes32": {
        "encoding": "inplace",
        "label": "bytes32",
        "numberOfBytes": "32"
      },
      "t_contract(Comptroller)5923": {
        "encoding": "inplace",
        "label": "contract Comptroller",
        "numberOfBytes": "20"
      },
      "t_contract(ISwapManager)5729": {
        "encoding": "inplace",
        "label": "contract ISwapManager",
        "numberOfBytes": "20"
      },
      "t_mapping(t_bytes32,t_uint256)": {
        "encoding": "mapping",
        "key": "t_bytes32",
        "label": "mapping(bytes32 => uint256)",
        "numberOfBytes": "32",
        "value": "t_uint256"
      },
      "t_string_storage": {
        "encoding": "bytes",
        "label": "string",
        "numberOfBytes": "32"
      },
      "t_struct(AddressSet)4634_storage": {
        "encoding": "inplace",
        "label": "struct EnumerableSet.AddressSet",
        "members": [
          {
            "astId": 4633,
            "contract": "contracts/strategies/compound/VesperCompoundXYStrategyETH.sol:VesperCompoundXYStrategyETH",
            "label": "_inner",
            "offset": 0,
            "slot": "0",
            "type": "t_struct(Set)4333_storage"
          }
        ],
        "numberOfBytes": "64"
      },
      "t_struct(Set)4333_storage": {
        "encoding": "inplace",
        "label": "struct EnumerableSet.Set",
        "members": [
          {
            "astId": 4328,
            "contract": "contracts/strategies/compound/VesperCompoundXYStrategyETH.sol:VesperCompoundXYStrategyETH",
            "label": "_values",
            "offset": 0,
            "slot": "0",
            "type": "t_array(t_bytes32)dyn_storage"
          },
          {
            "astId": 4332,
            "contract": "contracts/strategies/compound/VesperCompoundXYStrategyETH.sol:VesperCompoundXYStrategyETH",
            "label": "_indexes",
            "offset": 0,
            "slot": "1",
            "type": "t_mapping(t_bytes32,t_uint256)"
          }
        ],
        "numberOfBytes": "64"
      },
      "t_uint256": {
        "encoding": "inplace",
        "label": "uint256",
        "numberOfBytes": "32"
      }
    }
  }
}