{
  "address": "0xc2262671A154cc29A0cf6783DaDB130F2cD80fb9",
  "abi": [
    {
      "inputs": [
        {
          "internalType": "address",
          "name": "_pool",
          "type": "address"
        },
        {
          "internalType": "address",
          "name": "_swapper",
          "type": "address"
        },
        {
          "internalType": "address",
          "name": "_rewardToken",
          "type": "address"
        },
        {
          "internalType": "address",
          "name": "_receiptToken",
          "type": "address"
        },
        {
          "internalType": "address",
          "name": "_borrowToken",
          "type": "address"
        },
        {
          "internalType": "address",
          "name": "_vPool",
          "type": "address"
        },
        {
          "internalType": "address",
          "name": "_vspAddress",
          "type": "address"
        },
        {
          "internalType": "string",
          "name": "_name",
          "type": "string"
        }
      ],
      "stateMutability": "nonpayable",
      "type": "constructor"
    },
    {
      "anonymous": false,
      "inputs": [
        {
          "indexed": false,
          "internalType": "uint256",
          "name": "previousMinBorrowLimit",
          "type": "uint256"
        },
        {
          "indexed": false,
          "internalType": "uint256",
          "name": "newMinBorrowLimit",
          "type": "uint256"
        },
        {
          "indexed": false,
          "internalType": "uint256",
          "name": "previousMaxBorrowLimit",
          "type": "uint256"
        },
        {
          "indexed": false,
          "internalType": "uint256",
          "name": "newMaxBorrowLimit",
          "type": "uint256"
        }
      ],
      "name": "UpdatedBorrowLimit",
      "type": "event"
    },
    {
      "anonymous": false,
      "inputs": [
        {
          "indexed": true,
          "internalType": "address",
          "name": "previousFeeCollector",
          "type": "address"
        },
        {
          "indexed": true,
          "internalType": "address",
          "name": "newFeeCollector",
          "type": "address"
        }
      ],
      "name": "UpdatedFeeCollector",
      "type": "event"
    },
    {
      "anonymous": false,
      "inputs": [
        {
          "indexed": true,
          "internalType": "contract IRoutedSwapper",
          "name": "oldSwapper",
          "type": "address"
        },
        {
          "indexed": true,
          "internalType": "contract IRoutedSwapper",
          "name": "newSwapper",
          "type": "address"
        }
      ],
      "name": "UpdatedSwapper",
      "type": "event"
    },
    {
      "inputs": [],
      "name": "AAVE",
      "outputs": [
        {
          "internalType": "address",
          "name": "",
          "type": "address"
        }
      ],
      "stateMutability": "view",
      "type": "function"
    },
    {
      "inputs": [],
      "name": "NAME",
      "outputs": [
        {
          "internalType": "string",
          "name": "",
          "type": "string"
        }
      ],
      "stateMutability": "view",
      "type": "function"
    },
    {
      "inputs": [],
      "name": "VERSION",
      "outputs": [
        {
          "internalType": "string",
          "name": "",
          "type": "string"
        }
      ],
      "stateMutability": "view",
      "type": "function"
    },
    {
      "inputs": [],
      "name": "aaveIncentivesController",
      "outputs": [
        {
          "internalType": "contract AaveIncentivesController",
          "name": "",
          "type": "address"
        }
      ],
      "stateMutability": "view",
      "type": "function"
    },
    {
      "inputs": [],
      "name": "aaveLendingPool",
      "outputs": [
        {
          "internalType": "contract AaveLendingPool",
          "name": "",
          "type": "address"
        }
      ],
      "stateMutability": "view",
      "type": "function"
    },
    {
      "inputs": [],
      "name": "aaveProtocolDataProvider",
      "outputs": [
        {
          "internalType": "contract AaveProtocolDataProvider",
          "name": "",
          "type": "address"
        }
      ],
      "stateMutability": "view",
      "type": "function"
    },
    {
      "inputs": [
        {
          "internalType": "address",
          "name": "_keeperAddress",
          "type": "address"
        }
      ],
      "name": "addKeeper",
      "outputs": [],
      "stateMutability": "nonpayable",
      "type": "function"
    },
    {
      "inputs": [],
      "name": "approveToken",
      "outputs": [],
      "stateMutability": "nonpayable",
      "type": "function"
    },
    {
      "inputs": [],
      "name": "borrowToken",
      "outputs": [
        {
          "internalType": "address",
          "name": "",
          "type": "address"
        }
      ],
      "stateMutability": "view",
      "type": "function"
    },
    {
      "inputs": [],
      "name": "canStartCooldown",
      "outputs": [
        {
          "internalType": "bool",
          "name": "",
          "type": "bool"
        }
      ],
      "stateMutability": "view",
      "type": "function"
    },
    {
      "inputs": [],
      "name": "canUnstake",
      "outputs": [
        {
          "internalType": "bool",
          "name": "",
          "type": "bool"
        }
      ],
      "stateMutability": "view",
      "type": "function"
    },
    {
      "inputs": [],
      "name": "collateral",
      "outputs": [
        {
          "internalType": "address",
          "name": "",
          "type": "address"
        }
      ],
      "stateMutability": "view",
      "type": "function"
    },
    {
      "inputs": [],
      "name": "collateralToken",
      "outputs": [
        {
          "internalType": "contract IERC20",
          "name": "",
          "type": "address"
        }
      ],
      "stateMutability": "view",
      "type": "function"
    },
    {
      "inputs": [],
      "name": "cooldownData",
      "outputs": [
        {
          "internalType": "uint256",
          "name": "_cooldownStart",
          "type": "uint256"
        },
        {
          "internalType": "uint256",
          "name": "_cooldownEnd",
          "type": "uint256"
        },
        {
          "internalType": "uint256",
          "name": "_unstakeEnd",
          "type": "uint256"
        }
      ],
      "stateMutability": "view",
      "type": "function"
    },
    {
      "inputs": [],
      "name": "feeCollector",
      "outputs": [
        {
          "internalType": "address",
          "name": "",
          "type": "address"
        }
      ],
      "stateMutability": "view",
      "type": "function"
    },
    {
      "inputs": [],
      "name": "harvestVSP",
      "outputs": [],
      "stateMutability": "nonpayable",
      "type": "function"
    },
    {
      "inputs": [
        {
          "internalType": "address",
          "name": "_token",
          "type": "address"
        }
      ],
      "name": "isReservedToken",
      "outputs": [
        {
          "internalType": "bool",
          "name": "",
          "type": "bool"
        }
      ],
      "stateMutability": "view",
      "type": "function"
    },
    {
      "inputs": [],
      "name": "keepers",
      "outputs": [
        {
          "internalType": "address[]",
          "name": "",
          "type": "address[]"
        }
      ],
      "stateMutability": "view",
      "type": "function"
    },
    {
      "inputs": [],
      "name": "maxBorrowLimit",
      "outputs": [
        {
          "internalType": "uint256",
          "name": "",
          "type": "uint256"
        }
      ],
      "stateMutability": "view",
      "type": "function"
    },
    {
      "inputs": [
        {
          "internalType": "address",
          "name": "_newStrategy",
          "type": "address"
        }
      ],
      "name": "migrate",
      "outputs": [],
      "stateMutability": "nonpayable",
      "type": "function"
    },
    {
      "inputs": [],
      "name": "minBorrowLimit",
      "outputs": [
        {
          "internalType": "uint256",
          "name": "",
          "type": "uint256"
        }
      ],
      "stateMutability": "view",
      "type": "function"
    },
    {
      "inputs": [],
      "name": "pool",
      "outputs": [
        {
          "internalType": "address",
          "name": "",
          "type": "address"
        }
      ],
      "stateMutability": "view",
      "type": "function"
    },
    {
      "inputs": [],
      "name": "rebalance",
      "outputs": [
        {
          "internalType": "uint256",
          "name": "_profit",
          "type": "uint256"
        },
        {
          "internalType": "uint256",
          "name": "_loss",
          "type": "uint256"
        },
        {
          "internalType": "uint256",
          "name": "_payback",
          "type": "uint256"
        }
      ],
      "stateMutability": "nonpayable",
      "type": "function"
    },
    {
      "inputs": [],
      "name": "receiptToken",
      "outputs": [
        {
          "internalType": "address",
          "name": "",
          "type": "address"
        }
      ],
      "stateMutability": "view",
      "type": "function"
    },
    {
      "inputs": [
        {
          "internalType": "address",
          "name": "_keeperAddress",
          "type": "address"
        }
      ],
      "name": "removeKeeper",
      "outputs": [],
      "stateMutability": "nonpayable",
      "type": "function"
    },
    {
      "inputs": [],
      "name": "rewardToken",
      "outputs": [
        {
          "internalType": "address",
          "name": "",
          "type": "address"
        }
      ],
      "stateMutability": "view",
      "type": "function"
    },
    {
      "inputs": [],
      "name": "stkAAVE",
      "outputs": [
        {
          "internalType": "contract StakedAave",
          "name": "",
          "type": "address"
        }
      ],
      "stateMutability": "view",
      "type": "function"
    },
    {
      "inputs": [],
      "name": "swapper",
      "outputs": [
        {
          "internalType": "contract IRoutedSwapper",
          "name": "",
          "type": "address"
        }
      ],
      "stateMutability": "view",
      "type": "function"
    },
    {
      "inputs": [
        {
          "internalType": "address",
          "name": "_fromToken",
          "type": "address"
        }
      ],
      "name": "sweepERC20",
      "outputs": [],
      "stateMutability": "nonpayable",
      "type": "function"
    },
    {
      "inputs": [],
      "name": "token",
      "outputs": [
        {
          "internalType": "address",
          "name": "",
          "type": "address"
        }
      ],
      "stateMutability": "view",
      "type": "function"
    },
    {
      "inputs": [],
      "name": "tvl",
      "outputs": [
        {
          "internalType": "uint256",
          "name": "",
          "type": "uint256"
        }
      ],
      "stateMutability": "view",
      "type": "function"
    },
    {
      "inputs": [
        {
          "internalType": "uint256",
          "name": "_minBorrowLimit",
          "type": "uint256"
        },
        {
          "internalType": "uint256",
          "name": "_maxBorrowLimit",
          "type": "uint256"
        }
      ],
      "name": "updateBorrowLimit",
      "outputs": [],
      "stateMutability": "nonpayable",
      "type": "function"
    },
    {
      "inputs": [
        {
          "internalType": "address",
          "name": "_feeCollector",
          "type": "address"
        }
      ],
      "name": "updateFeeCollector",
      "outputs": [],
      "stateMutability": "nonpayable",
      "type": "function"
    },
    {
      "inputs": [
        {
          "internalType": "contract IRoutedSwapper",
          "name": "_swapper",
          "type": "address"
        }
      ],
      "name": "updateSwapper",
      "outputs": [],
      "stateMutability": "nonpayable",
      "type": "function"
    },
    {
      "inputs": [],
      "name": "vPool",
      "outputs": [
        {
          "internalType": "contract IVesperPool",
          "name": "",
          "type": "address"
        }
      ],
      "stateMutability": "view",
      "type": "function"
    },
    {
      "inputs": [],
      "name": "vdToken",
      "outputs": [
        {
          "internalType": "contract AToken",
          "name": "",
          "type": "address"
        }
      ],
      "stateMutability": "view",
      "type": "function"
    },
    {
      "inputs": [],
      "name": "vsp",
      "outputs": [
        {
          "internalType": "address",
          "name": "",
          "type": "address"
        }
      ],
      "stateMutability": "view",
      "type": "function"
    },
    {
      "inputs": [
        {
          "internalType": "uint256",
          "name": "_amount",
          "type": "uint256"
        }
      ],
      "name": "withdraw",
      "outputs": [],
      "stateMutability": "nonpayable",
      "type": "function"
    }
  ],
  "transactionHash": "0x7c29b1624b78dc4c4c1a8068d8bd96b5f2ce74604cf42e5a9f36c74437846c08",
  "args": [
    "0xef4F4604106de23CDadfEAE08fcC34602cB475C1",
    "0x8f156189A3CD28dFc8FB7BbbAce58F98F09c0bB3",
    "0x7Fc66500c84A76Ad7e9c93437bFc5Ac33E2DDaE9",
    "0xa06bC25B5805d5F8d82847D191Cb4Af5A3e873E0",
    "0xA0b86991c6218b36c1d19D4a2e9Eb0cE3606eB48",
    "0xa8b607Aa09B6A2E306F93e74c282Fb13f6A80452",
    "0x1b40183EFB4Dd766f11bDa7A7c3AD8982e998421",
    "AaveV2_Vesper_Xy_LINK_USDC"
  ],
  "numDeployments": 1,
  "solcInputHash": "1a89df90f0d531ba39cd97ac3d73fb47",
  "bytecode": "0x610180604052611b586007556121346008553480156200001e57600080fd5b5060405162005728380380620057288339810160408190526200004191620007ea565b878787878785828686826001600160a01b038316620000a75760405162461bcd60e51b815260206004820152601460248201527f706f6f6c2d616464726573732d69732d7a65726f00000000000000000000000060448201526064015b60405180910390fd5b6001600160a01b038216620000ff5760405162461bcd60e51b815260206004820152601760248201527f737761707065722d616464726573732d69732d7a65726f00000000000000000060448201526064016200009e565b600280546001600160a01b0319166001600160a01b0384811691909117909155831660a081905260408051637e062a3560e11b8152905163fc0c546a91600480820192602092909190829003018186803b1580156200015d57600080fd5b505afa15801562000172573d6000803e3d6000fd5b505050506040513d601f19601f820116820180604052508101906200019891906200093c565b6001600160a01b03908116608052600080546001600160a01b031916918316919091179055620001df620001c93390565b60036200067060201b62001aee1790919060201c565b620002215760405162461bcd60e51b81526020600482015260116024820152701859190b5ad9595c195c8b59985a5b1959607a1b60448201526064016200009e565b5050604080518082019091526002815261031360f41b602082015290506001600160a01b038216620002685760405162461bcd60e51b81526004016200009e919062000963565b506001600160a01b038116610120819052604080516375d2641360e01b815290516375d2641391600480820192602092909190829003018186803b158015620002b057600080fd5b505afa925050508015620002e3575060408051601f3d908101601f19168201909252620002e0918101906200093c565b60015b620002ee57620002fb565b6001600160a01b031660e0525b73b53c1a33016b2dc2ff3653530bff1848a515c8c561010081905260408051630261bf8b60e01b81529051630261bf8b91600480820192602092909190829003018186803b1580156200034d57600080fd5b505afa15801562000362573d6000803e3d6000fd5b505050506040513d601f19601f820116820180604052508101906200038891906200093c565b6001600160a01b0390811660c052610100516040516321f8a72160e01b8152600160f81b60048201529116906321f8a7219060240160206040518083038186803b158015620003d657600080fd5b505afa158015620003eb573d6000803e3d6000fd5b505050506040513d601f19601f820116820180604052508101906200041191906200093c565b600580546001600160a01b0319166001600160a01b039290921691909117905550805162000447906006906020840190620006e2565b50600980546001600160a01b0319166001600160a01b03868116919091179091556005546040516334924edb60e21b815284831660048201526000928392169063d2493b6c9060240160606040518083038186803b158015620004a957600080fd5b505afa158015620004be573d6000803e3d6000fd5b505050506040513d601f19601f82011682018060405250810190620004e4919062000998565b600b80546001600160a01b03199081166001600160a01b0393841617909155600a8054821698831698909817909755600c8054909716928116929092179095558a16151597506200058096505050505050505760405162461bcd60e51b815260206004820152601360248201527f696e76616c69642d7673702d616464726573730000000000000000000000000060448201526064016200009e565b600a5460408051637e062a3560e11b815290516001600160a01b039283169286169163fc0c546a916004808301926020929190829003018186803b158015620005c857600080fd5b505afa158015620005dd573d6000803e3d6000fd5b505050506040513d601f19601f820116820180604052508101906200060391906200093c565b6001600160a01b0316146200064f5760405162461bcd60e51b81526020600482015260116024820152701a5b9d985b1a590b59dc9bddcb5c1bdbdb607a1b60448201526064016200009e565b506001600160a01b039182166101405216610160525062000a299350505050565b600062000687836001600160a01b03841662000690565b90505b92915050565b6000818152600183016020526040812054620006d9575081546001818101845560008481526020808220909301849055845484825282860190935260409020919091556200068a565b5060006200068a565b828054620006f090620009ec565b90600052602060002090601f0160209004810192826200071457600085556200075f565b82601f106200072f57805160ff19168380011785556200075f565b828001600101855582156200075f579182015b828111156200075f57825182559160200191906001019062000742565b506200076d92915062000771565b5090565b5b808211156200076d576000815560010162000772565b6001600160a01b03811681146200079e57600080fd5b50565b634e487b7160e01b600052604160045260246000fd5b60005b83811015620007d4578181015183820152602001620007ba565b83811115620007e4576000848401525b50505050565b600080600080600080600080610100898b0312156200080857600080fd5b8851620008158162000788565b60208a0151909850620008288162000788565b60408a01519097506200083b8162000788565b60608a01519096506200084e8162000788565b60808a0151909550620008618162000788565b60a08a0151909450620008748162000788565b60c08a0151909350620008878162000788565b60e08a01519092506001600160401b0380821115620008a557600080fd5b818b0191508b601f830112620008ba57600080fd5b815181811115620008cf57620008cf620007a1565b604051601f8201601f19908116603f01168101908382118183101715620008fa57620008fa620007a1565b816040528281528e60208487010111156200091457600080fd5b62000927836020830160208801620007b7565b80955050505050509295985092959890939650565b6000602082840312156200094f57600080fd5b81516200095c8162000788565b9392505050565b602081526000825180602084015262000984816040850160208701620007b7565b601f01601f19169190910160400192915050565b600080600060608486031215620009ae57600080fd5b8351620009bb8162000788565b6020850151909350620009ce8162000788565b6040850151909250620009e18162000788565b809150509250925092565b600181811c9082168062000a0157607f821691505b6020821081141562000a2357634e487b7160e01b600052602260045260246000fd5b50919050565b60805160a05160c05160e05161010051610120516101405161016051614ac462000c64600039600081816102bf01528181610d4201528181610dd401526122d80152600081816103ba01528181610c29015281816122a201528181613327015281816133c301528181613d3201528181613e1c01528181613e4f01526143b0015260008181610bbc0152818161187e01528181611f7401528181612303015281816128b2015281816138fe01528181613b4e01528181613bfd0152613cd90152600061298301526000818161037801528181612f800152612fda0152600081816104eb01528181612eef015281816139520152818161398901528181613fab015281816141c601526142c001526000818161024d01528181610585015281816108580152818161097401528181610a5201528181610aae01528181610f6001528181610ffd01528181611229015281816113f20152818161192b01528181611d1501528181611db501528181612200015261404101526000818161042e0152818161049e015281816108b701528181610952015281816109c601528181610a8501528181610df50152818161118d01528181611624015281816117e201528181611e7501528181611fff0152818161212201528181612aaf01528181612b8701528181612c0f01528181612f56015281816134b30152818161356d0152818161363901528181613767015281816137a6015281816138dc01528181613930015281816139bf01528181613f43015261401f0152614ac46000f3fe608060405234801561001057600080fd5b50600436106102125760003560e01c8063951dc22c11610120578063e00af4a7116100b8578063f51896f81161007c578063f51896f814610520578063f7c618c114610528578063fb7ee1021461053b578063fc0c546a1461054e578063ffa1ad741461055f57600080fd5b8063e00af4a7146104c2578063e260d747146104d5578063e5328e06146104de578063e9d337b8146104e6578063ec78e8321461050d57600080fd5b8063951dc22c146103f757806399b71d5c1461040c578063a3f4df7e14610414578063b2016bd414610429578063c415b95c14610450578063ce5494bb14610463578063d2c35ce814610476578063d3033c3914610489578063d8dfeb451461049c57600080fd5b8063440d7248116101ae5780635f9d4d2e116101725780635f9d4d2e1461039a57806360a05a85146103ad5780636719578c146103b55780637d7c2a1c146103dc57806390d67514146103e457600080fd5b8063440d72481461031a578063456dc17a1461033d57806348ccda3c146103505780634fc90c2c1461036b5780635f2475ca1461037357600080fd5b80630181686c1461021757806314ae9f2e1461023357806316f0115b146102485780631fc29c011461027c57806321fc6bb01461029757806329ba73ed146102ba5780632b3297f9146102e15780632e1a7d4d146102f45780634032b72b14610307575b600080fd5b61022060085481565b6040519081526020015b60405180910390f35b610246610241366004614435565b610583565b005b61026f7f000000000000000000000000000000000000000000000000000000000000000081565b60405161022a9190614452565b61026f734da27a545c0c5b758a6ba100e3a049001de870f581565b61029f61069e565b6040805193845260208401929092529082015260600161022a565b61026f7f000000000000000000000000000000000000000000000000000000000000000081565b60025461026f906001600160a01b031681565b610246610302366004614466565b610855565b610246610315366004614435565b610aac565b61032d610328366004614435565b610bb8565b604051901515815260200161022a565b600a5461026f906001600160a01b031681565b61026f737fc66500c84a76ad7e9c93437bfc5ac33e2ddae981565b610246610c25565b61026f7f000000000000000000000000000000000000000000000000000000000000000081565b60055461026f906001600160a01b031681565b61032d610e1f565b61026f7f000000000000000000000000000000000000000000000000000000000000000081565b61029f610e42565b600b5461026f906001600160a01b031681565b6103ff610e82565b60405161022a91906144c3565b610246610e93565b61041c610ecf565b60405161022a9190614502565b61026f7f000000000000000000000000000000000000000000000000000000000000000081565b60015461026f906001600160a01b031681565b610246610471366004614435565b610f5d565b610246610484366004614435565b611227565b610246610497366004614435565b6113f0565b7f000000000000000000000000000000000000000000000000000000000000000061026f565b6102466104d0366004614435565b6115ad565b61022060075481565b6102206117c8565b61026f7f000000000000000000000000000000000000000000000000000000000000000081565b60005461026f906001600160a01b031681565b61032d61190d565b60095461026f906001600160a01b031681565b610246610549366004614535565b611929565b6000546001600160a01b031661026f565b61041c604051806040016040528060058152602001640352e302e360dc1b81525081565b7f00000000000000000000000000000000000000000000000000000000000000006001600160a01b0316630c340a246040518163ffffffff1660e01b815260040160206040518083038186803b1580156105dc57600080fd5b505afa1580156105f0573d6000803e3d6000fd5b505050506040513d601f19601f820116820180604052508101906106149190614557565b6001600160a01b0316336001600160a01b03161461064d5760405162461bcd60e51b815260040161064490614574565b60405180910390fd5b610658600382611b0a565b61069b5760405162461bcd60e51b81526020600482015260146024820152731c995b5bdd994b5ad9595c195c8b59985a5b195960621b6044820152606401610644565b50565b60405163091030c360e01b815260009081908190734da27a545c0c5b758a6ba100e3a049001de870f59063091030c3906106dc903090600401614452565b60206040518083038186803b1580156106f457600080fd5b505afa158015610708573d6000803e3d6000fd5b505050506040513d601f19601f8201168201806040525081019061072c91906145ab565b9250734da27a545c0c5b758a6ba100e3a049001de870f56001600160a01b03166372b49d636040518163ffffffff1660e01b815260040160206040518083038186803b15801561077b57600080fd5b505afa15801561078f573d6000803e3d6000fd5b505050506040513d601f19601f820116820180604052508101906107b391906145ab565b6107bd90846145da565b9150734da27a545c0c5b758a6ba100e3a049001de870f56001600160a01b031663359c4a966040518163ffffffff1660e01b815260040160206040518083038186803b15801561080c57600080fd5b505afa158015610820573d6000803e3d6000fd5b505050506040513d601f19601f8201168201806040525081019061084491906145ab565b61084e90836145da565b9050909192565b337f00000000000000000000000000000000000000000000000000000000000000006001600160a01b03161461089d5760405162461bcd60e51b8152600401610644906145f2565b6040516370a0823160e01b81526000906001600160a01b037f000000000000000000000000000000000000000000000000000000000000000016906370a08231906108ec903090600401614452565b60206040518083038186803b15801561090457600080fd5b505afa158015610918573d6000803e3d6000fd5b505050506040513d601f19601f8201168201806040525081019061093c91906145ab565b905081811061099d576109996001600160a01b037f0000000000000000000000000000000000000000000000000000000000000000167f000000000000000000000000000000000000000000000000000000000000000084611b1f565b5050565b6109af6109aa8284614625565b611b75565b6040516370a0823160e01b81526001600160a01b037f000000000000000000000000000000000000000000000000000000000000000016906370a08231906109fb903090600401614452565b60206040518083038186803b158015610a1357600080fd5b505afa158015610a27573d6000803e3d6000fd5b505050506040513d601f19601f82011682018060405250810190610a4b91906145ab565b90506109997f0000000000000000000000000000000000000000000000000000000000000000610a7b8484611b9d565b6001600160a01b037f0000000000000000000000000000000000000000000000000000000000000000169190611b1f565b7f00000000000000000000000000000000000000000000000000000000000000006001600160a01b0316630c340a246040518163ffffffff1660e01b815260040160206040518083038186803b158015610b0557600080fd5b505afa158015610b19573d6000803e3d6000fd5b505050506040513d601f19601f82011682018060405250810190610b3d9190614557565b6001600160a01b0316336001600160a01b031614610b6d5760405162461bcd60e51b815260040161064490614574565b610b78600382611aee565b61069b5760405162461bcd60e51b81526020600482015260116024820152701859190b5ad9595c195c8b59985a5b1959607a1b6044820152606401610644565b60007f00000000000000000000000000000000000000000000000000000000000000006001600160a01b0316826001600160a01b03161480610c075750600b546001600160a01b038381169116145b80610c1f5750600a546001600160a01b038381169116145b92915050565b60007f00000000000000000000000000000000000000000000000000000000000000006001600160a01b0316638bc6beb26040518163ffffffff1660e01b815260040160206040518083038186803b158015610c8057600080fd5b505afa158015610c94573d6000803e3d6000fd5b505050506040513d601f19601f82011682018060405250810190610cb89190614557565b90506001600160a01b03811615610d285760405163d279c19160e01b81526001600160a01b0382169063d279c19190610cf5903090600401614452565b600060405180830381600087803b158015610d0f57600080fd5b505af1158015610d23573d6000803e3d6000fd5b505050505b6040516370a0823160e01b81526000906001600160a01b037f000000000000000000000000000000000000000000000000000000000000000016906370a0823190610d77903090600401614452565b60206040518083038186803b158015610d8f57600080fd5b505afa158015610da3573d6000803e3d6000fd5b505050506040513d601f19601f82011682018060405250810190610dc791906145ab565b9050801561099957610e1a7f00000000000000000000000000000000000000000000000000000000000000007f000000000000000000000000000000000000000000000000000000000000000083611bb3565b505050565b6000806000610e2c61069e565b9250509150610e3b8282611c47565b9250505090565b60008080610e53335b600390611ceb565b610e6f5760405162461bcd60e51b81526004016106449061463c565b610e77611d0d565b925092509250909192565b6060610e8e600361227a565b905090565b610e9c33610e4b565b610eb85760405162461bcd60e51b81526004016106449061463c565b610ec26000612287565b610ecd600019612287565b565b60068054610edc9061466c565b80601f0160208091040260200160405190810160405280929190818152602001828054610f089061466c565b8015610f555780601f10610f2a57610100808354040283529160200191610f55565b820191906000526020600020905b815481529060010190602001808311610f3857829003601f168201915b505050505081565b337f00000000000000000000000000000000000000000000000000000000000000006001600160a01b031614610fa55760405162461bcd60e51b8152600401610644906145f2565b6001600160a01b038116610ffb5760405162461bcd60e51b815260206004820152601c60248201527f6e65772d73747261746567792d616464726573732d69732d7a65726f000000006044820152606401610644565b7f00000000000000000000000000000000000000000000000000000000000000006001600160a01b0316816001600160a01b03166316f0115b6040518163ffffffff1660e01b815260040160206040518083038186803b15801561105e57600080fd5b505afa158015611072573d6000803e3d6000fd5b505050506040513d601f19601f820116820180604052508101906110969190614557565b6001600160a01b0316146110e55760405162461bcd60e51b81526020600482015260166024820152756e6f742d76616c69642d6e65772d737472617465677960501b6044820152606401610644565b6110ee81612301565b6000546040516370a0823160e01b81526111879183916001600160a01b03909116906370a0823190611124903090600401614452565b60206040518083038186803b15801561113c57600080fd5b505afa158015611150573d6000803e3d6000fd5b505050506040513d601f19601f8201168201806040525081019061117491906145ab565b6000546001600160a01b03169190611b1f565b61069b817f00000000000000000000000000000000000000000000000000000000000000006001600160a01b03166370a08231306040518263ffffffff1660e01b81526004016111d79190614452565b60206040518083038186803b1580156111ef57600080fd5b505afa158015611203573d6000803e3d6000fd5b505050506040513d601f19601f82011682018060405250810190610a7b91906145ab565b7f00000000000000000000000000000000000000000000000000000000000000006001600160a01b0316630c340a246040518163ffffffff1660e01b815260040160206040518083038186803b15801561128057600080fd5b505afa158015611294573d6000803e3d6000fd5b505050506040513d601f19601f820116820180604052508101906112b89190614557565b6001600160a01b0316336001600160a01b0316146112e85760405162461bcd60e51b815260040161064490614574565b6001600160a01b03811661133e5760405162461bcd60e51b815260206004820152601d60248201527f6665652d636f6c6c6563746f722d616464726573732d69732d7a65726f0000006044820152606401610644565b6001546001600160a01b03828116911614156113945760405162461bcd60e51b81526020600482015260156024820152746665652d636f6c6c6563746f722d69732d73616d6560581b6044820152606401610644565b6001546040516001600160a01b038084169216907f0f06062680f9bd68e786e9980d9bb03d73d5620fc3b345e417b6eacb310b970690600090a3600180546001600160a01b0319166001600160a01b0392909216919091179055565b7f00000000000000000000000000000000000000000000000000000000000000006001600160a01b0316630c340a246040518163ffffffff1660e01b815260040160206040518083038186803b15801561144957600080fd5b505afa15801561145d573d6000803e3d6000fd5b505050506040513d601f19601f820116820180604052508101906114819190614557565b6001600160a01b0316336001600160a01b0316146114b15760405162461bcd60e51b815260040161064490614574565b6001600160a01b0381166115015760405162461bcd60e51b8152602060048201526017602482015276737761707065722d616464726573732d69732d7a65726f60481b6044820152606401610644565b6002546001600160a01b03828116911614156115515760405162461bcd60e51b815260206004820152600f60248201526e737761707065722d69732d73616d6560881b6044820152606401610644565b6002546040516001600160a01b038084169216907f6c953b7ec311055c20b96a42cea31e89528e375b1bf953a503db40854b3188fe90600090a3600280546001600160a01b0319166001600160a01b0392909216919091179055565b6115b633610e4b565b6115d25760405162461bcd60e51b81526004016106449061463c565b6001546001600160a01b03166116225760405162461bcd60e51b81526020600482015260156024820152741999594b58dbdb1b1958dd1bdc8b5b9bdd0b5cd95d605a1b6044820152606401610644565b7f00000000000000000000000000000000000000000000000000000000000000006001600160a01b0316816001600160a01b031614156116a45760405162461bcd60e51b815260206004820152601f60248201527f6e6f742d616c6c6f7765642d746f2d73776565702d636f6c6c61746572616c006044820152606401610644565b6116ad81610bb8565b156116f15760405162461bcd60e51b815260206004820152601460248201527306e6f742d616c6c6f7765642d746f2d73776565760641b6044820152606401610644565b6001600160a01b03811673eeeeeeeeeeeeeeeeeeeeeeeeeeeeeeeeeeeeeeee141561172c5760015461069b906001600160a01b03164761246f565b6040516370a0823160e01b81526000906001600160a01b038316906370a082319061175b903090600401614452565b60206040518083038186803b15801561177357600080fd5b505afa158015611787573d6000803e3d6000fd5b505050506040513d601f19601f820116820180604052508101906117ab91906145ab565b600154909150610999906001600160a01b03848116911683611b1f565b6040516370a0823160e01b81526000906001600160a01b037f000000000000000000000000000000000000000000000000000000000000000016906370a0823190611817903090600401614452565b60206040518083038186803b15801561182f57600080fd5b505afa158015611843573d6000803e3d6000fd5b505050506040513d601f19601f8201168201806040525081019061186791906145ab565b6040516370a0823160e01b81526001600160a01b037f000000000000000000000000000000000000000000000000000000000000000016906370a08231906118b3903090600401614452565b60206040518083038186803b1580156118cb57600080fd5b505afa1580156118df573d6000803e3d6000fd5b505050506040513d601f19601f8201168201806040525081019061190391906145ab565b610e8e91906145da565b600080600061191a61069e565b9250925050610e3b8282612588565b7f00000000000000000000000000000000000000000000000000000000000000006001600160a01b0316630c340a246040518163ffffffff1660e01b815260040160206040518083038186803b15801561198257600080fd5b505afa158015611996573d6000803e3d6000fd5b505050506040513d601f19601f820116820180604052508101906119ba9190614557565b6001600160a01b0316336001600160a01b0316146119ea5760405162461bcd60e51b815260040161064490614574565b6127108110611a365760405162461bcd60e51b81526020600482015260186024820152771a5b9d985b1a590b5b585e0b589bdc9c9bddcb5b1a5b5a5d60421b6044820152606401610644565b80158015611a42575081155b80611a4c57508181115b611a985760405162461bcd60e51b815260206004820152601d60248201527f6d61782d73686f756c642d62652d6869676865722d7468616e2d6d696e0000006044820152606401610644565b6007546008546040805192835260208301859052820152606081018290527fedd77444afdf63401315e81ffe86d08f7865796e8ad2e11acf1d56a1393f07d59060800160405180910390a1600791909155600855565b6000611b03836001600160a01b03841661259d565b9392505050565b6000611b03836001600160a01b0384166125ec565b610e1a8363a9059cbb60e01b8484604051602401611b3e9291906146a7565b60408051601f198184030181529190526020810180516001600160e01b03166001600160e01b0319909316929092179091526126df565b6000611b826000836127b1565b9150508015611b9457611b9481612eb0565b61099982612f51565b6000818310611bac5781611b03565b5090919050565b600254604051636ccb2b0160e01b81526000916001600160a01b031690636ccb2b0190611bed9087908790879060019030906004016146c0565b602060405180830381600087803b158015611c0757600080fd5b505af1158015611c1b573d6000803e3d6000fd5b505050506040513d601f19601f82011682018060405250810190611c3f91906145ab565b949350505050565b6040516370a0823160e01b81526000908190734da27a545c0c5b758a6ba100e3a049001de870f5906370a0823190611c83903090600401614452565b60206040518083038186803b158015611c9b57600080fd5b505afa158015611caf573d6000803e3d6000fd5b505050506040513d601f19601f82011682018060405250810190611cd391906145ab565b118015611b035750821580611b035750504211919050565b6001600160a01b03811660009081526001830160205260408120541515611b03565b6000806000807f00000000000000000000000000000000000000000000000000000000000000006001600160a01b031663d53ddc26306040518263ffffffff1660e01b8152600401611d5f9190614452565b60206040518083038186803b158015611d7757600080fd5b505afa158015611d8b573d6000803e3d6000fd5b505050506040513d601f19601f82011682018060405250810190611daf91906145ab565b905060007f00000000000000000000000000000000000000000000000000000000000000006001600160a01b0316639f2b2833306040518263ffffffff1660e01b8152600401611dff9190614452565b60206040518083038186803b158015611e1757600080fd5b505afa158015611e2b573d6000803e3d6000fd5b505050506040513d601f19601f82011682018060405250810190611e4f91906145ab565b90506000611e5b612f7c565b90508015611e9a57600954611e9a906001600160a01b03167f000000000000000000000000000000000000000000000000000000000000000083613288565b600b546040516370a0823160e01b81526000916001600160a01b0316906370a0823190611ecb903090600401614452565b60206040518083038186803b158015611ee357600080fd5b505afa158015611ef7573d6000803e3d6000fd5b505050506040513d601f19601f82011682018060405250810190611f1b91906145ab565b90506000611f2761331a565b905080821115611f4857611f43611f3e8284614625565b613496565b611f5a565b611f5a611f558383614625565b6136bd565b6040516370a0823160e01b81526000906001600160a01b037f000000000000000000000000000000000000000000000000000000000000000016906370a0823190611fa9903090600401614452565b60206040518083038186803b158015611fc157600080fd5b505afa158015611fd5573d6000803e3d6000fd5b505050506040513d601f19601f82011682018060405250810190611ff991906145ab565b905060007f00000000000000000000000000000000000000000000000000000000000000006001600160a01b03166370a08231306040518263ffffffff1660e01b81526004016120499190614452565b60206040518083038186803b15801561206157600080fd5b505afa158015612075573d6000803e3d6000fd5b505050506040513d601f19601f8201168201806040525081019061209991906145ab565b905060006120a782846145da565b9050868111156120c2576120bb8782614625565b9a506120cf565b6120cc8188614625565b99505b60006120db898d6145da565b9050808310156121ac5760006120fa6120f48584614625565b86611b9d565b905080156121aa5761210b81611b75565b6040516370a0823160e01b81526001600160a01b037f000000000000000000000000000000000000000000000000000000000000000016906370a0823190612157903090600401614452565b60206040518083038186803b15801561216f57600080fd5b505afa158015612183573d6000803e3d6000fd5b505050506040513d601f19601f820116820180604052508101906121a791906145ab565b93505b505b6121b6838a611b9d565b99508983116121c65760006121d9565b6121d96121d38b85614625565b8d611b9d565b6040516302df682360e11b815260048101829052602481018d9052604481018c9052909c507f00000000000000000000000000000000000000000000000000000000000000006001600160a01b0316906305bed04690606401600060405180830381600087803b15801561224c57600080fd5b505af1158015612260573d6000803e3d6000fd5b5050505061226c61378c565b505050505050505050909192565b60606000611b038361386a565b612290816138c6565b600a546122c7906001600160a01b03167f000000000000000000000000000000000000000000000000000000000000000083613a1e565b60025461069b906001600160a01b037f00000000000000000000000000000000000000000000000000000000000000008116911683613a1e565b7f00000000000000000000000000000000000000000000000000000000000000006001600160a01b0316816001600160a01b031663fc0c546a6040518163ffffffff1660e01b815260040160206040518083038186803b15801561236457600080fd5b505afa158015612378573d6000803e3d6000fd5b505050506040513d601f19601f8201168201806040525081019061239c9190614557565b6001600160a01b0316146123e85760405162461bcd60e51b81526020600482015260136024820152723bb937b73396b932b1b2b4b83a16ba37b5b2b760691b6044820152606401610644565b600b546040516370a0823160e01b815261069b916001600160a01b0316906370a082319061241a903090600401614452565b60206040518083038186803b15801561243257600080fd5b505afa158015612446573d6000803e3d6000fd5b505050506040513d601f19601f8201168201806040525081019061246a91906145ab565b612eb0565b804710156124bf5760405162461bcd60e51b815260206004820152601d60248201527f416464726573733a20696e73756666696369656e742062616c616e63650000006044820152606401610644565b6000826001600160a01b03168260405160006040518083038185875af1925050503d806000811461250c576040519150601f19603f3d011682016040523d82523d6000602084013e612511565b606091505b5050905080610e1a5760405162461bcd60e51b815260206004820152603a60248201527f416464726573733a20756e61626c6520746f2073656e642076616c75652c207260448201527f6563697069656e74206d617920686176652072657665727465640000000000006064820152608401610644565b60008242118015611b03575050421115919050565b60008181526001830160205260408120546125e457508154600181810184556000848152602080822090930184905584548482528286019093526040902091909155610c1f565b506000610c1f565b600081815260018301602052604081205480156126d5576000612610600183614625565b855490915060009061262490600190614625565b9050818114612689576000866000018281548110612644576126446146f0565b9060005260206000200154905080876000018481548110612667576126676146f0565b6000918252602080832090910192909255918252600188019052604090208390555b855486908061269a5761269a614706565b600190038181906000526020600020016000905590558560010160008681526020019081526020016000206000905560019350505050610c1f565b6000915050610c1f565b6000612734826040518060400160405280602081526020017f5361666545524332303a206c6f772d6c6576656c2063616c6c206661696c6564815250856001600160a01b0316613b319092919063ffffffff16565b805190915015610e1a57808060200190518101906127529190614731565b610e1a5760405162461bcd60e51b815260206004820152602a60248201527f5361666545524332303a204552433230206f7065726174696f6e20646964206e6044820152691bdd081cdd58d8d9595960b21b6064820152608401610644565b6000808315806127bf575082155b6127ff5760405162461bcd60e51b8152602060048201526011602482015270616c6c2d696e7075742d67742d7a65726f60781b6044820152606401610644565b600b546040516370a0823160e01b81526000916001600160a01b0316906370a0823190612830903090600401614452565b60206040518083038186803b15801561284857600080fd5b505afa15801561285c573d6000803e3d6000fd5b505050506040513d601f19601f8201168201806040525081019061288091906145ab565b90506008546000141561289857600092509050612ea9565b6040516370a0823160e01b81526000906001600160a01b037f000000000000000000000000000000000000000000000000000000000000000016906370a08231906128e7903090600401614452565b60206040518083038186803b1580156128ff57600080fd5b505afa158015612913573d6000803e3d6000fd5b505050506040513d601f19601f8201168201806040525081019061293791906145ab565b9050600080871161295f57858211612950576000612969565b61295a8683614625565b612969565b61296987836145da565b90508061297f5760008394509450505050612ea9565b60007f00000000000000000000000000000000000000000000000000000000000000006001600160a01b031663fca513a86040518163ffffffff1660e01b815260040160206040518083038186803b1580156129da57600080fd5b505afa1580156129ee573d6000803e3d6000fd5b505050506040513d601f19601f82011682018060405250810190612a129190614557565b600a5460405163b3596f0760e01b81529192506000916001600160a01b038085169263b3596f0792612a4a9290911690600401614452565b60206040518083038186803b158015612a6257600080fd5b505afa158015612a76573d6000803e3d6000fd5b505050506040513d601f19601f82011682018060405250810190612a9a91906145ab565b90506000826001600160a01b031663b3596f077f00000000000000000000000000000000000000000000000000000000000000006040518263ffffffff1660e01b8152600401612aea9190614452565b60206040518083038186803b158015612b0257600080fd5b505afa158015612b16573d6000803e3d6000fd5b505050506040513d601f19601f82011682018060405250810190612b3a91906145ab565b9050811580612b47575080155b15612b5e5760008697509750505050505050612ea9565b600554604051633e15014160e01b81526000916001600160a01b031690633e15014190612baf907f000000000000000000000000000000000000000000000000000000000000000090600401614452565b6101406040518083038186803b158015612bc857600080fd5b505afa158015612bdc573d6000803e3d6000fd5b505050506040513d601f19601f82011682018060405250810190612c00919061474c565b505050505050505091505060007f00000000000000000000000000000000000000000000000000000000000000006001600160a01b031663313ce5676040518163ffffffff1660e01b815260040160206040518083038186803b158015612c6657600080fd5b505afa158015612c7a573d6000803e3d6000fd5b505050506040513d601f19601f82011682018060405250810190612c9e91906147e3565b612ca990600a6148ea565b612cb5906127106148f9565b83612cc084896148f9565b612cca91906148f9565b612cd49190614918565b9050600084600a60009054906101000a90046001600160a01b03166001600160a01b031663313ce5676040518163ffffffff1660e01b815260040160206040518083038186803b158015612d2757600080fd5b505afa158015612d3b573d6000803e3d6000fd5b505050506040513d601f19601f82011682018060405250810190612d5f91906147e3565b612d6a90600a6148ea565b612d7490846148f9565b612d7e9190614918565b905080612d9a576000899a509a50505050505050505050612ea9565b600061271060085483612dad91906148f9565b612db79190614918565b9050600061271060075484612dcc91906148f9565b612dd69190614918565b9050818b1115612df157612dea818c614625565b9b50612e9d565b8a811115612e9d57612e038b82614625565b600a54600c546040516370a0823160e01b8152929f506000926001600160a01b03928316926370a0823192612e3d92911690600401614452565b60206040518083038186803b158015612e5557600080fd5b505afa158015612e69573d6000803e3d6000fd5b505050506040513d601f19601f82011682018060405250810190612e8d91906145ab565b9050808e1115612e9b57809d505b505b50505050505050505050505b9250929050565b612eb981613b40565b600a5460405163573ade8160e01b81526001600160a01b03918216600482015260248101839052600260448201523060648201527f00000000000000000000000000000000000000000000000000000000000000009091169063573ade81906084015b600060405180830381600087803b158015612f3657600080fd5b505af1158015612f4a573d6000803e3d6000fd5b5050505050565b6109997f00000000000000000000000000000000000000000000000000000000000000003083613b49565b60007f00000000000000000000000000000000000000000000000000000000000000006001600160a01b0316612fb25750600090565b6000806000612fbf61069e565b9250925092508260001480612fd357508042115b15613085577f00000000000000000000000000000000000000000000000000000000000000006001600160a01b0316633111e7b361300f613cb1565b600019306040518463ffffffff1660e01b81526004016130319392919061493a565b602060405180830381600087803b15801561304b57600080fd5b505af115801561305f573d6000803e3d6000fd5b505050506040513d601f19601f8201168201806040525081019061308391906145ab565b505b61308d61069e565b9194509250905061309e8282612588565b15613115576040516301e9a69560e41b8152734da27a545c0c5b758a6ba100e3a049001de870f590631e9a6950906130de903090600019906004016146a7565b600060405180830381600087803b1580156130f857600080fd5b505af115801561310c573d6000803e3d6000fd5b5050505061318c565b61311f8382611c47565b1561318c57734da27a545c0c5b758a6ba100e3a049001de870f56001600160a01b031663787a08a66040518163ffffffff1660e01b8152600401600060405180830381600087803b15801561317357600080fd5b505af1158015613187573d6000803e3d6000fd5b505050505b6040516309a99b4f60e41b8152734da27a545c0c5b758a6ba100e3a049001de870f590639a99b4f0906131c7903090600019906004016146a7565b600060405180830381600087803b1580156131e157600080fd5b505af11580156131f5573d6000803e3d6000fd5b50506040516370a0823160e01b8152737fc66500c84a76ad7e9c93437bfc5ac33e2ddae992506370a082319150613230903090600401614452565b60206040518083038186803b15801561324857600080fd5b505afa15801561325c573d6000803e3d6000fd5b505050506040513d601f19601f8201168201806040525081019061328091906145ab565b935050505090565b600254604051636ccb2b0160e01b81526001600160a01b0390911690636ccb2b01906132c19086908690869060019030906004016146c0565b602060405180830381600087803b1580156132db57600080fd5b505af192505050801561330b575060408051601f3d908101601f19168201909252613308918101906145ab565b60015b61331457505050565b50505050565b6000670de0b6b3a76400007f00000000000000000000000000000000000000000000000000000000000000006001600160a01b03166370a08231306040518263ffffffff1660e01b81526004016133719190614452565b60206040518083038186803b15801561338957600080fd5b505afa15801561339d573d6000803e3d6000fd5b505050506040513d601f19601f820116820180604052508101906133c191906145ab565b7f00000000000000000000000000000000000000000000000000000000000000006001600160a01b03166399530b066040518163ffffffff1660e01b815260040160206040518083038186803b15801561341a57600080fd5b505afa15801561342e573d6000803e3d6000fd5b505050506040513d601f19601f8201168201806040525081019061345291906145ab565b61345c91906148f9565b6134669190614918565b600a546040516370a0823160e01b81526001600160a01b03909116906370a08231906118b3903090600401614452565b600254600a546040516353b609b560e01b81526001600160a01b037f00000000000000000000000000000000000000000000000000000000000000008116600483015291821660248201526044810184905260009291909116906353b609b590606401602060405180830381600087803b15801561351357600080fd5b505af1158015613527573d6000803e3d6000fd5b505050506040513d601f19601f8201168201806040525081019061354b91906145ab565b90508015610999576040516370a0823160e01b81526000906001600160a01b037f000000000000000000000000000000000000000000000000000000000000000016906370a08231906135a2903090600401614452565b60206040518083038186803b1580156135ba57600080fd5b505afa1580156135ce573d6000803e3d6000fd5b505050506040513d601f19601f820116820180604052508101906135f291906145ab565b90508082111561360e5761360e6136098284614625565b612f51565b600254600a546040516381cc619b60e01b81526001600160a01b03928316926381cc619b9261366b927f000000000000000000000000000000000000000000000000000000000000000092909116908890889030906004016146c0565b602060405180830381600087803b15801561368557600080fd5b505af1158015613699573d6000803e3d6000fd5b505050506040513d601f19601f8201168201806040525081019061331491906145ab565b801561069b576136cc81613d28565b600a546040516370a0823160e01b81526000916001600160a01b0316906370a08231906136fd903090600401614452565b60206040518083038186803b15801561371557600080fd5b505afa158015613729573d6000803e3d6000fd5b505050506040513d601f19601f8201168201806040525081019061374d91906145ab565b9050801561099957600a54610999906001600160a01b03167f000000000000000000000000000000000000000000000000000000000000000083613288565b6040516370a0823160e01b81526000906001600160a01b037f000000000000000000000000000000000000000000000000000000000000000016906370a08231906137db903090600401614452565b60206040518083038186803b1580156137f357600080fd5b505afa158015613807573d6000803e3d6000fd5b505050506040513d601f19601f8201168201806040525081019061382b91906145ab565b905060008061383b8360006127b1565b909250905080156138585761384f81612eb0565b610e1a83613f3e565b61386183613f3e565b610e1a82613f68565b6060816000018054806020026020016040519081016040528092919081815260200182805480156138ba57602002820191906000526020600020905b8154815260200190600101908083116138a6575b50505050509050919050565b6138cf81614012565b6139236001600160a01b037f0000000000000000000000000000000000000000000000000000000000000000167f000000000000000000000000000000000000000000000000000000000000000083613a1e565b6139776001600160a01b037f0000000000000000000000000000000000000000000000000000000000000000167f000000000000000000000000000000000000000000000000000000000000000083613a1e565b600a546139ae906001600160a01b03167f000000000000000000000000000000000000000000000000000000000000000083613a1e565b6002546139e8906001600160a01b037f00000000000000000000000000000000000000000000000000000000000000008116911683613a1e565b600254600954613a05916001600160a01b03918216911683613a1e565b600254600a5461069b916001600160a01b039182169116835b801580613aa75750604051636eb1769f60e11b81523060048201526001600160a01b03838116602483015284169063dd62ed3e9060440160206040518083038186803b158015613a6d57600080fd5b505afa158015613a81573d6000803e3d6000fd5b505050506040513d601f19601f82011682018060405250810190613aa591906145ab565b155b613b125760405162461bcd60e51b815260206004820152603660248201527f5361666545524332303a20617070726f76652066726f6d206e6f6e2d7a65726f60448201527520746f206e6f6e2d7a65726f20616c6c6f77616e636560501b6064820152608401610644565b610e1a8363095ea7b360e01b8484604051602401611b3e9291906146a7565b6060611c3f8484600085614066565b61069b81613d28565b6000807f00000000000000000000000000000000000000000000000000000000000000006001600160a01b03166370a08231306040518263ffffffff1660e01b8152600401613b989190614452565b60206040518083038186803b158015613bb057600080fd5b505afa158015613bc4573d6000803e3d6000fd5b505050506040513d601f19601f82011682018060405250810190613be891906145ab565b90506000856001600160a01b03166370a082317f00000000000000000000000000000000000000000000000000000000000000006040518263ffffffff1660e01b8152600401613c389190614452565b60206040518083038186803b158015613c5057600080fd5b505afa158015613c64573d6000803e3d6000fd5b505050506040513d601f19601f82011682018060405250810190613c8891906145ab565b9050613ca78686613ca287613c9d8787611b9d565b611b9d565b61418e565b9695505050505050565b60408051600180825281830190925260609160009190602080830190803683370190505090507f000000000000000000000000000000000000000000000000000000000000000081600081518110613d0b57613d0b6146f0565b6001600160a01b0390921660209283029190910190910152919050565b801561069b5760007f00000000000000000000000000000000000000000000000000000000000000006001600160a01b03166399530b066040518163ffffffff1660e01b815260040160206040518083038186803b158015613d8957600080fd5b505afa158015613d9d573d6000803e3d6000fd5b505050506040513d601f19601f82011682018060405250810190613dc191906145ab565b9050600081613dd884670de0b6b3a76400006148f9565b613de29190614918565b9050670de0b6b3a7640000613df783836148f9565b613e019190614918565b8311613e0d5780613e18565b613e188160016145da565b90507f00000000000000000000000000000000000000000000000000000000000000006001600160a01b0316632e1a7d4d613ee9837f00000000000000000000000000000000000000000000000000000000000000006001600160a01b03166370a08231306040518263ffffffff1660e01b8152600401613e999190614452565b60206040518083038186803b158015613eb157600080fd5b505afa158015613ec5573d6000803e3d6000fd5b505050506040513d601f19601f82011682018060405250810190613c9d91906145ab565b6040518263ffffffff1660e01b8152600401613f0791815260200190565b600060405180830381600087803b158015613f2157600080fd5b505af1158015613f35573d6000803e3d6000fd5b50505050505050565b61069b7f000000000000000000000000000000000000000000000000000000000000000082614287565b801561069b57600a5460405163a415bcad60e01b81526001600160a01b0391821660048201526024810183905260026044820152600060648201523060848201527f00000000000000000000000000000000000000000000000000000000000000009091169063a415bcad9060a401600060405180830381600087803b158015613ff157600080fd5b505af1158015614005573d6000803e3d6000fd5b5050505061069b8161439a565b61069b6001600160a01b037f0000000000000000000000000000000000000000000000000000000000000000167f000000000000000000000000000000000000000000000000000000000000000083613a1e565b6060824710156140c75760405162461bcd60e51b815260206004820152602660248201527f416464726573733a20696e73756666696369656e742062616c616e636520666f6044820152651c8818d85b1b60d21b6064820152608401610644565b843b6141155760405162461bcd60e51b815260206004820152601d60248201527f416464726573733a2063616c6c20746f206e6f6e2d636f6e74726163740000006044820152606401610644565b600080866001600160a01b03168587604051614131919061496d565b60006040518083038185875af1925050503d806000811461416e576040519150601f19603f3d011682016040523d82523d6000602084013e614173565b606091505b50915091506141838282866143e7565b979650505050505050565b6000811561428057604051631a4ca37b60e21b81526001600160a01b03858116600483015260248201849052848116604483015283917f0000000000000000000000000000000000000000000000000000000000000000909116906369328dec90606401602060405180830381600087803b15801561420c57600080fd5b505af1158015614220573d6000803e3d6000fd5b505050506040513d601f19601f8201168201806040525081019061424491906145ab565b1460405180604001604052806002815260200161323960f01b8152509061427e5760405162461bcd60e51b81526004016106449190614502565b505b5092915050565b80156109995760405163e8eda9df60e01b81526001600160a01b03838116600483015260248201839052306044830152600060648301527f0000000000000000000000000000000000000000000000000000000000000000169063e8eda9df90608401600060405180830381600087803b15801561430457600080fd5b505af1925050508015614315575060015b61099957614321614989565b806308c379a0141561438e57506143366149e0565b806143415750614390565b61434a81614a6a565b611a9b60f11b14610e1a5760405162461bcd60e51b815260206004820152600e60248201526d19195c1bdcda5d0819985a5b195960921b6044820152606401610644565b505b3d6000803e3d6000fd5b60405163b6b55f2560e01b8152600481018290527f00000000000000000000000000000000000000000000000000000000000000006001600160a01b03169063b6b55f2590602401612f1c565b606083156143f6575081611b03565b8251156144065782518084602001fd5b8160405162461bcd60e51b81526004016106449190614502565b6001600160a01b038116811461069b57600080fd5b60006020828403121561444757600080fd5b8135611b0381614420565b6001600160a01b0391909116815260200190565b60006020828403121561447857600080fd5b5035919050565b600081518084526020808501945080840160005b838110156144b85781516001600160a01b031687529582019590820190600101614493565b509495945050505050565b602081526000611b03602083018461447f565b60005b838110156144f15781810151838201526020016144d9565b838111156133145750506000910152565b60208152600082518060208401526145218160408501602087016144d6565b601f01601f19169190910160400192915050565b6000806040838503121561454857600080fd5b50508035926020909101359150565b60006020828403121561456957600080fd5b8151611b0381614420565b6020808252601a908201527f63616c6c65722d69732d6e6f742d7468652d676f7665726e6f72000000000000604082015260600190565b6000602082840312156145bd57600080fd5b5051919050565b634e487b7160e01b600052601160045260246000fd5b600082198211156145ed576145ed6145c4565b500190565b60208082526019908201527818d85b1b195c8b5a5ccb5b9bdd0b5d995cdc195c8b5c1bdbdb603a1b604082015260600190565b600082821015614637576146376145c4565b500390565b60208082526016908201527531b0b63632b916b4b996b737ba16b096b5b2b2b832b960511b604082015260600190565b600181811c9082168061468057607f821691505b602082108114156146a157634e487b7160e01b600052602260045260246000fd5b50919050565b6001600160a01b03929092168252602082015260400190565b6001600160a01b039586168152938516602085015260408401929092526060830152909116608082015260a00190565b634e487b7160e01b600052603260045260246000fd5b634e487b7160e01b600052603160045260246000fd5b8051801515811461472c57600080fd5b919050565b60006020828403121561474357600080fd5b611b038261471c565b6000806000806000806000806000806101408b8d03121561476c57600080fd5b8a51995060208b0151985060408b0151975060608b0151965060808b0151955061479860a08c0161471c565b94506147a660c08c0161471c565b93506147b460e08c0161471c565b92506147c36101008c0161471c565b91506147d26101208c0161471c565b90509295989b9194979a5092959850565b6000602082840312156147f557600080fd5b815160ff81168114611b0357600080fd5b600181815b80851115614841578160001904821115614827576148276145c4565b8085161561483457918102915b93841c939080029061480b565b509250929050565b60008261485857506001610c1f565b8161486557506000610c1f565b816001811461487b5760028114614885576148a1565b6001915050610c1f565b60ff841115614896576148966145c4565b50506001821b610c1f565b5060208310610133831016604e8410600b84101617156148c4575081810a610c1f565b6148ce8383614806565b80600019048211156148e2576148e26145c4565b029392505050565b6000611b0360ff841683614849565b6000816000190483118215151615614913576149136145c4565b500290565b60008261493557634e487b7160e01b600052601260045260246000fd5b500490565b60608152600061494d606083018661447f565b6020830194909452506001600160a01b0391909116604090910152919050565b6000825161497f8184602087016144d6565b9190910192915050565b600060033d11156149a25760046000803e5060005160e01c5b90565b601f8201601f1916810167ffffffffffffffff811182821017156149d957634e487b7160e01b600052604160045260246000fd5b6040525050565b600060443d10156149ee5790565b6040516003193d81016004833e81513d67ffffffffffffffff8160248401118184111715614a1e57505050505090565b8285019150815181811115614a365750505050505090565b843d8701016020828501011115614a505750505050505090565b614a5f602082860101876149a5565b509095945050505050565b805160208083015191908110156146a15760001960209190910360031b1b1691905056fea26469706673582212204213e6cad0d61bb48d7132f90e107ac8f58052f8fc1b3b702d7a8faa95c0d81c64736f6c63430008090033",
  "devdoc": {
    "kind": "dev",
    "methods": {
      "addKeeper(address)": {
        "params": {
          "_keeperAddress": "keeper address to add."
        }
      },
      "approveToken()": {
        "details": "Approve all required tokens"
      },
      "migrate(address)": {
        "details": "_beforeMigration hook can be implemented in child strategy to do extra steps.",
        "params": {
          "_newStrategy": "Address of new strategy"
        }
      },
      "rebalance()": {
        "returns": {
          "_loss": "Realized loss, if any, in collateral.",
          "_payback": "If strategy has any excess debt, we have to liquidate asset to payback excess debt.",
          "_profit": "Realized profit in collateral."
        }
      },
      "removeKeeper(address)": {
        "params": {
          "_keeperAddress": "keeper address to remove."
        }
      },
      "sweepERC20(address)": {
        "params": {
          "_fromToken": "token address to sweep"
        }
      },
      "updateBorrowLimit(uint256,uint256)": {
        "details": "It is possible to set _maxBorrowLimit and _minBorrowLimit as 0 to not borrow anything",
        "params": {
          "_maxBorrowLimit": "It is % of actual collateral factor of protocol",
          "_minBorrowLimit": "It is % of actual collateral factor of protocol"
        }
      },
      "updateFeeCollector(address)": {
        "params": {
          "_feeCollector": "fee collector address"
        }
      },
      "updateSwapper(address)": {
        "params": {
          "_swapper": "swapper address"
        }
      },
      "withdraw(uint256)": {
        "params": {
          "_amount": "Amount of collateral token"
        }
      }
    },
    "title": "Deposit Collateral in Aave and earn interest by depositing borrowed token in a Vesper Pool.",
    "version": 1
  },
  "userdoc": {
    "kind": "user",
    "methods": {
      "addKeeper(address)": {
        "notice": "Add given address in keepers list."
      },
      "canStartCooldown()": {
        "notice": "Returns true if we should start cooldown"
      },
      "canUnstake()": {
        "notice": "Returns true if Aave can be unstaked"
      },
      "collateral()": {
        "notice": "Returns address of token correspond to collateral token"
      },
      "cooldownData()": {
        "notice": "Return cooldown related timestamps"
      },
      "harvestVSP()": {
        "notice": "Claim VSP and convert to collateral token"
      },
      "isReservedToken(address)": {
        "notice": "Check whether given token is reserved or not. Reserved tokens are not allowed to sweep."
      },
      "keepers()": {
        "notice": "Return list of keepers"
      },
      "migrate(address)": {
        "notice": "Migrate all asset and vault ownership,if any, to new strategy"
      },
      "rebalance()": {
        "notice": "OnlyKeeper: Rebalance profit, loss and investment of this strategy.  Calculate profit, loss and payback of this strategy and realize profit/loss and  withdraw fund for payback, if any, and submit this report to pool."
      },
      "removeKeeper(address)": {
        "notice": "Remove given address from keepers list."
      },
      "sweepERC20(address)": {
        "notice": "sweep given token to feeCollector of strategy"
      },
      "token()": {
        "notice": "Returns address of token correspond to receipt token"
      },
      "tvl()": {
        "notice": "Returns total collateral locked in the strategy"
      },
      "updateBorrowLimit(uint256,uint256)": {
        "notice": "Update upper and lower borrow limit. Usually maxBorrowLimit < 100% of actual collateral factor of protocol."
      },
      "updateFeeCollector(address)": {
        "notice": "Update fee collector"
      },
      "updateSwapper(address)": {
        "notice": "Update swapper"
      },
      "withdraw(uint256)": {
        "notice": "Withdraw collateral token from end protocol."
      }
    },
    "version": 1
  },
  "storageLayout": {
    "storage": [
      {
        "astId": 11964,
        "contract": "vesper-strategies/contracts/strategies/aave/v2/AaveV2VesperXy.sol:AaveV2VesperXy",
        "label": "receiptToken",
        "offset": 0,
        "slot": "0",
        "type": "t_address"
      },
      {
        "astId": 11970,
        "contract": "vesper-strategies/contracts/strategies/aave/v2/AaveV2VesperXy.sol:AaveV2VesperXy",
        "label": "feeCollector",
        "offset": 0,
        "slot": "1",
        "type": "t_address"
      },
      {
        "astId": 11973,
        "contract": "vesper-strategies/contracts/strategies/aave/v2/AaveV2VesperXy.sol:AaveV2VesperXy",
        "label": "swapper",
        "offset": 0,
        "slot": "2",
        "type": "t_contract(IRoutedSwapper)11615"
      },
      {
        "astId": 11986,
        "contract": "vesper-strategies/contracts/strategies/aave/v2/AaveV2VesperXy.sol:AaveV2VesperXy",
        "label": "_keepers",
        "offset": 0,
        "slot": "3",
        "type": "t_struct(AddressSet)3006_storage"
      },
      {
        "astId": 12601,
        "contract": "vesper-strategies/contracts/strategies/aave/v2/AaveV2VesperXy.sol:AaveV2VesperXy",
        "label": "aaveProtocolDataProvider",
        "offset": 0,
        "slot": "5",
        "type": "t_contract(AaveProtocolDataProvider)10320"
      },
      {
        "astId": 13515,
        "contract": "vesper-strategies/contracts/strategies/aave/v2/AaveV2VesperXy.sol:AaveV2VesperXy",
        "label": "NAME",
        "offset": 0,
        "slot": "6",
        "type": "t_string_storage"
      },
      {
        "astId": 13524,
        "contract": "vesper-strategies/contracts/strategies/aave/v2/AaveV2VesperXy.sol:AaveV2VesperXy",
        "label": "minBorrowLimit",
        "offset": 0,
        "slot": "7",
        "type": "t_uint256"
      },
      {
        "astId": 13527,
        "contract": "vesper-strategies/contracts/strategies/aave/v2/AaveV2VesperXy.sol:AaveV2VesperXy",
        "label": "maxBorrowLimit",
        "offset": 0,
        "slot": "8",
        "type": "t_uint256"
      },
      {
        "astId": 13532,
        "contract": "vesper-strategies/contracts/strategies/aave/v2/AaveV2VesperXy.sol:AaveV2VesperXy",
        "label": "rewardToken",
        "offset": 0,
        "slot": "9",
        "type": "t_address"
      },
      {
        "astId": 13534,
        "contract": "vesper-strategies/contracts/strategies/aave/v2/AaveV2VesperXy.sol:AaveV2VesperXy",
        "label": "borrowToken",
        "offset": 0,
        "slot": "10",
        "type": "t_address"
      },
      {
        "astId": 13537,
        "contract": "vesper-strategies/contracts/strategies/aave/v2/AaveV2VesperXy.sol:AaveV2VesperXy",
        "label": "vdToken",
        "offset": 0,
        "slot": "11",
        "type": "t_contract(AToken)10120"
      },
      {
        "astId": 13539,
        "contract": "vesper-strategies/contracts/strategies/aave/v2/AaveV2VesperXy.sol:AaveV2VesperXy",
        "label": "aBorrowToken",
        "offset": 0,
        "slot": "12",
        "type": "t_address"
      }
    ],
    "types": {
      "t_address": {
        "encoding": "inplace",
        "label": "address",
        "numberOfBytes": "20"
      },
      "t_array(t_bytes32)dyn_storage": {
        "base": "t_bytes32",
        "encoding": "dynamic_array",
        "label": "bytes32[]",
        "numberOfBytes": "32"
      },
      "t_bytes32": {
        "encoding": "inplace",
        "label": "bytes32",
        "numberOfBytes": "32"
      },
      "t_contract(AToken)10120": {
        "encoding": "inplace",
        "label": "contract AToken",
        "numberOfBytes": "20"
      },
      "t_contract(AaveProtocolDataProvider)10320": {
        "encoding": "inplace",
        "label": "contract AaveProtocolDataProvider",
        "numberOfBytes": "20"
      },
      "t_contract(IRoutedSwapper)11615": {
        "encoding": "inplace",
        "label": "contract IRoutedSwapper",
        "numberOfBytes": "20"
      },
      "t_mapping(t_bytes32,t_uint256)": {
        "encoding": "mapping",
        "key": "t_bytes32",
        "label": "mapping(bytes32 => uint256)",
        "numberOfBytes": "32",
        "value": "t_uint256"
      },
      "t_string_storage": {
        "encoding": "bytes",
        "label": "string",
        "numberOfBytes": "32"
      },
      "t_struct(AddressSet)3006_storage": {
        "encoding": "inplace",
        "label": "struct EnumerableSet.AddressSet",
        "members": [
          {
            "astId": 3005,
            "contract": "vesper-strategies/contracts/strategies/aave/v2/AaveV2VesperXy.sol:AaveV2VesperXy",
            "label": "_inner",
            "offset": 0,
            "slot": "0",
            "type": "t_struct(Set)2705_storage"
          }
        ],
        "numberOfBytes": "64"
      },
      "t_struct(Set)2705_storage": {
        "encoding": "inplace",
        "label": "struct EnumerableSet.Set",
        "members": [
          {
            "astId": 2700,
            "contract": "vesper-strategies/contracts/strategies/aave/v2/AaveV2VesperXy.sol:AaveV2VesperXy",
            "label": "_values",
            "offset": 0,
            "slot": "0",
            "type": "t_array(t_bytes32)dyn_storage"
          },
          {
            "astId": 2704,
            "contract": "vesper-strategies/contracts/strategies/aave/v2/AaveV2VesperXy.sol:AaveV2VesperXy",
            "label": "_indexes",
            "offset": 0,
            "slot": "1",
            "type": "t_mapping(t_bytes32,t_uint256)"
          }
        ],
        "numberOfBytes": "64"
      },
      "t_uint256": {
        "encoding": "inplace",
        "label": "uint256",
        "numberOfBytes": "32"
      }
    }
  }
}