{
  "address": "0xe27Da5cb6B63c25126452aCDe5D876dc80268B7A",
  "abi": [
    {
      "inputs": [
        {
          "internalType": "address",
          "name": "_pool",
          "type": "address"
        },
        {
          "internalType": "address",
          "name": "_swapper",
          "type": "address"
        },
        {
          "internalType": "address",
          "name": "_rewardToken",
          "type": "address"
        },
        {
          "internalType": "address",
          "name": "_receiptToken",
          "type": "address"
        },
        {
          "internalType": "address",
          "name": "_borrowToken",
          "type": "address"
        },
        {
          "internalType": "address",
          "name": "_vPool",
          "type": "address"
        },
        {
          "internalType": "address",
          "name": "_vspAddress",
          "type": "address"
        },
        {
          "internalType": "string",
          "name": "_name",
          "type": "string"
        }
      ],
      "stateMutability": "nonpayable",
      "type": "constructor"
    },
    {
      "anonymous": false,
      "inputs": [
        {
          "indexed": false,
          "internalType": "uint256",
          "name": "previousMinBorrowLimit",
          "type": "uint256"
        },
        {
          "indexed": false,
          "internalType": "uint256",
          "name": "newMinBorrowLimit",
          "type": "uint256"
        },
        {
          "indexed": false,
          "internalType": "uint256",
          "name": "previousMaxBorrowLimit",
          "type": "uint256"
        },
        {
          "indexed": false,
          "internalType": "uint256",
          "name": "newMaxBorrowLimit",
          "type": "uint256"
        }
      ],
      "name": "UpdatedBorrowLimit",
      "type": "event"
    },
    {
      "anonymous": false,
      "inputs": [
        {
          "indexed": true,
          "internalType": "address",
          "name": "previousFeeCollector",
          "type": "address"
        },
        {
          "indexed": true,
          "internalType": "address",
          "name": "newFeeCollector",
          "type": "address"
        }
      ],
      "name": "UpdatedFeeCollector",
      "type": "event"
    },
    {
      "anonymous": false,
      "inputs": [
        {
          "indexed": true,
          "internalType": "contract IRoutedSwapper",
          "name": "oldSwapper",
          "type": "address"
        },
        {
          "indexed": true,
          "internalType": "contract IRoutedSwapper",
          "name": "newSwapper",
          "type": "address"
        }
      ],
      "name": "UpdatedSwapper",
      "type": "event"
    },
    {
      "inputs": [],
      "name": "AAVE",
      "outputs": [
        {
          "internalType": "address",
          "name": "",
          "type": "address"
        }
      ],
      "stateMutability": "view",
      "type": "function"
    },
    {
      "inputs": [],
      "name": "NAME",
      "outputs": [
        {
          "internalType": "string",
          "name": "",
          "type": "string"
        }
      ],
      "stateMutability": "view",
      "type": "function"
    },
    {
      "inputs": [],
      "name": "VERSION",
      "outputs": [
        {
          "internalType": "string",
          "name": "",
          "type": "string"
        }
      ],
      "stateMutability": "view",
      "type": "function"
    },
    {
      "inputs": [],
      "name": "aaveIncentivesController",
      "outputs": [
        {
          "internalType": "contract AaveIncentivesController",
          "name": "",
          "type": "address"
        }
      ],
      "stateMutability": "view",
      "type": "function"
    },
    {
      "inputs": [],
      "name": "aaveLendingPool",
      "outputs": [
        {
          "internalType": "contract AaveLendingPool",
          "name": "",
          "type": "address"
        }
      ],
      "stateMutability": "view",
      "type": "function"
    },
    {
      "inputs": [],
      "name": "aaveProtocolDataProvider",
      "outputs": [
        {
          "internalType": "contract AaveProtocolDataProvider",
          "name": "",
          "type": "address"
        }
      ],
      "stateMutability": "view",
      "type": "function"
    },
    {
      "inputs": [
        {
          "internalType": "address",
          "name": "_keeperAddress",
          "type": "address"
        }
      ],
      "name": "addKeeper",
      "outputs": [],
      "stateMutability": "nonpayable",
      "type": "function"
    },
    {
      "inputs": [],
      "name": "approveToken",
      "outputs": [],
      "stateMutability": "nonpayable",
      "type": "function"
    },
    {
      "inputs": [],
      "name": "borrowToken",
      "outputs": [
        {
          "internalType": "address",
          "name": "",
          "type": "address"
        }
      ],
      "stateMutability": "view",
      "type": "function"
    },
    {
      "inputs": [],
      "name": "canStartCooldown",
      "outputs": [
        {
          "internalType": "bool",
          "name": "",
          "type": "bool"
        }
      ],
      "stateMutability": "view",
      "type": "function"
    },
    {
      "inputs": [],
      "name": "canUnstake",
      "outputs": [
        {
          "internalType": "bool",
          "name": "",
          "type": "bool"
        }
      ],
      "stateMutability": "view",
      "type": "function"
    },
    {
      "inputs": [],
      "name": "collateralToken",
      "outputs": [
        {
          "internalType": "contract IERC20",
          "name": "",
          "type": "address"
        }
      ],
      "stateMutability": "view",
      "type": "function"
    },
    {
      "inputs": [],
      "name": "cooldownData",
      "outputs": [
        {
          "internalType": "uint256",
          "name": "_cooldownStart",
          "type": "uint256"
        },
        {
          "internalType": "uint256",
          "name": "_cooldownEnd",
          "type": "uint256"
        },
        {
          "internalType": "uint256",
          "name": "_unstakeEnd",
          "type": "uint256"
        }
      ],
      "stateMutability": "view",
      "type": "function"
    },
    {
      "inputs": [],
      "name": "feeCollector",
      "outputs": [
        {
          "internalType": "address",
          "name": "",
          "type": "address"
        }
      ],
      "stateMutability": "view",
      "type": "function"
    },
    {
      "inputs": [],
      "name": "harvestVSP",
      "outputs": [],
      "stateMutability": "nonpayable",
      "type": "function"
    },
    {
      "inputs": [
        {
          "internalType": "address",
          "name": "_token",
          "type": "address"
        }
      ],
      "name": "isReservedToken",
      "outputs": [
        {
          "internalType": "bool",
          "name": "",
          "type": "bool"
        }
      ],
      "stateMutability": "view",
      "type": "function"
    },
    {
      "inputs": [],
      "name": "keepers",
      "outputs": [
        {
          "internalType": "address[]",
          "name": "",
          "type": "address[]"
        }
      ],
      "stateMutability": "view",
      "type": "function"
    },
    {
      "inputs": [],
      "name": "maxBorrowLimit",
      "outputs": [
        {
          "internalType": "uint256",
          "name": "",
          "type": "uint256"
        }
      ],
      "stateMutability": "view",
      "type": "function"
    },
    {
      "inputs": [
        {
          "internalType": "address",
          "name": "_newStrategy",
          "type": "address"
        }
      ],
      "name": "migrate",
      "outputs": [],
      "stateMutability": "nonpayable",
      "type": "function"
    },
    {
      "inputs": [],
      "name": "minBorrowLimit",
      "outputs": [
        {
          "internalType": "uint256",
          "name": "",
          "type": "uint256"
        }
      ],
      "stateMutability": "view",
      "type": "function"
    },
    {
      "inputs": [],
      "name": "pool",
      "outputs": [
        {
          "internalType": "address",
          "name": "",
          "type": "address"
        }
      ],
      "stateMutability": "view",
      "type": "function"
    },
    {
      "inputs": [],
      "name": "rebalance",
      "outputs": [
        {
          "internalType": "uint256",
          "name": "_profit",
          "type": "uint256"
        },
        {
          "internalType": "uint256",
          "name": "_loss",
          "type": "uint256"
        },
        {
          "internalType": "uint256",
          "name": "_payback",
          "type": "uint256"
        }
      ],
      "stateMutability": "nonpayable",
      "type": "function"
    },
    {
      "inputs": [],
      "name": "receiptToken",
      "outputs": [
        {
          "internalType": "address",
          "name": "",
          "type": "address"
        }
      ],
      "stateMutability": "view",
      "type": "function"
    },
    {
      "inputs": [
        {
          "internalType": "address",
          "name": "_keeperAddress",
          "type": "address"
        }
      ],
      "name": "removeKeeper",
      "outputs": [],
      "stateMutability": "nonpayable",
      "type": "function"
    },
    {
      "inputs": [],
      "name": "rewardToken",
      "outputs": [
        {
          "internalType": "address",
          "name": "",
          "type": "address"
        }
      ],
      "stateMutability": "view",
      "type": "function"
    },
    {
      "inputs": [],
      "name": "stkAAVE",
      "outputs": [
        {
          "internalType": "contract StakedAave",
          "name": "",
          "type": "address"
        }
      ],
      "stateMutability": "view",
      "type": "function"
    },
    {
      "inputs": [],
      "name": "swapper",
      "outputs": [
        {
          "internalType": "contract IRoutedSwapper",
          "name": "",
          "type": "address"
        }
      ],
      "stateMutability": "view",
      "type": "function"
    },
    {
      "inputs": [
        {
          "internalType": "address",
          "name": "_fromToken",
          "type": "address"
        }
      ],
      "name": "sweepERC20",
      "outputs": [],
      "stateMutability": "nonpayable",
      "type": "function"
    },
    {
      "inputs": [],
      "name": "token",
      "outputs": [
        {
          "internalType": "address",
          "name": "",
          "type": "address"
        }
      ],
      "stateMutability": "view",
      "type": "function"
    },
    {
      "inputs": [],
      "name": "tvl",
      "outputs": [
        {
          "internalType": "uint256",
          "name": "",
          "type": "uint256"
        }
      ],
      "stateMutability": "view",
      "type": "function"
    },
    {
      "inputs": [
        {
          "internalType": "uint256",
          "name": "_minBorrowLimit",
          "type": "uint256"
        },
        {
          "internalType": "uint256",
          "name": "_maxBorrowLimit",
          "type": "uint256"
        }
      ],
      "name": "updateBorrowLimit",
      "outputs": [],
      "stateMutability": "nonpayable",
      "type": "function"
    },
    {
      "inputs": [
        {
          "internalType": "address",
          "name": "_feeCollector",
          "type": "address"
        }
      ],
      "name": "updateFeeCollector",
      "outputs": [],
      "stateMutability": "nonpayable",
      "type": "function"
    },
    {
      "inputs": [
        {
          "internalType": "contract IRoutedSwapper",
          "name": "_swapper",
          "type": "address"
        }
      ],
      "name": "updateSwapper",
      "outputs": [],
      "stateMutability": "nonpayable",
      "type": "function"
    },
    {
      "inputs": [],
      "name": "vPool",
      "outputs": [
        {
          "internalType": "contract IVesperPool",
          "name": "",
          "type": "address"
        }
      ],
      "stateMutability": "view",
      "type": "function"
    },
    {
      "inputs": [],
      "name": "vdToken",
      "outputs": [
        {
          "internalType": "contract AToken",
          "name": "",
          "type": "address"
        }
      ],
      "stateMutability": "view",
      "type": "function"
    },
    {
      "inputs": [],
      "name": "vsp",
      "outputs": [
        {
          "internalType": "address",
          "name": "",
          "type": "address"
        }
      ],
      "stateMutability": "view",
      "type": "function"
    },
    {
      "inputs": [
        {
          "internalType": "uint256",
          "name": "_amount",
          "type": "uint256"
        }
      ],
      "name": "withdraw",
      "outputs": [],
      "stateMutability": "nonpayable",
      "type": "function"
    }
  ],
  "transactionHash": "0x85b2c24a97d843bcfc8073011a44de181cf90a1d196a71e8b287b5ad2f7dac0e",
  "args": [
    "0x4Dbe3f01aBe271D3E65432c74851625a8c30Aa7B",
    "0x8f156189A3CD28dFc8FB7BbbAce58F98F09c0bB3",
    "0x7Fc66500c84A76Ad7e9c93437bFc5Ac33E2DDaE9",
    "0x1982b2F5814301d4e9a8b0201555376e62F82428",
    "0x6B175474E89094C44Da98b954EedeAC495271d0F",
    "0x0538C8bAc84E95A9dF8aC10Aad17DbE81b9E36ee",
    "0x1b40183EFB4Dd766f11bDa7A7c3AD8982e998421",
    "Aave_Vesper_Xy_stETH_DAI"
  ],
  "numDeployments": 1,
  "solcInputHash": "5cbdf16814785383d68b0c925ed01d41",
  "bytecode": "0x610180604052611b586007556121346008553480156200001e57600080fd5b5060405162005605380380620056058339810160408190526200004191620007ea565b878787878785828686826001600160a01b038316620000a75760405162461bcd60e51b815260206004820152601460248201527f706f6f6c2d616464726573732d69732d7a65726f00000000000000000000000060448201526064015b60405180910390fd5b6001600160a01b038216620000ff5760405162461bcd60e51b815260206004820152601760248201527f737761707065722d616464726573732d69732d7a65726f00000000000000000060448201526064016200009e565b600280546001600160a01b0319166001600160a01b0384811691909117909155831660a081905260408051637e062a3560e11b8152905163fc0c546a91600480820192602092909190829003018186803b1580156200015d57600080fd5b505afa15801562000172573d6000803e3d6000fd5b505050506040513d601f19601f820116820180604052508101906200019891906200093c565b6001600160a01b03908116608052600080546001600160a01b031916918316919091179055620001df620001c93390565b60036200067060201b62001aa81790919060201c565b620002215760405162461bcd60e51b81526020600482015260116024820152701859190b5ad9595c195c8b59985a5b1959607a1b60448201526064016200009e565b5050604080518082019091526002815261031360f41b602082015290506001600160a01b038216620002685760405162461bcd60e51b81526004016200009e919062000963565b506001600160a01b038116610120819052604080516375d2641360e01b815290516375d2641391600480820192602092909190829003018186803b158015620002b057600080fd5b505afa925050508015620002e3575060408051601f3d908101601f19168201909252620002e0918101906200093c565b60015b620002ee57620002fb565b6001600160a01b031660e0525b73b53c1a33016b2dc2ff3653530bff1848a515c8c561010081905260408051630261bf8b60e01b81529051630261bf8b91600480820192602092909190829003018186803b1580156200034d57600080fd5b505afa15801562000362573d6000803e3d6000fd5b505050506040513d601f19601f820116820180604052508101906200038891906200093c565b6001600160a01b0390811660c052610100516040516321f8a72160e01b8152600160f81b60048201529116906321f8a7219060240160206040518083038186803b158015620003d657600080fd5b505afa158015620003eb573d6000803e3d6000fd5b505050506040513d601f19601f820116820180604052508101906200041191906200093c565b600580546001600160a01b0319166001600160a01b039290921691909117905550805162000447906006906020840190620006e2565b50600980546001600160a01b0319166001600160a01b03868116919091179091556005546040516334924edb60e21b815284831660048201526000928392169063d2493b6c9060240160606040518083038186803b158015620004a957600080fd5b505afa158015620004be573d6000803e3d6000fd5b505050506040513d601f19601f82011682018060405250810190620004e4919062000998565b600b80546001600160a01b03199081166001600160a01b0393841617909155600a8054821698831698909817909755600c8054909716928116929092179095558a16151597506200058096505050505050505760405162461bcd60e51b815260206004820152601360248201527f696e76616c69642d7673702d616464726573730000000000000000000000000060448201526064016200009e565b600a5460408051637e062a3560e11b815290516001600160a01b039283169286169163fc0c546a916004808301926020929190829003018186803b158015620005c857600080fd5b505afa158015620005dd573d6000803e3d6000fd5b505050506040513d601f19601f820116820180604052508101906200060391906200093c565b6001600160a01b0316146200064f5760405162461bcd60e51b81526020600482015260116024820152701a5b9d985b1a590b59dc9bddcb5c1bdbdb607a1b60448201526064016200009e565b506001600160a01b039182166101405216610160525062000a299350505050565b600062000687836001600160a01b03841662000690565b90505b92915050565b6000818152600183016020526040812054620006d9575081546001818101845560008481526020808220909301849055845484825282860190935260409020919091556200068a565b5060006200068a565b828054620006f090620009ec565b90600052602060002090601f0160209004810192826200071457600085556200075f565b82601f106200072f57805160ff19168380011785556200075f565b828001600101855582156200075f579182015b828111156200075f57825182559160200191906001019062000742565b506200076d92915062000771565b5090565b5b808211156200076d576000815560010162000772565b6001600160a01b03811681146200079e57600080fd5b50565b634e487b7160e01b600052604160045260246000fd5b60005b83811015620007d4578181015183820152602001620007ba565b83811115620007e4576000848401525b50505050565b600080600080600080600080610100898b0312156200080857600080fd5b8851620008158162000788565b60208a0151909850620008288162000788565b60408a01519097506200083b8162000788565b60608a01519096506200084e8162000788565b60808a0151909550620008618162000788565b60a08a0151909450620008748162000788565b60c08a0151909350620008878162000788565b60e08a01519092506001600160401b0380821115620008a557600080fd5b818b0191508b601f830112620008ba57600080fd5b815181811115620008cf57620008cf620007a1565b604051601f8201601f19908116603f01168101908382118183101715620008fa57620008fa620007a1565b816040528281528e60208487010111156200091457600080fd5b62000927836020830160208801620007b7565b80955050505050509295985092959890939650565b6000602082840312156200094f57600080fd5b81516200095c8162000788565b9392505050565b602081526000825180602084015262000984816040850160208701620007b7565b601f01601f19169190910160400192915050565b600080600060608486031215620009ae57600080fd5b8351620009bb8162000788565b6020850151909350620009ce8162000788565b6040850151909250620009e18162000788565b809150509250925092565b600181811c9082168062000a0157607f821691505b6020821081141562000a2357634e487b7160e01b600052602260045260246000fd5b50919050565b60805160a05160c05160e051610100516101205161014051610160516149af62000c56600039600081816102a401528181610d0101528181610d9301526123cb01526000818161039f01528181610be80152818161239501528181613414015281816134b001528181613d6601528181613e5001528181613e83015261429b015260008181610b7b0152818161183801528181611fa3015281816123f6015281816129a5015281816139990152613d0d01526000612a7601526000818161035d0152818161307301526130cd0152600081816104aa01528181612fe2015281816139ed01528181613a2401528181613c2401528181613f8f01526141ab01526000818161023201528181610544015281816108170152818161093301528181610a1101528181610a6d01528181610f1a01528181610fb7015281816111e3015281816113ac015281816118e501528181611e0401528181611ea4015281816122f3015261402501526000818161041301528181610876015281816109110152818161098501528181610a4401528181610db401528181611147015281816115de0152818161179c01528181611bf601528181611f64015281816121070152818161221501528181612ba201528181612c7a01528181612d0201528181613049015281816135a00152818161365a01528181613726015281816138020152818161384101528181613977015281816139cb01528181613a5a01528181613f27015261400301526149af6000f3fe608060405234801561001057600080fd5b50600436106101f75760003560e01c806390d6751411610120578063e00af4a7116100b8578063f51896f81161007c578063f51896f8146104df578063f7c618c1146104e7578063fb7ee102146104fa578063fc0c546a1461050d578063ffa1ad741461051e57600080fd5b8063e00af4a714610481578063e260d74714610494578063e5328e061461049d578063e9d337b8146104a5578063ec78e832146104cc57600080fd5b806390d67514146103c9578063951dc22c146103dc57806399b71d5c146103f1578063a3f4df7e146103f9578063b2016bd41461040e578063c415b95c14610435578063ce5494bb14610448578063d2c35ce81461045b578063d3033c391461046e57600080fd5b8063440d724811610193578063440d7248146102ff578063456dc17a1461032257806348ccda3c146103355780634fc90c2c146103505780635f2475ca146103585780635f9d4d2e1461037f57806360a05a85146103925780636719578c1461039a5780637d7c2a1c146103c157600080fd5b80630181686c146101fc57806314ae9f2e1461021857806316f0115b1461022d5780631fc29c011461026157806321fc6bb01461027c57806329ba73ed1461029f5780632b3297f9146102c65780632e1a7d4d146102d95780634032b72b146102ec575b600080fd5b61020560085481565b6040519081526020015b60405180910390f35b61022b610226366004614320565b610542565b005b6102547f000000000000000000000000000000000000000000000000000000000000000081565b60405161020f919061433d565b610254734da27a545c0c5b758a6ba100e3a049001de870f581565b61028461065d565b6040805193845260208401929092529082015260600161020f565b6102547f000000000000000000000000000000000000000000000000000000000000000081565b600254610254906001600160a01b031681565b61022b6102e7366004614351565b610814565b61022b6102fa366004614320565b610a6b565b61031261030d366004614320565b610b77565b604051901515815260200161020f565b600a54610254906001600160a01b031681565b610254737fc66500c84a76ad7e9c93437bfc5ac33e2ddae981565b61022b610be4565b6102547f000000000000000000000000000000000000000000000000000000000000000081565b600554610254906001600160a01b031681565b610312610dd9565b6102547f000000000000000000000000000000000000000000000000000000000000000081565b610284610dfc565b600b54610254906001600160a01b031681565b6103e4610e3c565b60405161020f91906143ae565b61022b610e4d565b610401610e89565b60405161020f91906143ed565b6102547f000000000000000000000000000000000000000000000000000000000000000081565b600154610254906001600160a01b031681565b61022b610456366004614320565b610f17565b61022b610469366004614320565b6111e1565b61022b61047c366004614320565b6113aa565b61022b61048f366004614320565b611567565b61020560075481565b610205611782565b6102547f000000000000000000000000000000000000000000000000000000000000000081565b600054610254906001600160a01b031681565b6103126118c7565b600954610254906001600160a01b031681565b61022b610508366004614420565b6118e3565b6000546001600160a01b0316610254565b610401604051806040016040528060058152602001640352e302e360dc1b81525081565b7f00000000000000000000000000000000000000000000000000000000000000006001600160a01b0316630c340a246040518163ffffffff1660e01b815260040160206040518083038186803b15801561059b57600080fd5b505afa1580156105af573d6000803e3d6000fd5b505050506040513d601f19601f820116820180604052508101906105d39190614442565b6001600160a01b0316336001600160a01b03161461060c5760405162461bcd60e51b81526004016106039061445f565b60405180910390fd5b610617600382611ac4565b61065a5760405162461bcd60e51b81526020600482015260146024820152731c995b5bdd994b5ad9595c195c8b59985a5b195960621b6044820152606401610603565b50565b60405163091030c360e01b815260009081908190734da27a545c0c5b758a6ba100e3a049001de870f59063091030c39061069b90309060040161433d565b60206040518083038186803b1580156106b357600080fd5b505afa1580156106c7573d6000803e3d6000fd5b505050506040513d601f19601f820116820180604052508101906106eb9190614496565b9250734da27a545c0c5b758a6ba100e3a049001de870f56001600160a01b03166372b49d636040518163ffffffff1660e01b815260040160206040518083038186803b15801561073a57600080fd5b505afa15801561074e573d6000803e3d6000fd5b505050506040513d601f19601f820116820180604052508101906107729190614496565b61077c90846144c5565b9150734da27a545c0c5b758a6ba100e3a049001de870f56001600160a01b031663359c4a966040518163ffffffff1660e01b815260040160206040518083038186803b1580156107cb57600080fd5b505afa1580156107df573d6000803e3d6000fd5b505050506040513d601f19601f820116820180604052508101906108039190614496565b61080d90836144c5565b9050909192565b337f00000000000000000000000000000000000000000000000000000000000000006001600160a01b03161461085c5760405162461bcd60e51b8152600401610603906144dd565b6040516370a0823160e01b81526000906001600160a01b037f000000000000000000000000000000000000000000000000000000000000000016906370a08231906108ab90309060040161433d565b60206040518083038186803b1580156108c357600080fd5b505afa1580156108d7573d6000803e3d6000fd5b505050506040513d601f19601f820116820180604052508101906108fb9190614496565b905081811061095c576109586001600160a01b037f0000000000000000000000000000000000000000000000000000000000000000167f000000000000000000000000000000000000000000000000000000000000000084611ad9565b5050565b61096e6109698284614510565b611b34565b6040516370a0823160e01b81526001600160a01b037f000000000000000000000000000000000000000000000000000000000000000016906370a08231906109ba90309060040161433d565b60206040518083038186803b1580156109d257600080fd5b505afa1580156109e6573d6000803e3d6000fd5b505050506040513d601f19601f82011682018060405250810190610a0a9190614496565b90506109587f0000000000000000000000000000000000000000000000000000000000000000610a3a8484611c8f565b6001600160a01b037f0000000000000000000000000000000000000000000000000000000000000000169190611ad9565b7f00000000000000000000000000000000000000000000000000000000000000006001600160a01b0316630c340a246040518163ffffffff1660e01b815260040160206040518083038186803b158015610ac457600080fd5b505afa158015610ad8573d6000803e3d6000fd5b505050506040513d601f19601f82011682018060405250810190610afc9190614442565b6001600160a01b0316336001600160a01b031614610b2c5760405162461bcd60e51b81526004016106039061445f565b610b37600382611aa8565b61065a5760405162461bcd60e51b81526020600482015260116024820152701859190b5ad9595c195c8b59985a5b1959607a1b6044820152606401610603565b60007f00000000000000000000000000000000000000000000000000000000000000006001600160a01b0316826001600160a01b03161480610bc65750600b546001600160a01b038381169116145b80610bde5750600a546001600160a01b038381169116145b92915050565b60007f00000000000000000000000000000000000000000000000000000000000000006001600160a01b0316638bc6beb26040518163ffffffff1660e01b815260040160206040518083038186803b158015610c3f57600080fd5b505afa158015610c53573d6000803e3d6000fd5b505050506040513d601f19601f82011682018060405250810190610c779190614442565b90506001600160a01b03811615610ce75760405163d279c19160e01b81526001600160a01b0382169063d279c19190610cb490309060040161433d565b600060405180830381600087803b158015610cce57600080fd5b505af1158015610ce2573d6000803e3d6000fd5b505050505b6040516370a0823160e01b81526000906001600160a01b037f000000000000000000000000000000000000000000000000000000000000000016906370a0823190610d3690309060040161433d565b60206040518083038186803b158015610d4e57600080fd5b505afa158015610d62573d6000803e3d6000fd5b505050506040513d601f19601f82011682018060405250810190610d869190614496565b90508015610958576109587f00000000000000000000000000000000000000000000000000000000000000007f000000000000000000000000000000000000000000000000000000000000000083611ca5565b6000806000610de661065d565b9250509150610df58282611d36565b9250505090565b60008080610e0d335b600390611dda565b610e295760405162461bcd60e51b815260040161060390614527565b610e31611dfc565b925092509250909192565b6060610e48600361236d565b905090565b610e5633610e05565b610e725760405162461bcd60e51b815260040161060390614527565b610e7c600061237a565b610e8760001961237a565b565b60068054610e9690614557565b80601f0160208091040260200160405190810160405280929190818152602001828054610ec290614557565b8015610f0f5780601f10610ee457610100808354040283529160200191610f0f565b820191906000526020600020905b815481529060010190602001808311610ef257829003601f168201915b505050505081565b337f00000000000000000000000000000000000000000000000000000000000000006001600160a01b031614610f5f5760405162461bcd60e51b8152600401610603906144dd565b6001600160a01b038116610fb55760405162461bcd60e51b815260206004820152601c60248201527f6e65772d73747261746567792d616464726573732d69732d7a65726f000000006044820152606401610603565b7f00000000000000000000000000000000000000000000000000000000000000006001600160a01b0316816001600160a01b03166316f0115b6040518163ffffffff1660e01b815260040160206040518083038186803b15801561101857600080fd5b505afa15801561102c573d6000803e3d6000fd5b505050506040513d601f19601f820116820180604052508101906110509190614442565b6001600160a01b03161461109f5760405162461bcd60e51b81526020600482015260166024820152756e6f742d76616c69642d6e65772d737472617465677960501b6044820152606401610603565b6110a8816123f4565b6000546040516370a0823160e01b81526111419183916001600160a01b03909116906370a08231906110de90309060040161433d565b60206040518083038186803b1580156110f657600080fd5b505afa15801561110a573d6000803e3d6000fd5b505050506040513d601f19601f8201168201806040525081019061112e9190614496565b6000546001600160a01b03169190611ad9565b61065a817f00000000000000000000000000000000000000000000000000000000000000006001600160a01b03166370a08231306040518263ffffffff1660e01b8152600401611191919061433d565b60206040518083038186803b1580156111a957600080fd5b505afa1580156111bd573d6000803e3d6000fd5b505050506040513d601f19601f82011682018060405250810190610a3a9190614496565b7f00000000000000000000000000000000000000000000000000000000000000006001600160a01b0316630c340a246040518163ffffffff1660e01b815260040160206040518083038186803b15801561123a57600080fd5b505afa15801561124e573d6000803e3d6000fd5b505050506040513d601f19601f820116820180604052508101906112729190614442565b6001600160a01b0316336001600160a01b0316146112a25760405162461bcd60e51b81526004016106039061445f565b6001600160a01b0381166112f85760405162461bcd60e51b815260206004820152601d60248201527f6665652d636f6c6c6563746f722d616464726573732d69732d7a65726f0000006044820152606401610603565b6001546001600160a01b038281169116141561134e5760405162461bcd60e51b81526020600482015260156024820152746665652d636f6c6c6563746f722d69732d73616d6560581b6044820152606401610603565b6001546040516001600160a01b038084169216907f0f06062680f9bd68e786e9980d9bb03d73d5620fc3b345e417b6eacb310b970690600090a3600180546001600160a01b0319166001600160a01b0392909216919091179055565b7f00000000000000000000000000000000000000000000000000000000000000006001600160a01b0316630c340a246040518163ffffffff1660e01b815260040160206040518083038186803b15801561140357600080fd5b505afa158015611417573d6000803e3d6000fd5b505050506040513d601f19601f8201168201806040525081019061143b9190614442565b6001600160a01b0316336001600160a01b03161461146b5760405162461bcd60e51b81526004016106039061445f565b6001600160a01b0381166114bb5760405162461bcd60e51b8152602060048201526017602482015276737761707065722d616464726573732d69732d7a65726f60481b6044820152606401610603565b6002546001600160a01b038281169116141561150b5760405162461bcd60e51b815260206004820152600f60248201526e737761707065722d69732d73616d6560881b6044820152606401610603565b6002546040516001600160a01b038084169216907f6c953b7ec311055c20b96a42cea31e89528e375b1bf953a503db40854b3188fe90600090a3600280546001600160a01b0319166001600160a01b0392909216919091179055565b61157033610e05565b61158c5760405162461bcd60e51b815260040161060390614527565b6001546001600160a01b03166115dc5760405162461bcd60e51b81526020600482015260156024820152741999594b58dbdb1b1958dd1bdc8b5b9bdd0b5cd95d605a1b6044820152606401610603565b7f00000000000000000000000000000000000000000000000000000000000000006001600160a01b0316816001600160a01b0316141561165e5760405162461bcd60e51b815260206004820152601f60248201527f6e6f742d616c6c6f7765642d746f2d73776565702d636f6c6c61746572616c006044820152606401610603565b61166781610b77565b156116ab5760405162461bcd60e51b815260206004820152601460248201527306e6f742d616c6c6f7765642d746f2d73776565760641b6044820152606401610603565b6001600160a01b03811673eeeeeeeeeeeeeeeeeeeeeeeeeeeeeeeeeeeeeeee14156116e65760015461065a906001600160a01b031647612562565b6040516370a0823160e01b81526000906001600160a01b038316906370a082319061171590309060040161433d565b60206040518083038186803b15801561172d57600080fd5b505afa158015611741573d6000803e3d6000fd5b505050506040513d601f19601f820116820180604052508101906117659190614496565b600154909150610958906001600160a01b03848116911683611ad9565b6040516370a0823160e01b81526000906001600160a01b037f000000000000000000000000000000000000000000000000000000000000000016906370a08231906117d190309060040161433d565b60206040518083038186803b1580156117e957600080fd5b505afa1580156117fd573d6000803e3d6000fd5b505050506040513d601f19601f820116820180604052508101906118219190614496565b6040516370a0823160e01b81526001600160a01b037f000000000000000000000000000000000000000000000000000000000000000016906370a082319061186d90309060040161433d565b60206040518083038186803b15801561188557600080fd5b505afa158015611899573d6000803e3d6000fd5b505050506040513d601f19601f820116820180604052508101906118bd9190614496565b610e4891906144c5565b60008060006118d461065d565b9250925050610df5828261267b565b7f00000000000000000000000000000000000000000000000000000000000000006001600160a01b0316630c340a246040518163ffffffff1660e01b815260040160206040518083038186803b15801561193c57600080fd5b505afa158015611950573d6000803e3d6000fd5b505050506040513d601f19601f820116820180604052508101906119749190614442565b6001600160a01b0316336001600160a01b0316146119a45760405162461bcd60e51b81526004016106039061445f565b61271081106119f05760405162461bcd60e51b81526020600482015260186024820152771a5b9d985b1a590b5b585e0b589bdc9c9bddcb5b1a5b5a5d60421b6044820152606401610603565b801580156119fc575081155b80611a0657508181115b611a525760405162461bcd60e51b815260206004820152601d60248201527f6d61782d73686f756c642d62652d6869676865722d7468616e2d6d696e0000006044820152606401610603565b6007546008546040805192835260208301859052820152606081018290527fedd77444afdf63401315e81ffe86d08f7865796e8ad2e11acf1d56a1393f07d59060800160405180910390a1600791909155600855565b6000611abd836001600160a01b038416612690565b9392505050565b6000611abd836001600160a01b0384166126df565b611b2f8363a9059cbb60e01b8484604051602401611af8929190614592565b60408051601f198184030181529190526020810180516001600160e01b03166001600160e01b0319909316929092179091526127d2565b505050565b6000611b416000836128a4565b9150508015611b5357611b5381612fa3565b600080546040516370a0823160e01b8152611c84918591611c7f916001600160a01b0316906370a0823190611b8c90309060040161433d565b60206040518083038186803b158015611ba457600080fd5b505afa158015611bb8573d6000803e3d6000fd5b505050506040513d601f19601f82011682018060405250810190611bdc9190614496565b6000546040516370a0823160e01b81526001600160a01b037f00000000000000000000000000000000000000000000000000000000000000008116926370a0823192611c2f92919091169060040161433d565b60206040518083038186803b158015611c4757600080fd5b505afa158015611c5b573d6000803e3d6000fd5b505050506040513d601f19601f82011682018060405250810190611c7f9190614496565b611c8f565b9050611b2f81613044565b6000818310611c9e5781611abd565b5090919050565b600254604051636ccb2b0160e01b81526001600160a01b0390911690636ccb2b0190611cde9086908690869060019030906004016145ab565b602060405180830381600087803b158015611cf857600080fd5b505af1158015611d0c573d6000803e3d6000fd5b505050506040513d601f19601f82011682018060405250810190611d309190614496565b50505050565b6040516370a0823160e01b81526000908190734da27a545c0c5b758a6ba100e3a049001de870f5906370a0823190611d7290309060040161433d565b60206040518083038186803b158015611d8a57600080fd5b505afa158015611d9e573d6000803e3d6000fd5b505050506040513d601f19601f82011682018060405250810190611dc29190614496565b118015611abd5750821580611abd5750504211919050565b6001600160a01b03811660009081526001830160205260408120541515611abd565b6000806000807f00000000000000000000000000000000000000000000000000000000000000006001600160a01b031663d53ddc26306040518263ffffffff1660e01b8152600401611e4e919061433d565b60206040518083038186803b158015611e6657600080fd5b505afa158015611e7a573d6000803e3d6000fd5b505050506040513d601f19601f82011682018060405250810190611e9e9190614496565b905060007f00000000000000000000000000000000000000000000000000000000000000006001600160a01b0316639f2b2833306040518263ffffffff1660e01b8152600401611eee919061433d565b60206040518083038186803b158015611f0657600080fd5b505afa158015611f1a573d6000803e3d6000fd5b505050506040513d601f19601f82011682018060405250810190611f3e9190614496565b90506000611f4a61306f565b90508015611f8957600954611f89906001600160a01b03167f00000000000000000000000000000000000000000000000000000000000000008361337b565b6040516370a0823160e01b81526000906001600160a01b037f000000000000000000000000000000000000000000000000000000000000000016906370a0823190611fd890309060040161433d565b60206040518083038186803b158015611ff057600080fd5b505afa158015612004573d6000803e3d6000fd5b505050506040513d601f19601f820116820180604052508101906120289190614496565b600b546040516370a0823160e01b81529192506000916001600160a01b03909116906370a082319061205e90309060040161433d565b60206040518083038186803b15801561207657600080fd5b505afa15801561208a573d6000803e3d6000fd5b505050506040513d601f19601f820116820180604052508101906120ae9190614496565b905060006120ba613407565b9050808211156120db576120d66120d18284614510565b613583565b6120ed565b6120ed6120e88383614510565b613758565b6040516370a0823160e01b81526000906001600160a01b037f000000000000000000000000000000000000000000000000000000000000000016906370a082319061213c90309060040161433d565b60206040518083038186803b15801561215457600080fd5b505afa158015612168573d6000803e3d6000fd5b505050506040513d601f19601f8201168201806040525081019061218c9190614496565b9050600061219a82866144c5565b9050868111156121b5576121ae8782614510565b9a506121c2565b6121bf8188614510565b99505b60006121ce898d6144c5565b90508083101561229f5760006121ed6121e78584614510565b88611c8f565b9050801561229d576121fe81611b34565b6040516370a0823160e01b81526001600160a01b037f000000000000000000000000000000000000000000000000000000000000000016906370a082319061224a90309060040161433d565b60206040518083038186803b15801561226257600080fd5b505afa158015612276573d6000803e3d6000fd5b505050506040513d601f19601f8201168201806040525081019061229a9190614496565b93505b505b6122a9838a611c8f565b99508983116122b95760006122cc565b6122cc6122c68b85614510565b8d611c8f565b6040516302df682360e11b815260048101829052602481018d9052604481018c9052909c507f00000000000000000000000000000000000000000000000000000000000000006001600160a01b0316906305bed04690606401600060405180830381600087803b15801561233f57600080fd5b505af1158015612353573d6000803e3d6000fd5b5050505061235f613827565b505050505050505050909192565b60606000611abd83613905565b61238381613961565b600a546123ba906001600160a01b03167f000000000000000000000000000000000000000000000000000000000000000083613ab9565b60025461065a906001600160a01b037f00000000000000000000000000000000000000000000000000000000000000008116911683613ab9565b7f00000000000000000000000000000000000000000000000000000000000000006001600160a01b0316816001600160a01b031663fc0c546a6040518163ffffffff1660e01b815260040160206040518083038186803b15801561245757600080fd5b505afa15801561246b573d6000803e3d6000fd5b505050506040513d601f19601f8201168201806040525081019061248f9190614442565b6001600160a01b0316146124db5760405162461bcd60e51b81526020600482015260136024820152723bb937b73396b932b1b2b4b83a16ba37b5b2b760691b6044820152606401610603565b600b546040516370a0823160e01b815261065a916001600160a01b0316906370a082319061250d90309060040161433d565b60206040518083038186803b15801561252557600080fd5b505afa158015612539573d6000803e3d6000fd5b505050506040513d601f19601f8201168201806040525081019061255d9190614496565b612fa3565b804710156125b25760405162461bcd60e51b815260206004820152601d60248201527f416464726573733a20696e73756666696369656e742062616c616e63650000006044820152606401610603565b6000826001600160a01b03168260405160006040518083038185875af1925050503d80600081146125ff576040519150601f19603f3d011682016040523d82523d6000602084013e612604565b606091505b5050905080611b2f5760405162461bcd60e51b815260206004820152603a60248201527f416464726573733a20756e61626c6520746f2073656e642076616c75652c207260448201527f6563697069656e74206d617920686176652072657665727465640000000000006064820152608401610603565b60008242118015611abd575050421115919050565b60008181526001830160205260408120546126d757508154600181810184556000848152602080822090930184905584548482528286019093526040902091909155610bde565b506000610bde565b600081815260018301602052604081205480156127c8576000612703600183614510565b855490915060009061271790600190614510565b905081811461277c576000866000018281548110612737576127376145db565b906000526020600020015490508087600001848154811061275a5761275a6145db565b6000918252602080832090910192909255918252600188019052604090208390555b855486908061278d5761278d6145f1565b600190038181906000526020600020016000905590558560010160008681526020019081526020016000206000905560019350505050610bde565b6000915050610bde565b6000612827826040518060400160405280602081526020017f5361666545524332303a206c6f772d6c6576656c2063616c6c206661696c6564815250856001600160a01b0316613bcc9092919063ffffffff16565b805190915015611b2f5780806020019051810190612845919061461c565b611b2f5760405162461bcd60e51b815260206004820152602a60248201527f5361666545524332303a204552433230206f7065726174696f6e20646964206e6044820152691bdd081cdd58d8d9595960b21b6064820152608401610603565b6000808315806128b2575082155b6128f25760405162461bcd60e51b8152602060048201526011602482015270616c6c2d696e7075742d67742d7a65726f60781b6044820152606401610603565b600b546040516370a0823160e01b81526000916001600160a01b0316906370a082319061292390309060040161433d565b60206040518083038186803b15801561293b57600080fd5b505afa15801561294f573d6000803e3d6000fd5b505050506040513d601f19601f820116820180604052508101906129739190614496565b90506008546000141561298b57600092509050612f9c565b6040516370a0823160e01b81526000906001600160a01b037f000000000000000000000000000000000000000000000000000000000000000016906370a08231906129da90309060040161433d565b60206040518083038186803b1580156129f257600080fd5b505afa158015612a06573d6000803e3d6000fd5b505050506040513d601f19601f82011682018060405250810190612a2a9190614496565b90506000808711612a5257858211612a43576000612a5c565b612a4d8683614510565b612a5c565b612a5c87836144c5565b905080612a725760008394509450505050612f9c565b60007f00000000000000000000000000000000000000000000000000000000000000006001600160a01b031663fca513a86040518163ffffffff1660e01b815260040160206040518083038186803b158015612acd57600080fd5b505afa158015612ae1573d6000803e3d6000fd5b505050506040513d601f19601f82011682018060405250810190612b059190614442565b600a5460405163b3596f0760e01b81529192506000916001600160a01b038085169263b3596f0792612b3d929091169060040161433d565b60206040518083038186803b158015612b5557600080fd5b505afa158015612b69573d6000803e3d6000fd5b505050506040513d601f19601f82011682018060405250810190612b8d9190614496565b90506000826001600160a01b031663b3596f077f00000000000000000000000000000000000000000000000000000000000000006040518263ffffffff1660e01b8152600401612bdd919061433d565b60206040518083038186803b158015612bf557600080fd5b505afa158015612c09573d6000803e3d6000fd5b505050506040513d601f19601f82011682018060405250810190612c2d9190614496565b9050811580612c3a575080155b15612c515760008697509750505050505050612f9c565b600554604051633e15014160e01b81526000916001600160a01b031690633e15014190612ca2907f00000000000000000000000000000000000000000000000000000000000000009060040161433d565b6101406040518083038186803b158015612cbb57600080fd5b505afa158015612ccf573d6000803e3d6000fd5b505050506040513d601f19601f82011682018060405250810190612cf39190614637565b505050505050505091505060007f00000000000000000000000000000000000000000000000000000000000000006001600160a01b031663313ce5676040518163ffffffff1660e01b815260040160206040518083038186803b158015612d5957600080fd5b505afa158015612d6d573d6000803e3d6000fd5b505050506040513d601f19601f82011682018060405250810190612d9191906146ce565b612d9c90600a6147d5565b612da8906127106147e4565b83612db384896147e4565b612dbd91906147e4565b612dc79190614803565b9050600084600a60009054906101000a90046001600160a01b03166001600160a01b031663313ce5676040518163ffffffff1660e01b815260040160206040518083038186803b158015612e1a57600080fd5b505afa158015612e2e573d6000803e3d6000fd5b505050506040513d601f19601f82011682018060405250810190612e5291906146ce565b612e5d90600a6147d5565b612e6790846147e4565b612e719190614803565b905080612e8d576000899a509a50505050505050505050612f9c565b600061271060085483612ea091906147e4565b612eaa9190614803565b9050600061271060075484612ebf91906147e4565b612ec99190614803565b9050818b1115612ee457612edd818c614510565b9b50612f90565b8a811115612f9057612ef68b82614510565b600a54600c546040516370a0823160e01b8152929f506000926001600160a01b03928316926370a0823192612f309291169060040161433d565b60206040518083038186803b158015612f4857600080fd5b505afa158015612f5c573d6000803e3d6000fd5b505050506040513d601f19601f82011682018060405250810190612f809190614496565b9050808e1115612f8e57809d505b505b50505050505050505050505b9250929050565b612fac81613be3565b600a5460405163573ade8160e01b81526001600160a01b03918216600482015260248101839052600260448201523060648201527f00000000000000000000000000000000000000000000000000000000000000009091169063573ade81906084015b600060405180830381600087803b15801561302957600080fd5b505af115801561303d573d6000803e3d6000fd5b5050505050565b6109587f00000000000000000000000000000000000000000000000000000000000000003083613bec565b60007f00000000000000000000000000000000000000000000000000000000000000006001600160a01b03166130a55750600090565b60008060006130b261065d565b92509250925082600014806130c657508042115b15613178577f00000000000000000000000000000000000000000000000000000000000000006001600160a01b0316633111e7b3613102613ce5565b600019306040518463ffffffff1660e01b815260040161312493929190614825565b602060405180830381600087803b15801561313e57600080fd5b505af1158015613152573d6000803e3d6000fd5b505050506040513d601f19601f820116820180604052508101906131769190614496565b505b61318061065d565b91945092509050613191828261267b565b15613208576040516301e9a69560e41b8152734da27a545c0c5b758a6ba100e3a049001de870f590631e9a6950906131d190309060001990600401614592565b600060405180830381600087803b1580156131eb57600080fd5b505af11580156131ff573d6000803e3d6000fd5b5050505061327f565b6132128382611d36565b1561327f57734da27a545c0c5b758a6ba100e3a049001de870f56001600160a01b031663787a08a66040518163ffffffff1660e01b8152600401600060405180830381600087803b15801561326657600080fd5b505af115801561327a573d6000803e3d6000fd5b505050505b6040516309a99b4f60e41b8152734da27a545c0c5b758a6ba100e3a049001de870f590639a99b4f0906132ba90309060001990600401614592565b600060405180830381600087803b1580156132d457600080fd5b505af11580156132e8573d6000803e3d6000fd5b50506040516370a0823160e01b8152737fc66500c84a76ad7e9c93437bfc5ac33e2ddae992506370a08231915061332390309060040161433d565b60206040518083038186803b15801561333b57600080fd5b505afa15801561334f573d6000803e3d6000fd5b505050506040513d601f19601f820116820180604052508101906133739190614496565b935050505090565b600254604051636ccb2b0160e01b81526001600160a01b0390911690636ccb2b01906133b49086908690869060019030906004016145ab565b602060405180830381600087803b1580156133ce57600080fd5b505af19250505080156133fe575060408051601f3d908101601f191682019092526133fb91810190614496565b60015b611d3057505050565b6000670de0b6b3a76400007f00000000000000000000000000000000000000000000000000000000000000006001600160a01b03166370a08231306040518263ffffffff1660e01b815260040161345e919061433d565b60206040518083038186803b15801561347657600080fd5b505afa15801561348a573d6000803e3d6000fd5b505050506040513d601f19601f820116820180604052508101906134ae9190614496565b7f00000000000000000000000000000000000000000000000000000000000000006001600160a01b03166399530b066040518163ffffffff1660e01b815260040160206040518083038186803b15801561350757600080fd5b505afa15801561351b573d6000803e3d6000fd5b505050506040513d601f19601f8201168201806040525081019061353f9190614496565b61354991906147e4565b6135539190614803565b600a546040516370a0823160e01b81526001600160a01b03909116906370a082319061186d90309060040161433d565b600254600a546040516353b609b560e01b81526001600160a01b037f00000000000000000000000000000000000000000000000000000000000000008116600483015291821660248201526044810184905260009291909116906353b609b590606401602060405180830381600087803b15801561360057600080fd5b505af1158015613614573d6000803e3d6000fd5b505050506040513d601f19601f820116820180604052508101906136389190614496565b90508015610958576040516370a0823160e01b81526000906001600160a01b037f000000000000000000000000000000000000000000000000000000000000000016906370a082319061368f90309060040161433d565b60206040518083038186803b1580156136a757600080fd5b505afa1580156136bb573d6000803e3d6000fd5b505050506040513d601f19601f820116820180604052508101906136df9190614496565b9050808211156136fb576136fb6136f68284614510565b613044565b600254600a546040516381cc619b60e01b81526001600160a01b03928316926381cc619b92611cde927f000000000000000000000000000000000000000000000000000000000000000092909116908890889030906004016145ab565b801561065a5761376781613d5c565b600a546040516370a0823160e01b81526000916001600160a01b0316906370a082319061379890309060040161433d565b60206040518083038186803b1580156137b057600080fd5b505afa1580156137c4573d6000803e3d6000fd5b505050506040513d601f19601f820116820180604052508101906137e89190614496565b9050801561095857600a54610958906001600160a01b03167f00000000000000000000000000000000000000000000000000000000000000008361337b565b6040516370a0823160e01b81526000906001600160a01b037f000000000000000000000000000000000000000000000000000000000000000016906370a082319061387690309060040161433d565b60206040518083038186803b15801561388e57600080fd5b505afa1580156138a2573d6000803e3d6000fd5b505050506040513d601f19601f820116820180604052508101906138c69190614496565b90506000806138d68360006128a4565b909250905080156138f3576138ea81612fa3565b611b2f83613f22565b6138fc83613f22565b611b2f82613f4c565b60608160000180548060200260200160405190810160405280929190818152602001828054801561395557602002820191906000526020600020905b815481526020019060010190808311613941575b50505050509050919050565b61396a81613ff6565b6139be6001600160a01b037f0000000000000000000000000000000000000000000000000000000000000000167f000000000000000000000000000000000000000000000000000000000000000083613ab9565b613a126001600160a01b037f0000000000000000000000000000000000000000000000000000000000000000167f000000000000000000000000000000000000000000000000000000000000000083613ab9565b600a54613a49906001600160a01b03167f000000000000000000000000000000000000000000000000000000000000000083613ab9565b600254613a83906001600160a01b037f00000000000000000000000000000000000000000000000000000000000000008116911683613ab9565b600254600954613aa0916001600160a01b03918216911683613ab9565b600254600a5461065a916001600160a01b039182169116835b801580613b425750604051636eb1769f60e11b81523060048201526001600160a01b03838116602483015284169063dd62ed3e9060440160206040518083038186803b158015613b0857600080fd5b505afa158015613b1c573d6000803e3d6000fd5b505050506040513d601f19601f82011682018060405250810190613b409190614496565b155b613bad5760405162461bcd60e51b815260206004820152603660248201527f5361666545524332303a20617070726f76652066726f6d206e6f6e2d7a65726f60448201527520746f206e6f6e2d7a65726f20616c6c6f77616e636560501b6064820152608401610603565b611b2f8363095ea7b360e01b8484604051602401611af8929190614592565b6060613bdb848460008561404a565b949350505050565b61065a81613d5c565b60008115613cde57604051631a4ca37b60e21b81526001600160a01b03858116600483015260248201849052848116604483015283917f0000000000000000000000000000000000000000000000000000000000000000909116906369328dec90606401602060405180830381600087803b158015613c6a57600080fd5b505af1158015613c7e573d6000803e3d6000fd5b505050506040513d601f19601f82011682018060405250810190613ca29190614496565b1460405180604001604052806002815260200161323960f01b81525090613cdc5760405162461bcd60e51b815260040161060391906143ed565b505b5092915050565b60408051600180825281830190925260609160009190602080830190803683370190505090507f000000000000000000000000000000000000000000000000000000000000000081600081518110613d3f57613d3f6145db565b6001600160a01b0390921660209283029190910190910152919050565b801561065a5760007f00000000000000000000000000000000000000000000000000000000000000006001600160a01b03166399530b066040518163ffffffff1660e01b815260040160206040518083038186803b158015613dbd57600080fd5b505afa158015613dd1573d6000803e3d6000fd5b505050506040513d601f19601f82011682018060405250810190613df59190614496565b9050600081613e0c84670de0b6b3a76400006147e4565b613e169190614803565b9050670de0b6b3a7640000613e2b83836147e4565b613e359190614803565b8311613e415780613e4c565b613e4c8160016144c5565b90507f00000000000000000000000000000000000000000000000000000000000000006001600160a01b0316632e1a7d4d613ecd837f00000000000000000000000000000000000000000000000000000000000000006001600160a01b03166370a08231306040518263ffffffff1660e01b8152600401611c2f919061433d565b6040518263ffffffff1660e01b8152600401613eeb91815260200190565b600060405180830381600087803b158015613f0557600080fd5b505af1158015613f19573d6000803e3d6000fd5b50505050505050565b61065a7f000000000000000000000000000000000000000000000000000000000000000082614172565b801561065a57600a5460405163a415bcad60e01b81526001600160a01b0391821660048201526024810183905260026044820152600060648201523060848201527f00000000000000000000000000000000000000000000000000000000000000009091169063a415bcad9060a401600060405180830381600087803b158015613fd557600080fd5b505af1158015613fe9573d6000803e3d6000fd5b5050505061065a81614285565b61065a6001600160a01b037f0000000000000000000000000000000000000000000000000000000000000000167f000000000000000000000000000000000000000000000000000000000000000083613ab9565b6060824710156140ab5760405162461bcd60e51b815260206004820152602660248201527f416464726573733a20696e73756666696369656e742062616c616e636520666f6044820152651c8818d85b1b60d21b6064820152608401610603565b843b6140f95760405162461bcd60e51b815260206004820152601d60248201527f416464726573733a2063616c6c20746f206e6f6e2d636f6e74726163740000006044820152606401610603565b600080866001600160a01b031685876040516141159190614858565b60006040518083038185875af1925050503d8060008114614152576040519150601f19603f3d011682016040523d82523d6000602084013e614157565b606091505b50915091506141678282866142d2565b979650505050505050565b80156109585760405163e8eda9df60e01b81526001600160a01b03838116600483015260248201839052306044830152600060648301527f0000000000000000000000000000000000000000000000000000000000000000169063e8eda9df90608401600060405180830381600087803b1580156141ef57600080fd5b505af1925050508015614200575060015b6109585761420c614874565b806308c379a0141561427957506142216148cb565b8061422c575061427b565b61423581614955565b611a9b60f11b14611b2f5760405162461bcd60e51b815260206004820152600e60248201526d19195c1bdcda5d0819985a5b195960921b6044820152606401610603565b505b3d6000803e3d6000fd5b60405163b6b55f2560e01b8152600481018290527f00000000000000000000000000000000000000000000000000000000000000006001600160a01b03169063b6b55f259060240161300f565b606083156142e1575081611abd565b8251156142f15782518084602001fd5b8160405162461bcd60e51b815260040161060391906143ed565b6001600160a01b038116811461065a57600080fd5b60006020828403121561433257600080fd5b8135611abd8161430b565b6001600160a01b0391909116815260200190565b60006020828403121561436357600080fd5b5035919050565b600081518084526020808501945080840160005b838110156143a35781516001600160a01b03168752958201959082019060010161437e565b509495945050505050565b602081526000611abd602083018461436a565b60005b838110156143dc5781810151838201526020016143c4565b83811115611d305750506000910152565b602081526000825180602084015261440c8160408501602087016143c1565b601f01601f19169190910160400192915050565b6000806040838503121561443357600080fd5b50508035926020909101359150565b60006020828403121561445457600080fd5b8151611abd8161430b565b6020808252601a908201527f63616c6c65722d69732d6e6f742d7468652d676f7665726e6f72000000000000604082015260600190565b6000602082840312156144a857600080fd5b5051919050565b634e487b7160e01b600052601160045260246000fd5b600082198211156144d8576144d86144af565b500190565b60208082526019908201527818d85b1b195c8b5a5ccb5b9bdd0b5d995cdc195c8b5c1bdbdb603a1b604082015260600190565b600082821015614522576145226144af565b500390565b60208082526016908201527531b0b63632b916b4b996b737ba16b096b5b2b2b832b960511b604082015260600190565b600181811c9082168061456b57607f821691505b6020821081141561458c57634e487b7160e01b600052602260045260246000fd5b50919050565b6001600160a01b03929092168252602082015260400190565b6001600160a01b039586168152938516602085015260408401929092526060830152909116608082015260a00190565b634e487b7160e01b600052603260045260246000fd5b634e487b7160e01b600052603160045260246000fd5b8051801515811461461757600080fd5b919050565b60006020828403121561462e57600080fd5b611abd82614607565b6000806000806000806000806000806101408b8d03121561465757600080fd5b8a51995060208b0151985060408b0151975060608b0151965060808b0151955061468360a08c01614607565b945061469160c08c01614607565b935061469f60e08c01614607565b92506146ae6101008c01614607565b91506146bd6101208c01614607565b90509295989b9194979a5092959850565b6000602082840312156146e057600080fd5b815160ff81168114611abd57600080fd5b600181815b8085111561472c578160001904821115614712576147126144af565b8085161561471f57918102915b93841c93908002906146f6565b509250929050565b60008261474357506001610bde565b8161475057506000610bde565b816001811461476657600281146147705761478c565b6001915050610bde565b60ff841115614781576147816144af565b50506001821b610bde565b5060208310610133831016604e8410600b84101617156147af575081810a610bde565b6147b983836146f1565b80600019048211156147cd576147cd6144af565b029392505050565b6000611abd60ff841683614734565b60008160001904831182151516156147fe576147fe6144af565b500290565b60008261482057634e487b7160e01b600052601260045260246000fd5b500490565b606081526000614838606083018661436a565b6020830194909452506001600160a01b0391909116604090910152919050565b6000825161486a8184602087016143c1565b9190910192915050565b600060033d111561488d5760046000803e5060005160e01c5b90565b601f8201601f1916810167ffffffffffffffff811182821017156148c457634e487b7160e01b600052604160045260246000fd5b6040525050565b600060443d10156148d95790565b6040516003193d81016004833e81513d67ffffffffffffffff816024840111818411171561490957505050505090565b82850191508151818111156149215750505050505090565b843d870101602082850101111561493b5750505050505090565b61494a60208286010187614890565b509095945050505050565b8051602080830151919081101561458c5760001960209190910360031b1b1691905056fea26469706673582212207d31cd65265061610656714ca37b9a2d7bc65687050f24959f860e1e8413629164736f6c63430008090033",
  "devdoc": {
    "kind": "dev",
    "methods": {
      "addKeeper(address)": {
        "params": {
          "_keeperAddress": "keeper address to add."
        }
      },
      "approveToken()": {
        "details": "Approve all required tokens"
      },
      "migrate(address)": {
        "details": "_beforeMigration hook can be implemented in child strategy to do extra steps.",
        "params": {
          "_newStrategy": "Address of new strategy"
        }
      },
      "rebalance()": {
        "returns": {
          "_loss": "Realized loss, if any, in collateral.",
          "_payback": "If strategy has any excess debt, we have to liquidate asset to payback excess debt.",
          "_profit": "Realized profit in collateral."
        }
      },
      "removeKeeper(address)": {
        "params": {
          "_keeperAddress": "keeper address to remove."
        }
      },
      "sweepERC20(address)": {
        "params": {
          "_fromToken": "token address to sweep"
        }
      },
      "updateBorrowLimit(uint256,uint256)": {
        "details": "It is possible to set _maxBorrowLimit and _minBorrowLimit as 0 to not borrow anything",
        "params": {
          "_maxBorrowLimit": "It is % of actual collateral factor of protocol",
          "_minBorrowLimit": "It is % of actual collateral factor of protocol"
        }
      },
      "updateFeeCollector(address)": {
        "params": {
          "_feeCollector": "fee collector address"
        }
      },
      "updateSwapper(address)": {
        "params": {
          "_swapper": "swapper address"
        }
      },
      "withdraw(uint256)": {
        "params": {
          "_amount": "Amount of collateral token"
        }
      }
    },
    "title": "Deposit Collateral in Aave and earn interest by depositing borrowed token in a Vesper Pool.",
    "version": 1
  },
  "userdoc": {
    "kind": "user",
    "methods": {
      "addKeeper(address)": {
        "notice": "Add given address in keepers list."
      },
      "canStartCooldown()": {
        "notice": "Returns true if we should start cooldown"
      },
      "canUnstake()": {
        "notice": "Returns true if Aave can be unstaked"
      },
      "cooldownData()": {
        "notice": "Return cooldown related timestamps"
      },
      "harvestVSP()": {
        "notice": "Claim VSP and convert to collateral token"
      },
      "isReservedToken(address)": {
        "notice": "Check whether given token is reserved or not. Reserved tokens are not allowed to sweep."
      },
      "keepers()": {
        "notice": "Return list of keepers"
      },
      "migrate(address)": {
        "notice": "Migrate all asset and vault ownership,if any, to new strategy"
      },
      "rebalance()": {
        "notice": "OnlyKeeper: Rebalance profit, loss and investment of this strategy.  Calculate profit, loss and payback of this strategy and realize profit/loss and  withdraw fund for payback, if any, and submit this report to pool."
      },
      "removeKeeper(address)": {
        "notice": "Remove given address from keepers list."
      },
      "sweepERC20(address)": {
        "notice": "sweep given token to feeCollector of strategy"
      },
      "token()": {
        "notice": "Returns address of token correspond to collateral token"
      },
      "tvl()": {
        "notice": "Returns total collateral locked in the strategy"
      },
      "updateBorrowLimit(uint256,uint256)": {
        "notice": "Update upper and lower borrow limit. Usually maxBorrowLimit < 100% of actual collateral factor of protocol."
      },
      "updateFeeCollector(address)": {
        "notice": "Update fee collector"
      },
      "updateSwapper(address)": {
        "notice": "Update swapper"
      },
      "withdraw(uint256)": {
        "notice": "Withdraw collateral token from end protocol."
      }
    },
    "version": 1
  },
  "storageLayout": {
    "storage": [
      {
        "astId": 10328,
        "contract": "vesper-strategies/contracts/strategies/aave/v2/AaveV2VesperXy.sol:AaveV2VesperXy",
        "label": "receiptToken",
        "offset": 0,
        "slot": "0",
        "type": "t_address"
      },
      {
        "astId": 10334,
        "contract": "vesper-strategies/contracts/strategies/aave/v2/AaveV2VesperXy.sol:AaveV2VesperXy",
        "label": "feeCollector",
        "offset": 0,
        "slot": "1",
        "type": "t_address"
      },
      {
        "astId": 10337,
        "contract": "vesper-strategies/contracts/strategies/aave/v2/AaveV2VesperXy.sol:AaveV2VesperXy",
        "label": "swapper",
        "offset": 0,
        "slot": "2",
        "type": "t_contract(IRoutedSwapper)10301"
      },
      {
        "astId": 10350,
        "contract": "vesper-strategies/contracts/strategies/aave/v2/AaveV2VesperXy.sol:AaveV2VesperXy",
        "label": "_keepers",
        "offset": 0,
        "slot": "3",
        "type": "t_struct(AddressSet)2683_storage"
      },
      {
        "astId": 10949,
        "contract": "vesper-strategies/contracts/strategies/aave/v2/AaveV2VesperXy.sol:AaveV2VesperXy",
        "label": "aaveProtocolDataProvider",
        "offset": 0,
        "slot": "5",
        "type": "t_contract(AaveProtocolDataProvider)9974"
      },
      {
        "astId": 11863,
        "contract": "vesper-strategies/contracts/strategies/aave/v2/AaveV2VesperXy.sol:AaveV2VesperXy",
        "label": "NAME",
        "offset": 0,
        "slot": "6",
        "type": "t_string_storage"
      },
      {
        "astId": 11872,
        "contract": "vesper-strategies/contracts/strategies/aave/v2/AaveV2VesperXy.sol:AaveV2VesperXy",
        "label": "minBorrowLimit",
        "offset": 0,
        "slot": "7",
        "type": "t_uint256"
      },
      {
        "astId": 11875,
        "contract": "vesper-strategies/contracts/strategies/aave/v2/AaveV2VesperXy.sol:AaveV2VesperXy",
        "label": "maxBorrowLimit",
        "offset": 0,
        "slot": "8",
        "type": "t_uint256"
      },
      {
        "astId": 11880,
        "contract": "vesper-strategies/contracts/strategies/aave/v2/AaveV2VesperXy.sol:AaveV2VesperXy",
        "label": "rewardToken",
        "offset": 0,
        "slot": "9",
        "type": "t_address"
      },
      {
        "astId": 11882,
        "contract": "vesper-strategies/contracts/strategies/aave/v2/AaveV2VesperXy.sol:AaveV2VesperXy",
        "label": "borrowToken",
        "offset": 0,
        "slot": "10",
        "type": "t_address"
      },
      {
        "astId": 11885,
        "contract": "vesper-strategies/contracts/strategies/aave/v2/AaveV2VesperXy.sol:AaveV2VesperXy",
        "label": "vdToken",
        "offset": 0,
        "slot": "11",
        "type": "t_contract(AToken)9774"
      },
      {
        "astId": 11887,
        "contract": "vesper-strategies/contracts/strategies/aave/v2/AaveV2VesperXy.sol:AaveV2VesperXy",
        "label": "aBorrowToken",
        "offset": 0,
        "slot": "12",
        "type": "t_address"
      }
    ],
    "types": {
      "t_address": {
        "encoding": "inplace",
        "label": "address",
        "numberOfBytes": "20"
      },
      "t_array(t_bytes32)dyn_storage": {
        "base": "t_bytes32",
        "encoding": "dynamic_array",
        "label": "bytes32[]",
        "numberOfBytes": "32"
      },
      "t_bytes32": {
        "encoding": "inplace",
        "label": "bytes32",
        "numberOfBytes": "32"
      },
      "t_contract(AToken)9774": {
        "encoding": "inplace",
        "label": "contract AToken",
        "numberOfBytes": "20"
      },
      "t_contract(AaveProtocolDataProvider)9974": {
        "encoding": "inplace",
        "label": "contract AaveProtocolDataProvider",
        "numberOfBytes": "20"
      },
      "t_contract(IRoutedSwapper)10301": {
        "encoding": "inplace",
        "label": "contract IRoutedSwapper",
        "numberOfBytes": "20"
      },
      "t_mapping(t_bytes32,t_uint256)": {
        "encoding": "mapping",
        "key": "t_bytes32",
        "label": "mapping(bytes32 => uint256)",
        "numberOfBytes": "32",
        "value": "t_uint256"
      },
      "t_string_storage": {
        "encoding": "bytes",
        "label": "string",
        "numberOfBytes": "32"
      },
      "t_struct(AddressSet)2683_storage": {
        "encoding": "inplace",
        "label": "struct EnumerableSet.AddressSet",
        "members": [
          {
            "astId": 2682,
            "contract": "vesper-strategies/contracts/strategies/aave/v2/AaveV2VesperXy.sol:AaveV2VesperXy",
            "label": "_inner",
            "offset": 0,
            "slot": "0",
            "type": "t_struct(Set)2382_storage"
          }
        ],
        "numberOfBytes": "64"
      },
      "t_struct(Set)2382_storage": {
        "encoding": "inplace",
        "label": "struct EnumerableSet.Set",
        "members": [
          {
            "astId": 2377,
            "contract": "vesper-strategies/contracts/strategies/aave/v2/AaveV2VesperXy.sol:AaveV2VesperXy",
            "label": "_values",
            "offset": 0,
            "slot": "0",
            "type": "t_array(t_bytes32)dyn_storage"
          },
          {
            "astId": 2381,
            "contract": "vesper-strategies/contracts/strategies/aave/v2/AaveV2VesperXy.sol:AaveV2VesperXy",
            "label": "_indexes",
            "offset": 0,
            "slot": "1",
            "type": "t_mapping(t_bytes32,t_uint256)"
          }
        ],
        "numberOfBytes": "64"
      },
      "t_uint256": {
        "encoding": "inplace",
        "label": "uint256",
        "numberOfBytes": "32"
      }
    }
  }
}