{
  "address": "0xd66b769b99714E49D599D6eD6bC46A01FA409661",
  "abi": [
    {
      "anonymous": false,
      "inputs": [
        {
          "indexed": true,
          "internalType": "address",
          "name": "strategy",
          "type": "address"
        },
        {
          "indexed": false,
          "internalType": "uint256",
          "name": "profit",
          "type": "uint256"
        },
        {
          "indexed": false,
          "internalType": "uint256",
          "name": "loss",
          "type": "uint256"
        },
        {
          "indexed": false,
          "internalType": "uint256",
          "name": "payback",
          "type": "uint256"
        },
        {
          "indexed": false,
          "internalType": "uint256",
          "name": "strategyDebt",
          "type": "uint256"
        },
        {
          "indexed": false,
          "internalType": "uint256",
          "name": "poolDebt",
          "type": "uint256"
        },
        {
          "indexed": false,
          "internalType": "uint256",
          "name": "creditLine",
          "type": "uint256"
        }
      ],
      "name": "EarningReported",
      "type": "event"
    },
    {
      "anonymous": false,
      "inputs": [
        {
          "indexed": true,
          "internalType": "address",
          "name": "strategy",
          "type": "address"
        },
        {
          "indexed": false,
          "internalType": "uint256",
          "name": "loss",
          "type": "uint256"
        }
      ],
      "name": "LossReported",
      "type": "event"
    },
    {
      "anonymous": false,
      "inputs": [
        {
          "indexed": true,
          "internalType": "address",
          "name": "strategy",
          "type": "address"
        },
        {
          "indexed": false,
          "internalType": "uint256",
          "name": "debtRatio",
          "type": "uint256"
        },
        {
          "indexed": false,
          "internalType": "uint256",
          "name": "externalDepositFee",
          "type": "uint256"
        }
      ],
      "name": "StrategyAdded",
      "type": "event"
    },
    {
      "anonymous": false,
      "inputs": [
        {
          "indexed": true,
          "internalType": "address",
          "name": "oldStrategy",
          "type": "address"
        },
        {
          "indexed": true,
          "internalType": "address",
          "name": "newStrategy",
          "type": "address"
        }
      ],
      "name": "StrategyMigrated",
      "type": "event"
    },
    {
      "anonymous": false,
      "inputs": [
        {
          "indexed": true,
          "internalType": "address",
          "name": "strategy",
          "type": "address"
        }
      ],
      "name": "StrategyRemoved",
      "type": "event"
    },
    {
      "anonymous": false,
      "inputs": [
        {
          "indexed": true,
          "internalType": "address",
          "name": "strategy",
          "type": "address"
        },
        {
          "indexed": false,
          "internalType": "uint256",
          "name": "oldFee",
          "type": "uint256"
        },
        {
          "indexed": false,
          "internalType": "uint256",
          "name": "newFee",
          "type": "uint256"
        }
      ],
      "name": "UpdatedExternalDepositFee",
      "type": "event"
    },
    {
      "anonymous": false,
      "inputs": [
        {
          "indexed": false,
          "internalType": "uint256",
          "name": "oldFee",
          "type": "uint256"
        },
        {
          "indexed": false,
          "internalType": "uint256",
          "name": "newFee",
          "type": "uint256"
        }
      ],
      "name": "UpdatedPoolExternalDepositFee",
      "type": "event"
    },
    {
      "anonymous": false,
      "inputs": [
        {
          "indexed": true,
          "internalType": "address",
          "name": "strategy",
          "type": "address"
        },
        {
          "indexed": false,
          "internalType": "uint256",
          "name": "oldDebtRatio",
          "type": "uint256"
        },
        {
          "indexed": false,
          "internalType": "uint256",
          "name": "newDebtRatio",
          "type": "uint256"
        }
      ],
      "name": "UpdatedStrategyDebtRatio",
      "type": "event"
    },
    {
      "inputs": [],
      "name": "MAX_BPS",
      "outputs": [
        {
          "internalType": "uint256",
          "name": "",
          "type": "uint256"
        }
      ],
      "stateMutability": "view",
      "type": "function"
    },
    {
      "inputs": [],
      "name": "VERSION",
      "outputs": [
        {
          "internalType": "string",
          "name": "",
          "type": "string"
        }
      ],
      "stateMutability": "view",
      "type": "function"
    },
    {
      "inputs": [
        {
          "internalType": "address",
          "name": "_strategy",
          "type": "address"
        },
        {
          "internalType": "uint256",
          "name": "_debtRatio",
          "type": "uint256"
        },
        {
          "internalType": "uint256",
          "name": "_externalDepositFee",
          "type": "uint256"
        }
      ],
      "name": "addStrategy",
      "outputs": [],
      "stateMutability": "nonpayable",
      "type": "function"
    },
    {
      "inputs": [
        {
          "internalType": "address",
          "name": "_strategy",
          "type": "address"
        }
      ],
      "name": "availableCreditLimit",
      "outputs": [
        {
          "internalType": "uint256",
          "name": "",
          "type": "uint256"
        }
      ],
      "stateMutability": "view",
      "type": "function"
    },
    {
      "inputs": [
        {
          "internalType": "address",
          "name": "_strategy",
          "type": "address"
        },
        {
          "internalType": "uint256",
          "name": "_decreaseBy",
          "type": "uint256"
        }
      ],
      "name": "decreaseDebt",
      "outputs": [],
      "stateMutability": "nonpayable",
      "type": "function"
    },
    {
      "inputs": [
        {
          "internalType": "address",
          "name": "_strategy",
          "type": "address"
        }
      ],
      "name": "excessDebt",
      "outputs": [
        {
          "internalType": "uint256",
          "name": "",
          "type": "uint256"
        }
      ],
      "stateMutability": "view",
      "type": "function"
    },
    {
      "inputs": [],
      "name": "externalDepositFee",
      "outputs": [
        {
          "internalType": "uint256",
          "name": "",
          "type": "uint256"
        }
      ],
      "stateMutability": "view",
      "type": "function"
    },
    {
      "inputs": [],
      "name": "getStrategies",
      "outputs": [
        {
          "internalType": "address[]",
          "name": "",
          "type": "address[]"
        }
      ],
      "stateMutability": "view",
      "type": "function"
    },
    {
      "inputs": [],
      "name": "getWithdrawQueue",
      "outputs": [
        {
          "internalType": "address[]",
          "name": "",
          "type": "address[]"
        }
      ],
      "stateMutability": "view",
      "type": "function"
    },
    {
      "inputs": [
        {
          "internalType": "address",
          "name": "_pool",
          "type": "address"
        }
      ],
      "name": "init",
      "outputs": [],
      "stateMutability": "nonpayable",
      "type": "function"
    },
    {
      "inputs": [
        {
          "internalType": "address",
          "name": "_old",
          "type": "address"
        },
        {
          "internalType": "address",
          "name": "_new",
          "type": "address"
        }
      ],
      "name": "migrateStrategy",
      "outputs": [],
      "stateMutability": "nonpayable",
      "type": "function"
    },
    {
      "inputs": [],
      "name": "pool",
      "outputs": [
        {
          "internalType": "address",
          "name": "",
          "type": "address"
        }
      ],
      "stateMutability": "view",
      "type": "function"
    },
    {
      "inputs": [],
      "name": "recalculatePoolExternalDepositFee",
      "outputs": [],
      "stateMutability": "nonpayable",
      "type": "function"
    },
    {
      "inputs": [
        {
          "internalType": "uint256",
          "name": "_index",
          "type": "uint256"
        }
      ],
      "name": "removeStrategy",
      "outputs": [],
      "stateMutability": "nonpayable",
      "type": "function"
    },
    {
      "inputs": [
        {
          "internalType": "address",
          "name": "_strategy",
          "type": "address"
        },
        {
          "internalType": "uint256",
          "name": "_profit",
          "type": "uint256"
        },
        {
          "internalType": "uint256",
          "name": "_loss",
          "type": "uint256"
        },
        {
          "internalType": "uint256",
          "name": "_payback",
          "type": "uint256"
        }
      ],
      "name": "reportEarning",
      "outputs": [
        {
          "internalType": "uint256",
          "name": "_actualPayback",
          "type": "uint256"
        },
        {
          "internalType": "uint256",
          "name": "_creditLine",
          "type": "uint256"
        }
      ],
      "stateMutability": "nonpayable",
      "type": "function"
    },
    {
      "inputs": [
        {
          "internalType": "address",
          "name": "_strategy",
          "type": "address"
        },
        {
          "internalType": "uint256",
          "name": "_loss",
          "type": "uint256"
        }
      ],
      "name": "reportLoss",
      "outputs": [],
      "stateMutability": "nonpayable",
      "type": "function"
    },
    {
      "inputs": [
        {
          "internalType": "uint256",
          "name": "",
          "type": "uint256"
        }
      ],
      "name": "strategies",
      "outputs": [
        {
          "internalType": "address",
          "name": "",
          "type": "address"
        }
      ],
      "stateMutability": "view",
      "type": "function"
    },
    {
      "inputs": [
        {
          "internalType": "address",
          "name": "",
          "type": "address"
        }
      ],
      "name": "strategy",
      "outputs": [
        {
          "internalType": "bool",
          "name": "active",
          "type": "bool"
        },
        {
          "internalType": "uint256",
          "name": "interestFee",
          "type": "uint256"
        },
        {
          "internalType": "uint256",
          "name": "debtRate",
          "type": "uint256"
        },
        {
          "internalType": "uint256",
          "name": "lastRebalance",
          "type": "uint256"
        },
        {
          "internalType": "uint256",
          "name": "totalDebt",
          "type": "uint256"
        },
        {
          "internalType": "uint256",
          "name": "totalLoss",
          "type": "uint256"
        },
        {
          "internalType": "uint256",
          "name": "totalProfit",
          "type": "uint256"
        },
        {
          "internalType": "uint256",
          "name": "debtRatio",
          "type": "uint256"
        },
        {
          "internalType": "uint256",
          "name": "externalDepositFee",
          "type": "uint256"
        }
      ],
      "stateMutability": "view",
      "type": "function"
    },
    {
      "inputs": [
        {
          "internalType": "address",
          "name": "_fromToken",
          "type": "address"
        }
      ],
      "name": "sweepERC20",
      "outputs": [],
      "stateMutability": "nonpayable",
      "type": "function"
    },
    {
      "inputs": [],
      "name": "totalDebt",
      "outputs": [
        {
          "internalType": "uint256",
          "name": "",
          "type": "uint256"
        }
      ],
      "stateMutability": "view",
      "type": "function"
    },
    {
      "inputs": [
        {
          "internalType": "address",
          "name": "_strategy",
          "type": "address"
        }
      ],
      "name": "totalDebtOf",
      "outputs": [
        {
          "internalType": "uint256",
          "name": "",
          "type": "uint256"
        }
      ],
      "stateMutability": "view",
      "type": "function"
    },
    {
      "inputs": [],
      "name": "totalDebtRatio",
      "outputs": [
        {
          "internalType": "uint256",
          "name": "",
          "type": "uint256"
        }
      ],
      "stateMutability": "view",
      "type": "function"
    },
    {
      "inputs": [
        {
          "internalType": "address",
          "name": "_strategy",
          "type": "address"
        },
        {
          "internalType": "uint256",
          "name": "_debtRatio",
          "type": "uint256"
        }
      ],
      "name": "updateDebtRatio",
      "outputs": [],
      "stateMutability": "nonpayable",
      "type": "function"
    },
    {
      "inputs": [
        {
          "internalType": "address",
          "name": "_strategy",
          "type": "address"
        },
        {
          "internalType": "uint256",
          "name": "_externalDepositFee",
          "type": "uint256"
        }
      ],
      "name": "updateExternalDepositFee",
      "outputs": [],
      "stateMutability": "nonpayable",
      "type": "function"
    },
    {
      "inputs": [
        {
          "internalType": "address[]",
          "name": "_withdrawQueue",
          "type": "address[]"
        }
      ],
      "name": "updateWithdrawQueue",
      "outputs": [],
      "stateMutability": "nonpayable",
      "type": "function"
    },
    {
      "inputs": [
        {
          "internalType": "uint256",
          "name": "",
          "type": "uint256"
        }
      ],
      "name": "withdrawQueue",
      "outputs": [
        {
          "internalType": "address",
          "name": "",
          "type": "address"
        }
      ],
      "stateMutability": "view",
      "type": "function"
    }
  ],
  "transactionHash": "0x627e2dfa2689abf9682c43b68c5c516a017c9df5e4b5659245ead22935b3b01f",
  "args": [],
  "numDeployments": 2,
  "solcInputHash": "57d8d4de6de4c51891db3a907f2b9273",
  "bytecode": "0x608060405234801561001057600080fd5b50612f61806100206000396000f3fe608060405234801561001057600080fd5b506004361061016e5760003560e01c80638f88d18c116100ce578063d53ddc2611610087578063d53ddc261461039f578063d574ea3d146103b2578063e00af4a7146103c5578063fa34d611146103d8578063fc7b9c18146103eb578063fd967f47146103f4578063ffa1ad74146103fd57600080fd5b80638f88d18c1461030a5780639f2b28331461031d578063a066654b14610349578063b49a60bb14610371578063b64321ec14610379578063c0cbbca61461038c57600080fd5b80632fb9ba311161012b5780632fb9ba311461028f57806332b77a76146102a2578063346162d5146102b557806362518ddf146102be5780636cb56d19146102d15780637f13086e146102e4578063854f4d80146102f757600080fd5b8063111830521461017357806316f0115b1461019157806319ab453c146101b7578063228bfd9f146101cc5780632a1f6ec1146102705780632df9eab914610278575b600080fd5b61017b61042e565b6040516101889190612a81565b60405180910390f35b6000546101aa906201000090046001600160a01b031681565b6040516101889190612ace565b6101ca6101c5366004612b07565b610490565b005b61022a6101da366004612b07565b600560208190526000918252604090912080546001820154600283015460038401546004850154958501546006860154600787015460089097015460ff9096169794969395929493919290919089565b604080519915158a5260208a0198909852968801959095526060870193909352608086019190915260a085015260c084015260e083015261010082015261012001610188565b6101ca6105ac565b61028160015481565b604051908152602001610188565b6101ca61029d366004612b24565b6106e8565b6101ca6102b0366004612b24565b610791565b61028160065481565b6101aa6102cc366004612b50565b610937565b6101ca6102df366004612b69565b610961565b6101ca6102f2366004612b24565b610dc5565b6101ca610305366004612bb8565b610e9e565b6101ca610318366004612b24565b6110d7565b61028161032b366004612b07565b6001600160a01b031660009081526005602052604090206004015490565b61035c610357366004612c7d565b611352565b60408051928352602083019190915201610188565b61017b6116b3565b610281610387366004612b07565b611713565b6101ca61039a366004612b50565b611724565b6102816103ad366004612b07565b611b36565b6101aa6103c0366004612b50565b611b41565b6101ca6103d3366004612b07565b611b51565b6101ca6103e6366004612cb8565b611d25565b61028160025481565b61028161271081565b610421604051806040016040528060058152602001641a9718171960d91b81525081565b6040516101889190612d19565b6060600480548060200260200160405190810160405280929190818152602001828054801561048657602002820191906000526020600020905b81546001600160a01b03168152600190910190602001808311610468575b5050505050905090565b600054610100900460ff16806104a9575060005460ff16155b6105115760405162461bcd60e51b815260206004820152602e60248201527f496e697469616c697a61626c653a20636f6e747261637420697320616c72656160448201526d191e481a5b9a5d1a585b1a5e995960921b60648201526084015b60405180910390fd5b600054610100900460ff16158015610533576000805461ffff19166101011790555b604080518082019091526002815261031360f41b60208201526001600160a01b0383166105735760405162461bcd60e51b81526004016105089190612d19565b506000805462010000600160b01b031916620100006001600160a01b0385160217905580156105a8576000805461ff00191690555b5050565b6000546040805163030d028960e21b8152905133926201000090046001600160a01b031691630c340a24916004808301926020929190829003018186803b1580156105f657600080fd5b505afa15801561060a573d6000803e3d6000fd5b505050506040513d601f19601f8201168201806040525081019061062e9190612d4c565b6001600160a01b031614806106c257506000546201000090046001600160a01b0316636ba42aaa336040518263ffffffff1660e01b81526004016106729190612ace565b60206040518083038186803b15801561068a57600080fd5b505afa15801561069e573d6000803e3d6000fd5b505050506040513d601f19601f820116820180604052508101906106c29190612d69565b6106de5760405162461bcd60e51b815260040161050890612d8b565b6106e66120bb565b565b6000546001600160a01b03620100009091041633146107195760405162461bcd60e51b815260040161050890612db1565b6001600160a01b03821660009081526005602052604090206004015461073f90826121e8565b6001600160a01b03831660009081526005602052604081206004018054929350839290919061076f908490612deb565b9250508190555080600260008282546107889190612deb565b90915550505050565b6000546040805163030d028960e21b8152905133926201000090046001600160a01b031691630c340a24916004808301926020929190829003018186803b1580156107db57600080fd5b505afa1580156107ef573d6000803e3d6000fd5b505050506040513d601f19601f820116820180604052508101906108139190612d4c565b6001600160a01b0316146108395760405162461bcd60e51b815260040161050890612e02565b6001600160a01b0382166000908152600560209081526040918290205482518084019093526002835261189b60f11b9183019190915260ff1661088f5760405162461bcd60e51b81526004016105089190612d19565b50604080518082019091526002815261313160f01b60208201526127108211156108cc5760405162461bcd60e51b81526004016105089190612d19565b506001600160a01b038216600081815260056020908152604091829020600801805490859055825181815291820185905292917f3e57eabb1906726caa174b6716b34373026dfd25dbae17ba47ec46e8a9ced9ee910160405180910390a26109326120bb565b505050565b6004818154811061094757600080fd5b6000918252602090912001546001600160a01b0316905081565b6000546001600160a01b03620100009091041633146109925760405162461bcd60e51b815260040161050890612db1565b6001600160a01b0382166000908152600560209081526040918290205482518084019093526002835261189b60f11b9183019190915260ff166109e85760405162461bcd60e51b81526004016105089190612d19565b506001600160a01b0381166000908152600560209081526040918290205482518084019093526002835261313560f01b9183019190915260ff1615610a405760405162461bcd60e51b81526004016105089190612d19565b506000604051806101200160405280600115158152602001600081526020016000815260200160056000866001600160a01b03166001600160a01b0316815260200190815260200160002060030154815260200160056000866001600160a01b03166001600160a01b03168152602001908152602001600020600401548152602001600081526020016000815260200160056000866001600160a01b03166001600160a01b0316815260200190815260200160002060070154815260200160056000866001600160a01b03166001600160a01b0316815260200190815260200160002060080154815250905060056000846001600160a01b03166001600160a01b03168152602001908152602001600020600080820160006101000a81549060ff02191690556001820160009055600282016000905560038201600090556004820160009055600582016000905560068201600090556007820160009055600882016000905550508060056000846001600160a01b03166001600160a01b0316815260200190815260200160002060008201518160000160006101000a81548160ff0219169083151502179055506020820151816001015560408201518160020155606082015181600301556080820151816004015560a0820151816005015560c0820151816006015560e08201518160070155610100820151816008015590505060005b600354811015610ce057836001600160a01b031660038281548110610c6c57610c6c612e2c565b6000918252602090912001546001600160a01b03161415610cce578260038281548110610c9b57610c9b612e2c565b9060005260206000200160006101000a8154816001600160a01b0302191690836001600160a01b03160217905550610ce0565b80610cd881612e42565b915050610c45565b5060005b600454811015610d7f57836001600160a01b031660048281548110610d0b57610d0b612e2c565b6000918252602090912001546001600160a01b03161415610d6d578260048281548110610d3a57610d3a612e2c565b9060005260206000200160006101000a8154816001600160a01b0302191690836001600160a01b03160217905550610d7f565b80610d7781612e42565b915050610ce4565b50816001600160a01b0316836001600160a01b03167f100b69bb6b504e1252e36b375233158edee64d071b399e2f81473a695fd1b02160405160405180910390a3505050565b6000546001600160a01b0362010000909104163314610df65760405162461bcd60e51b815260040161050890612db1565b6001600160a01b0382166000908152600560209081526040918290205482518084019093526002835261189b60f11b9183019190915260ff16610e4c5760405162461bcd60e51b81526004016105089190612d19565b50610e578282612200565b816001600160a01b03167f3ffa9beb41b46c88b16758ef6c236ebd4d07cdfd4d22471030eb6b2d662482d982604051610e9291815260200190565b60405180910390a25050565b6000546040805163030d028960e21b8152905133926201000090046001600160a01b031691630c340a24916004808301926020929190829003018186803b158015610ee857600080fd5b505afa158015610efc573d6000803e3d6000fd5b505050506040513d601f19601f82011682018060405250810190610f209190612d4c565b6001600160a01b03161480610fb457506000546201000090046001600160a01b031663dd57366a336040518263ffffffff1660e01b8152600401610f649190612ace565b60206040518083038186803b158015610f7c57600080fd5b505afa158015610f90573d6000803e3d6000fd5b505050506040513d601f19601f82011682018060405250810190610fb49190612d69565b610fd05760405162461bcd60e51b815260040161050890612e5d565b805160045481148015610fe4575060035481145b604051806040016040528060018152602001600d60fa1b8152509061101c5760405162461bcd60e51b81526004016105089190612d19565b5060005b818110156110c3576005600084838151811061103e5761103e612e2c565b60200260200101516001600160a01b03166001600160a01b0316815260200190815260200160002060000160009054906101000a900460ff1660405180604001604052806002815260200161189b60f11b815250906110b05760405162461bcd60e51b81526004016105089190612d19565b50806110bb81612e42565b915050611020565b508151610932906004906020850190612a07565b6000546040805163030d028960e21b8152905133926201000090046001600160a01b031691630c340a24916004808301926020929190829003018186803b15801561112157600080fd5b505afa158015611135573d6000803e3d6000fd5b505050506040513d601f19601f820116820180604052508101906111599190612d4c565b6001600160a01b031614806111ed57506000546201000090046001600160a01b031663dd57366a336040518263ffffffff1660e01b815260040161119d9190612ace565b60206040518083038186803b1580156111b557600080fd5b505afa1580156111c9573d6000803e3d6000fd5b505050506040513d601f19601f820116820180604052508101906111ed9190612d69565b6112095760405162461bcd60e51b815260040161050890612e5d565b6001600160a01b0382166000908152600560209081526040918290205482518084019093526002835261189b60f11b9183019190915260ff1661125f5760405162461bcd60e51b81526004016105089190612d19565b506001600160a01b038216600090815260056020526040902060070154600154829161128a91612deb565b6112949190612e87565b6001819055604080518082019091526002815261062760f31b60208201529061271010156112d55760405162461bcd60e51b81526004016105089190612d19565b506001600160a01b0382166000818152600560209081526040918290206007015482519081529081018490527fab9990442b7ef5dfed05018d2d947ceb38710eda84b3e3b32940cbb28867ee0e910160405180910390a26001600160a01b03821660009081526005602052604090206007018190556105a86120bb565b6000805481906001600160a01b03620100009091041633146113865760405162461bcd60e51b815260040161050890612db1565b6001600160a01b0386166000908152600560209081526040918290205482518084019093526002835261189b60f11b9183019190915260ff166113dc5760405162461bcd60e51b81526004016105089190612d19565b506113e78386612e87565b600060029054906101000a90046001600160a01b03166001600160a01b031663fc0c546a6040518163ffffffff1660e01b815260040160206040518083038186803b15801561143557600080fd5b505afa158015611449573d6000803e3d6000fd5b505050506040513d601f19601f8201168201806040525081019061146d9190612d4c565b6001600160a01b03166370a08231886040518263ffffffff1660e01b81526004016114989190612ace565b60206040518083038186803b1580156114b057600080fd5b505afa1580156114c4573d6000803e3d6000fd5b505050506040513d601f19601f820116820180604052508101906114e89190612e9f565b1015604051806040016040528060018152602001603960f81b815250906115225760405162461bcd60e51b81526004016105089190612d19565b508315611533576115338685612200565b600061153e876123ed565b905061154a81856121e8565b9250821561159c576001600160a01b0387166000908152600560205260408120600401805485929061157d908490612deb565b9250508190555082600260008282546115969190612deb565b90915550505b6115a587612589565b915081156115f7576001600160a01b038716600090815260056020526040812060040180548492906115d8908490612e87565b9250508190555081600260008282546115f19190612e87565b90915550505b851561162e576001600160a01b03871660009081526005602052604081206006018054889290611628908490612e87565b90915550505b6001600160a01b0387166000818152600560209081526040918290204260038201556004015460025483518b81529283018a90529282018790526060820152608081019190915260a081018490527f29c6c60e040fcd722949346bda66341e8859b20b9a2124a625326ad10373391b9060c00160405180910390a25094509492505050565b60606003805480602002602001604051908101604052809291908181526020018280548015610486576020028201919060005260206000209081546001600160a01b03168152600190910190602001808311610468575050505050905090565b600061171e82612589565b92915050565b6000546040805163030d028960e21b8152905133926201000090046001600160a01b031691630c340a24916004808301926020929190829003018186803b15801561176e57600080fd5b505afa158015611782573d6000803e3d6000fd5b505050506040513d601f19601f820116820180604052508101906117a69190612d4c565b6001600160a01b0316146117cc5760405162461bcd60e51b815260040161050890612e02565b6000600382815481106117e1576117e1612e2c565b60009182526020808320909101546001600160a01b0316808352600582526040928390205483518085019094526002845261189b60f11b92840192909252925060ff166118415760405162461bcd60e51b81526004016105089190612d19565b506001600160a01b0381166000908152600560209081526040918290206004015482518084019093526002835261313960f01b91830191909152156118995760405162461bcd60e51b81526004016105089190612d19565b506001600160a01b03811660009081526005602052604081206007015460018054919290916118c9908490612deb565b90915550506001600160a01b03811660009081526005602081905260408220805460ff1916815560018082018490556002820184905560038083018590556004830185905592820184905560068201849055600782018490556008909101929092558054909161193891612deb565b8154811061194857611948612e2c565b600091825260209091200154600380546001600160a01b03909216918490811061197457611974612e2c565b9060005260206000200160006101000a8154816001600160a01b0302191690836001600160a01b0316021790555060038054806119b3576119b3612eb8565b600082815260208120820160001990810180546001600160a01b031916905590910190915560035467ffffffffffffffff8111156119f3576119f3612ba2565b604051908082528060200260200182016040528015611a1c578160200160208202803683370190505b5090506000805b600454811015611adf57836001600160a01b031660048281548110611a4a57611a4a612e2c565b6000918252602090912001546001600160a01b031614611acd5760048181548110611a7757611a77612e2c565b9060005260206000200160009054906101000a90046001600160a01b0316838381518110611aa757611aa7612e2c565b6001600160a01b039092166020928302919091019091015281611ac981612e42565b9250505b80611ad781612e42565b915050611a23565b508151611af3906004906020850190612a07565b506040516001600160a01b038416907f09a1db4b80c32706328728508c941a6b954f31eb5affd32f236c1fd405f8fea490600090a2611b306120bb565b50505050565b600061171e826123ed565b6003818154811061094757600080fd5b6000546040805163030d028960e21b8152905133926201000090046001600160a01b031691630c340a24916004808301926020929190829003018186803b158015611b9b57600080fd5b505afa158015611baf573d6000803e3d6000fd5b505050506040513d601f19601f82011682018060405250810190611bd39190612d4c565b6001600160a01b03161480611c6757506000546201000090046001600160a01b0316636ba42aaa336040518263ffffffff1660e01b8152600401611c179190612ace565b60206040518083038186803b158015611c2f57600080fd5b505afa158015611c43573d6000803e3d6000fd5b505050506040513d601f19601f82011682018060405250810190611c679190612d69565b611c835760405162461bcd60e51b815260040161050890612d8b565b6000546040516370a0823160e01b8152611d22916001600160a01b0362010000909104811691908416906370a0823190611cc1903090600401612ace565b60206040518083038186803b158015611cd957600080fd5b505afa158015611ced573d6000803e3d6000fd5b505050506040513d601f19601f82011682018060405250810190611d119190612e9f565b6001600160a01b03841691906127ff565b50565b6000546040805163030d028960e21b8152905133926201000090046001600160a01b031691630c340a24916004808301926020929190829003018186803b158015611d6f57600080fd5b505afa158015611d83573d6000803e3d6000fd5b505050506040513d601f19601f82011682018060405250810190611da79190612d4c565b6001600160a01b031614611dcd5760405162461bcd60e51b815260040161050890612e02565b604080518082019091526002815261031360f41b60208201526001600160a01b038416611e0d5760405162461bcd60e51b81526004016105089190612d19565b506001600160a01b0383166000908152600560209081526040918290205482518084019093526002835261313560f01b9183019190915260ff1615611e655760405162461bcd60e51b81526004016105089190612d19565b5081600154611e749190612e87565b6001819055604080518082019091526002815261062760f31b6020820152906127101015611eb55760405162461bcd60e51b81526004016105089190612d19565b50604080518082019091526002815261313160f01b6020820152612710821115611ef25760405162461bcd60e51b81526004016105089190612d19565b50600060405180610120016040528060011515815260200160008152602001600081526020014281526020016000815260200160008152602001600081526020018481526020018381525090508060056000866001600160a01b03166001600160a01b0316815260200190815260200160002060008201518160000160006101000a81548160ff0219169083151502179055506020820151816001015560408201518160020155606082015181600301556080820151816004015560a0820151816005015560c0820151816006015560e0820151816007015561010082015181600801559050506003849080600181540180825580915050600190039060005260206000200160009091909190916101000a8154816001600160a01b0302191690836001600160a01b031602179055506004849080600181540180825580915050600190039060005260206000200160009091909190916101000a8154816001600160a01b0302191690836001600160a01b03160217905550836001600160a01b03167f45bb3eed5cd098efb0a286413fb1f3c11841762610cefbabae6a772963e916ba84846040516120af929190918252602082015260400190565b60405180910390a2611b305b600354600154600090156121a35760005b828110156121a15760015460056000600384815481106120ee576120ee612e2c565b9060005260206000200160009054906101000a90046001600160a01b03166001600160a01b03166001600160a01b0316815260200190815260200160002060070154600560006003858154811061214757612147612e2c565b60009182526020808320909101546001600160a01b031683528201929092526040019020600801546121799190612ece565b6121839190612eed565b61218d9083612e87565b91508061219981612e42565b9150506120cc565b505b600680549082905560408051918252602082018390527f2d6a5770d560080bb77885132eea46b6db3b15e70e6e5e73087ea7bcd138fcf0910160405180910390a15050565b60008183106121f757816121f9565b825b9392505050565b6001600160a01b0382166000908152600560209081526040918290206004015482518084019093526002835261032360f41b91830191909152908282101561225b5760405162461bcd60e51b81526004016105089190612d19565b506001600160a01b03831660009081526005602081905260408220018054849290612287908490612e87565b90915550506001600160a01b038316600090815260056020526040812060040180548492906122b7908490612deb565b9250508190555081600260008282546122d09190612deb565b925050819055506000612399600060029054906101000a90046001600160a01b03166001600160a01b031663d4c3eea06040518163ffffffff1660e01b815260040160206040518083038186803b15801561232a57600080fd5b505afa15801561233e573d6000803e3d6000fd5b505050506040513d601f19601f820116820180604052508101906123629190612e9f565b61236e61271086612ece565b6123789190612eed565b6001600160a01b0386166000908152600560205260409020600701546121e8565b6001600160a01b0385166000908152600560205260408120600701805492935083929091906123c9908490612deb565b9250508190555080600160008282546123e29190612deb565b909155505050505050565b60008060056000846001600160a01b03166001600160a01b03168152602001908152602001600020600401549050600060029054906101000a90046001600160a01b03166001600160a01b0316634938649a6040518163ffffffff1660e01b815260040160206040518083038186803b15801561246957600080fd5b505afa15801561247d573d6000803e3d6000fd5b505050506040513d601f19601f820116820180604052508101906124a19190612d69565b156124ac5792915050565b6000612710600060029054906101000a90046001600160a01b03166001600160a01b031663d4c3eea06040518163ffffffff1660e01b815260040160206040518083038186803b1580156124ff57600080fd5b505afa158015612513573d6000803e3d6000fd5b505050506040513d601f19601f820116820180604052508101906125379190612e9f565b6001600160a01b03861660009081526005602052604090206007015461255d9190612ece565b6125679190612eed565b9050808211612577576000612581565b6125818183612deb565b949350505050565b60008060029054906101000a90046001600160a01b03166001600160a01b0316634938649a6040518163ffffffff1660e01b815260040160206040518083038186803b1580156125d857600080fd5b505afa1580156125ec573d6000803e3d6000fd5b505050506040513d601f19601f820116820180604052508101906126109190612d69565b1561261d57506000919050565b60008060029054906101000a90046001600160a01b03166001600160a01b031663d4c3eea06040518163ffffffff1660e01b815260040160206040518083038186803b15801561266c57600080fd5b505afa158015612680573d6000803e3d6000fd5b505050506040513d601f19601f820116820180604052508101906126a49190612e9f565b6001600160a01b03841660009081526005602052604081206007015491925090612710906126d3908490612ece565b6126dd9190612eed565b6001600160a01b03851660009081526005602052604090206004015490915081811061270e57506000949350505050565b6000612710846001546127219190612ece565b61272b9190612eed565b905080600254106127425750600095945050505050565b600061274e8385612deb565b90506127f46127e2600060029054906101000a90046001600160a01b03166001600160a01b031663b8cb343d6040518163ffffffff1660e01b815260040160206040518083038186803b1580156127a457600080fd5b505afa1580156127b8573d6000803e3d6000fd5b505050506040513d601f19601f820116820180604052508101906127dc9190612e9f565b836121e8565b6002546127ef9085612deb565b6121e8565b979650505050505050565b604080516001600160a01b03848116602483015260448083018590528351808403909101815260649092018352602080830180516001600160e01b031663a9059cbb60e01b17905283518085019094528084527f5361666545524332303a206c6f772d6c6576656c2063616c6c206661696c6564908401526109329286929160009161288f91851690849061290c565b80519091501561093257808060200190518101906128ad9190612d69565b6109325760405162461bcd60e51b815260206004820152602a60248201527f5361666545524332303a204552433230206f7065726174696f6e20646964206e6044820152691bdd081cdd58d8d9595960b21b6064820152608401610508565b6060612581848460008585843b6129655760405162461bcd60e51b815260206004820152601d60248201527f416464726573733a2063616c6c20746f206e6f6e2d636f6e74726163740000006044820152606401610508565b600080866001600160a01b031685876040516129819190612f0f565b60006040518083038185875af1925050503d80600081146129be576040519150601f19603f3d011682016040523d82523d6000602084013e6129c3565b606091505b50915091506127f4828286606083156129dd5750816121f9565b8251156129ed5782518084602001fd5b8160405162461bcd60e51b81526004016105089190612d19565b828054828255906000526020600020908101928215612a5c579160200282015b82811115612a5c57825182546001600160a01b0319166001600160a01b03909116178255602090920191600190910190612a27565b50612a68929150612a6c565b5090565b5b80821115612a685760008155600101612a6d565b6020808252825182820181905260009190848201906040850190845b81811015612ac25783516001600160a01b031683529284019291840191600101612a9d565b50909695505050505050565b6001600160a01b0391909116815260200190565b6001600160a01b0381168114611d2257600080fd5b8035612b0281612ae2565b919050565b600060208284031215612b1957600080fd5b81356121f981612ae2565b60008060408385031215612b3757600080fd5b8235612b4281612ae2565b946020939093013593505050565b600060208284031215612b6257600080fd5b5035919050565b60008060408385031215612b7c57600080fd5b8235612b8781612ae2565b91506020830135612b9781612ae2565b809150509250929050565b634e487b7160e01b600052604160045260246000fd5b60006020808385031215612bcb57600080fd5b823567ffffffffffffffff80821115612be357600080fd5b818501915085601f830112612bf757600080fd5b813581811115612c0957612c09612ba2565b8060051b604051601f19603f83011681018181108582111715612c2e57612c2e612ba2565b604052918252848201925083810185019188831115612c4c57600080fd5b938501935b82851015612c7157612c6285612af7565b84529385019392850192612c51565b98975050505050505050565b60008060008060808587031215612c9357600080fd5b8435612c9e81612ae2565b966020860135965060408601359560600135945092505050565b600080600060608486031215612ccd57600080fd5b8335612cd881612ae2565b95602085013595506040909401359392505050565b60005b83811015612d08578181015183820152602001612cf0565b83811115611b305750506000910152565b6020815260008251806020840152612d38816040850160208701612ced565b601f01601f19169190910160400192915050565b600060208284031215612d5e57600080fd5b81516121f981612ae2565b600060208284031215612d7b57600080fd5b815180151581146121f957600080fd5b6020808252600c908201526b3737ba16b096b5b2b2b832b960a11b604082015260600190565b6020808252600a90820152691b9bdd0b584b5c1bdbdb60b21b604082015260600190565b634e487b7160e01b600052601160045260246000fd5b600082821015612dfd57612dfd612dd5565b500390565b60208082526010908201526f3737ba16ba343296b3b7bb32b93737b960811b604082015260600190565b634e487b7160e01b600052603260045260246000fd5b6000600019821415612e5657612e56612dd5565b5060010190565b60208082526010908201526f3737ba16b096b6b0b4b73a30b4b732b960811b604082015260600190565b60008219821115612e9a57612e9a612dd5565b500190565b600060208284031215612eb157600080fd5b5051919050565b634e487b7160e01b600052603160045260246000fd5b6000816000190483118215151615612ee857612ee8612dd5565b500290565b600082612f0a57634e487b7160e01b600052601260045260246000fd5b500490565b60008251612f21818460208701612ced565b919091019291505056fea26469706673582212200ec6f715e16e43d1e5e1c3249dda8728e57b83f881c13b04f32604ff70d3ea9f64736f6c63430008090033",
  "devdoc": {
    "kind": "dev",
    "methods": {
      "addStrategy(address,uint256,uint256)": {
        "details": "Recalculate pool level external deposit fee after all state variables are updated.",
        "params": {
          "_debtRatio": "Pool fund allocation to this strategy",
          "_externalDepositFee": "External deposit fee of strategy",
          "_strategy": "Strategy address"
        }
      },
      "availableCreditLimit(address)": {
        "details": "Available credit limit is calculated based on current debt of pool and strategy, current debt limit of pool and strategy. credit available = min(pool's debt limit, strategy's debt limit, max debt per rebalance) when some strategy do not pay back outstanding debt, this impact credit line of other strategy if totalDebt of pool >= debtLimit of pool",
        "params": {
          "_strategy": "Strategy address"
        }
      },
      "decreaseDebt(address,uint256)": {
        "details": "In case of withdraw from strategy, pool will decrease debt by amount withdrawn",
        "params": {
          "_decreaseBy": "Amount by which strategy debt will be decreased",
          "_strategy": "Strategy Address"
        }
      },
      "excessDebt(address)": {
        "params": {
          "_strategy": "Address of strategy"
        }
      },
      "init(address)": {
        "details": "This init function meant to be called after proxy deployment.DO NOT CALL it with proxy deploy",
        "params": {
          "_pool": "Address of Vesper pool proxy"
        }
      },
      "migrateStrategy(address,address)": {
        "details": "Migrating strategy aka old and new strategy should be of same type.New strategy will replace old strategy in strategy mapping, strategies array, withdraw queue.",
        "params": {
          "_new": "Address of new strategy",
          "_old": "Address of strategy being migrated"
        }
      },
      "recalculatePoolExternalDepositFee()": {
        "details": "Whenever debtRatio changes recalculation is required. DebtRatio changes if strategy reports loss and in that case an off chain application can watch for it and take action accordingly.This function is gas heavy hence we do not want to call during reportLoss."
      },
      "removeStrategy(uint256)": {
        "details": "Revoke and remove strategy from array. Update withdraw queue. Withdraw queue order should not change after remove. Strategy can be removed only after it has paid all debt. Use migrate strategy if debt is not paid and want to upgrade strategy."
      },
      "reportEarning(address,uint256,uint256,uint256)": {
        "details": "Strategy call this in regular interval.",
        "params": {
          "_loss": "Reduce debt ,also reduce debtRatio, increase loss in record.",
          "_payback": "strategy willing to payback outstanding above debtLimit. no performance fee on this amount.  when governance has reduced debtRatio of strategy, strategy will report profit and payback amount separately.",
          "_profit": "yield generated by strategy. Strategy get performance fee on this amount"
        }
      },
      "reportLoss(address,uint256)": {
        "params": {
          "_loss": "Loss of strategy",
          "_strategy": "Strategy which incur loss"
        }
      },
      "sweepERC20(address)": {
        "details": "Transfer given ERC20 token to pool",
        "params": {
          "_fromToken": "Token address to sweep"
        }
      },
      "totalDebtOf(address)": {
        "params": {
          "_strategy": "Strategy address"
        }
      },
      "updateDebtRatio(address,uint256)": {
        "details": "A strategy is retired when debtRatio is 0As debtRatio impacts pool level external deposit fee hence recalculate it after updating debtRatio.",
        "params": {
          "_debtRatio": "New debt ratio",
          "_strategy": "Strategy address for which debt ratio is being updated"
        }
      },
      "updateExternalDepositFee(address,uint256)": {
        "params": {
          "_externalDepositFee": "New external deposit fee",
          "_strategy": "Strategy address for which external deposit fee is being updated"
        }
      },
      "updateWithdrawQueue(address[])": {
        "details": "Pool always keep some buffer amount to satisfy withdrawal request, any withdrawal request higher than buffer will withdraw from withdraw queue. So withdrawQueue[0] will be the first strategy where withdrawal request will be send.",
        "params": {
          "_withdrawQueue": "Ordered list of strategy."
        }
      }
    },
    "title": "Accountant for Vesper pools which keep records of strategies.",
    "version": 1
  },
  "userdoc": {
    "kind": "user",
    "methods": {
      "addStrategy(address,uint256,uint256)": {
        "notice": "Add strategy. Once strategy is added it can call rebalance and borrow fund from pool and invest that fund in provider/lender."
      },
      "availableCreditLimit(address)": {
        "notice": "Get available credit limit of strategy. This is the amount strategy can borrow from pool"
      },
      "decreaseDebt(address,uint256)": {
        "notice": "Decrease debt of strategy, also decrease totalDebt"
      },
      "excessDebt(address)": {
        "notice": "Debt above current debt limit"
      },
      "getStrategies()": {
        "notice": "Return strategies array"
      },
      "getWithdrawQueue()": {
        "notice": "Return withdrawQueue"
      },
      "migrateStrategy(address,address)": {
        "notice": "Migrate existing strategy to new strategy."
      },
      "recalculatePoolExternalDepositFee()": {
        "notice": "Recalculate pool external deposit fee. It is calculated using debtRatio and external deposit fee of each strategy."
      },
      "removeStrategy(uint256)": {
        "notice": "Remove strategy and recalculate pool level external deposit fee."
      },
      "reportLoss(address,uint256)": {
        "notice": "Update strategy loss."
      },
      "totalDebtOf(address)": {
        "notice": "Get total debt of given strategy"
      },
      "updateDebtRatio(address,uint256)": {
        "notice": "Update debt ratio."
      },
      "updateExternalDepositFee(address,uint256)": {
        "notice": "Update external deposit fee of strategy and recalculate pool level external deposit fee."
      },
      "updateWithdrawQueue(address[])": {
        "notice": "Update withdraw queue. Withdraw queue is list of strategy in the order in which funds should be withdrawn."
      }
    },
    "version": 1
  },
  "storageLayout": {
    "storage": [
      {
        "astId": 1360,
        "contract": "vesper-pools/contracts/pool/PoolAccountant.sol:PoolAccountant",
        "label": "_initialized",
        "offset": 0,
        "slot": "0",
        "type": "t_bool"
      },
      {
        "astId": 1363,
        "contract": "vesper-pools/contracts/pool/PoolAccountant.sol:PoolAccountant",
        "label": "_initializing",
        "offset": 1,
        "slot": "0",
        "type": "t_bool"
      },
      {
        "astId": 5059,
        "contract": "vesper-pools/contracts/pool/PoolAccountant.sol:PoolAccountant",
        "label": "pool",
        "offset": 2,
        "slot": "0",
        "type": "t_address"
      },
      {
        "astId": 5061,
        "contract": "vesper-pools/contracts/pool/PoolAccountant.sol:PoolAccountant",
        "label": "totalDebtRatio",
        "offset": 0,
        "slot": "1",
        "type": "t_uint256"
      },
      {
        "astId": 5063,
        "contract": "vesper-pools/contracts/pool/PoolAccountant.sol:PoolAccountant",
        "label": "totalDebt",
        "offset": 0,
        "slot": "2",
        "type": "t_uint256"
      },
      {
        "astId": 5066,
        "contract": "vesper-pools/contracts/pool/PoolAccountant.sol:PoolAccountant",
        "label": "strategies",
        "offset": 0,
        "slot": "3",
        "type": "t_array(t_address)dyn_storage"
      },
      {
        "astId": 5069,
        "contract": "vesper-pools/contracts/pool/PoolAccountant.sol:PoolAccountant",
        "label": "withdrawQueue",
        "offset": 0,
        "slot": "4",
        "type": "t_array(t_address)dyn_storage"
      },
      {
        "astId": 5096,
        "contract": "vesper-pools/contracts/pool/PoolAccountant.sol:PoolAccountant",
        "label": "strategy",
        "offset": 0,
        "slot": "5",
        "type": "t_mapping(t_address,t_struct(StrategyConfig)5091_storage)"
      },
      {
        "astId": 5098,
        "contract": "vesper-pools/contracts/pool/PoolAccountant.sol:PoolAccountant",
        "label": "externalDepositFee",
        "offset": 0,
        "slot": "6",
        "type": "t_uint256"
      }
    ],
    "types": {
      "t_address": {
        "encoding": "inplace",
        "label": "address",
        "numberOfBytes": "20"
      },
      "t_array(t_address)dyn_storage": {
        "base": "t_address",
        "encoding": "dynamic_array",
        "label": "address[]",
        "numberOfBytes": "32"
      },
      "t_bool": {
        "encoding": "inplace",
        "label": "bool",
        "numberOfBytes": "1"
      },
      "t_mapping(t_address,t_struct(StrategyConfig)5091_storage)": {
        "encoding": "mapping",
        "key": "t_address",
        "label": "mapping(address => struct PoolAccountantStorageV2.StrategyConfig)",
        "numberOfBytes": "32",
        "value": "t_struct(StrategyConfig)5091_storage"
      },
      "t_struct(StrategyConfig)5091_storage": {
        "encoding": "inplace",
        "label": "struct PoolAccountantStorageV2.StrategyConfig",
        "members": [
          {
            "astId": 5074,
            "contract": "vesper-pools/contracts/pool/PoolAccountant.sol:PoolAccountant",
            "label": "active",
            "offset": 0,
            "slot": "0",
            "type": "t_bool"
          },
          {
            "astId": 5076,
            "contract": "vesper-pools/contracts/pool/PoolAccountant.sol:PoolAccountant",
            "label": "interestFee",
            "offset": 0,
            "slot": "1",
            "type": "t_uint256"
          },
          {
            "astId": 5078,
            "contract": "vesper-pools/contracts/pool/PoolAccountant.sol:PoolAccountant",
            "label": "debtRate",
            "offset": 0,
            "slot": "2",
            "type": "t_uint256"
          },
          {
            "astId": 5080,
            "contract": "vesper-pools/contracts/pool/PoolAccountant.sol:PoolAccountant",
            "label": "lastRebalance",
            "offset": 0,
            "slot": "3",
            "type": "t_uint256"
          },
          {
            "astId": 5082,
            "contract": "vesper-pools/contracts/pool/PoolAccountant.sol:PoolAccountant",
            "label": "totalDebt",
            "offset": 0,
            "slot": "4",
            "type": "t_uint256"
          },
          {
            "astId": 5084,
            "contract": "vesper-pools/contracts/pool/PoolAccountant.sol:PoolAccountant",
            "label": "totalLoss",
            "offset": 0,
            "slot": "5",
            "type": "t_uint256"
          },
          {
            "astId": 5086,
            "contract": "vesper-pools/contracts/pool/PoolAccountant.sol:PoolAccountant",
            "label": "totalProfit",
            "offset": 0,
            "slot": "6",
            "type": "t_uint256"
          },
          {
            "astId": 5088,
            "contract": "vesper-pools/contracts/pool/PoolAccountant.sol:PoolAccountant",
            "label": "debtRatio",
            "offset": 0,
            "slot": "7",
            "type": "t_uint256"
          },
          {
            "astId": 5090,
            "contract": "vesper-pools/contracts/pool/PoolAccountant.sol:PoolAccountant",
            "label": "externalDepositFee",
            "offset": 0,
            "slot": "8",
            "type": "t_uint256"
          }
        ],
        "numberOfBytes": "288"
      },
      "t_uint256": {
        "encoding": "inplace",
        "label": "uint256",
        "numberOfBytes": "32"
      }
    }
  }
}