{
  "address": "0x2a7534a2A4293068931e7D287EfBcE7889031794",
  "abi": [
    {
      "anonymous": false,
      "inputs": [
        {
          "indexed": true,
          "internalType": "address",
          "name": "strategy",
          "type": "address"
        },
        {
          "indexed": false,
          "internalType": "uint256",
          "name": "profit",
          "type": "uint256"
        },
        {
          "indexed": false,
          "internalType": "uint256",
          "name": "loss",
          "type": "uint256"
        },
        {
          "indexed": false,
          "internalType": "uint256",
          "name": "payback",
          "type": "uint256"
        },
        {
          "indexed": false,
          "internalType": "uint256",
          "name": "strategyDebt",
          "type": "uint256"
        },
        {
          "indexed": false,
          "internalType": "uint256",
          "name": "poolDebt",
          "type": "uint256"
        },
        {
          "indexed": false,
          "internalType": "uint256",
          "name": "creditLine",
          "type": "uint256"
        }
      ],
      "name": "EarningReported",
      "type": "event"
    },
    {
      "anonymous": false,
      "inputs": [
        {
          "indexed": true,
          "internalType": "address",
          "name": "strategy",
          "type": "address"
        },
        {
          "indexed": false,
          "internalType": "uint256",
          "name": "loss",
          "type": "uint256"
        }
      ],
      "name": "LossReported",
      "type": "event"
    },
    {
      "anonymous": false,
      "inputs": [
        {
          "indexed": true,
          "internalType": "address",
          "name": "strategy",
          "type": "address"
        },
        {
          "indexed": false,
          "internalType": "uint256",
          "name": "debtRatio",
          "type": "uint256"
        },
        {
          "indexed": false,
          "internalType": "uint256",
          "name": "externalDepositFee",
          "type": "uint256"
        }
      ],
      "name": "StrategyAdded",
      "type": "event"
    },
    {
      "anonymous": false,
      "inputs": [
        {
          "indexed": true,
          "internalType": "address",
          "name": "oldStrategy",
          "type": "address"
        },
        {
          "indexed": true,
          "internalType": "address",
          "name": "newStrategy",
          "type": "address"
        }
      ],
      "name": "StrategyMigrated",
      "type": "event"
    },
    {
      "anonymous": false,
      "inputs": [
        {
          "indexed": true,
          "internalType": "address",
          "name": "strategy",
          "type": "address"
        }
      ],
      "name": "StrategyRemoved",
      "type": "event"
    },
    {
      "anonymous": false,
      "inputs": [
        {
          "indexed": true,
          "internalType": "address",
          "name": "strategy",
          "type": "address"
        },
        {
          "indexed": false,
          "internalType": "uint256",
          "name": "oldFee",
          "type": "uint256"
        },
        {
          "indexed": false,
          "internalType": "uint256",
          "name": "newFee",
          "type": "uint256"
        }
      ],
      "name": "UpdatedExternalDepositFee",
      "type": "event"
    },
    {
      "anonymous": false,
      "inputs": [
        {
          "indexed": false,
          "internalType": "uint256",
          "name": "oldFee",
          "type": "uint256"
        },
        {
          "indexed": false,
          "internalType": "uint256",
          "name": "newFee",
          "type": "uint256"
        }
      ],
      "name": "UpdatedPoolExternalDepositFee",
      "type": "event"
    },
    {
      "anonymous": false,
      "inputs": [
        {
          "indexed": true,
          "internalType": "address",
          "name": "strategy",
          "type": "address"
        },
        {
          "indexed": false,
          "internalType": "uint256",
          "name": "oldDebtRatio",
          "type": "uint256"
        },
        {
          "indexed": false,
          "internalType": "uint256",
          "name": "newDebtRatio",
          "type": "uint256"
        }
      ],
      "name": "UpdatedStrategyDebtRatio",
      "type": "event"
    },
    {
      "inputs": [],
      "name": "MAX_BPS",
      "outputs": [
        {
          "internalType": "uint256",
          "name": "",
          "type": "uint256"
        }
      ],
      "stateMutability": "view",
      "type": "function"
    },
    {
      "inputs": [],
      "name": "VERSION",
      "outputs": [
        {
          "internalType": "string",
          "name": "",
          "type": "string"
        }
      ],
      "stateMutability": "view",
      "type": "function"
    },
    {
      "inputs": [
        {
          "internalType": "address",
          "name": "strategy_",
          "type": "address"
        },
        {
          "internalType": "uint256",
          "name": "debtRatio_",
          "type": "uint256"
        },
        {
          "internalType": "uint256",
          "name": "externalDepositFee_",
          "type": "uint256"
        }
      ],
      "name": "addStrategy",
      "outputs": [],
      "stateMutability": "nonpayable",
      "type": "function"
    },
    {
      "inputs": [
        {
          "internalType": "address",
          "name": "strategy_",
          "type": "address"
        }
      ],
      "name": "availableCreditLimit",
      "outputs": [
        {
          "internalType": "uint256",
          "name": "",
          "type": "uint256"
        }
      ],
      "stateMutability": "view",
      "type": "function"
    },
    {
      "inputs": [
        {
          "internalType": "address",
          "name": "strategy_",
          "type": "address"
        },
        {
          "internalType": "uint256",
          "name": "decreaseBy_",
          "type": "uint256"
        }
      ],
      "name": "decreaseDebt",
      "outputs": [],
      "stateMutability": "nonpayable",
      "type": "function"
    },
    {
      "inputs": [
        {
          "internalType": "address",
          "name": "strategy_",
          "type": "address"
        }
      ],
      "name": "excessDebt",
      "outputs": [
        {
          "internalType": "uint256",
          "name": "",
          "type": "uint256"
        }
      ],
      "stateMutability": "view",
      "type": "function"
    },
    {
      "inputs": [],
      "name": "externalDepositFee",
      "outputs": [
        {
          "internalType": "uint256",
          "name": "",
          "type": "uint256"
        }
      ],
      "stateMutability": "view",
      "type": "function"
    },
    {
      "inputs": [],
      "name": "getStrategies",
      "outputs": [
        {
          "internalType": "address[]",
          "name": "",
          "type": "address[]"
        }
      ],
      "stateMutability": "view",
      "type": "function"
    },
    {
      "inputs": [],
      "name": "getWithdrawQueue",
      "outputs": [
        {
          "internalType": "address[]",
          "name": "",
          "type": "address[]"
        }
      ],
      "stateMutability": "view",
      "type": "function"
    },
    {
      "inputs": [
        {
          "internalType": "address",
          "name": "pool_",
          "type": "address"
        }
      ],
      "name": "init",
      "outputs": [],
      "stateMutability": "nonpayable",
      "type": "function"
    },
    {
      "inputs": [
        {
          "internalType": "address",
          "name": "old_",
          "type": "address"
        },
        {
          "internalType": "address",
          "name": "new_",
          "type": "address"
        }
      ],
      "name": "migrateStrategy",
      "outputs": [],
      "stateMutability": "nonpayable",
      "type": "function"
    },
    {
      "inputs": [],
      "name": "pool",
      "outputs": [
        {
          "internalType": "address",
          "name": "",
          "type": "address"
        }
      ],
      "stateMutability": "view",
      "type": "function"
    },
    {
      "inputs": [],
      "name": "recalculatePoolExternalDepositFee",
      "outputs": [],
      "stateMutability": "nonpayable",
      "type": "function"
    },
    {
      "inputs": [
        {
          "internalType": "uint256",
          "name": "index_",
          "type": "uint256"
        }
      ],
      "name": "removeStrategy",
      "outputs": [],
      "stateMutability": "nonpayable",
      "type": "function"
    },
    {
      "inputs": [
        {
          "internalType": "address",
          "name": "strategy_",
          "type": "address"
        },
        {
          "internalType": "uint256",
          "name": "profit_",
          "type": "uint256"
        },
        {
          "internalType": "uint256",
          "name": "loss_",
          "type": "uint256"
        },
        {
          "internalType": "uint256",
          "name": "payback_",
          "type": "uint256"
        }
      ],
      "name": "reportEarning",
      "outputs": [
        {
          "internalType": "uint256",
          "name": "_actualPayback",
          "type": "uint256"
        },
        {
          "internalType": "uint256",
          "name": "_creditLine",
          "type": "uint256"
        }
      ],
      "stateMutability": "nonpayable",
      "type": "function"
    },
    {
      "inputs": [
        {
          "internalType": "address",
          "name": "strategy_",
          "type": "address"
        },
        {
          "internalType": "uint256",
          "name": "loss_",
          "type": "uint256"
        }
      ],
      "name": "reportLoss",
      "outputs": [],
      "stateMutability": "nonpayable",
      "type": "function"
    },
    {
      "inputs": [
        {
          "internalType": "uint256",
          "name": "",
          "type": "uint256"
        }
      ],
      "name": "strategies",
      "outputs": [
        {
          "internalType": "address",
          "name": "",
          "type": "address"
        }
      ],
      "stateMutability": "view",
      "type": "function"
    },
    {
      "inputs": [
        {
          "internalType": "address",
          "name": "",
          "type": "address"
        }
      ],
      "name": "strategy",
      "outputs": [
        {
          "internalType": "bool",
          "name": "active",
          "type": "bool"
        },
        {
          "internalType": "uint256",
          "name": "interestFee",
          "type": "uint256"
        },
        {
          "internalType": "uint256",
          "name": "debtRate",
          "type": "uint256"
        },
        {
          "internalType": "uint256",
          "name": "lastRebalance",
          "type": "uint256"
        },
        {
          "internalType": "uint256",
          "name": "totalDebt",
          "type": "uint256"
        },
        {
          "internalType": "uint256",
          "name": "totalLoss",
          "type": "uint256"
        },
        {
          "internalType": "uint256",
          "name": "totalProfit",
          "type": "uint256"
        },
        {
          "internalType": "uint256",
          "name": "debtRatio",
          "type": "uint256"
        },
        {
          "internalType": "uint256",
          "name": "externalDepositFee",
          "type": "uint256"
        }
      ],
      "stateMutability": "view",
      "type": "function"
    },
    {
      "inputs": [
        {
          "internalType": "address",
          "name": "fromToken_",
          "type": "address"
        }
      ],
      "name": "sweep",
      "outputs": [],
      "stateMutability": "nonpayable",
      "type": "function"
    },
    {
      "inputs": [],
      "name": "totalDebt",
      "outputs": [
        {
          "internalType": "uint256",
          "name": "",
          "type": "uint256"
        }
      ],
      "stateMutability": "view",
      "type": "function"
    },
    {
      "inputs": [
        {
          "internalType": "address",
          "name": "strategy_",
          "type": "address"
        }
      ],
      "name": "totalDebtOf",
      "outputs": [
        {
          "internalType": "uint256",
          "name": "",
          "type": "uint256"
        }
      ],
      "stateMutability": "view",
      "type": "function"
    },
    {
      "inputs": [],
      "name": "totalDebtRatio",
      "outputs": [
        {
          "internalType": "uint256",
          "name": "",
          "type": "uint256"
        }
      ],
      "stateMutability": "view",
      "type": "function"
    },
    {
      "inputs": [
        {
          "internalType": "address",
          "name": "strategy_",
          "type": "address"
        },
        {
          "internalType": "uint256",
          "name": "debtRatio_",
          "type": "uint256"
        }
      ],
      "name": "updateDebtRatio",
      "outputs": [],
      "stateMutability": "nonpayable",
      "type": "function"
    },
    {
      "inputs": [
        {
          "internalType": "address",
          "name": "strategy_",
          "type": "address"
        },
        {
          "internalType": "uint256",
          "name": "externalDepositFee_",
          "type": "uint256"
        }
      ],
      "name": "updateExternalDepositFee",
      "outputs": [],
      "stateMutability": "nonpayable",
      "type": "function"
    },
    {
      "inputs": [
        {
          "internalType": "address[]",
          "name": "withdrawQueue_",
          "type": "address[]"
        }
      ],
      "name": "updateWithdrawQueue",
      "outputs": [],
      "stateMutability": "nonpayable",
      "type": "function"
    },
    {
      "inputs": [
        {
          "internalType": "uint256",
          "name": "",
          "type": "uint256"
        }
      ],
      "name": "withdrawQueue",
      "outputs": [
        {
          "internalType": "address",
          "name": "",
          "type": "address"
        }
      ],
      "stateMutability": "view",
      "type": "function"
    }
  ],
  "transactionHash": "0x9f0b9127999ab13cf273889f768f6efcf637b81e4cdb57ebf99a8d6c0899d5cd",
  "args": [],
  "numDeployments": 1,
  "solcInputHash": "78b3517d113ba4b7a0a098caaf7b9ceb",
  "bytecode": "0x608060405234801561001057600080fd5b50612f89806100206000396000f3fe608060405234801561001057600080fd5b506004361061016e5760003560e01c8063854f4d80116100ce578063c0cbbca611610087578063c0cbbca61461039f578063d53ddc26146103b2578063d574ea3d146103c5578063fa34d611146103d8578063fc7b9c18146103eb578063fd967f47146103f4578063ffa1ad74146103fd57600080fd5b8063854f4d801461030a5780638f88d18c1461031d5780639f2b283314610330578063a066654b1461035c578063b49a60bb14610384578063b64321ec1461038c57600080fd5b80632df9eab91161012b5780632df9eab91461028b5780632fb9ba31146102a257806332b77a76146102b5578063346162d5146102c857806362518ddf146102d15780636cb56d19146102e45780637f13086e146102f757600080fd5b806301681a6214610173578063111830521461018857806316f0115b146101a657806319ab453c146101cc578063228bfd9f146101df5780632a1f6ec114610283575b600080fd5b610186610181366004612ace565b61042e565b005b61019061060b565b60405161019d9190612aeb565b60405180910390f35b6000546101bf906201000090046001600160a01b031681565b60405161019d9190612b38565b6101866101da366004612ace565b61066d565b61023d6101ed366004612ace565b600560208190526000918252604090912080546001820154600283015460038401546004850154958501546006860154600787015460089097015460ff9096169794969395929493919290919089565b604080519915158a5260208a0198909852968801959095526060870193909352608086019190915260a085015260c084015260e08301526101008201526101200161019d565b610186610784565b61029460015481565b60405190815260200161019d565b6101866102b0366004612b4c565b6108c0565b6101866102c3366004612b4c565b610969565b61029460065481565b6101bf6102df366004612b78565b610b0f565b6101866102f2366004612b91565b610b39565b610186610305366004612b4c565b610f9d565b610186610318366004612be0565b611076565b61018661032b366004612b4c565b6112af565b61029461033e366004612ace565b6001600160a01b031660009081526005602052604090206004015490565b61036f61036a366004612ca5565b61152a565b6040805192835260208301919091520161019d565b61019061188b565b61029461039a366004612ace565b6118eb565b6101866103ad366004612b78565b6118fc565b6102946103c0366004612ace565b611d0e565b6101bf6103d3366004612b78565b611d19565b6101866103e6366004612ce0565b611d29565b61029460025481565b61029461271081565b610421604051806040016040528060058152602001640352e312e360dc1b81525081565b60405161019d9190612d41565b6000546040805163030d028960e21b8152905133926201000090046001600160a01b031691630c340a24916004808301926020929190829003018186803b15801561047857600080fd5b505afa15801561048c573d6000803e3d6000fd5b505050506040513d601f19601f820116820180604052508101906104b09190612d74565b6001600160a01b0316148061054457506000546201000090046001600160a01b0316636ba42aaa336040518263ffffffff1660e01b81526004016104f49190612b38565b60206040518083038186803b15801561050c57600080fd5b505afa158015610520573d6000803e3d6000fd5b505050506040513d601f19601f820116820180604052508101906105449190612d91565b6105695760405162461bcd60e51b815260040161056090612db3565b60405180910390fd5b6000546040516370a0823160e01b8152610608916001600160a01b0362010000909104811691908416906370a08231906105a7903090600401612b38565b60206040518083038186803b1580156105bf57600080fd5b505afa1580156105d3573d6000803e3d6000fd5b505050506040513d601f19601f820116820180604052508101906105f79190612dd9565b6001600160a01b03841691906120c3565b50565b6060600480548060200260200160405190810160405280929190818152602001828054801561066357602002820191906000526020600020905b81546001600160a01b03168152600190910190602001808311610645575b5050505050905090565b600054610100900460ff1680610686575060005460ff16155b6106e95760405162461bcd60e51b815260206004820152602e60248201527f496e697469616c697a61626c653a20636f6e747261637420697320616c72656160448201526d191e481a5b9a5d1a585b1a5e995960921b6064820152608401610560565b600054610100900460ff1615801561070b576000805461ffff19166101011790555b604080518082019091526002815261031360f41b60208201526001600160a01b03831661074b5760405162461bcd60e51b81526004016105609190612d41565b506000805462010000600160b01b031916620100006001600160a01b038516021790558015610780576000805461ff00191690555b5050565b6000546040805163030d028960e21b8152905133926201000090046001600160a01b031691630c340a24916004808301926020929190829003018186803b1580156107ce57600080fd5b505afa1580156107e2573d6000803e3d6000fd5b505050506040513d601f19601f820116820180604052508101906108069190612d74565b6001600160a01b0316148061089a57506000546201000090046001600160a01b0316636ba42aaa336040518263ffffffff1660e01b815260040161084a9190612b38565b60206040518083038186803b15801561086257600080fd5b505afa158015610876573d6000803e3d6000fd5b505050506040513d601f19601f8201168201806040525081019061089a9190612d91565b6108b65760405162461bcd60e51b815260040161056090612db3565b6108be612115565b565b6000546001600160a01b03620100009091041633146108f15760405162461bcd60e51b815260040161056090612df2565b6001600160a01b0382166000908152600560205260409020600401546109179082612242565b6001600160a01b038316600090815260056020526040812060040180549293508392909190610947908490612e2c565b9250508190555080600260008282546109609190612e2c565b90915550505050565b6000546040805163030d028960e21b8152905133926201000090046001600160a01b031691630c340a24916004808301926020929190829003018186803b1580156109b357600080fd5b505afa1580156109c7573d6000803e3d6000fd5b505050506040513d601f19601f820116820180604052508101906109eb9190612d74565b6001600160a01b031614610a115760405162461bcd60e51b815260040161056090612e43565b6001600160a01b0382166000908152600560209081526040918290205482518084019093526002835261189b60f11b9183019190915260ff16610a675760405162461bcd60e51b81526004016105609190612d41565b50604080518082019091526002815261313160f01b6020820152612710821115610aa45760405162461bcd60e51b81526004016105609190612d41565b506001600160a01b038216600081815260056020908152604091829020600801805490859055825181815291820185905292917f3e57eabb1906726caa174b6716b34373026dfd25dbae17ba47ec46e8a9ced9ee910160405180910390a2610b0a612115565b505050565b60048181548110610b1f57600080fd5b6000918252602090912001546001600160a01b0316905081565b6000546001600160a01b0362010000909104163314610b6a5760405162461bcd60e51b815260040161056090612df2565b6001600160a01b0382166000908152600560209081526040918290205482518084019093526002835261189b60f11b9183019190915260ff16610bc05760405162461bcd60e51b81526004016105609190612d41565b506001600160a01b0381166000908152600560209081526040918290205482518084019093526002835261313560f01b9183019190915260ff1615610c185760405162461bcd60e51b81526004016105609190612d41565b506000604051806101200160405280600115158152602001600081526020016000815260200160056000866001600160a01b03166001600160a01b0316815260200190815260200160002060030154815260200160056000866001600160a01b03166001600160a01b03168152602001908152602001600020600401548152602001600081526020016000815260200160056000866001600160a01b03166001600160a01b0316815260200190815260200160002060070154815260200160056000866001600160a01b03166001600160a01b0316815260200190815260200160002060080154815250905060056000846001600160a01b03166001600160a01b03168152602001908152602001600020600080820160006101000a81549060ff02191690556001820160009055600282016000905560038201600090556004820160009055600582016000905560068201600090556007820160009055600882016000905550508060056000846001600160a01b03166001600160a01b0316815260200190815260200160002060008201518160000160006101000a81548160ff0219169083151502179055506020820151816001015560408201518160020155606082015181600301556080820151816004015560a0820151816005015560c0820151816006015560e08201518160070155610100820151816008015590505060005b600354811015610eb857836001600160a01b031660038281548110610e4457610e44612e6d565b6000918252602090912001546001600160a01b03161415610ea6578260038281548110610e7357610e73612e6d565b9060005260206000200160006101000a8154816001600160a01b0302191690836001600160a01b03160217905550610eb8565b80610eb081612e83565b915050610e1d565b5060005b600454811015610f5757836001600160a01b031660048281548110610ee357610ee3612e6d565b6000918252602090912001546001600160a01b03161415610f45578260048281548110610f1257610f12612e6d565b9060005260206000200160006101000a8154816001600160a01b0302191690836001600160a01b03160217905550610f57565b80610f4f81612e83565b915050610ebc565b50816001600160a01b0316836001600160a01b03167f100b69bb6b504e1252e36b375233158edee64d071b399e2f81473a695fd1b02160405160405180910390a3505050565b6000546001600160a01b0362010000909104163314610fce5760405162461bcd60e51b815260040161056090612df2565b6001600160a01b0382166000908152600560209081526040918290205482518084019093526002835261189b60f11b9183019190915260ff166110245760405162461bcd60e51b81526004016105609190612d41565b5061102f828261225a565b816001600160a01b03167f3ffa9beb41b46c88b16758ef6c236ebd4d07cdfd4d22471030eb6b2d662482d98260405161106a91815260200190565b60405180910390a25050565b6000546040805163030d028960e21b8152905133926201000090046001600160a01b031691630c340a24916004808301926020929190829003018186803b1580156110c057600080fd5b505afa1580156110d4573d6000803e3d6000fd5b505050506040513d601f19601f820116820180604052508101906110f89190612d74565b6001600160a01b0316148061118c57506000546201000090046001600160a01b031663dd57366a336040518263ffffffff1660e01b815260040161113c9190612b38565b60206040518083038186803b15801561115457600080fd5b505afa158015611168573d6000803e3d6000fd5b505050506040513d601f19601f8201168201806040525081019061118c9190612d91565b6111a85760405162461bcd60e51b815260040161056090612e9e565b8051600454811480156111bc575060035481145b604051806040016040528060018152602001600d60fa1b815250906111f45760405162461bcd60e51b81526004016105609190612d41565b5060005b8181101561129b576005600084838151811061121657611216612e6d565b60200260200101516001600160a01b03166001600160a01b0316815260200190815260200160002060000160009054906101000a900460ff1660405180604001604052806002815260200161189b60f11b815250906112885760405162461bcd60e51b81526004016105609190612d41565b508061129381612e83565b9150506111f8565b508151610b0a906004906020850190612a2f565b6000546040805163030d028960e21b8152905133926201000090046001600160a01b031691630c340a24916004808301926020929190829003018186803b1580156112f957600080fd5b505afa15801561130d573d6000803e3d6000fd5b505050506040513d601f19601f820116820180604052508101906113319190612d74565b6001600160a01b031614806113c557506000546201000090046001600160a01b031663dd57366a336040518263ffffffff1660e01b81526004016113759190612b38565b60206040518083038186803b15801561138d57600080fd5b505afa1580156113a1573d6000803e3d6000fd5b505050506040513d601f19601f820116820180604052508101906113c59190612d91565b6113e15760405162461bcd60e51b815260040161056090612e9e565b6001600160a01b0382166000908152600560209081526040918290205482518084019093526002835261189b60f11b9183019190915260ff166114375760405162461bcd60e51b81526004016105609190612d41565b506001600160a01b038216600090815260056020526040902060070154600154829161146291612e2c565b61146c9190612ec8565b6001819055604080518082019091526002815261062760f31b60208201529061271010156114ad5760405162461bcd60e51b81526004016105609190612d41565b506001600160a01b0382166000818152600560209081526040918290206007015482519081529081018490527fab9990442b7ef5dfed05018d2d947ceb38710eda84b3e3b32940cbb28867ee0e910160405180910390a26001600160a01b0382166000908152600560205260409020600701819055610780612115565b6000805481906001600160a01b036201000090910416331461155e5760405162461bcd60e51b815260040161056090612df2565b6001600160a01b0386166000908152600560209081526040918290205482518084019093526002835261189b60f11b9183019190915260ff166115b45760405162461bcd60e51b81526004016105609190612d41565b506115bf8386612ec8565b600060029054906101000a90046001600160a01b03166001600160a01b031663fc0c546a6040518163ffffffff1660e01b815260040160206040518083038186803b15801561160d57600080fd5b505afa158015611621573d6000803e3d6000fd5b505050506040513d601f19601f820116820180604052508101906116459190612d74565b6001600160a01b03166370a08231886040518263ffffffff1660e01b81526004016116709190612b38565b60206040518083038186803b15801561168857600080fd5b505afa15801561169c573d6000803e3d6000fd5b505050506040513d601f19601f820116820180604052508101906116c09190612dd9565b1015604051806040016040528060018152602001603960f81b815250906116fa5760405162461bcd60e51b81526004016105609190612d41565b50831561170b5761170b868561225a565b600061171687612450565b90506117228185612242565b92508215611774576001600160a01b03871660009081526005602052604081206004018054859290611755908490612e2c565b92505081905550826002600082825461176e9190612e2c565b90915550505b61177d876125ec565b915081156117cf576001600160a01b038716600090815260056020526040812060040180548492906117b0908490612ec8565b9250508190555081600260008282546117c99190612ec8565b90915550505b8515611806576001600160a01b03871660009081526005602052604081206006018054889290611800908490612ec8565b90915550505b6001600160a01b0387166000818152600560209081526040918290204260038201556004015460025483518b81529283018a90529282018790526060820152608081019190915260a081018490527f29c6c60e040fcd722949346bda66341e8859b20b9a2124a625326ad10373391b9060c00160405180910390a25094509492505050565b60606003805480602002602001604051908101604052809291908181526020018280548015610663576020028201919060005260206000209081546001600160a01b03168152600190910190602001808311610645575050505050905090565b60006118f6826125ec565b92915050565b6000546040805163030d028960e21b8152905133926201000090046001600160a01b031691630c340a24916004808301926020929190829003018186803b15801561194657600080fd5b505afa15801561195a573d6000803e3d6000fd5b505050506040513d601f19601f8201168201806040525081019061197e9190612d74565b6001600160a01b0316146119a45760405162461bcd60e51b815260040161056090612e43565b6000600382815481106119b9576119b9612e6d565b60009182526020808320909101546001600160a01b0316808352600582526040928390205483518085019094526002845261189b60f11b92840192909252925060ff16611a195760405162461bcd60e51b81526004016105609190612d41565b506001600160a01b0381166000908152600560209081526040918290206004015482518084019093526002835261313960f01b9183019190915215611a715760405162461bcd60e51b81526004016105609190612d41565b506001600160a01b0381166000908152600560205260408120600701546001805491929091611aa1908490612e2c565b90915550506001600160a01b03811660009081526005602081905260408220805460ff19168155600180820184905560028201849055600380830185905560048301859055928201849055600682018490556007820184905560089091019290925580549091611b1091612e2c565b81548110611b2057611b20612e6d565b600091825260209091200154600380546001600160a01b039092169184908110611b4c57611b4c612e6d565b9060005260206000200160006101000a8154816001600160a01b0302191690836001600160a01b031602179055506003805480611b8b57611b8b612ee0565b600082815260208120820160001990810180546001600160a01b031916905590910190915560035467ffffffffffffffff811115611bcb57611bcb612bca565b604051908082528060200260200182016040528015611bf4578160200160208202803683370190505b5090506000805b600454811015611cb757836001600160a01b031660048281548110611c2257611c22612e6d565b6000918252602090912001546001600160a01b031614611ca55760048181548110611c4f57611c4f612e6d565b9060005260206000200160009054906101000a90046001600160a01b0316838381518110611c7f57611c7f612e6d565b6001600160a01b039092166020928302919091019091015281611ca181612e83565b9250505b80611caf81612e83565b915050611bfb565b508151611ccb906004906020850190612a2f565b506040516001600160a01b038416907f09a1db4b80c32706328728508c941a6b954f31eb5affd32f236c1fd405f8fea490600090a2611d08612115565b50505050565b60006118f682612450565b60038181548110610b1f57600080fd5b6000546040805163030d028960e21b8152905133926201000090046001600160a01b031691630c340a24916004808301926020929190829003018186803b158015611d7357600080fd5b505afa158015611d87573d6000803e3d6000fd5b505050506040513d601f19601f82011682018060405250810190611dab9190612d74565b6001600160a01b031614611dd15760405162461bcd60e51b815260040161056090612e43565b604080518082019091526002815261031360f41b60208201526001600160a01b038416611e115760405162461bcd60e51b81526004016105609190612d41565b506001600160a01b0383166000908152600560209081526040918290205482518084019093526002835261313560f01b9183019190915260ff1615611e695760405162461bcd60e51b81526004016105609190612d41565b5081600154611e789190612ec8565b6001819055604080518082019091526002815261062760f31b6020820152906127101015611eb95760405162461bcd60e51b81526004016105609190612d41565b50604080518082019091526002815261313160f01b6020820152612710821115611ef65760405162461bcd60e51b81526004016105609190612d41565b50600060405180610120016040528060011515815260200160008152602001600081526020014281526020016000815260200160008152602001600081526020018481526020018381525090508060056000866001600160a01b03166001600160a01b0316815260200190815260200160002060008201518160000160006101000a81548160ff0219169083151502179055506020820151816001015560408201518160020155606082015181600301556080820151816004015560a0820151816005015560c0820151816006015560e0820151816007015561010082015181600801559050506003849080600181540180825580915050600190039060005260206000200160009091909190916101000a8154816001600160a01b0302191690836001600160a01b031602179055506004849080600181540180825580915050600190039060005260206000200160009091909190916101000a8154816001600160a01b0302191690836001600160a01b03160217905550836001600160a01b03167f45bb3eed5cd098efb0a286413fb1f3c11841762610cefbabae6a772963e916ba84846040516120b3929190918252602082015260400190565b60405180910390a2611d08612115565b604080516001600160a01b038416602482015260448082018490528251808303909101815260649091019091526020810180516001600160e01b031663a9059cbb60e01b179052610b0a908490612862565b600354600154600090156121fd5760005b828110156121fb57600154600560006003848154811061214857612148612e6d565b9060005260206000200160009054906101000a90046001600160a01b03166001600160a01b03166001600160a01b031681526020019081526020016000206007015460056000600385815481106121a1576121a1612e6d565b60009182526020808320909101546001600160a01b031683528201929092526040019020600801546121d39190612ef6565b6121dd9190612f15565b6121e79083612ec8565b9150806121f381612e83565b915050612126565b505b600680549082905560408051918252602082018390527f2d6a5770d560080bb77885132eea46b6db3b15e70e6e5e73087ea7bcd138fcf0910160405180910390a15050565b60008183106122515781612253565b825b9392505050565b8060056000846001600160a01b03166001600160a01b0316815260200190815260200160002060040154101560405180604001604052806002815260200161032360f41b815250906122bf5760405162461bcd60e51b81526004016105609190612d41565b506001600160a01b038216600090815260056020819052604082200180548392906122eb908490612ec8565b90915550506001600160a01b0382166000908152600560205260408120600401805483929061231b908490612e2c565b9250508190555080600260008282546123349190612e2c565b9250508190555060006123fd600060029054906101000a90046001600160a01b03166001600160a01b031663d4c3eea06040518163ffffffff1660e01b815260040160206040518083038186803b15801561238e57600080fd5b505afa1580156123a2573d6000803e3d6000fd5b505050506040513d601f19601f820116820180604052508101906123c69190612dd9565b6123d261271085612ef6565b6123dc9190612f15565b6001600160a01b038516600090815260056020526040902060070154612242565b6001600160a01b03841660009081526005602052604081206007018054929350839290919061242d908490612e2c565b9250508190555080600160008282546124469190612e2c565b9091555050505050565b60008060056000846001600160a01b03166001600160a01b03168152602001908152602001600020600401549050600060029054906101000a90046001600160a01b03166001600160a01b0316634938649a6040518163ffffffff1660e01b815260040160206040518083038186803b1580156124cc57600080fd5b505afa1580156124e0573d6000803e3d6000fd5b505050506040513d601f19601f820116820180604052508101906125049190612d91565b1561250f5792915050565b6000612710600060029054906101000a90046001600160a01b03166001600160a01b031663d4c3eea06040518163ffffffff1660e01b815260040160206040518083038186803b15801561256257600080fd5b505afa158015612576573d6000803e3d6000fd5b505050506040513d601f19601f8201168201806040525081019061259a9190612dd9565b6001600160a01b0386166000908152600560205260409020600701546125c09190612ef6565b6125ca9190612f15565b90508082116125da5760006125e4565b6125e48183612e2c565b949350505050565b60008060029054906101000a90046001600160a01b03166001600160a01b0316634938649a6040518163ffffffff1660e01b815260040160206040518083038186803b15801561263b57600080fd5b505afa15801561264f573d6000803e3d6000fd5b505050506040513d601f19601f820116820180604052508101906126739190612d91565b1561268057506000919050565b60008060029054906101000a90046001600160a01b03166001600160a01b031663d4c3eea06040518163ffffffff1660e01b815260040160206040518083038186803b1580156126cf57600080fd5b505afa1580156126e3573d6000803e3d6000fd5b505050506040513d601f19601f820116820180604052508101906127079190612dd9565b6001600160a01b0384166000908152600560205260408120600701549192509061271090612736908490612ef6565b6127409190612f15565b6001600160a01b03851660009081526005602052604090206004015490915081811061277157506000949350505050565b6000612710846001546127849190612ef6565b61278e9190612f15565b905080600254106127a55750600095945050505050565b60006127b18385612e2c565b9050612857612845600060029054906101000a90046001600160a01b03166001600160a01b031663b8cb343d6040518163ffffffff1660e01b815260040160206040518083038186803b15801561280757600080fd5b505afa15801561281b573d6000803e3d6000fd5b505050506040513d601f19601f8201168201806040525081019061283f9190612dd9565b83612242565b6002546128529085612e2c565b612242565b979650505050505050565b60006128b7826040518060400160405280602081526020017f5361666545524332303a206c6f772d6c6576656c2063616c6c206661696c6564815250856001600160a01b03166129349092919063ffffffff16565b805190915015610b0a57808060200190518101906128d59190612d91565b610b0a5760405162461bcd60e51b815260206004820152602a60248201527f5361666545524332303a204552433230206f7065726174696f6e20646964206e6044820152691bdd081cdd58d8d9595960b21b6064820152608401610560565b60606125e4848460008585843b61298d5760405162461bcd60e51b815260206004820152601d60248201527f416464726573733a2063616c6c20746f206e6f6e2d636f6e74726163740000006044820152606401610560565b600080866001600160a01b031685876040516129a99190612f37565b60006040518083038185875af1925050503d80600081146129e6576040519150601f19603f3d011682016040523d82523d6000602084013e6129eb565b606091505b509150915061285782828660608315612a05575081612253565b825115612a155782518084602001fd5b8160405162461bcd60e51b81526004016105609190612d41565b828054828255906000526020600020908101928215612a84579160200282015b82811115612a8457825182546001600160a01b0319166001600160a01b03909116178255602090920191600190910190612a4f565b50612a90929150612a94565b5090565b5b80821115612a905760008155600101612a95565b6001600160a01b038116811461060857600080fd5b8035612ac981612aa9565b919050565b600060208284031215612ae057600080fd5b813561225381612aa9565b6020808252825182820181905260009190848201906040850190845b81811015612b2c5783516001600160a01b031683529284019291840191600101612b07565b50909695505050505050565b6001600160a01b0391909116815260200190565b60008060408385031215612b5f57600080fd5b8235612b6a81612aa9565b946020939093013593505050565b600060208284031215612b8a57600080fd5b5035919050565b60008060408385031215612ba457600080fd5b8235612baf81612aa9565b91506020830135612bbf81612aa9565b809150509250929050565b634e487b7160e01b600052604160045260246000fd5b60006020808385031215612bf357600080fd5b823567ffffffffffffffff80821115612c0b57600080fd5b818501915085601f830112612c1f57600080fd5b813581811115612c3157612c31612bca565b8060051b604051601f19603f83011681018181108582111715612c5657612c56612bca565b604052918252848201925083810185019188831115612c7457600080fd5b938501935b82851015612c9957612c8a85612abe565b84529385019392850192612c79565b98975050505050505050565b60008060008060808587031215612cbb57600080fd5b8435612cc681612aa9565b966020860135965060408601359560600135945092505050565b600080600060608486031215612cf557600080fd5b8335612d0081612aa9565b95602085013595506040909401359392505050565b60005b83811015612d30578181015183820152602001612d18565b83811115611d085750506000910152565b6020815260008251806020840152612d60816040850160208701612d15565b601f01601f19169190910160400192915050565b600060208284031215612d8657600080fd5b815161225381612aa9565b600060208284031215612da357600080fd5b8151801515811461225357600080fd5b6020808252600c908201526b3737ba16b096b5b2b2b832b960a11b604082015260600190565b600060208284031215612deb57600080fd5b5051919050565b6020808252600a90820152691b9bdd0b584b5c1bdbdb60b21b604082015260600190565b634e487b7160e01b600052601160045260246000fd5b600082821015612e3e57612e3e612e16565b500390565b60208082526010908201526f3737ba16ba343296b3b7bb32b93737b960811b604082015260600190565b634e487b7160e01b600052603260045260246000fd5b6000600019821415612e9757612e97612e16565b5060010190565b60208082526010908201526f3737ba16b096b6b0b4b73a30b4b732b960811b604082015260600190565b60008219821115612edb57612edb612e16565b500190565b634e487b7160e01b600052603160045260246000fd5b6000816000190483118215151615612f1057612f10612e16565b500290565b600082612f3257634e487b7160e01b600052601260045260246000fd5b500490565b60008251612f49818460208701612d15565b919091019291505056fea2646970667358221220b9f81752c7897722c09b2e930aa9dd29e218056cf561523660e516fbb7eddad864736f6c63430008090033",
  "devdoc": {
    "kind": "dev",
    "methods": {
      "addStrategy(address,uint256,uint256)": {
        "details": "Recalculate pool level external deposit fee after all state variables are updated.",
        "params": {
          "debtRatio_": "Pool fund allocation to this strategy",
          "externalDepositFee_": "External deposit fee of strategy",
          "strategy_": "Strategy address"
        }
      },
      "availableCreditLimit(address)": {
        "details": "Available credit limit is calculated based on current debt of pool and strategy, current debt limit of pool and strategy. credit available = min(pool's debt limit, strategy's debt limit, max debt per rebalance) when some strategy do not pay back outstanding debt, this impact credit line of other strategy if totalDebt of pool >= debtLimit of pool",
        "params": {
          "strategy_": "Strategy address"
        }
      },
      "decreaseDebt(address,uint256)": {
        "details": "In case of withdraw from strategy, pool will decrease debt by amount withdrawn",
        "params": {
          "decreaseBy_": "Amount by which strategy debt will be decreased",
          "strategy_": "Strategy Address"
        }
      },
      "excessDebt(address)": {
        "params": {
          "strategy_": "Address of strategy"
        }
      },
      "init(address)": {
        "details": "This init function meant to be called after proxy deployment.DO NOT CALL it with proxy deploy",
        "params": {
          "pool_": "Address of Vesper pool proxy"
        }
      },
      "migrateStrategy(address,address)": {
        "details": "Migrating strategy aka old and new strategy should be of same type.New strategy will replace old strategy in strategy mapping, strategies array, withdraw queue.",
        "params": {
          "new_": "Address of new strategy",
          "old_": "Address of strategy being migrated"
        }
      },
      "recalculatePoolExternalDepositFee()": {
        "details": "Whenever debtRatio changes recalculation is required. DebtRatio changes if strategy reports loss and in that case an off chain application can watch for it and take action accordingly.This function is gas heavy hence we do not want to call during reportLoss."
      },
      "removeStrategy(uint256)": {
        "details": "Revoke and remove strategy from array. Update withdraw queue. Withdraw queue order should not change after remove. Strategy can be removed only after it has paid all debt. Use migrate strategy if debt is not paid and want to upgrade strategy."
      },
      "reportEarning(address,uint256,uint256,uint256)": {
        "details": "Strategy call this in regular interval.",
        "params": {
          "loss_": "Reduce debt ,also reduce debtRatio, increase loss in record.",
          "payback_": "strategy willing to payback outstanding above debtLimit. no performance fee on this amount.  when governance has reduced debtRatio of strategy, strategy will report profit and payback amount separately.",
          "profit_": "yield generated by strategy. Strategy get performance fee on this amount"
        }
      },
      "reportLoss(address,uint256)": {
        "params": {
          "loss_": "Loss of strategy",
          "strategy_": "Strategy which incur loss"
        }
      },
      "sweep(address)": {
        "details": "Transfer given ERC20 token to pool",
        "params": {
          "fromToken_": "Token address to sweep"
        }
      },
      "totalDebtOf(address)": {
        "params": {
          "strategy_": "Strategy address"
        }
      },
      "updateDebtRatio(address,uint256)": {
        "details": "A strategy is retired when debtRatio is 0As debtRatio impacts pool level external deposit fee hence recalculate it after updating debtRatio.",
        "params": {
          "debtRatio_": "New debt ratio",
          "strategy_": "Strategy address for which debt ratio is being updated"
        }
      },
      "updateExternalDepositFee(address,uint256)": {
        "params": {
          "externalDepositFee_": "New external deposit fee",
          "strategy_": "Strategy address for which external deposit fee is being updated"
        }
      },
      "updateWithdrawQueue(address[])": {
        "details": "Pool always keep some buffer amount to satisfy withdrawal request, any withdrawal request higher than buffer will withdraw from withdraw queue. So withdrawQueue[0] will be the first strategy where withdrawal request will be send.",
        "params": {
          "withdrawQueue_": "Ordered list of strategy."
        }
      }
    },
    "title": "Accountant for Vesper pools which keep records of strategies.",
    "version": 1
  },
  "userdoc": {
    "kind": "user",
    "methods": {
      "addStrategy(address,uint256,uint256)": {
        "notice": "Add strategy. Once strategy is added it can call rebalance and borrow fund from pool and invest that fund in provider/lender."
      },
      "availableCreditLimit(address)": {
        "notice": "Get available credit limit of strategy. This is the amount strategy can borrow from pool"
      },
      "decreaseDebt(address,uint256)": {
        "notice": "Decrease debt of strategy, also decrease totalDebt"
      },
      "excessDebt(address)": {
        "notice": "Debt above current debt limit"
      },
      "getStrategies()": {
        "notice": "Return strategies array"
      },
      "getWithdrawQueue()": {
        "notice": "Return withdrawQueue"
      },
      "migrateStrategy(address,address)": {
        "notice": "Migrate existing strategy to new strategy."
      },
      "recalculatePoolExternalDepositFee()": {
        "notice": "Recalculate pool external deposit fee. It is calculated using debtRatio and external deposit fee of each strategy."
      },
      "removeStrategy(uint256)": {
        "notice": "Remove strategy and recalculate pool level external deposit fee."
      },
      "reportLoss(address,uint256)": {
        "notice": "Update strategy loss."
      },
      "totalDebtOf(address)": {
        "notice": "Get total debt of given strategy"
      },
      "updateDebtRatio(address,uint256)": {
        "notice": "Update debt ratio."
      },
      "updateExternalDepositFee(address,uint256)": {
        "notice": "Update external deposit fee of strategy and recalculate pool level external deposit fee."
      },
      "updateWithdrawQueue(address[])": {
        "notice": "Update withdraw queue. Withdraw queue is list of strategy in the order in which funds should be withdrawn."
      }
    },
    "version": 1
  },
  "storageLayout": {
    "storage": [
      {
        "astId": 1360,
        "contract": "vesper-pools/contracts/pool/PoolAccountant.sol:PoolAccountant",
        "label": "_initialized",
        "offset": 0,
        "slot": "0",
        "type": "t_bool"
      },
      {
        "astId": 1363,
        "contract": "vesper-pools/contracts/pool/PoolAccountant.sol:PoolAccountant",
        "label": "_initializing",
        "offset": 1,
        "slot": "0",
        "type": "t_bool"
      },
      {
        "astId": 5039,
        "contract": "vesper-pools/contracts/pool/PoolAccountant.sol:PoolAccountant",
        "label": "pool",
        "offset": 2,
        "slot": "0",
        "type": "t_address"
      },
      {
        "astId": 5041,
        "contract": "vesper-pools/contracts/pool/PoolAccountant.sol:PoolAccountant",
        "label": "totalDebtRatio",
        "offset": 0,
        "slot": "1",
        "type": "t_uint256"
      },
      {
        "astId": 5043,
        "contract": "vesper-pools/contracts/pool/PoolAccountant.sol:PoolAccountant",
        "label": "totalDebt",
        "offset": 0,
        "slot": "2",
        "type": "t_uint256"
      },
      {
        "astId": 5046,
        "contract": "vesper-pools/contracts/pool/PoolAccountant.sol:PoolAccountant",
        "label": "strategies",
        "offset": 0,
        "slot": "3",
        "type": "t_array(t_address)dyn_storage"
      },
      {
        "astId": 5049,
        "contract": "vesper-pools/contracts/pool/PoolAccountant.sol:PoolAccountant",
        "label": "withdrawQueue",
        "offset": 0,
        "slot": "4",
        "type": "t_array(t_address)dyn_storage"
      },
      {
        "astId": 5076,
        "contract": "vesper-pools/contracts/pool/PoolAccountant.sol:PoolAccountant",
        "label": "strategy",
        "offset": 0,
        "slot": "5",
        "type": "t_mapping(t_address,t_struct(StrategyConfig)5071_storage)"
      },
      {
        "astId": 5078,
        "contract": "vesper-pools/contracts/pool/PoolAccountant.sol:PoolAccountant",
        "label": "externalDepositFee",
        "offset": 0,
        "slot": "6",
        "type": "t_uint256"
      }
    ],
    "types": {
      "t_address": {
        "encoding": "inplace",
        "label": "address",
        "numberOfBytes": "20"
      },
      "t_array(t_address)dyn_storage": {
        "base": "t_address",
        "encoding": "dynamic_array",
        "label": "address[]",
        "numberOfBytes": "32"
      },
      "t_bool": {
        "encoding": "inplace",
        "label": "bool",
        "numberOfBytes": "1"
      },
      "t_mapping(t_address,t_struct(StrategyConfig)5071_storage)": {
        "encoding": "mapping",
        "key": "t_address",
        "label": "mapping(address => struct PoolAccountantStorageV2.StrategyConfig)",
        "numberOfBytes": "32",
        "value": "t_struct(StrategyConfig)5071_storage"
      },
      "t_struct(StrategyConfig)5071_storage": {
        "encoding": "inplace",
        "label": "struct PoolAccountantStorageV2.StrategyConfig",
        "members": [
          {
            "astId": 5054,
            "contract": "vesper-pools/contracts/pool/PoolAccountant.sol:PoolAccountant",
            "label": "active",
            "offset": 0,
            "slot": "0",
            "type": "t_bool"
          },
          {
            "astId": 5056,
            "contract": "vesper-pools/contracts/pool/PoolAccountant.sol:PoolAccountant",
            "label": "interestFee",
            "offset": 0,
            "slot": "1",
            "type": "t_uint256"
          },
          {
            "astId": 5058,
            "contract": "vesper-pools/contracts/pool/PoolAccountant.sol:PoolAccountant",
            "label": "debtRate",
            "offset": 0,
            "slot": "2",
            "type": "t_uint256"
          },
          {
            "astId": 5060,
            "contract": "vesper-pools/contracts/pool/PoolAccountant.sol:PoolAccountant",
            "label": "lastRebalance",
            "offset": 0,
            "slot": "3",
            "type": "t_uint256"
          },
          {
            "astId": 5062,
            "contract": "vesper-pools/contracts/pool/PoolAccountant.sol:PoolAccountant",
            "label": "totalDebt",
            "offset": 0,
            "slot": "4",
            "type": "t_uint256"
          },
          {
            "astId": 5064,
            "contract": "vesper-pools/contracts/pool/PoolAccountant.sol:PoolAccountant",
            "label": "totalLoss",
            "offset": 0,
            "slot": "5",
            "type": "t_uint256"
          },
          {
            "astId": 5066,
            "contract": "vesper-pools/contracts/pool/PoolAccountant.sol:PoolAccountant",
            "label": "totalProfit",
            "offset": 0,
            "slot": "6",
            "type": "t_uint256"
          },
          {
            "astId": 5068,
            "contract": "vesper-pools/contracts/pool/PoolAccountant.sol:PoolAccountant",
            "label": "debtRatio",
            "offset": 0,
            "slot": "7",
            "type": "t_uint256"
          },
          {
            "astId": 5070,
            "contract": "vesper-pools/contracts/pool/PoolAccountant.sol:PoolAccountant",
            "label": "externalDepositFee",
            "offset": 0,
            "slot": "8",
            "type": "t_uint256"
          }
        ],
        "numberOfBytes": "288"
      },
      "t_uint256": {
        "encoding": "inplace",
        "label": "uint256",
        "numberOfBytes": "32"
      }
    }
  }
}