{
  "address": "0x91f92F75E547Db066c39DEa4d4a8B45f4B8EDE4a",
  "abi": [
    {
      "inputs": [
        {
          "internalType": "string",
          "name": "name_",
          "type": "string"
        },
        {
          "internalType": "string",
          "name": "symbol_",
          "type": "string"
        },
        {
          "internalType": "address",
          "name": "token_",
          "type": "address"
        }
      ],
      "stateMutability": "nonpayable",
      "type": "constructor"
    },
    {
      "anonymous": false,
      "inputs": [
        {
          "indexed": true,
          "internalType": "address",
          "name": "owner",
          "type": "address"
        },
        {
          "indexed": true,
          "internalType": "address",
          "name": "spender",
          "type": "address"
        },
        {
          "indexed": false,
          "internalType": "uint256",
          "name": "value",
          "type": "uint256"
        }
      ],
      "name": "Approval",
      "type": "event"
    },
    {
      "anonymous": false,
      "inputs": [
        {
          "indexed": true,
          "internalType": "address",
          "name": "owner",
          "type": "address"
        },
        {
          "indexed": false,
          "internalType": "uint256",
          "name": "shares",
          "type": "uint256"
        },
        {
          "indexed": false,
          "internalType": "uint256",
          "name": "amount",
          "type": "uint256"
        }
      ],
      "name": "Deposit",
      "type": "event"
    },
    {
      "anonymous": false,
      "inputs": [
        {
          "indexed": false,
          "internalType": "address",
          "name": "account",
          "type": "address"
        }
      ],
      "name": "Open",
      "type": "event"
    },
    {
      "anonymous": false,
      "inputs": [
        {
          "indexed": false,
          "internalType": "address",
          "name": "account",
          "type": "address"
        }
      ],
      "name": "Paused",
      "type": "event"
    },
    {
      "anonymous": false,
      "inputs": [
        {
          "indexed": false,
          "internalType": "address",
          "name": "account",
          "type": "address"
        }
      ],
      "name": "Shutdown",
      "type": "event"
    },
    {
      "anonymous": false,
      "inputs": [
        {
          "indexed": true,
          "internalType": "address",
          "name": "from",
          "type": "address"
        },
        {
          "indexed": true,
          "internalType": "address",
          "name": "to",
          "type": "address"
        },
        {
          "indexed": false,
          "internalType": "uint256",
          "name": "value",
          "type": "uint256"
        }
      ],
      "name": "Transfer",
      "type": "event"
    },
    {
      "anonymous": false,
      "inputs": [
        {
          "indexed": false,
          "internalType": "uint256",
          "name": "strategyDebt",
          "type": "uint256"
        },
        {
          "indexed": false,
          "internalType": "uint256",
          "name": "profit",
          "type": "uint256"
        },
        {
          "indexed": false,
          "internalType": "uint256",
          "name": "fee",
          "type": "uint256"
        }
      ],
      "name": "UniversalFeePaid",
      "type": "event"
    },
    {
      "anonymous": false,
      "inputs": [
        {
          "indexed": false,
          "internalType": "address",
          "name": "account",
          "type": "address"
        }
      ],
      "name": "Unpaused",
      "type": "event"
    },
    {
      "anonymous": false,
      "inputs": [
        {
          "indexed": true,
          "internalType": "address",
          "name": "previousGovernor",
          "type": "address"
        },
        {
          "indexed": true,
          "internalType": "address",
          "name": "proposedGovernor",
          "type": "address"
        }
      ],
      "name": "UpdatedGovernor",
      "type": "event"
    },
    {
      "anonymous": false,
      "inputs": [
        {
          "indexed": false,
          "internalType": "uint256",
          "name": "oldMaxProfitAsFee",
          "type": "uint256"
        },
        {
          "indexed": false,
          "internalType": "uint256",
          "name": "newMaxProfitAsFee",
          "type": "uint256"
        }
      ],
      "name": "UpdatedMaximumProfitAsFee",
      "type": "event"
    },
    {
      "anonymous": false,
      "inputs": [
        {
          "indexed": false,
          "internalType": "uint256",
          "name": "oldDepositLimit",
          "type": "uint256"
        },
        {
          "indexed": false,
          "internalType": "uint256",
          "name": "newDepositLimit",
          "type": "uint256"
        }
      ],
      "name": "UpdatedMinimumDepositLimit",
      "type": "event"
    },
    {
      "anonymous": false,
      "inputs": [
        {
          "indexed": true,
          "internalType": "address",
          "name": "previousPoolRewards",
          "type": "address"
        },
        {
          "indexed": true,
          "internalType": "address",
          "name": "newPoolRewards",
          "type": "address"
        }
      ],
      "name": "UpdatedPoolRewards",
      "type": "event"
    },
    {
      "anonymous": false,
      "inputs": [
        {
          "indexed": false,
          "internalType": "uint256",
          "name": "oldUniversalFee",
          "type": "uint256"
        },
        {
          "indexed": false,
          "internalType": "uint256",
          "name": "newUniversalFee",
          "type": "uint256"
        }
      ],
      "name": "UpdatedUniversalFee",
      "type": "event"
    },
    {
      "anonymous": false,
      "inputs": [
        {
          "indexed": false,
          "internalType": "uint256",
          "name": "previousWithdrawFee",
          "type": "uint256"
        },
        {
          "indexed": false,
          "internalType": "uint256",
          "name": "newWithdrawFee",
          "type": "uint256"
        }
      ],
      "name": "UpdatedWithdrawFee",
      "type": "event"
    },
    {
      "anonymous": false,
      "inputs": [
        {
          "indexed": true,
          "internalType": "address",
          "name": "owner",
          "type": "address"
        },
        {
          "indexed": false,
          "internalType": "uint256",
          "name": "shares",
          "type": "uint256"
        },
        {
          "indexed": false,
          "internalType": "uint256",
          "name": "amount",
          "type": "uint256"
        }
      ],
      "name": "Withdraw",
      "type": "event"
    },
    {
      "inputs": [],
      "name": "DOMAIN_SEPARATOR",
      "outputs": [
        {
          "internalType": "bytes32",
          "name": "",
          "type": "bytes32"
        }
      ],
      "stateMutability": "view",
      "type": "function"
    },
    {
      "inputs": [],
      "name": "MAX_BPS",
      "outputs": [
        {
          "internalType": "uint256",
          "name": "",
          "type": "uint256"
        }
      ],
      "stateMutability": "view",
      "type": "function"
    },
    {
      "inputs": [],
      "name": "ONE_YEAR",
      "outputs": [
        {
          "internalType": "uint256",
          "name": "",
          "type": "uint256"
        }
      ],
      "stateMutability": "view",
      "type": "function"
    },
    {
      "inputs": [],
      "name": "VERSION",
      "outputs": [
        {
          "internalType": "string",
          "name": "",
          "type": "string"
        }
      ],
      "stateMutability": "view",
      "type": "function"
    },
    {
      "inputs": [],
      "name": "acceptGovernorship",
      "outputs": [],
      "stateMutability": "nonpayable",
      "type": "function"
    },
    {
      "inputs": [
        {
          "internalType": "address",
          "name": "keeperAddress_",
          "type": "address"
        }
      ],
      "name": "addKeeper",
      "outputs": [],
      "stateMutability": "nonpayable",
      "type": "function"
    },
    {
      "inputs": [
        {
          "internalType": "address",
          "name": "maintainerAddress_",
          "type": "address"
        }
      ],
      "name": "addMaintainer",
      "outputs": [],
      "stateMutability": "nonpayable",
      "type": "function"
    },
    {
      "inputs": [
        {
          "internalType": "address",
          "name": "owner",
          "type": "address"
        },
        {
          "internalType": "address",
          "name": "spender",
          "type": "address"
        }
      ],
      "name": "allowance",
      "outputs": [
        {
          "internalType": "uint256",
          "name": "",
          "type": "uint256"
        }
      ],
      "stateMutability": "view",
      "type": "function"
    },
    {
      "inputs": [
        {
          "internalType": "address",
          "name": "spender",
          "type": "address"
        },
        {
          "internalType": "uint256",
          "name": "amount",
          "type": "uint256"
        }
      ],
      "name": "approve",
      "outputs": [
        {
          "internalType": "bool",
          "name": "",
          "type": "bool"
        }
      ],
      "stateMutability": "nonpayable",
      "type": "function"
    },
    {
      "inputs": [
        {
          "internalType": "address",
          "name": "strategy_",
          "type": "address"
        }
      ],
      "name": "availableCreditLimit",
      "outputs": [
        {
          "internalType": "uint256",
          "name": "",
          "type": "uint256"
        }
      ],
      "stateMutability": "view",
      "type": "function"
    },
    {
      "inputs": [
        {
          "internalType": "address",
          "name": "account",
          "type": "address"
        }
      ],
      "name": "balanceOf",
      "outputs": [
        {
          "internalType": "uint256",
          "name": "",
          "type": "uint256"
        }
      ],
      "stateMutability": "view",
      "type": "function"
    },
    {
      "inputs": [
        {
          "internalType": "uint256",
          "name": "amount_",
          "type": "uint256"
        }
      ],
      "name": "calculateMintage",
      "outputs": [
        {
          "internalType": "uint256",
          "name": "_shares",
          "type": "uint256"
        }
      ],
      "stateMutability": "view",
      "type": "function"
    },
    {
      "inputs": [
        {
          "internalType": "uint256",
          "name": "profit_",
          "type": "uint256"
        }
      ],
      "name": "calculateUniversalFee",
      "outputs": [
        {
          "internalType": "uint256",
          "name": "_fee",
          "type": "uint256"
        }
      ],
      "stateMutability": "view",
      "type": "function"
    },
    {
      "inputs": [],
      "name": "decimals",
      "outputs": [
        {
          "internalType": "uint8",
          "name": "",
          "type": "uint8"
        }
      ],
      "stateMutability": "view",
      "type": "function"
    },
    {
      "inputs": [
        {
          "internalType": "uint256",
          "name": "amount_",
          "type": "uint256"
        }
      ],
      "name": "deposit",
      "outputs": [],
      "stateMutability": "nonpayable",
      "type": "function"
    },
    {
      "inputs": [
        {
          "internalType": "uint256",
          "name": "amount_",
          "type": "uint256"
        }
      ],
      "name": "depositAndClaim",
      "outputs": [],
      "stateMutability": "nonpayable",
      "type": "function"
    },
    {
      "inputs": [
        {
          "internalType": "uint256",
          "name": "amount_",
          "type": "uint256"
        },
        {
          "internalType": "uint256",
          "name": "deadline_",
          "type": "uint256"
        },
        {
          "internalType": "uint8",
          "name": "v_",
          "type": "uint8"
        },
        {
          "internalType": "bytes32",
          "name": "r_",
          "type": "bytes32"
        },
        {
          "internalType": "bytes32",
          "name": "s_",
          "type": "bytes32"
        }
      ],
      "name": "depositWithPermit",
      "outputs": [],
      "stateMutability": "nonpayable",
      "type": "function"
    },
    {
      "inputs": [
        {
          "internalType": "address",
          "name": "strategy_",
          "type": "address"
        }
      ],
      "name": "excessDebt",
      "outputs": [
        {
          "internalType": "uint256",
          "name": "",
          "type": "uint256"
        }
      ],
      "stateMutability": "view",
      "type": "function"
    },
    {
      "inputs": [],
      "name": "getStrategies",
      "outputs": [
        {
          "internalType": "address[]",
          "name": "",
          "type": "address[]"
        }
      ],
      "stateMutability": "view",
      "type": "function"
    },
    {
      "inputs": [],
      "name": "getWithdrawQueue",
      "outputs": [
        {
          "internalType": "address[]",
          "name": "",
          "type": "address[]"
        }
      ],
      "stateMutability": "view",
      "type": "function"
    },
    {
      "inputs": [],
      "name": "governor",
      "outputs": [
        {
          "internalType": "address",
          "name": "",
          "type": "address"
        }
      ],
      "stateMutability": "view",
      "type": "function"
    },
    {
      "inputs": [
        {
          "internalType": "string",
          "name": "name_",
          "type": "string"
        },
        {
          "internalType": "string",
          "name": "symbol_",
          "type": "string"
        },
        {
          "internalType": "address",
          "name": "token_",
          "type": "address"
        },
        {
          "internalType": "address",
          "name": "poolAccountant_",
          "type": "address"
        }
      ],
      "name": "initialize",
      "outputs": [],
      "stateMutability": "nonpayable",
      "type": "function"
    },
    {
      "inputs": [
        {
          "internalType": "address",
          "name": "address_",
          "type": "address"
        }
      ],
      "name": "isKeeper",
      "outputs": [
        {
          "internalType": "bool",
          "name": "",
          "type": "bool"
        }
      ],
      "stateMutability": "view",
      "type": "function"
    },
    {
      "inputs": [
        {
          "internalType": "address",
          "name": "address_",
          "type": "address"
        }
      ],
      "name": "isMaintainer",
      "outputs": [
        {
          "internalType": "bool",
          "name": "",
          "type": "bool"
        }
      ],
      "stateMutability": "view",
      "type": "function"
    },
    {
      "inputs": [],
      "name": "keepers",
      "outputs": [
        {
          "internalType": "address[]",
          "name": "",
          "type": "address[]"
        }
      ],
      "stateMutability": "view",
      "type": "function"
    },
    {
      "inputs": [],
      "name": "maintainers",
      "outputs": [
        {
          "internalType": "address[]",
          "name": "",
          "type": "address[]"
        }
      ],
      "stateMutability": "view",
      "type": "function"
    },
    {
      "inputs": [],
      "name": "maxProfitAsFee",
      "outputs": [
        {
          "internalType": "uint256",
          "name": "",
          "type": "uint256"
        }
      ],
      "stateMutability": "view",
      "type": "function"
    },
    {
      "inputs": [
        {
          "internalType": "address",
          "name": "old_",
          "type": "address"
        },
        {
          "internalType": "address",
          "name": "new_",
          "type": "address"
        }
      ],
      "name": "migrateStrategy",
      "outputs": [],
      "stateMutability": "nonpayable",
      "type": "function"
    },
    {
      "inputs": [],
      "name": "minDepositLimit",
      "outputs": [
        {
          "internalType": "uint256",
          "name": "",
          "type": "uint256"
        }
      ],
      "stateMutability": "view",
      "type": "function"
    },
    {
      "inputs": [],
      "name": "name",
      "outputs": [
        {
          "internalType": "string",
          "name": "",
          "type": "string"
        }
      ],
      "stateMutability": "view",
      "type": "function"
    },
    {
      "inputs": [
        {
          "internalType": "address",
          "name": "",
          "type": "address"
        }
      ],
      "name": "nonces",
      "outputs": [
        {
          "internalType": "uint256",
          "name": "",
          "type": "uint256"
        }
      ],
      "stateMutability": "view",
      "type": "function"
    },
    {
      "inputs": [],
      "name": "open",
      "outputs": [],
      "stateMutability": "nonpayable",
      "type": "function"
    },
    {
      "inputs": [],
      "name": "pause",
      "outputs": [],
      "stateMutability": "nonpayable",
      "type": "function"
    },
    {
      "inputs": [],
      "name": "paused",
      "outputs": [
        {
          "internalType": "bool",
          "name": "",
          "type": "bool"
        }
      ],
      "stateMutability": "view",
      "type": "function"
    },
    {
      "inputs": [
        {
          "internalType": "address",
          "name": "owner",
          "type": "address"
        },
        {
          "internalType": "address",
          "name": "spender",
          "type": "address"
        },
        {
          "internalType": "uint256",
          "name": "value",
          "type": "uint256"
        },
        {
          "internalType": "uint256",
          "name": "deadline",
          "type": "uint256"
        },
        {
          "internalType": "uint8",
          "name": "v",
          "type": "uint8"
        },
        {
          "internalType": "bytes32",
          "name": "r",
          "type": "bytes32"
        },
        {
          "internalType": "bytes32",
          "name": "s",
          "type": "bytes32"
        }
      ],
      "name": "permit",
      "outputs": [],
      "stateMutability": "nonpayable",
      "type": "function"
    },
    {
      "inputs": [],
      "name": "poolAccountant",
      "outputs": [
        {
          "internalType": "address",
          "name": "",
          "type": "address"
        }
      ],
      "stateMutability": "view",
      "type": "function"
    },
    {
      "inputs": [],
      "name": "poolRewards",
      "outputs": [
        {
          "internalType": "address",
          "name": "",
          "type": "address"
        }
      ],
      "stateMutability": "view",
      "type": "function"
    },
    {
      "inputs": [],
      "name": "pricePerShare",
      "outputs": [
        {
          "internalType": "uint256",
          "name": "",
          "type": "uint256"
        }
      ],
      "stateMutability": "view",
      "type": "function"
    },
    {
      "inputs": [
        {
          "internalType": "address",
          "name": "keeperAddress_",
          "type": "address"
        }
      ],
      "name": "removeKeeper",
      "outputs": [],
      "stateMutability": "nonpayable",
      "type": "function"
    },
    {
      "inputs": [
        {
          "internalType": "address",
          "name": "maintainerAddress_",
          "type": "address"
        }
      ],
      "name": "removeMaintainer",
      "outputs": [],
      "stateMutability": "nonpayable",
      "type": "function"
    },
    {
      "inputs": [
        {
          "internalType": "uint256",
          "name": "profit_",
          "type": "uint256"
        },
        {
          "internalType": "uint256",
          "name": "loss_",
          "type": "uint256"
        },
        {
          "internalType": "uint256",
          "name": "payback_",
          "type": "uint256"
        }
      ],
      "name": "reportEarning",
      "outputs": [],
      "stateMutability": "nonpayable",
      "type": "function"
    },
    {
      "inputs": [
        {
          "internalType": "uint256",
          "name": "loss_",
          "type": "uint256"
        }
      ],
      "name": "reportLoss",
      "outputs": [],
      "stateMutability": "nonpayable",
      "type": "function"
    },
    {
      "inputs": [],
      "name": "shutdown",
      "outputs": [],
      "stateMutability": "nonpayable",
      "type": "function"
    },
    {
      "inputs": [],
      "name": "stopEverything",
      "outputs": [
        {
          "internalType": "bool",
          "name": "",
          "type": "bool"
        }
      ],
      "stateMutability": "view",
      "type": "function"
    },
    {
      "inputs": [
        {
          "internalType": "address",
          "name": "strategy_",
          "type": "address"
        }
      ],
      "name": "strategy",
      "outputs": [
        {
          "internalType": "bool",
          "name": "_active",
          "type": "bool"
        },
        {
          "internalType": "uint256",
          "name": "_interestFee",
          "type": "uint256"
        },
        {
          "internalType": "uint256",
          "name": "_debtRate",
          "type": "uint256"
        },
        {
          "internalType": "uint256",
          "name": "_lastRebalance",
          "type": "uint256"
        },
        {
          "internalType": "uint256",
          "name": "_totalDebt",
          "type": "uint256"
        },
        {
          "internalType": "uint256",
          "name": "_totalLoss",
          "type": "uint256"
        },
        {
          "internalType": "uint256",
          "name": "_totalProfit",
          "type": "uint256"
        },
        {
          "internalType": "uint256",
          "name": "_debtRatio",
          "type": "uint256"
        },
        {
          "internalType": "uint256",
          "name": "_externalDepositFee",
          "type": "uint256"
        }
      ],
      "stateMutability": "view",
      "type": "function"
    },
    {
      "inputs": [
        {
          "internalType": "address",
          "name": "fromToken_",
          "type": "address"
        }
      ],
      "name": "sweepERC20",
      "outputs": [],
      "stateMutability": "nonpayable",
      "type": "function"
    },
    {
      "inputs": [],
      "name": "symbol",
      "outputs": [
        {
          "internalType": "string",
          "name": "",
          "type": "string"
        }
      ],
      "stateMutability": "view",
      "type": "function"
    },
    {
      "inputs": [],
      "name": "token",
      "outputs": [
        {
          "internalType": "contract IERC20",
          "name": "",
          "type": "address"
        }
      ],
      "stateMutability": "view",
      "type": "function"
    },
    {
      "inputs": [],
      "name": "tokensHere",
      "outputs": [
        {
          "internalType": "uint256",
          "name": "",
          "type": "uint256"
        }
      ],
      "stateMutability": "view",
      "type": "function"
    },
    {
      "inputs": [],
      "name": "totalDebt",
      "outputs": [
        {
          "internalType": "uint256",
          "name": "",
          "type": "uint256"
        }
      ],
      "stateMutability": "view",
      "type": "function"
    },
    {
      "inputs": [
        {
          "internalType": "address",
          "name": "strategy_",
          "type": "address"
        }
      ],
      "name": "totalDebtOf",
      "outputs": [
        {
          "internalType": "uint256",
          "name": "",
          "type": "uint256"
        }
      ],
      "stateMutability": "view",
      "type": "function"
    },
    {
      "inputs": [],
      "name": "totalDebtRatio",
      "outputs": [
        {
          "internalType": "uint256",
          "name": "",
          "type": "uint256"
        }
      ],
      "stateMutability": "view",
      "type": "function"
    },
    {
      "inputs": [],
      "name": "totalSupply",
      "outputs": [
        {
          "internalType": "uint256",
          "name": "",
          "type": "uint256"
        }
      ],
      "stateMutability": "view",
      "type": "function"
    },
    {
      "inputs": [],
      "name": "totalValue",
      "outputs": [
        {
          "internalType": "uint256",
          "name": "",
          "type": "uint256"
        }
      ],
      "stateMutability": "view",
      "type": "function"
    },
    {
      "inputs": [
        {
          "internalType": "address",
          "name": "recipient",
          "type": "address"
        },
        {
          "internalType": "uint256",
          "name": "amount",
          "type": "uint256"
        }
      ],
      "name": "transfer",
      "outputs": [
        {
          "internalType": "bool",
          "name": "",
          "type": "bool"
        }
      ],
      "stateMutability": "nonpayable",
      "type": "function"
    },
    {
      "inputs": [
        {
          "internalType": "address",
          "name": "sender",
          "type": "address"
        },
        {
          "internalType": "address",
          "name": "recipient",
          "type": "address"
        },
        {
          "internalType": "uint256",
          "name": "amount",
          "type": "uint256"
        }
      ],
      "name": "transferFrom",
      "outputs": [
        {
          "internalType": "bool",
          "name": "",
          "type": "bool"
        }
      ],
      "stateMutability": "nonpayable",
      "type": "function"
    },
    {
      "inputs": [
        {
          "internalType": "address",
          "name": "_proposedGovernor",
          "type": "address"
        }
      ],
      "name": "transferGovernorship",
      "outputs": [],
      "stateMutability": "nonpayable",
      "type": "function"
    },
    {
      "inputs": [],
      "name": "universalFee",
      "outputs": [
        {
          "internalType": "uint256",
          "name": "",
          "type": "uint256"
        }
      ],
      "stateMutability": "view",
      "type": "function"
    },
    {
      "inputs": [],
      "name": "unpause",
      "outputs": [],
      "stateMutability": "nonpayable",
      "type": "function"
    },
    {
      "inputs": [
        {
          "internalType": "uint256",
          "name": "newMaxProfitAsFee_",
          "type": "uint256"
        }
      ],
      "name": "updateMaximumProfitAsFee",
      "outputs": [],
      "stateMutability": "nonpayable",
      "type": "function"
    },
    {
      "inputs": [
        {
          "internalType": "uint256",
          "name": "newLimit_",
          "type": "uint256"
        }
      ],
      "name": "updateMinimumDepositLimit",
      "outputs": [],
      "stateMutability": "nonpayable",
      "type": "function"
    },
    {
      "inputs": [
        {
          "internalType": "address",
          "name": "newPoolRewards_",
          "type": "address"
        }
      ],
      "name": "updatePoolRewards",
      "outputs": [],
      "stateMutability": "nonpayable",
      "type": "function"
    },
    {
      "inputs": [
        {
          "internalType": "uint256",
          "name": "newUniversalFee_",
          "type": "uint256"
        }
      ],
      "name": "updateUniversalFee",
      "outputs": [],
      "stateMutability": "nonpayable",
      "type": "function"
    },
    {
      "inputs": [
        {
          "internalType": "uint256",
          "name": "shares_",
          "type": "uint256"
        }
      ],
      "name": "withdraw",
      "outputs": [],
      "stateMutability": "nonpayable",
      "type": "function"
    },
    {
      "inputs": [
        {
          "internalType": "uint256",
          "name": "shares_",
          "type": "uint256"
        }
      ],
      "name": "withdrawAndClaim",
      "outputs": [],
      "stateMutability": "nonpayable",
      "type": "function"
    }
  ],
  "transactionHash": "0x8fdf88c709f64867e153c34d874ba3e26a5135f0da289f1c1913b0d2eec1722c",
  "args": [
    "Vesper pool",
    "vPool",
    "0x0000000000000000000000000000000000000000"
  ],
  "numDeployments": 1,
  "solcInputHash": "78b3517d113ba4b7a0a098caaf7b9ceb",
  "bytecode": "0x608060405260c8601d55611388601e556001601f553480156200002157600080fd5b50604051620046933803806200469383398101604081905262000044916200027b565b8251839083906200005d90600390602085019062000108565b5080516200007390600490602084019062000108565b5050506000620000886200010460201b60201c565b600a80546001600160a01b0319166001600160a01b038316908117909155604051919250906000907fd4459d5b8b913cab0244230fd9b1c08b6ceace7fe9230e60d0f74cbffdf849d0908290a3506001600c55600d80546001600160a01b0319166001600160a01b039290921691909117905550620003459050565b3390565b828054620001169062000308565b90600052602060002090601f0160209004810192826200013a576000855562000185565b82601f106200015557805160ff191683800117855562000185565b8280016001018555821562000185579182015b828111156200018557825182559160200191906001019062000168565b506200019392915062000197565b5090565b5b8082111562000193576000815560010162000198565b634e487b7160e01b600052604160045260246000fd5b600082601f830112620001d657600080fd5b81516001600160401b0380821115620001f357620001f3620001ae565b604051601f8301601f19908116603f011681019082821181831017156200021e576200021e620001ae565b816040528381526020925086838588010111156200023b57600080fd5b600091505b838210156200025f578582018301518183018401529082019062000240565b83821115620002715760008385830101525b9695505050505050565b6000806000606084860312156200029157600080fd5b83516001600160401b0380821115620002a957600080fd5b620002b787838801620001c4565b94506020860151915080821115620002ce57600080fd5b50620002dd86828701620001c4565b604086015190935090506001600160a01b0381168114620002fd57600080fd5b809150509250925092565b600181811c908216806200031d57607f821691505b602082108114156200033f57634e487b7160e01b600052602260045260246000fd5b50919050565b61433e80620003556000396000f3fe608060405234801561001057600080fd5b506004361061035b5760003560e01c80638d3d0a26116101ca578063c01e0d4011610105578063ddd6d260116100a8578063ddd6d260146107a5578063e00af4a7146107b8578063f3b27bc3146107cb578063fc0c546a146107d3578063fc0e74d1146107e6578063fc7b9c18146107ee578063fcfff16f146107f6578063fd967f47146107fe578063ffa1ad741461080757600080fd5b8063c01e0d40146106f2578063c12d636b14610705578063d4c3eea014610718578063d505accf14610720578063d53ddc2614610733578063d8baf7cf14610746578063dd57366a14610759578063dd62ed3e1461076c57600080fd5b80639fd5be181161016d5780639fd5be181461067a578063a9059cbb14610683578063a941a90e14610696578063b49a60bb146106a9578063b64321ec146106b1578063b6aa515b146106c4578063b6b55f25146106d7578063b8cb343d146106ea57600080fd5b80638d3d0a26146106035780638f15b41414610616578063940c408214610629578063951dc22c1461063c57806395d89b411461064457806399530b061461064c5780639b6da8df146106545780639f2b28331461066757600080fd5b80633e7729251161029a5780635f895e541161023d5780635f895e541461055d5780636b453c1f146105665780636ba42aaa146105795780636cb56d191461058c57806370a082311461059f5780637ecebe00146105c85780638456cb59146105e85780638bc6beb2146105f057600080fd5b80633e772925146104e35780633f4ba83a146104ec5780634032b72b146104f4578063448a1047146105075780634938649a1461051a57806349eeb8601461052e5780634a970be7146105365780635c975abb1461054957600080fd5b806318160ddd1161030257806318160ddd1461042a578063228bfd9f1461043257806323b872dd1461048b5780632df9eab91461049e5780632e1a7d4d146104a6578063313ce567146104b957806332dd0f49146104c85780633644e515146104db57600080fd5b806305bed0461461036057806306fdde0314610375578063095ea7b3146103935780630c340a24146103b65780630da3fe20146103d657806311183052146103e957806314ae9f2e146103fe57806316d3bfbb14610411575b600080fd5b61037361036e3660046139f6565b61082b565b005b61037d610aac565b60405161038a9190613a4e565b60405180910390f35b6103a66103a1366004613a96565b610b3e565b604051901515815260200161038a565b600a546103c9906001600160a01b031681565b60405161038a9190613ac2565b6103736103e4366004613ad6565b610b55565b6103f1610c41565b60405161038a9190613aef565b61037361040c366004613b3c565b610cc7565b61041c6301e1338081565b60405190815260200161038a565b60025461041c565b610445610440366004613b3c565b610d4c565b604080519915158a5260208a0198909852968801959095526060870193909352608086019190915260a085015260c084015260e08301526101008201526101200161038a565b6103a6610499366004613b59565b610dfd565b61041c610eb0565b6103736104b4366004613ad6565b610f2d565b6040516012815260200161038a565b61041c6104d6366004613ad6565b610f9e565b61041c610faa565b61041c601e5481565b610373610fb4565b610373610502366004613b3c565b610ff7565b610373610515366004613ad6565b611074565b600b546103a690600160a81b900460ff1681565b6103f16110cf565b610373610544366004613ba9565b6110db565b600b546103a690600160a01b900460ff1681565b61041c601d5481565b610373610574366004613b3c565b6111e2565b6103a6610587366004613b3c565b611226565b61037361059a366004613bf2565b611233565b61041c6105ad366004613b3c565b6001600160a01b031660009081526020819052604090205490565b61041c6105d6366004613b3c565b60096020526000908152604090205481565b610373611472565b600f546103c9906001600160a01b031681565b610373610611366004613ad6565b6114b3565b610373610624366004613ce2565b61155b565b610373610637366004613b3c565b611739565b6103f1611800565b61037d61180c565b61041c61181b565b610373610662366004613ad6565b6118f4565b61041c610675366004613b3c565b61199f565b61041c601f5481565b6103a6610691366004613a96565b611a20565b6103736106a4366004613ad6565b611a2d565b6103f1611a91565b61041c6106bf366004613b3c565b611ad6565b6103736106d2366004613b3c565b611b07565b6103736106e5366004613ad6565b611ba5565b61041c611c00565b61041c610700366004613ad6565b611c49565b600e546103c9906001600160a01b031681565b61041c611d3d565b61037361072e366004613d6b565b611dd7565b61041c610741366004613b3c565b611f97565b610373610754366004613b3c565b611fc8565b6103a6610767366004613b3c565b61200c565b61041c61077a366004613bf2565b6001600160a01b03918216600090815260016020908152604080832093909416825291909152205490565b6103736107b3366004613ad6565b612019565b6103736107c6366004613b3c565b612080565b61037361219b565b600d546103c9906001600160a01b031681565b610373612257565b61041c612298565b6103736122dd565b61041c61271081565b61037d604051806040016040528060058152602001640352e312e360dc1b81525081565b3383156109a057600e5460405163228bfd9f60e01b815260009182916001600160a01b039091169063228bfd9f90610867908690600401613ac2565b6101206040518083038186803b15801561088057600080fd5b505afa158015610894573d6000803e3d6000fd5b505050506040513d601f19601f820116820180604052508101906108b89190613df1565b505050509450945050505060006108d083838961231e565b9050801561099c5761095a846001600160a01b031663c415b95c6040518163ffffffff1660e01b815260040160206040518083038186803b15801561091457600080fd5b505afa158015610928573d6000803e3d6000fd5b505050506040513d601f19601f8201168201806040525081019061094c9190613e61565b61095583612391565b6123f6565b60408051838152602081018990529081018290527f692ef79cc704efab4328e6c217b5fb3b1045d0a0314e3e8137029bcb2d59ce4a9060600160405180910390a15b5050505b600e5460405163a066654b60e01b81526001600160a01b038381166004830152602482018790526044820186905260648201859052600092839291169063a066654b906084016040805180830381600087803b1580156109ff57600080fd5b505af1158015610a13573d6000803e3d6000fd5b505050506040513d601f19601f82011682018060405250810190610a379190613e7e565b90925090506000610a488388613eb8565b905081811015610a7857610a7384610a608385613ed0565b600d546001600160a01b031691906124c3565b610aa3565b81811115610aa357610aa38430610a8f8585613ed0565b600d546001600160a01b031692919061251e565b50505050505050565b606060038054610abb90613ee7565b80601f0160208091040260200160405190810160405280929190818152602001828054610ae790613ee7565b8015610b345780601f10610b0957610100808354040283529160200191610b34565b820191906000526020600020905b815481529060010190602001808311610b1757829003601f168201915b5050505050905090565b6000610b4b33848461255c565b5060015b92915050565b600a546001600160a01b03163314610b885760405162461bcd60e51b8152600401610b7f90613f22565b60405180910390fd5b604080518082019091526002815261199960f11b602082015281610bbf5760405162461bcd60e51b8152600401610b7f9190613a4e565b50601f5481141560405180604001604052806002815260200161333160f01b81525090610bff5760405162461bcd60e51b8152600401610b7f9190613a4e565b50601f5460408051918252602082018390527f25c9f41f0fb7a055d44b070262516fbd0111daea3b55d40fae1983827dc99292910160405180910390a1601f55565b600e546040805163088c182960e11b815290516060926001600160a01b0316916311183052916004808301926000929190829003018186803b158015610c8657600080fd5b505afa158015610c9a573d6000803e3d6000fd5b505050506040513d6000823e601f3d908101601f19168201604052610cc29190810190613f48565b905090565b600a546001600160a01b0316331480610ce85750610ce8335b601990612681565b610d045760405162461bcd60e51b8152600401610b7f90613ffa565b610d0f6019826126a3565b604051806040016040528060028152602001610c4d60f21b81525090610d485760405162461bcd60e51b8152600401610b7f9190613a4e565b5050565b600e5460405163228bfd9f60e01b8152600091829182918291829182918291829182916001600160a01b03169063228bfd9f90610d8d908d90600401613ac2565b6101206040518083038186803b158015610da657600080fd5b505afa158015610dba573d6000803e3d6000fd5b505050506040513d601f19601f82011682018060405250810190610dde9190613df1565b9850985098509850985098509850985098509193959799909294969850565b6000610e0a8484846126b8565b6001600160a01b038416600090815260016020908152604080832033845290915290205482811015610e8f5760405162461bcd60e51b815260206004820152602860248201527f45524332303a207472616e7366657220616d6f756e74206578636565647320616044820152676c6c6f77616e636560c01b6064820152608401610b7f565b610ea38533610e9e8685613ed0565b61255c565b60019150505b9392505050565b600e5460408051632df9eab960e01b815290516000926001600160a01b031691632df9eab9916004808301926020929190829003018186803b158015610ef557600080fd5b505afa158015610f09573d6000803e3d6000fd5b505050506040513d601f19601f82011682018060405250810190610cc29190614020565b6002600c541415610f505760405162461bcd60e51b8152600401610b7f90614039565b6002600c55600b54600160a81b900460ff1615610f7f5760405162461bcd60e51b8152600401610b7f90614070565b610f8d33612799565b612799565b610f96816127da565b506001600c55565b6000610b4f3383612896565b6000610cc261293b565b600a546001600160a01b0316331480610fd15750610fd133610ce0565b610fed5760405162461bcd60e51b8152600401610b7f90613ffa565b610ff56129b6565b565b600a546001600160a01b0316331480611014575061101433610ce0565b6110305760405162461bcd60e51b8152600401610b7f90613ffa565b61103b601982612a6d565b60405180604001604052806002815260200161313360f01b81525090610d485760405162461bcd60e51b8152600401610b7f9190613a4e565b6002600c5414156110975760405162461bcd60e51b8152600401610b7f90614039565b6002600c55600b54600160a81b900460ff16156110c65760405162461bcd60e51b8152600401610b7f90614070565b610f8d33612a82565b6060610cc2601b612ac3565b6002600c5414156110fe5760405162461bcd60e51b8152600401610b7f90614039565b6002600c55600b54600160a01b900460ff161561112d5760405162461bcd60e51b8152600401610b7f90614092565b600d546001600160a01b031663d505accf336040516001600160e01b031960e084901b1681526001600160a01b039091166004820152306024820152604481018890526064810187905260ff8616608482015260a4810185905260c4810184905260e401600060405180830381600087803b1580156111ab57600080fd5b505af11580156111bf573d6000803e3d6000fd5b505050506111cd610f883390565b6111d685612ad0565b50506001600c55505050565b600a546001600160a01b03163314806111ff57506111ff33610ce0565b61121b5760405162461bcd60e51b8152600401610b7f90613ffa565b61103b601b82612a6d565b6000610b4f601983612681565b600a546001600160a01b0316331461125d5760405162461bcd60e51b8152600401610b7f90613f22565b306001600160a01b0316816001600160a01b03166316f0115b6040518163ffffffff1660e01b815260040160206040518083038186803b1580156112a057600080fd5b505afa1580156112b4573d6000803e3d6000fd5b505050506040513d601f19601f820116820180604052508101906112d89190613e61565b6001600160a01b031614801561136f5750306001600160a01b0316826001600160a01b03166316f0115b6040518163ffffffff1660e01b815260040160206040518083038186803b15801561132c57600080fd5b505afa158015611340573d6000803e3d6000fd5b505050506040513d601f19601f820116820180604052508101906113649190613e61565b6001600160a01b0316145b60405180604001604052806002815260200161313760f01b815250906113a85760405162461bcd60e51b8152600401610b7f9190613a4e565b50600e54604051636cb56d1960e01b81526001600160a01b038481166004830152838116602483015290911690636cb56d1990604401600060405180830381600087803b1580156113f857600080fd5b505af115801561140c573d6000803e3d6000fd5b505060405163ce5494bb60e01b81526001600160a01b038516925063ce5494bb915061143c908490600401613ac2565b600060405180830381600087803b15801561145657600080fd5b505af115801561146a573d6000803e3d6000fd5b505050505050565b600a546001600160a01b031633148061148f575061148f33610ce0565b6114ab5760405162461bcd60e51b8152600401610b7f90613ffa565b610ff5612b3e565b600a546001600160a01b031633146114dd5760405162461bcd60e51b8152600401610b7f90613f22565b604080518082019091526002815261313160f01b60208201526127108211156115195760405162461bcd60e51b8152600401610b7f9190613a4e565b50601d5460408051918252602082018390527f905d672396c48f9d1e13c57aec0819f00d39364ab4bf40a46a687aa607b67d81910160405180910390a1601d55565b600554610100900460ff1680611574575060055460ff16155b6115905760405162461bcd60e51b8152600401610b7f906140b2565b600554610100900460ff161580156115b2576005805461ffff19166101011790555b604080518082019091526002815261031360f41b60208201526001600160a01b0384166115f25760405162461bcd60e51b8152600401610b7f9190613a4e565b50604080518082019091526002815261031360f41b60208201526001600160a01b0383166116335760405162461bcd60e51b8152600401610b7f9190613a4e565b5061163e8585612ba3565b61164785612bca565b61164f612c49565b600d80546001600160a01b0319166001600160a01b03851617905561167633601990612a6d565b60405180604001604052806002815260200161313360f01b815250906116af5760405162461bcd60e51b8152600401610b7f9190613a4e565b506116bb601b33612a6d565b60405180604001604052806002815260200161313360f01b815250906116f45760405162461bcd60e51b8152600401610b7f9190613a4e565b50600e80546001600160a01b0319166001600160a01b03841617905560c8601d55611388601e556001601f558015611732576005805461ff00191690555b5050505050565b600a546001600160a01b031633146117635760405162461bcd60e51b8152600401610b7f90613f22565b604080518082019091526002815261031360f41b60208201526001600160a01b0382166117a35760405162461bcd60e51b8152600401610b7f9190613a4e565b50600f546040516001600160a01b038084169216907fe239974dad08ac696e723caf1886bd0b5afc0870088f9a1266082757f824927690600090a3600f80546001600160a01b0319166001600160a01b0392909216919091179055565b6060610cc26019612ac3565b606060048054610abb90613ee7565b600061182660025490565b15806118375750611835611d3d565b155b156118cd57600d60009054906101000a90046001600160a01b03166001600160a01b031663313ce5676040518163ffffffff1660e01b815260040160206040518083038186803b15801561188a57600080fd5b505afa15801561189e573d6000803e3d6000fd5b505050506040513d601f19601f820116820180604052508101906118c29190614100565b610cc290600a614201565b6002546118d8611d3d565b6118ea90670de0b6b3a7640000614210565b610cc2919061422f565b600a546001600160a01b0316331461191e5760405162461bcd60e51b8152600401610b7f90613f22565b601e5481141560405180604001604052806002815260200161333160f01b8152509061195d5760405162461bcd60e51b8152600401610b7f9190613a4e565b50601e5460408051918252602082018390527fafe4d3ceb3295a8d4ef49288a92d32d94e39396e823d414b81caff61b9fc3990910160405180910390a1601e55565b600e54604051639f2b283360e01b81526000916001600160a01b031690639f2b2833906119d0908590600401613ac2565b60206040518083038186803b1580156119e857600080fd5b505afa1580156119fc573d6000803e3d6000fd5b505050506040513d601f19601f82011682018060405250810190610b4f9190614020565b6000610b4b3384846126b8565b6002600c541415611a505760405162461bcd60e51b8152600401610b7f90614039565b6002600c55600b54600160a01b900460ff1615611a7f5760405162461bcd60e51b8152600401610b7f90614092565b611a8833612a82565b610f9681612ad0565b600e546040805163b49a60bb60e01b815290516060926001600160a01b03169163b49a60bb916004808301926000929190829003018186803b158015610c8657600080fd5b600e54604051632d90c87b60e21b81526000916001600160a01b03169063b64321ec906119d0908590600401613ac2565b600a546001600160a01b03163314611b315760405162461bcd60e51b8152600401610b7f90613f22565b6001600160a01b038116611b835760405162461bcd60e51b815260206004820152601960248201527870726f706f7365642d676f7665726e6f722d69732d7a65726f60381b6044820152606401610b7f565b600b80546001600160a01b0319166001600160a01b0392909216919091179055565b6002600c541415611bc85760405162461bcd60e51b8152600401610b7f90614039565b6002600c55600b54600160a01b900460ff1615611bf75760405162461bcd60e51b8152600401610b7f90614092565b611a8833612799565b600d546040516370a0823160e01b81526000916001600160a01b0316906370a0823190611c31903090600401613ac2565b60206040518083038186803b158015610ef557600080fd5b6000601f54821015604051806040016040528060018152602001603160f81b81525090611c895760405162461bcd60e51b8152600401610b7f9190613a4e565b506000612710600e60009054906101000a90046001600160a01b03166001600160a01b031663346162d56040518163ffffffff1660e01b815260040160206040518083038186803b158015611cdd57600080fd5b505afa158015611cf1573d6000803e3d6000fd5b505050506040513d601f19601f82011682018060405250810190611d159190614020565b611d1f9085614210565b611d29919061422f565b9050610ea9611d388285613ed0565b612391565b6000611d47611c00565b600e60009054906101000a90046001600160a01b03166001600160a01b031663fc7b9c186040518163ffffffff1660e01b815260040160206040518083038186803b158015611d9557600080fd5b505afa158015611da9573d6000803e3d6000fd5b505050506040513d601f19601f82011682018060405250810190611dcd9190614020565b610cc29190613eb8565b83421115611e275760405162461bcd60e51b815260206004820152601d60248201527f45524332305065726d69743a206578706972656420646561646c696e650000006044820152606401610b7f565b6001600160a01b0387811660008181526009602090815260408083205481517f6e71edae12b1b97f4d1f60370fef10105fa2faae0126114a169c64845d6126c98185015280830195909552948b166060850152608084018a905260a0840185905260c08085018a90528151808603909101815260e09094019052825192019190912090611eb261293b565b60405161190160f01b60208201526022810191909152604281018390526062016040516020818303038152906040528051906020012090506000611ef882888888612cf7565b90508a6001600160a01b0316816001600160a01b031614611f5b5760405162461bcd60e51b815260206004820152601e60248201527f45524332305065726d69743a20696e76616c6964207369676e617475726500006044820152606401610b7f565b611f66846001613eb8565b6001600160a01b038c16600090815260096020526040902055611f8a8b8b8b61255c565b5050505050505050505050565b600e54604051636a9eee1360e11b81526000916001600160a01b03169063d53ddc26906119d0908590600401613ac2565b600a546001600160a01b0316331480611fe55750611fe533610ce0565b6120015760405162461bcd60e51b8152600401610b7f90613ffa565b610d0f601b826126a3565b6000610b4f601b83612681565b801561207d57600e546001600160a01b0316637f13086e33836040518363ffffffff1660e01b815260040161204f929190614251565b600060405180830381600087803b15801561206957600080fd5b505af1158015611732573d6000803e3d6000fd5b50565b600a546001600160a01b031633148061209d575061209d33610ce0565b6120b95760405162461bcd60e51b8152600401610b7f90613ffa565b600d546040805180820190915260018152600760fb1b6020820152906001600160a01b03838116911614156121015760405162461bcd60e51b8152600401610b7f9190613a4e565b50600a546040516370a0823160e01b815261207d916001600160a01b0390811691908416906370a082319061213a903090600401613ac2565b60206040518083038186803b15801561215257600080fd5b505afa158015612166573d6000803e3d6000fd5b505050506040513d601f19601f8201168201806040525081019061218a9190614020565b6001600160a01b03841691906124c3565b600b546001600160a01b031633146121f15760405162461bcd60e51b81526020600482015260196024820152783737ba16ba343296b83937b837b9b2b216b3b7bb32b93737b960391b6044820152606401610b7f565b600b54600a546040516001600160a01b0392831692909116907fd4459d5b8b913cab0244230fd9b1c08b6ceace7fe9230e60d0f74cbffdf849d090600090a3600b8054600a80546001600160a01b03199081166001600160a01b03841617909155169055565b600a546001600160a01b0316331480612274575061227433610ce0565b6122905760405162461bcd60e51b8152600401610b7f90613ffa565b610ff5612e88565b600e5460408051631f8f738360e31b815290516000926001600160a01b03169163fc7b9c18916004808301926020929190829003018186803b158015610ef557600080fd5b600a546001600160a01b03163314806122fa57506122fa33610ce0565b6123165760405162461bcd60e51b8152600401610b7f90613ffa565b610ff5612eee565b60006123306301e13380612710614210565b8361233b8642613ed0565b601d546123489190614210565b6123529190614210565b61235c919061422f565b90506000612710601e54846123719190614210565b61237b919061422f565b905080821115612389578091505b509392505050565b60008061239c61181b565b6123ae84670de0b6b3a7640000614210565b6123b8919061422f565b9050670de0b6b3a76400006123cb61181b565b6123d59083614210565b6123df919061422f565b83116123eb5780610ea9565b610ea9816001613eb8565b6001600160a01b03821661244c5760405162461bcd60e51b815260206004820152601f60248201527f45524332303a206d696e7420746f20746865207a65726f2061646472657373006044820152606401610b7f565b806002600082825461245e9190613eb8565b90915550506001600160a01b0382166000908152602081905260408120805483929061248b908490613eb8565b90915550506040518181526001600160a01b038316906000906000805160206142e98339815191529060200160405180910390a35050565b6125198363a9059cbb60e01b84846040516024016124e2929190614251565b60408051601f198184030181529190526020810180516001600160e01b03166001600160e01b031990931692909217909152612f6a565b505050565b6040516001600160a01b03808516602483015283166044820152606481018290526125569085906323b872dd60e01b906084016124e2565b50505050565b6001600160a01b0383166125be5760405162461bcd60e51b8152602060048201526024808201527f45524332303a20617070726f76652066726f6d20746865207a65726f206164646044820152637265737360e01b6064820152608401610b7f565b6001600160a01b03821661261f5760405162461bcd60e51b815260206004820152602260248201527f45524332303a20617070726f766520746f20746865207a65726f206164647265604482015261737360f01b6064820152608401610b7f565b6001600160a01b0383811660008181526001602090815260408083209487168084529482529182902085905590518481527f8c5be1e5ebec7d5bd14f71427d1e84f3dd0314c0f7b2291e5b200ac8c7c3b92591015b60405180910390a3505050565b6001600160a01b03811660009081526001830160205260408120541515610ea9565b6000610ea9836001600160a01b03841661303c565b600f546001600160a01b03161561278e57600f5460405163632447c960e01b81526001600160a01b039091169063632447c9906126f9908690600401613ac2565b600060405180830381600087803b15801561271357600080fd5b505af1158015612727573d6000803e3d6000fd5b5050600f5460405163632447c960e01b81526001600160a01b03909116925063632447c9915061275b908590600401613ac2565b600060405180830381600087803b15801561277557600080fd5b505af1158015612789573d6000803e3d6000fd5b505050505b61251983838361312f565b600f546001600160a01b03161561207d57600f5460405163632447c960e01b81526001600160a01b039091169063632447c99061204f908490600401613ac2565b6040805180820190915260018152601960f91b6020820152816128105760405162461bcd60e51b8152600401610b7f9190613a4e565b5060008061281d836132f5565b91509150801561284257600061283283612391565b905083811015612840578093505b505b61284c338461339c565b612855826134d9565b50604080518481526020810184905233917ff279e6a1f5e320cca91135676d9cb6e44ca8a08c0b88342bcdb1144f6511b568910160405180910390a2505050565b600e5460405163228bfd9f60e01b8152600091829182916001600160a01b03169063228bfd9f906128cb908890600401613ac2565b6101206040518083038186803b1580156128e457600080fd5b505afa1580156128f8573d6000803e3d6000fd5b505050506040513d601f19601f8201168201806040525081019061291c9190613df1565b505050509450945050505061293282828661231e565b95945050505050565b600060085446141561294e575060065490565b6007546040805180820190915260018152603160f81b602090910152610cc2907f8b73c3c69bb8fe3d512ecc4cf759cc79239f7b179b0ffacaa9a75d522b39400f907fc89efdaa54c0f20c7adf612882df0950f5a951637e0307cdcb4c672f298b8bc66134f6565b600b54600160a01b900460ff166129fc5760405162461bcd60e51b815260206004820152600a6024820152691b9bdd0b5c185d5cd95960b21b6044820152606401610b7f565b600b54600160a81b900460ff1615612a265760405162461bcd60e51b8152600401610b7f90614070565b600b805460ff60a01b191690557f5db9ee0a495bf2e6ff9c91a7834c1ba4fdd244a5e8aa4e537bd38aeae4b073aa335b604051612a639190613ac2565b60405180910390a1565b6000610ea9836001600160a01b03841661353f565b600f546001600160a01b03161561207d57600f5460405163d279c19160e01b81526001600160a01b039091169063d279c1919061204f908490600401613ac2565b60606000610ea98361358e565b6000612adb82611c49565b9050612af533600d546001600160a01b031690308561251e565b612aff33826123f6565b604080518281526020810184905233917f90890809c654f11d6e72a28fa60149770a0d11ec6c92319d6ceb2bb0a4ea1a15910160405180910390a25050565b600b54600160a01b900460ff1615612b685760405162461bcd60e51b8152600401610b7f90614092565b600b805460ff60a01b1916600160a01b1790557f62e78cea01bee320cd4e420270b5ea74000d11b0c9f74754ebdbfc544b05a258612a563390565b8151612bb6906003906020850190613966565b508051612519906004906020840190613966565b80516020808301919091206007819055466008556040805180820190915260018152603160f81b920191909152612c43907f8b73c3c69bb8fe3d512ecc4cf759cc79239f7b179b0ffacaa9a75d522b39400f907fc89efdaa54c0f20c7adf612882df0950f5a951637e0307cdcb4c672f298b8bc66134f6565b60065550565b600554610100900460ff1680612c62575060055460ff16155b612c7e5760405162461bcd60e51b8152600401610b7f906140b2565b600554610100900460ff16158015612ca0576005805461ffff19166101011790555b600a80546001600160a01b0319163390811790915560405181906000907fd4459d5b8b913cab0244230fd9b1c08b6ceace7fe9230e60d0f74cbffdf849d0908290a350801561207d576005805461ff001916905550565b60006fa2a8918ca85bafe22016d0b997e4df60600160ff1b03821115612d6a5760405162461bcd60e51b815260206004820152602260248201527f45434453413a20696e76616c6964207369676e6174757265202773272076616c604482015261756560f01b6064820152608401610b7f565b8360ff16601b1480612d7f57508360ff16601c145b612dd65760405162461bcd60e51b815260206004820152602260248201527f45434453413a20696e76616c6964207369676e6174757265202776272076616c604482015261756560f01b6064820152608401610b7f565b6040805160008082526020820180845288905260ff871692820192909252606081018590526080810184905260019060a0016020604051602081039080840390855afa158015612e2a573d6000803e3d6000fd5b5050604051601f1901519150506001600160a01b0381166129325760405162461bcd60e51b815260206004820152601860248201527745434453413a20696e76616c6964207369676e617475726560401b6044820152606401610b7f565b600b54600160a81b900460ff1615612eb25760405162461bcd60e51b8152600401610b7f90614070565b600b805461ffff60a01b191661010160a01b1790557f28b4c24cb1012c094cd2f59f98e89d791973295f8fda6eaa118022d6d318960a33612a56565b600b54600160a81b900460ff16612f365760405162461bcd60e51b815260206004820152600c60248201526b3737ba16b9b43aba3237bbb760a11b6044820152606401610b7f565b600b805460ff60a81b191690557fece7583a70a505ef0e36d4dec768f5ae597713e09c26011022599ee01abdabfc33612a56565b6000612fbf826040518060400160405280602081526020017f5361666545524332303a206c6f772d6c6576656c2063616c6c206661696c6564815250856001600160a01b03166135ea9092919063ffffffff16565b8051909150156125195780806020019051810190612fdd919061426a565b6125195760405162461bcd60e51b815260206004820152602a60248201527f5361666545524332303a204552433230206f7065726174696f6e20646964206e6044820152691bdd081cdd58d8d9595960b21b6064820152608401610b7f565b60008181526001830160205260408120548015613125576000613060600183613ed0565b855490915060009061307490600190613ed0565b90508181146130d957600086600001828154811061309457613094614285565b90600052602060002001549050808760000184815481106130b7576130b7614285565b6000918252602080832090910192909255918252600188019052604090208390555b85548690806130ea576130ea61429b565b600190038181906000526020600020016000905590558560010160008681526020019081526020016000206000905560019350505050610b4f565b6000915050610b4f565b6001600160a01b0383166131935760405162461bcd60e51b815260206004820152602560248201527f45524332303a207472616e736665722066726f6d20746865207a65726f206164604482015264647265737360d81b6064820152608401610b7f565b6001600160a01b0382166131f55760405162461bcd60e51b815260206004820152602360248201527f45524332303a207472616e7366657220746f20746865207a65726f206164647260448201526265737360e81b6064820152608401610b7f565b6001600160a01b0383166000908152602081905260409020548181101561326d5760405162461bcd60e51b815260206004820152602660248201527f45524332303a207472616e7366657220616d6f756e7420657863656564732062604482015265616c616e636560d01b6064820152608401610b7f565b6132778282613ed0565b6001600160a01b0380861660009081526020819052604080822093909355908516815290812080548492906132ad908490613eb8565b92505081905550826001600160a01b0316846001600160a01b03166000805160206142e9833981519152846040516132e791815260200190565b60405180910390a350505050565b600080670de0b6b3a764000061330961181b565b6133139085614210565b61331d919061422f565b91506000613329611c00565b90508083111561335f576133456133408285613ed0565b613601565b61334d611c00565b90508083111561335f57809250600191505b6040805180820190915260018152603160f81b6020820152836133955760405162461bcd60e51b8152600401610b7f9190613a4e565b5050915091565b6001600160a01b0382166133fc5760405162461bcd60e51b815260206004820152602160248201527f45524332303a206275726e2066726f6d20746865207a65726f206164647265736044820152607360f81b6064820152608401610b7f565b6001600160a01b038216600090815260208190526040902054818110156134705760405162461bcd60e51b815260206004820152602260248201527f45524332303a206275726e20616d6f756e7420657863656564732062616c616e604482015261636560f01b6064820152608401610b7f565b61347a8282613ed0565b6001600160a01b038416600090815260208190526040812091909155600280548492906134a8908490613ed0565b90915550506040518281526000906001600160a01b038516906000805160206142e983398151915290602001612674565b60006134f233600d546001600160a01b031690846124c3565b5090565b6040805160208101859052908101839052606081018290524660808201523060a082015260009060c0016040516020818303038152906040528051906020012090509392505050565b600081815260018301602052604081205461358657508154600181810184556000848152602080822090930184905584548482528286019093526040902091909155610b4f565b506000610b4f565b6060816000018054806020026020016040519081016040528092919081815260200182805480156135de57602002820191906000526020600020905b8154815260200190600101908083116135ca575b50505050509050919050565b60606135f98484600085613805565b949350505050565b6000806000806000613611610c41565b805190915060005b818110156137fb57600061362d858a613ed0565b9050600084838151811061364357613643614285565b6020908102919091010151600e54604051639f2b283360e01b81529192506001600160a01b031690639f2b28339061367f908490600401613ac2565b60206040518083038186803b15801561369757600080fd5b505afa1580156136ab573d6000803e3d6000fd5b505050506040513d601f19601f820116820180604052508101906136cf9190614020565b9850886136dd5750506137e9565b888211156136e9578891505b6136f1611c00565b604051632e1a7d4d60e01b8152600481018490529098506001600160a01b03821690632e1a7d4d90602401600060405180830381600087803b15801561373657600080fd5b505af1925050508015613747575060015b6137525750506137e9565b8761375b611c00565b6137659190613ed0565b600e54604051632fb9ba3160e01b81529198506001600160a01b031690632fb9ba31906137989084908b90600401614251565b600060405180830381600087803b1580156137b257600080fd5b505af11580156137c6573d6000803e3d6000fd5b5050505086866137d69190613eb8565b95508986106137e65750506137fb565b50505b806137f3816142b1565b915050613619565b5050505050505050565b6060824710156138665760405162461bcd60e51b815260206004820152602660248201527f416464726573733a20696e73756666696369656e742062616c616e636520666f6044820152651c8818d85b1b60d21b6064820152608401610b7f565b843b6138b45760405162461bcd60e51b815260206004820152601d60248201527f416464726573733a2063616c6c20746f206e6f6e2d636f6e74726163740000006044820152606401610b7f565b600080866001600160a01b031685876040516138d091906142cc565b60006040518083038185875af1925050503d806000811461390d576040519150601f19603f3d011682016040523d82523d6000602084013e613912565b606091505b509150915061392282828661392d565b979650505050505050565b6060831561393c575081610ea9565b82511561394c5782518084602001fd5b8160405162461bcd60e51b8152600401610b7f9190613a4e565b82805461397290613ee7565b90600052602060002090601f01602090048101928261399457600085556139da565b82601f106139ad57805160ff19168380011785556139da565b828001600101855582156139da579182015b828111156139da5782518255916020019190600101906139bf565b506134f29291505b808211156134f257600081556001016139e2565b600080600060608486031215613a0b57600080fd5b505081359360208301359350604090920135919050565b60005b83811015613a3d578181015183820152602001613a25565b838111156125565750506000910152565b6020815260008251806020840152613a6d816040850160208701613a22565b601f01601f19169190910160400192915050565b6001600160a01b038116811461207d57600080fd5b60008060408385031215613aa957600080fd5b8235613ab481613a81565b946020939093013593505050565b6001600160a01b0391909116815260200190565b600060208284031215613ae857600080fd5b5035919050565b6020808252825182820181905260009190848201906040850190845b81811015613b305783516001600160a01b031683529284019291840191600101613b0b565b50909695505050505050565b600060208284031215613b4e57600080fd5b8135610ea981613a81565b600080600060608486031215613b6e57600080fd5b8335613b7981613a81565b92506020840135613b8981613a81565b929592945050506040919091013590565b60ff8116811461207d57600080fd5b600080600080600060a08688031215613bc157600080fd5b85359450602086013593506040860135613bda81613b9a565b94979396509394606081013594506080013592915050565b60008060408385031215613c0557600080fd5b8235613c1081613a81565b91506020830135613c2081613a81565b809150509250929050565b634e487b7160e01b600052604160045260246000fd5b604051601f8201601f1916810167ffffffffffffffff81118282101715613c6a57613c6a613c2b565b604052919050565b600082601f830112613c8357600080fd5b813567ffffffffffffffff811115613c9d57613c9d613c2b565b613cb0601f8201601f1916602001613c41565b818152846020838601011115613cc557600080fd5b816020850160208301376000918101602001919091529392505050565b60008060008060808587031215613cf857600080fd5b843567ffffffffffffffff80821115613d1057600080fd5b613d1c88838901613c72565b95506020870135915080821115613d3257600080fd5b50613d3f87828801613c72565b9350506040850135613d5081613a81565b91506060850135613d6081613a81565b939692955090935050565b600080600080600080600060e0888a031215613d8657600080fd5b8735613d9181613a81565b96506020880135613da181613a81565b955060408801359450606088013593506080880135613dbf81613b9a565b9699959850939692959460a0840135945060c09093013592915050565b80518015158114613dec57600080fd5b919050565b60008060008060008060008060006101208a8c031215613e1057600080fd5b613e198a613ddc565b985060208a0151975060408a0151965060608a0151955060808a0151945060a08a0151935060c08a0151925060e08a015191506101008a015190509295985092959850929598565b600060208284031215613e7357600080fd5b8151610ea981613a81565b60008060408385031215613e9157600080fd5b505080516020909101519092909150565b634e487b7160e01b600052601160045260246000fd5b60008219821115613ecb57613ecb613ea2565b500190565b600082821015613ee257613ee2613ea2565b500390565b600181811c90821680613efb57607f821691505b60208210811415613f1c57634e487b7160e01b600052602260045260246000fd5b50919050565b6020808252600c908201526b3737ba16b3b7bb32b93737b960a11b604082015260600190565b60006020808385031215613f5b57600080fd5b825167ffffffffffffffff80821115613f7357600080fd5b818501915085601f830112613f8757600080fd5b815181811115613f9957613f99613c2b565b8060051b9150613faa848301613c41565b8181529183018401918481019088841115613fc457600080fd5b938501935b83851015613fee5784519250613fde83613a81565b8282529385019390850190613fc9565b98975050505050505050565b6020808252600c908201526b3737ba16b096b5b2b2b832b960a11b604082015260600190565b60006020828403121561403257600080fd5b5051919050565b6020808252601f908201527f5265656e7472616e637947756172643a207265656e7472616e742063616c6c00604082015260600190565b60208082526008908201526739b43aba3237bbb760c11b604082015260600190565b6020808252600690820152651c185d5cd95960d21b604082015260600190565b6020808252602e908201527f496e697469616c697a61626c653a20636f6e747261637420697320616c72656160408201526d191e481a5b9a5d1a585b1a5e995960921b606082015260800190565b60006020828403121561411257600080fd5b8151610ea981613b9a565b600181815b8085111561415857816000190482111561413e5761413e613ea2565b8085161561414b57918102915b93841c9390800290614122565b509250929050565b60008261416f57506001610b4f565b8161417c57506000610b4f565b8160018114614192576002811461419c576141b8565b6001915050610b4f565b60ff8411156141ad576141ad613ea2565b50506001821b610b4f565b5060208310610133831016604e8410600b84101617156141db575081810a610b4f565b6141e5838361411d565b80600019048211156141f9576141f9613ea2565b029392505050565b6000610ea960ff841683614160565b600081600019048311821515161561422a5761422a613ea2565b500290565b60008261424c57634e487b7160e01b600052601260045260246000fd5b500490565b6001600160a01b03929092168252602082015260400190565b60006020828403121561427c57600080fd5b610ea982613ddc565b634e487b7160e01b600052603260045260246000fd5b634e487b7160e01b600052603160045260246000fd5b60006000198214156142c5576142c5613ea2565b5060010190565b600082516142de818460208701613a22565b919091019291505056feddf252ad1be2c89b69c2b068fc378daa952ba7f163c4a11628f55a4df523b3efa2646970667358221220abf1e07fafbaa608304f172200235d161aa1ebbaa8b9d8c1ba464cd12f8d9be264736f6c63430008090033",
  "devdoc": {
    "kind": "dev",
    "methods": {
      "DOMAIN_SEPARATOR()": {
        "details": "See {IERC20Permit-DOMAIN_SEPARATOR}."
      },
      "acceptGovernorship()": {
        "details": "Allows new governor to accept governorship of the contract."
      },
      "addKeeper(address)": {
        "params": {
          "keeperAddress_": "keeper address to add."
        }
      },
      "addMaintainer(address)": {
        "params": {
          "maintainerAddress_": "maintainer address to add."
        }
      },
      "allowance(address,address)": {
        "details": "See {IERC20-allowance}."
      },
      "approve(address,uint256)": {
        "details": "See {IERC20-approve}. Requirements: - `spender` cannot be the zero address."
      },
      "availableCreditLimit(address)": {
        "details": "Available credit limit is calculated based on current debt of pool and strategy, current debt limit of pool and strategy. credit available = min(pool's debt limit, strategy's debt limit, max debt per rebalance) when some strategy do not pay back outstanding debt, this impact credit line of other strategy if totalDebt of pool >= debtLimit of pool",
        "params": {
          "strategy_": "Strategy address"
        }
      },
      "balanceOf(address)": {
        "details": "Returns the amount of tokens owned by `account`."
      },
      "calculateMintage(uint256)": {
        "details": "Amount should be >= minimum deposit limit which default to 1",
        "params": {
          "amount_": "Collateral amount"
        },
        "returns": {
          "_shares": "Amount of share that user will get"
        }
      },
      "calculateUniversalFee(uint256)": {
        "details": "Earn strategies will call this during rebalance."
      },
      "decimals()": {
        "details": "Returns the decimals of the token. default to 18"
      },
      "deposit(uint256)": {
        "params": {
          "amount_": "ERC20 token amount."
        }
      },
      "depositAndClaim(uint256)": {
        "params": {
          "amount_": "ERC20 token amount."
        }
      },
      "depositWithPermit(uint256,uint256,uint8,bytes32,bytes32)": {
        "params": {
          "amount_": "ERC20 token amount.",
          "deadline_": "The time at which signature will expire",
          "r_": "Half of the ECDSA signature pair",
          "s_": "Half of the ECDSA signature pair",
          "v_": "The recovery byte of the signature"
        }
      },
      "excessDebt(address)": {
        "params": {
          "strategy_": "Address of strategy"
        }
      },
      "initialize(string,string,address,address)": {
        "details": "Equivalent to constructor for proxy. It can be called only once per proxy."
      },
      "migrateStrategy(address,address)": {
        "details": "Migrating strategy aka old and new strategy should be of same type.",
        "params": {
          "new_": "Address of new strategy",
          "old_": "Address of strategy being migrated"
        }
      },
      "name()": {
        "details": "Returns the name of the token."
      },
      "permit(address,address,uint256,uint256,uint8,bytes32,bytes32)": {
        "details": "See {IERC20Permit-permit}."
      },
      "pricePerShare()": {
        "details": "Return value will be in token defined decimals."
      },
      "removeKeeper(address)": {
        "params": {
          "keeperAddress_": "keeper address to remove."
        }
      },
      "removeMaintainer(address)": {
        "params": {
          "maintainerAddress_": "maintainer address to remove."
        }
      },
      "reportEarning(uint256,uint256,uint256)": {
        "params": {
          "loss_": "Reduce debt ,also reduce debtRatio, increase loss in record.",
          "payback_": "strategy willing to payback outstanding above debtLimit. no performance fee on this amount.  when governance has reduced debtRatio of strategy, strategy will report profit and payback amount separately.",
          "profit_": "yield generated by strategy. Strategy get performance fee on this amount"
        }
      },
      "reportLoss(uint256)": {
        "details": "Some strategies pay deposit fee thus realizing loss at deposit. For example: Curve's 3pool has some slippage due to deposit of one asset in 3pool. Strategy may want report this loss instead of waiting for next rebalance.",
        "params": {
          "loss_": "Loss that strategy want to report"
        }
      },
      "sweepERC20(address)": {
        "details": "Transfer given ERC20 token to governor",
        "params": {
          "fromToken_": "Token address to sweep"
        }
      },
      "symbol()": {
        "details": "Returns the symbol of the token, usually a shorter version of the name."
      },
      "tokensHere()": {
        "details": "Returns the token stored in the pool. It will be in token defined decimals."
      },
      "totalDebtOf(address)": {
        "params": {
          "strategy_": "Strategy address"
        }
      },
      "totalSupply()": {
        "details": "Returns total supply of the token."
      },
      "transfer(address,uint256)": {
        "details": "See {IERC20-transfer}. Requirements: - `recipient` cannot be the zero address. - the caller must have a balance of at least `amount`."
      },
      "transferFrom(address,address,uint256)": {
        "details": "See {IERC20-transferFrom}. Emits an {Approval} event indicating the updated allowance. This is not required by the EIP. See the note at the beginning of {ERC20}. Requirements: - `sender` and `recipient` cannot be the zero address. - `sender` must have a balance of at least `amount`. - the caller must have allowance for ``sender``'s tokens of at least `amount`."
      },
      "transferGovernorship(address)": {
        "details": "Transfers governorship of the contract to a new account (`proposedGovernor`). Can only be called by the current owner."
      },
      "updateMaximumProfitAsFee(uint256)": {
        "params": {
          "newMaxProfitAsFee_": "New max profit as fee"
        }
      },
      "updateMinimumDepositLimit(uint256)": {
        "params": {
          "newLimit_": "New minimum deposit limit"
        }
      },
      "updatePoolRewards(address)": {
        "params": {
          "newPoolRewards_": "new pool rewards address"
        }
      },
      "updateUniversalFee(uint256)": {
        "details": "Format: 1500 = 15% fee, 100 = 1%",
        "params": {
          "newUniversalFee_": "new universal fee"
        }
      },
      "withdraw(uint256)": {
        "params": {
          "shares_": "Pool shares. It will be in 18 decimals."
        }
      },
      "withdrawAndClaim(uint256)": {
        "params": {
          "shares_": "Pool shares. It will be in 18 decimals."
        }
      }
    },
    "title": "Holding pool share token",
    "version": 1
  },
  "userdoc": {
    "kind": "user",
    "methods": {
      "addKeeper(address)": {
        "notice": "Add given address in keepers list."
      },
      "addMaintainer(address)": {
        "notice": "Add given address in maintainers list."
      },
      "availableCreditLimit(address)": {
        "notice": "Get available credit limit of strategy. This is the amount strategy can borrow from pool"
      },
      "calculateMintage(uint256)": {
        "notice": "Calculate how much shares user will get for given amount. Also return externalDepositFee if any."
      },
      "calculateUniversalFee(uint256)": {
        "notice": "Calculate universal fee for calling strategy. This is only strategy function."
      },
      "deposit(uint256)": {
        "notice": "Deposit ERC20 tokens and receive pool shares depending on the current share price."
      },
      "depositAndClaim(uint256)": {
        "notice": "Deposit ERC20 tokens and claim rewards if any"
      },
      "depositWithPermit(uint256,uint256,uint8,bytes32,bytes32)": {
        "notice": "Deposit ERC20 tokens with permit aka gasless approval."
      },
      "excessDebt(address)": {
        "notice": "Debt above current debt limit"
      },
      "keepers()": {
        "notice": "Return list of keepers"
      },
      "maintainers()": {
        "notice": "Return list of maintainers"
      },
      "maxProfitAsFee()": {
        "notice": "Maximum percentage of profit that can be counted as universal fee. Default to 50%"
      },
      "migrateStrategy(address,address)": {
        "notice": "Migrate existing strategy to new strategy."
      },
      "minDepositLimit()": {
        "notice": "Minimum deposit limit."
      },
      "poolAccountant()": {
        "notice": "PoolAccountant address"
      },
      "poolRewards()": {
        "notice": "PoolRewards contract address"
      },
      "pricePerShare()": {
        "notice": "Get price per share"
      },
      "removeKeeper(address)": {
        "notice": "Remove given address from keepers list."
      },
      "removeMaintainer(address)": {
        "notice": "Remove given address from maintainers list."
      },
      "reportEarning(uint256,uint256,uint256)": {
        "notice": "Strategy call this in regular interval. Only strategy function."
      },
      "reportLoss(uint256)": {
        "notice": "Report loss outside of rebalance activity."
      },
      "token()": {
        "notice": "Collateral token address"
      },
      "totalDebt()": {
        "notice": "Get total debt of pool"
      },
      "totalDebtOf(address)": {
        "notice": "Get total debt of given strategy"
      },
      "totalDebtRatio()": {
        "notice": "Get total debt ratio. Total debt ratio helps us keep buffer in pool"
      },
      "totalValue()": {
        "notice": "Returns sum of token locked in other contracts and token stored in the pool. It will be in token defined decimals."
      },
      "universalFee()": {
        "notice": "Universal fee of this pool. Default to 2%"
      },
      "updateMaximumProfitAsFee(uint256)": {
        "notice": "Only Governor:: Update maximum profit that can be used as universal fee"
      },
      "updateMinimumDepositLimit(uint256)": {
        "notice": "Only Governor:: Update minimum deposit limit"
      },
      "updatePoolRewards(address)": {
        "notice": "Update pool rewards address for this pool"
      },
      "updateUniversalFee(uint256)": {
        "notice": "Update universal fee for this pool"
      },
      "withdraw(uint256)": {
        "notice": "Withdraw collateral based on given shares and the current share price. Burn remaining shares and return collateral."
      },
      "withdrawAndClaim(uint256)": {
        "notice": "Withdraw collateral and claim rewards if any"
      }
    },
    "version": 1
  },
  "storageLayout": {
    "storage": [
      {
        "astId": 5095,
        "contract": "vesper-pools/contracts/pool/VPool.sol:VPool",
        "label": "_balances",
        "offset": 0,
        "slot": "0",
        "type": "t_mapping(t_address,t_uint256)"
      },
      {
        "astId": 5101,
        "contract": "vesper-pools/contracts/pool/VPool.sol:VPool",
        "label": "_allowances",
        "offset": 0,
        "slot": "1",
        "type": "t_mapping(t_address,t_mapping(t_address,t_uint256))"
      },
      {
        "astId": 5103,
        "contract": "vesper-pools/contracts/pool/VPool.sol:VPool",
        "label": "_totalSupply",
        "offset": 0,
        "slot": "2",
        "type": "t_uint256"
      },
      {
        "astId": 5105,
        "contract": "vesper-pools/contracts/pool/VPool.sol:VPool",
        "label": "_name",
        "offset": 0,
        "slot": "3",
        "type": "t_string_storage"
      },
      {
        "astId": 5107,
        "contract": "vesper-pools/contracts/pool/VPool.sol:VPool",
        "label": "_symbol",
        "offset": 0,
        "slot": "4",
        "type": "t_string_storage"
      },
      {
        "astId": 1360,
        "contract": "vesper-pools/contracts/pool/VPool.sol:VPool",
        "label": "_initialized",
        "offset": 0,
        "slot": "5",
        "type": "t_bool"
      },
      {
        "astId": 1363,
        "contract": "vesper-pools/contracts/pool/VPool.sol:VPool",
        "label": "_initializing",
        "offset": 1,
        "slot": "5",
        "type": "t_bool"
      },
      {
        "astId": 5568,
        "contract": "vesper-pools/contracts/pool/VPool.sol:VPool",
        "label": "_CACHED_DOMAIN_SEPARATOR",
        "offset": 0,
        "slot": "6",
        "type": "t_bytes32"
      },
      {
        "astId": 5570,
        "contract": "vesper-pools/contracts/pool/VPool.sol:VPool",
        "label": "_HASHED_NAME",
        "offset": 0,
        "slot": "7",
        "type": "t_bytes32"
      },
      {
        "astId": 5572,
        "contract": "vesper-pools/contracts/pool/VPool.sol:VPool",
        "label": "_CACHED_CHAIN_ID",
        "offset": 0,
        "slot": "8",
        "type": "t_uint256"
      },
      {
        "astId": 5578,
        "contract": "vesper-pools/contracts/pool/VPool.sol:VPool",
        "label": "nonces",
        "offset": 0,
        "slot": "9",
        "type": "t_mapping(t_address,t_uint256)"
      },
      {
        "astId": 214,
        "contract": "vesper-pools/contracts/pool/VPool.sol:VPool",
        "label": "governor",
        "offset": 0,
        "slot": "10",
        "type": "t_address"
      },
      {
        "astId": 216,
        "contract": "vesper-pools/contracts/pool/VPool.sol:VPool",
        "label": "proposedGovernor",
        "offset": 0,
        "slot": "11",
        "type": "t_address"
      },
      {
        "astId": 361,
        "contract": "vesper-pools/contracts/pool/VPool.sol:VPool",
        "label": "paused",
        "offset": 20,
        "slot": "11",
        "type": "t_bool"
      },
      {
        "astId": 363,
        "contract": "vesper-pools/contracts/pool/VPool.sol:VPool",
        "label": "stopEverything",
        "offset": 21,
        "slot": "11",
        "type": "t_bool"
      },
      {
        "astId": 1411,
        "contract": "vesper-pools/contracts/pool/VPool.sol:VPool",
        "label": "_status",
        "offset": 0,
        "slot": "12",
        "type": "t_uint256"
      },
      {
        "astId": 6765,
        "contract": "vesper-pools/contracts/pool/VPool.sol:VPool",
        "label": "token",
        "offset": 0,
        "slot": "13",
        "type": "t_contract(IERC20)1518"
      },
      {
        "astId": 6768,
        "contract": "vesper-pools/contracts/pool/VPool.sol:VPool",
        "label": "poolAccountant",
        "offset": 0,
        "slot": "14",
        "type": "t_address"
      },
      {
        "astId": 6771,
        "contract": "vesper-pools/contracts/pool/VPool.sol:VPool",
        "label": "poolRewards",
        "offset": 0,
        "slot": "15",
        "type": "t_address"
      },
      {
        "astId": 6773,
        "contract": "vesper-pools/contracts/pool/VPool.sol:VPool",
        "label": "feeWhitelistObsolete",
        "offset": 0,
        "slot": "16",
        "type": "t_address"
      },
      {
        "astId": 6775,
        "contract": "vesper-pools/contracts/pool/VPool.sol:VPool",
        "label": "keepersObsolete",
        "offset": 0,
        "slot": "17",
        "type": "t_address"
      },
      {
        "astId": 6777,
        "contract": "vesper-pools/contracts/pool/VPool.sol:VPool",
        "label": "maintainersObsolete",
        "offset": 0,
        "slot": "18",
        "type": "t_address"
      },
      {
        "astId": 6779,
        "contract": "vesper-pools/contracts/pool/VPool.sol:VPool",
        "label": "feeCollectorObsolete",
        "offset": 0,
        "slot": "19",
        "type": "t_address"
      },
      {
        "astId": 6781,
        "contract": "vesper-pools/contracts/pool/VPool.sol:VPool",
        "label": "withdrawFeeObsolete",
        "offset": 0,
        "slot": "20",
        "type": "t_uint256"
      },
      {
        "astId": 6783,
        "contract": "vesper-pools/contracts/pool/VPool.sol:VPool",
        "label": "decimalConversionFactorObsolete",
        "offset": 0,
        "slot": "21",
        "type": "t_uint256"
      },
      {
        "astId": 6785,
        "contract": "vesper-pools/contracts/pool/VPool.sol:VPool",
        "label": "withdrawInETH",
        "offset": 0,
        "slot": "22",
        "type": "t_bool"
      },
      {
        "astId": 6791,
        "contract": "vesper-pools/contracts/pool/VPool.sol:VPool",
        "label": "_feeWhitelistObsolete",
        "offset": 0,
        "slot": "23",
        "type": "t_struct(AddressSet)3024_storage"
      },
      {
        "astId": 6794,
        "contract": "vesper-pools/contracts/pool/VPool.sol:VPool",
        "label": "_keepers",
        "offset": 0,
        "slot": "25",
        "type": "t_struct(AddressSet)3024_storage"
      },
      {
        "astId": 6797,
        "contract": "vesper-pools/contracts/pool/VPool.sol:VPool",
        "label": "_maintainers",
        "offset": 0,
        "slot": "27",
        "type": "t_struct(AddressSet)3024_storage"
      },
      {
        "astId": 6804,
        "contract": "vesper-pools/contracts/pool/VPool.sol:VPool",
        "label": "universalFee",
        "offset": 0,
        "slot": "29",
        "type": "t_uint256"
      },
      {
        "astId": 6808,
        "contract": "vesper-pools/contracts/pool/VPool.sol:VPool",
        "label": "maxProfitAsFee",
        "offset": 0,
        "slot": "30",
        "type": "t_uint256"
      },
      {
        "astId": 6812,
        "contract": "vesper-pools/contracts/pool/VPool.sol:VPool",
        "label": "minDepositLimit",
        "offset": 0,
        "slot": "31",
        "type": "t_uint256"
      }
    ],
    "types": {
      "t_address": {
        "encoding": "inplace",
        "label": "address",
        "numberOfBytes": "20"
      },
      "t_array(t_bytes32)dyn_storage": {
        "base": "t_bytes32",
        "encoding": "dynamic_array",
        "label": "bytes32[]",
        "numberOfBytes": "32"
      },
      "t_bool": {
        "encoding": "inplace",
        "label": "bool",
        "numberOfBytes": "1"
      },
      "t_bytes32": {
        "encoding": "inplace",
        "label": "bytes32",
        "numberOfBytes": "32"
      },
      "t_contract(IERC20)1518": {
        "encoding": "inplace",
        "label": "contract IERC20",
        "numberOfBytes": "20"
      },
      "t_mapping(t_address,t_mapping(t_address,t_uint256))": {
        "encoding": "mapping",
        "key": "t_address",
        "label": "mapping(address => mapping(address => uint256))",
        "numberOfBytes": "32",
        "value": "t_mapping(t_address,t_uint256)"
      },
      "t_mapping(t_address,t_uint256)": {
        "encoding": "mapping",
        "key": "t_address",
        "label": "mapping(address => uint256)",
        "numberOfBytes": "32",
        "value": "t_uint256"
      },
      "t_mapping(t_bytes32,t_uint256)": {
        "encoding": "mapping",
        "key": "t_bytes32",
        "label": "mapping(bytes32 => uint256)",
        "numberOfBytes": "32",
        "value": "t_uint256"
      },
      "t_string_storage": {
        "encoding": "bytes",
        "label": "string",
        "numberOfBytes": "32"
      },
      "t_struct(AddressSet)3024_storage": {
        "encoding": "inplace",
        "label": "struct EnumerableSet.AddressSet",
        "members": [
          {
            "astId": 3023,
            "contract": "vesper-pools/contracts/pool/VPool.sol:VPool",
            "label": "_inner",
            "offset": 0,
            "slot": "0",
            "type": "t_struct(Set)2723_storage"
          }
        ],
        "numberOfBytes": "64"
      },
      "t_struct(Set)2723_storage": {
        "encoding": "inplace",
        "label": "struct EnumerableSet.Set",
        "members": [
          {
            "astId": 2718,
            "contract": "vesper-pools/contracts/pool/VPool.sol:VPool",
            "label": "_values",
            "offset": 0,
            "slot": "0",
            "type": "t_array(t_bytes32)dyn_storage"
          },
          {
            "astId": 2722,
            "contract": "vesper-pools/contracts/pool/VPool.sol:VPool",
            "label": "_indexes",
            "offset": 0,
            "slot": "1",
            "type": "t_mapping(t_bytes32,t_uint256)"
          }
        ],
        "numberOfBytes": "64"
      },
      "t_uint256": {
        "encoding": "inplace",
        "label": "uint256",
        "numberOfBytes": "32"
      }
    }
  }
}