{
  "address": "0x5cd23c6fCC61fa33Fc36ABCf696129A85a99DB31",
  "abi": [
    {
      "inputs": [
        {
          "internalType": "address",
          "name": "_pool",
          "type": "address"
        },
        {
          "internalType": "address",
          "name": "_swapper",
          "type": "address"
        },
        {
          "internalType": "address",
          "name": "_receiptToken",
          "type": "address"
        },
        {
          "internalType": "address",
          "name": "_borrowToken",
          "type": "address"
        },
        {
          "internalType": "address",
          "name": "_aaveAddressProvider",
          "type": "address"
        },
        {
          "internalType": "address",
          "name": "_vPool",
          "type": "address"
        },
        {
          "internalType": "string",
          "name": "_name",
          "type": "string"
        }
      ],
      "stateMutability": "nonpayable",
      "type": "constructor"
    },
    {
      "anonymous": false,
      "inputs": [
        {
          "indexed": false,
          "internalType": "uint256",
          "name": "previousMinBorrowLimit",
          "type": "uint256"
        },
        {
          "indexed": false,
          "internalType": "uint256",
          "name": "newMinBorrowLimit",
          "type": "uint256"
        },
        {
          "indexed": false,
          "internalType": "uint256",
          "name": "previousMaxBorrowLimit",
          "type": "uint256"
        },
        {
          "indexed": false,
          "internalType": "uint256",
          "name": "newMaxBorrowLimit",
          "type": "uint256"
        }
      ],
      "name": "UpdatedBorrowLimit",
      "type": "event"
    },
    {
      "anonymous": false,
      "inputs": [
        {
          "indexed": true,
          "internalType": "address",
          "name": "previousFeeCollector",
          "type": "address"
        },
        {
          "indexed": true,
          "internalType": "address",
          "name": "newFeeCollector",
          "type": "address"
        }
      ],
      "name": "UpdatedFeeCollector",
      "type": "event"
    },
    {
      "anonymous": false,
      "inputs": [
        {
          "indexed": true,
          "internalType": "contract IRoutedSwapper",
          "name": "oldSwapper",
          "type": "address"
        },
        {
          "indexed": true,
          "internalType": "contract IRoutedSwapper",
          "name": "newSwapper",
          "type": "address"
        }
      ],
      "name": "UpdatedSwapper",
      "type": "event"
    },
    {
      "inputs": [],
      "name": "NAME",
      "outputs": [
        {
          "internalType": "string",
          "name": "",
          "type": "string"
        }
      ],
      "stateMutability": "view",
      "type": "function"
    },
    {
      "inputs": [],
      "name": "VERSION",
      "outputs": [
        {
          "internalType": "string",
          "name": "",
          "type": "string"
        }
      ],
      "stateMutability": "view",
      "type": "function"
    },
    {
      "inputs": [],
      "name": "aaveAddressProvider",
      "outputs": [
        {
          "internalType": "contract PoolAddressesProvider",
          "name": "",
          "type": "address"
        }
      ],
      "stateMutability": "view",
      "type": "function"
    },
    {
      "inputs": [
        {
          "internalType": "address",
          "name": "_keeperAddress",
          "type": "address"
        }
      ],
      "name": "addKeeper",
      "outputs": [],
      "stateMutability": "nonpayable",
      "type": "function"
    },
    {
      "inputs": [
        {
          "internalType": "uint256",
          "name": "_approvalAmount",
          "type": "uint256"
        }
      ],
      "name": "approveToken",
      "outputs": [],
      "stateMutability": "nonpayable",
      "type": "function"
    },
    {
      "inputs": [],
      "name": "borrowToken",
      "outputs": [
        {
          "internalType": "address",
          "name": "",
          "type": "address"
        }
      ],
      "stateMutability": "view",
      "type": "function"
    },
    {
      "inputs": [
        {
          "internalType": "uint256",
          "name": "_minAmountOut",
          "type": "uint256"
        }
      ],
      "name": "claimAndSwapRewards",
      "outputs": [
        {
          "internalType": "uint256",
          "name": "_amountOut",
          "type": "uint256"
        }
      ],
      "stateMutability": "nonpayable",
      "type": "function"
    },
    {
      "inputs": [],
      "name": "collateral",
      "outputs": [
        {
          "internalType": "address",
          "name": "",
          "type": "address"
        }
      ],
      "stateMutability": "view",
      "type": "function"
    },
    {
      "inputs": [],
      "name": "collateralToken",
      "outputs": [
        {
          "internalType": "contract IERC20",
          "name": "",
          "type": "address"
        }
      ],
      "stateMutability": "view",
      "type": "function"
    },
    {
      "inputs": [],
      "name": "feeCollector",
      "outputs": [
        {
          "internalType": "address",
          "name": "",
          "type": "address"
        }
      ],
      "stateMutability": "view",
      "type": "function"
    },
    {
      "inputs": [
        {
          "internalType": "address",
          "name": "_token",
          "type": "address"
        }
      ],
      "name": "isReservedToken",
      "outputs": [
        {
          "internalType": "bool",
          "name": "",
          "type": "bool"
        }
      ],
      "stateMutability": "view",
      "type": "function"
    },
    {
      "inputs": [],
      "name": "keepers",
      "outputs": [
        {
          "internalType": "address[]",
          "name": "",
          "type": "address[]"
        }
      ],
      "stateMutability": "view",
      "type": "function"
    },
    {
      "inputs": [],
      "name": "maxBorrowLimit",
      "outputs": [
        {
          "internalType": "uint256",
          "name": "",
          "type": "uint256"
        }
      ],
      "stateMutability": "view",
      "type": "function"
    },
    {
      "inputs": [
        {
          "internalType": "address",
          "name": "_newStrategy",
          "type": "address"
        }
      ],
      "name": "migrate",
      "outputs": [],
      "stateMutability": "nonpayable",
      "type": "function"
    },
    {
      "inputs": [],
      "name": "minBorrowLimit",
      "outputs": [
        {
          "internalType": "uint256",
          "name": "",
          "type": "uint256"
        }
      ],
      "stateMutability": "view",
      "type": "function"
    },
    {
      "inputs": [],
      "name": "pool",
      "outputs": [
        {
          "internalType": "address",
          "name": "",
          "type": "address"
        }
      ],
      "stateMutability": "view",
      "type": "function"
    },
    {
      "inputs": [],
      "name": "rebalance",
      "outputs": [
        {
          "internalType": "uint256",
          "name": "_profit",
          "type": "uint256"
        },
        {
          "internalType": "uint256",
          "name": "_loss",
          "type": "uint256"
        },
        {
          "internalType": "uint256",
          "name": "_payback",
          "type": "uint256"
        }
      ],
      "stateMutability": "nonpayable",
      "type": "function"
    },
    {
      "inputs": [],
      "name": "receiptToken",
      "outputs": [
        {
          "internalType": "address",
          "name": "",
          "type": "address"
        }
      ],
      "stateMutability": "view",
      "type": "function"
    },
    {
      "inputs": [
        {
          "internalType": "address",
          "name": "_keeperAddress",
          "type": "address"
        }
      ],
      "name": "removeKeeper",
      "outputs": [],
      "stateMutability": "nonpayable",
      "type": "function"
    },
    {
      "inputs": [],
      "name": "rewardToken",
      "outputs": [
        {
          "internalType": "address",
          "name": "",
          "type": "address"
        }
      ],
      "stateMutability": "view",
      "type": "function"
    },
    {
      "inputs": [
        {
          "internalType": "contract IERC20",
          "name": "_tokenIn",
          "type": "address"
        },
        {
          "internalType": "uint256",
          "name": "_minAmountOut",
          "type": "uint256"
        }
      ],
      "name": "swapToCollateral",
      "outputs": [
        {
          "internalType": "uint256",
          "name": "_amountOut",
          "type": "uint256"
        }
      ],
      "stateMutability": "nonpayable",
      "type": "function"
    },
    {
      "inputs": [],
      "name": "swapper",
      "outputs": [
        {
          "internalType": "contract IRoutedSwapper",
          "name": "",
          "type": "address"
        }
      ],
      "stateMutability": "view",
      "type": "function"
    },
    {
      "inputs": [
        {
          "internalType": "address",
          "name": "_fromToken",
          "type": "address"
        }
      ],
      "name": "sweep",
      "outputs": [],
      "stateMutability": "nonpayable",
      "type": "function"
    },
    {
      "inputs": [],
      "name": "token",
      "outputs": [
        {
          "internalType": "address",
          "name": "",
          "type": "address"
        }
      ],
      "stateMutability": "view",
      "type": "function"
    },
    {
      "inputs": [],
      "name": "tvl",
      "outputs": [
        {
          "internalType": "uint256",
          "name": "",
          "type": "uint256"
        }
      ],
      "stateMutability": "view",
      "type": "function"
    },
    {
      "inputs": [
        {
          "internalType": "uint256",
          "name": "_minBorrowLimit",
          "type": "uint256"
        },
        {
          "internalType": "uint256",
          "name": "_maxBorrowLimit",
          "type": "uint256"
        }
      ],
      "name": "updateBorrowLimit",
      "outputs": [],
      "stateMutability": "nonpayable",
      "type": "function"
    },
    {
      "inputs": [
        {
          "internalType": "address",
          "name": "_feeCollector",
          "type": "address"
        }
      ],
      "name": "updateFeeCollector",
      "outputs": [],
      "stateMutability": "nonpayable",
      "type": "function"
    },
    {
      "inputs": [
        {
          "internalType": "contract IRoutedSwapper",
          "name": "_swapper",
          "type": "address"
        }
      ],
      "name": "updateSwapper",
      "outputs": [],
      "stateMutability": "nonpayable",
      "type": "function"
    },
    {
      "inputs": [],
      "name": "vPool",
      "outputs": [
        {
          "internalType": "contract IVesperPool",
          "name": "",
          "type": "address"
        }
      ],
      "stateMutability": "view",
      "type": "function"
    },
    {
      "inputs": [],
      "name": "vdToken",
      "outputs": [
        {
          "internalType": "contract AToken",
          "name": "",
          "type": "address"
        }
      ],
      "stateMutability": "view",
      "type": "function"
    },
    {
      "inputs": [
        {
          "internalType": "uint256",
          "name": "_amount",
          "type": "uint256"
        }
      ],
      "name": "withdraw",
      "outputs": [],
      "stateMutability": "nonpayable",
      "type": "function"
    }
  ],
  "transactionHash": "0xb167b847426ceb5a4c6fa7cabd679aac089e855bc37d087c2f084bf62ecf4886",
  "args": [
    "0xCcF3d1AcF799bAe67F6e354d685295557cf64761",
    "0xDAf982c67712780D54C298A91D86788165B701A4",
    "0xe50fA9b3c56FfB159cB0FCA61F5c9D750e8128c8",
    "0x7F5c764cBc14f9669B88837ca1490cCa17c31607",
    "0xa97684ead0e402dC232d5A977953DF7ECBaB3CDb",
    "0x539505Dde2B9771dEBE0898a84441c5E7fDF6BC0",
    "AaveV3_Vesper_Xy_ETH_USDC"
  ],
  "numDeployments": 1,
  "solcInputHash": "3b00eedabf43c9ebbe9c3e29c0d887db",
  "bytecode": "0x610100604052611b586006556121346007553480156200001e57600080fd5b5060405162006016380380620060168339810160408190526200004191620008bd565b8686868686858585856001600160a01b038316620000a65760405162461bcd60e51b815260206004820152601460248201527f706f6f6c2d616464726573732d69732d7a65726f00000000000000000000000060448201526064015b60405180910390fd5b6001600160a01b038216620000fe5760405162461bcd60e51b815260206004820152601760248201527f737761707065722d616464726573732d69732d7a65726f00000000000000000060448201526064016200009d565b600280546001600160a01b0319166001600160a01b0384811691909117909155831660a081905260408051637e062a3560e11b8152905163fc0c546a91600480820192602092909190829003018186803b1580156200015c57600080fd5b505afa15801562000171573d6000803e3d6000fd5b505050506040513d601f19601f8201168201806040525081019062000197919062000a00565b6001600160a01b03908116608052600080546001600160a01b031916918316919091179055620001de620001c83390565b60036200074360201b62001ac81790919060201c565b620002205760405162461bcd60e51b81526020600482015260116024820152701859190b5ad9595c195c8b59985a5b1959607a1b60448201526064016200009d565b505081516200023891506005906020840190620007b5565b506001600160a01b038216620002915760405162461bcd60e51b815260206004820152601760248201527f6164647265737350726f76696465722d69732d7a65726f00000000000000000060448201526064016200009d565b856001600160a01b031663fc0c546a6040518163ffffffff1660e01b815260040160206040518083038186803b158015620002cb57600080fd5b505afa158015620002e0573d6000803e3d6000fd5b505050506040513d601f19601f8201168201806040525081019062000306919062000a00565b6001600160a01b0316846001600160a01b031663b16a19de6040518163ffffffff1660e01b815260040160206040518083038186803b1580156200034957600080fd5b505afa1580156200035e573d6000803e3d6000fd5b505050506040513d601f19601f8201168201806040525081019062000384919062000a00565b6001600160a01b031614620003dc5760405162461bcd60e51b815260206004820152601560248201527f696e76616c69642d726563656970742d746f6b656e000000000000000000000060448201526064016200009d565b600080836001600160a01b031663e860accb6040518163ffffffff1660e01b815260040160206040518083038186803b1580156200041957600080fd5b505afa1580156200042e573d6000803e3d6000fd5b505050506040513d601f19601f8201168201806040525081019062000454919062000a00565b6040516334924edb60e21b81526001600160a01b038781166004830152919091169063d2493b6c9060240160606040518083038186803b1580156200049857600080fd5b505afa158015620004ad573d6000803e3d6000fd5b505050506040513d601f19601f82011682018060405250810190620004d3919062000a27565b600980546001600160a01b03199081166001600160a01b0393841617909155600880548216998316998a179055600a8054909116938216939093179092555093841660c052505060408051637e062a3560e11b81529051939650918816945063fc0c546a935050600480820192602092909190829003018186803b1580156200055b57600080fd5b505afa15801562000570573d6000803e3d6000fd5b505050506040513d601f19601f8201168201806040525081019062000596919062000a00565b6001600160a01b031614620005e25760405162461bcd60e51b81526020600482015260116024820152701a5b9d985b1a590b59dc9bddcb5c1bdbdb607a1b60448201526064016200009d565b6001600160a01b03821660e0819052604080516345e35f5960e11b8152905160009291638bc6beb2916004808301926020929190829003018186803b1580156200062b57600080fd5b505afa15801562000640573d6000803e3d6000fd5b505050506040513d601f19601f8201168201806040525081019062000666919062000a00565b90506001600160a01b038116156200073557806001600160a01b031663c4f59f9b6040518163ffffffff1660e01b815260040160006040518083038186803b158015620006b257600080fd5b505afa158015620006c7573d6000803e3d6000fd5b505050506040513d6000823e601f3d908101601f19168201604052620006f1919081019062000a7b565b60008151811062000706576200070662000b39565b6020026020010151600b60006101000a8154816001600160a01b0302191690836001600160a01b031602179055505b505050505050505062000b8c565b60006200075a836001600160a01b03841662000763565b90505b92915050565b6000818152600183016020526040812054620007ac575081546001818101845560008481526020808220909301849055845484825282860190935260409020919091556200075d565b5060006200075d565b828054620007c39062000b4f565b90600052602060002090601f016020900481019282620007e7576000855562000832565b82601f106200080257805160ff191683800117855562000832565b8280016001018555821562000832579182015b828111156200083257825182559160200191906001019062000815565b506200084092915062000844565b5090565b5b8082111562000840576000815560010162000845565b6001600160a01b03811681146200087157600080fd5b50565b634e487b7160e01b600052604160045260246000fd5b604051601f8201601f191681016001600160401b0381118282101715620008b557620008b562000874565b604052919050565b600080600080600080600060e0888a031215620008d957600080fd5b8751620008e6816200085b565b80975050602080890151620008fb816200085b565b60408a01519097506200090e816200085b565b60608a015190965062000921816200085b565b60808a015190955062000934816200085b565b60a08a015190945062000947816200085b565b60c08a01519093506001600160401b03808211156200096557600080fd5b818b0191508b601f8301126200097a57600080fd5b8151818111156200098f576200098f62000874565b620009a3601f8201601f191685016200088a565b91508082528c84828501011115620009ba57600080fd5b60005b81811015620009da578381018501518382018601528401620009bd565b81811115620009ec5760008583850101525b505080935050505092959891949750929550565b60006020828403121562000a1357600080fd5b815162000a20816200085b565b9392505050565b60008060006060848603121562000a3d57600080fd5b835162000a4a816200085b565b602085015190935062000a5d816200085b565b604085015190925062000a70816200085b565b809150509250925092565b6000602080838503121562000a8f57600080fd5b82516001600160401b038082111562000aa757600080fd5b818501915085601f83011262000abc57600080fd5b81518181111562000ad15762000ad162000874565b8060051b915062000ae48483016200088a565b818152918301840191848101908884111562000aff57600080fd5b938501935b8385101562000b2d578451925062000b1c836200085b565b828252938501939085019062000b04565b98975050505050505050565b634e487b7160e01b600052603260045260246000fd5b600181811c9082168062000b6457607f821691505b6020821081141562000b8657634e487b7160e01b600052602260045260246000fd5b50919050565b60805160a05160c05160e05161528962000d8d600039600081816102bc01528181611c93015281816120430152818161369801528181613734015281816143e0015281816146520152818161473c015261476f01526000818161037d01528181611e7e015281816121d001528181612a8b015281816132f0015281816133e901528181613d940152613f710152600081816102060152818161080a0152818161091a01528181610a3601528181610b1001528181610b9a01528181610e0701528181610ea4015281816110d001528181611299015281816119050152818161209e015281816123cc015281816125c20152614623015260008181610343015281816103da01528181610514015281816106a9015281816107510152818161097901528181610a1401528181610a8401528181610b4301528181610ca8015281816110340152818161146e015281816115a6015281816116360152818161180a0152818161184a01528181611e3e015281816122ad015281816124e40152818161263f01528181612e4801528181612eba01528181613152015281816131f401528181613389015281816133bd015281816135ad01528181613824015281816138de0152818161398d01528181613a8601528181613bb401528181613bf601528181613ec001528181614010015281816140ab015261460101526152896000f3fe608060405234801561001057600080fd5b50600436106101a55760003560e01c8063a3f4df7e116100ef578063e260d74711610092578063e260d747146103fe578063e5328e0614610407578063ec78e8321461040f578063ee330ee314610422578063f7c618c114610435578063fb7ee10214610448578063fc0c546a1461045b578063ffa1ad741461046c57600080fd5b8063a3f4df7e14610329578063b2016bd41461033e578063c415b95c14610365578063cdaabe4114610378578063ce5494bb1461039f578063d2c35ce8146103b2578063d3033c39146103c5578063d8dfeb45146103d857600080fd5b80633ac9fc11116101575780633ac9fc111461025b5780634032b72b1461026e578063440d724814610281578063456dc17a146102a45780636719578c146102b75780637d7c2a1c146102de57806390d6751414610301578063951dc22c1461031457600080fd5b806301681a62146101aa5780630181686c146101bf5780631026013a146101db57806314ae9f2e146101ee57806316f0115b146102015780632b3297f9146102355780632e1a7d4d14610248575b600080fd5b6101bd6101b8366004614984565b610490565b005b6101c860075481565b6040519081526020015b60405180910390f35b6101c86101e93660046149a1565b610668565b6101bd6101fc366004614984565b610808565b6102287f000000000000000000000000000000000000000000000000000000000000000081565b6040516101d291906149ba565b600254610228906001600160a01b031681565b6101bd6102563660046149a1565b610917565b6101bd6102693660046149a1565b610b6a565b6101bd61027c366004614984565b610b98565b61029461028f366004614984565b610ca4565b60405190151581526020016101d2565b600854610228906001600160a01b031681565b6102287f000000000000000000000000000000000000000000000000000000000000000081565b6102e6610d29565b604080519384526020840192909252908201526060016101d2565b600954610228906001600160a01b031681565b61031c610d65565b6040516101d29190614a12565b610331610d76565b6040516101d29190614a51565b6102287f000000000000000000000000000000000000000000000000000000000000000081565b600154610228906001600160a01b031681565b6102287f000000000000000000000000000000000000000000000000000000000000000081565b6101bd6103ad366004614984565b610e04565b6101bd6103c0366004614984565b6110ce565b6101bd6103d3366004614984565b611297565b7f0000000000000000000000000000000000000000000000000000000000000000610228565b6101c860065481565b6101c8611454565b600054610228906001600160a01b031681565b6101c8610430366004614a84565b61157d565b600b54610228906001600160a01b031681565b6101bd610456366004614ab0565b611903565b6000546001600160a01b0316610228565b610331604051806040016040528060058152602001640352e312e360dc1b81525081565b61049d335b600390611ae4565b6104c25760405162461bcd60e51b81526004016104b990614ad2565b60405180910390fd5b6001546001600160a01b03166105125760405162461bcd60e51b81526020600482015260156024820152741999594b58dbdb1b1958dd1bdc8b5b9bdd0b5cd95d605a1b60448201526064016104b9565b7f00000000000000000000000000000000000000000000000000000000000000006001600160a01b0316816001600160a01b031614156105645760405162461bcd60e51b81526004016104b990614b02565b61056d81610ca4565b1561058a5760405162461bcd60e51b81526004016104b990614b39565b6001600160a01b03811673eeeeeeeeeeeeeeeeeeeeeeeeeeeeeeeeeeeeeeee14156105c8576001546105c5906001600160a01b031647611b06565b50565b6040516370a0823160e01b81526000906001600160a01b038316906370a08231906105f79030906004016149ba565b60206040518083038186803b15801561060f57600080fd5b505afa158015610623573d6000803e3d6000fd5b505050506040513d601f19601f820116820180604052508101906106479190614b67565b600154909150610664906001600160a01b03848116911683611c24565b5050565b600061067333610495565b61068f5760405162461bcd60e51b81526004016104b990614ad2565b6040516370a0823160e01b81526000906001600160a01b037f000000000000000000000000000000000000000000000000000000000000000016906370a08231906106de9030906004016149ba565b60206040518083038186803b1580156106f657600080fd5b505afa15801561070a573d6000803e3d6000fd5b505050506040513d601f19601f8201168201806040525081019061072e9190614b67565b9050610738611c87565b6040516370a0823160e01b815281906001600160a01b037f000000000000000000000000000000000000000000000000000000000000000016906370a08231906107869030906004016149ba565b60206040518083038186803b15801561079e57600080fd5b505afa1580156107b2573d6000803e3d6000fd5b505050506040513d601f19601f820116820180604052508101906107d69190614b67565b6107e09190614b96565b9150828210156108025760405162461bcd60e51b81526004016104b990614bad565b50919050565b7f00000000000000000000000000000000000000000000000000000000000000006001600160a01b0316630c340a246040518163ffffffff1660e01b815260040160206040518083038186803b15801561086157600080fd5b505afa158015610875573d6000803e3d6000fd5b505050506040513d601f19601f820116820180604052508101906108999190614bdb565b6001600160a01b0316336001600160a01b0316146108c95760405162461bcd60e51b81526004016104b990614bf8565b6108d4600382611e63565b6105c55760405162461bcd60e51b81526020600482015260146024820152731c995b5bdd994b5ad9595c195c8b59985a5b195960621b60448201526064016104b9565b337f00000000000000000000000000000000000000000000000000000000000000006001600160a01b03161461095f5760405162461bcd60e51b81526004016104b990614c2f565b6040516370a0823160e01b81526000906001600160a01b037f000000000000000000000000000000000000000000000000000000000000000016906370a08231906109ae9030906004016149ba565b60206040518083038186803b1580156109c657600080fd5b505afa1580156109da573d6000803e3d6000fd5b505050506040513d601f19601f820116820180604052508101906109fe9190614b67565b9050818110610a5b576106646001600160a01b037f0000000000000000000000000000000000000000000000000000000000000000167f000000000000000000000000000000000000000000000000000000000000000084611c24565b610a6d610a688284614b96565b611e78565b6040516370a0823160e01b81526001600160a01b037f000000000000000000000000000000000000000000000000000000000000000016906370a0823190610ab99030906004016149ba565b60206040518083038186803b158015610ad157600080fd5b505afa158015610ae5573d6000803e3d6000fd5b505050506040513d601f19601f82011682018060405250810190610b099190614b67565b90506106647f0000000000000000000000000000000000000000000000000000000000000000610b398484612012565b6001600160a01b037f0000000000000000000000000000000000000000000000000000000000000000169190611c24565b610b7333610495565b610b8f5760405162461bcd60e51b81526004016104b990614ad2565b6105c581612028565b7f00000000000000000000000000000000000000000000000000000000000000006001600160a01b0316630c340a246040518163ffffffff1660e01b815260040160206040518083038186803b158015610bf157600080fd5b505afa158015610c05573d6000803e3d6000fd5b505050506040513d601f19601f82011682018060405250810190610c299190614bdb565b6001600160a01b0316336001600160a01b031614610c595760405162461bcd60e51b81526004016104b990614bf8565b610c64600382611ac8565b6105c55760405162461bcd60e51b81526020600482015260116024820152701859190b5ad9595c195c8b59985a5b1959607a1b60448201526064016104b9565b60007f00000000000000000000000000000000000000000000000000000000000000006001600160a01b0316826001600160a01b03161480610cf357506000546001600160a01b038381169116145b80610d0b57506009546001600160a01b038381169116145b80610d2357506008546001600160a01b038381169116145b92915050565b60008080610d3633610495565b610d525760405162461bcd60e51b81526004016104b990614ad2565b610d5a612096565b925092509250909192565b6060610d716003612920565b905090565b60058054610d8390614c62565b80601f0160208091040260200160405190810160405280929190818152602001828054610daf90614c62565b8015610dfc5780601f10610dd157610100808354040283529160200191610dfc565b820191906000526020600020905b815481529060010190602001808311610ddf57829003601f168201915b505050505081565b337f00000000000000000000000000000000000000000000000000000000000000006001600160a01b031614610e4c5760405162461bcd60e51b81526004016104b990614c2f565b6001600160a01b038116610ea25760405162461bcd60e51b815260206004820152601c60248201527f6e65772d73747261746567792d616464726573732d69732d7a65726f0000000060448201526064016104b9565b7f00000000000000000000000000000000000000000000000000000000000000006001600160a01b0316816001600160a01b03166316f0115b6040518163ffffffff1660e01b815260040160206040518083038186803b158015610f0557600080fd5b505afa158015610f19573d6000803e3d6000fd5b505050506040513d601f19601f82011682018060405250810190610f3d9190614bdb565b6001600160a01b031614610f8c5760405162461bcd60e51b81526020600482015260166024820152756e6f742d76616c69642d6e65772d737472617465677960501b60448201526064016104b9565b610f958161292d565b6000546040516370a0823160e01b815261102e9183916001600160a01b03909116906370a0823190610fcb9030906004016149ba565b60206040518083038186803b158015610fe357600080fd5b505afa158015610ff7573d6000803e3d6000fd5b505050506040513d601f19601f8201168201806040525081019061101b9190614b67565b6000546001600160a01b03169190611c24565b6105c5817f00000000000000000000000000000000000000000000000000000000000000006001600160a01b03166370a08231306040518263ffffffff1660e01b815260040161107e91906149ba565b60206040518083038186803b15801561109657600080fd5b505afa1580156110aa573d6000803e3d6000fd5b505050506040513d601f19601f82011682018060405250810190610b399190614b67565b7f00000000000000000000000000000000000000000000000000000000000000006001600160a01b0316630c340a246040518163ffffffff1660e01b815260040160206040518083038186803b15801561112757600080fd5b505afa15801561113b573d6000803e3d6000fd5b505050506040513d601f19601f8201168201806040525081019061115f9190614bdb565b6001600160a01b0316336001600160a01b03161461118f5760405162461bcd60e51b81526004016104b990614bf8565b6001600160a01b0381166111e55760405162461bcd60e51b815260206004820152601d60248201527f6665652d636f6c6c6563746f722d616464726573732d69732d7a65726f00000060448201526064016104b9565b6001546001600160a01b038281169116141561123b5760405162461bcd60e51b81526020600482015260156024820152746665652d636f6c6c6563746f722d69732d73616d6560581b60448201526064016104b9565b6001546040516001600160a01b038084169216907f0f06062680f9bd68e786e9980d9bb03d73d5620fc3b345e417b6eacb310b970690600090a3600180546001600160a01b0319166001600160a01b0392909216919091179055565b7f00000000000000000000000000000000000000000000000000000000000000006001600160a01b0316630c340a246040518163ffffffff1660e01b815260040160206040518083038186803b1580156112f057600080fd5b505afa158015611304573d6000803e3d6000fd5b505050506040513d601f19601f820116820180604052508101906113289190614bdb565b6001600160a01b0316336001600160a01b0316146113585760405162461bcd60e51b81526004016104b990614bf8565b6001600160a01b0381166113a85760405162461bcd60e51b8152602060048201526017602482015276737761707065722d616464726573732d69732d7a65726f60481b60448201526064016104b9565b6002546001600160a01b03828116911614156113f85760405162461bcd60e51b815260206004820152600f60248201526e737761707065722d69732d73616d6560881b60448201526064016104b9565b6002546040516001600160a01b038084169216907f6c953b7ec311055c20b96a42cea31e89528e375b1bf953a503db40854b3188fe90600090a3600280546001600160a01b0319166001600160a01b0392909216919091179055565b6040516370a0823160e01b81526000906001600160a01b037f000000000000000000000000000000000000000000000000000000000000000016906370a08231906114a39030906004016149ba565b60206040518083038186803b1580156114bb57600080fd5b505afa1580156114cf573d6000803e3d6000fd5b505050506040513d601f19601f820116820180604052508101906114f39190614b67565b6000546040516370a0823160e01b81526001600160a01b03909116906370a08231906115239030906004016149ba565b60206040518083038186803b15801561153b57600080fd5b505afa15801561154f573d6000803e3d6000fd5b505050506040513d601f19601f820116820180604052508101906115739190614b67565b610d719190614c97565b600061158833610495565b6115a45760405162461bcd60e51b81526004016104b990614ad2565b7f00000000000000000000000000000000000000000000000000000000000000006001600160a01b0316836001600160a01b031614156115f65760405162461bcd60e51b81526004016104b990614b02565b6115ff83610ca4565b1561161c5760405162461bcd60e51b81526004016104b990614b39565b6040516370a0823160e01b81526000906001600160a01b037f000000000000000000000000000000000000000000000000000000000000000016906370a082319061166b9030906004016149ba565b60206040518083038186803b15801561168357600080fd5b505afa158015611697573d6000803e3d6000fd5b505050506040513d601f19601f820116820180604052508101906116bb9190614b67565b90506000846001600160a01b03166370a08231306040518263ffffffff1660e01b81526004016116eb91906149ba565b60206040518083038186803b15801561170357600080fd5b505afa158015611717573d6000803e3d6000fd5b505050506040513d601f19601f8201168201806040525081019061173b9190614b67565b9050801561183157600254604051636eb1769f60e11b81523060048201526001600160a01b0391821660248201529086169063dd62ed3e9060440160206040518083038186803b15801561178e57600080fd5b505afa1580156117a2573d6000803e3d6000fd5b505050506040513d601f19601f820116820180604052508101906117c69190614b67565b811115611804576002546117e8906001600160a01b0387811691166000612b1f565b600254611804906001600160a01b038781169116600019612b1f565b61182f857f000000000000000000000000000000000000000000000000000000000000000083612c43565b505b6040516370a0823160e01b815282906001600160a01b037f000000000000000000000000000000000000000000000000000000000000000016906370a082319061187f9030906004016149ba565b60206040518083038186803b15801561189757600080fd5b505afa1580156118ab573d6000803e3d6000fd5b505050506040513d601f19601f820116820180604052508101906118cf9190614b67565b6118d99190614b96565b9250838310156118fb5760405162461bcd60e51b81526004016104b990614bad565b505092915050565b7f00000000000000000000000000000000000000000000000000000000000000006001600160a01b0316630c340a246040518163ffffffff1660e01b815260040160206040518083038186803b15801561195c57600080fd5b505afa158015611970573d6000803e3d6000fd5b505050506040513d601f19601f820116820180604052508101906119949190614bdb565b6001600160a01b0316336001600160a01b0316146119c45760405162461bcd60e51b81526004016104b990614bf8565b6127108110611a105760405162461bcd60e51b81526020600482015260186024820152771a5b9d985b1a590b5b585e0b589bdc9c9bddcb5b1a5b5a5d60421b60448201526064016104b9565b80158015611a1c575081155b80611a2657508181115b611a725760405162461bcd60e51b815260206004820152601d60248201527f6d61782d73686f756c642d62652d6869676865722d7468616e2d6d696e00000060448201526064016104b9565b6006546007546040805192835260208301859052820152606081018290527fedd77444afdf63401315e81ffe86d08f7865796e8ad2e11acf1d56a1393f07d59060800160405180910390a1600691909155600755565b6000611add836001600160a01b038416612cd7565b9392505050565b6001600160a01b03811660009081526001830160205260408120541515611add565b80471015611b565760405162461bcd60e51b815260206004820152601d60248201527f416464726573733a20696e73756666696369656e742062616c616e636500000060448201526064016104b9565b6000826001600160a01b03168260405160006040518083038185875af1925050503d8060008114611ba3576040519150601f19603f3d011682016040523d82523d6000602084013e611ba8565b606091505b5050905080611c1f5760405162461bcd60e51b815260206004820152603a60248201527f416464726573733a20756e61626c6520746f2073656e642076616c75652c207260448201527f6563697069656e74206d6179206861766520726576657274656400000000000060648201526084016104b9565b505050565b6040516001600160a01b038316602482015260448101829052611c1f90849063a9059cbb60e01b906064015b60408051601f198184030181529190526020810180516001600160e01b03166001600160e01b031990931692909217909152612d26565b611c8f612df8565b60007f00000000000000000000000000000000000000000000000000000000000000006001600160a01b0316638bc6beb26040518163ffffffff1660e01b815260040160206040518083038186803b158015611cea57600080fd5b505afa158015611cfe573d6000803e3d6000fd5b505050506040513d601f19601f82011682018060405250810190611d229190614bdb565b90506001600160a01b03811615611d925760405163d279c19160e01b81526001600160a01b0382169063d279c19190611d5f9030906004016149ba565b600060405180830381600087803b158015611d7957600080fd5b505af1158015611d8d573d6000803e3d6000fd5b505050505b600b546001600160a01b0316156105c557600b546040516370a0823160e01b81526000916001600160a01b0316906370a0823190611dd49030906004016149ba565b60206040518083038186803b158015611dec57600080fd5b505afa158015611e00573d6000803e3d6000fd5b505050506040513d601f19601f82011682018060405250810190611e249190614b67565b9050801561066457600b54610664906001600160a01b03167f000000000000000000000000000000000000000000000000000000000000000083612f0e565b6000611add836001600160a01b038416612f9a565b6105c5817f00000000000000000000000000000000000000000000000000000000000000006001600160a01b031663026b1d5f6040518163ffffffff1660e01b815260040160206040518083038186803b158015611ed557600080fd5b505afa158015611ee9573d6000803e3d6000fd5b505050506040513d601f19601f82011682018060405250810190611f0d9190614bdb565b6009546040516370a0823160e01b81526001600160a01b03909116906370a0823190611f3d9030906004016149ba565b60206040518083038186803b158015611f5557600080fd5b505afa158015611f69573d6000803e3d6000fd5b505050506040513d601f19601f82011682018060405250810190611f8d9190614b67565b6000546040516370a0823160e01b81526001600160a01b03909116906370a0823190611fbd9030906004016149ba565b60206040518083038186803b158015611fd557600080fd5b505afa158015611fe9573d6000803e3d6000fd5b505050506040513d601f19601f8201168201806040525081019061200d9190614b67565b61308d565b60008183106120215781611add565b5090919050565b612031816132c8565b600854612068906001600160a01b03167f000000000000000000000000000000000000000000000000000000000000000083612b1f565b600b546001600160a01b0316156105c557600254600b546105c5916001600160a01b03918216911683612b1f565b6000806000807f00000000000000000000000000000000000000000000000000000000000000006001600160a01b031663d53ddc26306040518263ffffffff1660e01b81526004016120e891906149ba565b60206040518083038186803b15801561210057600080fd5b505afa158015612114573d6000803e3d6000fd5b505050506040513d601f19601f820116820180604052508101906121389190614b67565b6009546040516370a0823160e01b81529192506000916001600160a01b03909116906370a082319061216e9030906004016149ba565b60206040518083038186803b15801561218657600080fd5b505afa15801561219a573d6000803e3d6000fd5b505050506040513d601f19601f820116820180604052508101906121be9190614b67565b905060006121ca61368b565b905060007f00000000000000000000000000000000000000000000000000000000000000006001600160a01b031663026b1d5f6040518163ffffffff1660e01b815260040160206040518083038186803b15801561222757600080fd5b505afa15801561223b573d6000803e3d6000fd5b505050506040513d601f19601f8201168201806040525081019061225f9190614bdb565b9050818311156122815761227c6122768385614b96565b82613807565b612293565b61229361228e8484614b96565b613b0a565b6040516370a0823160e01b81526000906001600160a01b037f000000000000000000000000000000000000000000000000000000000000000016906370a08231906122e29030906004016149ba565b60206040518083038186803b1580156122fa57600080fd5b505afa15801561230e573d6000803e3d6000fd5b505050506040513d601f19601f820116820180604052508101906123329190614b67565b600080546040516370a0823160e01b815292935090916001600160a01b03909116906370a08231906123689030906004016149ba565b60206040518083038186803b15801561238057600080fd5b505afa158015612394573d6000803e3d6000fd5b505050506040513d601f19601f820116820180604052508101906123b89190614b67565b905060006123c68383614c97565b905060007f00000000000000000000000000000000000000000000000000000000000000006001600160a01b0316639f2b2833306040518263ffffffff1660e01b815260040161241691906149ba565b60206040518083038186803b15801561242e57600080fd5b505afa158015612442573d6000803e3d6000fd5b505050506040513d601f19601f820116820180604052508101906124669190614b67565b9050808211156124815761247a8183614b96565b9a5061248e565b61248b8282614b96565b99505b600061249a898d614c97565b90508085101561256e5760006124b96124b38784614b96565b86612012565b9050801561256c576124cd81888b8861308d565b6040516370a0823160e01b81526001600160a01b037f000000000000000000000000000000000000000000000000000000000000000016906370a08231906125199030906004016149ba565b60206040518083038186803b15801561253157600080fd5b505afa158015612545573d6000803e3d6000fd5b505050506040513d601f19601f820116820180604052508101906125699190614b67565b95505b505b612578858a612012565b995089851161258857600061259b565b61259b6125958b87614b96565b8d612012565b6040516302df682360e11b815260048101829052602481018d9052604481018c9052909c507f00000000000000000000000000000000000000000000000000000000000000006001600160a01b0316906305bed04690606401600060405180830381600087803b15801561260e57600080fd5b505af1158015612622573d6000803e3d6000fd5b50506040516370a0823160e01b8152600092506001600160a01b037f00000000000000000000000000000000000000000000000000000000000000001691506370a08231906126759030906004016149ba565b60206040518083038186803b15801561268d57600080fd5b505afa1580156126a1573d6000803e3d6000fd5b505050506040513d601f19601f820116820180604052508101906126c59190614b67565b90506126d18188613bd9565b6009546040516370a0823160e01b815260009182916127e191839182916001600160a01b0316906370a082319061270c9030906004016149ba565b60206040518083038186803b15801561272457600080fd5b505afa158015612738573d6000803e3d6000fd5b505050506040513d601f19601f8201168201806040525081019061275c9190614b67565b6000546040516370a0823160e01b81526001600160a01b03909116906370a082319061278c9030906004016149ba565b60206040518083038186803b1580156127a457600080fd5b505afa1580156127b8573d6000803e3d6000fd5b505050506040513d601f19601f820116820180604052508101906127dc9190614b67565b613cec565b909250905080156127fb576127f6818a61434a565b61287c565b811561287c5760085460405163a415bcad60e01b81526001600160a01b039182166004820152602481018490526002604482015260006064820152306084820152908a169063a415bcad9060a401600060405180830381600087803b15801561286357600080fd5b505af1158015612877573d6000803e3d6000fd5b505050505b6008546040516370a0823160e01b81526000916001600160a01b0316906370a08231906128ad9030906004016149ba565b60206040518083038186803b1580156128c557600080fd5b505afa1580156128d9573d6000803e3d6000fd5b505050506040513d601f19601f820116820180604052508101906128fd9190614b67565b9050801561290e5761290e816143ca565b50505050505050505050505050909192565b60606000611add83614440565b60008054906101000a90046001600160a01b03166001600160a01b0316816001600160a01b031663fc0c546a6040518163ffffffff1660e01b815260040160206040518083038186803b15801561298357600080fd5b505afa158015612997573d6000803e3d6000fd5b505050506040513d601f19601f820116820180604052508101906129bb9190614bdb565b6001600160a01b031614612a075760405162461bcd60e51b81526020600482015260136024820152723bb937b73396b932b1b2b4b83a16ba37b5b2b760691b60448201526064016104b9565b6009546040516370a0823160e01b81526105c5916001600160a01b0316906370a0823190612a399030906004016149ba565b60206040518083038186803b158015612a5157600080fd5b505afa158015612a65573d6000803e3d6000fd5b505050506040513d601f19601f82011682018060405250810190612a899190614b67565b7f00000000000000000000000000000000000000000000000000000000000000006001600160a01b031663026b1d5f6040518163ffffffff1660e01b815260040160206040518083038186803b158015612ae257600080fd5b505afa158015612af6573d6000803e3d6000fd5b505050506040513d601f19601f82011682018060405250810190612b1a9190614bdb565b61434a565b801580612ba85750604051636eb1769f60e11b81523060048201526001600160a01b03838116602483015284169063dd62ed3e9060440160206040518083038186803b158015612b6e57600080fd5b505afa158015612b82573d6000803e3d6000fd5b505050506040513d601f19601f82011682018060405250810190612ba69190614b67565b155b612c135760405162461bcd60e51b815260206004820152603660248201527f5361666545524332303a20617070726f76652066726f6d206e6f6e2d7a65726f60448201527520746f206e6f6e2d7a65726f20616c6c6f77616e636560501b60648201526084016104b9565b6040516001600160a01b038316602482015260448101829052611c1f90849063095ea7b360e01b90606401611c50565b600254604051636ccb2b0160e01b81526000916001600160a01b031690636ccb2b0190612c7d908790879087906001903090600401614caf565b602060405180830381600087803b158015612c9757600080fd5b505af1158015612cab573d6000803e3d6000fd5b505050506040513d601f19601f82011682018060405250810190612ccf9190614b67565b949350505050565b6000818152600183016020526040812054612d1e57508154600181810184556000848152602080822090930184905584548482528286019093526040902091909155610d23565b506000610d23565b6000612d7b826040518060400160405280602081526020017f5361666545524332303a206c6f772d6c6576656c2063616c6c206661696c6564815250856001600160a01b031661449c9092919063ffffffff16565b805190915015611c1f5780806020019051810190612d999190614cf4565b611c1f5760405162461bcd60e51b815260206004820152602a60248201527f5361666545524332303a204552433230206f7065726174696f6e20646964206e6044820152691bdd081cdd58d8d9595960b21b60648201526084016104b9565b600080548190612e10906001600160a01b03166144ab565b8151919350915060005b81811015612f08576000838281518110612e3657612e36614d0f565b6020026020010151118015612e9657507f00000000000000000000000000000000000000000000000000000000000000006001600160a01b0316848281518110612e8257612e82614d0f565b60200260200101516001600160a01b031614155b15612ef857612ef8848281518110612eb057612eb0614d0f565b60200260200101517f0000000000000000000000000000000000000000000000000000000000000000858481518110612eeb57612eeb614d0f565b6020026020010151612f0e565b612f0181614d25565b9050612e1a565b50505050565b600254604051636ccb2b0160e01b81526001600160a01b0390911690636ccb2b0190612f47908690869086906001903090600401614caf565b602060405180830381600087803b158015612f6157600080fd5b505af1925050508015612f91575060408051601f3d908101601f19168201909252612f8e91810190614b67565b60015b612f0857505050565b60008181526001830160205260408120548015613083576000612fbe600183614b96565b8554909150600090612fd290600190614b96565b9050818114613037576000866000018281548110612ff257612ff2614d0f565b906000526020600020015490508087600001848154811061301557613015614d0f565b6000918252602080832090910192909255918252600188019052604090208390555b855486908061304857613048614d40565b600190038181906000526020600020016000905590558560010160008681526020019081526020016000206000905560019350505050610d23565b6000915050610d23565b600061309c6000868585613cec565b91505080156130af576130af818561434a565b600080546040516370a0823160e01b81526131e09188916131db916001600160a01b0316906370a08231906130e89030906004016149ba565b60206040518083038186803b15801561310057600080fd5b505afa158015613114573d6000803e3d6000fd5b505050506040513d601f19601f820116820180604052508101906131389190614b67565b6000546040516370a0823160e01b81526001600160a01b037f00000000000000000000000000000000000000000000000000000000000000008116926370a082319261318b9291909116906004016149ba565b60206040518083038186803b1580156131a357600080fd5b505afa1580156131b7573d6000803e3d6000fd5b505050506040513d601f19601f820116820180604052508101906131db9190614b67565b612012565b905080856001600160a01b03166369328dec7f000000000000000000000000000000000000000000000000000000000000000084306040518463ffffffff1660e01b815260040161323393929190614d56565b602060405180830381600087803b15801561324d57600080fd5b505af1158015613261573d6000803e3d6000fd5b505050506040513d601f19601f820116820180604052508101906132859190614b67565b1460405180604001604052806002815260200161323960f01b815250906132bf5760405162461bcd60e51b81526004016104b99190614a51565b50505050505050565b6132d1816145f4565b6000600260009054906101000a90046001600160a01b031690506133b07f00000000000000000000000000000000000000000000000000000000000000006001600160a01b031663026b1d5f6040518163ffffffff1660e01b815260040160206040518083038186803b15801561334757600080fd5b505afa15801561335b573d6000803e3d6000fd5b505050506040513d601f19601f8201168201806040525081019061337f9190614bdb565b6001600160a01b037f0000000000000000000000000000000000000000000000000000000000000000169084612b1f565b6133e46001600160a01b037f0000000000000000000000000000000000000000000000000000000000000000168284612b1f565b61348b7f00000000000000000000000000000000000000000000000000000000000000006001600160a01b031663026b1d5f6040518163ffffffff1660e01b815260040160206040518083038186803b15801561344057600080fd5b505afa158015613454573d6000803e3d6000fd5b505050506040513d601f19601f820116820180604052508101906134789190614bdb565b6008546001600160a01b03169084612b1f565b6008546134a2906001600160a01b03168284612b1f565b60008054906101000a90046001600160a01b03166001600160a01b03166375d264136040518163ffffffff1660e01b815260040160206040518083038186803b1580156134ee57600080fd5b505afa92505050801561351e575060408051601f3d908101601f1916820190925261351b91810190614bdb565b60015b613526575050565b6000816001600160a01b031663b45ac1a96040518163ffffffff1660e01b815260040160006040518083038186803b15801561356157600080fd5b505afa158015613575573d6000803e3d6000fd5b505050506040513d6000823e601f3d908101601f1916820160405261359d9190810190614e5a565b905060005b8151811015613684577f00000000000000000000000000000000000000000000000000000000000000006001600160a01b03168282815181106135e7576135e7614d0f565b60200260200101516001600160a01b031614158015613638575060085482516001600160a01b039091169083908390811061362457613624614d0f565b60200260200101516001600160a01b031614155b1561367457613674848684848151811061365457613654614d0f565b60200260200101516001600160a01b0316612b1f9092919063ffffffff16565b61367d81614d25565b90506135a2565b5050505050565b6000670de0b6b3a76400007f00000000000000000000000000000000000000000000000000000000000000006001600160a01b03166370a08231306040518263ffffffff1660e01b81526004016136e291906149ba565b60206040518083038186803b1580156136fa57600080fd5b505afa15801561370e573d6000803e3d6000fd5b505050506040513d601f19601f820116820180604052508101906137329190614b67565b7f00000000000000000000000000000000000000000000000000000000000000006001600160a01b03166399530b066040518163ffffffff1660e01b815260040160206040518083038186803b15801561378b57600080fd5b505afa15801561379f573d6000803e3d6000fd5b505050506040513d601f19601f820116820180604052508101906137c39190614b67565b6137cd9190614e8f565b6137d79190614eae565b6008546040516370a0823160e01b81526001600160a01b03909116906370a08231906115239030906004016149ba565b6002546008546040516353b609b560e01b81526001600160a01b037f00000000000000000000000000000000000000000000000000000000000000008116600483015291821660248201526044810185905260009291909116906353b609b590606401602060405180830381600087803b15801561388457600080fd5b505af1158015613898573d6000803e3d6000fd5b505050506040513d601f19601f820116820180604052508101906138bc9190614b67565b90508015611c1f576040516370a0823160e01b81526000906001600160a01b037f000000000000000000000000000000000000000000000000000000000000000016906370a08231906139139030906004016149ba565b60206040518083038186803b15801561392b57600080fd5b505afa15801561393f573d6000803e3d6000fd5b505050506040513d601f19601f820116820180604052508101906139639190614b67565b905080821115613a5b5760006139798284614b96565b905080846001600160a01b03166369328dec7f000000000000000000000000000000000000000000000000000000000000000084306040518463ffffffff1660e01b81526004016139cc93929190614d56565b602060405180830381600087803b1580156139e657600080fd5b505af11580156139fa573d6000803e3d6000fd5b505050506040513d601f19601f82011682018060405250810190613a1e9190614b67565b1460405180604001604052806002815260200161323960f01b81525090613a585760405162461bcd60e51b81526004016104b99190614a51565b50505b6002546008546040516381cc619b60e01b81526001600160a01b03928316926381cc619b92613ab8927f00000000000000000000000000000000000000000000000000000000000000009290911690899088903090600401614caf565b602060405180830381600087803b158015613ad257600080fd5b505af1158015613ae6573d6000803e3d6000fd5b505050506040513d601f19601f820116820180604052508101906136849190614b67565b80156105c557613b1981614648565b6008546040516370a0823160e01b81526000916001600160a01b0316906370a0823190613b4a9030906004016149ba565b60206040518083038186803b158015613b6257600080fd5b505afa158015613b76573d6000803e3d6000fd5b505050506040513d601f19601f82011682018060405250810190613b9a9190614b67565b9050801561066457600854610664906001600160a01b03167f000000000000000000000000000000000000000000000000000000000000000083612f0e565b81156106645760405163617ba03760e01b81526001600160a01b037f000000000000000000000000000000000000000000000000000000000000000081166004830152602482018490523060448301526000606483015282169063617ba03790608401600060405180830381600087803b158015613c5657600080fd5b505af1925050508015613c67575060015b61066457613c73614ed0565b806308c379a01415613ce05750613c88614eec565b80613c935750613ce2565b613c9c81614f76565b611a9b60f11b14611c1f5760405162461bcd60e51b815260206004820152600e60248201526d19195c1bdcda5d0819985a5b195960921b60448201526064016104b9565b505b3d6000803e3d6000fd5b600080851580613cfa575084155b613d3a5760405162461bcd60e51b8152602060048201526011602482015270616c6c2d696e7075742d67742d7a65726f60781b60448201526064016104b9565b600754613d4c57506000905082614341565b6000808711613d7257858411613d63576000613d7c565b613d6d8685614b96565b613d7c565b613d7c8785614c97565b905080613d90576000859250925050614341565b60007f00000000000000000000000000000000000000000000000000000000000000006001600160a01b031663fca513a86040518163ffffffff1660e01b815260040160206040518083038186803b158015613deb57600080fd5b505afa158015613dff573d6000803e3d6000fd5b505050506040513d601f19601f82011682018060405250810190613e239190614bdb565b60085460405163b3596f0760e01b81529192506000916001600160a01b038085169263b3596f0792613e5b92909116906004016149ba565b60206040518083038186803b158015613e7357600080fd5b505afa158015613e87573d6000803e3d6000fd5b505050506040513d601f19601f82011682018060405250810190613eab9190614b67565b90506000826001600160a01b031663b3596f077f00000000000000000000000000000000000000000000000000000000000000006040518263ffffffff1660e01b8152600401613efb91906149ba565b60206040518083038186803b158015613f1357600080fd5b505afa158015613f27573d6000803e3d6000fd5b505050506040513d601f19601f82011682018060405250810190613f4b9190614b67565b9050811580613f58575080155b15613f6d576000889550955050505050614341565b60007f00000000000000000000000000000000000000000000000000000000000000006001600160a01b031663e860accb6040518163ffffffff1660e01b815260040160206040518083038186803b158015613fc857600080fd5b505afa158015613fdc573d6000803e3d6000fd5b505050506040513d601f19601f820116820180604052508101906140009190614bdb565b6001600160a01b0316633e1501417f00000000000000000000000000000000000000000000000000000000000000006040518263ffffffff1660e01b815260040161404b91906149ba565b6101406040518083038186803b15801561406457600080fd5b505afa158015614078573d6000803e3d6000fd5b505050506040513d601f19601f8201168201806040525081019061409c9190614f9a565b505050505050505091505060007f00000000000000000000000000000000000000000000000000000000000000006001600160a01b031663313ce5676040518163ffffffff1660e01b815260040160206040518083038186803b15801561410257600080fd5b505afa158015614116573d6000803e3d6000fd5b505050506040513d601f19601f8201168201806040525081019061413a9190615031565b61414590600a615138565b61415190612710614e8f565b8361415c8489614e8f565b6141669190614e8f565b6141709190614eae565b9050600084600860009054906101000a90046001600160a01b03166001600160a01b031663313ce5676040518163ffffffff1660e01b815260040160206040518083038186803b1580156141c357600080fd5b505afa1580156141d7573d6000803e3d6000fd5b505050506040513d601f19601f820116820180604052508101906141fb9190615031565b61420690600a615138565b6142109084614e8f565b61421a9190614eae565b9050806142345760008b9850985050505050505050614341565b6000612710600754836142479190614e8f565b6142519190614eae565b90506000612710600654846142669190614e8f565b6142709190614eae565b9050818d111561428b57614284818e614b96565b9950614337565b8c8111156143375761429d8d82614b96565b600854600a546040516370a0823160e01b8152929d506000926001600160a01b03928316926370a08231926142d7929116906004016149ba565b60206040518083038186803b1580156142ef57600080fd5b505afa158015614303573d6000803e3d6000fd5b505050506040513d601f19601f820116820180604052508101906143279190614b67565b9050808c111561433557809b505b505b5050505050505050505b94509492505050565b61435382614805565b60085460405163573ade8160e01b81526001600160a01b03918216600482015260248101849052600260448201523060648201529082169063573ade8190608401600060405180830381600087803b1580156143ae57600080fd5b505af11580156143c2573d6000803e3d6000fd5b505050505050565b60405163b6b55f2560e01b8152600481018290527f00000000000000000000000000000000000000000000000000000000000000006001600160a01b03169063b6b55f2590602401600060405180830381600087803b15801561442c57600080fd5b505af1158015613684573d6000803e3d6000fd5b60608160000180548060200260200160405190810160405280929190818152602001828054801561449057602002820191906000526020600020905b81548152602001906001019080831161447c575b50505050509050919050565b6060612ccf848460008561480e565b606080826001600160a01b03166375d264136040518163ffffffff1660e01b815260040160206040518083038186803b1580156144e757600080fd5b505afa925050508015614517575060408051601f3d908101601f1916820190925261451491810190614bdb565b60015b61452057915091565b60408051600180825281830190925260009160208083019080368337019050509050848160008151811061455657614556614d0f565b6001600160a01b03928316602091820292909201015260405163bb492bf560e01b81529083169063bb492bf5906145939084903090600401615147565b600060405180830381600087803b1580156145ad57600080fd5b505af11580156145c1573d6000803e3d6000fd5b505050506040513d6000823e601f3d908101601f191682016040526145e99190810190615171565b935093505050915091565b6105c56001600160a01b037f0000000000000000000000000000000000000000000000000000000000000000167f000000000000000000000000000000000000000000000000000000000000000083612b1f565b80156105c55760007f00000000000000000000000000000000000000000000000000000000000000006001600160a01b03166399530b066040518163ffffffff1660e01b815260040160206040518083038186803b1580156146a957600080fd5b505afa1580156146bd573d6000803e3d6000fd5b505050506040513d601f19601f820116820180604052508101906146e19190614b67565b90506000816146f884670de0b6b3a7640000614e8f565b6147029190614eae565b9050670de0b6b3a76400006147178383614e8f565b6147219190614eae565b831161472d5780614738565b614738816001614c97565b90507f00000000000000000000000000000000000000000000000000000000000000006001600160a01b0316632e1a7d4d6147b9837f00000000000000000000000000000000000000000000000000000000000000006001600160a01b03166370a08231306040518263ffffffff1660e01b815260040161318b91906149ba565b6040518263ffffffff1660e01b81526004016147d791815260200190565b600060405180830381600087803b1580156147f157600080fd5b505af11580156132bf573d6000803e3d6000fd5b6105c581614648565b60608247101561486f5760405162461bcd60e51b815260206004820152602660248201527f416464726573733a20696e73756666696369656e742062616c616e636520666f6044820152651c8818d85b1b60d21b60648201526084016104b9565b843b6148bd5760405162461bcd60e51b815260206004820152601d60248201527f416464726573733a2063616c6c20746f206e6f6e2d636f6e747261637400000060448201526064016104b9565b600080866001600160a01b031685876040516148d99190615237565b60006040518083038185875af1925050503d8060008114614916576040519150601f19603f3d011682016040523d82523d6000602084013e61491b565b606091505b509150915061492b828286614936565b979650505050505050565b60608315614945575081611add565b8251156149555782518084602001fd5b8160405162461bcd60e51b81526004016104b99190614a51565b6001600160a01b03811681146105c557600080fd5b60006020828403121561499657600080fd5b8135611add8161496f565b6000602082840312156149b357600080fd5b5035919050565b6001600160a01b0391909116815260200190565b600081518084526020808501945080840160005b83811015614a075781516001600160a01b0316875295820195908201906001016149e2565b509495945050505050565b602081526000611add60208301846149ce565b60005b83811015614a40578181015183820152602001614a28565b83811115612f085750506000910152565b6020815260008251806020840152614a70816040850160208701614a25565b601f01601f19169190910160400192915050565b60008060408385031215614a9757600080fd5b8235614aa28161496f565b946020939093013593505050565b60008060408385031215614ac357600080fd5b50508035926020909101359150565b60208082526016908201527531b0b63632b916b4b996b737ba16b096b5b2b2b832b960511b604082015260600190565b6020808252601f908201527f6e6f742d616c6c6f7765642d746f2d73776565702d636f6c6c61746572616c00604082015260600190565b60208082526014908201527306e6f742d616c6c6f7765642d746f2d73776565760641b604082015260600190565b600060208284031215614b7957600080fd5b5051919050565b634e487b7160e01b600052601160045260246000fd5b600082821015614ba857614ba8614b80565b500390565b6020808252601490820152731b9bdd0b595b9bdd59da0b585b5bdd5b9d13dd5d60621b604082015260600190565b600060208284031215614bed57600080fd5b8151611add8161496f565b6020808252601a908201527f63616c6c65722d69732d6e6f742d7468652d676f7665726e6f72000000000000604082015260600190565b60208082526019908201527818d85b1b195c8b5a5ccb5b9bdd0b5d995cdc195c8b5c1bdbdb603a1b604082015260600190565b600181811c90821680614c7657607f821691505b6020821081141561080257634e487b7160e01b600052602260045260246000fd5b60008219821115614caa57614caa614b80565b500190565b6001600160a01b039586168152938516602085015260408401929092526060830152909116608082015260a00190565b80518015158114614cef57600080fd5b919050565b600060208284031215614d0657600080fd5b611add82614cdf565b634e487b7160e01b600052603260045260246000fd5b6000600019821415614d3957614d39614b80565b5060010190565b634e487b7160e01b600052603160045260246000fd5b6001600160a01b0393841681526020810192909252909116604082015260600190565b634e487b7160e01b600052604160045260246000fd5b601f8201601f1916810167ffffffffffffffff81118282101715614db557614db5614d79565b6040525050565b600067ffffffffffffffff821115614dd657614dd6614d79565b5060051b60200190565b600082601f830112614df157600080fd5b81516020614dfe82614dbc565b604051614e0b8282614d8f565b83815260059390931b8501820192828101915086841115614e2b57600080fd5b8286015b84811015614e4f578051614e428161496f565b8352918301918301614e2f565b509695505050505050565b600060208284031215614e6c57600080fd5b815167ffffffffffffffff811115614e8357600080fd5b612ccf84828501614de0565b6000816000190483118215151615614ea957614ea9614b80565b500290565b600082614ecb57634e487b7160e01b600052601260045260246000fd5b500490565b600060033d1115614ee95760046000803e5060005160e01c5b90565b600060443d1015614efa5790565b6040516003193d81016004833e81513d67ffffffffffffffff8160248401118184111715614f2a57505050505090565b8285019150815181811115614f425750505050505090565b843d8701016020828501011115614f5c5750505050505090565b614f6b60208286010187614d8f565b509095945050505050565b805160208083015191908110156108025760001960209190910360031b1b16919050565b6000806000806000806000806000806101408b8d031215614fba57600080fd5b8a51995060208b0151985060408b0151975060608b0151965060808b01519550614fe660a08c01614cdf565b9450614ff460c08c01614cdf565b935061500260e08c01614cdf565b92506150116101008c01614cdf565b91506150206101208c01614cdf565b90509295989b9194979a5092959850565b60006020828403121561504357600080fd5b815160ff81168114611add57600080fd5b600181815b8085111561508f57816000190482111561507557615075614b80565b8085161561508257918102915b93841c9390800290615059565b509250929050565b6000826150a657506001610d23565b816150b357506000610d23565b81600181146150c957600281146150d3576150ef565b6001915050610d23565b60ff8411156150e4576150e4614b80565b50506001821b610d23565b5060208310610133831016604e8410600b8410161715615112575081810a610d23565b61511c8383615054565b806000190482111561513057615130614b80565b029392505050565b6000611add60ff841683615097565b60408152600061515a60408301856149ce565b905060018060a01b03831660208301529392505050565b6000806040838503121561518457600080fd5b825167ffffffffffffffff8082111561519c57600080fd5b6151a886838701614de0565b93506020915081850151818111156151bf57600080fd5b85019050601f810186136151d257600080fd5b80516151dd81614dbc565b6040516151ea8282614d8f565b82815260059290921b830184019184810191508883111561520a57600080fd5b928401925b828410156152285783518252928401929084019061520f565b80955050505050509250929050565b60008251615249818460208701614a25565b919091019291505056fea264697066735822122050e8bbcba9eb58efd74814dd969f9ac6cb597657ac78d2ef1878ecfa59a597e764736f6c63430008090033",
  "devdoc": {
    "kind": "dev",
    "methods": {
      "addKeeper(address)": {
        "params": {
          "_keeperAddress": "keeper address to add."
        }
      },
      "approveToken(uint256)": {
        "details": "Approve all required tokens"
      },
      "migrate(address)": {
        "details": "_beforeMigration hook can be implemented in child strategy to do extra steps.",
        "params": {
          "_newStrategy": "Address of new strategy"
        }
      },
      "rebalance()": {
        "returns": {
          "_loss": "Realized loss, if any, in collateral.",
          "_payback": "If strategy has any excess debt, we have to liquidate asset to payback excess debt.",
          "_profit": "Realized profit in collateral."
        }
      },
      "removeKeeper(address)": {
        "params": {
          "_keeperAddress": "keeper address to remove."
        }
      },
      "sweep(address)": {
        "params": {
          "_fromToken": "token address to sweep"
        }
      },
      "updateBorrowLimit(uint256,uint256)": {
        "details": "It is possible to set _maxBorrowLimit and _minBorrowLimit as 0 to not borrow anything",
        "params": {
          "_maxBorrowLimit": "It is % of actual collateral factor of protocol",
          "_minBorrowLimit": "It is % of actual collateral factor of protocol"
        }
      },
      "updateFeeCollector(address)": {
        "params": {
          "_feeCollector": "fee collector address"
        }
      },
      "updateSwapper(address)": {
        "params": {
          "_swapper": "swapper address"
        }
      },
      "withdraw(uint256)": {
        "params": {
          "_amount": "Amount of collateral token"
        }
      }
    },
    "title": "Deposit Collateral in Aave and earn interest by depositing borrowed token in a Vesper Pool.",
    "version": 1
  },
  "userdoc": {
    "kind": "user",
    "methods": {
      "addKeeper(address)": {
        "notice": "Add given address in keepers list."
      },
      "claimAndSwapRewards(uint256)": {
        "notice": "Claim rewardToken and convert rewardToken into collateral token."
      },
      "collateral()": {
        "notice": "Returns address of token correspond to collateral token"
      },
      "isReservedToken(address)": {
        "notice": "Check whether given token is reserved or not. Reserved tokens are not allowed to sweep."
      },
      "keepers()": {
        "notice": "Return list of keepers"
      },
      "migrate(address)": {
        "notice": "Migrate all asset and vault ownership,if any, to new strategy"
      },
      "rebalance()": {
        "notice": "OnlyKeeper: Rebalance profit, loss and investment of this strategy.  Calculate profit, loss and payback of this strategy and realize profit/loss and  withdraw fund for payback, if any, and submit this report to pool."
      },
      "removeKeeper(address)": {
        "notice": "Remove given address from keepers list."
      },
      "swapToCollateral(address,uint256)": {
        "notice": "onlyKeeper:: Swap given token into collateral token."
      },
      "sweep(address)": {
        "notice": "sweep given token to feeCollector of strategy"
      },
      "token()": {
        "notice": "Returns address of token correspond to receipt token"
      },
      "tvl()": {
        "notice": "Returns total collateral locked in the strategy"
      },
      "updateBorrowLimit(uint256,uint256)": {
        "notice": "Update upper and lower borrow limit. Usually maxBorrowLimit < 100% of actual collateral factor of protocol."
      },
      "updateFeeCollector(address)": {
        "notice": "Update fee collector"
      },
      "updateSwapper(address)": {
        "notice": "Update swapper"
      },
      "withdraw(uint256)": {
        "notice": "Withdraw collateral token from end protocol."
      }
    },
    "version": 1
  },
  "storageLayout": {
    "storage": [
      {
        "astId": 14399,
        "contract": "vesper-strategies/contracts/strategies/aave/v3/AaveV3VesperXy.sol:AaveV3VesperXy",
        "label": "receiptToken",
        "offset": 0,
        "slot": "0",
        "type": "t_address"
      },
      {
        "astId": 14405,
        "contract": "vesper-strategies/contracts/strategies/aave/v3/AaveV3VesperXy.sol:AaveV3VesperXy",
        "label": "feeCollector",
        "offset": 0,
        "slot": "1",
        "type": "t_address"
      },
      {
        "astId": 14408,
        "contract": "vesper-strategies/contracts/strategies/aave/v3/AaveV3VesperXy.sol:AaveV3VesperXy",
        "label": "swapper",
        "offset": 0,
        "slot": "2",
        "type": "t_contract(IRoutedSwapper)13247"
      },
      {
        "astId": 14421,
        "contract": "vesper-strategies/contracts/strategies/aave/v3/AaveV3VesperXy.sol:AaveV3VesperXy",
        "label": "_keepers",
        "offset": 0,
        "slot": "3",
        "type": "t_struct(AddressSet)3025_storage"
      },
      {
        "astId": 18004,
        "contract": "vesper-strategies/contracts/strategies/aave/v3/AaveV3VesperXy.sol:AaveV3VesperXy",
        "label": "NAME",
        "offset": 0,
        "slot": "5",
        "type": "t_string_storage"
      },
      {
        "astId": 18013,
        "contract": "vesper-strategies/contracts/strategies/aave/v3/AaveV3VesperXy.sol:AaveV3VesperXy",
        "label": "minBorrowLimit",
        "offset": 0,
        "slot": "6",
        "type": "t_uint256"
      },
      {
        "astId": 18016,
        "contract": "vesper-strategies/contracts/strategies/aave/v3/AaveV3VesperXy.sol:AaveV3VesperXy",
        "label": "maxBorrowLimit",
        "offset": 0,
        "slot": "7",
        "type": "t_uint256"
      },
      {
        "astId": 18021,
        "contract": "vesper-strategies/contracts/strategies/aave/v3/AaveV3VesperXy.sol:AaveV3VesperXy",
        "label": "borrowToken",
        "offset": 0,
        "slot": "8",
        "type": "t_address"
      },
      {
        "astId": 18024,
        "contract": "vesper-strategies/contracts/strategies/aave/v3/AaveV3VesperXy.sol:AaveV3VesperXy",
        "label": "vdToken",
        "offset": 0,
        "slot": "9",
        "type": "t_contract(AToken)9985"
      },
      {
        "astId": 18026,
        "contract": "vesper-strategies/contracts/strategies/aave/v3/AaveV3VesperXy.sol:AaveV3VesperXy",
        "label": "aBorrowToken",
        "offset": 0,
        "slot": "10",
        "type": "t_address"
      },
      {
        "astId": 17641,
        "contract": "vesper-strategies/contracts/strategies/aave/v3/AaveV3VesperXy.sol:AaveV3VesperXy",
        "label": "rewardToken",
        "offset": 0,
        "slot": "11",
        "type": "t_address"
      }
    ],
    "types": {
      "t_address": {
        "encoding": "inplace",
        "label": "address",
        "numberOfBytes": "20"
      },
      "t_array(t_bytes32)dyn_storage": {
        "base": "t_bytes32",
        "encoding": "dynamic_array",
        "label": "bytes32[]",
        "numberOfBytes": "32"
      },
      "t_bytes32": {
        "encoding": "inplace",
        "label": "bytes32",
        "numberOfBytes": "32"
      },
      "t_contract(AToken)9985": {
        "encoding": "inplace",
        "label": "contract AToken",
        "numberOfBytes": "20"
      },
      "t_contract(IRoutedSwapper)13247": {
        "encoding": "inplace",
        "label": "contract IRoutedSwapper",
        "numberOfBytes": "20"
      },
      "t_mapping(t_bytes32,t_uint256)": {
        "encoding": "mapping",
        "key": "t_bytes32",
        "label": "mapping(bytes32 => uint256)",
        "numberOfBytes": "32",
        "value": "t_uint256"
      },
      "t_string_storage": {
        "encoding": "bytes",
        "label": "string",
        "numberOfBytes": "32"
      },
      "t_struct(AddressSet)3025_storage": {
        "encoding": "inplace",
        "label": "struct EnumerableSet.AddressSet",
        "members": [
          {
            "astId": 3024,
            "contract": "vesper-strategies/contracts/strategies/aave/v3/AaveV3VesperXy.sol:AaveV3VesperXy",
            "label": "_inner",
            "offset": 0,
            "slot": "0",
            "type": "t_struct(Set)2724_storage"
          }
        ],
        "numberOfBytes": "64"
      },
      "t_struct(Set)2724_storage": {
        "encoding": "inplace",
        "label": "struct EnumerableSet.Set",
        "members": [
          {
            "astId": 2719,
            "contract": "vesper-strategies/contracts/strategies/aave/v3/AaveV3VesperXy.sol:AaveV3VesperXy",
            "label": "_values",
            "offset": 0,
            "slot": "0",
            "type": "t_array(t_bytes32)dyn_storage"
          },
          {
            "astId": 2723,
            "contract": "vesper-strategies/contracts/strategies/aave/v3/AaveV3VesperXy.sol:AaveV3VesperXy",
            "label": "_indexes",
            "offset": 0,
            "slot": "1",
            "type": "t_mapping(t_bytes32,t_uint256)"
          }
        ],
        "numberOfBytes": "64"
      },
      "t_uint256": {
        "encoding": "inplace",
        "label": "uint256",
        "numberOfBytes": "32"
      }
    }
  }
}