{
  "address": "0x6aFf1846413Bf15a8D7E72C799b96Bf37E424b13",
  "abi": [
    {
      "inputs": [
        {
          "internalType": "address",
          "name": "pool_",
          "type": "address"
        },
        {
          "internalType": "address",
          "name": "crvPool_",
          "type": "address"
        },
        {
          "internalType": "enum CurveBase.PoolType",
          "name": "curvePoolType_",
          "type": "uint8"
        },
        {
          "internalType": "address",
          "name": "depositZap_",
          "type": "address"
        },
        {
          "internalType": "address",
          "name": "crvToken_",
          "type": "address"
        },
        {
          "internalType": "uint256",
          "name": "crvSlippage_",
          "type": "uint256"
        },
        {
          "internalType": "address",
          "name": "masterOracle_",
          "type": "address"
        },
        {
          "internalType": "address",
          "name": "swapper_",
          "type": "address"
        },
        {
          "internalType": "uint256",
          "name": "collateralIdx_",
          "type": "uint256"
        },
        {
          "internalType": "string",
          "name": "name_",
          "type": "string"
        },
        {
          "internalType": "contract TokenLike",
          "name": "wethLike_",
          "type": "address"
        }
      ],
      "stateMutability": "nonpayable",
      "type": "constructor"
    },
    {
      "anonymous": false,
      "inputs": [
        {
          "indexed": false,
          "internalType": "uint256",
          "name": "oldCrvSlippage",
          "type": "uint256"
        },
        {
          "indexed": false,
          "internalType": "uint256",
          "name": "newCrvSlippage",
          "type": "uint256"
        }
      ],
      "name": "CrvSlippageUpdated",
      "type": "event"
    },
    {
      "anonymous": false,
      "inputs": [
        {
          "indexed": false,
          "internalType": "contract IMasterOracle",
          "name": "oldMasterOracle",
          "type": "address"
        },
        {
          "indexed": false,
          "internalType": "contract IMasterOracle",
          "name": "newMasterOracle",
          "type": "address"
        }
      ],
      "name": "MasterOracleUpdated",
      "type": "event"
    },
    {
      "anonymous": false,
      "inputs": [
        {
          "indexed": true,
          "internalType": "address",
          "name": "previousFeeCollector",
          "type": "address"
        },
        {
          "indexed": true,
          "internalType": "address",
          "name": "newFeeCollector",
          "type": "address"
        }
      ],
      "name": "UpdatedFeeCollector",
      "type": "event"
    },
    {
      "anonymous": false,
      "inputs": [
        {
          "indexed": true,
          "internalType": "contract IRoutedSwapper",
          "name": "oldSwapper",
          "type": "address"
        },
        {
          "indexed": true,
          "internalType": "contract IRoutedSwapper",
          "name": "newSwapper",
          "type": "address"
        }
      ],
      "name": "UpdatedSwapper",
      "type": "event"
    },
    {
      "inputs": [],
      "name": "ADDRESS_PROVIDER",
      "outputs": [
        {
          "internalType": "contract IAddressProvider",
          "name": "",
          "type": "address"
        }
      ],
      "stateMutability": "view",
      "type": "function"
    },
    {
      "inputs": [],
      "name": "CRV",
      "outputs": [
        {
          "internalType": "address",
          "name": "",
          "type": "address"
        }
      ],
      "stateMutability": "view",
      "type": "function"
    },
    {
      "inputs": [],
      "name": "CRV_MINTER",
      "outputs": [
        {
          "internalType": "contract ITokenMinter",
          "name": "",
          "type": "address"
        }
      ],
      "stateMutability": "view",
      "type": "function"
    },
    {
      "inputs": [],
      "name": "GAUGE_FACTORY",
      "outputs": [
        {
          "internalType": "contract ILiquidityGaugeFactory",
          "name": "",
          "type": "address"
        }
      ],
      "stateMutability": "view",
      "type": "function"
    },
    {
      "inputs": [],
      "name": "NAME",
      "outputs": [
        {
          "internalType": "string",
          "name": "",
          "type": "string"
        }
      ],
      "stateMutability": "view",
      "type": "function"
    },
    {
      "inputs": [],
      "name": "VERSION",
      "outputs": [
        {
          "internalType": "string",
          "name": "",
          "type": "string"
        }
      ],
      "stateMutability": "view",
      "type": "function"
    },
    {
      "inputs": [],
      "name": "WETH",
      "outputs": [
        {
          "internalType": "contract TokenLike",
          "name": "",
          "type": "address"
        }
      ],
      "stateMutability": "view",
      "type": "function"
    },
    {
      "inputs": [
        {
          "internalType": "address",
          "name": "_keeperAddress",
          "type": "address"
        }
      ],
      "name": "addKeeper",
      "outputs": [],
      "stateMutability": "nonpayable",
      "type": "function"
    },
    {
      "inputs": [
        {
          "internalType": "uint256",
          "name": "_approvalAmount",
          "type": "uint256"
        }
      ],
      "name": "approveToken",
      "outputs": [],
      "stateMutability": "nonpayable",
      "type": "function"
    },
    {
      "inputs": [
        {
          "internalType": "uint256",
          "name": "_minAmountOut",
          "type": "uint256"
        }
      ],
      "name": "claimAndSwapRewards",
      "outputs": [
        {
          "internalType": "uint256",
          "name": "_amountOut",
          "type": "uint256"
        }
      ],
      "stateMutability": "nonpayable",
      "type": "function"
    },
    {
      "inputs": [],
      "name": "collateral",
      "outputs": [
        {
          "internalType": "address",
          "name": "",
          "type": "address"
        }
      ],
      "stateMutability": "view",
      "type": "function"
    },
    {
      "inputs": [],
      "name": "collateralIdx",
      "outputs": [
        {
          "internalType": "uint256",
          "name": "",
          "type": "uint256"
        }
      ],
      "stateMutability": "view",
      "type": "function"
    },
    {
      "inputs": [],
      "name": "collateralToken",
      "outputs": [
        {
          "internalType": "contract IERC20",
          "name": "",
          "type": "address"
        }
      ],
      "stateMutability": "view",
      "type": "function"
    },
    {
      "inputs": [],
      "name": "crvGauge",
      "outputs": [
        {
          "internalType": "contract ILiquidityGaugeV2",
          "name": "",
          "type": "address"
        }
      ],
      "stateMutability": "view",
      "type": "function"
    },
    {
      "inputs": [],
      "name": "crvLp",
      "outputs": [
        {
          "internalType": "contract IERC20",
          "name": "",
          "type": "address"
        }
      ],
      "stateMutability": "view",
      "type": "function"
    },
    {
      "inputs": [],
      "name": "crvPool",
      "outputs": [
        {
          "internalType": "address",
          "name": "",
          "type": "address"
        }
      ],
      "stateMutability": "view",
      "type": "function"
    },
    {
      "inputs": [],
      "name": "crvSlippage",
      "outputs": [
        {
          "internalType": "uint256",
          "name": "",
          "type": "uint256"
        }
      ],
      "stateMutability": "view",
      "type": "function"
    },
    {
      "inputs": [],
      "name": "curvePoolType",
      "outputs": [
        {
          "internalType": "enum CurveBase.PoolType",
          "name": "",
          "type": "uint8"
        }
      ],
      "stateMutability": "view",
      "type": "function"
    },
    {
      "inputs": [],
      "name": "feeCollector",
      "outputs": [
        {
          "internalType": "address",
          "name": "",
          "type": "address"
        }
      ],
      "stateMutability": "view",
      "type": "function"
    },
    {
      "inputs": [],
      "name": "getRewardTokens",
      "outputs": [
        {
          "internalType": "address[]",
          "name": "",
          "type": "address[]"
        }
      ],
      "stateMutability": "view",
      "type": "function"
    },
    {
      "inputs": [
        {
          "internalType": "address",
          "name": "token_",
          "type": "address"
        }
      ],
      "name": "isReservedToken",
      "outputs": [
        {
          "internalType": "bool",
          "name": "",
          "type": "bool"
        }
      ],
      "stateMutability": "view",
      "type": "function"
    },
    {
      "inputs": [],
      "name": "keepers",
      "outputs": [
        {
          "internalType": "address[]",
          "name": "",
          "type": "address[]"
        }
      ],
      "stateMutability": "view",
      "type": "function"
    },
    {
      "inputs": [],
      "name": "lpBalanceHere",
      "outputs": [
        {
          "internalType": "uint256",
          "name": "_lpHere",
          "type": "uint256"
        }
      ],
      "stateMutability": "view",
      "type": "function"
    },
    {
      "inputs": [],
      "name": "lpBalanceHereAndStaked",
      "outputs": [
        {
          "internalType": "uint256",
          "name": "_lpHereAndStaked",
          "type": "uint256"
        }
      ],
      "stateMutability": "view",
      "type": "function"
    },
    {
      "inputs": [],
      "name": "lpBalanceStaked",
      "outputs": [
        {
          "internalType": "uint256",
          "name": "_lpStaked",
          "type": "uint256"
        }
      ],
      "stateMutability": "view",
      "type": "function"
    },
    {
      "inputs": [],
      "name": "masterOracle",
      "outputs": [
        {
          "internalType": "contract IMasterOracle",
          "name": "",
          "type": "address"
        }
      ],
      "stateMutability": "view",
      "type": "function"
    },
    {
      "inputs": [
        {
          "internalType": "address",
          "name": "_newStrategy",
          "type": "address"
        }
      ],
      "name": "migrate",
      "outputs": [],
      "stateMutability": "nonpayable",
      "type": "function"
    },
    {
      "inputs": [],
      "name": "pool",
      "outputs": [
        {
          "internalType": "address",
          "name": "",
          "type": "address"
        }
      ],
      "stateMutability": "view",
      "type": "function"
    },
    {
      "inputs": [],
      "name": "rebalance",
      "outputs": [
        {
          "internalType": "uint256",
          "name": "_profit",
          "type": "uint256"
        },
        {
          "internalType": "uint256",
          "name": "_loss",
          "type": "uint256"
        },
        {
          "internalType": "uint256",
          "name": "_payback",
          "type": "uint256"
        }
      ],
      "stateMutability": "nonpayable",
      "type": "function"
    },
    {
      "inputs": [],
      "name": "receiptToken",
      "outputs": [
        {
          "internalType": "address",
          "name": "",
          "type": "address"
        }
      ],
      "stateMutability": "view",
      "type": "function"
    },
    {
      "inputs": [],
      "name": "refetchRewardTokens",
      "outputs": [],
      "stateMutability": "nonpayable",
      "type": "function"
    },
    {
      "inputs": [
        {
          "internalType": "address",
          "name": "_keeperAddress",
          "type": "address"
        }
      ],
      "name": "removeKeeper",
      "outputs": [],
      "stateMutability": "nonpayable",
      "type": "function"
    },
    {
      "inputs": [
        {
          "internalType": "uint256",
          "name": "",
          "type": "uint256"
        }
      ],
      "name": "rewardTokens",
      "outputs": [
        {
          "internalType": "address",
          "name": "",
          "type": "address"
        }
      ],
      "stateMutability": "view",
      "type": "function"
    },
    {
      "inputs": [
        {
          "internalType": "contract IERC20",
          "name": "_tokenIn",
          "type": "address"
        },
        {
          "internalType": "uint256",
          "name": "_minAmountOut",
          "type": "uint256"
        }
      ],
      "name": "swapToCollateral",
      "outputs": [
        {
          "internalType": "uint256",
          "name": "_amountOut",
          "type": "uint256"
        }
      ],
      "stateMutability": "nonpayable",
      "type": "function"
    },
    {
      "inputs": [],
      "name": "swapper",
      "outputs": [
        {
          "internalType": "contract IRoutedSwapper",
          "name": "",
          "type": "address"
        }
      ],
      "stateMutability": "view",
      "type": "function"
    },
    {
      "inputs": [
        {
          "internalType": "address",
          "name": "_fromToken",
          "type": "address"
        }
      ],
      "name": "sweep",
      "outputs": [],
      "stateMutability": "nonpayable",
      "type": "function"
    },
    {
      "inputs": [],
      "name": "token",
      "outputs": [
        {
          "internalType": "address",
          "name": "",
          "type": "address"
        }
      ],
      "stateMutability": "view",
      "type": "function"
    },
    {
      "inputs": [],
      "name": "tvl",
      "outputs": [
        {
          "internalType": "uint256",
          "name": "",
          "type": "uint256"
        }
      ],
      "stateMutability": "view",
      "type": "function"
    },
    {
      "inputs": [
        {
          "internalType": "uint256",
          "name": "newCrvSlippage_",
          "type": "uint256"
        }
      ],
      "name": "updateCrvSlippage",
      "outputs": [],
      "stateMutability": "nonpayable",
      "type": "function"
    },
    {
      "inputs": [
        {
          "internalType": "address",
          "name": "_feeCollector",
          "type": "address"
        }
      ],
      "name": "updateFeeCollector",
      "outputs": [],
      "stateMutability": "nonpayable",
      "type": "function"
    },
    {
      "inputs": [
        {
          "internalType": "contract IMasterOracle",
          "name": "newMasterOracle_",
          "type": "address"
        }
      ],
      "name": "updateMasterOracle",
      "outputs": [],
      "stateMutability": "nonpayable",
      "type": "function"
    },
    {
      "inputs": [
        {
          "internalType": "contract IRoutedSwapper",
          "name": "_swapper",
          "type": "address"
        }
      ],
      "name": "updateSwapper",
      "outputs": [],
      "stateMutability": "nonpayable",
      "type": "function"
    },
    {
      "inputs": [
        {
          "internalType": "uint256",
          "name": "_amount",
          "type": "uint256"
        }
      ],
      "name": "withdraw",
      "outputs": [],
      "stateMutability": "nonpayable",
      "type": "function"
    },
    {
      "stateMutability": "payable",
      "type": "receive"
    }
  ],
  "transactionHash": "0x394374be5fd039227eaca4e58a63df785e679de4ab8fbc82ac6b5e1de4ff201e",
  "args": [
    "0xCcF3d1AcF799bAe67F6e354d685295557cf64761",
    "0xb90b9b1f91a01ea22a182cd84c1e22222e39b415",
    0,
    "0x0000000000000000000000000000000000000000",
    "0x0994206dfE8De6Ec6920FF4D779B0d950605Fb53",
    100,
    "0x0aac835162D368F246dc71628AfcD6d2930c47d3",
    "0x017CBF62b53313d5eE3aD1288daA95CD39AA11fE",
    0,
    "Curve_wstETH_ETH",
    "0x4200000000000000000000000000000000000006"
  ],
  "numDeployments": 1,
  "solcInputHash": "3f8b58d6fa2751bfd58a5d56c5d335b8",
  "bytecode": "0x6101e06040523480156200001257600080fd5b506040516200754138038062007541833981016040819052620000359162001395565b8a8a8a8a8a8a8a8a8a8a89898989898989898989898360006001600160a01b038316620000a95760405162461bcd60e51b815260206004820152601460248201527f706f6f6c2d616464726573732d69732d7a65726f00000000000000000000000060448201526064015b60405180910390fd5b6001600160a01b038216620001015760405162461bcd60e51b815260206004820152601760248201527f737761707065722d616464726573732d69732d7a65726f0000000000000000006044820152606401620000a0565b600280546001600160a01b0319166001600160a01b0384811691909117909155831660a081905260408051637e062a3560e11b8152905163fc0c546a91600480820192602092909190829003018186803b1580156200015f57600080fd5b505afa15801562000174573d6000803e3d6000fd5b505050506040513d601f19601f820116820180604052508101906200019a919062001487565b6001600160a01b03908116608052600080546001600160a01b031916918316919091179055620001e1620001cb3390565b600362000c6360201b620026b61790919060201c565b620002235760405162461bcd60e51b81526020600482015260116024820152701859190b5ad9595c195c8b59985a5b1959607a1b6044820152606401620000a0565b5050506001600160a01b038616620002725760405162461bcd60e51b815260206004820152601160248201527018dc9d8b5d1bdad95b8b5a5ccb5b9d5b1b607a1b6044820152606401620000a0565b6000806f22d53366457f9d5e68ec105046fc43836001600160a01b031663a262904b6040518163ffffffff1660e01b815260040160206040518083038186803b158015620002bf57600080fd5b505afa158015620002d4573d6000803e3d6000fd5b505050506040513d601f19601f82011682018060405250810190620002fa919062001487565b604051633795104960e01b81526001600160a01b038d8116600483015291925060009183169063379510499060240160206040518083038186803b1580156200034257600080fd5b505afa15801562000357573d6000803e3d6000fd5b505050506040513d601f19601f820116820180604052508101906200037d919062001487565b90506001600160a01b038116156200057e5760405163940494f160e01b81526001600160a01b038d8116600483015283169063940494f190602401604080518083038186803b158015620003d057600080fd5b505afa158015620003e5573d6000803e3d6000fd5b505050506040513d601f19601f820116820180604052508101906200040b9190620014ae565b602001518510620004545760405162461bcd60e51b81526020600482015260126024820152711a5b9d985b1a590b58dbdb1b185d195c985b60721b6044820152606401620000a0565b60405163a77576ef60e01b81526001600160a01b038d81166004830152620004f7919084169063a77576ef906024016101006040518083038186803b1580156200049d57600080fd5b505afa158015620004b2573d6000803e3d6000fd5b505050506040513d601f19601f82011682018060405250810190620004d891906200154b565b8660088110620004ec57620004ec62001535565b602002015162000c83565b6040516356059ffb60e01b81526001600160a01b038d811660048301528316906356059ffb906024016101406040518083038186803b1580156200053a57600080fd5b505afa1580156200054f573d6000803e3d6000fd5b505050506040513d601f19601f82011682018060405250810190620005759190620015dc565b519250620009cb565b60405163124fd3dd60e21b8152600360048201526000906f22d53366457f9d5e68ec105046fc43839063493f4f749060240160206040518083038186803b158015620005c957600080fd5b505afa158015620005de573d6000803e3d6000fd5b505050506040513d601f19601f8201168201806040525081019062000604919062001487565b60405163e4d332a960e01b81526001600160a01b038f811660048301529192509082169063e4d332a99060240160206040518083038186803b1580156200064a57600080fd5b505afa1580156200065f573d6000803e3d6000fd5b505050506040513d601f19601f8201168201806040525081019062000685919062001662565b15620007ee5760405163eb73f37d60e01b81526001600160a01b038e8116600483015282169063eb73f37d90602401604080518083038186803b158015620006cc57600080fd5b505afa158015620006e1573d6000803e3d6000fd5b505050506040513d601f19601f82011682018060405250810190620007079190620014ae565b602001518610620007505760405162461bcd60e51b81526020600482015260126024820152711a5b9d985b1a590b58dbdb1b185d195c985b60721b6044820152606401620000a0565b60405163a77576ef60e01b81526001600160a01b038e81166004830152620007e8919083169063a77576ef906024016101006040518083038186803b1580156200079957600080fd5b505afa158015620007ae573d6000803e3d6000fd5b505050506040513d601f19601f82011682018060405250810190620007d491906200154b565b8760088110620004ec57620004ec62001535565b62000947565b60405163940494f160e01b81526001600160a01b038e8116600483015282169063940494f19060240160206040518083038186803b1580156200083057600080fd5b505afa15801562000845573d6000803e3d6000fd5b505050506040513d601f19601f820116820180604052508101906200086b919062001686565b8610620008b05760405162461bcd60e51b81526020600482015260126024820152711a5b9d985b1a590b58dbdb1b185d195c985b60721b6044820152606401620000a0565b604051639ac90d3d60e01b81526001600160a01b038e81166004830152620009479190831690639ac90d3d9060240160806040518083038186803b158015620008f857600080fd5b505afa1580156200090d573d6000803e3d6000fd5b505050506040513d601f19601f82011682018060405250810190620009339190620016a0565b8760048110620004ec57620004ec62001535565b60405163daf297b960e01b81526001600160a01b03808f1660048301528e935082169063daf297b99060240160206040518083038186803b1580156200098c57600080fd5b505afa158015620009a1573d6000803e3d6000fd5b505050506040513d601f19601f82011682018060405250810190620009c7919062001487565b9350505b6001600160a01b038c1662000a125760405162461bcd60e51b815260206004820152600c60248201526b1c1bdbdb0b5a5ccb5b9d5b1b60a21b6044820152606401620000a0565b6001600160a01b03811662000a575760405162461bcd60e51b815260206004820152600a6024820152691b1c0b5a5ccb5b9d5b1b60b21b6044820152606401620000a0565b6001600160a01b03831662000af857604051632ecae32f60e11b81526001600160a01b038216600482015273abc000d88f23bb45525e447528dbf656a9d55bf590635d95c65e9060240160206040518083038186803b15801562000aba57600080fd5b505afa15801562000acf573d6000803e3d6000fd5b505050506040513d601f19601f8201168201806040525081019062000af5919062001487565b92505b6001600160a01b03831662000b405760405162461bcd60e51b815260206004820152600d60248201526c19d85d59d94b5a5ccb5b9d5b1b609a1b6044820152606401620000a0565b6001600160a01b03808a1660c0528c81166101005281811660e0819052908416610120526006899055600080546001600160a01b03191690911790556101408590528a600781111562000b975762000b9762001725565b61018081600781111562000baf5762000baf62001725565b9052506001600160a01b038c8116828216146101a0528a811661016052600780546001600160a01b031916918916919091179055835162000bf890600590602087019062001185565b505050505050505050505050505062000c1662000d1360201b60201c565b805162000c2c9160089160209091019062001210565b5050505050505050505050806001600160a01b03166101c0816001600160a01b0316815250505050505050505050505050620017c7565b600062000c7a836001600160a01b03841662001133565b90505b92915050565b6080516001600160a01b0316816001600160a01b0316148062000cc257506001600160a01b03811673eeeeeeeeeeeeeeeeeeeeeeeeeeeeeeeeeeeeeeee145b62000d105760405162461bcd60e51b815260206004820152601360248201527f636f6c6c61746572616c2d6d69736d61746368000000000000000000000000006044820152606401620000a0565b50565b6040805160018082528183019092526060916020808301908036833701905050905060c0518160008151811062000d4e5762000d4e62001535565b6001600160a01b039283166020918202929092010152610120511662000d715790565b610120516001600160a01b03166316fa50b16040518163ffffffff1660e01b815260040160206040518083038186803b15801562000dae57600080fd5b505afa92505050801562000de1575060408051601f3d908101601f1916820190925262000dde9181019062001487565b60015b62000dec5762000e90565b60025b60405190808252806020026020018201604052801562000e19578160200160208202803683370190505b50915060c0518260008151811062000e355762000e3562001535565b60200260200101906001600160a01b031690816001600160a01b031681525050808260018151811062000e6c5762000e6c62001535565b60200260200101906001600160a01b031690816001600160a01b0316815250505090565b610120516040516354c49fe960e01b8152600060048201526001600160a01b03909116906354c49fe99060240160206040518083038186803b15801562000ed657600080fd5b505afa92505050801562000f09575060408051601f3d908101601f1916820190925262000f069181019062001487565b60015b62000f115790565b6001600160a01b03811662000f24575090565b610120516001600160a01b031663963c94b96040518163ffffffff1660e01b815260040160206040518083038186803b15801562000f6157600080fd5b505afa92505050801562000f94575060408051601f3d908101601f1916820190925262000f919181019062001686565b60015b62000fa157600262000def565b62000fae81600162001751565b6001600160401b0381111562000fc85762000fc8620012b7565b60405190808252806020026020018201604052801562000ff2578160200160208202803683370190505b50925081836000815181106200100c576200100c62001535565b6001600160a01b039092166020928302919091019091015260015b81811015620010f157610120516040516354c49fe960e01b8152600481018390526001600160a01b03909116906354c49fe99060240160206040518083038186803b1580156200107657600080fd5b505afa1580156200108b573d6000803e3d6000fd5b505050506040513d601f19601f82011682018060405250810190620010b1919062001487565b848281518110620010c657620010c662001535565b6001600160a01b0390921660209283029190910190910152620010e9816200176c565b905062001027565b5060c0518382815181106200110a576200110a62001535565b60200260200101906001600160a01b031690816001600160a01b031681525050505090565b5090565b60008181526001830160205260408120546200117c5750815460018181018455600084815260208082209093018490558454848252828601909352604090209190915562000c7d565b50600062000c7d565b82805462001193906200178a565b90600052602060002090601f016020900481019282620011b7576000855562001202565b82601f10620011d257805160ff191683800117855562001202565b8280016001018555821562001202579182015b8281111562001202578251825591602001919060010190620011e5565b506200112f92915062001268565b82805482825590600052602060002090810192821562001202579160200282015b828111156200120257825182546001600160a01b0319166001600160a01b0390911617825560209092019160019091019062001231565b5b808211156200112f576000815560010162001269565b6001600160a01b038116811462000d1057600080fd5b8051620012a2816200127f565b919050565b805160088110620012a257600080fd5b634e487b7160e01b600052604160045260246000fd5b604051601f8201601f191681016001600160401b0381118282101715620012f857620012f8620012b7565b604052919050565b600082601f8301126200131257600080fd5b81516001600160401b038111156200132e576200132e620012b7565b602062001344601f8301601f19168201620012cd565b82815285828487010111156200135957600080fd5b60005b83811015620013795785810183015182820184015282016200135c565b838111156200138b5760008385840101525b5095945050505050565b60008060008060008060008060008060006101608c8e031215620013b857600080fd5b8b51620013c5816200127f565b60208d0151909b50620013d8816200127f565b9950620013e860408d01620012a7565b9850620013f860608d0162001295565b97506200140860808d0162001295565b965060a08c015195506200141f60c08d0162001295565b94506200142f60e08d0162001295565b6101008d01516101208e015191955093506001600160401b038111156200145557600080fd5b620014638e828f0162001300565b925050620014756101408d0162001295565b90509295989b509295989b9093969950565b6000602082840312156200149a57600080fd5b8151620014a7816200127f565b9392505050565b600060408284031215620014c157600080fd5b82601f830112620014d157600080fd5b604080519081016001600160401b0381118282101715620014f657620014f6620012b7565b80604052508060408401858111156200150e57600080fd5b845b818110156200152a57805183526020928301920162001510565b509195945050505050565b634e487b7160e01b600052603260045260246000fd5b60006101008083850312156200156057600080fd5b83601f8401126200157057600080fd5b6040518181016001600160401b0381118282101715620015945762001594620012b7565b604052908301908085831115620015aa57600080fd5b845b83811015620015d1578051620015c2816200127f565b825260209182019101620015ac565b509095945050505050565b6000610140808385031215620015f157600080fd5b83601f8401126200160157600080fd5b6040518181016001600160401b0381118282101715620016255762001625620012b7565b6040529083019080858311156200163b57600080fd5b845b83811015620015d157805162001653816200127f565b8252602091820191016200163d565b6000602082840312156200167557600080fd5b81518015158114620014a757600080fd5b6000602082840312156200169957600080fd5b5051919050565b600060808284031215620016b357600080fd5b82601f830112620016c357600080fd5b604051608081016001600160401b0381118282101715620016e857620016e8620012b7565b604052806080840185811115620016fe57600080fd5b845b818110156200152a57805162001716816200127f565b83526020928301920162001700565b634e487b7160e01b600052602160045260246000fd5b634e487b7160e01b600052601160045260246000fd5b600082198211156200176757620017676200173b565b500190565b60006000198214156200178357620017836200173b565b5060010190565b600181811c908216806200179f57607f821691505b60208210811415620017c157634e487b7160e01b600052602260045260246000fd5b50919050565b60805160a05160c05160e05161010051610120516101405161016051610180516101a0516101c05161598f62001bb2600039600081816102d201528181610378015281816107c601526149eb015260008181613514015281816140f80152614ea30152600081816104440152818161349f015281816134da015281816135e80152818161362301528181613f2b01528181613f6601528181613fac01528181613ff1015281816140360152818161407b015281816140c001528181614ccd01528181614d1201528181614d5701528181614d9c01528181614de101528181614e260152614e6b015260008181612bb901528181612c1501528181612c690152818161355a015281816136aa015281816149100152818161499e01528181615256015281816152f201526153b00152600081816105fc01528181612221015281816129b70152818161431401528181614f6a0152818161503e015281816150dd0152818161517901528181615218015281816152b401526153720152600081816109fd01528181611a5501528181612b9201528181612cfc01528181612d2501528181612e8601528181612f1b0152818161304901528181613a8e01528181613b2001528181613bd001528181613c4901528181613e6e015281816146ad0152614b120152600081816102a0015281816103500152818161082e01528181612ab7015281816136f90152818161481a015281816148b201528181614fa80152818161507c0152818161511b015281816151b70152818161532701526153e50152600081816106fa01528181611539015281816116e10152818161218201528181612b7001528181612c47015281816133070152818161367101528181613edf0152818161495e01528181614a720152614ca201526000818161072e01528181612cb201528181612de601526131080152600081816104dc01528181610ca401528181610ffb01528181611132015281816112790152818161134e01528181611401015281816115b00152818161189501528181611a8f01528181611b5c01528181611d8701528181611f760152818161319b015281816141a9015281816141f401526142910152600081816107fa0152818161091f01528181610afc01528181610e7b01528181610f1e015281816111bf01528181611257015281816112c5015281816113810152818161157401528181611d0b0152818161225f015281816122e8015281816123cd0152818161259b015281816125d90152818161296301528181612a9501528181612ae901528181612bf30152818161321601528181613f00015281816141870152818161438b015281816144ca015281816145a90152614c81015261598f6000f3fe6080604052600436106102905760003560e01c8063951dc22c11610164578063d3033c39116100c6578063eaada3821161008a578063fc0c546a11610064578063fc0c546a146109cd578063fd57a4df146109eb578063ffa1ad7414610a1f57600080fd5b8063eaada3821461096d578063ec78e8321461098d578063ee330ee3146109ad57600080fd5b8063d3033c39146108da578063d572fd7f146108fa578063d8dfeb4514610910578063de603fdc14610943578063e5328e061461095857600080fd5b8063b20fdc0d11610128578063c965fa8a11610102578063c965fa8a14610885578063ce5494bb1461089a578063d2c35ce8146108ba57600080fd5b8063b20fdc0d1461081c578063c415b95c14610850578063c4f59f9b1461087057600080fd5b8063951dc22c14610750578063a3f4df7e14610772578063abc9b45e14610794578063ad5c4648146107b4578063b2016bd4146107e857600080fd5b80634032b72b1161020d5780637752e194116101d15780637d7c2a1c116101ab5780637d7c2a1c146106b85780637f44579b146106e8578063945c91421461071c57600080fd5b80637752e1941461066e578063795dae66146106835780637bb7bed11461069857600080fd5b80634032b72b1461059a578063440d7248146105ba57806348cd2ddd146105ea5780634a2b9e071461061e57806374db9ad41461064657600080fd5b806316f0115b1161025457806316f0115b146104ca5780631848effa146105165780632b3297f91461053a5780632e1a7d4d1461055a5780633ac9fc111461057a57600080fd5b806301681a62146103f257806304f4efc51461041257806306beb80a146104325780631026013a1461047c57806314ae9f2e146104aa57600080fd5b366103ed57336001600160a01b037f00000000000000000000000000000000000000000000000000000000000000001614806102f45750336001600160a01b037f000000000000000000000000000000000000000000000000000000000000000016145b6103455760405162461bcd60e51b815260206004820152601960248201527f6e6f742d616c6c6f7765642d746f2d73656e642d65746865720000000000000060448201526064015b60405180910390fd5b336001600160a01b037f00000000000000000000000000000000000000000000000000000000000000001614156103eb577f00000000000000000000000000000000000000000000000000000000000000006001600160a01b031663d0e30db0476040518263ffffffff1660e01b81526004016000604051808303818588803b1580156103d157600080fd5b505af11580156103e5573d6000803e3d6000fd5b50505050505b005b600080fd5b3480156103fe57600080fd5b506103eb61040d366004615509565b610a50565b34801561041e57600080fd5b506103eb61042d366004615526565b610ca2565b34801561043e57600080fd5b506104667f000000000000000000000000000000000000000000000000000000000000000081565b6040516104739190615555565b60405180910390f35b34801561048857600080fd5b5061049c610497366004615526565b610e13565b604051908152602001610473565b3480156104b657600080fd5b506103eb6104c5366004615509565b610ff9565b3480156104d657600080fd5b506104fe7f000000000000000000000000000000000000000000000000000000000000000081565b6040516001600160a01b039091168152602001610473565b34801561052257600080fd5b506104fe6f22d53366457f9d5e68ec105046fc438381565b34801561054657600080fd5b506002546104fe906001600160a01b031681565b34801561056657600080fd5b506103eb610575366004615526565b61112f565b34801561058657600080fd5b506103eb610595366004615526565b6113a8565b3480156105a657600080fd5b506103eb6105b5366004615509565b6113ff565b3480156105c657600080fd5b506105da6105d5366004615509565b611535565b6040519015158152602001610473565b3480156105f657600080fd5b5061049c7f000000000000000000000000000000000000000000000000000000000000000081565b34801561062a57600080fd5b506104fe73abc000d88f23bb45525e447528dbf656a9d55bf581565b34801561065257600080fd5b506104fe73d061d61a4d941c39e5453435b6345dc261c2fce081565b34801561067a57600080fd5b506103eb6115ae565b34801561068f57600080fd5b5061049c6116c9565b3480156106a457600080fd5b506104fe6106b3366004615526565b611769565b3480156106c457600080fd5b506106cd611793565b60408051938452602084019290925290820152606001610473565b3480156106f457600080fd5b506104fe7f000000000000000000000000000000000000000000000000000000000000000081565b34801561072857600080fd5b506104fe7f000000000000000000000000000000000000000000000000000000000000000081565b34801561075c57600080fd5b506107656117f9565b604051610473919061557d565b34801561077e57600080fd5b50610787611805565b60405161047391906155f6565b3480156107a057600080fd5b506103eb6107af366004615509565b611893565b3480156107c057600080fd5b506104fe7f000000000000000000000000000000000000000000000000000000000000000081565b3480156107f457600080fd5b506104fe7f000000000000000000000000000000000000000000000000000000000000000081565b34801561082857600080fd5b506104fe7f000000000000000000000000000000000000000000000000000000000000000081565b34801561085c57600080fd5b506001546104fe906001600160a01b031681565b34801561087c57600080fd5b506107656119db565b34801561089157600080fd5b5061049c611a3d565b3480156108a657600080fd5b506103eb6108b5366004615509565b611a8c565b3480156108c657600080fd5b506103eb6108d5366004615509565b611d85565b3480156108e657600080fd5b506103eb6108f5366004615509565b611f74565b34801561090657600080fd5b5061049c60065481565b34801561091c57600080fd5b507f00000000000000000000000000000000000000000000000000000000000000006104fe565b34801561094f57600080fd5b5061049c612163565b34801561096457600080fd5b5061049c61220f565b34801561097957600080fd5b506007546104fe906001600160a01b031681565b34801561099957600080fd5b506000546104fe906001600160a01b031681565b3480156109b957600080fd5b5061049c6109c8366004615629565b612296565b3480156109d957600080fd5b506000546001600160a01b03166104fe565b3480156109f757600080fd5b506104fe7f000000000000000000000000000000000000000000000000000000000000000081565b348015610a2b57600080fd5b50610787604051806040016040528060058152602001640352e312e360dc1b81525081565b610a5d335b6003906126d2565b610aa25760405162461bcd60e51b815260206004820152601660248201527531b0b63632b916b4b996b737ba16b096b5b2b2b832b960511b604482015260640161033c565b6001546001600160a01b0316610afa5760405162461bcd60e51b815260206004820152601560248201527f6665652d636f6c6c6563746f722d6e6f742d7365740000000000000000000000604482015260640161033c565b7f00000000000000000000000000000000000000000000000000000000000000006001600160a01b0316816001600160a01b03161415610b7c5760405162461bcd60e51b815260206004820152601f60248201527f6e6f742d616c6c6f7765642d746f2d73776565702d636f6c6c61746572616c00604482015260640161033c565b610b8581611535565b15610bc95760405162461bcd60e51b815260206004820152601460248201527306e6f742d616c6c6f7765642d746f2d73776565760641b604482015260640161033c565b6001600160a01b03811673eeeeeeeeeeeeeeeeeeeeeeeeeeeeeeeeeeeeeeee1415610c0757600154610c04906001600160a01b0316476126f4565b50565b6040516370a0823160e01b81523060048201526000906001600160a01b038316906370a082319060240160206040518083038186803b158015610c4957600080fd5b505afa158015610c5d573d6000803e3d6000fd5b505050506040513d601f19601f82011682018060405250810190610c819190615655565b600154909150610c9e906001600160a01b03848116911683612812565b5050565b7f00000000000000000000000000000000000000000000000000000000000000006001600160a01b0316630c340a246040518163ffffffff1660e01b815260040160206040518083038186803b158015610cfb57600080fd5b505afa158015610d0f573d6000803e3d6000fd5b505050506040513d601f19601f82011682018060405250810190610d33919061566e565b6001600160a01b0316336001600160a01b031614610d815760405162461bcd60e51b815260206004820152601a602482015260008051602061593a833981519152604482015260640161033c565b6127108110610dd25760405162461bcd60e51b815260206004820152601660248201527f696e76616c69642d736c6970706167652d76616c756500000000000000000000604482015260640161033c565b60065460408051918252602082018390527f43a94473b3422f31e660358900c02b907f22142a3224beace1f2b9f1fa079a9e910160405180910390a1600655565b6000610e1e33610a55565b610e635760405162461bcd60e51b815260206004820152601660248201527531b0b63632b916b4b996b737ba16b096b5b2b2b832b960511b604482015260640161033c565b6040516370a0823160e01b81523060048201526000907f00000000000000000000000000000000000000000000000000000000000000006001600160a01b0316906370a082319060240160206040518083038186803b158015610ec557600080fd5b505afa158015610ed9573d6000803e3d6000fd5b505050506040513d601f19601f82011682018060405250810190610efd9190615655565b9050610f076128a2565b6040516370a0823160e01b815230600482015281907f00000000000000000000000000000000000000000000000000000000000000006001600160a01b0316906370a082319060240160206040518083038186803b158015610f6857600080fd5b505afa158015610f7c573d6000803e3d6000fd5b505050506040513d601f19601f82011682018060405250810190610fa09190615655565b610faa91906156a1565b915082821015610ff35760405162461bcd60e51b81526020600482015260146024820152731b9bdd0b595b9bdd59da0b585b5bdd5b9d13dd5d60621b604482015260640161033c565b50919050565b7f00000000000000000000000000000000000000000000000000000000000000006001600160a01b0316630c340a246040518163ffffffff1660e01b815260040160206040518083038186803b15801561105257600080fd5b505afa158015611066573d6000803e3d6000fd5b505050506040513d601f19601f8201168201806040525081019061108a919061566e565b6001600160a01b0316336001600160a01b0316146110d85760405162461bcd60e51b815260206004820152601a602482015260008051602061593a833981519152604482015260640161033c565b6110e360038261299b565b610c045760405162461bcd60e51b815260206004820152601460248201527f72656d6f76652d6b65657065722d6661696c6564000000000000000000000000604482015260640161033c565b337f00000000000000000000000000000000000000000000000000000000000000006001600160a01b0316146111a75760405162461bcd60e51b815260206004820152601960248201527f63616c6c65722d69732d6e6f742d7665737065722d706f6f6c00000000000000604482015260640161033c565b6040516370a0823160e01b81523060048201526000907f00000000000000000000000000000000000000000000000000000000000000006001600160a01b0316906370a082319060240160206040518083038186803b15801561120957600080fd5b505afa15801561121d573d6000803e3d6000fd5b505050506040513d601f19601f820116820180604052508101906112419190615655565b905081811061129e57610c9e6001600160a01b037f0000000000000000000000000000000000000000000000000000000000000000167f000000000000000000000000000000000000000000000000000000000000000084612812565b6112b06112ab82846156a1565b6129b0565b6040516370a0823160e01b81523060048201527f00000000000000000000000000000000000000000000000000000000000000006001600160a01b0316906370a082319060240160206040518083038186803b15801561130f57600080fd5b505afa158015611323573d6000803e3d6000fd5b505050506040513d601f19601f820116820180604052508101906113479190615655565b9050610c9e7f00000000000000000000000000000000000000000000000000000000000000006113778484612a61565b6001600160a01b037f0000000000000000000000000000000000000000000000000000000000000000169190612812565b6113b133610a55565b6113f65760405162461bcd60e51b815260206004820152601660248201527531b0b63632b916b4b996b737ba16b096b5b2b2b832b960511b604482015260640161033c565b610c0481612a77565b7f00000000000000000000000000000000000000000000000000000000000000006001600160a01b0316630c340a246040518163ffffffff1660e01b815260040160206040518083038186803b15801561145857600080fd5b505afa15801561146c573d6000803e3d6000fd5b505050506040513d601f19601f82011682018060405250810190611490919061566e565b6001600160a01b0316336001600160a01b0316146114de5760405162461bcd60e51b815260206004820152601a602482015260008051602061593a833981519152604482015260640161033c565b6114e96003826126b6565b610c045760405162461bcd60e51b815260206004820152601160248201527f6164642d6b65657065722d6661696c6564000000000000000000000000000000604482015260640161033c565b60007f00000000000000000000000000000000000000000000000000000000000000006001600160a01b0316826001600160a01b031614806115a857507f00000000000000000000000000000000000000000000000000000000000000006001600160a01b0316826001600160a01b0316145b92915050565b7f00000000000000000000000000000000000000000000000000000000000000006001600160a01b0316630c340a246040518163ffffffff1660e01b815260040160206040518083038186803b15801561160757600080fd5b505afa15801561161b573d6000803e3d6000fd5b505050506040513d601f19601f8201168201806040525081019061163f919061566e565b6001600160a01b0316336001600160a01b03161461168d5760405162461bcd60e51b815260206004820152601a602482015260008051602061593a833981519152604482015260640161033c565b6116956128a2565b61169d612c8e565b80516116b191600891602090910190615424565b506116bc6000612a77565b6116c7600019612a77565b565b6040516370a0823160e01b81523060048201526000907f00000000000000000000000000000000000000000000000000000000000000006001600160a01b0316906370a08231906024015b60206040518083038186803b15801561172c57600080fd5b505afa158015611740573d6000803e3d6000fd5b505050506040513d601f19601f820116820180604052508101906117649190615655565b905090565b6008818154811061177957600080fd5b6000918252602090912001546001600160a01b0316905081565b600080806117a033610a55565b6117e55760405162461bcd60e51b815260206004820152601660248201527531b0b63632b916b4b996b737ba16b096b5b2b2b832b960511b604482015260640161033c565b6117ed613162565b9250925092505b909192565b60606117646003613207565b60058054611812906156b8565b80601f016020809104026020016040519081016040528092919081815260200182805461183e906156b8565b801561188b5780601f106118605761010080835404028352916020019161188b565b820191906000526020600020905b81548152906001019060200180831161186e57829003601f168201915b505050505081565b7f00000000000000000000000000000000000000000000000000000000000000006001600160a01b0316630c340a246040518163ffffffff1660e01b815260040160206040518083038186803b1580156118ec57600080fd5b505afa158015611900573d6000803e3d6000fd5b505050506040513d601f19601f82011682018060405250810190611924919061566e565b6001600160a01b0316336001600160a01b0316146119725760405162461bcd60e51b815260206004820152601a602482015260008051602061593a833981519152604482015260640161033c565b600754604080516001600160a01b03928316815291831660208301527fc96bca3f57d35a1057a3357bced51fac157918147faa56845639671c516ec69c910160405180910390a1600780546001600160a01b0319166001600160a01b0392909216919091179055565b60606008805480602002602001604051908101604052809291908181526020018280548015611a3357602002820191906000526020600020905b81546001600160a01b03168152600190910190602001808311611a15575b5050505050905090565b6040516370a0823160e01b81523060048201526000907f00000000000000000000000000000000000000000000000000000000000000006001600160a01b0316906370a0823190602401611714565b337f00000000000000000000000000000000000000000000000000000000000000006001600160a01b031614611b045760405162461bcd60e51b815260206004820152601960248201527f63616c6c65722d69732d6e6f742d7665737065722d706f6f6c00000000000000604482015260640161033c565b6001600160a01b038116611b5a5760405162461bcd60e51b815260206004820152601c60248201527f6e65772d73747261746567792d616464726573732d69732d7a65726f00000000604482015260640161033c565b7f00000000000000000000000000000000000000000000000000000000000000006001600160a01b0316816001600160a01b03166316f0115b6040518163ffffffff1660e01b815260040160206040518083038186803b158015611bbd57600080fd5b505afa158015611bd1573d6000803e3d6000fd5b505050506040513d601f19601f82011682018060405250810190611bf5919061566e565b6001600160a01b031614611c4b5760405162461bcd60e51b815260206004820152601660248201527f6e6f742d76616c69642d6e65772d737472617465677900000000000000000000604482015260640161033c565b611c5481613214565b6000546040516370a0823160e01b8152306004820152611ce89183916001600160a01b03909116906370a082319060240160206040518083038186803b158015611c9d57600080fd5b505afa158015611cb1573d6000803e3d6000fd5b505050506040513d601f19601f82011682018060405250810190611cd59190615655565b6000546001600160a01b03169190612812565b6040516370a0823160e01b8152306004820152610c049082906001600160a01b037f000000000000000000000000000000000000000000000000000000000000000016906370a082319060240160206040518083038186803b158015611d4d57600080fd5b505afa158015611d61573d6000803e3d6000fd5b505050506040513d601f19601f820116820180604052508101906113779190615655565b7f00000000000000000000000000000000000000000000000000000000000000006001600160a01b0316630c340a246040518163ffffffff1660e01b815260040160206040518083038186803b158015611dde57600080fd5b505afa158015611df2573d6000803e3d6000fd5b505050506040513d601f19601f82011682018060405250810190611e16919061566e565b6001600160a01b0316336001600160a01b031614611e645760405162461bcd60e51b815260206004820152601a602482015260008051602061593a833981519152604482015260640161033c565b6001600160a01b038116611eba5760405162461bcd60e51b815260206004820152601d60248201527f6665652d636f6c6c6563746f722d616464726573732d69732d7a65726f000000604482015260640161033c565b6001546001600160a01b0382811691161415611f185760405162461bcd60e51b815260206004820152601560248201527f6665652d636f6c6c6563746f722d69732d73616d650000000000000000000000604482015260640161033c565b6001546040516001600160a01b038084169216907f0f06062680f9bd68e786e9980d9bb03d73d5620fc3b345e417b6eacb310b970690600090a3600180546001600160a01b0319166001600160a01b0392909216919091179055565b7f00000000000000000000000000000000000000000000000000000000000000006001600160a01b0316630c340a246040518163ffffffff1660e01b815260040160206040518083038186803b158015611fcd57600080fd5b505afa158015611fe1573d6000803e3d6000fd5b505050506040513d601f19601f82011682018060405250810190612005919061566e565b6001600160a01b0316336001600160a01b0316146120535760405162461bcd60e51b815260206004820152601a602482015260008051602061593a833981519152604482015260640161033c565b6001600160a01b0381166120a95760405162461bcd60e51b815260206004820152601760248201527f737761707065722d616464726573732d69732d7a65726f000000000000000000604482015260640161033c565b6002546001600160a01b03828116911614156121075760405162461bcd60e51b815260206004820152600f60248201527f737761707065722d69732d73616d650000000000000000000000000000000000604482015260640161033c565b6002546040516001600160a01b038084169216907f6c953b7ec311055c20b96a42cea31e89528e375b1bf953a503db40854b3188fe90600090a3600280546001600160a01b0319166001600160a01b0392909216919091179055565b600061216d611a3d565b6040516370a0823160e01b81523060048201527f00000000000000000000000000000000000000000000000000000000000000006001600160a01b0316906370a08231906024015b60206040518083038186803b1580156121cd57600080fd5b505afa1580156121e1573d6000803e3d6000fd5b505050506040513d601f19601f820116820180604052508101906122059190615655565b61176491906156ed565b600061224a61221c612163565b6122457f00000000000000000000000000000000000000000000000000000000000000006133fe565b61348c565b6040516370a0823160e01b81523060048201527f00000000000000000000000000000000000000000000000000000000000000006001600160a01b0316906370a08231906024016121b5565b60006122a133610a55565b6122e65760405162461bcd60e51b815260206004820152601660248201527531b0b63632b916b4b996b737ba16b096b5b2b2b832b960511b604482015260640161033c565b7f00000000000000000000000000000000000000000000000000000000000000006001600160a01b0316836001600160a01b031614156123685760405162461bcd60e51b815260206004820152601f60248201527f6e6f742d616c6c6f7765642d746f2d73776565702d636f6c6c61746572616c00604482015260640161033c565b61237183611535565b156123b55760405162461bcd60e51b815260206004820152601460248201527306e6f742d616c6c6f7765642d746f2d73776565760641b604482015260640161033c565b6040516370a0823160e01b81523060048201526000907f00000000000000000000000000000000000000000000000000000000000000006001600160a01b0316906370a082319060240160206040518083038186803b15801561241757600080fd5b505afa15801561242b573d6000803e3d6000fd5b505050506040513d601f19601f8201168201806040525081019061244f9190615655565b6040516370a0823160e01b81523060048201529091506000906001600160a01b038616906370a082319060240160206040518083038186803b15801561249457600080fd5b505afa1580156124a8573d6000803e3d6000fd5b505050506040513d601f19601f820116820180604052508101906124cc9190615655565b905080156125c257600254604051636eb1769f60e11b81523060048201526001600160a01b0391821660248201529086169063dd62ed3e9060440160206040518083038186803b15801561251f57600080fd5b505afa158015612533573d6000803e3d6000fd5b505050506040513d601f19601f820116820180604052508101906125579190615655565b81111561259557600254612579906001600160a01b038781169116600061377b565b600254612595906001600160a01b03878116911660001961377b565b6125c0857f0000000000000000000000000000000000000000000000000000000000000000836138a6565b505b6040516370a0823160e01b815230600482015282907f00000000000000000000000000000000000000000000000000000000000000006001600160a01b0316906370a082319060240160206040518083038186803b15801561262357600080fd5b505afa158015612637573d6000803e3d6000fd5b505050506040513d601f19601f8201168201806040525081019061265b9190615655565b61266591906156a1565b9250838310156126ae5760405162461bcd60e51b81526020600482015260146024820152731b9bdd0b595b9bdd59da0b585b5bdd5b9d13dd5d60621b604482015260640161033c565b505092915050565b60006126cb836001600160a01b03841661394a565b9392505050565b6001600160a01b038116600090815260018301602052604081205415156126cb565b804710156127445760405162461bcd60e51b815260206004820152601d60248201527f416464726573733a20696e73756666696369656e742062616c616e6365000000604482015260640161033c565b6000826001600160a01b03168260405160006040518083038185875af1925050503d8060008114612791576040519150601f19603f3d011682016040523d82523d6000602084013e612796565b606091505b505090508061280d5760405162461bcd60e51b815260206004820152603a60248201527f416464726573733a20756e61626c6520746f2073656e642076616c75652c207260448201527f6563697069656e74206d61792068617665207265766572746564000000000000606482015260840161033c565b505050565b6040516001600160a01b03831660248201526044810182905261280d90849063a9059cbb60e01b906064015b60408051601f198184030181529190526020810180517bffffffffffffffffffffffffffffffffffffffffffffffffffffffff167fffffffff0000000000000000000000000000000000000000000000000000000090931692909217909152613999565b6128aa613a6b565b505060085460005b81811015610c9e576000600882815481106128cf576128cf615705565b60009182526020822001546040516370a0823160e01b81523060048201526001600160a01b03909116925082906370a082319060240160206040518083038186803b15801561291d57600080fd5b505afa158015612931573d6000803e3d6000fd5b505050506040513d601f19601f820116820180604052508101906129559190615655565b9050801561298857612988827f000000000000000000000000000000000000000000000000000000000000000083613cbd565b5050806129949061571b565b90506128b2565b60006126cb836001600160a01b038416613d5f565b60006129db7f00000000000000000000000000000000000000000000000000000000000000006133fe565b905060006129e76116c9565b905060006129f3611a3d565b6129fd90836156ed565b90506000612a28612a0e838661348c565b612a188488615736565b612a229190615755565b83612a61565b905080612a36575050505050565b82811115612a5057612a50612a4b84836156a1565b613e52565b612a5a8185613ecf565b5050505050565b6000818310612a7057816126cb565b5090919050565b612a808161417a565b6002546001600160a01b0390811690612adc907f0000000000000000000000000000000000000000000000000000000000000000167f00000000000000000000000000000000000000000000000000000000000000008461377b565b612b106001600160a01b037f000000000000000000000000000000000000000000000000000000000000000016828461377b565b60085460005b81811015612b6257612b52838560088481548110612b3657612b36615705565b6000918252602090912001546001600160a01b0316919061377b565b612b5b8161571b565b9050612b16565b50612bb76001600160a01b037f0000000000000000000000000000000000000000000000000000000000000000167f00000000000000000000000000000000000000000000000000000000000000008561377b565b7f00000000000000000000000000000000000000000000000000000000000000006001600160a01b03161561280d57612c3a6001600160a01b037f0000000000000000000000000000000000000000000000000000000000000000167f00000000000000000000000000000000000000000000000000000000000000008561377b565b61280d6001600160a01b037f0000000000000000000000000000000000000000000000000000000000000000167f00000000000000000000000000000000000000000000000000000000000000008561377b565b604080516001808252818301909252606091602080830190803683370190505090507f000000000000000000000000000000000000000000000000000000000000000081600081518110612ce457612ce4615705565b6001600160a01b0392831660209182029290920101527f000000000000000000000000000000000000000000000000000000000000000016612d235790565b7f00000000000000000000000000000000000000000000000000000000000000006001600160a01b03166316fa50b16040518163ffffffff1660e01b815260040160206040518083038186803b158015612d7c57600080fd5b505afa925050508015612dac575060408051601f3d908101601f19168201909252612da99181019061566e565b60015b612db557612e70565b60025b604051908082528060200260200182016040528015612de1578160200160208202803683370190505b5091507f000000000000000000000000000000000000000000000000000000000000000082600081518110612e1857612e18615705565b60200260200101906001600160a01b031690816001600160a01b0316815250508082600181518110612e4c57612e4c615705565b60200260200101906001600160a01b031690816001600160a01b0316815250505090565b6040516354c49fe960e01b8152600060048201527f00000000000000000000000000000000000000000000000000000000000000006001600160a01b0316906354c49fe99060240160206040518083038186803b158015612ed057600080fd5b505afa925050508015612f00575060408051601f3d908101601f19168201909252612efd9181019061566e565b60015b612f075790565b6001600160a01b038116612f19575090565b7f00000000000000000000000000000000000000000000000000000000000000006001600160a01b031663963c94b96040518163ffffffff1660e01b815260040160206040518083038186803b158015612f7257600080fd5b505afa925050508015612fa2575060408051601f3d908101601f19168201909252612f9f91810190615655565b60015b612fad576002612db8565b612fb88160016156ed565b67ffffffffffffffff811115612fd057612fd0615777565b604051908082528060200260200182016040528015612ff9578160200160208202803683370190505b509250818360008151811061301057613010615705565b6001600160a01b039092166020928302919091019091015260015b81811015613105576040516354c49fe960e01b8152600481018290527f00000000000000000000000000000000000000000000000000000000000000006001600160a01b0316906354c49fe99060240160206040518083038186803b15801561309357600080fd5b505afa1580156130a7573d6000803e3d6000fd5b505050506040513d601f19601f820116820180604052508101906130cb919061566e565b8482815181106130dd576130dd615705565b6001600160a01b03909216602092830291909101909101526130fe8161571b565b905061302b565b507f000000000000000000000000000000000000000000000000000000000000000083828151811061313957613139615705565b60200260200101906001600160a01b031690816001600160a01b031681525050505090565b5090565b600080600061316f6141ce565b6040516302df682360e11b815260048101849052602481018390526044810182905292955090935091507f00000000000000000000000000000000000000000000000000000000000000006001600160a01b0316906305bed04690606401600060405180830381600087803b1580156131e757600080fd5b505af11580156131fb573d6000803e3d6000fd5b505050506117f4614590565b606060006126cb83614638565b7f00000000000000000000000000000000000000000000000000000000000000006001600160a01b0316816001600160a01b031663d8dfeb456040518163ffffffff1660e01b815260040160206040518083038186803b15801561327757600080fd5b505afa15801561328b573d6000803e3d6000fd5b505050506040513d601f19601f820116820180604052508101906132af919061566e565b6001600160a01b0316146133055760405162461bcd60e51b815260206004820152601660248201527f77726f6e672d636f6c6c61746572616c2d746f6b656e00000000000000000000604482015260640161033c565b7f00000000000000000000000000000000000000000000000000000000000000006001600160a01b0316816001600160a01b031663fc0c546a6040518163ffffffff1660e01b815260040160206040518083038186803b15801561336857600080fd5b505afa15801561337c573d6000803e3d6000fd5b505050506040513d601f19601f820116820180604052508101906133a0919061566e565b6001600160a01b0316146133f65760405162461bcd60e51b815260206004820152601360248201527f77726f6e672d726563656970742d746f6b656e00000000000000000000000000604482015260640161033c565b610c04614694565b60006f7fffffffffffffffffffffffffffffff19821215801561343057506f8000000000000000000000000000000082125b61315e5760405162461bcd60e51b815260206004820152602760248201527f53616665436173743a2076616c756520646f65736e27742066697420696e20316044820152663238206269747360c81b606482015260840161033c565b60008261349b575060006115a8565b60027f000000000000000000000000000000000000000000000000000000000000000060078111156134cf576134cf61553f565b1480613535575060077f0000000000000000000000000000000000000000000000000000000000000000600781111561350a5761350a61553f565b14801561353557507f0000000000000000000000000000000000000000000000000000000000000000155b156135e45760405163cc2b27d760e01b815260048101849052600f83900b60248201527f00000000000000000000000000000000000000000000000000000000000000006001600160a01b03169063cc2b27d7906044015b60206040518083038186803b1580156135a557600080fd5b505afa1580156135b9573d6000803e3d6000fd5b505050506040513d601f19601f820116820180604052508101906135dd9190615655565b90506115a8565b60067f000000000000000000000000000000000000000000000000000000000000000060078111156136185761361861553f565b1480613655575060077f000000000000000000000000000000000000000000000000000000000000000060078111156136535761365361553f565b145b156136d9576040516341b028f360e01b81526001600160a01b037f00000000000000000000000000000000000000000000000000000000000000008116600483015260248201859052600f84900b60448301527f000000000000000000000000000000000000000000000000000000000000000016906341b028f39060640161358d565b60405163cc2b27d760e01b815260048101849052600f83900b60248201527f00000000000000000000000000000000000000000000000000000000000000006001600160a01b03169063cc2b27d79060440160206040518083038186803b15801561374357600080fd5b505afa158015613757573d6000803e3d6000fd5b505050506040513d601f19601f820116820180604052508101906126cb9190615655565b8015806138045750604051636eb1769f60e11b81523060048201526001600160a01b03838116602483015284169063dd62ed3e9060440160206040518083038186803b1580156137ca57600080fd5b505afa1580156137de573d6000803e3d6000fd5b505050506040513d601f19601f820116820180604052508101906138029190615655565b155b6138765760405162461bcd60e51b815260206004820152603660248201527f5361666545524332303a20617070726f76652066726f6d206e6f6e2d7a65726f60448201527f20746f206e6f6e2d7a65726f20616c6c6f77616e636500000000000000000000606482015260840161033c565b6040516001600160a01b03831660248201526044810182905261280d90849063095ea7b360e01b9060640161283e565b600254604051636ccb2b0160e01b81526001600160a01b038581166004830152848116602483015260448201849052600160648301523060848301526000921690636ccb2b019060a401602060405180830381600087803b15801561390a57600080fd5b505af115801561391e573d6000803e3d6000fd5b505050506040513d601f19601f820116820180604052508101906139429190615655565b949350505050565b6000818152600183016020526040812054613991575081546001818101845560008481526020808220909301849055845484825282860190935260409020919091556115a8565b5060006115a8565b60006139ee826040518060400160405280602081526020017f5361666545524332303a206c6f772d6c6576656c2063616c6c206661696c6564815250856001600160a01b031661472f9092919063ffffffff16565b80519091501561280d5780806020019051810190613a0c919061578d565b61280d5760405162461bcd60e51b815260206004820152602a60248201527f5361666545524332303a204552433230206f7065726174696f6e20646964206e6044820152691bdd081cdd58d8d9595960b21b606482015260840161033c565b6000804660011415613b09576040516335313c2160e11b81526001600160a01b037f000000000000000000000000000000000000000000000000000000000000000016600482015273d061d61a4d941c39e5453435b6345dc261c2fce090636a62784290602401600060405180830381600087803b158015613aec57600080fd5b505af1158015613b00573d6000803e3d6000fd5b50505050613c47565b604051634b92037960e01b81526001600160a01b037f000000000000000000000000000000000000000000000000000000000000000016600482015273abc000d88f23bb45525e447528dbf656a9d55bf590634b9203799060240160206040518083038186803b158015613b7c57600080fd5b505afa158015613b90573d6000803e3d6000fd5b505050506040513d601f19601f82011682018060405250810190613bb4919061578d565b15613c47576040516335313c2160e11b81526001600160a01b037f000000000000000000000000000000000000000000000000000000000000000016600482015273abc000d88f23bb45525e447528dbf656a9d55bf590636a62784290602401600060405180830381600087803b158015613c2e57600080fd5b505af1158015613c42573d6000803e3d6000fd5b505050505b7f00000000000000000000000000000000000000000000000000000000000000006001600160a01b031663e6f1daf26040518163ffffffff1660e01b8152600401600060405180830381600087803b158015613ca257600080fd5b505af1925050508015613cb3575060015b5050600091829150565b600254604051636ccb2b0160e01b81526001600160a01b0385811660048301528481166024830152604482018490526001606483015230608483015290911690636ccb2b019060a401602060405180830381600087803b158015613d2057600080fd5b505af1925050508015613d50575060408051601f3d908101601f19168201909252613d4d91810190615655565b60015b613d5957505050565b50505050565b60008181526001830160205260408120548015613e48576000613d836001836156a1565b8554909150600090613d97906001906156a1565b9050818114613dfc576000866000018281548110613db757613db7615705565b9060005260206000200154905080876000018481548110613dda57613dda615705565b6000918252602080832090910192909255918252600188019052604090208390555b8554869080613e0d57613e0d6157af565b6001900381819060005260206000200160009055905585600101600086815260200190815260200160002060009055600193505050506115a8565b60009150506115a8565b8015610c0457604051632e1a7d4d60e01b8152600481018290527f00000000000000000000000000000000000000000000000000000000000000006001600160a01b031690632e1a7d4d906024015b600060405180830381600087803b158015613ebb57600080fd5b505af1158015612a5a573d6000803e3d6000fd5b81613ed8575050565b6000613f257f00000000000000000000000000000000000000000000000000000000000000007f00000000000000000000000000000000000000000000000000000000000000008561473e565b905060007f00000000000000000000000000000000000000000000000000000000000000006007811115613f5b57613f5b61553f565b1480613f98575060017f00000000000000000000000000000000000000000000000000000000000000006007811115613f9657613f9661553f565b145b15613fa85761280d8382846147f3565b60037f00000000000000000000000000000000000000000000000000000000000000006007811115613fdc57613fdc61553f565b1415613fed5761280d838284614884565b60047f000000000000000000000000000000000000000000000000000000000000000060078111156140215761402161553f565b14156140325761280d838284614884565b60027f000000000000000000000000000000000000000000000000000000000000000060078111156140665761406661553f565b14156140775761280d8382846148e9565b60067f000000000000000000000000000000000000000000000000000000000000000060078111156140ab576140ab61553f565b14156140bc5761280d838284614947565b60077f000000000000000000000000000000000000000000000000000000000000000060078111156140f0576140f061553f565b1415614132577f0000000000000000000000000000000000000000000000000000000000000000156141275761280d838284614947565b61280d8382846148e9565b60405162461bcd60e51b815260206004820152601a60248201527f77697468647261772d66726f6d2d63757276652d6661696c6564000000000000604482015260640161033c565b610c046001600160a01b037f0000000000000000000000000000000000000000000000000000000000000000167f00000000000000000000000000000000000000000000000000000000000000008361377b565b604051636a9eee1360e11b81523060048201526000908190819081906001600160a01b037f0000000000000000000000000000000000000000000000000000000000000000169063d53ddc269060240160206040518083038186803b15801561423657600080fd5b505afa15801561424a573d6000803e3d6000fd5b505050506040513d601f19601f8201168201806040525081019061426e9190615655565b604051639f2b283360e01b81523060048201529091506000906001600160a01b037f00000000000000000000000000000000000000000000000000000000000000001690639f2b28339060240160206040518083038186803b1580156142d357600080fd5b505afa1580156142e7573d6000803e3d6000fd5b505050506040513d601f19601f8201168201806040525081019061430b9190615655565b905060006143387f00000000000000000000000000000000000000000000000000000000000000006133fe565b905060006143446116c9565b90506000614350611a3d565b61435a90836156ed565b90506000614368828561348c565b6040516370a0823160e01b81523060048201529091506000906001600160a01b037f000000000000000000000000000000000000000000000000000000000000000016906370a082319060240160206040518083038186803b1580156143cd57600080fd5b505afa1580156143e1573d6000803e3d6000fd5b505050506040513d601f19601f820116820180604052508101906144059190615655565b9050600061441383836156ed565b90508681111561442e5761442787826156a1565b9a5061443b565b61443881886156a1565b99505b6000614447898d6156ed565b90508281111561455357600061446661446085846156a1565b86612a61565b9050801561455157600061448e8661447e8985615736565b6144889190615755565b88612a61565b9050801561454f57878111156144ab576144ab612a4b89836156a1565b6144b5818a613ecf565b6040516370a0823160e01b81523060048201527f00000000000000000000000000000000000000000000000000000000000000006001600160a01b0316906370a082319060240160206040518083038186803b15801561451457600080fd5b505afa158015614528573d6000803e3d6000fd5b505050506040513d601f19601f8201168201806040525081019061454c9190615655565b94505b505b505b61455d838a612a61565b995089831161456d576000614580565b61458061457a8b856156a1565b8d612a61565b9b50505050505050505050909192565b6040516370a0823160e01b8152306004820152614630907f00000000000000000000000000000000000000000000000000000000000000006001600160a01b0316906370a082319060240160206040518083038186803b1580156145f357600080fd5b505afa158015614607573d6000803e3d6000fd5b505050506040513d601f19601f8201168201806040525081019061462b9190615655565b6149cd565b6116c7614a5a565b60608160000180548060200260200160405190810160405280929190818152602001828054801561468857602002820191906000526020600020905b815481526020019060010190808311614674575b50505050509050919050565b6040516370a0823160e01b81523060048201526116c7907f00000000000000000000000000000000000000000000000000000000000000006001600160a01b0316906370a082319060240160206040518083038186803b1580156146f757600080fd5b505afa15801561470b573d6000803e3d6000fd5b505050506040513d601f19601f82011682018060405250810190612a4b9190615655565b60606139428484600085614b49565b600061271060065461271061475391906156a1565b600754604051632d9198e160e21b81526001600160a01b0388811660048301528781166024830152604482018790529091169063b64663849060640160206040518083038186803b1580156147a757600080fd5b505afa1580156147bb573d6000803e3d6000fd5b505050506040513d601f19601f820116820180604052508101906147df9190615655565b6147e99190615736565b6139429190615755565b604051630d2680e960e11b815260048101849052600f82900b6024820152604481018390527f00000000000000000000000000000000000000000000000000000000000000006001600160a01b031690631a4d01d2906064015b600060405180830381600087803b15801561486757600080fd5b505af115801561487b573d6000803e3d6000fd5b50505050505050565b60405163517a55a360e01b815260048101849052600f82900b602482015260448101839052600160648201527f00000000000000000000000000000000000000000000000000000000000000006001600160a01b03169063517a55a39060840161484d565b604051630d2680e960e11b815260048101849052600f82900b6024820152604481018390527f00000000000000000000000000000000000000000000000000000000000000006001600160a01b031690631a4d01d29060640161484d565b6040516314f6943160e11b81526001600160a01b037f00000000000000000000000000000000000000000000000000000000000000008116600483015260248201859052600f83900b6044830152606482018490527f000000000000000000000000000000000000000000000000000000000000000016906329ed28629060840161484d565b806149d55750565b604051632e1a7d4d60e01b8152600481018290527f00000000000000000000000000000000000000000000000000000000000000006001600160a01b031690632e1a7d4d90602401600060405180830381600087803b158015614a3757600080fd5b505af1158015614a4b573d6000803e3d6000fd5b50505050610c04816001614c71565b6040516370a0823160e01b81523060048201526000907f00000000000000000000000000000000000000000000000000000000000000006001600160a01b0316906370a082319060240160206040518083038186803b158015614abc57600080fd5b505afa158015614ad0573d6000803e3d6000fd5b505050506040513d601f19601f82011682018060405250810190614af49190615655565b90508015610c045760405163b6b55f2560e01b8152600481018290527f00000000000000000000000000000000000000000000000000000000000000006001600160a01b03169063b6b55f2590602401613ea1565b606082471015614baa5760405162461bcd60e51b815260206004820152602660248201527f416464726573733a20696e73756666696369656e742062616c616e636520666f6044820152651c8818d85b1b60d21b606482015260840161033c565b843b614bf85760405162461bcd60e51b815260206004820152601d60248201527f416464726573733a2063616c6c20746f206e6f6e2d636f6e7472616374000000604482015260640161033c565b600080866001600160a01b03168587604051614c1491906157c5565b60006040518083038185875af1925050503d8060008114614c51576040519150601f19603f3d011682016040523d82523d6000602084013e614c56565b606091505b5091509150614c66828286614f25565b979650505050505050565b81614c7a575050565b6000614cc77f00000000000000000000000000000000000000000000000000000000000000007f00000000000000000000000000000000000000000000000000000000000000008561473e565b905060007f00000000000000000000000000000000000000000000000000000000000000006007811115614cfd57614cfd61553f565b1415614d0e5761280d838284614f5e565b60037f00000000000000000000000000000000000000000000000000000000000000006007811115614d4257614d4261553f565b1415614d535761280d838284615032565b60017f00000000000000000000000000000000000000000000000000000000000000006007811115614d8757614d8761553f565b1415614d985761280d8382846150d1565b60047f00000000000000000000000000000000000000000000000000000000000000006007811115614dcc57614dcc61553f565b1415614ddd5761280d83828461516d565b60027f00000000000000000000000000000000000000000000000000000000000000006007811115614e1157614e1161553f565b1415614e225761280d83828461520c565b60067f00000000000000000000000000000000000000000000000000000000000000006007811115614e5657614e5661553f565b1415614e675761280d8382846152a8565b60077f00000000000000000000000000000000000000000000000000000000000000006007811115614e9b57614e9b61553f565b1415614edd577f000000000000000000000000000000000000000000000000000000000000000015614ed25761280d838284615366565b61280d83828461520c565b60405162461bcd60e51b815260206004820152601760248201527f6465706f7369742d746f2d63757276652d6661696c6564000000000000000000604482015260640161033c565b60608315614f345750816126cb565b825115614f445782518084602001fd5b8160405162461bcd60e51b815260040161033c91906155f6565b614f66615485565b83817f000000000000000000000000000000000000000000000000000000000000000060028110614f9957614f99615705565b60200201526001600160a01b037f000000000000000000000000000000000000000000000000000000000000000016630b4c7e4d83614fd9576000614fdb565b855b83866040518463ffffffff1660e01b8152600401614ffa929190615804565b6000604051808303818588803b15801561501357600080fd5b505af1158015615027573d6000803e3d6000fd5b505050505050505050565b61503a615485565b83817f00000000000000000000000000000000000000000000000000000000000000006002811061506d5761506d615705565b60200201526001600160a01b037f00000000000000000000000000000000000000000000000000000000000000001663ee22be23836150ad5760006150af565b855b838660016040518563ffffffff1660e01b8152600401614ffa9392919061581f565b6150d96154a3565b83817f00000000000000000000000000000000000000000000000000000000000000006003811061510c5761510c615705565b60200201526001600160a01b037f000000000000000000000000000000000000000000000000000000000000000016634515cef38361514c57600061514e565b855b83866040518463ffffffff1660e01b8152600401614ffa929190615866565b6151756154a3565b83817f0000000000000000000000000000000000000000000000000000000000000000600381106151a8576151a8615705565b60200201526001600160a01b037f000000000000000000000000000000000000000000000000000000000000000016632b6e993a836151e85760006151ea565b855b838660016040518563ffffffff1660e01b8152600401614ffa93929190615881565b6152146154c1565b83817f00000000000000000000000000000000000000000000000000000000000000006004811061524757615247615705565b60200201526001600160a01b037f00000000000000000000000000000000000000000000000000000000000000001663029b2f3483615287576000615289565b855b83866040518463ffffffff1660e01b8152600401614ffa9291906158c8565b6152b06154a3565b83817f0000000000000000000000000000000000000000000000000000000000000000600381106152e3576152e3615705565b60200201526001600160a01b037f00000000000000000000000000000000000000000000000000000000000000001663a318517983615323576000615325565b855b7f000000000000000000000000000000000000000000000000000000000000000084876040518563ffffffff1660e01b8152600401614ffa939291906158e3565b61536e6154c1565b83817f0000000000000000000000000000000000000000000000000000000000000000600481106153a1576153a1615705565b60200201526001600160a01b037f00000000000000000000000000000000000000000000000000000000000000001663384e03db836153e15760006153e3565b855b7f000000000000000000000000000000000000000000000000000000000000000084876040518563ffffffff1660e01b8152600401614ffa9392919061590e565b828054828255906000526020600020908101928215615479579160200282015b8281111561547957825182546001600160a01b0319166001600160a01b03909116178255602090920191600190910190615444565b5061315e9291506154df565b60405180604001604052806002906020820280368337509192915050565b60405180606001604052806003906020820280368337509192915050565b60405180608001604052806004906020820280368337509192915050565b5b8082111561315e57600081556001016154e0565b6001600160a01b0381168114610c0457600080fd5b60006020828403121561551b57600080fd5b81356126cb816154f4565b60006020828403121561553857600080fd5b5035919050565b634e487b7160e01b600052602160045260246000fd5b602081016008831061557757634e487b7160e01b600052602160045260246000fd5b91905290565b6020808252825182820181905260009190848201906040850190845b818110156155be5783516001600160a01b031683529284019291840191600101615599565b50909695505050505050565b60005b838110156155e55781810151838201526020016155cd565b83811115613d595750506000910152565b60208152600082518060208401526156158160408501602087016155ca565b601f01601f19169190910160400192915050565b6000806040838503121561563c57600080fd5b8235615647816154f4565b946020939093013593505050565b60006020828403121561566757600080fd5b5051919050565b60006020828403121561568057600080fd5b81516126cb816154f4565b634e487b7160e01b600052601160045260246000fd5b6000828210156156b3576156b361568b565b500390565b600181811c908216806156cc57607f821691505b60208210811415610ff357634e487b7160e01b600052602260045260246000fd5b600082198211156157005761570061568b565b500190565b634e487b7160e01b600052603260045260246000fd5b600060001982141561572f5761572f61568b565b5060010190565b60008160001904831182151516156157505761575061568b565b500290565b60008261577257634e487b7160e01b600052601260045260246000fd5b500490565b634e487b7160e01b600052604160045260246000fd5b60006020828403121561579f57600080fd5b815180151581146126cb57600080fd5b634e487b7160e01b600052603160045260246000fd5b600082516157d78184602087016155ca565b9190910192915050565b8060005b6002811015613d595781518452602093840193909101906001016157e5565b6060810161581282856157e1565b8260408301529392505050565b6080810161582d82866157e1565b8360408301528215156060830152949350505050565b8060005b6003811015613d59578151845260209384019390910190600101615847565b608081016158748285615843565b8260608301529392505050565b60a0810161588f8286615843565b8360608301528215156080830152949350505050565b8060005b6004811015613d595781518452602093840193909101906001016158a9565b60a081016158d682856158a5565b8260808301529392505050565b6001600160a01b038416815260a081016159006020830185615843565b826080830152949350505050565b6001600160a01b038416815260c0810161592b60208301856158a5565b8260a083015294935050505056fe63616c6c65722d69732d6e6f742d7468652d676f7665726e6f72000000000000a2646970667358221220ef90f95cd7919a19e71e9f54a5e6c08cd1bcdd3afb1f717af7542f04622218c764736f6c63430008090033",
  "devdoc": {
    "kind": "dev",
    "methods": {
      "addKeeper(address)": {
        "params": {
          "_keeperAddress": "keeper address to add."
        }
      },
      "approveToken(uint256)": {
        "details": "Approve all required tokens"
      },
      "isReservedToken(address)": {
        "details": "Check whether given token is reserved or not. Reserved tokens are not allowed to sweep."
      },
      "migrate(address)": {
        "details": "_beforeMigration hook can be implemented in child strategy to do extra steps.",
        "params": {
          "_newStrategy": "Address of new strategy"
        }
      },
      "rebalance()": {
        "returns": {
          "_loss": "Realized loss, if any, in collateral.",
          "_payback": "If strategy has any excess debt, we have to liquidate asset to payback excess debt.",
          "_profit": "Realized profit in collateral."
        }
      },
      "removeKeeper(address)": {
        "params": {
          "_keeperAddress": "keeper address to remove."
        }
      },
      "sweep(address)": {
        "params": {
          "_fromToken": "token address to sweep"
        }
      },
      "updateFeeCollector(address)": {
        "params": {
          "_feeCollector": "fee collector address"
        }
      },
      "updateSwapper(address)": {
        "params": {
          "_swapper": "swapper address"
        }
      },
      "withdraw(uint256)": {
        "params": {
          "_amount": "Amount of collateral token"
        }
      }
    },
    "title": "Deposit ETH to Curve Pool and earn interest.",
    "version": 1
  },
  "userdoc": {
    "kind": "user",
    "methods": {
      "addKeeper(address)": {
        "notice": "Add given address in keepers list."
      },
      "claimAndSwapRewards(uint256)": {
        "notice": "Claim rewardToken and convert rewardToken into collateral token."
      },
      "collateral()": {
        "notice": "Returns address of token correspond to collateral token"
      },
      "keepers()": {
        "notice": "Return list of keepers"
      },
      "migrate(address)": {
        "notice": "Migrate all asset and vault ownership,if any, to new strategy"
      },
      "rebalance()": {
        "notice": "OnlyKeeper: Rebalance profit, loss and investment of this strategy.  Calculate profit, loss and payback of this strategy and realize profit/loss and  withdraw fund for payback, if any, and submit this report to pool."
      },
      "refetchRewardTokens()": {
        "notice": "Rewards token in gauge can be updated any time. This method refresh list. It is recommended to claimAndSwapRewards before calling this function."
      },
      "removeKeeper(address)": {
        "notice": "Remove given address from keepers list."
      },
      "swapToCollateral(address,uint256)": {
        "notice": "onlyKeeper:: Swap given token into collateral token."
      },
      "sweep(address)": {
        "notice": "sweep given token to feeCollector of strategy"
      },
      "token()": {
        "notice": "Returns address of token correspond to receipt token"
      },
      "tvl()": {
        "notice": "Returns collateral balance + collateral deposited to curve"
      },
      "updateFeeCollector(address)": {
        "notice": "Update fee collector"
      },
      "updateSwapper(address)": {
        "notice": "Update swapper"
      },
      "withdraw(uint256)": {
        "notice": "Withdraw collateral token from end protocol."
      }
    },
    "version": 1
  },
  "storageLayout": {
    "storage": [
      {
        "astId": 14421,
        "contract": "vesper-strategies/contracts/strategies/curve/CurveETH.sol:CurveETH",
        "label": "receiptToken",
        "offset": 0,
        "slot": "0",
        "type": "t_address"
      },
      {
        "astId": 14427,
        "contract": "vesper-strategies/contracts/strategies/curve/CurveETH.sol:CurveETH",
        "label": "feeCollector",
        "offset": 0,
        "slot": "1",
        "type": "t_address"
      },
      {
        "astId": 14430,
        "contract": "vesper-strategies/contracts/strategies/curve/CurveETH.sol:CurveETH",
        "label": "swapper",
        "offset": 0,
        "slot": "2",
        "type": "t_contract(IRoutedSwapper)13269"
      },
      {
        "astId": 14443,
        "contract": "vesper-strategies/contracts/strategies/curve/CurveETH.sol:CurveETH",
        "label": "_keepers",
        "offset": 0,
        "slot": "3",
        "type": "t_struct(AddressSet)3025_storage"
      },
      {
        "astId": 26920,
        "contract": "vesper-strategies/contracts/strategies/curve/CurveETH.sol:CurveETH",
        "label": "NAME",
        "offset": 0,
        "slot": "5",
        "type": "t_string_storage"
      },
      {
        "astId": 26922,
        "contract": "vesper-strategies/contracts/strategies/curve/CurveETH.sol:CurveETH",
        "label": "crvSlippage",
        "offset": 0,
        "slot": "6",
        "type": "t_uint256"
      },
      {
        "astId": 26925,
        "contract": "vesper-strategies/contracts/strategies/curve/CurveETH.sol:CurveETH",
        "label": "masterOracle",
        "offset": 0,
        "slot": "7",
        "type": "t_contract(IMasterOracle)12953"
      },
      {
        "astId": 26928,
        "contract": "vesper-strategies/contracts/strategies/curve/CurveETH.sol:CurveETH",
        "label": "rewardTokens",
        "offset": 0,
        "slot": "8",
        "type": "t_array(t_address)dyn_storage"
      }
    ],
    "types": {
      "t_address": {
        "encoding": "inplace",
        "label": "address",
        "numberOfBytes": "20"
      },
      "t_array(t_address)dyn_storage": {
        "base": "t_address",
        "encoding": "dynamic_array",
        "label": "address[]",
        "numberOfBytes": "32"
      },
      "t_array(t_bytes32)dyn_storage": {
        "base": "t_bytes32",
        "encoding": "dynamic_array",
        "label": "bytes32[]",
        "numberOfBytes": "32"
      },
      "t_bytes32": {
        "encoding": "inplace",
        "label": "bytes32",
        "numberOfBytes": "32"
      },
      "t_contract(IMasterOracle)12953": {
        "encoding": "inplace",
        "label": "contract IMasterOracle",
        "numberOfBytes": "20"
      },
      "t_contract(IRoutedSwapper)13269": {
        "encoding": "inplace",
        "label": "contract IRoutedSwapper",
        "numberOfBytes": "20"
      },
      "t_mapping(t_bytes32,t_uint256)": {
        "encoding": "mapping",
        "key": "t_bytes32",
        "label": "mapping(bytes32 => uint256)",
        "numberOfBytes": "32",
        "value": "t_uint256"
      },
      "t_string_storage": {
        "encoding": "bytes",
        "label": "string",
        "numberOfBytes": "32"
      },
      "t_struct(AddressSet)3025_storage": {
        "encoding": "inplace",
        "label": "struct EnumerableSet.AddressSet",
        "members": [
          {
            "astId": 3024,
            "contract": "vesper-strategies/contracts/strategies/curve/CurveETH.sol:CurveETH",
            "label": "_inner",
            "offset": 0,
            "slot": "0",
            "type": "t_struct(Set)2724_storage"
          }
        ],
        "numberOfBytes": "64"
      },
      "t_struct(Set)2724_storage": {
        "encoding": "inplace",
        "label": "struct EnumerableSet.Set",
        "members": [
          {
            "astId": 2719,
            "contract": "vesper-strategies/contracts/strategies/curve/CurveETH.sol:CurveETH",
            "label": "_values",
            "offset": 0,
            "slot": "0",
            "type": "t_array(t_bytes32)dyn_storage"
          },
          {
            "astId": 2723,
            "contract": "vesper-strategies/contracts/strategies/curve/CurveETH.sol:CurveETH",
            "label": "_indexes",
            "offset": 0,
            "slot": "1",
            "type": "t_mapping(t_bytes32,t_uint256)"
          }
        ],
        "numberOfBytes": "64"
      },
      "t_uint256": {
        "encoding": "inplace",
        "label": "uint256",
        "numberOfBytes": "32"
      }
    }
  }
}