{
  "address": "0xfD5B3e34b53BF6f603155620821De612006C8A45",
  "abi": [
    {
      "inputs": [
        {
          "internalType": "address",
          "name": "_pool",
          "type": "address"
        },
        {
          "internalType": "address",
          "name": "_swapManager",
          "type": "address"
        },
        {
          "internalType": "address",
          "name": "_comptroller",
          "type": "address"
        },
        {
          "internalType": "address",
          "name": "_rewardToken",
          "type": "address"
        },
        {
          "internalType": "address",
          "name": "_aaveAddressesProvider",
          "type": "address"
        },
        {
          "internalType": "address",
          "name": "_receiptToken",
          "type": "address"
        },
        {
          "internalType": "string",
          "name": "_name",
          "type": "string"
        }
      ],
      "stateMutability": "nonpayable",
      "type": "constructor"
    },
    {
      "anonymous": false,
      "inputs": [
        {
          "indexed": false,
          "internalType": "uint256",
          "name": "previousMinBorrowRatio",
          "type": "uint256"
        },
        {
          "indexed": false,
          "internalType": "uint256",
          "name": "newMinBorrowRatio",
          "type": "uint256"
        },
        {
          "indexed": false,
          "internalType": "uint256",
          "name": "previousMaxBorrowRatio",
          "type": "uint256"
        },
        {
          "indexed": false,
          "internalType": "uint256",
          "name": "newMaxBorrowRatio",
          "type": "uint256"
        }
      ],
      "name": "UpdatedBorrowRatio",
      "type": "event"
    },
    {
      "anonymous": false,
      "inputs": [
        {
          "indexed": true,
          "internalType": "address",
          "name": "previousFeeCollector",
          "type": "address"
        },
        {
          "indexed": true,
          "internalType": "address",
          "name": "newFeeCollector",
          "type": "address"
        }
      ],
      "name": "UpdatedFeeCollector",
      "type": "event"
    },
    {
      "anonymous": false,
      "inputs": [
        {
          "indexed": true,
          "internalType": "contract IRoutedSwapper",
          "name": "oldSwapper",
          "type": "address"
        },
        {
          "indexed": true,
          "internalType": "contract IRoutedSwapper",
          "name": "newSwapper",
          "type": "address"
        }
      ],
      "name": "UpdatedSwapper",
      "type": "event"
    },
    {
      "inputs": [],
      "name": "NAME",
      "outputs": [
        {
          "internalType": "string",
          "name": "",
          "type": "string"
        }
      ],
      "stateMutability": "view",
      "type": "function"
    },
    {
      "inputs": [],
      "name": "VERSION",
      "outputs": [
        {
          "internalType": "string",
          "name": "",
          "type": "string"
        }
      ],
      "stateMutability": "view",
      "type": "function"
    },
    {
      "inputs": [
        {
          "internalType": "address",
          "name": "_keeperAddress",
          "type": "address"
        }
      ],
      "name": "addKeeper",
      "outputs": [],
      "stateMutability": "nonpayable",
      "type": "function"
    },
    {
      "inputs": [
        {
          "internalType": "uint256",
          "name": "_approvalAmount",
          "type": "uint256"
        }
      ],
      "name": "approveToken",
      "outputs": [],
      "stateMutability": "nonpayable",
      "type": "function"
    },
    {
      "inputs": [
        {
          "internalType": "uint256",
          "name": "_minAmountOut",
          "type": "uint256"
        }
      ],
      "name": "claimAndSwapRewards",
      "outputs": [
        {
          "internalType": "uint256",
          "name": "_amountOut",
          "type": "uint256"
        }
      ],
      "stateMutability": "nonpayable",
      "type": "function"
    },
    {
      "inputs": [],
      "name": "collateral",
      "outputs": [
        {
          "internalType": "address",
          "name": "",
          "type": "address"
        }
      ],
      "stateMutability": "view",
      "type": "function"
    },
    {
      "inputs": [],
      "name": "collateralToken",
      "outputs": [
        {
          "internalType": "contract IERC20",
          "name": "",
          "type": "address"
        }
      ],
      "stateMutability": "view",
      "type": "function"
    },
    {
      "inputs": [],
      "name": "comptroller",
      "outputs": [
        {
          "internalType": "contract Comptroller",
          "name": "",
          "type": "address"
        }
      ],
      "stateMutability": "view",
      "type": "function"
    },
    {
      "inputs": [],
      "name": "currentBorrowRatio",
      "outputs": [
        {
          "internalType": "uint256",
          "name": "",
          "type": "uint256"
        }
      ],
      "stateMutability": "view",
      "type": "function"
    },
    {
      "inputs": [
        {
          "internalType": "address[]",
          "name": "",
          "type": "address[]"
        },
        {
          "internalType": "uint256[]",
          "name": "_amounts",
          "type": "uint256[]"
        },
        {
          "internalType": "uint256[]",
          "name": "_premiums",
          "type": "uint256[]"
        },
        {
          "internalType": "address",
          "name": "_initiator",
          "type": "address"
        },
        {
          "internalType": "bytes",
          "name": "_data",
          "type": "bytes"
        }
      ],
      "name": "executeOperation",
      "outputs": [
        {
          "internalType": "bool",
          "name": "",
          "type": "bool"
        }
      ],
      "stateMutability": "nonpayable",
      "type": "function"
    },
    {
      "inputs": [],
      "name": "feeCollector",
      "outputs": [
        {
          "internalType": "address",
          "name": "",
          "type": "address"
        }
      ],
      "stateMutability": "view",
      "type": "function"
    },
    {
      "inputs": [],
      "name": "getPosition",
      "outputs": [
        {
          "internalType": "uint256",
          "name": "_supply",
          "type": "uint256"
        },
        {
          "internalType": "uint256",
          "name": "_borrow",
          "type": "uint256"
        }
      ],
      "stateMutability": "view",
      "type": "function"
    },
    {
      "inputs": [],
      "name": "isAaveActive",
      "outputs": [
        {
          "internalType": "bool",
          "name": "",
          "type": "bool"
        }
      ],
      "stateMutability": "view",
      "type": "function"
    },
    {
      "inputs": [
        {
          "internalType": "address",
          "name": "_token",
          "type": "address"
        }
      ],
      "name": "isReservedToken",
      "outputs": [
        {
          "internalType": "bool",
          "name": "",
          "type": "bool"
        }
      ],
      "stateMutability": "view",
      "type": "function"
    },
    {
      "inputs": [],
      "name": "keepers",
      "outputs": [
        {
          "internalType": "address[]",
          "name": "",
          "type": "address[]"
        }
      ],
      "stateMutability": "view",
      "type": "function"
    },
    {
      "inputs": [],
      "name": "maxBorrowRatio",
      "outputs": [
        {
          "internalType": "uint256",
          "name": "",
          "type": "uint256"
        }
      ],
      "stateMutability": "view",
      "type": "function"
    },
    {
      "inputs": [
        {
          "internalType": "address",
          "name": "_newStrategy",
          "type": "address"
        }
      ],
      "name": "migrate",
      "outputs": [],
      "stateMutability": "nonpayable",
      "type": "function"
    },
    {
      "inputs": [],
      "name": "minBorrowRatio",
      "outputs": [
        {
          "internalType": "uint256",
          "name": "",
          "type": "uint256"
        }
      ],
      "stateMutability": "view",
      "type": "function"
    },
    {
      "inputs": [],
      "name": "pool",
      "outputs": [
        {
          "internalType": "address",
          "name": "",
          "type": "address"
        }
      ],
      "stateMutability": "view",
      "type": "function"
    },
    {
      "inputs": [],
      "name": "rebalance",
      "outputs": [
        {
          "internalType": "uint256",
          "name": "_profit",
          "type": "uint256"
        },
        {
          "internalType": "uint256",
          "name": "_loss",
          "type": "uint256"
        },
        {
          "internalType": "uint256",
          "name": "_payback",
          "type": "uint256"
        }
      ],
      "stateMutability": "nonpayable",
      "type": "function"
    },
    {
      "inputs": [],
      "name": "receiptToken",
      "outputs": [
        {
          "internalType": "address",
          "name": "",
          "type": "address"
        }
      ],
      "stateMutability": "view",
      "type": "function"
    },
    {
      "inputs": [
        {
          "internalType": "address",
          "name": "_keeperAddress",
          "type": "address"
        }
      ],
      "name": "removeKeeper",
      "outputs": [],
      "stateMutability": "nonpayable",
      "type": "function"
    },
    {
      "inputs": [],
      "name": "rewardToken",
      "outputs": [
        {
          "internalType": "address",
          "name": "",
          "type": "address"
        }
      ],
      "stateMutability": "view",
      "type": "function"
    },
    {
      "inputs": [
        {
          "internalType": "contract IERC20",
          "name": "_tokenIn",
          "type": "address"
        },
        {
          "internalType": "uint256",
          "name": "_minAmountOut",
          "type": "uint256"
        }
      ],
      "name": "swapToCollateral",
      "outputs": [
        {
          "internalType": "uint256",
          "name": "_amountOut",
          "type": "uint256"
        }
      ],
      "stateMutability": "nonpayable",
      "type": "function"
    },
    {
      "inputs": [],
      "name": "swapper",
      "outputs": [
        {
          "internalType": "contract IRoutedSwapper",
          "name": "",
          "type": "address"
        }
      ],
      "stateMutability": "view",
      "type": "function"
    },
    {
      "inputs": [
        {
          "internalType": "address",
          "name": "_fromToken",
          "type": "address"
        }
      ],
      "name": "sweep",
      "outputs": [],
      "stateMutability": "nonpayable",
      "type": "function"
    },
    {
      "inputs": [],
      "name": "token",
      "outputs": [
        {
          "internalType": "address",
          "name": "",
          "type": "address"
        }
      ],
      "stateMutability": "view",
      "type": "function"
    },
    {
      "inputs": [],
      "name": "tvl",
      "outputs": [
        {
          "internalType": "uint256",
          "name": "",
          "type": "uint256"
        }
      ],
      "stateMutability": "view",
      "type": "function"
    },
    {
      "inputs": [
        {
          "internalType": "bool",
          "name": "_status",
          "type": "bool"
        }
      ],
      "name": "updateAaveStatus",
      "outputs": [],
      "stateMutability": "nonpayable",
      "type": "function"
    },
    {
      "inputs": [
        {
          "internalType": "uint256",
          "name": "_minBorrowRatio",
          "type": "uint256"
        },
        {
          "internalType": "uint256",
          "name": "_maxBorrowRatio",
          "type": "uint256"
        }
      ],
      "name": "updateBorrowRatio",
      "outputs": [],
      "stateMutability": "nonpayable",
      "type": "function"
    },
    {
      "inputs": [
        {
          "internalType": "address",
          "name": "_feeCollector",
          "type": "address"
        }
      ],
      "name": "updateFeeCollector",
      "outputs": [],
      "stateMutability": "nonpayable",
      "type": "function"
    },
    {
      "inputs": [
        {
          "internalType": "contract IRoutedSwapper",
          "name": "_swapper",
          "type": "address"
        }
      ],
      "name": "updateSwapper",
      "outputs": [],
      "stateMutability": "nonpayable",
      "type": "function"
    },
    {
      "inputs": [
        {
          "internalType": "uint256",
          "name": "_amount",
          "type": "uint256"
        }
      ],
      "name": "withdraw",
      "outputs": [],
      "stateMutability": "nonpayable",
      "type": "function"
    },
    {
      "stateMutability": "payable",
      "type": "receive"
    }
  ],
  "transactionHash": "0xa596457ea87438331108a8045161bfcd5790bee7eee6a4dab48bac6d222324d7",
  "args": [
    "0xCcF3d1AcF799bAe67F6e354d685295557cf64761",
    "0x017CBF62b53313d5eE3aD1288daA95CD39AA11fE",
    "0x60CF091cD3f50420d50fD7f707414d0DF4751C58",
    "0x1DB2466d9F5e10D7090E7152B68d62703a2245F0",
    "0xa97684ead0e402dC232d5A977953DF7ECBaB3CDb",
    "0xf7B5965f5C117Eb1B5450187c9DcFccc3C317e8E",
    "Sonne_Leverage_ETH"
  ],
  "numDeployments": 1,
  "solcInputHash": "17b66827d396d8018d789e07b93590f9",
  "bytecode": "0x60e0604052611388600655611770600755600a805461ffff60a01b191690553480156200002b57600080fd5b506040516200536e3803806200536e8339810160408190526200004e916200051b565b828787878786868585836001600160a01b038316620000b45760405162461bcd60e51b815260206004820152601460248201527f706f6f6c2d616464726573732d69732d7a65726f00000000000000000000000060448201526064015b60405180910390fd5b6001600160a01b0382166200010c5760405162461bcd60e51b815260206004820152601760248201527f737761707065722d616464726573732d69732d7a65726f0000000000000000006044820152606401620000ab565b600280546001600160a01b0319166001600160a01b0384811691909117909155831660a081905260408051637e062a3560e11b8152905163fc0c546a91600480820192602092909190829003018186803b1580156200016a57600080fd5b505afa1580156200017f573d6000803e3d6000fd5b505050506040513d601f19601f82011682018060405250810190620001a5919062000657565b6001600160a01b03908116608052600080546001600160a01b031916918316919091179055620001ec620001d63390565b6003620003a160201b6200236c1790919060201c565b6200022e5760405162461bcd60e51b81526020600482015260116024820152701859190b5ad9595c195c8b59985a5b1959607a1b6044820152606401620000ab565b50508151620002469150600590602084019062000413565b506001600160a01b0384166200029f5760405162461bcd60e51b815260206004820152601b60248201527f636f6d7074726f6c6c65722d616464726573732d69732d7a65726f00000000006044820152606401620000ab565b6001600160a01b0384811660c052600980546001600160a01b0319168583161790558216620003115760405162461bcd60e51b815260206004820152601660248201527f63546f6b656e2d616464726573732d69732d7a65726f000000000000000000006044820152606401620000ab565b50600880546001600160a01b0319166001600160a01b03928316179055604080518082019091526002815261031360f41b60208201529450851615159250620003729150505760405162461bcd60e51b8152600401620000ab91906200067e565b50600a80546001600160a01b0319166001600160a01b039290921691909117905550620006f095505050505050565b6000620003b8836001600160a01b038416620003c1565b90505b92915050565b60008181526001830160205260408120546200040a57508154600181810184556000848152602080822090930184905584548482528286019093526040902091909155620003bb565b506000620003bb565b8280546200042190620006b3565b90600052602060002090601f01602090048101928262000445576000855562000490565b82601f106200046057805160ff191683800117855562000490565b8280016001018555821562000490579182015b828111156200049057825182559160200191906001019062000473565b506200049e929150620004a2565b5090565b5b808211156200049e5760008155600101620004a3565b6001600160a01b0381168114620004cf57600080fd5b50565b634e487b7160e01b600052604160045260246000fd5b60005b8381101562000505578181015183820152602001620004eb565b8381111562000515576000848401525b50505050565b600080600080600080600060e0888a0312156200053757600080fd5b87516200054481620004b9565b60208901519097506200055781620004b9565b60408901519096506200056a81620004b9565b60608901519095506200057d81620004b9565b60808901519094506200059081620004b9565b60a0890151909350620005a381620004b9565b60c08901519092506001600160401b0380821115620005c157600080fd5b818a0191508a601f830112620005d657600080fd5b815181811115620005eb57620005eb620004d2565b604051601f8201601f19908116603f01168101908382118183101715620006165762000616620004d2565b816040528281528d60208487010111156200063057600080fd5b62000643836020830160208801620004e8565b809550505050505092959891949750929550565b6000602082840312156200066a57600080fd5b81516200067781620004b9565b9392505050565b60208152600082518060208401526200069f816040850160208701620004e8565b601f01601f19169190910160400192915050565b600181811c90821680620006c857607f821691505b60208210811415620006ea57634e487b7160e01b600052602260045260246000fd5b50919050565b60805160a05160c051614b2862000846600039600081816103ac01528181612b810152612da401526000818161028501528181610aed01528181610c3301528181610d7a01528181610e4f01528181610f020152818161147d0152818161154a015281816117750152818161198001528181611b8b0152818161217401528181612705015281816135b50152818161365401526143020152600081816104bf015281816105a60152818161075f0152818161096d01528181610a1001528181610cc001528181610d5801528181610dc601528181610e8201528181611061015281816116f901528181611cc401528181611da401528181611e89015281816120570152818161209501528181612574015281816126a7015281816127ad01528181613281015281816134ba015281816138090152818161390a01528181613a260152818161424c01526142e00152614b286000f3fe6080604052600436106101f25760003560e01c80639b7166a91161010d578063d3332539116100a0578063ee330ee31161006f578063ee330ee3146105ff578063f7c618c11461061f578063fc0c546a1461063f578063fef395d31461065d578063ffa1ad741461067d57600080fd5b8063d333253914610577578063d8dfeb4514610597578063e5328e06146105ca578063ec78e832146105df57600080fd5b8063c415b95c116100dc578063c415b95c146104f7578063ce5494bb14610517578063d2c35ce814610537578063d3033c391461055757600080fd5b80639b7166a91461046a578063a3f4df7e1461048b578063b2016bd4146104ad578063b9098e3c146104e157600080fd5b80634032b72b116101855780637398ab18116101545780637398ab18146103ce5780637d7c2a1c146103f8578063920f5c8414610428578063951dc22c1461044857600080fd5b80634032b72b14610335578063440d7248146103555780635abda028146103855780635fe3b5671461039a57600080fd5b80632a049a21116101c15780632a049a21146102bf5780632b3297f9146102d55780632e1a7d4d146102f55780633ac9fc111461031557600080fd5b806301681a62146101fe5780631026013a1461022057806314ae9f2e1461025357806316f0115b1461027357600080fd5b366101f957005b600080fd5b34801561020a57600080fd5b5061021e61021936600461449d565b6106ae565b005b34801561022c57600080fd5b5061024061023b3660046144ba565b610905565b6040519081526020015b60405180910390f35b34801561025f57600080fd5b5061021e61026e36600461449d565b610aeb565b34801561027f57600080fd5b506102a77f000000000000000000000000000000000000000000000000000000000000000081565b6040516001600160a01b03909116815260200161024a565b3480156102cb57600080fd5b5061024060075481565b3480156102e157600080fd5b506002546102a7906001600160a01b031681565b34801561030157600080fd5b5061021e6103103660046144ba565b610c30565b34801561032157600080fd5b5061021e6103303660046144ba565b610ea9565b34801561034157600080fd5b5061021e61035036600461449d565b610f00565b34801561036157600080fd5b5061037561037036600461449d565b611045565b604051901515815260200161024a565b34801561039157600080fd5b5061024061109b565b3480156103a657600080fd5b506102a77f000000000000000000000000000000000000000000000000000000000000000081565b3480156103da57600080fd5b506103e36110da565b6040805192835260208301919091520161024a565b34801561040457600080fd5b5061040d61118f565b6040805193845260208401929092529082015260600161024a565b34801561043457600080fd5b5061037561044336600461452c565b6111f5565b34801561045457600080fd5b5061045d6113db565b60405161024a9190614675565b34801561047657600080fd5b50600a5461037590600160a01b900460ff1681565b34801561049757600080fd5b506104a06113ec565b60405161024a91906146e0565b3480156104b957600080fd5b506102a77f000000000000000000000000000000000000000000000000000000000000000081565b3480156104ed57600080fd5b5061024060065481565b34801561050357600080fd5b506001546102a7906001600160a01b031681565b34801561052357600080fd5b5061021e61053236600461449d565b61147a565b34801561054357600080fd5b5061021e61055236600461449d565b611773565b34801561056357600080fd5b5061021e61057236600461449d565b61197e565b34801561058357600080fd5b5061021e610592366004614701565b611b89565b3480156105a357600080fd5b507f00000000000000000000000000000000000000000000000000000000000000006102a7565b3480156105d657600080fd5b50610240611c91565b3480156105eb57600080fd5b506000546102a7906001600160a01b031681565b34801561060b57600080fd5b5061024061061a36600461471e565b611d52565b34801561062b57600080fd5b506009546102a7906001600160a01b031681565b34801561064b57600080fd5b506000546001600160a01b03166102a7565b34801561066957600080fd5b5061021e61067836600461474a565b612172565b34801561068957600080fd5b506104a0604051806040016040528060058152602001640352e312e360dc1b81525081565b6106bb335b600390612388565b6107055760405162461bcd60e51b815260206004820152601660248201527531b0b63632b916b4b996b737ba16b096b5b2b2b832b960511b60448201526064015b60405180910390fd5b6001546001600160a01b031661075d5760405162461bcd60e51b815260206004820152601560248201527f6665652d636f6c6c6563746f722d6e6f742d736574000000000000000000000060448201526064016106fc565b7f00000000000000000000000000000000000000000000000000000000000000006001600160a01b0316816001600160a01b031614156107df5760405162461bcd60e51b815260206004820152601f60248201527f6e6f742d616c6c6f7765642d746f2d73776565702d636f6c6c61746572616c0060448201526064016106fc565b6107e881611045565b1561082c5760405162461bcd60e51b815260206004820152601460248201527306e6f742d616c6c6f7765642d746f2d73776565760641b60448201526064016106fc565b6001600160a01b03811673eeeeeeeeeeeeeeeeeeeeeeeeeeeeeeeeeeeeeeee141561086a57600154610867906001600160a01b0316476123aa565b50565b6040516370a0823160e01b81523060048201526000906001600160a01b038316906370a082319060240160206040518083038186803b1580156108ac57600080fd5b505afa1580156108c0573d6000803e3d6000fd5b505050506040513d601f19601f820116820180604052508101906108e4919061476c565b600154909150610901906001600160a01b038481169116836124c8565b5050565b6000610910336106b3565b6109555760405162461bcd60e51b815260206004820152601660248201527531b0b63632b916b4b996b737ba16b096b5b2b2b832b960511b60448201526064016106fc565b6040516370a0823160e01b81523060048201526000907f00000000000000000000000000000000000000000000000000000000000000006001600160a01b0316906370a082319060240160206040518083038186803b1580156109b757600080fd5b505afa1580156109cb573d6000803e3d6000fd5b505050506040513d601f19601f820116820180604052508101906109ef919061476c565b90506109f9612558565b6040516370a0823160e01b815230600482015281907f00000000000000000000000000000000000000000000000000000000000000006001600160a01b0316906370a082319060240160206040518083038186803b158015610a5a57600080fd5b505afa158015610a6e573d6000803e3d6000fd5b505050506040513d601f19601f82011682018060405250810190610a92919061476c565b610a9c919061479b565b915082821015610ae55760405162461bcd60e51b81526020600482015260146024820152731b9bdd0b595b9bdd59da0b585b5bdd5b9d13dd5d60621b60448201526064016106fc565b50919050565b7f00000000000000000000000000000000000000000000000000000000000000006001600160a01b0316630c340a246040518163ffffffff1660e01b815260040160206040518083038186803b158015610b4457600080fd5b505afa158015610b58573d6000803e3d6000fd5b505050506040513d601f19601f82011682018060405250810190610b7c91906147b2565b6001600160a01b0316336001600160a01b031614610bd95760405162461bcd60e51b815260206004820152601a60248201527931b0b63632b916b4b996b737ba16ba343296b3b7bb32b93737b960311b60448201526064016106fc565b610be4600382612599565b6108675760405162461bcd60e51b815260206004820152601460248201527f72656d6f76652d6b65657065722d6661696c656400000000000000000000000060448201526064016106fc565b337f00000000000000000000000000000000000000000000000000000000000000006001600160a01b031614610ca85760405162461bcd60e51b815260206004820152601960248201527f63616c6c65722d69732d6e6f742d7665737065722d706f6f6c0000000000000060448201526064016106fc565b6040516370a0823160e01b81523060048201526000907f00000000000000000000000000000000000000000000000000000000000000006001600160a01b0316906370a082319060240160206040518083038186803b158015610d0a57600080fd5b505afa158015610d1e573d6000803e3d6000fd5b505050506040513d601f19601f82011682018060405250810190610d42919061476c565b9050818110610d9f576109016001600160a01b037f0000000000000000000000000000000000000000000000000000000000000000167f0000000000000000000000000000000000000000000000000000000000000000846124c8565b610db1610dac828461479b565b6125ae565b6040516370a0823160e01b81523060048201527f00000000000000000000000000000000000000000000000000000000000000006001600160a01b0316906370a082319060240160206040518083038186803b158015610e1057600080fd5b505afa158015610e24573d6000803e3d6000fd5b505050506040513d601f19601f82011682018060405250810190610e48919061476c565b90506109017f0000000000000000000000000000000000000000000000000000000000000000610e788484612683565b6001600160a01b037f00000000000000000000000000000000000000000000000000000000000000001691906124c8565b610eb2336106b3565b610ef75760405162461bcd60e51b815260206004820152601660248201527531b0b63632b916b4b996b737ba16b096b5b2b2b832b960511b60448201526064016106fc565b61086781612699565b7f00000000000000000000000000000000000000000000000000000000000000006001600160a01b0316630c340a246040518163ffffffff1660e01b815260040160206040518083038186803b158015610f5957600080fd5b505afa158015610f6d573d6000803e3d6000fd5b505050506040513d601f19601f82011682018060405250810190610f9191906147b2565b6001600160a01b0316336001600160a01b031614610fee5760405162461bcd60e51b815260206004820152601a60248201527931b0b63632b916b4b996b737ba16ba343296b3b7bb32b93737b960311b60448201526064016106fc565b610ff960038261236c565b6108675760405162461bcd60e51b815260206004820152601160248201527f6164642d6b65657065722d6661696c656400000000000000000000000000000060448201526064016106fc565b6008546000906001600160a01b038381169116148061109557507f00000000000000000000000000000000000000000000000000000000000000006001600160a01b0316826001600160a01b0316145b92915050565b60008060006110a86110da565b91509150806000146110d057816110c1612710836147cf565b6110cb91906147ee565b6110d3565b60005b9250505090565b6008546040516361bfb47160e11b815230600482015260009182918291829182916001600160a01b03169063c37f68e29060240160806040518083038186803b15801561112657600080fd5b505afa15801561113a573d6000803e3d6000fd5b505050506040513d601f19601f8201168201806040525081019061115e9190614810565b93509350935050670de0b6b3a7640000818461117a91906147cf565b61118491906147ee565b959194509092505050565b6000808061119c336106b3565b6111e15760405162461bcd60e51b815260206004820152601660248201527531b0b63632b916b4b996b737ba16b096b5b2b2b832b960511b60448201526064016106fc565b6111e96126cc565b9250925092505b909192565b600a546040805163026b1d5f60e01b815290516000926001600160a01b03169163026b1d5f916004808301926020929190829003018186803b15801561123a57600080fd5b505afa15801561124e573d6000803e3d6000fd5b505050506040513d601f19601f8201168201806040525081019061127291906147b2565b6001600160a01b0316336001600160a01b0316146112bf5760405162461bcd60e51b815260206004820152600a6024820152690858585d994b5c1bdbdb60b21b60448201526064016106fc565b600a54604080518082019091526002815261323760f01b602082015290600160a81b900460ff166113035760405162461bcd60e51b81526004016106fc91906146e0565b50604080518082019091526002815261064760f31b60208201526001600160a01b03851630146113465760405162461bcd60e51b81526004016106fc91906146e0565b5060008686600081811061135c5761135c614846565b905060200201358989600081811061137657611376614846565b90506020020135611387919061485c565b90506113ca84848080601f016020809104026020016040519081016040528093929190818152602001838380828437600092019190915250859250612771915050565b5060019a9950505050505050505050565b60606113e7600361289e565b905090565b600580546113f990614874565b80601f016020809104026020016040519081016040528092919081815260200182805461142590614874565b80156114725780601f1061144757610100808354040283529160200191611472565b820191906000526020600020905b81548152906001019060200180831161145557829003601f168201915b505050505081565b337f00000000000000000000000000000000000000000000000000000000000000006001600160a01b0316146114f25760405162461bcd60e51b815260206004820152601960248201527f63616c6c65722d69732d6e6f742d7665737065722d706f6f6c0000000000000060448201526064016106fc565b6001600160a01b0381166115485760405162461bcd60e51b815260206004820152601c60248201527f6e65772d73747261746567792d616464726573732d69732d7a65726f0000000060448201526064016106fc565b7f00000000000000000000000000000000000000000000000000000000000000006001600160a01b0316816001600160a01b03166316f0115b6040518163ffffffff1660e01b815260040160206040518083038186803b1580156115ab57600080fd5b505afa1580156115bf573d6000803e3d6000fd5b505050506040513d601f19601f820116820180604052508101906115e391906147b2565b6001600160a01b0316146116395760405162461bcd60e51b815260206004820152601660248201527f6e6f742d76616c69642d6e65772d73747261746567790000000000000000000060448201526064016106fc565b611642816128ab565b6000546040516370a0823160e01b81523060048201526116d69183916001600160a01b03909116906370a082319060240160206040518083038186803b15801561168b57600080fd5b505afa15801561169f573d6000803e3d6000fd5b505050506040513d601f19601f820116820180604052508101906116c3919061476c565b6000546001600160a01b031691906124c8565b6040516370a0823160e01b81523060048201526108679082906001600160a01b037f000000000000000000000000000000000000000000000000000000000000000016906370a082319060240160206040518083038186803b15801561173b57600080fd5b505afa15801561174f573d6000803e3d6000fd5b505050506040513d601f19601f82011682018060405250810190610e78919061476c565b7f00000000000000000000000000000000000000000000000000000000000000006001600160a01b0316630c340a246040518163ffffffff1660e01b815260040160206040518083038186803b1580156117cc57600080fd5b505afa1580156117e0573d6000803e3d6000fd5b505050506040513d601f19601f8201168201806040525081019061180491906147b2565b6001600160a01b0316336001600160a01b0316146118615760405162461bcd60e51b815260206004820152601a60248201527931b0b63632b916b4b996b737ba16ba343296b3b7bb32b93737b960311b60448201526064016106fc565b6001600160a01b0381166118b75760405162461bcd60e51b815260206004820152601d60248201527f6665652d636f6c6c6563746f722d616464726573732d69732d7a65726f00000060448201526064016106fc565b6001546001600160a01b03828116911614156119155760405162461bcd60e51b815260206004820152601560248201527f6665652d636f6c6c6563746f722d69732d73616d65000000000000000000000060448201526064016106fc565b6001546040516001600160a01b038084169216907f0f06062680f9bd68e786e9980d9bb03d73d5620fc3b345e417b6eacb310b970690600090a36001805473ffffffffffffffffffffffffffffffffffffffff19166001600160a01b0392909216919091179055565b7f00000000000000000000000000000000000000000000000000000000000000006001600160a01b0316630c340a246040518163ffffffff1660e01b815260040160206040518083038186803b1580156119d757600080fd5b505afa1580156119eb573d6000803e3d6000fd5b505050506040513d601f19601f82011682018060405250810190611a0f91906147b2565b6001600160a01b0316336001600160a01b031614611a6c5760405162461bcd60e51b815260206004820152601a60248201527931b0b63632b916b4b996b737ba16ba343296b3b7bb32b93737b960311b60448201526064016106fc565b6001600160a01b038116611ac25760405162461bcd60e51b815260206004820152601760248201527f737761707065722d616464726573732d69732d7a65726f00000000000000000060448201526064016106fc565b6002546001600160a01b0382811691161415611b205760405162461bcd60e51b815260206004820152600f60248201527f737761707065722d69732d73616d65000000000000000000000000000000000060448201526064016106fc565b6002546040516001600160a01b038084169216907f6c953b7ec311055c20b96a42cea31e89528e375b1bf953a503db40854b3188fe90600090a36002805473ffffffffffffffffffffffffffffffffffffffff19166001600160a01b0392909216919091179055565b7f00000000000000000000000000000000000000000000000000000000000000006001600160a01b0316630c340a246040518163ffffffff1660e01b815260040160206040518083038186803b158015611be257600080fd5b505afa158015611bf6573d6000803e3d6000fd5b505050506040513d601f19601f82011682018060405250810190611c1a91906147b2565b6001600160a01b0316336001600160a01b031614611c775760405162461bcd60e51b815260206004820152601a60248201527931b0b63632b916b4b996b737ba16ba343296b3b7bb32b93737b960311b60448201526064016106fc565b600a805460ff60a01b1916600160a01b8315150217905550565b6000806000611c9e6110da565b6040516370a0823160e01b81523060048201529193509150819083906001600160a01b037f000000000000000000000000000000000000000000000000000000000000000016906370a082319060240160206040518083038186803b158015611d0657600080fd5b505afa158015611d1a573d6000803e3d6000fd5b505050506040513d601f19601f82011682018060405250810190611d3e919061476c565b611d48919061485c565b6110d3919061479b565b6000611d5d336106b3565b611da25760405162461bcd60e51b815260206004820152601660248201527531b0b63632b916b4b996b737ba16b096b5b2b2b832b960511b60448201526064016106fc565b7f00000000000000000000000000000000000000000000000000000000000000006001600160a01b0316836001600160a01b03161415611e245760405162461bcd60e51b815260206004820152601f60248201527f6e6f742d616c6c6f7765642d746f2d73776565702d636f6c6c61746572616c0060448201526064016106fc565b611e2d83611045565b15611e715760405162461bcd60e51b815260206004820152601460248201527306e6f742d616c6c6f7765642d746f2d73776565760641b60448201526064016106fc565b6040516370a0823160e01b81523060048201526000907f00000000000000000000000000000000000000000000000000000000000000006001600160a01b0316906370a082319060240160206040518083038186803b158015611ed357600080fd5b505afa158015611ee7573d6000803e3d6000fd5b505050506040513d601f19601f82011682018060405250810190611f0b919061476c565b6040516370a0823160e01b81523060048201529091506000906001600160a01b038616906370a082319060240160206040518083038186803b158015611f5057600080fd5b505afa158015611f64573d6000803e3d6000fd5b505050506040513d601f19601f82011682018060405250810190611f88919061476c565b9050801561207e57600254604051636eb1769f60e11b81523060048201526001600160a01b0391821660248201529086169063dd62ed3e9060440160206040518083038186803b158015611fdb57600080fd5b505afa158015611fef573d6000803e3d6000fd5b505050506040513d601f19601f82011682018060405250810190612013919061476c565b81111561205157600254612035906001600160a01b038781169116600061298d565b600254612051906001600160a01b03878116911660001961298d565b61207c857f000000000000000000000000000000000000000000000000000000000000000083612ab8565b505b6040516370a0823160e01b815230600482015282907f00000000000000000000000000000000000000000000000000000000000000006001600160a01b0316906370a082319060240160206040518083038186803b1580156120df57600080fd5b505afa1580156120f3573d6000803e3d6000fd5b505050506040513d601f19601f82011682018060405250810190612117919061476c565b612121919061479b565b92508383101561216a5760405162461bcd60e51b81526020600482015260146024820152731b9bdd0b595b9bdd59da0b585b5bdd5b9d13dd5d60621b60448201526064016106fc565b505092915050565b7f00000000000000000000000000000000000000000000000000000000000000006001600160a01b0316630c340a246040518163ffffffff1660e01b815260040160206040518083038186803b1580156121cb57600080fd5b505afa1580156121df573d6000803e3d6000fd5b505050506040513d601f19601f8201168201806040525081019061220391906147b2565b6001600160a01b0316336001600160a01b0316146122605760405162461bcd60e51b815260206004820152601a60248201527931b0b63632b916b4b996b737ba16ba343296b3b7bb32b93737b960311b60448201526064016106fc565b655af3107a400061226f612b5c565b61227991906147ee565b81106122c75760405162461bcd60e51b815260206004820152601860248201527f696e76616c69642d6d61782d626f72726f772d6c696d6974000000000000000060448201526064016106fc565b8181116123165760405162461bcd60e51b815260206004820152601d60248201527f6d61782d73686f756c642d62652d6869676865722d7468616e2d6d696e00000060448201526064016106fc565b6006546007546040805192835260208301859052820152606081018290527f0e68fa4c4a80a75427bcce81b711855825bd765ea0e6e15e330653b2437db78e9060800160405180910390a1600691909155600755565b6000612381836001600160a01b038416612c19565b9392505050565b6001600160a01b03811660009081526001830160205260408120541515612381565b804710156123fa5760405162461bcd60e51b815260206004820152601d60248201527f416464726573733a20696e73756666696369656e742062616c616e636500000060448201526064016106fc565b6000826001600160a01b03168260405160006040518083038185875af1925050503d8060008114612447576040519150601f19603f3d011682016040523d82523d6000602084013e61244c565b606091505b50509050806124c35760405162461bcd60e51b815260206004820152603a60248201527f416464726573733a20756e61626c6520746f2073656e642076616c75652c207260448201527f6563697069656e74206d6179206861766520726576657274656400000000000060648201526084016106fc565b505050565b6040516001600160a01b0383166024820152604481018290526124c390849063a9059cbb60e01b906064015b60408051601f198184030181529190526020810180517bffffffffffffffffffffffffffffffffffffffffffffffffffffffff167fffffffff0000000000000000000000000000000000000000000000000000000090931692909217909152612c68565b600080612563612d3a565b9092509050801561090157610901827f000000000000000000000000000000000000000000000000000000000000000083612e95565b6000612381836001600160a01b038416612f37565b6000806125bc83600061302a565b91509150801561267a576125d0828261321f565b6125da908361479b565b915060005b6000831180156125f05750600a8111155b1561260c576126008360016132ba565b909203916001016125df565b6000806126176110da565b9092509050841561266a57600754600090156126495760075461263c612710846147cf565b61264691906147ee565b90505b6000612655828561479b565b905080881115612663578097505b5050612676565b81861115612676578195505b5050505b6124c383613325565b60008183106126925781612381565b5090919050565b6126a2816134a0565b6108677f000000000000000000000000000000000000000000000000000000000000000082613500565b60008060006126d961358f565b6040516302df682360e11b815260048101849052602481018390526044810182905292955090935091507f00000000000000000000000000000000000000000000000000000000000000006001600160a01b0316906305bed04690606401600060405180830381600087803b15801561275157600080fd5b505af1158015612765573d6000803e3d6000fd5b505050506111f0613a0e565b6000808380602001905181019061278891906148a9565b6040516370a0823160e01b815230600482015291935091506000906001600160a01b037f000000000000000000000000000000000000000000000000000000000000000016906370a082319060240160206040518083038186803b1580156127ef57600080fd5b505afa158015612803573d6000803e3d6000fd5b505050506040513d601f19601f82011682018060405250810190612827919061476c565b9050828110156128685760405162461bcd60e51b815260206004820152600c60248201526b11931054d217d1905253115160a21b60448201526064016106fc565b81156128855761287783613b0a565b61288084613325565b612897565b61288e81613bd5565b61289784613ca0565b5050505050565b6060600061238183613d6b565b60085460408051637e062a3560e11b815290516001600160a01b039283169284169163fc0c546a916004808301926020929190829003018186803b1580156128f257600080fd5b505afa158015612906573d6000803e3d6000fd5b505050506040513d601f19601f8201168201806040525081019061292a91906147b2565b6001600160a01b0316146129805760405162461bcd60e51b815260206004820152601360248201527f77726f6e672d726563656970742d746f6b656e0000000000000000000000000060448201526064016106fc565b6000600655610867613a0e565b801580612a165750604051636eb1769f60e11b81523060048201526001600160a01b03838116602483015284169063dd62ed3e9060440160206040518083038186803b1580156129dc57600080fd5b505afa1580156129f0573d6000803e3d6000fd5b505050506040513d601f19601f82011682018060405250810190612a14919061476c565b155b612a885760405162461bcd60e51b815260206004820152603660248201527f5361666545524332303a20617070726f76652066726f6d206e6f6e2d7a65726f60448201527f20746f206e6f6e2d7a65726f20616c6c6f77616e63650000000000000000000060648201526084016106fc565b6040516001600160a01b0383166024820152604481018290526124c390849063095ea7b360e01b906064016124f4565b600254604051636ccb2b0160e01b81526001600160a01b038581166004830152848116602483015260448201849052600160648301523060848301526000921690636ccb2b019060a401602060405180830381600087803b158015612b1c57600080fd5b505af1158015612b30573d6000803e3d6000fd5b505050506040513d601f19601f82011682018060405250810190612b54919061476c565b949350505050565b600854604051638e8f294b60e01b81526001600160a01b0391821660048201526000917f00000000000000000000000000000000000000000000000000000000000000001690638e8f294b9060240160606040518083038186803b158015612bc357600080fd5b505afa158015612bd7573d6000803e3d6000fd5b505050506040513d601f19601f82011682018060405250810190612bfb91906148d9565b5091506127109050612c0f61251c836147cf565b6113e791906147ee565b6000818152600183016020526040812054612c6057508154600181810184556000848152602080822090930184905584548482528286019093526040902091909155611095565b506000611095565b6000612cbd826040518060400160405280602081526020017f5361666545524332303a206c6f772d6c6576656c2063616c6c206661696c6564815250856001600160a01b0316613dc79092919063ffffffff16565b8051909150156124c35780806020019051810190612cdb919061491c565b6124c35760405162461bcd60e51b815260206004820152602a60248201527f5361666545524332303a204552433230206f7065726174696f6e20646964206e6044820152691bdd081cdd58d8d9595960b21b60648201526084016106fc565b6040805160018082528183019092526000918291829160208083019080368337505060085482519293506001600160a01b031691839150600090612d8057612d80614846565b6001600160a01b03928316602091820292909201015260405162e1ed9760e51b81527f000000000000000000000000000000000000000000000000000000000000000090911690631c3db2e090612ddd9030908590600401614939565b600060405180830381600087803b158015612df757600080fd5b505af1158015612e0b573d6000803e3d6000fd5b50506009546040516370a0823160e01b81523060048201526001600160a01b0390911692508291506370a082319060240160206040518083038186803b158015612e5457600080fd5b505afa158015612e68573d6000803e3d6000fd5b505050506040513d601f19601f82011682018060405250810190612e8c919061476c565b92509250509091565b600254604051636ccb2b0160e01b81526001600160a01b0385811660048301528481166024830152604482018490526001606483015230608483015290911690636ccb2b019060a401602060405180830381600087803b158015612ef857600080fd5b505af1925050508015612f28575060408051601f3d908101601f19168201909252612f259181019061476c565b60015b612f3157505050565b50505050565b60008181526001830160205260408120548015613020576000612f5b60018361479b565b8554909150600090612f6f9060019061479b565b9050818114612fd4576000866000018281548110612f8f57612f8f614846565b9060005260206000200154905080876000018481548110612fb257612fb2614846565b6000918252602080832090910192909255918252600188019052604090208390555b8554869080612fe557612fe561495b565b600190038181906000526020600020016000905590558560010160008681526020019081526020016000206000905560019350505050611095565b6000915050611095565b600854604051633af9e66960e01b8152306004820152600091829182916001600160a01b031690633af9e66990602401602060405180830381600087803b15801561307457600080fd5b505af1158015613088573d6000803e3d6000fd5b505050506040513d601f19601f820116820180604052508101906130ac919061476c565b6008546040516395dd919360e01b81523060048201529192506000916001600160a01b03909116906395dd91939060240160206040518083038186803b1580156130f557600080fd5b505afa158015613109573d6000803e3d6000fd5b505050506040513d601f19601f8201168201806040525081019061312d919061476c565b905060065460001415613147579250600191506132189050565b6000613153828461479b565b90506000866131795787821161316a576000613183565b613174888361479b565b613183565b613183888361485c565b90506000600754612710613197919061479b565b6007546131a490846147cf565b6131ae91906147ee565b905060006006546127106131c2919061479b565b6006546131cf90856147cf565b6131d991906147ee565b9050818511156131f857600196506131f1818661479b565b9750613211565b80851015613211576000965061320e858261479b565b97505b5050505050505b9250929050565b600a546000908190600160a01b900460ff16801561323a5750825b80156132465750600084115b15612381576000848460405160200161326b9291909182521515602082015260400190565b60405160208183030381529060405290506132a77f00000000000000000000000000000000000000000000000000000000000000008683613dd6565b6132b1908361485c565b95945050505050565b60008060006132c76110da565b915091508060001480156132d85750835b156132e857600092505050611095565b60006132f2612b5c565b9050841561330d576133068684848461418b565b935061331c565b613319868484846141f1565b93505b50505092915050565b60001981141561346f576008546040516370a0823160e01b81523060048201526001600160a01b039091169063db006a759082906370a082319060240160206040518083038186803b15801561337a57600080fd5b505afa15801561338e573d6000803e3d6000fd5b505050506040513d601f19601f820116820180604052508101906133b2919061476c565b6040518263ffffffff1660e01b81526004016133d091815260200190565b602060405180830381600087803b1580156133ea57600080fd5b505af11580156133fe573d6000803e3d6000fd5b505050506040513d601f19601f82011682018060405250810190613422919061476c565b156108675760405162461bcd60e51b815260206004820152601d60248201527f77697468647261772d66726f6d2d636f6d706f756e642d6661696c656400000060448201526064016106fc565b60085460405163852a12e360e01b8152600481018390526001600160a01b039091169063852a12e3906024016133d0565b6134a9816142d3565b6008546134e3906001600160a01b037f0000000000000000000000000000000000000000000000000000000000000000811691168361298d565b600254600954610867916001600160a01b0391821691168361298d565b600a546040805163026b1d5f60e01b81529051610901926001600160a01b03169163026b1d5f916004808301926020929190829003018186803b15801561354657600080fd5b505afa15801561355a573d6000803e3d6000fd5b505050506040513d601f19601f8201168201806040525081019061357e91906147b2565b6001600160a01b038416908361298d565b604051636a9eee1360e11b81523060048201526000908190819081906001600160a01b037f0000000000000000000000000000000000000000000000000000000000000000169063d53ddc269060240160206040518083038186803b1580156135f757600080fd5b505afa15801561360b573d6000803e3d6000fd5b505050506040513d601f19601f8201168201806040525081019061362f919061476c565b60405163228bfd9f60e01b815230600482015290915060009081906001600160a01b037f0000000000000000000000000000000000000000000000000000000000000000169063228bfd9f906024016101206040518083038186803b15801561369757600080fd5b505afa1580156136ab573d6000803e3d6000fd5b505050506040513d601f19601f820116820180604052508101906136cf9190614971565b506008546040516395dd919360e01b8152949a50909850600097506001600160a01b031695506395dd9193945061370f9350309260040191506144d39050565b60206040518083038186803b15801561372757600080fd5b505afa15801561373b573d6000803e3d6000fd5b505050506040513d601f19601f8201168201806040525081019061375f919061476c565b600854604051633af9e66960e01b81523060048201526001600160a01b0390911690633af9e66990602401602060405180830381600087803b1580156137a457600080fd5b505af11580156137b8573d6000803e3d6000fd5b505050506040513d601f19601f820116820180604052508101906137dc919061476c565b6137e6919061479b565b6040516370a0823160e01b81523060048201529091506000906001600160a01b037f000000000000000000000000000000000000000000000000000000000000000016906370a082319060240160206040518083038186803b15801561384b57600080fd5b505afa15801561385f573d6000803e3d6000fd5b505050506040513d601f19601f82011682018060405250810190613883919061476c565b90506000613891828461485c565b9050848111156138ac576138a5858261479b565b98506138b9565b6138b6818661479b565b97505b60006138c5878b61485c565b9050808310156139915760006138e46138de858461479b565b86612683565b9050801561398f576138f5816125ae565b6040516370a0823160e01b81523060048201527f00000000000000000000000000000000000000000000000000000000000000006001600160a01b0316906370a082319060240160206040518083038186803b15801561395457600080fd5b505afa158015613968573d6000803e3d6000fd5b505050506040513d601f19601f8201168201806040525081019061398c919061476c565b93505b505b61399b8388612683565b97508783116139ab5760006139be565b6139be6139b8898561479b565b8b612683565b995084613a02576000806139d06110da565b915091506000821180156139e2575080155b156139ff576139f2600019613325565b6139fc828d61485c565b9b505b50505b50505050505050909192565b6040516370a0823160e01b81523060048201526000907f00000000000000000000000000000000000000000000000000000000000000006001600160a01b0316906370a082319060240160206040518083038186803b158015613a7057600080fd5b505afa158015613a84573d6000803e3d6000fd5b505050506040513d601f19601f82011682018060405250810190613aa8919061476c565b9050600080613ab883600161302a565b91509150613ac583613bd5565b613acf828261321f565b613ad9908361479b565b915060005b600083118015613aef575060068111155b15612f3157613afe83836132ba565b90920391600101613ade565b60085460405163073a938160e11b8152600481018390526001600160a01b0390911690630e75270290602401602060405180830381600087803b158015613b5057600080fd5b505af1158015613b64573d6000803e3d6000fd5b505050506040513d601f19601f82011682018060405250810190613b88919061476c565b156108675760405162461bcd60e51b815260206004820152601860248201527f72657061792d746f2d636f6d706f756e642d6661696c6564000000000000000060448201526064016106fc565b60085460405163140e25ad60e31b8152600481018390526001600160a01b039091169063a0712d6890602401602060405180830381600087803b158015613c1b57600080fd5b505af1158015613c2f573d6000803e3d6000fd5b505050506040513d601f19601f82011682018060405250810190613c53919061476c565b156108675760405162461bcd60e51b815260206004820152601960248201527f737570706c792d746f2d636f6d706f756e642d6661696c65640000000000000060448201526064016106fc565b60085460405163317afabb60e21b8152600481018390526001600160a01b039091169063c5ebeaec90602401602060405180830381600087803b158015613ce657600080fd5b505af1158015613cfa573d6000803e3d6000fd5b505050506040513d601f19601f82011682018060405250810190613d1e919061476c565b156108675760405162461bcd60e51b815260206004820152601b60248201527f626f72726f772d66726f6d2d636f6d706f756e642d6661696c6564000000000060448201526064016106fc565b606081600001805480602002602001604051908101604052809291908181526020018280548015613dbb57602002820191906000526020600020905b815481526020019060010190808311613da7575b50505050509050919050565b6060612b548484600085614327565b600a54604080518082019091526002815261323560f01b6020820152600091600160a01b900460ff16613e1c5760405162461bcd60e51b81526004016106fc91906146e0565b50600a546040805163e860accb60e01b815290516000926001600160a01b03169163e860accb916004808301926020929190829003018186803b158015613e6257600080fd5b505afa158015613e76573d6000803e3d6000fd5b505050506040513d601f19601f82011682018060405250810190613e9a91906147b2565b6040516334924edb60e21b81526001600160a01b038781166004830152919091169063d2493b6c9060240160606040518083038186803b158015613edd57600080fd5b505afa158015613ef1573d6000803e3d6000fd5b505050506040513d601f19601f82011682018060405250810190613f1591906149e5565b50506040516370a0823160e01b81526001600160a01b0380831660048301529192506000918716906370a082319060240160206040518083038186803b158015613f5e57600080fd5b505afa158015613f72573d6000803e3d6000fd5b505050506040513d601f19601f82011682018060405250810190613f96919061476c565b905080851115613fa4578094505b604080516001808252818301909252600091602080830190803683370190505090508681600081518110613fda57613fda614846565b6001600160a01b039290921660209283029190910190910152604080516001808252818301909252600091816020016020820280368337019050509050868160008151811061402b5761402b614846565b602090810291909101015260408051600180825281830190925260009181602001602082028036833701905050905060008160008151811061406f5761406f614846565b602090810291909101810191909152600a805460ff60a81b198116600160a81b179091556040805163026b1d5f60e01b815290516001600160a01b039092169263026b1d5f92600480840193829003018186803b1580156140cf57600080fd5b505afa1580156140e3573d6000803e3d6000fd5b505050506040513d601f19601f8201168201806040525081019061410791906147b2565b6001600160a01b031663ab9c4b5d30858585308d60006040518863ffffffff1660e01b815260040161413f9796959493929190614a57565b600060405180830381600087803b15801561415957600080fd5b505af115801561416d573d6000803e3d6000fd5b5050600a805460ff60a81b1916905550979998505050505050505050565b60008082156141b457826141a785670de0b6b3a76400006147cf565b6141b191906147ee565b90505b6141be818661479b565b91508382106141cb578391505b8582106141d6578591505b6141df82613325565b6141e882613b0a565b50949350505050565b600080670de0b6b3a764000061420784876147cf565b61421191906147ee565b905061421d848261479b565b915085821061422a578591505b61423382613ca0565b6040516370a0823160e01b81523060048201526141e8907f00000000000000000000000000000000000000000000000000000000000000006001600160a01b0316906370a082319060240160206040518083038186803b15801561429657600080fd5b505afa1580156142aa573d6000803e3d6000fd5b505050506040513d601f19601f820116820180604052508101906142ce919061476c565b613bd5565b6108676001600160a01b037f0000000000000000000000000000000000000000000000000000000000000000167f00000000000000000000000000000000000000000000000000000000000000008361298d565b6060824710156143885760405162461bcd60e51b815260206004820152602660248201527f416464726573733a20696e73756666696369656e742062616c616e636520666f6044820152651c8818d85b1b60d21b60648201526084016106fc565b843b6143d65760405162461bcd60e51b815260206004820152601d60248201527f416464726573733a2063616c6c20746f206e6f6e2d636f6e747261637400000060448201526064016106fc565b600080866001600160a01b031685876040516143f29190614ad6565b60006040518083038185875af1925050503d806000811461442f576040519150601f19603f3d011682016040523d82523d6000602084013e614434565b606091505b509150915061444482828661444f565b979650505050505050565b6060831561445e575081612381565b82511561446e5782518084602001fd5b8160405162461bcd60e51b81526004016106fc91906146e0565b6001600160a01b038116811461086757600080fd5b6000602082840312156144af57600080fd5b813561238181614488565b6000602082840312156144cc57600080fd5b5035919050565b6001600160a01b0391909116815260200190565b60008083601f8401126144f957600080fd5b50813567ffffffffffffffff81111561451157600080fd5b6020830191508360208260051b850101111561321857600080fd5b600080600080600080600080600060a08a8c03121561454a57600080fd5b893567ffffffffffffffff8082111561456257600080fd5b61456e8d838e016144e7565b909b50995060208c013591508082111561458757600080fd5b6145938d838e016144e7565b909950975060408c01359150808211156145ac57600080fd5b6145b88d838e016144e7565b909750955060608c013591506145cd82614488565b90935060808b013590808211156145e357600080fd5b818c0191508c601f8301126145f757600080fd5b81358181111561460657600080fd5b8d602082850101111561461857600080fd5b6020830194508093505050509295985092959850929598565b600081518084526020808501945080840160005b8381101561466a5781516001600160a01b031687529582019590820190600101614645565b509495945050505050565b6020815260006123816020830184614631565b60005b838110156146a357818101518382015260200161468b565b83811115612f315750506000910152565b600081518084526146cc816020860160208601614688565b601f01601f19169290920160200192915050565b60208152600061238160208301846146b4565b801515811461086757600080fd5b60006020828403121561471357600080fd5b8135612381816146f3565b6000806040838503121561473157600080fd5b823561473c81614488565b946020939093013593505050565b6000806040838503121561475d57600080fd5b50508035926020909101359150565b60006020828403121561477e57600080fd5b5051919050565b634e487b7160e01b600052601160045260246000fd5b6000828210156147ad576147ad614785565b500390565b6000602082840312156147c457600080fd5b815161238181614488565b60008160001904831182151516156147e9576147e9614785565b500290565b60008261480b57634e487b7160e01b600052601260045260246000fd5b500490565b6000806000806080858703121561482657600080fd5b505082516020840151604085015160609095015191969095509092509050565b634e487b7160e01b600052603260045260246000fd5b6000821982111561486f5761486f614785565b500190565b600181811c9082168061488857607f821691505b60208210811415610ae557634e487b7160e01b600052602260045260246000fd5b600080604083850312156148bc57600080fd5b8251915060208301516148ce816146f3565b809150509250929050565b6000806000606084860312156148ee57600080fd5b83516148f9816146f3565b602085015160408601519194509250614911816146f3565b809150509250925092565b60006020828403121561492e57600080fd5b8151612381816146f3565b6001600160a01b0383168152604060208201526000612b546040830184614631565b634e487b7160e01b600052603160045260246000fd5b60008060008060008060008060006101208a8c03121561499057600080fd5b895161499b816146f3565b8099505060208a0151975060408a0151965060608a0151955060808a0151945060a08a0151935060c08a0151925060e08a015191506101008a015190509295985092959850929598565b6000806000606084860312156149fa57600080fd5b8351614a0581614488565b6020850151909350614a1681614488565b604085015190925061491181614488565b600081518084526020808501945080840160005b8381101561466a57815187529582019590820190600101614a3b565b60006001600160a01b03808a16835260e06020840152614a7a60e084018a614631565b8381036040850152614a8c818a614a27565b90508381036060850152614aa08189614a27565b9050818716608085015283810360a0850152614abc81876146b4565b9250505061ffff831660c083015298975050505050505050565b60008251614ae8818460208701614688565b919091019291505056fea264697066735822122056f52bea9086d3296e3a9e741e4b37cc4762a35347ce2481f689c2ad2fbad58b64736f6c63430008090033",
  "devdoc": {
    "kind": "dev",
    "methods": {
      "addKeeper(address)": {
        "params": {
          "_keeperAddress": "keeper address to add."
        }
      },
      "approveToken(uint256)": {
        "details": "Approve all required tokens"
      },
      "executeOperation(address[],uint256[],uint256[],address,bytes)": {
        "details": "Aave will call this function after doing flash loan"
      },
      "migrate(address)": {
        "details": "_beforeMigration hook can be implemented in child strategy to do extra steps.",
        "params": {
          "_newStrategy": "Address of new strategy"
        }
      },
      "rebalance()": {
        "returns": {
          "_loss": "Realized loss, if any, in collateral.",
          "_payback": "If strategy has any excess debt, we have to liquidate asset to payback excess debt.",
          "_profit": "Realized profit in collateral."
        }
      },
      "removeKeeper(address)": {
        "params": {
          "_keeperAddress": "keeper address to remove."
        }
      },
      "sweep(address)": {
        "params": {
          "_fromToken": "token address to sweep"
        }
      },
      "updateBorrowRatio(uint256,uint256)": {
        "details": "It is possible to set 0 as _minBorrowRatio to not borrow anything",
        "params": {
          "_maxBorrowRatio": "Maximum % we want to borrow",
          "_minBorrowRatio": "Minimum % we want to borrow"
        }
      },
      "updateFeeCollector(address)": {
        "params": {
          "_feeCollector": "fee collector address"
        }
      },
      "updateSwapper(address)": {
        "params": {
          "_swapper": "swapper address"
        }
      },
      "withdraw(uint256)": {
        "params": {
          "_amount": "Amount of collateral token"
        }
      }
    },
    "version": 1
  },
  "userdoc": {
    "kind": "user",
    "methods": {
      "addKeeper(address)": {
        "notice": "Add given address in keepers list."
      },
      "claimAndSwapRewards(uint256)": {
        "notice": "Claim rewardToken and convert rewardToken into collateral token."
      },
      "collateral()": {
        "notice": "Returns address of token correspond to collateral token"
      },
      "currentBorrowRatio()": {
        "notice": "Current borrow ratio, calculated as current borrow divide by max allowed borrow Return value is based on basis points, i.e. 7500 = 75% ratio"
      },
      "getPosition()": {
        "notice": "Return supply and borrow position. Position may return few block old value"
      },
      "isReservedToken(address)": {
        "notice": "Check whether given token is reserved or not. Reserved tokens are not allowed to sweep."
      },
      "keepers()": {
        "notice": "Return list of keepers"
      },
      "migrate(address)": {
        "notice": "Migrate all asset and vault ownership,if any, to new strategy"
      },
      "rebalance()": {
        "notice": "OnlyKeeper: Rebalance profit, loss and investment of this strategy.  Calculate profit, loss and payback of this strategy and realize profit/loss and  withdraw fund for payback, if any, and submit this report to pool."
      },
      "removeKeeper(address)": {
        "notice": "Remove given address from keepers list."
      },
      "swapToCollateral(address,uint256)": {
        "notice": "onlyKeeper:: Swap given token into collateral token."
      },
      "sweep(address)": {
        "notice": "sweep given token to feeCollector of strategy"
      },
      "token()": {
        "notice": "Returns address of token correspond to receipt token"
      },
      "tvl()": {
        "notice": "Returns total collateral locked in the strategy"
      },
      "updateBorrowRatio(uint256,uint256)": {
        "notice": "Update upper and lower borrow ratio"
      },
      "updateFeeCollector(address)": {
        "notice": "Update fee collector"
      },
      "updateSwapper(address)": {
        "notice": "Update swapper"
      },
      "withdraw(uint256)": {
        "notice": "Withdraw collateral token from end protocol."
      }
    },
    "version": 1
  },
  "storageLayout": {
    "storage": [
      {
        "astId": 14716,
        "contract": "vesper-strategies/contracts/strategies/compound/optimism/SonneLeverage.sol:SonneLeverage",
        "label": "receiptToken",
        "offset": 0,
        "slot": "0",
        "type": "t_address"
      },
      {
        "astId": 14722,
        "contract": "vesper-strategies/contracts/strategies/compound/optimism/SonneLeverage.sol:SonneLeverage",
        "label": "feeCollector",
        "offset": 0,
        "slot": "1",
        "type": "t_address"
      },
      {
        "astId": 14725,
        "contract": "vesper-strategies/contracts/strategies/compound/optimism/SonneLeverage.sol:SonneLeverage",
        "label": "swapper",
        "offset": 0,
        "slot": "2",
        "type": "t_contract(IRoutedSwapper)13284"
      },
      {
        "astId": 14738,
        "contract": "vesper-strategies/contracts/strategies/compound/optimism/SonneLeverage.sol:SonneLeverage",
        "label": "_keepers",
        "offset": 0,
        "slot": "3",
        "type": "t_struct(AddressSet)3027_storage"
      },
      {
        "astId": 20869,
        "contract": "vesper-strategies/contracts/strategies/compound/optimism/SonneLeverage.sol:SonneLeverage",
        "label": "NAME",
        "offset": 0,
        "slot": "5",
        "type": "t_string_storage"
      },
      {
        "astId": 20878,
        "contract": "vesper-strategies/contracts/strategies/compound/optimism/SonneLeverage.sol:SonneLeverage",
        "label": "minBorrowRatio",
        "offset": 0,
        "slot": "6",
        "type": "t_uint256"
      },
      {
        "astId": 20881,
        "contract": "vesper-strategies/contracts/strategies/compound/optimism/SonneLeverage.sol:SonneLeverage",
        "label": "maxBorrowRatio",
        "offset": 0,
        "slot": "7",
        "type": "t_uint256"
      },
      {
        "astId": 20887,
        "contract": "vesper-strategies/contracts/strategies/compound/optimism/SonneLeverage.sol:SonneLeverage",
        "label": "cToken",
        "offset": 0,
        "slot": "8",
        "type": "t_contract(CToken)10453"
      },
      {
        "astId": 20892,
        "contract": "vesper-strategies/contracts/strategies/compound/optimism/SonneLeverage.sol:SonneLeverage",
        "label": "rewardToken",
        "offset": 0,
        "slot": "9",
        "type": "t_address"
      },
      {
        "astId": 13409,
        "contract": "vesper-strategies/contracts/strategies/compound/optimism/SonneLeverage.sol:SonneLeverage",
        "label": "poolAddressesProvider",
        "offset": 0,
        "slot": "10",
        "type": "t_contract(PoolAddressesProviderV3)9928"
      },
      {
        "astId": 13412,
        "contract": "vesper-strategies/contracts/strategies/compound/optimism/SonneLeverage.sol:SonneLeverage",
        "label": "isAaveActive",
        "offset": 20,
        "slot": "10",
        "type": "t_bool"
      },
      {
        "astId": 13478,
        "contract": "vesper-strategies/contracts/strategies/compound/optimism/SonneLeverage.sol:SonneLeverage",
        "label": "awaitingFlash",
        "offset": 21,
        "slot": "10",
        "type": "t_bool"
      }
    ],
    "types": {
      "t_address": {
        "encoding": "inplace",
        "label": "address",
        "numberOfBytes": "20"
      },
      "t_array(t_bytes32)dyn_storage": {
        "base": "t_bytes32",
        "encoding": "dynamic_array",
        "label": "bytes32[]",
        "numberOfBytes": "32"
      },
      "t_bool": {
        "encoding": "inplace",
        "label": "bool",
        "numberOfBytes": "1"
      },
      "t_bytes32": {
        "encoding": "inplace",
        "label": "bytes32",
        "numberOfBytes": "32"
      },
      "t_contract(CToken)10453": {
        "encoding": "inplace",
        "label": "contract CToken",
        "numberOfBytes": "20"
      },
      "t_contract(IRoutedSwapper)13284": {
        "encoding": "inplace",
        "label": "contract IRoutedSwapper",
        "numberOfBytes": "20"
      },
      "t_contract(PoolAddressesProviderV3)9928": {
        "encoding": "inplace",
        "label": "contract PoolAddressesProviderV3",
        "numberOfBytes": "20"
      },
      "t_mapping(t_bytes32,t_uint256)": {
        "encoding": "mapping",
        "key": "t_bytes32",
        "label": "mapping(bytes32 => uint256)",
        "numberOfBytes": "32",
        "value": "t_uint256"
      },
      "t_string_storage": {
        "encoding": "bytes",
        "label": "string",
        "numberOfBytes": "32"
      },
      "t_struct(AddressSet)3027_storage": {
        "encoding": "inplace",
        "label": "struct EnumerableSet.AddressSet",
        "members": [
          {
            "astId": 3026,
            "contract": "vesper-strategies/contracts/strategies/compound/optimism/SonneLeverage.sol:SonneLeverage",
            "label": "_inner",
            "offset": 0,
            "slot": "0",
            "type": "t_struct(Set)2726_storage"
          }
        ],
        "numberOfBytes": "64"
      },
      "t_struct(Set)2726_storage": {
        "encoding": "inplace",
        "label": "struct EnumerableSet.Set",
        "members": [
          {
            "astId": 2721,
            "contract": "vesper-strategies/contracts/strategies/compound/optimism/SonneLeverage.sol:SonneLeverage",
            "label": "_values",
            "offset": 0,
            "slot": "0",
            "type": "t_array(t_bytes32)dyn_storage"
          },
          {
            "astId": 2725,
            "contract": "vesper-strategies/contracts/strategies/compound/optimism/SonneLeverage.sol:SonneLeverage",
            "label": "_indexes",
            "offset": 0,
            "slot": "1",
            "type": "t_mapping(t_bytes32,t_uint256)"
          }
        ],
        "numberOfBytes": "64"
      },
      "t_uint256": {
        "encoding": "inplace",
        "label": "uint256",
        "numberOfBytes": "32"
      }
    }
  }
}