{
  "address": "0x34FA07AeCd10F45bc72934b31D4a601d04045d8E",
  "abi": [
    {
      "inputs": [
        {
          "internalType": "address",
          "name": "pool_",
          "type": "address"
        },
        {
          "internalType": "address",
          "name": "swapper_",
          "type": "address"
        },
        {
          "internalType": "address",
          "name": "receiptToken_",
          "type": "address"
        },
        {
          "internalType": "address",
          "name": "stakingRewards_",
          "type": "address"
        },
        {
          "internalType": "string",
          "name": "name_",
          "type": "string"
        }
      ],
      "stateMutability": "nonpayable",
      "type": "constructor"
    },
    {
      "anonymous": false,
      "inputs": [
        {
          "indexed": true,
          "internalType": "address",
          "name": "previousFeeCollector",
          "type": "address"
        },
        {
          "indexed": true,
          "internalType": "address",
          "name": "newFeeCollector",
          "type": "address"
        }
      ],
      "name": "UpdatedFeeCollector",
      "type": "event"
    },
    {
      "anonymous": false,
      "inputs": [
        {
          "indexed": true,
          "internalType": "contract IRoutedSwapper",
          "name": "oldSwapper",
          "type": "address"
        },
        {
          "indexed": true,
          "internalType": "contract IRoutedSwapper",
          "name": "newSwapper",
          "type": "address"
        }
      ],
      "name": "UpdatedSwapper",
      "type": "event"
    },
    {
      "inputs": [],
      "name": "NAME",
      "outputs": [
        {
          "internalType": "string",
          "name": "",
          "type": "string"
        }
      ],
      "stateMutability": "view",
      "type": "function"
    },
    {
      "inputs": [],
      "name": "VERSION",
      "outputs": [
        {
          "internalType": "string",
          "name": "",
          "type": "string"
        }
      ],
      "stateMutability": "view",
      "type": "function"
    },
    {
      "inputs": [
        {
          "internalType": "address",
          "name": "_keeperAddress",
          "type": "address"
        }
      ],
      "name": "addKeeper",
      "outputs": [],
      "stateMutability": "nonpayable",
      "type": "function"
    },
    {
      "inputs": [
        {
          "internalType": "uint256",
          "name": "_approvalAmount",
          "type": "uint256"
        }
      ],
      "name": "approveToken",
      "outputs": [],
      "stateMutability": "nonpayable",
      "type": "function"
    },
    {
      "inputs": [
        {
          "internalType": "uint256",
          "name": "_minAmountOut",
          "type": "uint256"
        }
      ],
      "name": "claimAndSwapRewards",
      "outputs": [
        {
          "internalType": "uint256",
          "name": "_amountOut",
          "type": "uint256"
        }
      ],
      "stateMutability": "nonpayable",
      "type": "function"
    },
    {
      "inputs": [],
      "name": "collateral",
      "outputs": [
        {
          "internalType": "address",
          "name": "",
          "type": "address"
        }
      ],
      "stateMutability": "view",
      "type": "function"
    },
    {
      "inputs": [],
      "name": "collateralToken",
      "outputs": [
        {
          "internalType": "contract IERC20",
          "name": "",
          "type": "address"
        }
      ],
      "stateMutability": "view",
      "type": "function"
    },
    {
      "inputs": [],
      "name": "feeCollector",
      "outputs": [
        {
          "internalType": "address",
          "name": "",
          "type": "address"
        }
      ],
      "stateMutability": "view",
      "type": "function"
    },
    {
      "inputs": [
        {
          "internalType": "address",
          "name": "token_",
          "type": "address"
        }
      ],
      "name": "isReservedToken",
      "outputs": [
        {
          "internalType": "bool",
          "name": "",
          "type": "bool"
        }
      ],
      "stateMutability": "view",
      "type": "function"
    },
    {
      "inputs": [],
      "name": "keepers",
      "outputs": [
        {
          "internalType": "address[]",
          "name": "",
          "type": "address[]"
        }
      ],
      "stateMutability": "view",
      "type": "function"
    },
    {
      "inputs": [
        {
          "internalType": "address",
          "name": "_newStrategy",
          "type": "address"
        }
      ],
      "name": "migrate",
      "outputs": [],
      "stateMutability": "nonpayable",
      "type": "function"
    },
    {
      "inputs": [],
      "name": "pool",
      "outputs": [
        {
          "internalType": "address",
          "name": "",
          "type": "address"
        }
      ],
      "stateMutability": "view",
      "type": "function"
    },
    {
      "inputs": [],
      "name": "rebalance",
      "outputs": [
        {
          "internalType": "uint256",
          "name": "_profit",
          "type": "uint256"
        },
        {
          "internalType": "uint256",
          "name": "_loss",
          "type": "uint256"
        },
        {
          "internalType": "uint256",
          "name": "_payback",
          "type": "uint256"
        }
      ],
      "stateMutability": "nonpayable",
      "type": "function"
    },
    {
      "inputs": [],
      "name": "receiptToken",
      "outputs": [
        {
          "internalType": "address",
          "name": "",
          "type": "address"
        }
      ],
      "stateMutability": "view",
      "type": "function"
    },
    {
      "inputs": [
        {
          "internalType": "address",
          "name": "_keeperAddress",
          "type": "address"
        }
      ],
      "name": "removeKeeper",
      "outputs": [],
      "stateMutability": "nonpayable",
      "type": "function"
    },
    {
      "inputs": [],
      "name": "rewardToken",
      "outputs": [
        {
          "internalType": "address",
          "name": "",
          "type": "address"
        }
      ],
      "stateMutability": "view",
      "type": "function"
    },
    {
      "inputs": [],
      "name": "stakingRewards",
      "outputs": [
        {
          "internalType": "contract IStakingRewards",
          "name": "",
          "type": "address"
        }
      ],
      "stateMutability": "view",
      "type": "function"
    },
    {
      "inputs": [
        {
          "internalType": "contract IERC20",
          "name": "_tokenIn",
          "type": "address"
        },
        {
          "internalType": "uint256",
          "name": "_minAmountOut",
          "type": "uint256"
        }
      ],
      "name": "swapToCollateral",
      "outputs": [
        {
          "internalType": "uint256",
          "name": "_amountOut",
          "type": "uint256"
        }
      ],
      "stateMutability": "nonpayable",
      "type": "function"
    },
    {
      "inputs": [],
      "name": "swapper",
      "outputs": [
        {
          "internalType": "contract IRoutedSwapper",
          "name": "",
          "type": "address"
        }
      ],
      "stateMutability": "view",
      "type": "function"
    },
    {
      "inputs": [
        {
          "internalType": "address",
          "name": "_fromToken",
          "type": "address"
        }
      ],
      "name": "sweep",
      "outputs": [],
      "stateMutability": "nonpayable",
      "type": "function"
    },
    {
      "inputs": [],
      "name": "token",
      "outputs": [
        {
          "internalType": "address",
          "name": "",
          "type": "address"
        }
      ],
      "stateMutability": "view",
      "type": "function"
    },
    {
      "inputs": [],
      "name": "tvl",
      "outputs": [
        {
          "internalType": "uint256",
          "name": "",
          "type": "uint256"
        }
      ],
      "stateMutability": "view",
      "type": "function"
    },
    {
      "inputs": [
        {
          "internalType": "address",
          "name": "_feeCollector",
          "type": "address"
        }
      ],
      "name": "updateFeeCollector",
      "outputs": [],
      "stateMutability": "nonpayable",
      "type": "function"
    },
    {
      "inputs": [
        {
          "internalType": "contract IRoutedSwapper",
          "name": "_swapper",
          "type": "address"
        }
      ],
      "name": "updateSwapper",
      "outputs": [],
      "stateMutability": "nonpayable",
      "type": "function"
    },
    {
      "inputs": [
        {
          "internalType": "uint256",
          "name": "_amount",
          "type": "uint256"
        }
      ],
      "name": "withdraw",
      "outputs": [],
      "stateMutability": "nonpayable",
      "type": "function"
    }
  ],
  "transactionHash": "0xaf970fe42a30f0bfe2c4f1e9e6f4cdfa8e0a6fefbcfd725e9b3bf0c416a9178a",
  "args": [
    "0xCcF3d1AcF799bAe67F6e354d685295557cf64761",
    "0x017CBF62b53313d5eE3aD1288daA95CD39AA11fE",
    "0x5B977577Eb8a480f63e11FC615D6753adB8652Ae",
    "0xE35Fec3895Dcecc7d2a91e8ae4fF3c0d43ebfFE0",
    "Yearn_ETH"
  ],
  "numDeployments": 1,
  "solcInputHash": "fb5ec8e75cc1aa615dde834a2cf1af59",
  "bytecode": "0x6101606040523480156200001257600080fd5b5060405162004267380380620042678339810160408190526200003591620005cc565b8484846001600160a01b038316620000945760405162461bcd60e51b815260206004820152601460248201527f706f6f6c2d616464726573732d69732d7a65726f00000000000000000000000060448201526064015b60405180910390fd5b6001600160a01b038216620000ec5760405162461bcd60e51b815260206004820152601760248201527f737761707065722d616464726573732d69732d7a65726f00000000000000000060448201526064016200008b565b600280546001600160a01b0319166001600160a01b0384811691909117909155831660a081905260408051637e062a3560e11b8152905163fc0c546a91600480820192602092909190829003018186803b1580156200014a57600080fd5b505afa1580156200015f573d6000803e3d6000fd5b505050506040513d601f19601f8201168201806040525081019062000185919062000702565b6001600160a01b03908116608052600080546001600160a01b031916918316919091179055620001cc620001b63390565b60036200048560201b62001b381790919060201c565b6200020e5760405162461bcd60e51b81526020600482015260116024820152701859190b5ad9595c195c8b59985a5b1959607a1b60448201526064016200008b565b5050506001600160a01b038316620002695760405162461bcd60e51b815260206004820152601660248201527f79546f6b656e2d616464726573732d69732d6e756c6c0000000000000000000060448201526064016200008b565b6001600160a01b038216620002c15760405162461bcd60e51b815260206004820152601e60248201527f7374616b696e67526577617264732d616464726573732d69732d6e756c6c000060448201526064016200008b565b6001600160a01b03831660c08190526040805163313ce56760e01b8152905163313ce56791600480820192602092909190829003018186803b1580156200030757600080fd5b505afa1580156200031c573d6000803e3d6000fd5b505050506040513d601f19601f8201168201806040525081019062000342919062000729565b6200034f90600a62000861565b60e0526001600160a01b0382166101008190526040805163d1af0c7d60e01b8152905163d1af0c7d91600480820192602092909190829003018186803b1580156200039957600080fd5b505afa158015620003ae573d6000803e3d6000fd5b505050506040513d601f19601f82011682018060405250810190620003d4919062000702565b6001600160a01b031661014081905260408051637e062a3560e11b8152905163fc0c546a916004808201926020929091908290030181600087803b1580156200041c57600080fd5b505af115801562000431573d6000803e3d6000fd5b505050506040513d601f19601f8201168201806040525081019062000457919062000702565b6001600160a01b031661012052805162000479906005906020840190620004f7565b505050505050620008af565b60006200049c836001600160a01b038416620004a5565b90505b92915050565b6000818152600183016020526040812054620004ee575081546001818101845560008481526020808220909301849055845484825282860190935260409020919091556200049f565b5060006200049f565b828054620005059062000872565b90600052602060002090601f01602090048101928262000529576000855562000574565b82601f106200054457805160ff191683800117855562000574565b8280016001018555821562000574579182015b828111156200057457825182559160200191906001019062000557565b506200058292915062000586565b5090565b5b8082111562000582576000815560010162000587565b6001600160a01b0381168114620005b357600080fd5b50565b634e487b7160e01b600052604160045260246000fd5b600080600080600060a08688031215620005e557600080fd5b8551620005f2816200059d565b8095505060208087015162000607816200059d565b60408801519095506200061a816200059d565b60608801519094506200062d816200059d565b60808801519093506001600160401b03808211156200064b57600080fd5b818901915089601f8301126200066057600080fd5b815181811115620006755762000675620005b6565b604051601f8201601f19908116603f01168101908382118183101715620006a057620006a0620005b6565b816040528281528c86848701011115620006b957600080fd5b600093505b82841015620006dd5784840186015181850187015292850192620006be565b82841115620006ef5760008684830101525b8096505050505050509295509295909350565b6000602082840312156200071557600080fd5b815162000722816200059d565b9392505050565b6000602082840312156200073c57600080fd5b815160ff811681146200072257600080fd5b634e487b7160e01b600052601160045260246000fd5b600181815b80851115620007a55781600019048211156200078957620007896200074e565b808516156200079757918102915b93841c939080029062000769565b509250929050565b600082620007be575060016200049f565b81620007cd575060006200049f565b8160018114620007e65760028114620007f15762000811565b60019150506200049f565b60ff8411156200080557620008056200074e565b50506001821b6200049f565b5060208310610133831016604e8410600b841016171562000836575081810a6200049f565b62000842838362000764565b80600019048211156200085957620008596200074e565b029392505050565b60006200049c60ff841683620007ad565b600181811c908216806200088757607f821691505b60208210811415620008a957634e487b7160e01b600052602260045260246000fd5b50919050565b60805160a05160c05160e0516101005161012051610140516137b962000aae60003960008181611db00152611e5101526000818161041101528181611eef01528181611faa01528181611fdf01526124aa0152600081816102d601528181611d2801528181612110015281816121b70152818161247401528181612a5f01528181612afb01528181612b9b01526132e1015260008181612c0701526131ea0152600081816102910152818161059b015281816117c50152818161206801528181612233015281816122d2015281816124200152818161245201528181612921015281816129bf01528181612c280152818161315601526133780152600081816101fb015281816108ce01528181610a1701528181610b5e01528181610c3301528181610ce601528181610f33015281816110000152818161122b01528181611439015281816124f901528181612596015281816127fd015261324801526000818161034a015281816103ba015281816105190152818161074e015281816107f101528181610aa401528181610b3c01528181610baa01528181610c66015281816111af0152818161165d015281816117430152818161184f01528181611a1d01528181611a5b01528181611f8001528181612000015281816123fe015281816126330152818161272401528181612874015261322601526137b96000f3fe608060405234801561001057600080fd5b50600436106101a35760003560e01c8063a3f4df7e116100ee578063d8dfeb4511610097578063ee330ee311610071578063ee330ee3146103f9578063f7c618c11461040c578063fc0c546a14610433578063ffa1ad741461044457600080fd5b8063d8dfeb45146103b8578063e5328e06146103de578063ec78e832146103e657600080fd5b8063ce5494bb116100c8578063ce5494bb1461037f578063d2c35ce814610392578063d3033c39146103a557600080fd5b8063a3f4df7e14610330578063b2016bd414610345578063c415b95c1461036c57600080fd5b80633ac9fc111161015057806364b87a701161012a57806364b87a70146102d15780637d7c2a1c146102f8578063951dc22c1461031b57600080fd5b80633ac9fc111461025b5780634032b72b1461026e578063440d72481461028157600080fd5b806316f0115b1161018157806316f0115b146101f65780632b3297f9146102355780632e1a7d4d1461024857600080fd5b806301681a62146101a85780631026013a146101bd57806314ae9f2e146101e3575b600080fd5b6101bb6101b636600461351a565b610468565b005b6101d06101cb366004613537565b6106e6565b6040519081526020015b60405180910390f35b6101bb6101f136600461351a565b6108cc565b61021d7f000000000000000000000000000000000000000000000000000000000000000081565b6040516001600160a01b0390911681526020016101da565b60025461021d906001600160a01b031681565b6101bb610256366004613537565b610a14565b6101bb610269366004613537565b610c8d565b6101bb61027c36600461351a565b610ce4565b6102c161028f36600461351a565b7f00000000000000000000000000000000000000000000000000000000000000006001600160a01b0390811691161490565b60405190151581526020016101da565b61021d7f000000000000000000000000000000000000000000000000000000000000000081565b610300610e2c565b604080519384526020840192909252908201526060016101da565b610323610e91565b6040516101da9190613550565b610338610ea2565b6040516101da91906135c9565b61021d7f000000000000000000000000000000000000000000000000000000000000000081565b60015461021d906001600160a01b031681565b6101bb61038d36600461351a565b610f30565b6101bb6103a036600461351a565b611229565b6101bb6103b336600461351a565b611437565b7f000000000000000000000000000000000000000000000000000000000000000061021d565b6101d0611645565b60005461021d906001600160a01b031681565b6101d06104073660046135fc565b6116f1565b61021d7f000000000000000000000000000000000000000000000000000000000000000081565b6000546001600160a01b031661021d565b610338604051806040016040528060058152602001640352e312e360dc1b81525081565b610475335b600390611b56565b6104bf5760405162461bcd60e51b815260206004820152601660248201527531b0b63632b916b4b996b737ba16b096b5b2b2b832b960511b60448201526064015b60405180910390fd5b6001546001600160a01b03166105175760405162461bcd60e51b815260206004820152601560248201527f6665652d636f6c6c6563746f722d6e6f742d736574000000000000000000000060448201526064016104b6565b7f00000000000000000000000000000000000000000000000000000000000000006001600160a01b0316816001600160a01b031614156105995760405162461bcd60e51b815260206004820152601f60248201527f6e6f742d616c6c6f7765642d746f2d73776565702d636f6c6c61746572616c0060448201526064016104b6565b7f00000000000000000000000000000000000000000000000000000000000000006001600160a01b03908116908216141561060d5760405162461bcd60e51b815260206004820152601460248201527306e6f742d616c6c6f7765642d746f2d73776565760641b60448201526064016104b6565b6001600160a01b03811673eeeeeeeeeeeeeeeeeeeeeeeeeeeeeeeeeeeeeeee141561064b57600154610648906001600160a01b031647611b78565b50565b6040516370a0823160e01b81523060048201526000906001600160a01b038316906370a082319060240160206040518083038186803b15801561068d57600080fd5b505afa1580156106a1573d6000803e3d6000fd5b505050506040513d601f19601f820116820180604052508101906106c59190613628565b6001549091506106e2906001600160a01b03848116911683611c96565b5050565b60006106f13361046d565b6107365760405162461bcd60e51b815260206004820152601660248201527531b0b63632b916b4b996b737ba16b096b5b2b2b832b960511b60448201526064016104b6565b6040516370a0823160e01b81523060048201526000907f00000000000000000000000000000000000000000000000000000000000000006001600160a01b0316906370a082319060240160206040518083038186803b15801561079857600080fd5b505afa1580156107ac573d6000803e3d6000fd5b505050506040513d601f19601f820116820180604052508101906107d09190613628565b90506107da611d26565b6040516370a0823160e01b815230600482015281907f00000000000000000000000000000000000000000000000000000000000000006001600160a01b0316906370a082319060240160206040518083038186803b15801561083b57600080fd5b505afa15801561084f573d6000803e3d6000fd5b505050506040513d601f19601f820116820180604052508101906108739190613628565b61087d9190613657565b9150828210156108c65760405162461bcd60e51b81526020600482015260146024820152731b9bdd0b595b9bdd59da0b585b5bdd5b9d13dd5d60621b60448201526064016104b6565b50919050565b7f00000000000000000000000000000000000000000000000000000000000000006001600160a01b0316630c340a246040518163ffffffff1660e01b815260040160206040518083038186803b15801561092557600080fd5b505afa158015610939573d6000803e3d6000fd5b505050506040513d601f19601f8201168201806040525081019061095d919061366e565b6001600160a01b0316336001600160a01b0316146109bd5760405162461bcd60e51b815260206004820152601a60248201527f63616c6c65722d69732d6e6f742d7468652d676f7665726e6f7200000000000060448201526064016104b6565b6109c8600382612025565b6106485760405162461bcd60e51b815260206004820152601460248201527f72656d6f76652d6b65657065722d6661696c656400000000000000000000000060448201526064016104b6565b337f00000000000000000000000000000000000000000000000000000000000000006001600160a01b031614610a8c5760405162461bcd60e51b815260206004820152601960248201527f63616c6c65722d69732d6e6f742d7665737065722d706f6f6c0000000000000060448201526064016104b6565b6040516370a0823160e01b81523060048201526000907f00000000000000000000000000000000000000000000000000000000000000006001600160a01b0316906370a082319060240160206040518083038186803b158015610aee57600080fd5b505afa158015610b02573d6000803e3d6000fd5b505050506040513d601f19601f82011682018060405250810190610b269190613628565b9050818110610b83576106e26001600160a01b037f0000000000000000000000000000000000000000000000000000000000000000167f000000000000000000000000000000000000000000000000000000000000000084611c96565b610b95610b908284613657565b61203a565b6040516370a0823160e01b81523060048201527f00000000000000000000000000000000000000000000000000000000000000006001600160a01b0316906370a082319060240160206040518083038186803b158015610bf457600080fd5b505afa158015610c08573d6000803e3d6000fd5b505050506040513d601f19601f82011682018060405250810190610c2c9190613628565b90506106e27f0000000000000000000000000000000000000000000000000000000000000000610c5c84846123d2565b6001600160a01b037f0000000000000000000000000000000000000000000000000000000000000000169190611c96565b610c963361046d565b610cdb5760405162461bcd60e51b815260206004820152601660248201527531b0b63632b916b4b996b737ba16b096b5b2b2b832b960511b60448201526064016104b6565b610648816123e8565b7f00000000000000000000000000000000000000000000000000000000000000006001600160a01b0316630c340a246040518163ffffffff1660e01b815260040160206040518083038186803b158015610d3d57600080fd5b505afa158015610d51573d6000803e3d6000fd5b505050506040513d601f19601f82011682018060405250810190610d75919061366e565b6001600160a01b0316336001600160a01b031614610dd55760405162461bcd60e51b815260206004820152601a60248201527f63616c6c65722d69732d6e6f742d7468652d676f7665726e6f7200000000000060448201526064016104b6565b610de0600382611b38565b6106485760405162461bcd60e51b815260206004820152601160248201527f6164642d6b65657065722d6661696c656400000000000000000000000000000060448201526064016104b6565b60008080610e393361046d565b610e7e5760405162461bcd60e51b815260206004820152601660248201527531b0b63632b916b4b996b737ba16b096b5b2b2b832b960511b60448201526064016104b6565b610e866124d3565b925092509250909192565b6060610e9d6003612acf565b905090565b60058054610eaf9061368b565b80601f0160208091040260200160405190810160405280929190818152602001828054610edb9061368b565b8015610f285780601f10610efd57610100808354040283529160200191610f28565b820191906000526020600020905b815481529060010190602001808311610f0b57829003601f168201915b505050505081565b337f00000000000000000000000000000000000000000000000000000000000000006001600160a01b031614610fa85760405162461bcd60e51b815260206004820152601960248201527f63616c6c65722d69732d6e6f742d7665737065722d706f6f6c0000000000000060448201526064016104b6565b6001600160a01b038116610ffe5760405162461bcd60e51b815260206004820152601c60248201527f6e65772d73747261746567792d616464726573732d69732d7a65726f0000000060448201526064016104b6565b7f00000000000000000000000000000000000000000000000000000000000000006001600160a01b0316816001600160a01b03166316f0115b6040518163ffffffff1660e01b815260040160206040518083038186803b15801561106157600080fd5b505afa158015611075573d6000803e3d6000fd5b505050506040513d601f19601f82011682018060405250810190611099919061366e565b6001600160a01b0316146110ef5760405162461bcd60e51b815260206004820152601660248201527f6e6f742d76616c69642d6e65772d73747261746567790000000000000000000060448201526064016104b6565b6110f881612ae3565b6000546040516370a0823160e01b815230600482015261118c9183916001600160a01b03909116906370a082319060240160206040518083038186803b15801561114157600080fd5b505afa158015611155573d6000803e3d6000fd5b505050506040513d601f19601f820116820180604052508101906111799190613628565b6000546001600160a01b03169190611c96565b6040516370a0823160e01b81523060048201526106489082906001600160a01b037f000000000000000000000000000000000000000000000000000000000000000016906370a082319060240160206040518083038186803b1580156111f157600080fd5b505afa158015611205573d6000803e3d6000fd5b505050506040513d601f19601f82011682018060405250810190610c5c9190613628565b7f00000000000000000000000000000000000000000000000000000000000000006001600160a01b0316630c340a246040518163ffffffff1660e01b815260040160206040518083038186803b15801561128257600080fd5b505afa158015611296573d6000803e3d6000fd5b505050506040513d601f19601f820116820180604052508101906112ba919061366e565b6001600160a01b0316336001600160a01b03161461131a5760405162461bcd60e51b815260206004820152601a60248201527f63616c6c65722d69732d6e6f742d7468652d676f7665726e6f7200000000000060448201526064016104b6565b6001600160a01b0381166113705760405162461bcd60e51b815260206004820152601d60248201527f6665652d636f6c6c6563746f722d616464726573732d69732d7a65726f00000060448201526064016104b6565b6001546001600160a01b03828116911614156113ce5760405162461bcd60e51b815260206004820152601560248201527f6665652d636f6c6c6563746f722d69732d73616d65000000000000000000000060448201526064016104b6565b6001546040516001600160a01b038084169216907f0f06062680f9bd68e786e9980d9bb03d73d5620fc3b345e417b6eacb310b970690600090a36001805473ffffffffffffffffffffffffffffffffffffffff19166001600160a01b0392909216919091179055565b7f00000000000000000000000000000000000000000000000000000000000000006001600160a01b0316630c340a246040518163ffffffff1660e01b815260040160206040518083038186803b15801561149057600080fd5b505afa1580156114a4573d6000803e3d6000fd5b505050506040513d601f19601f820116820180604052508101906114c8919061366e565b6001600160a01b0316336001600160a01b0316146115285760405162461bcd60e51b815260206004820152601a60248201527f63616c6c65722d69732d6e6f742d7468652d676f7665726e6f7200000000000060448201526064016104b6565b6001600160a01b03811661157e5760405162461bcd60e51b815260206004820152601760248201527f737761707065722d616464726573732d69732d7a65726f00000000000000000060448201526064016104b6565b6002546001600160a01b03828116911614156115dc5760405162461bcd60e51b815260206004820152600f60248201527f737761707065722d69732d73616d65000000000000000000000000000000000060448201526064016104b6565b6002546040516001600160a01b038084169216907f6c953b7ec311055c20b96a42cea31e89528e375b1bf953a503db40854b3188fe90600090a36002805473ffffffffffffffffffffffffffffffffffffffff19166001600160a01b0392909216919091179055565b6040516370a0823160e01b81523060048201526000907f00000000000000000000000000000000000000000000000000000000000000006001600160a01b0316906370a082319060240160206040518083038186803b1580156116a757600080fd5b505afa1580156116bb573d6000803e3d6000fd5b505050506040513d601f19601f820116820180604052508101906116df9190613628565b6116e7612c03565b610e9d91906136c0565b60006116fc3361046d565b6117415760405162461bcd60e51b815260206004820152601660248201527531b0b63632b916b4b996b737ba16b096b5b2b2b832b960511b60448201526064016104b6565b7f00000000000000000000000000000000000000000000000000000000000000006001600160a01b0316836001600160a01b031614156117c35760405162461bcd60e51b815260206004820152601f60248201527f6e6f742d616c6c6f7765642d746f2d73776565702d636f6c6c61746572616c0060448201526064016104b6565b7f00000000000000000000000000000000000000000000000000000000000000006001600160a01b0390811690841614156118375760405162461bcd60e51b815260206004820152601460248201527306e6f742d616c6c6f7765642d746f2d73776565760641b60448201526064016104b6565b6040516370a0823160e01b81523060048201526000907f00000000000000000000000000000000000000000000000000000000000000006001600160a01b0316906370a082319060240160206040518083038186803b15801561189957600080fd5b505afa1580156118ad573d6000803e3d6000fd5b505050506040513d601f19601f820116820180604052508101906118d19190613628565b6040516370a0823160e01b81523060048201529091506000906001600160a01b038616906370a082319060240160206040518083038186803b15801561191657600080fd5b505afa15801561192a573d6000803e3d6000fd5b505050506040513d601f19601f8201168201806040525081019061194e9190613628565b90508015611a4457600254604051636eb1769f60e11b81523060048201526001600160a01b0391821660248201529086169063dd62ed3e9060440160206040518083038186803b1580156119a157600080fd5b505afa1580156119b5573d6000803e3d6000fd5b505050506040513d601f19601f820116820180604052508101906119d99190613628565b811115611a17576002546119fb906001600160a01b0387811691166000612cd3565b600254611a17906001600160a01b038781169116600019612cd3565b611a42857f000000000000000000000000000000000000000000000000000000000000000083612dfe565b505b6040516370a0823160e01b815230600482015282907f00000000000000000000000000000000000000000000000000000000000000006001600160a01b0316906370a082319060240160206040518083038186803b158015611aa557600080fd5b505afa158015611ab9573d6000803e3d6000fd5b505050506040513d601f19601f82011682018060405250810190611add9190613628565b611ae79190613657565b925083831015611b305760405162461bcd60e51b81526020600482015260146024820152731b9bdd0b595b9bdd59da0b585b5bdd5b9d13dd5d60621b60448201526064016104b6565b505092915050565b6000611b4d836001600160a01b038416612ea2565b90505b92915050565b6001600160a01b03811660009081526001830160205260408120541515611b4d565b80471015611bc85760405162461bcd60e51b815260206004820152601d60248201527f416464726573733a20696e73756666696369656e742062616c616e636500000060448201526064016104b6565b6000826001600160a01b03168260405160006040518083038185875af1925050503d8060008114611c15576040519150601f19603f3d011682016040523d82523d6000602084013e611c1a565b606091505b5050905080611c915760405162461bcd60e51b815260206004820152603a60248201527f416464726573733a20756e61626c6520746f2073656e642076616c75652c207260448201527f6563697069656e74206d6179206861766520726576657274656400000000000060648201526084016104b6565b505050565b6040516001600160a01b038316602482015260448101829052611c9190849063a9059cbb60e01b906064015b60408051601f198184030181529190526020810180517bffffffffffffffffffffffffffffffffffffffffffffffffffffffff167fffffffff0000000000000000000000000000000000000000000000000000000090931692909217909152612ef1565b7f00000000000000000000000000000000000000000000000000000000000000006001600160a01b0316633d18b9126040518163ffffffff1660e01b8152600401600060405180830381600087803b158015611d8157600080fd5b505af1158015611d95573d6000803e3d6000fd5b50506040516370a0823160e01b8152306004820152600092507f00000000000000000000000000000000000000000000000000000000000000006001600160a01b031691506370a082319060240160206040518083038186803b158015611dfb57600080fd5b505afa158015611e0f573d6000803e3d6000fd5b505050506040513d601f19601f82011682018060405250810190611e339190613628565b90508015611ed757604051632e1a7d4d60e01b8152600481018290527f00000000000000000000000000000000000000000000000000000000000000006001600160a01b031690632e1a7d4d90602401602060405180830381600087803b158015611e9d57600080fd5b505af1158015611eb1573d6000803e3d6000fd5b505050506040513d601f19601f82011682018060405250810190611ed59190613628565b505b6040516370a0823160e01b81523060048201526000907f00000000000000000000000000000000000000000000000000000000000000006001600160a01b0316906370a082319060240160206040518083038186803b158015611f3957600080fd5b505afa158015611f4d573d6000803e3d6000fd5b505050506040513d601f19601f82011682018060405250810190611f719190613628565b9050600081118015611fd557507f00000000000000000000000000000000000000000000000000000000000000006001600160a01b03167f00000000000000000000000000000000000000000000000000000000000000006001600160a01b031614155b156106e2576106e27f00000000000000000000000000000000000000000000000000000000000000007f000000000000000000000000000000000000000000000000000000000000000083612fc3565b6000611b4d836001600160a01b03841661305f565b600061204582613152565b6040516370a0823160e01b81523060048201529091506000906001600160a01b037f000000000000000000000000000000000000000000000000000000000000000016906370a082319060240160206040518083038186803b1580156120aa57600080fd5b505afa1580156120be573d6000803e3d6000fd5b505050506040513d601f19601f820116820180604052508101906120e29190613628565b90508082111561221e576040516370a0823160e01b8152306004820152600090612199906001600160a01b037f000000000000000000000000000000000000000000000000000000000000000016906370a082319060240160206040518083038186803b15801561215257600080fd5b505afa158015612166573d6000803e3d6000fd5b505050506040513d601f19601f8201168201806040525081019061218a9190613628565b6121948486613657565b6123d2565b9050801561221c57604051632e1a7d4d60e01b8152600481018290527f00000000000000000000000000000000000000000000000000000000000000006001600160a01b031690632e1a7d4d90602401600060405180830381600087803b15801561220357600080fd5b505af1158015612217573d6000803e3d6000fd5b505050505b505b6040516370a0823160e01b81523060048201527f00000000000000000000000000000000000000000000000000000000000000006001600160a01b0316906370a082319060240160206040518083038186803b15801561227d57600080fd5b505afa158015612291573d6000803e3d6000fd5b505050506040513d601f19601f820116820180604052508101906122b59190613628565b90508015611c91576040516370a0823160e01b81523060048201527f00000000000000000000000000000000000000000000000000000000000000006001600160a01b031690632e1a7d4d9082906370a082319060240160206040518083038186803b15801561232457600080fd5b505afa158015612338573d6000803e3d6000fd5b505050506040513d601f19601f8201168201806040525081019061235c9190613628565b6040518263ffffffff1660e01b815260040161237a91815260200190565b602060405180830381600087803b15801561239457600080fd5b505af11580156123a8573d6000803e3d6000fd5b505050506040513d601f19601f820116820180604052508101906123cc9190613628565b50505050565b60008183106123e15781611b4d565b5090919050565b6123f181613219565b6124456001600160a01b037f0000000000000000000000000000000000000000000000000000000000000000167f000000000000000000000000000000000000000000000000000000000000000083612cd3565b6124996001600160a01b037f0000000000000000000000000000000000000000000000000000000000000000167f000000000000000000000000000000000000000000000000000000000000000083612cd3565b600254610648906001600160a01b037f00000000000000000000000000000000000000000000000000000000000000008116911683612cd3565b604051636a9eee1360e11b81523060048201526000908190819081906001600160a01b037f0000000000000000000000000000000000000000000000000000000000000000169063d53ddc269060240160206040518083038186803b15801561253b57600080fd5b505afa15801561254f573d6000803e3d6000fd5b505050506040513d601f19601f820116820180604052508101906125739190613628565b604051639f2b283360e01b81523060048201529091506000906001600160a01b037f00000000000000000000000000000000000000000000000000000000000000001690639f2b28339060240160206040518083038186803b1580156125d857600080fd5b505afa1580156125ec573d6000803e3d6000fd5b505050506040513d601f19601f820116820180604052508101906126109190613628565b6040516370a0823160e01b81523060048201529091506000906001600160a01b037f000000000000000000000000000000000000000000000000000000000000000016906370a082319060240160206040518083038186803b15801561267557600080fd5b505afa158015612689573d6000803e3d6000fd5b505050506040513d601f19601f820116820180604052508101906126ad9190613628565b90506000816126ba612c03565b6126c491906136c0565b9050828111156126df576126d88382613657565b96506126ec565b6126e98184613657565b95505b60006126f885896136c0565b9050828111156127a95761270f610b908483613657565b6040516370a0823160e01b81523060048201527f00000000000000000000000000000000000000000000000000000000000000006001600160a01b0316906370a082319060240160206040518083038186803b15801561276e57600080fd5b505afa158015612782573d6000803e3d6000fd5b505050506040513d601f19601f820116820180604052508101906127a69190613628565b92505b6127b383866123d2565b95508583116127c35760006127d6565b6127d66127d08785613657565b896123d2565b6040516302df682360e11b81526004810182905260248101899052604481018890529098507f00000000000000000000000000000000000000000000000000000000000000006001600160a01b0316906305bed04690606401600060405180830381600087803b15801561284957600080fd5b505af115801561285d573d6000803e3d6000fd5b50506040516370a0823160e01b81523060048201527f00000000000000000000000000000000000000000000000000000000000000006001600160a01b031692506370a08231915060240160206040518083038186803b1580156128c057600080fd5b505afa1580156128d4573d6000803e3d6000fd5b505050506040513d601f19601f820116820180604052508101906128f89190613628565b9250600061290584613152565b11156129a75760405163b6b55f2560e01b8152600481018490527f00000000000000000000000000000000000000000000000000000000000000006001600160a01b03169063b6b55f2590602401602060405180830381600087803b15801561296d57600080fd5b505af1158015612981573d6000803e3d6000fd5b505050506040513d601f19601f820116820180604052508101906129a59190613628565b505b6040516370a0823160e01b81523060048201526000907f00000000000000000000000000000000000000000000000000000000000000006001600160a01b0316906370a082319060240160206040518083038186803b158015612a0957600080fd5b505afa158015612a1d573d6000803e3d6000fd5b505050506040513d601f19601f82011682018060405250810190612a419190613628565b90508015612ac45760405163534a7e1d60e11b8152600481018290527f00000000000000000000000000000000000000000000000000000000000000006001600160a01b03169063a694fc3a90602401600060405180830381600087803b158015612aab57600080fd5b505af1158015612abf573d6000803e3d6000fd5b505050505b505050505050909192565b60606000612adc8361326d565b9392505050565b6040516370a0823160e01b81523060048201526000907f00000000000000000000000000000000000000000000000000000000000000006001600160a01b0316906370a082319060240160206040518083038186803b158015612b4557600080fd5b505afa158015612b59573d6000803e3d6000fd5b505050506040513d601f19601f82011682018060405250810190612b7d9190613628565b905080156106e257604051632e1a7d4d60e01b8152600481018290527f00000000000000000000000000000000000000000000000000000000000000006001600160a01b031690632e1a7d4d90602401600060405180830381600087803b158015612be757600080fd5b505af1158015612bfb573d6000803e3d6000fd5b505050505050565b60007f00000000000000000000000000000000000000000000000000000000000000007f00000000000000000000000000000000000000000000000000000000000000006001600160a01b03166399530b066040518163ffffffff1660e01b815260040160206040518083038186803b158015612c7f57600080fd5b505afa158015612c93573d6000803e3d6000fd5b505050506040513d601f19601f82011682018060405250810190612cb79190613628565b612cbf6132c9565b612cc991906136d8565b610e9d91906136f7565b801580612d5c5750604051636eb1769f60e11b81523060048201526001600160a01b03838116602483015284169063dd62ed3e9060440160206040518083038186803b158015612d2257600080fd5b505afa158015612d36573d6000803e3d6000fd5b505050506040513d601f19601f82011682018060405250810190612d5a9190613628565b155b612dce5760405162461bcd60e51b815260206004820152603660248201527f5361666545524332303a20617070726f76652066726f6d206e6f6e2d7a65726f60448201527f20746f206e6f6e2d7a65726f20616c6c6f77616e63650000000000000000000060648201526084016104b6565b6040516001600160a01b038316602482015260448101829052611c9190849063095ea7b360e01b90606401611cc2565b600254604051636ccb2b0160e01b81526001600160a01b038581166004830152848116602483015260448201849052600160648301523060848301526000921690636ccb2b019060a401602060405180830381600087803b158015612e6257600080fd5b505af1158015612e76573d6000803e3d6000fd5b505050506040513d601f19601f82011682018060405250810190612e9a9190613628565b949350505050565b6000818152600183016020526040812054612ee957508154600181810184556000848152602080822090930184905584548482528286019093526040902091909155611b50565b506000611b50565b6000612f46826040518060400160405280602081526020017f5361666545524332303a206c6f772d6c6576656c2063616c6c206661696c6564815250856001600160a01b03166133fa9092919063ffffffff16565b805190915015611c915780806020019051810190612f649190613719565b611c915760405162461bcd60e51b815260206004820152602a60248201527f5361666545524332303a204552433230206f7065726174696f6e20646964206e6044820152691bdd081cdd58d8d9595960b21b60648201526084016104b6565b600254604051636ccb2b0160e01b81526001600160a01b0385811660048301528481166024830152604482018490526001606483015230608483015290911690636ccb2b019060a401602060405180830381600087803b15801561302657600080fd5b505af1925050508015613056575060408051601f3d908101601f1916820190925261305391810190613628565b60015b6123cc57505050565b60008181526001830160205260408120548015613148576000613083600183613657565b855490915060009061309790600190613657565b90508181146130fc5760008660000182815481106130b7576130b761373b565b90600052602060002001549050808760000184815481106130da576130da61373b565b6000918252602080832090910192909255918252600188019052604090208390555b855486908061310d5761310d613751565b600190038181906000526020600020016000905590558560010160008681526020019081526020016000206000905560019350505050611b50565b6000915050611b50565b60007f00000000000000000000000000000000000000000000000000000000000000006001600160a01b03166399530b066040518163ffffffff1660e01b815260040160206040518083038186803b1580156131ad57600080fd5b505afa1580156131c1573d6000803e3d6000fd5b505050506040513d601f19601f820116820180604052508101906131e59190613628565b61320f7f0000000000000000000000000000000000000000000000000000000000000000846136d8565b611b5091906136f7565b6106486001600160a01b037f0000000000000000000000000000000000000000000000000000000000000000167f000000000000000000000000000000000000000000000000000000000000000083612cd3565b6060816000018054806020026020016040519081016040528092919081815260200182805480156132bd57602002820191906000526020600020905b8154815260200190600101908083116132a9575b50505050509050919050565b6040516370a0823160e01b81523060048201526000907f00000000000000000000000000000000000000000000000000000000000000006001600160a01b0316906370a082319060240160206040518083038186803b15801561332b57600080fd5b505afa15801561333f573d6000803e3d6000fd5b505050506040513d601f19601f820116820180604052508101906133639190613628565b6040516370a0823160e01b81523060048201527f00000000000000000000000000000000000000000000000000000000000000006001600160a01b0316906370a082319060240160206040518083038186803b1580156133c257600080fd5b505afa1580156133d6573d6000803e3d6000fd5b505050506040513d601f19601f820116820180604052508101906116e79190613628565b6060612e9a848460008585843b6134535760405162461bcd60e51b815260206004820152601d60248201527f416464726573733a2063616c6c20746f206e6f6e2d636f6e747261637400000060448201526064016104b6565b600080866001600160a01b0316858760405161346f9190613767565b60006040518083038185875af1925050503d80600081146134ac576040519150601f19603f3d011682016040523d82523d6000602084013e6134b1565b606091505b50915091506134c18282866134cc565b979650505050505050565b606083156134db575081612adc565b8251156134eb5782518084602001fd5b8160405162461bcd60e51b81526004016104b691906135c9565b6001600160a01b038116811461064857600080fd5b60006020828403121561352c57600080fd5b8135612adc81613505565b60006020828403121561354957600080fd5b5035919050565b6020808252825182820181905260009190848201906040850190845b818110156135915783516001600160a01b03168352928401929184019160010161356c565b50909695505050505050565b60005b838110156135b85781810151838201526020016135a0565b838111156123cc5750506000910152565b60208152600082518060208401526135e881604085016020870161359d565b601f01601f19169190910160400192915050565b6000806040838503121561360f57600080fd5b823561361a81613505565b946020939093013593505050565b60006020828403121561363a57600080fd5b5051919050565b634e487b7160e01b600052601160045260246000fd5b60008282101561366957613669613641565b500390565b60006020828403121561368057600080fd5b8151612adc81613505565b600181811c9082168061369f57607f821691505b602082108114156108c657634e487b7160e01b600052602260045260246000fd5b600082198211156136d3576136d3613641565b500190565b60008160001904831182151516156136f2576136f2613641565b500290565b60008261371457634e487b7160e01b600052601260045260246000fd5b500490565b60006020828403121561372b57600080fd5b81518015158114612adc57600080fd5b634e487b7160e01b600052603260045260246000fd5b634e487b7160e01b600052603160045260246000fd5b6000825161377981846020870161359d565b919091019291505056fea2646970667358221220891e43b8d7043ad5f7c68ae74ee36bdafa3c178f9c41dbec87be6e77a2704f3064736f6c63430008090033",
  "devdoc": {
    "kind": "dev",
    "methods": {
      "addKeeper(address)": {
        "params": {
          "_keeperAddress": "keeper address to add."
        }
      },
      "approveToken(uint256)": {
        "details": "Approve all required tokens"
      },
      "migrate(address)": {
        "details": "_beforeMigration hook can be implemented in child strategy to do extra steps.",
        "params": {
          "_newStrategy": "Address of new strategy"
        }
      },
      "rebalance()": {
        "returns": {
          "_loss": "Realized loss, if any, in collateral.",
          "_payback": "If strategy has any excess debt, we have to liquidate asset to payback excess debt.",
          "_profit": "Realized profit in collateral."
        }
      },
      "removeKeeper(address)": {
        "params": {
          "_keeperAddress": "keeper address to remove."
        }
      },
      "sweep(address)": {
        "params": {
          "_fromToken": "token address to sweep"
        }
      },
      "updateFeeCollector(address)": {
        "params": {
          "_feeCollector": "fee collector address"
        }
      },
      "updateSwapper(address)": {
        "params": {
          "_swapper": "swapper address"
        }
      },
      "withdraw(uint256)": {
        "params": {
          "_amount": "Amount of collateral token"
        }
      }
    },
    "title": "This strategy will deposit collateral token in a Yearn vault and stake receipt tokens into staking contract to earn rewards and yield.",
    "version": 1
  },
  "userdoc": {
    "kind": "user",
    "methods": {
      "addKeeper(address)": {
        "notice": "Add given address in keepers list."
      },
      "claimAndSwapRewards(uint256)": {
        "notice": "Claim rewardToken and convert rewardToken into collateral token."
      },
      "collateral()": {
        "notice": "Returns address of token correspond to collateral token"
      },
      "keepers()": {
        "notice": "Return list of keepers"
      },
      "migrate(address)": {
        "notice": "Migrate all asset and vault ownership,if any, to new strategy"
      },
      "rebalance()": {
        "notice": "OnlyKeeper: Rebalance profit, loss and investment of this strategy.  Calculate profit, loss and payback of this strategy and realize profit/loss and  withdraw fund for payback, if any, and submit this report to pool."
      },
      "removeKeeper(address)": {
        "notice": "Remove given address from keepers list."
      },
      "swapToCollateral(address,uint256)": {
        "notice": "onlyKeeper:: Swap given token into collateral token."
      },
      "sweep(address)": {
        "notice": "sweep given token to feeCollector of strategy"
      },
      "token()": {
        "notice": "Returns address of token correspond to receipt token"
      },
      "tvl()": {
        "notice": "Returns total collateral locked in the strategy"
      },
      "updateFeeCollector(address)": {
        "notice": "Update fee collector"
      },
      "updateSwapper(address)": {
        "notice": "Update swapper"
      },
      "withdraw(uint256)": {
        "notice": "Withdraw collateral token from end protocol."
      }
    },
    "version": 1
  },
  "storageLayout": {
    "storage": [
      {
        "astId": 14999,
        "contract": "vesper-strategies/contracts/strategies/yearn/YearnStaking.sol:YearnStaking",
        "label": "receiptToken",
        "offset": 0,
        "slot": "0",
        "type": "t_address"
      },
      {
        "astId": 15005,
        "contract": "vesper-strategies/contracts/strategies/yearn/YearnStaking.sol:YearnStaking",
        "label": "feeCollector",
        "offset": 0,
        "slot": "1",
        "type": "t_address"
      },
      {
        "astId": 15008,
        "contract": "vesper-strategies/contracts/strategies/yearn/YearnStaking.sol:YearnStaking",
        "label": "swapper",
        "offset": 0,
        "slot": "2",
        "type": "t_contract(IRoutedSwapper)13445"
      },
      {
        "astId": 15021,
        "contract": "vesper-strategies/contracts/strategies/yearn/YearnStaking.sol:YearnStaking",
        "label": "_keepers",
        "offset": 0,
        "slot": "3",
        "type": "t_struct(AddressSet)3029_storage"
      },
      {
        "astId": 34841,
        "contract": "vesper-strategies/contracts/strategies/yearn/YearnStaking.sol:YearnStaking",
        "label": "NAME",
        "offset": 0,
        "slot": "5",
        "type": "t_string_storage"
      }
    ],
    "types": {
      "t_address": {
        "encoding": "inplace",
        "label": "address",
        "numberOfBytes": "20"
      },
      "t_array(t_bytes32)dyn_storage": {
        "base": "t_bytes32",
        "encoding": "dynamic_array",
        "label": "bytes32[]",
        "numberOfBytes": "32"
      },
      "t_bytes32": {
        "encoding": "inplace",
        "label": "bytes32",
        "numberOfBytes": "32"
      },
      "t_contract(IRoutedSwapper)13445": {
        "encoding": "inplace",
        "label": "contract IRoutedSwapper",
        "numberOfBytes": "20"
      },
      "t_mapping(t_bytes32,t_uint256)": {
        "encoding": "mapping",
        "key": "t_bytes32",
        "label": "mapping(bytes32 => uint256)",
        "numberOfBytes": "32",
        "value": "t_uint256"
      },
      "t_string_storage": {
        "encoding": "bytes",
        "label": "string",
        "numberOfBytes": "32"
      },
      "t_struct(AddressSet)3029_storage": {
        "encoding": "inplace",
        "label": "struct EnumerableSet.AddressSet",
        "members": [
          {
            "astId": 3028,
            "contract": "vesper-strategies/contracts/strategies/yearn/YearnStaking.sol:YearnStaking",
            "label": "_inner",
            "offset": 0,
            "slot": "0",
            "type": "t_struct(Set)2728_storage"
          }
        ],
        "numberOfBytes": "64"
      },
      "t_struct(Set)2728_storage": {
        "encoding": "inplace",
        "label": "struct EnumerableSet.Set",
        "members": [
          {
            "astId": 2723,
            "contract": "vesper-strategies/contracts/strategies/yearn/YearnStaking.sol:YearnStaking",
            "label": "_values",
            "offset": 0,
            "slot": "0",
            "type": "t_array(t_bytes32)dyn_storage"
          },
          {
            "astId": 2727,
            "contract": "vesper-strategies/contracts/strategies/yearn/YearnStaking.sol:YearnStaking",
            "label": "_indexes",
            "offset": 0,
            "slot": "1",
            "type": "t_mapping(t_bytes32,t_uint256)"
          }
        ],
        "numberOfBytes": "64"
      },
      "t_uint256": {
        "encoding": "inplace",
        "label": "uint256",
        "numberOfBytes": "32"
      }
    }
  }
}