{
  "address": "0xD9700EA432950E804923067D10dD815F03B68347",
  "abi": [
    {
      "inputs": [
        {
          "internalType": "address",
          "name": "pool_",
          "type": "address"
        },
        {
          "internalType": "address",
          "name": "crvPool_",
          "type": "address"
        },
        {
          "internalType": "enum Curve.PoolType",
          "name": "curvePoolType_",
          "type": "uint8"
        },
        {
          "internalType": "address",
          "name": "depositZap_",
          "type": "address"
        },
        {
          "internalType": "address",
          "name": "crvToken_",
          "type": "address"
        },
        {
          "internalType": "uint256",
          "name": "crvSlippage_",
          "type": "uint256"
        },
        {
          "internalType": "address",
          "name": "masterOracle_",
          "type": "address"
        },
        {
          "internalType": "address",
          "name": "swapper_",
          "type": "address"
        },
        {
          "internalType": "uint256",
          "name": "collateralIdx_",
          "type": "uint256"
        },
        {
          "internalType": "uint256",
          "name": "convexPoolId_",
          "type": "uint256"
        },
        {
          "internalType": "string",
          "name": "name_",
          "type": "string"
        }
      ],
      "stateMutability": "nonpayable",
      "type": "constructor"
    },
    {
      "anonymous": false,
      "inputs": [
        {
          "indexed": false,
          "internalType": "uint256",
          "name": "oldCrvSlippage",
          "type": "uint256"
        },
        {
          "indexed": false,
          "internalType": "uint256",
          "name": "newCrvSlippage",
          "type": "uint256"
        }
      ],
      "name": "CrvSlippageUpdated",
      "type": "event"
    },
    {
      "anonymous": false,
      "inputs": [
        {
          "indexed": false,
          "internalType": "contract IMasterOracle",
          "name": "oldMasterOracle",
          "type": "address"
        },
        {
          "indexed": false,
          "internalType": "contract IMasterOracle",
          "name": "newMasterOracle",
          "type": "address"
        }
      ],
      "name": "MasterOracleUpdated",
      "type": "event"
    },
    {
      "anonymous": false,
      "inputs": [
        {
          "indexed": true,
          "internalType": "address",
          "name": "previousFeeCollector",
          "type": "address"
        },
        {
          "indexed": true,
          "internalType": "address",
          "name": "newFeeCollector",
          "type": "address"
        }
      ],
      "name": "UpdatedFeeCollector",
      "type": "event"
    },
    {
      "anonymous": false,
      "inputs": [
        {
          "indexed": true,
          "internalType": "contract IRoutedSwapper",
          "name": "oldSwapper",
          "type": "address"
        },
        {
          "indexed": true,
          "internalType": "contract IRoutedSwapper",
          "name": "newSwapper",
          "type": "address"
        }
      ],
      "name": "UpdatedSwapper",
      "type": "event"
    },
    {
      "inputs": [],
      "name": "ADDRESS_PROVIDER",
      "outputs": [
        {
          "internalType": "contract IAddressProvider",
          "name": "",
          "type": "address"
        }
      ],
      "stateMutability": "view",
      "type": "function"
    },
    {
      "inputs": [],
      "name": "BOOSTER",
      "outputs": [
        {
          "internalType": "contract IConvex",
          "name": "",
          "type": "address"
        }
      ],
      "stateMutability": "view",
      "type": "function"
    },
    {
      "inputs": [],
      "name": "CRV",
      "outputs": [
        {
          "internalType": "address",
          "name": "",
          "type": "address"
        }
      ],
      "stateMutability": "view",
      "type": "function"
    },
    {
      "inputs": [],
      "name": "CRV_MINTER",
      "outputs": [
        {
          "internalType": "contract ITokenMinter",
          "name": "",
          "type": "address"
        }
      ],
      "stateMutability": "view",
      "type": "function"
    },
    {
      "inputs": [],
      "name": "CVX",
      "outputs": [
        {
          "internalType": "address",
          "name": "",
          "type": "address"
        }
      ],
      "stateMutability": "view",
      "type": "function"
    },
    {
      "inputs": [],
      "name": "NAME",
      "outputs": [
        {
          "internalType": "string",
          "name": "",
          "type": "string"
        }
      ],
      "stateMutability": "view",
      "type": "function"
    },
    {
      "inputs": [],
      "name": "VERSION",
      "outputs": [
        {
          "internalType": "string",
          "name": "",
          "type": "string"
        }
      ],
      "stateMutability": "view",
      "type": "function"
    },
    {
      "inputs": [
        {
          "internalType": "address",
          "name": "_keeperAddress",
          "type": "address"
        }
      ],
      "name": "addKeeper",
      "outputs": [],
      "stateMutability": "nonpayable",
      "type": "function"
    },
    {
      "inputs": [],
      "name": "approveToken",
      "outputs": [],
      "stateMutability": "nonpayable",
      "type": "function"
    },
    {
      "inputs": [],
      "name": "collateral",
      "outputs": [
        {
          "internalType": "address",
          "name": "",
          "type": "address"
        }
      ],
      "stateMutability": "view",
      "type": "function"
    },
    {
      "inputs": [],
      "name": "collateralIdx",
      "outputs": [
        {
          "internalType": "uint256",
          "name": "",
          "type": "uint256"
        }
      ],
      "stateMutability": "view",
      "type": "function"
    },
    {
      "inputs": [],
      "name": "collateralToken",
      "outputs": [
        {
          "internalType": "contract IERC20",
          "name": "",
          "type": "address"
        }
      ],
      "stateMutability": "view",
      "type": "function"
    },
    {
      "inputs": [],
      "name": "convexPoolId",
      "outputs": [
        {
          "internalType": "uint256",
          "name": "",
          "type": "uint256"
        }
      ],
      "stateMutability": "view",
      "type": "function"
    },
    {
      "inputs": [],
      "name": "crvGauge",
      "outputs": [
        {
          "internalType": "contract ILiquidityGaugeV2",
          "name": "",
          "type": "address"
        }
      ],
      "stateMutability": "view",
      "type": "function"
    },
    {
      "inputs": [],
      "name": "crvLp",
      "outputs": [
        {
          "internalType": "contract IERC20",
          "name": "",
          "type": "address"
        }
      ],
      "stateMutability": "view",
      "type": "function"
    },
    {
      "inputs": [],
      "name": "crvPool",
      "outputs": [
        {
          "internalType": "address",
          "name": "",
          "type": "address"
        }
      ],
      "stateMutability": "view",
      "type": "function"
    },
    {
      "inputs": [],
      "name": "crvSlippage",
      "outputs": [
        {
          "internalType": "uint256",
          "name": "",
          "type": "uint256"
        }
      ],
      "stateMutability": "view",
      "type": "function"
    },
    {
      "inputs": [],
      "name": "curvePoolType",
      "outputs": [
        {
          "internalType": "enum Curve.PoolType",
          "name": "",
          "type": "uint8"
        }
      ],
      "stateMutability": "view",
      "type": "function"
    },
    {
      "inputs": [],
      "name": "cvxCrvRewards",
      "outputs": [
        {
          "internalType": "contract Rewards",
          "name": "",
          "type": "address"
        }
      ],
      "stateMutability": "view",
      "type": "function"
    },
    {
      "inputs": [],
      "name": "feeCollector",
      "outputs": [
        {
          "internalType": "address",
          "name": "",
          "type": "address"
        }
      ],
      "stateMutability": "view",
      "type": "function"
    },
    {
      "inputs": [
        {
          "internalType": "address",
          "name": "token_",
          "type": "address"
        }
      ],
      "name": "isReservedToken",
      "outputs": [
        {
          "internalType": "bool",
          "name": "",
          "type": "bool"
        }
      ],
      "stateMutability": "view",
      "type": "function"
    },
    {
      "inputs": [],
      "name": "keepers",
      "outputs": [
        {
          "internalType": "address[]",
          "name": "",
          "type": "address[]"
        }
      ],
      "stateMutability": "view",
      "type": "function"
    },
    {
      "inputs": [],
      "name": "lpBalanceHere",
      "outputs": [
        {
          "internalType": "uint256",
          "name": "_lpHere",
          "type": "uint256"
        }
      ],
      "stateMutability": "view",
      "type": "function"
    },
    {
      "inputs": [],
      "name": "lpBalanceHereAndStaked",
      "outputs": [
        {
          "internalType": "uint256",
          "name": "_lpHereAndStaked",
          "type": "uint256"
        }
      ],
      "stateMutability": "view",
      "type": "function"
    },
    {
      "inputs": [],
      "name": "lpBalanceStaked",
      "outputs": [
        {
          "internalType": "uint256",
          "name": "_total",
          "type": "uint256"
        }
      ],
      "stateMutability": "view",
      "type": "function"
    },
    {
      "inputs": [],
      "name": "masterOracle",
      "outputs": [
        {
          "internalType": "contract IMasterOracle",
          "name": "",
          "type": "address"
        }
      ],
      "stateMutability": "view",
      "type": "function"
    },
    {
      "inputs": [
        {
          "internalType": "address",
          "name": "_newStrategy",
          "type": "address"
        }
      ],
      "name": "migrate",
      "outputs": [],
      "stateMutability": "nonpayable",
      "type": "function"
    },
    {
      "inputs": [],
      "name": "pool",
      "outputs": [
        {
          "internalType": "address",
          "name": "",
          "type": "address"
        }
      ],
      "stateMutability": "view",
      "type": "function"
    },
    {
      "inputs": [],
      "name": "rebalance",
      "outputs": [
        {
          "internalType": "uint256",
          "name": "_profit",
          "type": "uint256"
        },
        {
          "internalType": "uint256",
          "name": "_loss",
          "type": "uint256"
        },
        {
          "internalType": "uint256",
          "name": "_payback",
          "type": "uint256"
        }
      ],
      "stateMutability": "nonpayable",
      "type": "function"
    },
    {
      "inputs": [],
      "name": "receiptToken",
      "outputs": [
        {
          "internalType": "address",
          "name": "",
          "type": "address"
        }
      ],
      "stateMutability": "view",
      "type": "function"
    },
    {
      "inputs": [
        {
          "internalType": "address",
          "name": "_keeperAddress",
          "type": "address"
        }
      ],
      "name": "removeKeeper",
      "outputs": [],
      "stateMutability": "nonpayable",
      "type": "function"
    },
    {
      "inputs": [
        {
          "internalType": "uint256",
          "name": "",
          "type": "uint256"
        }
      ],
      "name": "rewardTokens",
      "outputs": [
        {
          "internalType": "address",
          "name": "",
          "type": "address"
        }
      ],
      "stateMutability": "view",
      "type": "function"
    },
    {
      "inputs": [
        {
          "internalType": "address[]",
          "name": "",
          "type": "address[]"
        }
      ],
      "name": "setRewardTokens",
      "outputs": [],
      "stateMutability": "nonpayable",
      "type": "function"
    },
    {
      "inputs": [],
      "name": "swapper",
      "outputs": [
        {
          "internalType": "contract IRoutedSwapper",
          "name": "",
          "type": "address"
        }
      ],
      "stateMutability": "view",
      "type": "function"
    },
    {
      "inputs": [
        {
          "internalType": "address",
          "name": "_fromToken",
          "type": "address"
        }
      ],
      "name": "sweepERC20",
      "outputs": [],
      "stateMutability": "nonpayable",
      "type": "function"
    },
    {
      "inputs": [],
      "name": "token",
      "outputs": [
        {
          "internalType": "address",
          "name": "",
          "type": "address"
        }
      ],
      "stateMutability": "view",
      "type": "function"
    },
    {
      "inputs": [],
      "name": "tvl",
      "outputs": [
        {
          "internalType": "uint256",
          "name": "",
          "type": "uint256"
        }
      ],
      "stateMutability": "view",
      "type": "function"
    },
    {
      "inputs": [
        {
          "internalType": "uint256",
          "name": "newCrvSlippage_",
          "type": "uint256"
        }
      ],
      "name": "updateCrvSlippage",
      "outputs": [],
      "stateMutability": "nonpayable",
      "type": "function"
    },
    {
      "inputs": [
        {
          "internalType": "address",
          "name": "_feeCollector",
          "type": "address"
        }
      ],
      "name": "updateFeeCollector",
      "outputs": [],
      "stateMutability": "nonpayable",
      "type": "function"
    },
    {
      "inputs": [
        {
          "internalType": "contract IMasterOracle",
          "name": "newMasterOracle_",
          "type": "address"
        }
      ],
      "name": "updateMasterOracle",
      "outputs": [],
      "stateMutability": "nonpayable",
      "type": "function"
    },
    {
      "inputs": [
        {
          "internalType": "contract IRoutedSwapper",
          "name": "_swapper",
          "type": "address"
        }
      ],
      "name": "updateSwapper",
      "outputs": [],
      "stateMutability": "nonpayable",
      "type": "function"
    },
    {
      "inputs": [
        {
          "internalType": "uint256",
          "name": "_amount",
          "type": "uint256"
        }
      ],
      "name": "withdraw",
      "outputs": [],
      "stateMutability": "nonpayable",
      "type": "function"
    }
  ],
  "transactionHash": "0xf4dab05902dbfe914a4cfb6f13ebc42353499ef29ae1fbfd798433781a2b879e",
  "args": [
    "0x2B6c40Ef15Db0D78D08A7D1b4E12d57E88a3e324",
    "0xBaaa1F5DbA42C3389bDbc2c9D2dE134F5cD0Dc89",
    1,
    "0x0000000000000000000000000000000000000000",
    "0xD533a949740bb3306d119CC777fa900bA034cd52",
    1500,
    "0x80704Acdf97723963263c78F861F091ad04F46E2",
    "0x8f156189A3CD28dFc8FB7BbbAce58F98F09c0bB3",
    1,
    58,
    "Convex_d3pool_FEI"
  ],
  "numDeployments": 1,
  "solcInputHash": "d73c3b155e6f26fbcbf4544981d091c7",
  "bytecode": "0x6102006040523480156200001257600080fd5b50604051620067be380380620067be8339810160408190526200003591620014c4565b8a8a8a8a8a8a8a8a8a89898360006001600160a01b0383166200009f5760405162461bcd60e51b815260206004820152601460248201527f706f6f6c2d616464726573732d69732d7a65726f00000000000000000000000060448201526064015b60405180910390fd5b6001600160a01b038216620000f75760405162461bcd60e51b815260206004820152601760248201527f737761707065722d616464726573732d69732d7a65726f000000000000000000604482015260640162000096565b600280546001600160a01b0319166001600160a01b0384811691909117909155831660a081905260408051637e062a3560e11b8152905163fc0c546a91600480820192602092909190829003018186803b1580156200015557600080fd5b505afa1580156200016a573d6000803e3d6000fd5b505050506040513d601f19601f82011682018060405250810190620001909190620015ae565b6001600160a01b03908116608052600080546001600160a01b031916918316919091179055620001d7620001c13390565b600362000dca60201b62001a601790919060201c565b620002195760405162461bcd60e51b81526020600482015260116024820152701859190b5ad9595c195c8b59985a5b1959607a1b604482015260640162000096565b5050506001600160a01b038616620002685760405162461bcd60e51b815260206004820152601160248201527018dc9d8b5d1bdad95b8b5a5ccb5b9d5b1b607a1b604482015260640162000096565b6000806f22d53366457f9d5e68ec105046fc43836001600160a01b031663a262904b6040518163ffffffff1660e01b815260040160206040518083038186803b158015620002b557600080fd5b505afa158015620002ca573d6000803e3d6000fd5b505050506040513d601f19601f82011682018060405250810190620002f09190620015ae565b604051633795104960e01b81526001600160a01b038d8116600483015291925060009183169063379510499060240160206040518083038186803b1580156200033857600080fd5b505afa1580156200034d573d6000803e3d6000fd5b505050506040513d601f19601f82011682018060405250810190620003739190620015ae565b90506001600160a01b03811615620005bd5760405163940494f160e01b81526001600160a01b038d8116600483015283169063940494f190602401604080518083038186803b158015620003c657600080fd5b505afa158015620003db573d6000803e3d6000fd5b505050506040513d601f19601f82011682018060405250810190620004019190620015d5565b6020015185106200044a5760405162461bcd60e51b81526020600482015260126024820152711a5b9d985b1a590b58dbdb1b185d195c985b60721b604482015260640162000096565b60805160405163a77576ef60e01b81526001600160a01b038e811660048301529182169184169063a77576ef906024016101006040518083038186803b1580156200049457600080fd5b505afa158015620004a9573d6000803e3d6000fd5b505050506040513d601f19601f82011682018060405250810190620004cf919062001672565b8660088110620004e357620004e36200165c565b60200201516001600160a01b031614620005365760405162461bcd60e51b81526020600482015260136024820152720c6ded8d8c2e8cae4c2d85adad2e6dac2e8c6d606b1b604482015260640162000096565b6040516356059ffb60e01b81526001600160a01b038d811660048301528316906356059ffb906024016101406040518083038186803b1580156200057957600080fd5b505afa1580156200058e573d6000803e3d6000fd5b505050506040513d601f19601f82011682018060405250810190620005b4919062001703565b51925062000ab2565b60405163124fd3dd60e21b8152600360048201526000906f22d53366457f9d5e68ec105046fc43839063493f4f749060240160206040518083038186803b1580156200060857600080fd5b505afa1580156200061d573d6000803e3d6000fd5b505050506040513d601f19601f82011682018060405250810190620006439190620015ae565b60405163e4d332a960e01b81526001600160a01b038f811660048301529192509082169063e4d332a99060240160206040518083038186803b1580156200068957600080fd5b505afa1580156200069e573d6000803e3d6000fd5b505050506040513d601f19601f82011682018060405250810190620006c491906200179a565b15620008815760405163eb73f37d60e01b81526001600160a01b038e8116600483015282169063eb73f37d90602401604080518083038186803b1580156200070b57600080fd5b505afa15801562000720573d6000803e3d6000fd5b505050506040513d601f19601f82011682018060405250810190620007469190620015d5565b6020015186106200078f5760405162461bcd60e51b81526020600482015260126024820152711a5b9d985b1a590b58dbdb1b185d195c985b60721b604482015260640162000096565b60805160405163a77576ef60e01b81526001600160a01b038f811660048301529182169183169063a77576ef906024016101006040518083038186803b158015620007d957600080fd5b505afa158015620007ee573d6000803e3d6000fd5b505050506040513d601f19601f8201168201806040525081019062000814919062001672565b87600881106200082857620008286200165c565b60200201516001600160a01b0316146200087b5760405162461bcd60e51b81526020600482015260136024820152720c6ded8d8c2e8cae4c2d85adad2e6dac2e8c6d606b1b604482015260640162000096565b62000a2e565b60405163940494f160e01b81526001600160a01b038e8116600483015282169063940494f19060240160206040518083038186803b158015620008c357600080fd5b505afa158015620008d8573d6000803e3d6000fd5b505050506040513d601f19601f82011682018060405250810190620008fe9190620017b8565b8610620009435760405162461bcd60e51b81526020600482015260126024820152711a5b9d985b1a590b58dbdb1b185d195c985b60721b604482015260640162000096565b608051604051639ac90d3d60e01b81526001600160a01b038f8116600483015291821691831690639ac90d3d9060240160806040518083038186803b1580156200098c57600080fd5b505afa158015620009a1573d6000803e3d6000fd5b505050506040513d601f19601f82011682018060405250810190620009c79190620017d2565b8760048110620009db57620009db6200165c565b60200201516001600160a01b03161462000a2e5760405162461bcd60e51b81526020600482015260136024820152720c6ded8d8c2e8cae4c2d85adad2e6dac2e8c6d606b1b604482015260640162000096565b60405163daf297b960e01b81526001600160a01b03808f1660048301528e935082169063daf297b99060240160206040518083038186803b15801562000a7357600080fd5b505afa15801562000a88573d6000803e3d6000fd5b505050506040513d601f19601f8201168201806040525081019062000aae9190620015ae565b9350505b6001600160a01b038c1662000af95760405162461bcd60e51b815260206004820152600c60248201526b1c1bdbdb0b5a5ccb5b9d5b1b60a21b604482015260640162000096565b6001600160a01b03811662000b3e5760405162461bcd60e51b815260206004820152600a6024820152691b1c0b5a5ccb5b9d5b1b60b21b604482015260640162000096565b6001600160a01b03831662000b865760405162461bcd60e51b815260206004820152600d60248201526c19d85d59d94b5a5ccb5b9d5b1b609a1b604482015260640162000096565b6001600160a01b03808a1660c0528c81166101005281811660e0819052908416610120526006899055600080546001600160a01b03191690911790556101408590528a600781111562000bdd5762000bdd62001857565b61018081600781111562000bf55762000bf562001857565b9052506001600160a01b038c8116828216146101a0528a811661016052600780546001600160a01b03199081168a841617909155600880546001810182556000919091527ff3f7a9fe364faab93b216da50a3214154f22a0a2b415b23a84c8169e8b636ee3018054909116918b16919091179055835162000c7e906005906020870190620012ad565b5050604051631526fe2760e01b8152600481018f905260009c508c9b5073f403c135812408bfbe8713b5a23a04b3d48aae319a50631526fe279950602401975062000ccc9650505050505050565b60c06040518083038186803b15801562000ce557600080fd5b505afa15801562000cfa573d6000803e3d6000fd5b505050506040513d601f19601f8201168201806040525081019062000d2091906200186d565b505093505050915060e0516001600160a01b0316826001600160a01b03161462000d825760405162461bcd60e51b815260206004820152601260248201527134b731b7b93932b1ba16b63816ba37b5b2b760711b604482015260640162000096565b6001600160a01b0381166101c0526101e084905262000da062000dea565b805162000db6916008916020909101906200133c565b505050505050505050505050505062001988565b600062000de1836001600160a01b0384166200125b565b90505b92915050565b60606000806101c0516001600160a01b031663d55a23f46040518163ffffffff1660e01b815260040160206040518083038186803b15801562000e2c57600080fd5b505afa15801562000e41573d6000803e3d6000fd5b505050506040513d601f19601f8201168201806040525081019062000e679190620017b8565b905060005b8181101562000fdb576101c051604051632061aa2360e11b8152600481018390526000916001600160a01b0316906340c354469060240160206040518083038186803b15801562000ebc57600080fd5b505afa15801562000ed1573d6000803e3d6000fd5b505050506040513d601f19601f8201168201806040525081019062000ef79190620015ae565b6001600160a01b031663f7c618c16040518163ffffffff1660e01b815260040160206040518083038186803b15801562000f3057600080fd5b505afa15801562000f45573d6000803e3d6000fd5b505050506040513d601f19601f8201168201806040525081019062000f6b9190620015ae565b905060c0516001600160a01b0316816001600160a01b03161415801562000faf57506001600160a01b038116734e3fbd56cd56c3e72c1403e103b45db9da5b9d2b14155b1562000fc5578362000fc18162001912565b9450505b508062000fd28162001912565b91505062000e6c565b5062000fe982600262001930565b6001600160401b03811115620010035762001003620013e6565b6040519080825280602002602001820160405280156200102d578160200160208202803683370190505b50925060c051836000815181106200104957620010496200165c565b60200260200101906001600160a01b031690816001600160a01b031681525050734e3fbd56cd56c3e72c1403e103b45db9da5b9d2b836001815181106200109457620010946200165c565b6001600160a01b0390921660209283029190910190910152600260005b8281101562001254576101c051604051632061aa2360e11b8152600481018390526000916001600160a01b0316906340c354469060240160206040518083038186803b1580156200110157600080fd5b505afa15801562001116573d6000803e3d6000fd5b505050506040513d601f19601f820116820180604052508101906200113c9190620015ae565b6001600160a01b031663f7c618c16040518163ffffffff1660e01b815260040160206040518083038186803b1580156200117557600080fd5b505afa1580156200118a573d6000803e3d6000fd5b505050506040513d601f19601f82011682018060405250810190620011b09190620015ae565b905060c0516001600160a01b0316816001600160a01b031614158015620011f457506001600160a01b038116734e3fbd56cd56c3e72c1403e103b45db9da5b9d2b14155b156200123e57808684620012088162001912565b9550815181106200121d576200121d6200165c565b60200260200101906001600160a01b031690816001600160a01b0316815250505b50806200124b8162001912565b915050620010b1565b5050505090565b6000818152600183016020526040812054620012a45750815460018181018455600084815260208082209093018490558454848252828601909352604090209190915562000de4565b50600062000de4565b828054620012bb906200194b565b90600052602060002090601f016020900481019282620012df57600085556200132a565b82601f10620012fa57805160ff19168380011785556200132a565b828001600101855582156200132a579182015b828111156200132a5782518255916020019190600101906200130d565b506200133892915062001394565b5090565b8280548282559060005260206000209081019282156200132a579160200282015b828111156200132a57825182546001600160a01b0319166001600160a01b039091161782556020909201916001909101906200135d565b5b8082111562001338576000815560010162001395565b6001600160a01b0381168114620013c157600080fd5b50565b8051620013d181620013ab565b919050565b805160088110620013d157600080fd5b634e487b7160e01b600052604160045260246000fd5b604051601f8201601f191681016001600160401b0381118282101715620014275762001427620013e6565b604052919050565b600082601f8301126200144157600080fd5b81516001600160401b038111156200145d576200145d620013e6565b602062001473601f8301601f19168201620013fc565b82815285828487010111156200148857600080fd5b60005b83811015620014a85785810183015182820184015282016200148b565b83811115620014ba5760008385840101525b5095945050505050565b60008060008060008060008060008060006101608c8e031215620014e757600080fd5b8b51620014f481620013ab565b60208d0151909b506200150781620013ab565b99506200151760408d01620013d6565b98506200152760608d01620013c4565b97506200153760808d01620013c4565b965060a08c015195506200154e60c08d01620013c4565b94506200155e60e08d01620013c4565b6101008d01516101208e01516101408f015192965090945092506001600160401b038111156200158d57600080fd5b6200159b8e828f016200142f565b9150509295989b509295989b9093969950565b600060208284031215620015c157600080fd5b8151620015ce81620013ab565b9392505050565b600060408284031215620015e857600080fd5b82601f830112620015f857600080fd5b604080519081016001600160401b03811182821017156200161d576200161d620013e6565b80604052508060408401858111156200163557600080fd5b845b818110156200165157805183526020928301920162001637565b509195945050505050565b634e487b7160e01b600052603260045260246000fd5b60006101008083850312156200168757600080fd5b83601f8401126200169757600080fd5b6040518181016001600160401b0381118282101715620016bb57620016bb620013e6565b604052908301908085831115620016d157600080fd5b845b83811015620016f8578051620016e981620013ab565b825260209182019101620016d3565b509095945050505050565b60006101408083850312156200171857600080fd5b83601f8401126200172857600080fd5b6040518181016001600160401b03811182821017156200174c576200174c620013e6565b6040529083019080858311156200176257600080fd5b845b83811015620016f85780516200177a81620013ab565b82526020918201910162001764565b80518015158114620013d157600080fd5b600060208284031215620017ad57600080fd5b62000de18262001789565b600060208284031215620017cb57600080fd5b5051919050565b600060808284031215620017e557600080fd5b82601f830112620017f557600080fd5b604051608081016001600160401b03811182821017156200181a576200181a620013e6565b6040528060808401858111156200183057600080fd5b845b81811015620016515780516200184881620013ab565b83526020928301920162001832565b634e487b7160e01b600052602160045260246000fd5b60008060008060008060c087890312156200188757600080fd5b86516200189481620013ab565b6020880151909650620018a781620013ab565b6040880151909550620018ba81620013ab565b6060880151909450620018cd81620013ab565b6080880151909350620018e081620013ab565b9150620018f060a0880162001789565b90509295509295509295565b634e487b7160e01b600052601160045260246000fd5b6000600019821415620019295762001929620018fc565b5060010190565b60008219821115620019465762001946620018fc565b500190565b600181811c908216806200196057607f821691505b602082108114156200198257634e487b7160e01b600052602260045260246000fd5b50919050565b60805160a05160c05160e05161010051610120516101405161016051610180516101a0516101c0516101e051614ad362001ceb600039600081816105f10152613e920152600081816104cb0152818161108901528181611c2e01528181611ce301528181611f6601528181612adc01528181612fce015261381b0152600081816127e2015281816132820152613d6201526000818161027d015281816126c6015281816127aa015281816130fa015281816131350152818161317b015281816131c0015281816132050152818161324a01528181613bd601528181613c1a01528181613c5e01528181613ca201528181613ce60152613d2a01526000818161271c01528181612856015281816128a501528181612ce401528181612d4001528181612d9401528181613abe01528181613b4c0152818161433601526143c4015260008181610387015281816119eb015281816121d201528181613478015281816140ae0152818161413c015281816141cd0152818161425b015281816142ec01526143790152600081816106570152612cbd01526000818161052c015281816128fc01528181612be2015281816139c801528181613a60015281816140f90152818161418701528181614218015281816142a601526143f101526000818161044b01528181610cef01528181610d7e0152818161172f0152818161212d015281816124300152818161281d01528181612c9b01528181612d72015281816130ae01528181613b0c01528181613bab0152613df601526000818161047201528181611dd901528181611eae015261205c0152600081816102cd0152818161069f015281816107f40152818161098b01528181610aa701528181610b8501528181610be101528181610f47015281816110c10152818161115e0152818161138a01528181611553015281816122cb0152818161330c015281816133ac01526138b0015260008181610505015281816105ad01528181610932015281816109ea01528181610a8501528181610af901528181610bb801528181610d2a015281816112ee0152818161183501528181611a2b0152818161234601528181612bc001528181612c1401528181612d1e015281816130cf0152818161344d015281816134d201528181613633015281816137170152818161388e0152613b8a0152614ad36000f3fe608060405234801561001057600080fd5b506004361061025e5760003560e01c8063a3f4df7e11610146578063d572fd7f116100c3578063e5328e0611610087578063e5328e0614610613578063eaada3821461061b578063ec78e8321461062e578063fc0c546a14610641578063fd57a4df14610652578063ffa1ad741461067957600080fd5b8063d572fd7f146105a2578063d8dfeb45146105ab578063de603fdc146105d1578063e00af4a7146105d9578063e529ee95146105ec57600080fd5b8063c415b95c1161010a578063c415b95c1461054e578063c965fa8a14610561578063ce5494bb14610569578063d2c35ce81461057c578063d3033c391461058f57600080fd5b8063a3f4df7e146104b1578063a7404b70146104c6578063abc9b45e146104ed578063b2016bd414610500578063b20fdc0d1461052757600080fd5b806348cd2ddd116101df5780637bb7bed1116101a35780637bb7bed1146104105780637d7c2a1c146104235780637f44579b14610446578063945c91421461046d578063951dc22c1461049457806399b71d5c146104a957600080fd5b806348cd2ddd1461038257806374db9ad4146103b7578063759cb53b146103d257806375b0ffd1146103ed578063795dae661461040857600080fd5b8063201e81a811610226578063201e81a8146103135780632b3297f9146103265780632e1a7d4d146103395780634032b72b1461034c578063440d72481461035f57600080fd5b806304f4efc51461026357806306beb80a1461027857806314ae9f2e146102b557806316f0115b146102c85780631848effa146102fc575b600080fd5b610276610271366004614526565b61069d565b005b61029f7f000000000000000000000000000000000000000000000000000000000000000081565b6040516102ac9190614555565b60405180910390f35b6102766102c33660046145a2565b6107f2565b6102ef7f000000000000000000000000000000000000000000000000000000000000000081565b6040516102ac91906145bf565b6102ef6f22d53366457f9d5e68ec105046fc438381565b6102766103213660046145e9565b610904565b6002546102ef906001600160a01b031681565b610276610347366004614526565b610988565b61027661035a3660046145a2565b610bdf565b61037261036d3660046145a2565b610ceb565b60405190151581526020016102ac565b6103a97f000000000000000000000000000000000000000000000000000000000000000081565b6040519081526020016102ac565b6102ef73d061d61a4d941c39e5453435b6345dc261c2fce081565b6102ef734e3fbd56cd56c3e72c1403e103b45db9da5b9d2b81565b6102ef73f403c135812408bfbe8713b5a23a04b3d48aae3181565b6103a9610d64565b6102ef61041e366004614526565b610e08565b61042b610e32565b604080519384526020840192909252908201526060016102ac565b6102ef7f000000000000000000000000000000000000000000000000000000000000000081565b6102ef7f000000000000000000000000000000000000000000000000000000000000000081565b61049c610e6f565b6040516102ac91906146ae565b610276610e7b565b6104b9610eb7565b6040516102ac9190614727565b6102ef7f000000000000000000000000000000000000000000000000000000000000000081565b6102766104fb3660046145a2565b610f45565b6102ef7f000000000000000000000000000000000000000000000000000000000000000081565b6102ef7f000000000000000000000000000000000000000000000000000000000000000081565b6001546102ef906001600160a01b031681565b6103a961106f565b6102766105773660046145a2565b6110be565b61027661058a3660046145a2565b611388565b61027661059d3660046145a2565b611551565b6103a960065481565b7f00000000000000000000000000000000000000000000000000000000000000006102ef565b6103a961170e565b6102766105e73660046145a2565b6117be565b6103a97f000000000000000000000000000000000000000000000000000000000000000081565b6103a96119d9565b6007546102ef906001600160a01b031681565b6000546102ef906001600160a01b031681565b6000546001600160a01b03166102ef565b6102ef7f000000000000000000000000000000000000000000000000000000000000000081565b6104b9604051806040016040528060058152602001640352e302e360dc1b81525081565b7f00000000000000000000000000000000000000000000000000000000000000006001600160a01b0316630c340a246040518163ffffffff1660e01b815260040160206040518083038186803b1580156106f657600080fd5b505afa15801561070a573d6000803e3d6000fd5b505050506040513d601f19601f8201168201806040525081019061072e919061475a565b6001600160a01b0316336001600160a01b0316146107675760405162461bcd60e51b815260040161075e90614777565b60405180910390fd5b61271081106107b15760405162461bcd60e51b8152602060048201526016602482015275696e76616c69642d736c6970706167652d76616c756560501b604482015260640161075e565b60065460408051918252602082018390527f43a94473b3422f31e660358900c02b907f22142a3224beace1f2b9f1fa079a9e910160405180910390a1600655565b7f00000000000000000000000000000000000000000000000000000000000000006001600160a01b0316630c340a246040518163ffffffff1660e01b815260040160206040518083038186803b15801561084b57600080fd5b505afa15801561085f573d6000803e3d6000fd5b505050506040513d601f19601f82011682018060405250810190610883919061475a565b6001600160a01b0316336001600160a01b0316146108b35760405162461bcd60e51b815260040161075e90614777565b6108be600382611a7c565b6109015760405162461bcd60e51b81526020600482015260146024820152731c995b5bdd994b5ad9595c195c8b59985a5b195960621b604482015260640161075e565b50565b610911335b600390611a91565b61092d5760405162461bcd60e51b815260040161075e906147ae565b6109567f0000000000000000000000000000000000000000000000000000000000000000611ab3565b61095e611c27565b805161097291600891602090910190614456565b5061097d6000612117565b610901600019612117565b337f00000000000000000000000000000000000000000000000000000000000000006001600160a01b0316146109d05760405162461bcd60e51b815260040161075e906147de565b6040516370a0823160e01b81526000906001600160a01b037f000000000000000000000000000000000000000000000000000000000000000016906370a0823190610a1f9030906004016145bf565b60206040518083038186803b158015610a3757600080fd5b505afa158015610a4b573d6000803e3d6000fd5b505050506040513d601f19601f82011682018060405250810190610a6f9190614811565b9050818110610ad057610acc6001600160a01b037f0000000000000000000000000000000000000000000000000000000000000000167f000000000000000000000000000000000000000000000000000000000000000084612168565b5050565b610ae2610add8284614840565b6121cb565b6040516370a0823160e01b81526001600160a01b037f000000000000000000000000000000000000000000000000000000000000000016906370a0823190610b2e9030906004016145bf565b60206040518083038186803b158015610b4657600080fd5b505afa158015610b5a573d6000803e3d6000fd5b505050506040513d601f19601f82011682018060405250810190610b7e9190614811565b9050610acc7f0000000000000000000000000000000000000000000000000000000000000000610bae848461227c565b6001600160a01b037f0000000000000000000000000000000000000000000000000000000000000000169190612168565b7f00000000000000000000000000000000000000000000000000000000000000006001600160a01b0316630c340a246040518163ffffffff1660e01b815260040160206040518083038186803b158015610c3857600080fd5b505afa158015610c4c573d6000803e3d6000fd5b505050506040513d601f19601f82011682018060405250810190610c70919061475a565b6001600160a01b0316336001600160a01b031614610ca05760405162461bcd60e51b815260040161075e90614777565b610cab600382611a60565b6109015760405162461bcd60e51b81526020600482015260116024820152701859190b5ad9595c195c8b59985a5b1959607a1b604482015260640161075e565b60007f00000000000000000000000000000000000000000000000000000000000000006001600160a01b0316826001600160a01b03161480610d5e57507f00000000000000000000000000000000000000000000000000000000000000006001600160a01b0316826001600160a01b0316145b92915050565b6040516370a0823160e01b81526000906001600160a01b037f000000000000000000000000000000000000000000000000000000000000000016906370a0823190610db39030906004016145bf565b60206040518083038186803b158015610dcb57600080fd5b505afa158015610ddf573d6000803e3d6000fd5b505050506040513d601f19601f82011682018060405250810190610e039190614811565b905090565b60088181548110610e1857600080fd5b6000918252602090912001546001600160a01b0316905081565b60008080610e3f33610909565b610e5b5760405162461bcd60e51b815260040161075e906147ae565b610e63612292565b9250925092505b909192565b6060610e036003612337565b610e8433610909565b610ea05760405162461bcd60e51b815260040161075e906147ae565b610eaa6000612117565b610eb5600019612117565b565b60058054610ec490614857565b80601f0160208091040260200160405190810160405280929190818152602001828054610ef090614857565b8015610f3d5780601f10610f1257610100808354040283529160200191610f3d565b820191906000526020600020905b815481529060010190602001808311610f2057829003601f168201915b505050505081565b7f00000000000000000000000000000000000000000000000000000000000000006001600160a01b0316630c340a246040518163ffffffff1660e01b815260040160206040518083038186803b158015610f9e57600080fd5b505afa158015610fb2573d6000803e3d6000fd5b505050506040513d601f19601f82011682018060405250810190610fd6919061475a565b6001600160a01b0316336001600160a01b0316146110065760405162461bcd60e51b815260040161075e90614777565b600754604080516001600160a01b03928316815291831660208301527fc96bca3f57d35a1057a3357bced51fac157918147faa56845639671c516ec69c910160405180910390a1600780546001600160a01b0319166001600160a01b0392909216919091179055565b6040516370a0823160e01b81526000906001600160a01b037f000000000000000000000000000000000000000000000000000000000000000016906370a0823190610db39030906004016145bf565b337f00000000000000000000000000000000000000000000000000000000000000006001600160a01b0316146111065760405162461bcd60e51b815260040161075e906147de565b6001600160a01b03811661115c5760405162461bcd60e51b815260206004820152601c60248201527f6e65772d73747261746567792d616464726573732d69732d7a65726f00000000604482015260640161075e565b7f00000000000000000000000000000000000000000000000000000000000000006001600160a01b0316816001600160a01b03166316f0115b6040518163ffffffff1660e01b815260040160206040518083038186803b1580156111bf57600080fd5b505afa1580156111d3573d6000803e3d6000fd5b505050506040513d601f19601f820116820180604052508101906111f7919061475a565b6001600160a01b0316146112465760405162461bcd60e51b81526020600482015260166024820152756e6f742d76616c69642d6e65772d737472617465677960501b604482015260640161075e565b61124f81612344565b6000546040516370a0823160e01b81526112e89183916001600160a01b03909116906370a08231906112859030906004016145bf565b60206040518083038186803b15801561129d57600080fd5b505afa1580156112b1573d6000803e3d6000fd5b505050506040513d601f19601f820116820180604052508101906112d59190614811565b6000546001600160a01b03169190612168565b610901817f00000000000000000000000000000000000000000000000000000000000000006001600160a01b03166370a08231306040518263ffffffff1660e01b815260040161133891906145bf565b60206040518083038186803b15801561135057600080fd5b505afa158015611364573d6000803e3d6000fd5b505050506040513d601f19601f82011682018060405250810190610bae9190614811565b7f00000000000000000000000000000000000000000000000000000000000000006001600160a01b0316630c340a246040518163ffffffff1660e01b815260040160206040518083038186803b1580156113e157600080fd5b505afa1580156113f5573d6000803e3d6000fd5b505050506040513d601f19601f82011682018060405250810190611419919061475a565b6001600160a01b0316336001600160a01b0316146114495760405162461bcd60e51b815260040161075e90614777565b6001600160a01b03811661149f5760405162461bcd60e51b815260206004820152601d60248201527f6665652d636f6c6c6563746f722d616464726573732d69732d7a65726f000000604482015260640161075e565b6001546001600160a01b03828116911614156114f55760405162461bcd60e51b81526020600482015260156024820152746665652d636f6c6c6563746f722d69732d73616d6560581b604482015260640161075e565b6001546040516001600160a01b038084169216907f0f06062680f9bd68e786e9980d9bb03d73d5620fc3b345e417b6eacb310b970690600090a3600180546001600160a01b0319166001600160a01b0392909216919091179055565b7f00000000000000000000000000000000000000000000000000000000000000006001600160a01b0316630c340a246040518163ffffffff1660e01b815260040160206040518083038186803b1580156115aa57600080fd5b505afa1580156115be573d6000803e3d6000fd5b505050506040513d601f19601f820116820180604052508101906115e2919061475a565b6001600160a01b0316336001600160a01b0316146116125760405162461bcd60e51b815260040161075e90614777565b6001600160a01b0381166116625760405162461bcd60e51b8152602060048201526017602482015276737761707065722d616464726573732d69732d7a65726f60481b604482015260640161075e565b6002546001600160a01b03828116911614156116b25760405162461bcd60e51b815260206004820152600f60248201526e737761707065722d69732d73616d6560881b604482015260640161075e565b6002546040516001600160a01b038084169216907f6c953b7ec311055c20b96a42cea31e89528e375b1bf953a503db40854b3188fe90600090a3600280546001600160a01b0319166001600160a01b0392909216919091179055565b600061171861106f565b6040516370a0823160e01b81526001600160a01b037f000000000000000000000000000000000000000000000000000000000000000016906370a08231906117649030906004016145bf565b60206040518083038186803b15801561177c57600080fd5b505afa158015611790573d6000803e3d6000fd5b505050506040513d601f19601f820116820180604052508101906117b49190614811565b610e039190614892565b6117c733610909565b6117e35760405162461bcd60e51b815260040161075e906147ae565b6001546001600160a01b03166118335760405162461bcd60e51b81526020600482015260156024820152741999594b58dbdb1b1958dd1bdc8b5b9bdd0b5cd95d605a1b604482015260640161075e565b7f00000000000000000000000000000000000000000000000000000000000000006001600160a01b0316816001600160a01b031614156118b55760405162461bcd60e51b815260206004820152601f60248201527f6e6f742d616c6c6f7765642d746f2d73776565702d636f6c6c61746572616c00604482015260640161075e565b6118be81610ceb565b156119025760405162461bcd60e51b815260206004820152601460248201527306e6f742d616c6c6f7765642d746f2d73776565760641b604482015260640161075e565b6001600160a01b03811673eeeeeeeeeeeeeeeeeeeeeeeeeeeeeeeeeeeeeeee141561193d57600154610901906001600160a01b03164761251d565b6040516370a0823160e01b81526000906001600160a01b038316906370a082319061196c9030906004016145bf565b60206040518083038186803b15801561198457600080fd5b505afa158015611998573d6000803e3d6000fd5b505050506040513d601f19601f820116820180604052508101906119bc9190614811565b600154909150610acc906001600160a01b03848116911683612168565b6000611a146119e661170e565b611a0f7f0000000000000000000000000000000000000000000000000000000000000000612636565b6126b3565b6040516370a0823160e01b81526001600160a01b037f000000000000000000000000000000000000000000000000000000000000000016906370a08231906117649030906004016145bf565b6000611a75836001600160a01b03841661297e565b9392505050565b6000611a75836001600160a01b0384166129cd565b6001600160a01b03811660009081526001830160205260408120541515611a75565b611abb612ac0565b60085460005b81811015611c2257600060088281548110611ade57611ade6148aa565b60009182526020822001546040516370a0823160e01b81526001600160a01b03909116925082906370a0823190611b199030906004016145bf565b60206040518083038186803b158015611b3157600080fd5b505afa158015611b45573d6000803e3d6000fd5b505050506040513d601f19601f82011682018060405250810190611b699190614811565b90508015611c0f57600254604051636ccb2b0160e01b81526001600160a01b0384811660048301528781166024830152604482018490526001606483015230608483015290911690636ccb2b019060a401602060405180830381600087803b158015611bd457600080fd5b505af1925050508015611c04575060408051601f3d908101601f19168201909252611c0191810190614811565b60015b611c0d57611c0f565b505b505080611c1b906148c0565b9050611ac1565b505050565b60606000807f00000000000000000000000000000000000000000000000000000000000000006001600160a01b031663d55a23f46040518163ffffffff1660e01b815260040160206040518083038186803b158015611c8557600080fd5b505afa158015611c99573d6000803e3d6000fd5b505050506040513d601f19601f82011682018060405250810190611cbd9190614811565b905060005b81811015611e5c57604051632061aa2360e11b8152600481018290526000907f00000000000000000000000000000000000000000000000000000000000000006001600160a01b0316906340c354469060240160206040518083038186803b158015611d2d57600080fd5b505afa158015611d41573d6000803e3d6000fd5b505050506040513d601f19601f82011682018060405250810190611d65919061475a565b6001600160a01b031663f7c618c16040518163ffffffff1660e01b815260040160206040518083038186803b158015611d9d57600080fd5b505afa158015611db1573d6000803e3d6000fd5b505050506040513d601f19601f82011682018060405250810190611dd5919061475a565b90507f00000000000000000000000000000000000000000000000000000000000000006001600160a01b0316816001600160a01b031614158015611e3657506001600160a01b038116734e3fbd56cd56c3e72c1403e103b45db9da5b9d2b14155b15611e495783611e45816148c0565b9450505b5080611e54816148c0565b915050611cc2565b50611e68826002614892565b67ffffffffffffffff811115611e8057611e806145d3565b604051908082528060200260200182016040528015611ea9578160200160208202803683370190505b5092507f000000000000000000000000000000000000000000000000000000000000000083600081518110611ee057611ee06148aa565b60200260200101906001600160a01b031690816001600160a01b031681525050734e3fbd56cd56c3e72c1403e103b45db9da5b9d2b83600181518110611f2857611f286148aa565b6001600160a01b0390921660209283029190910190910152600260005b8281101561211057604051632061aa2360e11b8152600481018290526000907f00000000000000000000000000000000000000000000000000000000000000006001600160a01b0316906340c354469060240160206040518083038186803b158015611fb057600080fd5b505afa158015611fc4573d6000803e3d6000fd5b505050506040513d601f19601f82011682018060405250810190611fe8919061475a565b6001600160a01b031663f7c618c16040518163ffffffff1660e01b815260040160206040518083038186803b15801561202057600080fd5b505afa158015612034573d6000803e3d6000fd5b505050506040513d601f19601f82011682018060405250810190612058919061475a565b90507f00000000000000000000000000000000000000000000000000000000000000006001600160a01b0316816001600160a01b0316141580156120b957506001600160a01b038116734e3fbd56cd56c3e72c1403e103b45db9da5b9d2b14155b156120fd578086846120ca816148c0565b9550815181106120dc576120dc6148aa565b60200260200101906001600160a01b031690816001600160a01b0316815250505b5080612108816148c0565b915050611f45565b5050505090565b61212081612ba2565b6109016001600160a01b037f00000000000000000000000000000000000000000000000000000000000000001673f403c135812408bfbe8713b5a23a04b3d48aae3183612db5565b6040516001600160a01b038316602482015260448101829052611c2290849063a9059cbb60e01b906064015b60408051601f198184030181529190526020810180516001600160e01b03166001600160e01b031990931692909217909152612ed9565b60006121f67f0000000000000000000000000000000000000000000000000000000000000000612636565b90506000612202610d64565b9050600061220e61106f565b6122189083614892565b9050600061224361222983866126b3565b61223384886148db565b61223d91906148fa565b8361227c565b905080612251575050505050565b8281111561226b5761226b6122668483614840565b612fab565b612275818561309e565b5050505050565b600081831061228b5781611a75565b5090919050565b600080600061229f613304565b6040516302df682360e11b815260048101849052602481018390526044810182905292955090935091507f00000000000000000000000000000000000000000000000000000000000000006001600160a01b0316906305bed04690606401600060405180830381600087803b15801561231757600080fd5b505af115801561232b573d6000803e3d6000fd5b50505050610e6a6136fc565b60606000611a75836137a9565b7f00000000000000000000000000000000000000000000000000000000000000006001600160a01b0316816001600160a01b031663d8dfeb456040518163ffffffff1660e01b815260040160206040518083038186803b1580156123a757600080fd5b505afa1580156123bb573d6000803e3d6000fd5b505050506040513d601f19601f820116820180604052508101906123df919061475a565b6001600160a01b03161461242e5760405162461bcd60e51b81526020600482015260166024820152753bb937b73396b1b7b63630ba32b930b616ba37b5b2b760511b604482015260640161075e565b7f00000000000000000000000000000000000000000000000000000000000000006001600160a01b0316816001600160a01b031663fc0c546a6040518163ffffffff1660e01b815260040160206040518083038186803b15801561249157600080fd5b505afa1580156124a5573d6000803e3d6000fd5b505050506040513d601f19601f820116820180604052508101906124c9919061475a565b6001600160a01b0316146125155760405162461bcd60e51b81526020600482015260136024820152723bb937b73396b932b1b2b4b83a16ba37b5b2b760691b604482015260640161075e565b610901613805565b8047101561256d5760405162461bcd60e51b815260206004820152601d60248201527f416464726573733a20696e73756666696369656e742062616c616e6365000000604482015260640161075e565b6000826001600160a01b03168260405160006040518083038185875af1925050503d80600081146125ba576040519150601f19603f3d011682016040523d82523d6000602084013e6125bf565b606091505b5050905080611c225760405162461bcd60e51b815260206004820152603a60248201527f416464726573733a20756e61626c6520746f2073656e642076616c75652c207260448201527f6563697069656e74206d61792068617665207265766572746564000000000000606482015260840161075e565b600060016001607f1b0319821215801561265357506001607f1b82125b6126af5760405162461bcd60e51b815260206004820152602760248201527f53616665436173743a2076616c756520646f65736e27742066697420696e20316044820152663238206269747360c81b606482015260840161075e565b5090565b6000826126c257506000610d5e565b60027f000000000000000000000000000000000000000000000000000000000000000060078111156126f6576126f661453f565b14156127a65760405163cc2b27d760e01b815260048101849052600f83900b60248201527f00000000000000000000000000000000000000000000000000000000000000006001600160a01b03169063cc2b27d7906044015b60206040518083038186803b15801561276757600080fd5b505afa15801561277b573d6000803e3d6000fd5b505050506040513d601f19601f8201168201806040525081019061279f9190614811565b9050610d5e565b60077f000000000000000000000000000000000000000000000000000000000000000060078111156127da576127da61453f565b14156128dc577f000000000000000000000000000000000000000000000000000000000000000015612885576040516341b028f360e01b81526001600160a01b037f00000000000000000000000000000000000000000000000000000000000000008116600483015260248201859052600f84900b60448301527f000000000000000000000000000000000000000000000000000000000000000016906341b028f39060640161274f565b60405163cc2b27d760e01b815260048101849052600f83900b60248201527f00000000000000000000000000000000000000000000000000000000000000006001600160a01b03169063cc2b27d79060440161274f565b60405163cc2b27d760e01b815260048101849052600f83900b60248201527f00000000000000000000000000000000000000000000000000000000000000006001600160a01b03169063cc2b27d79060440160206040518083038186803b15801561294657600080fd5b505afa15801561295a573d6000803e3d6000fd5b505050506040513d601f19601f82011682018060405250810190611a759190614811565b60008181526001830160205260408120546129c557508154600181810184556000848152602080822090930184905584548482528286019093526040902091909155610d5e565b506000610d5e565b60008181526001830160205260408120548015612ab65760006129f1600183614840565b8554909150600090612a0590600190614840565b9050818114612a6a576000866000018281548110612a2557612a256148aa565b9060005260206000200154905080876000018481548110612a4857612a486148aa565b6000918252602080832090910192909255918252600188019052604090208390555b8554869080612a7b57612a7b61491c565b600190038181906000526020600020016000905590558560010160008681526020019081526020016000206000905560019350505050610d5e565b6000915050610d5e565b604051637050ccd960e01b8152306004820152600160248201527f00000000000000000000000000000000000000000000000000000000000000006001600160a01b031690637050ccd990604401602060405180830381600087803b158015612b2857600080fd5b505af1158015612b3c573d6000803e3d6000fd5b505050506040513d601f19601f82011682018060405250810190612b609190614932565b610eb55760405162461bcd60e51b81526020600482015260136024820152721c995dd85c990b58db185a5b4b59985a5b1959606a1b604482015260640161075e565b612bab81613881565b6002546001600160a01b0390811690612c07907f0000000000000000000000000000000000000000000000000000000000000000167f000000000000000000000000000000000000000000000000000000000000000084612db5565b612c3b6001600160a01b037f0000000000000000000000000000000000000000000000000000000000000000168284612db5565b60085460005b81811015612c8d57612c7d838560088481548110612c6157612c616148aa565b6000918252602090912001546001600160a01b03169190612db5565b612c86816148c0565b9050612c41565b50612ce26001600160a01b037f0000000000000000000000000000000000000000000000000000000000000000167f000000000000000000000000000000000000000000000000000000000000000085612db5565b7f00000000000000000000000000000000000000000000000000000000000000006001600160a01b031615611c2257612d656001600160a01b037f0000000000000000000000000000000000000000000000000000000000000000167f000000000000000000000000000000000000000000000000000000000000000085612db5565b611c226001600160a01b037f0000000000000000000000000000000000000000000000000000000000000000167f0000000000000000000000000000000000000000000000000000000000000000855b801580612e3e5750604051636eb1769f60e11b81523060048201526001600160a01b03838116602483015284169063dd62ed3e9060440160206040518083038186803b158015612e0457600080fd5b505afa158015612e18573d6000803e3d6000fd5b505050506040513d601f19601f82011682018060405250810190612e3c9190614811565b155b612ea95760405162461bcd60e51b815260206004820152603660248201527f5361666545524332303a20617070726f76652066726f6d206e6f6e2d7a65726f60448201527520746f206e6f6e2d7a65726f20616c6c6f77616e636560501b606482015260840161075e565b6040516001600160a01b038316602482015260448101829052611c2290849063095ea7b360e01b90606401612194565b6000612f2e826040518060400160405280602081526020017f5361666545524332303a206c6f772d6c6576656c2063616c6c206661696c6564815250856001600160a01b03166138d59092919063ffffffff16565b805190915015611c225780806020019051810190612f4c9190614932565b611c225760405162461bcd60e51b815260206004820152602a60248201527f5361666545524332303a204552433230206f7065726174696f6e20646964206e6044820152691bdd081cdd58d8d9595960b21b606482015260840161075e565b801561090157604051636197390160e11b815260048101829052600060248201527f00000000000000000000000000000000000000000000000000000000000000006001600160a01b03169063c32e720290604401602060405180830381600087803b15801561301a57600080fd5b505af115801561302e573d6000803e3d6000fd5b505050506040513d601f19601f820116820180604052508101906130529190614932565b6109015760405162461bcd60e51b815260206004820152601a60248201527f77697468647261772d616e642d756e777261702d6661696c6564000000000000604482015260640161075e565b816130a7575050565b60006130f47f00000000000000000000000000000000000000000000000000000000000000007f0000000000000000000000000000000000000000000000000000000000000000856138ec565b905060007f0000000000000000000000000000000000000000000000000000000000000000600781111561312a5761312a61453f565b1480613167575060017f000000000000000000000000000000000000000000000000000000000000000060078111156131655761316561453f565b145b1561317757611c228382846139a1565b60037f000000000000000000000000000000000000000000000000000000000000000060078111156131ab576131ab61453f565b14156131bc57611c22838284613a32565b60047f000000000000000000000000000000000000000000000000000000000000000060078111156131f0576131f061453f565b141561320157611c22838284613a32565b60027f000000000000000000000000000000000000000000000000000000000000000060078111156132355761323561453f565b141561324657611c22838284613a97565b60077f0000000000000000000000000000000000000000000000000000000000000000600781111561327a5761327a61453f565b14156132bc577f0000000000000000000000000000000000000000000000000000000000000000156132b157611c22838284613af5565b611c22838284613a97565b60405162461bcd60e51b815260206004820152601a60248201527f77697468647261772d66726f6d2d63757276652d6661696c6564000000000000604482015260640161075e565b6000806000807f00000000000000000000000000000000000000000000000000000000000000006001600160a01b031663d53ddc26306040518263ffffffff1660e01b815260040161335691906145bf565b60206040518083038186803b15801561336e57600080fd5b505afa158015613382573d6000803e3d6000fd5b505050506040513d601f19601f820116820180604052508101906133a69190614811565b905060007f00000000000000000000000000000000000000000000000000000000000000006001600160a01b0316639f2b2833306040518263ffffffff1660e01b81526004016133f691906145bf565b60206040518083038186803b15801561340e57600080fd5b505afa158015613422573d6000803e3d6000fd5b505050506040513d601f19601f820116820180604052508101906134469190614811565b90506134717f0000000000000000000000000000000000000000000000000000000000000000611ab3565b600061349c7f0000000000000000000000000000000000000000000000000000000000000000612636565b905060006134a8610d64565b905060006134b461106f565b6134be9083614892565b905060006134cc82856126b3565b905060007f00000000000000000000000000000000000000000000000000000000000000006001600160a01b03166370a08231306040518263ffffffff1660e01b815260040161351c91906145bf565b60206040518083038186803b15801561353457600080fd5b505afa158015613548573d6000803e3d6000fd5b505050506040513d601f19601f8201168201806040525081019061356c9190614811565b9050600061357a8383614892565b9050868111156135955761358e8782614840565b9a506135a2565b61359f8188614840565b99505b60006135ae898d614892565b9050828111156136bf5760006135cd6135c78584614840565b8661227c565b905080156136bd5760006135f5866135e589856148db565b6135ef91906148fa565b8861227c565b905080156136bb5787811115613612576136126122668983614840565b61361c818a61309e565b6040516370a0823160e01b81526001600160a01b037f000000000000000000000000000000000000000000000000000000000000000016906370a08231906136689030906004016145bf565b60206040518083038186803b15801561368057600080fd5b505afa158015613694573d6000803e3d6000fd5b505050506040513d601f19601f820116820180604052508101906136b89190614811565b94505b505b505b6136c9838a61227c565b99508983116136d95760006136ec565b6136ec6136e68b85614840565b8d61227c565b9b50505050505050505050909192565b6040516370a0823160e01b81526137a1906001600160a01b037f000000000000000000000000000000000000000000000000000000000000000016906370a082319061374c9030906004016145bf565b60206040518083038186803b15801561376457600080fd5b505afa158015613778573d6000803e3d6000fd5b505050506040513d601f19601f8201168201806040525081019061379c9190614811565b613b7b565b610eb5613ddc565b6060816000018054806020026020016040519081016040528092919081815260200182805480156137f957602002820191906000526020600020905b8154815260200190600101908083116137e5575b50505050509050919050565b6040516324f81cd160e11b8152600160048201527f00000000000000000000000000000000000000000000000000000000000000006001600160a01b0316906349f039a290602401600060405180830381600087803b15801561386757600080fd5b505af115801561387b573d6000803e3d6000fd5b50505050565b6109016001600160a01b037f0000000000000000000000000000000000000000000000000000000000000000167f000000000000000000000000000000000000000000000000000000000000000083612db5565b60606138e48484600085613f7a565b949350505050565b60006127106006546127106139019190614840565b600754604051632d9198e160e21b81526001600160a01b0388811660048301528781166024830152604482018790529091169063b64663849060640160206040518083038186803b15801561395557600080fd5b505afa158015613969573d6000803e3d6000fd5b505050506040513d601f19601f8201168201806040525081019061398d9190614811565b61399791906148db565b6138e491906148fa565b604051630d2680e960e11b815260048101849052600f82900b6024820152604481018390527f00000000000000000000000000000000000000000000000000000000000000006001600160a01b031690631a4d01d2906064015b600060405180830381600087803b158015613a1557600080fd5b505af1158015613a29573d6000803e3d6000fd5b50505050505050565b60405163517a55a360e01b815260048101849052600f82900b602482015260448101839052600160648201527f00000000000000000000000000000000000000000000000000000000000000006001600160a01b03169063517a55a3906084016139fb565b604051630d2680e960e11b815260048101849052600f82900b6024820152604481018390527f00000000000000000000000000000000000000000000000000000000000000006001600160a01b031690631a4d01d2906064016139fb565b6040516314f6943160e11b81526001600160a01b037f00000000000000000000000000000000000000000000000000000000000000008116600483015260248201859052600f83900b6044830152606482018490527f000000000000000000000000000000000000000000000000000000000000000016906329ed2862906084016139fb565b80613b835750565b6000613bd07f00000000000000000000000000000000000000000000000000000000000000007f0000000000000000000000000000000000000000000000000000000000000000846138ec565b905060007f00000000000000000000000000000000000000000000000000000000000000006007811115613c0657613c0661453f565b1415613c1657610acc82826140a2565b60037f00000000000000000000000000000000000000000000000000000000000000006007811115613c4a57613c4a61453f565b1415613c5a57610acc8282614130565b60017f00000000000000000000000000000000000000000000000000000000000000006007811115613c8e57613c8e61453f565b1415613c9e57610acc82826141c1565b60047f00000000000000000000000000000000000000000000000000000000000000006007811115613cd257613cd261453f565b1415613ce257610acc828261424f565b60027f00000000000000000000000000000000000000000000000000000000000000006007811115613d1657613d1661453f565b1415613d2657610acc82826142e0565b60077f00000000000000000000000000000000000000000000000000000000000000006007811115613d5a57613d5a61453f565b1415613d9a577f000000000000000000000000000000000000000000000000000000000000000015613d9057610acc828261436d565b610acc82826142e0565b60405162461bcd60e51b815260206004820152601760248201527619195c1bdcda5d0b5d1bcb58dd5c9d994b59985a5b1959604a1b604482015260640161075e565b6040516370a0823160e01b81526000906001600160a01b037f000000000000000000000000000000000000000000000000000000000000000016906370a0823190613e2b9030906004016145bf565b60206040518083038186803b158015613e4357600080fd5b505afa158015613e57573d6000803e3d6000fd5b505050506040513d601f19601f82011682018060405250810190613e7b9190614811565b90508015610901576040516321d0683360e11b81527f00000000000000000000000000000000000000000000000000000000000000006004820152602481018290526001604482015273f403c135812408bfbe8713b5a23a04b3d48aae31906343a0d06690606401602060405180830381600087803b158015613efd57600080fd5b505af1158015613f11573d6000803e3d6000fd5b505050506040513d601f19601f82011682018060405250810190613f359190614932565b6109015760405162461bcd60e51b8152602060048201526016602482015275189bdbdcdd195c8b59195c1bdcda5d0b59985a5b195960521b604482015260640161075e565b606082471015613fdb5760405162461bcd60e51b815260206004820152602660248201527f416464726573733a20696e73756666696369656e742062616c616e636520666f6044820152651c8818d85b1b60d21b606482015260840161075e565b843b6140295760405162461bcd60e51b815260206004820152601d60248201527f416464726573733a2063616c6c20746f206e6f6e2d636f6e7472616374000000604482015260640161075e565b600080866001600160a01b031685876040516140459190614954565b60006040518083038185875af1925050503d8060008114614082576040519150601f19603f3d011682016040523d82523d6000602084013e614087565b606091505b509150915061409782828661441d565b979650505050505050565b6140aa6144b7565b82817f0000000000000000000000000000000000000000000000000000000000000000600281106140dd576140dd6148aa565b6020020152604051630b4c7e4d60e01b81526001600160a01b037f00000000000000000000000000000000000000000000000000000000000000001690630b4c7e4d906139fb9084908690600401614993565b6141386144b7565b82817f00000000000000000000000000000000000000000000000000000000000000006002811061416b5761416b6148aa565b602002015260405163ee22be2360e01b81526001600160a01b037f0000000000000000000000000000000000000000000000000000000000000000169063ee22be23906139fb90849086906001906004016149ae565b6141c96144d5565b82817f0000000000000000000000000000000000000000000000000000000000000000600381106141fc576141fc6148aa565b6020020152604051634515cef360e01b81526001600160a01b037f00000000000000000000000000000000000000000000000000000000000000001690634515cef3906139fb90849086906004016149f5565b6142576144d5565b82817f00000000000000000000000000000000000000000000000000000000000000006003811061428a5761428a6148aa565b60200201526040516315b74c9d60e11b81526001600160a01b037f00000000000000000000000000000000000000000000000000000000000000001690632b6e993a906139fb9084908690600190600401614a10565b6142e86144f3565b82817f00000000000000000000000000000000000000000000000000000000000000006004811061431b5761431b6148aa565b602002015260405162a6cbcd60e21b81526001600160a01b037f0000000000000000000000000000000000000000000000000000000000000000169063029b2f34906139fb9084908690600401614a57565b6143756144f3565b82817f0000000000000000000000000000000000000000000000000000000000000000600481106143a8576143a86148aa565b602002015260405163384e03db60e01b81526001600160a01b037f0000000000000000000000000000000000000000000000000000000000000000169063384e03db906139fb907f00000000000000000000000000000000000000000000000000000000000000009085908790600401614a72565b6060831561442c575081611a75565b82511561443c5782518084602001fd5b8160405162461bcd60e51b815260040161075e9190614727565b8280548282559060005260206000209081019282156144ab579160200282015b828111156144ab57825182546001600160a01b0319166001600160a01b03909116178255602090920191600190910190614476565b506126af929150614511565b60405180604001604052806002906020820280368337509192915050565b60405180606001604052806003906020820280368337509192915050565b60405180608001604052806004906020820280368337509192915050565b5b808211156126af5760008155600101614512565b60006020828403121561453857600080fd5b5035919050565b634e487b7160e01b600052602160045260246000fd5b602081016008831061457757634e487b7160e01b600052602160045260246000fd5b91905290565b6001600160a01b038116811461090157600080fd5b803561459d8161457d565b919050565b6000602082840312156145b457600080fd5b8135611a758161457d565b6001600160a01b0391909116815260200190565b634e487b7160e01b600052604160045260246000fd5b600060208083850312156145fc57600080fd5b823567ffffffffffffffff8082111561461457600080fd5b818501915085601f83011261462857600080fd5b81358181111561463a5761463a6145d3565b8060051b604051601f19603f8301168101818110858211171561465f5761465f6145d3565b60405291825284820192508381018501918883111561467d57600080fd5b938501935b828510156146a25761469385614592565b84529385019392850192614682565b98975050505050505050565b6020808252825182820181905260009190848201906040850190845b818110156146ef5783516001600160a01b0316835292840192918401916001016146ca565b50909695505050505050565b60005b838110156147165781810151838201526020016146fe565b8381111561387b5750506000910152565b60208152600082518060208401526147468160408501602087016146fb565b601f01601f19169190910160400192915050565b60006020828403121561476c57600080fd5b8151611a758161457d565b6020808252601a908201527f63616c6c65722d69732d6e6f742d7468652d676f7665726e6f72000000000000604082015260600190565b60208082526016908201527531b0b63632b916b4b996b737ba16b096b5b2b2b832b960511b604082015260600190565b60208082526019908201527818d85b1b195c8b5a5ccb5b9bdd0b5d995cdc195c8b5c1bdbdb603a1b604082015260600190565b60006020828403121561482357600080fd5b5051919050565b634e487b7160e01b600052601160045260246000fd5b6000828210156148525761485261482a565b500390565b600181811c9082168061486b57607f821691505b6020821081141561488c57634e487b7160e01b600052602260045260246000fd5b50919050565b600082198211156148a5576148a561482a565b500190565b634e487b7160e01b600052603260045260246000fd5b60006000198214156148d4576148d461482a565b5060010190565b60008160001904831182151516156148f5576148f561482a565b500290565b60008261491757634e487b7160e01b600052601260045260246000fd5b500490565b634e487b7160e01b600052603160045260246000fd5b60006020828403121561494457600080fd5b81518015158114611a7557600080fd5b600082516149668184602087016146fb565b9190910192915050565b8060005b600281101561387b578151845260209384019390910190600101614974565b606081016149a18285614970565b8260408301529392505050565b608081016149bc8286614970565b8360408301528215156060830152949350505050565b8060005b600381101561387b5781518452602093840193909101906001016149d6565b60808101614a0382856149d2565b8260608301529392505050565b60a08101614a1e82866149d2565b8360608301528215156080830152949350505050565b8060005b600481101561387b578151845260209384019390910190600101614a38565b60a08101614a658285614a34565b8260808301529392505050565b6001600160a01b038416815260c08101614a8f6020830185614a34565b8260a083015294935050505056fea264697066735822122035f1bae0306f5cf507c188b1d6fc335c7539d4f21bfb6554a506acb4f6c07bf364736f6c63430008090033",
  "devdoc": {
    "kind": "dev",
    "methods": {
      "addKeeper(address)": {
        "params": {
          "_keeperAddress": "keeper address to add."
        }
      },
      "approveToken()": {
        "details": "Approve all required tokens"
      },
      "isReservedToken(address)": {
        "details": "Check whether given token is reserved or not. Reserved tokens are not allowed to sweep."
      },
      "migrate(address)": {
        "details": "_beforeMigration hook can be implemented in child strategy to do extra steps.",
        "params": {
          "_newStrategy": "Address of new strategy"
        }
      },
      "rebalance()": {
        "returns": {
          "_loss": "Realized loss, if any, in collateral.",
          "_payback": "If strategy has any excess debt, we have to liquidate asset to payback excess debt.",
          "_profit": "Realized profit in collateral."
        }
      },
      "removeKeeper(address)": {
        "params": {
          "_keeperAddress": "keeper address to remove."
        }
      },
      "setRewardTokens(address[])": {
        "details": "convex pool can add new rewards. This method refresh list."
      },
      "sweepERC20(address)": {
        "params": {
          "_fromToken": "token address to sweep"
        }
      },
      "updateFeeCollector(address)": {
        "params": {
          "_feeCollector": "fee collector address"
        }
      },
      "updateSwapper(address)": {
        "params": {
          "_swapper": "swapper address"
        }
      },
      "withdraw(uint256)": {
        "params": {
          "_amount": "Amount of collateral token"
        }
      }
    },
    "version": 1
  },
  "userdoc": {
    "kind": "user",
    "methods": {
      "addKeeper(address)": {
        "notice": "Add given address in keepers list."
      },
      "collateral()": {
        "notice": "Returns address of token correspond to collateral token"
      },
      "keepers()": {
        "notice": "Return list of keepers"
      },
      "migrate(address)": {
        "notice": "Migrate all asset and vault ownership,if any, to new strategy"
      },
      "rebalance()": {
        "notice": "OnlyKeeper: Rebalance profit, loss and investment of this strategy.  Calculate profit, loss and payback of this strategy and realize profit/loss and  withdraw fund for payback, if any, and submit this report to pool."
      },
      "removeKeeper(address)": {
        "notice": "Remove given address from keepers list."
      },
      "sweepERC20(address)": {
        "notice": "sweep given token to feeCollector of strategy"
      },
      "token()": {
        "notice": "Returns address of token correspond to receipt token"
      },
      "tvl()": {
        "notice": "Returns collateral balance + collateral deposited to curve"
      },
      "updateFeeCollector(address)": {
        "notice": "Update fee collector"
      },
      "updateSwapper(address)": {
        "notice": "Update swapper"
      },
      "withdraw(uint256)": {
        "notice": "Withdraw collateral token from end protocol."
      }
    },
    "version": 1
  },
  "storageLayout": {
    "storage": [
      {
        "astId": 13788,
        "contract": "vesper-strategies/contracts/strategies/convex/Convex.sol:Convex",
        "label": "receiptToken",
        "offset": 0,
        "slot": "0",
        "type": "t_address"
      },
      {
        "astId": 13794,
        "contract": "vesper-strategies/contracts/strategies/convex/Convex.sol:Convex",
        "label": "feeCollector",
        "offset": 0,
        "slot": "1",
        "type": "t_address"
      },
      {
        "astId": 13797,
        "contract": "vesper-strategies/contracts/strategies/convex/Convex.sol:Convex",
        "label": "swapper",
        "offset": 0,
        "slot": "2",
        "type": "t_contract(IRoutedSwapper)12649"
      },
      {
        "astId": 13810,
        "contract": "vesper-strategies/contracts/strategies/convex/Convex.sol:Convex",
        "label": "_keepers",
        "offset": 0,
        "slot": "3",
        "type": "t_struct(AddressSet)3019_storage"
      },
      {
        "astId": 21643,
        "contract": "vesper-strategies/contracts/strategies/convex/Convex.sol:Convex",
        "label": "NAME",
        "offset": 0,
        "slot": "5",
        "type": "t_string_storage"
      },
      {
        "astId": 21645,
        "contract": "vesper-strategies/contracts/strategies/convex/Convex.sol:Convex",
        "label": "crvSlippage",
        "offset": 0,
        "slot": "6",
        "type": "t_uint256"
      },
      {
        "astId": 21648,
        "contract": "vesper-strategies/contracts/strategies/convex/Convex.sol:Convex",
        "label": "masterOracle",
        "offset": 0,
        "slot": "7",
        "type": "t_contract(IMasterOracle)12333"
      },
      {
        "astId": 21651,
        "contract": "vesper-strategies/contracts/strategies/convex/Convex.sol:Convex",
        "label": "rewardTokens",
        "offset": 0,
        "slot": "8",
        "type": "t_array(t_address)dyn_storage"
      }
    ],
    "types": {
      "t_address": {
        "encoding": "inplace",
        "label": "address",
        "numberOfBytes": "20"
      },
      "t_array(t_address)dyn_storage": {
        "base": "t_address",
        "encoding": "dynamic_array",
        "label": "address[]",
        "numberOfBytes": "32"
      },
      "t_array(t_bytes32)dyn_storage": {
        "base": "t_bytes32",
        "encoding": "dynamic_array",
        "label": "bytes32[]",
        "numberOfBytes": "32"
      },
      "t_bytes32": {
        "encoding": "inplace",
        "label": "bytes32",
        "numberOfBytes": "32"
      },
      "t_contract(IMasterOracle)12333": {
        "encoding": "inplace",
        "label": "contract IMasterOracle",
        "numberOfBytes": "20"
      },
      "t_contract(IRoutedSwapper)12649": {
        "encoding": "inplace",
        "label": "contract IRoutedSwapper",
        "numberOfBytes": "20"
      },
      "t_mapping(t_bytes32,t_uint256)": {
        "encoding": "mapping",
        "key": "t_bytes32",
        "label": "mapping(bytes32 => uint256)",
        "numberOfBytes": "32",
        "value": "t_uint256"
      },
      "t_string_storage": {
        "encoding": "bytes",
        "label": "string",
        "numberOfBytes": "32"
      },
      "t_struct(AddressSet)3019_storage": {
        "encoding": "inplace",
        "label": "struct EnumerableSet.AddressSet",
        "members": [
          {
            "astId": 3018,
            "contract": "vesper-strategies/contracts/strategies/convex/Convex.sol:Convex",
            "label": "_inner",
            "offset": 0,
            "slot": "0",
            "type": "t_struct(Set)2718_storage"
          }
        ],
        "numberOfBytes": "64"
      },
      "t_struct(Set)2718_storage": {
        "encoding": "inplace",
        "label": "struct EnumerableSet.Set",
        "members": [
          {
            "astId": 2713,
            "contract": "vesper-strategies/contracts/strategies/convex/Convex.sol:Convex",
            "label": "_values",
            "offset": 0,
            "slot": "0",
            "type": "t_array(t_bytes32)dyn_storage"
          },
          {
            "astId": 2717,
            "contract": "vesper-strategies/contracts/strategies/convex/Convex.sol:Convex",
            "label": "_indexes",
            "offset": 0,
            "slot": "1",
            "type": "t_mapping(t_bytes32,t_uint256)"
          }
        ],
        "numberOfBytes": "64"
      },
      "t_uint256": {
        "encoding": "inplace",
        "label": "uint256",
        "numberOfBytes": "32"
      }
    }
  }
}