{
  "address": "0xFd3783586aBDE50E7b03C171bd1062354641F661",
  "abi": [
    {
      "inputs": [
        {
          "internalType": "address",
          "name": "pool_",
          "type": "address"
        },
        {
          "internalType": "address",
          "name": "swapper_",
          "type": "address"
        },
        {
          "internalType": "address",
          "name": "receiptToken_",
          "type": "address"
        },
        {
          "internalType": "address",
          "name": "dripToken_",
          "type": "address"
        },
        {
          "internalType": "address",
          "name": "vsp_",
          "type": "address"
        },
        {
          "internalType": "string",
          "name": "name_",
          "type": "string"
        }
      ],
      "stateMutability": "nonpayable",
      "type": "constructor"
    },
    {
      "anonymous": false,
      "inputs": [
        {
          "indexed": false,
          "internalType": "uint256",
          "name": "oldDripPeriod",
          "type": "uint256"
        },
        {
          "indexed": false,
          "internalType": "uint256",
          "name": "newDripPeriod",
          "type": "uint256"
        }
      ],
      "name": "DripPeriodUpdated",
      "type": "event"
    },
    {
      "anonymous": false,
      "inputs": [
        {
          "indexed": true,
          "internalType": "address",
          "name": "previousFeeCollector",
          "type": "address"
        },
        {
          "indexed": true,
          "internalType": "address",
          "name": "newFeeCollector",
          "type": "address"
        }
      ],
      "name": "UpdatedFeeCollector",
      "type": "event"
    },
    {
      "anonymous": false,
      "inputs": [
        {
          "indexed": true,
          "internalType": "contract IRoutedSwapper",
          "name": "oldSwapper",
          "type": "address"
        },
        {
          "indexed": true,
          "internalType": "contract IRoutedSwapper",
          "name": "newSwapper",
          "type": "address"
        }
      ],
      "name": "UpdatedSwapper",
      "type": "event"
    },
    {
      "inputs": [],
      "name": "NAME",
      "outputs": [
        {
          "internalType": "string",
          "name": "",
          "type": "string"
        }
      ],
      "stateMutability": "view",
      "type": "function"
    },
    {
      "inputs": [],
      "name": "VERSION",
      "outputs": [
        {
          "internalType": "string",
          "name": "",
          "type": "string"
        }
      ],
      "stateMutability": "view",
      "type": "function"
    },
    {
      "inputs": [
        {
          "internalType": "address",
          "name": "_keeperAddress",
          "type": "address"
        }
      ],
      "name": "addKeeper",
      "outputs": [],
      "stateMutability": "nonpayable",
      "type": "function"
    },
    {
      "inputs": [],
      "name": "approveGrowToken",
      "outputs": [],
      "stateMutability": "nonpayable",
      "type": "function"
    },
    {
      "inputs": [],
      "name": "approveToken",
      "outputs": [],
      "stateMutability": "nonpayable",
      "type": "function"
    },
    {
      "inputs": [],
      "name": "collateral",
      "outputs": [
        {
          "internalType": "address",
          "name": "",
          "type": "address"
        }
      ],
      "stateMutability": "view",
      "type": "function"
    },
    {
      "inputs": [],
      "name": "collateralToken",
      "outputs": [
        {
          "internalType": "contract IERC20",
          "name": "",
          "type": "address"
        }
      ],
      "stateMutability": "view",
      "type": "function"
    },
    {
      "inputs": [],
      "name": "dripPeriod",
      "outputs": [
        {
          "internalType": "uint256",
          "name": "",
          "type": "uint256"
        }
      ],
      "stateMutability": "view",
      "type": "function"
    },
    {
      "inputs": [],
      "name": "dripToken",
      "outputs": [
        {
          "internalType": "address",
          "name": "",
          "type": "address"
        }
      ],
      "stateMutability": "view",
      "type": "function"
    },
    {
      "inputs": [],
      "name": "feeCollector",
      "outputs": [
        {
          "internalType": "address",
          "name": "",
          "type": "address"
        }
      ],
      "stateMutability": "view",
      "type": "function"
    },
    {
      "inputs": [],
      "name": "harvestVSP",
      "outputs": [],
      "stateMutability": "nonpayable",
      "type": "function"
    },
    {
      "inputs": [
        {
          "internalType": "address",
          "name": "token_",
          "type": "address"
        }
      ],
      "name": "isReservedToken",
      "outputs": [
        {
          "internalType": "bool",
          "name": "",
          "type": "bool"
        }
      ],
      "stateMutability": "view",
      "type": "function"
    },
    {
      "inputs": [],
      "name": "keepers",
      "outputs": [
        {
          "internalType": "address[]",
          "name": "",
          "type": "address[]"
        }
      ],
      "stateMutability": "view",
      "type": "function"
    },
    {
      "inputs": [
        {
          "internalType": "address",
          "name": "_newStrategy",
          "type": "address"
        }
      ],
      "name": "migrate",
      "outputs": [],
      "stateMutability": "nonpayable",
      "type": "function"
    },
    {
      "inputs": [],
      "name": "pool",
      "outputs": [
        {
          "internalType": "address",
          "name": "",
          "type": "address"
        }
      ],
      "stateMutability": "view",
      "type": "function"
    },
    {
      "inputs": [],
      "name": "rebalance",
      "outputs": [
        {
          "internalType": "uint256",
          "name": "_profit",
          "type": "uint256"
        },
        {
          "internalType": "uint256",
          "name": "_loss",
          "type": "uint256"
        },
        {
          "internalType": "uint256",
          "name": "_payback",
          "type": "uint256"
        }
      ],
      "stateMutability": "nonpayable",
      "type": "function"
    },
    {
      "inputs": [],
      "name": "receiptToken",
      "outputs": [
        {
          "internalType": "address",
          "name": "",
          "type": "address"
        }
      ],
      "stateMutability": "view",
      "type": "function"
    },
    {
      "inputs": [
        {
          "internalType": "address",
          "name": "_keeperAddress",
          "type": "address"
        }
      ],
      "name": "removeKeeper",
      "outputs": [],
      "stateMutability": "nonpayable",
      "type": "function"
    },
    {
      "inputs": [],
      "name": "swapper",
      "outputs": [
        {
          "internalType": "contract IRoutedSwapper",
          "name": "",
          "type": "address"
        }
      ],
      "stateMutability": "view",
      "type": "function"
    },
    {
      "inputs": [
        {
          "internalType": "address",
          "name": "_fromToken",
          "type": "address"
        }
      ],
      "name": "sweepERC20",
      "outputs": [],
      "stateMutability": "nonpayable",
      "type": "function"
    },
    {
      "inputs": [],
      "name": "token",
      "outputs": [
        {
          "internalType": "address",
          "name": "",
          "type": "address"
        }
      ],
      "stateMutability": "view",
      "type": "function"
    },
    {
      "inputs": [],
      "name": "totalEarned",
      "outputs": [
        {
          "internalType": "uint256",
          "name": "",
          "type": "uint256"
        }
      ],
      "stateMutability": "view",
      "type": "function"
    },
    {
      "inputs": [],
      "name": "tvl",
      "outputs": [
        {
          "internalType": "uint256",
          "name": "",
          "type": "uint256"
        }
      ],
      "stateMutability": "view",
      "type": "function"
    },
    {
      "inputs": [
        {
          "internalType": "uint256",
          "name": "dripPeriod_",
          "type": "uint256"
        }
      ],
      "name": "updateDripPeriod",
      "outputs": [],
      "stateMutability": "nonpayable",
      "type": "function"
    },
    {
      "inputs": [
        {
          "internalType": "address",
          "name": "_feeCollector",
          "type": "address"
        }
      ],
      "name": "updateFeeCollector",
      "outputs": [],
      "stateMutability": "nonpayable",
      "type": "function"
    },
    {
      "inputs": [
        {
          "internalType": "contract IRoutedSwapper",
          "name": "_swapper",
          "type": "address"
        }
      ],
      "name": "updateSwapper",
      "outputs": [],
      "stateMutability": "nonpayable",
      "type": "function"
    },
    {
      "inputs": [
        {
          "internalType": "uint256",
          "name": "_amount",
          "type": "uint256"
        }
      ],
      "name": "withdraw",
      "outputs": [],
      "stateMutability": "nonpayable",
      "type": "function"
    }
  ],
  "transactionHash": "0xd7968a24aa3a5a5d27f4697ad6d4885de7776542ad90336b64cbc5bf6a5c6aa5",
  "args": [
    "0x7a74B6D3A07D3249Ea2FBb58e47F0DaF6d6a2ebf",
    "0x8f156189A3CD28dFc8FB7BbbAce58F98F09c0bB3",
    "0x01e1d41C1159b745298724c5Fd3eAfF3da1C6efD",
    "0x6B175474E89094C44Da98b954EedeAC495271d0F",
    "0x1b40183EFB4Dd766f11bDa7A7c3AD8982e998421",
    "Vesper_Earn_WBTC_DAI"
  ],
  "numDeployments": 1,
  "solcInputHash": "2135a712eed530e6700eb426cde29682",
  "bytecode": "0x6101206040526202a3006006553480156200001957600080fd5b5060405162003cbe38038062003cbe8339810160408190526200003c9162000446565b8286868685858484846001600160a01b038316620000a15760405162461bcd60e51b815260206004820152601460248201527f706f6f6c2d616464726573732d69732d7a65726f00000000000000000000000060448201526064015b60405180910390fd5b6001600160a01b038216620000f95760405162461bcd60e51b815260206004820152601760248201527f737761707065722d616464726573732d69732d7a65726f000000000000000000604482015260640162000098565b600280546001600160a01b0319166001600160a01b0384811691909117909155831660a081905260408051637e062a3560e11b8152905163fc0c546a91600480820192602092909190829003018186803b1580156200015757600080fd5b505afa1580156200016c573d6000803e3d6000fd5b505050506040513d601f19601f8201168201806040525081019062000192919062000590565b6001600160a01b03908116608052600080546001600160a01b031916918316919091179055620001d9620001c33390565b6003620002ff60201b620019b51790919060201c565b6200021b5760405162461bcd60e51b81526020600482015260116024820152701859190b5ad9595c195c8b59985a5b1959607a1b604482015260640162000098565b5050506001600160a01b0383166200026b5760405162461bcd60e51b8152602060048201526012602482015271373ab63616b932b1b2b4b83a16ba37b5b2b760711b604482015260640162000098565b6001600160a01b03831660e05280516200028d90600590602084019062000371565b50506001600160a01b0390811660c052841615159250620002e59150505760405162461bcd60e51b815260206004820152600e60248201526d64726970546f6b656e2d7a65726f60901b604482015260640162000098565b6001600160a01b03166101005250620005f4945050505050565b600062000316836001600160a01b0384166200031f565b90505b92915050565b6000818152600183016020526040812054620003685750815460018181018455600084815260208082209093018490558454848252828601909352604090209190915562000319565b50600062000319565b8280546200037f90620005b7565b90600052602060002090601f016020900481019282620003a35760008555620003ee565b82601f10620003be57805160ff1916838001178555620003ee565b82800160010185558215620003ee579182015b82811115620003ee578251825591602001919060010190620003d1565b50620003fc92915062000400565b5090565b5b80821115620003fc576000815560010162000401565b6001600160a01b03811681146200042d57600080fd5b50565b634e487b7160e01b600052604160045260246000fd5b60008060008060008060c087890312156200046057600080fd5b86516200046d8162000417565b80965050602080880151620004828162000417565b6040890151909650620004958162000417565b6060890151909550620004a88162000417565b6080890151909450620004bb8162000417565b60a08901519093506001600160401b0380821115620004d957600080fd5b818a0191508a601f830112620004ee57600080fd5b81518181111562000503576200050362000430565b604051601f8201601f19908116603f011681019083821181831017156200052e576200052e62000430565b816040528281528d868487010111156200054757600080fd5b600093505b828410156200056b57848401860151818501870152928501926200054c565b828411156200057d5760008684830101525b8096505050505050509295509295509295565b600060208284031215620005a357600080fd5b8151620005b08162000417565b9392505050565b600181811c90821680620005cc57607f821691505b60208210811415620005ee57634e487b7160e01b600052602260045260246000fd5b50919050565b60805160a05160c05160e05161010051613504620007ba6000396000818161020e01528181610da101528181610e9101528181610ec601528181612b3f01528181612ca201528181612f3e0152612f8c0152600081816109f301528181610a6c0152818161187001528181611a4b01528181611ec101528181611f6501528181612231015281816122d4015281816124b5015281816126a2015281816129a20152612a75015260008181610b8501528181610c170152612adb015260008181610198015281816103e9015281816105040152818161068f015281816107ab01528181610889015281816108e501528181610c8f0152818161100a015281816110a7015281816112ca0152818161149301528181611d1a01528181612375015281816124150152818161280301528181612b87015261301d0152600081816102f001528181610360015281816106ee01528181610789015281816107fd015281816108bc01528181610a2e01528181610c380152818161122e015281816116c501528181611926015281816125620152818161271b0152818161289e015281816128ff01528181612a5301528181612aa701528181612b1e0152612ffb01526135046000f3fe608060405234801561001057600080fd5b50600436106101795760003560e01c8063951dc22c116100d9578063d3033c3911610087578063d3033c391461034b578063d8dfeb451461035e578063e00af4a714610384578063e5328e0614610397578063ec78e8321461039f578063fc0c546a146103b2578063ffa1ad74146103c357600080fd5b8063951dc22c146102b957806399b71d5c146102ce578063a3f4df7e146102d6578063b2016bd4146102eb578063c415b95c14610312578063ce5494bb14610325578063d2c35ce81461033857600080fd5b80634032b72b116101365780634032b72b14610230578063440d7248146102435780634fc90c2c146102665780636dfa8d991461026e57806371506414146102855780637737b6721461028e5780637d7c2a1c1461029657600080fd5b806314ae9f2e1461017e57806316f0115b146101935780631960d116146101d05780632b3297f9146101e35780632e1a7d4d146101f6578063335bbf1114610209575b600080fd5b61019161018c3660046131b8565b6103e7565b005b6101ba7f000000000000000000000000000000000000000000000000000000000000000081565b6040516101c791906131d5565b60405180910390f35b6101916101de3660046131e9565b610502565b6002546101ba906001600160a01b031681565b6101916102043660046131e9565b61068c565b6101ba7f000000000000000000000000000000000000000000000000000000000000000081565b61019161023e3660046131b8565b6108e3565b6102566102513660046131b8565b6109ef565b60405190151581526020016101c7565b610191610a68565b61027760075481565b6040519081526020016101c7565b61027760065481565b610191610c62565b61029e610eef565b604080519384526020840192909252908201526060016101c7565b6102c1610f2c565b6040516101c79190613202565b610191610f3d565b6102de610f79565b6040516101c7919061327f565b6101ba7f000000000000000000000000000000000000000000000000000000000000000081565b6001546101ba906001600160a01b031681565b6101916103333660046131b8565b611007565b6101916103463660046131b8565b6112c8565b6101916103593660046131b8565b611491565b7f00000000000000000000000000000000000000000000000000000000000000006101ba565b6101916103923660046131b8565b61164e565b610277611869565b6000546101ba906001600160a01b031681565b6000546001600160a01b03166101ba565b6102de604051806040016040528060058152602001640352e302e360dc1b81525081565b7f00000000000000000000000000000000000000000000000000000000000000006001600160a01b0316630c340a246040518163ffffffff1660e01b815260040160206040518083038186803b15801561044057600080fd5b505afa158015610454573d6000803e3d6000fd5b505050506040513d601f19601f8201168201806040525081019061047891906132b2565b6001600160a01b0316336001600160a01b0316146104b15760405162461bcd60e51b81526004016104a8906132cf565b60405180910390fd5b6104bc6003826119d1565b6104ff5760405162461bcd60e51b81526020600482015260146024820152731c995b5bdd994b5ad9595c195c8b59985a5b195960621b60448201526064016104a8565b50565b7f00000000000000000000000000000000000000000000000000000000000000006001600160a01b0316630c340a246040518163ffffffff1660e01b815260040160206040518083038186803b15801561055b57600080fd5b505afa15801561056f573d6000803e3d6000fd5b505050506040513d601f19601f8201168201806040525081019061059391906132b2565b6001600160a01b0316336001600160a01b0316146105c35760405162461bcd60e51b81526004016104a8906132cf565b600081116106065760405162461bcd60e51b815260206004820152601060248201526f1e995c9bcb591c9a5c0b5c195c9a5bd960821b60448201526064016104a8565b60065481141561064b5760405162461bcd60e51b815260206004820152601060248201526f1cd85b594b591c9a5c0b5c195c9a5bd960821b60448201526064016104a8565b60065460408051918252602082018390527f6a4a78fe36e2d43bd20405835c6211b888cc77a834e32ddc9ac64ded78f4b328910160405180910390a1600655565b337f00000000000000000000000000000000000000000000000000000000000000006001600160a01b0316146106d45760405162461bcd60e51b81526004016104a890613306565b6040516370a0823160e01b81526000906001600160a01b037f000000000000000000000000000000000000000000000000000000000000000016906370a08231906107239030906004016131d5565b60206040518083038186803b15801561073b57600080fd5b505afa15801561074f573d6000803e3d6000fd5b505050506040513d601f19601f820116820180604052508101906107739190613339565b90508181106107d4576107d06001600160a01b037f0000000000000000000000000000000000000000000000000000000000000000167f0000000000000000000000000000000000000000000000000000000000000000846119e6565b5050565b6107e66107e18284613368565b611a49565b6040516370a0823160e01b81526001600160a01b037f000000000000000000000000000000000000000000000000000000000000000016906370a08231906108329030906004016131d5565b60206040518083038186803b15801561084a57600080fd5b505afa15801561085e573d6000803e3d6000fd5b505050506040513d601f19601f820116820180604052508101906108829190613339565b90506107d07f00000000000000000000000000000000000000000000000000000000000000006108b28484611ad4565b6001600160a01b037f00000000000000000000000000000000000000000000000000000000000000001691906119e6565b7f00000000000000000000000000000000000000000000000000000000000000006001600160a01b0316630c340a246040518163ffffffff1660e01b815260040160206040518083038186803b15801561093c57600080fd5b505afa158015610950573d6000803e3d6000fd5b505050506040513d601f19601f8201168201806040525081019061097491906132b2565b6001600160a01b0316336001600160a01b0316146109a45760405162461bcd60e51b81526004016104a8906132cf565b6109af6003826119b5565b6104ff5760405162461bcd60e51b81526020600482015260116024820152701859190b5ad9595c195c8b59985a5b1959607a1b60448201526064016104a8565b60007f00000000000000000000000000000000000000000000000000000000000000006001600160a01b0316826001600160a01b03161480610a6257507f00000000000000000000000000000000000000000000000000000000000000006001600160a01b0316826001600160a01b0316145b92915050565b60007f00000000000000000000000000000000000000000000000000000000000000006001600160a01b0316638bc6beb26040518163ffffffff1660e01b815260040160206040518083038186803b158015610ac357600080fd5b505afa158015610ad7573d6000803e3d6000fd5b505050506040513d601f19601f82011682018060405250810190610afb91906132b2565b90506001600160a01b03811615610b6b5760405163d279c19160e01b81526001600160a01b0382169063d279c19190610b389030906004016131d5565b600060405180830381600087803b158015610b5257600080fd5b505af1158015610b66573d6000803e3d6000fd5b505050505b6040516370a0823160e01b81526000906001600160a01b037f000000000000000000000000000000000000000000000000000000000000000016906370a0823190610bba9030906004016131d5565b60206040518083038186803b158015610bd257600080fd5b505afa158015610be6573d6000803e3d6000fd5b505050506040513d601f19601f82011682018060405250810190610c0a9190613339565b905080156107d057610c5d7f00000000000000000000000000000000000000000000000000000000000000007f000000000000000000000000000000000000000000000000000000000000000083611aea565b505050565b610c6f335b600390611b8e565b610c8b5760405162461bcd60e51b81526004016104a89061337f565b60007f00000000000000000000000000000000000000000000000000000000000000006001600160a01b0316638bc6beb26040518163ffffffff1660e01b815260040160206040518083038186803b158015610ce657600080fd5b505afa158015610cfa573d6000803e3d6000fd5b505050506040513d601f19601f82011682018060405250810190610d1e91906132b2565b6001600160a01b031663e49e463b6040518163ffffffff1660e01b815260040160206040518083038186803b158015610d5657600080fd5b505afa158015610d6a573d6000803e3d6000fd5b505050506040513d601f19601f82011682018060405250810190610d8e91906132b2565b90506001600160a01b038116156104ff577f00000000000000000000000000000000000000000000000000000000000000006001600160a01b0316816001600160a01b031663fc0c546a6040518163ffffffff1660e01b815260040160206040518083038186803b158015610e0257600080fd5b505afa158015610e16573d6000803e3d6000fd5b505050506040513d601f19601f82011682018060405250810190610e3a91906132b2565b6001600160a01b031614610e845760405162461bcd60e51b81526020600482015260116024820152701a5b9d985b1a590b59dc9bddcb5c1bdbdb607a1b60448201526064016104a8565b610eb96001600160a01b037f000000000000000000000000000000000000000000000000000000000000000016826000611bb0565b6104ff6001600160a01b037f00000000000000000000000000000000000000000000000000000000000000001682600019611bb0565b60008080610efc33610c67565b610f185760405162461bcd60e51b81526004016104a89061337f565b610f20611cd4565b9250925092505b909192565b6060610f386003611d86565b905090565b610f4633610c67565b610f625760405162461bcd60e51b81526004016104a89061337f565b610f6c6000611d93565b610f77600019611d93565b565b60058054610f86906133af565b80601f0160208091040260200160405190810160405280929190818152602001828054610fb2906133af565b8015610fff5780601f10610fd457610100808354040283529160200191610fff565b820191906000526020600020905b815481529060010190602001808311610fe257829003601f168201915b505050505081565b337f00000000000000000000000000000000000000000000000000000000000000006001600160a01b03161461104f5760405162461bcd60e51b81526004016104a890613306565b6001600160a01b0381166110a55760405162461bcd60e51b815260206004820152601c60248201527f6e65772d73747261746567792d616464726573732d69732d7a65726f0000000060448201526064016104a8565b7f00000000000000000000000000000000000000000000000000000000000000006001600160a01b0316816001600160a01b03166316f0115b6040518163ffffffff1660e01b815260040160206040518083038186803b15801561110857600080fd5b505afa15801561111c573d6000803e3d6000fd5b505050506040513d601f19601f8201168201806040525081019061114091906132b2565b6001600160a01b03161461118f5760405162461bcd60e51b81526020600482015260166024820152756e6f742d76616c69642d6e65772d737472617465677960501b60448201526064016104a8565b6000546040516370a0823160e01b81526112289183916001600160a01b03909116906370a08231906111c59030906004016131d5565b60206040518083038186803b1580156111dd57600080fd5b505afa1580156111f1573d6000803e3d6000fd5b505050506040513d601f19601f820116820180604052508101906112159190613339565b6000546001600160a01b031691906119e6565b6104ff817f00000000000000000000000000000000000000000000000000000000000000006001600160a01b03166370a08231306040518263ffffffff1660e01b815260040161127891906131d5565b60206040518083038186803b15801561129057600080fd5b505afa1580156112a4573d6000803e3d6000fd5b505050506040513d601f19601f820116820180604052508101906108b29190613339565b7f00000000000000000000000000000000000000000000000000000000000000006001600160a01b0316630c340a246040518163ffffffff1660e01b815260040160206040518083038186803b15801561132157600080fd5b505afa158015611335573d6000803e3d6000fd5b505050506040513d601f19601f8201168201806040525081019061135991906132b2565b6001600160a01b0316336001600160a01b0316146113895760405162461bcd60e51b81526004016104a8906132cf565b6001600160a01b0381166113df5760405162461bcd60e51b815260206004820152601d60248201527f6665652d636f6c6c6563746f722d616464726573732d69732d7a65726f00000060448201526064016104a8565b6001546001600160a01b03828116911614156114355760405162461bcd60e51b81526020600482015260156024820152746665652d636f6c6c6563746f722d69732d73616d6560581b60448201526064016104a8565b6001546040516001600160a01b038084169216907f0f06062680f9bd68e786e9980d9bb03d73d5620fc3b345e417b6eacb310b970690600090a3600180546001600160a01b0319166001600160a01b0392909216919091179055565b7f00000000000000000000000000000000000000000000000000000000000000006001600160a01b0316630c340a246040518163ffffffff1660e01b815260040160206040518083038186803b1580156114ea57600080fd5b505afa1580156114fe573d6000803e3d6000fd5b505050506040513d601f19601f8201168201806040525081019061152291906132b2565b6001600160a01b0316336001600160a01b0316146115525760405162461bcd60e51b81526004016104a8906132cf565b6001600160a01b0381166115a25760405162461bcd60e51b8152602060048201526017602482015276737761707065722d616464726573732d69732d7a65726f60481b60448201526064016104a8565b6002546001600160a01b03828116911614156115f25760405162461bcd60e51b815260206004820152600f60248201526e737761707065722d69732d73616d6560881b60448201526064016104a8565b6002546040516001600160a01b038084169216907f6c953b7ec311055c20b96a42cea31e89528e375b1bf953a503db40854b3188fe90600090a3600280546001600160a01b0319166001600160a01b0392909216919091179055565b61165733610c67565b6116735760405162461bcd60e51b81526004016104a89061337f565b6001546001600160a01b03166116c35760405162461bcd60e51b81526020600482015260156024820152741999594b58dbdb1b1958dd1bdc8b5b9bdd0b5cd95d605a1b60448201526064016104a8565b7f00000000000000000000000000000000000000000000000000000000000000006001600160a01b0316816001600160a01b031614156117455760405162461bcd60e51b815260206004820152601f60248201527f6e6f742d616c6c6f7765642d746f2d73776565702d636f6c6c61746572616c0060448201526064016104a8565b61174e816109ef565b156117925760405162461bcd60e51b815260206004820152601460248201527306e6f742d616c6c6f7765642d746f2d73776565760641b60448201526064016104a8565b6001600160a01b03811673eeeeeeeeeeeeeeeeeeeeeeeeeeeeeeeeeeeeeeee14156117cd576001546104ff906001600160a01b031647611d9c565b6040516370a0823160e01b81526000906001600160a01b038316906370a08231906117fc9030906004016131d5565b60206040518083038186803b15801561181457600080fd5b505afa158015611828573d6000803e3d6000fd5b505050506040513d601f19601f8201168201806040525081019061184c9190613339565b6001549091506107d0906001600160a01b038481169116836119e6565b600061190f7f00000000000000000000000000000000000000000000000000000000000000006001600160a01b03166370a08231306040518263ffffffff1660e01b81526004016118ba91906131d5565b60206040518083038186803b1580156118d257600080fd5b505afa1580156118e6573d6000803e3d6000fd5b505050506040513d601f19601f8201168201806040525081019061190a9190613339565b611eb5565b6040516370a0823160e01b81526001600160a01b037f000000000000000000000000000000000000000000000000000000000000000016906370a082319061195b9030906004016131d5565b60206040518083038186803b15801561197357600080fd5b505afa158015611987573d6000803e3d6000fd5b505050506040513d601f19601f820116820180604052508101906119ab9190613339565b610f3891906133ea565b60006119ca836001600160a01b038416612011565b9392505050565b60006119ca836001600160a01b038416612060565b6040516001600160a01b038316602482015260448101829052610c5d90849063a9059cbb60e01b906064015b60408051601f198184030181529190526020810180516001600160e01b03166001600160e01b031990931692909217909152612153565b7f00000000000000000000000000000000000000000000000000000000000000006001600160a01b0316632e1a7d4d611a8183612225565b6040518263ffffffff1660e01b8152600401611a9f91815260200190565b600060405180830381600087803b158015611ab957600080fd5b505af1158015611acd573d6000803e3d6000fd5b5050505050565b6000818310611ae357816119ca565b5090919050565b600254604051636ccb2b0160e01b81526001600160a01b038581166004830152848116602483015260448201849052600160648301523060848301526000921690636ccb2b019060a401602060405180830381600087803b158015611b4e57600080fd5b505af1158015611b62573d6000803e3d6000fd5b505050506040513d601f19601f82011682018060405250810190611b869190613339565b949350505050565b6001600160a01b038116600090815260018301602052604081205415156119ca565b801580611c395750604051636eb1769f60e11b81523060048201526001600160a01b03838116602483015284169063dd62ed3e9060440160206040518083038186803b158015611bff57600080fd5b505afa158015611c13573d6000803e3d6000fd5b505050506040513d601f19601f82011682018060405250810190611c379190613339565b155b611ca45760405162461bcd60e51b815260206004820152603660248201527f5361666545524332303a20617070726f76652066726f6d206e6f6e2d7a65726f60448201527520746f206e6f6e2d7a65726f20616c6c6f77616e636560501b60648201526084016104a8565b6040516001600160a01b038316602482015260448101829052610c5d90849063095ea7b360e01b90606401611a12565b6000806000611ce161236d565b919450909150611cf29050836127e4565b6040516302df682360e11b8152600060048201819052602482018490526044820183905293507f00000000000000000000000000000000000000000000000000000000000000006001600160a01b0316906305bed04690606401600060405180830381600087803b158015611d6657600080fd5b505af1158015611d7a573d6000803e3d6000fd5b50505050610f276128e5565b606060006119ca836129d9565b6104ff81612a35565b80471015611dec5760405162461bcd60e51b815260206004820152601d60248201527f416464726573733a20696e73756666696369656e742062616c616e636500000060448201526064016104a8565b6000826001600160a01b03168260405160006040518083038185875af1925050503d8060008114611e39576040519150601f19603f3d011682016040523d82523d6000602084013e611e3e565b606091505b5050905080610c5d5760405162461bcd60e51b815260206004820152603a60248201527f416464726573733a20756e61626c6520746f2073656e642076616c75652c207260448201527f6563697069656e74206d6179206861766520726576657274656400000000000060648201526084016104a8565b6000811561200c5760007f00000000000000000000000000000000000000000000000000000000000000006001600160a01b03166318160ddd6040518163ffffffff1660e01b815260040160206040518083038186803b158015611f1857600080fd5b505afa158015611f2c573d6000803e3d6000fd5b505050506040513d601f19601f82011682018060405250810190611f509190613339565b905060008111611f61576000612008565b80837f00000000000000000000000000000000000000000000000000000000000000006001600160a01b031663d4c3eea06040518163ffffffff1660e01b815260040160206040518083038186803b158015611fbc57600080fd5b505afa158015611fd0573d6000803e3d6000fd5b505050506040513d601f19601f82011682018060405250810190611ff49190613339565b611ffe9190613402565b6120089190613421565b9150505b919050565b600081815260018301602052604081205461205857508154600181810184556000848152602080822090930184905584548482528286019093526040902091909155610a62565b506000610a62565b60008181526001830160205260408120548015612149576000612084600183613368565b855490915060009061209890600190613368565b90508181146120fd5760008660000182815481106120b8576120b8613443565b90600052602060002001549050808760000184815481106120db576120db613443565b6000918252602080832090910192909255918252600188019052604090208390555b855486908061210e5761210e613459565b600190038181906000526020600020016000905590558560010160008681526020019081526020016000206000905560019350505050610a62565b6000915050610a62565b60006121a8826040518060400160405280602081526020017f5361666545524332303a206c6f772d6c6576656c2063616c6c206661696c6564815250856001600160a01b0316612b029092919063ffffffff16565b805190915015610c5d57808060200190518101906121c6919061346f565b610c5d5760405162461bcd60e51b815260206004820152602a60248201527f5361666545524332303a204552433230206f7065726174696f6e20646964206e6044820152691bdd081cdd58d8d9595960b21b60648201526084016104a8565b6000811561200c5760007f00000000000000000000000000000000000000000000000000000000000000006001600160a01b031663d4c3eea06040518163ffffffff1660e01b815260040160206040518083038186803b15801561228857600080fd5b505afa15801561229c573d6000803e3d6000fd5b505050506040513d601f19601f820116820180604052508101906122c09190613339565b9050600081116122d1576000612008565b807f00000000000000000000000000000000000000000000000000000000000000006001600160a01b03166318160ddd6040518163ffffffff1660e01b815260040160206040518083038186803b15801561232b57600080fd5b505afa15801561233f573d6000803e3d6000fd5b505050506040513d601f19601f820116820180604052508101906123639190613339565b611ffe9085613402565b6000806000807f00000000000000000000000000000000000000000000000000000000000000006001600160a01b031663d53ddc26306040518263ffffffff1660e01b81526004016123bf91906131d5565b60206040518083038186803b1580156123d757600080fd5b505afa1580156123eb573d6000803e3d6000fd5b505050506040513d601f19601f8201168201806040525081019061240f9190613339565b905060007f00000000000000000000000000000000000000000000000000000000000000006001600160a01b0316639f2b2833306040518263ffffffff1660e01b815260040161245f91906131d5565b60206040518083038186803b15801561247757600080fd5b505afa15801561248b573d6000803e3d6000fd5b505050506040513d601f19601f820116820180604052508101906124af9190613339565b905060007f00000000000000000000000000000000000000000000000000000000000000006001600160a01b03166370a08231306040518263ffffffff1660e01b81526004016124ff91906131d5565b60206040518083038186803b15801561251757600080fd5b505afa15801561252b573d6000803e3d6000fd5b505050506040513d601f19601f8201168201806040525081019061254f9190613339565b9050600061255c82611eb5565b905060007f00000000000000000000000000000000000000000000000000000000000000006001600160a01b03166370a08231306040518263ffffffff1660e01b81526004016125ac91906131d5565b60206040518083038186803b1580156125c457600080fd5b505afa1580156125d8573d6000803e3d6000fd5b505050506040513d601f19601f820116820180604052508101906125fc9190613339565b9050600061260a83836133ea565b9050848111156126255761261e8582613368565b9850612632565b61262f8186613368565b97505b600061263e878b6133ea565b9050828111156127a957600061265d6126578584613368565b86611ad4565b905080156127a757600061267961267383612225565b88611ad4565b9050600061268682611eb5565b11156127a557604051632e1a7d4d60e01b8152600481018290527f00000000000000000000000000000000000000000000000000000000000000006001600160a01b031690632e1a7d4d90602401600060405180830381600087803b1580156126ee57600080fd5b505af1158015612702573d6000803e3d6000fd5b50506040516370a0823160e01b81526001600160a01b037f00000000000000000000000000000000000000000000000000000000000000001692506370a0823191506127529030906004016131d5565b60206040518083038186803b15801561276a57600080fd5b505afa15801561277e573d6000803e3d6000fd5b505050506040513d601f19601f820116820180604052508101906127a29190613339565b94505b505b505b6127b38388611ad4565b97508783116127c35760006127d6565b6127d66127d08985613368565b8b611ad4565b995050505050505050909192565b80156104ff576040516332dd0f4960e01b8152600481018290526000907f00000000000000000000000000000000000000000000000000000000000000006001600160a01b0316906332dd0f499060240160206040518083038186803b15801561284d57600080fd5b505afa158015612861573d6000803e3d6000fd5b505050506040513d601f19601f820116820180604052508101906128859190613339565b905080156128d4576001546128c7906001600160a01b037f000000000000000000000000000000000000000000000000000000000000000081169116836119e6565b6128d18183613368565b91505b6107d06128e083612b11565b612b64565b6040516370a0823160e01b81526000906001600160a01b037f000000000000000000000000000000000000000000000000000000000000000016906370a08231906129349030906004016131d5565b60206040518083038186803b15801561294c57600080fd5b505afa158015612960573d6000803e3d6000fd5b505050506040513d601f19601f820116820180604052508101906129849190613339565b905080156104ff5760405163b6b55f2560e01b8152600481018290527f00000000000000000000000000000000000000000000000000000000000000006001600160a01b03169063b6b55f2590602401611a9f565b606081600001805480602002602001604051908101604052809291908181526020018280548015612a2957602002820191906000526020600020905b815481526020019060010190808311612a15575b50505050509050919050565b612a3e81612fee565b6002546001600160a01b0390811690612a9a907f0000000000000000000000000000000000000000000000000000000000000000167f000000000000000000000000000000000000000000000000000000000000000084611bb0565b612ace6001600160a01b037f0000000000000000000000000000000000000000000000000000000000000000168284611bb0565b6107d06001600160a01b037f0000000000000000000000000000000000000000000000000000000000000000168284611bb0565b6060611b868484600085613042565b6000811561200c57610a627f00000000000000000000000000000000000000000000000000000000000000007f000000000000000000000000000000000000000000000000000000000000000084611aea565b80156104ff578060076000828254612b7c91906133ea565b9250508190555060007f00000000000000000000000000000000000000000000000000000000000000006001600160a01b0316638bc6beb26040518163ffffffff1660e01b815260040160206040518083038186803b158015612bde57600080fd5b505afa158015612bf2573d6000803e3d6000fd5b505050506040513d601f19601f82011682018060405250810190612c1691906132b2565b90506000816001600160a01b031663e49e463b6040518163ffffffff1660e01b815260040160206040518083038186803b158015612c5357600080fd5b505afa158015612c67573d6000803e3d6000fd5b505050506040513d601f19601f82011682018060405250810190612c8b91906132b2565b90506001600160a01b03811615801590612d4657507f00000000000000000000000000000000000000000000000000000000000000006001600160a01b0316816001600160a01b031663fc0c546a6040518163ffffffff1660e01b815260040160206040518083038186803b158015612d0357600080fd5b505afa158015612d17573d6000803e3d6000fd5b505050506040513d601f19601f82011682018060405250810190612d3b91906132b2565b6001600160a01b0316145b15612f31576040516370a0823160e01b81526000906001600160a01b038316906370a0823190612d7a9030906004016131d5565b60206040518083038186803b158015612d9257600080fd5b505afa158015612da6573d6000803e3d6000fd5b505050506040513d601f19601f82011682018060405250810190612dca9190613339565b60405163b6b55f2560e01b8152600481018690529091506001600160a01b0383169063b6b55f2590602401600060405180830381600087803b158015612e0f57600080fd5b505af1158015612e23573d6000803e3d6000fd5b50505050600081836001600160a01b03166370a08231306040518263ffffffff1660e01b8152600401612e5691906131d5565b60206040518083038186803b158015612e6e57600080fd5b505afa158015612e82573d6000803e3d6000fd5b505050506040513d601f19601f82011682018060405250810190612ea69190613339565b612eb09190613368565b9050612ec66001600160a01b03841685836119e6565b6006546040516328f362b160e21b81526001600160a01b0386169163a3cd8ac491612ef8918791869190600401613491565b600060405180830381600087803b158015612f1257600080fd5b505af1158015612f26573d6000803e3d6000fd5b505050505050505050565b612f656001600160a01b037f00000000000000000000000000000000000000000000000000000000000000001683856119e6565b6006546040516328f362b160e21b81526001600160a01b0384169163a3cd8ac491612fb7917f000000000000000000000000000000000000000000000000000000000000000091889190600401613491565b600060405180830381600087803b158015612fd157600080fd5b505af1158015612fe5573d6000803e3d6000fd5b50505050505050565b6104ff6001600160a01b037f0000000000000000000000000000000000000000000000000000000000000000167f000000000000000000000000000000000000000000000000000000000000000083611bb0565b6060824710156130a35760405162461bcd60e51b815260206004820152602660248201527f416464726573733a20696e73756666696369656e742062616c616e636520666f6044820152651c8818d85b1b60d21b60648201526084016104a8565b843b6130f15760405162461bcd60e51b815260206004820152601d60248201527f416464726573733a2063616c6c20746f206e6f6e2d636f6e747261637400000060448201526064016104a8565b600080866001600160a01b0316858760405161310d91906134b2565b60006040518083038185875af1925050503d806000811461314a576040519150601f19603f3d011682016040523d82523d6000602084013e61314f565b606091505b509150915061315f82828661316a565b979650505050505050565b606083156131795750816119ca565b8251156131895782518084602001fd5b8160405162461bcd60e51b81526004016104a8919061327f565b6001600160a01b03811681146104ff57600080fd5b6000602082840312156131ca57600080fd5b81356119ca816131a3565b6001600160a01b0391909116815260200190565b6000602082840312156131fb57600080fd5b5035919050565b6020808252825182820181905260009190848201906040850190845b818110156132435783516001600160a01b03168352928401929184019160010161321e565b50909695505050505050565b60005b8381101561326a578181015183820152602001613252565b83811115613279576000848401525b50505050565b602081526000825180602084015261329e81604085016020870161324f565b601f01601f19169190910160400192915050565b6000602082840312156132c457600080fd5b81516119ca816131a3565b6020808252601a908201527f63616c6c65722d69732d6e6f742d7468652d676f7665726e6f72000000000000604082015260600190565b60208082526019908201527818d85b1b195c8b5a5ccb5b9bdd0b5d995cdc195c8b5c1bdbdb603a1b604082015260600190565b60006020828403121561334b57600080fd5b5051919050565b634e487b7160e01b600052601160045260246000fd5b60008282101561337a5761337a613352565b500390565b60208082526016908201527531b0b63632b916b4b996b737ba16b096b5b2b2b832b960511b604082015260600190565b600181811c908216806133c357607f821691505b602082108114156133e457634e487b7160e01b600052602260045260246000fd5b50919050565b600082198211156133fd576133fd613352565b500190565b600081600019048311821515161561341c5761341c613352565b500290565b60008261343e57634e487b7160e01b600052601260045260246000fd5b500490565b634e487b7160e01b600052603260045260246000fd5b634e487b7160e01b600052603160045260246000fd5b60006020828403121561348157600080fd5b815180151581146119ca57600080fd5b6001600160a01b039390931683526020830191909152604082015260600190565b600082516134c481846020870161324f565b919091019291505056fea26469706673582212201b6fccfffbaf2d63e7ca6d9d3a9fb8decd1f5dca87db5d59968000c9dd7d294464736f6c63430008090033",
  "devdoc": {
    "kind": "dev",
    "methods": {
      "addKeeper(address)": {
        "params": {
          "_keeperAddress": "keeper address to add."
        }
      },
      "approveGrowToken()": {
        "details": "Approves EarnDrip' Grow token to spend dripToken"
      },
      "approveToken()": {
        "details": "Approve all required tokens"
      },
      "isReservedToken(address)": {
        "details": "Check whether given token is reserved or not. Reserved tokens are not allowed to sweep."
      },
      "migrate(address)": {
        "details": "_beforeMigration hook can be implemented in child strategy to do extra steps.",
        "params": {
          "_newStrategy": "Address of new strategy"
        }
      },
      "rebalance()": {
        "returns": {
          "_loss": "Realized loss, if any, in collateral.",
          "_payback": "If strategy has any excess debt, we have to liquidate asset to payback excess debt.",
          "_profit": "Realized profit in collateral."
        }
      },
      "removeKeeper(address)": {
        "params": {
          "_keeperAddress": "keeper address to remove."
        }
      },
      "sweepERC20(address)": {
        "params": {
          "_fromToken": "token address to sweep"
        }
      },
      "updateDripPeriod(uint256)": {
        "details": "_dripPeriod in seconds"
      },
      "updateFeeCollector(address)": {
        "params": {
          "_feeCollector": "fee collector address"
        }
      },
      "updateSwapper(address)": {
        "params": {
          "_swapper": "swapper address"
        }
      },
      "withdraw(uint256)": {
        "params": {
          "_amount": "Amount of collateral token"
        }
      }
    },
    "version": 1
  },
  "userdoc": {
    "kind": "user",
    "methods": {
      "addKeeper(address)": {
        "notice": "Add given address in keepers list."
      },
      "collateral()": {
        "notice": "Returns address of token correspond to collateral token"
      },
      "harvestVSP()": {
        "notice": "Claim VSP and convert to collateral token"
      },
      "keepers()": {
        "notice": "Return list of keepers"
      },
      "migrate(address)": {
        "notice": "Migrate all asset and vault ownership,if any, to new strategy"
      },
      "rebalance()": {
        "notice": "OnlyKeeper: Rebalance profit, loss and investment of this strategy.  Calculate profit, loss and payback of this strategy and realize profit/loss and  withdraw fund for payback, if any, and submit this report to pool."
      },
      "removeKeeper(address)": {
        "notice": "Remove given address from keepers list."
      },
      "sweepERC20(address)": {
        "notice": "sweep given token to feeCollector of strategy"
      },
      "token()": {
        "notice": "Returns address of token correspond to receipt token"
      },
      "tvl()": {
        "notice": "Returns collateral balance + collateral deposited to Vesper"
      },
      "updateDripPeriod(uint256)": {
        "notice": "Update update period of distribution of earning done in one rebalance"
      },
      "updateFeeCollector(address)": {
        "notice": "Update fee collector"
      },
      "updateSwapper(address)": {
        "notice": "Update swapper"
      },
      "withdraw(uint256)": {
        "notice": "Withdraw collateral token from end protocol."
      }
    },
    "notice": "This strategy will deposit collateral in a Vesper Grow Pool and converts the yield to another Drip Token",
    "version": 1
  },
  "storageLayout": {
    "storage": [
      {
        "astId": 14313,
        "contract": "vesper-strategies/contracts/strategies/vesper/earn/VesperEarn.sol:VesperEarn",
        "label": "receiptToken",
        "offset": 0,
        "slot": "0",
        "type": "t_address"
      },
      {
        "astId": 14319,
        "contract": "vesper-strategies/contracts/strategies/vesper/earn/VesperEarn.sol:VesperEarn",
        "label": "feeCollector",
        "offset": 0,
        "slot": "1",
        "type": "t_address"
      },
      {
        "astId": 14322,
        "contract": "vesper-strategies/contracts/strategies/vesper/earn/VesperEarn.sol:VesperEarn",
        "label": "swapper",
        "offset": 0,
        "slot": "2",
        "type": "t_contract(IRoutedSwapper)13174"
      },
      {
        "astId": 14335,
        "contract": "vesper-strategies/contracts/strategies/vesper/earn/VesperEarn.sol:VesperEarn",
        "label": "_keepers",
        "offset": 0,
        "slot": "3",
        "type": "t_struct(AddressSet)3020_storage"
      },
      {
        "astId": 28783,
        "contract": "vesper-strategies/contracts/strategies/vesper/earn/VesperEarn.sol:VesperEarn",
        "label": "NAME",
        "offset": 0,
        "slot": "5",
        "type": "t_string_storage"
      },
      {
        "astId": 13302,
        "contract": "vesper-strategies/contracts/strategies/vesper/earn/VesperEarn.sol:VesperEarn",
        "label": "dripPeriod",
        "offset": 0,
        "slot": "6",
        "type": "t_uint256"
      },
      {
        "astId": 13304,
        "contract": "vesper-strategies/contracts/strategies/vesper/earn/VesperEarn.sol:VesperEarn",
        "label": "totalEarned",
        "offset": 0,
        "slot": "7",
        "type": "t_uint256"
      }
    ],
    "types": {
      "t_address": {
        "encoding": "inplace",
        "label": "address",
        "numberOfBytes": "20"
      },
      "t_array(t_bytes32)dyn_storage": {
        "base": "t_bytes32",
        "encoding": "dynamic_array",
        "label": "bytes32[]",
        "numberOfBytes": "32"
      },
      "t_bytes32": {
        "encoding": "inplace",
        "label": "bytes32",
        "numberOfBytes": "32"
      },
      "t_contract(IRoutedSwapper)13174": {
        "encoding": "inplace",
        "label": "contract IRoutedSwapper",
        "numberOfBytes": "20"
      },
      "t_mapping(t_bytes32,t_uint256)": {
        "encoding": "mapping",
        "key": "t_bytes32",
        "label": "mapping(bytes32 => uint256)",
        "numberOfBytes": "32",
        "value": "t_uint256"
      },
      "t_string_storage": {
        "encoding": "bytes",
        "label": "string",
        "numberOfBytes": "32"
      },
      "t_struct(AddressSet)3020_storage": {
        "encoding": "inplace",
        "label": "struct EnumerableSet.AddressSet",
        "members": [
          {
            "astId": 3019,
            "contract": "vesper-strategies/contracts/strategies/vesper/earn/VesperEarn.sol:VesperEarn",
            "label": "_inner",
            "offset": 0,
            "slot": "0",
            "type": "t_struct(Set)2719_storage"
          }
        ],
        "numberOfBytes": "64"
      },
      "t_struct(Set)2719_storage": {
        "encoding": "inplace",
        "label": "struct EnumerableSet.Set",
        "members": [
          {
            "astId": 2714,
            "contract": "vesper-strategies/contracts/strategies/vesper/earn/VesperEarn.sol:VesperEarn",
            "label": "_values",
            "offset": 0,
            "slot": "0",
            "type": "t_array(t_bytes32)dyn_storage"
          },
          {
            "astId": 2718,
            "contract": "vesper-strategies/contracts/strategies/vesper/earn/VesperEarn.sol:VesperEarn",
            "label": "_indexes",
            "offset": 0,
            "slot": "1",
            "type": "t_mapping(t_bytes32,t_uint256)"
          }
        ],
        "numberOfBytes": "64"
      },
      "t_uint256": {
        "encoding": "inplace",
        "label": "uint256",
        "numberOfBytes": "32"
      }
    }
  }
}