{
  "address": "0x591bB5262e266c008381e59456bD01A26CBaA83F",
  "abi": [
    {
      "inputs": [
        {
          "internalType": "address",
          "name": "_pool",
          "type": "address"
        },
        {
          "internalType": "address",
          "name": "_swapper",
          "type": "address"
        },
        {
          "internalType": "address",
          "name": "_comptroller",
          "type": "address"
        },
        {
          "internalType": "address",
          "name": "_rewardToken",
          "type": "address"
        },
        {
          "internalType": "address",
          "name": "_receiptToken",
          "type": "address"
        },
        {
          "internalType": "address",
          "name": "_borrowCToken",
          "type": "address"
        },
        {
          "internalType": "address",
          "name": "_vPool",
          "type": "address"
        },
        {
          "internalType": "address",
          "name": "_vsp",
          "type": "address"
        },
        {
          "internalType": "string",
          "name": "_name",
          "type": "string"
        }
      ],
      "stateMutability": "nonpayable",
      "type": "constructor"
    },
    {
      "anonymous": false,
      "inputs": [
        {
          "indexed": false,
          "internalType": "uint256",
          "name": "previousMinBorrowLimit",
          "type": "uint256"
        },
        {
          "indexed": false,
          "internalType": "uint256",
          "name": "newMinBorrowLimit",
          "type": "uint256"
        },
        {
          "indexed": false,
          "internalType": "uint256",
          "name": "previousMaxBorrowLimit",
          "type": "uint256"
        },
        {
          "indexed": false,
          "internalType": "uint256",
          "name": "newMaxBorrowLimit",
          "type": "uint256"
        }
      ],
      "name": "UpdatedBorrowLimit",
      "type": "event"
    },
    {
      "anonymous": false,
      "inputs": [
        {
          "indexed": true,
          "internalType": "address",
          "name": "previousFeeCollector",
          "type": "address"
        },
        {
          "indexed": true,
          "internalType": "address",
          "name": "newFeeCollector",
          "type": "address"
        }
      ],
      "name": "UpdatedFeeCollector",
      "type": "event"
    },
    {
      "anonymous": false,
      "inputs": [
        {
          "indexed": true,
          "internalType": "contract IRoutedSwapper",
          "name": "oldSwapper",
          "type": "address"
        },
        {
          "indexed": true,
          "internalType": "contract IRoutedSwapper",
          "name": "newSwapper",
          "type": "address"
        }
      ],
      "name": "UpdatedSwapper",
      "type": "event"
    },
    {
      "inputs": [],
      "name": "NAME",
      "outputs": [
        {
          "internalType": "string",
          "name": "",
          "type": "string"
        }
      ],
      "stateMutability": "view",
      "type": "function"
    },
    {
      "inputs": [],
      "name": "VERSION",
      "outputs": [
        {
          "internalType": "string",
          "name": "",
          "type": "string"
        }
      ],
      "stateMutability": "view",
      "type": "function"
    },
    {
      "inputs": [
        {
          "internalType": "address",
          "name": "_keeperAddress",
          "type": "address"
        }
      ],
      "name": "addKeeper",
      "outputs": [],
      "stateMutability": "nonpayable",
      "type": "function"
    },
    {
      "inputs": [],
      "name": "approveToken",
      "outputs": [],
      "stateMutability": "nonpayable",
      "type": "function"
    },
    {
      "inputs": [],
      "name": "borrowBalance",
      "outputs": [
        {
          "internalType": "uint256",
          "name": "",
          "type": "uint256"
        }
      ],
      "stateMutability": "view",
      "type": "function"
    },
    {
      "inputs": [],
      "name": "borrowCToken",
      "outputs": [
        {
          "internalType": "contract CToken",
          "name": "",
          "type": "address"
        }
      ],
      "stateMutability": "view",
      "type": "function"
    },
    {
      "inputs": [],
      "name": "borrowToken",
      "outputs": [
        {
          "internalType": "address",
          "name": "",
          "type": "address"
        }
      ],
      "stateMutability": "view",
      "type": "function"
    },
    {
      "inputs": [],
      "name": "collateral",
      "outputs": [
        {
          "internalType": "address",
          "name": "",
          "type": "address"
        }
      ],
      "stateMutability": "view",
      "type": "function"
    },
    {
      "inputs": [],
      "name": "collateralToken",
      "outputs": [
        {
          "internalType": "contract IERC20",
          "name": "",
          "type": "address"
        }
      ],
      "stateMutability": "view",
      "type": "function"
    },
    {
      "inputs": [],
      "name": "comptroller",
      "outputs": [
        {
          "internalType": "contract Comptroller",
          "name": "",
          "type": "address"
        }
      ],
      "stateMutability": "view",
      "type": "function"
    },
    {
      "inputs": [],
      "name": "feeCollector",
      "outputs": [
        {
          "internalType": "address",
          "name": "",
          "type": "address"
        }
      ],
      "stateMutability": "view",
      "type": "function"
    },
    {
      "inputs": [],
      "name": "harvestVSP",
      "outputs": [],
      "stateMutability": "nonpayable",
      "type": "function"
    },
    {
      "inputs": [
        {
          "internalType": "address",
          "name": "_token",
          "type": "address"
        }
      ],
      "name": "isReservedToken",
      "outputs": [
        {
          "internalType": "bool",
          "name": "",
          "type": "bool"
        }
      ],
      "stateMutability": "view",
      "type": "function"
    },
    {
      "inputs": [],
      "name": "keepers",
      "outputs": [
        {
          "internalType": "address[]",
          "name": "",
          "type": "address[]"
        }
      ],
      "stateMutability": "view",
      "type": "function"
    },
    {
      "inputs": [],
      "name": "maxBorrowLimit",
      "outputs": [
        {
          "internalType": "uint256",
          "name": "",
          "type": "uint256"
        }
      ],
      "stateMutability": "view",
      "type": "function"
    },
    {
      "inputs": [
        {
          "internalType": "address",
          "name": "_newStrategy",
          "type": "address"
        }
      ],
      "name": "migrate",
      "outputs": [],
      "stateMutability": "nonpayable",
      "type": "function"
    },
    {
      "inputs": [],
      "name": "minBorrowLimit",
      "outputs": [
        {
          "internalType": "uint256",
          "name": "",
          "type": "uint256"
        }
      ],
      "stateMutability": "view",
      "type": "function"
    },
    {
      "inputs": [],
      "name": "pool",
      "outputs": [
        {
          "internalType": "address",
          "name": "",
          "type": "address"
        }
      ],
      "stateMutability": "view",
      "type": "function"
    },
    {
      "inputs": [],
      "name": "rebalance",
      "outputs": [
        {
          "internalType": "uint256",
          "name": "_profit",
          "type": "uint256"
        },
        {
          "internalType": "uint256",
          "name": "_loss",
          "type": "uint256"
        },
        {
          "internalType": "uint256",
          "name": "_payback",
          "type": "uint256"
        }
      ],
      "stateMutability": "nonpayable",
      "type": "function"
    },
    {
      "inputs": [],
      "name": "receiptToken",
      "outputs": [
        {
          "internalType": "address",
          "name": "",
          "type": "address"
        }
      ],
      "stateMutability": "view",
      "type": "function"
    },
    {
      "inputs": [
        {
          "internalType": "uint256",
          "name": "_amountToRecover",
          "type": "uint256"
        }
      ],
      "name": "recoverBorrowToken",
      "outputs": [],
      "stateMutability": "nonpayable",
      "type": "function"
    },
    {
      "inputs": [
        {
          "internalType": "address",
          "name": "_keeperAddress",
          "type": "address"
        }
      ],
      "name": "removeKeeper",
      "outputs": [],
      "stateMutability": "nonpayable",
      "type": "function"
    },
    {
      "inputs": [],
      "name": "repayAll",
      "outputs": [],
      "stateMutability": "nonpayable",
      "type": "function"
    },
    {
      "inputs": [],
      "name": "rewardToken",
      "outputs": [
        {
          "internalType": "address",
          "name": "",
          "type": "address"
        }
      ],
      "stateMutability": "view",
      "type": "function"
    },
    {
      "inputs": [],
      "name": "supplyCToken",
      "outputs": [
        {
          "internalType": "contract CToken",
          "name": "",
          "type": "address"
        }
      ],
      "stateMutability": "view",
      "type": "function"
    },
    {
      "inputs": [],
      "name": "swapper",
      "outputs": [
        {
          "internalType": "contract IRoutedSwapper",
          "name": "",
          "type": "address"
        }
      ],
      "stateMutability": "view",
      "type": "function"
    },
    {
      "inputs": [
        {
          "internalType": "address",
          "name": "_fromToken",
          "type": "address"
        }
      ],
      "name": "sweepERC20",
      "outputs": [],
      "stateMutability": "nonpayable",
      "type": "function"
    },
    {
      "inputs": [],
      "name": "token",
      "outputs": [
        {
          "internalType": "address",
          "name": "",
          "type": "address"
        }
      ],
      "stateMutability": "view",
      "type": "function"
    },
    {
      "inputs": [],
      "name": "tvl",
      "outputs": [
        {
          "internalType": "uint256",
          "name": "",
          "type": "uint256"
        }
      ],
      "stateMutability": "view",
      "type": "function"
    },
    {
      "inputs": [
        {
          "internalType": "uint256",
          "name": "_minBorrowLimit",
          "type": "uint256"
        },
        {
          "internalType": "uint256",
          "name": "_maxBorrowLimit",
          "type": "uint256"
        }
      ],
      "name": "updateBorrowLimit",
      "outputs": [],
      "stateMutability": "nonpayable",
      "type": "function"
    },
    {
      "inputs": [
        {
          "internalType": "address",
          "name": "_feeCollector",
          "type": "address"
        }
      ],
      "name": "updateFeeCollector",
      "outputs": [],
      "stateMutability": "nonpayable",
      "type": "function"
    },
    {
      "inputs": [
        {
          "internalType": "contract IRoutedSwapper",
          "name": "_swapper",
          "type": "address"
        }
      ],
      "name": "updateSwapper",
      "outputs": [],
      "stateMutability": "nonpayable",
      "type": "function"
    },
    {
      "inputs": [],
      "name": "vPool",
      "outputs": [
        {
          "internalType": "contract IVesperPool",
          "name": "",
          "type": "address"
        }
      ],
      "stateMutability": "view",
      "type": "function"
    },
    {
      "inputs": [],
      "name": "vsp",
      "outputs": [
        {
          "internalType": "address",
          "name": "",
          "type": "address"
        }
      ],
      "stateMutability": "view",
      "type": "function"
    },
    {
      "inputs": [
        {
          "internalType": "uint256",
          "name": "_amount",
          "type": "uint256"
        }
      ],
      "name": "withdraw",
      "outputs": [],
      "stateMutability": "nonpayable",
      "type": "function"
    },
    {
      "stateMutability": "payable",
      "type": "receive"
    }
  ],
  "transactionHash": "0xf8cb860a13663b77fdb50fbfd550839547b2f213892e9a2ccdafe98e487fcaca",
  "args": [
    "0x01e1d41C1159b745298724c5Fd3eAfF3da1C6efD",
    "0x8f156189A3CD28dFc8FB7BbbAce58F98F09c0bB3",
    "0x3d9819210A31b4961b30EF54bE2aeD79B9c9Cd3B",
    "0xc00e94Cb662C3520282E6f5717214004A7f26888",
    "0xccF4429DB6322D5C611ee964527D42E5d685DD6a",
    "0x5d3a536E4D6DbD6114cc1Ead35777bAB948E3643",
    "0x0538C8bAc84E95A9dF8aC10Aad17DbE81b9E36ee",
    "0x1b40183EFB4Dd766f11bDa7A7c3AD8982e998421",
    "Compound_Vesper_Xy_WBTC_DAI"
  ],
  "numDeployments": 1,
  "solcInputHash": "9f0a59a19322e4b74f4bac7668d93b25",
  "bytecode": "0x610160604052611b586006556121346007553480156200001e57600080fd5b5060405162005a4638038062005a468339810160408190526200004191620008d3565b888888888888868686868585858585846001600160a01b038316620000ad5760405162461bcd60e51b815260206004820152601460248201527f706f6f6c2d616464726573732d69732d7a65726f00000000000000000000000060448201526064015b60405180910390fd5b6001600160a01b038216620001055760405162461bcd60e51b815260206004820152601760248201527f737761707065722d616464726573732d69732d7a65726f0000000000000000006044820152606401620000a4565b600280546001600160a01b0319166001600160a01b0384811691909117909155831660a081905260408051637e062a3560e11b8152905163fc0c546a91600480820192602092909190829003018186803b1580156200016357600080fd5b505afa15801562000178573d6000803e3d6000fd5b505050506040513d601f19601f820116820180604052508101906200019e9190620009c1565b6001600160a01b03908116608052600080546001600160a01b031916918316919091179055620001e5620001cf3390565b60036200060c60201b62001f8c1790919060201c565b620002275760405162461bcd60e51b81526020600482015260116024820152701859190b5ad9595c195c8b59985a5b1959607a1b6044820152606401620000a4565b5050506001600160a01b038316620002825760405162461bcd60e51b815260206004820152601660248201527f63546f6b656e2d616464726573732d69732d7a65726f000000000000000000006044820152606401620000a4565b6001600160a01b038416620002da5760405162461bcd60e51b815260206004820152601b60248201527f636f6d7074726f6c6c65722d616464726573732d69732d7a65726f00000000006044820152606401620000a4565b8051620002ef90600590602084019062000736565b50600980546001600160a01b0319166001600160a01b038681169190911790915583811660c052821660e05262000326826200062c565b600880546001600160a01b0319166001600160a01b039290921691909117905560408051600280825260608201835260009260208301908036833701905050905083816000815181106200037e576200037e620009e8565b60200260200101906001600160a01b031690816001600160a01b0316815250508281600181518110620003b557620003b5620009e8565b6001600160a01b039283166020918202929092010152600954604051631853304760e31b815291169063c299823890620003f4908490600401620009fe565b600060405180830381600087803b1580156200040f57600080fd5b505af115801562000424573d6000803e3d6000fd5b505050506040513d6000823e601f3d908101601f191682016040526200044e919081019062000a4d565b50505050506001600160a01b03871615159250620004b29150505760405162461bcd60e51b815260206004820152601b60248201527f726577617264546f6b656e2d616464726573732d69732d7a65726f00000000006044820152606401620000a4565b5050506001600160a01b03908116610100528516151592506200051b9150505760405162461bcd60e51b815260206004820152601360248201527f7673702d616464726573732d69732d7a65726f000000000000000000000000006044820152606401620000a4565b60085460408051637e062a3560e11b815290516001600160a01b039283169286169163fc0c546a916004808301926020929190829003018186803b1580156200056357600080fd5b505afa15801562000578573d6000803e3d6000fd5b505050506040513d601f19601f820116820180604052508101906200059e9190620009c1565b6001600160a01b031614620005ea5760405162461bcd60e51b81526020600482015260116024820152701a5b9d985b1a590b59dc9bddcb5c1bdbdb607a1b6044820152606401620000a4565b506001600160a01b039182166101205216610140525062000b3a945050505050565b600062000623836001600160a01b038416620006e4565b90505b92915050565b60006001600160a01b038216734ddc2d193948926d02f9b1fe9e1daa0718270ed514156200066f575073c02aaa39b223fe8d0a0e5c4f27ead9083c756cc2919050565b816001600160a01b0316636f307dc36040518163ffffffff1660e01b815260040160206040518083038186803b158015620006a957600080fd5b505afa158015620006be573d6000803e3d6000fd5b505050506040513d601f19601f82011682018060405250810190620006269190620009c1565b60008181526001830160205260408120546200072d5750815460018181018455600084815260208082209093018490558454848252828601909352604090209190915562000626565b50600062000626565b828054620007449062000afd565b90600052602060002090601f016020900481019282620007685760008555620007b3565b82601f106200078357805160ff1916838001178555620007b3565b82800160010185558215620007b3579182015b82811115620007b357825182559160200191906001019062000796565b50620007c1929150620007c5565b5090565b5b80821115620007c15760008155600101620007c6565b6001600160a01b0381168114620007f257600080fd5b50565b634e487b7160e01b600052604160045260246000fd5b604051601f8201601f191681016001600160401b0381118282101715620008365762000836620007f5565b604052919050565b600082601f8301126200085057600080fd5b81516001600160401b038111156200086c576200086c620007f5565b602062000882601f8301601f191682016200080b565b82815285828487010111156200089757600080fd5b60005b83811015620008b75785810183015182820184015282016200089a565b83811115620008c95760008385840101525b5095945050505050565b60008060008060008060008060006101208a8c031215620008f357600080fd5b89516200090081620007dc565b60208b01519099506200091381620007dc565b60408b01519098506200092681620007dc565b60608b01519097506200093981620007dc565b60808b01519096506200094c81620007dc565b60a08b01519095506200095f81620007dc565b60c08b01519094506200097281620007dc565b60e08b01519093506200098581620007dc565b6101008b01519092506001600160401b03811115620009a357600080fd5b620009b18c828d016200083e565b9150509295985092959850929598565b600060208284031215620009d457600080fd5b8151620009e181620007dc565b9392505050565b634e487b7160e01b600052603260045260246000fd5b6020808252825182820181905260009190848201906040850190845b8181101562000a415783516001600160a01b03168352928401929184019160010162000a1a565b50909695505050505050565b6000602080838503121562000a6157600080fd5b82516001600160401b038082111562000a7957600080fd5b818501915085601f83011262000a8e57600080fd5b81518181111562000aa35762000aa3620007f5565b8060051b915062000ab68483016200080b565b818152918301840191848101908884111562000ad157600080fd5b938501935b8385101562000af15784518252938501939085019062000ad6565b98975050505050505050565b600181811c9082168062000b1257607f821691505b6020821081141562000b3457634e487b7160e01b600052602260045260246000fd5b50919050565b60805160a05160c05160e051610100516101205161014051614c7362000dd36000396000818161028701528181610cd401528181610d6601526129e10152600081816103d401528181610b7d01528181610bbb01528181611fca01528181612066015281816129ab015281816140af0152818161419b01528181614239015261476001526000818161063701528181613704015281816137970152613ce50152600081816103a001528181610f6e01528181611d2d0152818161259c01528181612b9801528181612da2015281816130bf015281816133ba0152818161364901528181613eb401528181613f3f015281816143c401526145d701526000818161060301528181611aff01528181611ba50152818161221e015281816122d80152818161270701528181612a9801528181613178015281816132080152818161331a0152818161350f015281816135f5015281816142e70152614566015260008181610231015281816106df0152818161080a0152818161092601528181610a0401528181610a60015281816111470152818161128901528181611326015281816115520152818161171b01528181611dc90152818161241d015281816124bd0152818161290a01526147f60152600081816104910152818161056201528181610869015281816109040152818161097801528181610a3701528181610d8701528181611042015281816110f10152818161111801528181611169015281816114b60152818161194d01528181611c58015281816123130152818161255e0152818161267c0152818161282c01528181612d64015281816137da015281816138940152818161395b01528181613ac801528181613b0701528181613bd3015281816145440152818161459c01526147d40152614c736000f3fe6080604052600436106101c85760003560e01c8063a3f4df7e116100f8578063e260d74711610090578063e260d747146105a6578063e5328e06146105bc578063ec78e832146105d1578063efead58c146105f1578063f7c618c114610625578063fa3ae6dc14610659578063fb7ee1021461066e578063fc0c546a1461068e578063ffa1ad74146106ac57600080fd5b8063a3f4df7e1461045d578063b2016bd41461047f578063c415b95c146104b3578063c7ad2748146104d3578063ce5494bb146104f3578063d2c35ce814610513578063d3033c3914610533578063d8dfeb4514610553578063e00af4a71461058657600080fd5b8063440d72481161016b578063440d724814610309578063456dc17a146103395780634fc90c2c146103595780635fe3b5671461036e578063620a96d51461038e5780636719578c146103c25780637d7c2a1c146103f6578063951dc22c1461042657806399b71d5c1461044857600080fd5b80630181686c146101d457806314ae9f2e146101fd57806316f0115b1461021f578063243cd14e1461026057806329ba73ed146102755780632b3297f9146102a95780632e1a7d4d146102c95780634032b72b146102e957600080fd5b366101cf57005b600080fd5b3480156101e057600080fd5b506101ea60075481565b6040519081526020015b60405180910390f35b34801561020957600080fd5b5061021d610218366004614869565b6106dd565b005b34801561022b57600080fd5b506102537f000000000000000000000000000000000000000000000000000000000000000081565b6040516101f49190614886565b34801561026c57600080fd5b506101ea6107f8565b34801561028157600080fd5b506102537f000000000000000000000000000000000000000000000000000000000000000081565b3480156102b557600080fd5b50600254610253906001600160a01b031681565b3480156102d557600080fd5b5061021d6102e436600461489a565b610807565b3480156102f557600080fd5b5061021d610304366004614869565b610a5e565b34801561031557600080fd5b50610329610324366004614869565b610b6a565b60405190151581526020016101f4565b34801561034557600080fd5b50600854610253906001600160a01b031681565b34801561036557600080fd5b5061021d610bb7565b34801561037a57600080fd5b50600954610253906001600160a01b031681565b34801561039a57600080fd5b506102537f000000000000000000000000000000000000000000000000000000000000000081565b3480156103ce57600080fd5b506102537f000000000000000000000000000000000000000000000000000000000000000081565b34801561040257600080fd5b5061040b610dac565b604080519384526020840192909252908201526060016101f4565b34801561043257600080fd5b5061043b610dec565b6040516101f491906148f7565b34801561045457600080fd5b5061021d610df8565b34801561046957600080fd5b50610472610e34565b6040516101f49190614936565b34801561048b57600080fd5b506102537f000000000000000000000000000000000000000000000000000000000000000081565b3480156104bf57600080fd5b50600154610253906001600160a01b031681565b3480156104df57600080fd5b5061021d6104ee36600461489a565b610ec2565b3480156104ff57600080fd5b5061021d61050e366004614869565b611286565b34801561051f57600080fd5b5061021d61052e366004614869565b611550565b34801561053f57600080fd5b5061021d61054e366004614869565b611719565b34801561055f57600080fd5b507f0000000000000000000000000000000000000000000000000000000000000000610253565b34801561059257600080fd5b5061021d6105a1366004614869565b6118d6565b3480156105b257600080fd5b506101ea60065481565b3480156105c857600080fd5b506101ea611af1565b3480156105dd57600080fd5b50600054610253906001600160a01b031681565b3480156105fd57600080fd5b506102537f000000000000000000000000000000000000000000000000000000000000000081565b34801561063157600080fd5b506102537f000000000000000000000000000000000000000000000000000000000000000081565b34801561066557600080fd5b5061021d611ced565b34801561067a57600080fd5b5061021d610689366004614969565b611dc7565b34801561069a57600080fd5b506000546001600160a01b0316610253565b3480156106b857600080fd5b50610472604051806040016040528060058152602001640352e302e360dc1b81525081565b7f00000000000000000000000000000000000000000000000000000000000000006001600160a01b0316630c340a246040518163ffffffff1660e01b815260040160206040518083038186803b15801561073657600080fd5b505afa15801561074a573d6000803e3d6000fd5b505050506040513d601f19601f8201168201806040525081019061076e919061498b565b6001600160a01b0316336001600160a01b0316146107a75760405162461bcd60e51b815260040161079e906149a8565b60405180910390fd5b6107b2600382611fa8565b6107f55760405162461bcd60e51b81526020600482015260146024820152731c995b5bdd994b5ad9595c195c8b59985a5b195960621b604482015260640161079e565b50565b6000610802611fbd565b905090565b337f00000000000000000000000000000000000000000000000000000000000000006001600160a01b03161461084f5760405162461bcd60e51b815260040161079e906149df565b6040516370a0823160e01b81526000906001600160a01b037f000000000000000000000000000000000000000000000000000000000000000016906370a082319061089e903090600401614886565b60206040518083038186803b1580156108b657600080fd5b505afa1580156108ca573d6000803e3d6000fd5b505050506040513d601f19601f820116820180604052508101906108ee9190614a12565b905081811061094f5761094b6001600160a01b037f0000000000000000000000000000000000000000000000000000000000000000167f000000000000000000000000000000000000000000000000000000000000000084612193565b5050565b61096161095c8284614a41565b6121e9565b6040516370a0823160e01b81526001600160a01b037f000000000000000000000000000000000000000000000000000000000000000016906370a08231906109ad903090600401614886565b60206040518083038186803b1580156109c557600080fd5b505afa1580156109d9573d6000803e3d6000fd5b505050506040513d601f19601f820116820180604052508101906109fd9190614a12565b905061094b7f0000000000000000000000000000000000000000000000000000000000000000610a2d84846122be565b6001600160a01b037f0000000000000000000000000000000000000000000000000000000000000000169190612193565b7f00000000000000000000000000000000000000000000000000000000000000006001600160a01b0316630c340a246040518163ffffffff1660e01b815260040160206040518083038186803b158015610ab757600080fd5b505afa158015610acb573d6000803e3d6000fd5b505050506040513d601f19601f82011682018060405250810190610aef919061498b565b6001600160a01b0316336001600160a01b031614610b1f5760405162461bcd60e51b815260040161079e906149a8565b610b2a600382611f8c565b6107f55760405162461bcd60e51b81526020600482015260116024820152701859190b5ad9595c195c8b59985a5b1959607a1b604482015260640161079e565b6000610b75826122d4565b80610bb157507f00000000000000000000000000000000000000000000000000000000000000006001600160a01b0316826001600160a01b0316145b92915050565b60007f00000000000000000000000000000000000000000000000000000000000000006001600160a01b0316638bc6beb26040518163ffffffff1660e01b815260040160206040518083038186803b158015610c1257600080fd5b505afa158015610c26573d6000803e3d6000fd5b505050506040513d601f19601f82011682018060405250810190610c4a919061498b565b90506001600160a01b03811615610cba5760405163d279c19160e01b81526001600160a01b0382169063d279c19190610c87903090600401614886565b600060405180830381600087803b158015610ca157600080fd5b505af1158015610cb5573d6000803e3d6000fd5b505050505b6040516370a0823160e01b81526000906001600160a01b037f000000000000000000000000000000000000000000000000000000000000000016906370a0823190610d09903090600401614886565b60206040518083038186803b158015610d2157600080fd5b505afa158015610d35573d6000803e3d6000fd5b505050506040513d601f19601f82011682018060405250810190610d599190614a12565b9050801561094b5761094b7f00000000000000000000000000000000000000000000000000000000000000007f000000000000000000000000000000000000000000000000000000000000000083612362565b60008080610dbd335b6003906123f3565b610dd95760405162461bcd60e51b815260040161079e90614a58565b610de1612415565b925092509250909192565b60606108026003612983565b610e0133610db5565b610e1d5760405162461bcd60e51b815260040161079e90614a58565b610e276000612990565b610e32600019612990565b565b60058054610e4190614a88565b80601f0160208091040260200160405190810160405280929190818152602001828054610e6d90614a88565b8015610eba5780601f10610e8f57610100808354040283529160200191610eba565b820191906000526020600020905b815481529060010190602001808311610e9d57829003601f168201915b505050505081565b610ecb33610db5565b610ee75760405162461bcd60e51b815260040161079e90614a58565b6008546040516370a0823160e01b81526000916001600160a01b0316906370a0823190610f18903090600401614886565b60206040518083038186803b158015610f3057600080fd5b505afa158015610f44573d6000803e3d6000fd5b505050506040513d601f19601f82011682018060405250810190610f689190614a12565b905060007f00000000000000000000000000000000000000000000000000000000000000006001600160a01b03166395dd9193306040518263ffffffff1660e01b8152600401610fb89190614886565b60206040518083038186803b158015610fd057600080fd5b505afa158015610fe4573d6000803e3d6000fd5b505050506040513d601f19601f820116820180604052508101906110089190614a12565b90508082111561128157600061101e8284614a41565b90506000808511801561103057508482115b61103a578161103c565b845b905060007f00000000000000000000000000000000000000000000000000000000000000006001600160a01b03166370a08231306040518263ffffffff1660e01b815260040161108c9190614886565b60206040518083038186803b1580156110a457600080fd5b505afa1580156110b8573d6000803e3d6000fd5b505050506040513d601f19601f820116820180604052508101906110dc9190614a12565b600854909150611116906001600160a01b03167f000000000000000000000000000000000000000000000000000000000000000084612a0a565b7f00000000000000000000000000000000000000000000000000000000000000006001600160a01b031663a9059cbb7f0000000000000000000000000000000000000000000000000000000000000000837f00000000000000000000000000000000000000000000000000000000000000006001600160a01b03166370a08231306040518263ffffffff1660e01b81526004016111b39190614886565b60206040518083038186803b1580156111cb57600080fd5b505afa1580156111df573d6000803e3d6000fd5b505050506040513d601f19601f820116820180604052508101906112039190614a12565b61120d9190614a41565b6040518363ffffffff1660e01b815260040161122a929190614ac3565b602060405180830381600087803b15801561124457600080fd5b505af1158015611258573d6000803e3d6000fd5b505050506040513d601f19601f8201168201806040525081019061127c9190614af1565b505050505b505050565b337f00000000000000000000000000000000000000000000000000000000000000006001600160a01b0316146112ce5760405162461bcd60e51b815260040161079e906149df565b6001600160a01b0381166113245760405162461bcd60e51b815260206004820152601c60248201527f6e65772d73747261746567792d616464726573732d69732d7a65726f00000000604482015260640161079e565b7f00000000000000000000000000000000000000000000000000000000000000006001600160a01b0316816001600160a01b03166316f0115b6040518163ffffffff1660e01b815260040160206040518083038186803b15801561138757600080fd5b505afa15801561139b573d6000803e3d6000fd5b505050506040513d601f19601f820116820180604052508101906113bf919061498b565b6001600160a01b03161461140e5760405162461bcd60e51b81526020600482015260166024820152756e6f742d76616c69642d6e65772d737472617465677960501b604482015260640161079e565b61141781612a96565b6000546040516370a0823160e01b81526114b09183916001600160a01b03909116906370a082319061144d903090600401614886565b60206040518083038186803b15801561146557600080fd5b505afa158015611479573d6000803e3d6000fd5b505050506040513d601f19601f8201168201806040525081019061149d9190614a12565b6000546001600160a01b03169190612193565b6107f5817f00000000000000000000000000000000000000000000000000000000000000006001600160a01b03166370a08231306040518263ffffffff1660e01b81526004016115009190614886565b60206040518083038186803b15801561151857600080fd5b505afa15801561152c573d6000803e3d6000fd5b505050506040513d601f19601f82011682018060405250810190610a2d9190614a12565b7f00000000000000000000000000000000000000000000000000000000000000006001600160a01b0316630c340a246040518163ffffffff1660e01b815260040160206040518083038186803b1580156115a957600080fd5b505afa1580156115bd573d6000803e3d6000fd5b505050506040513d601f19601f820116820180604052508101906115e1919061498b565b6001600160a01b0316336001600160a01b0316146116115760405162461bcd60e51b815260040161079e906149a8565b6001600160a01b0381166116675760405162461bcd60e51b815260206004820152601d60248201527f6665652d636f6c6c6563746f722d616464726573732d69732d7a65726f000000604482015260640161079e565b6001546001600160a01b03828116911614156116bd5760405162461bcd60e51b81526020600482015260156024820152746665652d636f6c6c6563746f722d69732d73616d6560581b604482015260640161079e565b6001546040516001600160a01b038084169216907f0f06062680f9bd68e786e9980d9bb03d73d5620fc3b345e417b6eacb310b970690600090a3600180546001600160a01b0319166001600160a01b0392909216919091179055565b7f00000000000000000000000000000000000000000000000000000000000000006001600160a01b0316630c340a246040518163ffffffff1660e01b815260040160206040518083038186803b15801561177257600080fd5b505afa158015611786573d6000803e3d6000fd5b505050506040513d601f19601f820116820180604052508101906117aa919061498b565b6001600160a01b0316336001600160a01b0316146117da5760405162461bcd60e51b815260040161079e906149a8565b6001600160a01b03811661182a5760405162461bcd60e51b8152602060048201526017602482015276737761707065722d616464726573732d69732d7a65726f60481b604482015260640161079e565b6002546001600160a01b038281169116141561187a5760405162461bcd60e51b815260206004820152600f60248201526e737761707065722d69732d73616d6560881b604482015260640161079e565b6002546040516001600160a01b038084169216907f6c953b7ec311055c20b96a42cea31e89528e375b1bf953a503db40854b3188fe90600090a3600280546001600160a01b0319166001600160a01b0392909216919091179055565b6118df33610db5565b6118fb5760405162461bcd60e51b815260040161079e90614a58565b6001546001600160a01b031661194b5760405162461bcd60e51b81526020600482015260156024820152741999594b58dbdb1b1958dd1bdc8b5b9bdd0b5cd95d605a1b604482015260640161079e565b7f00000000000000000000000000000000000000000000000000000000000000006001600160a01b0316816001600160a01b031614156119cd5760405162461bcd60e51b815260206004820152601f60248201527f6e6f742d616c6c6f7765642d746f2d73776565702d636f6c6c61746572616c00604482015260640161079e565b6119d681610b6a565b15611a1a5760405162461bcd60e51b815260206004820152601460248201527306e6f742d616c6c6f7765642d746f2d73776565760641b604482015260640161079e565b6001600160a01b03811673eeeeeeeeeeeeeeeeeeeeeeeeeeeeeeeeeeeeeeee1415611a55576001546107f5906001600160a01b031647612c26565b6040516370a0823160e01b81526000906001600160a01b038316906370a0823190611a84903090600401614886565b60206040518083038186803b158015611a9c57600080fd5b505afa158015611ab0573d6000803e3d6000fd5b505050506040513d601f19601f82011682018060405250810190611ad49190614a12565b60015490915061094b906001600160a01b03848116911683612193565b600080670de0b6b3a76400007f00000000000000000000000000000000000000000000000000000000000000006001600160a01b031663182df0f56040518163ffffffff1660e01b815260040160206040518083038186803b158015611b5657600080fd5b505afa158015611b6a573d6000803e3d6000fd5b505050506040513d601f19601f82011682018060405250810190611b8e9190614a12565b6040516370a0823160e01b81526001600160a01b037f000000000000000000000000000000000000000000000000000000000000000016906370a0823190611bda903090600401614886565b60206040518083038186803b158015611bf257600080fd5b505afa158015611c06573d6000803e3d6000fd5b505050506040513d601f19601f82011682018060405250810190611c2a9190614a12565b611c349190614b0c565b611c3e9190614b2b565b6040516370a0823160e01b81529091506001600160a01b037f000000000000000000000000000000000000000000000000000000000000000016906370a0823190611c8d903090600401614886565b60206040518083038186803b158015611ca557600080fd5b505afa158015611cb9573d6000803e3d6000fd5b505050506040513d601f19601f82011682018060405250810190611cdd9190614a12565b611ce79082614b4d565b91505090565b611cf633610db5565b611d125760405162461bcd60e51b815260040161079e90614a58565b6040516305eff7ef60e21b8152611dbb906001600160a01b037f000000000000000000000000000000000000000000000000000000000000000016906317bfdfbc90611d62903090600401614886565b602060405180830381600087803b158015611d7c57600080fd5b505af1158015611d90573d6000803e3d6000fd5b505050506040513d601f19601f82011682018060405250810190611db49190614a12565b6001612d3f565b60006006819055600755565b7f00000000000000000000000000000000000000000000000000000000000000006001600160a01b0316630c340a246040518163ffffffff1660e01b815260040160206040518083038186803b158015611e2057600080fd5b505afa158015611e34573d6000803e3d6000fd5b505050506040513d601f19601f82011682018060405250810190611e58919061498b565b6001600160a01b0316336001600160a01b031614611e885760405162461bcd60e51b815260040161079e906149a8565b6127108110611ed45760405162461bcd60e51b81526020600482015260186024820152771a5b9d985b1a590b5b585e0b589bdc9c9bddcb5b1a5b5a5d60421b604482015260640161079e565b80158015611ee0575081155b80611eea57508181115b611f365760405162461bcd60e51b815260206004820152601d60248201527f6d61782d73686f756c642d62652d6869676865722d7468616e2d6d696e000000604482015260640161079e565b6006546007546040805192835260208301859052820152606081018290527fedd77444afdf63401315e81ffe86d08f7865796e8ad2e11acf1d56a1393f07d59060800160405180910390a1600691909155600755565b6000611fa1836001600160a01b038416612e43565b9392505050565b6000611fa1836001600160a01b038416612e92565b6000670de0b6b3a76400007f00000000000000000000000000000000000000000000000000000000000000006001600160a01b03166370a08231306040518263ffffffff1660e01b81526004016120149190614886565b60206040518083038186803b15801561202c57600080fd5b505afa158015612040573d6000803e3d6000fd5b505050506040513d601f19601f820116820180604052508101906120649190614a12565b7f00000000000000000000000000000000000000000000000000000000000000006001600160a01b03166399530b066040518163ffffffff1660e01b815260040160206040518083038186803b1580156120bd57600080fd5b505afa1580156120d1573d6000803e3d6000fd5b505050506040513d601f19601f820116820180604052508101906120f59190614a12565b6120ff9190614b0c565b6121099190614b2b565b6008546040516370a0823160e01b81526001600160a01b03909116906370a0823190612139903090600401614886565b60206040518083038186803b15801561215157600080fd5b505afa158015612165573d6000803e3d6000fd5b505050506040513d601f19601f820116820180604052508101906121899190614a12565b6108029190614b4d565b6112818363a9059cbb60e01b84846040516024016121b2929190614ac3565b60408051601f198184030181529190526020810180516001600160e01b03166001600160e01b031990931692909217909152612f85565b60006121f6600083613057565b915050612204816001612d3f565b604051633af9e66960e01b81526000906001600160a01b037f00000000000000000000000000000000000000000000000000000000000000001690633af9e66990612253903090600401614886565b602060405180830381600087803b15801561226d57600080fd5b505af1158015612281573d6000803e3d6000fd5b505050506040513d601f19601f820116820180604052508101906122a59190614a12565b90506112818382116122b757816134f9565b835b6134f9565b60008183106122cd5781611fa1565b5090919050565b60007f00000000000000000000000000000000000000000000000000000000000000006001600160a01b0316826001600160a01b0316148061234757507f00000000000000000000000000000000000000000000000000000000000000006001600160a01b0316826001600160a01b0316145b80610bb15750506008546001600160a01b0390811691161490565b600254604051636ccb2b0160e01b81526001600160a01b0390911690636ccb2b019061239b908690869086906001903090600401614b65565b602060405180830381600087803b1580156123b557600080fd5b505af11580156123c9573d6000803e3d6000fd5b505050506040513d601f19601f820116820180604052508101906123ed9190614a12565b50505050565b6001600160a01b03811660009081526001830160205260408120541515611fa1565b6000806000807f00000000000000000000000000000000000000000000000000000000000000006001600160a01b031663d53ddc26306040518263ffffffff1660e01b81526004016124679190614886565b60206040518083038186803b15801561247f57600080fd5b505afa158015612493573d6000803e3d6000fd5b505050506040513d601f19601f820116820180604052508101906124b79190614a12565b905060007f00000000000000000000000000000000000000000000000000000000000000006001600160a01b0316639f2b2833306040518263ffffffff1660e01b81526004016125079190614886565b60206040518083038186803b15801561251f57600080fd5b505afa158015612533573d6000803e3d6000fd5b505050506040513d601f19601f820116820180604052508101906125579190614a12565b90506125827f00000000000000000000000000000000000000000000000000000000000000006135d2565b6040516305eff7ef60e21b81526000906001600160a01b037f000000000000000000000000000000000000000000000000000000000000000016906317bfdfbc906125d1903090600401614886565b602060405180830381600087803b1580156125eb57600080fd5b505af11580156125ff573d6000803e3d6000fd5b505050506040513d601f19601f820116820180604052508101906126239190614a12565b9050600061262f611fbd565b9050808211156126505761264b6126468284614a41565b6137bd565b612662565b61266261265d8383614a41565b61398d565b6040516370a0823160e01b81526000906001600160a01b037f000000000000000000000000000000000000000000000000000000000000000016906370a08231906126b1903090600401614886565b60206040518083038186803b1580156126c957600080fd5b505afa1580156126dd573d6000803e3d6000fd5b505050506040513d601f19601f820116820180604052508101906127019190614a12565b905060007f00000000000000000000000000000000000000000000000000000000000000006001600160a01b0316633af9e669306040518263ffffffff1660e01b81526004016127519190614886565b602060405180830381600087803b15801561276b57600080fd5b505af115801561277f573d6000803e3d6000fd5b505050506040513d601f19601f820116820180604052508101906127a39190614a12565b905060006127b18383614b4d565b9050858111156127cc576127c58682614a41565b99506127d9565b6127d68187614a41565b98505b60006127e5888c614b4d565b9050808410156128b65760006128046127fe8684614a41565b856122be565b905080156128b457612815816121e9565b6040516370a0823160e01b81526001600160a01b037f000000000000000000000000000000000000000000000000000000000000000016906370a0823190612861903090600401614886565b60206040518083038186803b15801561287957600080fd5b505afa15801561288d573d6000803e3d6000fd5b505050506040513d601f19601f820116820180604052508101906128b19190614a12565b94505b505b6128c084896122be565b98508884116128d05760006128e3565b6128e36128dd8a86614a41565b8c6122be565b6040516302df682360e11b815260048101829052602481018c9052604481018b9052909b507f00000000000000000000000000000000000000000000000000000000000000006001600160a01b0316906305bed04690606401600060405180830381600087803b15801561295657600080fd5b505af115801561296a573d6000803e3d6000fd5b50505050612976613aed565b5050505050505050909192565b60606000611fa183613c6f565b61299981613ccb565b6008546129d0906001600160a01b03167f000000000000000000000000000000000000000000000000000000000000000083613d0a565b6002546107f5906001600160a01b037f00000000000000000000000000000000000000000000000000000000000000008116911683613d0a565b600254604051636ccb2b0160e01b81526001600160a01b0390911690636ccb2b0190612a43908690869086906001903090600401614b65565b602060405180830381600087803b158015612a5d57600080fd5b505af1925050508015612a8d575060408051601f3d908101601f19168201909252612a8a91810190614a12565b60015b6123ed57505050565b7f00000000000000000000000000000000000000000000000000000000000000006001600160a01b0316816001600160a01b031663fc0c546a6040518163ffffffff1660e01b815260040160206040518083038186803b158015612af957600080fd5b505afa158015612b0d573d6000803e3d6000fd5b505050506040513d601f19601f82011682018060405250810190612b31919061498b565b6001600160a01b031614612b7d5760405162461bcd60e51b81526020600482015260136024820152723bb937b73396b932b1b2b4b83a16ba37b5b2b760691b604482015260640161079e565b6040516305eff7ef60e21b81526107f5906001600160a01b037f000000000000000000000000000000000000000000000000000000000000000016906317bfdfbc90612bcd903090600401614886565b602060405180830381600087803b158015612be757600080fd5b505af1158015612bfb573d6000803e3d6000fd5b505050506040513d601f19601f82011682018060405250810190612c1f9190614a12565b6000612d3f565b80471015612c765760405162461bcd60e51b815260206004820152601d60248201527f416464726573733a20696e73756666696369656e742062616c616e6365000000604482015260640161079e565b6000826001600160a01b03168260405160006040518083038185875af1925050503d8060008114612cc3576040519150601f19603f3d011682016040523d82523d6000602084013e612cc8565b606091505b50509050806112815760405162461bcd60e51b815260206004820152603a60248201527f416464726573733a20756e61626c6520746f2073656e642076616c75652c207260448201527f6563697069656e74206d61792068617665207265766572746564000000000000606482015260840161079e565b811561094b576000612d4f611fbd565b905080831115612e3a578115612d8857612d887f00000000000000000000000000000000000000000000000000000000000000006135d2565b6040516305eff7ef60e21b81526000906001600160a01b037f000000000000000000000000000000000000000000000000000000000000000016906317bfdfbc90612dd7903090600401614886565b602060405180830381600087803b158015612df157600080fd5b505af1158015612e05573d6000803e3d6000fd5b505050506040513d601f19601f82011682018060405250810190612e299190614a12565b9050612e386126468383614a41565b505b61128183613e1d565b6000818152600183016020526040812054612e8a57508154600181810184556000848152602080822090930184905584548482528286019093526040902091909155610bb1565b506000610bb1565b60008181526001830160205260408120548015612f7b576000612eb6600183614a41565b8554909150600090612eca90600190614a41565b9050818114612f2f576000866000018281548110612eea57612eea614b95565b9060005260206000200154905080876000018481548110612f0d57612f0d614b95565b6000918252602080832090910192909255918252600188019052604090208390555b8554869080612f4057612f40614bab565b600190038181906000526020600020016000905590558560010160008681526020019081526020016000206000905560019350505050610bb1565b6000915050610bb1565b6000612fda826040518060400160405280602081526020017f5361666545524332303a206c6f772d6c6576656c2063616c6c206661696c6564815250856001600160a01b031661400b9092919063ffffffff16565b8051909150156112815780806020019051810190612ff89190614af1565b6112815760405162461bcd60e51b815260206004820152602a60248201527f5361666545524332303a204552433230206f7065726174696f6e20646964206e6044820152691bdd081cdd58d8d9595960b21b606482015260840161079e565b600080831580613065575082155b6130a55760405162461bcd60e51b8152602060048201526011602482015270616c6c2d696e7075742d67742d7a65726f60781b604482015260640161079e565b6040516305eff7ef60e21b81526000906001600160a01b037f000000000000000000000000000000000000000000000000000000000000000016906317bfdfbc906130f4903090600401614886565b602060405180830381600087803b15801561310e57600080fd5b505af1158015613122573d6000803e3d6000fd5b505050506040513d601f19601f820116820180604052508101906131469190614a12565b90506007546000141561315e576000925090506134f2565b604051633af9e66960e01b81526000906001600160a01b037f00000000000000000000000000000000000000000000000000000000000000001690633af9e669906131ad903090600401614886565b602060405180830381600087803b1580156131c757600080fd5b505af11580156131db573d6000803e3d6000fd5b505050506040513d601f19601f820116820180604052508101906131ff9190614a12565b9050600061322c7f0000000000000000000000000000000000000000000000000000000000000000614022565b905060008715613247576132408884614b4d565b905061325c565b8683111561325c576132598784614a41565b90505b6000670de0b6b3a76400006132718484614b0c565b61327b9190614b2b565b90506000600960009054906101000a90046001600160a01b03166001600160a01b0316637dc0d1d06040518163ffffffff1660e01b815260040160206040518083038186803b1580156132cd57600080fd5b505afa1580156132e1573d6000803e3d6000fd5b505050506040513d601f19601f82011682018060405250810190613305919061498b565b90506000816001600160a01b031663fc57d4df7f00000000000000000000000000000000000000000000000000000000000000006040518263ffffffff1660e01b81526004016133559190614886565b60206040518083038186803b15801561336d57600080fd5b505afa158015613381573d6000803e3d6000fd5b505050506040513d601f19601f820116820180604052508101906133a59190614a12565b90506000826001600160a01b031663fc57d4df7f00000000000000000000000000000000000000000000000000000000000000006040518263ffffffff1660e01b81526004016133f59190614886565b60206040518083038186803b15801561340d57600080fd5b505afa158015613421573d6000803e3d6000fd5b505050506040513d601f19601f820116820180604052508101906134459190614a12565b90506000816134548487614b0c565b61345e9190614b2b565b90508061347a576000899a509a505050505050505050506134f2565b60006127106007548361348d9190614b0c565b6134979190614b2b565b90506000612710600654846134ac9190614b0c565b6134b69190614b2b565b9050818b11156134d1576134ca818c614a41565b9b506134e6565b8a8111156134e6576134e38b82614a41565b9c505b50505050505050505050505b9250929050565b60405163852a12e360e01b8152600481018290527f00000000000000000000000000000000000000000000000000000000000000006001600160a01b03169063852a12e390602401602060405180830381600087803b15801561355b57600080fd5b505af115801561356f573d6000803e3d6000fd5b505050506040513d601f19601f820116820180604052508101906135939190614a12565b156107f55760405162461bcd60e51b815260206004820152600f60248201526e1dda5d1a191c985dcb59985a5b1959608a1b604482015260640161079e565b6040805160028082526060820183526000926020830190803683370190505090507f00000000000000000000000000000000000000000000000000000000000000008160008151811061362757613627614b95565b60200260200101906001600160a01b031690816001600160a01b0316815250507f00000000000000000000000000000000000000000000000000000000000000008160018151811061367b5761367b614b95565b6001600160a01b03928316602091820292909201015260095460405162e1ed9760e51b8152911690631c3db2e0906136b99030908590600401614bc1565b600060405180830381600087803b1580156136d357600080fd5b505af11580156136e7573d6000803e3d6000fd5b50506040516370a0823160e01b8152600092506001600160a01b037f00000000000000000000000000000000000000000000000000000000000000001691506370a082319061373a903090600401614886565b60206040518083038186803b15801561375257600080fd5b505afa158015613766573d6000803e3d6000fd5b505050506040513d601f19601f8201168201806040525081019061378a9190614a12565b90508015611281576112817f00000000000000000000000000000000000000000000000000000000000000008483612a0a565b6002546008546040516353b609b560e01b81526001600160a01b037f00000000000000000000000000000000000000000000000000000000000000008116600483015291821660248201526044810184905260009291909116906353b609b590606401602060405180830381600087803b15801561383a57600080fd5b505af115801561384e573d6000803e3d6000fd5b505050506040513d601f19601f820116820180604052508101906138729190614a12565b9050801561094b576040516370a0823160e01b81526000906001600160a01b037f000000000000000000000000000000000000000000000000000000000000000016906370a08231906138c9903090600401614886565b60206040518083038186803b1580156138e157600080fd5b505afa1580156138f5573d6000803e3d6000fd5b505050506040513d601f19601f820116820180604052508101906139199190614a12565b905080821115613930576139306122b98284614a41565b6002546008546040516381cc619b60e01b81526001600160a01b03928316926381cc619b9261239b927f00000000000000000000000000000000000000000000000000000000000000009290911690889088903090600401614b65565b80156107f5576008546040516370a0823160e01b81526000916001600160a01b0316906370a08231906139c4903090600401614886565b60206040518083038186803b1580156139dc57600080fd5b505afa1580156139f0573d6000803e3d6000fd5b505050506040513d601f19601f82011682018060405250810190613a149190614a12565b9050613a1f826140ab565b6008546040516370a0823160e01b815260009183916001600160a01b03909116906370a0823190613a54903090600401614886565b60206040518083038186803b158015613a6c57600080fd5b505afa158015613a80573d6000803e3d6000fd5b505050506040513d601f19601f82011682018060405250810190613aa49190614a12565b613aae9190614a41565b9050801561128157600854611281906001600160a01b03167f000000000000000000000000000000000000000000000000000000000000000083612a0a565b6040516370a0823160e01b81526000906001600160a01b037f000000000000000000000000000000000000000000000000000000000000000016906370a0823190613b3c903090600401614886565b60206040518083038186803b158015613b5457600080fd5b505afa158015613b68573d6000803e3d6000fd5b505050506040513d601f19601f82011682018060405250810190613b8c9190614a12565b905080156107f557600080613ba2836000613057565b90925090508015613c5d57613bb8816000612d3f565b6040516370a0823160e01b8152611281906001600160a01b037f000000000000000000000000000000000000000000000000000000000000000016906370a0823190613c08903090600401614886565b60206040518083038186803b158015613c2057600080fd5b505afa158015613c34573d6000803e3d6000fd5b505050506040513d601f19601f82011682018060405250810190613c589190614a12565b6142cb565b613c66836142cb565b611281826143a8565b606081600001805480602002602001604051908101604052809291908181526020018280548015613cbf57602002820191906000526020600020905b815481526020019060010190808311613cab575b50505050509050919050565b613cd48161452e565b6002546107f5906001600160a01b037f000000000000000000000000000000000000000000000000000000000000000081169116835b801580613d935750604051636eb1769f60e11b81523060048201526001600160a01b03838116602483015284169063dd62ed3e9060440160206040518083038186803b158015613d5957600080fd5b505afa158015613d6d573d6000803e3d6000fd5b505050506040513d601f19601f82011682018060405250810190613d919190614a12565b155b613dfe5760405162461bcd60e51b815260206004820152603660248201527f5361666545524332303a20617070726f76652066726f6d206e6f6e2d7a65726f60448201527520746f206e6f6e2d7a65726f20616c6c6f77616e636560501b606482015260840161079e565b6112818363095ea7b360e01b84846040516024016121b2929190614ac3565b613e2681614619565b6008546001600160a01b031673c02aaa39b223fe8d0a0e5c4f27ead9083c756cc21415613f2957604051632e1a7d4d60e01b81526004810182905273c02aaa39b223fe8d0a0e5c4f27ead9083c756cc290632e1a7d4d90602401600060405180830381600087803b158015613e9a57600080fd5b505af1158015613eae573d6000803e3d6000fd5b505050507f00000000000000000000000000000000000000000000000000000000000000006001600160a01b0316634e4d9fea826040518263ffffffff1660e01b81526004016000604051808303818588803b158015613f0d57600080fd5b505af1158015613f21573d6000803e3d6000fd5b505050505050565b60405163073a938160e11b8152600481018290527f00000000000000000000000000000000000000000000000000000000000000006001600160a01b031690630e75270290602401602060405180830381600087803b158015613f8b57600080fd5b505af1158015613f9f573d6000803e3d6000fd5b505050506040513d601f19601f82011682018060405250810190613fc39190614a12565b156107f55760405162461bcd60e51b81526020600482015260186024820152771c995c185e4b5d1bcb58dbdb5c1bdd5b990b59985a5b195960421b604482015260640161079e565b606061401a8484600085614622565b949350505050565b600954604051638e8f294b60e01b81526000916001600160a01b031690638e8f294b90614053908590600401614886565b60606040518083038186803b15801561406b57600080fd5b505afa15801561407f573d6000803e3d6000fd5b505050506040513d601f19601f820116820180604052508101906140a39190614be5565b509392505050565b60007f00000000000000000000000000000000000000000000000000000000000000006001600160a01b03166399530b066040518163ffffffff1660e01b815260040160206040518083038186803b15801561410657600080fd5b505afa15801561411a573d6000803e3d6000fd5b505050506040513d601f19601f8201168201806040525081019061413e9190614a12565b905060008161415584670de0b6b3a7640000614b0c565b61415f9190614b2b565b9050670de0b6b3a76400006141748383614b0c565b61417e9190614b2b565b831161418a5780614195565b614195816001614b4d565b905060007f00000000000000000000000000000000000000000000000000000000000000006001600160a01b03166370a08231306040518263ffffffff1660e01b81526004016141e59190614886565b60206040518083038186803b1580156141fd57600080fd5b505afa158015614211573d6000803e3d6000fd5b505050506040513d601f19601f820116820180604052508101906142359190614a12565b90507f00000000000000000000000000000000000000000000000000000000000000006001600160a01b0316632e1a7d4d8284116142735783614275565b825b6040518263ffffffff1660e01b815260040161429391815260200190565b600060405180830381600087803b1580156142ad57600080fd5b505af11580156142c1573d6000803e3d6000fd5b5050505050505050565b80156107f55760405163140e25ad60e31b8152600481018290527f00000000000000000000000000000000000000000000000000000000000000006001600160a01b03169063a0712d6890602401602060405180830381600087803b15801561433357600080fd5b505af1158015614347573d6000803e3d6000fd5b505050506040513d601f19601f8201168201806040525081019061436b9190614a12565b156107f55760405162461bcd60e51b815260206004820152600d60248201526c1cdd5c1c1b1e4b59985a5b1959609a1b604482015260640161079e565b80156107f55760405163317afabb60e21b8152600481018290527f00000000000000000000000000000000000000000000000000000000000000006001600160a01b03169063c5ebeaec90602401602060405180830381600087803b15801561441057600080fd5b505af1158015614424573d6000803e3d6000fd5b505050506040513d601f19601f820116820180604052508101906144489190614a12565b156144955760405162461bcd60e51b815260206004820152601b60248201527f626f72726f772d66726f6d2d636f6d706f756e642d6661696c65640000000000604482015260640161079e565b6008546001600160a01b031673c02aaa39b223fe8d0a0e5c4f27ead9083c756cc214156145255773c02aaa39b223fe8d0a0e5c4f27ead9083c756cc26001600160a01b031663d0e30db0476040518263ffffffff1660e01b81526004016000604051808303818588803b15801561450b57600080fd5b505af115801561451f573d6000803e3d6000fd5b50505050505b6107f58161474a565b614537816147c7565b61458b6001600160a01b037f0000000000000000000000000000000000000000000000000000000000000000167f000000000000000000000000000000000000000000000000000000000000000083613d0a565b6002546145c5906001600160a01b037f00000000000000000000000000000000000000000000000000000000000000008116911683613d0a565b6008546145fc906001600160a01b03167f000000000000000000000000000000000000000000000000000000000000000083613d0a565b6002546008546107f5916001600160a01b03918216911683613d0a565b6107f5816140ab565b6060824710156146835760405162461bcd60e51b815260206004820152602660248201527f416464726573733a20696e73756666696369656e742062616c616e636520666f6044820152651c8818d85b1b60d21b606482015260840161079e565b843b6146d15760405162461bcd60e51b815260206004820152601d60248201527f416464726573733a2063616c6c20746f206e6f6e2d636f6e7472616374000000604482015260640161079e565b600080866001600160a01b031685876040516146ed9190614c21565b60006040518083038185875af1925050503d806000811461472a576040519150601f19603f3d011682016040523d82523d6000602084013e61472f565b606091505b509150915061473f82828661481b565b979650505050505050565b60405163b6b55f2560e01b8152600481018290527f00000000000000000000000000000000000000000000000000000000000000006001600160a01b03169063b6b55f2590602401600060405180830381600087803b1580156147ac57600080fd5b505af11580156147c0573d6000803e3d6000fd5b5050505050565b6107f56001600160a01b037f0000000000000000000000000000000000000000000000000000000000000000167f000000000000000000000000000000000000000000000000000000000000000083613d0a565b6060831561482a575081611fa1565b82511561483a5782518084602001fd5b8160405162461bcd60e51b815260040161079e9190614936565b6001600160a01b03811681146107f557600080fd5b60006020828403121561487b57600080fd5b8135611fa181614854565b6001600160a01b0391909116815260200190565b6000602082840312156148ac57600080fd5b5035919050565b600081518084526020808501945080840160005b838110156148ec5781516001600160a01b0316875295820195908201906001016148c7565b509495945050505050565b602081526000611fa160208301846148b3565b60005b8381101561492557818101518382015260200161490d565b838111156123ed5750506000910152565b602081526000825180602084015261495581604085016020870161490a565b601f01601f19169190910160400192915050565b6000806040838503121561497c57600080fd5b50508035926020909101359150565b60006020828403121561499d57600080fd5b8151611fa181614854565b6020808252601a908201527f63616c6c65722d69732d6e6f742d7468652d676f7665726e6f72000000000000604082015260600190565b60208082526019908201527818d85b1b195c8b5a5ccb5b9bdd0b5d995cdc195c8b5c1bdbdb603a1b604082015260600190565b600060208284031215614a2457600080fd5b5051919050565b634e487b7160e01b600052601160045260246000fd5b600082821015614a5357614a53614a2b565b500390565b60208082526016908201527531b0b63632b916b4b996b737ba16b096b5b2b2b832b960511b604082015260600190565b600181811c90821680614a9c57607f821691505b60208210811415614abd57634e487b7160e01b600052602260045260246000fd5b50919050565b6001600160a01b03929092168252602082015260400190565b80518015158114614aec57600080fd5b919050565b600060208284031215614b0357600080fd5b611fa182614adc565b6000816000190483118215151615614b2657614b26614a2b565b500290565b600082614b4857634e487b7160e01b600052601260045260246000fd5b500490565b60008219821115614b6057614b60614a2b565b500190565b6001600160a01b039586168152938516602085015260408401929092526060830152909116608082015260a00190565b634e487b7160e01b600052603260045260246000fd5b634e487b7160e01b600052603160045260246000fd5b6001600160a01b038316815260406020820181905260009061401a908301846148b3565b600080600060608486031215614bfa57600080fd5b614c0384614adc565b925060208401519150614c1860408501614adc565b90509250925092565b60008251614c3381846020870161490a565b919091019291505056fea2646970667358221220a85075285640caae678785870e1323f9dc1155084181d1ebfa46eeafd2181f8564736f6c63430008090033",
  "devdoc": {
    "kind": "dev",
    "methods": {
      "addKeeper(address)": {
        "params": {
          "_keeperAddress": "keeper address to add."
        }
      },
      "approveToken()": {
        "details": "Approve all required tokens"
      },
      "migrate(address)": {
        "details": "_beforeMigration hook can be implemented in child strategy to do extra steps.",
        "params": {
          "_newStrategy": "Address of new strategy"
        }
      },
      "rebalance()": {
        "returns": {
          "_loss": "Realized loss, if any, in collateral.",
          "_payback": "If strategy has any excess debt, we have to liquidate asset to payback excess debt.",
          "_profit": "Realized profit in collateral."
        }
      },
      "recoverBorrowToken(uint256)": {
        "details": "If we get liquidation in Compound, we will have borrowToken sitting in strategy. This function allows to recover idle borrow token amount.",
        "params": {
          "_amountToRecover": "Amount of borrow token we want to recover in 1 call.      Set it 0 to recover all available borrow tokens"
        }
      },
      "removeKeeper(address)": {
        "params": {
          "_keeperAddress": "keeper address to remove."
        }
      },
      "repayAll()": {
        "details": "This action usually done when loss is detected in strategy.0 borrow limit make sure that any future rebalance do not borrow again."
      },
      "sweepERC20(address)": {
        "params": {
          "_fromToken": "token address to sweep"
        }
      },
      "updateBorrowLimit(uint256,uint256)": {
        "details": "It is possible to set 0 as _minBorrowLimit to not borrow anything",
        "params": {
          "_maxBorrowLimit": "It is % of actual collateral factor of protocol",
          "_minBorrowLimit": "It is % of actual collateral factor of protocol"
        }
      },
      "updateFeeCollector(address)": {
        "params": {
          "_feeCollector": "fee collector address"
        }
      },
      "updateSwapper(address)": {
        "params": {
          "_swapper": "swapper address"
        }
      },
      "withdraw(uint256)": {
        "params": {
          "_amount": "Amount of collateral token"
        }
      }
    },
    "title": "Deposit Collateral in Compound and earn interest by depositing borrowed token in a Vesper Pool.",
    "version": 1
  },
  "userdoc": {
    "kind": "user",
    "methods": {
      "addKeeper(address)": {
        "notice": "Add given address in keepers list."
      },
      "borrowBalance()": {
        "notice": "Gets amount of borrowed Y collateral in strategy + Y collateral amount deposited in vPool"
      },
      "collateral()": {
        "notice": "Returns address of token correspond to collateral token"
      },
      "harvestVSP()": {
        "notice": "Claim VSP and convert to collateral token"
      },
      "isReservedToken(address)": {
        "notice": "Check whether given token is reserved or not. Reserved tokens are not allowed to sweep."
      },
      "keepers()": {
        "notice": "Return list of keepers"
      },
      "migrate(address)": {
        "notice": "Migrate all asset and vault ownership,if any, to new strategy"
      },
      "rebalance()": {
        "notice": "OnlyKeeper: Rebalance profit, loss and investment of this strategy.  Calculate profit, loss and payback of this strategy and realize profit/loss and  withdraw fund for payback, if any, and submit this report to pool."
      },
      "recoverBorrowToken(uint256)": {
        "notice": "Recover extra borrow tokens from strategy"
      },
      "removeKeeper(address)": {
        "notice": "Remove given address from keepers list."
      },
      "repayAll()": {
        "notice": "Repay all borrow amount and set min borrow limit to 0."
      },
      "sweepERC20(address)": {
        "notice": "sweep given token to feeCollector of strategy"
      },
      "token()": {
        "notice": "Returns address of token correspond to receipt token"
      },
      "tvl()": {
        "notice": "Returns total collateral locked in the strategy"
      },
      "updateBorrowLimit(uint256,uint256)": {
        "notice": "Update upper and lower borrow limit. Usually maxBorrowLimit < 100% of actual collateral factor of protocol."
      },
      "updateFeeCollector(address)": {
        "notice": "Update fee collector"
      },
      "updateSwapper(address)": {
        "notice": "Update swapper"
      },
      "withdraw(uint256)": {
        "notice": "Withdraw collateral token from end protocol."
      }
    },
    "version": 1
  },
  "storageLayout": {
    "storage": [
      {
        "astId": 10340,
        "contract": "vesper-strategies/contracts/strategies/compound/CompoundVesperXy.sol:CompoundVesperXy",
        "label": "receiptToken",
        "offset": 0,
        "slot": "0",
        "type": "t_address"
      },
      {
        "astId": 10346,
        "contract": "vesper-strategies/contracts/strategies/compound/CompoundVesperXy.sol:CompoundVesperXy",
        "label": "feeCollector",
        "offset": 0,
        "slot": "1",
        "type": "t_address"
      },
      {
        "astId": 10349,
        "contract": "vesper-strategies/contracts/strategies/compound/CompoundVesperXy.sol:CompoundVesperXy",
        "label": "swapper",
        "offset": 0,
        "slot": "2",
        "type": "t_contract(IRoutedSwapper)10313"
      },
      {
        "astId": 10362,
        "contract": "vesper-strategies/contracts/strategies/compound/CompoundVesperXy.sol:CompoundVesperXy",
        "label": "_keepers",
        "offset": 0,
        "slot": "3",
        "type": "t_struct(AddressSet)2690_storage"
      },
      {
        "astId": 13650,
        "contract": "vesper-strategies/contracts/strategies/compound/CompoundVesperXy.sol:CompoundVesperXy",
        "label": "NAME",
        "offset": 0,
        "slot": "5",
        "type": "t_string_storage"
      },
      {
        "astId": 13662,
        "contract": "vesper-strategies/contracts/strategies/compound/CompoundVesperXy.sol:CompoundVesperXy",
        "label": "minBorrowLimit",
        "offset": 0,
        "slot": "6",
        "type": "t_uint256"
      },
      {
        "astId": 13665,
        "contract": "vesper-strategies/contracts/strategies/compound/CompoundVesperXy.sol:CompoundVesperXy",
        "label": "maxBorrowLimit",
        "offset": 0,
        "slot": "7",
        "type": "t_uint256"
      },
      {
        "astId": 13667,
        "contract": "vesper-strategies/contracts/strategies/compound/CompoundVesperXy.sol:CompoundVesperXy",
        "label": "borrowToken",
        "offset": 0,
        "slot": "8",
        "type": "t_address"
      },
      {
        "astId": 13670,
        "contract": "vesper-strategies/contracts/strategies/compound/CompoundVesperXy.sol:CompoundVesperXy",
        "label": "comptroller",
        "offset": 0,
        "slot": "9",
        "type": "t_contract(Comptroller)10231"
      }
    ],
    "types": {
      "t_address": {
        "encoding": "inplace",
        "label": "address",
        "numberOfBytes": "20"
      },
      "t_array(t_bytes32)dyn_storage": {
        "base": "t_bytes32",
        "encoding": "dynamic_array",
        "label": "bytes32[]",
        "numberOfBytes": "32"
      },
      "t_bytes32": {
        "encoding": "inplace",
        "label": "bytes32",
        "numberOfBytes": "32"
      },
      "t_contract(Comptroller)10231": {
        "encoding": "inplace",
        "label": "contract Comptroller",
        "numberOfBytes": "20"
      },
      "t_contract(IRoutedSwapper)10313": {
        "encoding": "inplace",
        "label": "contract IRoutedSwapper",
        "numberOfBytes": "20"
      },
      "t_mapping(t_bytes32,t_uint256)": {
        "encoding": "mapping",
        "key": "t_bytes32",
        "label": "mapping(bytes32 => uint256)",
        "numberOfBytes": "32",
        "value": "t_uint256"
      },
      "t_string_storage": {
        "encoding": "bytes",
        "label": "string",
        "numberOfBytes": "32"
      },
      "t_struct(AddressSet)2690_storage": {
        "encoding": "inplace",
        "label": "struct EnumerableSet.AddressSet",
        "members": [
          {
            "astId": 2689,
            "contract": "vesper-strategies/contracts/strategies/compound/CompoundVesperXy.sol:CompoundVesperXy",
            "label": "_inner",
            "offset": 0,
            "slot": "0",
            "type": "t_struct(Set)2389_storage"
          }
        ],
        "numberOfBytes": "64"
      },
      "t_struct(Set)2389_storage": {
        "encoding": "inplace",
        "label": "struct EnumerableSet.Set",
        "members": [
          {
            "astId": 2384,
            "contract": "vesper-strategies/contracts/strategies/compound/CompoundVesperXy.sol:CompoundVesperXy",
            "label": "_values",
            "offset": 0,
            "slot": "0",
            "type": "t_array(t_bytes32)dyn_storage"
          },
          {
            "astId": 2388,
            "contract": "vesper-strategies/contracts/strategies/compound/CompoundVesperXy.sol:CompoundVesperXy",
            "label": "_indexes",
            "offset": 0,
            "slot": "1",
            "type": "t_mapping(t_bytes32,t_uint256)"
          }
        ],
        "numberOfBytes": "64"
      },
      "t_uint256": {
        "encoding": "inplace",
        "label": "uint256",
        "numberOfBytes": "32"
      }
    }
  }
}