{
  "address": "0x5B458d71a353384087CE1c48dA405D9cab14d155",
  "abi": [
    {
      "inputs": [
        {
          "internalType": "address",
          "name": "pool_",
          "type": "address"
        },
        {
          "internalType": "address",
          "name": "swapper_",
          "type": "address"
        },
        {
          "internalType": "address",
          "name": "fraxLend_",
          "type": "address"
        },
        {
          "internalType": "address",
          "name": "frax_",
          "type": "address"
        },
        {
          "internalType": "address",
          "name": "vPool_",
          "type": "address"
        },
        {
          "internalType": "address",
          "name": "vsp_",
          "type": "address"
        },
        {
          "internalType": "string",
          "name": "name_",
          "type": "string"
        }
      ],
      "stateMutability": "nonpayable",
      "type": "constructor"
    },
    {
      "anonymous": false,
      "inputs": [
        {
          "indexed": false,
          "internalType": "uint256",
          "name": "previousMinBorrowLimit",
          "type": "uint256"
        },
        {
          "indexed": false,
          "internalType": "uint256",
          "name": "newMinBorrowLimit",
          "type": "uint256"
        },
        {
          "indexed": false,
          "internalType": "uint256",
          "name": "previousMaxBorrowLimit",
          "type": "uint256"
        },
        {
          "indexed": false,
          "internalType": "uint256",
          "name": "newMaxBorrowLimit",
          "type": "uint256"
        }
      ],
      "name": "UpdatedBorrowLimit",
      "type": "event"
    },
    {
      "anonymous": false,
      "inputs": [
        {
          "indexed": true,
          "internalType": "address",
          "name": "previousFeeCollector",
          "type": "address"
        },
        {
          "indexed": true,
          "internalType": "address",
          "name": "newFeeCollector",
          "type": "address"
        }
      ],
      "name": "UpdatedFeeCollector",
      "type": "event"
    },
    {
      "anonymous": false,
      "inputs": [
        {
          "indexed": true,
          "internalType": "contract IRoutedSwapper",
          "name": "oldSwapper",
          "type": "address"
        },
        {
          "indexed": true,
          "internalType": "contract IRoutedSwapper",
          "name": "newSwapper",
          "type": "address"
        }
      ],
      "name": "UpdatedSwapper",
      "type": "event"
    },
    {
      "inputs": [],
      "name": "NAME",
      "outputs": [
        {
          "internalType": "string",
          "name": "",
          "type": "string"
        }
      ],
      "stateMutability": "view",
      "type": "function"
    },
    {
      "inputs": [],
      "name": "VERSION",
      "outputs": [
        {
          "internalType": "string",
          "name": "",
          "type": "string"
        }
      ],
      "stateMutability": "view",
      "type": "function"
    },
    {
      "inputs": [
        {
          "internalType": "address",
          "name": "_keeperAddress",
          "type": "address"
        }
      ],
      "name": "addKeeper",
      "outputs": [],
      "stateMutability": "nonpayable",
      "type": "function"
    },
    {
      "inputs": [
        {
          "internalType": "uint256",
          "name": "_approvalAmount",
          "type": "uint256"
        }
      ],
      "name": "approveToken",
      "outputs": [],
      "stateMutability": "nonpayable",
      "type": "function"
    },
    {
      "inputs": [],
      "name": "borrowBalance",
      "outputs": [
        {
          "internalType": "uint256",
          "name": "",
          "type": "uint256"
        }
      ],
      "stateMutability": "view",
      "type": "function"
    },
    {
      "inputs": [],
      "name": "borrowToken",
      "outputs": [
        {
          "internalType": "address",
          "name": "",
          "type": "address"
        }
      ],
      "stateMutability": "view",
      "type": "function"
    },
    {
      "inputs": [
        {
          "internalType": "uint256",
          "name": "_minAmountOut",
          "type": "uint256"
        }
      ],
      "name": "claimAndSwapRewards",
      "outputs": [
        {
          "internalType": "uint256",
          "name": "_amountOut",
          "type": "uint256"
        }
      ],
      "stateMutability": "nonpayable",
      "type": "function"
    },
    {
      "inputs": [],
      "name": "collateral",
      "outputs": [
        {
          "internalType": "address",
          "name": "",
          "type": "address"
        }
      ],
      "stateMutability": "view",
      "type": "function"
    },
    {
      "inputs": [],
      "name": "collateralToken",
      "outputs": [
        {
          "internalType": "contract IERC20",
          "name": "",
          "type": "address"
        }
      ],
      "stateMutability": "view",
      "type": "function"
    },
    {
      "inputs": [],
      "name": "feeCollector",
      "outputs": [
        {
          "internalType": "address",
          "name": "",
          "type": "address"
        }
      ],
      "stateMutability": "view",
      "type": "function"
    },
    {
      "inputs": [
        {
          "internalType": "address",
          "name": "token_",
          "type": "address"
        }
      ],
      "name": "isReservedToken",
      "outputs": [
        {
          "internalType": "bool",
          "name": "",
          "type": "bool"
        }
      ],
      "stateMutability": "view",
      "type": "function"
    },
    {
      "inputs": [],
      "name": "keepers",
      "outputs": [
        {
          "internalType": "address[]",
          "name": "",
          "type": "address[]"
        }
      ],
      "stateMutability": "view",
      "type": "function"
    },
    {
      "inputs": [],
      "name": "maxBorrowLimit",
      "outputs": [
        {
          "internalType": "uint256",
          "name": "",
          "type": "uint256"
        }
      ],
      "stateMutability": "view",
      "type": "function"
    },
    {
      "inputs": [
        {
          "internalType": "address",
          "name": "_newStrategy",
          "type": "address"
        }
      ],
      "name": "migrate",
      "outputs": [],
      "stateMutability": "nonpayable",
      "type": "function"
    },
    {
      "inputs": [],
      "name": "minBorrowLimit",
      "outputs": [
        {
          "internalType": "uint256",
          "name": "",
          "type": "uint256"
        }
      ],
      "stateMutability": "view",
      "type": "function"
    },
    {
      "inputs": [],
      "name": "pool",
      "outputs": [
        {
          "internalType": "address",
          "name": "",
          "type": "address"
        }
      ],
      "stateMutability": "view",
      "type": "function"
    },
    {
      "inputs": [],
      "name": "rebalance",
      "outputs": [
        {
          "internalType": "uint256",
          "name": "_profit",
          "type": "uint256"
        },
        {
          "internalType": "uint256",
          "name": "_loss",
          "type": "uint256"
        },
        {
          "internalType": "uint256",
          "name": "_payback",
          "type": "uint256"
        }
      ],
      "stateMutability": "nonpayable",
      "type": "function"
    },
    {
      "inputs": [],
      "name": "receiptToken",
      "outputs": [
        {
          "internalType": "address",
          "name": "",
          "type": "address"
        }
      ],
      "stateMutability": "view",
      "type": "function"
    },
    {
      "inputs": [
        {
          "internalType": "uint256",
          "name": "_amountToRecover",
          "type": "uint256"
        }
      ],
      "name": "recoverBorrowToken",
      "outputs": [],
      "stateMutability": "nonpayable",
      "type": "function"
    },
    {
      "inputs": [
        {
          "internalType": "address",
          "name": "_keeperAddress",
          "type": "address"
        }
      ],
      "name": "removeKeeper",
      "outputs": [],
      "stateMutability": "nonpayable",
      "type": "function"
    },
    {
      "inputs": [],
      "name": "repayAll",
      "outputs": [],
      "stateMutability": "nonpayable",
      "type": "function"
    },
    {
      "inputs": [
        {
          "internalType": "contract IERC20",
          "name": "_tokenIn",
          "type": "address"
        },
        {
          "internalType": "uint256",
          "name": "_minAmountOut",
          "type": "uint256"
        }
      ],
      "name": "swapToCollateral",
      "outputs": [
        {
          "internalType": "uint256",
          "name": "_amountOut",
          "type": "uint256"
        }
      ],
      "stateMutability": "nonpayable",
      "type": "function"
    },
    {
      "inputs": [],
      "name": "swapper",
      "outputs": [
        {
          "internalType": "contract IRoutedSwapper",
          "name": "",
          "type": "address"
        }
      ],
      "stateMutability": "view",
      "type": "function"
    },
    {
      "inputs": [
        {
          "internalType": "address",
          "name": "_fromToken",
          "type": "address"
        }
      ],
      "name": "sweep",
      "outputs": [],
      "stateMutability": "nonpayable",
      "type": "function"
    },
    {
      "inputs": [],
      "name": "token",
      "outputs": [
        {
          "internalType": "address",
          "name": "",
          "type": "address"
        }
      ],
      "stateMutability": "view",
      "type": "function"
    },
    {
      "inputs": [],
      "name": "tvl",
      "outputs": [
        {
          "internalType": "uint256",
          "name": "",
          "type": "uint256"
        }
      ],
      "stateMutability": "view",
      "type": "function"
    },
    {
      "inputs": [
        {
          "internalType": "uint256",
          "name": "_minBorrowLimit",
          "type": "uint256"
        },
        {
          "internalType": "uint256",
          "name": "_maxBorrowLimit",
          "type": "uint256"
        }
      ],
      "name": "updateBorrowLimit",
      "outputs": [],
      "stateMutability": "nonpayable",
      "type": "function"
    },
    {
      "inputs": [
        {
          "internalType": "address",
          "name": "_feeCollector",
          "type": "address"
        }
      ],
      "name": "updateFeeCollector",
      "outputs": [],
      "stateMutability": "nonpayable",
      "type": "function"
    },
    {
      "inputs": [
        {
          "internalType": "contract IRoutedSwapper",
          "name": "_swapper",
          "type": "address"
        }
      ],
      "name": "updateSwapper",
      "outputs": [],
      "stateMutability": "nonpayable",
      "type": "function"
    },
    {
      "inputs": [],
      "name": "vPool",
      "outputs": [
        {
          "internalType": "contract IVesperPool",
          "name": "",
          "type": "address"
        }
      ],
      "stateMutability": "view",
      "type": "function"
    },
    {
      "inputs": [],
      "name": "vsp",
      "outputs": [
        {
          "internalType": "address",
          "name": "",
          "type": "address"
        }
      ],
      "stateMutability": "view",
      "type": "function"
    },
    {
      "inputs": [
        {
          "internalType": "uint256",
          "name": "_amount",
          "type": "uint256"
        }
      ],
      "name": "withdraw",
      "outputs": [],
      "stateMutability": "nonpayable",
      "type": "function"
    }
  ],
  "transactionHash": "0x2d42a5861c3a09ddb1b164eb453d75f2943d168044bd0fe371f9bf6db8a72191",
  "args": [
    "0x01e1d41C1159b745298724c5Fd3eAfF3da1C6efD",
    "0x8f156189A3CD28dFc8FB7BbbAce58F98F09c0bB3",
    "0x32467a5fc2d72D21E8DCe990906547A2b012f382",
    "0x853d955aCEf822Db058eb8505911ED77F175b99e",
    "0xc14900dFB1Aa54e7674e1eCf9ce02b3b35157ba5",
    "0x1b40183EFB4Dd766f11bDa7A7c3AD8982e998421",
    "FraxLend_Vesper_Xy_WBTC_FRAX"
  ],
  "numDeployments": 1,
  "solcInputHash": "6dfbe19a7733b28acfa7b6409be85b3d",
  "bytecode": "0x6101a0604052611b586006556121346007553480156200001e57600080fd5b5060405162005d4038038062005d40833981016040819052620000419162000769565b8686866001600160a01b038316620000a05760405162461bcd60e51b815260206004820152601460248201527f706f6f6c2d616464726573732d69732d7a65726f00000000000000000000000060448201526064015b60405180910390fd5b6001600160a01b038216620000f85760405162461bcd60e51b815260206004820152601760248201527f737761707065722d616464726573732d69732d7a65726f000000000000000000604482015260640162000097565b600280546001600160a01b0319166001600160a01b0384811691909117909155831660a081905260408051637e062a3560e11b8152905163fc0c546a91600480820192602092909190829003018186803b1580156200015657600080fd5b505afa1580156200016b573d6000803e3d6000fd5b505050506040513d601f19601f82011682018060405250810190620001919190620008ca565b6001600160a01b03908116608052600080546001600160a01b031916918316919091179055620001d8620001c23390565b60036200062260201b6200232f1790919060201c565b6200021a5760405162461bcd60e51b81526020600482015260116024820152701859190b5ad9595c195c8b59985a5b1959607a1b604482015260640162000097565b5050506001600160a01b038516620002755760405162461bcd60e51b815260206004820152601960248201527f667261782d6c656e642d616464726573732d69732d6e756c6c00000000000000604482015260640162000097565b6001600160a01b038416620002cd5760405162461bcd60e51b815260206004820152601460248201527f667261782d616464726573732d69732d6e756c6c000000000000000000000000604482015260640162000097565b6001600160a01b038216620003255760405162461bcd60e51b815260206004820152601360248201527f7673702d616464726573732d69732d6e756c6c00000000000000000000000000604482015260640162000097565b836001600160a01b0316836001600160a01b031663fc0c546a6040518163ffffffff1660e01b815260040160206040518083038186803b1580156200036957600080fd5b505afa1580156200037e573d6000803e3d6000fd5b505050506040513d601f19601f82011682018060405250810190620003a49190620008ca565b6001600160a01b031614620003f05760405162461bcd60e51b81526020600482015260116024820152701a5b9d985b1a590b59dc9bddcb5c1bdbdb607a1b604482015260640162000097565b6080516001600160a01b0316856001600160a01b031663c6e1c7c96040518163ffffffff1660e01b815260040160206040518083038186803b1580156200043657600080fd5b505afa1580156200044b573d6000803e3d6000fd5b505050506040513d601f19601f82011682018060405250810190620004719190620008ca565b6001600160a01b031614620004c95760405162461bcd60e51b815260206004820152601360248201527f636f6c6c61746572616c2d6d69736d6174636800000000000000000000000000604482015260640162000097565b6001600160a01b0380861660c05284811660e052838116610100528216610120528051620004ff90600590602084019062000694565b5060008060c0516001600160a01b0316639a295e736040518163ffffffff1660e01b81526004016101006040518083038186803b1580156200054057600080fd5b505afa15801562000555573d6000803e3d6000fd5b505050506040513d601f19601f820116820180604052508101906200057b9190620008f1565b5050509450505050915081610160818152505080610180818152505060c0516001600160a01b031663f384bd056040518163ffffffff1660e01b815260040160206040518083038186803b158015620005d357600080fd5b505afa158015620005e8573d6000803e3d6000fd5b505050506040513d601f19601f820116820180604052508101906200060e91906200097e565b6101405250620009d5975050505050505050565b600062000639836001600160a01b03841662000642565b90505b92915050565b60008181526001830160205260408120546200068b575081546001818101845560008481526020808220909301849055845484825282860190935260409020919091556200063c565b5060006200063c565b828054620006a29062000998565b90600052602060002090601f016020900481019282620006c6576000855562000711565b82601f10620006e157805160ff191683800117855562000711565b8280016001018555821562000711579182015b8281111562000711578251825591602001919060010190620006f4565b506200071f92915062000723565b5090565b5b808211156200071f576000815560010162000724565b6001600160a01b03811681146200075057600080fd5b50565b634e487b7160e01b600052604160045260246000fd5b600080600080600080600060e0888a0312156200078557600080fd5b875162000792816200073a565b80975050602080890151620007a7816200073a565b60408a0151909750620007ba816200073a565b60608a0151909650620007cd816200073a565b60808a0151909550620007e0816200073a565b60a08a0151909450620007f3816200073a565b60c08a01519093506001600160401b03808211156200081157600080fd5b818b0191508b601f8301126200082657600080fd5b8151818111156200083b576200083b62000753565b604051601f8201601f19908116603f0116810190838211818310171562000866576200086662000753565b816040528281528e868487010111156200087f57600080fd5b600093505b82841015620008a3578484018601518185018701529285019262000884565b82841115620008b55760008684830101525b80965050505050505092959891949750929550565b600060208284031215620008dd57600080fd5b8151620008ea816200073a565b9392505050565b600080600080600080600080610100898b0312156200090f57600080fd5b885160208a015160408b015160608c015160808d015160a08e0151949c50929a50909850965094506001600160401b03811681146200094d57600080fd5b60c08a015190935061ffff811681146200096657600080fd5b8092505060e089015190509295985092959890939650565b6000602082840312156200099157600080fd5b5051919050565b600181811c90821680620009ad57607f821691505b60208210811415620009cf57634e487b7160e01b600052602260045260246000fd5b50919050565b60805160a05160c05160e051610100516101205161014051610160516101805161506f62000cd16000396000613e3c01526000613e1601526000613e6001526000818161029801528181612a930152613aa701526000818161035501528181610ffc01528181612569015281816125e501528181612a6101528181613998015281816142840152818161438d01528181614436015261471b01526000818161032e01528181610a9b01528181610fc00152818161119b01528181611301015281816129b7015281816129eb01528181612a3f01528181612cbc01528181612da001528181612e30015281816137b601528181613fdb015281816141e70152614745015260008181610f4901528181611bdd015281816120840152818161268a01528181612762015281816127de015281816128910152818161295101528181612a0d01528181612ac101528181612f33015281816131940152818161333801528181613429015281816134de01528181613cbb01528181613d710152818161411e015281816146190152818161467901528181614862015281816149030152818161499b0152614a450152600081816102510152818161093601528181610b3001528181610c7701528181610d4c01528181610dff015281816113600152818161141c015281816114e901528181611714015281816119220152818161213701528181612b6d01528181612c13015281816130fc0152613f740152600081816103c90152818161044c015281816105a8015281816107b60152818161085901528181610bbd01528181610c5501528181610cc301528181610d7f01528181610f8401528181611280015281816113220152818161138c0152818161169801528181611b4601528181611c6601528181611d4b01528181611f1901528181611f57015281816125050152818161292f0152818161298301528181612e5101528181612e8e0152818161301b01528181613f5201528181613fb301528181614088015281816141bf015281816144b80152614573015261506f6000f3fe608060405234801561001057600080fd5b50600436106101f05760003560e01c8063a3f4df7e1161010f578063e260d747116100a2578063fa3ae6dc11610071578063fa3ae6dc146104a7578063fb7ee102146104af578063fc0c546a146104c2578063ffa1ad74146104d357600080fd5b8063e260d74714610470578063e5328e0614610479578063ec78e83214610481578063ee330ee31461049457600080fd5b8063ce5494bb116100de578063ce5494bb14610411578063d2c35ce814610424578063d3033c3914610437578063d8dfeb451461044a57600080fd5b8063a3f4df7e146103af578063b2016bd4146103c4578063c415b95c146103eb578063c7ad2748146103fe57600080fd5b80632e1a7d4d11610187578063456dc17a11610156578063456dc17a146103295780636719578c146103505780637d7c2a1c14610377578063951dc22c1461039a57600080fd5b80632e1a7d4d146102cd5780633ac9fc11146102e05780634032b72b146102f3578063440d72481461030657600080fd5b806316f0115b116101c357806316f0115b1461024c578063243cd14e1461028b57806329ba73ed146102935780632b3297f9146102ba57600080fd5b806301681a62146101f55780630181686c1461020a5780631026013a1461022657806314ae9f2e14610239575b600080fd5b610208610203366004614c7d565b6104f7565b005b61021360075481565b6040519081526020015b60405180910390f35b610213610234366004614c9a565b61074e565b610208610247366004614c7d565b610934565b6102737f000000000000000000000000000000000000000000000000000000000000000081565b6040516001600160a01b03909116815260200161021d565b610213610a7c565b6102737f000000000000000000000000000000000000000000000000000000000000000081565b600254610273906001600160a01b031681565b6102086102db366004614c9a565b610b2d565b6102086102ee366004614c9a565b610da6565b610208610301366004614c7d565b610dfd565b610319610314366004614c7d565b610f45565b604051901515815260200161021d565b6102737f000000000000000000000000000000000000000000000000000000000000000081565b6102737f000000000000000000000000000000000000000000000000000000000000000081565b61037f611036565b6040805193845260208401929092529082015260600161021d565b6103a261109b565b60405161021d9190614cb3565b6103b76110a7565b60405161021d9190614d2c565b6102737f000000000000000000000000000000000000000000000000000000000000000081565b600154610273906001600160a01b031681565b61020861040c366004614c9a565b611135565b61020861041f366004614c7d565b611419565b610208610432366004614c7d565b611712565b610208610445366004614c7d565b611920565b7f0000000000000000000000000000000000000000000000000000000000000000610273565b61021360065481565b610213611b2e565b600054610273906001600160a01b031681565b6102136104a2366004614d5f565b611c14565b610208612034565b6102086104bd366004614d8b565b612135565b6000546001600160a01b0316610273565b6103b7604051806040016040528060058152602001640352e312e360dc1b81525081565b610504335b60039061234b565b61054e5760405162461bcd60e51b815260206004820152601660248201527531b0b63632b916b4b996b737ba16b096b5b2b2b832b960511b60448201526064015b60405180910390fd5b6001546001600160a01b03166105a65760405162461bcd60e51b815260206004820152601560248201527f6665652d636f6c6c6563746f722d6e6f742d73657400000000000000000000006044820152606401610545565b7f00000000000000000000000000000000000000000000000000000000000000006001600160a01b0316816001600160a01b031614156106285760405162461bcd60e51b815260206004820152601f60248201527f6e6f742d616c6c6f7765642d746f2d73776565702d636f6c6c61746572616c006044820152606401610545565b61063181610f45565b156106755760405162461bcd60e51b815260206004820152601460248201527306e6f742d616c6c6f7765642d746f2d73776565760641b6044820152606401610545565b6001600160a01b03811673eeeeeeeeeeeeeeeeeeeeeeeeeeeeeeeeeeeeeeee14156106b3576001546106b0906001600160a01b03164761236d565b50565b6040516370a0823160e01b81523060048201526000906001600160a01b038316906370a082319060240160206040518083038186803b1580156106f557600080fd5b505afa158015610709573d6000803e3d6000fd5b505050506040513d601f19601f8201168201806040525081019061072d9190614dad565b60015490915061074a906001600160a01b03848116911683612486565b5050565b6000610759336104fc565b61079e5760405162461bcd60e51b815260206004820152601660248201527531b0b63632b916b4b996b737ba16b096b5b2b2b832b960511b6044820152606401610545565b6040516370a0823160e01b81523060048201526000907f00000000000000000000000000000000000000000000000000000000000000006001600160a01b0316906370a082319060240160206040518083038186803b15801561080057600080fd5b505afa158015610814573d6000803e3d6000fd5b505050506040513d601f19601f820116820180604052508101906108389190614dad565b90506108426124e9565b6040516370a0823160e01b815230600482015281907f00000000000000000000000000000000000000000000000000000000000000006001600160a01b0316906370a082319060240160206040518083038186803b1580156108a357600080fd5b505afa1580156108b7573d6000803e3d6000fd5b505050506040513d601f19601f820116820180604052508101906108db9190614dad565b6108e59190614ddc565b91508282101561092e5760405162461bcd60e51b81526020600482015260146024820152731b9bdd0b595b9bdd59da0b585b5bdd5b9d13dd5d60621b6044820152606401610545565b50919050565b7f00000000000000000000000000000000000000000000000000000000000000006001600160a01b0316630c340a246040518163ffffffff1660e01b815260040160206040518083038186803b15801561098d57600080fd5b505afa1580156109a1573d6000803e3d6000fd5b505050506040513d601f19601f820116820180604052508101906109c59190614df3565b6001600160a01b0316336001600160a01b031614610a255760405162461bcd60e51b815260206004820152601a60248201527f63616c6c65722d69732d6e6f742d7468652d676f7665726e6f720000000000006044820152606401610545565b610a3060038261252a565b6106b05760405162461bcd60e51b815260206004820152601460248201527f72656d6f76652d6b65657065722d6661696c65640000000000000000000000006044820152606401610545565b6000610a8661253f565b6040516370a0823160e01b81523060048201527f00000000000000000000000000000000000000000000000000000000000000006001600160a01b0316906370a08231906024015b60206040518083038186803b158015610ae657600080fd5b505afa158015610afa573d6000803e3d6000fd5b505050506040513d601f19601f82011682018060405250810190610b1e9190614dad565b610b289190614e10565b905090565b337f00000000000000000000000000000000000000000000000000000000000000006001600160a01b031614610ba55760405162461bcd60e51b815260206004820152601960248201527f63616c6c65722d69732d6e6f742d7665737065722d706f6f6c000000000000006044820152606401610545565b6040516370a0823160e01b81523060048201526000907f00000000000000000000000000000000000000000000000000000000000000006001600160a01b0316906370a082319060240160206040518083038186803b158015610c0757600080fd5b505afa158015610c1b573d6000803e3d6000fd5b505050506040513d601f19601f82011682018060405250810190610c3f9190614dad565b9050818110610c9c5761074a6001600160a01b037f0000000000000000000000000000000000000000000000000000000000000000167f000000000000000000000000000000000000000000000000000000000000000084612486565b610cae610ca98284614ddc565b612688565b6040516370a0823160e01b81523060048201527f00000000000000000000000000000000000000000000000000000000000000006001600160a01b0316906370a082319060240160206040518083038186803b158015610d0d57600080fd5b505afa158015610d21573d6000803e3d6000fd5b505050506040513d601f19601f82011682018060405250810190610d459190614dad565b905061074a7f0000000000000000000000000000000000000000000000000000000000000000610d7584846128fb565b6001600160a01b037f0000000000000000000000000000000000000000000000000000000000000000169190612486565b610daf336104fc565b610df45760405162461bcd60e51b815260206004820152601660248201527531b0b63632b916b4b996b737ba16b096b5b2b2b832b960511b6044820152606401610545565b6106b081612911565b7f00000000000000000000000000000000000000000000000000000000000000006001600160a01b0316630c340a246040518163ffffffff1660e01b815260040160206040518083038186803b158015610e5657600080fd5b505afa158015610e6a573d6000803e3d6000fd5b505050506040513d601f19601f82011682018060405250810190610e8e9190614df3565b6001600160a01b0316336001600160a01b031614610eee5760405162461bcd60e51b815260206004820152601a60248201527f63616c6c65722d69732d6e6f742d7468652d676f7665726e6f720000000000006044820152606401610545565b610ef960038261232f565b6106b05760405162461bcd60e51b815260206004820152601160248201527f6164642d6b65657065722d6661696c65640000000000000000000000000000006044820152606401610545565b60007f00000000000000000000000000000000000000000000000000000000000000006001600160a01b0316826001600160a01b03161480610fb857507f00000000000000000000000000000000000000000000000000000000000000006001600160a01b0316826001600160a01b0316145b80610ff457507f00000000000000000000000000000000000000000000000000000000000000006001600160a01b0316826001600160a01b0316145b8061103057507f00000000000000000000000000000000000000000000000000000000000000006001600160a01b0316826001600160a01b0316145b92915050565b60008080611043336104fc565b6110885760405162461bcd60e51b815260206004820152601660248201527531b0b63632b916b4b996b737ba16b096b5b2b2b832b960511b6044820152606401610545565b611090612aba565b925092509250909192565b6060610b28600361316f565b600580546110b490614e28565b80601f01602080910402602001604051908101604052809291908181526020018280546110e090614e28565b801561112d5780601f106111025761010080835404028352916020019161112d565b820191906000526020600020905b81548152906001019060200180831161111057829003601f168201915b505050505081565b61113e336104fc565b6111835760405162461bcd60e51b815260206004820152601660248201527531b0b63632b916b4b996b737ba16b096b5b2b2b832b960511b6044820152606401610545565b6040516370a0823160e01b81523060048201526000907f00000000000000000000000000000000000000000000000000000000000000006001600160a01b0316906370a082319060240160206040518083038186803b1580156111e557600080fd5b505afa1580156111f9573d6000803e3d6000fd5b505050506040513d601f19601f8201168201806040525081019061121d9190614dad565b9050600061122961317c565b90508082111561141457600061123f8284614ddc565b90506000808511801561125157508482115b61125b578161125d565b845b6040516370a0823160e01b81523060048201529091506000906001600160a01b037f000000000000000000000000000000000000000000000000000000000000000016906370a082319060240160206040518083038186803b1580156112c257600080fd5b505afa1580156112d6573d6000803e3d6000fd5b505050506040513d601f19601f820116820180604052508101906112fa9190614dad565b90506113477f00000000000000000000000000000000000000000000000000000000000000007f000000000000000000000000000000000000000000000000000000000000000084613294565b6040516370a0823160e01b8152306004820152611410907f00000000000000000000000000000000000000000000000000000000000000009083906001600160a01b037f000000000000000000000000000000000000000000000000000000000000000016906370a082319060240160206040518083038186803b1580156113ce57600080fd5b505afa1580156113e2573d6000803e3d6000fd5b505050506040513d601f19601f820116820180604052508101906114069190614dad565b610d759190614ddc565b5050505b505050565b337f00000000000000000000000000000000000000000000000000000000000000006001600160a01b0316146114915760405162461bcd60e51b815260206004820152601960248201527f63616c6c65722d69732d6e6f742d7665737065722d706f6f6c000000000000006044820152606401610545565b6001600160a01b0381166114e75760405162461bcd60e51b815260206004820152601c60248201527f6e65772d73747261746567792d616464726573732d69732d7a65726f000000006044820152606401610545565b7f00000000000000000000000000000000000000000000000000000000000000006001600160a01b0316816001600160a01b03166316f0115b6040518163ffffffff1660e01b815260040160206040518083038186803b15801561154a57600080fd5b505afa15801561155e573d6000803e3d6000fd5b505050506040513d601f19601f820116820180604052508101906115829190614df3565b6001600160a01b0316146115d85760405162461bcd60e51b815260206004820152601660248201527f6e6f742d76616c69642d6e65772d7374726174656779000000000000000000006044820152606401610545565b6115e181613336565b6000546040516370a0823160e01b81523060048201526116759183916001600160a01b03909116906370a082319060240160206040518083038186803b15801561162a57600080fd5b505afa15801561163e573d6000803e3d6000fd5b505050506040513d601f19601f820116820180604052508101906116629190614dad565b6000546001600160a01b03169190612486565b6040516370a0823160e01b81523060048201526106b09082906001600160a01b037f000000000000000000000000000000000000000000000000000000000000000016906370a082319060240160206040518083038186803b1580156116da57600080fd5b505afa1580156116ee573d6000803e3d6000fd5b505050506040513d601f19601f82011682018060405250810190610d759190614dad565b7f00000000000000000000000000000000000000000000000000000000000000006001600160a01b0316630c340a246040518163ffffffff1660e01b815260040160206040518083038186803b15801561176b57600080fd5b505afa15801561177f573d6000803e3d6000fd5b505050506040513d601f19601f820116820180604052508101906117a39190614df3565b6001600160a01b0316336001600160a01b0316146118035760405162461bcd60e51b815260206004820152601a60248201527f63616c6c65722d69732d6e6f742d7468652d676f7665726e6f720000000000006044820152606401610545565b6001600160a01b0381166118595760405162461bcd60e51b815260206004820152601d60248201527f6665652d636f6c6c6563746f722d616464726573732d69732d7a65726f0000006044820152606401610545565b6001546001600160a01b03828116911614156118b75760405162461bcd60e51b815260206004820152601560248201527f6665652d636f6c6c6563746f722d69732d73616d6500000000000000000000006044820152606401610545565b6001546040516001600160a01b038084169216907f0f06062680f9bd68e786e9980d9bb03d73d5620fc3b345e417b6eacb310b970690600090a36001805473ffffffffffffffffffffffffffffffffffffffff19166001600160a01b0392909216919091179055565b7f00000000000000000000000000000000000000000000000000000000000000006001600160a01b0316630c340a246040518163ffffffff1660e01b815260040160206040518083038186803b15801561197957600080fd5b505afa15801561198d573d6000803e3d6000fd5b505050506040513d601f19601f820116820180604052508101906119b19190614df3565b6001600160a01b0316336001600160a01b031614611a115760405162461bcd60e51b815260206004820152601a60248201527f63616c6c65722d69732d6e6f742d7468652d676f7665726e6f720000000000006044820152606401610545565b6001600160a01b038116611a675760405162461bcd60e51b815260206004820152601760248201527f737761707065722d616464726573732d69732d7a65726f0000000000000000006044820152606401610545565b6002546001600160a01b0382811691161415611ac55760405162461bcd60e51b815260206004820152600f60248201527f737761707065722d69732d73616d6500000000000000000000000000000000006044820152606401610545565b6002546040516001600160a01b038084169216907f6c953b7ec311055c20b96a42cea31e89528e375b1bf953a503db40854b3188fe90600090a36002805473ffffffffffffffffffffffffffffffffffffffff19166001600160a01b0392909216919091179055565b6040516370a0823160e01b81523060048201526000907f00000000000000000000000000000000000000000000000000000000000000006001600160a01b0316906370a082319060240160206040518083038186803b158015611b9057600080fd5b505afa158015611ba4573d6000803e3d6000fd5b505050506040513d601f19601f82011682018060405250810190611bc89190614dad565b604051635ad7983160e11b81523060048201527f00000000000000000000000000000000000000000000000000000000000000006001600160a01b03169063b5af306290602401610ace565b6000611c1f336104fc565b611c645760405162461bcd60e51b815260206004820152601660248201527531b0b63632b916b4b996b737ba16b096b5b2b2b832b960511b6044820152606401610545565b7f00000000000000000000000000000000000000000000000000000000000000006001600160a01b0316836001600160a01b03161415611ce65760405162461bcd60e51b815260206004820152601f60248201527f6e6f742d616c6c6f7765642d746f2d73776565702d636f6c6c61746572616c006044820152606401610545565b611cef83610f45565b15611d335760405162461bcd60e51b815260206004820152601460248201527306e6f742d616c6c6f7765642d746f2d73776565760641b6044820152606401610545565b6040516370a0823160e01b81523060048201526000907f00000000000000000000000000000000000000000000000000000000000000006001600160a01b0316906370a082319060240160206040518083038186803b158015611d9557600080fd5b505afa158015611da9573d6000803e3d6000fd5b505050506040513d601f19601f82011682018060405250810190611dcd9190614dad565b6040516370a0823160e01b81523060048201529091506000906001600160a01b038616906370a082319060240160206040518083038186803b158015611e1257600080fd5b505afa158015611e26573d6000803e3d6000fd5b505050506040513d601f19601f82011682018060405250810190611e4a9190614dad565b90508015611f4057600254604051636eb1769f60e11b81523060048201526001600160a01b0391821660248201529086169063dd62ed3e9060440160206040518083038186803b158015611e9d57600080fd5b505afa158015611eb1573d6000803e3d6000fd5b505050506040513d601f19601f82011682018060405250810190611ed59190614dad565b811115611f1357600254611ef7906001600160a01b03878116911660006135c2565b600254611f13906001600160a01b0387811691166000196135c2565b611f3e857f0000000000000000000000000000000000000000000000000000000000000000836136ed565b505b6040516370a0823160e01b815230600482015282907f00000000000000000000000000000000000000000000000000000000000000006001600160a01b0316906370a082319060240160206040518083038186803b158015611fa157600080fd5b505afa158015611fb5573d6000803e3d6000fd5b505050506040513d601f19601f82011682018060405250810190611fd99190614dad565b611fe39190614ddc565b92508383101561202c5760405162461bcd60e51b81526020600482015260146024820152731b9bdd0b595b9bdd59da0b585b5bdd5b9d13dd5d60621b6044820152606401610545565b505092915050565b61203d336104fc565b6120825760405162461bcd60e51b815260206004820152601660248201527531b0b63632b916b4b996b737ba16b096b5b2b2b832b960511b6044820152606401610545565b7f00000000000000000000000000000000000000000000000000000000000000006001600160a01b0316630d09365c6040518163ffffffff1660e01b8152600401608060405180830381600087803b1580156120dd57600080fd5b505af11580156120f1573d6000803e3d6000fd5b505050506040513d601f19601f820116820180604052508101906121159190614e5d565b5050505061212961212461317c565b613791565b60006006819055600755565b7f00000000000000000000000000000000000000000000000000000000000000006001600160a01b0316630c340a246040518163ffffffff1660e01b815260040160206040518083038186803b15801561218e57600080fd5b505afa1580156121a2573d6000803e3d6000fd5b505050506040513d601f19601f820116820180604052508101906121c69190614df3565b6001600160a01b0316336001600160a01b0316146122265760405162461bcd60e51b815260206004820152601a60248201527f63616c6c65722d69732d6e6f742d7468652d676f7665726e6f720000000000006044820152606401610545565b61271081106122775760405162461bcd60e51b815260206004820152601860248201527f696e76616c69642d6d61782d626f72726f772d6c696d697400000000000000006044820152606401610545565b80158015612283575081155b8061228d57508181115b6122d95760405162461bcd60e51b815260206004820152601d60248201527f6d61782d73686f756c642d62652d6869676865722d7468616e2d6d696e0000006044820152606401610545565b6006546007546040805192835260208301859052820152606081018290527fedd77444afdf63401315e81ffe86d08f7865796e8ad2e11acf1d56a1393f07d59060800160405180910390a1600691909155600755565b6000612344836001600160a01b038416613870565b9392505050565b6001600160a01b03811660009081526001830160205260408120541515612344565b804710156123bd5760405162461bcd60e51b815260206004820152601d60248201527f416464726573733a20696e73756666696369656e742062616c616e63650000006044820152606401610545565b6000826001600160a01b03168260405160006040518083038185875af1925050503d806000811461240a576040519150601f19603f3d011682016040523d82523d6000602084013e61240f565b606091505b50509050806114145760405162461bcd60e51b815260206004820152603a60248201527f416464726573733a20756e61626c6520746f2073656e642076616c75652c207260448201527f6563697069656e74206d617920686176652072657665727465640000000000006064820152608401610545565b6040516001600160a01b03831660248201526044810182905261141490849063a9059cbb60e01b906064015b60408051601f198184030181529190526020810180516001600160e01b03166001600160e01b0319909316929092179091526138bf565b6000806124f4613991565b9092509050801561074a5761074a827f000000000000000000000000000000000000000000000000000000000000000083613294565b6000612344836001600160a01b038416613b34565b6040516370a0823160e01b8152306004820152600090670de0b6b3a7640000906001600160a01b037f000000000000000000000000000000000000000000000000000000000000000016906370a082319060240160206040518083038186803b1580156125ab57600080fd5b505afa1580156125bf573d6000803e3d6000fd5b505050506040513d601f19601f820116820180604052508101906125e39190614dad565b7f00000000000000000000000000000000000000000000000000000000000000006001600160a01b03166399530b066040518163ffffffff1660e01b815260040160206040518083038186803b15801561263c57600080fd5b505afa158015612650573d6000803e3d6000fd5b505050506040513d601f19601f820116820180604052508101906126749190614dad565b61267e9190614eab565b610b289190614eca565b7f00000000000000000000000000000000000000000000000000000000000000006001600160a01b0316630d09365c6040518163ffffffff1660e01b8152600401608060405180830381600087803b1580156126e357600080fd5b505af11580156126f7573d6000803e3d6000fd5b505050506040513d601f19601f8201168201806040525081019061271b9190614e5d565b50505050600061272c600083613c27565b91505061273881613791565b604051635ad7983160e11b815230600482015260009061287290849061286d906001600160a01b037f0000000000000000000000000000000000000000000000000000000000000000169063b5af30629060240160206040518083038186803b1580156127a457600080fd5b505afa1580156127b8573d6000803e3d6000fd5b505050506040513d601f19601f820116820180604052508101906127dc9190614dad565b7f00000000000000000000000000000000000000000000000000000000000000006001600160a01b0316634ac8eb5f6040518163ffffffff1660e01b815260040160206040518083038186803b15801561283557600080fd5b505afa158015612849573d6000803e3d6000fd5b505050506040513d601f19601f8201168201806040525081019061286d9190614dad565b6128fb565b604051636a0eee4b60e11b8152600481018290523060248201529091507f00000000000000000000000000000000000000000000000000000000000000006001600160a01b03169063d41ddc96906044015b600060405180830381600087803b1580156128de57600080fd5b505af11580156128f2573d6000803e3d6000fd5b50505050505050565b600081831061290a5781612344565b5090919050565b61291a81613f45565b6002546001600160a01b0390811690612976907f0000000000000000000000000000000000000000000000000000000000000000167f0000000000000000000000000000000000000000000000000000000000000000846135c2565b6129aa6001600160a01b037f00000000000000000000000000000000000000000000000000000000000000001682846135c2565b6129de6001600160a01b037f00000000000000000000000000000000000000000000000000000000000000001682846135c2565b612a326001600160a01b037f0000000000000000000000000000000000000000000000000000000000000000167f0000000000000000000000000000000000000000000000000000000000000000846135c2565b612a866001600160a01b037f0000000000000000000000000000000000000000000000000000000000000000167f0000000000000000000000000000000000000000000000000000000000000000846135c2565b61074a6001600160a01b037f00000000000000000000000000000000000000000000000000000000000000001682846135c2565b60008060007f00000000000000000000000000000000000000000000000000000000000000006001600160a01b0316630d09365c6040518163ffffffff1660e01b8152600401608060405180830381600087803b158015612b1a57600080fd5b505af1158015612b2e573d6000803e3d6000fd5b505050506040513d601f19601f82011682018060405250810190612b529190614e5d565b5050604051636a9eee1360e11b8152306004820152600092507f00000000000000000000000000000000000000000000000000000000000000006001600160a01b0316915063d53ddc269060240160206040518083038186803b158015612bb857600080fd5b505afa158015612bcc573d6000803e3d6000fd5b505050506040513d601f19601f82011682018060405250810190612bf09190614dad565b604051639f2b283360e01b81523060048201529091506000906001600160a01b037f00000000000000000000000000000000000000000000000000000000000000001690639f2b28339060240160206040518083038186803b158015612c5557600080fd5b505afa158015612c69573d6000803e3d6000fd5b505050506040513d601f19601f82011682018060405250810190612c8d9190614dad565b90506000612c9961317c565b6040516370a0823160e01b81523060048201529091506000906001600160a01b037f000000000000000000000000000000000000000000000000000000000000000016906370a082319060240160206040518083038186803b158015612cfe57600080fd5b505afa158015612d12573d6000803e3d6000fd5b505050506040513d601f19601f82011682018060405250810190612d369190614dad565b90506000612d4261253f565b90506000612d508284614e10565b905080841115612d7157612d6c612d678286614ddc565b613f99565b612e76565b83821115612e2557612d8b612d868584614ddc565b614280565b6040516370a0823160e01b81523060048201527f00000000000000000000000000000000000000000000000000000000000000006001600160a01b0316906370a082319060240160206040518083038186803b158015612dea57600080fd5b505afa158015612dfe573d6000803e3d6000fd5b505050506040513d601f19601f82011682018060405250810190612e229190614dad565b92505b8215612e7657612e767f00000000000000000000000000000000000000000000000000000000000000007f000000000000000000000000000000000000000000000000000000000000000085613294565b6040516370a0823160e01b81523060048201526000907f00000000000000000000000000000000000000000000000000000000000000006001600160a01b0316906370a082319060240160206040518083038186803b158015612ed857600080fd5b505afa158015612eec573d6000803e3d6000fd5b505050506040513d601f19601f82011682018060405250810190612f109190614dad565b604051635ad7983160e11b81523060048201529091506000906001600160a01b037f0000000000000000000000000000000000000000000000000000000000000000169063b5af30629060240160206040518083038186803b158015612f7557600080fd5b505afa158015612f89573d6000803e3d6000fd5b505050506040513d601f19601f82011682018060405250810190612fad9190614dad565b90506000612fbb8383614e10565b905087811115612fd657612fcf8882614ddc565b9b50612fe3565b612fe08189614ddc565b9a505b6000612fef8a8e614e10565b9050808410156130a057613006610ca98583614ddc565b6040516370a0823160e01b81523060048201527f00000000000000000000000000000000000000000000000000000000000000006001600160a01b0316906370a082319060240160206040518083038186803b15801561306557600080fd5b505afa158015613079573d6000803e3d6000fd5b505050506040513d601f19601f8201168201806040525081019061309d9190614dad565b93505b6130aa848b6128fb565b9a508a84116130ba5760006130cd565b6130cd6130c78c86614ddc565b8e6128fb565b6040516302df682360e11b815260048101829052602481018e9052604481018d9052909d506001600160a01b037f000000000000000000000000000000000000000000000000000000000000000016906305bed04690606401600060405180830381600087803b15801561314057600080fd5b505af1158015613154573d6000803e3d6000fd5b505050506131606144a0565b50505050505050505050909192565b60606000612344836147dd565b604051634fd422df60e01b81523060048201526000907f00000000000000000000000000000000000000000000000000000000000000006001600160a01b0316906394e301e0908290634fd422df9060240160206040518083038186803b1580156131e657600080fd5b505afa1580156131fa573d6000803e3d6000fd5b505050506040513d601f19601f8201168201806040525081019061321e9190614dad565b6040516001600160e01b031960e084901b16815260048101919091526001602482015260440160206040518083038186803b15801561325c57600080fd5b505afa158015613270573d6000803e3d6000fd5b505050506040513d601f19601f82011682018060405250810190610b289190614dad565b600254604051636ccb2b0160e01b81526001600160a01b0385811660048301528481166024830152604482018490526001606483015230608483015290911690636ccb2b019060a401602060405180830381600087803b1580156132f757600080fd5b505af1925050508015613327575060408051601f3d908101601f1916820190925261332491810190614dad565b60015b61333057505050565b50505050565b7f00000000000000000000000000000000000000000000000000000000000000006001600160a01b0316816001600160a01b031663fc0c546a6040518163ffffffff1660e01b815260040160206040518083038186803b15801561339957600080fd5b505afa1580156133ad573d6000803e3d6000fd5b505050506040513d601f19601f820116820180604052508101906133d19190614df3565b6001600160a01b0316146134275760405162461bcd60e51b815260206004820152601360248201527f77726f6e672d726563656970742d746f6b656e000000000000000000000000006044820152606401610545565b7f00000000000000000000000000000000000000000000000000000000000000006001600160a01b0316630d09365c6040518163ffffffff1660e01b8152600401608060405180830381600087803b15801561348257600080fd5b505af1158015613496573d6000803e3d6000fd5b505050506040513d601f19601f820116820180604052508101906134ba9190614e5d565b505050506134c961212461317c565b604051635ad7983160e11b81523060048201527f00000000000000000000000000000000000000000000000000000000000000006001600160a01b03169063d41ddc9690829063b5af30629060240160206040518083038186803b15801561353057600080fd5b505afa158015613544573d6000803e3d6000fd5b505050506040513d601f19601f820116820180604052508101906135689190614dad565b6040516001600160e01b031960e084901b1681526004810191909152306024820152604401600060405180830381600087803b1580156135a757600080fd5b505af11580156135bb573d6000803e3d6000fd5b5050505050565b80158061364b5750604051636eb1769f60e11b81523060048201526001600160a01b03838116602483015284169063dd62ed3e9060440160206040518083038186803b15801561361157600080fd5b505afa158015613625573d6000803e3d6000fd5b505050506040513d601f19601f820116820180604052508101906136499190614dad565b155b6136bd5760405162461bcd60e51b815260206004820152603660248201527f5361666545524332303a20617070726f76652066726f6d206e6f6e2d7a65726f60448201527f20746f206e6f6e2d7a65726f20616c6c6f77616e6365000000000000000000006064820152608401610545565b6040516001600160a01b03831660248201526044810182905261141490849063095ea7b360e01b906064016124b2565b600254604051636ccb2b0160e01b81526001600160a01b038581166004830152848116602483015260448201849052600160648301523060848301526000921690636ccb2b019060a401602060405180830381600087803b15801561375157600080fd5b505af1158015613765573d6000803e3d6000fd5b505050506040513d601f19601f820116820180604052508101906137899190614dad565b949350505050565b80156106b05760006137a161253f565b6040516370a0823160e01b81523060048201527f00000000000000000000000000000000000000000000000000000000000000006001600160a01b0316906370a082319060240160206040518083038186803b15801561380057600080fd5b505afa158015613814573d6000803e3d6000fd5b505050506040513d601f19601f820116820180604052508101906138389190614dad565b6138429190614e10565b90508082111561386757600061385661317c565b9050613865612d678383614ddc565b505b61074a82614839565b60008181526001830160205260408120546138b757508154600181810184556000848152602080822090930184905584548482528286019093526040902091909155611030565b506000611030565b6000613914826040518060400160405280602081526020017f5361666545524332303a206c6f772d6c6576656c2063616c6c206661696c6564815250856001600160a01b03166149879092919063ffffffff16565b80519091501561141457808060200190518101906139329190614eec565b6114145760405162461bcd60e51b815260206004820152602a60248201527f5361666545524332303a204552433230206f7065726174696f6e20646964206e6044820152691bdd081cdd58d8d9595960b21b6064820152608401610545565b60008060007f00000000000000000000000000000000000000000000000000000000000000006001600160a01b0316638bc6beb26040518163ffffffff1660e01b815260040160206040518083038186803b1580156139ef57600080fd5b505afa158015613a03573d6000803e3d6000fd5b505050506040513d601f19601f82011682018060405250810190613a279190614df3565b90506001600160a01b03811615613a925760405163d279c19160e01b81523060048201526001600160a01b0382169063d279c19190602401600060405180830381600087803b158015613a7957600080fd5b505af1158015613a8d573d6000803e3d6000fd5b505050505b6040516370a0823160e01b81523060048201527f0000000000000000000000000000000000000000000000000000000000000000906001600160a01b038216906370a082319060240160206040518083038186803b158015613af357600080fd5b505afa158015613b07573d6000803e3d6000fd5b505050506040513d601f19601f82011682018060405250810190613b2b9190614dad565b92509250509091565b60008181526001830160205260408120548015613c1d576000613b58600183614ddc565b8554909150600090613b6c90600190614ddc565b9050818114613bd1576000866000018281548110613b8c57613b8c614f0e565b9060005260206000200154905080876000018481548110613baf57613baf614f0e565b6000918252602080832090910192909255918252600188019052604090208390555b8554869080613be257613be2614f24565b600190038181906000526020600020016000905590558560010160008681526020019081526020016000206000905560019350505050611030565b6000915050611030565b600080831580613c35575082155b613c815760405162461bcd60e51b815260206004820152601160248201527f616c6c2d696e7075742d67742d7a65726f0000000000000000000000000000006044820152606401610545565b6000613c8b61317c565b905060075460001415613ca357600092509050613f3e565b604051635ad7983160e11b81523060048201526000907f00000000000000000000000000000000000000000000000000000000000000006001600160a01b03169063b5af30629060240160206040518083038186803b158015613d0557600080fd5b505afa158015613d19573d6000803e3d6000fd5b505050506040513d601f19601f82011682018060405250810190613d3d9190614dad565b905060008615613d5857613d518783614e10565b9050613d6d565b85821115613d6d57613d6a8683614ddc565b90505b60007f00000000000000000000000000000000000000000000000000000000000000006001600160a01b031663fbbbf94c6040518163ffffffff1660e01b8152600401604080518083038186803b158015613dc757600080fd5b505afa158015613ddb573d6000803e3d6000fd5b505050506040513d601f19601f82011682018060405250810190613dff9190614f71565b6020015190506000613e3a6001600160e01b0383167f0000000000000000000000000000000000000000000000000000000000000000614eab565b7f0000000000000000000000000000000000000000000000000000000000000000613e857f000000000000000000000000000000000000000000000000000000000000000086614eab565b613e8f9190614eab565b613e999190614eca565b905080613eb157600085965096505050505050613f3e565b600061271060075483613ec49190614eab565b613ece9190614eca565b9050600061271060065484613ee39190614eab565b613eed9190614eca565b905081871115613f0857613f018188614ddc565b9750613f36565b80871015613f3657613f1a8782614ddc565b98506000613f26614996565b9050808a1115613f34578099505b505b505050505050505b9250929050565b6106b06001600160a01b037f0000000000000000000000000000000000000000000000000000000000000000167f0000000000000000000000000000000000000000000000000000000000000000836135c2565b6002546040516353b609b560e01b81526001600160a01b037f0000000000000000000000000000000000000000000000000000000000000000811660048301527f0000000000000000000000000000000000000000000000000000000000000000811660248301526044820184905260009216906353b609b590606401602060405180830381600087803b15801561403057600080fd5b505af1158015614044573d6000803e3d6000fd5b505050506040513d601f19601f820116820180604052508101906140689190614dad565b9050801561074a576040516370a0823160e01b81523060048201526000907f00000000000000000000000000000000000000000000000000000000000000006001600160a01b0316906370a082319060240160206040518083038186803b1580156140d257600080fd5b505afa1580156140e6573d6000803e3d6000fd5b505050506040513d601f19601f8201168201806040525081019061410a9190614dad565b9050808211156141a5576001600160a01b037f00000000000000000000000000000000000000000000000000000000000000001663d41ddc9661414d8385614ddc565b6040516001600160e01b031960e084901b1681526004810191909152306024820152604401600060405180830381600087803b15801561418c57600080fd5b505af11580156141a0573d6000803e3d6000fd5b505050505b6002546040516381cc619b60e01b81526001600160a01b037f0000000000000000000000000000000000000000000000000000000000000000811660048301527f0000000000000000000000000000000000000000000000000000000000000000811660248301526044820186905260648201859052306084830152909116906381cc619b9060a401602060405180830381600087803b15801561424857600080fd5b505af115801561425c573d6000803e3d6000fd5b505050506040513d601f19601f820116820180604052508101906133309190614dad565b60007f00000000000000000000000000000000000000000000000000000000000000006001600160a01b03166399530b066040518163ffffffff1660e01b815260040160206040518083038186803b1580156142db57600080fd5b505afa1580156142ef573d6000803e3d6000fd5b505050506040513d601f19601f820116820180604052508101906143139190614dad565b905060008161432a84670de0b6b3a7640000614eab565b6143349190614eca565b9050670de0b6b3a76400006143498383614eab565b6143539190614eca565b831161435f578061436a565b61436a816001614e10565b6040516370a0823160e01b81523060048201529091506000906001600160a01b037f000000000000000000000000000000000000000000000000000000000000000016906370a082319060240160206040518083038186803b1580156143cf57600080fd5b505afa1580156143e3573d6000803e3d6000fd5b505050506040513d601f19601f820116820180604052508101906144079190614dad565b90508082116144165781614418565b805b9150811561333057604051632e1a7d4d60e01b8152600481018390527f00000000000000000000000000000000000000000000000000000000000000006001600160a01b031690632e1a7d4d90602401600060405180830381600087803b15801561448257600080fd5b505af1158015614496573d6000803e3d6000fd5b5050505050505050565b6040516370a0823160e01b81523060048201526000907f00000000000000000000000000000000000000000000000000000000000000006001600160a01b0316906370a082319060240160206040518083038186803b15801561450257600080fd5b505afa158015614516573d6000803e3d6000fd5b505050506040513d601f19601f8201168201806040525081019061453a9190614dad565b905060008061454a836000613c27565b909250905080156146505761455e81613791565b6040516370a0823160e01b81523060048201527f00000000000000000000000000000000000000000000000000000000000000006001600160a01b0316906370a082319060240160206040518083038186803b1580156145bd57600080fd5b505afa1580156145d1573d6000803e3d6000fd5b505050506040513d601f19601f820116820180604052508101906145f59190614dad565b925082156114145760405163cadac47960e01b8152600481018490523060248201527f00000000000000000000000000000000000000000000000000000000000000006001600160a01b03169063cadac479906044016128c4565b8115611414576040516372f89d8b60e11b815260048101839052602481018490523060448201527f00000000000000000000000000000000000000000000000000000000000000006001600160a01b03169063e5f13b1690606401602060405180830381600087803b1580156146c557600080fd5b505af11580156146d9573d6000803e3d6000fd5b505050506040513d601f19601f820116820180604052508101906146fd9190614dad565b506040516370a0823160e01b81523060048201526001600160a01b037f000000000000000000000000000000000000000000000000000000000000000081169163b6b55f25917f000000000000000000000000000000000000000000000000000000000000000016906370a082319060240160206040518083038186803b15801561478757600080fd5b505afa15801561479b573d6000803e3d6000fd5b505050506040513d601f19601f820116820180604052508101906147bf9190614dad565b6040518263ffffffff1660e01b81526004016128c491815260200190565b60608160000180548060200260200160405190810160405280929190818152602001828054801561482d57602002820191906000526020600020905b815481526020019060010190808311614819575b50505050509050919050565b61484281614280565b60405163309c295160e21b815260048101829052600060248201819052907f00000000000000000000000000000000000000000000000000000000000000006001600160a01b03169063c270a5449060440160206040518083038186803b1580156148ac57600080fd5b505afa1580156148c0573d6000803e3d6000fd5b505050506040513d601f19601f820116820180604052508101906148e49190614dad565b604051633d417d2d60e01b8152600481018290523060248201529091507f00000000000000000000000000000000000000000000000000000000000000006001600160a01b031690633d417d2d90604401602060405180830381600087803b15801561494f57600080fd5b505af1158015614963573d6000803e3d6000fd5b505050506040513d601f19601f820116820180604052508101906114149190614dad565b60606137898484600085614b07565b6000807f00000000000000000000000000000000000000000000000000000000000000006001600160a01b031663f9557ccb6040518163ffffffff1660e01b8152600401604080518083038186803b1580156149f157600080fd5b505afa158015614a05573d6000803e3d6000fd5b505050506040513d601f19601f82011682018060405250810190614a299190614fec565b600001516fffffffffffffffffffffffffffffffff16905060007f00000000000000000000000000000000000000000000000000000000000000006001600160a01b0316638285ef406040518163ffffffff1660e01b8152600401604080518083038186803b158015614a9b57600080fd5b505afa158015614aaf573d6000803e3d6000fd5b505050506040513d601f19601f82011682018060405250810190614ad39190614fec565b516fffffffffffffffffffffffffffffffff169050808211614af6576000614b00565b614b008183614ddc565b9250505090565b606082471015614b685760405162461bcd60e51b815260206004820152602660248201527f416464726573733a20696e73756666696369656e742062616c616e636520666f6044820152651c8818d85b1b60d21b6064820152608401610545565b843b614bb65760405162461bcd60e51b815260206004820152601d60248201527f416464726573733a2063616c6c20746f206e6f6e2d636f6e74726163740000006044820152606401610545565b600080866001600160a01b03168587604051614bd2919061501d565b60006040518083038185875af1925050503d8060008114614c0f576040519150601f19603f3d011682016040523d82523d6000602084013e614c14565b606091505b5091509150614c24828286614c2f565b979650505050505050565b60608315614c3e575081612344565b825115614c4e5782518084602001fd5b8160405162461bcd60e51b81526004016105459190614d2c565b6001600160a01b03811681146106b057600080fd5b600060208284031215614c8f57600080fd5b813561234481614c68565b600060208284031215614cac57600080fd5b5035919050565b6020808252825182820181905260009190848201906040850190845b81811015614cf45783516001600160a01b031683529284019291840191600101614ccf565b50909695505050505050565b60005b83811015614d1b578181015183820152602001614d03565b838111156133305750506000910152565b6020815260008251806020840152614d4b816040850160208701614d00565b601f01601f19169190910160400192915050565b60008060408385031215614d7257600080fd5b8235614d7d81614c68565b946020939093013593505050565b60008060408385031215614d9e57600080fd5b50508035926020909101359150565b600060208284031215614dbf57600080fd5b5051919050565b634e487b7160e01b600052601160045260246000fd5b600082821015614dee57614dee614dc6565b500390565b600060208284031215614e0557600080fd5b815161234481614c68565b60008219821115614e2357614e23614dc6565b500190565b600181811c90821680614e3c57607f821691505b6020821081141561092e57634e487b7160e01b600052602260045260246000fd5b60008060008060808587031215614e7357600080fd5b845193506020850151925060408501519150606085015167ffffffffffffffff81168114614ea057600080fd5b939692955090935050565b6000816000190483118215151615614ec557614ec5614dc6565b500290565b600082614ee757634e487b7160e01b600052601260045260246000fd5b500490565b600060208284031215614efe57600080fd5b8151801515811461234457600080fd5b634e487b7160e01b600052603260045260246000fd5b634e487b7160e01b600052603160045260246000fd5b6040805190810167ffffffffffffffff81118282101715614f6b57634e487b7160e01b600052604160045260246000fd5b60405290565b600060408284031215614f8357600080fd5b614f8b614f3a565b825163ffffffff81168114614f9f57600080fd5b815260208301516001600160e01b0381168114614fbb57600080fd5b60208201529392505050565b80516fffffffffffffffffffffffffffffffff81168114614fe757600080fd5b919050565b600060408284031215614ffe57600080fd5b615006614f3a565b61500f83614fc7565b8152614fbb60208401614fc7565b6000825161502f818460208701614d00565b919091019291505056fea2646970667358221220984ae17113dc54e0e6cdfbc6f0261847b0c9bd5b2b33da53d4516409fe8608e664736f6c63430008090033",
  "devdoc": {
    "kind": "dev",
    "methods": {
      "addKeeper(address)": {
        "params": {
          "_keeperAddress": "keeper address to add."
        }
      },
      "approveToken(uint256)": {
        "details": "Approve all required tokens"
      },
      "migrate(address)": {
        "details": "_beforeMigration hook can be implemented in child strategy to do extra steps.",
        "params": {
          "_newStrategy": "Address of new strategy"
        }
      },
      "rebalance()": {
        "returns": {
          "_loss": "Realized loss, if any, in collateral.",
          "_payback": "If strategy has any excess debt, we have to liquidate asset to payback excess debt.",
          "_profit": "Realized profit in collateral."
        }
      },
      "recoverBorrowToken(uint256)": {
        "details": "If we get liquidation in protocol, we will have borrowToken sitting in strategy. This function allows to recover idle borrow token amount.",
        "params": {
          "_amountToRecover": "Amount of borrow token we want to recover in 1 call.      Set it 0 to recover all available borrow tokens"
        }
      },
      "removeKeeper(address)": {
        "params": {
          "_keeperAddress": "keeper address to remove."
        }
      },
      "repayAll()": {
        "details": "This action usually done when loss is detected in strategy.0 borrow limit make sure that any future rebalance do not borrow again."
      },
      "sweep(address)": {
        "params": {
          "_fromToken": "token address to sweep"
        }
      },
      "updateBorrowLimit(uint256,uint256)": {
        "details": "It is possible to set 0 as _minBorrowLimit to not borrow anything",
        "params": {
          "_maxBorrowLimit": "It is % of actual collateral factor of protocol",
          "_minBorrowLimit": "It is % of actual collateral factor of protocol"
        }
      },
      "updateFeeCollector(address)": {
        "params": {
          "_feeCollector": "fee collector address"
        }
      },
      "updateSwapper(address)": {
        "params": {
          "_swapper": "swapper address"
        }
      },
      "withdraw(uint256)": {
        "params": {
          "_amount": "Amount of collateral token"
        }
      }
    },
    "title": "This strategy will deposit collateral token in FraxLend and based on position it will borrow Frax and supplied borrowed tokens to Vesper pool.",
    "version": 1
  },
  "userdoc": {
    "kind": "user",
    "methods": {
      "addKeeper(address)": {
        "notice": "Add given address in keepers list."
      },
      "borrowBalance()": {
        "notice": "Gets amount of borrowed token in strategy + borrowed tokens deposited in vPool"
      },
      "claimAndSwapRewards(uint256)": {
        "notice": "Claim rewardToken and convert rewardToken into collateral token."
      },
      "collateral()": {
        "notice": "Returns address of token correspond to collateral token"
      },
      "keepers()": {
        "notice": "Return list of keepers"
      },
      "migrate(address)": {
        "notice": "Migrate all asset and vault ownership,if any, to new strategy"
      },
      "rebalance()": {
        "notice": "OnlyKeeper: Rebalance profit, loss and investment of this strategy.  Calculate profit, loss and payback of this strategy and realize profit/loss and  withdraw fund for payback, if any, and submit this report to pool."
      },
      "recoverBorrowToken(uint256)": {
        "notice": "Recover extra borrow tokens from strategy"
      },
      "removeKeeper(address)": {
        "notice": "Remove given address from keepers list."
      },
      "repayAll()": {
        "notice": "Repay all borrow amount and set min borrow limit to 0."
      },
      "swapToCollateral(address,uint256)": {
        "notice": "onlyKeeper:: Swap given token into collateral token."
      },
      "sweep(address)": {
        "notice": "sweep given token to feeCollector of strategy"
      },
      "token()": {
        "notice": "Returns address of token correspond to receipt token"
      },
      "tvl()": {
        "notice": "Returns total collateral locked in the strategy"
      },
      "updateBorrowLimit(uint256,uint256)": {
        "notice": "Update upper and lower borrow limit. Usually maxBorrowLimit < 100% of actual collateral factor of protocol."
      },
      "updateFeeCollector(address)": {
        "notice": "Update fee collector"
      },
      "updateSwapper(address)": {
        "notice": "Update swapper"
      },
      "withdraw(uint256)": {
        "notice": "Withdraw collateral token from end protocol."
      }
    },
    "version": 1
  },
  "storageLayout": {
    "storage": [
      {
        "astId": 15000,
        "contract": "vesper-strategies/contracts/strategies/frax-lend/FraxLendVesperXy.sol:FraxLendVesperXy",
        "label": "receiptToken",
        "offset": 0,
        "slot": "0",
        "type": "t_address"
      },
      {
        "astId": 15006,
        "contract": "vesper-strategies/contracts/strategies/frax-lend/FraxLendVesperXy.sol:FraxLendVesperXy",
        "label": "feeCollector",
        "offset": 0,
        "slot": "1",
        "type": "t_address"
      },
      {
        "astId": 15009,
        "contract": "vesper-strategies/contracts/strategies/frax-lend/FraxLendVesperXy.sol:FraxLendVesperXy",
        "label": "swapper",
        "offset": 0,
        "slot": "2",
        "type": "t_contract(IRoutedSwapper)13446"
      },
      {
        "astId": 15022,
        "contract": "vesper-strategies/contracts/strategies/frax-lend/FraxLendVesperXy.sol:FraxLendVesperXy",
        "label": "_keepers",
        "offset": 0,
        "slot": "3",
        "type": "t_struct(AddressSet)3030_storage"
      },
      {
        "astId": 31753,
        "contract": "vesper-strategies/contracts/strategies/frax-lend/FraxLendVesperXy.sol:FraxLendVesperXy",
        "label": "NAME",
        "offset": 0,
        "slot": "5",
        "type": "t_string_storage"
      },
      {
        "astId": 31762,
        "contract": "vesper-strategies/contracts/strategies/frax-lend/FraxLendVesperXy.sol:FraxLendVesperXy",
        "label": "minBorrowLimit",
        "offset": 0,
        "slot": "6",
        "type": "t_uint256"
      },
      {
        "astId": 31765,
        "contract": "vesper-strategies/contracts/strategies/frax-lend/FraxLendVesperXy.sol:FraxLendVesperXy",
        "label": "maxBorrowLimit",
        "offset": 0,
        "slot": "7",
        "type": "t_uint256"
      }
    ],
    "types": {
      "t_address": {
        "encoding": "inplace",
        "label": "address",
        "numberOfBytes": "20"
      },
      "t_array(t_bytes32)dyn_storage": {
        "base": "t_bytes32",
        "encoding": "dynamic_array",
        "label": "bytes32[]",
        "numberOfBytes": "32"
      },
      "t_bytes32": {
        "encoding": "inplace",
        "label": "bytes32",
        "numberOfBytes": "32"
      },
      "t_contract(IRoutedSwapper)13446": {
        "encoding": "inplace",
        "label": "contract IRoutedSwapper",
        "numberOfBytes": "20"
      },
      "t_mapping(t_bytes32,t_uint256)": {
        "encoding": "mapping",
        "key": "t_bytes32",
        "label": "mapping(bytes32 => uint256)",
        "numberOfBytes": "32",
        "value": "t_uint256"
      },
      "t_string_storage": {
        "encoding": "bytes",
        "label": "string",
        "numberOfBytes": "32"
      },
      "t_struct(AddressSet)3030_storage": {
        "encoding": "inplace",
        "label": "struct EnumerableSet.AddressSet",
        "members": [
          {
            "astId": 3029,
            "contract": "vesper-strategies/contracts/strategies/frax-lend/FraxLendVesperXy.sol:FraxLendVesperXy",
            "label": "_inner",
            "offset": 0,
            "slot": "0",
            "type": "t_struct(Set)2729_storage"
          }
        ],
        "numberOfBytes": "64"
      },
      "t_struct(Set)2729_storage": {
        "encoding": "inplace",
        "label": "struct EnumerableSet.Set",
        "members": [
          {
            "astId": 2724,
            "contract": "vesper-strategies/contracts/strategies/frax-lend/FraxLendVesperXy.sol:FraxLendVesperXy",
            "label": "_values",
            "offset": 0,
            "slot": "0",
            "type": "t_array(t_bytes32)dyn_storage"
          },
          {
            "astId": 2728,
            "contract": "vesper-strategies/contracts/strategies/frax-lend/FraxLendVesperXy.sol:FraxLendVesperXy",
            "label": "_indexes",
            "offset": 0,
            "slot": "1",
            "type": "t_mapping(t_bytes32,t_uint256)"
          }
        ],
        "numberOfBytes": "64"
      },
      "t_uint256": {
        "encoding": "inplace",
        "label": "uint256",
        "numberOfBytes": "32"
      }
    }
  }
}