{
  "address": "0xeb365dfEFEEBe677281da9114A0B66d4dbBFA6D8",
  "abi": [
    {
      "inputs": [
        {
          "internalType": "address",
          "name": "pool_",
          "type": "address"
        },
        {
          "internalType": "address",
          "name": "crvPool_",
          "type": "address"
        },
        {
          "internalType": "uint256",
          "name": "crvSlippage_",
          "type": "uint256"
        },
        {
          "internalType": "address",
          "name": "masterOracle_",
          "type": "address"
        },
        {
          "internalType": "address",
          "name": "swapper_",
          "type": "address"
        },
        {
          "internalType": "uint256",
          "name": "collateralIdx_",
          "type": "uint256"
        },
        {
          "internalType": "uint256",
          "name": "convexPoolId_",
          "type": "uint256"
        },
        {
          "internalType": "string",
          "name": "_name",
          "type": "string"
        }
      ],
      "stateMutability": "nonpayable",
      "type": "constructor"
    },
    {
      "anonymous": false,
      "inputs": [
        {
          "indexed": false,
          "internalType": "uint256",
          "name": "oldCrvSlippage",
          "type": "uint256"
        },
        {
          "indexed": false,
          "internalType": "uint256",
          "name": "newCrvSlippage",
          "type": "uint256"
        }
      ],
      "name": "CrvSlippageUpdated",
      "type": "event"
    },
    {
      "anonymous": false,
      "inputs": [
        {
          "indexed": false,
          "internalType": "contract IMasterOracle",
          "name": "oldMasterOracle",
          "type": "address"
        },
        {
          "indexed": false,
          "internalType": "contract IMasterOracle",
          "name": "newMasterOracle",
          "type": "address"
        }
      ],
      "name": "MasterOracleUpdated",
      "type": "event"
    },
    {
      "anonymous": false,
      "inputs": [
        {
          "indexed": true,
          "internalType": "address",
          "name": "previousFeeCollector",
          "type": "address"
        },
        {
          "indexed": true,
          "internalType": "address",
          "name": "newFeeCollector",
          "type": "address"
        }
      ],
      "name": "UpdatedFeeCollector",
      "type": "event"
    },
    {
      "anonymous": false,
      "inputs": [
        {
          "indexed": true,
          "internalType": "contract IRoutedSwapper",
          "name": "oldSwapper",
          "type": "address"
        },
        {
          "indexed": true,
          "internalType": "contract IRoutedSwapper",
          "name": "newSwapper",
          "type": "address"
        }
      ],
      "name": "UpdatedSwapper",
      "type": "event"
    },
    {
      "inputs": [],
      "name": "ADDRESS_PROVIDER",
      "outputs": [
        {
          "internalType": "contract IAddressProvider",
          "name": "",
          "type": "address"
        }
      ],
      "stateMutability": "view",
      "type": "function"
    },
    {
      "inputs": [],
      "name": "BOOSTER",
      "outputs": [
        {
          "internalType": "contract IConvex",
          "name": "",
          "type": "address"
        }
      ],
      "stateMutability": "view",
      "type": "function"
    },
    {
      "inputs": [],
      "name": "CRV",
      "outputs": [
        {
          "internalType": "address",
          "name": "",
          "type": "address"
        }
      ],
      "stateMutability": "view",
      "type": "function"
    },
    {
      "inputs": [],
      "name": "CRV_MINTER",
      "outputs": [
        {
          "internalType": "contract ITokenMinter",
          "name": "",
          "type": "address"
        }
      ],
      "stateMutability": "view",
      "type": "function"
    },
    {
      "inputs": [],
      "name": "CVX",
      "outputs": [
        {
          "internalType": "address",
          "name": "",
          "type": "address"
        }
      ],
      "stateMutability": "view",
      "type": "function"
    },
    {
      "inputs": [],
      "name": "NAME",
      "outputs": [
        {
          "internalType": "string",
          "name": "",
          "type": "string"
        }
      ],
      "stateMutability": "view",
      "type": "function"
    },
    {
      "inputs": [],
      "name": "VERSION",
      "outputs": [
        {
          "internalType": "string",
          "name": "",
          "type": "string"
        }
      ],
      "stateMutability": "view",
      "type": "function"
    },
    {
      "inputs": [
        {
          "internalType": "address",
          "name": "_keeperAddress",
          "type": "address"
        }
      ],
      "name": "addKeeper",
      "outputs": [],
      "stateMutability": "nonpayable",
      "type": "function"
    },
    {
      "inputs": [],
      "name": "approveToken",
      "outputs": [],
      "stateMutability": "nonpayable",
      "type": "function"
    },
    {
      "inputs": [],
      "name": "collateral",
      "outputs": [
        {
          "internalType": "address",
          "name": "",
          "type": "address"
        }
      ],
      "stateMutability": "view",
      "type": "function"
    },
    {
      "inputs": [],
      "name": "collateralIdx",
      "outputs": [
        {
          "internalType": "uint256",
          "name": "",
          "type": "uint256"
        }
      ],
      "stateMutability": "view",
      "type": "function"
    },
    {
      "inputs": [],
      "name": "collateralToken",
      "outputs": [
        {
          "internalType": "contract IERC20",
          "name": "",
          "type": "address"
        }
      ],
      "stateMutability": "view",
      "type": "function"
    },
    {
      "inputs": [],
      "name": "convexPoolId",
      "outputs": [
        {
          "internalType": "uint256",
          "name": "",
          "type": "uint256"
        }
      ],
      "stateMutability": "view",
      "type": "function"
    },
    {
      "inputs": [],
      "name": "crvGauge",
      "outputs": [
        {
          "internalType": "contract ILiquidityGaugeV2",
          "name": "",
          "type": "address"
        }
      ],
      "stateMutability": "view",
      "type": "function"
    },
    {
      "inputs": [],
      "name": "crvLp",
      "outputs": [
        {
          "internalType": "contract IERC20",
          "name": "",
          "type": "address"
        }
      ],
      "stateMutability": "view",
      "type": "function"
    },
    {
      "inputs": [],
      "name": "crvPool",
      "outputs": [
        {
          "internalType": "address",
          "name": "",
          "type": "address"
        }
      ],
      "stateMutability": "view",
      "type": "function"
    },
    {
      "inputs": [],
      "name": "crvSlippage",
      "outputs": [
        {
          "internalType": "uint256",
          "name": "",
          "type": "uint256"
        }
      ],
      "stateMutability": "view",
      "type": "function"
    },
    {
      "inputs": [],
      "name": "cvxCrvRewards",
      "outputs": [
        {
          "internalType": "contract Rewards",
          "name": "",
          "type": "address"
        }
      ],
      "stateMutability": "view",
      "type": "function"
    },
    {
      "inputs": [],
      "name": "feeCollector",
      "outputs": [
        {
          "internalType": "address",
          "name": "",
          "type": "address"
        }
      ],
      "stateMutability": "view",
      "type": "function"
    },
    {
      "inputs": [
        {
          "internalType": "address",
          "name": "token_",
          "type": "address"
        }
      ],
      "name": "isReservedToken",
      "outputs": [
        {
          "internalType": "bool",
          "name": "",
          "type": "bool"
        }
      ],
      "stateMutability": "view",
      "type": "function"
    },
    {
      "inputs": [],
      "name": "keepers",
      "outputs": [
        {
          "internalType": "address[]",
          "name": "",
          "type": "address[]"
        }
      ],
      "stateMutability": "view",
      "type": "function"
    },
    {
      "inputs": [],
      "name": "lpBalanceHere",
      "outputs": [
        {
          "internalType": "uint256",
          "name": "_lpHere",
          "type": "uint256"
        }
      ],
      "stateMutability": "view",
      "type": "function"
    },
    {
      "inputs": [],
      "name": "lpBalanceHereAndStaked",
      "outputs": [
        {
          "internalType": "uint256",
          "name": "_lpHereAndStaked",
          "type": "uint256"
        }
      ],
      "stateMutability": "view",
      "type": "function"
    },
    {
      "inputs": [],
      "name": "lpBalanceStaked",
      "outputs": [
        {
          "internalType": "uint256",
          "name": "_total",
          "type": "uint256"
        }
      ],
      "stateMutability": "view",
      "type": "function"
    },
    {
      "inputs": [],
      "name": "masterOracle",
      "outputs": [
        {
          "internalType": "contract IMasterOracle",
          "name": "",
          "type": "address"
        }
      ],
      "stateMutability": "view",
      "type": "function"
    },
    {
      "inputs": [
        {
          "internalType": "address",
          "name": "_newStrategy",
          "type": "address"
        }
      ],
      "name": "migrate",
      "outputs": [],
      "stateMutability": "nonpayable",
      "type": "function"
    },
    {
      "inputs": [],
      "name": "pool",
      "outputs": [
        {
          "internalType": "address",
          "name": "",
          "type": "address"
        }
      ],
      "stateMutability": "view",
      "type": "function"
    },
    {
      "inputs": [],
      "name": "rebalance",
      "outputs": [
        {
          "internalType": "uint256",
          "name": "_profit",
          "type": "uint256"
        },
        {
          "internalType": "uint256",
          "name": "_loss",
          "type": "uint256"
        },
        {
          "internalType": "uint256",
          "name": "_payback",
          "type": "uint256"
        }
      ],
      "stateMutability": "nonpayable",
      "type": "function"
    },
    {
      "inputs": [],
      "name": "receiptToken",
      "outputs": [
        {
          "internalType": "address",
          "name": "",
          "type": "address"
        }
      ],
      "stateMutability": "view",
      "type": "function"
    },
    {
      "inputs": [
        {
          "internalType": "address",
          "name": "_keeperAddress",
          "type": "address"
        }
      ],
      "name": "removeKeeper",
      "outputs": [],
      "stateMutability": "nonpayable",
      "type": "function"
    },
    {
      "inputs": [
        {
          "internalType": "uint256",
          "name": "",
          "type": "uint256"
        }
      ],
      "name": "rewardTokens",
      "outputs": [
        {
          "internalType": "address",
          "name": "",
          "type": "address"
        }
      ],
      "stateMutability": "view",
      "type": "function"
    },
    {
      "inputs": [
        {
          "internalType": "address[]",
          "name": "",
          "type": "address[]"
        }
      ],
      "name": "setRewardTokens",
      "outputs": [],
      "stateMutability": "nonpayable",
      "type": "function"
    },
    {
      "inputs": [],
      "name": "swapper",
      "outputs": [
        {
          "internalType": "contract IRoutedSwapper",
          "name": "",
          "type": "address"
        }
      ],
      "stateMutability": "view",
      "type": "function"
    },
    {
      "inputs": [
        {
          "internalType": "address",
          "name": "_fromToken",
          "type": "address"
        }
      ],
      "name": "sweepERC20",
      "outputs": [],
      "stateMutability": "nonpayable",
      "type": "function"
    },
    {
      "inputs": [],
      "name": "token",
      "outputs": [
        {
          "internalType": "address",
          "name": "",
          "type": "address"
        }
      ],
      "stateMutability": "view",
      "type": "function"
    },
    {
      "inputs": [],
      "name": "tvl",
      "outputs": [
        {
          "internalType": "uint256",
          "name": "",
          "type": "uint256"
        }
      ],
      "stateMutability": "view",
      "type": "function"
    },
    {
      "inputs": [
        {
          "internalType": "uint256",
          "name": "newCrvSlippage_",
          "type": "uint256"
        }
      ],
      "name": "updateCrvSlippage",
      "outputs": [],
      "stateMutability": "nonpayable",
      "type": "function"
    },
    {
      "inputs": [
        {
          "internalType": "address",
          "name": "_feeCollector",
          "type": "address"
        }
      ],
      "name": "updateFeeCollector",
      "outputs": [],
      "stateMutability": "nonpayable",
      "type": "function"
    },
    {
      "inputs": [
        {
          "internalType": "contract IMasterOracle",
          "name": "newMasterOracle_",
          "type": "address"
        }
      ],
      "name": "updateMasterOracle",
      "outputs": [],
      "stateMutability": "nonpayable",
      "type": "function"
    },
    {
      "inputs": [
        {
          "internalType": "contract IRoutedSwapper",
          "name": "_swapper",
          "type": "address"
        }
      ],
      "name": "updateSwapper",
      "outputs": [],
      "stateMutability": "nonpayable",
      "type": "function"
    },
    {
      "inputs": [
        {
          "internalType": "uint256",
          "name": "_amount",
          "type": "uint256"
        }
      ],
      "name": "withdraw",
      "outputs": [],
      "stateMutability": "nonpayable",
      "type": "function"
    }
  ],
  "transactionHash": "0x7c11133cecd42f92bfacf51a0114716bd412c3b1093144cd47e43891338f5cfa",
  "args": [
    "0xc14900dFB1Aa54e7674e1eCf9ce02b3b35157ba5",
    "0xDcEF968d416a41Cdac0ED8702fAC8128A64241A2",
    50,
    "0xdB2D0baae78f1dc2A8504B471F3cea257b2C3766",
    "0x8f156189A3CD28dFc8FB7BbbAce58F98F09c0bB3",
    0,
    100,
    "Convex_fraxusdc_FRAX"
  ],
  "numDeployments": 1,
  "solcInputHash": "4040d041c2528b9ffde1f617c463dec7",
  "bytecode": "0x610180604052600580546001600160a01b03191673d533a949740bb3306d119cc777fa900ba034cd521790553480156200003857600080fd5b50604051620054df380380620054df8339810160408190526200005b9162001049565b818888888888888786868686868686868360006001600160a01b038316620000ca5760405162461bcd60e51b815260206004820152601460248201527f706f6f6c2d616464726573732d69732d7a65726f00000000000000000000000060448201526064015b60405180910390fd5b6001600160a01b038216620001225760405162461bcd60e51b815260206004820152601760248201527f737761707065722d616464726573732d69732d7a65726f0000000000000000006044820152606401620000c1565b600280546001600160a01b0319166001600160a01b0384811691909117909155831660a081905260408051637e062a3560e11b8152905163fc0c546a91600480820192602092909190829003018186803b1580156200018057600080fd5b505afa15801562000195573d6000803e3d6000fd5b505050506040513d601f19601f82011682018060405250810190620001bb91906200117f565b6001600160a01b03908116608052600080546001600160a01b03191691831691909117905562000202620001ec3390565b600362000ecf60201b62001a0d1790919060201c565b620002445760405162461bcd60e51b81526020600482015260116024820152701859190b5ad9595c195c8b59985a5b1959607a1b6044820152606401620000c1565b5050504661a86a14156200027e57600580546001600160a01b0319167347536f17f4ff30e64a96a7555826b8f9e66ec468179055620002e6565b4660891415620002b457600580546001600160a01b03191673172370d5cd63279efa6d502dab29171933a610af179055620002e6565b4661a4b11415620002e657600580546001600160a01b0319167311cdb42b0eb46d95f990bedd4695a6e3fa0349781790555b6000806000806f22d53366457f9d5e68ec105046fc43836001600160a01b031663a262904b6040518163ffffffff1660e01b815260040160206040518083038186803b1580156200033657600080fd5b505afa1580156200034b573d6000803e3d6000fd5b505050506040513d601f19601f820116820180604052508101906200037191906200117f565b604051633795104960e01b81526001600160a01b038c811660048301529192509082169063379510499060240160206040518083038186803b158015620003b757600080fd5b505afa158015620003cc573d6000803e3d6000fd5b505050506040513d601f19601f82011682018060405250810190620003f291906200117f565b93506001600160a01b03841615806200063e5760405163940494f160e01b81526001600160a01b038c8116600483015283169063940494f190602401604080518083038186803b1580156200044657600080fd5b505afa1580156200045b573d6000803e3d6000fd5b505050506040513d601f19601f82011682018060405250810190620004819190620011a6565b602001518710620004ca5760405162461bcd60e51b81526020600482015260126024820152711a5b9d985b1a590b58dbdb1b185d195c985b60721b6044820152606401620000c1565b60405163a77576ef60e01b81526001600160a01b038c8116600483015283169063a77576ef906024016101006040518083038186803b1580156200050d57600080fd5b505afa15801562000522573d6000803e3d6000fd5b505050506040513d601f19601f8201168201806040525081019062000548919062001243565b87600881106200055c576200055c6200122d565b60200201516040516356059ffb60e01b81526001600160a01b038d81166004830152919450908316906356059ffb906024016101406040518083038186803b158015620005a857600080fd5b505afa158015620005bd573d6000803e3d6000fd5b505050506040513d601f19601f82011682018060405250810190620005e39190620012d4565b5193506001600160a01b0384161580156200061a575073dcef968d416a41cdac0ed8702fac8128a64241a26001600160a01b038c16145b15620006385773cfc25170633581bf896cb6cdee170e3e3aa5950393505b62000a8e565b60405163124fd3dd60e21b8152600360048201526000906f22d53366457f9d5e68ec105046fc43839063493f4f749060240160206040518083038186803b1580156200068957600080fd5b505afa1580156200069e573d6000803e3d6000fd5b505050506040513d601f19601f82011682018060405250810190620006c491906200117f565b60405163e4d332a960e01b81526001600160a01b038e811660048301529192509082169063e4d332a99060240160206040518083038186803b1580156200070a57600080fd5b505afa1580156200071f573d6000803e3d6000fd5b505050506040513d601f19601f8201168201806040525081019062000745919062001370565b15620008af5760405163eb73f37d60e01b81526001600160a01b038d8116600483015282169063eb73f37d90602401604080518083038186803b1580156200078c57600080fd5b505afa158015620007a1573d6000803e3d6000fd5b505050506040513d601f19601f82011682018060405250810190620007c79190620011a6565b602001518810620008105760405162461bcd60e51b81526020600482015260126024820152711a5b9d985b1a590b58dbdb1b185d195c985b60721b6044820152606401620000c1565b60405163a77576ef60e01b81526001600160a01b038d8116600483015282169063a77576ef906024016101006040518083038186803b1580156200085357600080fd5b505afa15801562000868573d6000803e3d6000fd5b505050506040513d601f19601f820116820180604052508101906200088e919062001243565b8860088110620008a257620008a26200122d565b6020020151935062000a0a565b60405163940494f160e01b81526001600160a01b038d8116600483015282169063940494f19060240160206040518083038186803b158015620008f157600080fd5b505afa15801562000906573d6000803e3d6000fd5b505050506040513d601f19601f820116820180604052508101906200092c91906200138e565b8810620009715760405162461bcd60e51b81526020600482015260126024820152711a5b9d985b1a590b58dbdb1b185d195c985b60721b6044820152606401620000c1565b604051639ac90d3d60e01b81526001600160a01b038d81166004830152821690639ac90d3d9060240160806040518083038186803b158015620009b357600080fd5b505afa158015620009c8573d6000803e3d6000fd5b505050506040513d601f19601f82011682018060405250810190620009ee9190620013a8565b886004811062000a025762000a026200122d565b602002015193505b60405163daf297b960e01b81526001600160a01b03808e1660048301528d975082169063daf297b99060240160206040518083038186803b15801562000a4f57600080fd5b505afa15801562000a64573d6000803e3d6000fd5b505050506040513d601f19601f8201168201806040525081019062000a8a91906200117f565b9450505b8b6001600160a01b031663fc0c546a6040518163ffffffff1660e01b815260040160206040518083038186803b15801562000ac857600080fd5b505afa15801562000add573d6000803e3d6000fd5b505050506040513d601f19601f8201168201806040525081019062000b0391906200117f565b6001600160a01b0316836001600160a01b03161462000b655760405162461bcd60e51b815260206004820152601360248201527f636f6c6c61746572616c2d6d69736d61746368000000000000000000000000006044820152606401620000c1565b6001600160a01b038b1662000bac5760405162461bcd60e51b815260206004820152600c60248201526b1c1bdbdb0b5a5ccb5b9d5b1b60a21b6044820152606401620000c1565b6001600160a01b03851662000bf15760405162461bcd60e51b815260206004820152600a6024820152691b1c0b5a5ccb5b9d5b1b60b21b6044820152606401620000c1565b6001600160a01b03841662000c395760405162461bcd60e51b815260206004820152600d60248201526c19d85d59d94b5a5ccb5b9d5b1b609a1b6044820152606401620000c1565b6001600160a01b03808c1660e05285811660c08190529085166101005260078b9055600080546001600160a01b0319169091179055610120879052855162000c8990600690602089019062000f41565b5088600860006101000a8154816001600160a01b0302191690836001600160a01b031602179055506009600560009054906101000a90046001600160a01b03169080600181540180825580915050600190039060005260206000200160009091909190916101000a8154816001600160a01b0302191690836001600160a01b0316021790555050505050505050505050505050505050505050600073f403c135812408bfbe8713b5a23a04b3d48aae316001600160a01b0316631526fe27836040518263ffffffff1660e01b815260040162000d6791815260200190565b60c06040518083038186803b15801562000d8057600080fd5b505afa15801562000d95573d6000803e3d6000fd5b505050506040513d601f19601f8201168201806040525081019062000dbb91906200142d565b50506001600160a01b0316610140525050506101609190915250604051631526fe2760e01b81526004810183905260009073f403c135812408bfbe8713b5a23a04b3d48aae3190631526fe279060240160c06040518083038186803b15801562000e2457600080fd5b505afa15801562000e39573d6000803e3d6000fd5b505050506040513d601f19601f8201168201806040525081019062000e5f91906200142d565b5050505050905060c0516001600160a01b0316816001600160a01b03161462000ec05760405162461bcd60e51b815260206004820152601260248201527134b731b7b93932b1ba16b63816ba37b5b2b760711b6044820152606401620000c1565b505050505050505050620014f9565b600062000ee6836001600160a01b03841662000eef565b90505b92915050565b600081815260018301602052604081205462000f385750815460018181018455600084815260208082209093018490558454848252828601909352604090209190915562000ee9565b50600062000ee9565b82805462000f4f90620014bc565b90600052602060002090601f01602090048101928262000f73576000855562000fbe565b82601f1062000f8e57805160ff191683800117855562000fbe565b8280016001018555821562000fbe579182015b8281111562000fbe57825182559160200191906001019062000fa1565b5062000fcc92915062000fd0565b5090565b5b8082111562000fcc576000815560010162000fd1565b6001600160a01b038116811462000ffd57600080fd5b50565b634e487b7160e01b600052604160045260246000fd5b604051601f8201601f191681016001600160401b038111828210171562001041576200104162001000565b604052919050565b600080600080600080600080610100898b0312156200106757600080fd5b8851620010748162000fe7565b809850506020808a0151620010898162000fe7565b60408b015160608c01519199509750620010a38162000fe7565b60808b0151909650620010b68162000fe7565b60a08b015160c08c015160e08d015192975090955093506001600160401b0380821115620010e357600080fd5b818c0191508c601f830112620010f857600080fd5b8151818111156200110d576200110d62001000565b62001121601f8201601f1916850162001016565b91508082528d848285010111156200113857600080fd5b60005b81811015620011585783810185015183820186015284016200113b565b818111156200116a5760008583850101525b50508093505050509295985092959890939650565b6000602082840312156200119257600080fd5b81516200119f8162000fe7565b9392505050565b600060408284031215620011b957600080fd5b82601f830112620011c957600080fd5b604080519081016001600160401b0381118282101715620011ee57620011ee62001000565b80604052508060408401858111156200120657600080fd5b845b818110156200122257805183526020928301920162001208565b509195945050505050565b634e487b7160e01b600052603260045260246000fd5b60006101008083850312156200125857600080fd5b83601f8401126200126857600080fd5b6040518181016001600160401b03811182821017156200128c576200128c62001000565b604052908301908085831115620012a257600080fd5b845b83811015620012c9578051620012ba8162000fe7565b825260209182019101620012a4565b509095945050505050565b6000610140808385031215620012e957600080fd5b83601f840112620012f957600080fd5b6040518181016001600160401b03811182821017156200131d576200131d62001000565b6040529083019080858311156200133357600080fd5b845b83811015620012c95780516200134b8162000fe7565b82526020918201910162001335565b805180151581146200136b57600080fd5b919050565b6000602082840312156200138357600080fd5b62000ee6826200135a565b600060208284031215620013a157600080fd5b5051919050565b600060808284031215620013bb57600080fd5b82601f830112620013cb57600080fd5b604051608081016001600160401b0381118282101715620013f057620013f062001000565b6040528060808401858111156200140657600080fd5b845b81811015620012225780516200141e8162000fe7565b83526020928301920162001408565b60008060008060008060c087890312156200144757600080fd5b8651620014548162000fe7565b6020880151909650620014678162000fe7565b60408801519095506200147a8162000fe7565b60608801519094506200148d8162000fe7565b6080880151909350620014a08162000fe7565b9150620014b060a088016200135a565b90509295509295509295565b600181811c90821680620014d157607f821691505b60208210811415620014f357634e487b7160e01b600052602260045260246000fd5b50919050565b60805160a05160c05160e05161010051610120516101405161016051613dce620017116000396000818161059e01526136770152600081816104780152818161103601528181611bdd01528181611c9201528181611ef40152818161288501528181612ca60152613414015260008181610348015281816119980152818161214b0152818161303801526134ef0152600081816106040152612b8c0152600081816104d9015281816126a501528181612aaf01528181612e5a015261358a01526000818161040c01528181610c9c01528181610d2b015281816116dc0152818161209d015281816121eb015281816123fa01528181612b6a0152818161354b01526135db0152600081816102850152818161064c015281816107a10152818161093801528181610a5401528181610b3201528181610b8e01528181610ef40152818161106e0152818161110b01528181611337015281816115000152818161229501528181612ecc01528181612f6c01526134a90152600081816104b20152818161055a015281816108df0152818161099701528181610a3201528181610aa601528181610b6501528181610cd70152818161129b015281816117e2015281816119d80152818161220c0152818161231001528181612a8d01528181612ae10152818161300d01528181613092015281816131ea0152818161322c0152818161331001528181613487015261352a0152613dce6000f3fe608060405234801561001057600080fd5b50600436106102535760003560e01c8063a3f4df7e11610146578063d572fd7f116100c3578063e5328e0611610087578063e5328e06146105c0578063eaada382146105c8578063ec78e832146105db578063fc0c546a146105ee578063fd57a4df146105ff578063ffa1ad741461062657600080fd5b8063d572fd7f1461054f578063d8dfeb4514610558578063de603fdc1461057e578063e00af4a714610586578063e529ee951461059957600080fd5b8063c415b95c1161010a578063c415b95c146104fb578063c965fa8a1461050e578063ce5494bb14610516578063d2c35ce814610529578063d3033c391461053c57600080fd5b8063a3f4df7e1461045e578063a7404b7014610473578063abc9b45e1461049a578063b2016bd4146104ad578063b20fdc0d146104d457600080fd5b806374db9ad4116101d45780637d7c2a1c116101985780637d7c2a1c146103e45780637f44579b14610407578063945c91421461042e578063951dc22c1461044157806399b71d5c1461045657600080fd5b806374db9ad414610378578063759cb53b1461039357806375b0ffd1146103ae578063795dae66146103c95780637bb7bed1146103d157600080fd5b80632b3297f91161021b5780632b3297f9146102e75780632e1a7d4d146102fa5780634032b72b1461030d578063440d72481461032057806348cd2ddd1461034357600080fd5b806304f4efc51461025857806314ae9f2e1461026d57806316f0115b146102805780631848effa146102bd578063201e81a8146102d4575b600080fd5b61026b610266366004613954565b61064a565b005b61026b61027b366004613992565b61079f565b6102a77f000000000000000000000000000000000000000000000000000000000000000081565b6040516102b491906139af565b60405180910390f35b6102a76f22d53366457f9d5e68ec105046fc438381565b61026b6102e23660046139d9565b6108b1565b6002546102a7906001600160a01b031681565b61026b610308366004613954565b610935565b61026b61031b366004613992565b610b8c565b61033361032e366004613992565b610c98565b60405190151581526020016102b4565b61036a7f000000000000000000000000000000000000000000000000000000000000000081565b6040519081526020016102b4565b6102a773d061d61a4d941c39e5453435b6345dc261c2fce081565b6102a7734e3fbd56cd56c3e72c1403e103b45db9da5b9d2b81565b6102a773f403c135812408bfbe8713b5a23a04b3d48aae3181565b61036a610d11565b6102a76103df366004613954565b610db5565b6103ec610ddf565b604080519384526020840192909252908201526060016102b4565b6102a77f000000000000000000000000000000000000000000000000000000000000000081565b6005546102a7906001600160a01b031681565b610449610e1c565b6040516102b49190613a9e565b61026b610e28565b610466610e64565b6040516102b49190613b17565b6102a77f000000000000000000000000000000000000000000000000000000000000000081565b61026b6104a8366004613992565b610ef2565b6102a77f000000000000000000000000000000000000000000000000000000000000000081565b6102a77f000000000000000000000000000000000000000000000000000000000000000081565b6001546102a7906001600160a01b031681565b61036a61101c565b61026b610524366004613992565b61106b565b61026b610537366004613992565b611335565b61026b61054a366004613992565b6114fe565b61036a60075481565b7f00000000000000000000000000000000000000000000000000000000000000006102a7565b61036a6116bb565b61026b610594366004613992565b61176b565b61036a7f000000000000000000000000000000000000000000000000000000000000000081565b61036a611986565b6008546102a7906001600160a01b031681565b6000546102a7906001600160a01b031681565b6000546001600160a01b03166102a7565b6102a77f000000000000000000000000000000000000000000000000000000000000000081565b610466604051806040016040528060058152602001640352e302e360dc1b81525081565b7f00000000000000000000000000000000000000000000000000000000000000006001600160a01b0316630c340a246040518163ffffffff1660e01b815260040160206040518083038186803b1580156106a357600080fd5b505afa1580156106b7573d6000803e3d6000fd5b505050506040513d601f19601f820116820180604052508101906106db9190613b4a565b6001600160a01b0316336001600160a01b0316146107145760405162461bcd60e51b815260040161070b90613b67565b60405180910390fd5b612710811061075e5760405162461bcd60e51b8152602060048201526016602482015275696e76616c69642d736c6970706167652d76616c756560501b604482015260640161070b565b60075460408051918252602082018390527f43a94473b3422f31e660358900c02b907f22142a3224beace1f2b9f1fa079a9e910160405180910390a1600755565b7f00000000000000000000000000000000000000000000000000000000000000006001600160a01b0316630c340a246040518163ffffffff1660e01b815260040160206040518083038186803b1580156107f857600080fd5b505afa15801561080c573d6000803e3d6000fd5b505050506040513d601f19601f820116820180604052508101906108309190613b4a565b6001600160a01b0316336001600160a01b0316146108605760405162461bcd60e51b815260040161070b90613b67565b61086b600382611a29565b6108ae5760405162461bcd60e51b81526020600482015260146024820152731c995b5bdd994b5ad9595c195c8b59985a5b195960621b604482015260640161070b565b50565b6108be335b600390611a3e565b6108da5760405162461bcd60e51b815260040161070b90613b9e565b6109037f0000000000000000000000000000000000000000000000000000000000000000611a60565b61090b611bd6565b805161091f916009916020909101906138c0565b5061092a6000612090565b6108ae600019612090565b337f00000000000000000000000000000000000000000000000000000000000000006001600160a01b03161461097d5760405162461bcd60e51b815260040161070b90613bce565b6040516370a0823160e01b81526000906001600160a01b037f000000000000000000000000000000000000000000000000000000000000000016906370a08231906109cc9030906004016139af565b60206040518083038186803b1580156109e457600080fd5b505afa1580156109f8573d6000803e3d6000fd5b505050506040513d601f19601f82011682018060405250810190610a1c9190613c01565b9050818110610a7d57610a796001600160a01b037f0000000000000000000000000000000000000000000000000000000000000000167f0000000000000000000000000000000000000000000000000000000000000000846120e1565b5050565b610a8f610a8a8284613c30565b612144565b6040516370a0823160e01b81526001600160a01b037f000000000000000000000000000000000000000000000000000000000000000016906370a0823190610adb9030906004016139af565b60206040518083038186803b158015610af357600080fd5b505afa158015610b07573d6000803e3d6000fd5b505050506040513d601f19601f82011682018060405250810190610b2b9190613c01565b9050610a797f0000000000000000000000000000000000000000000000000000000000000000610b5b8484612246565b6001600160a01b037f00000000000000000000000000000000000000000000000000000000000000001691906120e1565b7f00000000000000000000000000000000000000000000000000000000000000006001600160a01b0316630c340a246040518163ffffffff1660e01b815260040160206040518083038186803b158015610be557600080fd5b505afa158015610bf9573d6000803e3d6000fd5b505050506040513d601f19601f82011682018060405250810190610c1d9190613b4a565b6001600160a01b0316336001600160a01b031614610c4d5760405162461bcd60e51b815260040161070b90613b67565b610c58600382611a0d565b6108ae5760405162461bcd60e51b81526020600482015260116024820152701859190b5ad9595c195c8b59985a5b1959607a1b604482015260640161070b565b60007f00000000000000000000000000000000000000000000000000000000000000006001600160a01b0316826001600160a01b03161480610d0b57507f00000000000000000000000000000000000000000000000000000000000000006001600160a01b0316826001600160a01b0316145b92915050565b6040516370a0823160e01b81526000906001600160a01b037f000000000000000000000000000000000000000000000000000000000000000016906370a0823190610d609030906004016139af565b60206040518083038186803b158015610d7857600080fd5b505afa158015610d8c573d6000803e3d6000fd5b505050506040513d601f19601f82011682018060405250810190610db09190613c01565b905090565b60098181548110610dc557600080fd5b6000918252602090912001546001600160a01b0316905081565b60008080610dec336108b6565b610e085760405162461bcd60e51b815260040161070b90613b9e565b610e1061225c565b9250925092505b909192565b6060610db06003612301565b610e31336108b6565b610e4d5760405162461bcd60e51b815260040161070b90613b9e565b610e576000612090565b610e62600019612090565b565b60068054610e7190613c47565b80601f0160208091040260200160405190810160405280929190818152602001828054610e9d90613c47565b8015610eea5780601f10610ebf57610100808354040283529160200191610eea565b820191906000526020600020905b815481529060010190602001808311610ecd57829003601f168201915b505050505081565b7f00000000000000000000000000000000000000000000000000000000000000006001600160a01b0316630c340a246040518163ffffffff1660e01b815260040160206040518083038186803b158015610f4b57600080fd5b505afa158015610f5f573d6000803e3d6000fd5b505050506040513d601f19601f82011682018060405250810190610f839190613b4a565b6001600160a01b0316336001600160a01b031614610fb35760405162461bcd60e51b815260040161070b90613b67565b600854604080516001600160a01b03928316815291831660208301527fc96bca3f57d35a1057a3357bced51fac157918147faa56845639671c516ec69c910160405180910390a1600880546001600160a01b0319166001600160a01b0392909216919091179055565b6040516370a0823160e01b81526000906001600160a01b037f000000000000000000000000000000000000000000000000000000000000000016906370a0823190610d609030906004016139af565b337f00000000000000000000000000000000000000000000000000000000000000006001600160a01b0316146110b35760405162461bcd60e51b815260040161070b90613bce565b6001600160a01b0381166111095760405162461bcd60e51b815260206004820152601c60248201527f6e65772d73747261746567792d616464726573732d69732d7a65726f00000000604482015260640161070b565b7f00000000000000000000000000000000000000000000000000000000000000006001600160a01b0316816001600160a01b03166316f0115b6040518163ffffffff1660e01b815260040160206040518083038186803b15801561116c57600080fd5b505afa158015611180573d6000803e3d6000fd5b505050506040513d601f19601f820116820180604052508101906111a49190613b4a565b6001600160a01b0316146111f35760405162461bcd60e51b81526020600482015260166024820152756e6f742d76616c69642d6e65772d737472617465677960501b604482015260640161070b565b6111fc8161230e565b6000546040516370a0823160e01b81526112959183916001600160a01b03909116906370a08231906112329030906004016139af565b60206040518083038186803b15801561124a57600080fd5b505afa15801561125e573d6000803e3d6000fd5b505050506040513d601f19601f820116820180604052508101906112829190613c01565b6000546001600160a01b031691906120e1565b6108ae817f00000000000000000000000000000000000000000000000000000000000000006001600160a01b03166370a08231306040518263ffffffff1660e01b81526004016112e591906139af565b60206040518083038186803b1580156112fd57600080fd5b505afa158015611311573d6000803e3d6000fd5b505050506040513d601f19601f82011682018060405250810190610b5b9190613c01565b7f00000000000000000000000000000000000000000000000000000000000000006001600160a01b0316630c340a246040518163ffffffff1660e01b815260040160206040518083038186803b15801561138e57600080fd5b505afa1580156113a2573d6000803e3d6000fd5b505050506040513d601f19601f820116820180604052508101906113c69190613b4a565b6001600160a01b0316336001600160a01b0316146113f65760405162461bcd60e51b815260040161070b90613b67565b6001600160a01b03811661144c5760405162461bcd60e51b815260206004820152601d60248201527f6665652d636f6c6c6563746f722d616464726573732d69732d7a65726f000000604482015260640161070b565b6001546001600160a01b03828116911614156114a25760405162461bcd60e51b81526020600482015260156024820152746665652d636f6c6c6563746f722d69732d73616d6560581b604482015260640161070b565b6001546040516001600160a01b038084169216907f0f06062680f9bd68e786e9980d9bb03d73d5620fc3b345e417b6eacb310b970690600090a3600180546001600160a01b0319166001600160a01b0392909216919091179055565b7f00000000000000000000000000000000000000000000000000000000000000006001600160a01b0316630c340a246040518163ffffffff1660e01b815260040160206040518083038186803b15801561155757600080fd5b505afa15801561156b573d6000803e3d6000fd5b505050506040513d601f19601f8201168201806040525081019061158f9190613b4a565b6001600160a01b0316336001600160a01b0316146115bf5760405162461bcd60e51b815260040161070b90613b67565b6001600160a01b03811661160f5760405162461bcd60e51b8152602060048201526017602482015276737761707065722d616464726573732d69732d7a65726f60481b604482015260640161070b565b6002546001600160a01b038281169116141561165f5760405162461bcd60e51b815260206004820152600f60248201526e737761707065722d69732d73616d6560881b604482015260640161070b565b6002546040516001600160a01b038084169216907f6c953b7ec311055c20b96a42cea31e89528e375b1bf953a503db40854b3188fe90600090a3600280546001600160a01b0319166001600160a01b0392909216919091179055565b60006116c561101c565b6040516370a0823160e01b81526001600160a01b037f000000000000000000000000000000000000000000000000000000000000000016906370a08231906117119030906004016139af565b60206040518083038186803b15801561172957600080fd5b505afa15801561173d573d6000803e3d6000fd5b505050506040513d601f19601f820116820180604052508101906117619190613c01565b610db09190613c82565b611774336108b6565b6117905760405162461bcd60e51b815260040161070b90613b9e565b6001546001600160a01b03166117e05760405162461bcd60e51b81526020600482015260156024820152741999594b58dbdb1b1958dd1bdc8b5b9bdd0b5cd95d605a1b604482015260640161070b565b7f00000000000000000000000000000000000000000000000000000000000000006001600160a01b0316816001600160a01b031614156118625760405162461bcd60e51b815260206004820152601f60248201527f6e6f742d616c6c6f7765642d746f2d73776565702d636f6c6c61746572616c00604482015260640161070b565b61186b81610c98565b156118af5760405162461bcd60e51b815260206004820152601460248201527306e6f742d616c6c6f7765642d746f2d73776565760641b604482015260640161070b565b6001600160a01b03811673eeeeeeeeeeeeeeeeeeeeeeeeeeeeeeeeeeeeeeee14156118ea576001546108ae906001600160a01b0316476124e7565b6040516370a0823160e01b81526000906001600160a01b038316906370a08231906119199030906004016139af565b60206040518083038186803b15801561193157600080fd5b505afa158015611945573d6000803e3d6000fd5b505050506040513d601f19601f820116820180604052508101906119699190613c01565b600154909150610a79906001600160a01b038481169116836120e1565b60006119c16119936116bb565b6119bc7f0000000000000000000000000000000000000000000000000000000000000000612600565b61267d565b6040516370a0823160e01b81526001600160a01b037f000000000000000000000000000000000000000000000000000000000000000016906370a08231906117119030906004016139af565b6000611a22836001600160a01b038416612727565b9392505050565b6000611a22836001600160a01b038416612776565b6001600160a01b03811660009081526001830160205260408120541515611a22565b611a68612869565b60095460005b81811015611bd157600060098281548110611a8b57611a8b613c9a565b60009182526020822001546040516370a0823160e01b81526001600160a01b03909116925082906370a0823190611ac69030906004016139af565b60206040518083038186803b158015611ade57600080fd5b505afa158015611af2573d6000803e3d6000fd5b505050506040513d601f19601f82011682018060405250810190611b169190613c01565b90508015611bbc57600254604051636ccb2b0160e01b81526001600160a01b0384811660048301528781166024830152604482018490526001606483015230608483015290911690636ccb2b019060a401602060405180830381600087803b158015611b8157600080fd5b505af1925050508015611bb1575060408051601f3d908101601f19168201909252611bae91810190613c01565b60015b611bba57611bbc565b505b50508080611bc990613cb0565b915050611a6e565b505050565b60606000807f00000000000000000000000000000000000000000000000000000000000000006001600160a01b031663d55a23f46040518163ffffffff1660e01b815260040160206040518083038186803b158015611c3457600080fd5b505afa158015611c48573d6000803e3d6000fd5b505050506040513d601f19601f82011682018060405250810190611c6c9190613c01565b905060005b81811015611df657604051632061aa2360e11b8152600481018290526000907f00000000000000000000000000000000000000000000000000000000000000006001600160a01b0316906340c354469060240160206040518083038186803b158015611cdc57600080fd5b505afa158015611cf0573d6000803e3d6000fd5b505050506040513d601f19601f82011682018060405250810190611d149190613b4a565b6001600160a01b031663f7c618c16040518163ffffffff1660e01b815260040160206040518083038186803b158015611d4c57600080fd5b505afa158015611d60573d6000803e3d6000fd5b505050506040513d601f19601f82011682018060405250810190611d849190613b4a565b90506001600160a01b03811673d533a949740bb3306d119cc777fa900ba034cd5214801590611dd057506001600160a01b038116734e3fbd56cd56c3e72c1403e103b45db9da5b9d2b14155b15611de35783611ddf81613cb0565b9450505b5080611dee81613cb0565b915050611c71565b50611e02826002613c82565b67ffffffffffffffff811115611e1a57611e1a6139c3565b604051908082528060200260200182016040528015611e43578160200160208202803683370190505b50925073d533a949740bb3306d119cc777fa900ba034cd5283600081518110611e6e57611e6e613c9a565b60200260200101906001600160a01b031690816001600160a01b031681525050734e3fbd56cd56c3e72c1403e103b45db9da5b9d2b83600181518110611eb657611eb6613c9a565b6001600160a01b0390921660209283029190910190910152600260005b8281101561208957604051632061aa2360e11b8152600481018290526000907f00000000000000000000000000000000000000000000000000000000000000006001600160a01b0316906340c354469060240160206040518083038186803b158015611f3e57600080fd5b505afa158015611f52573d6000803e3d6000fd5b505050506040513d601f19601f82011682018060405250810190611f769190613b4a565b6001600160a01b031663f7c618c16040518163ffffffff1660e01b815260040160206040518083038186803b158015611fae57600080fd5b505afa158015611fc2573d6000803e3d6000fd5b505050506040513d601f19601f82011682018060405250810190611fe69190613b4a565b90506001600160a01b03811673d533a949740bb3306d119cc777fa900ba034cd521480159061203257506001600160a01b038116734e3fbd56cd56c3e72c1403e103b45db9da5b9d2b14155b156120765780868461204381613cb0565b95508151811061205557612055613c9a565b60200260200101906001600160a01b031690816001600160a01b0316815250505b508061208181613cb0565b915050611ed3565b5050505090565b6120d86001600160a01b037f00000000000000000000000000000000000000000000000000000000000000001673f403c135812408bfbe8713b5a23a04b3d48aae318361294b565b6108ae81612a6f565b6040516001600160a01b038316602482015260448101829052611bd190849063a9059cbb60e01b906064015b60408051601f198184030181529190526020810180516001600160e01b03166001600160e01b031990931692909217909152612bb1565b600061216f7f0000000000000000000000000000000000000000000000000000000000000000612600565b9050600061217b610d11565b9050600061218761101c565b6121919083613c82565b905060006121bc6121a2838661267d565b6121ac8488613ccb565b6121b69190613cea565b83612246565b9050806121ca575050505050565b828111156121e4576121e46121df8483613c30565b612c83565b60006122317f00000000000000000000000000000000000000000000000000000000000000007f000000000000000000000000000000000000000000000000000000000000000084612d76565b905061223e828287612e33565b505050505050565b60008183106122555781611a22565b5090919050565b6000806000612269612ec4565b6040516302df682360e11b815260048101849052602481018390526044810182905292955090935091507f00000000000000000000000000000000000000000000000000000000000000006001600160a01b0316906305bed04690606401600060405180830381600087803b1580156122e157600080fd5b505af11580156122f5573d6000803e3d6000fd5b50505050610e176132f5565b60606000611a22836133a2565b7f00000000000000000000000000000000000000000000000000000000000000006001600160a01b0316816001600160a01b031663d8dfeb456040518163ffffffff1660e01b815260040160206040518083038186803b15801561237157600080fd5b505afa158015612385573d6000803e3d6000fd5b505050506040513d601f19601f820116820180604052508101906123a99190613b4a565b6001600160a01b0316146123f85760405162461bcd60e51b81526020600482015260166024820152753bb937b73396b1b7b63630ba32b930b616ba37b5b2b760511b604482015260640161070b565b7f00000000000000000000000000000000000000000000000000000000000000006001600160a01b0316816001600160a01b031663fc0c546a6040518163ffffffff1660e01b815260040160206040518083038186803b15801561245b57600080fd5b505afa15801561246f573d6000803e3d6000fd5b505050506040513d601f19601f820116820180604052508101906124939190613b4a565b6001600160a01b0316146124df5760405162461bcd60e51b81526020600482015260136024820152723bb937b73396b932b1b2b4b83a16ba37b5b2b760691b604482015260640161070b565b6108ae6133fe565b804710156125375760405162461bcd60e51b815260206004820152601d60248201527f416464726573733a20696e73756666696369656e742062616c616e6365000000604482015260640161070b565b6000826001600160a01b03168260405160006040518083038185875af1925050503d8060008114612584576040519150601f19603f3d011682016040523d82523d6000602084013e612589565b606091505b5050905080611bd15760405162461bcd60e51b815260206004820152603a60248201527f416464726573733a20756e61626c6520746f2073656e642076616c75652c207260448201527f6563697069656e74206d61792068617665207265766572746564000000000000606482015260840161070b565b600060016001607f1b0319821215801561261d57506001607f1b82125b6126795760405162461bcd60e51b815260206004820152602760248201527f53616665436173743a2076616c756520646f65736e27742066697420696e20316044820152663238206269747360c81b606482015260840161070b565b5090565b60008215610d0b5760405163cc2b27d760e01b815260048101849052600f83900b60248201527f00000000000000000000000000000000000000000000000000000000000000006001600160a01b03169063cc2b27d79060440160206040518083038186803b1580156126ef57600080fd5b505afa158015612703573d6000803e3d6000fd5b505050506040513d601f19601f82011682018060405250810190611a229190613c01565b600081815260018301602052604081205461276e57508154600181810184556000848152602080822090930184905584548482528286019093526040902091909155610d0b565b506000610d0b565b6000818152600183016020526040812054801561285f57600061279a600183613c30565b85549091506000906127ae90600190613c30565b90508181146128135760008660000182815481106127ce576127ce613c9a565b90600052602060002001549050808760000184815481106127f1576127f1613c9a565b6000918252602080832090910192909255918252600188019052604090208390555b855486908061282457612824613d0c565b600190038181906000526020600020016000905590558560010160008681526020019081526020016000206000905560019350505050610d0b565b6000915050610d0b565b604051637050ccd960e01b8152306004820152600160248201527f00000000000000000000000000000000000000000000000000000000000000006001600160a01b031690637050ccd990604401602060405180830381600087803b1580156128d157600080fd5b505af11580156128e5573d6000803e3d6000fd5b505050506040513d601f19601f820116820180604052508101906129099190613d22565b610e625760405162461bcd60e51b81526020600482015260136024820152721c995dd85c990b58db185a5b4b59985a5b1959606a1b604482015260640161070b565b8015806129d45750604051636eb1769f60e11b81523060048201526001600160a01b03838116602483015284169063dd62ed3e9060440160206040518083038186803b15801561299a57600080fd5b505afa1580156129ae573d6000803e3d6000fd5b505050506040513d601f19601f820116820180604052508101906129d29190613c01565b155b612a3f5760405162461bcd60e51b815260206004820152603660248201527f5361666545524332303a20617070726f76652066726f6d206e6f6e2d7a65726f60448201527520746f206e6f6e2d7a65726f20616c6c6f77616e636560501b606482015260840161070b565b6040516001600160a01b038316602482015260448101829052611bd190849063095ea7b360e01b9060640161210d565b612a788161347a565b6002546001600160a01b0390811690612ad4907f0000000000000000000000000000000000000000000000000000000000000000167f00000000000000000000000000000000000000000000000000000000000000008461294b565b612b086001600160a01b037f000000000000000000000000000000000000000000000000000000000000000016828461294b565b60095460005b81811015612b5c57612b4a838560098481548110612b2e57612b2e613c9a565b6000918252602090912001546001600160a01b0316919061294b565b80612b5481613cb0565b915050612b0e565b50611bd16001600160a01b037f0000000000000000000000000000000000000000000000000000000000000000167f00000000000000000000000000000000000000000000000000000000000000008561294b565b6000612c06826040518060400160405280602081526020017f5361666545524332303a206c6f772d6c6576656c2063616c6c206661696c6564815250856001600160a01b03166134ce9092919063ffffffff16565b805190915015611bd15780806020019051810190612c249190613d22565b611bd15760405162461bcd60e51b815260206004820152602a60248201527f5361666545524332303a204552433230206f7065726174696f6e20646964206e6044820152691bdd081cdd58d8d9595960b21b606482015260840161070b565b80156108ae57604051636197390160e11b815260048101829052600060248201527f00000000000000000000000000000000000000000000000000000000000000006001600160a01b03169063c32e720290604401602060405180830381600087803b158015612cf257600080fd5b505af1158015612d06573d6000803e3d6000fd5b505050506040513d601f19601f82011682018060405250810190612d2a9190613d22565b6108ae5760405162461bcd60e51b815260206004820152601a60248201527f77697468647261772d616e642d756e777261702d6661696c6564000000000000604482015260640161070b565b6000612710600754612710612d8b9190613c30565b600854604051632d9198e160e21b81526001600160a01b0388811660048301528781166024830152604482018790529091169063b64663849060640160206040518083038186803b158015612ddf57600080fd5b505afa158015612df3573d6000803e3d6000fd5b505050506040513d601f19601f82011682018060405250810190612e179190613c01565b612e219190613ccb565b612e2b9190613cea565b949350505050565b604051630d2680e960e11b815260048101849052600f82900b6024820152604481018390527f00000000000000000000000000000000000000000000000000000000000000006001600160a01b031690631a4d01d2906064015b600060405180830381600087803b158015612ea757600080fd5b505af1158015612ebb573d6000803e3d6000fd5b50505050505050565b6000806000807f00000000000000000000000000000000000000000000000000000000000000006001600160a01b031663d53ddc26306040518263ffffffff1660e01b8152600401612f1691906139af565b60206040518083038186803b158015612f2e57600080fd5b505afa158015612f42573d6000803e3d6000fd5b505050506040513d601f19601f82011682018060405250810190612f669190613c01565b905060007f00000000000000000000000000000000000000000000000000000000000000006001600160a01b0316639f2b2833306040518263ffffffff1660e01b8152600401612fb691906139af565b60206040518083038186803b158015612fce57600080fd5b505afa158015612fe2573d6000803e3d6000fd5b505050506040513d601f19601f820116820180604052508101906130069190613c01565b90506130317f0000000000000000000000000000000000000000000000000000000000000000611a60565b600061305c7f0000000000000000000000000000000000000000000000000000000000000000612600565b90506000613068610d11565b9050600061307461101c565b61307e9083613c82565b9050600061308c828561267d565b905060007f00000000000000000000000000000000000000000000000000000000000000006001600160a01b03166370a08231306040518263ffffffff1660e01b81526004016130dc91906139af565b60206040518083038186803b1580156130f457600080fd5b505afa158015613108573d6000803e3d6000fd5b505050506040513d601f19601f8201168201806040525081019061312c9190613c01565b9050600061313a8383613c82565b9050868111156131555761314e8782613c30565b9a50613162565b61315f8188613c30565b99505b600061316e898d613c82565b9050828111156132b857600061318d6131878584613c30565b86612246565b905080156132b65760006131b5866131a58985613ccb565b6131af9190613cea565b88612246565b905080156132b457878111156131d2576131d26121df8983613c30565b60005461321590829061320f906001600160a01b03167f000000000000000000000000000000000000000000000000000000000000000083612d76565b8b612e33565b6040516370a0823160e01b81526001600160a01b037f000000000000000000000000000000000000000000000000000000000000000016906370a08231906132619030906004016139af565b60206040518083038186803b15801561327957600080fd5b505afa15801561328d573d6000803e3d6000fd5b505050506040513d601f19601f820116820180604052508101906132b19190613c01565b94505b505b505b6132c2838a612246565b99508983116132d25760006132e5565b6132e56132df8b85613c30565b8d612246565b9b50505050505050505050909192565b6040516370a0823160e01b815261339a906001600160a01b037f000000000000000000000000000000000000000000000000000000000000000016906370a08231906133459030906004016139af565b60206040518083038186803b15801561335d57600080fd5b505afa158015613371573d6000803e3d6000fd5b505050506040513d601f19601f820116820180604052508101906133959190613c01565b6134dd565b610e626135c1565b6060816000018054806020026020016040519081016040528092919081815260200182805480156133f257602002820191906000526020600020905b8154815260200190600101908083116133de575b50505050509050919050565b6040516324f81cd160e11b8152600160048201527f00000000000000000000000000000000000000000000000000000000000000006001600160a01b0316906349f039a290602401600060405180830381600087803b15801561346057600080fd5b505af1158015613474573d6000803e3d6000fd5b50505050565b6108ae6001600160a01b037f0000000000000000000000000000000000000000000000000000000000000000167f00000000000000000000000000000000000000000000000000000000000000008361294b565b6060612e2b848460008561375f565b80156108ae576134eb613921565b81817f00000000000000000000000000000000000000000000000000000000000000006002811061351e5761351e613c9a565b602002015260006135707f00000000000000000000000000000000000000000000000000000000000000007f000000000000000000000000000000000000000000000000000000000000000085612d76565b604051630b4c7e4d60e01b81529091506001600160a01b037f00000000000000000000000000000000000000000000000000000000000000001690630b4c7e4d90612e8d9085908590600401613d44565b6040516370a0823160e01b81526000906001600160a01b037f000000000000000000000000000000000000000000000000000000000000000016906370a08231906136109030906004016139af565b60206040518083038186803b15801561362857600080fd5b505afa15801561363c573d6000803e3d6000fd5b505050506040513d601f19601f820116820180604052508101906136609190613c01565b905080156108ae576040516321d0683360e11b81527f00000000000000000000000000000000000000000000000000000000000000006004820152602481018290526001604482015273f403c135812408bfbe8713b5a23a04b3d48aae31906343a0d06690606401602060405180830381600087803b1580156136e257600080fd5b505af11580156136f6573d6000803e3d6000fd5b505050506040513d601f19601f8201168201806040525081019061371a9190613d22565b6108ae5760405162461bcd60e51b8152602060048201526016602482015275189bdbdcdd195c8b59195c1bdcda5d0b59985a5b195960521b604482015260640161070b565b6060824710156137c05760405162461bcd60e51b815260206004820152602660248201527f416464726573733a20696e73756666696369656e742062616c616e636520666f6044820152651c8818d85b1b60d21b606482015260840161070b565b843b61380e5760405162461bcd60e51b815260206004820152601d60248201527f416464726573733a2063616c6c20746f206e6f6e2d636f6e7472616374000000604482015260640161070b565b600080866001600160a01b0316858760405161382a9190613d7c565b60006040518083038185875af1925050503d8060008114613867576040519150601f19603f3d011682016040523d82523d6000602084013e61386c565b606091505b509150915061387c828286613887565b979650505050505050565b60608315613896575081611a22565b8251156138a65782518084602001fd5b8160405162461bcd60e51b815260040161070b9190613b17565b828054828255906000526020600020908101928215613915579160200282015b8281111561391557825182546001600160a01b0319166001600160a01b039091161782556020909201916001909101906138e0565b5061267992915061393f565b60405180604001604052806002906020820280368337509192915050565b5b808211156126795760008155600101613940565b60006020828403121561396657600080fd5b5035919050565b6001600160a01b03811681146108ae57600080fd5b803561398d8161396d565b919050565b6000602082840312156139a457600080fd5b8135611a228161396d565b6001600160a01b0391909116815260200190565b634e487b7160e01b600052604160045260246000fd5b600060208083850312156139ec57600080fd5b823567ffffffffffffffff80821115613a0457600080fd5b818501915085601f830112613a1857600080fd5b813581811115613a2a57613a2a6139c3565b8060051b604051601f19603f83011681018181108582111715613a4f57613a4f6139c3565b604052918252848201925083810185019188831115613a6d57600080fd5b938501935b82851015613a9257613a8385613982565b84529385019392850192613a72565b98975050505050505050565b6020808252825182820181905260009190848201906040850190845b81811015613adf5783516001600160a01b031683529284019291840191600101613aba565b50909695505050505050565b60005b83811015613b06578181015183820152602001613aee565b838111156134745750506000910152565b6020815260008251806020840152613b36816040850160208701613aeb565b601f01601f19169190910160400192915050565b600060208284031215613b5c57600080fd5b8151611a228161396d565b6020808252601a908201527f63616c6c65722d69732d6e6f742d7468652d676f7665726e6f72000000000000604082015260600190565b60208082526016908201527531b0b63632b916b4b996b737ba16b096b5b2b2b832b960511b604082015260600190565b60208082526019908201527818d85b1b195c8b5a5ccb5b9bdd0b5d995cdc195c8b5c1bdbdb603a1b604082015260600190565b600060208284031215613c1357600080fd5b5051919050565b634e487b7160e01b600052601160045260246000fd5b600082821015613c4257613c42613c1a565b500390565b600181811c90821680613c5b57607f821691505b60208210811415613c7c57634e487b7160e01b600052602260045260246000fd5b50919050565b60008219821115613c9557613c95613c1a565b500190565b634e487b7160e01b600052603260045260246000fd5b6000600019821415613cc457613cc4613c1a565b5060010190565b6000816000190483118215151615613ce557613ce5613c1a565b500290565b600082613d0757634e487b7160e01b600052601260045260246000fd5b500490565b634e487b7160e01b600052603160045260246000fd5b600060208284031215613d3457600080fd5b81518015158114611a2257600080fd5b60608101818460005b6002811015613d6c578151835260209283019290910190600101613d4d565b5050508260408301529392505050565b60008251613d8e818460208701613aeb565b919091019291505056fea26469706673582212209120bdb297341817579e73659cb82099f7b828dd41f725911538d7ddd2a5bb8764736f6c63430008090033",
  "devdoc": {
    "kind": "dev",
    "methods": {
      "addKeeper(address)": {
        "params": {
          "_keeperAddress": "keeper address to add."
        }
      },
      "approveToken()": {
        "details": "Approve all required tokens"
      },
      "isReservedToken(address)": {
        "details": "Check whether given token is reserved or not. Reserved tokens are not allowed to sweep."
      },
      "migrate(address)": {
        "details": "_beforeMigration hook can be implemented in child strategy to do extra steps.",
        "params": {
          "_newStrategy": "Address of new strategy"
        }
      },
      "rebalance()": {
        "returns": {
          "_loss": "Realized loss, if any, in collateral.",
          "_payback": "If strategy has any excess debt, we have to liquidate asset to payback excess debt.",
          "_profit": "Realized profit in collateral."
        }
      },
      "removeKeeper(address)": {
        "params": {
          "_keeperAddress": "keeper address to remove."
        }
      },
      "setRewardTokens(address[])": {
        "details": "convex pool can add new rewards. This method refresh list."
      },
      "sweepERC20(address)": {
        "params": {
          "_fromToken": "token address to sweep"
        }
      },
      "updateFeeCollector(address)": {
        "params": {
          "_feeCollector": "fee collector address"
        }
      },
      "updateSwapper(address)": {
        "params": {
          "_swapper": "swapper address"
        }
      },
      "withdraw(uint256)": {
        "params": {
          "_amount": "Amount of collateral token"
        }
      }
    },
    "title": "This strategy will deposit collateral token in a Curve 2Pool and stake lp token to convex.",
    "version": 1
  },
  "userdoc": {
    "kind": "user",
    "methods": {
      "addKeeper(address)": {
        "notice": "Add given address in keepers list."
      },
      "collateral()": {
        "notice": "Returns address of token correspond to collateral token"
      },
      "keepers()": {
        "notice": "Return list of keepers"
      },
      "migrate(address)": {
        "notice": "Migrate all asset and vault ownership,if any, to new strategy"
      },
      "rebalance()": {
        "notice": "OnlyKeeper: Rebalance profit, loss and investment of this strategy.  Calculate profit, loss and payback of this strategy and realize profit/loss and  withdraw fund for payback, if any, and submit this report to pool."
      },
      "removeKeeper(address)": {
        "notice": "Remove given address from keepers list."
      },
      "sweepERC20(address)": {
        "notice": "sweep given token to feeCollector of strategy"
      },
      "token()": {
        "notice": "Returns address of token correspond to receipt token"
      },
      "tvl()": {
        "notice": "Returns collateral balance + collateral deposited to curve"
      },
      "updateFeeCollector(address)": {
        "notice": "Update fee collector"
      },
      "updateSwapper(address)": {
        "notice": "Update swapper"
      },
      "withdraw(uint256)": {
        "notice": "Withdraw collateral token from end protocol."
      }
    },
    "version": 1
  },
  "storageLayout": {
    "storage": [
      {
        "astId": 11599,
        "contract": "vesper-strategies/contracts/strategies/convex/2Pool/Convex2PlainPool.sol:Convex2PlainPool",
        "label": "receiptToken",
        "offset": 0,
        "slot": "0",
        "type": "t_address"
      },
      {
        "astId": 11605,
        "contract": "vesper-strategies/contracts/strategies/convex/2Pool/Convex2PlainPool.sol:Convex2PlainPool",
        "label": "feeCollector",
        "offset": 0,
        "slot": "1",
        "type": "t_address"
      },
      {
        "astId": 11608,
        "contract": "vesper-strategies/contracts/strategies/convex/2Pool/Convex2PlainPool.sol:Convex2PlainPool",
        "label": "swapper",
        "offset": 0,
        "slot": "2",
        "type": "t_contract(IRoutedSwapper)11572"
      },
      {
        "astId": 11621,
        "contract": "vesper-strategies/contracts/strategies/convex/2Pool/Convex2PlainPool.sol:Convex2PlainPool",
        "label": "_keepers",
        "offset": 0,
        "slot": "3",
        "type": "t_struct(AddressSet)3004_storage"
      },
      {
        "astId": 16731,
        "contract": "vesper-strategies/contracts/strategies/convex/2Pool/Convex2PlainPool.sol:Convex2PlainPool",
        "label": "CRV",
        "offset": 0,
        "slot": "5",
        "type": "t_address"
      },
      {
        "astId": 16733,
        "contract": "vesper-strategies/contracts/strategies/convex/2Pool/Convex2PlainPool.sol:Convex2PlainPool",
        "label": "NAME",
        "offset": 0,
        "slot": "6",
        "type": "t_string_storage"
      },
      {
        "astId": 16737,
        "contract": "vesper-strategies/contracts/strategies/convex/2Pool/Convex2PlainPool.sol:Convex2PlainPool",
        "label": "crvSlippage",
        "offset": 0,
        "slot": "7",
        "type": "t_uint256"
      },
      {
        "astId": 16740,
        "contract": "vesper-strategies/contracts/strategies/convex/2Pool/Convex2PlainPool.sol:Convex2PlainPool",
        "label": "masterOracle",
        "offset": 0,
        "slot": "8",
        "type": "t_contract(IMasterOracle)11505"
      },
      {
        "astId": 16743,
        "contract": "vesper-strategies/contracts/strategies/convex/2Pool/Convex2PlainPool.sol:Convex2PlainPool",
        "label": "rewardTokens",
        "offset": 0,
        "slot": "9",
        "type": "t_array(t_address)dyn_storage"
      }
    ],
    "types": {
      "t_address": {
        "encoding": "inplace",
        "label": "address",
        "numberOfBytes": "20"
      },
      "t_array(t_address)dyn_storage": {
        "base": "t_address",
        "encoding": "dynamic_array",
        "label": "address[]",
        "numberOfBytes": "32"
      },
      "t_array(t_bytes32)dyn_storage": {
        "base": "t_bytes32",
        "encoding": "dynamic_array",
        "label": "bytes32[]",
        "numberOfBytes": "32"
      },
      "t_bytes32": {
        "encoding": "inplace",
        "label": "bytes32",
        "numberOfBytes": "32"
      },
      "t_contract(IMasterOracle)11505": {
        "encoding": "inplace",
        "label": "contract IMasterOracle",
        "numberOfBytes": "20"
      },
      "t_contract(IRoutedSwapper)11572": {
        "encoding": "inplace",
        "label": "contract IRoutedSwapper",
        "numberOfBytes": "20"
      },
      "t_mapping(t_bytes32,t_uint256)": {
        "encoding": "mapping",
        "key": "t_bytes32",
        "label": "mapping(bytes32 => uint256)",
        "numberOfBytes": "32",
        "value": "t_uint256"
      },
      "t_string_storage": {
        "encoding": "bytes",
        "label": "string",
        "numberOfBytes": "32"
      },
      "t_struct(AddressSet)3004_storage": {
        "encoding": "inplace",
        "label": "struct EnumerableSet.AddressSet",
        "members": [
          {
            "astId": 3003,
            "contract": "vesper-strategies/contracts/strategies/convex/2Pool/Convex2PlainPool.sol:Convex2PlainPool",
            "label": "_inner",
            "offset": 0,
            "slot": "0",
            "type": "t_struct(Set)2703_storage"
          }
        ],
        "numberOfBytes": "64"
      },
      "t_struct(Set)2703_storage": {
        "encoding": "inplace",
        "label": "struct EnumerableSet.Set",
        "members": [
          {
            "astId": 2698,
            "contract": "vesper-strategies/contracts/strategies/convex/2Pool/Convex2PlainPool.sol:Convex2PlainPool",
            "label": "_values",
            "offset": 0,
            "slot": "0",
            "type": "t_array(t_bytes32)dyn_storage"
          },
          {
            "astId": 2702,
            "contract": "vesper-strategies/contracts/strategies/convex/2Pool/Convex2PlainPool.sol:Convex2PlainPool",
            "label": "_indexes",
            "offset": 0,
            "slot": "1",
            "type": "t_mapping(t_bytes32,t_uint256)"
          }
        ],
        "numberOfBytes": "64"
      },
      "t_uint256": {
        "encoding": "inplace",
        "label": "uint256",
        "numberOfBytes": "32"
      }
    }
  }
}