{
  "address": "0x9ce5FcF17E5aD2e4dc6cD402FCE2DC22D78f4Fbb",
  "abi": [
    {
      "inputs": [
        {
          "internalType": "address",
          "name": "pool_",
          "type": "address"
        },
        {
          "internalType": "address",
          "name": "swapper_",
          "type": "address"
        },
        {
          "internalType": "address",
          "name": "receiptToken_",
          "type": "address"
        },
        {
          "internalType": "string",
          "name": "name_",
          "type": "string"
        }
      ],
      "stateMutability": "nonpayable",
      "type": "constructor"
    },
    {
      "anonymous": false,
      "inputs": [
        {
          "indexed": true,
          "internalType": "address",
          "name": "previousFeeCollector",
          "type": "address"
        },
        {
          "indexed": true,
          "internalType": "address",
          "name": "newFeeCollector",
          "type": "address"
        }
      ],
      "name": "UpdatedFeeCollector",
      "type": "event"
    },
    {
      "anonymous": false,
      "inputs": [
        {
          "indexed": true,
          "internalType": "contract IRoutedSwapper",
          "name": "oldSwapper",
          "type": "address"
        },
        {
          "indexed": true,
          "internalType": "contract IRoutedSwapper",
          "name": "newSwapper",
          "type": "address"
        }
      ],
      "name": "UpdatedSwapper",
      "type": "event"
    },
    {
      "inputs": [],
      "name": "NAME",
      "outputs": [
        {
          "internalType": "string",
          "name": "",
          "type": "string"
        }
      ],
      "stateMutability": "view",
      "type": "function"
    },
    {
      "inputs": [],
      "name": "VERSION",
      "outputs": [
        {
          "internalType": "string",
          "name": "",
          "type": "string"
        }
      ],
      "stateMutability": "view",
      "type": "function"
    },
    {
      "inputs": [
        {
          "internalType": "address",
          "name": "_keeperAddress",
          "type": "address"
        }
      ],
      "name": "addKeeper",
      "outputs": [],
      "stateMutability": "nonpayable",
      "type": "function"
    },
    {
      "inputs": [
        {
          "internalType": "uint256",
          "name": "_approvalAmount",
          "type": "uint256"
        }
      ],
      "name": "approveToken",
      "outputs": [],
      "stateMutability": "nonpayable",
      "type": "function"
    },
    {
      "inputs": [
        {
          "internalType": "uint256",
          "name": "_minAmountOut",
          "type": "uint256"
        }
      ],
      "name": "claimAndSwapRewards",
      "outputs": [
        {
          "internalType": "uint256",
          "name": "_amountOut",
          "type": "uint256"
        }
      ],
      "stateMutability": "nonpayable",
      "type": "function"
    },
    {
      "inputs": [],
      "name": "collateral",
      "outputs": [
        {
          "internalType": "address",
          "name": "",
          "type": "address"
        }
      ],
      "stateMutability": "view",
      "type": "function"
    },
    {
      "inputs": [],
      "name": "collateralToken",
      "outputs": [
        {
          "internalType": "contract IERC20",
          "name": "",
          "type": "address"
        }
      ],
      "stateMutability": "view",
      "type": "function"
    },
    {
      "inputs": [],
      "name": "feeCollector",
      "outputs": [
        {
          "internalType": "address",
          "name": "",
          "type": "address"
        }
      ],
      "stateMutability": "view",
      "type": "function"
    },
    {
      "inputs": [
        {
          "internalType": "address",
          "name": "token_",
          "type": "address"
        }
      ],
      "name": "isReservedToken",
      "outputs": [
        {
          "internalType": "bool",
          "name": "",
          "type": "bool"
        }
      ],
      "stateMutability": "view",
      "type": "function"
    },
    {
      "inputs": [],
      "name": "keepers",
      "outputs": [
        {
          "internalType": "address[]",
          "name": "",
          "type": "address[]"
        }
      ],
      "stateMutability": "view",
      "type": "function"
    },
    {
      "inputs": [
        {
          "internalType": "address",
          "name": "_newStrategy",
          "type": "address"
        }
      ],
      "name": "migrate",
      "outputs": [],
      "stateMutability": "nonpayable",
      "type": "function"
    },
    {
      "inputs": [],
      "name": "pool",
      "outputs": [
        {
          "internalType": "address",
          "name": "",
          "type": "address"
        }
      ],
      "stateMutability": "view",
      "type": "function"
    },
    {
      "inputs": [],
      "name": "rebalance",
      "outputs": [
        {
          "internalType": "uint256",
          "name": "_profit",
          "type": "uint256"
        },
        {
          "internalType": "uint256",
          "name": "_loss",
          "type": "uint256"
        },
        {
          "internalType": "uint256",
          "name": "_payback",
          "type": "uint256"
        }
      ],
      "stateMutability": "nonpayable",
      "type": "function"
    },
    {
      "inputs": [],
      "name": "receiptToken",
      "outputs": [
        {
          "internalType": "address",
          "name": "",
          "type": "address"
        }
      ],
      "stateMutability": "view",
      "type": "function"
    },
    {
      "inputs": [
        {
          "internalType": "address",
          "name": "_keeperAddress",
          "type": "address"
        }
      ],
      "name": "removeKeeper",
      "outputs": [],
      "stateMutability": "nonpayable",
      "type": "function"
    },
    {
      "inputs": [
        {
          "internalType": "contract IERC20",
          "name": "_tokenIn",
          "type": "address"
        },
        {
          "internalType": "uint256",
          "name": "_minAmountOut",
          "type": "uint256"
        }
      ],
      "name": "swapToCollateral",
      "outputs": [
        {
          "internalType": "uint256",
          "name": "_amountOut",
          "type": "uint256"
        }
      ],
      "stateMutability": "nonpayable",
      "type": "function"
    },
    {
      "inputs": [],
      "name": "swapper",
      "outputs": [
        {
          "internalType": "contract IRoutedSwapper",
          "name": "",
          "type": "address"
        }
      ],
      "stateMutability": "view",
      "type": "function"
    },
    {
      "inputs": [
        {
          "internalType": "address",
          "name": "_fromToken",
          "type": "address"
        }
      ],
      "name": "sweep",
      "outputs": [],
      "stateMutability": "nonpayable",
      "type": "function"
    },
    {
      "inputs": [],
      "name": "token",
      "outputs": [
        {
          "internalType": "address",
          "name": "",
          "type": "address"
        }
      ],
      "stateMutability": "view",
      "type": "function"
    },
    {
      "inputs": [],
      "name": "tvl",
      "outputs": [
        {
          "internalType": "uint256",
          "name": "",
          "type": "uint256"
        }
      ],
      "stateMutability": "view",
      "type": "function"
    },
    {
      "inputs": [
        {
          "internalType": "address",
          "name": "_feeCollector",
          "type": "address"
        }
      ],
      "name": "updateFeeCollector",
      "outputs": [],
      "stateMutability": "nonpayable",
      "type": "function"
    },
    {
      "inputs": [
        {
          "internalType": "contract IRoutedSwapper",
          "name": "_swapper",
          "type": "address"
        }
      ],
      "name": "updateSwapper",
      "outputs": [],
      "stateMutability": "nonpayable",
      "type": "function"
    },
    {
      "inputs": [
        {
          "internalType": "uint256",
          "name": "_amount",
          "type": "uint256"
        }
      ],
      "name": "withdraw",
      "outputs": [],
      "stateMutability": "nonpayable",
      "type": "function"
    }
  ],
  "transactionHash": "0x026a077c9f05a1ed5490137ba4d05f0969d5f2c8a2d8e8f0199bda1eb0b60eae",
  "args": [
    "0xc14900dFB1Aa54e7674e1eCf9ce02b3b35157ba5",
    "0x8f156189A3CD28dFc8FB7BbbAce58F98F09c0bB3",
    "0x3835a58CA93Cdb5f912519ad366826aC9a752510",
    "FraxLend_CRV_FRAX"
  ],
  "numDeployments": 1,
  "solcInputHash": "a0b662b50d0a8da264ba4c9ad8296fd3",
  "bytecode": "0x60e06040523480156200001157600080fd5b50604051620036d2380380620036d28339810160408190526200003491620004b5565b8383836001600160a01b038316620000935760405162461bcd60e51b815260206004820152601460248201527f706f6f6c2d616464726573732d69732d7a65726f00000000000000000000000060448201526064015b60405180910390fd5b6001600160a01b038216620000eb5760405162461bcd60e51b815260206004820152601760248201527f737761707065722d616464726573732d69732d7a65726f00000000000000000060448201526064016200008a565b600280546001600160a01b0319166001600160a01b0384811691909117909155831660a081905260408051637e062a3560e11b8152905163fc0c546a91600480820192602092909190829003018186803b1580156200014957600080fd5b505afa1580156200015e573d6000803e3d6000fd5b505050506040513d601f19601f82011682018060405250810190620001849190620005d3565b6001600160a01b03908116608052600080546001600160a01b031916918316919091179055620001cb620001b53390565b60036200036e60201b62001ab41790919060201c565b6200020d5760405162461bcd60e51b81526020600482015260116024820152701859190b5ad9595c195c8b59985a5b1959607a1b60448201526064016200008a565b5050506001600160a01b038216620002685760405162461bcd60e51b815260206004820152601960248201527f667261782d6c656e642d616464726573732d69732d6e756c6c0000000000000060448201526064016200008a565b6080516001600160a01b0316826001600160a01b03166338d52e0f6040518163ffffffff1660e01b815260040160206040518083038186803b158015620002ae57600080fd5b505afa158015620002c3573d6000803e3d6000fd5b505050506040513d601f19601f82011682018060405250810190620002e99190620005d3565b6001600160a01b031614620003415760405162461bcd60e51b815260206004820152601360248201527f636f6c6c61746572616c2d6d69736d617463680000000000000000000000000060448201526064016200008a565b6001600160a01b03821660c052805162000363906005906020840190620003e0565b505050505062000637565b600062000385836001600160a01b0384166200038e565b90505b92915050565b6000818152600183016020526040812054620003d75750815460018181018455600084815260208082209093018490558454848252828601909352604090209190915562000388565b50600062000388565b828054620003ee90620005fa565b90600052602060002090601f0160209004810192826200041257600085556200045d565b82601f106200042d57805160ff19168380011785556200045d565b828001600101855582156200045d579182015b828111156200045d57825182559160200191906001019062000440565b506200046b9291506200046f565b5090565b5b808211156200046b576000815560010162000470565b6001600160a01b03811681146200049c57600080fd5b50565b634e487b7160e01b600052604160045260246000fd5b60008060008060808587031215620004cc57600080fd5b8451620004d98162000486565b80945050602080860151620004ee8162000486565b6040870151909450620005018162000486565b60608701519093506001600160401b03808211156200051f57600080fd5b818801915088601f8301126200053457600080fd5b8151818111156200054957620005496200049f565b604051601f8201601f19908116603f011681019083821181831017156200057457620005746200049f565b816040528281528b868487010111156200058d57600080fd5b600093505b82841015620005b1578484018601518185018701529285019262000592565b82841115620005c35760008684830101525b989b979a50959850505050505050565b600060208284031215620005e657600080fd5b8151620005f38162000486565b9392505050565b600181811c908216806200060f57607f821691505b602082108114156200063157634e487b7160e01b600052602260045260246000fd5b50919050565b60805160a05160c051612f456200078d6000396000818161026b015281816105270152818161174101528181611ce001528181611d6f01528181611e1c01528181611f3f015281816120cd015281816125b4015281816126480152612a280152600081816101d5015281816108520152818161099b01528181610ae201528181610bb701528181610c6a01528181610eb801528181610f85015281816111a7015281816113b501528181611eeb01528181611f9d0152818161271e01526127bb0152600081816102fd0152818161036d015281816104a5015281816106da0152818161077501528181610a2801528181610ac001528181610b2e01528181610bea0152818161112b015281816115d9015281816116bf015281816117cb01528181611999015281816119d701528181611ec901528181611f1d015281816120190152818161285801526129480152612f456000f3fe608060405234801561001057600080fd5b506004361061017d5760003560e01c8063a3f4df7e116100e3578063d8dfeb451161008c578063ee330ee311610066578063ee330ee3146103ac578063fc0c546a146103bf578063ffa1ad74146103d057600080fd5b8063d8dfeb451461036b578063e5328e0614610391578063ec78e8321461039957600080fd5b8063ce5494bb116100bd578063ce5494bb14610332578063d2c35ce814610345578063d3033c391461035857600080fd5b8063a3f4df7e146102e3578063b2016bd4146102f8578063c415b95c1461031f57600080fd5b80632e1a7d4d11610145578063440d72481161011f578063440d72481461025b5780637d7c2a1c146102ab578063951dc22c146102ce57600080fd5b80632e1a7d4d146102225780633ac9fc11146102355780634032b72b1461024857600080fd5b806301681a62146101825780631026013a1461019757806314ae9f2e146101bd57806316f0115b146101d05780632b3297f91461020f575b600080fd5b610195610190366004612c28565b6103f4565b005b6101aa6101a5366004612c45565b610672565b6040519081526020015b60405180910390f35b6101956101cb366004612c28565b610850565b6101f77f000000000000000000000000000000000000000000000000000000000000000081565b6040516001600160a01b0390911681526020016101b4565b6002546101f7906001600160a01b031681565b610195610230366004612c45565b610998565b610195610243366004612c45565b610c11565b610195610256366004612c28565b610c68565b61029b610269366004612c28565b7f00000000000000000000000000000000000000000000000000000000000000006001600160a01b0390811691161490565b60405190151581526020016101b4565b6102b3610db0565b604080519384526020840192909252908201526060016101b4565b6102d6610e16565b6040516101b49190612c5e565b6102eb610e27565b6040516101b49190612cd7565b6101f77f000000000000000000000000000000000000000000000000000000000000000081565b6001546101f7906001600160a01b031681565b610195610340366004612c28565b610eb5565b610195610353366004612c28565b6111a5565b610195610366366004612c28565b6113b3565b7f00000000000000000000000000000000000000000000000000000000000000006101f7565b6101aa6115c1565b6000546101f7906001600160a01b031681565b6101aa6103ba366004612d0a565b61166d565b6000546001600160a01b03166101f7565b6102eb604051806040016040528060058152602001640352e312e360dc1b81525081565b610401335b600390611ad2565b61044b5760405162461bcd60e51b815260206004820152601660248201527531b0b63632b916b4b996b737ba16b096b5b2b2b832b960511b60448201526064015b60405180910390fd5b6001546001600160a01b03166104a35760405162461bcd60e51b815260206004820152601560248201527f6665652d636f6c6c6563746f722d6e6f742d73657400000000000000000000006044820152606401610442565b7f00000000000000000000000000000000000000000000000000000000000000006001600160a01b0316816001600160a01b031614156105255760405162461bcd60e51b815260206004820152601f60248201527f6e6f742d616c6c6f7765642d746f2d73776565702d636f6c6c61746572616c006044820152606401610442565b7f00000000000000000000000000000000000000000000000000000000000000006001600160a01b0390811690821614156105995760405162461bcd60e51b815260206004820152601460248201527306e6f742d616c6c6f7765642d746f2d73776565760641b6044820152606401610442565b6001600160a01b03811673eeeeeeeeeeeeeeeeeeeeeeeeeeeeeeeeeeeeeeee14156105d7576001546105d4906001600160a01b031647611af4565b50565b6040516370a0823160e01b81523060048201526000906001600160a01b038316906370a082319060240160206040518083038186803b15801561061957600080fd5b505afa15801561062d573d6000803e3d6000fd5b505050506040513d601f19601f820116820180604052508101906106519190612d36565b60015490915061066e906001600160a01b03848116911683611c12565b5050565b600061067d336103f9565b6106c25760405162461bcd60e51b815260206004820152601660248201527531b0b63632b916b4b996b737ba16b096b5b2b2b832b960511b6044820152606401610442565b6040516370a0823160e01b81523060048201526000907f00000000000000000000000000000000000000000000000000000000000000006001600160a01b0316906370a082319060240160206040518083038186803b15801561072457600080fd5b505afa158015610738573d6000803e3d6000fd5b505050506040513d601f19601f8201168201806040525081019061075c9190612d36565b90506040516370a0823160e01b815230600482015281907f00000000000000000000000000000000000000000000000000000000000000006001600160a01b0316906370a082319060240160206040518083038186803b1580156107bf57600080fd5b505afa1580156107d3573d6000803e3d6000fd5b505050506040513d601f19601f820116820180604052508101906107f79190612d36565b6108019190612d65565b91508282101561084a5760405162461bcd60e51b81526020600482015260146024820152731b9bdd0b595b9bdd59da0b585b5bdd5b9d13dd5d60621b6044820152606401610442565b50919050565b7f00000000000000000000000000000000000000000000000000000000000000006001600160a01b0316630c340a246040518163ffffffff1660e01b815260040160206040518083038186803b1580156108a957600080fd5b505afa1580156108bd573d6000803e3d6000fd5b505050506040513d601f19601f820116820180604052508101906108e19190612d7c565b6001600160a01b0316336001600160a01b0316146109415760405162461bcd60e51b815260206004820152601a60248201527f63616c6c65722d69732d6e6f742d7468652d676f7665726e6f720000000000006044820152606401610442565b61094c600382611c8a565b6105d45760405162461bcd60e51b815260206004820152601460248201527f72656d6f76652d6b65657065722d6661696c65640000000000000000000000006044820152606401610442565b337f00000000000000000000000000000000000000000000000000000000000000006001600160a01b031614610a105760405162461bcd60e51b815260206004820152601960248201527f63616c6c65722d69732d6e6f742d7665737065722d706f6f6c000000000000006044820152606401610442565b6040516370a0823160e01b81523060048201526000907f00000000000000000000000000000000000000000000000000000000000000006001600160a01b0316906370a082319060240160206040518083038186803b158015610a7257600080fd5b505afa158015610a86573d6000803e3d6000fd5b505050506040513d601f19601f82011682018060405250810190610aaa9190612d36565b9050818110610b075761066e6001600160a01b037f0000000000000000000000000000000000000000000000000000000000000000167f000000000000000000000000000000000000000000000000000000000000000084611c12565b610b19610b148284612d65565b611c9f565b6040516370a0823160e01b81523060048201527f00000000000000000000000000000000000000000000000000000000000000006001600160a01b0316906370a082319060240160206040518083038186803b158015610b7857600080fd5b505afa158015610b8c573d6000803e3d6000fd5b505050506040513d601f19601f82011682018060405250810190610bb09190612d36565b905061066e7f0000000000000000000000000000000000000000000000000000000000000000610be08484611ea6565b6001600160a01b037f0000000000000000000000000000000000000000000000000000000000000000169190611c12565b610c1a336103f9565b610c5f5760405162461bcd60e51b815260206004820152601660248201527531b0b63632b916b4b996b737ba16b096b5b2b2b832b960511b6044820152606401610442565b6105d481611ebc565b7f00000000000000000000000000000000000000000000000000000000000000006001600160a01b0316630c340a246040518163ffffffff1660e01b815260040160206040518083038186803b158015610cc157600080fd5b505afa158015610cd5573d6000803e3d6000fd5b505050506040513d601f19601f82011682018060405250810190610cf99190612d7c565b6001600160a01b0316336001600160a01b031614610d595760405162461bcd60e51b815260206004820152601a60248201527f63616c6c65722d69732d6e6f742d7468652d676f7665726e6f720000000000006044820152606401610442565b610d64600382611ab4565b6105d45760405162461bcd60e51b815260206004820152601160248201527f6164642d6b65657065722d6661696c65640000000000000000000000000000006044820152606401610442565b60008080610dbd336103f9565b610e025760405162461bcd60e51b815260206004820152601660248201527531b0b63632b916b4b996b737ba16b096b5b2b2b832b960511b6044820152606401610442565b610e0a611f64565b9250925092505b909192565b6060610e2260036120a1565b905090565b60058054610e3490612d99565b80601f0160208091040260200160405190810160405280929190818152602001828054610e6090612d99565b8015610ead5780601f10610e8257610100808354040283529160200191610ead565b820191906000526020600020905b815481529060010190602001808311610e9057829003601f168201915b505050505081565b337f00000000000000000000000000000000000000000000000000000000000000006001600160a01b031614610f2d5760405162461bcd60e51b815260206004820152601960248201527f63616c6c65722d69732d6e6f742d7665737065722d706f6f6c000000000000006044820152606401610442565b6001600160a01b038116610f835760405162461bcd60e51b815260206004820152601c60248201527f6e65772d73747261746567792d616464726573732d69732d7a65726f000000006044820152606401610442565b7f00000000000000000000000000000000000000000000000000000000000000006001600160a01b0316816001600160a01b03166316f0115b6040518163ffffffff1660e01b815260040160206040518083038186803b158015610fe657600080fd5b505afa158015610ffa573d6000803e3d6000fd5b505050506040513d601f19601f8201168201806040525081019061101e9190612d7c565b6001600160a01b0316146110745760405162461bcd60e51b815260206004820152601660248201527f6e6f742d76616c69642d6e65772d7374726174656779000000000000000000006044820152606401610442565b6000546040516370a0823160e01b81523060048201526111089183916001600160a01b03909116906370a082319060240160206040518083038186803b1580156110bd57600080fd5b505afa1580156110d1573d6000803e3d6000fd5b505050506040513d601f19601f820116820180604052508101906110f59190612d36565b6000546001600160a01b03169190611c12565b6040516370a0823160e01b81523060048201526105d49082906001600160a01b037f000000000000000000000000000000000000000000000000000000000000000016906370a082319060240160206040518083038186803b15801561116d57600080fd5b505afa158015611181573d6000803e3d6000fd5b505050506040513d601f19601f82011682018060405250810190610be09190612d36565b7f00000000000000000000000000000000000000000000000000000000000000006001600160a01b0316630c340a246040518163ffffffff1660e01b815260040160206040518083038186803b1580156111fe57600080fd5b505afa158015611212573d6000803e3d6000fd5b505050506040513d601f19601f820116820180604052508101906112369190612d7c565b6001600160a01b0316336001600160a01b0316146112965760405162461bcd60e51b815260206004820152601a60248201527f63616c6c65722d69732d6e6f742d7468652d676f7665726e6f720000000000006044820152606401610442565b6001600160a01b0381166112ec5760405162461bcd60e51b815260206004820152601d60248201527f6665652d636f6c6c6563746f722d616464726573732d69732d7a65726f0000006044820152606401610442565b6001546001600160a01b038281169116141561134a5760405162461bcd60e51b815260206004820152601560248201527f6665652d636f6c6c6563746f722d69732d73616d6500000000000000000000006044820152606401610442565b6001546040516001600160a01b038084169216907f0f06062680f9bd68e786e9980d9bb03d73d5620fc3b345e417b6eacb310b970690600090a36001805473ffffffffffffffffffffffffffffffffffffffff19166001600160a01b0392909216919091179055565b7f00000000000000000000000000000000000000000000000000000000000000006001600160a01b0316630c340a246040518163ffffffff1660e01b815260040160206040518083038186803b15801561140c57600080fd5b505afa158015611420573d6000803e3d6000fd5b505050506040513d601f19601f820116820180604052508101906114449190612d7c565b6001600160a01b0316336001600160a01b0316146114a45760405162461bcd60e51b815260206004820152601a60248201527f63616c6c65722d69732d6e6f742d7468652d676f7665726e6f720000000000006044820152606401610442565b6001600160a01b0381166114fa5760405162461bcd60e51b815260206004820152601760248201527f737761707065722d616464726573732d69732d7a65726f0000000000000000006044820152606401610442565b6002546001600160a01b03828116911614156115585760405162461bcd60e51b815260206004820152600f60248201527f737761707065722d69732d73616d6500000000000000000000000000000000006044820152606401610442565b6002546040516001600160a01b038084169216907f6c953b7ec311055c20b96a42cea31e89528e375b1bf953a503db40854b3188fe90600090a36002805473ffffffffffffffffffffffffffffffffffffffff19166001600160a01b0392909216919091179055565b6040516370a0823160e01b81523060048201526000907f00000000000000000000000000000000000000000000000000000000000000006001600160a01b0316906370a082319060240160206040518083038186803b15801561162357600080fd5b505afa158015611637573d6000803e3d6000fd5b505050506040513d601f19601f8201168201806040525081019061165b9190612d36565b6116636120b5565b610e229190612dce565b6000611678336103f9565b6116bd5760405162461bcd60e51b815260206004820152601660248201527531b0b63632b916b4b996b737ba16b096b5b2b2b832b960511b6044820152606401610442565b7f00000000000000000000000000000000000000000000000000000000000000006001600160a01b0316836001600160a01b0316141561173f5760405162461bcd60e51b815260206004820152601f60248201527f6e6f742d616c6c6f7765642d746f2d73776565702d636f6c6c61746572616c006044820152606401610442565b7f00000000000000000000000000000000000000000000000000000000000000006001600160a01b0390811690841614156117b35760405162461bcd60e51b815260206004820152601460248201527306e6f742d616c6c6f7765642d746f2d73776565760641b6044820152606401610442565b6040516370a0823160e01b81523060048201526000907f00000000000000000000000000000000000000000000000000000000000000006001600160a01b0316906370a082319060240160206040518083038186803b15801561181557600080fd5b505afa158015611829573d6000803e3d6000fd5b505050506040513d601f19601f8201168201806040525081019061184d9190612d36565b6040516370a0823160e01b81523060048201529091506000906001600160a01b038616906370a082319060240160206040518083038186803b15801561189257600080fd5b505afa1580156118a6573d6000803e3d6000fd5b505050506040513d601f19601f820116820180604052508101906118ca9190612d36565b905080156119c057600254604051636eb1769f60e11b81523060048201526001600160a01b0391821660248201529086169063dd62ed3e9060440160206040518083038186803b15801561191d57600080fd5b505afa158015611931573d6000803e3d6000fd5b505050506040513d601f19601f820116820180604052508101906119559190612d36565b81111561199357600254611977906001600160a01b03878116911660006121cd565b600254611993906001600160a01b0387811691166000196121cd565b6119be857f0000000000000000000000000000000000000000000000000000000000000000836122f8565b505b6040516370a0823160e01b815230600482015282907f00000000000000000000000000000000000000000000000000000000000000006001600160a01b0316906370a082319060240160206040518083038186803b158015611a2157600080fd5b505afa158015611a35573d6000803e3d6000fd5b505050506040513d601f19601f82011682018060405250810190611a599190612d36565b611a639190612d65565b925083831015611aac5760405162461bcd60e51b81526020600482015260146024820152731b9bdd0b595b9bdd59da0b585b5bdd5b9d13dd5d60621b6044820152606401610442565b505092915050565b6000611ac9836001600160a01b03841661239c565b90505b92915050565b6001600160a01b03811660009081526001830160205260408120541515611ac9565b80471015611b445760405162461bcd60e51b815260206004820152601d60248201527f416464726573733a20696e73756666696369656e742062616c616e63650000006044820152606401610442565b6000826001600160a01b03168260405160006040518083038185875af1925050503d8060008114611b91576040519150601f19603f3d011682016040523d82523d6000602084013e611b96565b606091505b5050905080611c0d5760405162461bcd60e51b815260206004820152603a60248201527f416464726573733a20756e61626c6520746f2073656e642076616c75652c207260448201527f6563697069656e74206d617920686176652072657665727465640000000000006064820152608401610442565b505050565b6040516001600160a01b038316602482015260448101829052611c0d90849063a9059cbb60e01b906064015b60408051601f198184030181529190526020810180517bffffffffffffffffffffffffffffffffffffffffffffffffffffffff166001600160e01b0319909316929092179091526123eb565b6000611ac9836001600160a01b0384166124bd565b6000611cb282611cad6125b0565b611ea6565b6040516356968f9760e01b815260048101829052600060248201819052919250611df1906001600160a01b037f000000000000000000000000000000000000000000000000000000000000000016906356968f979060440160206040518083038186803b158015611d2257600080fd5b505afa158015611d36573d6000803e3d6000fd5b505050506040513d601f19601f82011682018060405250810190611d5a9190612d36565b6040516370a0823160e01b81523060048201527f00000000000000000000000000000000000000000000000000000000000000006001600160a01b0316906370a082319060240160206040518083038186803b158015611db957600080fd5b505afa158015611dcd573d6000803e3d6000fd5b505050506040513d601f19601f82011682018060405250810190611cad9190612d36565b90508015611c0d57604051635d043b2960e11b815260048101829052306024820181905260448201527f00000000000000000000000000000000000000000000000000000000000000006001600160a01b03169063ba08765290606401602060405180830381600087803b158015611e6857600080fd5b505af1158015611e7c573d6000803e3d6000fd5b505050506040513d601f19601f82011682018060405250810190611ea09190612d36565b50505050565b6000818310611eb55781611ac9565b5090919050565b611f106001600160a01b037f0000000000000000000000000000000000000000000000000000000000000000167f0000000000000000000000000000000000000000000000000000000000000000836121cd565b6105d46001600160a01b037f0000000000000000000000000000000000000000000000000000000000000000167f0000000000000000000000000000000000000000000000000000000000000000836121cd565b6000806000611f716126f8565b6040516302df682360e11b815260048101849052602481018390526044810182905292955090935091507f00000000000000000000000000000000000000000000000000000000000000006001600160a01b0316906305bed04690606401600060405180830381600087803b158015611fe957600080fd5b505af1158015611ffd573d6000803e3d6000fd5b50506040516370a0823160e01b8152306004820152610e1192507f00000000000000000000000000000000000000000000000000000000000000006001600160a01b031691506370a082319060240160206040518083038186803b15801561206457600080fd5b505afa158015612078573d6000803e3d6000fd5b505050506040513d601f19601f8201168201806040525081019061209c9190612d36565b612a06565b606060006120ae83612aac565b9392505050565b6040516370a0823160e01b81523060048201526000907f00000000000000000000000000000000000000000000000000000000000000006001600160a01b03169063404ffa7a9082906370a082319060240160206040518083038186803b15801561211f57600080fd5b505afa158015612133573d6000803e3d6000fd5b505050506040513d601f19601f820116820180604052508101906121579190612d36565b6040516001600160e01b031960e084901b16815260048101919091526000602482015260440160206040518083038186803b15801561219557600080fd5b505afa1580156121a9573d6000803e3d6000fd5b505050506040513d601f19601f82011682018060405250810190610e229190612d36565b8015806122565750604051636eb1769f60e11b81523060048201526001600160a01b03838116602483015284169063dd62ed3e9060440160206040518083038186803b15801561221c57600080fd5b505afa158015612230573d6000803e3d6000fd5b505050506040513d601f19601f820116820180604052508101906122549190612d36565b155b6122c85760405162461bcd60e51b815260206004820152603660248201527f5361666545524332303a20617070726f76652066726f6d206e6f6e2d7a65726f60448201527f20746f206e6f6e2d7a65726f20616c6c6f77616e6365000000000000000000006064820152608401610442565b6040516001600160a01b038316602482015260448101829052611c0d90849063095ea7b360e01b90606401611c3e565b600254604051636ccb2b0160e01b81526001600160a01b038581166004830152848116602483015260448201849052600160648301523060848301526000921690636ccb2b019060a401602060405180830381600087803b15801561235c57600080fd5b505af1158015612370573d6000803e3d6000fd5b505050506040513d601f19601f820116820180604052508101906123949190612d36565b949350505050565b60008181526001830160205260408120546123e357508154600181810184556000848152602080822090930184905584548482528286019093526040902091909155611acc565b506000611acc565b6000612440826040518060400160405280602081526020017f5361666545524332303a206c6f772d6c6576656c2063616c6c206661696c6564815250856001600160a01b0316612b089092919063ffffffff16565b805190915015611c0d578080602001905181019061245e9190612de6565b611c0d5760405162461bcd60e51b815260206004820152602a60248201527f5361666545524332303a204552433230206f7065726174696f6e20646964206e6044820152691bdd081cdd58d8d9595960b21b6064820152608401610442565b600081815260018301602052604081205480156125a65760006124e1600183612d65565b85549091506000906124f590600190612d65565b905081811461255a57600086600001828154811061251557612515612e08565b906000526020600020015490508087600001848154811061253857612538612e08565b6000918252602080832090910192909255918252600188019052604090208390555b855486908061256b5761256b612e1e565b600190038181906000526020600020016000905590558560010160008681526020019081526020016000206000905560019350505050611acc565b6000915050611acc565b60007f00000000000000000000000000000000000000000000000000000000000000006001600160a01b0316638285ef406040518163ffffffff1660e01b8152600401604080518083038186803b15801561260a57600080fd5b505afa15801561261e573d6000803e3d6000fd5b505050506040513d601f19601f820116820180604052508101906126429190612e59565b600001517f00000000000000000000000000000000000000000000000000000000000000006001600160a01b031663f9557ccb6040518163ffffffff1660e01b8152600401604080518083038186803b15801561269e57600080fd5b505afa1580156126b2573d6000803e3d6000fd5b505050506040513d601f19601f820116820180604052508101906126d69190612e59565b516126e19190612ec2565b6fffffffffffffffffffffffffffffffff16905090565b604051636a9eee1360e11b81523060048201526000908190819081906001600160a01b037f0000000000000000000000000000000000000000000000000000000000000000169063d53ddc269060240160206040518083038186803b15801561276057600080fd5b505afa158015612774573d6000803e3d6000fd5b505050506040513d601f19601f820116820180604052508101906127989190612d36565b604051639f2b283360e01b81523060048201529091506000906001600160a01b037f00000000000000000000000000000000000000000000000000000000000000001690639f2b28339060240160206040518083038186803b1580156127fd57600080fd5b505afa158015612811573d6000803e3d6000fd5b505050506040513d601f19601f820116820180604052508101906128359190612d36565b6040516370a0823160e01b81523060048201529091506000906001600160a01b037f000000000000000000000000000000000000000000000000000000000000000016906370a082319060240160206040518083038186803b15801561289a57600080fd5b505afa1580156128ae573d6000803e3d6000fd5b505050506040513d601f19601f820116820180604052508101906128d29190612d36565b905060006128de6120b5565b6128e89083612dce565b905082811115612903576128fc8382612d65565b9650612910565b61290d8184612d65565b95505b600061291c8589612dce565b9050828111156129cd57612933610b148483612d65565b6040516370a0823160e01b81523060048201527f00000000000000000000000000000000000000000000000000000000000000006001600160a01b0316906370a082319060240160206040518083038186803b15801561299257600080fd5b505afa1580156129a6573d6000803e3d6000fd5b505050506040513d601f19601f820116820180604052508101906129ca9190612d36565b92505b6129d78386611ea6565b95508583116129e75760006129fa565b6129fa6129f48785612d65565b89611ea6565b97505050505050909192565b80156105d457604051636e553f6560e01b8152600481018290523060248201527f00000000000000000000000000000000000000000000000000000000000000006001600160a01b031690636e553f6590604401602060405180830381600087803b158015612a7457600080fd5b505af1158015612a88573d6000803e3d6000fd5b505050506040513d601f19601f8201168201806040525081019061066e9190612d36565b606081600001805480602002602001604051908101604052809291908181526020018280548015612afc57602002820191906000526020600020905b815481526020019060010190808311612ae8575b50505050509050919050565b6060612394848460008585843b612b615760405162461bcd60e51b815260206004820152601d60248201527f416464726573733a2063616c6c20746f206e6f6e2d636f6e74726163740000006044820152606401610442565b600080866001600160a01b03168587604051612b7d9190612ef3565b60006040518083038185875af1925050503d8060008114612bba576040519150601f19603f3d011682016040523d82523d6000602084013e612bbf565b606091505b5091509150612bcf828286612bda565b979650505050505050565b60608315612be95750816120ae565b825115612bf95782518084602001fd5b8160405162461bcd60e51b81526004016104429190612cd7565b6001600160a01b03811681146105d457600080fd5b600060208284031215612c3a57600080fd5b81356120ae81612c13565b600060208284031215612c5757600080fd5b5035919050565b6020808252825182820181905260009190848201906040850190845b81811015612c9f5783516001600160a01b031683529284019291840191600101612c7a565b50909695505050505050565b60005b83811015612cc6578181015183820152602001612cae565b83811115611ea05750506000910152565b6020815260008251806020840152612cf6816040850160208701612cab565b601f01601f19169190910160400192915050565b60008060408385031215612d1d57600080fd5b8235612d2881612c13565b946020939093013593505050565b600060208284031215612d4857600080fd5b5051919050565b634e487b7160e01b600052601160045260246000fd5b600082821015612d7757612d77612d4f565b500390565b600060208284031215612d8e57600080fd5b81516120ae81612c13565b600181811c90821680612dad57607f821691505b6020821081141561084a57634e487b7160e01b600052602260045260246000fd5b60008219821115612de157612de1612d4f565b500190565b600060208284031215612df857600080fd5b815180151581146120ae57600080fd5b634e487b7160e01b600052603260045260246000fd5b634e487b7160e01b600052603160045260246000fd5b80516fffffffffffffffffffffffffffffffff81168114612e5457600080fd5b919050565b600060408284031215612e6b57600080fd5b6040516040810181811067ffffffffffffffff82111715612e9c57634e487b7160e01b600052604160045260246000fd5b604052612ea883612e34565b8152612eb660208401612e34565b60208201529392505050565b60006fffffffffffffffffffffffffffffffff83811690831681811015612eeb57612eeb612d4f565b039392505050565b60008251612f05818460208701612cab565b919091019291505056fea2646970667358221220278d952209a2f267dc29cd353770e7022841ba4d26e4fa488893244befd9848b64736f6c63430008090033",
  "devdoc": {
    "kind": "dev",
    "methods": {
      "addKeeper(address)": {
        "params": {
          "_keeperAddress": "keeper address to add."
        }
      },
      "approveToken(uint256)": {
        "details": "Approve all required tokens"
      },
      "migrate(address)": {
        "details": "_beforeMigration hook can be implemented in child strategy to do extra steps.",
        "params": {
          "_newStrategy": "Address of new strategy"
        }
      },
      "rebalance()": {
        "returns": {
          "_loss": "Realized loss, if any, in collateral.",
          "_payback": "If strategy has any excess debt, we have to liquidate asset to payback excess debt.",
          "_profit": "Realized profit in collateral."
        }
      },
      "removeKeeper(address)": {
        "params": {
          "_keeperAddress": "keeper address to remove."
        }
      },
      "sweep(address)": {
        "params": {
          "_fromToken": "token address to sweep"
        }
      },
      "updateFeeCollector(address)": {
        "params": {
          "_feeCollector": "fee collector address"
        }
      },
      "updateSwapper(address)": {
        "params": {
          "_swapper": "swapper address"
        }
      },
      "withdraw(uint256)": {
        "params": {
          "_amount": "Amount of collateral token"
        }
      }
    },
    "title": "This strategy will deposit FRAX as collateral token in FraxLend and earn interest.",
    "version": 1
  },
  "userdoc": {
    "kind": "user",
    "methods": {
      "addKeeper(address)": {
        "notice": "Add given address in keepers list."
      },
      "claimAndSwapRewards(uint256)": {
        "notice": "Claim rewardToken and convert rewardToken into collateral token."
      },
      "collateral()": {
        "notice": "Returns address of token correspond to collateral token"
      },
      "keepers()": {
        "notice": "Return list of keepers"
      },
      "migrate(address)": {
        "notice": "Migrate all asset and vault ownership,if any, to new strategy"
      },
      "rebalance()": {
        "notice": "OnlyKeeper: Rebalance profit, loss and investment of this strategy.  Calculate profit, loss and payback of this strategy and realize profit/loss and  withdraw fund for payback, if any, and submit this report to pool."
      },
      "removeKeeper(address)": {
        "notice": "Remove given address from keepers list."
      },
      "swapToCollateral(address,uint256)": {
        "notice": "onlyKeeper:: Swap given token into collateral token."
      },
      "sweep(address)": {
        "notice": "sweep given token to feeCollector of strategy"
      },
      "token()": {
        "notice": "Returns address of token correspond to receipt token"
      },
      "tvl()": {
        "notice": "Returns total collateral locked in the strategy"
      },
      "updateFeeCollector(address)": {
        "notice": "Update fee collector"
      },
      "updateSwapper(address)": {
        "notice": "Update swapper"
      },
      "withdraw(uint256)": {
        "notice": "Withdraw collateral token from end protocol."
      }
    },
    "version": 1
  },
  "storageLayout": {
    "storage": [
      {
        "astId": 14875,
        "contract": "vesper-strategies/contracts/strategies/frax-lend/FraxLend.sol:FraxLend",
        "label": "receiptToken",
        "offset": 0,
        "slot": "0",
        "type": "t_address"
      },
      {
        "astId": 14881,
        "contract": "vesper-strategies/contracts/strategies/frax-lend/FraxLend.sol:FraxLend",
        "label": "feeCollector",
        "offset": 0,
        "slot": "1",
        "type": "t_address"
      },
      {
        "astId": 14884,
        "contract": "vesper-strategies/contracts/strategies/frax-lend/FraxLend.sol:FraxLend",
        "label": "swapper",
        "offset": 0,
        "slot": "2",
        "type": "t_contract(IRoutedSwapper)13443"
      },
      {
        "astId": 14897,
        "contract": "vesper-strategies/contracts/strategies/frax-lend/FraxLend.sol:FraxLend",
        "label": "_keepers",
        "offset": 0,
        "slot": "3",
        "type": "t_struct(AddressSet)3027_storage"
      },
      {
        "astId": 31134,
        "contract": "vesper-strategies/contracts/strategies/frax-lend/FraxLend.sol:FraxLend",
        "label": "NAME",
        "offset": 0,
        "slot": "5",
        "type": "t_string_storage"
      }
    ],
    "types": {
      "t_address": {
        "encoding": "inplace",
        "label": "address",
        "numberOfBytes": "20"
      },
      "t_array(t_bytes32)dyn_storage": {
        "base": "t_bytes32",
        "encoding": "dynamic_array",
        "label": "bytes32[]",
        "numberOfBytes": "32"
      },
      "t_bytes32": {
        "encoding": "inplace",
        "label": "bytes32",
        "numberOfBytes": "32"
      },
      "t_contract(IRoutedSwapper)13443": {
        "encoding": "inplace",
        "label": "contract IRoutedSwapper",
        "numberOfBytes": "20"
      },
      "t_mapping(t_bytes32,t_uint256)": {
        "encoding": "mapping",
        "key": "t_bytes32",
        "label": "mapping(bytes32 => uint256)",
        "numberOfBytes": "32",
        "value": "t_uint256"
      },
      "t_string_storage": {
        "encoding": "bytes",
        "label": "string",
        "numberOfBytes": "32"
      },
      "t_struct(AddressSet)3027_storage": {
        "encoding": "inplace",
        "label": "struct EnumerableSet.AddressSet",
        "members": [
          {
            "astId": 3026,
            "contract": "vesper-strategies/contracts/strategies/frax-lend/FraxLend.sol:FraxLend",
            "label": "_inner",
            "offset": 0,
            "slot": "0",
            "type": "t_struct(Set)2726_storage"
          }
        ],
        "numberOfBytes": "64"
      },
      "t_struct(Set)2726_storage": {
        "encoding": "inplace",
        "label": "struct EnumerableSet.Set",
        "members": [
          {
            "astId": 2721,
            "contract": "vesper-strategies/contracts/strategies/frax-lend/FraxLend.sol:FraxLend",
            "label": "_values",
            "offset": 0,
            "slot": "0",
            "type": "t_array(t_bytes32)dyn_storage"
          },
          {
            "astId": 2725,
            "contract": "vesper-strategies/contracts/strategies/frax-lend/FraxLend.sol:FraxLend",
            "label": "_indexes",
            "offset": 0,
            "slot": "1",
            "type": "t_mapping(t_bytes32,t_uint256)"
          }
        ],
        "numberOfBytes": "64"
      },
      "t_uint256": {
        "encoding": "inplace",
        "label": "uint256",
        "numberOfBytes": "32"
      }
    }
  }
}