{
  "address": "0x3AfB216035709B3FdDBF17b195d19C1986Efe46d",
  "abi": [
    {
      "inputs": [
        {
          "internalType": "address",
          "name": "pool_",
          "type": "address"
        },
        {
          "internalType": "address",
          "name": "swapper_",
          "type": "address"
        },
        {
          "internalType": "contract IStargateRouter",
          "name": "stargateRouter_",
          "type": "address"
        },
        {
          "internalType": "contract IStargatePool",
          "name": "stargateLp_",
          "type": "address"
        },
        {
          "internalType": "contract IStargateLpStaking",
          "name": "stargateLpStaking_",
          "type": "address"
        },
        {
          "internalType": "uint256",
          "name": "stargatePoolId_",
          "type": "uint256"
        },
        {
          "internalType": "uint256",
          "name": "stargateLpStakingPoolId_",
          "type": "uint256"
        },
        {
          "internalType": "string",
          "name": "name_",
          "type": "string"
        }
      ],
      "stateMutability": "nonpayable",
      "type": "constructor"
    },
    {
      "anonymous": false,
      "inputs": [
        {
          "indexed": true,
          "internalType": "address",
          "name": "previousFeeCollector",
          "type": "address"
        },
        {
          "indexed": true,
          "internalType": "address",
          "name": "newFeeCollector",
          "type": "address"
        }
      ],
      "name": "UpdatedFeeCollector",
      "type": "event"
    },
    {
      "anonymous": false,
      "inputs": [
        {
          "indexed": true,
          "internalType": "contract IRoutedSwapper",
          "name": "oldSwapper",
          "type": "address"
        },
        {
          "indexed": true,
          "internalType": "contract IRoutedSwapper",
          "name": "newSwapper",
          "type": "address"
        }
      ],
      "name": "UpdatedSwapper",
      "type": "event"
    },
    {
      "inputs": [],
      "name": "NAME",
      "outputs": [
        {
          "internalType": "string",
          "name": "",
          "type": "string"
        }
      ],
      "stateMutability": "view",
      "type": "function"
    },
    {
      "inputs": [],
      "name": "VERSION",
      "outputs": [
        {
          "internalType": "string",
          "name": "",
          "type": "string"
        }
      ],
      "stateMutability": "view",
      "type": "function"
    },
    {
      "inputs": [
        {
          "internalType": "address",
          "name": "_keeperAddress",
          "type": "address"
        }
      ],
      "name": "addKeeper",
      "outputs": [],
      "stateMutability": "nonpayable",
      "type": "function"
    },
    {
      "inputs": [],
      "name": "approveToken",
      "outputs": [],
      "stateMutability": "nonpayable",
      "type": "function"
    },
    {
      "inputs": [],
      "name": "collateral",
      "outputs": [
        {
          "internalType": "address",
          "name": "",
          "type": "address"
        }
      ],
      "stateMutability": "view",
      "type": "function"
    },
    {
      "inputs": [],
      "name": "collateralToken",
      "outputs": [
        {
          "internalType": "contract IERC20",
          "name": "",
          "type": "address"
        }
      ],
      "stateMutability": "view",
      "type": "function"
    },
    {
      "inputs": [],
      "name": "feeCollector",
      "outputs": [
        {
          "internalType": "address",
          "name": "",
          "type": "address"
        }
      ],
      "stateMutability": "view",
      "type": "function"
    },
    {
      "inputs": [
        {
          "internalType": "address",
          "name": "token_",
          "type": "address"
        }
      ],
      "name": "isReservedToken",
      "outputs": [
        {
          "internalType": "bool",
          "name": "",
          "type": "bool"
        }
      ],
      "stateMutability": "view",
      "type": "function"
    },
    {
      "inputs": [],
      "name": "keepers",
      "outputs": [
        {
          "internalType": "address[]",
          "name": "",
          "type": "address[]"
        }
      ],
      "stateMutability": "view",
      "type": "function"
    },
    {
      "inputs": [],
      "name": "lpAmountStaked",
      "outputs": [
        {
          "internalType": "uint256",
          "name": "_lpAmountStaked",
          "type": "uint256"
        }
      ],
      "stateMutability": "view",
      "type": "function"
    },
    {
      "inputs": [
        {
          "internalType": "address",
          "name": "_newStrategy",
          "type": "address"
        }
      ],
      "name": "migrate",
      "outputs": [],
      "stateMutability": "nonpayable",
      "type": "function"
    },
    {
      "inputs": [],
      "name": "pendingStargate",
      "outputs": [
        {
          "internalType": "uint256",
          "name": "_pendingStargate",
          "type": "uint256"
        }
      ],
      "stateMutability": "view",
      "type": "function"
    },
    {
      "inputs": [],
      "name": "pool",
      "outputs": [
        {
          "internalType": "address",
          "name": "",
          "type": "address"
        }
      ],
      "stateMutability": "view",
      "type": "function"
    },
    {
      "inputs": [],
      "name": "rebalance",
      "outputs": [
        {
          "internalType": "uint256",
          "name": "_profit",
          "type": "uint256"
        },
        {
          "internalType": "uint256",
          "name": "_loss",
          "type": "uint256"
        },
        {
          "internalType": "uint256",
          "name": "_payback",
          "type": "uint256"
        }
      ],
      "stateMutability": "nonpayable",
      "type": "function"
    },
    {
      "inputs": [],
      "name": "receiptToken",
      "outputs": [
        {
          "internalType": "address",
          "name": "",
          "type": "address"
        }
      ],
      "stateMutability": "view",
      "type": "function"
    },
    {
      "inputs": [
        {
          "internalType": "address",
          "name": "_keeperAddress",
          "type": "address"
        }
      ],
      "name": "removeKeeper",
      "outputs": [],
      "stateMutability": "nonpayable",
      "type": "function"
    },
    {
      "inputs": [],
      "name": "rewardToken",
      "outputs": [
        {
          "internalType": "address",
          "name": "",
          "type": "address"
        }
      ],
      "stateMutability": "view",
      "type": "function"
    },
    {
      "inputs": [],
      "name": "stargateLpStaking",
      "outputs": [
        {
          "internalType": "contract IStargateLpStaking",
          "name": "",
          "type": "address"
        }
      ],
      "stateMutability": "view",
      "type": "function"
    },
    {
      "inputs": [],
      "name": "stargateLpStakingPoolId",
      "outputs": [
        {
          "internalType": "uint256",
          "name": "",
          "type": "uint256"
        }
      ],
      "stateMutability": "view",
      "type": "function"
    },
    {
      "inputs": [],
      "name": "stargatePoolId",
      "outputs": [
        {
          "internalType": "uint256",
          "name": "",
          "type": "uint256"
        }
      ],
      "stateMutability": "view",
      "type": "function"
    },
    {
      "inputs": [],
      "name": "swapper",
      "outputs": [
        {
          "internalType": "contract IRoutedSwapper",
          "name": "",
          "type": "address"
        }
      ],
      "stateMutability": "view",
      "type": "function"
    },
    {
      "inputs": [
        {
          "internalType": "address",
          "name": "_fromToken",
          "type": "address"
        }
      ],
      "name": "sweepERC20",
      "outputs": [],
      "stateMutability": "nonpayable",
      "type": "function"
    },
    {
      "inputs": [],
      "name": "token",
      "outputs": [
        {
          "internalType": "address",
          "name": "",
          "type": "address"
        }
      ],
      "stateMutability": "view",
      "type": "function"
    },
    {
      "inputs": [],
      "name": "tvl",
      "outputs": [
        {
          "internalType": "uint256",
          "name": "",
          "type": "uint256"
        }
      ],
      "stateMutability": "view",
      "type": "function"
    },
    {
      "inputs": [
        {
          "internalType": "address",
          "name": "_feeCollector",
          "type": "address"
        }
      ],
      "name": "updateFeeCollector",
      "outputs": [],
      "stateMutability": "nonpayable",
      "type": "function"
    },
    {
      "inputs": [
        {
          "internalType": "contract IRoutedSwapper",
          "name": "_swapper",
          "type": "address"
        }
      ],
      "name": "updateSwapper",
      "outputs": [],
      "stateMutability": "nonpayable",
      "type": "function"
    },
    {
      "inputs": [
        {
          "internalType": "uint256",
          "name": "_amount",
          "type": "uint256"
        }
      ],
      "name": "withdraw",
      "outputs": [],
      "stateMutability": "nonpayable",
      "type": "function"
    },
    {
      "inputs": [
        {
          "internalType": "uint16",
          "name": "dstChainId_",
          "type": "uint16"
        }
      ],
      "name": "withdrawForRebalance",
      "outputs": [],
      "stateMutability": "payable",
      "type": "function"
    }
  ],
  "transactionHash": "0x98a71379a66e4b7538539756801b0084ced1586229614c4c01073cf58ad8ca05",
  "args": [
    "0xc14900dFB1Aa54e7674e1eCf9ce02b3b35157ba5",
    "0x8f156189A3CD28dFc8FB7BbbAce58F98F09c0bB3",
    "0x8731d54E9D02c286767d56ac03e8037C07e01e98",
    "0xfA0F307783AC21C39E939ACFF795e27b650F6e68",
    "0xB0D502E938ed5f4df2E681fE6E419ff29631d62b",
    7,
    4,
    "Stargate_FRAX"
  ],
  "numDeployments": 2,
  "solcInputHash": "f50be24825a08c25d3a62ecca354e430",
  "bytecode": "0x6101806040523480156200001257600080fd5b5060405162003e2f38038062003e2f83398101604081905262000035916200057d565b878760006001600160a01b038316620000955760405162461bcd60e51b815260206004820152601460248201527f706f6f6c2d616464726573732d69732d7a65726f00000000000000000000000060448201526064015b60405180910390fd5b6001600160a01b038216620000ed5760405162461bcd60e51b815260206004820152601760248201527f737761707065722d616464726573732d69732d7a65726f00000000000000000060448201526064016200008c565b600280546001600160a01b0319166001600160a01b0384811691909117909155831660a081905260408051637e062a3560e11b8152905163fc0c546a91600480820192602092909190829003018186803b1580156200014b57600080fd5b505afa15801562000160573d6000803e3d6000fd5b505050506040513d601f19601f82011682018060405250810190620001869190620006dd565b6001600160a01b03908116608052600080546001600160a01b031916918316919091179055620001cd620001b73390565b60036200043660201b620018d71790919060201c565b6200020f5760405162461bcd60e51b81526020600482015260116024820152701859190b5ad9595c195c8b59985a5b1959607a1b60448201526064016200008c565b5050506001600160a01b0386166200025f5760405162461bcd60e51b81526020600482015260126024820152717374672d726f757465722d69732d7a65726f60701b60448201526064016200008c565b6001600160a01b038516620002b75760405162461bcd60e51b815260206004820152601360248201527f7374672d6c702d706f6f6c2d69732d7a65726f0000000000000000000000000060448201526064016200008c565b6001600160a01b0384166200030f5760405162461bcd60e51b815260206004820152601360248201527f7374672d7374616b696e672d69732d7a65726f0000000000000000000000000060448201526064016200008c565b60008311620003545760405162461bcd60e51b815260206004820152601060248201526f7374672d706f6f6c2d69732d7a65726f60801b60448201526064016200008c565b6001600160a01b038681166101605284811660c0819052600080546001600160a01b03191692881692831790556101409190915261010084905260e083905260408051633604cef760e11b81529051636c099dee91600480820192602092909190829003018186803b158015620003ca57600080fd5b505afa158015620003df573d6000803e3d6000fd5b505050506040513d601f19601f82011682018060405250810190620004059190620006dd565b6001600160a01b031661012052805162000427906005906020840190620004a8565b50505050505050505062000741565b60006200044d836001600160a01b03841662000456565b90505b92915050565b60008181526001830160205260408120546200049f5750815460018181018455600084815260208082209093018490558454848252828601909352604090209190915562000450565b50600062000450565b828054620004b69062000704565b90600052602060002090601f016020900481019282620004da576000855562000525565b82601f10620004f557805160ff191683800117855562000525565b8280016001018555821562000525579182015b828111156200052557825182559160200191906001019062000508565b506200053392915062000537565b5090565b5b8082111562000533576000815560010162000538565b6001600160a01b03811681146200056457600080fd5b50565b634e487b7160e01b600052604160045260246000fd5b600080600080600080600080610100898b0312156200059b57600080fd5b8851620005a8816200054e565b809850506020808a0151620005bd816200054e565b60408b0151909850620005d0816200054e565b60608b0151909750620005e3816200054e565b60808b0151909650620005f6816200054e565b60a08b015160c08c015160e08d015192975090955093506001600160401b03808211156200062357600080fd5b818c0191508c601f8301126200063857600080fd5b8151818111156200064d576200064d62000567565b604051601f8201601f19908116603f0116810190838211818310171562000678576200067862000567565b816040528281528f868487010111156200069157600080fd5b600093505b82841015620006b5578484018601518185018701529285019262000696565b82841115620006c75760008684830101525b8096505050505050509295985092959890939650565b600060208284031215620006f057600080fd5b8151620006fd816200054e565b9392505050565b600181811c908216806200071957607f821691505b602082108114156200073b57634e487b7160e01b600052602260045260246000fd5b50919050565b60805160a05160c05160e051610100516101205161014051610160516134dd620009526000396000818161087b01528181611cec01528181612246015281816122ee0152612b9e01526000818161194601528181611a1501528181611b9301528181612278015281816122cc01528181612731015281816127d4015281816128650152612c540152600081816105450152818161232401528181612a9d0152612b30015260008181610409015281816108ac015281816108cd01528181611cb80152612b6b01526000818161034801528181610d2501528181610dea01528181611aed01528181612458015281816129f30152612c3301526000818161031401528181610d5401528181610e1901528181611b1a0152818161229a0152818161242901528181612a200152612c040152600081816101c3015281816105b8015281816107140152818161079f015281816109b601528181610ad201528181610bb001528181610c0c01528181610fb6015281816110530152818161127f0152818161144801528181611d8e01528181611e2e015281816120e70152612d790152600081816103d5015281816104ba01528181610a1501528181610ab001528181610b2401528181610be3015281816111e30152818161167a0152818161184001528181611ecf01528181611f0d0152818161200b01528181612165015281816122240152612d5701526134dd6000f3fe6080604052600436106101775760003560e01c8063a3f4df7e116100cc578063d8dfeb451161007a578063d8dfeb45146104ab578063e00af4a7146104de578063e5328e06146104fe578063ec78e83214610513578063f7c618c114610533578063fc0c546a14610567578063ffa1ad741461058557600080fd5b8063a3f4df7e146103a1578063b2016bd4146103c3578063b2bc2298146103f7578063c415b95c1461042b578063ce5494bb1461044b578063d2c35ce81461046b578063d3033c391461048b57600080fd5b80634dadd90a116101295780634dadd90a1461029a578063698a0cc3146102bd5780637d7c2a1c146102d25780637e2d5759146103025780638fe14eec14610336578063951dc22c1461036a57806399b71d5c1461038c57600080fd5b806314ae9f2e1461017c578063162514281461019e57806316f0115b146101b15780632b3297f9146101fb5780632e1a7d4d1461021b5780634032b72b1461023b578063440d72481461025b575b600080fd5b34801561018857600080fd5b5061019c6101973660046130ed565b6105b6565b005b61019c6101ac36600461310a565b6106d1565b3480156101bd57600080fd5b506101e57f000000000000000000000000000000000000000000000000000000000000000081565b6040516101f2919061312e565b60405180910390f35b34801561020757600080fd5b506002546101e5906001600160a01b031681565b34801561022757600080fd5b5061019c610236366004613142565b6109b3565b34801561024757600080fd5b5061019c6102563660046130ed565b610c0a565b34801561026757600080fd5b5061028a6102763660046130ed565b6000546001600160a01b0391821691161490565b60405190151581526020016101f2565b3480156102a657600080fd5b506102af610d16565b6040519081526020016101f2565b3480156102c957600080fd5b506102af610ddb565b3480156102de57600080fd5b506102e7610ea1565b604080519384526020840192909252908201526060016101f2565b34801561030e57600080fd5b506101e57f000000000000000000000000000000000000000000000000000000000000000081565b34801561034257600080fd5b506102af7f000000000000000000000000000000000000000000000000000000000000000081565b34801561037657600080fd5b5061037f610edd565b6040516101f2919061315b565b34801561039857600080fd5b5061019c610ee9565b3480156103ad57600080fd5b506103b6610f25565b6040516101f29190613200565b3480156103cf57600080fd5b506101e57f000000000000000000000000000000000000000000000000000000000000000081565b34801561040357600080fd5b506102af7f000000000000000000000000000000000000000000000000000000000000000081565b34801561043757600080fd5b506001546101e5906001600160a01b031681565b34801561045757600080fd5b5061019c6104663660046130ed565b610fb3565b34801561047757600080fd5b5061019c6104863660046130ed565b61127d565b34801561049757600080fd5b5061019c6104a63660046130ed565b611446565b3480156104b757600080fd5b507f00000000000000000000000000000000000000000000000000000000000000006101e5565b3480156104ea57600080fd5b5061019c6104f93660046130ed565b611603565b34801561050a57600080fd5b506102af611826565b34801561051f57600080fd5b506000546101e5906001600160a01b031681565b34801561053f57600080fd5b506101e57f000000000000000000000000000000000000000000000000000000000000000081565b34801561057357600080fd5b506000546001600160a01b03166101e5565b34801561059157600080fd5b506103b6604051806040016040528060058152602001640352e302e360dc1b81525081565b7f00000000000000000000000000000000000000000000000000000000000000006001600160a01b0316630c340a246040518163ffffffff1660e01b815260040160206040518083038186803b15801561060f57600080fd5b505afa158015610623573d6000803e3d6000fd5b505050506040513d601f19601f820116820180604052508101906106479190613213565b6001600160a01b0316336001600160a01b0316146106805760405162461bcd60e51b815260040161067790613230565b60405180910390fd5b61068b6003826118f5565b6106ce5760405162461bcd60e51b81526020600482015260146024820152731c995b5bdd994b5ad9595c195c8b59985a5b195960621b6044820152606401610677565b50565b6106de335b60039061190a565b6106fa5760405162461bcd60e51b815260040161067790613267565b604051636a9eee1360e11b81526000906001600160a01b037f0000000000000000000000000000000000000000000000000000000000000000169063d53ddc269061074990309060040161312e565b60206040518083038186803b15801561076157600080fd5b505afa158015610775573d6000803e3d6000fd5b505050506040513d601f19601f820116820180604052508101906107999190613297565b905060007f00000000000000000000000000000000000000000000000000000000000000006001600160a01b0316639f2b2833306040518263ffffffff1660e01b81526004016107e9919061312e565b60206040518083038186803b15801561080157600080fd5b505afa158015610815573d6000803e3d6000fd5b505050506040513d601f19601f820116820180604052508101906108399190613297565b9050600061084561192c565b9050818111156108665761085982826132c6565b61086390846132dd565b92505b600061087184611a03565b905080156109ac577f00000000000000000000000000000000000000000000000000000000000000006001600160a01b0316638f2e1d1834877f00000000000000000000000000000000000000000000000000000000000000007f0000000000000000000000000000000000000000000000000000000000000000338730604051602001610917919060609190911b6bffffffffffffffffffffffff1916815260140190565b60408051601f198184030181526060830182526000808452602084810191909152825180840184526002815261060f60f31b918101919091528383015290516001600160e01b031960e08b901b168152610979979695949392906004016132f5565b6000604051808303818588803b15801561099257600080fd5b505af11580156109a6573d6000803e3d6000fd5b50505050505b5050505050565b337f00000000000000000000000000000000000000000000000000000000000000006001600160a01b0316146109fb5760405162461bcd60e51b815260040161067790613370565b6040516370a0823160e01b81526000906001600160a01b037f000000000000000000000000000000000000000000000000000000000000000016906370a0823190610a4a90309060040161312e565b60206040518083038186803b158015610a6257600080fd5b505afa158015610a76573d6000803e3d6000fd5b505050506040513d601f19601f82011682018060405250810190610a9a9190613297565b9050818110610afb57610af76001600160a01b037f0000000000000000000000000000000000000000000000000000000000000000167f000000000000000000000000000000000000000000000000000000000000000084611c2b565b5050565b610b0d610b0882846132c6565b611c93565b6040516370a0823160e01b81526001600160a01b037f000000000000000000000000000000000000000000000000000000000000000016906370a0823190610b5990309060040161312e565b60206040518083038186803b158015610b7157600080fd5b505afa158015610b85573d6000803e3d6000fd5b505050506040513d601f19601f82011682018060405250810190610ba99190613297565b9050610af77f0000000000000000000000000000000000000000000000000000000000000000610bd98484611d70565b6001600160a01b037f0000000000000000000000000000000000000000000000000000000000000000169190611c2b565b7f00000000000000000000000000000000000000000000000000000000000000006001600160a01b0316630c340a246040518163ffffffff1660e01b815260040160206040518083038186803b158015610c6357600080fd5b505afa158015610c77573d6000803e3d6000fd5b505050506040513d601f19601f82011682018060405250810190610c9b9190613213565b6001600160a01b0316336001600160a01b031614610ccb5760405162461bcd60e51b815260040161067790613230565b610cd66003826118d7565b6106ce5760405162461bcd60e51b81526020600482015260116024820152701859190b5ad9595c195c8b59985a5b1959607a1b6044820152606401610677565b6040516393f1a40b60e01b81527f000000000000000000000000000000000000000000000000000000000000000060048201523060248201526000907f00000000000000000000000000000000000000000000000000000000000000006001600160a01b0316906393f1a40b90604401604080518083038186803b158015610d9d57600080fd5b505afa158015610db1573d6000803e3d6000fd5b505050506040513d601f19601f82011682018060405250810190610dd591906133a3565b50919050565b604051632f607fdd60e01b81527f000000000000000000000000000000000000000000000000000000000000000060048201523060248201526000907f00000000000000000000000000000000000000000000000000000000000000006001600160a01b031690632f607fdd906044015b60206040518083038186803b158015610e6457600080fd5b505afa158015610e78573d6000803e3d6000fd5b505050506040513d601f19601f82011682018060405250810190610e9c9190613297565b905090565b60008080610eae336106d6565b610eca5760405162461bcd60e51b815260040161067790613267565b610ed2611d86565b925092509250909192565b6060610e9c60036121fa565b610ef2336106d6565b610f0e5760405162461bcd60e51b815260040161067790613267565b610f18600061220e565b610f2360001961220e565b565b60058054610f32906133c7565b80601f0160208091040260200160405190810160405280929190818152602001828054610f5e906133c7565b8015610fab5780601f10610f8057610100808354040283529160200191610fab565b820191906000526020600020905b815481529060010190602001808311610f8e57829003601f168201915b505050505081565b337f00000000000000000000000000000000000000000000000000000000000000006001600160a01b031614610ffb5760405162461bcd60e51b815260040161067790613370565b6001600160a01b0381166110515760405162461bcd60e51b815260206004820152601c60248201527f6e65772d73747261746567792d616464726573732d69732d7a65726f000000006044820152606401610677565b7f00000000000000000000000000000000000000000000000000000000000000006001600160a01b0316816001600160a01b03166316f0115b6040518163ffffffff1660e01b815260040160206040518083038186803b1580156110b457600080fd5b505afa1580156110c8573d6000803e3d6000fd5b505050506040513d601f19601f820116820180604052508101906110ec9190613213565b6001600160a01b03161461113b5760405162461bcd60e51b81526020600482015260166024820152756e6f742d76616c69642d6e65772d737472617465677960501b6044820152606401610677565b6111448161234d565b6000546040516370a0823160e01b81526111dd9183916001600160a01b03909116906370a082319061117a90309060040161312e565b60206040518083038186803b15801561119257600080fd5b505afa1580156111a6573d6000803e3d6000fd5b505050506040513d601f19601f820116820180604052508101906111ca9190613297565b6000546001600160a01b03169190611c2b565b6106ce817f00000000000000000000000000000000000000000000000000000000000000006001600160a01b03166370a08231306040518263ffffffff1660e01b815260040161122d919061312e565b60206040518083038186803b15801561124557600080fd5b505afa158015611259573d6000803e3d6000fd5b505050506040513d601f19601f82011682018060405250810190610bd99190613297565b7f00000000000000000000000000000000000000000000000000000000000000006001600160a01b0316630c340a246040518163ffffffff1660e01b815260040160206040518083038186803b1580156112d657600080fd5b505afa1580156112ea573d6000803e3d6000fd5b505050506040513d601f19601f8201168201806040525081019061130e9190613213565b6001600160a01b0316336001600160a01b03161461133e5760405162461bcd60e51b815260040161067790613230565b6001600160a01b0381166113945760405162461bcd60e51b815260206004820152601d60248201527f6665652d636f6c6c6563746f722d616464726573732d69732d7a65726f0000006044820152606401610677565b6001546001600160a01b03828116911614156113ea5760405162461bcd60e51b81526020600482015260156024820152746665652d636f6c6c6563746f722d69732d73616d6560581b6044820152606401610677565b6001546040516001600160a01b038084169216907f0f06062680f9bd68e786e9980d9bb03d73d5620fc3b345e417b6eacb310b970690600090a3600180546001600160a01b0319166001600160a01b0392909216919091179055565b7f00000000000000000000000000000000000000000000000000000000000000006001600160a01b0316630c340a246040518163ffffffff1660e01b815260040160206040518083038186803b15801561149f57600080fd5b505afa1580156114b3573d6000803e3d6000fd5b505050506040513d601f19601f820116820180604052508101906114d79190613213565b6001600160a01b0316336001600160a01b0316146115075760405162461bcd60e51b815260040161067790613230565b6001600160a01b0381166115575760405162461bcd60e51b8152602060048201526017602482015276737761707065722d616464726573732d69732d7a65726f60481b6044820152606401610677565b6002546001600160a01b03828116911614156115a75760405162461bcd60e51b815260206004820152600f60248201526e737761707065722d69732d73616d6560881b6044820152606401610677565b6002546040516001600160a01b038084169216907f6c953b7ec311055c20b96a42cea31e89528e375b1bf953a503db40854b3188fe90600090a3600280546001600160a01b0319166001600160a01b0392909216919091179055565b61160c336106d6565b6116285760405162461bcd60e51b815260040161067790613267565b6001546001600160a01b03166116785760405162461bcd60e51b81526020600482015260156024820152741999594b58dbdb1b1958dd1bdc8b5b9bdd0b5cd95d605a1b6044820152606401610677565b7f00000000000000000000000000000000000000000000000000000000000000006001600160a01b0316816001600160a01b031614156116fa5760405162461bcd60e51b815260206004820152601f60248201527f6e6f742d616c6c6f7765642d746f2d73776565702d636f6c6c61746572616c006044820152606401610677565b6000546001600160a01b038281169116141561174f5760405162461bcd60e51b815260206004820152601460248201527306e6f742d616c6c6f7765642d746f2d73776565760641b6044820152606401610677565b6001600160a01b03811673eeeeeeeeeeeeeeeeeeeeeeeeeeeeeeeeeeeeeeee141561178a576001546106ce906001600160a01b0316476124d1565b6040516370a0823160e01b81526000906001600160a01b038316906370a08231906117b990309060040161312e565b60206040518083038186803b1580156117d157600080fd5b505afa1580156117e5573d6000803e3d6000fd5b505050506040513d601f19601f820116820180604052508101906118099190613297565b600154909150610af7906001600160a01b03848116911683611c2b565b6040516370a0823160e01b81526000906001600160a01b037f000000000000000000000000000000000000000000000000000000000000000016906370a082319061187590309060040161312e565b60206040518083038186803b15801561188d57600080fd5b505afa1580156118a1573d6000803e3d6000fd5b505050506040513d601f19601f820116820180604052508101906118c59190613297565b6118cd61192c565b610e9c91906132dd565b60006118ec836001600160a01b0384166125ea565b90505b92915050565b60006118ec836001600160a01b038416612639565b6001600160a01b038116600090815260018301602052604081205415156118ec565b6040516370a0823160e01b81526000906001600160a01b037f0000000000000000000000000000000000000000000000000000000000000000169063f6cd35ee9082906370a082319061198390309060040161312e565b60206040518083038186803b15801561199b57600080fd5b505afa1580156119af573d6000803e3d6000fd5b505050506040513d601f19601f820116820180604052508101906119d39190613297565b6119db610d16565b6119e591906132dd565b6040518263ffffffff1660e01b8152600401610e4c91815260200190565b600080611a0f8361272c565b905060007f00000000000000000000000000000000000000000000000000000000000000006001600160a01b03166370a08231306040518263ffffffff1660e01b8152600401611a5f919061312e565b60206040518083038186803b158015611a7757600080fd5b505afa158015611a8b573d6000803e3d6000fd5b505050506040513d601f19601f82011682018060405250810190611aaf9190613297565b905080821115611c24576000611ac3610d16565b90506000611ad183856132c6565b905081811115611ade5750805b604051630441a3e760e41b81527f00000000000000000000000000000000000000000000000000000000000000006004820152602481018290527f00000000000000000000000000000000000000000000000000000000000000006001600160a01b03169063441a3e7090604401600060405180830381600087803b158015611b6657600080fd5b505af1158015611b7a573d6000803e3d6000fd5b50506040516370a0823160e01b81526001600160a01b037f00000000000000000000000000000000000000000000000000000000000000001692506370a082319150611bca90309060040161312e565b60206040518083038186803b158015611be257600080fd5b505afa158015611bf6573d6000803e3d6000fd5b505050506040513d601f19601f82011682018060405250810190611c1a9190613297565b9695505050505050565b5092915050565b6040516001600160a01b038316602482015260448101829052611c8e90849063a9059cbb60e01b906064015b60408051601f198184030181529190526020810180516001600160e01b03166001600160e01b031990931692909217909152612912565b505050565b6000611c9e82611a03565b90508015610af75760405163c4de93a560e01b815261ffff7f0000000000000000000000000000000000000000000000000000000000000000166004820152602481018290523060448201527f00000000000000000000000000000000000000000000000000000000000000006001600160a01b03169063c4de93a590606401602060405180830381600087803b158015611d3857600080fd5b505af1158015611d4c573d6000803e3d6000fd5b505050506040513d601f19601f82011682018060405250810190611c8e9190613297565b6000818310611d7f57816118ec565b5090919050565b6000806000807f00000000000000000000000000000000000000000000000000000000000000006001600160a01b031663d53ddc26306040518263ffffffff1660e01b8152600401611dd8919061312e565b60206040518083038186803b158015611df057600080fd5b505afa158015611e04573d6000803e3d6000fd5b505050506040513d601f19601f82011682018060405250810190611e289190613297565b905060007f00000000000000000000000000000000000000000000000000000000000000006001600160a01b0316639f2b2833306040518263ffffffff1660e01b8152600401611e78919061312e565b60206040518083038186803b158015611e9057600080fd5b505afa158015611ea4573d6000803e3d6000fd5b505050506040513d601f19601f82011682018060405250810190611ec89190613297565b9050611ef37f00000000000000000000000000000000000000000000000000000000000000006129e4565b6040516370a0823160e01b81526000906001600160a01b037f000000000000000000000000000000000000000000000000000000000000000016906370a0823190611f4290309060040161312e565b60206040518083038186803b158015611f5a57600080fd5b505afa158015611f6e573d6000803e3d6000fd5b505050506040513d601f19601f82011682018060405250810190611f929190613297565b9050600081611f9f61192c565b611fa991906132dd565b905082811115611fc457611fbd83826132c6565b9650611fd1565b611fce81846132c6565b95505b6000611fdd85896132dd565b90508281111561209357611ff4610b0884836132c6565b6040516370a0823160e01b81526001600160a01b037f000000000000000000000000000000000000000000000000000000000000000016906370a082319061204090309060040161312e565b60206040518083038186803b15801561205857600080fd5b505afa15801561206c573d6000803e3d6000fd5b505050506040513d601f19601f820116820180604052508101906120909190613297565b92505b61209d8386611d70565b95508583116120ad5760006120c0565b6120c06120ba87856132c6565b89611d70565b6040516302df682360e11b81526004810182905260248101899052604481018890529098507f00000000000000000000000000000000000000000000000000000000000000006001600160a01b0316906305bed04690606401600060405180830381600087803b15801561213357600080fd5b505af1158015612147573d6000803e3d6000fd5b50506040516370a0823160e01b81526121f092506001600160a01b037f00000000000000000000000000000000000000000000000000000000000000001691506370a082319061219b90309060040161312e565b60206040518083038186803b1580156121b357600080fd5b505afa1580156121c7573d6000803e3d6000fd5b505050506040513d601f19601f820116820180604052508101906121eb9190613297565b612b56565b5050505050909192565b6060600061220783612cee565b9392505050565b61221781612d4a565b61226b6001600160a01b037f0000000000000000000000000000000000000000000000000000000000000000167f000000000000000000000000000000000000000000000000000000000000000083612d9a565b6122bf6001600160a01b037f0000000000000000000000000000000000000000000000000000000000000000167f000000000000000000000000000000000000000000000000000000000000000083612d9a565b6123136001600160a01b037f0000000000000000000000000000000000000000000000000000000000000000167f000000000000000000000000000000000000000000000000000000000000000083612d9a565b6002546106ce906001600160a01b037f00000000000000000000000000000000000000000000000000000000000000008116911683612d9a565b60008054906101000a90046001600160a01b03166001600160a01b0316816001600160a01b031663fc0c546a6040518163ffffffff1660e01b815260040160206040518083038186803b1580156123a357600080fd5b505afa1580156123b7573d6000803e3d6000fd5b505050506040513d601f19601f820116820180604052508101906123db9190613213565b6001600160a01b0316146124275760405162461bcd60e51b81526020600482015260136024820152723bb937b73396b932b1b2b4b83a16ba37b5b2b760691b6044820152606401610677565b7f00000000000000000000000000000000000000000000000000000000000000006001600160a01b031663441a3e707f000000000000000000000000000000000000000000000000000000000000000061247f610d16565b6040516001600160e01b031960e085901b16815260048101929092526024820152604401600060405180830381600087803b1580156124bd57600080fd5b505af11580156109ac573d6000803e3d6000fd5b804710156125215760405162461bcd60e51b815260206004820152601d60248201527f416464726573733a20696e73756666696369656e742062616c616e63650000006044820152606401610677565b6000826001600160a01b03168260405160006040518083038185875af1925050503d806000811461256e576040519150601f19603f3d011682016040523d82523d6000602084013e612573565b606091505b5050905080611c8e5760405162461bcd60e51b815260206004820152603a60248201527f416464726573733a20756e61626c6520746f2073656e642076616c75652c207260448201527f6563697069656e74206d617920686176652072657665727465640000000000006064820152608401610677565b6000818152600183016020526040812054612631575081546001818101845560008481526020808220909301849055845484825282860190935260409020919091556118ef565b5060006118ef565b6000818152600183016020526040812054801561272257600061265d6001836132c6565b8554909150600090612671906001906132c6565b90508181146126d6576000866000018281548110612691576126916133fc565b90600052602060002001549050808760000184815481106126b4576126b46133fc565b6000918252602080832090910192909255918252600188019052604090208390555b85548690806126e7576126e7613412565b6001900381819060005260206000200160009055905585600101600086815260200190815260200160002060009055600193505050506118ef565b60009150506118ef565b6000807f00000000000000000000000000000000000000000000000000000000000000006001600160a01b03166315770f926040518163ffffffff1660e01b815260040160206040518083038186803b15801561278857600080fd5b505afa15801561279c573d6000803e3d6000fd5b505050506040513d601f19601f820116820180604052508101906127c09190613297565b9050600081116127d1576000612207565b807f00000000000000000000000000000000000000000000000000000000000000006001600160a01b03166318160ddd6040518163ffffffff1660e01b815260040160206040518083038186803b15801561282b57600080fd5b505afa15801561283f573d6000803e3d6000fd5b505050506040513d601f19601f820116820180604052508101906128639190613297565b7f00000000000000000000000000000000000000000000000000000000000000006001600160a01b031663feb56b156040518163ffffffff1660e01b815260040160206040518083038186803b1580156128bc57600080fd5b505afa1580156128d0573d6000803e3d6000fd5b505050506040513d601f19601f820116820180604052508101906128f49190613297565b6128fe9086613428565b612908919061344a565b6122079190613428565b6000612967826040518060400160405280602081526020017f5361666545524332303a206c6f772d6c6576656c2063616c6c206661696c6564815250856001600160a01b0316612ebe9092919063ffffffff16565b805190915015611c8e57808060200190518101906129859190613469565b611c8e5760405162461bcd60e51b815260206004820152602a60248201527f5361666545524332303a204552433230206f7065726174696f6e20646964206e6044820152691bdd081cdd58d8d9595960b21b6064820152608401610677565b604051630441a3e760e41b81527f00000000000000000000000000000000000000000000000000000000000000006004820152600060248201527f00000000000000000000000000000000000000000000000000000000000000006001600160a01b03169063441a3e7090604401600060405180830381600087803b158015612a6c57600080fd5b505af1158015612a80573d6000803e3d6000fd5b50506040516370a0823160e01b8152600092506001600160a01b037f00000000000000000000000000000000000000000000000000000000000000001691506370a0823190612ad390309060040161312e565b60206040518083038186803b158015612aeb57600080fd5b505afa158015612aff573d6000803e3d6000fd5b505050506040513d601f19601f82011682018060405250810190612b239190613297565b90508015610af757610af77f00000000000000000000000000000000000000000000000000000000000000008383612ed5565b80156106ce576040516321ec87bf60e21b81527f00000000000000000000000000000000000000000000000000000000000000006004820152602481018290523060448201527f00000000000000000000000000000000000000000000000000000000000000006001600160a01b0316906387b21efc90606401600060405180830381600087803b158015612bea57600080fd5b505af1158015612bfe573d6000803e3d6000fd5b505050507f00000000000000000000000000000000000000000000000000000000000000006001600160a01b031663e2bbb1587f00000000000000000000000000000000000000000000000000000000000000007f00000000000000000000000000000000000000000000000000000000000000006001600160a01b03166370a08231306040518263ffffffff1660e01b8152600401612c9e919061312e565b60206040518083038186803b158015612cb657600080fd5b505afa158015612cca573d6000803e3d6000fd5b505050506040513d601f19601f8201168201806040525081019061247f9190613297565b606081600001805480602002602001604051908101604052809291908181526020018280548015612d3e57602002820191906000526020600020905b815481526020019060010190808311612d2a575b50505050509050919050565b6106ce6001600160a01b037f0000000000000000000000000000000000000000000000000000000000000000167f0000000000000000000000000000000000000000000000000000000000000000835b801580612e235750604051636eb1769f60e11b81523060048201526001600160a01b03838116602483015284169063dd62ed3e9060440160206040518083038186803b158015612de957600080fd5b505afa158015612dfd573d6000803e3d6000fd5b505050506040513d601f19601f82011682018060405250810190612e219190613297565b155b612e8e5760405162461bcd60e51b815260206004820152603660248201527f5361666545524332303a20617070726f76652066726f6d206e6f6e2d7a65726f60448201527520746f206e6f6e2d7a65726f20616c6c6f77616e636560501b6064820152608401610677565b6040516001600160a01b038316602482015260448101829052611c8e90849063095ea7b360e01b90606401611c57565b6060612ecd8484600085612f77565b949350505050565b600254604051636ccb2b0160e01b81526001600160a01b0385811660048301528481166024830152604482018490526001606483015230608483015290911690636ccb2b019060a401602060405180830381600087803b158015612f3857600080fd5b505af1925050508015612f68575060408051601f3d908101601f19168201909252612f6591810190613297565b60015b612f7157505050565b50505050565b606082471015612fd85760405162461bcd60e51b815260206004820152602660248201527f416464726573733a20696e73756666696369656e742062616c616e636520666f6044820152651c8818d85b1b60d21b6064820152608401610677565b843b6130265760405162461bcd60e51b815260206004820152601d60248201527f416464726573733a2063616c6c20746f206e6f6e2d636f6e74726163740000006044820152606401610677565b600080866001600160a01b03168587604051613042919061348b565b60006040518083038185875af1925050503d806000811461307f576040519150601f19603f3d011682016040523d82523d6000602084013e613084565b606091505b509150915061309482828661309f565b979650505050505050565b606083156130ae575081612207565b8251156130be5782518084602001fd5b8160405162461bcd60e51b81526004016106779190613200565b6001600160a01b03811681146106ce57600080fd5b6000602082840312156130ff57600080fd5b8135612207816130d8565b60006020828403121561311c57600080fd5b813561ffff8116811461220757600080fd5b6001600160a01b0391909116815260200190565b60006020828403121561315457600080fd5b5035919050565b6020808252825182820181905260009190848201906040850190845b8181101561319c5783516001600160a01b031683529284019291840191600101613177565b50909695505050505050565b60005b838110156131c35781810151838201526020016131ab565b83811115612f715750506000910152565b600081518084526131ec8160208601602086016131a8565b601f01601f19169290920160200192915050565b6020815260006118ec60208301846131d4565b60006020828403121561322557600080fd5b8151612207816130d8565b6020808252601a908201527f63616c6c65722d69732d6e6f742d7468652d676f7665726e6f72000000000000604082015260600190565b60208082526016908201527531b0b63632b916b4b996b737ba16b096b5b2b2b832b960511b604082015260600190565b6000602082840312156132a957600080fd5b5051919050565b634e487b7160e01b600052601160045260246000fd5b6000828210156132d8576132d86132b0565b500390565b600082198211156132f0576132f06132b0565b500190565b61ffff8816815286602082015285604082015260018060a01b038516606082015283608082015260e060a0820152600061333260e08301856131d4565b82810360c0840152835181526020840151602082015260408401516060604083015261336160608301826131d4565b9b9a5050505050505050505050565b60208082526019908201527818d85b1b195c8b5a5ccb5b9bdd0b5d995cdc195c8b5c1bdbdb603a1b604082015260600190565b600080604083850312156133b657600080fd5b505080516020909101519092909150565b600181811c908216806133db57607f821691505b60208210811415610dd557634e487b7160e01b600052602260045260246000fd5b634e487b7160e01b600052603260045260246000fd5b634e487b7160e01b600052603160045260246000fd5b60008261344557634e487b7160e01b600052601260045260246000fd5b500490565b6000816000190483118215151615613464576134646132b0565b500290565b60006020828403121561347b57600080fd5b8151801515811461220757600080fd5b6000825161349d8184602087016131a8565b919091019291505056fea2646970667358221220dfef23b9d151646ba940bfdfbc65c22d73d61e0c2526abe7201703fc9b5aa2b764736f6c63430008090033",
  "devdoc": {
    "kind": "dev",
    "methods": {
      "addKeeper(address)": {
        "params": {
          "_keeperAddress": "keeper address to add."
        }
      },
      "approveToken()": {
        "details": "Approve all required tokens"
      },
      "migrate(address)": {
        "details": "_beforeMigration hook can be implemented in child strategy to do extra steps.",
        "params": {
          "_newStrategy": "Address of new strategy"
        }
      },
      "rebalance()": {
        "returns": {
          "_loss": "Realized loss, if any, in collateral.",
          "_payback": "If strategy has any excess debt, we have to liquidate asset to payback excess debt.",
          "_profit": "Realized profit in collateral."
        }
      },
      "removeKeeper(address)": {
        "params": {
          "_keeperAddress": "keeper address to remove."
        }
      },
      "sweepERC20(address)": {
        "params": {
          "_fromToken": "token address to sweep"
        }
      },
      "updateFeeCollector(address)": {
        "params": {
          "_feeCollector": "fee collector address"
        }
      },
      "updateSwapper(address)": {
        "params": {
          "_swapper": "swapper address"
        }
      },
      "withdraw(uint256)": {
        "params": {
          "_amount": "Amount of collateral token"
        }
      },
      "withdrawForRebalance(uint16)": {
        "details": "Stargate has different chainId than EVM chainId.",
        "params": {
          "dstChainId_": "Destination chainId."
        }
      }
    },
    "stateVariables": {
      "stargateRouter": {
        "details": "Router to add/remove liquidity from a STG Pool"
      }
    },
    "title": "This Strategy will deposit collateral token in a Stargate Pool Stake LP Token and accrue swap rewards",
    "version": 1
  },
  "userdoc": {
    "kind": "user",
    "methods": {
      "addKeeper(address)": {
        "notice": "Add given address in keepers list."
      },
      "collateral()": {
        "notice": "Returns address of token correspond to collateral token"
      },
      "keepers()": {
        "notice": "Return list of keepers"
      },
      "migrate(address)": {
        "notice": "Migrate all asset and vault ownership,if any, to new strategy"
      },
      "rebalance()": {
        "notice": "OnlyKeeper: Rebalance profit, loss and investment of this strategy.  Calculate profit, loss and payback of this strategy and realize profit/loss and  withdraw fund for payback, if any, and submit this report to pool."
      },
      "removeKeeper(address)": {
        "notice": "Remove given address from keepers list."
      },
      "rewardToken()": {
        "notice": "rewardToken, usually STG"
      },
      "stargateLpStaking()": {
        "notice": "Address of Staking contract (MasterChef V2 behavior)"
      },
      "stargateLpStakingPoolId()": {
        "notice": "Reward pool id of the MasterChef"
      },
      "stargatePoolId()": {
        "notice": "Stargate Factory LP Pool Id"
      },
      "sweepERC20(address)": {
        "notice": "sweep given token to feeCollector of strategy"
      },
      "token()": {
        "notice": "Returns address of token correspond to receipt token"
      },
      "tvl()": {
        "notice": "Returns total collateral locked in the strategy"
      },
      "updateFeeCollector(address)": {
        "notice": "Update fee collector"
      },
      "updateSwapper(address)": {
        "notice": "Update swapper"
      },
      "withdraw(uint256)": {
        "notice": "Withdraw collateral token from end protocol."
      },
      "withdrawForRebalance(uint16)": {
        "notice": "OnlyKeeper: This function will withdraw required collateral from given   destination chain to the chain where this contract is deployed."
      }
    },
    "version": 1
  },
  "storageLayout": {
    "storage": [
      {
        "astId": 14313,
        "contract": "vesper-strategies/contracts/strategies/stargate/Stargate.sol:Stargate",
        "label": "receiptToken",
        "offset": 0,
        "slot": "0",
        "type": "t_address"
      },
      {
        "astId": 14319,
        "contract": "vesper-strategies/contracts/strategies/stargate/Stargate.sol:Stargate",
        "label": "feeCollector",
        "offset": 0,
        "slot": "1",
        "type": "t_address"
      },
      {
        "astId": 14322,
        "contract": "vesper-strategies/contracts/strategies/stargate/Stargate.sol:Stargate",
        "label": "swapper",
        "offset": 0,
        "slot": "2",
        "type": "t_contract(IRoutedSwapper)13174"
      },
      {
        "astId": 14335,
        "contract": "vesper-strategies/contracts/strategies/stargate/Stargate.sol:Stargate",
        "label": "_keepers",
        "offset": 0,
        "slot": "3",
        "type": "t_struct(AddressSet)3020_storage"
      },
      {
        "astId": 27833,
        "contract": "vesper-strategies/contracts/strategies/stargate/Stargate.sol:Stargate",
        "label": "NAME",
        "offset": 0,
        "slot": "5",
        "type": "t_string_storage"
      }
    ],
    "types": {
      "t_address": {
        "encoding": "inplace",
        "label": "address",
        "numberOfBytes": "20"
      },
      "t_array(t_bytes32)dyn_storage": {
        "base": "t_bytes32",
        "encoding": "dynamic_array",
        "label": "bytes32[]",
        "numberOfBytes": "32"
      },
      "t_bytes32": {
        "encoding": "inplace",
        "label": "bytes32",
        "numberOfBytes": "32"
      },
      "t_contract(IRoutedSwapper)13174": {
        "encoding": "inplace",
        "label": "contract IRoutedSwapper",
        "numberOfBytes": "20"
      },
      "t_mapping(t_bytes32,t_uint256)": {
        "encoding": "mapping",
        "key": "t_bytes32",
        "label": "mapping(bytes32 => uint256)",
        "numberOfBytes": "32",
        "value": "t_uint256"
      },
      "t_string_storage": {
        "encoding": "bytes",
        "label": "string",
        "numberOfBytes": "32"
      },
      "t_struct(AddressSet)3020_storage": {
        "encoding": "inplace",
        "label": "struct EnumerableSet.AddressSet",
        "members": [
          {
            "astId": 3019,
            "contract": "vesper-strategies/contracts/strategies/stargate/Stargate.sol:Stargate",
            "label": "_inner",
            "offset": 0,
            "slot": "0",
            "type": "t_struct(Set)2719_storage"
          }
        ],
        "numberOfBytes": "64"
      },
      "t_struct(Set)2719_storage": {
        "encoding": "inplace",
        "label": "struct EnumerableSet.Set",
        "members": [
          {
            "astId": 2714,
            "contract": "vesper-strategies/contracts/strategies/stargate/Stargate.sol:Stargate",
            "label": "_values",
            "offset": 0,
            "slot": "0",
            "type": "t_array(t_bytes32)dyn_storage"
          },
          {
            "astId": 2718,
            "contract": "vesper-strategies/contracts/strategies/stargate/Stargate.sol:Stargate",
            "label": "_indexes",
            "offset": 0,
            "slot": "1",
            "type": "t_mapping(t_bytes32,t_uint256)"
          }
        ],
        "numberOfBytes": "64"
      },
      "t_uint256": {
        "encoding": "inplace",
        "label": "uint256",
        "numberOfBytes": "32"
      }
    }
  }
}