{
  "address": "0x2C56fc3E0a4075dD43691143Ad5b70b00c46e7ed",
  "abi": [
    {
      "inputs": [
        {
          "internalType": "address",
          "name": "_pool",
          "type": "address"
        },
        {
          "internalType": "address",
          "name": "_swapper",
          "type": "address"
        },
        {
          "internalType": "address",
          "name": "_receiptToken",
          "type": "address"
        },
        {
          "internalType": "address",
          "name": "_borrowToken",
          "type": "address"
        },
        {
          "internalType": "address",
          "name": "_aaveAddressProvider",
          "type": "address"
        },
        {
          "internalType": "address",
          "name": "_vPool",
          "type": "address"
        },
        {
          "internalType": "address",
          "name": "_vspAddress",
          "type": "address"
        },
        {
          "internalType": "string",
          "name": "_name",
          "type": "string"
        }
      ],
      "stateMutability": "nonpayable",
      "type": "constructor"
    },
    {
      "anonymous": false,
      "inputs": [
        {
          "indexed": false,
          "internalType": "uint256",
          "name": "previousMinBorrowLimit",
          "type": "uint256"
        },
        {
          "indexed": false,
          "internalType": "uint256",
          "name": "newMinBorrowLimit",
          "type": "uint256"
        },
        {
          "indexed": false,
          "internalType": "uint256",
          "name": "previousMaxBorrowLimit",
          "type": "uint256"
        },
        {
          "indexed": false,
          "internalType": "uint256",
          "name": "newMaxBorrowLimit",
          "type": "uint256"
        }
      ],
      "name": "UpdatedBorrowLimit",
      "type": "event"
    },
    {
      "anonymous": false,
      "inputs": [
        {
          "indexed": true,
          "internalType": "address",
          "name": "previousFeeCollector",
          "type": "address"
        },
        {
          "indexed": true,
          "internalType": "address",
          "name": "newFeeCollector",
          "type": "address"
        }
      ],
      "name": "UpdatedFeeCollector",
      "type": "event"
    },
    {
      "anonymous": false,
      "inputs": [
        {
          "indexed": true,
          "internalType": "contract IRoutedSwapper",
          "name": "oldSwapper",
          "type": "address"
        },
        {
          "indexed": true,
          "internalType": "contract IRoutedSwapper",
          "name": "newSwapper",
          "type": "address"
        }
      ],
      "name": "UpdatedSwapper",
      "type": "event"
    },
    {
      "inputs": [],
      "name": "NAME",
      "outputs": [
        {
          "internalType": "string",
          "name": "",
          "type": "string"
        }
      ],
      "stateMutability": "view",
      "type": "function"
    },
    {
      "inputs": [],
      "name": "VERSION",
      "outputs": [
        {
          "internalType": "string",
          "name": "",
          "type": "string"
        }
      ],
      "stateMutability": "view",
      "type": "function"
    },
    {
      "inputs": [],
      "name": "aaveAddressProvider",
      "outputs": [
        {
          "internalType": "contract PoolAddressesProvider",
          "name": "",
          "type": "address"
        }
      ],
      "stateMutability": "view",
      "type": "function"
    },
    {
      "inputs": [
        {
          "internalType": "address",
          "name": "_keeperAddress",
          "type": "address"
        }
      ],
      "name": "addKeeper",
      "outputs": [],
      "stateMutability": "nonpayable",
      "type": "function"
    },
    {
      "inputs": [],
      "name": "approveToken",
      "outputs": [],
      "stateMutability": "nonpayable",
      "type": "function"
    },
    {
      "inputs": [],
      "name": "borrowToken",
      "outputs": [
        {
          "internalType": "address",
          "name": "",
          "type": "address"
        }
      ],
      "stateMutability": "view",
      "type": "function"
    },
    {
      "inputs": [],
      "name": "collateral",
      "outputs": [
        {
          "internalType": "address",
          "name": "",
          "type": "address"
        }
      ],
      "stateMutability": "view",
      "type": "function"
    },
    {
      "inputs": [],
      "name": "collateralToken",
      "outputs": [
        {
          "internalType": "contract IERC20",
          "name": "",
          "type": "address"
        }
      ],
      "stateMutability": "view",
      "type": "function"
    },
    {
      "inputs": [],
      "name": "feeCollector",
      "outputs": [
        {
          "internalType": "address",
          "name": "",
          "type": "address"
        }
      ],
      "stateMutability": "view",
      "type": "function"
    },
    {
      "inputs": [],
      "name": "harvestVSP",
      "outputs": [],
      "stateMutability": "nonpayable",
      "type": "function"
    },
    {
      "inputs": [
        {
          "internalType": "address",
          "name": "_token",
          "type": "address"
        }
      ],
      "name": "isReservedToken",
      "outputs": [
        {
          "internalType": "bool",
          "name": "",
          "type": "bool"
        }
      ],
      "stateMutability": "view",
      "type": "function"
    },
    {
      "inputs": [],
      "name": "keepers",
      "outputs": [
        {
          "internalType": "address[]",
          "name": "",
          "type": "address[]"
        }
      ],
      "stateMutability": "view",
      "type": "function"
    },
    {
      "inputs": [],
      "name": "maxBorrowLimit",
      "outputs": [
        {
          "internalType": "uint256",
          "name": "",
          "type": "uint256"
        }
      ],
      "stateMutability": "view",
      "type": "function"
    },
    {
      "inputs": [
        {
          "internalType": "address",
          "name": "_newStrategy",
          "type": "address"
        }
      ],
      "name": "migrate",
      "outputs": [],
      "stateMutability": "nonpayable",
      "type": "function"
    },
    {
      "inputs": [],
      "name": "minBorrowLimit",
      "outputs": [
        {
          "internalType": "uint256",
          "name": "",
          "type": "uint256"
        }
      ],
      "stateMutability": "view",
      "type": "function"
    },
    {
      "inputs": [],
      "name": "pool",
      "outputs": [
        {
          "internalType": "address",
          "name": "",
          "type": "address"
        }
      ],
      "stateMutability": "view",
      "type": "function"
    },
    {
      "inputs": [],
      "name": "rebalance",
      "outputs": [
        {
          "internalType": "uint256",
          "name": "_profit",
          "type": "uint256"
        },
        {
          "internalType": "uint256",
          "name": "_loss",
          "type": "uint256"
        },
        {
          "internalType": "uint256",
          "name": "_payback",
          "type": "uint256"
        }
      ],
      "stateMutability": "nonpayable",
      "type": "function"
    },
    {
      "inputs": [],
      "name": "receiptToken",
      "outputs": [
        {
          "internalType": "address",
          "name": "",
          "type": "address"
        }
      ],
      "stateMutability": "view",
      "type": "function"
    },
    {
      "inputs": [
        {
          "internalType": "address",
          "name": "_keeperAddress",
          "type": "address"
        }
      ],
      "name": "removeKeeper",
      "outputs": [],
      "stateMutability": "nonpayable",
      "type": "function"
    },
    {
      "inputs": [],
      "name": "swapper",
      "outputs": [
        {
          "internalType": "contract IRoutedSwapper",
          "name": "",
          "type": "address"
        }
      ],
      "stateMutability": "view",
      "type": "function"
    },
    {
      "inputs": [
        {
          "internalType": "address",
          "name": "_fromToken",
          "type": "address"
        }
      ],
      "name": "sweepERC20",
      "outputs": [],
      "stateMutability": "nonpayable",
      "type": "function"
    },
    {
      "inputs": [],
      "name": "token",
      "outputs": [
        {
          "internalType": "address",
          "name": "",
          "type": "address"
        }
      ],
      "stateMutability": "view",
      "type": "function"
    },
    {
      "inputs": [],
      "name": "tvl",
      "outputs": [
        {
          "internalType": "uint256",
          "name": "",
          "type": "uint256"
        }
      ],
      "stateMutability": "view",
      "type": "function"
    },
    {
      "inputs": [
        {
          "internalType": "uint256",
          "name": "_minBorrowLimit",
          "type": "uint256"
        },
        {
          "internalType": "uint256",
          "name": "_maxBorrowLimit",
          "type": "uint256"
        }
      ],
      "name": "updateBorrowLimit",
      "outputs": [],
      "stateMutability": "nonpayable",
      "type": "function"
    },
    {
      "inputs": [
        {
          "internalType": "address",
          "name": "_feeCollector",
          "type": "address"
        }
      ],
      "name": "updateFeeCollector",
      "outputs": [],
      "stateMutability": "nonpayable",
      "type": "function"
    },
    {
      "inputs": [
        {
          "internalType": "contract IRoutedSwapper",
          "name": "_swapper",
          "type": "address"
        }
      ],
      "name": "updateSwapper",
      "outputs": [],
      "stateMutability": "nonpayable",
      "type": "function"
    },
    {
      "inputs": [],
      "name": "vPool",
      "outputs": [
        {
          "internalType": "contract IVesperPool",
          "name": "",
          "type": "address"
        }
      ],
      "stateMutability": "view",
      "type": "function"
    },
    {
      "inputs": [],
      "name": "vdToken",
      "outputs": [
        {
          "internalType": "contract AToken",
          "name": "",
          "type": "address"
        }
      ],
      "stateMutability": "view",
      "type": "function"
    },
    {
      "inputs": [],
      "name": "vsp",
      "outputs": [
        {
          "internalType": "address",
          "name": "",
          "type": "address"
        }
      ],
      "stateMutability": "view",
      "type": "function"
    },
    {
      "inputs": [
        {
          "internalType": "uint256",
          "name": "_amount",
          "type": "uint256"
        }
      ],
      "name": "withdraw",
      "outputs": [],
      "stateMutability": "nonpayable",
      "type": "function"
    }
  ],
  "transactionHash": "0xd1cd76e8e8e984b5ca72735271e420447fac4d41e666be7b163b1968745a4f3e",
  "args": [
    "0xEa94eBB08E9604AFD225f2c61fa61401F1ed1047",
    "0xC85831dED6fCB15A288dfF49D256CBBC2B58388f",
    "0x6d80113e533a2C0fe82EaBD35f1875DcEA89Ea97",
    "0xd586E7F844cEa2F87f50152665BCbc2C279D8d70",
    "0xa97684ead0e402dC232d5A977953DF7ECBaB3CDb",
    "0x5323F445A8665239222b117aE095423a238F5706",
    "0xE70EFb1ff1C0b63FDF84B5EA319693cf804914A8",
    "AaveV3_Vesper_Xy_AVAX_DAIe"
  ],
  "numDeployments": 1,
  "solcInputHash": "434ef3c4077e9e378e0827dcb90f0ccd",
  "bytecode": "0x610120604052611b586006556121346007553480156200001e57600080fd5b506040516200588f3803806200588f8339810160408190526200004191620007aa565b8787878787858585856001600160a01b038316620000a65760405162461bcd60e51b815260206004820152601460248201527f706f6f6c2d616464726573732d69732d7a65726f00000000000000000000000060448201526064015b60405180910390fd5b6001600160a01b038216620000fe5760405162461bcd60e51b815260206004820152601760248201527f737761707065722d616464726573732d69732d7a65726f00000000000000000060448201526064016200009d565b600280546001600160a01b0319166001600160a01b0384811691909117909155831660a081905260408051637e062a3560e11b8152905163fc0c546a91600480820192602092909190829003018186803b1580156200015c57600080fd5b505afa15801562000171573d6000803e3d6000fd5b505050506040513d601f19601f8201168201806040525081019062000197919062000921565b6001600160a01b03908116608052600080546001600160a01b031916918316919091179055620001de620001c83390565b60036200066360201b620017e11790919060201c565b620002205760405162461bcd60e51b81526020600482015260116024820152701859190b5ad9595c195c8b59985a5b1959607a1b60448201526064016200009d565b505081516200023891506005906020840190620006d5565b506001600160a01b038216620002915760405162461bcd60e51b815260206004820152601760248201527f6164647265737350726f76696465722d69732d7a65726f00000000000000000060448201526064016200009d565b856001600160a01b031663fc0c546a6040518163ffffffff1660e01b815260040160206040518083038186803b158015620002cb57600080fd5b505afa158015620002e0573d6000803e3d6000fd5b505050506040513d601f19601f8201168201806040525081019062000306919062000921565b6001600160a01b0316846001600160a01b031663b16a19de6040518163ffffffff1660e01b815260040160206040518083038186803b1580156200034957600080fd5b505afa1580156200035e573d6000803e3d6000fd5b505050506040513d601f19601f8201168201806040525081019062000384919062000921565b6001600160a01b031614620003dc5760405162461bcd60e51b815260206004820152601560248201527f696e76616c69642d726563656970742d746f6b656e000000000000000000000060448201526064016200009d565b600080836001600160a01b031663e860accb6040518163ffffffff1660e01b815260040160206040518083038186803b1580156200041957600080fd5b505afa1580156200042e573d6000803e3d6000fd5b505050506040513d601f19601f8201168201806040525081019062000454919062000921565b6040516334924edb60e21b81526001600160a01b038781166004830152919091169063d2493b6c9060240160606040518083038186803b1580156200049857600080fd5b505afa158015620004ad573d6000803e3d6000fd5b505050506040513d601f19601f82011682018060405250810190620004d3919062000948565b600980546001600160a01b03199081166001600160a01b039384161790915560088054821699831699909917909855600a80549098169281169290921790965593841660c05250505086161515935062000574925050505760405162461bcd60e51b815260206004820152601360248201527f696e76616c69642d7673702d616464726573730000000000000000000000000060448201526064016200009d565b60085460408051637e062a3560e11b815290516001600160a01b039283169286169163fc0c546a916004808301926020929190829003018186803b158015620005bc57600080fd5b505afa158015620005d1573d6000803e3d6000fd5b505050506040513d601f19601f82011682018060405250810190620005f7919062000921565b6001600160a01b031614620006435760405162461bcd60e51b81526020600482015260116024820152701a5b9d985b1a590b59dc9bddcb5c1bdbdb607a1b60448201526064016200009d565b506001600160a01b0391821660e052166101005250620009d99350505050565b60006200067a836001600160a01b03841662000683565b90505b92915050565b6000818152600183016020526040812054620006cc575081546001818101845560008481526020808220909301849055845484825282860190935260409020919091556200067d565b5060006200067d565b828054620006e3906200099c565b90600052602060002090601f01602090048101928262000707576000855562000752565b82601f106200072257805160ff191683800117855562000752565b8280016001018555821562000752579182015b828111156200075257825182559160200191906001019062000735565b506200076092915062000764565b5090565b5b8082111562000760576000815560010162000765565b6001600160a01b03811681146200079157600080fd5b50565b634e487b7160e01b600052604160045260246000fd5b600080600080600080600080610100898b031215620007c857600080fd5b8851620007d5816200077b565b809850506020808a0151620007ea816200077b565b60408b0151909850620007fd816200077b565b60608b015190975062000810816200077b565b60808b015190965062000823816200077b565b60a08b015190955062000836816200077b565b60c08b015190945062000849816200077b565b60e08b01519093506001600160401b03808211156200086757600080fd5b818c0191508c601f8301126200087c57600080fd5b81518181111562000891576200089162000794565b604051601f8201601f19908116603f01168101908382118183101715620008bc57620008bc62000794565b816040528281528f86848701011115620008d557600080fd5b600093505b82841015620008f95784840186015181850187015292850192620008da565b828411156200090b5760008684830101525b8096505050505050509295985092959890939650565b6000602082840312156200093457600080fd5b815162000941816200077b565b9392505050565b6000806000606084860312156200095e57600080fd5b83516200096b816200077b565b60208501519093506200097e816200077b565b604085015190925062000991816200077b565b809150509250925092565b600181811c90821680620009b157607f821691505b60208210811415620009d357634e487b7160e01b600052602260045260246000fd5b50919050565b60805160a05160c05160e05161010051614cc662000bc96000396000818161020901528181610a9001528181610b2201526123ec0152600081816102a701528181610977015281816123b601528181612b7c01528181612c1801528181613964015281816140f4015281816141de01526142110152600081816103700152818161187b01528181611c150152818161257301528181613318015281816134f501528181613a480152613b410152600081816101d5015281816104720152818161058e015281816106aa01528181610788015281816107e401528181610c8b01528181610d2801528181610f540152818161111d0152818161161e01528181611ae301528181611e3a0152818161203001526142df015260008181610336015281816103cd015281816105ed01528181610688015281816106fc015281816107bb015281816108f201528181610b4301528181610eb80152818161134f0152818161150d01528181611cab01528181611d1b01528181611f52015281816120ad015281816129f901528181612a9b01528181612da801528181612e6201528181612f110152818161300a015281816131380152818161317a01528181613444015281816135940152818161362f01528181613ae101528181613b1501528181613d0501526142bd0152614cc66000f3fe608060405234801561001057600080fd5b506004361061019a5760003560e01c8063a3f4df7e116100e4578063d8dfeb4511610092578063d8dfeb45146103cb578063e00af4a7146103f1578063e260d74714610404578063e5328e061461040d578063ec78e83214610415578063fb7ee10214610428578063fc0c546a1461043b578063ffa1ad741461044c57600080fd5b8063a3f4df7e1461031c578063b2016bd414610331578063c415b95c14610358578063cdaabe411461036b578063ce5494bb14610392578063d2c35ce8146103a5578063d3033c39146103b857600080fd5b8063440d72481161014c578063440d724814610264578063456dc17a146102875780634fc90c2c1461029a5780636719578c146102a25780637d7c2a1c146102c957806390d67514146102ec578063951dc22c146102ff57806399b71d5c1461031457600080fd5b80630181686c1461019f57806314ae9f2e146101bb57806316f0115b146101d057806329ba73ed146102045780632b3297f91461022b5780632e1a7d4d1461023e5780634032b72b14610251575b600080fd5b6101a860075481565b6040519081526020015b60405180910390f35b6101ce6101c936600461447a565b610470565b005b6101f77f000000000000000000000000000000000000000000000000000000000000000081565b6040516101b29190614497565b6101f77f000000000000000000000000000000000000000000000000000000000000000081565b6002546101f7906001600160a01b031681565b6101ce61024c3660046144ab565b61058b565b6101ce61025f36600461447a565b6107e2565b61027761027236600461447a565b6108ee565b60405190151581526020016101b2565b6008546101f7906001600160a01b031681565b6101ce610973565b6101f77f000000000000000000000000000000000000000000000000000000000000000081565b6102d1610b6d565b604080519384526020840192909252908201526060016101b2565b6009546101f7906001600160a01b031681565b610307610bad565b6040516101b29190614508565b6101ce610bbe565b610324610bfa565b6040516101b29190614547565b6101f77f000000000000000000000000000000000000000000000000000000000000000081565b6001546101f7906001600160a01b031681565b6101f77f000000000000000000000000000000000000000000000000000000000000000081565b6101ce6103a036600461447a565b610c88565b6101ce6103b336600461447a565b610f52565b6101ce6103c636600461447a565b61111b565b7f00000000000000000000000000000000000000000000000000000000000000006101f7565b6101ce6103ff36600461447a565b6112d8565b6101a860065481565b6101a86114f3565b6000546101f7906001600160a01b031681565b6101ce61043636600461457a565b61161c565b6000546001600160a01b03166101f7565b610324604051806040016040528060058152602001640352e302e360dc1b81525081565b7f00000000000000000000000000000000000000000000000000000000000000006001600160a01b0316630c340a246040518163ffffffff1660e01b815260040160206040518083038186803b1580156104c957600080fd5b505afa1580156104dd573d6000803e3d6000fd5b505050506040513d601f19601f82011682018060405250810190610501919061459c565b6001600160a01b0316336001600160a01b03161461053a5760405162461bcd60e51b8152600401610531906145b9565b60405180910390fd5b6105456003826117fd565b6105885760405162461bcd60e51b81526020600482015260146024820152731c995b5bdd994b5ad9595c195c8b59985a5b195960621b6044820152606401610531565b50565b337f00000000000000000000000000000000000000000000000000000000000000006001600160a01b0316146105d35760405162461bcd60e51b8152600401610531906145f0565b6040516370a0823160e01b81526000906001600160a01b037f000000000000000000000000000000000000000000000000000000000000000016906370a0823190610622903090600401614497565b60206040518083038186803b15801561063a57600080fd5b505afa15801561064e573d6000803e3d6000fd5b505050506040513d601f19601f820116820180604052508101906106729190614623565b90508181106106d3576106cf6001600160a01b037f0000000000000000000000000000000000000000000000000000000000000000167f000000000000000000000000000000000000000000000000000000000000000084611812565b5050565b6106e56106e08284614652565b611875565b6040516370a0823160e01b81526001600160a01b037f000000000000000000000000000000000000000000000000000000000000000016906370a0823190610731903090600401614497565b60206040518083038186803b15801561074957600080fd5b505afa15801561075d573d6000803e3d6000fd5b505050506040513d601f19601f820116820180604052508101906107819190614623565b90506106cf7f00000000000000000000000000000000000000000000000000000000000000006107b18484611a0f565b6001600160a01b037f0000000000000000000000000000000000000000000000000000000000000000169190611812565b7f00000000000000000000000000000000000000000000000000000000000000006001600160a01b0316630c340a246040518163ffffffff1660e01b815260040160206040518083038186803b15801561083b57600080fd5b505afa15801561084f573d6000803e3d6000fd5b505050506040513d601f19601f82011682018060405250810190610873919061459c565b6001600160a01b0316336001600160a01b0316146108a35760405162461bcd60e51b8152600401610531906145b9565b6108ae6003826117e1565b6105885760405162461bcd60e51b81526020600482015260116024820152701859190b5ad9595c195c8b59985a5b1959607a1b6044820152606401610531565b60007f00000000000000000000000000000000000000000000000000000000000000006001600160a01b0316826001600160a01b0316148061093d57506000546001600160a01b038381169116145b8061095557506009546001600160a01b038381169116145b8061096d57506008546001600160a01b038381169116145b92915050565b60007f00000000000000000000000000000000000000000000000000000000000000006001600160a01b0316638bc6beb26040518163ffffffff1660e01b815260040160206040518083038186803b1580156109ce57600080fd5b505afa1580156109e2573d6000803e3d6000fd5b505050506040513d601f19601f82011682018060405250810190610a06919061459c565b90506001600160a01b03811615610a765760405163d279c19160e01b81526001600160a01b0382169063d279c19190610a43903090600401614497565b600060405180830381600087803b158015610a5d57600080fd5b505af1158015610a71573d6000803e3d6000fd5b505050505b6040516370a0823160e01b81526000906001600160a01b037f000000000000000000000000000000000000000000000000000000000000000016906370a0823190610ac5903090600401614497565b60206040518083038186803b158015610add57600080fd5b505afa158015610af1573d6000803e3d6000fd5b505050506040513d601f19601f82011682018060405250810190610b159190614623565b905080156106cf57610b687f00000000000000000000000000000000000000000000000000000000000000007f000000000000000000000000000000000000000000000000000000000000000083611a25565b505050565b60008080610b7e335b600390611ab9565b610b9a5760405162461bcd60e51b815260040161053190614669565b610ba2611adb565b925092509250909192565b6060610bb9600361238e565b905090565b610bc733610b76565b610be35760405162461bcd60e51b815260040161053190614669565b610bed600061239b565b610bf860001961239b565b565b60058054610c0790614699565b80601f0160208091040260200160405190810160405280929190818152602001828054610c3390614699565b8015610c805780601f10610c5557610100808354040283529160200191610c80565b820191906000526020600020905b815481529060010190602001808311610c6357829003601f168201915b505050505081565b337f00000000000000000000000000000000000000000000000000000000000000006001600160a01b031614610cd05760405162461bcd60e51b8152600401610531906145f0565b6001600160a01b038116610d265760405162461bcd60e51b815260206004820152601c60248201527f6e65772d73747261746567792d616464726573732d69732d7a65726f000000006044820152606401610531565b7f00000000000000000000000000000000000000000000000000000000000000006001600160a01b0316816001600160a01b03166316f0115b6040518163ffffffff1660e01b815260040160206040518083038186803b158015610d8957600080fd5b505afa158015610d9d573d6000803e3d6000fd5b505050506040513d601f19601f82011682018060405250810190610dc1919061459c565b6001600160a01b031614610e105760405162461bcd60e51b81526020600482015260166024820152756e6f742d76616c69642d6e65772d737472617465677960501b6044820152606401610531565b610e1981612415565b6000546040516370a0823160e01b8152610eb29183916001600160a01b03909116906370a0823190610e4f903090600401614497565b60206040518083038186803b158015610e6757600080fd5b505afa158015610e7b573d6000803e3d6000fd5b505050506040513d601f19601f82011682018060405250810190610e9f9190614623565b6000546001600160a01b03169190611812565b610588817f00000000000000000000000000000000000000000000000000000000000000006001600160a01b03166370a08231306040518263ffffffff1660e01b8152600401610f029190614497565b60206040518083038186803b158015610f1a57600080fd5b505afa158015610f2e573d6000803e3d6000fd5b505050506040513d601f19601f820116820180604052508101906107b19190614623565b7f00000000000000000000000000000000000000000000000000000000000000006001600160a01b0316630c340a246040518163ffffffff1660e01b815260040160206040518083038186803b158015610fab57600080fd5b505afa158015610fbf573d6000803e3d6000fd5b505050506040513d601f19601f82011682018060405250810190610fe3919061459c565b6001600160a01b0316336001600160a01b0316146110135760405162461bcd60e51b8152600401610531906145b9565b6001600160a01b0381166110695760405162461bcd60e51b815260206004820152601d60248201527f6665652d636f6c6c6563746f722d616464726573732d69732d7a65726f0000006044820152606401610531565b6001546001600160a01b03828116911614156110bf5760405162461bcd60e51b81526020600482015260156024820152746665652d636f6c6c6563746f722d69732d73616d6560581b6044820152606401610531565b6001546040516001600160a01b038084169216907f0f06062680f9bd68e786e9980d9bb03d73d5620fc3b345e417b6eacb310b970690600090a3600180546001600160a01b0319166001600160a01b0392909216919091179055565b7f00000000000000000000000000000000000000000000000000000000000000006001600160a01b0316630c340a246040518163ffffffff1660e01b815260040160206040518083038186803b15801561117457600080fd5b505afa158015611188573d6000803e3d6000fd5b505050506040513d601f19601f820116820180604052508101906111ac919061459c565b6001600160a01b0316336001600160a01b0316146111dc5760405162461bcd60e51b8152600401610531906145b9565b6001600160a01b03811661122c5760405162461bcd60e51b8152602060048201526017602482015276737761707065722d616464726573732d69732d7a65726f60481b6044820152606401610531565b6002546001600160a01b038281169116141561127c5760405162461bcd60e51b815260206004820152600f60248201526e737761707065722d69732d73616d6560881b6044820152606401610531565b6002546040516001600160a01b038084169216907f6c953b7ec311055c20b96a42cea31e89528e375b1bf953a503db40854b3188fe90600090a3600280546001600160a01b0319166001600160a01b0392909216919091179055565b6112e133610b76565b6112fd5760405162461bcd60e51b815260040161053190614669565b6001546001600160a01b031661134d5760405162461bcd60e51b81526020600482015260156024820152741999594b58dbdb1b1958dd1bdc8b5b9bdd0b5cd95d605a1b6044820152606401610531565b7f00000000000000000000000000000000000000000000000000000000000000006001600160a01b0316816001600160a01b031614156113cf5760405162461bcd60e51b815260206004820152601f60248201527f6e6f742d616c6c6f7765642d746f2d73776565702d636f6c6c61746572616c006044820152606401610531565b6113d8816108ee565b1561141c5760405162461bcd60e51b815260206004820152601460248201527306e6f742d616c6c6f7765642d746f2d73776565760641b6044820152606401610531565b6001600160a01b03811673eeeeeeeeeeeeeeeeeeeeeeeeeeeeeeeeeeeeeeee141561145757600154610588906001600160a01b031647612607565b6040516370a0823160e01b81526000906001600160a01b038316906370a0823190611486903090600401614497565b60206040518083038186803b15801561149e57600080fd5b505afa1580156114b2573d6000803e3d6000fd5b505050506040513d601f19601f820116820180604052508101906114d69190614623565b6001549091506106cf906001600160a01b03848116911683611812565b6040516370a0823160e01b81526000906001600160a01b037f000000000000000000000000000000000000000000000000000000000000000016906370a0823190611542903090600401614497565b60206040518083038186803b15801561155a57600080fd5b505afa15801561156e573d6000803e3d6000fd5b505050506040513d601f19601f820116820180604052508101906115929190614623565b6000546040516370a0823160e01b81526001600160a01b03909116906370a08231906115c2903090600401614497565b60206040518083038186803b1580156115da57600080fd5b505afa1580156115ee573d6000803e3d6000fd5b505050506040513d601f19601f820116820180604052508101906116129190614623565b610bb991906146d4565b7f00000000000000000000000000000000000000000000000000000000000000006001600160a01b0316630c340a246040518163ffffffff1660e01b815260040160206040518083038186803b15801561167557600080fd5b505afa158015611689573d6000803e3d6000fd5b505050506040513d601f19601f820116820180604052508101906116ad919061459c565b6001600160a01b0316336001600160a01b0316146116dd5760405162461bcd60e51b8152600401610531906145b9565b61271081106117295760405162461bcd60e51b81526020600482015260186024820152771a5b9d985b1a590b5b585e0b589bdc9c9bddcb5b1a5b5a5d60421b6044820152606401610531565b80158015611735575081155b8061173f57508181115b61178b5760405162461bcd60e51b815260206004820152601d60248201527f6d61782d73686f756c642d62652d6869676865722d7468616e2d6d696e0000006044820152606401610531565b6006546007546040805192835260208301859052820152606081018290527fedd77444afdf63401315e81ffe86d08f7865796e8ad2e11acf1d56a1393f07d59060800160405180910390a1600691909155600755565b60006117f6836001600160a01b038416612720565b9392505050565b60006117f6836001600160a01b03841661276f565b6040516001600160a01b038316602482015260448101829052610b6890849063a9059cbb60e01b906064015b60408051601f198184030181529190526020810180516001600160e01b03166001600160e01b031990931692909217909152612862565b610588817f00000000000000000000000000000000000000000000000000000000000000006001600160a01b031663026b1d5f6040518163ffffffff1660e01b815260040160206040518083038186803b1580156118d257600080fd5b505afa1580156118e6573d6000803e3d6000fd5b505050506040513d601f19601f8201168201806040525081019061190a919061459c565b6009546040516370a0823160e01b81526001600160a01b03909116906370a082319061193a903090600401614497565b60206040518083038186803b15801561195257600080fd5b505afa158015611966573d6000803e3d6000fd5b505050506040513d601f19601f8201168201806040525081019061198a9190614623565b6000546040516370a0823160e01b81526001600160a01b03909116906370a08231906119ba903090600401614497565b60206040518083038186803b1580156119d257600080fd5b505afa1580156119e6573d6000803e3d6000fd5b505050506040513d601f19601f82011682018060405250810190611a0a9190614623565b612934565b6000818310611a1e57816117f6565b5090919050565b600254604051636ccb2b0160e01b81526000916001600160a01b031690636ccb2b0190611a5f9087908790879060019030906004016146ec565b602060405180830381600087803b158015611a7957600080fd5b505af1158015611a8d573d6000803e3d6000fd5b505050506040513d601f19601f82011682018060405250810190611ab19190614623565b949350505050565b6001600160a01b038116600090815260018301602052604081205415156117f6565b6000806000807f00000000000000000000000000000000000000000000000000000000000000006001600160a01b031663d53ddc26306040518263ffffffff1660e01b8152600401611b2d9190614497565b60206040518083038186803b158015611b4557600080fd5b505afa158015611b59573d6000803e3d6000fd5b505050506040513d601f19601f82011682018060405250810190611b7d9190614623565b6009546040516370a0823160e01b81529192506000916001600160a01b03909116906370a0823190611bb3903090600401614497565b60206040518083038186803b158015611bcb57600080fd5b505afa158015611bdf573d6000803e3d6000fd5b505050506040513d601f19601f82011682018060405250810190611c039190614623565b90506000611c0f612b6f565b905060007f00000000000000000000000000000000000000000000000000000000000000006001600160a01b031663026b1d5f6040518163ffffffff1660e01b815260040160206040518083038186803b158015611c6c57600080fd5b505afa158015611c80573d6000803e3d6000fd5b505050506040513d601f19601f82011682018060405250810190611ca4919061459c565b9050611ccf7f0000000000000000000000000000000000000000000000000000000000000000612ceb565b81831115611cef57611cea611ce48385614652565b82612d8b565b611d01565b611d01611cfc8484614652565b61308e565b6040516370a0823160e01b81526000906001600160a01b037f000000000000000000000000000000000000000000000000000000000000000016906370a0823190611d50903090600401614497565b60206040518083038186803b158015611d6857600080fd5b505afa158015611d7c573d6000803e3d6000fd5b505050506040513d601f19601f82011682018060405250810190611da09190614623565b600080546040516370a0823160e01b815292935090916001600160a01b03909116906370a0823190611dd6903090600401614497565b60206040518083038186803b158015611dee57600080fd5b505afa158015611e02573d6000803e3d6000fd5b505050506040513d601f19601f82011682018060405250810190611e269190614623565b90506000611e3483836146d4565b905060007f00000000000000000000000000000000000000000000000000000000000000006001600160a01b0316639f2b2833306040518263ffffffff1660e01b8152600401611e849190614497565b60206040518083038186803b158015611e9c57600080fd5b505afa158015611eb0573d6000803e3d6000fd5b505050506040513d601f19601f82011682018060405250810190611ed49190614623565b905080821115611eef57611ee88183614652565b9a50611efc565b611ef98282614652565b99505b6000611f08898d6146d4565b905080851015611fdc576000611f27611f218784614652565b86611a0f565b90508015611fda57611f3b81888b88612934565b6040516370a0823160e01b81526001600160a01b037f000000000000000000000000000000000000000000000000000000000000000016906370a0823190611f87903090600401614497565b60206040518083038186803b158015611f9f57600080fd5b505afa158015611fb3573d6000803e3d6000fd5b505050506040513d601f19601f82011682018060405250810190611fd79190614623565b95505b505b611fe6858a611a0f565b9950898511611ff6576000612009565b6120096120038b87614652565b8d611a0f565b6040516302df682360e11b815260048101829052602481018d9052604481018c9052909c507f00000000000000000000000000000000000000000000000000000000000000006001600160a01b0316906305bed04690606401600060405180830381600087803b15801561207c57600080fd5b505af1158015612090573d6000803e3d6000fd5b50506040516370a0823160e01b8152600092506001600160a01b037f00000000000000000000000000000000000000000000000000000000000000001691506370a08231906120e3903090600401614497565b60206040518083038186803b1580156120fb57600080fd5b505afa15801561210f573d6000803e3d6000fd5b505050506040513d601f19601f820116820180604052508101906121339190614623565b905061213f818861315d565b6009546040516370a0823160e01b8152600091829161224f91839182916001600160a01b0316906370a082319061217a903090600401614497565b60206040518083038186803b15801561219257600080fd5b505afa1580156121a6573d6000803e3d6000fd5b505050506040513d601f19601f820116820180604052508101906121ca9190614623565b6000546040516370a0823160e01b81526001600160a01b03909116906370a08231906121fa903090600401614497565b60206040518083038186803b15801561221257600080fd5b505afa158015612226573d6000803e3d6000fd5b505050506040513d601f19601f8201168201806040525081019061224a9190614623565b613270565b9092509050801561226957612264818a6138ce565b6122ea565b81156122ea5760085460405163a415bcad60e01b81526001600160a01b039182166004820152602481018490526002604482015260006064820152306084820152908a169063a415bcad9060a401600060405180830381600087803b1580156122d157600080fd5b505af11580156122e5573d6000803e3d6000fd5b505050505b6008546040516370a0823160e01b81526000916001600160a01b0316906370a082319061231b903090600401614497565b60206040518083038186803b15801561233357600080fd5b505afa158015612347573d6000803e3d6000fd5b505050506040513d601f19601f8201168201806040525081019061236b9190614623565b9050801561237c5761237c8161394e565b50505050505050505050505050909192565b606060006117f6836139c4565b6123a481613a20565b6008546123db906001600160a01b03167f000000000000000000000000000000000000000000000000000000000000000083613ddc565b600254610588906001600160a01b037f00000000000000000000000000000000000000000000000000000000000000008116911683613ddc565b60008054906101000a90046001600160a01b03166001600160a01b0316816001600160a01b031663fc0c546a6040518163ffffffff1660e01b815260040160206040518083038186803b15801561246b57600080fd5b505afa15801561247f573d6000803e3d6000fd5b505050506040513d601f19601f820116820180604052508101906124a3919061459c565b6001600160a01b0316146124ef5760405162461bcd60e51b81526020600482015260136024820152723bb937b73396b932b1b2b4b83a16ba37b5b2b760691b6044820152606401610531565b6009546040516370a0823160e01b8152610588916001600160a01b0316906370a0823190612521903090600401614497565b60206040518083038186803b15801561253957600080fd5b505afa15801561254d573d6000803e3d6000fd5b505050506040513d601f19601f820116820180604052508101906125719190614623565b7f00000000000000000000000000000000000000000000000000000000000000006001600160a01b031663026b1d5f6040518163ffffffff1660e01b815260040160206040518083038186803b1580156125ca57600080fd5b505afa1580156125de573d6000803e3d6000fd5b505050506040513d601f19601f82011682018060405250810190612602919061459c565b6138ce565b804710156126575760405162461bcd60e51b815260206004820152601d60248201527f416464726573733a20696e73756666696369656e742062616c616e63650000006044820152606401610531565b6000826001600160a01b03168260405160006040518083038185875af1925050503d80600081146126a4576040519150601f19603f3d011682016040523d82523d6000602084013e6126a9565b606091505b5050905080610b685760405162461bcd60e51b815260206004820152603a60248201527f416464726573733a20756e61626c6520746f2073656e642076616c75652c207260448201527f6563697069656e74206d617920686176652072657665727465640000000000006064820152608401610531565b60008181526001830160205260408120546127675750815460018181018455600084815260208082209093018490558454848252828601909352604090209190915561096d565b50600061096d565b60008181526001830160205260408120548015612858576000612793600183614652565b85549091506000906127a790600190614652565b905081811461280c5760008660000182815481106127c7576127c761471c565b90600052602060002001549050808760000184815481106127ea576127ea61471c565b6000918252602080832090910192909255918252600188019052604090208390555b855486908061281d5761281d614732565b60019003818190600052602060002001600090559055856001016000868152602001908152602001600020600090556001935050505061096d565b600091505061096d565b60006128b7826040518060400160405280602081526020017f5361666545524332303a206c6f772d6c6576656c2063616c6c206661696c6564815250856001600160a01b0316613f009092919063ffffffff16565b805190915015610b6857808060200190518101906128d5919061475d565b610b685760405162461bcd60e51b815260206004820152602a60248201527f5361666545524332303a204552433230206f7065726174696f6e20646964206e6044820152691bdd081cdd58d8d9595960b21b6064820152608401610531565b60006129436000868585613270565b91505080156129565761295681856138ce565b600080546040516370a0823160e01b8152612a87918891612a82916001600160a01b0316906370a082319061298f903090600401614497565b60206040518083038186803b1580156129a757600080fd5b505afa1580156129bb573d6000803e3d6000fd5b505050506040513d601f19601f820116820180604052508101906129df9190614623565b6000546040516370a0823160e01b81526001600160a01b037f00000000000000000000000000000000000000000000000000000000000000008116926370a0823192612a32929190911690600401614497565b60206040518083038186803b158015612a4a57600080fd5b505afa158015612a5e573d6000803e3d6000fd5b505050506040513d601f19601f82011682018060405250810190612a829190614623565b611a0f565b905080856001600160a01b03166369328dec7f000000000000000000000000000000000000000000000000000000000000000084306040518463ffffffff1660e01b8152600401612ada93929190614778565b602060405180830381600087803b158015612af457600080fd5b505af1158015612b08573d6000803e3d6000fd5b505050506040513d601f19601f82011682018060405250810190612b2c9190614623565b1460405180604001604052806002815260200161323960f01b81525090612b665760405162461bcd60e51b81526004016105319190614547565b50505050505050565b6000670de0b6b3a76400007f00000000000000000000000000000000000000000000000000000000000000006001600160a01b03166370a08231306040518263ffffffff1660e01b8152600401612bc69190614497565b60206040518083038186803b158015612bde57600080fd5b505afa158015612bf2573d6000803e3d6000fd5b505050506040513d601f19601f82011682018060405250810190612c169190614623565b7f00000000000000000000000000000000000000000000000000000000000000006001600160a01b03166399530b066040518163ffffffff1660e01b815260040160206040518083038186803b158015612c6f57600080fd5b505afa158015612c83573d6000803e3d6000fd5b505050506040513d601f19601f82011682018060405250810190612ca79190614623565b612cb1919061479b565b612cbb91906147ba565b6008546040516370a0823160e01b81526001600160a01b03909116906370a08231906115c2903090600401614497565b600080548190612d03906001600160a01b0316613f0f565b8151919350915060005b81811015612d84576000838281518110612d2957612d2961471c565b60200260200101511115612d7457612d74848281518110612d4c57612d4c61471c565b602002602001015186858481518110612d6757612d6761471c565b6020026020010151614058565b612d7d816147dc565b9050612d0d565b5050505050565b6002546008546040516353b609b560e01b81526001600160a01b037f00000000000000000000000000000000000000000000000000000000000000008116600483015291821660248201526044810185905260009291909116906353b609b590606401602060405180830381600087803b158015612e0857600080fd5b505af1158015612e1c573d6000803e3d6000fd5b505050506040513d601f19601f82011682018060405250810190612e409190614623565b90508015610b68576040516370a0823160e01b81526000906001600160a01b037f000000000000000000000000000000000000000000000000000000000000000016906370a0823190612e97903090600401614497565b60206040518083038186803b158015612eaf57600080fd5b505afa158015612ec3573d6000803e3d6000fd5b505050506040513d601f19601f82011682018060405250810190612ee79190614623565b905080821115612fdf576000612efd8284614652565b905080846001600160a01b03166369328dec7f000000000000000000000000000000000000000000000000000000000000000084306040518463ffffffff1660e01b8152600401612f5093929190614778565b602060405180830381600087803b158015612f6a57600080fd5b505af1158015612f7e573d6000803e3d6000fd5b505050506040513d601f19601f82011682018060405250810190612fa29190614623565b1460405180604001604052806002815260200161323960f01b81525090612fdc5760405162461bcd60e51b81526004016105319190614547565b50505b6002546008546040516381cc619b60e01b81526001600160a01b03928316926381cc619b9261303c927f000000000000000000000000000000000000000000000000000000000000000092909116908990889030906004016146ec565b602060405180830381600087803b15801561305657600080fd5b505af115801561306a573d6000803e3d6000fd5b505050506040513d601f19601f82011682018060405250810190612d849190614623565b80156105885761309d816140ea565b6008546040516370a0823160e01b81526000916001600160a01b0316906370a08231906130ce903090600401614497565b60206040518083038186803b1580156130e657600080fd5b505afa1580156130fa573d6000803e3d6000fd5b505050506040513d601f19601f8201168201806040525081019061311e9190614623565b905080156106cf576008546106cf906001600160a01b03167f000000000000000000000000000000000000000000000000000000000000000083614058565b81156106cf5760405163617ba03760e01b81526001600160a01b037f000000000000000000000000000000000000000000000000000000000000000081166004830152602482018490523060448301526000606483015282169063617ba03790608401600060405180830381600087803b1580156131da57600080fd5b505af19250505080156131eb575060015b6106cf576131f76147f7565b806308c379a01415613264575061320c614856565b806132175750613266565b613220816148e0565b611a9b60f11b14610b685760405162461bcd60e51b815260206004820152600e60248201526d19195c1bdcda5d0819985a5b195960921b6044820152606401610531565b505b3d6000803e3d6000fd5b60008085158061327e575084155b6132be5760405162461bcd60e51b8152602060048201526011602482015270616c6c2d696e7075742d67742d7a65726f60781b6044820152606401610531565b6007546132d0575060009050826138c5565b60008087116132f6578584116132e7576000613300565b6132f18685614652565b613300565b61330087856146d4565b9050806133145760008592509250506138c5565b60007f00000000000000000000000000000000000000000000000000000000000000006001600160a01b031663fca513a86040518163ffffffff1660e01b815260040160206040518083038186803b15801561336f57600080fd5b505afa158015613383573d6000803e3d6000fd5b505050506040513d601f19601f820116820180604052508101906133a7919061459c565b60085460405163b3596f0760e01b81529192506000916001600160a01b038085169263b3596f07926133df9290911690600401614497565b60206040518083038186803b1580156133f757600080fd5b505afa15801561340b573d6000803e3d6000fd5b505050506040513d601f19601f8201168201806040525081019061342f9190614623565b90506000826001600160a01b031663b3596f077f00000000000000000000000000000000000000000000000000000000000000006040518263ffffffff1660e01b815260040161347f9190614497565b60206040518083038186803b15801561349757600080fd5b505afa1580156134ab573d6000803e3d6000fd5b505050506040513d601f19601f820116820180604052508101906134cf9190614623565b90508115806134dc575080155b156134f15760008895509550505050506138c5565b60007f00000000000000000000000000000000000000000000000000000000000000006001600160a01b031663e860accb6040518163ffffffff1660e01b815260040160206040518083038186803b15801561354c57600080fd5b505afa158015613560573d6000803e3d6000fd5b505050506040513d601f19601f82011682018060405250810190613584919061459c565b6001600160a01b0316633e1501417f00000000000000000000000000000000000000000000000000000000000000006040518263ffffffff1660e01b81526004016135cf9190614497565b6101406040518083038186803b1580156135e857600080fd5b505afa1580156135fc573d6000803e3d6000fd5b505050506040513d601f19601f820116820180604052508101906136209190614904565b505050505050505091505060007f00000000000000000000000000000000000000000000000000000000000000006001600160a01b031663313ce5676040518163ffffffff1660e01b815260040160206040518083038186803b15801561368657600080fd5b505afa15801561369a573d6000803e3d6000fd5b505050506040513d601f19601f820116820180604052508101906136be919061499b565b6136c990600a614aa2565b6136d59061271061479b565b836136e0848961479b565b6136ea919061479b565b6136f491906147ba565b9050600084600860009054906101000a90046001600160a01b03166001600160a01b031663313ce5676040518163ffffffff1660e01b815260040160206040518083038186803b15801561374757600080fd5b505afa15801561375b573d6000803e3d6000fd5b505050506040513d601f19601f8201168201806040525081019061377f919061499b565b61378a90600a614aa2565b613794908461479b565b61379e91906147ba565b9050806137b85760008b98509850505050505050506138c5565b6000612710600754836137cb919061479b565b6137d591906147ba565b90506000612710600654846137ea919061479b565b6137f491906147ba565b9050818d111561380f57613808818e614652565b99506138bb565b8c8111156138bb576138218d82614652565b600854600a546040516370a0823160e01b8152929d506000926001600160a01b03928316926370a082319261385b92911690600401614497565b60206040518083038186803b15801561387357600080fd5b505afa158015613887573d6000803e3d6000fd5b505050506040513d601f19601f820116820180604052508101906138ab9190614623565b9050808c11156138b957809b505b505b5050505050505050505b94509492505050565b6138d7826142a7565b60085460405163573ade8160e01b81526001600160a01b03918216600482015260248101849052600260448201523060648201529082169063573ade8190608401600060405180830381600087803b15801561393257600080fd5b505af1158015613946573d6000803e3d6000fd5b505050505050565b60405163b6b55f2560e01b8152600481018290527f00000000000000000000000000000000000000000000000000000000000000006001600160a01b03169063b6b55f2590602401600060405180830381600087803b1580156139b057600080fd5b505af1158015612d84573d6000803e3d6000fd5b606081600001805480602002602001604051908101604052809291908181526020018280548015613a1457602002820191906000526020600020905b815481526020019060010190808311613a00575b50505050509050919050565b613a29816142b0565b6000600260009054906101000a90046001600160a01b03169050613b087f00000000000000000000000000000000000000000000000000000000000000006001600160a01b031663026b1d5f6040518163ffffffff1660e01b815260040160206040518083038186803b158015613a9f57600080fd5b505afa158015613ab3573d6000803e3d6000fd5b505050506040513d601f19601f82011682018060405250810190613ad7919061459c565b6001600160a01b037f0000000000000000000000000000000000000000000000000000000000000000169084613ddc565b613b3c6001600160a01b037f0000000000000000000000000000000000000000000000000000000000000000168284613ddc565b613be37f00000000000000000000000000000000000000000000000000000000000000006001600160a01b031663026b1d5f6040518163ffffffff1660e01b815260040160206040518083038186803b158015613b9857600080fd5b505afa158015613bac573d6000803e3d6000fd5b505050506040513d601f19601f82011682018060405250810190613bd0919061459c565b6008546001600160a01b03169084613ddc565b600854613bfa906001600160a01b03168284613ddc565b60008054906101000a90046001600160a01b03166001600160a01b03166375d264136040518163ffffffff1660e01b815260040160206040518083038186803b158015613c4657600080fd5b505afa925050508015613c76575060408051601f3d908101601f19168201909252613c739181019061459c565b60015b613c7e575050565b6000816001600160a01b031663b45ac1a96040518163ffffffff1660e01b815260040160006040518083038186803b158015613cb957600080fd5b505afa158015613ccd573d6000803e3d6000fd5b505050506040513d6000823e601f3d908101601f19168201604052613cf59190810190614b4f565b905060005b8151811015612d84577f00000000000000000000000000000000000000000000000000000000000000006001600160a01b0316828281518110613d3f57613d3f61471c565b60200260200101516001600160a01b031614158015613d90575060085482516001600160a01b0390911690839083908110613d7c57613d7c61471c565b60200260200101516001600160a01b031614155b15613dcc57613dcc8486848481518110613dac57613dac61471c565b60200260200101516001600160a01b0316613ddc9092919063ffffffff16565b613dd5816147dc565b9050613cfa565b801580613e655750604051636eb1769f60e11b81523060048201526001600160a01b03838116602483015284169063dd62ed3e9060440160206040518083038186803b158015613e2b57600080fd5b505afa158015613e3f573d6000803e3d6000fd5b505050506040513d601f19601f82011682018060405250810190613e639190614623565b155b613ed05760405162461bcd60e51b815260206004820152603660248201527f5361666545524332303a20617070726f76652066726f6d206e6f6e2d7a65726f60448201527520746f206e6f6e2d7a65726f20616c6c6f77616e636560501b6064820152608401610531565b6040516001600160a01b038316602482015260448101829052610b6890849063095ea7b360e01b9060640161183e565b6060611ab18484600085614304565b606080826001600160a01b03166375d264136040518163ffffffff1660e01b815260040160206040518083038186803b158015613f4b57600080fd5b505afa925050508015613f7b575060408051601f3d908101601f19168201909252613f789181019061459c565b60015b613f8457915091565b604080516001808252818301909252600091602080830190803683370190505090508481600081518110613fba57613fba61471c565b6001600160a01b03928316602091820292909201015260405163bb492bf560e01b81529083169063bb492bf590613ff79084903090600401614b84565b600060405180830381600087803b15801561401157600080fd5b505af1158015614025573d6000803e3d6000fd5b505050506040513d6000823e601f3d908101601f1916820160405261404d9190810190614bae565b935093505050915091565b600254604051636ccb2b0160e01b81526001600160a01b0390911690636ccb2b01906140919086908690869060019030906004016146ec565b602060405180830381600087803b1580156140ab57600080fd5b505af19250505080156140db575060408051601f3d908101601f191682019092526140d891810190614623565b60015b6140e457505050565b50505050565b80156105885760007f00000000000000000000000000000000000000000000000000000000000000006001600160a01b03166399530b066040518163ffffffff1660e01b815260040160206040518083038186803b15801561414b57600080fd5b505afa15801561415f573d6000803e3d6000fd5b505050506040513d601f19601f820116820180604052508101906141839190614623565b905060008161419a84670de0b6b3a764000061479b565b6141a491906147ba565b9050670de0b6b3a76400006141b9838361479b565b6141c391906147ba565b83116141cf57806141da565b6141da8160016146d4565b90507f00000000000000000000000000000000000000000000000000000000000000006001600160a01b0316632e1a7d4d61425b837f00000000000000000000000000000000000000000000000000000000000000006001600160a01b03166370a08231306040518263ffffffff1660e01b8152600401612a329190614497565b6040518263ffffffff1660e01b815260040161427991815260200190565b600060405180830381600087803b15801561429357600080fd5b505af1158015612b66573d6000803e3d6000fd5b610588816140ea565b6105886001600160a01b037f0000000000000000000000000000000000000000000000000000000000000000167f000000000000000000000000000000000000000000000000000000000000000083613ddc565b6060824710156143655760405162461bcd60e51b815260206004820152602660248201527f416464726573733a20696e73756666696369656e742062616c616e636520666f6044820152651c8818d85b1b60d21b6064820152608401610531565b843b6143b35760405162461bcd60e51b815260206004820152601d60248201527f416464726573733a2063616c6c20746f206e6f6e2d636f6e74726163740000006044820152606401610531565b600080866001600160a01b031685876040516143cf9190614c74565b60006040518083038185875af1925050503d806000811461440c576040519150601f19603f3d011682016040523d82523d6000602084013e614411565b606091505b509150915061442182828661442c565b979650505050505050565b6060831561443b5750816117f6565b82511561444b5782518084602001fd5b8160405162461bcd60e51b81526004016105319190614547565b6001600160a01b038116811461058857600080fd5b60006020828403121561448c57600080fd5b81356117f681614465565b6001600160a01b0391909116815260200190565b6000602082840312156144bd57600080fd5b5035919050565b600081518084526020808501945080840160005b838110156144fd5781516001600160a01b0316875295820195908201906001016144d8565b509495945050505050565b6020815260006117f660208301846144c4565b60005b8381101561453657818101518382015260200161451e565b838111156140e45750506000910152565b602081526000825180602084015261456681604085016020870161451b565b601f01601f19169190910160400192915050565b6000806040838503121561458d57600080fd5b50508035926020909101359150565b6000602082840312156145ae57600080fd5b81516117f681614465565b6020808252601a908201527f63616c6c65722d69732d6e6f742d7468652d676f7665726e6f72000000000000604082015260600190565b60208082526019908201527818d85b1b195c8b5a5ccb5b9bdd0b5d995cdc195c8b5c1bdbdb603a1b604082015260600190565b60006020828403121561463557600080fd5b5051919050565b634e487b7160e01b600052601160045260246000fd5b6000828210156146645761466461463c565b500390565b60208082526016908201527531b0b63632b916b4b996b737ba16b096b5b2b2b832b960511b604082015260600190565b600181811c908216806146ad57607f821691505b602082108114156146ce57634e487b7160e01b600052602260045260246000fd5b50919050565b600082198211156146e7576146e761463c565b500190565b6001600160a01b039586168152938516602085015260408401929092526060830152909116608082015260a00190565b634e487b7160e01b600052603260045260246000fd5b634e487b7160e01b600052603160045260246000fd5b8051801515811461475857600080fd5b919050565b60006020828403121561476f57600080fd5b6117f682614748565b6001600160a01b0393841681526020810192909252909116604082015260600190565b60008160001904831182151516156147b5576147b561463c565b500290565b6000826147d757634e487b7160e01b600052601260045260246000fd5b500490565b60006000198214156147f0576147f061463c565b5060010190565b600060033d11156148105760046000803e5060005160e01c5b90565b634e487b7160e01b600052604160045260246000fd5b601f8201601f1916810167ffffffffffffffff8111828210171561484f5761484f614813565b6040525050565b600060443d10156148645790565b6040516003193d81016004833e81513d67ffffffffffffffff816024840111818411171561489457505050505090565b82850191508151818111156148ac5750505050505090565b843d87010160208285010111156148c65750505050505090565b6148d560208286010187614829565b509095945050505050565b805160208083015191908110156146ce5760001960209190910360031b1b16919050565b6000806000806000806000806000806101408b8d03121561492457600080fd5b8a51995060208b0151985060408b0151975060608b0151965060808b0151955061495060a08c01614748565b945061495e60c08c01614748565b935061496c60e08c01614748565b925061497b6101008c01614748565b915061498a6101208c01614748565b90509295989b9194979a5092959850565b6000602082840312156149ad57600080fd5b815160ff811681146117f657600080fd5b600181815b808511156149f95781600019048211156149df576149df61463c565b808516156149ec57918102915b93841c93908002906149c3565b509250929050565b600082614a105750600161096d565b81614a1d5750600061096d565b8160018114614a335760028114614a3d57614a59565b600191505061096d565b60ff841115614a4e57614a4e61463c565b50506001821b61096d565b5060208310610133831016604e8410600b8410161715614a7c575081810a61096d565b614a8683836149be565b8060001904821115614a9a57614a9a61463c565b029392505050565b60006117f660ff841683614a01565b600067ffffffffffffffff821115614acb57614acb614813565b5060051b60200190565b600082601f830112614ae657600080fd5b81516020614af382614ab1565b604051614b008282614829565b83815260059390931b8501820192828101915086841115614b2057600080fd5b8286015b84811015614b44578051614b3781614465565b8352918301918301614b24565b509695505050505050565b600060208284031215614b6157600080fd5b815167ffffffffffffffff811115614b7857600080fd5b611ab184828501614ad5565b604081526000614b9760408301856144c4565b905060018060a01b03831660208301529392505050565b60008060408385031215614bc157600080fd5b825167ffffffffffffffff80821115614bd957600080fd5b614be586838701614ad5565b9350602091508185015181811115614bfc57600080fd5b85019050601f81018613614c0f57600080fd5b8051614c1a81614ab1565b604051614c278282614829565b82815260059290921b8301840191848101915088831115614c4757600080fd5b928401925b82841015614c6557835182529284019290840190614c4c565b80955050505050509250929050565b60008251614c8681846020870161451b565b919091019291505056fea2646970667358221220dd433f29a4c75adb0dd2e7564931168ec4e91d36bb0ead962a409c80b0ecbb4364736f6c63430008090033",
  "devdoc": {
    "kind": "dev",
    "methods": {
      "addKeeper(address)": {
        "params": {
          "_keeperAddress": "keeper address to add."
        }
      },
      "approveToken()": {
        "details": "Approve all required tokens"
      },
      "migrate(address)": {
        "details": "_beforeMigration hook can be implemented in child strategy to do extra steps.",
        "params": {
          "_newStrategy": "Address of new strategy"
        }
      },
      "rebalance()": {
        "returns": {
          "_loss": "Realized loss, if any, in collateral.",
          "_payback": "If strategy has any excess debt, we have to liquidate asset to payback excess debt.",
          "_profit": "Realized profit in collateral."
        }
      },
      "removeKeeper(address)": {
        "params": {
          "_keeperAddress": "keeper address to remove."
        }
      },
      "sweepERC20(address)": {
        "params": {
          "_fromToken": "token address to sweep"
        }
      },
      "updateBorrowLimit(uint256,uint256)": {
        "details": "It is possible to set _maxBorrowLimit and _minBorrowLimit as 0 to not borrow anything",
        "params": {
          "_maxBorrowLimit": "It is % of actual collateral factor of protocol",
          "_minBorrowLimit": "It is % of actual collateral factor of protocol"
        }
      },
      "updateFeeCollector(address)": {
        "params": {
          "_feeCollector": "fee collector address"
        }
      },
      "updateSwapper(address)": {
        "params": {
          "_swapper": "swapper address"
        }
      },
      "withdraw(uint256)": {
        "params": {
          "_amount": "Amount of collateral token"
        }
      }
    },
    "title": "Deposit Collateral in Aave and earn interest by depositing borrowed token in a Vesper Pool.",
    "version": 1
  },
  "userdoc": {
    "kind": "user",
    "methods": {
      "addKeeper(address)": {
        "notice": "Add given address in keepers list."
      },
      "collateral()": {
        "notice": "Returns address of token correspond to collateral token"
      },
      "harvestVSP()": {
        "notice": "Claim VSP and convert to collateral token"
      },
      "isReservedToken(address)": {
        "notice": "Check whether given token is reserved or not. Reserved tokens are not allowed to sweep."
      },
      "keepers()": {
        "notice": "Return list of keepers"
      },
      "migrate(address)": {
        "notice": "Migrate all asset and vault ownership,if any, to new strategy"
      },
      "rebalance()": {
        "notice": "OnlyKeeper: Rebalance profit, loss and investment of this strategy.  Calculate profit, loss and payback of this strategy and realize profit/loss and  withdraw fund for payback, if any, and submit this report to pool."
      },
      "removeKeeper(address)": {
        "notice": "Remove given address from keepers list."
      },
      "sweepERC20(address)": {
        "notice": "sweep given token to feeCollector of strategy"
      },
      "token()": {
        "notice": "Returns address of token correspond to receipt token"
      },
      "tvl()": {
        "notice": "Returns total collateral locked in the strategy"
      },
      "updateBorrowLimit(uint256,uint256)": {
        "notice": "Update upper and lower borrow limit. Usually maxBorrowLimit < 100% of actual collateral factor of protocol."
      },
      "updateFeeCollector(address)": {
        "notice": "Update fee collector"
      },
      "updateSwapper(address)": {
        "notice": "Update swapper"
      },
      "withdraw(uint256)": {
        "notice": "Withdraw collateral token from end protocol."
      }
    },
    "version": 1
  },
  "storageLayout": {
    "storage": [
      {
        "astId": 14273,
        "contract": "vesper-strategies/contracts/strategies/aave/v3/AaveV3VesperXy.sol:AaveV3VesperXy",
        "label": "receiptToken",
        "offset": 0,
        "slot": "0",
        "type": "t_address"
      },
      {
        "astId": 14279,
        "contract": "vesper-strategies/contracts/strategies/aave/v3/AaveV3VesperXy.sol:AaveV3VesperXy",
        "label": "feeCollector",
        "offset": 0,
        "slot": "1",
        "type": "t_address"
      },
      {
        "astId": 14282,
        "contract": "vesper-strategies/contracts/strategies/aave/v3/AaveV3VesperXy.sol:AaveV3VesperXy",
        "label": "swapper",
        "offset": 0,
        "slot": "2",
        "type": "t_contract(IRoutedSwapper)13134"
      },
      {
        "astId": 14295,
        "contract": "vesper-strategies/contracts/strategies/aave/v3/AaveV3VesperXy.sol:AaveV3VesperXy",
        "label": "_keepers",
        "offset": 0,
        "slot": "3",
        "type": "t_struct(AddressSet)3021_storage"
      },
      {
        "astId": 17635,
        "contract": "vesper-strategies/contracts/strategies/aave/v3/AaveV3VesperXy.sol:AaveV3VesperXy",
        "label": "NAME",
        "offset": 0,
        "slot": "5",
        "type": "t_string_storage"
      },
      {
        "astId": 17644,
        "contract": "vesper-strategies/contracts/strategies/aave/v3/AaveV3VesperXy.sol:AaveV3VesperXy",
        "label": "minBorrowLimit",
        "offset": 0,
        "slot": "6",
        "type": "t_uint256"
      },
      {
        "astId": 17647,
        "contract": "vesper-strategies/contracts/strategies/aave/v3/AaveV3VesperXy.sol:AaveV3VesperXy",
        "label": "maxBorrowLimit",
        "offset": 0,
        "slot": "7",
        "type": "t_uint256"
      },
      {
        "astId": 17652,
        "contract": "vesper-strategies/contracts/strategies/aave/v3/AaveV3VesperXy.sol:AaveV3VesperXy",
        "label": "borrowToken",
        "offset": 0,
        "slot": "8",
        "type": "t_address"
      },
      {
        "astId": 17655,
        "contract": "vesper-strategies/contracts/strategies/aave/v3/AaveV3VesperXy.sol:AaveV3VesperXy",
        "label": "vdToken",
        "offset": 0,
        "slot": "9",
        "type": "t_contract(AToken)10135"
      },
      {
        "astId": 17657,
        "contract": "vesper-strategies/contracts/strategies/aave/v3/AaveV3VesperXy.sol:AaveV3VesperXy",
        "label": "aBorrowToken",
        "offset": 0,
        "slot": "10",
        "type": "t_address"
      }
    ],
    "types": {
      "t_address": {
        "encoding": "inplace",
        "label": "address",
        "numberOfBytes": "20"
      },
      "t_array(t_bytes32)dyn_storage": {
        "base": "t_bytes32",
        "encoding": "dynamic_array",
        "label": "bytes32[]",
        "numberOfBytes": "32"
      },
      "t_bytes32": {
        "encoding": "inplace",
        "label": "bytes32",
        "numberOfBytes": "32"
      },
      "t_contract(AToken)10135": {
        "encoding": "inplace",
        "label": "contract AToken",
        "numberOfBytes": "20"
      },
      "t_contract(IRoutedSwapper)13134": {
        "encoding": "inplace",
        "label": "contract IRoutedSwapper",
        "numberOfBytes": "20"
      },
      "t_mapping(t_bytes32,t_uint256)": {
        "encoding": "mapping",
        "key": "t_bytes32",
        "label": "mapping(bytes32 => uint256)",
        "numberOfBytes": "32",
        "value": "t_uint256"
      },
      "t_string_storage": {
        "encoding": "bytes",
        "label": "string",
        "numberOfBytes": "32"
      },
      "t_struct(AddressSet)3021_storage": {
        "encoding": "inplace",
        "label": "struct EnumerableSet.AddressSet",
        "members": [
          {
            "astId": 3020,
            "contract": "vesper-strategies/contracts/strategies/aave/v3/AaveV3VesperXy.sol:AaveV3VesperXy",
            "label": "_inner",
            "offset": 0,
            "slot": "0",
            "type": "t_struct(Set)2720_storage"
          }
        ],
        "numberOfBytes": "64"
      },
      "t_struct(Set)2720_storage": {
        "encoding": "inplace",
        "label": "struct EnumerableSet.Set",
        "members": [
          {
            "astId": 2715,
            "contract": "vesper-strategies/contracts/strategies/aave/v3/AaveV3VesperXy.sol:AaveV3VesperXy",
            "label": "_values",
            "offset": 0,
            "slot": "0",
            "type": "t_array(t_bytes32)dyn_storage"
          },
          {
            "astId": 2719,
            "contract": "vesper-strategies/contracts/strategies/aave/v3/AaveV3VesperXy.sol:AaveV3VesperXy",
            "label": "_indexes",
            "offset": 0,
            "slot": "1",
            "type": "t_mapping(t_bytes32,t_uint256)"
          }
        ],
        "numberOfBytes": "64"
      },
      "t_uint256": {
        "encoding": "inplace",
        "label": "uint256",
        "numberOfBytes": "32"
      }
    }
  }
}