{
  "address": "0x8E16465e07d39B8E93935a01bF8d9554699307BF",
  "abi": [
    {
      "inputs": [
        {
          "internalType": "address",
          "name": "_pool",
          "type": "address"
        },
        {
          "internalType": "address",
          "name": "_swapManager",
          "type": "address"
        },
        {
          "internalType": "address",
          "name": "_comptroller",
          "type": "address"
        },
        {
          "internalType": "address",
          "name": "_rewardDistributor",
          "type": "address"
        },
        {
          "internalType": "address",
          "name": "_rewardToken",
          "type": "address"
        },
        {
          "internalType": "address",
          "name": "_receiptToken",
          "type": "address"
        },
        {
          "internalType": "string",
          "name": "_name",
          "type": "string"
        }
      ],
      "stateMutability": "nonpayable",
      "type": "constructor"
    },
    {
      "anonymous": false,
      "inputs": [
        {
          "indexed": true,
          "internalType": "address",
          "name": "_oldRewardDistributor",
          "type": "address"
        },
        {
          "indexed": true,
          "internalType": "address",
          "name": "_newRewardDistributor",
          "type": "address"
        }
      ],
      "name": "RewardDistributorUpdated",
      "type": "event"
    },
    {
      "anonymous": false,
      "inputs": [
        {
          "indexed": true,
          "internalType": "address",
          "name": "previousFeeCollector",
          "type": "address"
        },
        {
          "indexed": true,
          "internalType": "address",
          "name": "newFeeCollector",
          "type": "address"
        }
      ],
      "name": "UpdatedFeeCollector",
      "type": "event"
    },
    {
      "anonymous": false,
      "inputs": [
        {
          "indexed": true,
          "internalType": "contract IRoutedSwapper",
          "name": "oldSwapper",
          "type": "address"
        },
        {
          "indexed": true,
          "internalType": "contract IRoutedSwapper",
          "name": "newSwapper",
          "type": "address"
        }
      ],
      "name": "UpdatedSwapper",
      "type": "event"
    },
    {
      "inputs": [],
      "name": "COMPTROLLER",
      "outputs": [
        {
          "internalType": "contract Comptroller",
          "name": "",
          "type": "address"
        }
      ],
      "stateMutability": "view",
      "type": "function"
    },
    {
      "inputs": [],
      "name": "NAME",
      "outputs": [
        {
          "internalType": "string",
          "name": "",
          "type": "string"
        }
      ],
      "stateMutability": "view",
      "type": "function"
    },
    {
      "inputs": [],
      "name": "VERSION",
      "outputs": [
        {
          "internalType": "string",
          "name": "",
          "type": "string"
        }
      ],
      "stateMutability": "view",
      "type": "function"
    },
    {
      "inputs": [
        {
          "internalType": "address",
          "name": "_keeperAddress",
          "type": "address"
        }
      ],
      "name": "addKeeper",
      "outputs": [],
      "stateMutability": "nonpayable",
      "type": "function"
    },
    {
      "inputs": [],
      "name": "approveToken",
      "outputs": [],
      "stateMutability": "nonpayable",
      "type": "function"
    },
    {
      "inputs": [],
      "name": "collateral",
      "outputs": [
        {
          "internalType": "address",
          "name": "",
          "type": "address"
        }
      ],
      "stateMutability": "view",
      "type": "function"
    },
    {
      "inputs": [],
      "name": "collateralToken",
      "outputs": [
        {
          "internalType": "contract IERC20",
          "name": "",
          "type": "address"
        }
      ],
      "stateMutability": "view",
      "type": "function"
    },
    {
      "inputs": [],
      "name": "feeCollector",
      "outputs": [
        {
          "internalType": "address",
          "name": "",
          "type": "address"
        }
      ],
      "stateMutability": "view",
      "type": "function"
    },
    {
      "inputs": [
        {
          "internalType": "address",
          "name": "_token",
          "type": "address"
        }
      ],
      "name": "isReservedToken",
      "outputs": [
        {
          "internalType": "bool",
          "name": "",
          "type": "bool"
        }
      ],
      "stateMutability": "view",
      "type": "function"
    },
    {
      "inputs": [],
      "name": "keepers",
      "outputs": [
        {
          "internalType": "address[]",
          "name": "",
          "type": "address[]"
        }
      ],
      "stateMutability": "view",
      "type": "function"
    },
    {
      "inputs": [
        {
          "internalType": "address",
          "name": "_newStrategy",
          "type": "address"
        }
      ],
      "name": "migrate",
      "outputs": [],
      "stateMutability": "nonpayable",
      "type": "function"
    },
    {
      "inputs": [],
      "name": "pool",
      "outputs": [
        {
          "internalType": "address",
          "name": "",
          "type": "address"
        }
      ],
      "stateMutability": "view",
      "type": "function"
    },
    {
      "inputs": [],
      "name": "rebalance",
      "outputs": [
        {
          "internalType": "uint256",
          "name": "_profit",
          "type": "uint256"
        },
        {
          "internalType": "uint256",
          "name": "_loss",
          "type": "uint256"
        },
        {
          "internalType": "uint256",
          "name": "_payback",
          "type": "uint256"
        }
      ],
      "stateMutability": "nonpayable",
      "type": "function"
    },
    {
      "inputs": [],
      "name": "receiptToken",
      "outputs": [
        {
          "internalType": "address",
          "name": "",
          "type": "address"
        }
      ],
      "stateMutability": "view",
      "type": "function"
    },
    {
      "inputs": [
        {
          "internalType": "address",
          "name": "_keeperAddress",
          "type": "address"
        }
      ],
      "name": "removeKeeper",
      "outputs": [],
      "stateMutability": "nonpayable",
      "type": "function"
    },
    {
      "inputs": [],
      "name": "rewardDistributor",
      "outputs": [
        {
          "internalType": "address",
          "name": "",
          "type": "address"
        }
      ],
      "stateMutability": "view",
      "type": "function"
    },
    {
      "inputs": [],
      "name": "rewardToken",
      "outputs": [
        {
          "internalType": "address",
          "name": "",
          "type": "address"
        }
      ],
      "stateMutability": "view",
      "type": "function"
    },
    {
      "inputs": [],
      "name": "swapper",
      "outputs": [
        {
          "internalType": "contract IRoutedSwapper",
          "name": "",
          "type": "address"
        }
      ],
      "stateMutability": "view",
      "type": "function"
    },
    {
      "inputs": [
        {
          "internalType": "address",
          "name": "_fromToken",
          "type": "address"
        }
      ],
      "name": "sweepERC20",
      "outputs": [],
      "stateMutability": "nonpayable",
      "type": "function"
    },
    {
      "inputs": [],
      "name": "token",
      "outputs": [
        {
          "internalType": "address",
          "name": "",
          "type": "address"
        }
      ],
      "stateMutability": "view",
      "type": "function"
    },
    {
      "inputs": [],
      "name": "tvl",
      "outputs": [
        {
          "internalType": "uint256",
          "name": "",
          "type": "uint256"
        }
      ],
      "stateMutability": "view",
      "type": "function"
    },
    {
      "inputs": [
        {
          "internalType": "address",
          "name": "_feeCollector",
          "type": "address"
        }
      ],
      "name": "updateFeeCollector",
      "outputs": [],
      "stateMutability": "nonpayable",
      "type": "function"
    },
    {
      "inputs": [
        {
          "internalType": "address",
          "name": "_newRewardDistributor",
          "type": "address"
        }
      ],
      "name": "updateRewardDistributor",
      "outputs": [],
      "stateMutability": "nonpayable",
      "type": "function"
    },
    {
      "inputs": [
        {
          "internalType": "contract IRoutedSwapper",
          "name": "_swapper",
          "type": "address"
        }
      ],
      "name": "updateSwapper",
      "outputs": [],
      "stateMutability": "nonpayable",
      "type": "function"
    },
    {
      "inputs": [
        {
          "internalType": "uint256",
          "name": "_amount",
          "type": "uint256"
        }
      ],
      "name": "withdraw",
      "outputs": [],
      "stateMutability": "nonpayable",
      "type": "function"
    },
    {
      "stateMutability": "payable",
      "type": "receive"
    }
  ],
  "transactionHash": "0x4acb240786016cacb3e8abb6ef3a4a28a4711363fa61d8c222ea8c2e0c1b1cdd",
  "args": [
    "0xEa94eBB08E9604AFD225f2c61fa61401F1ed1047",
    "0xC85831dED6fCB15A288dfF49D256CBBC2B58388f",
    "0x486Af39519B4Dc9a7fCcd318217352830E8AD9b4",
    "0x486Af39519B4Dc9a7fCcd318217352830E8AD9b4",
    "0x8729438EB15e2C8B576fCc6AeCdA6A148776C0F5",
    "0x5C0401e81Bc07Ca70fAD469b451682c0d747Ef1c",
    "Benqi_AVAX"
  ],
  "numDeployments": 1,
  "solcInputHash": "9ab0331fc96e624a5af1043883147780",
  "bytecode": "0x60e06040523480156200001157600080fd5b506040516200345b3803806200345b83398101604081905262000034916200049f565b868686868686868686868585858585836001600160a01b038316620000a05760405162461bcd60e51b815260206004820152601460248201527f706f6f6c2d616464726573732d69732d7a65726f00000000000000000000000060448201526064015b60405180910390fd5b6001600160a01b038216620000f85760405162461bcd60e51b815260206004820152601760248201527f737761707065722d616464726573732d69732d7a65726f000000000000000000604482015260640162000097565b600280546001600160a01b0319166001600160a01b0384811691909117909155831660a081905260408051637e062a3560e11b8152905163fc0c546a91600480820192602092909190829003018186803b1580156200015657600080fd5b505afa1580156200016b573d6000803e3d6000fd5b505050506040513d601f19601f8201168201806040525081019062000191919062000600565b6001600160a01b03908116608052600080546001600160a01b031916918316919091179055620001d8620001c23390565b60036200035860201b620015c31790919060201c565b6200021a5760405162461bcd60e51b81526020600482015260116024820152701859190b5ad9595c195c8b59985a5b1959607a1b604482015260640162000097565b5050506001600160a01b038216620002755760405162461bcd60e51b815260206004820152601660248201527f63546f6b656e2d616464726573732d69732d7a65726f00000000000000000000604482015260640162000097565b600680546001600160a01b0319166001600160a01b0384161790558051620002a5906005906020840190620003ca565b5050506001600160a01b0391821660c052600780546001600160a01b0319169183169190911790558616151591506200032390505760405162461bcd60e51b815260206004820152601f60248201527f696e76616c69642d7265776172642d6469737472696275746f722d6164647200604482015260640162000097565b5050600880546001600160a01b0319166001600160a01b03939093169290921790915550620006649950505050505050505050565b60006200036f836001600160a01b03841662000378565b90505b92915050565b6000818152600183016020526040812054620003c15750815460018181018455600084815260208082209093018490558454848252828601909352604090209190915562000372565b50600062000372565b828054620003d89062000627565b90600052602060002090601f016020900481019282620003fc576000855562000447565b82601f106200041757805160ff191683800117855562000447565b8280016001018555821562000447579182015b82811115620004475782518255916020019190600101906200042a565b506200045592915062000459565b5090565b5b808211156200045557600081556001016200045a565b6001600160a01b03811681146200048657600080fd5b50565b634e487b7160e01b600052604160045260246000fd5b600080600080600080600060e0888a031215620004bb57600080fd5b8751620004c88162000470565b80975050602080890151620004dd8162000470565b60408a0151909750620004f08162000470565b60608a0151909650620005038162000470565b60808a0151909550620005168162000470565b60a08a0151909450620005298162000470565b60c08a01519093506001600160401b03808211156200054757600080fd5b818b0191508b601f8301126200055c57600080fd5b81518181111562000571576200057162000489565b604051601f8201601f19908116603f011681019083821181831017156200059c576200059c62000489565b816040528281528e86848701011115620005b557600080fd5b600093505b82841015620005d95784840186015181850187015292850192620005ba565b82841115620005eb5760008684830101525b80965050505050505092959891949750929550565b6000602082840312156200061357600080fd5b8151620006208162000470565b9392505050565b600181811c908216806200063c57607f821691505b602082108114156200065e57634e487b7160e01b600052602260045260246000fd5b50919050565b60805160a05160c051612cf562000766600039600081816102a30152818161257d01526125fb01526000818161019a0152818161052901528181610645015281816107610152818161083f0152818161089b01528181610b9b01528181610c3801528181610e5b015281816110240152818161195e01528181611e9301528181611f3301526123ae01526000818161038001528181610431015281816106a40152818161073f015281816107b30152818161087201528181610dbf015281816112560152818161141c015281816119dc01528181611a8601528181611fd4015281816120120152818161218b0152818161238c01526123e40152612cf56000f3fe60806040526004361061015a5760003560e01c8063acc2166a116100c1578063d8dfeb451161007a578063d8dfeb4514610422578063e00af4a714610455578063e5328e0614610475578063ec78e83214610498578063f7c618c1146104b8578063fc0c546a146104d8578063ffa1ad74146104f657600080fd5b8063acc2166a1461034e578063b2016bd41461036e578063c415b95c146103a2578063ce5494bb146103c2578063d2c35ce8146103e2578063d3033c391461040257600080fd5b8063497cd42611610113578063497cd426146102715780635f82c67e146102915780637d7c2a1c146102c5578063951dc22c146102f557806399b71d5c14610317578063a3f4df7e1461032c57600080fd5b806314ae9f2e1461016657806316f0115b146101885780632b3297f9146101d25780632e1a7d4d146101f25780634032b72b14610212578063440d72481461023257600080fd5b3661016157005b600080fd5b34801561017257600080fd5b506101866101813660046129ce565b610527565b005b34801561019457600080fd5b506101bc7f000000000000000000000000000000000000000000000000000000000000000081565b6040516101c991906129eb565b60405180910390f35b3480156101de57600080fd5b506002546101bc906001600160a01b031681565b3480156101fe57600080fd5b5061018661020d3660046129ff565b610642565b34801561021e57600080fd5b5061018661022d3660046129ce565b610899565b34801561023e57600080fd5b5061026161024d3660046129ce565b6006546001600160a01b0391821691161490565b60405190151581526020016101c9565b34801561027d57600080fd5b5061018661028c3660046129ce565b6109a5565b34801561029d57600080fd5b506101bc7f000000000000000000000000000000000000000000000000000000000000000081565b3480156102d157600080fd5b506102da610a80565b604080519384526020840192909252908201526060016101c9565b34801561030157600080fd5b5061030a610abd565b6040516101c99190612a18565b34801561032357600080fd5b50610186610ace565b34801561033857600080fd5b50610341610b0a565b6040516101c99190612a91565b34801561035a57600080fd5b506008546101bc906001600160a01b031681565b34801561037a57600080fd5b506101bc7f000000000000000000000000000000000000000000000000000000000000000081565b3480156103ae57600080fd5b506001546101bc906001600160a01b031681565b3480156103ce57600080fd5b506101866103dd3660046129ce565b610b98565b3480156103ee57600080fd5b506101866103fd3660046129ce565b610e59565b34801561040e57600080fd5b5061018661041d3660046129ce565b611022565b34801561042e57600080fd5b507f00000000000000000000000000000000000000000000000000000000000000006101bc565b34801561046157600080fd5b506101866104703660046129ce565b6111df565b34801561048157600080fd5b5061048a611402565b6040519081526020016101c9565b3480156104a457600080fd5b506000546101bc906001600160a01b031681565b3480156104c457600080fd5b506007546101bc906001600160a01b031681565b3480156104e457600080fd5b506000546001600160a01b03166101bc565b34801561050257600080fd5b50610341604051806040016040528060058152602001640352e302e360dc1b81525081565b7f00000000000000000000000000000000000000000000000000000000000000006001600160a01b0316630c340a246040518163ffffffff1660e01b815260040160206040518083038186803b15801561058057600080fd5b505afa158015610594573d6000803e3d6000fd5b505050506040513d601f19601f820116820180604052508101906105b89190612ac4565b6001600160a01b0316336001600160a01b0316146105f15760405162461bcd60e51b81526004016105e890612ae1565b60405180910390fd5b6105fc6003826115e1565b61063f5760405162461bcd60e51b81526020600482015260146024820152731c995b5bdd994b5ad9595c195c8b59985a5b195960621b60448201526064016105e8565b50565b337f00000000000000000000000000000000000000000000000000000000000000006001600160a01b03161461068a5760405162461bcd60e51b81526004016105e890612b18565b6040516370a0823160e01b81526000906001600160a01b037f000000000000000000000000000000000000000000000000000000000000000016906370a08231906106d99030906004016129eb565b60206040518083038186803b1580156106f157600080fd5b505afa158015610705573d6000803e3d6000fd5b505050506040513d601f19601f820116820180604052508101906107299190612b4b565b905081811061078a576107866001600160a01b037f0000000000000000000000000000000000000000000000000000000000000000167f0000000000000000000000000000000000000000000000000000000000000000846115f6565b5050565b61079c6107978284612b7a565b61165e565b6040516370a0823160e01b81526001600160a01b037f000000000000000000000000000000000000000000000000000000000000000016906370a08231906107e89030906004016129eb565b60206040518083038186803b15801561080057600080fd5b505afa158015610814573d6000803e3d6000fd5b505050506040513d601f19601f820116820180604052508101906108389190612b4b565b90506107867f000000000000000000000000000000000000000000000000000000000000000061086884846118ed565b6001600160a01b037f00000000000000000000000000000000000000000000000000000000000000001691906115f6565b7f00000000000000000000000000000000000000000000000000000000000000006001600160a01b0316630c340a246040518163ffffffff1660e01b815260040160206040518083038186803b1580156108f257600080fd5b505afa158015610906573d6000803e3d6000fd5b505050506040513d601f19601f8201168201806040525081019061092a9190612ac4565b6001600160a01b0316336001600160a01b03161461095a5760405162461bcd60e51b81526004016105e890612ae1565b6109656003826115c3565b61063f5760405162461bcd60e51b81526020600482015260116024820152701859190b5ad9595c195c8b59985a5b1959607a1b60448201526064016105e8565b6109b2335b600390611903565b6109ce5760405162461bcd60e51b81526004016105e890612b91565b6001600160a01b038116610a245760405162461bcd60e51b815260206004820152601f60248201527f696e76616c69642d7265776172642d6469737472696275746f722d616464720060448201526064016105e8565b6008546040516001600160a01b038084169216907f1df95772db25c427e0df149fe4cd5b7c2e970e096ee7305ff86f6e1167281d7b90600090a3600880546001600160a01b0319166001600160a01b0392909216919091179055565b60008080610a8d336109aa565b610aa95760405162461bcd60e51b81526004016105e890612b91565b610ab1611925565b9250925092505b909192565b6060610ac96003611a67565b905090565b610ad7336109aa565b610af35760405162461bcd60e51b81526004016105e890612b91565b610afd6000611a7b565b610b08600019611a7b565b565b60058054610b1790612bc1565b80601f0160208091040260200160405190810160405280929190818152602001828054610b4390612bc1565b8015610b905780601f10610b6557610100808354040283529160200191610b90565b820191906000526020600020905b815481529060010190602001808311610b7357829003601f168201915b505050505081565b337f00000000000000000000000000000000000000000000000000000000000000006001600160a01b031614610be05760405162461bcd60e51b81526004016105e890612b18565b6001600160a01b038116610c365760405162461bcd60e51b815260206004820152601c60248201527f6e65772d73747261746567792d616464726573732d69732d7a65726f0000000060448201526064016105e8565b7f00000000000000000000000000000000000000000000000000000000000000006001600160a01b0316816001600160a01b03166316f0115b6040518163ffffffff1660e01b815260040160206040518083038186803b158015610c9957600080fd5b505afa158015610cad573d6000803e3d6000fd5b505050506040513d601f19601f82011682018060405250810190610cd19190612ac4565b6001600160a01b031614610d205760405162461bcd60e51b81526020600482015260166024820152756e6f742d76616c69642d6e65772d737472617465677960501b60448201526064016105e8565b6000546040516370a0823160e01b8152610db99183916001600160a01b03909116906370a0823190610d569030906004016129eb565b60206040518083038186803b158015610d6e57600080fd5b505afa158015610d82573d6000803e3d6000fd5b505050506040513d601f19601f82011682018060405250810190610da69190612b4b565b6000546001600160a01b031691906115f6565b61063f817f00000000000000000000000000000000000000000000000000000000000000006001600160a01b03166370a08231306040518263ffffffff1660e01b8152600401610e0991906129eb565b60206040518083038186803b158015610e2157600080fd5b505afa158015610e35573d6000803e3d6000fd5b505050506040513d601f19601f820116820180604052508101906108689190612b4b565b7f00000000000000000000000000000000000000000000000000000000000000006001600160a01b0316630c340a246040518163ffffffff1660e01b815260040160206040518083038186803b158015610eb257600080fd5b505afa158015610ec6573d6000803e3d6000fd5b505050506040513d601f19601f82011682018060405250810190610eea9190612ac4565b6001600160a01b0316336001600160a01b031614610f1a5760405162461bcd60e51b81526004016105e890612ae1565b6001600160a01b038116610f705760405162461bcd60e51b815260206004820152601d60248201527f6665652d636f6c6c6563746f722d616464726573732d69732d7a65726f00000060448201526064016105e8565b6001546001600160a01b0382811691161415610fc65760405162461bcd60e51b81526020600482015260156024820152746665652d636f6c6c6563746f722d69732d73616d6560581b60448201526064016105e8565b6001546040516001600160a01b038084169216907f0f06062680f9bd68e786e9980d9bb03d73d5620fc3b345e417b6eacb310b970690600090a3600180546001600160a01b0319166001600160a01b0392909216919091179055565b7f00000000000000000000000000000000000000000000000000000000000000006001600160a01b0316630c340a246040518163ffffffff1660e01b815260040160206040518083038186803b15801561107b57600080fd5b505afa15801561108f573d6000803e3d6000fd5b505050506040513d601f19601f820116820180604052508101906110b39190612ac4565b6001600160a01b0316336001600160a01b0316146110e35760405162461bcd60e51b81526004016105e890612ae1565b6001600160a01b0381166111335760405162461bcd60e51b8152602060048201526017602482015276737761707065722d616464726573732d69732d7a65726f60481b60448201526064016105e8565b6002546001600160a01b03828116911614156111835760405162461bcd60e51b815260206004820152600f60248201526e737761707065722d69732d73616d6560881b60448201526064016105e8565b6002546040516001600160a01b038084169216907f6c953b7ec311055c20b96a42cea31e89528e375b1bf953a503db40854b3188fe90600090a3600280546001600160a01b0319166001600160a01b0392909216919091179055565b6111e8336109aa565b6112045760405162461bcd60e51b81526004016105e890612b91565b6001546001600160a01b03166112545760405162461bcd60e51b81526020600482015260156024820152741999594b58dbdb1b1958dd1bdc8b5b9bdd0b5cd95d605a1b60448201526064016105e8565b7f00000000000000000000000000000000000000000000000000000000000000006001600160a01b0316816001600160a01b031614156112d65760405162461bcd60e51b815260206004820152601f60248201527f6e6f742d616c6c6f7765642d746f2d73776565702d636f6c6c61746572616c0060448201526064016105e8565b6006546001600160a01b038281169116141561132b5760405162461bcd60e51b815260206004820152601460248201527306e6f742d616c6c6f7765642d746f2d73776565760641b60448201526064016105e8565b6001600160a01b03811673eeeeeeeeeeeeeeeeeeeeeeeeeeeeeeeeeeeeeeee14156113665760015461063f906001600160a01b031647611af4565b6040516370a0823160e01b81526000906001600160a01b038316906370a08231906113959030906004016129eb565b60206040518083038186803b1580156113ad57600080fd5b505afa1580156113c1573d6000803e3d6000fd5b505050506040513d601f19601f820116820180604052508101906113e59190612b4b565b600154909150610786906001600160a01b038481169116836115f6565b6040516370a0823160e01b81526000906001600160a01b037f000000000000000000000000000000000000000000000000000000000000000016906370a08231906114519030906004016129eb565b60206040518083038186803b15801561146957600080fd5b505afa15801561147d573d6000803e3d6000fd5b505050506040513d601f19601f820116820180604052508101906114a19190612b4b565b6006546040805163182df0f560e01b81529051670de0b6b3a7640000926001600160a01b03169163182df0f5916004808301926020929190829003018186803b1580156114ed57600080fd5b505afa158015611501573d6000803e3d6000fd5b505050506040513d601f19601f820116820180604052508101906115259190612b4b565b6006546040516370a0823160e01b81526001600160a01b03909116906370a08231906115559030906004016129eb565b60206040518083038186803b15801561156d57600080fd5b505afa158015611581573d6000803e3d6000fd5b505050506040513d601f19601f820116820180604052508101906115a59190612b4b565b6115af9190612bfc565b6115b99190612c1b565b610ac99190612c3d565b60006115d8836001600160a01b038416611c0d565b90505b92915050565b60006115d8836001600160a01b038416611c5c565b6040516001600160a01b03831660248201526044810182905261165990849063a9059cbb60e01b906064015b60408051601f198184030181529190526020810180516001600160e01b03166001600160e01b031990931692909217909152611d4f565b505050565b6006546040805163182df0f560e01b815290516000926001600160a01b03169163182df0f5916004808301926020929190829003018186803b1580156116a357600080fd5b505afa1580156116b7573d6000803e3d6000fd5b505050506040513d601f19601f820116820180604052508101906116db9190612b4b565b6116ed83670de0b6b3a7640000612bfc565b6116f79190612c1b565b9050801561078657600654604051633af9e66960e01b8152600091611819918591611814916001600160a01b0390911690633af9e6699061173c9030906004016129eb565b602060405180830381600087803b15801561175657600080fd5b505af115801561176a573d6000803e3d6000fd5b505050506040513d601f19601f8201168201806040525081019061178e9190612b4b565b600660009054906101000a90046001600160a01b03166001600160a01b0316633b1d21a26040518163ffffffff1660e01b815260040160206040518083038186803b1580156117dc57600080fd5b505afa1580156117f0573d6000803e3d6000fd5b505050506040513d601f19601f820116820180604052508101906118149190612b4b565b6118ed565b60065460405163852a12e360e01b8152600481018390529192506001600160a01b03169063852a12e390602401602060405180830381600087803b15801561186057600080fd5b505af1158015611874573d6000803e3d6000fd5b505050506040513d601f19601f820116820180604052508101906118989190612b4b565b156118e55760405162461bcd60e51b815260206004820152601d60248201527f77697468647261772d66726f6d2d636f6d706f756e642d6661696c656400000060448201526064016105e8565b611659611e21565b60008183106118fc57816115d8565b5090919050565b6001600160a01b038116600090815260018301602052604081205415156115d8565b6000806000611932611e8b565b6040516302df682360e11b815260048101849052602481018390526044810182905292955090935091507f00000000000000000000000000000000000000000000000000000000000000006001600160a01b0316906305bed04690606401600060405180830381600087803b1580156119aa57600080fd5b505af11580156119be573d6000803e3d6000fd5b50506040516370a0823160e01b8152610ab892506001600160a01b037f00000000000000000000000000000000000000000000000000000000000000001691506370a0823190611a129030906004016129eb565b60206040518083038186803b158015611a2a57600080fd5b505afa158015611a3e573d6000803e3d6000fd5b505050506040513d601f19601f82011682018060405250810190611a629190612b4b565b61224c565b60606000611a7483612323565b9392505050565b611a848161237f565b7f00000000000000000000000000000000000000000000000000000000000000006001600160a01b031673b31f66aa3c1e785363f0875a1b74e27b85fd66c71461063f5760025461063f9073b31f66aa3c1e785363f0875a1b74e27b85fd66c7906001600160a01b031683612426565b80471015611b445760405162461bcd60e51b815260206004820152601d60248201527f416464726573733a20696e73756666696369656e742062616c616e636500000060448201526064016105e8565b6000826001600160a01b03168260405160006040518083038185875af1925050503d8060008114611b91576040519150601f19603f3d011682016040523d82523d6000602084013e611b96565b606091505b50509050806116595760405162461bcd60e51b815260206004820152603a60248201527f416464726573733a20756e61626c6520746f2073656e642076616c75652c207260448201527f6563697069656e74206d6179206861766520726576657274656400000000000060648201526084016105e8565b6000818152600183016020526040812054611c54575081546001818101845560008481526020808220909301849055845484825282860190935260409020919091556115db565b5060006115db565b60008181526001830160205260408120548015611d45576000611c80600183612b7a565b8554909150600090611c9490600190612b7a565b9050818114611cf9576000866000018281548110611cb457611cb4612c55565b9060005260206000200154905080876000018481548110611cd757611cd7612c55565b6000918252602080832090910192909255918252600188019052604090208390555b8554869080611d0a57611d0a612c6b565b6001900381819060005260206000200160009055905585600101600086815260200190815260200160002060009055600193505050506115db565b60009150506115db565b6000611da4826040518060400160405280602081526020017f5361666545524332303a206c6f772d6c6576656c2063616c6c206661696c6564815250856001600160a01b031661254a9092919063ffffffff16565b8051909150156116595780806020019051810190611dc29190612c81565b6116595760405162461bcd60e51b815260206004820152602a60248201527f5361666545524332303a204552433230206f7065726174696f6e20646964206e6044820152691bdd081cdd58d8d9595960b21b60648201526084016105e8565b73b31f66aa3c1e785363f0875a1b74e27b85fd66c76001600160a01b031663d0e30db0476040518263ffffffff1660e01b81526004016000604051808303818588803b158015611e7057600080fd5b505af1158015611e84573d6000803e3d6000fd5b5050505050565b6000806000807f00000000000000000000000000000000000000000000000000000000000000006001600160a01b031663d53ddc26306040518263ffffffff1660e01b8152600401611edd91906129eb565b60206040518083038186803b158015611ef557600080fd5b505afa158015611f09573d6000803e3d6000fd5b505050506040513d601f19601f82011682018060405250810190611f2d9190612b4b565b905060007f00000000000000000000000000000000000000000000000000000000000000006001600160a01b0316639f2b2833306040518263ffffffff1660e01b8152600401611f7d91906129eb565b60206040518083038186803b158015611f9557600080fd5b505afa158015611fa9573d6000803e3d6000fd5b505050506040513d601f19601f82011682018060405250810190611fcd9190612b4b565b9050611ff87f0000000000000000000000000000000000000000000000000000000000000000612561565b6040516370a0823160e01b81526000906001600160a01b037f000000000000000000000000000000000000000000000000000000000000000016906370a08231906120479030906004016129eb565b60206040518083038186803b15801561205f57600080fd5b505afa158015612073573d6000803e3d6000fd5b505050506040513d601f19601f820116820180604052508101906120979190612b4b565b600654604051633af9e66960e01b81529192506000916001600160a01b0390911690633af9e669906120cd9030906004016129eb565b602060405180830381600087803b1580156120e757600080fd5b505af11580156120fb573d6000803e3d6000fd5b505050506040513d601f19601f8201168201806040525081019061211f9190612b4b565b6121299083612c3d565b9050828111156121445761213d8382612b7a565b9650612151565b61214e8184612b7a565b95505b600061215d8589612c3d565b905082811115612213576121746107978483612b7a565b6040516370a0823160e01b81526001600160a01b037f000000000000000000000000000000000000000000000000000000000000000016906370a08231906121c09030906004016129eb565b60206040518083038186803b1580156121d857600080fd5b505afa1580156121ec573d6000803e3d6000fd5b505050506040513d601f19601f820116820180604052508101906122109190612b4b565b92505b61221d83866118ed565b955085831161222d576000612240565b61224061223a8785612b7a565b896118ed565b97505050505050909192565b801561063f57604051632e1a7d4d60e01b81526004810182905273b31f66aa3c1e785363f0875a1b74e27b85fd66c790632e1a7d4d90602401600060405180830381600087803b15801561229f57600080fd5b505af11580156122b3573d6000803e3d6000fd5b50505050600660009054906101000a90046001600160a01b03166001600160a01b0316631249c58b826040518263ffffffff1660e01b81526004016000604051808303818588803b15801561230757600080fd5b505af115801561231b573d6000803e3d6000fd5b505050505050565b60608160000180548060200260200160405190810160405280929190818152602001828054801561237357602002820191906000526020600020905b81548152602001906001019080831161235f575b50505050509050919050565b6123d36001600160a01b037f0000000000000000000000000000000000000000000000000000000000000000167f000000000000000000000000000000000000000000000000000000000000000083612426565b60065461240d906001600160a01b037f00000000000000000000000000000000000000000000000000000000000000008116911683612426565b60025460075461063f916001600160a01b039182169116835b8015806124af5750604051636eb1769f60e11b81523060048201526001600160a01b03838116602483015284169063dd62ed3e9060440160206040518083038186803b15801561247557600080fd5b505afa158015612489573d6000803e3d6000fd5b505050506040513d601f19601f820116820180604052508101906124ad9190612b4b565b155b61251a5760405162461bcd60e51b815260206004820152603660248201527f5361666545524332303a20617070726f76652066726f6d206e6f6e2d7a65726f60448201527520746f206e6f6e2d7a65726f20616c6c6f77616e636560501b60648201526084016105e8565b6040516001600160a01b03831660248201526044810182905261165990849063095ea7b360e01b90606401611622565b606061255984846000856127b6565b949350505050565b604051630952c56360e01b8152600060048201523060248201527f00000000000000000000000000000000000000000000000000000000000000006001600160a01b031690630952c56390604401600060405180830381600087803b1580156125c957600080fd5b505af11580156125dd573d6000803e3d6000fd5b5050604051630952c56360e01b8152600160048201523060248201527f00000000000000000000000000000000000000000000000000000000000000006001600160a01b03169250630952c5639150604401600060405180830381600087803b15801561264957600080fd5b505af115801561265d573d6000803e3d6000fd5b50506007546040516370a0823160e01b8152600093506001600160a01b0390911691506370a08231906126949030906004016129eb565b60206040518083038186803b1580156126ac57600080fd5b505afa1580156126c0573d6000803e3d6000fd5b505050506040513d601f19601f820116820180604052508101906126e49190612b4b565b9050801561270357600754612703906001600160a01b031683836128de565b4780156116595773b31f66aa3c1e785363f0875a1b74e27b85fd66c76001600160a01b031663d0e30db0826040518263ffffffff1660e01b81526004016000604051808303818588803b15801561275957600080fd5b505af115801561276d573d6000803e3d6000fd5b505050506001600160a01b03841673b31f66aa3c1e785363f0875a1b74e27b85fd66c71490506116595761165973b31f66aa3c1e785363f0875a1b74e27b85fd66c784836128de565b6060824710156128175760405162461bcd60e51b815260206004820152602660248201527f416464726573733a20696e73756666696369656e742062616c616e636520666f6044820152651c8818d85b1b60d21b60648201526084016105e8565b843b6128655760405162461bcd60e51b815260206004820152601d60248201527f416464726573733a2063616c6c20746f206e6f6e2d636f6e747261637400000060448201526064016105e8565b600080866001600160a01b031685876040516128819190612ca3565b60006040518083038185875af1925050503d80600081146128be576040519150601f19603f3d011682016040523d82523d6000602084013e6128c3565b606091505b50915091506128d3828286612980565b979650505050505050565b600254604051636ccb2b0160e01b81526001600160a01b0385811660048301528481166024830152604482018490526001606483015230608483015290911690636ccb2b019060a401602060405180830381600087803b15801561294157600080fd5b505af1925050508015612971575060408051601f3d908101601f1916820190925261296e91810190612b4b565b60015b61297a57505050565b50505050565b6060831561298f575081611a74565b82511561299f5782518084602001fd5b8160405162461bcd60e51b81526004016105e89190612a91565b6001600160a01b038116811461063f57600080fd5b6000602082840312156129e057600080fd5b8135611a74816129b9565b6001600160a01b0391909116815260200190565b600060208284031215612a1157600080fd5b5035919050565b6020808252825182820181905260009190848201906040850190845b81811015612a595783516001600160a01b031683529284019291840191600101612a34565b50909695505050505050565b60005b83811015612a80578181015183820152602001612a68565b8381111561297a5750506000910152565b6020815260008251806020840152612ab0816040850160208701612a65565b601f01601f19169190910160400192915050565b600060208284031215612ad657600080fd5b8151611a74816129b9565b6020808252601a908201527f63616c6c65722d69732d6e6f742d7468652d676f7665726e6f72000000000000604082015260600190565b60208082526019908201527818d85b1b195c8b5a5ccb5b9bdd0b5d995cdc195c8b5c1bdbdb603a1b604082015260600190565b600060208284031215612b5d57600080fd5b5051919050565b634e487b7160e01b600052601160045260246000fd5b600082821015612b8c57612b8c612b64565b500390565b60208082526016908201527531b0b63632b916b4b996b737ba16b096b5b2b2b832b960511b604082015260600190565b600181811c90821680612bd557607f821691505b60208210811415612bf657634e487b7160e01b600052602260045260246000fd5b50919050565b6000816000190483118215151615612c1657612c16612b64565b500290565b600082612c3857634e487b7160e01b600052601260045260246000fd5b500490565b60008219821115612c5057612c50612b64565b500190565b634e487b7160e01b600052603260045260246000fd5b634e487b7160e01b600052603160045260246000fd5b600060208284031215612c9357600080fd5b81518015158114611a7457600080fd5b60008251612cb5818460208701612a65565b919091019291505056fea26469706673582212205478dd3a3edd8eb9610c753cfbd4f07992afd10fd339069b046e1e69d27c15dd64736f6c63430008090033",
  "devdoc": {
    "kind": "dev",
    "methods": {
      "addKeeper(address)": {
        "params": {
          "_keeperAddress": "keeper address to add."
        }
      },
      "approveToken()": {
        "details": "Approve all required tokens"
      },
      "migrate(address)": {
        "details": "_beforeMigration hook can be implemented in child strategy to do extra steps.",
        "params": {
          "_newStrategy": "Address of new strategy"
        }
      },
      "rebalance()": {
        "returns": {
          "_loss": "Realized loss, if any, in collateral.",
          "_payback": "If strategy has any excess debt, we have to liquidate asset to payback excess debt.",
          "_profit": "Realized profit in collateral."
        }
      },
      "removeKeeper(address)": {
        "params": {
          "_keeperAddress": "keeper address to remove."
        }
      },
      "sweepERC20(address)": {
        "params": {
          "_fromToken": "token address to sweep"
        }
      },
      "updateFeeCollector(address)": {
        "params": {
          "_feeCollector": "fee collector address"
        }
      },
      "updateSwapper(address)": {
        "params": {
          "_swapper": "swapper address"
        }
      },
      "withdraw(uint256)": {
        "params": {
          "_amount": "Amount of collateral token"
        }
      }
    },
    "version": 1
  },
  "userdoc": {
    "kind": "user",
    "methods": {
      "addKeeper(address)": {
        "notice": "Add given address in keepers list."
      },
      "collateral()": {
        "notice": "Returns address of token correspond to collateral token"
      },
      "isReservedToken(address)": {
        "notice": "Check whether given token is reserved or not. Reserved tokens are not allowed to sweep."
      },
      "keepers()": {
        "notice": "Return list of keepers"
      },
      "migrate(address)": {
        "notice": "Migrate all asset and vault ownership,if any, to new strategy"
      },
      "rebalance()": {
        "notice": "OnlyKeeper: Rebalance profit, loss and investment of this strategy.  Calculate profit, loss and payback of this strategy and realize profit/loss and  withdraw fund for payback, if any, and submit this report to pool."
      },
      "removeKeeper(address)": {
        "notice": "Remove given address from keepers list."
      },
      "sweepERC20(address)": {
        "notice": "sweep given token to feeCollector of strategy"
      },
      "token()": {
        "notice": "Returns address of token correspond to receipt token"
      },
      "tvl()": {
        "notice": "Returns total collateral locked in the strategy"
      },
      "updateFeeCollector(address)": {
        "notice": "Update fee collector"
      },
      "updateSwapper(address)": {
        "notice": "Update swapper"
      },
      "withdraw(uint256)": {
        "notice": "Withdraw collateral token from end protocol."
      }
    },
    "version": 1
  },
  "storageLayout": {
    "storage": [
      {
        "astId": 13787,
        "contract": "vesper-strategies/contracts/strategies/compound/avalanche/BenqiAVAX.sol:BenqiAVAX",
        "label": "receiptToken",
        "offset": 0,
        "slot": "0",
        "type": "t_address"
      },
      {
        "astId": 13793,
        "contract": "vesper-strategies/contracts/strategies/compound/avalanche/BenqiAVAX.sol:BenqiAVAX",
        "label": "feeCollector",
        "offset": 0,
        "slot": "1",
        "type": "t_address"
      },
      {
        "astId": 13796,
        "contract": "vesper-strategies/contracts/strategies/compound/avalanche/BenqiAVAX.sol:BenqiAVAX",
        "label": "swapper",
        "offset": 0,
        "slot": "2",
        "type": "t_contract(IRoutedSwapper)12648"
      },
      {
        "astId": 13809,
        "contract": "vesper-strategies/contracts/strategies/compound/avalanche/BenqiAVAX.sol:BenqiAVAX",
        "label": "_keepers",
        "offset": 0,
        "slot": "3",
        "type": "t_struct(AddressSet)3018_storage"
      },
      {
        "astId": 16751,
        "contract": "vesper-strategies/contracts/strategies/compound/avalanche/BenqiAVAX.sol:BenqiAVAX",
        "label": "NAME",
        "offset": 0,
        "slot": "5",
        "type": "t_string_storage"
      },
      {
        "astId": 16757,
        "contract": "vesper-strategies/contracts/strategies/compound/avalanche/BenqiAVAX.sol:BenqiAVAX",
        "label": "cToken",
        "offset": 0,
        "slot": "6",
        "type": "t_contract(CToken)10523"
      },
      {
        "astId": 16762,
        "contract": "vesper-strategies/contracts/strategies/compound/avalanche/BenqiAVAX.sol:BenqiAVAX",
        "label": "rewardToken",
        "offset": 0,
        "slot": "7",
        "type": "t_address"
      },
      {
        "astId": 20819,
        "contract": "vesper-strategies/contracts/strategies/compound/avalanche/BenqiAVAX.sol:BenqiAVAX",
        "label": "rewardDistributor",
        "offset": 0,
        "slot": "8",
        "type": "t_address"
      }
    ],
    "types": {
      "t_address": {
        "encoding": "inplace",
        "label": "address",
        "numberOfBytes": "20"
      },
      "t_array(t_bytes32)dyn_storage": {
        "base": "t_bytes32",
        "encoding": "dynamic_array",
        "label": "bytes32[]",
        "numberOfBytes": "32"
      },
      "t_bytes32": {
        "encoding": "inplace",
        "label": "bytes32",
        "numberOfBytes": "32"
      },
      "t_contract(CToken)10523": {
        "encoding": "inplace",
        "label": "contract CToken",
        "numberOfBytes": "20"
      },
      "t_contract(IRoutedSwapper)12648": {
        "encoding": "inplace",
        "label": "contract IRoutedSwapper",
        "numberOfBytes": "20"
      },
      "t_mapping(t_bytes32,t_uint256)": {
        "encoding": "mapping",
        "key": "t_bytes32",
        "label": "mapping(bytes32 => uint256)",
        "numberOfBytes": "32",
        "value": "t_uint256"
      },
      "t_string_storage": {
        "encoding": "bytes",
        "label": "string",
        "numberOfBytes": "32"
      },
      "t_struct(AddressSet)3018_storage": {
        "encoding": "inplace",
        "label": "struct EnumerableSet.AddressSet",
        "members": [
          {
            "astId": 3017,
            "contract": "vesper-strategies/contracts/strategies/compound/avalanche/BenqiAVAX.sol:BenqiAVAX",
            "label": "_inner",
            "offset": 0,
            "slot": "0",
            "type": "t_struct(Set)2717_storage"
          }
        ],
        "numberOfBytes": "64"
      },
      "t_struct(Set)2717_storage": {
        "encoding": "inplace",
        "label": "struct EnumerableSet.Set",
        "members": [
          {
            "astId": 2712,
            "contract": "vesper-strategies/contracts/strategies/compound/avalanche/BenqiAVAX.sol:BenqiAVAX",
            "label": "_values",
            "offset": 0,
            "slot": "0",
            "type": "t_array(t_bytes32)dyn_storage"
          },
          {
            "astId": 2716,
            "contract": "vesper-strategies/contracts/strategies/compound/avalanche/BenqiAVAX.sol:BenqiAVAX",
            "label": "_indexes",
            "offset": 0,
            "slot": "1",
            "type": "t_mapping(t_bytes32,t_uint256)"
          }
        ],
        "numberOfBytes": "64"
      },
      "t_uint256": {
        "encoding": "inplace",
        "label": "uint256",
        "numberOfBytes": "32"
      }
    }
  }
}