{
  "address": "0x8eBe970BEEDfE7616A50DE707aD53199068261dC",
  "abi": [
    {
      "inputs": [],
      "stateMutability": "nonpayable",
      "type": "constructor"
    },
    {
      "inputs": [],
      "name": "AddressIsNull",
      "type": "error"
    },
    {
      "inputs": [],
      "name": "FallbackIsNotAllowed",
      "type": "error"
    },
    {
      "inputs": [],
      "name": "NotAnOperator",
      "type": "error"
    },
    {
      "inputs": [],
      "name": "ProposedGovernorIsNull",
      "type": "error"
    },
    {
      "inputs": [],
      "name": "ReceiveIsNotAllowed",
      "type": "error"
    },
    {
      "inputs": [],
      "name": "SenderIsNotGovernor",
      "type": "error"
    },
    {
      "inputs": [],
      "name": "SenderIsNotTheProposedGovernor",
      "type": "error"
    },
    {
      "anonymous": false,
      "inputs": [
        {
          "indexed": false,
          "internalType": "uint8",
          "name": "version",
          "type": "uint8"
        }
      ],
      "name": "Initialized",
      "type": "event"
    },
    {
      "anonymous": false,
      "inputs": [
        {
          "indexed": true,
          "internalType": "address",
          "name": "previousGovernor",
          "type": "address"
        },
        {
          "indexed": true,
          "internalType": "address",
          "name": "proposedGovernor",
          "type": "address"
        }
      ],
      "name": "UpdatedGovernor",
      "type": "event"
    },
    {
      "stateMutability": "payable",
      "type": "fallback"
    },
    {
      "inputs": [],
      "name": "NAME",
      "outputs": [
        {
          "internalType": "string",
          "name": "",
          "type": "string"
        }
      ],
      "stateMutability": "view",
      "type": "function"
    },
    {
      "inputs": [],
      "name": "acceptGovernorship",
      "outputs": [],
      "stateMutability": "nonpayable",
      "type": "function"
    },
    {
      "inputs": [
        {
          "internalType": "address",
          "name": "target_",
          "type": "address"
        },
        {
          "internalType": "bytes",
          "name": "data_",
          "type": "bytes"
        }
      ],
      "name": "execute",
      "outputs": [
        {
          "internalType": "bytes",
          "name": "",
          "type": "bytes"
        }
      ],
      "stateMutability": "payable",
      "type": "function"
    },
    {
      "inputs": [],
      "name": "governor",
      "outputs": [
        {
          "internalType": "address",
          "name": "",
          "type": "address"
        }
      ],
      "stateMutability": "view",
      "type": "function"
    },
    {
      "inputs": [
        {
          "internalType": "string",
          "name": "name_",
          "type": "string"
        }
      ],
      "name": "initialize",
      "outputs": [],
      "stateMutability": "nonpayable",
      "type": "function"
    },
    {
      "inputs": [
        {
          "internalType": "address",
          "name": "address_",
          "type": "address"
        }
      ],
      "name": "isOperator",
      "outputs": [
        {
          "internalType": "bool",
          "name": "",
          "type": "bool"
        }
      ],
      "stateMutability": "view",
      "type": "function"
    },
    {
      "inputs": [],
      "name": "operators",
      "outputs": [
        {
          "internalType": "address[]",
          "name": "",
          "type": "address[]"
        }
      ],
      "stateMutability": "view",
      "type": "function"
    },
    {
      "inputs": [],
      "name": "proposedGovernor",
      "outputs": [
        {
          "internalType": "address",
          "name": "",
          "type": "address"
        }
      ],
      "stateMutability": "view",
      "type": "function"
    },
    {
      "inputs": [
        {
          "internalType": "contract IERC20",
          "name": "token_",
          "type": "address"
        },
        {
          "internalType": "address",
          "name": "to_",
          "type": "address"
        },
        {
          "internalType": "uint256",
          "name": "amount_",
          "type": "uint256"
        }
      ],
      "name": "sweep",
      "outputs": [],
      "stateMutability": "nonpayable",
      "type": "function"
    },
    {
      "inputs": [
        {
          "internalType": "address",
          "name": "proposedGovernor_",
          "type": "address"
        }
      ],
      "name": "transferGovernorship",
      "outputs": [],
      "stateMutability": "nonpayable",
      "type": "function"
    },
    {
      "inputs": [
        {
          "internalType": "address",
          "name": "operatorAddress_",
          "type": "address"
        }
      ],
      "name": "updateOperator",
      "outputs": [],
      "stateMutability": "nonpayable",
      "type": "function"
    },
    {
      "stateMutability": "payable",
      "type": "receive"
    }
  ],
  "transactionHash": "0x217746578c78b2f54bdc33738ba711011af6510cdd426790950ac994db749ba5",
  "args": [],
  "numDeployments": 1,
  "solcInputHash": "7a2d3a2052990f5787c2684474c37c0a",
  "bytecode": "0x608060405234801561001057600080fd5b506000805462010000600160b01b031916336201000081029190911782556040519091907fd4459d5b8b913cab0244230fd9b1c08b6ceace7fe9230e60d0f74cbffdf849d0908290a3610061610066565b610126565b600054610100900460ff16156100d25760405162461bcd60e51b815260206004820152602760248201527f496e697469616c697a61626c653a20636f6e747261637420697320696e697469604482015266616c697a696e6760c81b606482015260840160405180910390fd5b60005460ff9081161015610124576000805460ff191660ff9081179091556040519081527f7f26b83ff96e1f2b6a682f133852f6798a09c465da95921460cefb38474024989060200160405180910390a15b565b611295806101356000396000f3fe6080604052600436106100b05760003560e01c8063a3f4df7e11610074578063e673df8a1161004e578063e673df8a14610211578063f3b27bc314610233578063f62d188814610248576100ce565b8063a3f4df7e146101bc578063ac7475ed146101d1578063b6aa515b146101f1576100ce565b80630c340a24146100e75780631cff79cd1461012a57806362c067671461014a5780636d70f7ae1461016c5780638a11a3701461019c576100ce565b366100ce57604051636436c22d60e11b815260040160405180910390fd5b60405163a0152e6360e01b815260040160405180910390fd5b3480156100f357600080fd5b5060005461010d906201000090046001600160a01b031681565b6040516001600160a01b0390911681526020015b60405180910390f35b61013d610138366004610f1f565b610268565b6040516101219190611000565b34801561015657600080fd5b5061016a610165366004611013565b610312565b005b34801561017857600080fd5b5061018c610187366004611054565b61034b565b6040519015158152602001610121565b3480156101a857600080fd5b5060015461010d906001600160a01b031681565b3480156101c857600080fd5b5061013d61038b565b3480156101dd57600080fd5b5061016a6101ec366004611054565b610419565b3480156101fd57600080fd5b5061016a61020c366004611054565b6104ac565b34801561021d57600080fd5b50610226610533565b6040516101219190611071565b34801561023f57600080fd5b5061016a610544565b34801561025457600080fd5b5061016a6102633660046110d4565b610603565b60606102733361034b565b6102905760405163d857ba2b60e01b815260040160405180910390fd5b600080856001600160a01b03163486866040516102ae929190611185565b60006040518083038185875af1925050503d80600081146102eb576040519150601f19603f3d011682016040523d82523d6000602084013e6102f0565b606091505b5091509150811561030457915061030b9050565b8060208201fd5b9392505050565b61031a61072d565b6001600160a01b038316610337576103328282610760565b505050565b6103326001600160a01b0384168383610879565b600080546001600160a01b038381166201000090920416148061038557506001600160a01b03821660009081526035602052604090205415155b92915050565b6033805461039890611195565b80601f01602080910402602001604051908101604052809291908181526020018280546103c490611195565b80156104115780601f106103e657610100808354040283529160200191610411565b820191906000526020600020905b8154815290600101906020018083116103f457829003601f168201915b505050505081565b6000546201000090046001600160a01b0316331461044a57604051634b98449160e11b815260040160405180910390fd5b6001600160a01b0381166104715760405163fb7566d760e01b815260040160405180910390fd5b6001600160a01b0381166000908152603560205260409020541561049e5761049a6034826108e0565b5050565b61049a6034826108f5565b50565b6000546201000090046001600160a01b031633146104dd57604051634b98449160e11b815260040160405180910390fd5b6001600160a01b03811661050457604051634c267bfb60e01b815260040160405180910390fd5b6001805473ffffffffffffffffffffffffffffffffffffffff19166001600160a01b0392909216919091179055565b606061053f603461090a565b905090565b6001546001600160a01b03163381146105705760405163038cdbad60e31b815260040160405180910390fd5b600080546040516001600160a01b03808516936201000090930416917fd4459d5b8b913cab0244230fd9b1c08b6ceace7fe9230e60d0f74cbffdf849d091a3600080546001600160a01b03909216620100000275ffffffffffffffffffffffffffffffffffffffff0000199092169190911790556001805473ffffffffffffffffffffffffffffffffffffffff19169055565b600054610100900460ff16158080156106235750600054600160ff909116105b8061063d5750303b15801561063d575060005460ff166001145b6106a55760405162461bcd60e51b815260206004820152602e60248201527f496e697469616c697a61626c653a20636f6e747261637420697320616c72656160448201526d191e481a5b9a5d1a585b1a5e995960921b60648201526084015b60405180910390fd5b6000805460ff1916600117905580156106c8576000805461ff0019166101001790555b81516106db906033906020850190610e71565b506106e4610917565b801561049a576000805461ff0019169055604051600181527f7f26b83ff96e1f2b6a682f133852f6798a09c465da95921460cefb38474024989060200160405180910390a15050565b6000546201000090046001600160a01b0316331461075e57604051634b98449160e11b815260040160405180910390fd5b565b804710156107b05760405162461bcd60e51b815260206004820152601d60248201527f416464726573733a20696e73756666696369656e742062616c616e6365000000604482015260640161069c565b6000826001600160a01b03168260405160006040518083038185875af1925050503d80600081146107fd576040519150601f19603f3d011682016040523d82523d6000602084013e610802565b606091505b50509050806103325760405162461bcd60e51b815260206004820152603a60248201527f416464726573733a20756e61626c6520746f2073656e642076616c75652c207260448201527f6563697069656e74206d61792068617665207265766572746564000000000000606482015260840161069c565b604080516001600160a01b038416602482015260448082018490528251808303909101815260649091019091526020810180517bffffffffffffffffffffffffffffffffffffffffffffffffffffffff1663a9059cbb60e01b179052610332908490610a74565b600061030b836001600160a01b038416610b46565b600061030b836001600160a01b038416610c39565b6060600061030b83610c88565b600054610100900460ff16158080156109375750600054600160ff909116105b806109515750303b158015610951575060005460ff166001145b6109b45760405162461bcd60e51b815260206004820152602e60248201527f496e697469616c697a61626c653a20636f6e747261637420697320616c72656160448201526d191e481a5b9a5d1a585b1a5e995960921b606482015260840161069c565b6000805460ff1916600117905580156109d7576000805461ff0019166101001790555b6000805475ffffffffffffffffffffffffffffffffffffffff00001916336201000081029190911782556040519091907fd4459d5b8b913cab0244230fd9b1c08b6ceace7fe9230e60d0f74cbffdf849d0908290a380156104a9576000805461ff0019169055604051600181527f7f26b83ff96e1f2b6a682f133852f6798a09c465da95921460cefb38474024989060200160405180910390a150565b6000610ac9826040518060400160405280602081526020017f5361666545524332303a206c6f772d6c6576656c2063616c6c206661696c6564815250856001600160a01b0316610ce49092919063ffffffff16565b8051909150156103325780806020019051810190610ae791906111d0565b6103325760405162461bcd60e51b815260206004820152602a60248201527f5361666545524332303a204552433230206f7065726174696f6e20646964206e6044820152691bdd081cdd58d8d9595960b21b606482015260840161069c565b60008181526001830160205260408120548015610c2f576000610b6a6001836111f2565b8554909150600090610b7e906001906111f2565b9050818114610be3576000866000018281548110610b9e57610b9e611217565b9060005260206000200154905080876000018481548110610bc157610bc1611217565b6000918252602080832090910192909255918252600188019052604090208390555b8554869080610bf457610bf461122d565b600190038181906000526020600020016000905590558560010160008681526020019081526020016000206000905560019350505050610385565b6000915050610385565b6000818152600183016020526040812054610c8057508154600181810184556000848152602080822090930184905584548482528286019093526040902091909155610385565b506000610385565b606081600001805480602002602001604051908101604052809291908181526020018280548015610cd857602002820191906000526020600020905b815481526020019060010190808311610cc4575b50505050509050919050565b6060610cf38484600085610cfb565b949350505050565b606082471015610d5c5760405162461bcd60e51b815260206004820152602660248201527f416464726573733a20696e73756666696369656e742062616c616e636520666f6044820152651c8818d85b1b60d21b606482015260840161069c565b600080866001600160a01b03168587604051610d789190611243565b60006040518083038185875af1925050503d8060008114610db5576040519150601f19603f3d011682016040523d82523d6000602084013e610dba565b606091505b5091509150610dcb87838387610dd6565b979650505050505050565b60608315610e42578251610e3b576001600160a01b0385163b610e3b5760405162461bcd60e51b815260206004820152601d60248201527f416464726573733a2063616c6c20746f206e6f6e2d636f6e7472616374000000604482015260640161069c565b5081610cf3565b610cf38383815115610e575781518083602001fd5b8060405162461bcd60e51b815260040161069c9190611000565b828054610e7d90611195565b90600052602060002090601f016020900481019282610e9f5760008555610ee5565b82601f10610eb857805160ff1916838001178555610ee5565b82800160010185558215610ee5579182015b82811115610ee5578251825591602001919060010190610eca565b50610ef1929150610ef5565b5090565b5b80821115610ef15760008155600101610ef6565b6001600160a01b03811681146104a957600080fd5b600080600060408486031215610f3457600080fd5b8335610f3f81610f0a565b9250602084013567ffffffffffffffff80821115610f5c57600080fd5b818601915086601f830112610f7057600080fd5b813581811115610f7f57600080fd5b876020828501011115610f9157600080fd5b6020830194508093505050509250925092565b60005b83811015610fbf578181015183820152602001610fa7565b83811115610fce576000848401525b50505050565b60008151808452610fec816020860160208601610fa4565b601f01601f19169290920160200192915050565b60208152600061030b6020830184610fd4565b60008060006060848603121561102857600080fd5b833561103381610f0a565b9250602084013561104381610f0a565b929592945050506040919091013590565b60006020828403121561106657600080fd5b813561030b81610f0a565b6020808252825182820181905260009190848201906040850190845b818110156110b25783516001600160a01b03168352928401929184019160010161108d565b50909695505050505050565b634e487b7160e01b600052604160045260246000fd5b6000602082840312156110e657600080fd5b813567ffffffffffffffff808211156110fe57600080fd5b818401915084601f83011261111257600080fd5b813581811115611124576111246110be565b604051601f8201601f19908116603f0116810190838211818310171561114c5761114c6110be565b8160405282815287602084870101111561116557600080fd5b826020860160208301376000928101602001929092525095945050505050565b8183823760009101908152919050565b600181811c908216806111a957607f821691505b602082108114156111ca57634e487b7160e01b600052602260045260246000fd5b50919050565b6000602082840312156111e257600080fd5b8151801515811461030b57600080fd5b60008282101561121257634e487b7160e01b600052601160045260246000fd5b500390565b634e487b7160e01b600052603260045260246000fd5b634e487b7160e01b600052603160045260246000fd5b60008251611255818460208701610fa4565b919091019291505056fea2646970667358221220cd6aee61d2f2428063e0e718f57d3280733d363f1f254e62d967cd694ea9c5aa64736f6c63430008090033",
  "devdoc": {
    "kind": "dev",
    "methods": {
      "execute(address,bytes)": {
        "params": {
          "data_": "Encoded function data to execute.",
          "target_": "Target address where function will be executed."
        }
      },
      "sweep(address,address,uint256)": {
        "params": {
          "amount_": "The amount to send",
          "to_": "The recipient of the transfer",
          "token_": "The token to transfer"
        }
      },
      "transferGovernorship(address)": {
        "details": "Can only be called by the current owner.",
        "params": {
          "proposedGovernor_": "The new proposed governor"
        }
      },
      "updateOperator(address)": {
        "params": {
          "operatorAddress_": "operator address to update."
        }
      }
    },
    "title": "Operator contract for Vesper ecosystem",
    "version": 1
  },
  "userdoc": {
    "kind": "user",
    "methods": {
      "acceptGovernorship()": {
        "notice": "Allows new governor to accept governorship of the contract."
      },
      "execute(address,bytes)": {
        "notice": "onlyOperator:: Execute encoded function provided as data_ at target_ address."
      },
      "governor()": {
        "notice": "The governor"
      },
      "proposedGovernor()": {
        "notice": "The proposed governor"
      },
      "sweep(address,address,uint256)": {
        "notice": "ERC20 recovery in case of stuck tokens due direct transfers to the contract address."
      },
      "transferGovernorship(address)": {
        "notice": "Transfers governorship of the contract to a new account (`proposedGovernor`)."
      },
      "updateOperator(address)": {
        "notice": "onlyGovernor:: If given address is already a operator then remove operator else add as operator"
      }
    },
    "version": 1
  },
  "storageLayout": {
    "storage": [
      {
        "astId": 6,
        "contract": "contracts/Operator.sol:Operator",
        "label": "_initialized",
        "offset": 0,
        "slot": "0",
        "type": "t_uint8"
      },
      {
        "astId": 9,
        "contract": "contracts/Operator.sol:Operator",
        "label": "_initializing",
        "offset": 1,
        "slot": "0",
        "type": "t_bool"
      },
      {
        "astId": 1967,
        "contract": "contracts/Operator.sol:Operator",
        "label": "governor",
        "offset": 2,
        "slot": "0",
        "type": "t_address"
      },
      {
        "astId": 1970,
        "contract": "contracts/Operator.sol:Operator",
        "label": "proposedGovernor",
        "offset": 0,
        "slot": "1",
        "type": "t_address"
      },
      {
        "astId": 2097,
        "contract": "contracts/Operator.sol:Operator",
        "label": "__gap",
        "offset": 0,
        "slot": "2",
        "type": "t_array(t_uint256)49_storage"
      },
      {
        "astId": 1809,
        "contract": "contracts/Operator.sol:Operator",
        "label": "NAME",
        "offset": 0,
        "slot": "51",
        "type": "t_string_storage"
      },
      {
        "astId": 1812,
        "contract": "contracts/Operator.sol:Operator",
        "label": "_operators",
        "offset": 0,
        "slot": "52",
        "type": "t_struct(AddressSet)778_storage"
      }
    ],
    "types": {
      "t_address": {
        "encoding": "inplace",
        "label": "address",
        "numberOfBytes": "20"
      },
      "t_array(t_bytes32)dyn_storage": {
        "base": "t_bytes32",
        "encoding": "dynamic_array",
        "label": "bytes32[]",
        "numberOfBytes": "32"
      },
      "t_array(t_uint256)49_storage": {
        "base": "t_uint256",
        "encoding": "inplace",
        "label": "uint256[49]",
        "numberOfBytes": "1568"
      },
      "t_bool": {
        "encoding": "inplace",
        "label": "bool",
        "numberOfBytes": "1"
      },
      "t_bytes32": {
        "encoding": "inplace",
        "label": "bytes32",
        "numberOfBytes": "32"
      },
      "t_mapping(t_bytes32,t_uint256)": {
        "encoding": "mapping",
        "key": "t_bytes32",
        "label": "mapping(bytes32 => uint256)",
        "numberOfBytes": "32",
        "value": "t_uint256"
      },
      "t_string_storage": {
        "encoding": "bytes",
        "label": "string",
        "numberOfBytes": "32"
      },
      "t_struct(AddressSet)778_storage": {
        "encoding": "inplace",
        "label": "struct EnumerableSetUpgradeable.AddressSet",
        "members": [
          {
            "astId": 777,
            "contract": "contracts/Operator.sol:Operator",
            "label": "_inner",
            "offset": 0,
            "slot": "0",
            "type": "t_struct(Set)463_storage"
          }
        ],
        "numberOfBytes": "64"
      },
      "t_struct(Set)463_storage": {
        "encoding": "inplace",
        "label": "struct EnumerableSetUpgradeable.Set",
        "members": [
          {
            "astId": 458,
            "contract": "contracts/Operator.sol:Operator",
            "label": "_values",
            "offset": 0,
            "slot": "0",
            "type": "t_array(t_bytes32)dyn_storage"
          },
          {
            "astId": 462,
            "contract": "contracts/Operator.sol:Operator",
            "label": "_indexes",
            "offset": 0,
            "slot": "1",
            "type": "t_mapping(t_bytes32,t_uint256)"
          }
        ],
        "numberOfBytes": "64"
      },
      "t_uint256": {
        "encoding": "inplace",
        "label": "uint256",
        "numberOfBytes": "32"
      },
      "t_uint8": {
        "encoding": "inplace",
        "label": "uint8",
        "numberOfBytes": "1"
      }
    }
  }
}