{
  "address": "0x03Bbb5D31A0E10135F31DDe035342bd9242e70a8",
  "abi": [
    {
      "inputs": [
        {
          "internalType": "address",
          "name": "_pool",
          "type": "address"
        },
        {
          "internalType": "address",
          "name": "_swapper",
          "type": "address"
        },
        {
          "internalType": "address",
          "name": "_stargateRouter",
          "type": "address"
        },
        {
          "internalType": "address",
          "name": "_stargateLpStaking",
          "type": "address"
        },
        {
          "internalType": "uint256",
          "name": "_stargatePoolId",
          "type": "uint256"
        },
        {
          "internalType": "uint256",
          "name": "_stargateLpStakingPoolId",
          "type": "uint256"
        },
        {
          "internalType": "string",
          "name": "_name",
          "type": "string"
        }
      ],
      "stateMutability": "nonpayable",
      "type": "constructor"
    },
    {
      "anonymous": false,
      "inputs": [
        {
          "indexed": true,
          "internalType": "address",
          "name": "previousFeeCollector",
          "type": "address"
        },
        {
          "indexed": true,
          "internalType": "address",
          "name": "newFeeCollector",
          "type": "address"
        }
      ],
      "name": "UpdatedFeeCollector",
      "type": "event"
    },
    {
      "anonymous": false,
      "inputs": [
        {
          "indexed": true,
          "internalType": "contract IRoutedSwapper",
          "name": "oldSwapper",
          "type": "address"
        },
        {
          "indexed": true,
          "internalType": "contract IRoutedSwapper",
          "name": "newSwapper",
          "type": "address"
        }
      ],
      "name": "UpdatedSwapper",
      "type": "event"
    },
    {
      "inputs": [],
      "name": "NAME",
      "outputs": [
        {
          "internalType": "string",
          "name": "",
          "type": "string"
        }
      ],
      "stateMutability": "view",
      "type": "function"
    },
    {
      "inputs": [],
      "name": "VERSION",
      "outputs": [
        {
          "internalType": "string",
          "name": "",
          "type": "string"
        }
      ],
      "stateMutability": "view",
      "type": "function"
    },
    {
      "inputs": [
        {
          "internalType": "address",
          "name": "_keeperAddress",
          "type": "address"
        }
      ],
      "name": "addKeeper",
      "outputs": [],
      "stateMutability": "nonpayable",
      "type": "function"
    },
    {
      "inputs": [],
      "name": "approveToken",
      "outputs": [],
      "stateMutability": "nonpayable",
      "type": "function"
    },
    {
      "inputs": [],
      "name": "collateral",
      "outputs": [
        {
          "internalType": "address",
          "name": "",
          "type": "address"
        }
      ],
      "stateMutability": "view",
      "type": "function"
    },
    {
      "inputs": [],
      "name": "collateralToken",
      "outputs": [
        {
          "internalType": "contract IERC20",
          "name": "",
          "type": "address"
        }
      ],
      "stateMutability": "view",
      "type": "function"
    },
    {
      "inputs": [],
      "name": "feeCollector",
      "outputs": [
        {
          "internalType": "address",
          "name": "",
          "type": "address"
        }
      ],
      "stateMutability": "view",
      "type": "function"
    },
    {
      "inputs": [
        {
          "internalType": "address",
          "name": "_token",
          "type": "address"
        }
      ],
      "name": "isReservedToken",
      "outputs": [
        {
          "internalType": "bool",
          "name": "",
          "type": "bool"
        }
      ],
      "stateMutability": "view",
      "type": "function"
    },
    {
      "inputs": [],
      "name": "keepers",
      "outputs": [
        {
          "internalType": "address[]",
          "name": "",
          "type": "address[]"
        }
      ],
      "stateMutability": "view",
      "type": "function"
    },
    {
      "inputs": [],
      "name": "lpAmountStaked",
      "outputs": [
        {
          "internalType": "uint256",
          "name": "_lpAmountStaked",
          "type": "uint256"
        }
      ],
      "stateMutability": "view",
      "type": "function"
    },
    {
      "inputs": [
        {
          "internalType": "address",
          "name": "_newStrategy",
          "type": "address"
        }
      ],
      "name": "migrate",
      "outputs": [],
      "stateMutability": "nonpayable",
      "type": "function"
    },
    {
      "inputs": [],
      "name": "pendingStargate",
      "outputs": [
        {
          "internalType": "uint256",
          "name": "_pendingStargate",
          "type": "uint256"
        }
      ],
      "stateMutability": "view",
      "type": "function"
    },
    {
      "inputs": [],
      "name": "pool",
      "outputs": [
        {
          "internalType": "address",
          "name": "",
          "type": "address"
        }
      ],
      "stateMutability": "view",
      "type": "function"
    },
    {
      "inputs": [],
      "name": "rebalance",
      "outputs": [
        {
          "internalType": "uint256",
          "name": "_profit",
          "type": "uint256"
        },
        {
          "internalType": "uint256",
          "name": "_loss",
          "type": "uint256"
        },
        {
          "internalType": "uint256",
          "name": "_payback",
          "type": "uint256"
        }
      ],
      "stateMutability": "nonpayable",
      "type": "function"
    },
    {
      "inputs": [],
      "name": "receiptToken",
      "outputs": [
        {
          "internalType": "address",
          "name": "",
          "type": "address"
        }
      ],
      "stateMutability": "view",
      "type": "function"
    },
    {
      "inputs": [
        {
          "internalType": "address",
          "name": "_keeperAddress",
          "type": "address"
        }
      ],
      "name": "removeKeeper",
      "outputs": [],
      "stateMutability": "nonpayable",
      "type": "function"
    },
    {
      "inputs": [],
      "name": "rewardToken",
      "outputs": [
        {
          "internalType": "address",
          "name": "",
          "type": "address"
        }
      ],
      "stateMutability": "view",
      "type": "function"
    },
    {
      "inputs": [],
      "name": "stargateLpStaking",
      "outputs": [
        {
          "internalType": "contract IStargateLpStaking",
          "name": "",
          "type": "address"
        }
      ],
      "stateMutability": "view",
      "type": "function"
    },
    {
      "inputs": [],
      "name": "stargateLpStakingPoolId",
      "outputs": [
        {
          "internalType": "uint256",
          "name": "",
          "type": "uint256"
        }
      ],
      "stateMutability": "view",
      "type": "function"
    },
    {
      "inputs": [],
      "name": "stargatePoolId",
      "outputs": [
        {
          "internalType": "uint256",
          "name": "",
          "type": "uint256"
        }
      ],
      "stateMutability": "view",
      "type": "function"
    },
    {
      "inputs": [],
      "name": "swapper",
      "outputs": [
        {
          "internalType": "contract IRoutedSwapper",
          "name": "",
          "type": "address"
        }
      ],
      "stateMutability": "view",
      "type": "function"
    },
    {
      "inputs": [
        {
          "internalType": "address",
          "name": "_fromToken",
          "type": "address"
        }
      ],
      "name": "sweepERC20",
      "outputs": [],
      "stateMutability": "nonpayable",
      "type": "function"
    },
    {
      "inputs": [],
      "name": "token",
      "outputs": [
        {
          "internalType": "address",
          "name": "",
          "type": "address"
        }
      ],
      "stateMutability": "view",
      "type": "function"
    },
    {
      "inputs": [],
      "name": "tvl",
      "outputs": [
        {
          "internalType": "uint256",
          "name": "",
          "type": "uint256"
        }
      ],
      "stateMutability": "view",
      "type": "function"
    },
    {
      "inputs": [
        {
          "internalType": "address",
          "name": "_feeCollector",
          "type": "address"
        }
      ],
      "name": "updateFeeCollector",
      "outputs": [],
      "stateMutability": "nonpayable",
      "type": "function"
    },
    {
      "inputs": [
        {
          "internalType": "contract IRoutedSwapper",
          "name": "_swapper",
          "type": "address"
        }
      ],
      "name": "updateSwapper",
      "outputs": [],
      "stateMutability": "nonpayable",
      "type": "function"
    },
    {
      "inputs": [
        {
          "internalType": "uint256",
          "name": "_amount",
          "type": "uint256"
        }
      ],
      "name": "withdraw",
      "outputs": [],
      "stateMutability": "nonpayable",
      "type": "function"
    },
    {
      "inputs": [
        {
          "internalType": "uint16",
          "name": "_dstChainId",
          "type": "uint16"
        }
      ],
      "name": "withdrawForRebalance",
      "outputs": [],
      "stateMutability": "payable",
      "type": "function"
    }
  ],
  "transactionHash": "0x25a7c7687cb2e8d49904f6d0568b2a49ee7c1c9c5ccd7e35bef4331cd278b9e7",
  "args": [
    "0x4378041dceF18713CE30E36A6b9c8aA41C0dB631",
    "0xC85831dED6fCB15A288dfF49D256CBBC2B58388f",
    "0x45A01E4e04F14f7A4a6702c74187c5F6222033cd",
    "0x8731d54E9D02c286767d56ac03e8037C07e01e98",
    1,
    0,
    "Stargate_USDC"
  ],
  "numDeployments": 1,
  "solcInputHash": "7d6bb5f169322e6777d8d29bf2217e7a",
  "bytecode": "0x6101806040523480156200001257600080fd5b5060405162003fdb38038062003fdb8339810160408190526200003591620006f4565b868660006001600160a01b038316620000955760405162461bcd60e51b815260206004820152601460248201527f706f6f6c2d616464726573732d69732d7a65726f00000000000000000000000060448201526064015b60405180910390fd5b6001600160a01b038216620000ed5760405162461bcd60e51b815260206004820152601760248201527f737761707065722d616464726573732d69732d7a65726f00000000000000000060448201526064016200008c565b600280546001600160a01b0319166001600160a01b0384811691909117909155831660a081905260408051637e062a3560e11b8152905163fc0c546a91600480820192602092909190829003018186803b1580156200014b57600080fd5b505afa15801562000160573d6000803e3d6000fd5b505050506040513d601f19601f820116820180604052508101906200018691906200083e565b6001600160a01b03908116608052600080546001600160a01b031916918316919091179055620001cd620001b73390565b6003620005ad60201b620018d71790919060201c565b6200020f5760405162461bcd60e51b81526020600482015260116024820152701859190b5ad9595c195c8b59985a5b1959607a1b60448201526064016200008c565b5050506001600160a01b0385166200025f5760405162461bcd60e51b81526020600482015260126024820152717374672d726f757465722d69732d7a65726f60701b60448201526064016200008c565b6001600160a01b038416620002b75760405162461bcd60e51b815260206004820152601360248201527f7374672d7374616b696e672d69732d7a65726f0000000000000000000000000060448201526064016200008c565b60008311620002fc5760405162461bcd60e51b815260206004820152601060248201526f7374672d706f6f6c2d69732d7a65726f60801b60448201526064016200008c565b6001600160a01b0380861661016081905290851660c0526040805163c45a015560e01b815290516000929163c45a0155916004808301926020929190829003018186803b1580156200034d57600080fd5b505afa15801562000362573d6000803e3d6000fd5b505050506040513d601f19601f820116820180604052508101906200038891906200083e565b6001600160a01b031663068bcd8d856040518263ffffffff1660e01b8152600401620003b691815260200190565b60206040518083038186803b158015620003cf57600080fd5b505afa158015620003e4573d6000803e3d6000fd5b505050506040513d601f19601f820116820180604052508101906200040a91906200083e565b9050806001600160a01b031663fc0c546a6040518163ffffffff1660e01b815260040160206040518083038186803b1580156200044657600080fd5b505afa1580156200045b573d6000803e3d6000fd5b505050506040513d601f19601f820116820180604052508101906200048191906200083e565b6001600160a01b03166080516001600160a01b031614620004d55760405162461bcd60e51b815260206004820152600d60248201526c1ddc9bdb99cb5c1bdbdb0b5a59609a1b60448201526064016200008c565b600080546001600160a01b0319166001600160a01b038381169182179092556101405261010085905260e084905260c05160408051633604cef760e11b815290519190921691636c099dee916004808301926020929190829003018186803b1580156200054157600080fd5b505afa15801562000556573d6000803e3d6000fd5b505050506040513d601f19601f820116820180604052508101906200057c91906200083e565b6001600160a01b03166101205281516200059e9060059060208501906200061f565b505050505050505050620008a2565b6000620005c4836001600160a01b038416620005cd565b90505b92915050565b60008181526001830160205260408120546200061657508154600181810184556000848152602080822090930184905584548482528286019093526040902091909155620005c7565b506000620005c7565b8280546200062d9062000865565b90600052602060002090601f0160209004810192826200065157600085556200069c565b82601f106200066c57805160ff19168380011785556200069c565b828001600101855582156200069c579182015b828111156200069c5782518255916020019190600101906200067f565b50620006aa929150620006ae565b5090565b5b80821115620006aa5760008155600101620006af565b6001600160a01b0381168114620006db57600080fd5b50565b634e487b7160e01b600052604160045260246000fd5b600080600080600080600060e0888a0312156200071057600080fd5b87516200071d81620006c5565b809750506020808901516200073281620006c5565b60408a01519097506200074581620006c5565b60608a01519096506200075881620006c5565b60808a015160a08b015160c08c015192975090955093506001600160401b03808211156200078557600080fd5b818b0191508b601f8301126200079a57600080fd5b815181811115620007af57620007af620006de565b604051601f8201601f19908116603f01168101908382118183101715620007da57620007da620006de565b816040528281528e86848701011115620007f357600080fd5b600093505b82841015620008175784840186015181850187015292850192620007f8565b82841115620008295760008684830101525b80965050505050505092959891949750929550565b6000602082840312156200085157600080fd5b81516200085e81620006c5565b9392505050565b600181811c908216806200087a57607f821691505b602082108114156200089c57634e487b7160e01b600052602260045260246000fd5b50919050565b60805160a05160c05160e0516101005161012051610140516101605161352862000ab36000396000818161087b01528181611c950152818161222c0152818161242901526124d101526000818161194601528181611a1501528181611b93015281816122e20152818161245b015281816124af01528181612914015281816129b70152612a480152600081816105450152818161250701528181612c800152612d13015260008181610409015281816108ac015281816108cd01528181611cc401526121f901526000818161034801528181610d2501528181610dea01528181611aed015281816122c10152818161263b0152612bd601526000818161031401528181610d5401528181610e1901528181611b1a015281816122920152818161247d0152818161260c0152612c030152600081816101c3015281816105b8015281816107140152818161079f015281816109b601528181610ad201528181610bb001528181610c0c01528181610fb6015281816110530152818161127f0152818161144801528181611d8901528181611e29015281816120e20152612dc40152600081816103d5015281816104ba01528181610a1501528181610ab001528181610b2401528181610be3015281816111e30152818161167a0152818161184001528181611eca01528181611f08015281816120060152818161215b015281816124070152612da201526135286000f3fe6080604052600436106101775760003560e01c8063a3f4df7e116100cc578063d8dfeb451161007a578063d8dfeb45146104ab578063e00af4a7146104de578063e5328e06146104fe578063ec78e83214610513578063f7c618c114610533578063fc0c546a14610567578063ffa1ad741461058557600080fd5b8063a3f4df7e146103a1578063b2016bd4146103c3578063b2bc2298146103f7578063c415b95c1461042b578063ce5494bb1461044b578063d2c35ce81461046b578063d3033c391461048b57600080fd5b80634dadd90a116101295780634dadd90a1461029a578063698a0cc3146102bd5780637d7c2a1c146102d25780637e2d5759146103025780638fe14eec14610336578063951dc22c1461036a57806399b71d5c1461038c57600080fd5b806314ae9f2e1461017c578063162514281461019e57806316f0115b146101b15780632b3297f9146101fb5780632e1a7d4d1461021b5780634032b72b1461023b578063440d72481461025b575b600080fd5b34801561018857600080fd5b5061019c610197366004613138565b6105b6565b005b61019c6101ac366004613155565b6106d1565b3480156101bd57600080fd5b506101e57f000000000000000000000000000000000000000000000000000000000000000081565b6040516101f29190613179565b60405180910390f35b34801561020757600080fd5b506002546101e5906001600160a01b031681565b34801561022757600080fd5b5061019c61023636600461318d565b6109b3565b34801561024757600080fd5b5061019c610256366004613138565b610c0a565b34801561026757600080fd5b5061028a610276366004613138565b6000546001600160a01b0391821691161490565b60405190151581526020016101f2565b3480156102a657600080fd5b506102af610d16565b6040519081526020016101f2565b3480156102c957600080fd5b506102af610ddb565b3480156102de57600080fd5b506102e7610ea1565b604080519384526020840192909252908201526060016101f2565b34801561030e57600080fd5b506101e57f000000000000000000000000000000000000000000000000000000000000000081565b34801561034257600080fd5b506102af7f000000000000000000000000000000000000000000000000000000000000000081565b34801561037657600080fd5b5061037f610edd565b6040516101f291906131a6565b34801561039857600080fd5b5061019c610ee9565b3480156103ad57600080fd5b506103b6610f25565b6040516101f2919061324b565b3480156103cf57600080fd5b506101e57f000000000000000000000000000000000000000000000000000000000000000081565b34801561040357600080fd5b506102af7f000000000000000000000000000000000000000000000000000000000000000081565b34801561043757600080fd5b506001546101e5906001600160a01b031681565b34801561045757600080fd5b5061019c610466366004613138565b610fb3565b34801561047757600080fd5b5061019c610486366004613138565b61127d565b34801561049757600080fd5b5061019c6104a6366004613138565b611446565b3480156104b757600080fd5b507f00000000000000000000000000000000000000000000000000000000000000006101e5565b3480156104ea57600080fd5b5061019c6104f9366004613138565b611603565b34801561050a57600080fd5b506102af611826565b34801561051f57600080fd5b506000546101e5906001600160a01b031681565b34801561053f57600080fd5b506101e57f000000000000000000000000000000000000000000000000000000000000000081565b34801561057357600080fd5b506000546001600160a01b03166101e5565b34801561059157600080fd5b506103b6604051806040016040528060058152602001640352e302e360dc1b81525081565b7f00000000000000000000000000000000000000000000000000000000000000006001600160a01b0316630c340a246040518163ffffffff1660e01b815260040160206040518083038186803b15801561060f57600080fd5b505afa158015610623573d6000803e3d6000fd5b505050506040513d601f19601f82011682018060405250810190610647919061325e565b6001600160a01b0316336001600160a01b0316146106805760405162461bcd60e51b81526004016106779061327b565b60405180910390fd5b61068b6003826118f5565b6106ce5760405162461bcd60e51b81526020600482015260146024820152731c995b5bdd994b5ad9595c195c8b59985a5b195960621b6044820152606401610677565b50565b6106de335b60039061190a565b6106fa5760405162461bcd60e51b8152600401610677906132b2565b604051636a9eee1360e11b81526000906001600160a01b037f0000000000000000000000000000000000000000000000000000000000000000169063d53ddc2690610749903090600401613179565b60206040518083038186803b15801561076157600080fd5b505afa158015610775573d6000803e3d6000fd5b505050506040513d601f19601f8201168201806040525081019061079991906132e2565b905060007f00000000000000000000000000000000000000000000000000000000000000006001600160a01b0316639f2b2833306040518263ffffffff1660e01b81526004016107e99190613179565b60206040518083038186803b15801561080157600080fd5b505afa158015610815573d6000803e3d6000fd5b505050506040513d601f19601f8201168201806040525081019061083991906132e2565b9050600061084561192c565b905081811115610866576108598282613311565b6108639084613328565b92505b600061087184611a03565b905080156109ac577f00000000000000000000000000000000000000000000000000000000000000006001600160a01b0316638f2e1d1834877f00000000000000000000000000000000000000000000000000000000000000007f0000000000000000000000000000000000000000000000000000000000000000338730604051602001610917919060609190911b6bffffffffffffffffffffffff1916815260140190565b60408051601f198184030181526060830182526000808452602084810191909152825180840184526002815261060f60f31b918101919091528383015290516001600160e01b031960e08b901b16815261097997969594939290600401613340565b6000604051808303818588803b15801561099257600080fd5b505af11580156109a6573d6000803e3d6000fd5b50505050505b5050505050565b337f00000000000000000000000000000000000000000000000000000000000000006001600160a01b0316146109fb5760405162461bcd60e51b8152600401610677906133bb565b6040516370a0823160e01b81526000906001600160a01b037f000000000000000000000000000000000000000000000000000000000000000016906370a0823190610a4a903090600401613179565b60206040518083038186803b158015610a6257600080fd5b505afa158015610a76573d6000803e3d6000fd5b505050506040513d601f19601f82011682018060405250810190610a9a91906132e2565b9050818110610afb57610af76001600160a01b037f0000000000000000000000000000000000000000000000000000000000000000167f000000000000000000000000000000000000000000000000000000000000000084611c2b565b5050565b610b0d610b088284613311565b611c93565b6040516370a0823160e01b81526001600160a01b037f000000000000000000000000000000000000000000000000000000000000000016906370a0823190610b59903090600401613179565b60206040518083038186803b158015610b7157600080fd5b505afa158015610b85573d6000803e3d6000fd5b505050506040513d601f19601f82011682018060405250810190610ba991906132e2565b9050610af77f0000000000000000000000000000000000000000000000000000000000000000610bd98484611d6b565b6001600160a01b037f0000000000000000000000000000000000000000000000000000000000000000169190611c2b565b7f00000000000000000000000000000000000000000000000000000000000000006001600160a01b0316630c340a246040518163ffffffff1660e01b815260040160206040518083038186803b158015610c6357600080fd5b505afa158015610c77573d6000803e3d6000fd5b505050506040513d601f19601f82011682018060405250810190610c9b919061325e565b6001600160a01b0316336001600160a01b031614610ccb5760405162461bcd60e51b81526004016106779061327b565b610cd66003826118d7565b6106ce5760405162461bcd60e51b81526020600482015260116024820152701859190b5ad9595c195c8b59985a5b1959607a1b6044820152606401610677565b6040516393f1a40b60e01b81527f000000000000000000000000000000000000000000000000000000000000000060048201523060248201526000907f00000000000000000000000000000000000000000000000000000000000000006001600160a01b0316906393f1a40b90604401604080518083038186803b158015610d9d57600080fd5b505afa158015610db1573d6000803e3d6000fd5b505050506040513d601f19601f82011682018060405250810190610dd591906133ee565b50919050565b604051632f607fdd60e01b81527f000000000000000000000000000000000000000000000000000000000000000060048201523060248201526000907f00000000000000000000000000000000000000000000000000000000000000006001600160a01b031690632f607fdd906044015b60206040518083038186803b158015610e6457600080fd5b505afa158015610e78573d6000803e3d6000fd5b505050506040513d601f19601f82011682018060405250810190610e9c91906132e2565b905090565b60008080610eae336106d6565b610eca5760405162461bcd60e51b8152600401610677906132b2565b610ed2611d81565b925092509250909192565b6060610e9c60036123dd565b610ef2336106d6565b610f0e5760405162461bcd60e51b8152600401610677906132b2565b610f1860006123f1565b610f236000196123f1565b565b60058054610f3290613412565b80601f0160208091040260200160405190810160405280929190818152602001828054610f5e90613412565b8015610fab5780601f10610f8057610100808354040283529160200191610fab565b820191906000526020600020905b815481529060010190602001808311610f8e57829003601f168201915b505050505081565b337f00000000000000000000000000000000000000000000000000000000000000006001600160a01b031614610ffb5760405162461bcd60e51b8152600401610677906133bb565b6001600160a01b0381166110515760405162461bcd60e51b815260206004820152601c60248201527f6e65772d73747261746567792d616464726573732d69732d7a65726f000000006044820152606401610677565b7f00000000000000000000000000000000000000000000000000000000000000006001600160a01b0316816001600160a01b03166316f0115b6040518163ffffffff1660e01b815260040160206040518083038186803b1580156110b457600080fd5b505afa1580156110c8573d6000803e3d6000fd5b505050506040513d601f19601f820116820180604052508101906110ec919061325e565b6001600160a01b03161461113b5760405162461bcd60e51b81526020600482015260166024820152756e6f742d76616c69642d6e65772d737472617465677960501b6044820152606401610677565b61114481612530565b6000546040516370a0823160e01b81526111dd9183916001600160a01b03909116906370a082319061117a903090600401613179565b60206040518083038186803b15801561119257600080fd5b505afa1580156111a6573d6000803e3d6000fd5b505050506040513d601f19601f820116820180604052508101906111ca91906132e2565b6000546001600160a01b03169190611c2b565b6106ce817f00000000000000000000000000000000000000000000000000000000000000006001600160a01b03166370a08231306040518263ffffffff1660e01b815260040161122d9190613179565b60206040518083038186803b15801561124557600080fd5b505afa158015611259573d6000803e3d6000fd5b505050506040513d601f19601f82011682018060405250810190610bd991906132e2565b7f00000000000000000000000000000000000000000000000000000000000000006001600160a01b0316630c340a246040518163ffffffff1660e01b815260040160206040518083038186803b1580156112d657600080fd5b505afa1580156112ea573d6000803e3d6000fd5b505050506040513d601f19601f8201168201806040525081019061130e919061325e565b6001600160a01b0316336001600160a01b03161461133e5760405162461bcd60e51b81526004016106779061327b565b6001600160a01b0381166113945760405162461bcd60e51b815260206004820152601d60248201527f6665652d636f6c6c6563746f722d616464726573732d69732d7a65726f0000006044820152606401610677565b6001546001600160a01b03828116911614156113ea5760405162461bcd60e51b81526020600482015260156024820152746665652d636f6c6c6563746f722d69732d73616d6560581b6044820152606401610677565b6001546040516001600160a01b038084169216907f0f06062680f9bd68e786e9980d9bb03d73d5620fc3b345e417b6eacb310b970690600090a3600180546001600160a01b0319166001600160a01b0392909216919091179055565b7f00000000000000000000000000000000000000000000000000000000000000006001600160a01b0316630c340a246040518163ffffffff1660e01b815260040160206040518083038186803b15801561149f57600080fd5b505afa1580156114b3573d6000803e3d6000fd5b505050506040513d601f19601f820116820180604052508101906114d7919061325e565b6001600160a01b0316336001600160a01b0316146115075760405162461bcd60e51b81526004016106779061327b565b6001600160a01b0381166115575760405162461bcd60e51b8152602060048201526017602482015276737761707065722d616464726573732d69732d7a65726f60481b6044820152606401610677565b6002546001600160a01b03828116911614156115a75760405162461bcd60e51b815260206004820152600f60248201526e737761707065722d69732d73616d6560881b6044820152606401610677565b6002546040516001600160a01b038084169216907f6c953b7ec311055c20b96a42cea31e89528e375b1bf953a503db40854b3188fe90600090a3600280546001600160a01b0319166001600160a01b0392909216919091179055565b61160c336106d6565b6116285760405162461bcd60e51b8152600401610677906132b2565b6001546001600160a01b03166116785760405162461bcd60e51b81526020600482015260156024820152741999594b58dbdb1b1958dd1bdc8b5b9bdd0b5cd95d605a1b6044820152606401610677565b7f00000000000000000000000000000000000000000000000000000000000000006001600160a01b0316816001600160a01b031614156116fa5760405162461bcd60e51b815260206004820152601f60248201527f6e6f742d616c6c6f7765642d746f2d73776565702d636f6c6c61746572616c006044820152606401610677565b6000546001600160a01b038281169116141561174f5760405162461bcd60e51b815260206004820152601460248201527306e6f742d616c6c6f7765642d746f2d73776565760641b6044820152606401610677565b6001600160a01b03811673eeeeeeeeeeeeeeeeeeeeeeeeeeeeeeeeeeeeeeee141561178a576001546106ce906001600160a01b0316476126b4565b6040516370a0823160e01b81526000906001600160a01b038316906370a08231906117b9903090600401613179565b60206040518083038186803b1580156117d157600080fd5b505afa1580156117e5573d6000803e3d6000fd5b505050506040513d601f19601f8201168201806040525081019061180991906132e2565b600154909150610af7906001600160a01b03848116911683611c2b565b6040516370a0823160e01b81526000906001600160a01b037f000000000000000000000000000000000000000000000000000000000000000016906370a0823190611875903090600401613179565b60206040518083038186803b15801561188d57600080fd5b505afa1580156118a1573d6000803e3d6000fd5b505050506040513d601f19601f820116820180604052508101906118c591906132e2565b6118cd61192c565b610e9c9190613328565b60006118ec836001600160a01b0384166127cd565b90505b92915050565b60006118ec836001600160a01b03841661281c565b6001600160a01b038116600090815260018301602052604081205415156118ec565b6040516370a0823160e01b81526000906001600160a01b037f0000000000000000000000000000000000000000000000000000000000000000169063f6cd35ee9082906370a0823190611983903090600401613179565b60206040518083038186803b15801561199b57600080fd5b505afa1580156119af573d6000803e3d6000fd5b505050506040513d601f19601f820116820180604052508101906119d391906132e2565b6119db610d16565b6119e59190613328565b6040518263ffffffff1660e01b8152600401610e4c91815260200190565b600080611a0f8361290f565b905060007f00000000000000000000000000000000000000000000000000000000000000006001600160a01b03166370a08231306040518263ffffffff1660e01b8152600401611a5f9190613179565b60206040518083038186803b158015611a7757600080fd5b505afa158015611a8b573d6000803e3d6000fd5b505050506040513d601f19601f82011682018060405250810190611aaf91906132e2565b905080821115611c24576000611ac3610d16565b90506000611ad18385613311565b905081811115611ade5750805b604051630441a3e760e41b81527f00000000000000000000000000000000000000000000000000000000000000006004820152602481018290527f00000000000000000000000000000000000000000000000000000000000000006001600160a01b03169063441a3e7090604401600060405180830381600087803b158015611b6657600080fd5b505af1158015611b7a573d6000803e3d6000fd5b50506040516370a0823160e01b81526001600160a01b037f00000000000000000000000000000000000000000000000000000000000000001692506370a082319150611bca903090600401613179565b60206040518083038186803b158015611be257600080fd5b505afa158015611bf6573d6000803e3d6000fd5b505050506040513d601f19601f82011682018060405250810190611c1a91906132e2565b9695505050505050565b5092915050565b6040516001600160a01b038316602482015260448101829052611c8e90849063a9059cbb60e01b906064015b60408051601f198184030181529190526020810180516001600160e01b03166001600160e01b031990931692909217909152612af5565b505050565b7f00000000000000000000000000000000000000000000000000000000000000006001600160a01b031663c4de93a57f0000000000000000000000000000000000000000000000000000000000000000611cec84611a03565b6040516001600160e01b031960e085901b16815261ffff90921660048301526024820152306044820152606401602060405180830381600087803b158015611d3357600080fd5b505af1158015611d47573d6000803e3d6000fd5b505050506040513d601f19601f82011682018060405250810190610af791906132e2565b6000818310611d7a57816118ec565b5090919050565b6000806000807f00000000000000000000000000000000000000000000000000000000000000006001600160a01b031663d53ddc26306040518263ffffffff1660e01b8152600401611dd39190613179565b60206040518083038186803b158015611deb57600080fd5b505afa158015611dff573d6000803e3d6000fd5b505050506040513d601f19601f82011682018060405250810190611e2391906132e2565b905060007f00000000000000000000000000000000000000000000000000000000000000006001600160a01b0316639f2b2833306040518263ffffffff1660e01b8152600401611e739190613179565b60206040518083038186803b158015611e8b57600080fd5b505afa158015611e9f573d6000803e3d6000fd5b505050506040513d601f19601f82011682018060405250810190611ec391906132e2565b9050611eee7f0000000000000000000000000000000000000000000000000000000000000000612bc7565b6040516370a0823160e01b81526000906001600160a01b037f000000000000000000000000000000000000000000000000000000000000000016906370a0823190611f3d903090600401613179565b60206040518083038186803b158015611f5557600080fd5b505afa158015611f69573d6000803e3d6000fd5b505050506040513d601f19601f82011682018060405250810190611f8d91906132e2565b9050600081611f9a61192c565b611fa49190613328565b905082811115611fbf57611fb88382613311565b9650611fcc565b611fc98184613311565b95505b6000611fd88589613328565b90508281111561208e57611fef610b088483613311565b6040516370a0823160e01b81526001600160a01b037f000000000000000000000000000000000000000000000000000000000000000016906370a082319061203b903090600401613179565b60206040518083038186803b15801561205357600080fd5b505afa158015612067573d6000803e3d6000fd5b505050506040513d601f19601f8201168201806040525081019061208b91906132e2565b92505b6120988386611d6b565b95508583116120a85760006120bb565b6120bb6120b58785613311565b89611d6b565b6040516302df682360e11b81526004810182905260248101899052604481018890529098507f00000000000000000000000000000000000000000000000000000000000000006001600160a01b0316906305bed04690606401600060405180830381600087803b15801561212e57600080fd5b505af1158015612142573d6000803e3d6000fd5b50506040516370a0823160e01b81526001600160a01b037f00000000000000000000000000000000000000000000000000000000000000001692506370a082319150612192903090600401613179565b60206040518083038186803b1580156121aa57600080fd5b505afa1580156121be573d6000803e3d6000fd5b505050506040513d601f19601f820116820180604052508101906121e291906132e2565b925082156123d3576040516321ec87bf60e21b81527f00000000000000000000000000000000000000000000000000000000000000006004820152602481018490523060448201527f00000000000000000000000000000000000000000000000000000000000000006001600160a01b0316906387b21efc90606401600060405180830381600087803b15801561227857600080fd5b505af115801561228c573d6000803e3d6000fd5b505050507f00000000000000000000000000000000000000000000000000000000000000006001600160a01b031663e2bbb1587f00000000000000000000000000000000000000000000000000000000000000007f00000000000000000000000000000000000000000000000000000000000000006001600160a01b03166370a08231306040518263ffffffff1660e01b815260040161232c9190613179565b60206040518083038186803b15801561234457600080fd5b505afa158015612358573d6000803e3d6000fd5b505050506040513d601f19601f8201168201806040525081019061237c91906132e2565b6040516001600160e01b031960e085901b16815260048101929092526024820152604401600060405180830381600087803b1580156123ba57600080fd5b505af11580156123ce573d6000803e3d6000fd5b505050505b5050505050909192565b606060006123ea83612d39565b9392505050565b6123fa81612d95565b61244e6001600160a01b037f0000000000000000000000000000000000000000000000000000000000000000167f000000000000000000000000000000000000000000000000000000000000000083612de5565b6124a26001600160a01b037f0000000000000000000000000000000000000000000000000000000000000000167f000000000000000000000000000000000000000000000000000000000000000083612de5565b6124f66001600160a01b037f0000000000000000000000000000000000000000000000000000000000000000167f000000000000000000000000000000000000000000000000000000000000000083612de5565b6002546106ce906001600160a01b037f00000000000000000000000000000000000000000000000000000000000000008116911683612de5565b60008054906101000a90046001600160a01b03166001600160a01b0316816001600160a01b031663fc0c546a6040518163ffffffff1660e01b815260040160206040518083038186803b15801561258657600080fd5b505afa15801561259a573d6000803e3d6000fd5b505050506040513d601f19601f820116820180604052508101906125be919061325e565b6001600160a01b03161461260a5760405162461bcd60e51b81526020600482015260136024820152723bb937b73396b932b1b2b4b83a16ba37b5b2b760691b6044820152606401610677565b7f00000000000000000000000000000000000000000000000000000000000000006001600160a01b031663441a3e707f0000000000000000000000000000000000000000000000000000000000000000612662610d16565b6040516001600160e01b031960e085901b16815260048101929092526024820152604401600060405180830381600087803b1580156126a057600080fd5b505af11580156109ac573d6000803e3d6000fd5b804710156127045760405162461bcd60e51b815260206004820152601d60248201527f416464726573733a20696e73756666696369656e742062616c616e63650000006044820152606401610677565b6000826001600160a01b03168260405160006040518083038185875af1925050503d8060008114612751576040519150601f19603f3d011682016040523d82523d6000602084013e612756565b606091505b5050905080611c8e5760405162461bcd60e51b815260206004820152603a60248201527f416464726573733a20756e61626c6520746f2073656e642076616c75652c207260448201527f6563697069656e74206d617920686176652072657665727465640000000000006064820152608401610677565b6000818152600183016020526040812054612814575081546001818101845560008481526020808220909301849055845484825282860190935260409020919091556118ef565b5060006118ef565b60008181526001830160205260408120548015612905576000612840600183613311565b855490915060009061285490600190613311565b90508181146128b957600086600001828154811061287457612874613447565b906000526020600020015490508087600001848154811061289757612897613447565b6000918252602080832090910192909255918252600188019052604090208390555b85548690806128ca576128ca61345d565b6001900381819060005260206000200160009055905585600101600086815260200190815260200160002060009055600193505050506118ef565b60009150506118ef565b6000807f00000000000000000000000000000000000000000000000000000000000000006001600160a01b03166315770f926040518163ffffffff1660e01b815260040160206040518083038186803b15801561296b57600080fd5b505afa15801561297f573d6000803e3d6000fd5b505050506040513d601f19601f820116820180604052508101906129a391906132e2565b9050600081116129b45760006123ea565b807f00000000000000000000000000000000000000000000000000000000000000006001600160a01b03166318160ddd6040518163ffffffff1660e01b815260040160206040518083038186803b158015612a0e57600080fd5b505afa158015612a22573d6000803e3d6000fd5b505050506040513d601f19601f82011682018060405250810190612a4691906132e2565b7f00000000000000000000000000000000000000000000000000000000000000006001600160a01b031663feb56b156040518163ffffffff1660e01b815260040160206040518083038186803b158015612a9f57600080fd5b505afa158015612ab3573d6000803e3d6000fd5b505050506040513d601f19601f82011682018060405250810190612ad791906132e2565b612ae19086613473565b612aeb9190613495565b6123ea9190613473565b6000612b4a826040518060400160405280602081526020017f5361666545524332303a206c6f772d6c6576656c2063616c6c206661696c6564815250856001600160a01b0316612f099092919063ffffffff16565b805190915015611c8e5780806020019051810190612b6891906134b4565b611c8e5760405162461bcd60e51b815260206004820152602a60248201527f5361666545524332303a204552433230206f7065726174696f6e20646964206e6044820152691bdd081cdd58d8d9595960b21b6064820152608401610677565b604051630441a3e760e41b81527f00000000000000000000000000000000000000000000000000000000000000006004820152600060248201527f00000000000000000000000000000000000000000000000000000000000000006001600160a01b03169063441a3e7090604401600060405180830381600087803b158015612c4f57600080fd5b505af1158015612c63573d6000803e3d6000fd5b50506040516370a0823160e01b8152600092506001600160a01b037f00000000000000000000000000000000000000000000000000000000000000001691506370a0823190612cb6903090600401613179565b60206040518083038186803b158015612cce57600080fd5b505afa158015612ce2573d6000803e3d6000fd5b505050506040513d601f19601f82011682018060405250810190612d0691906132e2565b90508015610af757610af77f00000000000000000000000000000000000000000000000000000000000000008383612f20565b606081600001805480602002602001604051908101604052809291908181526020018280548015612d8957602002820191906000526020600020905b815481526020019060010190808311612d75575b50505050509050919050565b6106ce6001600160a01b037f0000000000000000000000000000000000000000000000000000000000000000167f0000000000000000000000000000000000000000000000000000000000000000835b801580612e6e5750604051636eb1769f60e11b81523060048201526001600160a01b03838116602483015284169063dd62ed3e9060440160206040518083038186803b158015612e3457600080fd5b505afa158015612e48573d6000803e3d6000fd5b505050506040513d601f19601f82011682018060405250810190612e6c91906132e2565b155b612ed95760405162461bcd60e51b815260206004820152603660248201527f5361666545524332303a20617070726f76652066726f6d206e6f6e2d7a65726f60448201527520746f206e6f6e2d7a65726f20616c6c6f77616e636560501b6064820152608401610677565b6040516001600160a01b038316602482015260448101829052611c8e90849063095ea7b360e01b90606401611c57565b6060612f188484600085612fc2565b949350505050565b600254604051636ccb2b0160e01b81526001600160a01b0385811660048301528481166024830152604482018490526001606483015230608483015290911690636ccb2b019060a401602060405180830381600087803b158015612f8357600080fd5b505af1925050508015612fb3575060408051601f3d908101601f19168201909252612fb0918101906132e2565b60015b612fbc57505050565b50505050565b6060824710156130235760405162461bcd60e51b815260206004820152602660248201527f416464726573733a20696e73756666696369656e742062616c616e636520666f6044820152651c8818d85b1b60d21b6064820152608401610677565b843b6130715760405162461bcd60e51b815260206004820152601d60248201527f416464726573733a2063616c6c20746f206e6f6e2d636f6e74726163740000006044820152606401610677565b600080866001600160a01b0316858760405161308d91906134d6565b60006040518083038185875af1925050503d80600081146130ca576040519150601f19603f3d011682016040523d82523d6000602084013e6130cf565b606091505b50915091506130df8282866130ea565b979650505050505050565b606083156130f95750816123ea565b8251156131095782518084602001fd5b8160405162461bcd60e51b8152600401610677919061324b565b6001600160a01b03811681146106ce57600080fd5b60006020828403121561314a57600080fd5b81356123ea81613123565b60006020828403121561316757600080fd5b813561ffff811681146123ea57600080fd5b6001600160a01b0391909116815260200190565b60006020828403121561319f57600080fd5b5035919050565b6020808252825182820181905260009190848201906040850190845b818110156131e75783516001600160a01b0316835292840192918401916001016131c2565b50909695505050505050565b60005b8381101561320e5781810151838201526020016131f6565b83811115612fbc5750506000910152565b600081518084526132378160208601602086016131f3565b601f01601f19169290920160200192915050565b6020815260006118ec602083018461321f565b60006020828403121561327057600080fd5b81516123ea81613123565b6020808252601a908201527f63616c6c65722d69732d6e6f742d7468652d676f7665726e6f72000000000000604082015260600190565b60208082526016908201527531b0b63632b916b4b996b737ba16b096b5b2b2b832b960511b604082015260600190565b6000602082840312156132f457600080fd5b5051919050565b634e487b7160e01b600052601160045260246000fd5b600082821015613323576133236132fb565b500390565b6000821982111561333b5761333b6132fb565b500190565b61ffff8816815286602082015285604082015260018060a01b038516606082015283608082015260e060a0820152600061337d60e083018561321f565b82810360c084015283518152602084015160208201526040840151606060408301526133ac606083018261321f565b9b9a5050505050505050505050565b60208082526019908201527818d85b1b195c8b5a5ccb5b9bdd0b5d995cdc195c8b5c1bdbdb603a1b604082015260600190565b6000806040838503121561340157600080fd5b505080516020909101519092909150565b600181811c9082168061342657607f821691505b60208210811415610dd557634e487b7160e01b600052602260045260246000fd5b634e487b7160e01b600052603260045260246000fd5b634e487b7160e01b600052603160045260246000fd5b60008261349057634e487b7160e01b600052601260045260246000fd5b500490565b60008160001904831182151516156134af576134af6132fb565b500290565b6000602082840312156134c657600080fd5b815180151581146123ea57600080fd5b600082516134e88184602087016131f3565b919091019291505056fea2646970667358221220996aa62ba7aa192ded1ce6ae2a0d363d2f3a77a51a98f34703e33d36963919c164736f6c63430008090033",
  "devdoc": {
    "kind": "dev",
    "methods": {
      "addKeeper(address)": {
        "params": {
          "_keeperAddress": "keeper address to add."
        }
      },
      "approveToken()": {
        "details": "Approve all required tokens"
      },
      "migrate(address)": {
        "details": "_beforeMigration hook can be implemented in child strategy to do extra steps.",
        "params": {
          "_newStrategy": "Address of new strategy"
        }
      },
      "rebalance()": {
        "returns": {
          "_loss": "Realized loss, if any, in collateral.",
          "_payback": "If strategy has any excess debt, we have to liquidate asset to payback excess debt.",
          "_profit": "Realized profit in collateral."
        }
      },
      "removeKeeper(address)": {
        "params": {
          "_keeperAddress": "keeper address to remove."
        }
      },
      "sweepERC20(address)": {
        "params": {
          "_fromToken": "token address to sweep"
        }
      },
      "updateFeeCollector(address)": {
        "params": {
          "_feeCollector": "fee collector address"
        }
      },
      "updateSwapper(address)": {
        "params": {
          "_swapper": "swapper address"
        }
      },
      "withdraw(uint256)": {
        "params": {
          "_amount": "Amount of collateral token"
        }
      },
      "withdrawForRebalance(uint16)": {
        "details": "Stargate has different chainId than EVM chainId.",
        "params": {
          "_dstChainId": "Destination chainId."
        }
      }
    },
    "stateVariables": {
      "stargateRouter": {
        "details": "Router to add/remove liquidity from a STG Pool"
      }
    },
    "title": "This Strategy will deposit collateral token in a Stargate Pool Stake LP Token and accrue swap rewards",
    "version": 1
  },
  "userdoc": {
    "kind": "user",
    "methods": {
      "addKeeper(address)": {
        "notice": "Add given address in keepers list."
      },
      "collateral()": {
        "notice": "Returns address of token correspond to collateral token"
      },
      "isReservedToken(address)": {
        "notice": "Check whether given token is reserved or not. Reserved tokens are not allowed to sweep."
      },
      "keepers()": {
        "notice": "Return list of keepers"
      },
      "migrate(address)": {
        "notice": "Migrate all asset and vault ownership,if any, to new strategy"
      },
      "rebalance()": {
        "notice": "OnlyKeeper: Rebalance profit, loss and investment of this strategy.  Calculate profit, loss and payback of this strategy and realize profit/loss and  withdraw fund for payback, if any, and submit this report to pool."
      },
      "removeKeeper(address)": {
        "notice": "Remove given address from keepers list."
      },
      "rewardToken()": {
        "notice": "rewardToken, usually STG"
      },
      "stargateLpStaking()": {
        "notice": "Address of Staking contract (MasterChef V2 behavior)"
      },
      "stargateLpStakingPoolId()": {
        "notice": "Reward pool id of the MasterChef"
      },
      "stargatePoolId()": {
        "notice": "Stargate Factory LP Pool Id"
      },
      "sweepERC20(address)": {
        "notice": "sweep given token to feeCollector of strategy"
      },
      "token()": {
        "notice": "Returns address of token correspond to receipt token"
      },
      "tvl()": {
        "notice": "Returns total collateral locked in the strategy"
      },
      "updateFeeCollector(address)": {
        "notice": "Update fee collector"
      },
      "updateSwapper(address)": {
        "notice": "Update swapper"
      },
      "withdraw(uint256)": {
        "notice": "Withdraw collateral token from end protocol."
      },
      "withdrawForRebalance(uint16)": {
        "notice": "OnlyKeeper: This function will withdraw required collateral from given   destination chain to the chain where this contract is deployed."
      }
    },
    "version": 1
  },
  "storageLayout": {
    "storage": [
      {
        "astId": 13578,
        "contract": "vesper-strategies/contracts/strategies/stargate/Stargate.sol:Stargate",
        "label": "receiptToken",
        "offset": 0,
        "slot": "0",
        "type": "t_address"
      },
      {
        "astId": 13584,
        "contract": "vesper-strategies/contracts/strategies/stargate/Stargate.sol:Stargate",
        "label": "feeCollector",
        "offset": 0,
        "slot": "1",
        "type": "t_address"
      },
      {
        "astId": 13587,
        "contract": "vesper-strategies/contracts/strategies/stargate/Stargate.sol:Stargate",
        "label": "swapper",
        "offset": 0,
        "slot": "2",
        "type": "t_contract(IRoutedSwapper)12439"
      },
      {
        "astId": 13600,
        "contract": "vesper-strategies/contracts/strategies/stargate/Stargate.sol:Stargate",
        "label": "_keepers",
        "offset": 0,
        "slot": "3",
        "type": "t_struct(AddressSet)3014_storage"
      },
      {
        "astId": 24275,
        "contract": "vesper-strategies/contracts/strategies/stargate/Stargate.sol:Stargate",
        "label": "NAME",
        "offset": 0,
        "slot": "5",
        "type": "t_string_storage"
      }
    ],
    "types": {
      "t_address": {
        "encoding": "inplace",
        "label": "address",
        "numberOfBytes": "20"
      },
      "t_array(t_bytes32)dyn_storage": {
        "base": "t_bytes32",
        "encoding": "dynamic_array",
        "label": "bytes32[]",
        "numberOfBytes": "32"
      },
      "t_bytes32": {
        "encoding": "inplace",
        "label": "bytes32",
        "numberOfBytes": "32"
      },
      "t_contract(IRoutedSwapper)12439": {
        "encoding": "inplace",
        "label": "contract IRoutedSwapper",
        "numberOfBytes": "20"
      },
      "t_mapping(t_bytes32,t_uint256)": {
        "encoding": "mapping",
        "key": "t_bytes32",
        "label": "mapping(bytes32 => uint256)",
        "numberOfBytes": "32",
        "value": "t_uint256"
      },
      "t_string_storage": {
        "encoding": "bytes",
        "label": "string",
        "numberOfBytes": "32"
      },
      "t_struct(AddressSet)3014_storage": {
        "encoding": "inplace",
        "label": "struct EnumerableSet.AddressSet",
        "members": [
          {
            "astId": 3013,
            "contract": "vesper-strategies/contracts/strategies/stargate/Stargate.sol:Stargate",
            "label": "_inner",
            "offset": 0,
            "slot": "0",
            "type": "t_struct(Set)2713_storage"
          }
        ],
        "numberOfBytes": "64"
      },
      "t_struct(Set)2713_storage": {
        "encoding": "inplace",
        "label": "struct EnumerableSet.Set",
        "members": [
          {
            "astId": 2708,
            "contract": "vesper-strategies/contracts/strategies/stargate/Stargate.sol:Stargate",
            "label": "_values",
            "offset": 0,
            "slot": "0",
            "type": "t_array(t_bytes32)dyn_storage"
          },
          {
            "astId": 2712,
            "contract": "vesper-strategies/contracts/strategies/stargate/Stargate.sol:Stargate",
            "label": "_indexes",
            "offset": 0,
            "slot": "1",
            "type": "t_mapping(t_bytes32,t_uint256)"
          }
        ],
        "numberOfBytes": "64"
      },
      "t_uint256": {
        "encoding": "inplace",
        "label": "uint256",
        "numberOfBytes": "32"
      }
    }
  }
}