{
  "address": "0x624B944AFAfa1456407DE3bA3fB713Dee0E619C5",
  "abi": [
    {
      "inputs": [
        {
          "internalType": "address",
          "name": "pool_",
          "type": "address"
        },
        {
          "internalType": "address",
          "name": "crvPool_",
          "type": "address"
        },
        {
          "internalType": "enum CurveBase.PoolType",
          "name": "curvePoolType_",
          "type": "uint8"
        },
        {
          "internalType": "address",
          "name": "depositZap_",
          "type": "address"
        },
        {
          "internalType": "address",
          "name": "crvToken_",
          "type": "address"
        },
        {
          "internalType": "uint256",
          "name": "crvSlippage_",
          "type": "uint256"
        },
        {
          "internalType": "address",
          "name": "masterOracle_",
          "type": "address"
        },
        {
          "internalType": "address",
          "name": "swapper_",
          "type": "address"
        },
        {
          "internalType": "uint256",
          "name": "collateralIdx_",
          "type": "uint256"
        },
        {
          "internalType": "string",
          "name": "name_",
          "type": "string"
        }
      ],
      "stateMutability": "nonpayable",
      "type": "constructor"
    },
    {
      "anonymous": false,
      "inputs": [
        {
          "indexed": false,
          "internalType": "uint256",
          "name": "oldCrvSlippage",
          "type": "uint256"
        },
        {
          "indexed": false,
          "internalType": "uint256",
          "name": "newCrvSlippage",
          "type": "uint256"
        }
      ],
      "name": "CrvSlippageUpdated",
      "type": "event"
    },
    {
      "anonymous": false,
      "inputs": [
        {
          "indexed": false,
          "internalType": "contract IMasterOracle",
          "name": "oldMasterOracle",
          "type": "address"
        },
        {
          "indexed": false,
          "internalType": "contract IMasterOracle",
          "name": "newMasterOracle",
          "type": "address"
        }
      ],
      "name": "MasterOracleUpdated",
      "type": "event"
    },
    {
      "anonymous": false,
      "inputs": [
        {
          "indexed": true,
          "internalType": "address",
          "name": "previousFeeCollector",
          "type": "address"
        },
        {
          "indexed": true,
          "internalType": "address",
          "name": "newFeeCollector",
          "type": "address"
        }
      ],
      "name": "UpdatedFeeCollector",
      "type": "event"
    },
    {
      "anonymous": false,
      "inputs": [
        {
          "indexed": true,
          "internalType": "contract IRoutedSwapper",
          "name": "oldSwapper",
          "type": "address"
        },
        {
          "indexed": true,
          "internalType": "contract IRoutedSwapper",
          "name": "newSwapper",
          "type": "address"
        }
      ],
      "name": "UpdatedSwapper",
      "type": "event"
    },
    {
      "inputs": [],
      "name": "ADDRESS_PROVIDER",
      "outputs": [
        {
          "internalType": "contract IAddressProvider",
          "name": "",
          "type": "address"
        }
      ],
      "stateMutability": "view",
      "type": "function"
    },
    {
      "inputs": [],
      "name": "CRV",
      "outputs": [
        {
          "internalType": "address",
          "name": "",
          "type": "address"
        }
      ],
      "stateMutability": "view",
      "type": "function"
    },
    {
      "inputs": [],
      "name": "CRV_MINTER",
      "outputs": [
        {
          "internalType": "contract ITokenMinter",
          "name": "",
          "type": "address"
        }
      ],
      "stateMutability": "view",
      "type": "function"
    },
    {
      "inputs": [],
      "name": "GAUGE_FACTORY",
      "outputs": [
        {
          "internalType": "contract ILiquidityGaugeFactory",
          "name": "",
          "type": "address"
        }
      ],
      "stateMutability": "view",
      "type": "function"
    },
    {
      "inputs": [],
      "name": "NAME",
      "outputs": [
        {
          "internalType": "string",
          "name": "",
          "type": "string"
        }
      ],
      "stateMutability": "view",
      "type": "function"
    },
    {
      "inputs": [],
      "name": "VERSION",
      "outputs": [
        {
          "internalType": "string",
          "name": "",
          "type": "string"
        }
      ],
      "stateMutability": "view",
      "type": "function"
    },
    {
      "inputs": [
        {
          "internalType": "address",
          "name": "_keeperAddress",
          "type": "address"
        }
      ],
      "name": "addKeeper",
      "outputs": [],
      "stateMutability": "nonpayable",
      "type": "function"
    },
    {
      "inputs": [
        {
          "internalType": "uint256",
          "name": "_approvalAmount",
          "type": "uint256"
        }
      ],
      "name": "approveToken",
      "outputs": [],
      "stateMutability": "nonpayable",
      "type": "function"
    },
    {
      "inputs": [
        {
          "internalType": "uint256",
          "name": "_minAmountOut",
          "type": "uint256"
        }
      ],
      "name": "claimAndSwapRewards",
      "outputs": [
        {
          "internalType": "uint256",
          "name": "_amountOut",
          "type": "uint256"
        }
      ],
      "stateMutability": "nonpayable",
      "type": "function"
    },
    {
      "inputs": [],
      "name": "collateral",
      "outputs": [
        {
          "internalType": "address",
          "name": "",
          "type": "address"
        }
      ],
      "stateMutability": "view",
      "type": "function"
    },
    {
      "inputs": [],
      "name": "collateralIdx",
      "outputs": [
        {
          "internalType": "uint256",
          "name": "",
          "type": "uint256"
        }
      ],
      "stateMutability": "view",
      "type": "function"
    },
    {
      "inputs": [],
      "name": "collateralToken",
      "outputs": [
        {
          "internalType": "contract IERC20",
          "name": "",
          "type": "address"
        }
      ],
      "stateMutability": "view",
      "type": "function"
    },
    {
      "inputs": [],
      "name": "crvGauge",
      "outputs": [
        {
          "internalType": "contract ILiquidityGaugeV2",
          "name": "",
          "type": "address"
        }
      ],
      "stateMutability": "view",
      "type": "function"
    },
    {
      "inputs": [],
      "name": "crvLp",
      "outputs": [
        {
          "internalType": "contract IERC20",
          "name": "",
          "type": "address"
        }
      ],
      "stateMutability": "view",
      "type": "function"
    },
    {
      "inputs": [],
      "name": "crvPool",
      "outputs": [
        {
          "internalType": "address",
          "name": "",
          "type": "address"
        }
      ],
      "stateMutability": "view",
      "type": "function"
    },
    {
      "inputs": [],
      "name": "crvSlippage",
      "outputs": [
        {
          "internalType": "uint256",
          "name": "",
          "type": "uint256"
        }
      ],
      "stateMutability": "view",
      "type": "function"
    },
    {
      "inputs": [],
      "name": "curvePoolType",
      "outputs": [
        {
          "internalType": "enum CurveBase.PoolType",
          "name": "",
          "type": "uint8"
        }
      ],
      "stateMutability": "view",
      "type": "function"
    },
    {
      "inputs": [],
      "name": "feeCollector",
      "outputs": [
        {
          "internalType": "address",
          "name": "",
          "type": "address"
        }
      ],
      "stateMutability": "view",
      "type": "function"
    },
    {
      "inputs": [],
      "name": "getRewardTokens",
      "outputs": [
        {
          "internalType": "address[]",
          "name": "",
          "type": "address[]"
        }
      ],
      "stateMutability": "view",
      "type": "function"
    },
    {
      "inputs": [
        {
          "internalType": "address",
          "name": "token_",
          "type": "address"
        }
      ],
      "name": "isReservedToken",
      "outputs": [
        {
          "internalType": "bool",
          "name": "",
          "type": "bool"
        }
      ],
      "stateMutability": "view",
      "type": "function"
    },
    {
      "inputs": [],
      "name": "keepers",
      "outputs": [
        {
          "internalType": "address[]",
          "name": "",
          "type": "address[]"
        }
      ],
      "stateMutability": "view",
      "type": "function"
    },
    {
      "inputs": [],
      "name": "lpBalanceHere",
      "outputs": [
        {
          "internalType": "uint256",
          "name": "_lpHere",
          "type": "uint256"
        }
      ],
      "stateMutability": "view",
      "type": "function"
    },
    {
      "inputs": [],
      "name": "lpBalanceHereAndStaked",
      "outputs": [
        {
          "internalType": "uint256",
          "name": "_lpHereAndStaked",
          "type": "uint256"
        }
      ],
      "stateMutability": "view",
      "type": "function"
    },
    {
      "inputs": [],
      "name": "lpBalanceStaked",
      "outputs": [
        {
          "internalType": "uint256",
          "name": "_lpStaked",
          "type": "uint256"
        }
      ],
      "stateMutability": "view",
      "type": "function"
    },
    {
      "inputs": [],
      "name": "masterOracle",
      "outputs": [
        {
          "internalType": "contract IMasterOracle",
          "name": "",
          "type": "address"
        }
      ],
      "stateMutability": "view",
      "type": "function"
    },
    {
      "inputs": [
        {
          "internalType": "address",
          "name": "_newStrategy",
          "type": "address"
        }
      ],
      "name": "migrate",
      "outputs": [],
      "stateMutability": "nonpayable",
      "type": "function"
    },
    {
      "inputs": [],
      "name": "pool",
      "outputs": [
        {
          "internalType": "address",
          "name": "",
          "type": "address"
        }
      ],
      "stateMutability": "view",
      "type": "function"
    },
    {
      "inputs": [],
      "name": "rebalance",
      "outputs": [
        {
          "internalType": "uint256",
          "name": "_profit",
          "type": "uint256"
        },
        {
          "internalType": "uint256",
          "name": "_loss",
          "type": "uint256"
        },
        {
          "internalType": "uint256",
          "name": "_payback",
          "type": "uint256"
        }
      ],
      "stateMutability": "nonpayable",
      "type": "function"
    },
    {
      "inputs": [],
      "name": "receiptToken",
      "outputs": [
        {
          "internalType": "address",
          "name": "",
          "type": "address"
        }
      ],
      "stateMutability": "view",
      "type": "function"
    },
    {
      "inputs": [],
      "name": "refetchRewardTokens",
      "outputs": [],
      "stateMutability": "nonpayable",
      "type": "function"
    },
    {
      "inputs": [
        {
          "internalType": "address",
          "name": "_keeperAddress",
          "type": "address"
        }
      ],
      "name": "removeKeeper",
      "outputs": [],
      "stateMutability": "nonpayable",
      "type": "function"
    },
    {
      "inputs": [
        {
          "internalType": "uint256",
          "name": "",
          "type": "uint256"
        }
      ],
      "name": "rewardTokens",
      "outputs": [
        {
          "internalType": "address",
          "name": "",
          "type": "address"
        }
      ],
      "stateMutability": "view",
      "type": "function"
    },
    {
      "inputs": [
        {
          "internalType": "contract IERC20",
          "name": "_tokenIn",
          "type": "address"
        },
        {
          "internalType": "uint256",
          "name": "_minAmountOut",
          "type": "uint256"
        }
      ],
      "name": "swapToCollateral",
      "outputs": [
        {
          "internalType": "uint256",
          "name": "_amountOut",
          "type": "uint256"
        }
      ],
      "stateMutability": "nonpayable",
      "type": "function"
    },
    {
      "inputs": [],
      "name": "swapper",
      "outputs": [
        {
          "internalType": "contract IRoutedSwapper",
          "name": "",
          "type": "address"
        }
      ],
      "stateMutability": "view",
      "type": "function"
    },
    {
      "inputs": [
        {
          "internalType": "address",
          "name": "_fromToken",
          "type": "address"
        }
      ],
      "name": "sweep",
      "outputs": [],
      "stateMutability": "nonpayable",
      "type": "function"
    },
    {
      "inputs": [],
      "name": "token",
      "outputs": [
        {
          "internalType": "address",
          "name": "",
          "type": "address"
        }
      ],
      "stateMutability": "view",
      "type": "function"
    },
    {
      "inputs": [],
      "name": "tvl",
      "outputs": [
        {
          "internalType": "uint256",
          "name": "",
          "type": "uint256"
        }
      ],
      "stateMutability": "view",
      "type": "function"
    },
    {
      "inputs": [
        {
          "internalType": "uint256",
          "name": "newCrvSlippage_",
          "type": "uint256"
        }
      ],
      "name": "updateCrvSlippage",
      "outputs": [],
      "stateMutability": "nonpayable",
      "type": "function"
    },
    {
      "inputs": [
        {
          "internalType": "address",
          "name": "_feeCollector",
          "type": "address"
        }
      ],
      "name": "updateFeeCollector",
      "outputs": [],
      "stateMutability": "nonpayable",
      "type": "function"
    },
    {
      "inputs": [
        {
          "internalType": "contract IMasterOracle",
          "name": "newMasterOracle_",
          "type": "address"
        }
      ],
      "name": "updateMasterOracle",
      "outputs": [],
      "stateMutability": "nonpayable",
      "type": "function"
    },
    {
      "inputs": [
        {
          "internalType": "contract IRoutedSwapper",
          "name": "_swapper",
          "type": "address"
        }
      ],
      "name": "updateSwapper",
      "outputs": [],
      "stateMutability": "nonpayable",
      "type": "function"
    },
    {
      "inputs": [
        {
          "internalType": "uint256",
          "name": "_amount",
          "type": "uint256"
        }
      ],
      "name": "withdraw",
      "outputs": [],
      "stateMutability": "nonpayable",
      "type": "function"
    }
  ],
  "transactionHash": "0x5140fea69a62e0b64d77f886ced8e96bcd3b898c3d864c526374e107aae3d96a",
  "args": [
    "0x539505Dde2B9771dEBE0898a84441c5E7fDF6BC0",
    "0x29a3d66b30bc4ad674a4fdaf27578b64f6afbfe7",
    0,
    "0x0000000000000000000000000000000000000000",
    "0x0994206dfE8De6Ec6920FF4D779B0d950605Fb53",
    250,
    "0x0aac835162D368F246dc71628AfcD6d2930c47d3",
    "0x017CBF62b53313d5eE3aD1288daA95CD39AA11fE",
    1,
    "Curve_FRAXBP_USDC"
  ],
  "numDeployments": 1,
  "solcInputHash": "3f8b58d6fa2751bfd58a5d56c5d335b8",
  "bytecode": "0x6101c06040523480156200001257600080fd5b506040516200705d3803806200705d83398101604081905262000035916200132d565b89898989898989898989898360006001600160a01b0383166200009f5760405162461bcd60e51b815260206004820152601460248201527f706f6f6c2d616464726573732d69732d7a65726f00000000000000000000000060448201526064015b60405180910390fd5b6001600160a01b038216620000f75760405162461bcd60e51b815260206004820152601760248201527f737761707065722d616464726573732d69732d7a65726f000000000000000000604482015260640162000096565b600280546001600160a01b0319166001600160a01b0384811691909117909155831660a081905260408051637e062a3560e11b8152905163fc0c546a91600480820192602092909190829003018186803b1580156200015557600080fd5b505afa1580156200016a573d6000803e3d6000fd5b505050506040513d601f19601f8201168201806040525081019062000190919062001411565b6001600160a01b03908116608052600080546001600160a01b031916918316919091179055620001d7620001c13390565b600362000c3360201b620022f81790919060201c565b620002195760405162461bcd60e51b81526020600482015260116024820152701859190b5ad9595c195c8b59985a5b1959607a1b604482015260640162000096565b5050506001600160a01b038616620002685760405162461bcd60e51b815260206004820152601160248201527018dc9d8b5d1bdad95b8b5a5ccb5b9d5b1b607a1b604482015260640162000096565b6000806f22d53366457f9d5e68ec105046fc43836001600160a01b031663a262904b6040518163ffffffff1660e01b815260040160206040518083038186803b158015620002b557600080fd5b505afa158015620002ca573d6000803e3d6000fd5b505050506040513d601f19601f82011682018060405250810190620002f0919062001411565b604051633795104960e01b81526001600160a01b038d8116600483015291925060009183169063379510499060240160206040518083038186803b1580156200033857600080fd5b505afa1580156200034d573d6000803e3d6000fd5b505050506040513d601f19601f8201168201806040525081019062000373919062001411565b90506001600160a01b03811615620005745760405163940494f160e01b81526001600160a01b038d8116600483015283169063940494f190602401604080518083038186803b158015620003c657600080fd5b505afa158015620003db573d6000803e3d6000fd5b505050506040513d601f19601f8201168201806040525081019062000401919062001438565b6020015185106200044a5760405162461bcd60e51b81526020600482015260126024820152711a5b9d985b1a590b58dbdb1b185d195c985b60721b604482015260640162000096565b60405163a77576ef60e01b81526001600160a01b038d81166004830152620004ed919084169063a77576ef906024016101006040518083038186803b1580156200049357600080fd5b505afa158015620004a8573d6000803e3d6000fd5b505050506040513d601f19601f82011682018060405250810190620004ce9190620014d5565b8660088110620004e257620004e2620014bf565b602002015162000c53565b6040516356059ffb60e01b81526001600160a01b038d811660048301528316906356059ffb906024016101406040518083038186803b1580156200053057600080fd5b505afa15801562000545573d6000803e3d6000fd5b505050506040513d601f19601f820116820180604052508101906200056b919062001566565b519250620009c1565b60405163124fd3dd60e21b8152600360048201526000906f22d53366457f9d5e68ec105046fc43839063493f4f749060240160206040518083038186803b158015620005bf57600080fd5b505afa158015620005d4573d6000803e3d6000fd5b505050506040513d601f19601f82011682018060405250810190620005fa919062001411565b60405163e4d332a960e01b81526001600160a01b038f811660048301529192509082169063e4d332a99060240160206040518083038186803b1580156200064057600080fd5b505afa15801562000655573d6000803e3d6000fd5b505050506040513d601f19601f820116820180604052508101906200067b9190620015ec565b15620007e45760405163eb73f37d60e01b81526001600160a01b038e8116600483015282169063eb73f37d90602401604080518083038186803b158015620006c257600080fd5b505afa158015620006d7573d6000803e3d6000fd5b505050506040513d601f19601f82011682018060405250810190620006fd919062001438565b602001518610620007465760405162461bcd60e51b81526020600482015260126024820152711a5b9d985b1a590b58dbdb1b185d195c985b60721b604482015260640162000096565b60405163a77576ef60e01b81526001600160a01b038e81166004830152620007de919083169063a77576ef906024016101006040518083038186803b1580156200078f57600080fd5b505afa158015620007a4573d6000803e3d6000fd5b505050506040513d601f19601f82011682018060405250810190620007ca9190620014d5565b8760088110620004e257620004e2620014bf565b6200093d565b60405163940494f160e01b81526001600160a01b038e8116600483015282169063940494f19060240160206040518083038186803b1580156200082657600080fd5b505afa1580156200083b573d6000803e3d6000fd5b505050506040513d601f19601f8201168201806040525081019062000861919062001610565b8610620008a65760405162461bcd60e51b81526020600482015260126024820152711a5b9d985b1a590b58dbdb1b185d195c985b60721b604482015260640162000096565b604051639ac90d3d60e01b81526001600160a01b038e811660048301526200093d9190831690639ac90d3d9060240160806040518083038186803b158015620008ee57600080fd5b505afa15801562000903573d6000803e3d6000fd5b505050506040513d601f19601f820116820180604052508101906200092991906200162a565b8760048110620004e257620004e2620014bf565b60405163daf297b960e01b81526001600160a01b03808f1660048301528e935082169063daf297b99060240160206040518083038186803b1580156200098257600080fd5b505afa15801562000997573d6000803e3d6000fd5b505050506040513d601f19601f82011682018060405250810190620009bd919062001411565b9350505b6001600160a01b038c1662000a085760405162461bcd60e51b815260206004820152600c60248201526b1c1bdbdb0b5a5ccb5b9d5b1b60a21b604482015260640162000096565b6001600160a01b03811662000a4d5760405162461bcd60e51b815260206004820152600a6024820152691b1c0b5a5ccb5b9d5b1b60b21b604482015260640162000096565b6001600160a01b03831662000aee57604051632ecae32f60e11b81526001600160a01b038216600482015273abc000d88f23bb45525e447528dbf656a9d55bf590635d95c65e9060240160206040518083038186803b15801562000ab057600080fd5b505afa15801562000ac5573d6000803e3d6000fd5b505050506040513d601f19601f8201168201806040525081019062000aeb919062001411565b92505b6001600160a01b03831662000b365760405162461bcd60e51b815260206004820152600d60248201526c19d85d59d94b5a5ccb5b9d5b1b609a1b604482015260640162000096565b6001600160a01b03808a1660c0528c81166101005281811660e0819052908416610120526006899055600080546001600160a01b03191690911790556101408590528a600781111562000b8d5762000b8d620016af565b61018081600781111562000ba55762000ba5620016af565b9052506001600160a01b038c8116828216146101a0528a811661016052600780546001600160a01b031916918916919091179055835162000bee9060059060208701906200112d565b505050505050505050505050505062000c0c62000cbb60201b60201c565b805162000c2291600891602090910190620011b8565b505050505050505050505062001751565b600062000c4a836001600160a01b038416620010db565b90505b92915050565b6080516001600160a01b0316816001600160a01b03161462000cb85760405162461bcd60e51b815260206004820152601360248201527f636f6c6c61746572616c2d6d69736d6174636800000000000000000000000000604482015260640162000096565b50565b6040805160018082528183019092526060916020808301908036833701905050905060c0518160008151811062000cf65762000cf6620014bf565b6001600160a01b039283166020918202929092010152610120511662000d195790565b610120516001600160a01b03166316fa50b16040518163ffffffff1660e01b815260040160206040518083038186803b15801562000d5657600080fd5b505afa92505050801562000d89575060408051601f3d908101601f1916820190925262000d869181019062001411565b60015b62000d945762000e38565b60025b60405190808252806020026020018201604052801562000dc1578160200160208202803683370190505b50915060c0518260008151811062000ddd5762000ddd620014bf565b60200260200101906001600160a01b031690816001600160a01b031681525050808260018151811062000e145762000e14620014bf565b60200260200101906001600160a01b031690816001600160a01b0316815250505090565b610120516040516354c49fe960e01b8152600060048201526001600160a01b03909116906354c49fe99060240160206040518083038186803b15801562000e7e57600080fd5b505afa92505050801562000eb1575060408051601f3d908101601f1916820190925262000eae9181019062001411565b60015b62000eb95790565b6001600160a01b03811662000ecc575090565b610120516001600160a01b031663963c94b96040518163ffffffff1660e01b815260040160206040518083038186803b15801562000f0957600080fd5b505afa92505050801562000f3c575060408051601f3d908101601f1916820190925262000f399181019062001610565b60015b62000f4957600262000d97565b62000f56816001620016db565b6001600160401b0381111562000f705762000f706200124f565b60405190808252806020026020018201604052801562000f9a578160200160208202803683370190505b509250818360008151811062000fb45762000fb4620014bf565b6001600160a01b039092166020928302919091019091015260015b818110156200109957610120516040516354c49fe960e01b8152600481018390526001600160a01b03909116906354c49fe99060240160206040518083038186803b1580156200101e57600080fd5b505afa15801562001033573d6000803e3d6000fd5b505050506040513d601f19601f8201168201806040525081019062001059919062001411565b8482815181106200106e576200106e620014bf565b6001600160a01b03909216602092830291909101909101526200109181620016f6565b905062000fcf565b5060c051838281518110620010b257620010b2620014bf565b60200260200101906001600160a01b031690816001600160a01b031681525050505090565b5090565b6000818152600183016020526040812054620011245750815460018181018455600084815260208082209093018490558454848252828601909352604090209190915562000c4d565b50600062000c4d565b8280546200113b9062001714565b90600052602060002090601f0160209004810192826200115f5760008555620011aa565b82601f106200117a57805160ff1916838001178555620011aa565b82800160010185558215620011aa579182015b82811115620011aa5782518255916020019190600101906200118d565b50620010d792915062001210565b828054828255906000526020600020908101928215620011aa579160200282015b82811115620011aa57825182546001600160a01b0319166001600160a01b03909116178255602090920191600190910190620011d9565b5b80821115620010d7576000815560010162001211565b6001600160a01b038116811462000cb857600080fd5b80516200124a8162001227565b919050565b634e487b7160e01b600052604160045260246000fd5b604051601f8201601f191681016001600160401b03811182821017156200129057620012906200124f565b604052919050565b600082601f830112620012aa57600080fd5b81516001600160401b03811115620012c657620012c66200124f565b6020620012dc601f8301601f1916820162001265565b8281528582848701011115620012f157600080fd5b60005b8381101562001311578581018301518282018401528201620012f4565b83811115620013235760008385840101525b5095945050505050565b6000806000806000806000806000806101408b8d0312156200134e57600080fd5b8a516200135b8162001227565b60208c0151909a506200136e8162001227565b60408c0151909950600881106200138457600080fd5b97506200139460608c016200123d565b9650620013a460808c016200123d565b955060a08b01519450620013bb60c08c016200123d565b9350620013cb60e08c016200123d565b6101008c01516101208d015191945092506001600160401b03811115620013f157600080fd5b620013ff8d828e0162001298565b9150509295989b9194979a5092959850565b6000602082840312156200142457600080fd5b8151620014318162001227565b9392505050565b6000604082840312156200144b57600080fd5b82601f8301126200145b57600080fd5b604080519081016001600160401b03811182821017156200148057620014806200124f565b80604052508060408401858111156200149857600080fd5b845b81811015620014b45780518352602092830192016200149a565b509195945050505050565b634e487b7160e01b600052603260045260246000fd5b6000610100808385031215620014ea57600080fd5b83601f840112620014fa57600080fd5b6040518181016001600160401b03811182821017156200151e576200151e6200124f565b6040529083019080858311156200153457600080fd5b845b838110156200155b5780516200154c8162001227565b82526020918201910162001536565b509095945050505050565b60006101408083850312156200157b57600080fd5b83601f8401126200158b57600080fd5b6040518181016001600160401b0381118282101715620015af57620015af6200124f565b604052908301908085831115620015c557600080fd5b845b838110156200155b578051620015dd8162001227565b825260209182019101620015c7565b600060208284031215620015ff57600080fd5b815180151581146200143157600080fd5b6000602082840312156200162357600080fd5b5051919050565b6000608082840312156200163d57600080fd5b82601f8301126200164d57600080fd5b604051608081016001600160401b03811182821017156200167257620016726200124f565b6040528060808401858111156200168857600080fd5b845b81811015620014b4578051620016a08162001227565b8352602092830192016200168a565b634e487b7160e01b600052602160045260246000fd5b634e487b7160e01b600052601160045260246000fd5b60008219821115620016f157620016f1620016c5565b500190565b60006000198214156200170d576200170d620016c5565b5060010190565b600181811c908216806200172957607f821691505b602082108114156200174b57634e487b7160e01b600052602260045260246000fd5b50919050565b60805160a05160c05160e05161010051610120516101405161016051610180516101a05161554f62001b0e6000396000818161315601528181613d3a0152614a630152600081816102b0015281816130e10152818161311c0152818161322a0152818161326501528181613b6d01528181613ba801528181613bee01528181613c3301528181613c7801528181613cbd01528181613d020152818161488d015281816148d2015281816149170152818161495c015281816149a1015281816149e60152614a2b0152600081816127fb01528181612857015281816128ab0152818161319c015281816132ec01528181614552015281816145e001528181614e1601528181614eb20152614f700152600081816103e601528181611e63015281816125f901528181613f5601528181614b2a01528181614bfe01528181614c9d01528181614d3901528181614dd801528181614e740152614f3201526000818161064701528181611697015281816127d40152818161293e0152818161296701528181612ac801528181612b5d01528181612c8b015281816136d001528181613762015281816138120152818161388b01528181613ab0015281816142ef01526146d201526000818161053b015281816126f90152818161333b0152818161445c015281816144f401528181614b6801528181614c3c01528181614cdb01528181614d7701528181614ee70152614fa50152600081816104890152818161117b0152818161132301528181611dc4015281816127b20152818161288901528181612f49015281816132b301528181613b21015281816145a00152818161463201526148620152600081816104b0015281816128f401528181612a280152612d4a015260008181610321015281816108e601528181610c3d01528181610d7401528181610ebb01528181610f9001528181611043015281816111f2015281816114d7015281816116d10152818161179e015281816119c901528181611bb801528181612ddd01528181613deb01528181613e360152613ed3015260008181610514015281816105c40152818161073e01528181610abd01528181610b6001528181610e0101528181610e9901528181610f0701528181610fc3015281816111b60152818161194d01528181611ea101528181611f2a0152818161200f015281816121dd0152818161221b015281816125a5015281816126d70152818161272b0152818161283501528181612e5801528181613b4201528181613dc901528181613fcd0152818161410c015281816141eb0152614841015261554f6000f3fe608060405234801561001057600080fd5b506004361061027e5760003560e01c8063951dc22c11610156578063d3033c39116100d3578063eaada38211610097578063fc0c546a11610071578063fc0c546a14610631578063fd57a4df14610642578063ffa1ad741461066957600080fd5b8063eaada382146105f8578063ec78e8321461060b578063ee330ee31461061e57600080fd5b8063d3033c39146105a6578063d572fd7f146105b9578063d8dfeb45146105c2578063de603fdc146105e8578063e5328e06146105f057600080fd5b8063c415b95c1161011a578063c415b95c1461055d578063c4f59f9b14610570578063c965fa8a14610578578063ce5494bb14610580578063d2c35ce81461059357600080fd5b8063951dc22c146104d2578063a3f4df7e146104e7578063abc9b45e146104fc578063b2016bd41461050f578063b20fdc0d1461053657600080fd5b80634032b72b116101ff5780637752e194116101c35780637d7c2a1c1161019d5780637d7c2a1c146104615780637f44579b14610484578063945c9142146104ab57600080fd5b80637752e1941461043e578063795dae66146104465780637bb7bed11461044e57600080fd5b80634032b72b146103ab578063440d7248146103be57806348cd2ddd146103e15780634a2b9e071461040857806374db9ad41461042357600080fd5b806316f0115b1161024657806316f0115b1461031c5780631848effa1461035b5780632b3297f9146103725780632e1a7d4d146103855780633ac9fc111461039857600080fd5b806301681a621461028357806304f4efc51461029857806306beb80a146102ab5780631026013a146102e857806314ae9f2e14610309575b600080fd5b6102966102913660046150c9565b61068d565b005b6102966102a63660046150e6565b6108e4565b6102d27f000000000000000000000000000000000000000000000000000000000000000081565b6040516102df9190615115565b60405180910390f35b6102fb6102f63660046150e6565b610a55565b6040519081526020016102df565b6102966103173660046150c9565b610c3b565b6103437f000000000000000000000000000000000000000000000000000000000000000081565b6040516001600160a01b0390911681526020016102df565b6103436f22d53366457f9d5e68ec105046fc438381565b600254610343906001600160a01b031681565b6102966103933660046150e6565b610d71565b6102966103a63660046150e6565b610fea565b6102966103b93660046150c9565b611041565b6103d16103cc3660046150c9565b611177565b60405190151581526020016102df565b6102fb7f000000000000000000000000000000000000000000000000000000000000000081565b61034373abc000d88f23bb45525e447528dbf656a9d55bf581565b61034373d061d61a4d941c39e5453435b6345dc261c2fce081565b6102966111f0565b6102fb61130b565b61034361045c3660046150e6565b6113ab565b6104696113d5565b604080519384526020840192909252908201526060016102df565b6103437f000000000000000000000000000000000000000000000000000000000000000081565b6103437f000000000000000000000000000000000000000000000000000000000000000081565b6104da61143b565b6040516102df919061513d565b6104ef611447565b6040516102df91906151b6565b61029661050a3660046150c9565b6114d5565b6103437f000000000000000000000000000000000000000000000000000000000000000081565b6103437f000000000000000000000000000000000000000000000000000000000000000081565b600154610343906001600160a01b031681565b6104da61161d565b6102fb61167f565b61029661058e3660046150c9565b6116ce565b6102966105a13660046150c9565b6119c7565b6102966105b43660046150c9565b611bb6565b6102fb60065481565b7f0000000000000000000000000000000000000000000000000000000000000000610343565b6102fb611da5565b6102fb611e51565b600754610343906001600160a01b031681565b600054610343906001600160a01b031681565b6102fb61062c3660046151e9565b611ed8565b6000546001600160a01b0316610343565b6103437f000000000000000000000000000000000000000000000000000000000000000081565b6104ef604051806040016040528060058152602001640352e312e360dc1b81525081565b61069a335b600390612314565b6106e45760405162461bcd60e51b815260206004820152601660248201527531b0b63632b916b4b996b737ba16b096b5b2b2b832b960511b60448201526064015b60405180910390fd5b6001546001600160a01b031661073c5760405162461bcd60e51b815260206004820152601560248201527f6665652d636f6c6c6563746f722d6e6f742d736574000000000000000000000060448201526064016106db565b7f00000000000000000000000000000000000000000000000000000000000000006001600160a01b0316816001600160a01b031614156107be5760405162461bcd60e51b815260206004820152601f60248201527f6e6f742d616c6c6f7765642d746f2d73776565702d636f6c6c61746572616c0060448201526064016106db565b6107c781611177565b1561080b5760405162461bcd60e51b815260206004820152601460248201527306e6f742d616c6c6f7765642d746f2d73776565760641b60448201526064016106db565b6001600160a01b03811673eeeeeeeeeeeeeeeeeeeeeeeeeeeeeeeeeeeeeeee141561084957600154610846906001600160a01b031647612336565b50565b6040516370a0823160e01b81523060048201526000906001600160a01b038316906370a082319060240160206040518083038186803b15801561088b57600080fd5b505afa15801561089f573d6000803e3d6000fd5b505050506040513d601f19601f820116820180604052508101906108c39190615215565b6001549091506108e0906001600160a01b03848116911683612454565b5050565b7f00000000000000000000000000000000000000000000000000000000000000006001600160a01b0316630c340a246040518163ffffffff1660e01b815260040160206040518083038186803b15801561093d57600080fd5b505afa158015610951573d6000803e3d6000fd5b505050506040513d601f19601f82011682018060405250810190610975919061522e565b6001600160a01b0316336001600160a01b0316146109c35760405162461bcd60e51b815260206004820152601a60248201526000805160206154fa83398151915260448201526064016106db565b6127108110610a145760405162461bcd60e51b815260206004820152601660248201527f696e76616c69642d736c6970706167652d76616c75650000000000000000000060448201526064016106db565b60065460408051918252602082018390527f43a94473b3422f31e660358900c02b907f22142a3224beace1f2b9f1fa079a9e910160405180910390a1600655565b6000610a6033610692565b610aa55760405162461bcd60e51b815260206004820152601660248201527531b0b63632b916b4b996b737ba16b096b5b2b2b832b960511b60448201526064016106db565b6040516370a0823160e01b81523060048201526000907f00000000000000000000000000000000000000000000000000000000000000006001600160a01b0316906370a082319060240160206040518083038186803b158015610b0757600080fd5b505afa158015610b1b573d6000803e3d6000fd5b505050506040513d601f19601f82011682018060405250810190610b3f9190615215565b9050610b496124e4565b6040516370a0823160e01b815230600482015281907f00000000000000000000000000000000000000000000000000000000000000006001600160a01b0316906370a082319060240160206040518083038186803b158015610baa57600080fd5b505afa158015610bbe573d6000803e3d6000fd5b505050506040513d601f19601f82011682018060405250810190610be29190615215565b610bec9190615261565b915082821015610c355760405162461bcd60e51b81526020600482015260146024820152731b9bdd0b595b9bdd59da0b585b5bdd5b9d13dd5d60621b60448201526064016106db565b50919050565b7f00000000000000000000000000000000000000000000000000000000000000006001600160a01b0316630c340a246040518163ffffffff1660e01b815260040160206040518083038186803b158015610c9457600080fd5b505afa158015610ca8573d6000803e3d6000fd5b505050506040513d601f19601f82011682018060405250810190610ccc919061522e565b6001600160a01b0316336001600160a01b031614610d1a5760405162461bcd60e51b815260206004820152601a60248201526000805160206154fa83398151915260448201526064016106db565b610d256003826125dd565b6108465760405162461bcd60e51b815260206004820152601460248201527f72656d6f76652d6b65657065722d6661696c656400000000000000000000000060448201526064016106db565b337f00000000000000000000000000000000000000000000000000000000000000006001600160a01b031614610de95760405162461bcd60e51b815260206004820152601960248201527f63616c6c65722d69732d6e6f742d7665737065722d706f6f6c0000000000000060448201526064016106db565b6040516370a0823160e01b81523060048201526000907f00000000000000000000000000000000000000000000000000000000000000006001600160a01b0316906370a082319060240160206040518083038186803b158015610e4b57600080fd5b505afa158015610e5f573d6000803e3d6000fd5b505050506040513d601f19601f82011682018060405250810190610e839190615215565b9050818110610ee0576108e06001600160a01b037f0000000000000000000000000000000000000000000000000000000000000000167f000000000000000000000000000000000000000000000000000000000000000084612454565b610ef2610eed8284615261565b6125f2565b6040516370a0823160e01b81523060048201527f00000000000000000000000000000000000000000000000000000000000000006001600160a01b0316906370a082319060240160206040518083038186803b158015610f5157600080fd5b505afa158015610f65573d6000803e3d6000fd5b505050506040513d601f19601f82011682018060405250810190610f899190615215565b90506108e07f0000000000000000000000000000000000000000000000000000000000000000610fb984846126a3565b6001600160a01b037f0000000000000000000000000000000000000000000000000000000000000000169190612454565b610ff333610692565b6110385760405162461bcd60e51b815260206004820152601660248201527531b0b63632b916b4b996b737ba16b096b5b2b2b832b960511b60448201526064016106db565b610846816126b9565b7f00000000000000000000000000000000000000000000000000000000000000006001600160a01b0316630c340a246040518163ffffffff1660e01b815260040160206040518083038186803b15801561109a57600080fd5b505afa1580156110ae573d6000803e3d6000fd5b505050506040513d601f19601f820116820180604052508101906110d2919061522e565b6001600160a01b0316336001600160a01b0316146111205760405162461bcd60e51b815260206004820152601a60248201526000805160206154fa83398151915260448201526064016106db565b61112b6003826122f8565b6108465760405162461bcd60e51b815260206004820152601160248201527f6164642d6b65657065722d6661696c656400000000000000000000000000000060448201526064016106db565b60007f00000000000000000000000000000000000000000000000000000000000000006001600160a01b0316826001600160a01b031614806111ea57507f00000000000000000000000000000000000000000000000000000000000000006001600160a01b0316826001600160a01b0316145b92915050565b7f00000000000000000000000000000000000000000000000000000000000000006001600160a01b0316630c340a246040518163ffffffff1660e01b815260040160206040518083038186803b15801561124957600080fd5b505afa15801561125d573d6000803e3d6000fd5b505050506040513d601f19601f82011682018060405250810190611281919061522e565b6001600160a01b0316336001600160a01b0316146112cf5760405162461bcd60e51b815260206004820152601a60248201526000805160206154fa83398151915260448201526064016106db565b6112d76124e4565b6112df6128d0565b80516112f391600891602090910190614fe4565b506112fe60006126b9565b6113096000196126b9565b565b6040516370a0823160e01b81523060048201526000907f00000000000000000000000000000000000000000000000000000000000000006001600160a01b0316906370a08231906024015b60206040518083038186803b15801561136e57600080fd5b505afa158015611382573d6000803e3d6000fd5b505050506040513d601f19601f820116820180604052508101906113a69190615215565b905090565b600881815481106113bb57600080fd5b6000918252602090912001546001600160a01b0316905081565b600080806113e233610692565b6114275760405162461bcd60e51b815260206004820152601660248201527531b0b63632b916b4b996b737ba16b096b5b2b2b832b960511b60448201526064016106db565b61142f612da4565b9250925092505b909192565b60606113a66003612e49565b6005805461145490615278565b80601f016020809104026020016040519081016040528092919081815260200182805461148090615278565b80156114cd5780601f106114a2576101008083540402835291602001916114cd565b820191906000526020600020905b8154815290600101906020018083116114b057829003601f168201915b505050505081565b7f00000000000000000000000000000000000000000000000000000000000000006001600160a01b0316630c340a246040518163ffffffff1660e01b815260040160206040518083038186803b15801561152e57600080fd5b505afa158015611542573d6000803e3d6000fd5b505050506040513d601f19601f82011682018060405250810190611566919061522e565b6001600160a01b0316336001600160a01b0316146115b45760405162461bcd60e51b815260206004820152601a60248201526000805160206154fa83398151915260448201526064016106db565b600754604080516001600160a01b03928316815291831660208301527fc96bca3f57d35a1057a3357bced51fac157918147faa56845639671c516ec69c910160405180910390a1600780546001600160a01b0319166001600160a01b0392909216919091179055565b6060600880548060200260200160405190810160405280929190818152602001828054801561167557602002820191906000526020600020905b81546001600160a01b03168152600190910190602001808311611657575b5050505050905090565b6040516370a0823160e01b81523060048201526000907f00000000000000000000000000000000000000000000000000000000000000006001600160a01b0316906370a0823190602401611356565b337f00000000000000000000000000000000000000000000000000000000000000006001600160a01b0316146117465760405162461bcd60e51b815260206004820152601960248201527f63616c6c65722d69732d6e6f742d7665737065722d706f6f6c0000000000000060448201526064016106db565b6001600160a01b03811661179c5760405162461bcd60e51b815260206004820152601c60248201527f6e65772d73747261746567792d616464726573732d69732d7a65726f0000000060448201526064016106db565b7f00000000000000000000000000000000000000000000000000000000000000006001600160a01b0316816001600160a01b03166316f0115b6040518163ffffffff1660e01b815260040160206040518083038186803b1580156117ff57600080fd5b505afa158015611813573d6000803e3d6000fd5b505050506040513d601f19601f82011682018060405250810190611837919061522e565b6001600160a01b03161461188d5760405162461bcd60e51b815260206004820152601660248201527f6e6f742d76616c69642d6e65772d73747261746567790000000000000000000060448201526064016106db565b61189681612e56565b6000546040516370a0823160e01b815230600482015261192a9183916001600160a01b03909116906370a082319060240160206040518083038186803b1580156118df57600080fd5b505afa1580156118f3573d6000803e3d6000fd5b505050506040513d601f19601f820116820180604052508101906119179190615215565b6000546001600160a01b03169190612454565b6040516370a0823160e01b81523060048201526108469082906001600160a01b037f000000000000000000000000000000000000000000000000000000000000000016906370a082319060240160206040518083038186803b15801561198f57600080fd5b505afa1580156119a3573d6000803e3d6000fd5b505050506040513d601f19601f82011682018060405250810190610fb99190615215565b7f00000000000000000000000000000000000000000000000000000000000000006001600160a01b0316630c340a246040518163ffffffff1660e01b815260040160206040518083038186803b158015611a2057600080fd5b505afa158015611a34573d6000803e3d6000fd5b505050506040513d601f19601f82011682018060405250810190611a58919061522e565b6001600160a01b0316336001600160a01b031614611aa65760405162461bcd60e51b815260206004820152601a60248201526000805160206154fa83398151915260448201526064016106db565b6001600160a01b038116611afc5760405162461bcd60e51b815260206004820152601d60248201527f6665652d636f6c6c6563746f722d616464726573732d69732d7a65726f00000060448201526064016106db565b6001546001600160a01b0382811691161415611b5a5760405162461bcd60e51b815260206004820152601560248201527f6665652d636f6c6c6563746f722d69732d73616d65000000000000000000000060448201526064016106db565b6001546040516001600160a01b038084169216907f0f06062680f9bd68e786e9980d9bb03d73d5620fc3b345e417b6eacb310b970690600090a3600180546001600160a01b0319166001600160a01b0392909216919091179055565b7f00000000000000000000000000000000000000000000000000000000000000006001600160a01b0316630c340a246040518163ffffffff1660e01b815260040160206040518083038186803b158015611c0f57600080fd5b505afa158015611c23573d6000803e3d6000fd5b505050506040513d601f19601f82011682018060405250810190611c47919061522e565b6001600160a01b0316336001600160a01b031614611c955760405162461bcd60e51b815260206004820152601a60248201526000805160206154fa83398151915260448201526064016106db565b6001600160a01b038116611ceb5760405162461bcd60e51b815260206004820152601760248201527f737761707065722d616464726573732d69732d7a65726f00000000000000000060448201526064016106db565b6002546001600160a01b0382811691161415611d495760405162461bcd60e51b815260206004820152600f60248201527f737761707065722d69732d73616d65000000000000000000000000000000000060448201526064016106db565b6002546040516001600160a01b038084169216907f6c953b7ec311055c20b96a42cea31e89528e375b1bf953a503db40854b3188fe90600090a3600280546001600160a01b0319166001600160a01b0392909216919091179055565b6000611daf61167f565b6040516370a0823160e01b81523060048201527f00000000000000000000000000000000000000000000000000000000000000006001600160a01b0316906370a08231906024015b60206040518083038186803b158015611e0f57600080fd5b505afa158015611e23573d6000803e3d6000fd5b505050506040513d601f19601f82011682018060405250810190611e479190615215565b6113a691906152ad565b6000611e8c611e5e611da5565b611e877f0000000000000000000000000000000000000000000000000000000000000000613040565b6130ce565b6040516370a0823160e01b81523060048201527f00000000000000000000000000000000000000000000000000000000000000006001600160a01b0316906370a0823190602401611df7565b6000611ee333610692565b611f285760405162461bcd60e51b815260206004820152601660248201527531b0b63632b916b4b996b737ba16b096b5b2b2b832b960511b60448201526064016106db565b7f00000000000000000000000000000000000000000000000000000000000000006001600160a01b0316836001600160a01b03161415611faa5760405162461bcd60e51b815260206004820152601f60248201527f6e6f742d616c6c6f7765642d746f2d73776565702d636f6c6c61746572616c0060448201526064016106db565b611fb383611177565b15611ff75760405162461bcd60e51b815260206004820152601460248201527306e6f742d616c6c6f7765642d746f2d73776565760641b60448201526064016106db565b6040516370a0823160e01b81523060048201526000907f00000000000000000000000000000000000000000000000000000000000000006001600160a01b0316906370a082319060240160206040518083038186803b15801561205957600080fd5b505afa15801561206d573d6000803e3d6000fd5b505050506040513d601f19601f820116820180604052508101906120919190615215565b6040516370a0823160e01b81523060048201529091506000906001600160a01b038616906370a082319060240160206040518083038186803b1580156120d657600080fd5b505afa1580156120ea573d6000803e3d6000fd5b505050506040513d601f19601f8201168201806040525081019061210e9190615215565b9050801561220457600254604051636eb1769f60e11b81523060048201526001600160a01b0391821660248201529086169063dd62ed3e9060440160206040518083038186803b15801561216157600080fd5b505afa158015612175573d6000803e3d6000fd5b505050506040513d601f19601f820116820180604052508101906121999190615215565b8111156121d7576002546121bb906001600160a01b03878116911660006133bd565b6002546121d7906001600160a01b0387811691166000196133bd565b612202857f0000000000000000000000000000000000000000000000000000000000000000836134e8565b505b6040516370a0823160e01b815230600482015282907f00000000000000000000000000000000000000000000000000000000000000006001600160a01b0316906370a082319060240160206040518083038186803b15801561226557600080fd5b505afa158015612279573d6000803e3d6000fd5b505050506040513d601f19601f8201168201806040525081019061229d9190615215565b6122a79190615261565b9250838310156122f05760405162461bcd60e51b81526020600482015260146024820152731b9bdd0b595b9bdd59da0b585b5bdd5b9d13dd5d60621b60448201526064016106db565b505092915050565b600061230d836001600160a01b03841661358c565b9392505050565b6001600160a01b0381166000908152600183016020526040812054151561230d565b804710156123865760405162461bcd60e51b815260206004820152601d60248201527f416464726573733a20696e73756666696369656e742062616c616e636500000060448201526064016106db565b6000826001600160a01b03168260405160006040518083038185875af1925050503d80600081146123d3576040519150601f19603f3d011682016040523d82523d6000602084013e6123d8565b606091505b505090508061244f5760405162461bcd60e51b815260206004820152603a60248201527f416464726573733a20756e61626c6520746f2073656e642076616c75652c207260448201527f6563697069656e74206d6179206861766520726576657274656400000000000060648201526084016106db565b505050565b6040516001600160a01b03831660248201526044810182905261244f90849063a9059cbb60e01b906064015b60408051601f198184030181529190526020810180517bffffffffffffffffffffffffffffffffffffffffffffffffffffffff167fffffffff00000000000000000000000000000000000000000000000000000000909316929092179091526135db565b6124ec6136ad565b505060085460005b818110156108e057600060088281548110612511576125116152c5565b60009182526020822001546040516370a0823160e01b81523060048201526001600160a01b03909116925082906370a082319060240160206040518083038186803b15801561255f57600080fd5b505afa158015612573573d6000803e3d6000fd5b505050506040513d601f19601f820116820180604052508101906125979190615215565b905080156125ca576125ca827f0000000000000000000000000000000000000000000000000000000000000000836138ff565b5050806125d6906152db565b90506124f4565b600061230d836001600160a01b0384166139a1565b600061261d7f0000000000000000000000000000000000000000000000000000000000000000613040565b9050600061262961130b565b9050600061263561167f565b61263f90836152ad565b9050600061266a61265083866130ce565b61265a84886152f6565b6126649190615315565b836126a3565b905080612678575050505050565b828111156126925761269261268d8483615261565b613a94565b61269c8185613b11565b5050505050565b60008183106126b2578161230d565b5090919050565b6126c281613dbc565b6002546001600160a01b039081169061271e907f0000000000000000000000000000000000000000000000000000000000000000167f0000000000000000000000000000000000000000000000000000000000000000846133bd565b6127526001600160a01b037f00000000000000000000000000000000000000000000000000000000000000001682846133bd565b60085460005b818110156127a457612794838560088481548110612778576127786152c5565b6000918252602090912001546001600160a01b031691906133bd565b61279d816152db565b9050612758565b506127f96001600160a01b037f0000000000000000000000000000000000000000000000000000000000000000167f0000000000000000000000000000000000000000000000000000000000000000856133bd565b7f00000000000000000000000000000000000000000000000000000000000000006001600160a01b03161561244f5761287c6001600160a01b037f0000000000000000000000000000000000000000000000000000000000000000167f0000000000000000000000000000000000000000000000000000000000000000856133bd565b61244f6001600160a01b037f0000000000000000000000000000000000000000000000000000000000000000167f0000000000000000000000000000000000000000000000000000000000000000856133bd565b604080516001808252818301909252606091602080830190803683370190505090507f000000000000000000000000000000000000000000000000000000000000000081600081518110612926576129266152c5565b6001600160a01b0392831660209182029290920101527f0000000000000000000000000000000000000000000000000000000000000000166129655790565b7f00000000000000000000000000000000000000000000000000000000000000006001600160a01b03166316fa50b16040518163ffffffff1660e01b815260040160206040518083038186803b1580156129be57600080fd5b505afa9250505080156129ee575060408051601f3d908101601f191682019092526129eb9181019061522e565b60015b6129f757612ab2565b60025b604051908082528060200260200182016040528015612a23578160200160208202803683370190505b5091507f000000000000000000000000000000000000000000000000000000000000000082600081518110612a5a57612a5a6152c5565b60200260200101906001600160a01b031690816001600160a01b0316815250508082600181518110612a8e57612a8e6152c5565b60200260200101906001600160a01b031690816001600160a01b0316815250505090565b6040516354c49fe960e01b8152600060048201527f00000000000000000000000000000000000000000000000000000000000000006001600160a01b0316906354c49fe99060240160206040518083038186803b158015612b1257600080fd5b505afa925050508015612b42575060408051601f3d908101601f19168201909252612b3f9181019061522e565b60015b612b495790565b6001600160a01b038116612b5b575090565b7f00000000000000000000000000000000000000000000000000000000000000006001600160a01b031663963c94b96040518163ffffffff1660e01b815260040160206040518083038186803b158015612bb457600080fd5b505afa925050508015612be4575060408051601f3d908101601f19168201909252612be191810190615215565b60015b612bef5760026129fa565b612bfa8160016152ad565b67ffffffffffffffff811115612c1257612c12615337565b604051908082528060200260200182016040528015612c3b578160200160208202803683370190505b5092508183600081518110612c5257612c526152c5565b6001600160a01b039092166020928302919091019091015260015b81811015612d47576040516354c49fe960e01b8152600481018290527f00000000000000000000000000000000000000000000000000000000000000006001600160a01b0316906354c49fe99060240160206040518083038186803b158015612cd557600080fd5b505afa158015612ce9573d6000803e3d6000fd5b505050506040513d601f19601f82011682018060405250810190612d0d919061522e565b848281518110612d1f57612d1f6152c5565b6001600160a01b0390921660209283029190910190910152612d40816152db565b9050612c6d565b507f0000000000000000000000000000000000000000000000000000000000000000838281518110612d7b57612d7b6152c5565b60200260200101906001600160a01b031690816001600160a01b031681525050505090565b5090565b6000806000612db1613e10565b6040516302df682360e11b815260048101849052602481018390526044810182905292955090935091507f00000000000000000000000000000000000000000000000000000000000000006001600160a01b0316906305bed04690606401600060405180830381600087803b158015612e2957600080fd5b505af1158015612e3d573d6000803e3d6000fd5b505050506114366141d2565b6060600061230d8361427a565b7f00000000000000000000000000000000000000000000000000000000000000006001600160a01b0316816001600160a01b031663d8dfeb456040518163ffffffff1660e01b815260040160206040518083038186803b158015612eb957600080fd5b505afa158015612ecd573d6000803e3d6000fd5b505050506040513d601f19601f82011682018060405250810190612ef1919061522e565b6001600160a01b031614612f475760405162461bcd60e51b815260206004820152601660248201527f77726f6e672d636f6c6c61746572616c2d746f6b656e0000000000000000000060448201526064016106db565b7f00000000000000000000000000000000000000000000000000000000000000006001600160a01b0316816001600160a01b031663fc0c546a6040518163ffffffff1660e01b815260040160206040518083038186803b158015612faa57600080fd5b505afa158015612fbe573d6000803e3d6000fd5b505050506040513d601f19601f82011682018060405250810190612fe2919061522e565b6001600160a01b0316146130385760405162461bcd60e51b815260206004820152601360248201527f77726f6e672d726563656970742d746f6b656e0000000000000000000000000060448201526064016106db565b6108466142d6565b60006f7fffffffffffffffffffffffffffffff19821215801561307257506f8000000000000000000000000000000082125b612da05760405162461bcd60e51b815260206004820152602760248201527f53616665436173743a2076616c756520646f65736e27742066697420696e20316044820152663238206269747360c81b60648201526084016106db565b6000826130dd575060006111ea565b60027f00000000000000000000000000000000000000000000000000000000000000006007811115613111576131116150ff565b1480613177575060077f0000000000000000000000000000000000000000000000000000000000000000600781111561314c5761314c6150ff565b14801561317757507f0000000000000000000000000000000000000000000000000000000000000000155b156132265760405163cc2b27d760e01b815260048101849052600f83900b60248201527f00000000000000000000000000000000000000000000000000000000000000006001600160a01b03169063cc2b27d7906044015b60206040518083038186803b1580156131e757600080fd5b505afa1580156131fb573d6000803e3d6000fd5b505050506040513d601f19601f8201168201806040525081019061321f9190615215565b90506111ea565b60067f0000000000000000000000000000000000000000000000000000000000000000600781111561325a5761325a6150ff565b1480613297575060077f00000000000000000000000000000000000000000000000000000000000000006007811115613295576132956150ff565b145b1561331b576040516341b028f360e01b81526001600160a01b037f00000000000000000000000000000000000000000000000000000000000000008116600483015260248201859052600f84900b60448301527f000000000000000000000000000000000000000000000000000000000000000016906341b028f3906064016131cf565b60405163cc2b27d760e01b815260048101849052600f83900b60248201527f00000000000000000000000000000000000000000000000000000000000000006001600160a01b03169063cc2b27d79060440160206040518083038186803b15801561338557600080fd5b505afa158015613399573d6000803e3d6000fd5b505050506040513d601f19601f8201168201806040525081019061230d9190615215565b8015806134465750604051636eb1769f60e11b81523060048201526001600160a01b03838116602483015284169063dd62ed3e9060440160206040518083038186803b15801561340c57600080fd5b505afa158015613420573d6000803e3d6000fd5b505050506040513d601f19601f820116820180604052508101906134449190615215565b155b6134b85760405162461bcd60e51b815260206004820152603660248201527f5361666545524332303a20617070726f76652066726f6d206e6f6e2d7a65726f60448201527f20746f206e6f6e2d7a65726f20616c6c6f77616e63650000000000000000000060648201526084016106db565b6040516001600160a01b03831660248201526044810182905261244f90849063095ea7b360e01b90606401612480565b600254604051636ccb2b0160e01b81526001600160a01b038581166004830152848116602483015260448201849052600160648301523060848301526000921690636ccb2b019060a401602060405180830381600087803b15801561354c57600080fd5b505af1158015613560573d6000803e3d6000fd5b505050506040513d601f19601f820116820180604052508101906135849190615215565b949350505050565b60008181526001830160205260408120546135d3575081546001818101845560008481526020808220909301849055845484825282860190935260409020919091556111ea565b5060006111ea565b6000613630826040518060400160405280602081526020017f5361666545524332303a206c6f772d6c6576656c2063616c6c206661696c6564815250856001600160a01b03166143719092919063ffffffff16565b80519091501561244f578080602001905181019061364e919061534d565b61244f5760405162461bcd60e51b815260206004820152602a60248201527f5361666545524332303a204552433230206f7065726174696f6e20646964206e6044820152691bdd081cdd58d8d9595960b21b60648201526084016106db565b600080466001141561374b576040516335313c2160e11b81526001600160a01b037f000000000000000000000000000000000000000000000000000000000000000016600482015273d061d61a4d941c39e5453435b6345dc261c2fce090636a62784290602401600060405180830381600087803b15801561372e57600080fd5b505af1158015613742573d6000803e3d6000fd5b50505050613889565b604051634b92037960e01b81526001600160a01b037f000000000000000000000000000000000000000000000000000000000000000016600482015273abc000d88f23bb45525e447528dbf656a9d55bf590634b9203799060240160206040518083038186803b1580156137be57600080fd5b505afa1580156137d2573d6000803e3d6000fd5b505050506040513d601f19601f820116820180604052508101906137f6919061534d565b15613889576040516335313c2160e11b81526001600160a01b037f000000000000000000000000000000000000000000000000000000000000000016600482015273abc000d88f23bb45525e447528dbf656a9d55bf590636a62784290602401600060405180830381600087803b15801561387057600080fd5b505af1158015613884573d6000803e3d6000fd5b505050505b7f00000000000000000000000000000000000000000000000000000000000000006001600160a01b031663e6f1daf26040518163ffffffff1660e01b8152600401600060405180830381600087803b1580156138e457600080fd5b505af19250505080156138f5575060015b5050600091829150565b600254604051636ccb2b0160e01b81526001600160a01b0385811660048301528481166024830152604482018490526001606483015230608483015290911690636ccb2b019060a401602060405180830381600087803b15801561396257600080fd5b505af1925050508015613992575060408051601f3d908101601f1916820190925261398f91810190615215565b60015b61399b57505050565b50505050565b60008181526001830160205260408120548015613a8a5760006139c5600183615261565b85549091506000906139d990600190615261565b9050818114613a3e5760008660000182815481106139f9576139f96152c5565b9060005260206000200154905080876000018481548110613a1c57613a1c6152c5565b6000918252602080832090910192909255918252600188019052604090208390555b8554869080613a4f57613a4f61536f565b6001900381819060005260206000200160009055905585600101600086815260200190815260200160002060009055600193505050506111ea565b60009150506111ea565b801561084657604051632e1a7d4d60e01b8152600481018290527f00000000000000000000000000000000000000000000000000000000000000006001600160a01b031690632e1a7d4d906024015b600060405180830381600087803b158015613afd57600080fd5b505af115801561269c573d6000803e3d6000fd5b81613b1a575050565b6000613b677f00000000000000000000000000000000000000000000000000000000000000007f000000000000000000000000000000000000000000000000000000000000000085614380565b905060007f00000000000000000000000000000000000000000000000000000000000000006007811115613b9d57613b9d6150ff565b1480613bda575060017f00000000000000000000000000000000000000000000000000000000000000006007811115613bd857613bd86150ff565b145b15613bea5761244f838284614435565b60037f00000000000000000000000000000000000000000000000000000000000000006007811115613c1e57613c1e6150ff565b1415613c2f5761244f8382846144c6565b60047f00000000000000000000000000000000000000000000000000000000000000006007811115613c6357613c636150ff565b1415613c745761244f8382846144c6565b60027f00000000000000000000000000000000000000000000000000000000000000006007811115613ca857613ca86150ff565b1415613cb95761244f83828461452b565b60067f00000000000000000000000000000000000000000000000000000000000000006007811115613ced57613ced6150ff565b1415613cfe5761244f838284614589565b60077f00000000000000000000000000000000000000000000000000000000000000006007811115613d3257613d326150ff565b1415613d74577f000000000000000000000000000000000000000000000000000000000000000015613d695761244f838284614589565b61244f83828461452b565b60405162461bcd60e51b815260206004820152601a60248201527f77697468647261772d66726f6d2d63757276652d6661696c656400000000000060448201526064016106db565b6108466001600160a01b037f0000000000000000000000000000000000000000000000000000000000000000167f0000000000000000000000000000000000000000000000000000000000000000836133bd565b604051636a9eee1360e11b81523060048201526000908190819081906001600160a01b037f0000000000000000000000000000000000000000000000000000000000000000169063d53ddc269060240160206040518083038186803b158015613e7857600080fd5b505afa158015613e8c573d6000803e3d6000fd5b505050506040513d601f19601f82011682018060405250810190613eb09190615215565b604051639f2b283360e01b81523060048201529091506000906001600160a01b037f00000000000000000000000000000000000000000000000000000000000000001690639f2b28339060240160206040518083038186803b158015613f1557600080fd5b505afa158015613f29573d6000803e3d6000fd5b505050506040513d601f19601f82011682018060405250810190613f4d9190615215565b90506000613f7a7f0000000000000000000000000000000000000000000000000000000000000000613040565b90506000613f8661130b565b90506000613f9261167f565b613f9c90836152ad565b90506000613faa82856130ce565b6040516370a0823160e01b81523060048201529091506000906001600160a01b037f000000000000000000000000000000000000000000000000000000000000000016906370a082319060240160206040518083038186803b15801561400f57600080fd5b505afa158015614023573d6000803e3d6000fd5b505050506040513d601f19601f820116820180604052508101906140479190615215565b9050600061405583836152ad565b905086811115614070576140698782615261565b9a5061407d565b61407a8188615261565b99505b6000614089898d6152ad565b9050828111156141955760006140a86140a28584615261565b866126a3565b905080156141935760006140d0866140c089856152f6565b6140ca9190615315565b886126a3565b9050801561419157878111156140ed576140ed61268d8983615261565b6140f7818a613b11565b6040516370a0823160e01b81523060048201527f00000000000000000000000000000000000000000000000000000000000000006001600160a01b0316906370a082319060240160206040518083038186803b15801561415657600080fd5b505afa15801561416a573d6000803e3d6000fd5b505050506040513d601f19601f8201168201806040525081019061418e9190615215565b94505b505b505b61419f838a6126a3565b99508983116141af5760006141c2565b6141c26141bc8b85615261565b8d6126a3565b9b50505050505050505050909192565b6040516370a0823160e01b8152306004820152614272907f00000000000000000000000000000000000000000000000000000000000000006001600160a01b0316906370a082319060240160206040518083038186803b15801561423557600080fd5b505afa158015614249573d6000803e3d6000fd5b505050506040513d601f19601f8201168201806040525081019061426d9190615215565b61460f565b61130961461a565b6060816000018054806020026020016040519081016040528092919081815260200182805480156142ca57602002820191906000526020600020905b8154815260200190600101908083116142b6575b50505050509050919050565b6040516370a0823160e01b8152306004820152611309907f00000000000000000000000000000000000000000000000000000000000000006001600160a01b0316906370a082319060240160206040518083038186803b15801561433957600080fd5b505afa15801561434d573d6000803e3d6000fd5b505050506040513d601f19601f8201168201806040525081019061268d9190615215565b60606135848484600085614709565b60006127106006546127106143959190615261565b600754604051632d9198e160e21b81526001600160a01b0388811660048301528781166024830152604482018790529091169063b64663849060640160206040518083038186803b1580156143e957600080fd5b505afa1580156143fd573d6000803e3d6000fd5b505050506040513d601f19601f820116820180604052508101906144219190615215565b61442b91906152f6565b6135849190615315565b604051630d2680e960e11b815260048101849052600f82900b6024820152604481018390527f00000000000000000000000000000000000000000000000000000000000000006001600160a01b031690631a4d01d2906064015b600060405180830381600087803b1580156144a957600080fd5b505af11580156144bd573d6000803e3d6000fd5b50505050505050565b60405163517a55a360e01b815260048101849052600f82900b602482015260448101839052600160648201527f00000000000000000000000000000000000000000000000000000000000000006001600160a01b03169063517a55a39060840161448f565b604051630d2680e960e11b815260048101849052600f82900b6024820152604481018390527f00000000000000000000000000000000000000000000000000000000000000006001600160a01b031690631a4d01d29060640161448f565b6040516314f6943160e11b81526001600160a01b037f00000000000000000000000000000000000000000000000000000000000000008116600483015260248201859052600f83900b6044830152606482018490527f000000000000000000000000000000000000000000000000000000000000000016906329ed28629060840161448f565b610846816000614831565b6040516370a0823160e01b81523060048201526000907f00000000000000000000000000000000000000000000000000000000000000006001600160a01b0316906370a082319060240160206040518083038186803b15801561467c57600080fd5b505afa158015614690573d6000803e3d6000fd5b505050506040513d601f19601f820116820180604052508101906146b49190615215565b905080156108465760405163b6b55f2560e01b8152600481018290527f00000000000000000000000000000000000000000000000000000000000000006001600160a01b03169063b6b55f2590602401613ae3565b60608247101561476a5760405162461bcd60e51b815260206004820152602660248201527f416464726573733a20696e73756666696369656e742062616c616e636520666f6044820152651c8818d85b1b60d21b60648201526084016106db565b843b6147b85760405162461bcd60e51b815260206004820152601d60248201527f416464726573733a2063616c6c20746f206e6f6e2d636f6e747261637400000060448201526064016106db565b600080866001600160a01b031685876040516147d49190615385565b60006040518083038185875af1925050503d8060008114614811576040519150601f19603f3d011682016040523d82523d6000602084013e614816565b606091505b5091509150614826828286614ae5565b979650505050505050565b8161483a575050565b60006148877f00000000000000000000000000000000000000000000000000000000000000007f000000000000000000000000000000000000000000000000000000000000000085614380565b905060007f000000000000000000000000000000000000000000000000000000000000000060078111156148bd576148bd6150ff565b14156148ce5761244f838284614b1e565b60037f00000000000000000000000000000000000000000000000000000000000000006007811115614902576149026150ff565b14156149135761244f838284614bf2565b60017f00000000000000000000000000000000000000000000000000000000000000006007811115614947576149476150ff565b14156149585761244f838284614c91565b60047f0000000000000000000000000000000000000000000000000000000000000000600781111561498c5761498c6150ff565b141561499d5761244f838284614d2d565b60027f000000000000000000000000000000000000000000000000000000000000000060078111156149d1576149d16150ff565b14156149e25761244f838284614dcc565b60067f00000000000000000000000000000000000000000000000000000000000000006007811115614a1657614a166150ff565b1415614a275761244f838284614e68565b60077f00000000000000000000000000000000000000000000000000000000000000006007811115614a5b57614a5b6150ff565b1415614a9d577f000000000000000000000000000000000000000000000000000000000000000015614a925761244f838284614f26565b61244f838284614dcc565b60405162461bcd60e51b815260206004820152601760248201527f6465706f7369742d746f2d63757276652d6661696c656400000000000000000060448201526064016106db565b60608315614af457508161230d565b825115614b045782518084602001fd5b8160405162461bcd60e51b81526004016106db91906151b6565b614b26615045565b83817f000000000000000000000000000000000000000000000000000000000000000060028110614b5957614b596152c5565b60200201526001600160a01b037f000000000000000000000000000000000000000000000000000000000000000016630b4c7e4d83614b99576000614b9b565b855b83866040518463ffffffff1660e01b8152600401614bba9291906153c4565b6000604051808303818588803b158015614bd357600080fd5b505af1158015614be7573d6000803e3d6000fd5b505050505050505050565b614bfa615045565b83817f000000000000000000000000000000000000000000000000000000000000000060028110614c2d57614c2d6152c5565b60200201526001600160a01b037f00000000000000000000000000000000000000000000000000000000000000001663ee22be2383614c6d576000614c6f565b855b838660016040518563ffffffff1660e01b8152600401614bba939291906153df565b614c99615063565b83817f000000000000000000000000000000000000000000000000000000000000000060038110614ccc57614ccc6152c5565b60200201526001600160a01b037f000000000000000000000000000000000000000000000000000000000000000016634515cef383614d0c576000614d0e565b855b83866040518463ffffffff1660e01b8152600401614bba929190615426565b614d35615063565b83817f000000000000000000000000000000000000000000000000000000000000000060038110614d6857614d686152c5565b60200201526001600160a01b037f000000000000000000000000000000000000000000000000000000000000000016632b6e993a83614da8576000614daa565b855b838660016040518563ffffffff1660e01b8152600401614bba93929190615441565b614dd4615081565b83817f000000000000000000000000000000000000000000000000000000000000000060048110614e0757614e076152c5565b60200201526001600160a01b037f00000000000000000000000000000000000000000000000000000000000000001663029b2f3483614e47576000614e49565b855b83866040518463ffffffff1660e01b8152600401614bba929190615488565b614e70615063565b83817f000000000000000000000000000000000000000000000000000000000000000060038110614ea357614ea36152c5565b60200201526001600160a01b037f00000000000000000000000000000000000000000000000000000000000000001663a318517983614ee3576000614ee5565b855b7f000000000000000000000000000000000000000000000000000000000000000084876040518563ffffffff1660e01b8152600401614bba939291906154a3565b614f2e615081565b83817f000000000000000000000000000000000000000000000000000000000000000060048110614f6157614f616152c5565b60200201526001600160a01b037f00000000000000000000000000000000000000000000000000000000000000001663384e03db83614fa1576000614fa3565b855b7f000000000000000000000000000000000000000000000000000000000000000084876040518563ffffffff1660e01b8152600401614bba939291906154ce565b828054828255906000526020600020908101928215615039579160200282015b8281111561503957825182546001600160a01b0319166001600160a01b03909116178255602090920191600190910190615004565b50612da092915061509f565b60405180604001604052806002906020820280368337509192915050565b60405180606001604052806003906020820280368337509192915050565b60405180608001604052806004906020820280368337509192915050565b5b80821115612da057600081556001016150a0565b6001600160a01b038116811461084657600080fd5b6000602082840312156150db57600080fd5b813561230d816150b4565b6000602082840312156150f857600080fd5b5035919050565b634e487b7160e01b600052602160045260246000fd5b602081016008831061513757634e487b7160e01b600052602160045260246000fd5b91905290565b6020808252825182820181905260009190848201906040850190845b8181101561517e5783516001600160a01b031683529284019291840191600101615159565b50909695505050505050565b60005b838110156151a557818101518382015260200161518d565b8381111561399b5750506000910152565b60208152600082518060208401526151d581604085016020870161518a565b601f01601f19169190910160400192915050565b600080604083850312156151fc57600080fd5b8235615207816150b4565b946020939093013593505050565b60006020828403121561522757600080fd5b5051919050565b60006020828403121561524057600080fd5b815161230d816150b4565b634e487b7160e01b600052601160045260246000fd5b6000828210156152735761527361524b565b500390565b600181811c9082168061528c57607f821691505b60208210811415610c3557634e487b7160e01b600052602260045260246000fd5b600082198211156152c0576152c061524b565b500190565b634e487b7160e01b600052603260045260246000fd5b60006000198214156152ef576152ef61524b565b5060010190565b60008160001904831182151516156153105761531061524b565b500290565b60008261533257634e487b7160e01b600052601260045260246000fd5b500490565b634e487b7160e01b600052604160045260246000fd5b60006020828403121561535f57600080fd5b8151801515811461230d57600080fd5b634e487b7160e01b600052603160045260246000fd5b6000825161539781846020870161518a565b9190910192915050565b8060005b600281101561399b5781518452602093840193909101906001016153a5565b606081016153d282856153a1565b8260408301529392505050565b608081016153ed82866153a1565b8360408301528215156060830152949350505050565b8060005b600381101561399b578151845260209384019390910190600101615407565b608081016154348285615403565b8260608301529392505050565b60a0810161544f8286615403565b8360608301528215156080830152949350505050565b8060005b600481101561399b578151845260209384019390910190600101615469565b60a081016154968285615465565b8260808301529392505050565b6001600160a01b038416815260a081016154c06020830185615403565b826080830152949350505050565b6001600160a01b038416815260c081016154eb6020830185615465565b8260a083015294935050505056fe63616c6c65722d69732d6e6f742d7468652d676f7665726e6f72000000000000a264697066735822122059b886faf7ae0e8d0e1ca4d3d3ef5e286bb24629feac45a5ccbe43b92937d10564736f6c63430008090033",
  "devdoc": {
    "kind": "dev",
    "methods": {
      "addKeeper(address)": {
        "params": {
          "_keeperAddress": "keeper address to add."
        }
      },
      "approveToken(uint256)": {
        "details": "Approve all required tokens"
      },
      "isReservedToken(address)": {
        "details": "Check whether given token is reserved or not. Reserved tokens are not allowed to sweep."
      },
      "migrate(address)": {
        "details": "_beforeMigration hook can be implemented in child strategy to do extra steps.",
        "params": {
          "_newStrategy": "Address of new strategy"
        }
      },
      "rebalance()": {
        "returns": {
          "_loss": "Realized loss, if any, in collateral.",
          "_payback": "If strategy has any excess debt, we have to liquidate asset to payback excess debt.",
          "_profit": "Realized profit in collateral."
        }
      },
      "removeKeeper(address)": {
        "params": {
          "_keeperAddress": "keeper address to remove."
        }
      },
      "sweep(address)": {
        "params": {
          "_fromToken": "token address to sweep"
        }
      },
      "updateFeeCollector(address)": {
        "params": {
          "_feeCollector": "fee collector address"
        }
      },
      "updateSwapper(address)": {
        "params": {
          "_swapper": "swapper address"
        }
      },
      "withdraw(uint256)": {
        "params": {
          "_amount": "Amount of collateral token"
        }
      }
    },
    "title": "This strategy will deposit collateral token in a Curve Pool and earn interest.",
    "version": 1
  },
  "userdoc": {
    "kind": "user",
    "methods": {
      "addKeeper(address)": {
        "notice": "Add given address in keepers list."
      },
      "claimAndSwapRewards(uint256)": {
        "notice": "Claim rewardToken and convert rewardToken into collateral token."
      },
      "collateral()": {
        "notice": "Returns address of token correspond to collateral token"
      },
      "keepers()": {
        "notice": "Return list of keepers"
      },
      "migrate(address)": {
        "notice": "Migrate all asset and vault ownership,if any, to new strategy"
      },
      "rebalance()": {
        "notice": "OnlyKeeper: Rebalance profit, loss and investment of this strategy.  Calculate profit, loss and payback of this strategy and realize profit/loss and  withdraw fund for payback, if any, and submit this report to pool."
      },
      "refetchRewardTokens()": {
        "notice": "Rewards token in gauge can be updated any time. This method refresh list. It is recommended to claimAndSwapRewards before calling this function."
      },
      "removeKeeper(address)": {
        "notice": "Remove given address from keepers list."
      },
      "swapToCollateral(address,uint256)": {
        "notice": "onlyKeeper:: Swap given token into collateral token."
      },
      "sweep(address)": {
        "notice": "sweep given token to feeCollector of strategy"
      },
      "token()": {
        "notice": "Returns address of token correspond to receipt token"
      },
      "tvl()": {
        "notice": "Returns collateral balance + collateral deposited to curve"
      },
      "updateFeeCollector(address)": {
        "notice": "Update fee collector"
      },
      "updateSwapper(address)": {
        "notice": "Update swapper"
      },
      "withdraw(uint256)": {
        "notice": "Withdraw collateral token from end protocol."
      }
    },
    "version": 1
  },
  "storageLayout": {
    "storage": [
      {
        "astId": 14421,
        "contract": "vesper-strategies/contracts/strategies/curve/Curve.sol:Curve",
        "label": "receiptToken",
        "offset": 0,
        "slot": "0",
        "type": "t_address"
      },
      {
        "astId": 14427,
        "contract": "vesper-strategies/contracts/strategies/curve/Curve.sol:Curve",
        "label": "feeCollector",
        "offset": 0,
        "slot": "1",
        "type": "t_address"
      },
      {
        "astId": 14430,
        "contract": "vesper-strategies/contracts/strategies/curve/Curve.sol:Curve",
        "label": "swapper",
        "offset": 0,
        "slot": "2",
        "type": "t_contract(IRoutedSwapper)13269"
      },
      {
        "astId": 14443,
        "contract": "vesper-strategies/contracts/strategies/curve/Curve.sol:Curve",
        "label": "_keepers",
        "offset": 0,
        "slot": "3",
        "type": "t_struct(AddressSet)3025_storage"
      },
      {
        "astId": 26920,
        "contract": "vesper-strategies/contracts/strategies/curve/Curve.sol:Curve",
        "label": "NAME",
        "offset": 0,
        "slot": "5",
        "type": "t_string_storage"
      },
      {
        "astId": 26922,
        "contract": "vesper-strategies/contracts/strategies/curve/Curve.sol:Curve",
        "label": "crvSlippage",
        "offset": 0,
        "slot": "6",
        "type": "t_uint256"
      },
      {
        "astId": 26925,
        "contract": "vesper-strategies/contracts/strategies/curve/Curve.sol:Curve",
        "label": "masterOracle",
        "offset": 0,
        "slot": "7",
        "type": "t_contract(IMasterOracle)12953"
      },
      {
        "astId": 26928,
        "contract": "vesper-strategies/contracts/strategies/curve/Curve.sol:Curve",
        "label": "rewardTokens",
        "offset": 0,
        "slot": "8",
        "type": "t_array(t_address)dyn_storage"
      }
    ],
    "types": {
      "t_address": {
        "encoding": "inplace",
        "label": "address",
        "numberOfBytes": "20"
      },
      "t_array(t_address)dyn_storage": {
        "base": "t_address",
        "encoding": "dynamic_array",
        "label": "address[]",
        "numberOfBytes": "32"
      },
      "t_array(t_bytes32)dyn_storage": {
        "base": "t_bytes32",
        "encoding": "dynamic_array",
        "label": "bytes32[]",
        "numberOfBytes": "32"
      },
      "t_bytes32": {
        "encoding": "inplace",
        "label": "bytes32",
        "numberOfBytes": "32"
      },
      "t_contract(IMasterOracle)12953": {
        "encoding": "inplace",
        "label": "contract IMasterOracle",
        "numberOfBytes": "20"
      },
      "t_contract(IRoutedSwapper)13269": {
        "encoding": "inplace",
        "label": "contract IRoutedSwapper",
        "numberOfBytes": "20"
      },
      "t_mapping(t_bytes32,t_uint256)": {
        "encoding": "mapping",
        "key": "t_bytes32",
        "label": "mapping(bytes32 => uint256)",
        "numberOfBytes": "32",
        "value": "t_uint256"
      },
      "t_string_storage": {
        "encoding": "bytes",
        "label": "string",
        "numberOfBytes": "32"
      },
      "t_struct(AddressSet)3025_storage": {
        "encoding": "inplace",
        "label": "struct EnumerableSet.AddressSet",
        "members": [
          {
            "astId": 3024,
            "contract": "vesper-strategies/contracts/strategies/curve/Curve.sol:Curve",
            "label": "_inner",
            "offset": 0,
            "slot": "0",
            "type": "t_struct(Set)2724_storage"
          }
        ],
        "numberOfBytes": "64"
      },
      "t_struct(Set)2724_storage": {
        "encoding": "inplace",
        "label": "struct EnumerableSet.Set",
        "members": [
          {
            "astId": 2719,
            "contract": "vesper-strategies/contracts/strategies/curve/Curve.sol:Curve",
            "label": "_values",
            "offset": 0,
            "slot": "0",
            "type": "t_array(t_bytes32)dyn_storage"
          },
          {
            "astId": 2723,
            "contract": "vesper-strategies/contracts/strategies/curve/Curve.sol:Curve",
            "label": "_indexes",
            "offset": 0,
            "slot": "1",
            "type": "t_mapping(t_bytes32,t_uint256)"
          }
        ],
        "numberOfBytes": "64"
      },
      "t_uint256": {
        "encoding": "inplace",
        "label": "uint256",
        "numberOfBytes": "32"
      }
    }
  }
}