{
  "address": "0x6A12FA3eD48B1404EB973bCdF2d4DF390E497544",
  "abi": [
    {
      "inputs": [
        {
          "internalType": "address",
          "name": "pool_",
          "type": "address"
        },
        {
          "internalType": "address",
          "name": "crvPool_",
          "type": "address"
        },
        {
          "internalType": "enum CurveBase.PoolType",
          "name": "curvePoolType_",
          "type": "uint8"
        },
        {
          "internalType": "address",
          "name": "depositZap_",
          "type": "address"
        },
        {
          "internalType": "address",
          "name": "crvToken_",
          "type": "address"
        },
        {
          "internalType": "uint256",
          "name": "crvSlippage_",
          "type": "uint256"
        },
        {
          "internalType": "address",
          "name": "masterOracle_",
          "type": "address"
        },
        {
          "internalType": "address",
          "name": "swapper_",
          "type": "address"
        },
        {
          "internalType": "uint256",
          "name": "collateralIdx_",
          "type": "uint256"
        },
        {
          "internalType": "string",
          "name": "name_",
          "type": "string"
        }
      ],
      "stateMutability": "nonpayable",
      "type": "constructor"
    },
    {
      "anonymous": false,
      "inputs": [
        {
          "indexed": false,
          "internalType": "uint256",
          "name": "oldCrvSlippage",
          "type": "uint256"
        },
        {
          "indexed": false,
          "internalType": "uint256",
          "name": "newCrvSlippage",
          "type": "uint256"
        }
      ],
      "name": "CrvSlippageUpdated",
      "type": "event"
    },
    {
      "anonymous": false,
      "inputs": [
        {
          "indexed": false,
          "internalType": "contract IMasterOracle",
          "name": "oldMasterOracle",
          "type": "address"
        },
        {
          "indexed": false,
          "internalType": "contract IMasterOracle",
          "name": "newMasterOracle",
          "type": "address"
        }
      ],
      "name": "MasterOracleUpdated",
      "type": "event"
    },
    {
      "anonymous": false,
      "inputs": [
        {
          "indexed": true,
          "internalType": "address",
          "name": "previousFeeCollector",
          "type": "address"
        },
        {
          "indexed": true,
          "internalType": "address",
          "name": "newFeeCollector",
          "type": "address"
        }
      ],
      "name": "UpdatedFeeCollector",
      "type": "event"
    },
    {
      "anonymous": false,
      "inputs": [
        {
          "indexed": true,
          "internalType": "contract IRoutedSwapper",
          "name": "oldSwapper",
          "type": "address"
        },
        {
          "indexed": true,
          "internalType": "contract IRoutedSwapper",
          "name": "newSwapper",
          "type": "address"
        }
      ],
      "name": "UpdatedSwapper",
      "type": "event"
    },
    {
      "inputs": [],
      "name": "ADDRESS_PROVIDER",
      "outputs": [
        {
          "internalType": "contract IAddressProvider",
          "name": "",
          "type": "address"
        }
      ],
      "stateMutability": "view",
      "type": "function"
    },
    {
      "inputs": [],
      "name": "CRV",
      "outputs": [
        {
          "internalType": "address",
          "name": "",
          "type": "address"
        }
      ],
      "stateMutability": "view",
      "type": "function"
    },
    {
      "inputs": [],
      "name": "CRV_MINTER",
      "outputs": [
        {
          "internalType": "contract ITokenMinter",
          "name": "",
          "type": "address"
        }
      ],
      "stateMutability": "view",
      "type": "function"
    },
    {
      "inputs": [],
      "name": "NAME",
      "outputs": [
        {
          "internalType": "string",
          "name": "",
          "type": "string"
        }
      ],
      "stateMutability": "view",
      "type": "function"
    },
    {
      "inputs": [],
      "name": "VERSION",
      "outputs": [
        {
          "internalType": "string",
          "name": "",
          "type": "string"
        }
      ],
      "stateMutability": "view",
      "type": "function"
    },
    {
      "inputs": [
        {
          "internalType": "address",
          "name": "_keeperAddress",
          "type": "address"
        }
      ],
      "name": "addKeeper",
      "outputs": [],
      "stateMutability": "nonpayable",
      "type": "function"
    },
    {
      "inputs": [
        {
          "internalType": "uint256",
          "name": "_approvalAmount",
          "type": "uint256"
        }
      ],
      "name": "approveToken",
      "outputs": [],
      "stateMutability": "nonpayable",
      "type": "function"
    },
    {
      "inputs": [
        {
          "internalType": "uint256",
          "name": "_minAmountOut",
          "type": "uint256"
        }
      ],
      "name": "claimAndSwapRewards",
      "outputs": [
        {
          "internalType": "uint256",
          "name": "_amountOut",
          "type": "uint256"
        }
      ],
      "stateMutability": "nonpayable",
      "type": "function"
    },
    {
      "inputs": [],
      "name": "collateral",
      "outputs": [
        {
          "internalType": "address",
          "name": "",
          "type": "address"
        }
      ],
      "stateMutability": "view",
      "type": "function"
    },
    {
      "inputs": [],
      "name": "collateralIdx",
      "outputs": [
        {
          "internalType": "uint256",
          "name": "",
          "type": "uint256"
        }
      ],
      "stateMutability": "view",
      "type": "function"
    },
    {
      "inputs": [],
      "name": "collateralToken",
      "outputs": [
        {
          "internalType": "contract IERC20",
          "name": "",
          "type": "address"
        }
      ],
      "stateMutability": "view",
      "type": "function"
    },
    {
      "inputs": [],
      "name": "crvGauge",
      "outputs": [
        {
          "internalType": "contract ILiquidityGaugeV2",
          "name": "",
          "type": "address"
        }
      ],
      "stateMutability": "view",
      "type": "function"
    },
    {
      "inputs": [],
      "name": "crvLp",
      "outputs": [
        {
          "internalType": "contract IERC20",
          "name": "",
          "type": "address"
        }
      ],
      "stateMutability": "view",
      "type": "function"
    },
    {
      "inputs": [],
      "name": "crvPool",
      "outputs": [
        {
          "internalType": "address",
          "name": "",
          "type": "address"
        }
      ],
      "stateMutability": "view",
      "type": "function"
    },
    {
      "inputs": [],
      "name": "crvSlippage",
      "outputs": [
        {
          "internalType": "uint256",
          "name": "",
          "type": "uint256"
        }
      ],
      "stateMutability": "view",
      "type": "function"
    },
    {
      "inputs": [],
      "name": "curvePoolType",
      "outputs": [
        {
          "internalType": "enum CurveBase.PoolType",
          "name": "",
          "type": "uint8"
        }
      ],
      "stateMutability": "view",
      "type": "function"
    },
    {
      "inputs": [],
      "name": "feeCollector",
      "outputs": [
        {
          "internalType": "address",
          "name": "",
          "type": "address"
        }
      ],
      "stateMutability": "view",
      "type": "function"
    },
    {
      "inputs": [],
      "name": "getRewardTokens",
      "outputs": [
        {
          "internalType": "address[]",
          "name": "",
          "type": "address[]"
        }
      ],
      "stateMutability": "view",
      "type": "function"
    },
    {
      "inputs": [
        {
          "internalType": "address",
          "name": "token_",
          "type": "address"
        }
      ],
      "name": "isReservedToken",
      "outputs": [
        {
          "internalType": "bool",
          "name": "",
          "type": "bool"
        }
      ],
      "stateMutability": "view",
      "type": "function"
    },
    {
      "inputs": [],
      "name": "keepers",
      "outputs": [
        {
          "internalType": "address[]",
          "name": "",
          "type": "address[]"
        }
      ],
      "stateMutability": "view",
      "type": "function"
    },
    {
      "inputs": [],
      "name": "lpBalanceHere",
      "outputs": [
        {
          "internalType": "uint256",
          "name": "_lpHere",
          "type": "uint256"
        }
      ],
      "stateMutability": "view",
      "type": "function"
    },
    {
      "inputs": [],
      "name": "lpBalanceHereAndStaked",
      "outputs": [
        {
          "internalType": "uint256",
          "name": "_lpHereAndStaked",
          "type": "uint256"
        }
      ],
      "stateMutability": "view",
      "type": "function"
    },
    {
      "inputs": [],
      "name": "lpBalanceStaked",
      "outputs": [
        {
          "internalType": "uint256",
          "name": "_lpStaked",
          "type": "uint256"
        }
      ],
      "stateMutability": "view",
      "type": "function"
    },
    {
      "inputs": [],
      "name": "masterOracle",
      "outputs": [
        {
          "internalType": "contract IMasterOracle",
          "name": "",
          "type": "address"
        }
      ],
      "stateMutability": "view",
      "type": "function"
    },
    {
      "inputs": [
        {
          "internalType": "address",
          "name": "_newStrategy",
          "type": "address"
        }
      ],
      "name": "migrate",
      "outputs": [],
      "stateMutability": "nonpayable",
      "type": "function"
    },
    {
      "inputs": [],
      "name": "pool",
      "outputs": [
        {
          "internalType": "address",
          "name": "",
          "type": "address"
        }
      ],
      "stateMutability": "view",
      "type": "function"
    },
    {
      "inputs": [],
      "name": "rebalance",
      "outputs": [
        {
          "internalType": "uint256",
          "name": "_profit",
          "type": "uint256"
        },
        {
          "internalType": "uint256",
          "name": "_loss",
          "type": "uint256"
        },
        {
          "internalType": "uint256",
          "name": "_payback",
          "type": "uint256"
        }
      ],
      "stateMutability": "nonpayable",
      "type": "function"
    },
    {
      "inputs": [],
      "name": "receiptToken",
      "outputs": [
        {
          "internalType": "address",
          "name": "",
          "type": "address"
        }
      ],
      "stateMutability": "view",
      "type": "function"
    },
    {
      "inputs": [],
      "name": "refetchRewardTokens",
      "outputs": [],
      "stateMutability": "nonpayable",
      "type": "function"
    },
    {
      "inputs": [
        {
          "internalType": "address",
          "name": "_keeperAddress",
          "type": "address"
        }
      ],
      "name": "removeKeeper",
      "outputs": [],
      "stateMutability": "nonpayable",
      "type": "function"
    },
    {
      "inputs": [
        {
          "internalType": "uint256",
          "name": "",
          "type": "uint256"
        }
      ],
      "name": "rewardTokens",
      "outputs": [
        {
          "internalType": "address",
          "name": "",
          "type": "address"
        }
      ],
      "stateMutability": "view",
      "type": "function"
    },
    {
      "inputs": [
        {
          "internalType": "contract IERC20",
          "name": "_tokenIn",
          "type": "address"
        },
        {
          "internalType": "uint256",
          "name": "_minAmountOut",
          "type": "uint256"
        }
      ],
      "name": "swapToCollateral",
      "outputs": [
        {
          "internalType": "uint256",
          "name": "_amountOut",
          "type": "uint256"
        }
      ],
      "stateMutability": "nonpayable",
      "type": "function"
    },
    {
      "inputs": [],
      "name": "swapper",
      "outputs": [
        {
          "internalType": "contract IRoutedSwapper",
          "name": "",
          "type": "address"
        }
      ],
      "stateMutability": "view",
      "type": "function"
    },
    {
      "inputs": [
        {
          "internalType": "address",
          "name": "_fromToken",
          "type": "address"
        }
      ],
      "name": "sweep",
      "outputs": [],
      "stateMutability": "nonpayable",
      "type": "function"
    },
    {
      "inputs": [],
      "name": "token",
      "outputs": [
        {
          "internalType": "address",
          "name": "",
          "type": "address"
        }
      ],
      "stateMutability": "view",
      "type": "function"
    },
    {
      "inputs": [],
      "name": "tvl",
      "outputs": [
        {
          "internalType": "uint256",
          "name": "",
          "type": "uint256"
        }
      ],
      "stateMutability": "view",
      "type": "function"
    },
    {
      "inputs": [
        {
          "internalType": "uint256",
          "name": "newCrvSlippage_",
          "type": "uint256"
        }
      ],
      "name": "updateCrvSlippage",
      "outputs": [],
      "stateMutability": "nonpayable",
      "type": "function"
    },
    {
      "inputs": [
        {
          "internalType": "address",
          "name": "_feeCollector",
          "type": "address"
        }
      ],
      "name": "updateFeeCollector",
      "outputs": [],
      "stateMutability": "nonpayable",
      "type": "function"
    },
    {
      "inputs": [
        {
          "internalType": "contract IMasterOracle",
          "name": "newMasterOracle_",
          "type": "address"
        }
      ],
      "name": "updateMasterOracle",
      "outputs": [],
      "stateMutability": "nonpayable",
      "type": "function"
    },
    {
      "inputs": [
        {
          "internalType": "contract IRoutedSwapper",
          "name": "_swapper",
          "type": "address"
        }
      ],
      "name": "updateSwapper",
      "outputs": [],
      "stateMutability": "nonpayable",
      "type": "function"
    },
    {
      "inputs": [
        {
          "internalType": "uint256",
          "name": "_amount",
          "type": "uint256"
        }
      ],
      "name": "withdraw",
      "outputs": [],
      "stateMutability": "nonpayable",
      "type": "function"
    }
  ],
  "transactionHash": "0x48c7c9c21e090309ed199a30027a0641ae7d84333e2d0b59f72dd064ad111d89",
  "args": [
    "0x539505Dde2B9771dEBE0898a84441c5E7fDF6BC0",
    "0x061b87122Ed14b9526A813209C8a59a633257bAb",
    7,
    "0x167e42a1c7ab4be03764a2222aac57f5f6754411",
    "0x0994206dfE8De6Ec6920FF4D779B0d950605Fb53",
    250,
    "0x0aac835162D368F246dc71628AfcD6d2930c47d3",
    "0xDAf982c67712780D54C298A91D86788165B701A4",
    2,
    "Curve_sUSD_USDC"
  ],
  "numDeployments": 1,
  "solcInputHash": "619e8ac9e04a70ca6e3bb39f66449651",
  "bytecode": "0x6101c06040523480156200001257600080fd5b5060405162006d6538038062006d658339810160408190526200003591620013d8565b89898989898989898989898360006001600160a01b0383166200009f5760405162461bcd60e51b815260206004820152601460248201527f706f6f6c2d616464726573732d69732d7a65726f00000000000000000000000060448201526064015b60405180910390fd5b6001600160a01b038216620000f75760405162461bcd60e51b815260206004820152601760248201527f737761707065722d616464726573732d69732d7a65726f000000000000000000604482015260640162000096565b600280546001600160a01b0319166001600160a01b0384811691909117909155831660a081905260408051637e062a3560e11b8152905163fc0c546a91600480820192602092909190829003018186803b1580156200015557600080fd5b505afa1580156200016a573d6000803e3d6000fd5b505050506040513d601f19601f82011682018060405250810190620001909190620014bc565b6001600160a01b03908116608052600080546001600160a01b031916918316919091179055620001d7620001c13390565b600362000d4360201b62001f9e1790919060201c565b620002195760405162461bcd60e51b81526020600482015260116024820152701859190b5ad9595c195c8b59985a5b1959607a1b604482015260640162000096565b5050506001600160a01b038616620002685760405162461bcd60e51b815260206004820152601160248201527018dc9d8b5d1bdad95b8b5a5ccb5b9d5b1b607a1b604482015260640162000096565b6000806f22d53366457f9d5e68ec105046fc43836001600160a01b031663a262904b6040518163ffffffff1660e01b815260040160206040518083038186803b158015620002b557600080fd5b505afa158015620002ca573d6000803e3d6000fd5b505050506040513d601f19601f82011682018060405250810190620002f09190620014bc565b604051633795104960e01b81526001600160a01b038d8116600483015291925060009183169063379510499060240160206040518083038186803b1580156200033857600080fd5b505afa1580156200034d573d6000803e3d6000fd5b505050506040513d601f19601f82011682018060405250810190620003739190620014bc565b90506001600160a01b03811615620005bd5760405163940494f160e01b81526001600160a01b038d8116600483015283169063940494f190602401604080518083038186803b158015620003c657600080fd5b505afa158015620003db573d6000803e3d6000fd5b505050506040513d601f19601f82011682018060405250810190620004019190620014e3565b6020015185106200044a5760405162461bcd60e51b81526020600482015260126024820152711a5b9d985b1a590b58dbdb1b185d195c985b60721b604482015260640162000096565b60805160405163a77576ef60e01b81526001600160a01b038e811660048301529182169184169063a77576ef906024016101006040518083038186803b1580156200049457600080fd5b505afa158015620004a9573d6000803e3d6000fd5b505050506040513d601f19601f82011682018060405250810190620004cf919062001580565b8660088110620004e357620004e36200156a565b60200201516001600160a01b031614620005365760405162461bcd60e51b81526020600482015260136024820152720c6ded8d8c2e8cae4c2d85adad2e6dac2e8c6d606b1b604482015260640162000096565b6040516356059ffb60e01b81526001600160a01b038d811660048301528316906356059ffb906024016101406040518083038186803b1580156200057957600080fd5b505afa1580156200058e573d6000803e3d6000fd5b505050506040513d601f19601f82011682018060405250810190620005b4919062001611565b51925062000b72565b60405163124fd3dd60e21b8152600360048201526000906f22d53366457f9d5e68ec105046fc43839063493f4f749060240160206040518083038186803b1580156200060857600080fd5b505afa1580156200061d573d6000803e3d6000fd5b505050506040513d601f19601f82011682018060405250810190620006439190620014bc565b60405163e4d332a960e01b81526001600160a01b038f811660048301529192509082169063e4d332a99060240160206040518083038186803b1580156200068957600080fd5b505afa1580156200069e573d6000803e3d6000fd5b505050506040513d601f19601f82011682018060405250810190620006c4919062001697565b15620008815760405163eb73f37d60e01b81526001600160a01b038e8116600483015282169063eb73f37d90602401604080518083038186803b1580156200070b57600080fd5b505afa15801562000720573d6000803e3d6000fd5b505050506040513d601f19601f82011682018060405250810190620007469190620014e3565b6020015186106200078f5760405162461bcd60e51b81526020600482015260126024820152711a5b9d985b1a590b58dbdb1b185d195c985b60721b604482015260640162000096565b60805160405163a77576ef60e01b81526001600160a01b038f811660048301529182169183169063a77576ef906024016101006040518083038186803b158015620007d957600080fd5b505afa158015620007ee573d6000803e3d6000fd5b505050506040513d601f19601f8201168201806040525081019062000814919062001580565b87600881106200082857620008286200156a565b60200201516001600160a01b0316146200087b5760405162461bcd60e51b81526020600482015260136024820152720c6ded8d8c2e8cae4c2d85adad2e6dac2e8c6d606b1b604482015260640162000096565b62000a67565b60405163940494f160e01b81526001600160a01b038e8116600483015282169063940494f19060240160206040518083038186803b158015620008c357600080fd5b505afa158015620008d8573d6000803e3d6000fd5b505050506040513d601f19601f82011682018060405250810190620008fe9190620016bb565b8610620009435760405162461bcd60e51b81526020600482015260126024820152711a5b9d985b1a590b58dbdb1b185d195c985b60721b604482015260640162000096565b604051639ac90d3d60e01b81526001600160a01b038e8116600483015260009190831690639ac90d3d9060240160806040518083038186803b1580156200098957600080fd5b505afa1580156200099e573d6000803e3d6000fd5b505050506040513d601f19601f82011682018060405250810190620009c49190620016d5565b8760048110620009d857620009d86200156a565b602002015190506001600160a01b03811673eeeeeeeeeeeeeeeeeeeeeeeeeeeeeeeeeeeeeeee141562000a0a57506080515b6080516001600160a01b0316816001600160a01b03161462000a655760405162461bcd60e51b81526020600482015260136024820152720c6ded8d8c2e8cae4c2d85adad2e6dac2e8c6d606b1b604482015260640162000096565b505b8c9150737bc5728bc2b59b45a58d9a576e2ffc5f0505b35e6001600160a01b038316141562000aad5773cb8883d1d8c560003489df43b30612aabb8013bb935062000b70565b73061b87122ed14b9526a813209c8a59a633257bab6001600160a01b038e16141562000af05773c5ae4b5f86332e70f3205a8151ee9ed9f71e0797935062000b70565b60405163daf297b960e01b81526001600160a01b038e8116600483015282169063daf297b99060240160206040518083038186803b15801562000b3257600080fd5b505afa15801562000b47573d6000803e3d6000fd5b505050506040513d601f19601f8201168201806040525081019062000b6d9190620014bc565b93505b505b6001600160a01b038c1662000bb95760405162461bcd60e51b815260206004820152600c60248201526b1c1bdbdb0b5a5ccb5b9d5b1b60a21b604482015260640162000096565b6001600160a01b03811662000bfe5760405162461bcd60e51b815260206004820152600a6024820152691b1c0b5a5ccb5b9d5b1b60b21b604482015260640162000096565b6001600160a01b03831662000c465760405162461bcd60e51b815260206004820152600d60248201526c19d85d59d94b5a5ccb5b9d5b1b609a1b604482015260640162000096565b6001600160a01b03808a1660c0528c81166101005281811660e0819052908416610120526006899055600080546001600160a01b03191690911790556101408590528a600781111562000c9d5762000c9d6200175a565b61018081600781111562000cb55762000cb56200175a565b9052506001600160a01b038c8116828216146101a0528a811661016052600780546001600160a01b031916918916919091179055835162000cfe906005906020870190620011d5565b505050505050505050505050505062000d1c62000d6360201b60201c565b805162000d329160089160209091019062001260565b5050505050505050505050620017fc565b600062000d5a836001600160a01b03841662001183565b90505b92915050565b6040805160018082528183019092526060916020808301908036833701905050905060c0518160008151811062000d9e5762000d9e6200156a565b6001600160a01b039283166020918202929092010152610120511662000dc15790565b610120516001600160a01b03166316fa50b16040518163ffffffff1660e01b815260040160206040518083038186803b15801562000dfe57600080fd5b505afa92505050801562000e31575060408051601f3d908101601f1916820190925262000e2e91810190620014bc565b60015b62000e3c5762000ee0565b60025b60405190808252806020026020018201604052801562000e69578160200160208202803683370190505b50915060c0518260008151811062000e855762000e856200156a565b60200260200101906001600160a01b031690816001600160a01b031681525050808260018151811062000ebc5762000ebc6200156a565b60200260200101906001600160a01b031690816001600160a01b0316815250505090565b610120516040516354c49fe960e01b8152600060048201526001600160a01b03909116906354c49fe99060240160206040518083038186803b15801562000f2657600080fd5b505afa92505050801562000f59575060408051601f3d908101601f1916820190925262000f5691810190620014bc565b60015b62000f615790565b6001600160a01b03811662000f74575090565b610120516001600160a01b031663963c94b96040518163ffffffff1660e01b815260040160206040518083038186803b15801562000fb157600080fd5b505afa92505050801562000fe4575060408051601f3d908101601f1916820190925262000fe191810190620016bb565b60015b62000ff157600262000e3f565b62000ffe81600162001786565b6001600160401b03811115620010185762001018620012fa565b60405190808252806020026020018201604052801562001042578160200160208202803683370190505b50925081836000815181106200105c576200105c6200156a565b6001600160a01b039092166020928302919091019091015260015b818110156200114157610120516040516354c49fe960e01b8152600481018390526001600160a01b03909116906354c49fe99060240160206040518083038186803b158015620010c657600080fd5b505afa158015620010db573d6000803e3d6000fd5b505050506040513d601f19601f82011682018060405250810190620011019190620014bc565b8482815181106200111657620011166200156a565b6001600160a01b03909216602092830291909101909101526200113981620017a1565b905062001077565b5060c0518382815181106200115a576200115a6200156a565b60200260200101906001600160a01b031690816001600160a01b031681525050505090565b5090565b6000818152600183016020526040812054620011cc5750815460018181018455600084815260208082209093018490558454848252828601909352604090209190915562000d5d565b50600062000d5d565b828054620011e390620017bf565b90600052602060002090601f01602090048101928262001207576000855562001252565b82601f106200122257805160ff191683800117855562001252565b8280016001018555821562001252579182015b828111156200125257825182559160200191906001019062001235565b506200117f929150620012b8565b82805482825590600052602060002090810192821562001252579160200282015b828111156200125257825182546001600160a01b0319166001600160a01b0390911617825560209092019160019091019062001281565b5b808211156200117f5760008155600101620012b9565b6001600160a01b0381168114620012e557600080fd5b50565b8051620012f581620012cf565b919050565b634e487b7160e01b600052604160045260246000fd5b604051601f8201601f191681016001600160401b03811182821017156200133b576200133b620012fa565b604052919050565b600082601f8301126200135557600080fd5b81516001600160401b03811115620013715762001371620012fa565b602062001387601f8301601f1916820162001310565b82815285828487010111156200139c57600080fd5b60005b83811015620013bc5785810183015182820184015282016200139f565b83811115620013ce5760008385840101525b5095945050505050565b6000806000806000806000806000806101408b8d031215620013f957600080fd5b8a516200140681620012cf565b60208c0151909a506200141981620012cf565b60408c0151909950600881106200142f57600080fd5b97506200143f60608c01620012e8565b96506200144f60808c01620012e8565b955060a08b015194506200146660c08c01620012e8565b93506200147660e08c01620012e8565b6101008c01516101208d015191945092506001600160401b038111156200149c57600080fd5b620014aa8d828e0162001343565b9150509295989b9194979a5092959850565b600060208284031215620014cf57600080fd5b8151620014dc81620012cf565b9392505050565b600060408284031215620014f657600080fd5b82601f8301126200150657600080fd5b604080519081016001600160401b03811182821017156200152b576200152b620012fa565b80604052508060408401858111156200154357600080fd5b845b818110156200155f57805183526020928301920162001545565b509195945050505050565b634e487b7160e01b600052603260045260246000fd5b60006101008083850312156200159557600080fd5b83601f840112620015a557600080fd5b6040518181016001600160401b0381118282101715620015c957620015c9620012fa565b604052908301908085831115620015df57600080fd5b845b8381101562001606578051620015f781620012cf565b825260209182019101620015e1565b509095945050505050565b60006101408083850312156200162657600080fd5b83601f8401126200163657600080fd5b6040518181016001600160401b03811182821017156200165a576200165a620012fa565b6040529083019080858311156200167057600080fd5b845b83811015620016065780516200168881620012cf565b82526020918201910162001672565b600060208284031215620016aa57600080fd5b81518015158114620014dc57600080fd5b600060208284031215620016ce57600080fd5b5051919050565b600060808284031215620016e857600080fd5b82601f830112620016f857600080fd5b604051608081016001600160401b03811182821017156200171d576200171d620012fa565b6040528060808401858111156200173357600080fd5b845b818110156200155f5780516200174b81620012cf565b83526020928301920162001735565b634e487b7160e01b600052602160045260246000fd5b634e487b7160e01b600052601160045260246000fd5b600082198211156200179c576200179c62001770565b500190565b6000600019821415620017b857620017b862001770565b5060010190565b600181811c90821680620017d457607f821691505b60208210811415620017f657634e487b7160e01b600052602260045260246000fd5b50919050565b60805160a05160c05160e05161010051610120516101405161016051610180516101a0516151ba62001bab60003960008181612dae01528181613824015261456901526000818161028501528181612d3901528181612d7401528181612e8201528181612ebd0152818161365701528181613692015281816136d80152818161371d01528181613762015281816137a7015281816137ec01528181614393015281816143d80152818161441d01528181614462015281816144a7015281816144ec0152614531015260008181612479015281816124d50152818161252901528181612df401528181612f4401528181614053015281816140e101528181614916015281816149b20152614a700152600081816103b001528181611ba40152818161227701528181613a450152818161462a015281816146fe0152818161479d01528181614839015281816148d8015281816149740152614a320152600081816105f60152818161145d01528181612452015281816125bc015281816125e501528181612746015281816127db0152818161290901528181613328015281816133850152818161359a01528181613ded01526141d80152600081816104ea0152818161237701528181612f9301528181613f5d01528181613ff5015281816146680152818161473c015281816147db01528181614877015281816149e70152614aa501526000818161043801528181610fa00152818161112c01528181611b03015281816124300152818161250701528181612bc001528181612f0b0152818161360b015281816140a101528181614135015261436801526000818161045f01528181612572015281816126a601526129c80152600081816102f60152818161081601528181610b0201528181610c1201528181610d2e01528181610e0801528181610e9201528181611017015281816112b901528181611495015281816115320152818161175e0152818161192701528181612a5b015281816138d50152818161390201526139a20152600081816104c301528181610573015281816106c0015281816109a101528181610a4901528181610c7101528181610d0c01528181610d7c01528181610e3b01528181610fdb015281816116c201528181611be401528181611c4201528181611cd201528181611ea501528181611ee50152818161222301528181612355015281816123a9015281816124b301528181612ad60152818161362c015281816138b301528181613a9f01528181613c0001528181613ce4015261434701526151ba6000f3fe608060405234801561001057600080fd5b50600436106102535760003560e01c8063951dc22c11610146578063d3033c39116100c3578063eaada38211610087578063eaada382146105a7578063ec78e832146105ba578063ee330ee3146105cd578063fc0c546a146105e0578063fd57a4df146105f1578063ffa1ad741461061857600080fd5b8063d3033c3914610555578063d572fd7f14610568578063d8dfeb4514610571578063de603fdc14610597578063e5328e061461059f57600080fd5b8063c415b95c1161010a578063c415b95c1461050c578063c4f59f9b1461051f578063c965fa8a14610527578063ce5494bb1461052f578063d2c35ce81461054257600080fd5b8063951dc22c14610481578063a3f4df7e14610496578063abc9b45e146104ab578063b2016bd4146104be578063b20fdc0d146104e557600080fd5b80634032b72b116101d4578063795dae6611610198578063795dae66146103f55780637bb7bed1146103fd5780637d7c2a1c146104105780637f44579b14610433578063945c91421461045a57600080fd5b80634032b72b14610375578063440d72481461038857806348cd2ddd146103ab57806374db9ad4146103d25780637752e194146103ed57600080fd5b806316f0115b1161021b57806316f0115b146102f15780631848effa146103255780632b3297f91461033c5780632e1a7d4d1461034f5780633ac9fc111461036257600080fd5b806301681a621461025857806304f4efc51461026d57806306beb80a146102805780631026013a146102bd57806314ae9f2e146102de575b600080fd5b61026b610266366004614bc9565b61063c565b005b61026b61027b366004614be6565b610814565b6102a77f000000000000000000000000000000000000000000000000000000000000000081565b6040516102b49190614c15565b60405180910390f35b6102d06102cb366004614be6565b610960565b6040519081526020016102b4565b61026b6102ec366004614bc9565b610b00565b6103187f000000000000000000000000000000000000000000000000000000000000000081565b6040516102b49190614c3d565b6103186f22d53366457f9d5e68ec105046fc438381565b600254610318906001600160a01b031681565b61026b61035d366004614be6565b610c0f565b61026b610370366004614be6565b610e62565b61026b610383366004614bc9565b610e90565b61039b610396366004614bc9565b610f9c565b60405190151581526020016102b4565b6102d07f000000000000000000000000000000000000000000000000000000000000000081565b61031873d061d61a4d941c39e5453435b6345dc261c2fce081565b61026b611015565b6102d0611112565b61031861040b366004614be6565b6111b6565b6104186111e0565b604080519384526020840192909252908201526060016102b4565b6103187f000000000000000000000000000000000000000000000000000000000000000081565b6103187f000000000000000000000000000000000000000000000000000000000000000081565b61048961121d565b6040516102b49190614c51565b61049e611229565b6040516102b49190614cca565b61026b6104b9366004614bc9565b6112b7565b6103187f000000000000000000000000000000000000000000000000000000000000000081565b6103187f000000000000000000000000000000000000000000000000000000000000000081565b600154610318906001600160a01b031681565b6104896113e1565b6102d0611443565b61026b61053d366004614bc9565b611492565b61026b610550366004614bc9565b61175c565b61026b610563366004614bc9565b611925565b6102d060065481565b7f0000000000000000000000000000000000000000000000000000000000000000610318565b6102d0611ae2565b6102d0611b92565b600754610318906001600160a01b031681565b600054610318906001600160a01b031681565b6102d06105db366004614cfd565b611c19565b6000546001600160a01b0316610318565b6103187f000000000000000000000000000000000000000000000000000000000000000081565b61049e604051806040016040528060058152602001640352e312e360dc1b81525081565b610649335b600390611fba565b61066e5760405162461bcd60e51b815260040161066590614d29565b60405180910390fd5b6001546001600160a01b03166106be5760405162461bcd60e51b81526020600482015260156024820152741999594b58dbdb1b1958dd1bdc8b5b9bdd0b5cd95d605a1b6044820152606401610665565b7f00000000000000000000000000000000000000000000000000000000000000006001600160a01b0316816001600160a01b031614156107105760405162461bcd60e51b815260040161066590614d59565b61071981610f9c565b156107365760405162461bcd60e51b815260040161066590614d90565b6001600160a01b03811673eeeeeeeeeeeeeeeeeeeeeeeeeeeeeeeeeeeeeeee141561077457600154610771906001600160a01b031647611fdc565b50565b6040516370a0823160e01b81526000906001600160a01b038316906370a08231906107a3903090600401614c3d565b60206040518083038186803b1580156107bb57600080fd5b505afa1580156107cf573d6000803e3d6000fd5b505050506040513d601f19601f820116820180604052508101906107f39190614dbe565b600154909150610810906001600160a01b038481169116836120fa565b5050565b7f00000000000000000000000000000000000000000000000000000000000000006001600160a01b0316630c340a246040518163ffffffff1660e01b815260040160206040518083038186803b15801561086d57600080fd5b505afa158015610881573d6000803e3d6000fd5b505050506040513d601f19601f820116820180604052508101906108a59190614dd7565b6001600160a01b0316336001600160a01b0316146108d55760405162461bcd60e51b815260040161066590614df4565b612710811061091f5760405162461bcd60e51b8152602060048201526016602482015275696e76616c69642d736c6970706167652d76616c756560501b6044820152606401610665565b60065460408051918252602082018390527f43a94473b3422f31e660358900c02b907f22142a3224beace1f2b9f1fa079a9e910160405180910390a1600655565b600061096b33610641565b6109875760405162461bcd60e51b815260040161066590614d29565b6040516370a0823160e01b81526000906001600160a01b037f000000000000000000000000000000000000000000000000000000000000000016906370a08231906109d6903090600401614c3d565b60206040518083038186803b1580156109ee57600080fd5b505afa158015610a02573d6000803e3d6000fd5b505050506040513d601f19601f82011682018060405250810190610a269190614dbe565b9050610a3061215d565b6040516370a0823160e01b815281906001600160a01b037f000000000000000000000000000000000000000000000000000000000000000016906370a0823190610a7e903090600401614c3d565b60206040518083038186803b158015610a9657600080fd5b505afa158015610aaa573d6000803e3d6000fd5b505050506040513d601f19601f82011682018060405250810190610ace9190614dbe565b610ad89190614e41565b915082821015610afa5760405162461bcd60e51b815260040161066590614e58565b50919050565b7f00000000000000000000000000000000000000000000000000000000000000006001600160a01b0316630c340a246040518163ffffffff1660e01b815260040160206040518083038186803b158015610b5957600080fd5b505afa158015610b6d573d6000803e3d6000fd5b505050506040513d601f19601f82011682018060405250810190610b919190614dd7565b6001600160a01b0316336001600160a01b031614610bc15760405162461bcd60e51b815260040161066590614df4565b610bcc60038261225b565b6107715760405162461bcd60e51b81526020600482015260146024820152731c995b5bdd994b5ad9595c195c8b59985a5b195960621b6044820152606401610665565b337f00000000000000000000000000000000000000000000000000000000000000006001600160a01b031614610c575760405162461bcd60e51b815260040161066590614e86565b6040516370a0823160e01b81526000906001600160a01b037f000000000000000000000000000000000000000000000000000000000000000016906370a0823190610ca6903090600401614c3d565b60206040518083038186803b158015610cbe57600080fd5b505afa158015610cd2573d6000803e3d6000fd5b505050506040513d601f19601f82011682018060405250810190610cf69190614dbe565b9050818110610d53576108106001600160a01b037f0000000000000000000000000000000000000000000000000000000000000000167f0000000000000000000000000000000000000000000000000000000000000000846120fa565b610d65610d608284614e41565b612270565b6040516370a0823160e01b81526001600160a01b037f000000000000000000000000000000000000000000000000000000000000000016906370a0823190610db1903090600401614c3d565b60206040518083038186803b158015610dc957600080fd5b505afa158015610ddd573d6000803e3d6000fd5b505050506040513d601f19601f82011682018060405250810190610e019190614dbe565b90506108107f0000000000000000000000000000000000000000000000000000000000000000610e318484612321565b6001600160a01b037f00000000000000000000000000000000000000000000000000000000000000001691906120fa565b610e6b33610641565b610e875760405162461bcd60e51b815260040161066590614d29565b61077181612337565b7f00000000000000000000000000000000000000000000000000000000000000006001600160a01b0316630c340a246040518163ffffffff1660e01b815260040160206040518083038186803b158015610ee957600080fd5b505afa158015610efd573d6000803e3d6000fd5b505050506040513d601f19601f82011682018060405250810190610f219190614dd7565b6001600160a01b0316336001600160a01b031614610f515760405162461bcd60e51b815260040161066590614df4565b610f5c600382611f9e565b6107715760405162461bcd60e51b81526020600482015260116024820152701859190b5ad9595c195c8b59985a5b1959607a1b6044820152606401610665565b60007f00000000000000000000000000000000000000000000000000000000000000006001600160a01b0316826001600160a01b0316148061100f57507f00000000000000000000000000000000000000000000000000000000000000006001600160a01b0316826001600160a01b0316145b92915050565b7f00000000000000000000000000000000000000000000000000000000000000006001600160a01b0316630c340a246040518163ffffffff1660e01b815260040160206040518083038186803b15801561106e57600080fd5b505afa158015611082573d6000803e3d6000fd5b505050506040513d601f19601f820116820180604052508101906110a69190614dd7565b6001600160a01b0316336001600160a01b0316146110d65760405162461bcd60e51b815260040161066590614df4565b6110de61215d565b6110e661254e565b80516110fa91600891602090910190614ae4565b506111056000612337565b611110600019612337565b565b6040516370a0823160e01b81526000906001600160a01b037f000000000000000000000000000000000000000000000000000000000000000016906370a0823190611161903090600401614c3d565b60206040518083038186803b15801561117957600080fd5b505afa15801561118d573d6000803e3d6000fd5b505050506040513d601f19601f820116820180604052508101906111b19190614dbe565b905090565b600881815481106111c657600080fd5b6000918252602090912001546001600160a01b0316905081565b600080806111ed33610641565b6112095760405162461bcd60e51b815260040161066590614d29565b611211612a22565b9250925092505b909192565b60606111b16003612ac7565b6005805461123690614eb9565b80601f016020809104026020016040519081016040528092919081815260200182805461126290614eb9565b80156112af5780601f10611284576101008083540402835291602001916112af565b820191906000526020600020905b81548152906001019060200180831161129257829003601f168201915b505050505081565b7f00000000000000000000000000000000000000000000000000000000000000006001600160a01b0316630c340a246040518163ffffffff1660e01b815260040160206040518083038186803b15801561131057600080fd5b505afa158015611324573d6000803e3d6000fd5b505050506040513d601f19601f820116820180604052508101906113489190614dd7565b6001600160a01b0316336001600160a01b0316146113785760405162461bcd60e51b815260040161066590614df4565b6007546040517fc96bca3f57d35a1057a3357bced51fac157918147faa56845639671c516ec69c916113b7916001600160a01b03909116908490614eee565b60405180910390a1600780546001600160a01b0319166001600160a01b0392909216919091179055565b6060600880548060200260200160405190810160405280929190818152602001828054801561143957602002820191906000526020600020905b81546001600160a01b0316815260019091019060200180831161141b575b5050505050905090565b6040516370a0823160e01b81526000906001600160a01b037f000000000000000000000000000000000000000000000000000000000000000016906370a0823190611161903090600401614c3d565b337f00000000000000000000000000000000000000000000000000000000000000006001600160a01b0316146114da5760405162461bcd60e51b815260040161066590614e86565b6001600160a01b0381166115305760405162461bcd60e51b815260206004820152601c60248201527f6e65772d73747261746567792d616464726573732d69732d7a65726f000000006044820152606401610665565b7f00000000000000000000000000000000000000000000000000000000000000006001600160a01b0316816001600160a01b03166316f0115b6040518163ffffffff1660e01b815260040160206040518083038186803b15801561159357600080fd5b505afa1580156115a7573d6000803e3d6000fd5b505050506040513d601f19601f820116820180604052508101906115cb9190614dd7565b6001600160a01b03161461161a5760405162461bcd60e51b81526020600482015260166024820152756e6f742d76616c69642d6e65772d737472617465677960501b6044820152606401610665565b61162381612ad4565b6000546040516370a0823160e01b81526116bc9183916001600160a01b03909116906370a0823190611659903090600401614c3d565b60206040518083038186803b15801561167157600080fd5b505afa158015611685573d6000803e3d6000fd5b505050506040513d601f19601f820116820180604052508101906116a99190614dbe565b6000546001600160a01b031691906120fa565b610771817f00000000000000000000000000000000000000000000000000000000000000006001600160a01b03166370a08231306040518263ffffffff1660e01b815260040161170c9190614c3d565b60206040518083038186803b15801561172457600080fd5b505afa158015611738573d6000803e3d6000fd5b505050506040513d601f19601f82011682018060405250810190610e319190614dbe565b7f00000000000000000000000000000000000000000000000000000000000000006001600160a01b0316630c340a246040518163ffffffff1660e01b815260040160206040518083038186803b1580156117b557600080fd5b505afa1580156117c9573d6000803e3d6000fd5b505050506040513d601f19601f820116820180604052508101906117ed9190614dd7565b6001600160a01b0316336001600160a01b03161461181d5760405162461bcd60e51b815260040161066590614df4565b6001600160a01b0381166118735760405162461bcd60e51b815260206004820152601d60248201527f6665652d636f6c6c6563746f722d616464726573732d69732d7a65726f0000006044820152606401610665565b6001546001600160a01b03828116911614156118c95760405162461bcd60e51b81526020600482015260156024820152746665652d636f6c6c6563746f722d69732d73616d6560581b6044820152606401610665565b6001546040516001600160a01b038084169216907f0f06062680f9bd68e786e9980d9bb03d73d5620fc3b345e417b6eacb310b970690600090a3600180546001600160a01b0319166001600160a01b0392909216919091179055565b7f00000000000000000000000000000000000000000000000000000000000000006001600160a01b0316630c340a246040518163ffffffff1660e01b815260040160206040518083038186803b15801561197e57600080fd5b505afa158015611992573d6000803e3d6000fd5b505050506040513d601f19601f820116820180604052508101906119b69190614dd7565b6001600160a01b0316336001600160a01b0316146119e65760405162461bcd60e51b815260040161066590614df4565b6001600160a01b038116611a365760405162461bcd60e51b8152602060048201526017602482015276737761707065722d616464726573732d69732d7a65726f60481b6044820152606401610665565b6002546001600160a01b0382811691161415611a865760405162461bcd60e51b815260206004820152600f60248201526e737761707065722d69732d73616d6560881b6044820152606401610665565b6002546040516001600160a01b038084169216907f6c953b7ec311055c20b96a42cea31e89528e375b1bf953a503db40854b3188fe90600090a3600280546001600160a01b0319166001600160a01b0392909216919091179055565b6000611aec611443565b6040516370a0823160e01b81526001600160a01b037f000000000000000000000000000000000000000000000000000000000000000016906370a0823190611b38903090600401614c3d565b60206040518083038186803b158015611b5057600080fd5b505afa158015611b64573d6000803e3d6000fd5b505050506040513d601f19601f82011682018060405250810190611b889190614dbe565b6111b19190614f08565b6000611bcd611b9f611ae2565b611bc87f0000000000000000000000000000000000000000000000000000000000000000612cad565b612d26565b6040516370a0823160e01b81526001600160a01b037f000000000000000000000000000000000000000000000000000000000000000016906370a0823190611b38903090600401614c3d565b6000611c2433610641565b611c405760405162461bcd60e51b815260040161066590614d29565b7f00000000000000000000000000000000000000000000000000000000000000006001600160a01b0316836001600160a01b03161415611c925760405162461bcd60e51b815260040161066590614d59565b611c9b83610f9c565b15611cb85760405162461bcd60e51b815260040161066590614d90565b6040516370a0823160e01b81526000906001600160a01b037f000000000000000000000000000000000000000000000000000000000000000016906370a0823190611d07903090600401614c3d565b60206040518083038186803b158015611d1f57600080fd5b505afa158015611d33573d6000803e3d6000fd5b505050506040513d601f19601f82011682018060405250810190611d579190614dbe565b90506000846001600160a01b03166370a08231306040518263ffffffff1660e01b8152600401611d879190614c3d565b60206040518083038186803b158015611d9f57600080fd5b505afa158015611db3573d6000803e3d6000fd5b505050506040513d601f19601f82011682018060405250810190611dd79190614dbe565b90508015611ecc57600254604051636eb1769f60e11b81526001600160a01b038088169263dd62ed3e92611e119230921690600401614eee565b60206040518083038186803b158015611e2957600080fd5b505afa158015611e3d573d6000803e3d6000fd5b505050506040513d601f19601f82011682018060405250810190611e619190614dbe565b811115611e9f57600254611e83906001600160a01b0387811691166000613015565b600254611e9f906001600160a01b038781169116600019613015565b611eca857f000000000000000000000000000000000000000000000000000000000000000083613138565b505b6040516370a0823160e01b815282906001600160a01b037f000000000000000000000000000000000000000000000000000000000000000016906370a0823190611f1a903090600401614c3d565b60206040518083038186803b158015611f3257600080fd5b505afa158015611f46573d6000803e3d6000fd5b505050506040513d601f19601f82011682018060405250810190611f6a9190614dbe565b611f749190614e41565b925083831015611f965760405162461bcd60e51b815260040161066590614e58565b505092915050565b6000611fb3836001600160a01b0384166131cc565b9392505050565b6001600160a01b03811660009081526001830160205260408120541515611fb3565b8047101561202c5760405162461bcd60e51b815260206004820152601d60248201527f416464726573733a20696e73756666696369656e742062616c616e63650000006044820152606401610665565b6000826001600160a01b03168260405160006040518083038185875af1925050503d8060008114612079576040519150601f19603f3d011682016040523d82523d6000602084013e61207e565b606091505b50509050806120f55760405162461bcd60e51b815260206004820152603a60248201527f416464726573733a20756e61626c6520746f2073656e642076616c75652c207260448201527f6563697069656e74206d617920686176652072657665727465640000000000006064820152608401610665565b505050565b6040516001600160a01b0383166024820152604481018290526120f590849063a9059cbb60e01b906064015b60408051601f198184030181529190526020810180516001600160e01b03166001600160e01b03199093169290921790915261321b565b6121656132ed565b505060085460005b818110156108105760006008828154811061218a5761218a614f20565b60009182526020822001546040516370a0823160e01b81526001600160a01b03909116925082906370a08231906121c5903090600401614c3d565b60206040518083038186803b1580156121dd57600080fd5b505afa1580156121f1573d6000803e3d6000fd5b505050506040513d601f19601f820116820180604052508101906122159190614dbe565b9050801561224857612248827f0000000000000000000000000000000000000000000000000000000000000000836133f9565b50508061225490614f36565b905061216d565b6000611fb3836001600160a01b03841661348b565b600061229b7f0000000000000000000000000000000000000000000000000000000000000000612cad565b905060006122a7611112565b905060006122b3611443565b6122bd9083614f08565b905060006122e86122ce8386612d26565b6122d88488614f51565b6122e29190614f70565b83612321565b9050806122f6575050505050565b828111156123105761231061230b8483614e41565b61357e565b61231a81856135fb565b5050505050565b60008183106123305781611fb3565b5090919050565b612340816138a6565b6002546001600160a01b039081169061239c907f0000000000000000000000000000000000000000000000000000000000000000167f000000000000000000000000000000000000000000000000000000000000000084613015565b6123d06001600160a01b037f0000000000000000000000000000000000000000000000000000000000000000168284613015565b60085460005b81811015612422576124128385600884815481106123f6576123f6614f20565b6000918252602090912001546001600160a01b03169190613015565b61241b81614f36565b90506123d6565b506124776001600160a01b037f0000000000000000000000000000000000000000000000000000000000000000167f000000000000000000000000000000000000000000000000000000000000000085613015565b7f00000000000000000000000000000000000000000000000000000000000000006001600160a01b0316156120f5576124fa6001600160a01b037f0000000000000000000000000000000000000000000000000000000000000000167f000000000000000000000000000000000000000000000000000000000000000085613015565b6120f56001600160a01b037f0000000000000000000000000000000000000000000000000000000000000000167f000000000000000000000000000000000000000000000000000000000000000085613015565b604080516001808252818301909252606091602080830190803683370190505090507f0000000000000000000000000000000000000000000000000000000000000000816000815181106125a4576125a4614f20565b6001600160a01b0392831660209182029290920101527f0000000000000000000000000000000000000000000000000000000000000000166125e35790565b7f00000000000000000000000000000000000000000000000000000000000000006001600160a01b03166316fa50b16040518163ffffffff1660e01b815260040160206040518083038186803b15801561263c57600080fd5b505afa92505050801561266c575060408051601f3d908101601f1916820190925261266991810190614dd7565b60015b61267557612730565b60025b6040519080825280602002602001820160405280156126a1578160200160208202803683370190505b5091507f0000000000000000000000000000000000000000000000000000000000000000826000815181106126d8576126d8614f20565b60200260200101906001600160a01b031690816001600160a01b031681525050808260018151811061270c5761270c614f20565b60200260200101906001600160a01b031690816001600160a01b0316815250505090565b6040516354c49fe960e01b8152600060048201527f00000000000000000000000000000000000000000000000000000000000000006001600160a01b0316906354c49fe99060240160206040518083038186803b15801561279057600080fd5b505afa9250505080156127c0575060408051601f3d908101601f191682019092526127bd91810190614dd7565b60015b6127c75790565b6001600160a01b0381166127d9575090565b7f00000000000000000000000000000000000000000000000000000000000000006001600160a01b031663963c94b96040518163ffffffff1660e01b815260040160206040518083038186803b15801561283257600080fd5b505afa925050508015612862575060408051601f3d908101601f1916820190925261285f91810190614dbe565b60015b61286d576002612678565b612878816001614f08565b67ffffffffffffffff81111561289057612890614f92565b6040519080825280602002602001820160405280156128b9578160200160208202803683370190505b50925081836000815181106128d0576128d0614f20565b6001600160a01b039092166020928302919091019091015260015b818110156129c5576040516354c49fe960e01b8152600481018290527f00000000000000000000000000000000000000000000000000000000000000006001600160a01b0316906354c49fe99060240160206040518083038186803b15801561295357600080fd5b505afa158015612967573d6000803e3d6000fd5b505050506040513d601f19601f8201168201806040525081019061298b9190614dd7565b84828151811061299d5761299d614f20565b6001600160a01b03909216602092830291909101909101526129be81614f36565b90506128eb565b507f00000000000000000000000000000000000000000000000000000000000000008382815181106129f9576129f9614f20565b60200260200101906001600160a01b031690816001600160a01b031681525050505090565b5090565b6000806000612a2f6138fa565b6040516302df682360e11b815260048101849052602481018390526044810182905292955090935091507f00000000000000000000000000000000000000000000000000000000000000006001600160a01b0316906305bed04690606401600060405180830381600087803b158015612aa757600080fd5b505af1158015612abb573d6000803e3d6000fd5b50505050611218613cc9565b60606000611fb383613d76565b7f00000000000000000000000000000000000000000000000000000000000000006001600160a01b0316816001600160a01b031663d8dfeb456040518163ffffffff1660e01b815260040160206040518083038186803b158015612b3757600080fd5b505afa158015612b4b573d6000803e3d6000fd5b505050506040513d601f19601f82011682018060405250810190612b6f9190614dd7565b6001600160a01b031614612bbe5760405162461bcd60e51b81526020600482015260166024820152753bb937b73396b1b7b63630ba32b930b616ba37b5b2b760511b6044820152606401610665565b7f00000000000000000000000000000000000000000000000000000000000000006001600160a01b0316816001600160a01b031663fc0c546a6040518163ffffffff1660e01b815260040160206040518083038186803b158015612c2157600080fd5b505afa158015612c35573d6000803e3d6000fd5b505050506040513d601f19601f82011682018060405250810190612c599190614dd7565b6001600160a01b031614612ca55760405162461bcd60e51b81526020600482015260136024820152723bb937b73396b932b1b2b4b83a16ba37b5b2b760691b6044820152606401610665565b610771613dd2565b600060016001607f1b03198212158015612cca57506001607f1b82125b612a1e5760405162461bcd60e51b815260206004820152602760248201527f53616665436173743a2076616c756520646f65736e27742066697420696e20316044820152663238206269747360c81b6064820152608401610665565b600082612d355750600061100f565b60027f00000000000000000000000000000000000000000000000000000000000000006007811115612d6957612d69614bff565b1480612dcf575060077f00000000000000000000000000000000000000000000000000000000000000006007811115612da457612da4614bff565b148015612dcf57507f0000000000000000000000000000000000000000000000000000000000000000155b15612e7e5760405163cc2b27d760e01b815260048101849052600f83900b60248201527f00000000000000000000000000000000000000000000000000000000000000006001600160a01b03169063cc2b27d7906044015b60206040518083038186803b158015612e3f57600080fd5b505afa158015612e53573d6000803e3d6000fd5b505050506040513d601f19601f82011682018060405250810190612e779190614dbe565b905061100f565b60067f00000000000000000000000000000000000000000000000000000000000000006007811115612eb257612eb2614bff565b1480612eef575060077f00000000000000000000000000000000000000000000000000000000000000006007811115612eed57612eed614bff565b145b15612f73576040516341b028f360e01b81526001600160a01b037f00000000000000000000000000000000000000000000000000000000000000008116600483015260248201859052600f84900b60448301527f000000000000000000000000000000000000000000000000000000000000000016906341b028f390606401612e27565b60405163cc2b27d760e01b815260048101849052600f83900b60248201527f00000000000000000000000000000000000000000000000000000000000000006001600160a01b03169063cc2b27d79060440160206040518083038186803b158015612fdd57600080fd5b505afa158015612ff1573d6000803e3d6000fd5b505050506040513d601f19601f82011682018060405250810190611fb39190614dbe565b80158061309d5750604051636eb1769f60e11b81526001600160a01b0384169063dd62ed3e9061304b9030908690600401614eee565b60206040518083038186803b15801561306357600080fd5b505afa158015613077573d6000803e3d6000fd5b505050506040513d601f19601f8201168201806040525081019061309b9190614dbe565b155b6131085760405162461bcd60e51b815260206004820152603660248201527f5361666545524332303a20617070726f76652066726f6d206e6f6e2d7a65726f60448201527520746f206e6f6e2d7a65726f20616c6c6f77616e636560501b6064820152608401610665565b6040516001600160a01b0383166024820152604481018290526120f590849063095ea7b360e01b90606401612126565b600254604051636ccb2b0160e01b81526000916001600160a01b031690636ccb2b0190613172908790879087906001903090600401614fa8565b602060405180830381600087803b15801561318c57600080fd5b505af11580156131a0573d6000803e3d6000fd5b505050506040513d601f19601f820116820180604052508101906131c49190614dbe565b949350505050565b60008181526001830160205260408120546132135750815460018181018455600084815260208082209093018490558454848252828601909352604090209190915561100f565b50600061100f565b6000613270826040518060400160405280602081526020017f5361666545524332303a206c6f772d6c6576656c2063616c6c206661696c6564815250856001600160a01b0316613e729092919063ffffffff16565b8051909150156120f5578080602001905181019061328e9190614fd8565b6120f55760405162461bcd60e51b815260206004820152602a60248201527f5361666545524332303a204552433230206f7065726174696f6e20646964206e6044820152691bdd081cdd58d8d9595960b21b6064820152608401610665565b6000804660011415613383576040516335313c2160e11b815273d061d61a4d941c39e5453435b6345dc261c2fce090636a62784290613350907f000000000000000000000000000000000000000000000000000000000000000090600401614c3d565b600060405180830381600087803b15801561336a57600080fd5b505af115801561337e573d6000803e3d6000fd5b505050505b7f00000000000000000000000000000000000000000000000000000000000000006001600160a01b031663e6f1daf26040518163ffffffff1660e01b8152600401600060405180830381600087803b1580156133de57600080fd5b505af19250505080156133ef575060015b5050600091829150565b600254604051636ccb2b0160e01b81526001600160a01b0390911690636ccb2b0190613432908690869086906001903090600401614fa8565b602060405180830381600087803b15801561344c57600080fd5b505af192505050801561347c575060408051601f3d908101601f1916820190925261347991810190614dbe565b60015b61348557505050565b50505050565b600081815260018301602052604081205480156135745760006134af600183614e41565b85549091506000906134c390600190614e41565b90508181146135285760008660000182815481106134e3576134e3614f20565b906000526020600020015490508087600001848154811061350657613506614f20565b6000918252602080832090910192909255918252600188019052604090208390555b855486908061353957613539614ffa565b60019003818190600052602060002001600090559055856001016000868152602001908152602001600020600090556001935050505061100f565b600091505061100f565b801561077157604051632e1a7d4d60e01b8152600481018290527f00000000000000000000000000000000000000000000000000000000000000006001600160a01b031690632e1a7d4d906024015b600060405180830381600087803b1580156135e757600080fd5b505af115801561231a573d6000803e3d6000fd5b81613604575050565b60006136517f00000000000000000000000000000000000000000000000000000000000000007f000000000000000000000000000000000000000000000000000000000000000085613e81565b905060007f0000000000000000000000000000000000000000000000000000000000000000600781111561368757613687614bff565b14806136c4575060017f000000000000000000000000000000000000000000000000000000000000000060078111156136c2576136c2614bff565b145b156136d4576120f5838284613f36565b60037f0000000000000000000000000000000000000000000000000000000000000000600781111561370857613708614bff565b1415613719576120f5838284613fc7565b60047f0000000000000000000000000000000000000000000000000000000000000000600781111561374d5761374d614bff565b141561375e576120f5838284613fc7565b60027f0000000000000000000000000000000000000000000000000000000000000000600781111561379257613792614bff565b14156137a3576120f583828461402c565b60067f000000000000000000000000000000000000000000000000000000000000000060078111156137d7576137d7614bff565b14156137e8576120f583828461408a565b60077f0000000000000000000000000000000000000000000000000000000000000000600781111561381c5761381c614bff565b141561385e577f000000000000000000000000000000000000000000000000000000000000000015613853576120f583828461408a565b6120f583828461402c565b60405162461bcd60e51b815260206004820152601a60248201527f77697468647261772d66726f6d2d63757276652d6661696c65640000000000006044820152606401610665565b6107716001600160a01b037f0000000000000000000000000000000000000000000000000000000000000000167f000000000000000000000000000000000000000000000000000000000000000083613015565b6000806000807f00000000000000000000000000000000000000000000000000000000000000006001600160a01b031663d53ddc26306040518263ffffffff1660e01b815260040161394c9190614c3d565b60206040518083038186803b15801561396457600080fd5b505afa158015613978573d6000803e3d6000fd5b505050506040513d601f19601f8201168201806040525081019061399c9190614dbe565b905060007f00000000000000000000000000000000000000000000000000000000000000006001600160a01b0316639f2b2833306040518263ffffffff1660e01b81526004016139ec9190614c3d565b60206040518083038186803b158015613a0457600080fd5b505afa158015613a18573d6000803e3d6000fd5b505050506040513d601f19601f82011682018060405250810190613a3c9190614dbe565b90506000613a697f0000000000000000000000000000000000000000000000000000000000000000612cad565b90506000613a75611112565b90506000613a81611443565b613a8b9083614f08565b90506000613a998285612d26565b905060007f00000000000000000000000000000000000000000000000000000000000000006001600160a01b03166370a08231306040518263ffffffff1660e01b8152600401613ae99190614c3d565b60206040518083038186803b158015613b0157600080fd5b505afa158015613b15573d6000803e3d6000fd5b505050506040513d601f19601f82011682018060405250810190613b399190614dbe565b90506000613b478383614f08565b905086811115613b6257613b5b8782614e41565b9a50613b6f565b613b6c8188614e41565b99505b6000613b7b898d614f08565b905082811115613c8c576000613b9a613b948584614e41565b86612321565b90508015613c8a576000613bc286613bb28985614f51565b613bbc9190614f70565b88612321565b90508015613c885787811115613bdf57613bdf61230b8983614e41565b613be9818a6135fb565b6040516370a0823160e01b81526001600160a01b037f000000000000000000000000000000000000000000000000000000000000000016906370a0823190613c35903090600401614c3d565b60206040518083038186803b158015613c4d57600080fd5b505afa158015613c61573d6000803e3d6000fd5b505050506040513d601f19601f82011682018060405250810190613c859190614dbe565b94505b505b505b613c96838a612321565b9950898311613ca6576000613cb9565b613cb9613cb38b85614e41565b8d612321565b9b50505050505050505050909192565b6040516370a0823160e01b8152613d6e906001600160a01b037f000000000000000000000000000000000000000000000000000000000000000016906370a0823190613d19903090600401614c3d565b60206040518083038186803b158015613d3157600080fd5b505afa158015613d45573d6000803e3d6000fd5b505050506040513d601f19601f82011682018060405250810190613d699190614dbe565b614110565b61111061411b565b606081600001805480602002602001604051908101604052809291908181526020018280548015613dc657602002820191906000526020600020905b815481526020019060010190808311613db2575b50505050509050919050565b6040516370a0823160e01b8152611110906001600160a01b037f000000000000000000000000000000000000000000000000000000000000000016906370a0823190613e22903090600401614c3d565b60206040518083038186803b158015613e3a57600080fd5b505afa158015613e4e573d6000803e3d6000fd5b505050506040513d601f19601f8201168201806040525081019061230b9190614dbe565b60606131c4848460008561420f565b6000612710600654612710613e969190614e41565b600754604051632d9198e160e21b81526001600160a01b0388811660048301528781166024830152604482018790529091169063b64663849060640160206040518083038186803b158015613eea57600080fd5b505afa158015613efe573d6000803e3d6000fd5b505050506040513d601f19601f82011682018060405250810190613f229190614dbe565b613f2c9190614f51565b6131c49190614f70565b604051630d2680e960e11b815260048101849052600f82900b6024820152604481018390527f00000000000000000000000000000000000000000000000000000000000000006001600160a01b031690631a4d01d2906064015b600060405180830381600087803b158015613faa57600080fd5b505af1158015613fbe573d6000803e3d6000fd5b50505050505050565b60405163517a55a360e01b815260048101849052600f82900b602482015260448101839052600160648201527f00000000000000000000000000000000000000000000000000000000000000006001600160a01b03169063517a55a390608401613f90565b604051630d2680e960e11b815260048101849052600f82900b6024820152604481018390527f00000000000000000000000000000000000000000000000000000000000000006001600160a01b031690631a4d01d290606401613f90565b6040516314f6943160e11b81526001600160a01b037f00000000000000000000000000000000000000000000000000000000000000008116600483015260248201859052600f83900b6044830152606482018490527f000000000000000000000000000000000000000000000000000000000000000016906329ed286290608401613f90565b610771816000614337565b6040516370a0823160e01b81526000906001600160a01b037f000000000000000000000000000000000000000000000000000000000000000016906370a082319061416a903090600401614c3d565b60206040518083038186803b15801561418257600080fd5b505afa158015614196573d6000803e3d6000fd5b505050506040513d601f19601f820116820180604052508101906141ba9190614dbe565b905080156107715760405163b6b55f2560e01b8152600481018290527f00000000000000000000000000000000000000000000000000000000000000006001600160a01b03169063b6b55f25906024016135cd565b6060824710156142705760405162461bcd60e51b815260206004820152602660248201527f416464726573733a20696e73756666696369656e742062616c616e636520666f6044820152651c8818d85b1b60d21b6064820152608401610665565b843b6142be5760405162461bcd60e51b815260206004820152601d60248201527f416464726573733a2063616c6c20746f206e6f6e2d636f6e74726163740000006044820152606401610665565b600080866001600160a01b031685876040516142da9190615010565b60006040518083038185875af1925050503d8060008114614317576040519150601f19603f3d011682016040523d82523d6000602084013e61431c565b606091505b509150915061432c8282866145e5565b979650505050505050565b81614340575050565b600061438d7f00000000000000000000000000000000000000000000000000000000000000007f000000000000000000000000000000000000000000000000000000000000000085613e81565b905060007f000000000000000000000000000000000000000000000000000000000000000060078111156143c3576143c3614bff565b14156143d4576120f583828461461e565b60037f0000000000000000000000000000000000000000000000000000000000000000600781111561440857614408614bff565b1415614419576120f58382846146f2565b60017f0000000000000000000000000000000000000000000000000000000000000000600781111561444d5761444d614bff565b141561445e576120f5838284614791565b60047f0000000000000000000000000000000000000000000000000000000000000000600781111561449257614492614bff565b14156144a3576120f583828461482d565b60027f000000000000000000000000000000000000000000000000000000000000000060078111156144d7576144d7614bff565b14156144e8576120f58382846148cc565b60067f0000000000000000000000000000000000000000000000000000000000000000600781111561451c5761451c614bff565b141561452d576120f5838284614968565b60077f0000000000000000000000000000000000000000000000000000000000000000600781111561456157614561614bff565b14156145a3577f000000000000000000000000000000000000000000000000000000000000000015614598576120f5838284614a26565b6120f58382846148cc565b60405162461bcd60e51b815260206004820152601760248201527619195c1bdcda5d0b5d1bcb58dd5c9d994b59985a5b1959604a1b6044820152606401610665565b606083156145f4575081611fb3565b8251156146045782518084602001fd5b8160405162461bcd60e51b81526004016106659190614cca565b614626614b45565b83817f00000000000000000000000000000000000000000000000000000000000000006002811061465957614659614f20565b60200201526001600160a01b037f000000000000000000000000000000000000000000000000000000000000000016630b4c7e4d8361469957600061469b565b855b83866040518463ffffffff1660e01b81526004016146ba92919061504f565b6000604051808303818588803b1580156146d357600080fd5b505af11580156146e7573d6000803e3d6000fd5b505050505050505050565b6146fa614b45565b83817f00000000000000000000000000000000000000000000000000000000000000006002811061472d5761472d614f20565b60200201526001600160a01b037f00000000000000000000000000000000000000000000000000000000000000001663ee22be238361476d57600061476f565b855b838660016040518563ffffffff1660e01b81526004016146ba9392919061506a565b614799614b63565b83817f0000000000000000000000000000000000000000000000000000000000000000600381106147cc576147cc614f20565b60200201526001600160a01b037f000000000000000000000000000000000000000000000000000000000000000016634515cef38361480c57600061480e565b855b83866040518463ffffffff1660e01b81526004016146ba9291906150b1565b614835614b63565b83817f00000000000000000000000000000000000000000000000000000000000000006003811061486857614868614f20565b60200201526001600160a01b037f000000000000000000000000000000000000000000000000000000000000000016632b6e993a836148a85760006148aa565b855b838660016040518563ffffffff1660e01b81526004016146ba939291906150cc565b6148d4614b81565b83817f00000000000000000000000000000000000000000000000000000000000000006004811061490757614907614f20565b60200201526001600160a01b037f00000000000000000000000000000000000000000000000000000000000000001663029b2f3483614947576000614949565b855b83866040518463ffffffff1660e01b81526004016146ba929190615113565b614970614b63565b83817f0000000000000000000000000000000000000000000000000000000000000000600381106149a3576149a3614f20565b60200201526001600160a01b037f00000000000000000000000000000000000000000000000000000000000000001663a3185179836149e35760006149e5565b855b7f000000000000000000000000000000000000000000000000000000000000000084876040518563ffffffff1660e01b81526004016146ba9392919061512e565b614a2e614b81565b83817f000000000000000000000000000000000000000000000000000000000000000060048110614a6157614a61614f20565b60200201526001600160a01b037f00000000000000000000000000000000000000000000000000000000000000001663384e03db83614aa1576000614aa3565b855b7f000000000000000000000000000000000000000000000000000000000000000084876040518563ffffffff1660e01b81526004016146ba93929190615159565b828054828255906000526020600020908101928215614b39579160200282015b82811115614b3957825182546001600160a01b0319166001600160a01b03909116178255602090920191600190910190614b04565b50612a1e929150614b9f565b60405180604001604052806002906020820280368337509192915050565b60405180606001604052806003906020820280368337509192915050565b60405180608001604052806004906020820280368337509192915050565b5b80821115612a1e5760008155600101614ba0565b6001600160a01b038116811461077157600080fd5b600060208284031215614bdb57600080fd5b8135611fb381614bb4565b600060208284031215614bf857600080fd5b5035919050565b634e487b7160e01b600052602160045260246000fd5b6020810160088310614c3757634e487b7160e01b600052602160045260246000fd5b91905290565b6001600160a01b0391909116815260200190565b6020808252825182820181905260009190848201906040850190845b81811015614c925783516001600160a01b031683529284019291840191600101614c6d565b50909695505050505050565b60005b83811015614cb9578181015183820152602001614ca1565b838111156134855750506000910152565b6020815260008251806020840152614ce9816040850160208701614c9e565b601f01601f19169190910160400192915050565b60008060408385031215614d1057600080fd5b8235614d1b81614bb4565b946020939093013593505050565b60208082526016908201527531b0b63632b916b4b996b737ba16b096b5b2b2b832b960511b604082015260600190565b6020808252601f908201527f6e6f742d616c6c6f7765642d746f2d73776565702d636f6c6c61746572616c00604082015260600190565b60208082526014908201527306e6f742d616c6c6f7765642d746f2d73776565760641b604082015260600190565b600060208284031215614dd057600080fd5b5051919050565b600060208284031215614de957600080fd5b8151611fb381614bb4565b6020808252601a908201527f63616c6c65722d69732d6e6f742d7468652d676f7665726e6f72000000000000604082015260600190565b634e487b7160e01b600052601160045260246000fd5b600082821015614e5357614e53614e2b565b500390565b6020808252601490820152731b9bdd0b595b9bdd59da0b585b5bdd5b9d13dd5d60621b604082015260600190565b60208082526019908201527818d85b1b195c8b5a5ccb5b9bdd0b5d995cdc195c8b5c1bdbdb603a1b604082015260600190565b600181811c90821680614ecd57607f821691505b60208210811415610afa57634e487b7160e01b600052602260045260246000fd5b6001600160a01b0392831681529116602082015260400190565b60008219821115614f1b57614f1b614e2b565b500190565b634e487b7160e01b600052603260045260246000fd5b6000600019821415614f4a57614f4a614e2b565b5060010190565b6000816000190483118215151615614f6b57614f6b614e2b565b500290565b600082614f8d57634e487b7160e01b600052601260045260246000fd5b500490565b634e487b7160e01b600052604160045260246000fd5b6001600160a01b039586168152938516602085015260408401929092526060830152909116608082015260a00190565b600060208284031215614fea57600080fd5b81518015158114611fb357600080fd5b634e487b7160e01b600052603160045260246000fd5b60008251615022818460208701614c9e565b9190910192915050565b8060005b6002811015613485578151845260209384019390910190600101615030565b6060810161505d828561502c565b8260408301529392505050565b60808101615078828661502c565b8360408301528215156060830152949350505050565b8060005b6003811015613485578151845260209384019390910190600101615092565b608081016150bf828561508e565b8260608301529392505050565b60a081016150da828661508e565b8360608301528215156080830152949350505050565b8060005b60048110156134855781518452602093840193909101906001016150f4565b60a0810161512182856150f0565b8260808301529392505050565b6001600160a01b038416815260a0810161514b602083018561508e565b826080830152949350505050565b6001600160a01b038416815260c0810161517660208301856150f0565b8260a083015294935050505056fea2646970667358221220e6a6c71bf22dbcaa674ff351c35164401d8f22425a10c62cb04d15e0607e931b64736f6c63430008090033",
  "devdoc": {
    "kind": "dev",
    "methods": {
      "addKeeper(address)": {
        "params": {
          "_keeperAddress": "keeper address to add."
        }
      },
      "approveToken(uint256)": {
        "details": "Approve all required tokens"
      },
      "isReservedToken(address)": {
        "details": "Check whether given token is reserved or not. Reserved tokens are not allowed to sweep."
      },
      "migrate(address)": {
        "details": "_beforeMigration hook can be implemented in child strategy to do extra steps.",
        "params": {
          "_newStrategy": "Address of new strategy"
        }
      },
      "rebalance()": {
        "returns": {
          "_loss": "Realized loss, if any, in collateral.",
          "_payback": "If strategy has any excess debt, we have to liquidate asset to payback excess debt.",
          "_profit": "Realized profit in collateral."
        }
      },
      "removeKeeper(address)": {
        "params": {
          "_keeperAddress": "keeper address to remove."
        }
      },
      "sweep(address)": {
        "params": {
          "_fromToken": "token address to sweep"
        }
      },
      "updateFeeCollector(address)": {
        "params": {
          "_feeCollector": "fee collector address"
        }
      },
      "updateSwapper(address)": {
        "params": {
          "_swapper": "swapper address"
        }
      },
      "withdraw(uint256)": {
        "params": {
          "_amount": "Amount of collateral token"
        }
      }
    },
    "title": "This strategy will deposit collateral token in a Curve Pool and earn interest.",
    "version": 1
  },
  "userdoc": {
    "kind": "user",
    "methods": {
      "addKeeper(address)": {
        "notice": "Add given address in keepers list."
      },
      "claimAndSwapRewards(uint256)": {
        "notice": "Claim rewardToken and convert rewardToken into collateral token."
      },
      "collateral()": {
        "notice": "Returns address of token correspond to collateral token"
      },
      "keepers()": {
        "notice": "Return list of keepers"
      },
      "migrate(address)": {
        "notice": "Migrate all asset and vault ownership,if any, to new strategy"
      },
      "rebalance()": {
        "notice": "OnlyKeeper: Rebalance profit, loss and investment of this strategy.  Calculate profit, loss and payback of this strategy and realize profit/loss and  withdraw fund for payback, if any, and submit this report to pool."
      },
      "refetchRewardTokens()": {
        "notice": "Rewards token in gauge can be updated any time. This method refresh list. It is recommended to claimAndSwapRewards before calling this function."
      },
      "removeKeeper(address)": {
        "notice": "Remove given address from keepers list."
      },
      "swapToCollateral(address,uint256)": {
        "notice": "onlyKeeper:: Swap given token into collateral token."
      },
      "sweep(address)": {
        "notice": "sweep given token to feeCollector of strategy"
      },
      "token()": {
        "notice": "Returns address of token correspond to receipt token"
      },
      "tvl()": {
        "notice": "Returns collateral balance + collateral deposited to curve"
      },
      "updateFeeCollector(address)": {
        "notice": "Update fee collector"
      },
      "updateSwapper(address)": {
        "notice": "Update swapper"
      },
      "withdraw(uint256)": {
        "notice": "Withdraw collateral token from end protocol."
      }
    },
    "version": 1
  },
  "storageLayout": {
    "storage": [
      {
        "astId": 14393,
        "contract": "vesper-strategies/contracts/strategies/curve/Curve.sol:Curve",
        "label": "receiptToken",
        "offset": 0,
        "slot": "0",
        "type": "t_address"
      },
      {
        "astId": 14399,
        "contract": "vesper-strategies/contracts/strategies/curve/Curve.sol:Curve",
        "label": "feeCollector",
        "offset": 0,
        "slot": "1",
        "type": "t_address"
      },
      {
        "astId": 14402,
        "contract": "vesper-strategies/contracts/strategies/curve/Curve.sol:Curve",
        "label": "swapper",
        "offset": 0,
        "slot": "2",
        "type": "t_contract(IRoutedSwapper)13241"
      },
      {
        "astId": 14415,
        "contract": "vesper-strategies/contracts/strategies/curve/Curve.sol:Curve",
        "label": "_keepers",
        "offset": 0,
        "slot": "3",
        "type": "t_struct(AddressSet)3025_storage"
      },
      {
        "astId": 26926,
        "contract": "vesper-strategies/contracts/strategies/curve/Curve.sol:Curve",
        "label": "NAME",
        "offset": 0,
        "slot": "5",
        "type": "t_string_storage"
      },
      {
        "astId": 26928,
        "contract": "vesper-strategies/contracts/strategies/curve/Curve.sol:Curve",
        "label": "crvSlippage",
        "offset": 0,
        "slot": "6",
        "type": "t_uint256"
      },
      {
        "astId": 26931,
        "contract": "vesper-strategies/contracts/strategies/curve/Curve.sol:Curve",
        "label": "masterOracle",
        "offset": 0,
        "slot": "7",
        "type": "t_contract(IMasterOracle)12925"
      },
      {
        "astId": 26934,
        "contract": "vesper-strategies/contracts/strategies/curve/Curve.sol:Curve",
        "label": "rewardTokens",
        "offset": 0,
        "slot": "8",
        "type": "t_array(t_address)dyn_storage"
      }
    ],
    "types": {
      "t_address": {
        "encoding": "inplace",
        "label": "address",
        "numberOfBytes": "20"
      },
      "t_array(t_address)dyn_storage": {
        "base": "t_address",
        "encoding": "dynamic_array",
        "label": "address[]",
        "numberOfBytes": "32"
      },
      "t_array(t_bytes32)dyn_storage": {
        "base": "t_bytes32",
        "encoding": "dynamic_array",
        "label": "bytes32[]",
        "numberOfBytes": "32"
      },
      "t_bytes32": {
        "encoding": "inplace",
        "label": "bytes32",
        "numberOfBytes": "32"
      },
      "t_contract(IMasterOracle)12925": {
        "encoding": "inplace",
        "label": "contract IMasterOracle",
        "numberOfBytes": "20"
      },
      "t_contract(IRoutedSwapper)13241": {
        "encoding": "inplace",
        "label": "contract IRoutedSwapper",
        "numberOfBytes": "20"
      },
      "t_mapping(t_bytes32,t_uint256)": {
        "encoding": "mapping",
        "key": "t_bytes32",
        "label": "mapping(bytes32 => uint256)",
        "numberOfBytes": "32",
        "value": "t_uint256"
      },
      "t_string_storage": {
        "encoding": "bytes",
        "label": "string",
        "numberOfBytes": "32"
      },
      "t_struct(AddressSet)3025_storage": {
        "encoding": "inplace",
        "label": "struct EnumerableSet.AddressSet",
        "members": [
          {
            "astId": 3024,
            "contract": "vesper-strategies/contracts/strategies/curve/Curve.sol:Curve",
            "label": "_inner",
            "offset": 0,
            "slot": "0",
            "type": "t_struct(Set)2724_storage"
          }
        ],
        "numberOfBytes": "64"
      },
      "t_struct(Set)2724_storage": {
        "encoding": "inplace",
        "label": "struct EnumerableSet.Set",
        "members": [
          {
            "astId": 2719,
            "contract": "vesper-strategies/contracts/strategies/curve/Curve.sol:Curve",
            "label": "_values",
            "offset": 0,
            "slot": "0",
            "type": "t_array(t_bytes32)dyn_storage"
          },
          {
            "astId": 2723,
            "contract": "vesper-strategies/contracts/strategies/curve/Curve.sol:Curve",
            "label": "_indexes",
            "offset": 0,
            "slot": "1",
            "type": "t_mapping(t_bytes32,t_uint256)"
          }
        ],
        "numberOfBytes": "64"
      },
      "t_uint256": {
        "encoding": "inplace",
        "label": "uint256",
        "numberOfBytes": "32"
      }
    }
  }
}