{
  "address": "0xba3905a11280c9a00c0FF1a1Ee257aD372bceFA0",
  "abi": [
    {
      "inputs": [
        {
          "internalType": "address",
          "name": "pool_",
          "type": "address"
        },
        {
          "internalType": "address",
          "name": "crvPool_",
          "type": "address"
        },
        {
          "internalType": "enum Curve.PoolType",
          "name": "curvePoolType_",
          "type": "uint8"
        },
        {
          "internalType": "address",
          "name": "depositZap_",
          "type": "address"
        },
        {
          "internalType": "address",
          "name": "crvToken_",
          "type": "address"
        },
        {
          "internalType": "uint256",
          "name": "crvSlippage_",
          "type": "uint256"
        },
        {
          "internalType": "address",
          "name": "masterOracle_",
          "type": "address"
        },
        {
          "internalType": "address",
          "name": "swapper_",
          "type": "address"
        },
        {
          "internalType": "uint256",
          "name": "collateralIdx_",
          "type": "uint256"
        },
        {
          "internalType": "uint256",
          "name": "convexPoolId_",
          "type": "uint256"
        },
        {
          "internalType": "string",
          "name": "name_",
          "type": "string"
        }
      ],
      "stateMutability": "nonpayable",
      "type": "constructor"
    },
    {
      "anonymous": false,
      "inputs": [
        {
          "indexed": false,
          "internalType": "uint256",
          "name": "oldCrvSlippage",
          "type": "uint256"
        },
        {
          "indexed": false,
          "internalType": "uint256",
          "name": "newCrvSlippage",
          "type": "uint256"
        }
      ],
      "name": "CrvSlippageUpdated",
      "type": "event"
    },
    {
      "anonymous": false,
      "inputs": [
        {
          "indexed": false,
          "internalType": "contract IMasterOracle",
          "name": "oldMasterOracle",
          "type": "address"
        },
        {
          "indexed": false,
          "internalType": "contract IMasterOracle",
          "name": "newMasterOracle",
          "type": "address"
        }
      ],
      "name": "MasterOracleUpdated",
      "type": "event"
    },
    {
      "anonymous": false,
      "inputs": [
        {
          "indexed": false,
          "internalType": "uint256",
          "name": "oldUnlockTime",
          "type": "uint256"
        },
        {
          "indexed": false,
          "internalType": "uint256",
          "name": "newUnlockTime",
          "type": "uint256"
        }
      ],
      "name": "UnlockTimeUpdated",
      "type": "event"
    },
    {
      "anonymous": false,
      "inputs": [
        {
          "indexed": true,
          "internalType": "address",
          "name": "previousFeeCollector",
          "type": "address"
        },
        {
          "indexed": true,
          "internalType": "address",
          "name": "newFeeCollector",
          "type": "address"
        }
      ],
      "name": "UpdatedFeeCollector",
      "type": "event"
    },
    {
      "anonymous": false,
      "inputs": [
        {
          "indexed": true,
          "internalType": "contract IRoutedSwapper",
          "name": "oldSwapper",
          "type": "address"
        },
        {
          "indexed": true,
          "internalType": "contract IRoutedSwapper",
          "name": "newSwapper",
          "type": "address"
        }
      ],
      "name": "UpdatedSwapper",
      "type": "event"
    },
    {
      "inputs": [],
      "name": "ADDRESS_PROVIDER",
      "outputs": [
        {
          "internalType": "contract IAddressProvider",
          "name": "",
          "type": "address"
        }
      ],
      "stateMutability": "view",
      "type": "function"
    },
    {
      "inputs": [],
      "name": "CRV",
      "outputs": [
        {
          "internalType": "address",
          "name": "",
          "type": "address"
        }
      ],
      "stateMutability": "view",
      "type": "function"
    },
    {
      "inputs": [],
      "name": "CRV_MINTER",
      "outputs": [
        {
          "internalType": "contract ITokenMinter",
          "name": "",
          "type": "address"
        }
      ],
      "stateMutability": "view",
      "type": "function"
    },
    {
      "inputs": [],
      "name": "CVX",
      "outputs": [
        {
          "internalType": "address",
          "name": "",
          "type": "address"
        }
      ],
      "stateMutability": "view",
      "type": "function"
    },
    {
      "inputs": [],
      "name": "FXS",
      "outputs": [
        {
          "internalType": "address",
          "name": "",
          "type": "address"
        }
      ],
      "stateMutability": "view",
      "type": "function"
    },
    {
      "inputs": [],
      "name": "NAME",
      "outputs": [
        {
          "internalType": "string",
          "name": "",
          "type": "string"
        }
      ],
      "stateMutability": "view",
      "type": "function"
    },
    {
      "inputs": [],
      "name": "POOL_REGISTRY",
      "outputs": [
        {
          "internalType": "contract IConvexFraxPoolRegistry",
          "name": "",
          "type": "address"
        }
      ],
      "stateMutability": "view",
      "type": "function"
    },
    {
      "inputs": [],
      "name": "VAULT_REGISTRY",
      "outputs": [
        {
          "internalType": "contract IVaultRegistry",
          "name": "",
          "type": "address"
        }
      ],
      "stateMutability": "view",
      "type": "function"
    },
    {
      "inputs": [],
      "name": "VERSION",
      "outputs": [
        {
          "internalType": "string",
          "name": "",
          "type": "string"
        }
      ],
      "stateMutability": "view",
      "type": "function"
    },
    {
      "inputs": [
        {
          "internalType": "address",
          "name": "_keeperAddress",
          "type": "address"
        }
      ],
      "name": "addKeeper",
      "outputs": [],
      "stateMutability": "nonpayable",
      "type": "function"
    },
    {
      "inputs": [],
      "name": "approveToken",
      "outputs": [],
      "stateMutability": "nonpayable",
      "type": "function"
    },
    {
      "inputs": [],
      "name": "collateral",
      "outputs": [
        {
          "internalType": "address",
          "name": "",
          "type": "address"
        }
      ],
      "stateMutability": "view",
      "type": "function"
    },
    {
      "inputs": [],
      "name": "collateralIdx",
      "outputs": [
        {
          "internalType": "uint256",
          "name": "",
          "type": "uint256"
        }
      ],
      "stateMutability": "view",
      "type": "function"
    },
    {
      "inputs": [],
      "name": "collateralToken",
      "outputs": [
        {
          "internalType": "contract IERC20",
          "name": "",
          "type": "address"
        }
      ],
      "stateMutability": "view",
      "type": "function"
    },
    {
      "inputs": [],
      "name": "crvGauge",
      "outputs": [
        {
          "internalType": "contract ILiquidityGaugeV2",
          "name": "",
          "type": "address"
        }
      ],
      "stateMutability": "view",
      "type": "function"
    },
    {
      "inputs": [],
      "name": "crvLp",
      "outputs": [
        {
          "internalType": "contract IERC20",
          "name": "",
          "type": "address"
        }
      ],
      "stateMutability": "view",
      "type": "function"
    },
    {
      "inputs": [],
      "name": "crvPool",
      "outputs": [
        {
          "internalType": "address",
          "name": "",
          "type": "address"
        }
      ],
      "stateMutability": "view",
      "type": "function"
    },
    {
      "inputs": [],
      "name": "crvSlippage",
      "outputs": [
        {
          "internalType": "uint256",
          "name": "",
          "type": "uint256"
        }
      ],
      "stateMutability": "view",
      "type": "function"
    },
    {
      "inputs": [],
      "name": "curvePoolType",
      "outputs": [
        {
          "internalType": "enum Curve.PoolType",
          "name": "",
          "type": "uint8"
        }
      ],
      "stateMutability": "view",
      "type": "function"
    },
    {
      "inputs": [],
      "name": "feeCollector",
      "outputs": [
        {
          "internalType": "address",
          "name": "",
          "type": "address"
        }
      ],
      "stateMutability": "view",
      "type": "function"
    },
    {
      "inputs": [],
      "name": "fraxStaking",
      "outputs": [
        {
          "internalType": "contract IFraxFarmERC20",
          "name": "",
          "type": "address"
        }
      ],
      "stateMutability": "view",
      "type": "function"
    },
    {
      "inputs": [
        {
          "internalType": "address",
          "name": "token_",
          "type": "address"
        }
      ],
      "name": "isReservedToken",
      "outputs": [
        {
          "internalType": "bool",
          "name": "",
          "type": "bool"
        }
      ],
      "stateMutability": "view",
      "type": "function"
    },
    {
      "inputs": [],
      "name": "keepers",
      "outputs": [
        {
          "internalType": "address[]",
          "name": "",
          "type": "address[]"
        }
      ],
      "stateMutability": "view",
      "type": "function"
    },
    {
      "inputs": [],
      "name": "kekId",
      "outputs": [
        {
          "internalType": "bytes32",
          "name": "",
          "type": "bytes32"
        }
      ],
      "stateMutability": "view",
      "type": "function"
    },
    {
      "inputs": [],
      "name": "lockPeriod",
      "outputs": [
        {
          "internalType": "uint256",
          "name": "",
          "type": "uint256"
        }
      ],
      "stateMutability": "view",
      "type": "function"
    },
    {
      "inputs": [],
      "name": "lpBalanceHere",
      "outputs": [
        {
          "internalType": "uint256",
          "name": "_lpHere",
          "type": "uint256"
        }
      ],
      "stateMutability": "view",
      "type": "function"
    },
    {
      "inputs": [],
      "name": "lpBalanceHereAndStaked",
      "outputs": [
        {
          "internalType": "uint256",
          "name": "_lpHereAndStaked",
          "type": "uint256"
        }
      ],
      "stateMutability": "view",
      "type": "function"
    },
    {
      "inputs": [],
      "name": "lpBalanceStaked",
      "outputs": [
        {
          "internalType": "uint256",
          "name": "_total",
          "type": "uint256"
        }
      ],
      "stateMutability": "view",
      "type": "function"
    },
    {
      "inputs": [],
      "name": "masterOracle",
      "outputs": [
        {
          "internalType": "contract IMasterOracle",
          "name": "",
          "type": "address"
        }
      ],
      "stateMutability": "view",
      "type": "function"
    },
    {
      "inputs": [
        {
          "internalType": "address",
          "name": "_newStrategy",
          "type": "address"
        }
      ],
      "name": "migrate",
      "outputs": [],
      "stateMutability": "nonpayable",
      "type": "function"
    },
    {
      "inputs": [],
      "name": "pool",
      "outputs": [
        {
          "internalType": "address",
          "name": "",
          "type": "address"
        }
      ],
      "stateMutability": "view",
      "type": "function"
    },
    {
      "inputs": [],
      "name": "rebalance",
      "outputs": [
        {
          "internalType": "uint256",
          "name": "_profit",
          "type": "uint256"
        },
        {
          "internalType": "uint256",
          "name": "_loss",
          "type": "uint256"
        },
        {
          "internalType": "uint256",
          "name": "_payback",
          "type": "uint256"
        }
      ],
      "stateMutability": "nonpayable",
      "type": "function"
    },
    {
      "inputs": [],
      "name": "receiptToken",
      "outputs": [
        {
          "internalType": "address",
          "name": "",
          "type": "address"
        }
      ],
      "stateMutability": "view",
      "type": "function"
    },
    {
      "inputs": [
        {
          "internalType": "address",
          "name": "_keeperAddress",
          "type": "address"
        }
      ],
      "name": "removeKeeper",
      "outputs": [],
      "stateMutability": "nonpayable",
      "type": "function"
    },
    {
      "inputs": [
        {
          "internalType": "uint256",
          "name": "",
          "type": "uint256"
        }
      ],
      "name": "rewardTokens",
      "outputs": [
        {
          "internalType": "address",
          "name": "",
          "type": "address"
        }
      ],
      "stateMutability": "view",
      "type": "function"
    },
    {
      "inputs": [],
      "name": "rewards",
      "outputs": [
        {
          "internalType": "contract IMultiReward",
          "name": "",
          "type": "address"
        }
      ],
      "stateMutability": "view",
      "type": "function"
    },
    {
      "inputs": [
        {
          "internalType": "address[]",
          "name": "",
          "type": "address[]"
        }
      ],
      "name": "setRewardTokens",
      "outputs": [],
      "stateMutability": "nonpayable",
      "type": "function"
    },
    {
      "inputs": [],
      "name": "swapper",
      "outputs": [
        {
          "internalType": "contract IRoutedSwapper",
          "name": "",
          "type": "address"
        }
      ],
      "stateMutability": "view",
      "type": "function"
    },
    {
      "inputs": [
        {
          "internalType": "address",
          "name": "_fromToken",
          "type": "address"
        }
      ],
      "name": "sweepERC20",
      "outputs": [],
      "stateMutability": "nonpayable",
      "type": "function"
    },
    {
      "inputs": [],
      "name": "token",
      "outputs": [
        {
          "internalType": "address",
          "name": "",
          "type": "address"
        }
      ],
      "stateMutability": "view",
      "type": "function"
    },
    {
      "inputs": [],
      "name": "tvl",
      "outputs": [
        {
          "internalType": "uint256",
          "name": "",
          "type": "uint256"
        }
      ],
      "stateMutability": "view",
      "type": "function"
    },
    {
      "inputs": [],
      "name": "unlockTime",
      "outputs": [
        {
          "internalType": "uint256",
          "name": "",
          "type": "uint256"
        }
      ],
      "stateMutability": "view",
      "type": "function"
    },
    {
      "inputs": [
        {
          "internalType": "uint256",
          "name": "newCrvSlippage_",
          "type": "uint256"
        }
      ],
      "name": "updateCrvSlippage",
      "outputs": [],
      "stateMutability": "nonpayable",
      "type": "function"
    },
    {
      "inputs": [
        {
          "internalType": "address",
          "name": "_feeCollector",
          "type": "address"
        }
      ],
      "name": "updateFeeCollector",
      "outputs": [],
      "stateMutability": "nonpayable",
      "type": "function"
    },
    {
      "inputs": [
        {
          "internalType": "uint256",
          "name": "newLockPeriod_",
          "type": "uint256"
        }
      ],
      "name": "updateLockPeriod",
      "outputs": [],
      "stateMutability": "nonpayable",
      "type": "function"
    },
    {
      "inputs": [
        {
          "internalType": "contract IMasterOracle",
          "name": "newMasterOracle_",
          "type": "address"
        }
      ],
      "name": "updateMasterOracle",
      "outputs": [],
      "stateMutability": "nonpayable",
      "type": "function"
    },
    {
      "inputs": [
        {
          "internalType": "contract IRoutedSwapper",
          "name": "_swapper",
          "type": "address"
        }
      ],
      "name": "updateSwapper",
      "outputs": [],
      "stateMutability": "nonpayable",
      "type": "function"
    },
    {
      "inputs": [],
      "name": "vault",
      "outputs": [
        {
          "internalType": "contract IStakingProxyConvex",
          "name": "",
          "type": "address"
        }
      ],
      "stateMutability": "view",
      "type": "function"
    },
    {
      "inputs": [
        {
          "internalType": "uint256",
          "name": "_amount",
          "type": "uint256"
        }
      ],
      "name": "withdraw",
      "outputs": [],
      "stateMutability": "nonpayable",
      "type": "function"
    }
  ],
  "transactionHash": "0x5ea9a642f39bfe208c32083624862f6f01cd857367204de091433aeae6e8a738",
  "args": [
    "0xa8b607Aa09B6A2E306F93e74c282Fb13f6A80452",
    "0xE57180685E3348589E9521aa53Af0BCD497E884d",
    6,
    "0x08780fb7e580e492c1935bee4fa5920b94aa95da",
    "0xD533a949740bb3306d119CC777fa900bA034cd52",
    100,
    "0x80704Acdf97723963263c78F861F091ad04F46E2",
    "0x8f156189A3CD28dFc8FB7BbbAce58F98F09c0bB3",
    2,
    27,
    "ConvexForFrax_dolafraxbp_USDC"
  ],
  "numDeployments": 1,
  "solcInputHash": "caf516414c718a7bb5f917e902ec8ca1",
  "bytecode": "0x6102206040523480156200001257600080fd5b5060405162006b8c38038062006b8c833981016040819052620000359162001615565b8a8a8a8a8a8a8a8a8a89898360006001600160a01b0383166200009f5760405162461bcd60e51b815260206004820152601460248201527f706f6f6c2d616464726573732d69732d7a65726f00000000000000000000000060448201526064015b60405180910390fd5b6001600160a01b038216620000f75760405162461bcd60e51b815260206004820152601760248201527f737761707065722d616464726573732d69732d7a65726f000000000000000000604482015260640162000096565b600280546001600160a01b0319166001600160a01b0384811691909117909155831660a081905260408051637e062a3560e11b8152905163fc0c546a91600480820192602092909190829003018186803b1580156200015557600080fd5b505afa1580156200016a573d6000803e3d6000fd5b505050506040513d601f19601f82011682018060405250810190620001909190620016ff565b6001600160a01b03908116608052600080546001600160a01b031916918316919091179055620001d7620001c13390565b600362000f6460201b62001d2a1790919060201c565b620002195760405162461bcd60e51b81526020600482015260116024820152701859190b5ad9595c195c8b59985a5b1959607a1b604482015260640162000096565b5050506001600160a01b038616620002685760405162461bcd60e51b815260206004820152601160248201527018dc9d8b5d1bdad95b8b5a5ccb5b9d5b1b607a1b604482015260640162000096565b6000806f22d53366457f9d5e68ec105046fc43836001600160a01b031663a262904b6040518163ffffffff1660e01b815260040160206040518083038186803b158015620002b557600080fd5b505afa158015620002ca573d6000803e3d6000fd5b505050506040513d601f19601f82011682018060405250810190620002f09190620016ff565b604051633795104960e01b81526001600160a01b038d8116600483015291925060009183169063379510499060240160206040518083038186803b1580156200033857600080fd5b505afa1580156200034d573d6000803e3d6000fd5b505050506040513d601f19601f82011682018060405250810190620003739190620016ff565b90506001600160a01b03811615620005bd5760405163940494f160e01b81526001600160a01b038d8116600483015283169063940494f190602401604080518083038186803b158015620003c657600080fd5b505afa158015620003db573d6000803e3d6000fd5b505050506040513d601f19601f8201168201806040525081019062000401919062001726565b6020015185106200044a5760405162461bcd60e51b81526020600482015260126024820152711a5b9d985b1a590b58dbdb1b185d195c985b60721b604482015260640162000096565b60805160405163a77576ef60e01b81526001600160a01b038e811660048301529182169184169063a77576ef906024016101006040518083038186803b1580156200049457600080fd5b505afa158015620004a9573d6000803e3d6000fd5b505050506040513d601f19601f82011682018060405250810190620004cf9190620017c3565b8660088110620004e357620004e3620017ad565b60200201516001600160a01b031614620005365760405162461bcd60e51b81526020600482015260136024820152720c6ded8d8c2e8cae4c2d85adad2e6dac2e8c6d606b1b604482015260640162000096565b6040516356059ffb60e01b81526001600160a01b038d811660048301528316906356059ffb906024016101406040518083038186803b1580156200057957600080fd5b505afa1580156200058e573d6000803e3d6000fd5b505050506040513d601f19601f82011682018060405250810190620005b4919062001854565b51925062000ab2565b60405163124fd3dd60e21b8152600360048201526000906f22d53366457f9d5e68ec105046fc43839063493f4f749060240160206040518083038186803b1580156200060857600080fd5b505afa1580156200061d573d6000803e3d6000fd5b505050506040513d601f19601f82011682018060405250810190620006439190620016ff565b60405163e4d332a960e01b81526001600160a01b038f811660048301529192509082169063e4d332a99060240160206040518083038186803b1580156200068957600080fd5b505afa1580156200069e573d6000803e3d6000fd5b505050506040513d601f19601f82011682018060405250810190620006c49190620018da565b15620008815760405163eb73f37d60e01b81526001600160a01b038e8116600483015282169063eb73f37d90602401604080518083038186803b1580156200070b57600080fd5b505afa15801562000720573d6000803e3d6000fd5b505050506040513d601f19601f8201168201806040525081019062000746919062001726565b6020015186106200078f5760405162461bcd60e51b81526020600482015260126024820152711a5b9d985b1a590b58dbdb1b185d195c985b60721b604482015260640162000096565b60805160405163a77576ef60e01b81526001600160a01b038f811660048301529182169183169063a77576ef906024016101006040518083038186803b158015620007d957600080fd5b505afa158015620007ee573d6000803e3d6000fd5b505050506040513d601f19601f82011682018060405250810190620008149190620017c3565b8760088110620008285762000828620017ad565b60200201516001600160a01b0316146200087b5760405162461bcd60e51b81526020600482015260136024820152720c6ded8d8c2e8cae4c2d85adad2e6dac2e8c6d606b1b604482015260640162000096565b62000a2e565b60405163940494f160e01b81526001600160a01b038e8116600483015282169063940494f19060240160206040518083038186803b158015620008c357600080fd5b505afa158015620008d8573d6000803e3d6000fd5b505050506040513d601f19601f82011682018060405250810190620008fe9190620018fe565b8610620009435760405162461bcd60e51b81526020600482015260126024820152711a5b9d985b1a590b58dbdb1b185d195c985b60721b604482015260640162000096565b608051604051639ac90d3d60e01b81526001600160a01b038f8116600483015291821691831690639ac90d3d9060240160806040518083038186803b1580156200098c57600080fd5b505afa158015620009a1573d6000803e3d6000fd5b505050506040513d601f19601f82011682018060405250810190620009c7919062001918565b8760048110620009db57620009db620017ad565b60200201516001600160a01b03161462000a2e5760405162461bcd60e51b81526020600482015260136024820152720c6ded8d8c2e8cae4c2d85adad2e6dac2e8c6d606b1b604482015260640162000096565b60405163daf297b960e01b81526001600160a01b03808f1660048301528e935082169063daf297b99060240160206040518083038186803b15801562000a7357600080fd5b505afa15801562000a88573d6000803e3d6000fd5b505050506040513d601f19601f8201168201806040525081019062000aae9190620016ff565b9350505b6001600160a01b038c1662000af95760405162461bcd60e51b815260206004820152600c60248201526b1c1bdbdb0b5a5ccb5b9d5b1b60a21b604482015260640162000096565b6001600160a01b03811662000b3e5760405162461bcd60e51b815260206004820152600a6024820152691b1c0b5a5ccb5b9d5b1b60b21b604482015260640162000096565b6001600160a01b03831662000b865760405162461bcd60e51b815260206004820152600d60248201526c19d85d59d94b5a5ccb5b9d5b1b609a1b604482015260640162000096565b6001600160a01b03808a1660c0528c81166101005281811660e0819052908416610120526006899055600080546001600160a01b03191690911790556101408590528a600781111562000bdd5762000bdd6200199d565b61018081600781111562000bf55762000bf56200199d565b9052506001600160a01b038c8116828216146101a0528a811661016052600780546001600160a01b03199081168a841617909155600880546001810182556000919091527ff3f7a9fe364faab93b216da50a3214154f22a0a2b415b23a84c8169e8b636ee3018054909116918b16919091179055835162000c7e906005906020870190620013fe565b5050604051631526fe2760e01b8152600481018f905260009c508c9b507341a5881c17185383e19df6fa4ec158a6f4851a699a50631526fe279950602401975062000ccc9650505050505050565b60a06040518083038186803b15801562000ce557600080fd5b505afa15801562000cfa573d6000803e3d6000fd5b505050506040513d601f19601f8201168201806040525081019062000d209190620019b3565b506001600160a01b03811661020052604051639abbdf4b60e01b815260048101899052929550935073569f5b842b5006ec17be02b8b94510ba8e79fbca9250639abbdf4b916024019050602060405180830381600087803b15801562000d8557600080fd5b505af115801562000d9a573d6000803e3d6000fd5b505050506040513d601f19601f8201168201806040525081019062000dc09190620016ff565b6001600160a01b03166101e0816001600160a01b03168152505060e0516001600160a01b03166101e0516001600160a01b031663646780df6040518163ffffffff1660e01b815260040160206040518083038186803b15801562000e2357600080fd5b505afa15801562000e38573d6000803e3d6000fd5b505050506040513d601f19601f8201168201806040525081019062000e5e9190620016ff565b6001600160a01b03161462000eab5760405162461bcd60e51b815260206004820152601260248201527134b731b7b93932b1ba16b63816ba37b5b2b760711b604482015260640162000096565b6001600160a01b0382166101c081905260408051636e27cef960e01b81529051636e27cef991600480820192602092909190829003018186803b15801562000ef257600080fd5b505afa15801562000f07573d6000803e3d6000fd5b505050506040513d601f19601f8201168201806040525081019062000f2d9190620018fe565b60095562000f3a62000f84565b805162000f50916008916020909101906200148d565b505050505050505050505050505062001ac4565b600062000f7b836001600160a01b038416620013ac565b90505b92915050565b6060600080610200516001600160a01b031663857cb94a6040518163ffffffff1660e01b815260040160206040518083038186803b15801562000fc657600080fd5b505afa15801562000fdb573d6000803e3d6000fd5b505050506040513d601f19601f82011682018060405250810190620010019190620018fe565b905060005b818110156200112b5761020051604051637bb7bed160e01b8152600481018390526000916001600160a01b031690637bb7bed19060240160206040518083038186803b1580156200105657600080fd5b505afa1580156200106b573d6000803e3d6000fd5b505050506040513d601f19601f82011682018060405250810190620010919190620016ff565b905060c0516001600160a01b0316816001600160a01b031614158015620010d557506001600160a01b038116734e3fbd56cd56c3e72c1403e103b45db9da5b9d2b14155b8015620010ff57506001600160a01b038116733432b6a60d23ca0dfca7761b7ab56459d9c964d014155b15620011155783620011118162001a4e565b9450505b5080620011228162001a4e565b91505062001006565b506200113982600362001a6c565b6001600160401b0381111562001153576200115362001537565b6040519080825280602002602001820160405280156200117d578160200160208202803683370190505b50925060c05183600081518110620011995762001199620017ad565b60200260200101906001600160a01b031690816001600160a01b031681525050734e3fbd56cd56c3e72c1403e103b45db9da5b9d2b83600181518110620011e457620011e4620017ad565b60200260200101906001600160a01b031690816001600160a01b031681525050733432b6a60d23ca0dfca7761b7ab56459d9c964d0836002815181106200122f576200122f620017ad565b6001600160a01b0390921660209283029190910190910152600360005b82811015620013a55761020051604051637bb7bed160e01b8152600481018390526000916001600160a01b031690637bb7bed19060240160206040518083038186803b1580156200129c57600080fd5b505afa158015620012b1573d6000803e3d6000fd5b505050506040513d601f19601f82011682018060405250810190620012d79190620016ff565b905060c0516001600160a01b0316816001600160a01b0316141580156200131b57506001600160a01b038116734e3fbd56cd56c3e72c1403e103b45db9da5b9d2b14155b80156200134557506001600160a01b038116733432b6a60d23ca0dfca7761b7ab56459d9c964d014155b156200138f57808684620013598162001a4e565b9550815181106200136e576200136e620017ad565b60200260200101906001600160a01b031690816001600160a01b0316815250505b50806200139c8162001a4e565b9150506200124c565b5050505090565b6000818152600183016020526040812054620013f55750815460018181018455600084815260208082209093018490558454848252828601909352604090209190915562000f7e565b50600062000f7e565b8280546200140c9062001a87565b90600052602060002090601f0160209004810192826200143057600085556200147b565b82601f106200144b57805160ff19168380011785556200147b565b828001600101855582156200147b579182015b828111156200147b5782518255916020019190600101906200145e565b5062001489929150620014e5565b5090565b8280548282559060005260206000209081019282156200147b579160200282015b828111156200147b57825182546001600160a01b0319166001600160a01b03909116178255602090920191600190910190620014ae565b5b80821115620014895760008155600101620014e6565b6001600160a01b03811681146200151257600080fd5b50565b80516200152281620014fc565b919050565b8051600881106200152257600080fd5b634e487b7160e01b600052604160045260246000fd5b604051601f8201601f191681016001600160401b038111828210171562001578576200157862001537565b604052919050565b600082601f8301126200159257600080fd5b81516001600160401b03811115620015ae57620015ae62001537565b6020620015c4601f8301601f191682016200154d565b8281528582848701011115620015d957600080fd5b60005b83811015620015f9578581018301518282018401528201620015dc565b838111156200160b5760008385840101525b5095945050505050565b60008060008060008060008060008060006101608c8e0312156200163857600080fd5b8b516200164581620014fc565b60208d0151909b506200165881620014fc565b99506200166860408d0162001527565b98506200167860608d0162001515565b97506200168860808d0162001515565b965060a08c015195506200169f60c08d0162001515565b9450620016af60e08d0162001515565b6101008d01516101208e01516101408f015192965090945092506001600160401b03811115620016de57600080fd5b620016ec8e828f0162001580565b9150509295989b509295989b9093969950565b6000602082840312156200171257600080fd5b81516200171f81620014fc565b9392505050565b6000604082840312156200173957600080fd5b82601f8301126200174957600080fd5b604080519081016001600160401b03811182821017156200176e576200176e62001537565b80604052508060408401858111156200178657600080fd5b845b81811015620017a257805183526020928301920162001788565b509195945050505050565b634e487b7160e01b600052603260045260246000fd5b6000610100808385031215620017d857600080fd5b83601f840112620017e857600080fd5b6040518181016001600160401b03811182821017156200180c576200180c62001537565b6040529083019080858311156200182257600080fd5b845b83811015620018495780516200183a81620014fc565b82526020918201910162001824565b509095945050505050565b60006101408083850312156200186957600080fd5b83601f8401126200187957600080fd5b6040518181016001600160401b03811182821017156200189d576200189d62001537565b604052908301908085831115620018b357600080fd5b845b8381101562001849578051620018cb81620014fc565b825260209182019101620018b5565b600060208284031215620018ed57600080fd5b815180151581146200171f57600080fd5b6000602082840312156200191157600080fd5b5051919050565b6000608082840312156200192b57600080fd5b82601f8301126200193b57600080fd5b604051608081016001600160401b038111828210171562001960576200196062001537565b6040528060808401858111156200197657600080fd5b845b81811015620017a25780516200198e81620014fc565b83526020928301920162001978565b634e487b7160e01b600052602160045260246000fd5b600080600080600060a08688031215620019cc57600080fd5b8551620019d981620014fc565b6020870151909550620019ec81620014fc565b6040870151909450620019ff81620014fc565b606087015190935062001a1281620014fc565b608087015190925060ff8116811462001a2a57600080fd5b809150509295509295909350565b634e487b7160e01b600052601160045260246000fd5b600060001982141562001a655762001a6562001a38565b5060010190565b6000821982111562001a825762001a8262001a38565b500190565b600181811c9082168062001a9c57607f821691505b6020821081141562001abe57634e487b7160e01b600052602260045260246000fd5b50919050565b60805160a05160c05160e05161010051610120516101405161016051610180516101a0516101c0516101e05161020051614d3762001e556000396000818161056701528181611ef801528181611fad01526122310152600081816106f701528181611360015281816123d301528181612d5b01528181612ddf01528181613a28015281816140be01526141380152600081816106d00152818161100a0152611333015260008181612a72015281816134400152613f740152600081816102fb0152818161295601528181612a3a015281816132b8015281816132f3015281816133390152818161337e015281816133c30152818161340801528181613de801528181613e2c01528181613e7001528181613eb401528181613ef80152613f3c0152600081816129ac01528181612ae601528181612b3501528181612f8701528181612fe30152818161303701528181613cd001528181613d5e0152818161459a015261462801526000818161044e01528181611cb5015281816124620152818161363601528181614312015281816143a001528181614431015281816144bf0152818161455001526145dd01526000818161072f0152612f600152600081816105dd01528181612b8c01528181612e8501528181613bda01528181613c720152818161435d015281816143eb0152818161447c0152818161450a01526146550152600081816104e901528181610dc701528181610e56015281816119f9015281816123b1015281816126c001528181612aad01528181612f3e015281816130150152818161326c01528181613d1e01528181613dbd0152614008015260008181610523015281816120330152818161213101526122b701526000818161034201528181610777015281816108cc01528181610a6301528181610b7f01528181610c5d01528181610cb901528181610f49015281816111f10152818161138b01528181611428015281816116540152818161181d0152818161255b015281816134ca0152818161356a0152613ac20152600081816105b60152818161065e01528181610a0a01528181610ac201528181610b5d01528181610bd101528181610c9001528181610e02015281816115b801528181611aff01528181611cf5015281816125d601528181612e6301528181612eb701528181612fc10152818161328d0152818161360b01528181613690015281816137f1015281816138d501528181613aa00152613d9c0152614d376000f3fe608060405234801561001057600080fd5b50600436106102ab5760003560e01c8063945c914211610172578063d3033c39116100d9578063eaada38211610092578063eaada382146106a5578063ec78e832146106b8578063eff40c45146106cb578063fbfa77cf146106f2578063fc0c546a14610719578063fd57a4df1461072a578063ffa1ad741461075157600080fd5b8063d3033c3914610640578063d572fd7f14610653578063d8dfeb451461065c578063de603fdc14610682578063e00af4a71461068a578063e5328e061461069d57600080fd5b8063b2016bd41161012b578063b2016bd4146105b1578063b20fdc0d146105d8578063c415b95c146105ff578063c965fa8a14610612578063ce5494bb1461061a578063d2c35ce81461062d57600080fd5b8063945c91421461051e578063951dc22c1461054557806399b71d5c1461055a5780639ec5a89414610562578063a3f4df7e14610589578063abc9b45e1461059e57600080fd5b80633fd8b02f11610216578063759cb53b116101cf578063759cb53b1461048b578063795dae66146104a65780637bb7bed1146104ae5780637d7c2a1c146104c15780637f44579b146104e457806391db7b0d1461050b57600080fd5b80633fd8b02f146104015780634032b72b1461040a578063440d72481461041d57806345bffdf61461044057806348cd2ddd1461044957806374db9ad41461047057600080fd5b80631cda4a8d116102685780631cda4a8d1461037b578063200ea22214610396578063201e81a8146103b1578063251c1aa3146103c45780632b3297f9146103db5780632e1a7d4d146103ee57600080fd5b806302ace7fe146102b057806304f4efc5146102e157806306beb80a146102f657806314ae9f2e1461032a57806316f0115b1461033d5780631848effa14610364575b600080fd5b6102cb73569f5b842b5006ec17be02b8b94510ba8e79fbca81565b6040516102d8919061478a565b60405180910390f35b6102f46102ef36600461479e565b610775565b005b61031d7f000000000000000000000000000000000000000000000000000000000000000081565b6040516102d891906147cd565b6102f461033836600461481a565b6108ca565b6102cb7f000000000000000000000000000000000000000000000000000000000000000081565b6102cb6f22d53366457f9d5e68ec105046fc438381565b6102cb7341a5881c17185383e19df6fa4ec158a6f4851a6981565b6102cb733432b6a60d23ca0dfca7761b7ab56459d9c964d081565b6102f46103bf36600461484d565b6109dc565b6103cd600b5481565b6040519081526020016102d8565b6002546102cb906001600160a01b031681565b6102f46103fc36600461479e565b610a60565b6103cd60095481565b6102f461041836600461481a565b610cb7565b61043061042b36600461481a565b610dc3565b60405190151581526020016102d8565b6103cd600a5481565b6103cd7f000000000000000000000000000000000000000000000000000000000000000081565b6102cb73d061d61a4d941c39e5453435b6345dc261c2fce081565b6102cb734e3fbd56cd56c3e72c1403e103b45db9da5b9d2b81565b6103cd610e3c565b6102cb6104bc36600461479e565b610ee0565b6104c9610f0a565b604080519384526020840192909252908201526060016102d8565b6102cb7f000000000000000000000000000000000000000000000000000000000000000081565b6102f461051936600461479e565b610f47565b6102cb7f000000000000000000000000000000000000000000000000000000000000000081565b61054d611119565b6040516102d89190614912565b6102f4611125565b6102cb7f000000000000000000000000000000000000000000000000000000000000000081565b610591611161565b6040516102d8919061498b565b6102f46105ac36600461481a565b6111ef565b6102cb7f000000000000000000000000000000000000000000000000000000000000000081565b6102cb7f000000000000000000000000000000000000000000000000000000000000000081565b6001546102cb906001600160a01b031681565b6103cd611319565b6102f461062836600461481a565b611388565b6102f461063b36600461481a565b611652565b6102f461064e36600461481a565b61181b565b6103cd60065481565b7f00000000000000000000000000000000000000000000000000000000000000006102cb565b6103cd6119d8565b6102f461069836600461481a565b611a88565b6103cd611ca3565b6007546102cb906001600160a01b031681565b6000546102cb906001600160a01b031681565b6102cb7f000000000000000000000000000000000000000000000000000000000000000081565b6102cb7f000000000000000000000000000000000000000000000000000000000000000081565b6000546001600160a01b03166102cb565b6102cb7f000000000000000000000000000000000000000000000000000000000000000081565b610591604051806040016040528060058152602001640352e302e360dc1b81525081565b7f00000000000000000000000000000000000000000000000000000000000000006001600160a01b0316630c340a246040518163ffffffff1660e01b815260040160206040518083038186803b1580156107ce57600080fd5b505afa1580156107e2573d6000803e3d6000fd5b505050506040513d601f19601f8201168201806040525081019061080691906149be565b6001600160a01b0316336001600160a01b03161461083f5760405162461bcd60e51b8152600401610836906149db565b60405180910390fd5b61271081106108895760405162461bcd60e51b8152602060048201526016602482015275696e76616c69642d736c6970706167652d76616c756560501b6044820152606401610836565b60065460408051918252602082018390527f43a94473b3422f31e660358900c02b907f22142a3224beace1f2b9f1fa079a9e910160405180910390a1600655565b7f00000000000000000000000000000000000000000000000000000000000000006001600160a01b0316630c340a246040518163ffffffff1660e01b815260040160206040518083038186803b15801561092357600080fd5b505afa158015610937573d6000803e3d6000fd5b505050506040513d601f19601f8201168201806040525081019061095b91906149be565b6001600160a01b0316336001600160a01b03161461098b5760405162461bcd60e51b8152600401610836906149db565b610996600382611d46565b6109d95760405162461bcd60e51b81526020600482015260146024820152731c995b5bdd994b5ad9595c195c8b59985a5b195960621b6044820152606401610836565b50565b6109e9335b600390611d5b565b610a055760405162461bcd60e51b815260040161083690614a12565b610a2e7f0000000000000000000000000000000000000000000000000000000000000000611d7d565b610a36611ef1565b8051610a4a916008916020909101906146ba565b50610a55600061239b565b6109d960001961239b565b337f00000000000000000000000000000000000000000000000000000000000000006001600160a01b031614610aa85760405162461bcd60e51b815260040161083690614a42565b6040516370a0823160e01b81526000906001600160a01b037f000000000000000000000000000000000000000000000000000000000000000016906370a0823190610af790309060040161478a565b60206040518083038186803b158015610b0f57600080fd5b505afa158015610b23573d6000803e3d6000fd5b505050506040513d601f19601f82011682018060405250810190610b479190614a75565b9050818110610ba857610ba46001600160a01b037f0000000000000000000000000000000000000000000000000000000000000000167f0000000000000000000000000000000000000000000000000000000000000000846123f8565b5050565b610bba610bb58284614aa4565b61245b565b6040516370a0823160e01b81526001600160a01b037f000000000000000000000000000000000000000000000000000000000000000016906370a0823190610c0690309060040161478a565b60206040518083038186803b158015610c1e57600080fd5b505afa158015610c32573d6000803e3d6000fd5b505050506040513d601f19601f82011682018060405250810190610c569190614a75565b9050610ba47f0000000000000000000000000000000000000000000000000000000000000000610c86848461250c565b6001600160a01b037f00000000000000000000000000000000000000000000000000000000000000001691906123f8565b7f00000000000000000000000000000000000000000000000000000000000000006001600160a01b0316630c340a246040518163ffffffff1660e01b815260040160206040518083038186803b158015610d1057600080fd5b505afa158015610d24573d6000803e3d6000fd5b505050506040513d601f19601f82011682018060405250810190610d4891906149be565b6001600160a01b0316336001600160a01b031614610d785760405162461bcd60e51b8152600401610836906149db565b610d83600382611d2a565b6109d95760405162461bcd60e51b81526020600482015260116024820152701859190b5ad9595c195c8b59985a5b1959607a1b6044820152606401610836565b60007f00000000000000000000000000000000000000000000000000000000000000006001600160a01b0316826001600160a01b03161480610e3657507f00000000000000000000000000000000000000000000000000000000000000006001600160a01b0316826001600160a01b0316145b92915050565b6040516370a0823160e01b81526000906001600160a01b037f000000000000000000000000000000000000000000000000000000000000000016906370a0823190610e8b90309060040161478a565b60206040518083038186803b158015610ea357600080fd5b505afa158015610eb7573d6000803e3d6000fd5b505050506040513d601f19601f82011682018060405250810190610edb9190614a75565b905090565b60088181548110610ef057600080fd5b6000918252602090912001546001600160a01b0316905081565b60008080610f17336109e1565b610f335760405162461bcd60e51b815260040161083690614a12565b610f3b612522565b9250925092505b909192565b7f00000000000000000000000000000000000000000000000000000000000000006001600160a01b0316630c340a246040518163ffffffff1660e01b815260040160206040518083038186803b158015610fa057600080fd5b505afa158015610fb4573d6000803e3d6000fd5b505050506040513d601f19601f82011682018060405250810190610fd891906149be565b6001600160a01b0316336001600160a01b0316146110085760405162461bcd60e51b8152600401610836906149db565b7f00000000000000000000000000000000000000000000000000000000000000006001600160a01b0316636e27cef96040518163ffffffff1660e01b815260040160206040518083038186803b15801561106157600080fd5b505afa158015611075573d6000803e3d6000fd5b505050506040513d601f19601f820116820180604052508101906110999190614a75565b8110156110d85760405162461bcd60e51b815260206004820152600d60248201526c3832b934b7b216b63a16b6b4b760991b6044820152606401610836565b60095460408051918252602082018390527ffe56e44f0698c36962f6cf507a9af4bcb609a7681784d38395451b065bd2ac6d910160405180910390a1600955565b6060610edb60036125c7565b61112e336109e1565b61114a5760405162461bcd60e51b815260040161083690614a12565b611154600061239b565b61115f60001961239b565b565b6005805461116e90614abb565b80601f016020809104026020016040519081016040528092919081815260200182805461119a90614abb565b80156111e75780601f106111bc576101008083540402835291602001916111e7565b820191906000526020600020905b8154815290600101906020018083116111ca57829003601f168201915b505050505081565b7f00000000000000000000000000000000000000000000000000000000000000006001600160a01b0316630c340a246040518163ffffffff1660e01b815260040160206040518083038186803b15801561124857600080fd5b505afa15801561125c573d6000803e3d6000fd5b505050506040513d601f19601f8201168201806040525081019061128091906149be565b6001600160a01b0316336001600160a01b0316146112b05760405162461bcd60e51b8152600401610836906149db565b600754604080516001600160a01b03928316815291831660208301527fc96bca3f57d35a1057a3357bced51fac157918147faa56845639671c516ec69c910160405180910390a1600780546001600160a01b0319166001600160a01b0392909216919091179055565b60405163d9f96e8d60e01b81526000906001600160a01b037f0000000000000000000000000000000000000000000000000000000000000000169063d9f96e8d90610e8b907f00000000000000000000000000000000000000000000000000000000000000009060040161478a565b337f00000000000000000000000000000000000000000000000000000000000000006001600160a01b0316146113d05760405162461bcd60e51b815260040161083690614a42565b6001600160a01b0381166114265760405162461bcd60e51b815260206004820152601c60248201527f6e65772d73747261746567792d616464726573732d69732d7a65726f000000006044820152606401610836565b7f00000000000000000000000000000000000000000000000000000000000000006001600160a01b0316816001600160a01b03166316f0115b6040518163ffffffff1660e01b815260040160206040518083038186803b15801561148957600080fd5b505afa15801561149d573d6000803e3d6000fd5b505050506040513d601f19601f820116820180604052508101906114c191906149be565b6001600160a01b0316146115105760405162461bcd60e51b81526020600482015260166024820152756e6f742d76616c69642d6e65772d737472617465677960501b6044820152606401610836565b611519816125d4565b6000546040516370a0823160e01b81526115b29183916001600160a01b03909116906370a082319061154f90309060040161478a565b60206040518083038186803b15801561156757600080fd5b505afa15801561157b573d6000803e3d6000fd5b505050506040513d601f19601f8201168201806040525081019061159f9190614a75565b6000546001600160a01b031691906123f8565b6109d9817f00000000000000000000000000000000000000000000000000000000000000006001600160a01b03166370a08231306040518263ffffffff1660e01b8152600401611602919061478a565b60206040518083038186803b15801561161a57600080fd5b505afa15801561162e573d6000803e3d6000fd5b505050506040513d601f19601f82011682018060405250810190610c869190614a75565b7f00000000000000000000000000000000000000000000000000000000000000006001600160a01b0316630c340a246040518163ffffffff1660e01b815260040160206040518083038186803b1580156116ab57600080fd5b505afa1580156116bf573d6000803e3d6000fd5b505050506040513d601f19601f820116820180604052508101906116e391906149be565b6001600160a01b0316336001600160a01b0316146117135760405162461bcd60e51b8152600401610836906149db565b6001600160a01b0381166117695760405162461bcd60e51b815260206004820152601d60248201527f6665652d636f6c6c6563746f722d616464726573732d69732d7a65726f0000006044820152606401610836565b6001546001600160a01b03828116911614156117bf5760405162461bcd60e51b81526020600482015260156024820152746665652d636f6c6c6563746f722d69732d73616d6560581b6044820152606401610836565b6001546040516001600160a01b038084169216907f0f06062680f9bd68e786e9980d9bb03d73d5620fc3b345e417b6eacb310b970690600090a3600180546001600160a01b0319166001600160a01b0392909216919091179055565b7f00000000000000000000000000000000000000000000000000000000000000006001600160a01b0316630c340a246040518163ffffffff1660e01b815260040160206040518083038186803b15801561187457600080fd5b505afa158015611888573d6000803e3d6000fd5b505050506040513d601f19601f820116820180604052508101906118ac91906149be565b6001600160a01b0316336001600160a01b0316146118dc5760405162461bcd60e51b8152600401610836906149db565b6001600160a01b03811661192c5760405162461bcd60e51b8152602060048201526017602482015276737761707065722d616464726573732d69732d7a65726f60481b6044820152606401610836565b6002546001600160a01b038281169116141561197c5760405162461bcd60e51b815260206004820152600f60248201526e737761707065722d69732d73616d6560881b6044820152606401610836565b6002546040516001600160a01b038084169216907f6c953b7ec311055c20b96a42cea31e89528e375b1bf953a503db40854b3188fe90600090a3600280546001600160a01b0319166001600160a01b0392909216919091179055565b60006119e2611319565b6040516370a0823160e01b81526001600160a01b037f000000000000000000000000000000000000000000000000000000000000000016906370a0823190611a2e90309060040161478a565b60206040518083038186803b158015611a4657600080fd5b505afa158015611a5a573d6000803e3d6000fd5b505050506040513d601f19601f82011682018060405250810190611a7e9190614a75565b610edb9190614af6565b611a91336109e1565b611aad5760405162461bcd60e51b815260040161083690614a12565b6001546001600160a01b0316611afd5760405162461bcd60e51b81526020600482015260156024820152741999594b58dbdb1b1958dd1bdc8b5b9bdd0b5cd95d605a1b6044820152606401610836565b7f00000000000000000000000000000000000000000000000000000000000000006001600160a01b0316816001600160a01b03161415611b7f5760405162461bcd60e51b815260206004820152601f60248201527f6e6f742d616c6c6f7765642d746f2d73776565702d636f6c6c61746572616c006044820152606401610836565b611b8881610dc3565b15611bcc5760405162461bcd60e51b815260206004820152601460248201527306e6f742d616c6c6f7765642d746f2d73776565760641b6044820152606401610836565b6001600160a01b03811673eeeeeeeeeeeeeeeeeeeeeeeeeeeeeeeeeeeeeeee1415611c07576001546109d9906001600160a01b0316476127ad565b6040516370a0823160e01b81526000906001600160a01b038316906370a0823190611c3690309060040161478a565b60206040518083038186803b158015611c4e57600080fd5b505afa158015611c62573d6000803e3d6000fd5b505050506040513d601f19601f82011682018060405250810190611c869190614a75565b600154909150610ba4906001600160a01b038481169116836123f8565b6000611cde611cb06119d8565b611cd97f00000000000000000000000000000000000000000000000000000000000000006128c6565b612943565b6040516370a0823160e01b81526001600160a01b037f000000000000000000000000000000000000000000000000000000000000000016906370a0823190611a2e90309060040161478a565b6000611d3f836001600160a01b038416612c0e565b9392505050565b6000611d3f836001600160a01b038416612c5d565b6001600160a01b03811660009081526001830160205260408120541515611d3f565b611d85612d50565b60085460005b81811015611eec57600060088281548110611da857611da8614b0e565b60009182526020822001546040516370a0823160e01b81526001600160a01b03909116925082906370a0823190611de390309060040161478a565b60206040518083038186803b158015611dfb57600080fd5b505afa158015611e0f573d6000803e3d6000fd5b505050506040513d601f19601f82011682018060405250810190611e339190614a75565b90508015611ed957600254604051636ccb2b0160e01b81526001600160a01b0384811660048301528781166024830152604482018490526001606483015230608483015290911690636ccb2b019060a401602060405180830381600087803b158015611e9e57600080fd5b505af1925050508015611ece575060408051601f3d908101601f19168201909252611ecb91810190614a75565b60015b611ed757611ed9565b505b505080611ee590614b24565b9050611d8b565b505050565b60606000807f00000000000000000000000000000000000000000000000000000000000000006001600160a01b031663857cb94a6040518163ffffffff1660e01b815260040160206040518083038186803b158015611f4f57600080fd5b505afa158015611f63573d6000803e3d6000fd5b505050506040513d601f19601f82011682018060405250810190611f879190614a75565b905060005b818110156120df57604051637bb7bed160e01b8152600481018290526000907f00000000000000000000000000000000000000000000000000000000000000006001600160a01b031690637bb7bed19060240160206040518083038186803b158015611ff757600080fd5b505afa15801561200b573d6000803e3d6000fd5b505050506040513d601f19601f8201168201806040525081019061202f91906149be565b90507f00000000000000000000000000000000000000000000000000000000000000006001600160a01b0316816001600160a01b03161415801561209057506001600160a01b038116734e3fbd56cd56c3e72c1403e103b45db9da5b9d2b14155b80156120b957506001600160a01b038116733432b6a60d23ca0dfca7761b7ab56459d9c964d014155b156120cc57836120c881614b24565b9450505b50806120d781614b24565b915050611f8c565b506120eb826003614af6565b67ffffffffffffffff81111561210357612103614837565b60405190808252806020026020018201604052801561212c578160200160208202803683370190505b5092507f00000000000000000000000000000000000000000000000000000000000000008360008151811061216357612163614b0e565b60200260200101906001600160a01b031690816001600160a01b031681525050734e3fbd56cd56c3e72c1403e103b45db9da5b9d2b836001815181106121ab576121ab614b0e565b60200260200101906001600160a01b031690816001600160a01b031681525050733432b6a60d23ca0dfca7761b7ab56459d9c964d0836002815181106121f3576121f3614b0e565b6001600160a01b0390921660209283029190910190910152600360005b8281101561239457604051637bb7bed160e01b8152600481018290526000907f00000000000000000000000000000000000000000000000000000000000000006001600160a01b031690637bb7bed19060240160206040518083038186803b15801561227b57600080fd5b505afa15801561228f573d6000803e3d6000fd5b505050506040513d601f19601f820116820180604052508101906122b391906149be565b90507f00000000000000000000000000000000000000000000000000000000000000006001600160a01b0316816001600160a01b03161415801561231457506001600160a01b038116734e3fbd56cd56c3e72c1403e103b45db9da5b9d2b14155b801561233d57506001600160a01b038116733432b6a60d23ca0dfca7761b7ab56459d9c964d014155b156123815780868461234e81614b24565b95508151811061236057612360614b0e565b60200260200101906001600160a01b031690816001600160a01b0316815250505b508061238c81614b24565b915050612210565b5050505090565b6123a481612e45565b6109d96001600160a01b037f0000000000000000000000000000000000000000000000000000000000000000167f000000000000000000000000000000000000000000000000000000000000000083613058565b6040516001600160a01b038316602482015260448101829052611eec90849063a9059cbb60e01b906064015b60408051601f198184030181529190526020810180516001600160e01b03166001600160e01b03199093169290921790915261317c565b60006124867f00000000000000000000000000000000000000000000000000000000000000006128c6565b90506000612492610e3c565b9050600061249e611319565b6124a89083614af6565b905060006124d36124b98386612943565b6124c38488614b3f565b6124cd9190614b5e565b8361250c565b9050806124e1575050505050565b828111156124fb576124fb6124f68483614aa4565b61324e565b612505818561325c565b5050505050565b600081831061251b5781611d3f565b5090919050565b600080600061252f6134c2565b6040516302df682360e11b815260048101849052602481018390526044810182905292955090935091507f00000000000000000000000000000000000000000000000000000000000000006001600160a01b0316906305bed04690606401600060405180830381600087803b1580156125a757600080fd5b505af11580156125bb573d6000803e3d6000fd5b50505050610f426138ba565b60606000611d3f83613967565b7f00000000000000000000000000000000000000000000000000000000000000006001600160a01b0316816001600160a01b031663d8dfeb456040518163ffffffff1660e01b815260040160206040518083038186803b15801561263757600080fd5b505afa15801561264b573d6000803e3d6000fd5b505050506040513d601f19601f8201168201806040525081019061266f91906149be565b6001600160a01b0316146126be5760405162461bcd60e51b81526020600482015260166024820152753bb937b73396b1b7b63630ba32b930b616ba37b5b2b760511b6044820152606401610836565b7f00000000000000000000000000000000000000000000000000000000000000006001600160a01b0316816001600160a01b031663fc0c546a6040518163ffffffff1660e01b815260040160206040518083038186803b15801561272157600080fd5b505afa158015612735573d6000803e3d6000fd5b505050506040513d601f19601f8201168201806040525081019061275991906149be565b6001600160a01b0316146127a55760405162461bcd60e51b81526020600482015260136024820152723bb937b73396b932b1b2b4b83a16ba37b5b2b760691b6044820152606401610836565b6109d96139c3565b804710156127fd5760405162461bcd60e51b815260206004820152601d60248201527f416464726573733a20696e73756666696369656e742062616c616e63650000006044820152606401610836565b6000826001600160a01b03168260405160006040518083038185875af1925050503d806000811461284a576040519150601f19603f3d011682016040523d82523d6000602084013e61284f565b606091505b5050905080611eec5760405162461bcd60e51b815260206004820152603a60248201527f416464726573733a20756e61626c6520746f2073656e642076616c75652c207260448201527f6563697069656e74206d617920686176652072657665727465640000000000006064820152608401610836565b600060016001607f1b031982121580156128e357506001607f1b82125b61293f5760405162461bcd60e51b815260206004820152602760248201527f53616665436173743a2076616c756520646f65736e27742066697420696e20316044820152663238206269747360c81b6064820152608401610836565b5090565b60008261295257506000610e36565b60027f00000000000000000000000000000000000000000000000000000000000000006007811115612986576129866147b7565b1415612a365760405163cc2b27d760e01b815260048101849052600f83900b60248201527f00000000000000000000000000000000000000000000000000000000000000006001600160a01b03169063cc2b27d7906044015b60206040518083038186803b1580156129f757600080fd5b505afa158015612a0b573d6000803e3d6000fd5b505050506040513d601f19601f82011682018060405250810190612a2f9190614a75565b9050610e36565b60077f00000000000000000000000000000000000000000000000000000000000000006007811115612a6a57612a6a6147b7565b1415612b6c577f000000000000000000000000000000000000000000000000000000000000000015612b15576040516341b028f360e01b81526001600160a01b037f00000000000000000000000000000000000000000000000000000000000000008116600483015260248201859052600f84900b60448301527f000000000000000000000000000000000000000000000000000000000000000016906341b028f3906064016129df565b60405163cc2b27d760e01b815260048101849052600f83900b60248201527f00000000000000000000000000000000000000000000000000000000000000006001600160a01b03169063cc2b27d7906044016129df565b60405163cc2b27d760e01b815260048101849052600f83900b60248201527f00000000000000000000000000000000000000000000000000000000000000006001600160a01b03169063cc2b27d79060440160206040518083038186803b158015612bd657600080fd5b505afa158015612bea573d6000803e3d6000fd5b505050506040513d601f19601f82011682018060405250810190611d3f9190614a75565b6000818152600183016020526040812054612c5557508154600181810184556000848152602080822090930184905584548482528286019093526040902091909155610e36565b506000610e36565b60008181526001830160205260408120548015612d46576000612c81600183614aa4565b8554909150600090612c9590600190614aa4565b9050818114612cfa576000866000018281548110612cb557612cb5614b0e565b9060005260206000200154905080876000018481548110612cd857612cd8614b0e565b6000918252602080832090910192909255918252600188019052604090208390555b8554869080612d0b57612d0b614b80565b600190038181906000526020600020016000905590558560010160008681526020019081526020016000206000905560019350505050610e36565b6000915050610e36565b600a54612d5957565b7f00000000000000000000000000000000000000000000000000000000000000006001600160a01b0316633d18b9126040518163ffffffff1660e01b8152600401600060405180830381600087803b158015612db457600080fd5b505af1925050508015612dc5575060015b61115f5760405163a4698feb60e01b8152600060048201527f00000000000000000000000000000000000000000000000000000000000000006001600160a01b03169063a4698feb90602401600060405180830381600087803b158015612e2b57600080fd5b505af1158015612e3f573d6000803e3d6000fd5b50505050565b612e4e81613a93565b6002546001600160a01b0390811690612eaa907f0000000000000000000000000000000000000000000000000000000000000000167f000000000000000000000000000000000000000000000000000000000000000084613058565b612ede6001600160a01b037f0000000000000000000000000000000000000000000000000000000000000000168284613058565b60085460005b81811015612f3057612f20838560088481548110612f0457612f04614b0e565b6000918252602090912001546001600160a01b03169190613058565b612f2981614b24565b9050612ee4565b50612f856001600160a01b037f0000000000000000000000000000000000000000000000000000000000000000167f000000000000000000000000000000000000000000000000000000000000000085613058565b7f00000000000000000000000000000000000000000000000000000000000000006001600160a01b031615611eec576130086001600160a01b037f0000000000000000000000000000000000000000000000000000000000000000167f000000000000000000000000000000000000000000000000000000000000000085613058565b611eec6001600160a01b037f0000000000000000000000000000000000000000000000000000000000000000167f0000000000000000000000000000000000000000000000000000000000000000855b8015806130e15750604051636eb1769f60e11b81523060048201526001600160a01b03838116602483015284169063dd62ed3e9060440160206040518083038186803b1580156130a757600080fd5b505afa1580156130bb573d6000803e3d6000fd5b505050506040513d601f19601f820116820180604052508101906130df9190614a75565b155b61314c5760405162461bcd60e51b815260206004820152603660248201527f5361666545524332303a20617070726f76652066726f6d206e6f6e2d7a65726f60448201527520746f206e6f6e2d7a65726f20616c6c6f77616e636560501b6064820152608401610836565b6040516001600160a01b038316602482015260448101829052611eec90849063095ea7b360e01b90606401612424565b60006131d1826040518060400160405280602081526020017f5361666545524332303a206c6f772d6c6576656c2063616c6c206661696c6564815250856001600160a01b0316613ae79092919063ffffffff16565b805190915015611eec57808060200190518101906131ef9190614b96565b611eec5760405162461bcd60e51b815260206004820152602a60248201527f5361666545524332303a204552433230206f7065726174696f6e20646964206e6044820152691bdd081cdd58d8d9595960b21b6064820152608401610836565b80156109d9576109d96139c3565b81613265575050565b60006132b27f00000000000000000000000000000000000000000000000000000000000000007f000000000000000000000000000000000000000000000000000000000000000085613afe565b905060007f000000000000000000000000000000000000000000000000000000000000000060078111156132e8576132e86147b7565b1480613325575060017f00000000000000000000000000000000000000000000000000000000000000006007811115613323576133236147b7565b145b1561333557611eec838284613bb3565b60037f00000000000000000000000000000000000000000000000000000000000000006007811115613369576133696147b7565b141561337a57611eec838284613c44565b60047f000000000000000000000000000000000000000000000000000000000000000060078111156133ae576133ae6147b7565b14156133bf57611eec838284613c44565b60027f000000000000000000000000000000000000000000000000000000000000000060078111156133f3576133f36147b7565b141561340457611eec838284613ca9565b60077f00000000000000000000000000000000000000000000000000000000000000006007811115613438576134386147b7565b141561347a577f00000000000000000000000000000000000000000000000000000000000000001561346f57611eec838284613d07565b611eec838284613ca9565b60405162461bcd60e51b815260206004820152601a60248201527f77697468647261772d66726f6d2d63757276652d6661696c65640000000000006044820152606401610836565b6000806000807f00000000000000000000000000000000000000000000000000000000000000006001600160a01b031663d53ddc26306040518263ffffffff1660e01b8152600401613514919061478a565b60206040518083038186803b15801561352c57600080fd5b505afa158015613540573d6000803e3d6000fd5b505050506040513d601f19601f820116820180604052508101906135649190614a75565b905060007f00000000000000000000000000000000000000000000000000000000000000006001600160a01b0316639f2b2833306040518263ffffffff1660e01b81526004016135b4919061478a565b60206040518083038186803b1580156135cc57600080fd5b505afa1580156135e0573d6000803e3d6000fd5b505050506040513d601f19601f820116820180604052508101906136049190614a75565b905061362f7f0000000000000000000000000000000000000000000000000000000000000000611d7d565b600061365a7f00000000000000000000000000000000000000000000000000000000000000006128c6565b90506000613666610e3c565b90506000613672611319565b61367c9083614af6565b9050600061368a8285612943565b905060007f00000000000000000000000000000000000000000000000000000000000000006001600160a01b03166370a08231306040518263ffffffff1660e01b81526004016136da919061478a565b60206040518083038186803b1580156136f257600080fd5b505afa158015613706573d6000803e3d6000fd5b505050506040513d601f19601f8201168201806040525081019061372a9190614a75565b905060006137388383614af6565b9050868111156137535761374c8782614aa4565b9a50613760565b61375d8188614aa4565b99505b600061376c898d614af6565b90508281111561387d57600061378b6137858584614aa4565b8661250c565b9050801561387b5760006137b3866137a38985614b3f565b6137ad9190614b5e565b8861250c565b9050801561387957878111156137d0576137d06124f68983614aa4565b6137da818a61325c565b6040516370a0823160e01b81526001600160a01b037f000000000000000000000000000000000000000000000000000000000000000016906370a082319061382690309060040161478a565b60206040518083038186803b15801561383e57600080fd5b505afa158015613852573d6000803e3d6000fd5b505050506040513d601f19601f820116820180604052508101906138769190614a75565b94505b505b505b613887838a61250c565b99508983116138975760006138aa565b6138aa6138a48b85614aa4565b8d61250c565b9b50505050505050505050909192565b6040516370a0823160e01b815261395f906001600160a01b037f000000000000000000000000000000000000000000000000000000000000000016906370a082319061390a90309060040161478a565b60206040518083038186803b15801561392257600080fd5b505afa158015613936573d6000803e3d6000fd5b505050506040513d601f19601f8201168201806040525081019061395a9190614a75565b613d8d565b61115f613fee565b6060816000018054806020026020016040519081016040528092919081815260200182805480156139b757602002820191906000526020600020905b8154815260200190600101908083116139a3575b50505050509050919050565b600b54421015613a0e5760405162461bcd60e51b8152602060048201526016602482015275756e6c6f636b2d74696d652d6469646e742d7061737360501b6044820152606401610836565b600a54604051634ab794a360e01b815260048101919091527f00000000000000000000000000000000000000000000000000000000000000006001600160a01b031690634ab794a390602401600060405180830381600087803b158015613a7457600080fd5b505af1158015613a88573d6000803e3d6000fd5b50506000600a555050565b6109d96001600160a01b037f0000000000000000000000000000000000000000000000000000000000000000167f000000000000000000000000000000000000000000000000000000000000000083613058565b6060613af684846000856141de565b949350505050565b6000612710600654612710613b139190614aa4565b600754604051632d9198e160e21b81526001600160a01b0388811660048301528781166024830152604482018790529091169063b64663849060640160206040518083038186803b158015613b6757600080fd5b505afa158015613b7b573d6000803e3d6000fd5b505050506040513d601f19601f82011682018060405250810190613b9f9190614a75565b613ba99190614b3f565b613af69190614b5e565b604051630d2680e960e11b815260048101849052600f82900b6024820152604481018390527f00000000000000000000000000000000000000000000000000000000000000006001600160a01b031690631a4d01d2906064015b600060405180830381600087803b158015613c2757600080fd5b505af1158015613c3b573d6000803e3d6000fd5b50505050505050565b60405163517a55a360e01b815260048101849052600f82900b602482015260448101839052600160648201527f00000000000000000000000000000000000000000000000000000000000000006001600160a01b03169063517a55a390608401613c0d565b604051630d2680e960e11b815260048101849052600f82900b6024820152604481018390527f00000000000000000000000000000000000000000000000000000000000000006001600160a01b031690631a4d01d290606401613c0d565b6040516314f6943160e11b81526001600160a01b037f00000000000000000000000000000000000000000000000000000000000000008116600483015260248201859052600f83900b6044830152606482018490527f000000000000000000000000000000000000000000000000000000000000000016906329ed286290608401613c0d565b80613d955750565b6000613de27f00000000000000000000000000000000000000000000000000000000000000007f000000000000000000000000000000000000000000000000000000000000000084613afe565b905060007f00000000000000000000000000000000000000000000000000000000000000006007811115613e1857613e186147b7565b1415613e2857610ba48282614306565b60037f00000000000000000000000000000000000000000000000000000000000000006007811115613e5c57613e5c6147b7565b1415613e6c57610ba48282614394565b60017f00000000000000000000000000000000000000000000000000000000000000006007811115613ea057613ea06147b7565b1415613eb057610ba48282614425565b60047f00000000000000000000000000000000000000000000000000000000000000006007811115613ee457613ee46147b7565b1415613ef457610ba482826144b3565b60027f00000000000000000000000000000000000000000000000000000000000000006007811115613f2857613f286147b7565b1415613f3857610ba48282614544565b60077f00000000000000000000000000000000000000000000000000000000000000006007811115613f6c57613f6c6147b7565b1415613fac577f000000000000000000000000000000000000000000000000000000000000000015613fa257610ba482826145d1565b610ba48282614544565b60405162461bcd60e51b815260206004820152601760248201527619195c1bdcda5d0b5d1bcb58dd5c9d994b59985a5b1959604a1b6044820152606401610836565b6040516370a0823160e01b81526000906001600160a01b037f000000000000000000000000000000000000000000000000000000000000000016906370a082319061403d90309060040161478a565b60206040518083038186803b15801561405557600080fd5b505afa158015614069573d6000803e3d6000fd5b505050506040513d601f19601f8201168201806040525081019061408d9190614a75565b905080156109d957600a541561411e57600a54604051630687c4bd60e01b81526004810191909152602481018290527f00000000000000000000000000000000000000000000000000000000000000006001600160a01b031690630687c4bd90604401600060405180830381600087803b15801561410a57600080fd5b505af1158015612505573d6000803e3d6000fd5b60095460405163a41ce7e960e01b81526001600160a01b037f0000000000000000000000000000000000000000000000000000000000000000169163a41ce7e991614176918591600401918252602082015260400190565b602060405180830381600087803b15801561419057600080fd5b505af11580156141a4573d6000803e3d6000fd5b505050506040513d601f19601f820116820180604052508101906141c89190614a75565b600a556009546141d89042614af6565b600b5550565b60608247101561423f5760405162461bcd60e51b815260206004820152602660248201527f416464726573733a20696e73756666696369656e742062616c616e636520666f6044820152651c8818d85b1b60d21b6064820152608401610836565b843b61428d5760405162461bcd60e51b815260206004820152601d60248201527f416464726573733a2063616c6c20746f206e6f6e2d636f6e74726163740000006044820152606401610836565b600080866001600160a01b031685876040516142a99190614bb8565b60006040518083038185875af1925050503d80600081146142e6576040519150601f19603f3d011682016040523d82523d6000602084013e6142eb565b606091505b50915091506142fb828286614681565b979650505050505050565b61430e61471b565b82817f00000000000000000000000000000000000000000000000000000000000000006002811061434157614341614b0e565b6020020152604051630b4c7e4d60e01b81526001600160a01b037f00000000000000000000000000000000000000000000000000000000000000001690630b4c7e4d90613c0d9084908690600401614bf7565b61439c61471b565b82817f0000000000000000000000000000000000000000000000000000000000000000600281106143cf576143cf614b0e565b602002015260405163ee22be2360e01b81526001600160a01b037f0000000000000000000000000000000000000000000000000000000000000000169063ee22be2390613c0d9084908690600190600401614c12565b61442d614739565b82817f00000000000000000000000000000000000000000000000000000000000000006003811061446057614460614b0e565b6020020152604051634515cef360e01b81526001600160a01b037f00000000000000000000000000000000000000000000000000000000000000001690634515cef390613c0d9084908690600401614c59565b6144bb614739565b82817f0000000000000000000000000000000000000000000000000000000000000000600381106144ee576144ee614b0e565b60200201526040516315b74c9d60e11b81526001600160a01b037f00000000000000000000000000000000000000000000000000000000000000001690632b6e993a90613c0d9084908690600190600401614c74565b61454c614757565b82817f00000000000000000000000000000000000000000000000000000000000000006004811061457f5761457f614b0e565b602002015260405162a6cbcd60e21b81526001600160a01b037f0000000000000000000000000000000000000000000000000000000000000000169063029b2f3490613c0d9084908690600401614cbb565b6145d9614757565b82817f00000000000000000000000000000000000000000000000000000000000000006004811061460c5761460c614b0e565b602002015260405163384e03db60e01b81526001600160a01b037f0000000000000000000000000000000000000000000000000000000000000000169063384e03db90613c0d907f00000000000000000000000000000000000000000000000000000000000000009085908790600401614cd6565b60608315614690575081611d3f565b8251156146a05782518084602001fd5b8160405162461bcd60e51b8152600401610836919061498b565b82805482825590600052602060002090810192821561470f579160200282015b8281111561470f57825182546001600160a01b0319166001600160a01b039091161782556020909201916001909101906146da565b5061293f929150614775565b60405180604001604052806002906020820280368337509192915050565b60405180606001604052806003906020820280368337509192915050565b60405180608001604052806004906020820280368337509192915050565b5b8082111561293f5760008155600101614776565b6001600160a01b0391909116815260200190565b6000602082840312156147b057600080fd5b5035919050565b634e487b7160e01b600052602160045260246000fd5b60208101600883106147ef57634e487b7160e01b600052602160045260246000fd5b91905290565b6001600160a01b03811681146109d957600080fd5b8035614815816147f5565b919050565b60006020828403121561482c57600080fd5b8135611d3f816147f5565b634e487b7160e01b600052604160045260246000fd5b6000602080838503121561486057600080fd5b823567ffffffffffffffff8082111561487857600080fd5b818501915085601f83011261488c57600080fd5b81358181111561489e5761489e614837565b8060051b604051601f19603f830116810181811085821117156148c3576148c3614837565b6040529182528482019250838101850191888311156148e157600080fd5b938501935b82851015614906576148f78561480a565b845293850193928501926148e6565b98975050505050505050565b6020808252825182820181905260009190848201906040850190845b818110156149535783516001600160a01b03168352928401929184019160010161492e565b50909695505050505050565b60005b8381101561497a578181015183820152602001614962565b83811115612e3f5750506000910152565b60208152600082518060208401526149aa81604085016020870161495f565b601f01601f19169190910160400192915050565b6000602082840312156149d057600080fd5b8151611d3f816147f5565b6020808252601a908201527f63616c6c65722d69732d6e6f742d7468652d676f7665726e6f72000000000000604082015260600190565b60208082526016908201527531b0b63632b916b4b996b737ba16b096b5b2b2b832b960511b604082015260600190565b60208082526019908201527818d85b1b195c8b5a5ccb5b9bdd0b5d995cdc195c8b5c1bdbdb603a1b604082015260600190565b600060208284031215614a8757600080fd5b5051919050565b634e487b7160e01b600052601160045260246000fd5b600082821015614ab657614ab6614a8e565b500390565b600181811c90821680614acf57607f821691505b60208210811415614af057634e487b7160e01b600052602260045260246000fd5b50919050565b60008219821115614b0957614b09614a8e565b500190565b634e487b7160e01b600052603260045260246000fd5b6000600019821415614b3857614b38614a8e565b5060010190565b6000816000190483118215151615614b5957614b59614a8e565b500290565b600082614b7b57634e487b7160e01b600052601260045260246000fd5b500490565b634e487b7160e01b600052603160045260246000fd5b600060208284031215614ba857600080fd5b81518015158114611d3f57600080fd5b60008251614bca81846020870161495f565b9190910192915050565b8060005b6002811015612e3f578151845260209384019390910190600101614bd8565b60608101614c058285614bd4565b8260408301529392505050565b60808101614c208286614bd4565b8360408301528215156060830152949350505050565b8060005b6003811015612e3f578151845260209384019390910190600101614c3a565b60808101614c678285614c36565b8260608301529392505050565b60a08101614c828286614c36565b8360608301528215156080830152949350505050565b8060005b6004811015612e3f578151845260209384019390910190600101614c9c565b60a08101614cc98285614c98565b8260808301529392505050565b6001600160a01b038416815260c08101614cf36020830185614c98565b8260a083015294935050505056fea2646970667358221220f4360d8cf200ea27485ee7713b1c6d0635965b9d3614610748456712bbaa247f64736f6c63430008090033",
  "devdoc": {
    "details": "This strategy only supports Curve deposits",
    "kind": "dev",
    "methods": {
      "addKeeper(address)": {
        "params": {
          "_keeperAddress": "keeper address to add."
        }
      },
      "approveToken()": {
        "details": "Approve all required tokens"
      },
      "isReservedToken(address)": {
        "details": "Check whether given token is reserved or not. Reserved tokens are not allowed to sweep."
      },
      "migrate(address)": {
        "details": "_beforeMigration hook can be implemented in child strategy to do extra steps.",
        "params": {
          "_newStrategy": "Address of new strategy"
        }
      },
      "rebalance()": {
        "returns": {
          "_loss": "Realized loss, if any, in collateral.",
          "_payback": "If strategy has any excess debt, we have to liquidate asset to payback excess debt.",
          "_profit": "Realized profit in collateral."
        }
      },
      "removeKeeper(address)": {
        "params": {
          "_keeperAddress": "keeper address to remove."
        }
      },
      "setRewardTokens(address[])": {
        "details": "convex pool can add new rewards. This method refresh list."
      },
      "sweepERC20(address)": {
        "params": {
          "_fromToken": "token address to sweep"
        }
      },
      "updateFeeCollector(address)": {
        "params": {
          "_feeCollector": "fee collector address"
        }
      },
      "updateLockPeriod(uint256)": {
        "details": "To be used if the `lock_time_min` value changes or we want to increase it"
      },
      "updateSwapper(address)": {
        "params": {
          "_swapper": "swapper address"
        }
      },
      "withdraw(uint256)": {
        "params": {
          "_amount": "Amount of collateral token"
        }
      }
    },
    "stateVariables": {
      "lockPeriod": {
        "details": "Uses the `lock_time_min` by default. Use `updateLockPeriod` to update it if needed."
      }
    },
    "title": "Convex for Frax strategy",
    "version": 1
  },
  "userdoc": {
    "events": {
      "UnlockTimeUpdated(uint256,uint256)": {
        "notice": "Emitted when `unlockTime` is updated"
      }
    },
    "kind": "user",
    "methods": {
      "addKeeper(address)": {
        "notice": "Add given address in keepers list."
      },
      "collateral()": {
        "notice": "Returns address of token correspond to collateral token"
      },
      "fraxStaking()": {
        "notice": "Frax Staking contract"
      },
      "keepers()": {
        "notice": "Return list of keepers"
      },
      "kekId()": {
        "notice": "Staking position ID"
      },
      "lockPeriod()": {
        "notice": "FRAX staking period"
      },
      "migrate(address)": {
        "notice": "Migrate all asset and vault ownership,if any, to new strategy"
      },
      "rebalance()": {
        "notice": "OnlyKeeper: Rebalance profit, loss and investment of this strategy.  Calculate profit, loss and payback of this strategy and realize profit/loss and  withdraw fund for payback, if any, and submit this report to pool."
      },
      "removeKeeper(address)": {
        "notice": "Remove given address from keepers list."
      },
      "rewards()": {
        "notice": "Convex Rewards contract"
      },
      "sweepERC20(address)": {
        "notice": "sweep given token to feeCollector of strategy"
      },
      "token()": {
        "notice": "Returns address of token correspond to receipt token"
      },
      "tvl()": {
        "notice": "Returns collateral balance + collateral deposited to curve"
      },
      "unlockTime()": {
        "notice": "Next time where the withdraw will be available"
      },
      "updateFeeCollector(address)": {
        "notice": "Update fee collector"
      },
      "updateLockPeriod(uint256)": {
        "notice": "Update `lockPeriod` param"
      },
      "updateSwapper(address)": {
        "notice": "Update swapper"
      },
      "vault()": {
        "notice": "Convex vault to interact with FRAX staking"
      },
      "withdraw(uint256)": {
        "notice": "Withdraw collateral token from end protocol."
      }
    },
    "version": 1
  },
  "storageLayout": {
    "storage": [
      {
        "astId": 14272,
        "contract": "vesper-strategies/contracts/strategies/convex/ConvexForFrax.sol:ConvexForFrax",
        "label": "receiptToken",
        "offset": 0,
        "slot": "0",
        "type": "t_address"
      },
      {
        "astId": 14278,
        "contract": "vesper-strategies/contracts/strategies/convex/ConvexForFrax.sol:ConvexForFrax",
        "label": "feeCollector",
        "offset": 0,
        "slot": "1",
        "type": "t_address"
      },
      {
        "astId": 14281,
        "contract": "vesper-strategies/contracts/strategies/convex/ConvexForFrax.sol:ConvexForFrax",
        "label": "swapper",
        "offset": 0,
        "slot": "2",
        "type": "t_contract(IRoutedSwapper)13133"
      },
      {
        "astId": 14294,
        "contract": "vesper-strategies/contracts/strategies/convex/ConvexForFrax.sol:ConvexForFrax",
        "label": "_keepers",
        "offset": 0,
        "slot": "3",
        "type": "t_struct(AddressSet)3020_storage"
      },
      {
        "astId": 22637,
        "contract": "vesper-strategies/contracts/strategies/convex/ConvexForFrax.sol:ConvexForFrax",
        "label": "NAME",
        "offset": 0,
        "slot": "5",
        "type": "t_string_storage"
      },
      {
        "astId": 22639,
        "contract": "vesper-strategies/contracts/strategies/convex/ConvexForFrax.sol:ConvexForFrax",
        "label": "crvSlippage",
        "offset": 0,
        "slot": "6",
        "type": "t_uint256"
      },
      {
        "astId": 22642,
        "contract": "vesper-strategies/contracts/strategies/convex/ConvexForFrax.sol:ConvexForFrax",
        "label": "masterOracle",
        "offset": 0,
        "slot": "7",
        "type": "t_contract(IMasterOracle)12817"
      },
      {
        "astId": 22645,
        "contract": "vesper-strategies/contracts/strategies/convex/ConvexForFrax.sol:ConvexForFrax",
        "label": "rewardTokens",
        "offset": 0,
        "slot": "8",
        "type": "t_array(t_address)dyn_storage"
      },
      {
        "astId": 22119,
        "contract": "vesper-strategies/contracts/strategies/convex/ConvexForFrax.sol:ConvexForFrax",
        "label": "lockPeriod",
        "offset": 0,
        "slot": "9",
        "type": "t_uint256"
      },
      {
        "astId": 22122,
        "contract": "vesper-strategies/contracts/strategies/convex/ConvexForFrax.sol:ConvexForFrax",
        "label": "kekId",
        "offset": 0,
        "slot": "10",
        "type": "t_bytes32"
      },
      {
        "astId": 22125,
        "contract": "vesper-strategies/contracts/strategies/convex/ConvexForFrax.sol:ConvexForFrax",
        "label": "unlockTime",
        "offset": 0,
        "slot": "11",
        "type": "t_uint256"
      }
    ],
    "types": {
      "t_address": {
        "encoding": "inplace",
        "label": "address",
        "numberOfBytes": "20"
      },
      "t_array(t_address)dyn_storage": {
        "base": "t_address",
        "encoding": "dynamic_array",
        "label": "address[]",
        "numberOfBytes": "32"
      },
      "t_array(t_bytes32)dyn_storage": {
        "base": "t_bytes32",
        "encoding": "dynamic_array",
        "label": "bytes32[]",
        "numberOfBytes": "32"
      },
      "t_bytes32": {
        "encoding": "inplace",
        "label": "bytes32",
        "numberOfBytes": "32"
      },
      "t_contract(IMasterOracle)12817": {
        "encoding": "inplace",
        "label": "contract IMasterOracle",
        "numberOfBytes": "20"
      },
      "t_contract(IRoutedSwapper)13133": {
        "encoding": "inplace",
        "label": "contract IRoutedSwapper",
        "numberOfBytes": "20"
      },
      "t_mapping(t_bytes32,t_uint256)": {
        "encoding": "mapping",
        "key": "t_bytes32",
        "label": "mapping(bytes32 => uint256)",
        "numberOfBytes": "32",
        "value": "t_uint256"
      },
      "t_string_storage": {
        "encoding": "bytes",
        "label": "string",
        "numberOfBytes": "32"
      },
      "t_struct(AddressSet)3020_storage": {
        "encoding": "inplace",
        "label": "struct EnumerableSet.AddressSet",
        "members": [
          {
            "astId": 3019,
            "contract": "vesper-strategies/contracts/strategies/convex/ConvexForFrax.sol:ConvexForFrax",
            "label": "_inner",
            "offset": 0,
            "slot": "0",
            "type": "t_struct(Set)2719_storage"
          }
        ],
        "numberOfBytes": "64"
      },
      "t_struct(Set)2719_storage": {
        "encoding": "inplace",
        "label": "struct EnumerableSet.Set",
        "members": [
          {
            "astId": 2714,
            "contract": "vesper-strategies/contracts/strategies/convex/ConvexForFrax.sol:ConvexForFrax",
            "label": "_values",
            "offset": 0,
            "slot": "0",
            "type": "t_array(t_bytes32)dyn_storage"
          },
          {
            "astId": 2718,
            "contract": "vesper-strategies/contracts/strategies/convex/ConvexForFrax.sol:ConvexForFrax",
            "label": "_indexes",
            "offset": 0,
            "slot": "1",
            "type": "t_mapping(t_bytes32,t_uint256)"
          }
        ],
        "numberOfBytes": "64"
      },
      "t_uint256": {
        "encoding": "inplace",
        "label": "uint256",
        "numberOfBytes": "32"
      }
    }
  }
}