{
  "address": "0xE27e8095B33FBCBB480AAC5E6e6dA94FbAf2965B",
  "abi": [
    {
      "inputs": [
        {
          "internalType": "address",
          "name": "pool_",
          "type": "address"
        },
        {
          "internalType": "address",
          "name": "swapper_",
          "type": "address"
        },
        {
          "internalType": "contract IStargateRouter",
          "name": "stargateRouter_",
          "type": "address"
        },
        {
          "internalType": "contract IStargatePool",
          "name": "stargateLp_",
          "type": "address"
        },
        {
          "internalType": "contract IStargateLpStaking",
          "name": "stargateLpStaking_",
          "type": "address"
        },
        {
          "internalType": "uint256",
          "name": "stargatePoolId_",
          "type": "uint256"
        },
        {
          "internalType": "uint256",
          "name": "stargateLpStakingPoolId_",
          "type": "uint256"
        },
        {
          "internalType": "string",
          "name": "name_",
          "type": "string"
        }
      ],
      "stateMutability": "nonpayable",
      "type": "constructor"
    },
    {
      "anonymous": false,
      "inputs": [
        {
          "indexed": true,
          "internalType": "address",
          "name": "previousFeeCollector",
          "type": "address"
        },
        {
          "indexed": true,
          "internalType": "address",
          "name": "newFeeCollector",
          "type": "address"
        }
      ],
      "name": "UpdatedFeeCollector",
      "type": "event"
    },
    {
      "anonymous": false,
      "inputs": [
        {
          "indexed": true,
          "internalType": "contract IRoutedSwapper",
          "name": "oldSwapper",
          "type": "address"
        },
        {
          "indexed": true,
          "internalType": "contract IRoutedSwapper",
          "name": "newSwapper",
          "type": "address"
        }
      ],
      "name": "UpdatedSwapper",
      "type": "event"
    },
    {
      "inputs": [],
      "name": "NAME",
      "outputs": [
        {
          "internalType": "string",
          "name": "",
          "type": "string"
        }
      ],
      "stateMutability": "view",
      "type": "function"
    },
    {
      "inputs": [],
      "name": "VERSION",
      "outputs": [
        {
          "internalType": "string",
          "name": "",
          "type": "string"
        }
      ],
      "stateMutability": "view",
      "type": "function"
    },
    {
      "inputs": [
        {
          "internalType": "address",
          "name": "_keeperAddress",
          "type": "address"
        }
      ],
      "name": "addKeeper",
      "outputs": [],
      "stateMutability": "nonpayable",
      "type": "function"
    },
    {
      "inputs": [
        {
          "internalType": "uint256",
          "name": "_approvalAmount",
          "type": "uint256"
        }
      ],
      "name": "approveToken",
      "outputs": [],
      "stateMutability": "nonpayable",
      "type": "function"
    },
    {
      "inputs": [
        {
          "internalType": "uint256",
          "name": "_minAmountOut",
          "type": "uint256"
        }
      ],
      "name": "claimAndSwapRewards",
      "outputs": [
        {
          "internalType": "uint256",
          "name": "_amountOut",
          "type": "uint256"
        }
      ],
      "stateMutability": "nonpayable",
      "type": "function"
    },
    {
      "inputs": [],
      "name": "collateral",
      "outputs": [
        {
          "internalType": "address",
          "name": "",
          "type": "address"
        }
      ],
      "stateMutability": "view",
      "type": "function"
    },
    {
      "inputs": [],
      "name": "collateralToken",
      "outputs": [
        {
          "internalType": "contract IERC20",
          "name": "",
          "type": "address"
        }
      ],
      "stateMutability": "view",
      "type": "function"
    },
    {
      "inputs": [],
      "name": "feeCollector",
      "outputs": [
        {
          "internalType": "address",
          "name": "",
          "type": "address"
        }
      ],
      "stateMutability": "view",
      "type": "function"
    },
    {
      "inputs": [
        {
          "internalType": "address",
          "name": "token_",
          "type": "address"
        }
      ],
      "name": "isReservedToken",
      "outputs": [
        {
          "internalType": "bool",
          "name": "",
          "type": "bool"
        }
      ],
      "stateMutability": "view",
      "type": "function"
    },
    {
      "inputs": [],
      "name": "keepers",
      "outputs": [
        {
          "internalType": "address[]",
          "name": "",
          "type": "address[]"
        }
      ],
      "stateMutability": "view",
      "type": "function"
    },
    {
      "inputs": [],
      "name": "lpAmountStaked",
      "outputs": [
        {
          "internalType": "uint256",
          "name": "_lpAmountStaked",
          "type": "uint256"
        }
      ],
      "stateMutability": "view",
      "type": "function"
    },
    {
      "inputs": [
        {
          "internalType": "address",
          "name": "_newStrategy",
          "type": "address"
        }
      ],
      "name": "migrate",
      "outputs": [],
      "stateMutability": "nonpayable",
      "type": "function"
    },
    {
      "inputs": [],
      "name": "pendingStargate",
      "outputs": [
        {
          "internalType": "uint256",
          "name": "_pendingStargate",
          "type": "uint256"
        }
      ],
      "stateMutability": "view",
      "type": "function"
    },
    {
      "inputs": [],
      "name": "pool",
      "outputs": [
        {
          "internalType": "address",
          "name": "",
          "type": "address"
        }
      ],
      "stateMutability": "view",
      "type": "function"
    },
    {
      "inputs": [],
      "name": "rebalance",
      "outputs": [
        {
          "internalType": "uint256",
          "name": "_profit",
          "type": "uint256"
        },
        {
          "internalType": "uint256",
          "name": "_loss",
          "type": "uint256"
        },
        {
          "internalType": "uint256",
          "name": "_payback",
          "type": "uint256"
        }
      ],
      "stateMutability": "nonpayable",
      "type": "function"
    },
    {
      "inputs": [],
      "name": "receiptToken",
      "outputs": [
        {
          "internalType": "address",
          "name": "",
          "type": "address"
        }
      ],
      "stateMutability": "view",
      "type": "function"
    },
    {
      "inputs": [
        {
          "internalType": "address",
          "name": "_keeperAddress",
          "type": "address"
        }
      ],
      "name": "removeKeeper",
      "outputs": [],
      "stateMutability": "nonpayable",
      "type": "function"
    },
    {
      "inputs": [],
      "name": "rewardToken",
      "outputs": [
        {
          "internalType": "address",
          "name": "",
          "type": "address"
        }
      ],
      "stateMutability": "view",
      "type": "function"
    },
    {
      "inputs": [],
      "name": "stargateLpStaking",
      "outputs": [
        {
          "internalType": "contract IStargateLpStaking",
          "name": "",
          "type": "address"
        }
      ],
      "stateMutability": "view",
      "type": "function"
    },
    {
      "inputs": [],
      "name": "stargateLpStakingPoolId",
      "outputs": [
        {
          "internalType": "uint256",
          "name": "",
          "type": "uint256"
        }
      ],
      "stateMutability": "view",
      "type": "function"
    },
    {
      "inputs": [],
      "name": "stargatePoolId",
      "outputs": [
        {
          "internalType": "uint256",
          "name": "",
          "type": "uint256"
        }
      ],
      "stateMutability": "view",
      "type": "function"
    },
    {
      "inputs": [
        {
          "internalType": "contract IERC20",
          "name": "_tokenIn",
          "type": "address"
        },
        {
          "internalType": "uint256",
          "name": "_minAmountOut",
          "type": "uint256"
        }
      ],
      "name": "swapToCollateral",
      "outputs": [
        {
          "internalType": "uint256",
          "name": "_amountOut",
          "type": "uint256"
        }
      ],
      "stateMutability": "nonpayable",
      "type": "function"
    },
    {
      "inputs": [],
      "name": "swapper",
      "outputs": [
        {
          "internalType": "contract IRoutedSwapper",
          "name": "",
          "type": "address"
        }
      ],
      "stateMutability": "view",
      "type": "function"
    },
    {
      "inputs": [
        {
          "internalType": "address",
          "name": "_fromToken",
          "type": "address"
        }
      ],
      "name": "sweep",
      "outputs": [],
      "stateMutability": "nonpayable",
      "type": "function"
    },
    {
      "inputs": [],
      "name": "token",
      "outputs": [
        {
          "internalType": "address",
          "name": "",
          "type": "address"
        }
      ],
      "stateMutability": "view",
      "type": "function"
    },
    {
      "inputs": [],
      "name": "tvl",
      "outputs": [
        {
          "internalType": "uint256",
          "name": "",
          "type": "uint256"
        }
      ],
      "stateMutability": "view",
      "type": "function"
    },
    {
      "inputs": [
        {
          "internalType": "address",
          "name": "_feeCollector",
          "type": "address"
        }
      ],
      "name": "updateFeeCollector",
      "outputs": [],
      "stateMutability": "nonpayable",
      "type": "function"
    },
    {
      "inputs": [
        {
          "internalType": "contract IRoutedSwapper",
          "name": "_swapper",
          "type": "address"
        }
      ],
      "name": "updateSwapper",
      "outputs": [],
      "stateMutability": "nonpayable",
      "type": "function"
    },
    {
      "inputs": [
        {
          "internalType": "uint256",
          "name": "_amount",
          "type": "uint256"
        }
      ],
      "name": "withdraw",
      "outputs": [],
      "stateMutability": "nonpayable",
      "type": "function"
    },
    {
      "inputs": [
        {
          "internalType": "uint16",
          "name": "dstChainId_",
          "type": "uint16"
        }
      ],
      "name": "withdrawForRebalance",
      "outputs": [],
      "stateMutability": "payable",
      "type": "function"
    }
  ],
  "transactionHash": "0x9d8afe16b47d89f0e34b5815378223eb1c0c0ad94cd3c531a13176274d613d63",
  "args": [
    "0xa8b607Aa09B6A2E306F93e74c282Fb13f6A80452",
    "0x8f156189A3CD28dFc8FB7BbbAce58F98F09c0bB3",
    "0x8731d54E9D02c286767d56ac03e8037C07e01e98",
    "0xdf0770dF86a8034b3EFEf0A1Bb3c889B8332FF56",
    "0xB0D502E938ed5f4df2E681fE6E419ff29631d62b",
    1,
    0,
    "Stargate_USDC"
  ],
  "numDeployments": 2,
  "solcInputHash": "285da4b1b032aeb23657e82b82226339",
  "bytecode": "0x6101806040523480156200001257600080fd5b506040516200468f3803806200468f83398101604081905262000035916200057d565b878760006001600160a01b038316620000955760405162461bcd60e51b815260206004820152601460248201527f706f6f6c2d616464726573732d69732d7a65726f00000000000000000000000060448201526064015b60405180910390fd5b6001600160a01b038216620000ed5760405162461bcd60e51b815260206004820152601760248201527f737761707065722d616464726573732d69732d7a65726f00000000000000000060448201526064016200008c565b600280546001600160a01b0319166001600160a01b0384811691909117909155831660a081905260408051637e062a3560e11b8152905163fc0c546a91600480820192602092909190829003018186803b1580156200014b57600080fd5b505afa15801562000160573d6000803e3d6000fd5b505050506040513d601f19601f82011682018060405250810190620001869190620006dd565b6001600160a01b03908116608052600080546001600160a01b031916918316919091179055620001cd620001b73390565b60036200043660201b6200216f1790919060201c565b6200020f5760405162461bcd60e51b81526020600482015260116024820152701859190b5ad9595c195c8b59985a5b1959607a1b60448201526064016200008c565b5050506001600160a01b0386166200025f5760405162461bcd60e51b81526020600482015260126024820152717374672d726f757465722d69732d7a65726f60701b60448201526064016200008c565b6001600160a01b038516620002b75760405162461bcd60e51b815260206004820152601360248201527f7374672d6c702d706f6f6c2d69732d7a65726f0000000000000000000000000060448201526064016200008c565b6001600160a01b0384166200030f5760405162461bcd60e51b815260206004820152601360248201527f7374672d7374616b696e672d69732d7a65726f0000000000000000000000000060448201526064016200008c565b60008311620003545760405162461bcd60e51b815260206004820152601060248201526f7374672d706f6f6c2d69732d7a65726f60801b60448201526064016200008c565b6001600160a01b038681166101605284811660c0819052600080546001600160a01b03191692881692831790556101409190915261010084905260e083905260408051633604cef760e11b81529051636c099dee91600480820192602092909190829003018186803b158015620003ca57600080fd5b505afa158015620003df573d6000803e3d6000fd5b505050506040513d601f19601f82011682018060405250810190620004059190620006dd565b6001600160a01b031661012052805162000427906005906020840190620004a8565b50505050505050505062000741565b60006200044d836001600160a01b03841662000456565b90505b92915050565b60008181526001830160205260408120546200049f5750815460018181018455600084815260208082209093018490558454848252828601909352604090209190915562000450565b50600062000450565b828054620004b69062000704565b90600052602060002090601f016020900481019282620004da576000855562000525565b82601f10620004f557805160ff191683800117855562000525565b8280016001018555821562000525579182015b828111156200052557825182559160200191906001019062000508565b506200053392915062000537565b5090565b5b8082111562000533576000815560010162000538565b6001600160a01b03811681146200056457600080fd5b50565b634e487b7160e01b600052604160045260246000fd5b600080600080600080600080610100898b0312156200059b57600080fd5b8851620005a8816200054e565b809850506020808a0151620005bd816200054e565b60408b0151909850620005d0816200054e565b60608b0151909750620005e3816200054e565b60808b0151909650620005f6816200054e565b60a08b015160c08c015160e08d015192975090955093506001600160401b03808211156200062357600080fd5b818c0191508c601f8301126200063857600080fd5b8151818111156200064d576200064d62000567565b604051601f8201601f19908116603f0116810190838211818310171562000678576200067862000567565b816040528281528f868487010111156200069157600080fd5b600093505b82841015620006b5578484018601518185018701529285019262000696565b82841115620006c75760008684830101525b8096505050505050509295985092959890939650565b600060208284031215620006f057600080fd5b8151620006fd816200054e565b9392505050565b600181811c908216806200071957607f821691505b602082108114156200073b57634e487b7160e01b600052602260045260246000fd5b50919050565b60805160a05160c05160e05161010051610120516101405161016051613d1a6200097560003960008181610db2015281816126e6015281816127b80152818161286001526136e60152600081816123b30152818161249c015281816125f8015281816127ea0152818161283e015281816134690152818161350c0152818161359d01526137b30152600081816105ed0152818161289601526132410152600081816104b101528181610de301528181610e04015281816126b201526136b301526000818161040501528181611311015281816113d00152818161255401528181612e200152818161319801526137910152600081816103d101528181611340015281816113ff015281816125810152818161280c01528181612df1015281816131d2015261376501526000818161026c01528181610aa501528181610c5101528181610cf601528181610eed0152818161103401528181611109015281816111bc01528181611589015281816116560152818161188101528181611a8f015281816128e50152818161298201528181612be9015261367901526000818161047d015281816105620152818161070f01528181610925015281816109c801528181610f7a01528181611012015281816110800152818161113c0152818161180501528181611cb301528181611d9901528181611e860152818161205401528181612092015281816123610152818161279601528181612a1f01528181612b1001528181612c6501526136570152613d1a6000f3fe6080604052600436106101cd5760003560e01c8063951dc22c116100f7578063d3033c3911610095578063ee330ee311610064578063ee330ee3146105bb578063f7c618c1146105db578063fc0c546a1461060f578063ffa1ad741461062d57600080fd5b8063d3033c3914610533578063d8dfeb4514610553578063e5328e0614610586578063ec78e8321461059b57600080fd5b8063b2bc2298116100d1578063b2bc22981461049f578063c415b95c146104d3578063ce5494bb146104f3578063d2c35ce81461051357600080fd5b8063951dc22c14610427578063a3f4df7e14610449578063b2016bd41461046b57600080fd5b80633ac9fc111161016f578063698a0cc31161013e578063698a0cc31461037a5780637d7c2a1c1461038f5780637e2d5759146103bf5780638fe14eec146103f357600080fd5b80633ac9fc11146102e65780634032b72b14610306578063440d7248146103265780634dadd90a1461036557600080fd5b806316251428116101ab578063162514281461024757806316f0115b1461025a5780632b3297f9146102a65780632e1a7d4d146102c657600080fd5b806301681a62146101d25780631026013a146101f457806314ae9f2e14610227575b600080fd5b3480156101de57600080fd5b506101f26101ed3660046139ab565b61065e565b005b34801561020057600080fd5b5061021461020f3660046139c8565b6108bd565b6040519081526020015b60405180910390f35b34801561023357600080fd5b506101f26102423660046139ab565b610aa3565b6101f26102553660046139e1565b610beb565b34801561026657600080fd5b5061028e7f000000000000000000000000000000000000000000000000000000000000000081565b6040516001600160a01b03909116815260200161021e565b3480156102b257600080fd5b5060025461028e906001600160a01b031681565b3480156102d257600080fd5b506101f26102e13660046139c8565b610eea565b3480156102f257600080fd5b506101f26103013660046139c8565b611163565b34801561031257600080fd5b506101f26103213660046139ab565b6111ba565b34801561033257600080fd5b506103556103413660046139ab565b6000546001600160a01b0391821691161490565b604051901515815260200161021e565b34801561037157600080fd5b50610214611302565b34801561038657600080fd5b506102146113c1565b34801561039b57600080fd5b506103a4611487565b6040805193845260208401929092529082015260600161021e565b3480156103cb57600080fd5b5061028e7f000000000000000000000000000000000000000000000000000000000000000081565b3480156103ff57600080fd5b506102147f000000000000000000000000000000000000000000000000000000000000000081565b34801561043357600080fd5b5061043c6114ec565b60405161021e9190613a05565b34801561045557600080fd5b5061045e6114f8565b60405161021e9190613aaa565b34801561047757600080fd5b5061028e7f000000000000000000000000000000000000000000000000000000000000000081565b3480156104ab57600080fd5b506102147f000000000000000000000000000000000000000000000000000000000000000081565b3480156104df57600080fd5b5060015461028e906001600160a01b031681565b3480156104ff57600080fd5b506101f261050e3660046139ab565b611586565b34801561051f57600080fd5b506101f261052e3660046139ab565b61187f565b34801561053f57600080fd5b506101f261054e3660046139ab565b611a8d565b34801561055f57600080fd5b507f000000000000000000000000000000000000000000000000000000000000000061028e565b34801561059257600080fd5b50610214611c9b565b3480156105a757600080fd5b5060005461028e906001600160a01b031681565b3480156105c757600080fd5b506102146105d6366004613abd565b611d47565b3480156105e757600080fd5b5061028e7f000000000000000000000000000000000000000000000000000000000000000081565b34801561061b57600080fd5b506000546001600160a01b031661028e565b34801561063957600080fd5b5061045e604051806040016040528060058152602001640352e312e360dc1b81525081565b61066b335b60039061218d565b6106b55760405162461bcd60e51b815260206004820152601660248201527531b0b63632b916b4b996b737ba16b096b5b2b2b832b960511b60448201526064015b60405180910390fd5b6001546001600160a01b031661070d5760405162461bcd60e51b815260206004820152601560248201527f6665652d636f6c6c6563746f722d6e6f742d736574000000000000000000000060448201526064016106ac565b7f00000000000000000000000000000000000000000000000000000000000000006001600160a01b0316816001600160a01b0316141561078f5760405162461bcd60e51b815260206004820152601f60248201527f6e6f742d616c6c6f7765642d746f2d73776565702d636f6c6c61746572616c0060448201526064016106ac565b6000546001600160a01b03828116911614156107e45760405162461bcd60e51b815260206004820152601460248201527306e6f742d616c6c6f7765642d746f2d73776565760641b60448201526064016106ac565b6001600160a01b03811673eeeeeeeeeeeeeeeeeeeeeeeeeeeeeeeeeeeeeeee14156108225760015461081f906001600160a01b0316476121af565b50565b6040516370a0823160e01b81523060048201526000906001600160a01b038316906370a082319060240160206040518083038186803b15801561086457600080fd5b505afa158015610878573d6000803e3d6000fd5b505050506040513d601f19601f8201168201806040525081019061089c9190613ae9565b6001549091506108b9906001600160a01b038481169116836122cd565b5050565b60006108c833610663565b61090d5760405162461bcd60e51b815260206004820152601660248201527531b0b63632b916b4b996b737ba16b096b5b2b2b832b960511b60448201526064016106ac565b6040516370a0823160e01b81523060048201526000907f00000000000000000000000000000000000000000000000000000000000000006001600160a01b0316906370a082319060240160206040518083038186803b15801561096f57600080fd5b505afa158015610983573d6000803e3d6000fd5b505050506040513d601f19601f820116820180604052508101906109a79190613ae9565b90506109b1612345565b6040516370a0823160e01b815230600482015281907f00000000000000000000000000000000000000000000000000000000000000006001600160a01b0316906370a082319060240160206040518083038186803b158015610a1257600080fd5b505afa158015610a26573d6000803e3d6000fd5b505050506040513d601f19601f82011682018060405250810190610a4a9190613ae9565b610a549190613b18565b915082821015610a9d5760405162461bcd60e51b81526020600482015260146024820152731b9bdd0b595b9bdd59da0b585b5bdd5b9d13dd5d60621b60448201526064016106ac565b50919050565b7f00000000000000000000000000000000000000000000000000000000000000006001600160a01b0316630c340a246040518163ffffffff1660e01b815260040160206040518083038186803b158015610afc57600080fd5b505afa158015610b10573d6000803e3d6000fd5b505050506040513d601f19601f82011682018060405250810190610b349190613b2f565b6001600160a01b0316336001600160a01b031614610b945760405162461bcd60e51b815260206004820152601a60248201527f63616c6c65722d69732d6e6f742d7468652d676f7665726e6f7200000000000060448201526064016106ac565b610b9f600382612386565b61081f5760405162461bcd60e51b815260206004820152601460248201527f72656d6f76652d6b65657065722d6661696c656400000000000000000000000060448201526064016106ac565b610bf433610663565b610c395760405162461bcd60e51b815260206004820152601660248201527531b0b63632b916b4b996b737ba16b096b5b2b2b832b960511b60448201526064016106ac565b604051636a9eee1360e11b81523060048201526000907f00000000000000000000000000000000000000000000000000000000000000006001600160a01b03169063d53ddc269060240160206040518083038186803b158015610c9b57600080fd5b505afa158015610caf573d6000803e3d6000fd5b505050506040513d601f19601f82011682018060405250810190610cd39190613ae9565b604051639f2b283360e01b81523060048201529091506000906001600160a01b037f00000000000000000000000000000000000000000000000000000000000000001690639f2b28339060240160206040518083038186803b158015610d3857600080fd5b505afa158015610d4c573d6000803e3d6000fd5b505050506040513d601f19601f82011682018060405250810190610d709190613ae9565b90506000610d7c61239b565b905081811115610d9d57610d908282613b18565b610d9a9084613b4c565b92505b6000610da88461246d565b90508015610ee3577f00000000000000000000000000000000000000000000000000000000000000006001600160a01b0316638f2e1d1834877f00000000000000000000000000000000000000000000000000000000000000007f0000000000000000000000000000000000000000000000000000000000000000338730604051602001610e4e919060609190911b6bffffffffffffffffffffffff1916815260140190565b60408051601f198184030181526060830182526000808452602084810191909152825180840184526002815261060f60f31b918101919091528383015290516001600160e01b031960e08b901b168152610eb097969594939290600401613b64565b6000604051808303818588803b158015610ec957600080fd5b505af1158015610edd573d6000803e3d6000fd5b50505050505b5050505050565b337f00000000000000000000000000000000000000000000000000000000000000006001600160a01b031614610f625760405162461bcd60e51b815260206004820152601960248201527f63616c6c65722d69732d6e6f742d7665737065722d706f6f6c0000000000000060448201526064016106ac565b6040516370a0823160e01b81523060048201526000907f00000000000000000000000000000000000000000000000000000000000000006001600160a01b0316906370a082319060240160206040518083038186803b158015610fc457600080fd5b505afa158015610fd8573d6000803e3d6000fd5b505050506040513d601f19601f82011682018060405250810190610ffc9190613ae9565b9050818110611059576108b96001600160a01b037f0000000000000000000000000000000000000000000000000000000000000000167f0000000000000000000000000000000000000000000000000000000000000000846122cd565b61106b6110668284613b18565b61268d565b6040516370a0823160e01b81523060048201527f00000000000000000000000000000000000000000000000000000000000000006001600160a01b0316906370a082319060240160206040518083038186803b1580156110ca57600080fd5b505afa1580156110de573d6000803e3d6000fd5b505050506040513d601f19601f820116820180604052508101906111029190613ae9565b90506108b97f0000000000000000000000000000000000000000000000000000000000000000611132848461276a565b6001600160a01b037f00000000000000000000000000000000000000000000000000000000000000001691906122cd565b61116c33610663565b6111b15760405162461bcd60e51b815260206004820152601660248201527531b0b63632b916b4b996b737ba16b096b5b2b2b832b960511b60448201526064016106ac565b61081f81612780565b7f00000000000000000000000000000000000000000000000000000000000000006001600160a01b0316630c340a246040518163ffffffff1660e01b815260040160206040518083038186803b15801561121357600080fd5b505afa158015611227573d6000803e3d6000fd5b505050506040513d601f19601f8201168201806040525081019061124b9190613b2f565b6001600160a01b0316336001600160a01b0316146112ab5760405162461bcd60e51b815260206004820152601a60248201527f63616c6c65722d69732d6e6f742d7468652d676f7665726e6f7200000000000060448201526064016106ac565b6112b660038261216f565b61081f5760405162461bcd60e51b815260206004820152601160248201527f6164642d6b65657065722d6661696c656400000000000000000000000000000060448201526064016106ac565b6040516393f1a40b60e01b81527f000000000000000000000000000000000000000000000000000000000000000060048201523060248201526000907f00000000000000000000000000000000000000000000000000000000000000006001600160a01b0316906393f1a40b90604401604080518083038186803b15801561138957600080fd5b505afa15801561139d573d6000803e3d6000fd5b505050506040513d601f19601f82011682018060405250810190610a9d9190613be0565b604051632f607fdd60e01b81527f000000000000000000000000000000000000000000000000000000000000000060048201523060248201526000907f00000000000000000000000000000000000000000000000000000000000000006001600160a01b031690632f607fdd906044015b60206040518083038186803b15801561144a57600080fd5b505afa15801561145e573d6000803e3d6000fd5b505050506040513d601f19601f820116820180604052508101906114829190613ae9565b905090565b6000808061149433610663565b6114d95760405162461bcd60e51b815260206004820152601660248201527531b0b63632b916b4b996b737ba16b096b5b2b2b832b960511b60448201526064016106ac565b6114e16128bf565b925092509250909192565b60606114826003612cf7565b6005805461150590613c04565b80601f016020809104026020016040519081016040528092919081815260200182805461153190613c04565b801561157e5780601f106115535761010080835404028352916020019161157e565b820191906000526020600020905b81548152906001019060200180831161156157829003601f168201915b505050505081565b337f00000000000000000000000000000000000000000000000000000000000000006001600160a01b0316146115fe5760405162461bcd60e51b815260206004820152601960248201527f63616c6c65722d69732d6e6f742d7665737065722d706f6f6c0000000000000060448201526064016106ac565b6001600160a01b0381166116545760405162461bcd60e51b815260206004820152601c60248201527f6e65772d73747261746567792d616464726573732d69732d7a65726f0000000060448201526064016106ac565b7f00000000000000000000000000000000000000000000000000000000000000006001600160a01b0316816001600160a01b03166316f0115b6040518163ffffffff1660e01b815260040160206040518083038186803b1580156116b757600080fd5b505afa1580156116cb573d6000803e3d6000fd5b505050506040513d601f19601f820116820180604052508101906116ef9190613b2f565b6001600160a01b0316146117455760405162461bcd60e51b815260206004820152601660248201527f6e6f742d76616c69642d6e65772d73747261746567790000000000000000000060448201526064016106ac565b61174e81612d0b565b6000546040516370a0823160e01b81523060048201526117e29183916001600160a01b03909116906370a082319060240160206040518083038186803b15801561179757600080fd5b505afa1580156117ab573d6000803e3d6000fd5b505050506040513d601f19601f820116820180604052508101906117cf9190613ae9565b6000546001600160a01b031691906122cd565b6040516370a0823160e01b815230600482015261081f9082906001600160a01b037f000000000000000000000000000000000000000000000000000000000000000016906370a082319060240160206040518083038186803b15801561184757600080fd5b505afa15801561185b573d6000803e3d6000fd5b505050506040513d601f19601f820116820180604052508101906111329190613ae9565b7f00000000000000000000000000000000000000000000000000000000000000006001600160a01b0316630c340a246040518163ffffffff1660e01b815260040160206040518083038186803b1580156118d857600080fd5b505afa1580156118ec573d6000803e3d6000fd5b505050506040513d601f19601f820116820180604052508101906119109190613b2f565b6001600160a01b0316336001600160a01b0316146119705760405162461bcd60e51b815260206004820152601a60248201527f63616c6c65722d69732d6e6f742d7468652d676f7665726e6f7200000000000060448201526064016106ac565b6001600160a01b0381166119c65760405162461bcd60e51b815260206004820152601d60248201527f6665652d636f6c6c6563746f722d616464726573732d69732d7a65726f00000060448201526064016106ac565b6001546001600160a01b0382811691161415611a245760405162461bcd60e51b815260206004820152601560248201527f6665652d636f6c6c6563746f722d69732d73616d65000000000000000000000060448201526064016106ac565b6001546040516001600160a01b038084169216907f0f06062680f9bd68e786e9980d9bb03d73d5620fc3b345e417b6eacb310b970690600090a36001805473ffffffffffffffffffffffffffffffffffffffff19166001600160a01b0392909216919091179055565b7f00000000000000000000000000000000000000000000000000000000000000006001600160a01b0316630c340a246040518163ffffffff1660e01b815260040160206040518083038186803b158015611ae657600080fd5b505afa158015611afa573d6000803e3d6000fd5b505050506040513d601f19601f82011682018060405250810190611b1e9190613b2f565b6001600160a01b0316336001600160a01b031614611b7e5760405162461bcd60e51b815260206004820152601a60248201527f63616c6c65722d69732d6e6f742d7468652d676f7665726e6f7200000000000060448201526064016106ac565b6001600160a01b038116611bd45760405162461bcd60e51b815260206004820152601760248201527f737761707065722d616464726573732d69732d7a65726f00000000000000000060448201526064016106ac565b6002546001600160a01b0382811691161415611c325760405162461bcd60e51b815260206004820152600f60248201527f737761707065722d69732d73616d65000000000000000000000000000000000060448201526064016106ac565b6002546040516001600160a01b038084169216907f6c953b7ec311055c20b96a42cea31e89528e375b1bf953a503db40854b3188fe90600090a36002805473ffffffffffffffffffffffffffffffffffffffff19166001600160a01b0392909216919091179055565b6040516370a0823160e01b81523060048201526000907f00000000000000000000000000000000000000000000000000000000000000006001600160a01b0316906370a082319060240160206040518083038186803b158015611cfd57600080fd5b505afa158015611d11573d6000803e3d6000fd5b505050506040513d601f19601f82011682018060405250810190611d359190613ae9565b611d3d61239b565b6114829190613b4c565b6000611d5233610663565b611d975760405162461bcd60e51b815260206004820152601660248201527531b0b63632b916b4b996b737ba16b096b5b2b2b832b960511b60448201526064016106ac565b7f00000000000000000000000000000000000000000000000000000000000000006001600160a01b0316836001600160a01b03161415611e195760405162461bcd60e51b815260206004820152601f60248201527f6e6f742d616c6c6f7765642d746f2d73776565702d636f6c6c61746572616c0060448201526064016106ac565b6000546001600160a01b0384811691161415611e6e5760405162461bcd60e51b815260206004820152601460248201527306e6f742d616c6c6f7765642d746f2d73776565760641b60448201526064016106ac565b6040516370a0823160e01b81523060048201526000907f00000000000000000000000000000000000000000000000000000000000000006001600160a01b0316906370a082319060240160206040518083038186803b158015611ed057600080fd5b505afa158015611ee4573d6000803e3d6000fd5b505050506040513d601f19601f82011682018060405250810190611f089190613ae9565b6040516370a0823160e01b81523060048201529091506000906001600160a01b038616906370a082319060240160206040518083038186803b158015611f4d57600080fd5b505afa158015611f61573d6000803e3d6000fd5b505050506040513d601f19601f82011682018060405250810190611f859190613ae9565b9050801561207b57600254604051636eb1769f60e11b81523060048201526001600160a01b0391821660248201529086169063dd62ed3e9060440160206040518083038186803b158015611fd857600080fd5b505afa158015611fec573d6000803e3d6000fd5b505050506040513d601f19601f820116820180604052508101906120109190613ae9565b81111561204e57600254612032906001600160a01b0387811691166000612e99565b60025461204e906001600160a01b038781169116600019612e99565b612079857f000000000000000000000000000000000000000000000000000000000000000083612fc4565b505b6040516370a0823160e01b815230600482015282907f00000000000000000000000000000000000000000000000000000000000000006001600160a01b0316906370a082319060240160206040518083038186803b1580156120dc57600080fd5b505afa1580156120f0573d6000803e3d6000fd5b505050506040513d601f19601f820116820180604052508101906121149190613ae9565b61211e9190613b18565b9250838310156121675760405162461bcd60e51b81526020600482015260146024820152731b9bdd0b595b9bdd59da0b585b5bdd5b9d13dd5d60621b60448201526064016106ac565b505092915050565b6000612184836001600160a01b038416613068565b90505b92915050565b6001600160a01b03811660009081526001830160205260408120541515612184565b804710156121ff5760405162461bcd60e51b815260206004820152601d60248201527f416464726573733a20696e73756666696369656e742062616c616e636500000060448201526064016106ac565b6000826001600160a01b03168260405160006040518083038185875af1925050503d806000811461224c576040519150601f19603f3d011682016040523d82523d6000602084013e612251565b606091505b50509050806122c85760405162461bcd60e51b815260206004820152603a60248201527f416464726573733a20756e61626c6520746f2073656e642076616c75652c207260448201527f6563697069656e74206d6179206861766520726576657274656400000000000060648201526084016106ac565b505050565b6040516001600160a01b0383166024820152604481018290526122c890849063a9059cbb60e01b906064015b60408051601f198184030181529190526020810180517bffffffffffffffffffffffffffffffffffffffffffffffffffffffff166001600160e01b0319909316929092179091526130b7565b600080612350613189565b909250905080156108b9576108b9827f0000000000000000000000000000000000000000000000000000000000000000836132cf565b6000612184836001600160a01b038416613371565b6040516370a0823160e01b81523060048201526000907f00000000000000000000000000000000000000000000000000000000000000006001600160a01b03169063f6cd35ee9082906370a082319060240160206040518083038186803b15801561240557600080fd5b505afa158015612419573d6000803e3d6000fd5b505050506040513d601f19601f8201168201806040525081019061243d9190613ae9565b612445611302565b61244f9190613b4c565b6040518263ffffffff1660e01b815260040161143291815260200190565b60008061247983613464565b6040516370a0823160e01b81523060048201529091506000906001600160a01b037f000000000000000000000000000000000000000000000000000000000000000016906370a082319060240160206040518083038186803b1580156124de57600080fd5b505afa1580156124f2573d6000803e3d6000fd5b505050506040513d601f19601f820116820180604052508101906125169190613ae9565b90508082111561268657600061252a611302565b905060006125388385613b18565b9050818111156125455750805b604051630441a3e760e41b81527f00000000000000000000000000000000000000000000000000000000000000006004820152602481018290527f00000000000000000000000000000000000000000000000000000000000000006001600160a01b03169063441a3e7090604401600060405180830381600087803b1580156125cd57600080fd5b505af11580156125e1573d6000803e3d6000fd5b50506040516370a0823160e01b81523060048201527f00000000000000000000000000000000000000000000000000000000000000006001600160a01b031692506370a08231915060240160206040518083038186803b15801561264457600080fd5b505afa158015612658573d6000803e3d6000fd5b505050506040513d601f19601f8201168201806040525081019061267c9190613ae9565b9695505050505050565b5092915050565b60006126988261246d565b905080156108b95760405163c4de93a560e01b815261ffff7f0000000000000000000000000000000000000000000000000000000000000000166004820152602481018290523060448201527f00000000000000000000000000000000000000000000000000000000000000006001600160a01b03169063c4de93a590606401602060405180830381600087803b15801561273257600080fd5b505af1158015612746573d6000803e3d6000fd5b505050506040513d601f19601f820116820180604052508101906122c89190613ae9565b60008183106127795781612184565b5090919050565b6127898161364a565b6127dd6001600160a01b037f0000000000000000000000000000000000000000000000000000000000000000167f000000000000000000000000000000000000000000000000000000000000000083612e99565b6128316001600160a01b037f0000000000000000000000000000000000000000000000000000000000000000167f000000000000000000000000000000000000000000000000000000000000000083612e99565b6128856001600160a01b037f0000000000000000000000000000000000000000000000000000000000000000167f000000000000000000000000000000000000000000000000000000000000000083612e99565b60025461081f906001600160a01b037f00000000000000000000000000000000000000000000000000000000000000008116911683612e99565b604051636a9eee1360e11b81523060048201526000908190819081906001600160a01b037f0000000000000000000000000000000000000000000000000000000000000000169063d53ddc269060240160206040518083038186803b15801561292757600080fd5b505afa15801561293b573d6000803e3d6000fd5b505050506040513d601f19601f8201168201806040525081019061295f9190613ae9565b604051639f2b283360e01b81523060048201529091506000906001600160a01b037f00000000000000000000000000000000000000000000000000000000000000001690639f2b28339060240160206040518083038186803b1580156129c457600080fd5b505afa1580156129d8573d6000803e3d6000fd5b505050506040513d601f19601f820116820180604052508101906129fc9190613ae9565b6040516370a0823160e01b81523060048201529091506000906001600160a01b037f000000000000000000000000000000000000000000000000000000000000000016906370a082319060240160206040518083038186803b158015612a6157600080fd5b505afa158015612a75573d6000803e3d6000fd5b505050506040513d601f19601f82011682018060405250810190612a999190613ae9565b9050600081612aa661239b565b612ab09190613b4c565b905082811115612acb57612ac48382613b18565b9650612ad8565b612ad58184613b18565b95505b6000612ae48589613b4c565b905082811115612b9557612afb6110668483613b18565b6040516370a0823160e01b81523060048201527f00000000000000000000000000000000000000000000000000000000000000006001600160a01b0316906370a082319060240160206040518083038186803b158015612b5a57600080fd5b505afa158015612b6e573d6000803e3d6000fd5b505050506040513d601f19601f82011682018060405250810190612b929190613ae9565b92505b612b9f838661276a565b9550858311612baf576000612bc2565b612bc2612bbc8785613b18565b8961276a565b6040516302df682360e11b81526004810182905260248101899052604481018890529098507f00000000000000000000000000000000000000000000000000000000000000006001600160a01b0316906305bed04690606401600060405180830381600087803b158015612c3557600080fd5b505af1158015612c49573d6000803e3d6000fd5b50506040516370a0823160e01b8152306004820152612ced92507f00000000000000000000000000000000000000000000000000000000000000006001600160a01b031691506370a082319060240160206040518083038186803b158015612cb057600080fd5b505afa158015612cc4573d6000803e3d6000fd5b505050506040513d601f19601f82011682018060405250810190612ce89190613ae9565b61369e565b5050505050909192565b60606000612d048361382f565b9392505050565b60008054906101000a90046001600160a01b03166001600160a01b0316816001600160a01b031663fc0c546a6040518163ffffffff1660e01b815260040160206040518083038186803b158015612d6157600080fd5b505afa158015612d75573d6000803e3d6000fd5b505050506040513d601f19601f82011682018060405250810190612d999190613b2f565b6001600160a01b031614612def5760405162461bcd60e51b815260206004820152601360248201527f77726f6e672d726563656970742d746f6b656e0000000000000000000000000060448201526064016106ac565b7f00000000000000000000000000000000000000000000000000000000000000006001600160a01b031663441a3e707f0000000000000000000000000000000000000000000000000000000000000000612e47611302565b6040516001600160e01b031960e085901b16815260048101929092526024820152604401600060405180830381600087803b158015612e8557600080fd5b505af1158015610ee3573d6000803e3d6000fd5b801580612f225750604051636eb1769f60e11b81523060048201526001600160a01b03838116602483015284169063dd62ed3e9060440160206040518083038186803b158015612ee857600080fd5b505afa158015612efc573d6000803e3d6000fd5b505050506040513d601f19601f82011682018060405250810190612f209190613ae9565b155b612f945760405162461bcd60e51b815260206004820152603660248201527f5361666545524332303a20617070726f76652066726f6d206e6f6e2d7a65726f60448201527f20746f206e6f6e2d7a65726f20616c6c6f77616e63650000000000000000000060648201526084016106ac565b6040516001600160a01b0383166024820152604481018290526122c890849063095ea7b360e01b906064016122f9565b600254604051636ccb2b0160e01b81526001600160a01b038581166004830152848116602483015260448201849052600160648301523060848301526000921690636ccb2b019060a401602060405180830381600087803b15801561302857600080fd5b505af115801561303c573d6000803e3d6000fd5b505050506040513d601f19601f820116820180604052508101906130609190613ae9565b949350505050565b60008181526001830160205260408120546130af57508154600181810184556000848152602080822090930184905584548482528286019093526040902091909155612187565b506000612187565b600061310c826040518060400160405280602081526020017f5361666545524332303a206c6f772d6c6576656c2063616c6c206661696c6564815250856001600160a01b031661388b9092919063ffffffff16565b8051909150156122c8578080602001905181019061312a9190613c39565b6122c85760405162461bcd60e51b815260206004820152602a60248201527f5361666545524332303a204552433230206f7065726174696f6e20646964206e6044820152691bdd081cdd58d8d9595960b21b60648201526084016106ac565b604051630441a3e760e41b81527f000000000000000000000000000000000000000000000000000000000000000060048201526000602482018190529081906001600160a01b037f0000000000000000000000000000000000000000000000000000000000000000169063441a3e7090604401600060405180830381600087803b15801561321657600080fd5b505af115801561322a573d6000803e3d6000fd5b50506040516370a0823160e01b81523060048201527f000000000000000000000000000000000000000000000000000000000000000092506001600160a01b03831691506370a082319060240160206040518083038186803b15801561328f57600080fd5b505afa1580156132a3573d6000803e3d6000fd5b505050506040513d601f19601f820116820180604052508101906132c79190613ae9565b915091509091565b600254604051636ccb2b0160e01b81526001600160a01b0385811660048301528481166024830152604482018490526001606483015230608483015290911690636ccb2b019060a401602060405180830381600087803b15801561333257600080fd5b505af1925050508015613362575060408051601f3d908101601f1916820190925261335f91810190613ae9565b60015b61336b57505050565b50505050565b6000818152600183016020526040812054801561345a576000613395600183613b18565b85549091506000906133a990600190613b18565b905081811461340e5760008660000182815481106133c9576133c9613c5b565b90600052602060002001549050808760000184815481106133ec576133ec613c5b565b6000918252602080832090910192909255918252600188019052604090208390555b855486908061341f5761341f613c71565b600190038181906000526020600020016000905590558560010160008681526020019081526020016000206000905560019350505050612187565b6000915050612187565b6000807f00000000000000000000000000000000000000000000000000000000000000006001600160a01b03166315770f926040518163ffffffff1660e01b815260040160206040518083038186803b1580156134c057600080fd5b505afa1580156134d4573d6000803e3d6000fd5b505050506040513d601f19601f820116820180604052508101906134f89190613ae9565b905060008111613509576000612d04565b807f00000000000000000000000000000000000000000000000000000000000000006001600160a01b03166318160ddd6040518163ffffffff1660e01b815260040160206040518083038186803b15801561356357600080fd5b505afa158015613577573d6000803e3d6000fd5b505050506040513d601f19601f8201168201806040525081019061359b9190613ae9565b7f00000000000000000000000000000000000000000000000000000000000000006001600160a01b031663feb56b156040518163ffffffff1660e01b815260040160206040518083038186803b1580156135f457600080fd5b505afa158015613608573d6000803e3d6000fd5b505050506040513d601f19601f8201168201806040525081019061362c9190613ae9565b6136369086613c87565b6136409190613ca9565b612d049190613c87565b61081f6001600160a01b037f0000000000000000000000000000000000000000000000000000000000000000167f000000000000000000000000000000000000000000000000000000000000000083612e99565b801561081f576040516321ec87bf60e21b81527f00000000000000000000000000000000000000000000000000000000000000006004820152602481018290523060448201527f00000000000000000000000000000000000000000000000000000000000000006001600160a01b0316906387b21efc90606401600060405180830381600087803b15801561373257600080fd5b505af1158015613746573d6000803e3d6000fd5b50506040516370a0823160e01b81523060048201526001600160a01b037f00000000000000000000000000000000000000000000000000000000000000008116935063e2bbb15892507f0000000000000000000000000000000000000000000000000000000000000000917f0000000000000000000000000000000000000000000000000000000000000000909116906370a082319060240160206040518083038186803b1580156137f757600080fd5b505afa15801561380b573d6000803e3d6000fd5b505050506040513d601f19601f82011682018060405250810190612e479190613ae9565b60608160000180548060200260200160405190810160405280929190818152602001828054801561387f57602002820191906000526020600020905b81548152602001906001019080831161386b575b50505050509050919050565b6060613060848460008585843b6138e45760405162461bcd60e51b815260206004820152601d60248201527f416464726573733a2063616c6c20746f206e6f6e2d636f6e747261637400000060448201526064016106ac565b600080866001600160a01b031685876040516139009190613cc8565b60006040518083038185875af1925050503d806000811461393d576040519150601f19603f3d011682016040523d82523d6000602084013e613942565b606091505b509150915061395282828661395d565b979650505050505050565b6060831561396c575081612d04565b82511561397c5782518084602001fd5b8160405162461bcd60e51b81526004016106ac9190613aaa565b6001600160a01b038116811461081f57600080fd5b6000602082840312156139bd57600080fd5b8135612d0481613996565b6000602082840312156139da57600080fd5b5035919050565b6000602082840312156139f357600080fd5b813561ffff81168114612d0457600080fd5b6020808252825182820181905260009190848201906040850190845b81811015613a465783516001600160a01b031683529284019291840191600101613a21565b50909695505050505050565b60005b83811015613a6d578181015183820152602001613a55565b8381111561336b5750506000910152565b60008151808452613a96816020860160208601613a52565b601f01601f19169290920160200192915050565b6020815260006121846020830184613a7e565b60008060408385031215613ad057600080fd5b8235613adb81613996565b946020939093013593505050565b600060208284031215613afb57600080fd5b5051919050565b634e487b7160e01b600052601160045260246000fd5b600082821015613b2a57613b2a613b02565b500390565b600060208284031215613b4157600080fd5b8151612d0481613996565b60008219821115613b5f57613b5f613b02565b500190565b61ffff881681528660208201528560408201526001600160a01b038516606082015283608082015260e060a08201526000613ba260e0830185613a7e565b82810360c08401528351815260208401516020820152604084015160606040830152613bd16060830182613a7e565b9b9a5050505050505050505050565b60008060408385031215613bf357600080fd5b505080516020909101519092909150565b600181811c90821680613c1857607f821691505b60208210811415610a9d57634e487b7160e01b600052602260045260246000fd5b600060208284031215613c4b57600080fd5b81518015158114612d0457600080fd5b634e487b7160e01b600052603260045260246000fd5b634e487b7160e01b600052603160045260246000fd5b600082613ca457634e487b7160e01b600052601260045260246000fd5b500490565b6000816000190483118215151615613cc357613cc3613b02565b500290565b60008251613cda818460208701613a52565b919091019291505056fea26469706673582212207d98456e887731ccbfc57df4f9a7fc6e2cefe5ca42473c424630cc4417dfe25a64736f6c63430008090033",
  "devdoc": {
    "kind": "dev",
    "methods": {
      "addKeeper(address)": {
        "params": {
          "_keeperAddress": "keeper address to add."
        }
      },
      "approveToken(uint256)": {
        "details": "Approve all required tokens"
      },
      "migrate(address)": {
        "details": "_beforeMigration hook can be implemented in child strategy to do extra steps.",
        "params": {
          "_newStrategy": "Address of new strategy"
        }
      },
      "rebalance()": {
        "returns": {
          "_loss": "Realized loss, if any, in collateral.",
          "_payback": "If strategy has any excess debt, we have to liquidate asset to payback excess debt.",
          "_profit": "Realized profit in collateral."
        }
      },
      "removeKeeper(address)": {
        "params": {
          "_keeperAddress": "keeper address to remove."
        }
      },
      "sweep(address)": {
        "params": {
          "_fromToken": "token address to sweep"
        }
      },
      "updateFeeCollector(address)": {
        "params": {
          "_feeCollector": "fee collector address"
        }
      },
      "updateSwapper(address)": {
        "params": {
          "_swapper": "swapper address"
        }
      },
      "withdraw(uint256)": {
        "params": {
          "_amount": "Amount of collateral token"
        }
      },
      "withdrawForRebalance(uint16)": {
        "details": "Stargate has different chainId than EVM chainId.",
        "params": {
          "dstChainId_": "Destination chainId."
        }
      }
    },
    "stateVariables": {
      "stargateRouter": {
        "details": "Router to add/remove liquidity from a STG Pool"
      }
    },
    "title": "This Strategy will deposit collateral token in a Stargate Pool Stake LP Token and accrue swap rewards",
    "version": 1
  },
  "userdoc": {
    "kind": "user",
    "methods": {
      "addKeeper(address)": {
        "notice": "Add given address in keepers list."
      },
      "claimAndSwapRewards(uint256)": {
        "notice": "Claim rewardToken and convert rewardToken into collateral token."
      },
      "collateral()": {
        "notice": "Returns address of token correspond to collateral token"
      },
      "keepers()": {
        "notice": "Return list of keepers"
      },
      "migrate(address)": {
        "notice": "Migrate all asset and vault ownership,if any, to new strategy"
      },
      "rebalance()": {
        "notice": "OnlyKeeper: Rebalance profit, loss and investment of this strategy.  Calculate profit, loss and payback of this strategy and realize profit/loss and  withdraw fund for payback, if any, and submit this report to pool."
      },
      "removeKeeper(address)": {
        "notice": "Remove given address from keepers list."
      },
      "rewardToken()": {
        "notice": "rewardToken, usually STG"
      },
      "stargateLpStaking()": {
        "notice": "Address of Staking contract (MasterChef V2 behavior)"
      },
      "stargateLpStakingPoolId()": {
        "notice": "Reward pool id of the MasterChef"
      },
      "stargatePoolId()": {
        "notice": "Stargate Factory LP Pool Id"
      },
      "swapToCollateral(address,uint256)": {
        "notice": "onlyKeeper:: Swap given token into collateral token."
      },
      "sweep(address)": {
        "notice": "sweep given token to feeCollector of strategy"
      },
      "token()": {
        "notice": "Returns address of token correspond to receipt token"
      },
      "tvl()": {
        "notice": "Returns total collateral locked in the strategy"
      },
      "updateFeeCollector(address)": {
        "notice": "Update fee collector"
      },
      "updateSwapper(address)": {
        "notice": "Update swapper"
      },
      "withdraw(uint256)": {
        "notice": "Withdraw collateral token from end protocol."
      },
      "withdrawForRebalance(uint16)": {
        "notice": "OnlyKeeper: This function will withdraw required collateral from given   destination chain to the chain where this contract is deployed."
      }
    },
    "version": 1
  },
  "storageLayout": {
    "storage": [
      {
        "astId": 14399,
        "contract": "vesper-strategies/contracts/strategies/stargate/Stargate.sol:Stargate",
        "label": "receiptToken",
        "offset": 0,
        "slot": "0",
        "type": "t_address"
      },
      {
        "astId": 14405,
        "contract": "vesper-strategies/contracts/strategies/stargate/Stargate.sol:Stargate",
        "label": "feeCollector",
        "offset": 0,
        "slot": "1",
        "type": "t_address"
      },
      {
        "astId": 14408,
        "contract": "vesper-strategies/contracts/strategies/stargate/Stargate.sol:Stargate",
        "label": "swapper",
        "offset": 0,
        "slot": "2",
        "type": "t_contract(IRoutedSwapper)13247"
      },
      {
        "astId": 14421,
        "contract": "vesper-strategies/contracts/strategies/stargate/Stargate.sol:Stargate",
        "label": "_keepers",
        "offset": 0,
        "slot": "3",
        "type": "t_struct(AddressSet)3025_storage"
      },
      {
        "astId": 32374,
        "contract": "vesper-strategies/contracts/strategies/stargate/Stargate.sol:Stargate",
        "label": "NAME",
        "offset": 0,
        "slot": "5",
        "type": "t_string_storage"
      }
    ],
    "types": {
      "t_address": {
        "encoding": "inplace",
        "label": "address",
        "numberOfBytes": "20"
      },
      "t_array(t_bytes32)dyn_storage": {
        "base": "t_bytes32",
        "encoding": "dynamic_array",
        "label": "bytes32[]",
        "numberOfBytes": "32"
      },
      "t_bytes32": {
        "encoding": "inplace",
        "label": "bytes32",
        "numberOfBytes": "32"
      },
      "t_contract(IRoutedSwapper)13247": {
        "encoding": "inplace",
        "label": "contract IRoutedSwapper",
        "numberOfBytes": "20"
      },
      "t_mapping(t_bytes32,t_uint256)": {
        "encoding": "mapping",
        "key": "t_bytes32",
        "label": "mapping(bytes32 => uint256)",
        "numberOfBytes": "32",
        "value": "t_uint256"
      },
      "t_string_storage": {
        "encoding": "bytes",
        "label": "string",
        "numberOfBytes": "32"
      },
      "t_struct(AddressSet)3025_storage": {
        "encoding": "inplace",
        "label": "struct EnumerableSet.AddressSet",
        "members": [
          {
            "astId": 3024,
            "contract": "vesper-strategies/contracts/strategies/stargate/Stargate.sol:Stargate",
            "label": "_inner",
            "offset": 0,
            "slot": "0",
            "type": "t_struct(Set)2724_storage"
          }
        ],
        "numberOfBytes": "64"
      },
      "t_struct(Set)2724_storage": {
        "encoding": "inplace",
        "label": "struct EnumerableSet.Set",
        "members": [
          {
            "astId": 2719,
            "contract": "vesper-strategies/contracts/strategies/stargate/Stargate.sol:Stargate",
            "label": "_values",
            "offset": 0,
            "slot": "0",
            "type": "t_array(t_bytes32)dyn_storage"
          },
          {
            "astId": 2723,
            "contract": "vesper-strategies/contracts/strategies/stargate/Stargate.sol:Stargate",
            "label": "_indexes",
            "offset": 0,
            "slot": "1",
            "type": "t_mapping(t_bytes32,t_uint256)"
          }
        ],
        "numberOfBytes": "64"
      },
      "t_uint256": {
        "encoding": "inplace",
        "label": "uint256",
        "numberOfBytes": "32"
      }
    }
  }
}