{
  "address": "0x810B916Ff0CDc1AF652f1b29Cd7342F3896742D4",
  "abi": [
    {
      "inputs": [
        {
          "internalType": "address",
          "name": "pool_",
          "type": "address"
        },
        {
          "internalType": "address",
          "name": "swapper_",
          "type": "address"
        },
        {
          "internalType": "address",
          "name": "comptroller_",
          "type": "address"
        },
        {
          "internalType": "address",
          "name": "rewardToken_",
          "type": "address"
        },
        {
          "internalType": "address",
          "name": "receiptToken_",
          "type": "address"
        },
        {
          "internalType": "string",
          "name": "name_",
          "type": "string"
        }
      ],
      "stateMutability": "nonpayable",
      "type": "constructor"
    },
    {
      "anonymous": false,
      "inputs": [
        {
          "indexed": true,
          "internalType": "address",
          "name": "previousFeeCollector",
          "type": "address"
        },
        {
          "indexed": true,
          "internalType": "address",
          "name": "newFeeCollector",
          "type": "address"
        }
      ],
      "name": "UpdatedFeeCollector",
      "type": "event"
    },
    {
      "anonymous": false,
      "inputs": [
        {
          "indexed": true,
          "internalType": "contract IRoutedSwapper",
          "name": "oldSwapper",
          "type": "address"
        },
        {
          "indexed": true,
          "internalType": "contract IRoutedSwapper",
          "name": "newSwapper",
          "type": "address"
        }
      ],
      "name": "UpdatedSwapper",
      "type": "event"
    },
    {
      "inputs": [],
      "name": "COMPTROLLER",
      "outputs": [
        {
          "internalType": "contract Comptroller",
          "name": "",
          "type": "address"
        }
      ],
      "stateMutability": "view",
      "type": "function"
    },
    {
      "inputs": [],
      "name": "NAME",
      "outputs": [
        {
          "internalType": "string",
          "name": "",
          "type": "string"
        }
      ],
      "stateMutability": "view",
      "type": "function"
    },
    {
      "inputs": [],
      "name": "VERSION",
      "outputs": [
        {
          "internalType": "string",
          "name": "",
          "type": "string"
        }
      ],
      "stateMutability": "view",
      "type": "function"
    },
    {
      "inputs": [
        {
          "internalType": "address",
          "name": "_keeperAddress",
          "type": "address"
        }
      ],
      "name": "addKeeper",
      "outputs": [],
      "stateMutability": "nonpayable",
      "type": "function"
    },
    {
      "inputs": [],
      "name": "approveToken",
      "outputs": [],
      "stateMutability": "nonpayable",
      "type": "function"
    },
    {
      "inputs": [],
      "name": "collateral",
      "outputs": [
        {
          "internalType": "address",
          "name": "",
          "type": "address"
        }
      ],
      "stateMutability": "view",
      "type": "function"
    },
    {
      "inputs": [],
      "name": "collateralToken",
      "outputs": [
        {
          "internalType": "contract IERC20",
          "name": "",
          "type": "address"
        }
      ],
      "stateMutability": "view",
      "type": "function"
    },
    {
      "inputs": [],
      "name": "feeCollector",
      "outputs": [
        {
          "internalType": "address",
          "name": "",
          "type": "address"
        }
      ],
      "stateMutability": "view",
      "type": "function"
    },
    {
      "inputs": [
        {
          "internalType": "address",
          "name": "_token",
          "type": "address"
        }
      ],
      "name": "isReservedToken",
      "outputs": [
        {
          "internalType": "bool",
          "name": "",
          "type": "bool"
        }
      ],
      "stateMutability": "view",
      "type": "function"
    },
    {
      "inputs": [],
      "name": "keepers",
      "outputs": [
        {
          "internalType": "address[]",
          "name": "",
          "type": "address[]"
        }
      ],
      "stateMutability": "view",
      "type": "function"
    },
    {
      "inputs": [
        {
          "internalType": "address",
          "name": "_newStrategy",
          "type": "address"
        }
      ],
      "name": "migrate",
      "outputs": [],
      "stateMutability": "nonpayable",
      "type": "function"
    },
    {
      "inputs": [],
      "name": "pool",
      "outputs": [
        {
          "internalType": "address",
          "name": "",
          "type": "address"
        }
      ],
      "stateMutability": "view",
      "type": "function"
    },
    {
      "inputs": [],
      "name": "rebalance",
      "outputs": [
        {
          "internalType": "uint256",
          "name": "_profit",
          "type": "uint256"
        },
        {
          "internalType": "uint256",
          "name": "_loss",
          "type": "uint256"
        },
        {
          "internalType": "uint256",
          "name": "_payback",
          "type": "uint256"
        }
      ],
      "stateMutability": "nonpayable",
      "type": "function"
    },
    {
      "inputs": [],
      "name": "receiptToken",
      "outputs": [
        {
          "internalType": "address",
          "name": "",
          "type": "address"
        }
      ],
      "stateMutability": "view",
      "type": "function"
    },
    {
      "inputs": [
        {
          "internalType": "address",
          "name": "_keeperAddress",
          "type": "address"
        }
      ],
      "name": "removeKeeper",
      "outputs": [],
      "stateMutability": "nonpayable",
      "type": "function"
    },
    {
      "inputs": [],
      "name": "rewardToken",
      "outputs": [
        {
          "internalType": "address",
          "name": "",
          "type": "address"
        }
      ],
      "stateMutability": "view",
      "type": "function"
    },
    {
      "inputs": [],
      "name": "swapper",
      "outputs": [
        {
          "internalType": "contract IRoutedSwapper",
          "name": "",
          "type": "address"
        }
      ],
      "stateMutability": "view",
      "type": "function"
    },
    {
      "inputs": [
        {
          "internalType": "address",
          "name": "_fromToken",
          "type": "address"
        }
      ],
      "name": "sweepERC20",
      "outputs": [],
      "stateMutability": "nonpayable",
      "type": "function"
    },
    {
      "inputs": [],
      "name": "token",
      "outputs": [
        {
          "internalType": "address",
          "name": "",
          "type": "address"
        }
      ],
      "stateMutability": "view",
      "type": "function"
    },
    {
      "inputs": [],
      "name": "tvl",
      "outputs": [
        {
          "internalType": "uint256",
          "name": "",
          "type": "uint256"
        }
      ],
      "stateMutability": "view",
      "type": "function"
    },
    {
      "inputs": [
        {
          "internalType": "address",
          "name": "_feeCollector",
          "type": "address"
        }
      ],
      "name": "updateFeeCollector",
      "outputs": [],
      "stateMutability": "nonpayable",
      "type": "function"
    },
    {
      "inputs": [
        {
          "internalType": "contract IRoutedSwapper",
          "name": "_swapper",
          "type": "address"
        }
      ],
      "name": "updateSwapper",
      "outputs": [],
      "stateMutability": "nonpayable",
      "type": "function"
    },
    {
      "inputs": [
        {
          "internalType": "uint256",
          "name": "_amount",
          "type": "uint256"
        }
      ],
      "name": "withdraw",
      "outputs": [],
      "stateMutability": "nonpayable",
      "type": "function"
    }
  ],
  "transactionHash": "0xdbcf50e77f9dd93c7100893b5f11bb99e95e7545d2c4c7dd6e965de334f654bb",
  "args": [
    "0xa77f218cf8B28BddB2039eC1Cd2986548aecE76b",
    "0x2E99f1b571d1A3D7987f8CaDd9F4C5f2240354e2",
    "0xfD36E2c2a6789Db23113685031d7F16329158384",
    "0xcF6BB5389c92Bdda8a3747Ddb454cB7a64626C63",
    "0x95c78222B3D6e262426483D42CfA53685A67Ab9D",
    "Venus_BUSD"
  ],
  "numDeployments": 1,
  "solcInputHash": "af61f2ef9792d0c44529c70788b48fbf",
  "bytecode": "0x60e06040523480156200001157600080fd5b5060405162002fd538038062002fd583398101604081905262000034916200041a565b8585858585858585836001600160a01b038316620000995760405162461bcd60e51b815260206004820152601460248201527f706f6f6c2d616464726573732d69732d7a65726f00000000000000000000000060448201526064015b60405180910390fd5b6001600160a01b038216620000f15760405162461bcd60e51b815260206004820152601760248201527f737761707065722d616464726573732d69732d7a65726f000000000000000000604482015260640162000090565b600280546001600160a01b0319166001600160a01b0384811691909117909155831660a081905260408051637e062a3560e11b8152905163fc0c546a91600480820192602092909190829003018186803b1580156200014f57600080fd5b505afa15801562000164573d6000803e3d6000fd5b505050506040513d601f19601f820116820180604052508101906200018a919062000564565b6001600160a01b03908116608052600080546001600160a01b031916918316919091179055620001d1620001bb3390565b6003620002d360201b6200136d1790919060201c565b620002135760405162461bcd60e51b81526020600482015260116024820152701859190b5ad9595c195c8b59985a5b1959607a1b604482015260640162000090565b5050506001600160a01b0382166200026e5760405162461bcd60e51b815260206004820152601660248201527f63546f6b656e2d616464726573732d69732d7a65726f00000000000000000000604482015260640162000090565b600680546001600160a01b0319166001600160a01b03841617905580516200029e90600590602084019062000345565b5050506001600160a01b0391821660c052600780546001600160a01b0319169190921617905550620005c89650505050505050565b6000620002ea836001600160a01b038416620002f3565b90505b92915050565b60008181526001830160205260408120546200033c57508154600181810184556000848152602080822090930184905584548482528286019093526040902091909155620002ed565b506000620002ed565b82805462000353906200058b565b90600052602060002090601f016020900481019282620003775760008555620003c2565b82601f106200039257805160ff1916838001178555620003c2565b82800160010185558215620003c2579182015b82811115620003c2578251825591602001919060010190620003a5565b50620003d0929150620003d4565b5090565b5b80821115620003d05760008155600101620003d5565b6001600160a01b03811681146200040157600080fd5b50565b634e487b7160e01b600052604160045260246000fd5b60008060008060008060c087890312156200043457600080fd5b86516200044181620003eb565b809650506020808801516200045681620003eb565b60408901519096506200046981620003eb565b60608901519095506200047c81620003eb565b60808901519094506200048f81620003eb565b60a08901519093506001600160401b0380821115620004ad57600080fd5b818a0191508a601f830112620004c257600080fd5b815181811115620004d757620004d762000404565b604051601f8201601f19908116603f0116810190838211818310171562000502576200050262000404565b816040528281528d868487010111156200051b57600080fd5b600093505b828410156200053f578484018601518185018701529285019262000520565b82841115620005515760008684830101525b8096505050505050509295509295509295565b6000602082840312156200057757600080fd5b81516200058481620003eb565b9392505050565b600181811c90821680620005a057607f821691505b60208210811415620005c257634e487b7160e01b600052602260045260246000fd5b50919050565b60805160a05160c051612919620006bc60003960008181610214015261246601526000818161016c015281816103aa015281816104c6015281816105e2015281816106c00152818161071c01528181610945015281816109e201528181610c0501528181610dce015281816117000152818161184c01528181611bfd0152611c9d0152600081816102900152818161030001528181610525015281816105c001528181610634015281816106f301528181610b6901528181611000015281816111c60152818161177e0152818161182a0152818161188201528181611d3e01528181611d7c0152611ef501526129196000f3fe608060405234801561001057600080fd5b506004361061014d5760003560e01c8063b2016bd4116100c3578063e00af4a71161007c578063e00af4a714610324578063e5328e0614610337578063ec78e8321461034d578063f7c618c114610360578063fc0c546a14610373578063ffa1ad741461038457600080fd5b8063b2016bd41461028b578063c415b95c146102b2578063ce5494bb146102c5578063d2c35ce8146102d8578063d3033c39146102eb578063d8dfeb45146102fe57600080fd5b8063440d724811610115578063440d7248146101dd5780635f82c67e1461020f5780637d7c2a1c14610236578063951dc22c1461025957806399b71d5c1461026e578063a3f4df7e1461027657600080fd5b806314ae9f2e1461015257806316f0115b146101675780632b3297f9146101a45780632e1a7d4d146101b75780634032b72b146101ca575b600080fd5b6101656101603660046125c4565b6103a8565b005b61018e7f000000000000000000000000000000000000000000000000000000000000000081565b60405161019b91906125e1565b60405180910390f35b60025461018e906001600160a01b031681565b6101656101c53660046125f5565b6104c3565b6101656101d83660046125c4565b61071a565b6101ff6101eb3660046125c4565b6006546001600160a01b0391821691161490565b604051901515815260200161019b565b61018e7f000000000000000000000000000000000000000000000000000000000000000081565b61023e610826565b6040805193845260208401929092529082015260600161019b565b610261610867565b60405161019b9190612652565b610165610878565b61027e6108b4565b60405161019b9190612691565b61018e7f000000000000000000000000000000000000000000000000000000000000000081565b60015461018e906001600160a01b031681565b6101656102d33660046125c4565b610942565b6101656102e63660046125c4565b610c03565b6101656102f93660046125c4565b610dcc565b7f000000000000000000000000000000000000000000000000000000000000000061018e565b6101656103323660046125c4565b610f89565b61033f6111ac565b60405190815260200161019b565b60005461018e906001600160a01b031681565b60075461018e906001600160a01b031681565b6000546001600160a01b031661018e565b61027e604051806040016040528060058152602001640352e302e360dc1b81525081565b7f00000000000000000000000000000000000000000000000000000000000000006001600160a01b0316630c340a246040518163ffffffff1660e01b815260040160206040518083038186803b15801561040157600080fd5b505afa158015610415573d6000803e3d6000fd5b505050506040513d601f19601f8201168201806040525081019061043991906126c4565b6001600160a01b0316336001600160a01b0316146104725760405162461bcd60e51b8152600401610469906126e1565b60405180910390fd5b61047d60038261138b565b6104c05760405162461bcd60e51b81526020600482015260146024820152731c995b5bdd994b5ad9595c195c8b59985a5b195960621b6044820152606401610469565b50565b337f00000000000000000000000000000000000000000000000000000000000000006001600160a01b03161461050b5760405162461bcd60e51b815260040161046990612718565b6040516370a0823160e01b81526000906001600160a01b037f000000000000000000000000000000000000000000000000000000000000000016906370a082319061055a9030906004016125e1565b60206040518083038186803b15801561057257600080fd5b505afa158015610586573d6000803e3d6000fd5b505050506040513d601f19601f820116820180604052508101906105aa919061274b565b905081811061060b576106076001600160a01b037f0000000000000000000000000000000000000000000000000000000000000000167f0000000000000000000000000000000000000000000000000000000000000000846113a0565b5050565b61061d610618828461277a565b611408565b6040516370a0823160e01b81526001600160a01b037f000000000000000000000000000000000000000000000000000000000000000016906370a08231906106699030906004016125e1565b60206040518083038186803b15801561068157600080fd5b505afa158015610695573d6000803e3d6000fd5b505050506040513d601f19601f820116820180604052508101906106b9919061274b565b90506106077f00000000000000000000000000000000000000000000000000000000000000006106e9848461168f565b6001600160a01b037f00000000000000000000000000000000000000000000000000000000000000001691906113a0565b7f00000000000000000000000000000000000000000000000000000000000000006001600160a01b0316630c340a246040518163ffffffff1660e01b815260040160206040518083038186803b15801561077357600080fd5b505afa158015610787573d6000803e3d6000fd5b505050506040513d601f19601f820116820180604052508101906107ab91906126c4565b6001600160a01b0316336001600160a01b0316146107db5760405162461bcd60e51b8152600401610469906126e1565b6107e660038261136d565b6104c05760405162461bcd60e51b81526020600482015260116024820152701859190b5ad9595c195c8b59985a5b1959607a1b6044820152606401610469565b60008080610837335b6003906116a5565b6108535760405162461bcd60e51b815260040161046990612791565b61085b6116c7565b9250925092505b909192565b60606108736003611809565b905090565b6108813361082f565b61089d5760405162461bcd60e51b815260040161046990612791565b6108a7600061181d565b6108b260001961181d565b565b600580546108c1906127c1565b80601f01602080910402602001604051908101604052809291908181526020018280546108ed906127c1565b801561093a5780601f1061090f5761010080835404028352916020019161093a565b820191906000526020600020905b81548152906001019060200180831161091d57829003601f168201915b505050505081565b337f00000000000000000000000000000000000000000000000000000000000000006001600160a01b03161461098a5760405162461bcd60e51b815260040161046990612718565b6001600160a01b0381166109e05760405162461bcd60e51b815260206004820152601c60248201527f6e65772d73747261746567792d616464726573732d69732d7a65726f000000006044820152606401610469565b7f00000000000000000000000000000000000000000000000000000000000000006001600160a01b0316816001600160a01b03166316f0115b6040518163ffffffff1660e01b815260040160206040518083038186803b158015610a4357600080fd5b505afa158015610a57573d6000803e3d6000fd5b505050506040513d601f19601f82011682018060405250810190610a7b91906126c4565b6001600160a01b031614610aca5760405162461bcd60e51b81526020600482015260166024820152756e6f742d76616c69642d6e65772d737472617465677960501b6044820152606401610469565b6000546040516370a0823160e01b8152610b639183916001600160a01b03909116906370a0823190610b009030906004016125e1565b60206040518083038186803b158015610b1857600080fd5b505afa158015610b2c573d6000803e3d6000fd5b505050506040513d601f19601f82011682018060405250810190610b50919061274b565b6000546001600160a01b031691906113a0565b6104c0817f00000000000000000000000000000000000000000000000000000000000000006001600160a01b03166370a08231306040518263ffffffff1660e01b8152600401610bb391906125e1565b60206040518083038186803b158015610bcb57600080fd5b505afa158015610bdf573d6000803e3d6000fd5b505050506040513d601f19601f820116820180604052508101906106e9919061274b565b7f00000000000000000000000000000000000000000000000000000000000000006001600160a01b0316630c340a246040518163ffffffff1660e01b815260040160206040518083038186803b158015610c5c57600080fd5b505afa158015610c70573d6000803e3d6000fd5b505050506040513d601f19601f82011682018060405250810190610c9491906126c4565b6001600160a01b0316336001600160a01b031614610cc45760405162461bcd60e51b8152600401610469906126e1565b6001600160a01b038116610d1a5760405162461bcd60e51b815260206004820152601d60248201527f6665652d636f6c6c6563746f722d616464726573732d69732d7a65726f0000006044820152606401610469565b6001546001600160a01b0382811691161415610d705760405162461bcd60e51b81526020600482015260156024820152746665652d636f6c6c6563746f722d69732d73616d6560581b6044820152606401610469565b6001546040516001600160a01b038084169216907f0f06062680f9bd68e786e9980d9bb03d73d5620fc3b345e417b6eacb310b970690600090a3600180546001600160a01b0319166001600160a01b0392909216919091179055565b7f00000000000000000000000000000000000000000000000000000000000000006001600160a01b0316630c340a246040518163ffffffff1660e01b815260040160206040518083038186803b158015610e2557600080fd5b505afa158015610e39573d6000803e3d6000fd5b505050506040513d601f19601f82011682018060405250810190610e5d91906126c4565b6001600160a01b0316336001600160a01b031614610e8d5760405162461bcd60e51b8152600401610469906126e1565b6001600160a01b038116610edd5760405162461bcd60e51b8152602060048201526017602482015276737761707065722d616464726573732d69732d7a65726f60481b6044820152606401610469565b6002546001600160a01b0382811691161415610f2d5760405162461bcd60e51b815260206004820152600f60248201526e737761707065722d69732d73616d6560881b6044820152606401610469565b6002546040516001600160a01b038084169216907f6c953b7ec311055c20b96a42cea31e89528e375b1bf953a503db40854b3188fe90600090a3600280546001600160a01b0319166001600160a01b0392909216919091179055565b610f923361082f565b610fae5760405162461bcd60e51b815260040161046990612791565b6001546001600160a01b0316610ffe5760405162461bcd60e51b81526020600482015260156024820152741999594b58dbdb1b1958dd1bdc8b5b9bdd0b5cd95d605a1b6044820152606401610469565b7f00000000000000000000000000000000000000000000000000000000000000006001600160a01b0316816001600160a01b031614156110805760405162461bcd60e51b815260206004820152601f60248201527f6e6f742d616c6c6f7765642d746f2d73776565702d636f6c6c61746572616c006044820152606401610469565b6006546001600160a01b03828116911614156110d55760405162461bcd60e51b815260206004820152601460248201527306e6f742d616c6c6f7765642d746f2d73776565760641b6044820152606401610469565b6001600160a01b03811673eeeeeeeeeeeeeeeeeeeeeeeeeeeeeeeeeeeeeeee1415611110576001546104c0906001600160a01b0316476118c8565b6040516370a0823160e01b81526000906001600160a01b038316906370a082319061113f9030906004016125e1565b60206040518083038186803b15801561115757600080fd5b505afa15801561116b573d6000803e3d6000fd5b505050506040513d601f19601f8201168201806040525081019061118f919061274b565b600154909150610607906001600160a01b038481169116836113a0565b6040516370a0823160e01b81526000906001600160a01b037f000000000000000000000000000000000000000000000000000000000000000016906370a08231906111fb9030906004016125e1565b60206040518083038186803b15801561121357600080fd5b505afa158015611227573d6000803e3d6000fd5b505050506040513d601f19601f8201168201806040525081019061124b919061274b565b6006546040805163182df0f560e01b81529051670de0b6b3a7640000926001600160a01b03169163182df0f5916004808301926020929190829003018186803b15801561129757600080fd5b505afa1580156112ab573d6000803e3d6000fd5b505050506040513d601f19601f820116820180604052508101906112cf919061274b565b6006546040516370a0823160e01b81526001600160a01b03909116906370a08231906112ff9030906004016125e1565b60206040518083038186803b15801561131757600080fd5b505afa15801561132b573d6000803e3d6000fd5b505050506040513d601f19601f8201168201806040525081019061134f919061274b565b61135991906127fc565b611363919061281b565b610873919061283d565b6000611382836001600160a01b0384166119e1565b90505b92915050565b6000611382836001600160a01b038416611a30565b6040516001600160a01b03831660248201526044810182905261140390849063a9059cbb60e01b906064015b60408051601f198184030181529190526020810180516001600160e01b03166001600160e01b031990931692909217909152611b23565b505050565b6006546040805163182df0f560e01b815290516000926001600160a01b03169163182df0f5916004808301926020929190829003018186803b15801561144d57600080fd5b505afa158015611461573d6000803e3d6000fd5b505050506040513d601f19601f82011682018060405250810190611485919061274b565b61149783670de0b6b3a76400006127fc565b6114a1919061281b565b9050801561060757600654604051633af9e66960e01b81526000916115c39185916115be916001600160a01b0390911690633af9e669906114e69030906004016125e1565b602060405180830381600087803b15801561150057600080fd5b505af1158015611514573d6000803e3d6000fd5b505050506040513d601f19601f82011682018060405250810190611538919061274b565b600660009054906101000a90046001600160a01b03166001600160a01b0316633b1d21a26040518163ffffffff1660e01b815260040160206040518083038186803b15801561158657600080fd5b505afa15801561159a573d6000803e3d6000fd5b505050506040513d601f19601f820116820180604052508101906115be919061274b565b61168f565b60065460405163852a12e360e01b8152600481018390529192506001600160a01b03169063852a12e390602401602060405180830381600087803b15801561160a57600080fd5b505af115801561161e573d6000803e3d6000fd5b505050506040513d601f19601f82011682018060405250810190611642919061274b565b156114035760405162461bcd60e51b815260206004820152601d60248201527f77697468647261772d66726f6d2d636f6d706f756e642d6661696c65640000006044820152606401610469565b600081831061169e5781611382565b5090919050565b6001600160a01b03811660009081526001830160205260408120541515611382565b60008060006116d4611bf5565b6040516302df682360e11b815260048101849052602481018390526044810182905292955090935091507f00000000000000000000000000000000000000000000000000000000000000006001600160a01b0316906305bed04690606401600060405180830381600087803b15801561174c57600080fd5b505af1158015611760573d6000803e3d6000fd5b50506040516370a0823160e01b815261086292506001600160a01b037f00000000000000000000000000000000000000000000000000000000000000001691506370a08231906117b49030906004016125e1565b60206040518083038186803b1580156117cc57600080fd5b505afa1580156117e0573d6000803e3d6000fd5b505050506040513d601f19601f82011682018060405250810190611804919061274b565b611fb6565b6060600061181683612087565b9392505050565b6118716001600160a01b037f0000000000000000000000000000000000000000000000000000000000000000167f0000000000000000000000000000000000000000000000000000000000000000836120e3565b6006546118ab906001600160a01b037f000000000000000000000000000000000000000000000000000000000000000081169116836120e3565b6002546007546104c0916001600160a01b039182169116836120e3565b804710156119185760405162461bcd60e51b815260206004820152601d60248201527f416464726573733a20696e73756666696369656e742062616c616e63650000006044820152606401610469565b6000826001600160a01b03168260405160006040518083038185875af1925050503d8060008114611965576040519150601f19603f3d011682016040523d82523d6000602084013e61196a565b606091505b50509050806114035760405162461bcd60e51b815260206004820152603a60248201527f416464726573733a20756e61626c6520746f2073656e642076616c75652c207260448201527f6563697069656e74206d617920686176652072657665727465640000000000006064820152608401610469565b6000818152600183016020526040812054611a2857508154600181810184556000848152602080822090930184905584548482528286019093526040902091909155611385565b506000611385565b60008181526001830160205260408120548015611b19576000611a5460018361277a565b8554909150600090611a689060019061277a565b9050818114611acd576000866000018281548110611a8857611a88612855565b9060005260206000200154905080876000018481548110611aab57611aab612855565b6000918252602080832090910192909255918252600188019052604090208390555b8554869080611ade57611ade61286b565b600190038181906000526020600020016000905590558560010160008681526020019081526020016000206000905560019350505050611385565b6000915050611385565b6000611b78826040518060400160405280602081526020017f5361666545524332303a206c6f772d6c6576656c2063616c6c206661696c6564815250856001600160a01b03166122079092919063ffffffff16565b8051909150156114035780806020019051810190611b969190612881565b6114035760405162461bcd60e51b815260206004820152602a60248201527f5361666545524332303a204552433230206f7065726174696f6e20646964206e6044820152691bdd081cdd58d8d9595960b21b6064820152608401610469565b6000806000807f00000000000000000000000000000000000000000000000000000000000000006001600160a01b031663d53ddc26306040518263ffffffff1660e01b8152600401611c4791906125e1565b60206040518083038186803b158015611c5f57600080fd5b505afa158015611c73573d6000803e3d6000fd5b505050506040513d601f19601f82011682018060405250810190611c97919061274b565b905060007f00000000000000000000000000000000000000000000000000000000000000006001600160a01b0316639f2b2833306040518263ffffffff1660e01b8152600401611ce791906125e1565b60206040518083038186803b158015611cff57600080fd5b505afa158015611d13573d6000803e3d6000fd5b505050506040513d601f19601f82011682018060405250810190611d37919061274b565b9050611d627f000000000000000000000000000000000000000000000000000000000000000061221e565b6040516370a0823160e01b81526000906001600160a01b037f000000000000000000000000000000000000000000000000000000000000000016906370a0823190611db19030906004016125e1565b60206040518083038186803b158015611dc957600080fd5b505afa158015611ddd573d6000803e3d6000fd5b505050506040513d601f19601f82011682018060405250810190611e01919061274b565b600654604051633af9e66960e01b81529192506000916001600160a01b0390911690633af9e66990611e379030906004016125e1565b602060405180830381600087803b158015611e5157600080fd5b505af1158015611e65573d6000803e3d6000fd5b505050506040513d601f19601f82011682018060405250810190611e89919061274b565b611e93908361283d565b905082811115611eae57611ea7838261277a565b9650611ebb565b611eb8818461277a565b95505b6000611ec7858961283d565b905082811115611f7d57611ede610618848361277a565b6040516370a0823160e01b81526001600160a01b037f000000000000000000000000000000000000000000000000000000000000000016906370a0823190611f2a9030906004016125e1565b60206040518083038186803b158015611f4257600080fd5b505afa158015611f56573d6000803e3d6000fd5b505050506040513d601f19601f82011682018060405250810190611f7a919061274b565b92505b611f87838661168f565b9550858311611f97576000611faa565b611faa611fa4878561277a565b8961168f565b97505050505050909192565b80156104c05760065460405163140e25ad60e31b8152600481018390526001600160a01b039091169063a0712d6890602401602060405180830381600087803b15801561200257600080fd5b505af1158015612016573d6000803e3d6000fd5b505050506040513d601f19601f8201168201806040525081019061203a919061274b565b156104c05760405162461bcd60e51b815260206004820152601a60248201527f6465706f7369742d746f2d636f6d706f756e642d6661696c65640000000000006044820152606401610469565b6060816000018054806020026020016040519081016040528092919081815260200182805480156120d757602002820191906000526020600020905b8154815260200190600101908083116120c3575b50505050509050919050565b80158061216c5750604051636eb1769f60e11b81523060048201526001600160a01b03838116602483015284169063dd62ed3e9060440160206040518083038186803b15801561213257600080fd5b505afa158015612146573d6000803e3d6000fd5b505050506040513d601f19601f8201168201806040525081019061216a919061274b565b155b6121d75760405162461bcd60e51b815260206004820152603660248201527f5361666545524332303a20617070726f76652066726f6d206e6f6e2d7a65726f60448201527520746f206e6f6e2d7a65726f20616c6c6f77616e636560501b6064820152608401610469565b6040516001600160a01b03831660248201526044810182905261140390849063095ea7b360e01b906064016113cc565b606061221684846000856122d7565b949350505050565b6007546001600160a01b0316156104c0576122376123ff565b6007546040516370a0823160e01b81526000916001600160a01b0316906370a08231906122689030906004016125e1565b60206040518083038186803b15801561228057600080fd5b505afa158015612294573d6000803e3d6000fd5b505050506040513d601f19601f820116820180604052508101906122b8919061274b565b9050801561060757600754610607906001600160a01b031683836124d4565b6060824710156123385760405162461bcd60e51b815260206004820152602660248201527f416464726573733a20696e73756666696369656e742062616c616e636520666f6044820152651c8818d85b1b60d21b6064820152608401610469565b843b6123865760405162461bcd60e51b815260206004820152601d60248201527f416464726573733a2063616c6c20746f206e6f6e2d636f6e74726163740000006044820152606401610469565b600080866001600160a01b031685876040516123a291906128a3565b60006040518083038185875af1925050503d80600081146123df576040519150601f19603f3d011682016040523d82523d6000602084013e6123e4565b606091505b50915091506123f4828286612576565b979650505050505050565b60408051600180825281830190925260009160208083019080368337505060065482519293506001600160a01b03169183915060009061244157612441612855565b6001600160a01b03928316602091820292909201015260405163436f98f760e11b81527f0000000000000000000000000000000000000000000000000000000000000000909116906386df31ee9061249f90309085906004016128bf565b600060405180830381600087803b1580156124b957600080fd5b505af11580156124cd573d6000803e3d6000fd5b5050505050565b600254604051636ccb2b0160e01b81526001600160a01b0385811660048301528481166024830152604482018490526001606483015230608483015290911690636ccb2b019060a401602060405180830381600087803b15801561253757600080fd5b505af1925050508015612567575060408051601f3d908101601f191682019092526125649181019061274b565b60015b61257057505050565b50505050565b60608315612585575081611816565b8251156125955782518084602001fd5b8160405162461bcd60e51b81526004016104699190612691565b6001600160a01b03811681146104c057600080fd5b6000602082840312156125d657600080fd5b8135611816816125af565b6001600160a01b0391909116815260200190565b60006020828403121561260757600080fd5b5035919050565b600081518084526020808501945080840160005b838110156126475781516001600160a01b031687529582019590820190600101612622565b509495945050505050565b602081526000611382602083018461260e565b60005b83811015612680578181015183820152602001612668565b838111156125705750506000910152565b60208152600082518060208401526126b0816040850160208701612665565b601f01601f19169190910160400192915050565b6000602082840312156126d657600080fd5b8151611816816125af565b6020808252601a908201527f63616c6c65722d69732d6e6f742d7468652d676f7665726e6f72000000000000604082015260600190565b60208082526019908201527818d85b1b195c8b5a5ccb5b9bdd0b5d995cdc195c8b5c1bdbdb603a1b604082015260600190565b60006020828403121561275d57600080fd5b5051919050565b634e487b7160e01b600052601160045260246000fd5b60008282101561278c5761278c612764565b500390565b60208082526016908201527531b0b63632b916b4b996b737ba16b096b5b2b2b832b960511b604082015260600190565b600181811c908216806127d557607f821691505b602082108114156127f657634e487b7160e01b600052602260045260246000fd5b50919050565b600081600019048311821515161561281657612816612764565b500290565b60008261283857634e487b7160e01b600052601260045260246000fd5b500490565b6000821982111561285057612850612764565b500190565b634e487b7160e01b600052603260045260246000fd5b634e487b7160e01b600052603160045260246000fd5b60006020828403121561289357600080fd5b8151801515811461181657600080fd5b600082516128b5818460208701612665565b9190910192915050565b6001600160a01b03831681526040602082018190526000906122169083018461260e56fea2646970667358221220b8f7c412c9324e0f16d3a244fa945badf8ddc1c6ea6d3a57dc482a789d89a18464736f6c63430008090033",
  "devdoc": {
    "kind": "dev",
    "methods": {
      "addKeeper(address)": {
        "params": {
          "_keeperAddress": "keeper address to add."
        }
      },
      "approveToken()": {
        "details": "Approve all required tokens"
      },
      "migrate(address)": {
        "details": "_beforeMigration hook can be implemented in child strategy to do extra steps.",
        "params": {
          "_newStrategy": "Address of new strategy"
        }
      },
      "rebalance()": {
        "returns": {
          "_loss": "Realized loss, if any, in collateral.",
          "_payback": "If strategy has any excess debt, we have to liquidate asset to payback excess debt.",
          "_profit": "Realized profit in collateral."
        }
      },
      "removeKeeper(address)": {
        "params": {
          "_keeperAddress": "keeper address to remove."
        }
      },
      "sweepERC20(address)": {
        "params": {
          "_fromToken": "token address to sweep"
        }
      },
      "updateFeeCollector(address)": {
        "params": {
          "_feeCollector": "fee collector address"
        }
      },
      "updateSwapper(address)": {
        "params": {
          "_swapper": "swapper address"
        }
      },
      "withdraw(uint256)": {
        "params": {
          "_amount": "Amount of collateral token"
        }
      }
    },
    "title": "This strategy will deposit collateral token in Venus and earn interest.",
    "version": 1
  },
  "userdoc": {
    "kind": "user",
    "methods": {
      "addKeeper(address)": {
        "notice": "Add given address in keepers list."
      },
      "collateral()": {
        "notice": "Returns address of token correspond to collateral token"
      },
      "isReservedToken(address)": {
        "notice": "Check whether given token is reserved or not. Reserved tokens are not allowed to sweep."
      },
      "keepers()": {
        "notice": "Return list of keepers"
      },
      "migrate(address)": {
        "notice": "Migrate all asset and vault ownership,if any, to new strategy"
      },
      "rebalance()": {
        "notice": "OnlyKeeper: Rebalance profit, loss and investment of this strategy.  Calculate profit, loss and payback of this strategy and realize profit/loss and  withdraw fund for payback, if any, and submit this report to pool."
      },
      "removeKeeper(address)": {
        "notice": "Remove given address from keepers list."
      },
      "sweepERC20(address)": {
        "notice": "sweep given token to feeCollector of strategy"
      },
      "token()": {
        "notice": "Returns address of token correspond to receipt token"
      },
      "tvl()": {
        "notice": "Returns total collateral locked in the strategy"
      },
      "updateFeeCollector(address)": {
        "notice": "Update fee collector"
      },
      "updateSwapper(address)": {
        "notice": "Update swapper"
      },
      "withdraw(uint256)": {
        "notice": "Withdraw collateral token from end protocol."
      }
    },
    "version": 1
  },
  "storageLayout": {
    "storage": [
      {
        "astId": 13596,
        "contract": "vesper-strategies/contracts/strategies/compound/bsc/Venus.sol:Venus",
        "label": "receiptToken",
        "offset": 0,
        "slot": "0",
        "type": "t_address"
      },
      {
        "astId": 13602,
        "contract": "vesper-strategies/contracts/strategies/compound/bsc/Venus.sol:Venus",
        "label": "feeCollector",
        "offset": 0,
        "slot": "1",
        "type": "t_address"
      },
      {
        "astId": 13605,
        "contract": "vesper-strategies/contracts/strategies/compound/bsc/Venus.sol:Venus",
        "label": "swapper",
        "offset": 0,
        "slot": "2",
        "type": "t_contract(IRoutedSwapper)12457"
      },
      {
        "astId": 13618,
        "contract": "vesper-strategies/contracts/strategies/compound/bsc/Venus.sol:Venus",
        "label": "_keepers",
        "offset": 0,
        "slot": "3",
        "type": "t_struct(AddressSet)3014_storage"
      },
      {
        "astId": 16560,
        "contract": "vesper-strategies/contracts/strategies/compound/bsc/Venus.sol:Venus",
        "label": "NAME",
        "offset": 0,
        "slot": "5",
        "type": "t_string_storage"
      },
      {
        "astId": 16566,
        "contract": "vesper-strategies/contracts/strategies/compound/bsc/Venus.sol:Venus",
        "label": "cToken",
        "offset": 0,
        "slot": "6",
        "type": "t_contract(CToken)10519"
      },
      {
        "astId": 16571,
        "contract": "vesper-strategies/contracts/strategies/compound/bsc/Venus.sol:Venus",
        "label": "rewardToken",
        "offset": 0,
        "slot": "7",
        "type": "t_address"
      }
    ],
    "types": {
      "t_address": {
        "encoding": "inplace",
        "label": "address",
        "numberOfBytes": "20"
      },
      "t_array(t_bytes32)dyn_storage": {
        "base": "t_bytes32",
        "encoding": "dynamic_array",
        "label": "bytes32[]",
        "numberOfBytes": "32"
      },
      "t_bytes32": {
        "encoding": "inplace",
        "label": "bytes32",
        "numberOfBytes": "32"
      },
      "t_contract(CToken)10519": {
        "encoding": "inplace",
        "label": "contract CToken",
        "numberOfBytes": "20"
      },
      "t_contract(IRoutedSwapper)12457": {
        "encoding": "inplace",
        "label": "contract IRoutedSwapper",
        "numberOfBytes": "20"
      },
      "t_mapping(t_bytes32,t_uint256)": {
        "encoding": "mapping",
        "key": "t_bytes32",
        "label": "mapping(bytes32 => uint256)",
        "numberOfBytes": "32",
        "value": "t_uint256"
      },
      "t_string_storage": {
        "encoding": "bytes",
        "label": "string",
        "numberOfBytes": "32"
      },
      "t_struct(AddressSet)3014_storage": {
        "encoding": "inplace",
        "label": "struct EnumerableSet.AddressSet",
        "members": [
          {
            "astId": 3013,
            "contract": "vesper-strategies/contracts/strategies/compound/bsc/Venus.sol:Venus",
            "label": "_inner",
            "offset": 0,
            "slot": "0",
            "type": "t_struct(Set)2713_storage"
          }
        ],
        "numberOfBytes": "64"
      },
      "t_struct(Set)2713_storage": {
        "encoding": "inplace",
        "label": "struct EnumerableSet.Set",
        "members": [
          {
            "astId": 2708,
            "contract": "vesper-strategies/contracts/strategies/compound/bsc/Venus.sol:Venus",
            "label": "_values",
            "offset": 0,
            "slot": "0",
            "type": "t_array(t_bytes32)dyn_storage"
          },
          {
            "astId": 2712,
            "contract": "vesper-strategies/contracts/strategies/compound/bsc/Venus.sol:Venus",
            "label": "_indexes",
            "offset": 0,
            "slot": "1",
            "type": "t_mapping(t_bytes32,t_uint256)"
          }
        ],
        "numberOfBytes": "64"
      },
      "t_uint256": {
        "encoding": "inplace",
        "label": "uint256",
        "numberOfBytes": "32"
      }
    }
  }
}