{
  "address": "0x54ce999D8709DB87B211D3DD9a78dcDC2f9BAbcC",
  "abi": [
    {
      "inputs": [
        {
          "internalType": "address",
          "name": "pool_",
          "type": "address"
        },
        {
          "internalType": "address",
          "name": "swapper_",
          "type": "address"
        },
        {
          "internalType": "address",
          "name": "rewardToken_",
          "type": "address"
        },
        {
          "internalType": "address",
          "name": "receiptToken_",
          "type": "address"
        },
        {
          "internalType": "string",
          "name": "name_",
          "type": "string"
        }
      ],
      "stateMutability": "nonpayable",
      "type": "constructor"
    },
    {
      "anonymous": false,
      "inputs": [
        {
          "indexed": true,
          "internalType": "address",
          "name": "previousFeeCollector",
          "type": "address"
        },
        {
          "indexed": true,
          "internalType": "address",
          "name": "newFeeCollector",
          "type": "address"
        }
      ],
      "name": "UpdatedFeeCollector",
      "type": "event"
    },
    {
      "anonymous": false,
      "inputs": [
        {
          "indexed": true,
          "internalType": "contract IRoutedSwapper",
          "name": "oldSwapper",
          "type": "address"
        },
        {
          "indexed": true,
          "internalType": "contract IRoutedSwapper",
          "name": "newSwapper",
          "type": "address"
        }
      ],
      "name": "UpdatedSwapper",
      "type": "event"
    },
    {
      "inputs": [],
      "name": "NAME",
      "outputs": [
        {
          "internalType": "string",
          "name": "",
          "type": "string"
        }
      ],
      "stateMutability": "view",
      "type": "function"
    },
    {
      "inputs": [],
      "name": "VERSION",
      "outputs": [
        {
          "internalType": "string",
          "name": "",
          "type": "string"
        }
      ],
      "stateMutability": "view",
      "type": "function"
    },
    {
      "inputs": [
        {
          "internalType": "address",
          "name": "_keeperAddress",
          "type": "address"
        }
      ],
      "name": "addKeeper",
      "outputs": [],
      "stateMutability": "nonpayable",
      "type": "function"
    },
    {
      "inputs": [
        {
          "internalType": "uint256",
          "name": "_approvalAmount",
          "type": "uint256"
        }
      ],
      "name": "approveToken",
      "outputs": [],
      "stateMutability": "nonpayable",
      "type": "function"
    },
    {
      "inputs": [
        {
          "internalType": "uint256",
          "name": "amount_",
          "type": "uint256"
        },
        {
          "internalType": "bytes32[]",
          "name": "proof_",
          "type": "bytes32[]"
        }
      ],
      "name": "claimUTokenReward",
      "outputs": [],
      "stateMutability": "nonpayable",
      "type": "function"
    },
    {
      "inputs": [],
      "name": "collateral",
      "outputs": [
        {
          "internalType": "address",
          "name": "",
          "type": "address"
        }
      ],
      "stateMutability": "view",
      "type": "function"
    },
    {
      "inputs": [],
      "name": "collateralToken",
      "outputs": [
        {
          "internalType": "contract IERC20",
          "name": "",
          "type": "address"
        }
      ],
      "stateMutability": "view",
      "type": "function"
    },
    {
      "inputs": [],
      "name": "feeCollector",
      "outputs": [
        {
          "internalType": "address",
          "name": "",
          "type": "address"
        }
      ],
      "stateMutability": "view",
      "type": "function"
    },
    {
      "inputs": [
        {
          "internalType": "address",
          "name": "token_",
          "type": "address"
        }
      ],
      "name": "isReservedToken",
      "outputs": [
        {
          "internalType": "bool",
          "name": "",
          "type": "bool"
        }
      ],
      "stateMutability": "view",
      "type": "function"
    },
    {
      "inputs": [],
      "name": "keepers",
      "outputs": [
        {
          "internalType": "address[]",
          "name": "",
          "type": "address[]"
        }
      ],
      "stateMutability": "view",
      "type": "function"
    },
    {
      "inputs": [
        {
          "internalType": "address",
          "name": "_newStrategy",
          "type": "address"
        }
      ],
      "name": "migrate",
      "outputs": [],
      "stateMutability": "nonpayable",
      "type": "function"
    },
    {
      "inputs": [],
      "name": "pool",
      "outputs": [
        {
          "internalType": "address",
          "name": "",
          "type": "address"
        }
      ],
      "stateMutability": "view",
      "type": "function"
    },
    {
      "inputs": [],
      "name": "rebalance",
      "outputs": [
        {
          "internalType": "uint256",
          "name": "_profit",
          "type": "uint256"
        },
        {
          "internalType": "uint256",
          "name": "_loss",
          "type": "uint256"
        },
        {
          "internalType": "uint256",
          "name": "_payback",
          "type": "uint256"
        }
      ],
      "stateMutability": "nonpayable",
      "type": "function"
    },
    {
      "inputs": [],
      "name": "receiptToken",
      "outputs": [
        {
          "internalType": "address",
          "name": "",
          "type": "address"
        }
      ],
      "stateMutability": "view",
      "type": "function"
    },
    {
      "inputs": [
        {
          "internalType": "address",
          "name": "_keeperAddress",
          "type": "address"
        }
      ],
      "name": "removeKeeper",
      "outputs": [],
      "stateMutability": "nonpayable",
      "type": "function"
    },
    {
      "inputs": [],
      "name": "rewardToken",
      "outputs": [
        {
          "internalType": "address",
          "name": "",
          "type": "address"
        }
      ],
      "stateMutability": "view",
      "type": "function"
    },
    {
      "inputs": [],
      "name": "swapper",
      "outputs": [
        {
          "internalType": "contract IRoutedSwapper",
          "name": "",
          "type": "address"
        }
      ],
      "stateMutability": "view",
      "type": "function"
    },
    {
      "inputs": [
        {
          "internalType": "address",
          "name": "_fromToken",
          "type": "address"
        }
      ],
      "name": "sweepERC20",
      "outputs": [],
      "stateMutability": "nonpayable",
      "type": "function"
    },
    {
      "inputs": [],
      "name": "token",
      "outputs": [
        {
          "internalType": "address",
          "name": "",
          "type": "address"
        }
      ],
      "stateMutability": "view",
      "type": "function"
    },
    {
      "inputs": [],
      "name": "tvl",
      "outputs": [
        {
          "internalType": "uint256",
          "name": "",
          "type": "uint256"
        }
      ],
      "stateMutability": "view",
      "type": "function"
    },
    {
      "inputs": [
        {
          "internalType": "address",
          "name": "_feeCollector",
          "type": "address"
        }
      ],
      "name": "updateFeeCollector",
      "outputs": [],
      "stateMutability": "nonpayable",
      "type": "function"
    },
    {
      "inputs": [
        {
          "internalType": "contract IRoutedSwapper",
          "name": "_swapper",
          "type": "address"
        }
      ],
      "name": "updateSwapper",
      "outputs": [],
      "stateMutability": "nonpayable",
      "type": "function"
    },
    {
      "inputs": [],
      "name": "updateTokenRate",
      "outputs": [
        {
          "internalType": "uint256",
          "name": "",
          "type": "uint256"
        }
      ],
      "stateMutability": "nonpayable",
      "type": "function"
    },
    {
      "inputs": [
        {
          "internalType": "uint256",
          "name": "_amount",
          "type": "uint256"
        }
      ],
      "name": "withdraw",
      "outputs": [],
      "stateMutability": "nonpayable",
      "type": "function"
    }
  ],
  "transactionHash": "0xdc6a79a186431283363ec6cc0af0e0ec827d94efa02eab128f25e0912c0d39ed",
  "args": [
    "0x0538C8bAc84E95A9dF8aC10Aad17DbE81b9E36ee",
    "0x8f156189A3CD28dFc8FB7BbbAce58F98F09c0bB3",
    "0xa1faa113cbE53436Df28FF0aEe54275c13B40975",
    "0xee8389d235E092b2945fE363e97CDBeD121A0439",
    "Alpha_Homora_DAI"
  ],
  "numDeployments": 1,
  "solcInputHash": "bb302d0031fa4950b4b76f67087d7e42",
  "bytecode": "0x6101006040523480156200001257600080fd5b50604051620033c8380380620033c8833981016040819052620000359162000587565b8484836001600160a01b038316620000945760405162461bcd60e51b815260206004820152601460248201527f706f6f6c2d616464726573732d69732d7a65726f00000000000000000000000060448201526064015b60405180910390fd5b6001600160a01b038216620000ec5760405162461bcd60e51b815260206004820152601760248201527f737761707065722d616464726573732d69732d7a65726f00000000000000000060448201526064016200008b565b600280546001600160a01b0319166001600160a01b0384811691909117909155831660a081905260408051637e062a3560e11b8152905163fc0c546a91600480820192602092909190829003018186803b1580156200014a57600080fd5b505afa1580156200015f573d6000803e3d6000fd5b505050506040513d601f19601f82011682018060405250810190620001859190620006bd565b6001600160a01b03908116608052600080546001600160a01b031916918316919091179055620001cc620001b63390565b60036200030060201b620014b81790919060201c565b6200020e5760405162461bcd60e51b81526020600482015260116024820152701859190b5ad9595c195c8b59985a5b1959607a1b60448201526064016200008b565b5050506001600160a01b038316620002695760405162461bcd60e51b815260206004820152601460248201527f7265776172642d746f6b656e2d69732d6e756c6c00000000000000000000000060448201526064016200008b565b6001600160a01b038216620002c15760405162461bcd60e51b815260206004820152601560248201527f726563656970742d746f6b656e2d69732d6e756c6c000000000000000000000060448201526064016200008b565b6001600160a01b0380831660e052831660c052620002df8562000320565b8051620002f4906005906020840190620004b5565b50505050505062000721565b600062000317836001600160a01b03841662000463565b90505b92915050565b60e0516001600160a01b031663633156376040518163ffffffff1660e01b815260040160206040518083038186803b1580156200035c57600080fd5b505afa15801562000371573d6000803e3d6000fd5b505050506040513d601f19601f82011682018060405250810190620003979190620006bd565b6001600160a01b0316816001600160a01b031663fc0c546a6040518163ffffffff1660e01b815260040160206040518083038186803b158015620003da57600080fd5b505afa158015620003ef573d6000803e3d6000fd5b505050506040513d601f19601f82011682018060405250810190620004159190620006bd565b6001600160a01b031614620004605760405162461bcd60e51b815260206004820152601060248201526f0ea5ae8ded6cadc5adad2e6dac2e8c6d60831b60448201526064016200008b565b50565b6000818152600183016020526040812054620004ac575081546001818101845560008481526020808220909301849055845484825282860190935260409020919091556200031a565b5060006200031a565b828054620004c390620006e4565b90600052602060002090601f016020900481019282620004e7576000855562000532565b82601f106200050257805160ff191683800117855562000532565b8280016001018555821562000532579182015b828111156200053257825182559160200191906001019062000515565b506200054092915062000544565b5090565b5b8082111562000540576000815560010162000545565b6001600160a01b03811681146200046057600080fd5b634e487b7160e01b600052604160045260246000fd5b600080600080600060a08688031215620005a057600080fd5b8551620005ad816200055b565b80955050602080870151620005c2816200055b565b6040880151909550620005d5816200055b565b6060880151909450620005e8816200055b565b60808801519093506001600160401b03808211156200060657600080fd5b818901915089601f8301126200061b57600080fd5b81518181111562000630576200063062000571565b604051601f8201601f19908116603f011681019083821181831017156200065b576200065b62000571565b816040528281528c868487010111156200067457600080fd5b600093505b8284101562000698578484018601518185018701529285019262000679565b82841115620006aa5760008684830101525b8096505050505050509295509295909350565b600060208284031215620006d057600080fd5b8151620006dd816200055b565b9392505050565b600181811c90821680620006f957607f821691505b602082108114156200071b57634e487b7160e01b600052602260045260246000fd5b50919050565b60805160a05160c05160e051612b5c6200086c600039600081816104e5015281816109bc015281816114240152818161156d0152818161164001528181611719015281816119f401528181611d1f01528181612281015261241501526000818161036f0152818161174f015281816120ec0152612193015260008181610177015281816103c8015281816105ee0152818161070a015281816107e80152818161087601528181610b0301528181610ba001528181610dc301528181610f8c015281816117b101528181611e5f01528181611fac015261204c0152600081816102a8015281816103180152818161064d015281816106e80152818161075c0152818161081b01528181610d27015281816111be01528181611384015281816116f70152818161182f01528181611e3d015281816121b4015281816121f301526123370152612b5c6000f3fe608060405234801561001057600080fd5b50600436106101585760003560e01c8063b2016bd4116100c3578063e00af4a71161007c578063e00af4a71461033c578063e5328e061461034f578063ec78e83214610357578063f7c618c11461036a578063fc0c546a14610391578063ffa1ad74146103a257600080fd5b8063b2016bd4146102a3578063c415b95c146102ca578063ce5494bb146102dd578063d2c35ce8146102f0578063d3033c3914610303578063d8dfeb451461031657600080fd5b80634032b72b116101155780634032b72b146101fe578063440d724814610211578063653b449e146102435780637d7c2a1c14610256578063951dc22c14610279578063a3f4df7e1461028e57600080fd5b806314ae9f2e1461015d57806316f0115b14610172578063234fe5ab146101af5780632b3297f9146101c55780632e1a7d4d146101d85780633ac9fc11146101eb575b600080fd5b61017061016b366004612707565b6103c6565b005b6101997f000000000000000000000000000000000000000000000000000000000000000081565b6040516101a69190612724565b60405180910390f35b6101b76104e1565b6040519081526020016101a6565b600254610199906001600160a01b031681565b6101706101e6366004612738565b6105eb565b6101706101f9366004612738565b610842565b61017061020c366004612707565b610874565b61023361021f366004612707565b6000546001600160a01b0391821691161490565b60405190151581526020016101a6565b610170610251366004612767565b610980565b61025e610a29565b604080519384526020840192909252908201526060016101a6565b610281610a66565b6040516101a69190612831565b610296610a72565b6040516101a691906128aa565b6101997f000000000000000000000000000000000000000000000000000000000000000081565b600154610199906001600160a01b031681565b6101706102eb366004612707565b610b00565b6101706102fe366004612707565b610dc1565b610170610311366004612707565b610f8a565b7f0000000000000000000000000000000000000000000000000000000000000000610199565b61017061034a366004612707565b611147565b6101b761136a565b600054610199906001600160a01b031681565b6101997f000000000000000000000000000000000000000000000000000000000000000081565b6000546001600160a01b0316610199565b610296604051806040016040528060058152602001640352e302e360dc1b81525081565b7f00000000000000000000000000000000000000000000000000000000000000006001600160a01b0316630c340a246040518163ffffffff1660e01b815260040160206040518083038186803b15801561041f57600080fd5b505afa158015610433573d6000803e3d6000fd5b505050506040513d601f19601f8201168201806040525081019061045791906128dd565b6001600160a01b0316336001600160a01b0316146104905760405162461bcd60e51b8152600401610487906128fa565b60405180910390fd5b61049b6003826114d6565b6104de5760405162461bcd60e51b81526020600482015260146024820152731c995b5bdd994b5ad9595c195c8b59985a5b195960621b6044820152606401610487565b50565b60007f00000000000000000000000000000000000000000000000000000000000000006001600160a01b03166369e527da6040518163ffffffff1660e01b815260040160206040518083038186803b15801561053c57600080fd5b505afa158015610550573d6000803e3d6000fd5b505050506040513d601f19601f8201168201806040525081019061057491906128dd565b6001600160a01b031663bd6d894d6040518163ffffffff1660e01b8152600401602060405180830381600087803b1580156105ae57600080fd5b505af11580156105c2573d6000803e3d6000fd5b505050506040513d601f19601f820116820180604052508101906105e69190612931565b905090565b337f00000000000000000000000000000000000000000000000000000000000000006001600160a01b0316146106335760405162461bcd60e51b81526004016104879061294a565b6040516370a0823160e01b81526000906001600160a01b037f000000000000000000000000000000000000000000000000000000000000000016906370a0823190610682903090600401612724565b60206040518083038186803b15801561069a57600080fd5b505afa1580156106ae573d6000803e3d6000fd5b505050506040513d601f19601f820116820180604052508101906106d29190612931565b90508181106107335761072f6001600160a01b037f0000000000000000000000000000000000000000000000000000000000000000167f0000000000000000000000000000000000000000000000000000000000000000846114eb565b5050565b6107456107408284612993565b611553565b6040516370a0823160e01b81526001600160a01b037f000000000000000000000000000000000000000000000000000000000000000016906370a0823190610791903090600401612724565b60206040518083038186803b1580156107a957600080fd5b505afa1580156107bd573d6000803e3d6000fd5b505050506040513d601f19601f820116820180604052508101906107e19190612931565b905061072f7f000000000000000000000000000000000000000000000000000000000000000061081184846116a9565b6001600160a01b037f00000000000000000000000000000000000000000000000000000000000000001691906114eb565b61084f335b6003906116bf565b61086b5760405162461bcd60e51b8152600401610487906129aa565b6104de816116e1565b7f00000000000000000000000000000000000000000000000000000000000000006001600160a01b0316630c340a246040518163ffffffff1660e01b815260040160206040518083038186803b1580156108cd57600080fd5b505afa1580156108e1573d6000803e3d6000fd5b505050506040513d601f19601f8201168201806040525081019061090591906128dd565b6001600160a01b0316336001600160a01b0316146109355760405162461bcd60e51b8152600401610487906128fa565b6109406003826114b8565b6104de5760405162461bcd60e51b81526020600482015260116024820152701859190b5ad9595c195c8b59985a5b1959607a1b6044820152606401610487565b61098933610847565b6109a55760405162461bcd60e51b8152600401610487906129aa565b604051632f52ebb760e01b81526001600160a01b037f00000000000000000000000000000000000000000000000000000000000000001690632f52ebb7906109f390859085906004016129da565b600060405180830381600087803b158015610a0d57600080fd5b505af1158015610a21573d6000803e3d6000fd5b505050505050565b60008080610a3633610847565b610a525760405162461bcd60e51b8152600401610487906129aa565b610a5a611778565b9250925092505b909192565b60606105e660036118ba565b60058054610a7f90612a28565b80601f0160208091040260200160405190810160405280929190818152602001828054610aab90612a28565b8015610af85780601f10610acd57610100808354040283529160200191610af8565b820191906000526020600020905b815481529060010190602001808311610adb57829003601f168201915b505050505081565b337f00000000000000000000000000000000000000000000000000000000000000006001600160a01b031614610b485760405162461bcd60e51b81526004016104879061294a565b6001600160a01b038116610b9e5760405162461bcd60e51b815260206004820152601c60248201527f6e65772d73747261746567792d616464726573732d69732d7a65726f000000006044820152606401610487565b7f00000000000000000000000000000000000000000000000000000000000000006001600160a01b0316816001600160a01b03166316f0115b6040518163ffffffff1660e01b815260040160206040518083038186803b158015610c0157600080fd5b505afa158015610c15573d6000803e3d6000fd5b505050506040513d601f19601f82011682018060405250810190610c3991906128dd565b6001600160a01b031614610c885760405162461bcd60e51b81526020600482015260166024820152756e6f742d76616c69642d6e65772d737472617465677960501b6044820152606401610487565b6000546040516370a0823160e01b8152610d219183916001600160a01b03909116906370a0823190610cbe903090600401612724565b60206040518083038186803b158015610cd657600080fd5b505afa158015610cea573d6000803e3d6000fd5b505050506040513d601f19601f82011682018060405250810190610d0e9190612931565b6000546001600160a01b031691906114eb565b6104de817f00000000000000000000000000000000000000000000000000000000000000006001600160a01b03166370a08231306040518263ffffffff1660e01b8152600401610d719190612724565b60206040518083038186803b158015610d8957600080fd5b505afa158015610d9d573d6000803e3d6000fd5b505050506040513d601f19601f820116820180604052508101906108119190612931565b7f00000000000000000000000000000000000000000000000000000000000000006001600160a01b0316630c340a246040518163ffffffff1660e01b815260040160206040518083038186803b158015610e1a57600080fd5b505afa158015610e2e573d6000803e3d6000fd5b505050506040513d601f19601f82011682018060405250810190610e5291906128dd565b6001600160a01b0316336001600160a01b031614610e825760405162461bcd60e51b8152600401610487906128fa565b6001600160a01b038116610ed85760405162461bcd60e51b815260206004820152601d60248201527f6665652d636f6c6c6563746f722d616464726573732d69732d7a65726f0000006044820152606401610487565b6001546001600160a01b0382811691161415610f2e5760405162461bcd60e51b81526020600482015260156024820152746665652d636f6c6c6563746f722d69732d73616d6560581b6044820152606401610487565b6001546040516001600160a01b038084169216907f0f06062680f9bd68e786e9980d9bb03d73d5620fc3b345e417b6eacb310b970690600090a3600180546001600160a01b0319166001600160a01b0392909216919091179055565b7f00000000000000000000000000000000000000000000000000000000000000006001600160a01b0316630c340a246040518163ffffffff1660e01b815260040160206040518083038186803b158015610fe357600080fd5b505afa158015610ff7573d6000803e3d6000fd5b505050506040513d601f19601f8201168201806040525081019061101b91906128dd565b6001600160a01b0316336001600160a01b03161461104b5760405162461bcd60e51b8152600401610487906128fa565b6001600160a01b03811661109b5760405162461bcd60e51b8152602060048201526017602482015276737761707065722d616464726573732d69732d7a65726f60481b6044820152606401610487565b6002546001600160a01b03828116911614156110eb5760405162461bcd60e51b815260206004820152600f60248201526e737761707065722d69732d73616d6560881b6044820152606401610487565b6002546040516001600160a01b038084169216907f6c953b7ec311055c20b96a42cea31e89528e375b1bf953a503db40854b3188fe90600090a3600280546001600160a01b0319166001600160a01b0392909216919091179055565b61115033610847565b61116c5760405162461bcd60e51b8152600401610487906129aa565b6001546001600160a01b03166111bc5760405162461bcd60e51b81526020600482015260156024820152741999594b58dbdb1b1958dd1bdc8b5b9bdd0b5cd95d605a1b6044820152606401610487565b7f00000000000000000000000000000000000000000000000000000000000000006001600160a01b0316816001600160a01b0316141561123e5760405162461bcd60e51b815260206004820152601f60248201527f6e6f742d616c6c6f7765642d746f2d73776565702d636f6c6c61746572616c006044820152606401610487565b6000546001600160a01b03828116911614156112935760405162461bcd60e51b815260206004820152601460248201527306e6f742d616c6c6f7765642d746f2d73776565760641b6044820152606401610487565b6001600160a01b03811673eeeeeeeeeeeeeeeeeeeeeeeeeeeeeeeeeeeeeeee14156112ce576001546104de906001600160a01b0316476118ce565b6040516370a0823160e01b81526000906001600160a01b038316906370a08231906112fd903090600401612724565b60206040518083038186803b15801561131557600080fd5b505afa158015611329573d6000803e3d6000fd5b505050506040513d601f19601f8201168201806040525081019061134d9190612931565b60015490915061072f906001600160a01b038481169116836114eb565b6040516370a0823160e01b81526000906001600160a01b037f000000000000000000000000000000000000000000000000000000000000000016906370a08231906113b9903090600401612724565b60206040518083038186803b1580156113d157600080fd5b505afa1580156113e5573d6000803e3d6000fd5b505050506040513d601f19601f820116820180604052508101906114099190612931565b6040516370a0823160e01b81526114ae906001600160a01b037f000000000000000000000000000000000000000000000000000000000000000016906370a0823190611459903090600401612724565b60206040518083038186803b15801561147157600080fd5b505afa158015611485573d6000803e3d6000fd5b505050506040513d601f19601f820116820180604052508101906114a99190612931565b6119e7565b6105e69190612a63565b60006114cd836001600160a01b038416611b07565b90505b92915050565b60006114cd836001600160a01b038416611b56565b6040516001600160a01b03831660248201526044810182905261154e90849063a9059cbb60e01b906064015b60408051601f198184030181529190526020810180516001600160e01b03166001600160e01b031990931692909217909152611c49565b505050565b6040516370a0823160e01b81526000906001600160a01b037f000000000000000000000000000000000000000000000000000000000000000016906370a08231906115a2903090600401612724565b60206040518083038186803b1580156115ba57600080fd5b505afa1580156115ce573d6000803e3d6000fd5b505050506040513d601f19601f820116820180604052508101906115f29190612931565b905060006115ff83611d1b565b905061160a816119e7565b83111561161f5761161c600182612a63565b90505b8181111561162a5750805b604051632e1a7d4d60e01b8152600481018290527f00000000000000000000000000000000000000000000000000000000000000006001600160a01b031690632e1a7d4d90602401600060405180830381600087803b15801561168c57600080fd5b505af11580156116a0573d6000803e3d6000fd5b50505050505050565b60008183106116b857816114cd565b5090919050565b6001600160a01b038116600090815260018301602052604081205415156114cd565b6116ea81611e30565b61173e6001600160a01b037f0000000000000000000000000000000000000000000000000000000000000000167f000000000000000000000000000000000000000000000000000000000000000083611e80565b6002546104de906001600160a01b037f00000000000000000000000000000000000000000000000000000000000000008116911683611e80565b6000806000611785611fa4565b6040516302df682360e11b815260048101849052602481018390526044810182905292955090935091507f00000000000000000000000000000000000000000000000000000000000000006001600160a01b0316906305bed04690606401600060405180830381600087803b1580156117fd57600080fd5b505af1158015611811573d6000803e3d6000fd5b50506040516370a0823160e01b8152610a6192506001600160a01b037f00000000000000000000000000000000000000000000000000000000000000001691506370a0823190611865903090600401612724565b60206040518083038186803b15801561187d57600080fd5b505afa158015611891573d6000803e3d6000fd5b505050506040513d601f19601f820116820180604052508101906118b59190612931565b6123f9565b606060006118c78361247c565b9392505050565b8047101561191e5760405162461bcd60e51b815260206004820152601d60248201527f416464726573733a20696e73756666696369656e742062616c616e63650000006044820152606401610487565b6000826001600160a01b03168260405160006040518083038185875af1925050503d806000811461196b576040519150601f19603f3d011682016040523d82523d6000602084013e611970565b606091505b505090508061154e5760405162461bcd60e51b815260206004820152603a60248201527f416464726573733a20756e61626c6520746f2073656e642076616c75652c207260448201527f6563697069656e74206d617920686176652072657665727465640000000000006064820152608401610487565b6000670de0b6b3a76400007f00000000000000000000000000000000000000000000000000000000000000006001600160a01b03166369e527da6040518163ffffffff1660e01b815260040160206040518083038186803b158015611a4b57600080fd5b505afa158015611a5f573d6000803e3d6000fd5b505050506040513d601f19601f82011682018060405250810190611a8391906128dd565b6001600160a01b031663182df0f56040518163ffffffff1660e01b815260040160206040518083038186803b158015611abb57600080fd5b505afa158015611acf573d6000803e3d6000fd5b505050506040513d601f19601f82011682018060405250810190611af39190612931565b611afd9084612a7b565b6114d09190612a9a565b6000818152600183016020526040812054611b4e575081546001818101845560008481526020808220909301849055845484825282860190935260409020919091556114d0565b5060006114d0565b60008181526001830160205260408120548015611c3f576000611b7a600183612993565b8554909150600090611b8e90600190612993565b9050818114611bf3576000866000018281548110611bae57611bae612abc565b9060005260206000200154905080876000018481548110611bd157611bd1612abc565b6000918252602080832090910192909255918252600188019052604090208390555b8554869080611c0457611c04612ad2565b6001900381819060005260206000200160009055905585600101600086815260200190815260200160002060009055600193505050506114d0565b60009150506114d0565b6000611c9e826040518060400160405280602081526020017f5361666545524332303a206c6f772d6c6576656c2063616c6c206661696c6564815250856001600160a01b03166124d89092919063ffffffff16565b80519091501561154e5780806020019051810190611cbc9190612ae8565b61154e5760405162461bcd60e51b815260206004820152602a60248201527f5361666545524332303a204552433230206f7065726174696f6e20646964206e6044820152691bdd081cdd58d8d9595960b21b6064820152608401610487565b60007f00000000000000000000000000000000000000000000000000000000000000006001600160a01b03166369e527da6040518163ffffffff1660e01b815260040160206040518083038186803b158015611d7657600080fd5b505afa158015611d8a573d6000803e3d6000fd5b505050506040513d601f19601f82011682018060405250810190611dae91906128dd565b6001600160a01b031663182df0f56040518163ffffffff1660e01b815260040160206040518083038186803b158015611de657600080fd5b505afa158015611dfa573d6000803e3d6000fd5b505050506040513d601f19601f82011682018060405250810190611e1e9190612931565b611afd83670de0b6b3a7640000612a7b565b6104de6001600160a01b037f0000000000000000000000000000000000000000000000000000000000000000167f0000000000000000000000000000000000000000000000000000000000000000835b801580611f095750604051636eb1769f60e11b81523060048201526001600160a01b03838116602483015284169063dd62ed3e9060440160206040518083038186803b158015611ecf57600080fd5b505afa158015611ee3573d6000803e3d6000fd5b505050506040513d601f19601f82011682018060405250810190611f079190612931565b155b611f745760405162461bcd60e51b815260206004820152603660248201527f5361666545524332303a20617070726f76652066726f6d206e6f6e2d7a65726f60448201527520746f206e6f6e2d7a65726f20616c6c6f77616e636560501b6064820152608401610487565b6040516001600160a01b03831660248201526044810182905261154e90849063095ea7b360e01b90606401611517565b6000806000807f00000000000000000000000000000000000000000000000000000000000000006001600160a01b031663d53ddc26306040518263ffffffff1660e01b8152600401611ff69190612724565b60206040518083038186803b15801561200e57600080fd5b505afa158015612022573d6000803e3d6000fd5b505050506040513d601f19601f820116820180604052508101906120469190612931565b905060007f00000000000000000000000000000000000000000000000000000000000000006001600160a01b0316639f2b2833306040518263ffffffff1660e01b81526004016120969190612724565b60206040518083038186803b1580156120ae57600080fd5b505afa1580156120c2573d6000803e3d6000fd5b505050506040513d601f19601f820116820180604052508101906120e69190612931565b905060007f00000000000000000000000000000000000000000000000000000000000000006001600160a01b03166370a08231306040518263ffffffff1660e01b81526004016121369190612724565b60206040518083038186803b15801561214e57600080fd5b505afa158015612162573d6000803e3d6000fd5b505050506040513d601f19601f820116820180604052508101906121869190612931565b905080156121d9576121d97f00000000000000000000000000000000000000000000000000000000000000007f0000000000000000000000000000000000000000000000000000000000000000836124ef565b6040516370a0823160e01b81526000906001600160a01b037f000000000000000000000000000000000000000000000000000000000000000016906370a0823190612228903090600401612724565b60206040518083038186803b15801561224057600080fd5b505afa158015612254573d6000803e3d6000fd5b505050506040513d601f19601f820116820180604052508101906122789190612931565b905060006122cb7f00000000000000000000000000000000000000000000000000000000000000006001600160a01b03166370a08231306040518263ffffffff1660e01b81526004016114599190612724565b6122d59083612a63565b9050838111156122f0576122e98482612993565b97506122fd565b6122fa8185612993565b96505b6000612309868a612a63565b9050828111156123bf576123206107408483612993565b6040516370a0823160e01b81526001600160a01b037f000000000000000000000000000000000000000000000000000000000000000016906370a082319061236c903090600401612724565b60206040518083038186803b15801561238457600080fd5b505afa158015612398573d6000803e3d6000fd5b505050506040513d601f19601f820116820180604052508101906123bc9190612931565b92505b6123c983876116a9565b96508683116123d95760006123ec565b6123ec6123e68885612993565b8a6116a9565b9850505050505050909192565b80156104de5760405163b6b55f2560e01b8152600481018290527f00000000000000000000000000000000000000000000000000000000000000006001600160a01b03169063b6b55f2590602401600060405180830381600087803b15801561246157600080fd5b505af1158015612475573d6000803e3d6000fd5b5050505050565b6060816000018054806020026020016040519081016040528092919081815260200182805480156124cc57602002820191906000526020600020905b8154815260200190600101908083116124b8575b50505050509050919050565b60606124e78484600085612591565b949350505050565b600254604051636ccb2b0160e01b81526001600160a01b0385811660048301528481166024830152604482018490526001606483015230608483015290911690636ccb2b019060a401602060405180830381600087803b15801561255257600080fd5b505af1925050508015612582575060408051601f3d908101601f1916820190925261257f91810190612931565b60015b61258b57505050565b50505050565b6060824710156125f25760405162461bcd60e51b815260206004820152602660248201527f416464726573733a20696e73756666696369656e742062616c616e636520666f6044820152651c8818d85b1b60d21b6064820152608401610487565b843b6126405760405162461bcd60e51b815260206004820152601d60248201527f416464726573733a2063616c6c20746f206e6f6e2d636f6e74726163740000006044820152606401610487565b600080866001600160a01b0316858760405161265c9190612b0a565b60006040518083038185875af1925050503d8060008114612699576040519150601f19603f3d011682016040523d82523d6000602084013e61269e565b606091505b50915091506126ae8282866126b9565b979650505050505050565b606083156126c85750816118c7565b8251156126d85782518084602001fd5b8160405162461bcd60e51b815260040161048791906128aa565b6001600160a01b03811681146104de57600080fd5b60006020828403121561271957600080fd5b81356118c7816126f2565b6001600160a01b0391909116815260200190565b60006020828403121561274a57600080fd5b5035919050565b634e487b7160e01b600052604160045260246000fd5b6000806040838503121561277a57600080fd5b8235915060208084013567ffffffffffffffff8082111561279a57600080fd5b818601915086601f8301126127ae57600080fd5b8135818111156127c0576127c0612751565b8060051b604051601f19603f830116810181811085821117156127e5576127e5612751565b60405291825284820192508381018501918983111561280357600080fd5b938501935b8285101561282157843584529385019392850192612808565b8096505050505050509250929050565b6020808252825182820181905260009190848201906040850190845b818110156128725783516001600160a01b03168352928401929184019160010161284d565b50909695505050505050565b60005b83811015612899578181015183820152602001612881565b8381111561258b5750506000910152565b60208152600082518060208401526128c981604085016020870161287e565b601f01601f19169190910160400192915050565b6000602082840312156128ef57600080fd5b81516118c7816126f2565b6020808252601a908201527f63616c6c65722d69732d6e6f742d7468652d676f7665726e6f72000000000000604082015260600190565b60006020828403121561294357600080fd5b5051919050565b60208082526019908201527818d85b1b195c8b5a5ccb5b9bdd0b5d995cdc195c8b5c1bdbdb603a1b604082015260600190565b634e487b7160e01b600052601160045260246000fd5b6000828210156129a5576129a561297d565b500390565b60208082526016908201527531b0b63632b916b4b996b737ba16b096b5b2b2b832b960511b604082015260600190565b6000604082018483526020604081850152818551808452606086019150828701935060005b81811015612a1b578451835293830193918301916001016129ff565b5090979650505050505050565b600181811c90821680612a3c57607f821691505b60208210811415612a5d57634e487b7160e01b600052602260045260246000fd5b50919050565b60008219821115612a7657612a7661297d565b500190565b6000816000190483118215151615612a9557612a9561297d565b500290565b600082612ab757634e487b7160e01b600052601260045260246000fd5b500490565b634e487b7160e01b600052603260045260246000fd5b634e487b7160e01b600052603160045260246000fd5b600060208284031215612afa57600080fd5b815180151581146118c757600080fd5b60008251612b1c81846020870161287e565b919091019291505056fea26469706673582212204bbc8438f308e90544a2352b6f16dd0cd2a9588c7a81b68bb0cae472c875e23064736f6c63430008090033",
  "devdoc": {
    "kind": "dev",
    "methods": {
      "addKeeper(address)": {
        "params": {
          "_keeperAddress": "keeper address to add."
        }
      },
      "approveToken(uint256)": {
        "details": "Approve all required tokens"
      },
      "migrate(address)": {
        "details": "_beforeMigration hook can be implemented in child strategy to do extra steps.",
        "params": {
          "_newStrategy": "Address of new strategy"
        }
      },
      "rebalance()": {
        "returns": {
          "_loss": "Realized loss, if any, in collateral.",
          "_payback": "If strategy has any excess debt, we have to liquidate asset to payback excess debt.",
          "_profit": "Realized profit in collateral."
        }
      },
      "removeKeeper(address)": {
        "params": {
          "_keeperAddress": "keeper address to remove."
        }
      },
      "sweepERC20(address)": {
        "params": {
          "_fromToken": "token address to sweep"
        }
      },
      "updateFeeCollector(address)": {
        "params": {
          "_feeCollector": "fee collector address"
        }
      },
      "updateSwapper(address)": {
        "params": {
          "_swapper": "swapper address"
        }
      },
      "withdraw(uint256)": {
        "params": {
          "_amount": "Amount of collateral token"
        }
      }
    },
    "title": "This strategy will deposit collateral token in Alpha SafeBox (ibXYZv2) and earn interest.",
    "version": 1
  },
  "userdoc": {
    "kind": "user",
    "methods": {
      "addKeeper(address)": {
        "notice": "Add given address in keepers list."
      },
      "collateral()": {
        "notice": "Returns address of token correspond to collateral token"
      },
      "keepers()": {
        "notice": "Return list of keepers"
      },
      "migrate(address)": {
        "notice": "Migrate all asset and vault ownership,if any, to new strategy"
      },
      "rebalance()": {
        "notice": "OnlyKeeper: Rebalance profit, loss and investment of this strategy.  Calculate profit, loss and payback of this strategy and realize profit/loss and  withdraw fund for payback, if any, and submit this report to pool."
      },
      "removeKeeper(address)": {
        "notice": "Remove given address from keepers list."
      },
      "sweepERC20(address)": {
        "notice": "sweep given token to feeCollector of strategy"
      },
      "token()": {
        "notice": "Returns address of token correspond to receipt token"
      },
      "tvl()": {
        "notice": "Returns total collateral locked in the strategy"
      },
      "updateFeeCollector(address)": {
        "notice": "Update fee collector"
      },
      "updateSwapper(address)": {
        "notice": "Update swapper"
      },
      "withdraw(uint256)": {
        "notice": "Withdraw collateral token from end protocol."
      }
    },
    "version": 1
  },
  "storageLayout": {
    "storage": [
      {
        "astId": 14377,
        "contract": "vesper-strategies/contracts/strategies/alpha/AlphaHomora.sol:AlphaHomora",
        "label": "receiptToken",
        "offset": 0,
        "slot": "0",
        "type": "t_address"
      },
      {
        "astId": 14383,
        "contract": "vesper-strategies/contracts/strategies/alpha/AlphaHomora.sol:AlphaHomora",
        "label": "feeCollector",
        "offset": 0,
        "slot": "1",
        "type": "t_address"
      },
      {
        "astId": 14386,
        "contract": "vesper-strategies/contracts/strategies/alpha/AlphaHomora.sol:AlphaHomora",
        "label": "swapper",
        "offset": 0,
        "slot": "2",
        "type": "t_contract(IRoutedSwapper)13238"
      },
      {
        "astId": 14399,
        "contract": "vesper-strategies/contracts/strategies/alpha/AlphaHomora.sol:AlphaHomora",
        "label": "_keepers",
        "offset": 0,
        "slot": "3",
        "type": "t_struct(AddressSet)3022_storage"
      },
      {
        "astId": 17339,
        "contract": "vesper-strategies/contracts/strategies/alpha/AlphaHomora.sol:AlphaHomora",
        "label": "NAME",
        "offset": 0,
        "slot": "5",
        "type": "t_string_storage"
      }
    ],
    "types": {
      "t_address": {
        "encoding": "inplace",
        "label": "address",
        "numberOfBytes": "20"
      },
      "t_array(t_bytes32)dyn_storage": {
        "base": "t_bytes32",
        "encoding": "dynamic_array",
        "label": "bytes32[]",
        "numberOfBytes": "32"
      },
      "t_bytes32": {
        "encoding": "inplace",
        "label": "bytes32",
        "numberOfBytes": "32"
      },
      "t_contract(IRoutedSwapper)13238": {
        "encoding": "inplace",
        "label": "contract IRoutedSwapper",
        "numberOfBytes": "20"
      },
      "t_mapping(t_bytes32,t_uint256)": {
        "encoding": "mapping",
        "key": "t_bytes32",
        "label": "mapping(bytes32 => uint256)",
        "numberOfBytes": "32",
        "value": "t_uint256"
      },
      "t_string_storage": {
        "encoding": "bytes",
        "label": "string",
        "numberOfBytes": "32"
      },
      "t_struct(AddressSet)3022_storage": {
        "encoding": "inplace",
        "label": "struct EnumerableSet.AddressSet",
        "members": [
          {
            "astId": 3021,
            "contract": "vesper-strategies/contracts/strategies/alpha/AlphaHomora.sol:AlphaHomora",
            "label": "_inner",
            "offset": 0,
            "slot": "0",
            "type": "t_struct(Set)2721_storage"
          }
        ],
        "numberOfBytes": "64"
      },
      "t_struct(Set)2721_storage": {
        "encoding": "inplace",
        "label": "struct EnumerableSet.Set",
        "members": [
          {
            "astId": 2716,
            "contract": "vesper-strategies/contracts/strategies/alpha/AlphaHomora.sol:AlphaHomora",
            "label": "_values",
            "offset": 0,
            "slot": "0",
            "type": "t_array(t_bytes32)dyn_storage"
          },
          {
            "astId": 2720,
            "contract": "vesper-strategies/contracts/strategies/alpha/AlphaHomora.sol:AlphaHomora",
            "label": "_indexes",
            "offset": 0,
            "slot": "1",
            "type": "t_mapping(t_bytes32,t_uint256)"
          }
        ],
        "numberOfBytes": "64"
      },
      "t_uint256": {
        "encoding": "inplace",
        "label": "uint256",
        "numberOfBytes": "32"
      }
    }
  }
}