{
  "address": "0x01c48862AE9De8306ddE1C29c2c7131E40817B84",
  "abi": [
    {
      "inputs": [
        {
          "internalType": "address",
          "name": "_pool",
          "type": "address"
        },
        {
          "internalType": "address",
          "name": "_swapper",
          "type": "address"
        },
        {
          "internalType": "address",
          "name": "_comptroller",
          "type": "address"
        },
        {
          "internalType": "address",
          "name": "_rewardToken",
          "type": "address"
        },
        {
          "internalType": "address",
          "name": "_aaveAddressesProvider",
          "type": "address"
        },
        {
          "internalType": "address",
          "name": "_receiptToken",
          "type": "address"
        },
        {
          "internalType": "string",
          "name": "_name",
          "type": "string"
        }
      ],
      "stateMutability": "nonpayable",
      "type": "constructor"
    },
    {
      "anonymous": false,
      "inputs": [
        {
          "indexed": false,
          "internalType": "uint256",
          "name": "previousMinBorrowRatio",
          "type": "uint256"
        },
        {
          "indexed": false,
          "internalType": "uint256",
          "name": "newMinBorrowRatio",
          "type": "uint256"
        },
        {
          "indexed": false,
          "internalType": "uint256",
          "name": "previousMaxBorrowRatio",
          "type": "uint256"
        },
        {
          "indexed": false,
          "internalType": "uint256",
          "name": "newMaxBorrowRatio",
          "type": "uint256"
        }
      ],
      "name": "UpdatedBorrowRatio",
      "type": "event"
    },
    {
      "anonymous": false,
      "inputs": [
        {
          "indexed": true,
          "internalType": "address",
          "name": "previousFeeCollector",
          "type": "address"
        },
        {
          "indexed": true,
          "internalType": "address",
          "name": "newFeeCollector",
          "type": "address"
        }
      ],
      "name": "UpdatedFeeCollector",
      "type": "event"
    },
    {
      "anonymous": false,
      "inputs": [
        {
          "indexed": true,
          "internalType": "contract IRoutedSwapper",
          "name": "oldSwapper",
          "type": "address"
        },
        {
          "indexed": true,
          "internalType": "contract IRoutedSwapper",
          "name": "newSwapper",
          "type": "address"
        }
      ],
      "name": "UpdatedSwapper",
      "type": "event"
    },
    {
      "inputs": [],
      "name": "NAME",
      "outputs": [
        {
          "internalType": "string",
          "name": "",
          "type": "string"
        }
      ],
      "stateMutability": "view",
      "type": "function"
    },
    {
      "inputs": [],
      "name": "VERSION",
      "outputs": [
        {
          "internalType": "string",
          "name": "",
          "type": "string"
        }
      ],
      "stateMutability": "view",
      "type": "function"
    },
    {
      "inputs": [
        {
          "internalType": "address",
          "name": "_keeperAddress",
          "type": "address"
        }
      ],
      "name": "addKeeper",
      "outputs": [],
      "stateMutability": "nonpayable",
      "type": "function"
    },
    {
      "inputs": [],
      "name": "approveToken",
      "outputs": [],
      "stateMutability": "nonpayable",
      "type": "function"
    },
    {
      "inputs": [
        {
          "internalType": "address",
          "name": "_sender",
          "type": "address"
        },
        {
          "components": [
            {
              "internalType": "address",
              "name": "owner",
              "type": "address"
            },
            {
              "internalType": "uint256",
              "name": "number",
              "type": "uint256"
            }
          ],
          "internalType": "struct Account.Info",
          "name": "",
          "type": "tuple"
        },
        {
          "internalType": "bytes",
          "name": "_callData",
          "type": "bytes"
        }
      ],
      "name": "callFunction",
      "outputs": [],
      "stateMutability": "nonpayable",
      "type": "function"
    },
    {
      "inputs": [
        {
          "internalType": "uint256",
          "name": "_minAmountOut",
          "type": "uint256"
        }
      ],
      "name": "claimAndSwapRewards",
      "outputs": [
        {
          "internalType": "uint256",
          "name": "_amountOut",
          "type": "uint256"
        }
      ],
      "stateMutability": "nonpayable",
      "type": "function"
    },
    {
      "inputs": [],
      "name": "collateral",
      "outputs": [
        {
          "internalType": "address",
          "name": "",
          "type": "address"
        }
      ],
      "stateMutability": "view",
      "type": "function"
    },
    {
      "inputs": [],
      "name": "collateralToken",
      "outputs": [
        {
          "internalType": "contract IERC20",
          "name": "",
          "type": "address"
        }
      ],
      "stateMutability": "view",
      "type": "function"
    },
    {
      "inputs": [],
      "name": "comptroller",
      "outputs": [
        {
          "internalType": "contract Comptroller",
          "name": "",
          "type": "address"
        }
      ],
      "stateMutability": "view",
      "type": "function"
    },
    {
      "inputs": [],
      "name": "currentBorrowRatio",
      "outputs": [
        {
          "internalType": "uint256",
          "name": "",
          "type": "uint256"
        }
      ],
      "stateMutability": "view",
      "type": "function"
    },
    {
      "inputs": [],
      "name": "dyDxMarketId",
      "outputs": [
        {
          "internalType": "uint256",
          "name": "",
          "type": "uint256"
        }
      ],
      "stateMutability": "view",
      "type": "function"
    },
    {
      "inputs": [
        {
          "internalType": "address[]",
          "name": "",
          "type": "address[]"
        },
        {
          "internalType": "uint256[]",
          "name": "_amounts",
          "type": "uint256[]"
        },
        {
          "internalType": "uint256[]",
          "name": "_premiums",
          "type": "uint256[]"
        },
        {
          "internalType": "address",
          "name": "_initiator",
          "type": "address"
        },
        {
          "internalType": "bytes",
          "name": "_data",
          "type": "bytes"
        }
      ],
      "name": "executeOperation",
      "outputs": [
        {
          "internalType": "bool",
          "name": "",
          "type": "bool"
        }
      ],
      "stateMutability": "nonpayable",
      "type": "function"
    },
    {
      "inputs": [],
      "name": "feeCollector",
      "outputs": [
        {
          "internalType": "address",
          "name": "",
          "type": "address"
        }
      ],
      "stateMutability": "view",
      "type": "function"
    },
    {
      "inputs": [],
      "name": "getPosition",
      "outputs": [
        {
          "internalType": "uint256",
          "name": "_supply",
          "type": "uint256"
        },
        {
          "internalType": "uint256",
          "name": "_borrow",
          "type": "uint256"
        }
      ],
      "stateMutability": "view",
      "type": "function"
    },
    {
      "inputs": [],
      "name": "isAaveActive",
      "outputs": [
        {
          "internalType": "bool",
          "name": "",
          "type": "bool"
        }
      ],
      "stateMutability": "view",
      "type": "function"
    },
    {
      "inputs": [],
      "name": "isDyDxActive",
      "outputs": [
        {
          "internalType": "bool",
          "name": "",
          "type": "bool"
        }
      ],
      "stateMutability": "view",
      "type": "function"
    },
    {
      "inputs": [
        {
          "internalType": "address",
          "name": "_token",
          "type": "address"
        }
      ],
      "name": "isReservedToken",
      "outputs": [
        {
          "internalType": "bool",
          "name": "",
          "type": "bool"
        }
      ],
      "stateMutability": "view",
      "type": "function"
    },
    {
      "inputs": [],
      "name": "keepers",
      "outputs": [
        {
          "internalType": "address[]",
          "name": "",
          "type": "address[]"
        }
      ],
      "stateMutability": "view",
      "type": "function"
    },
    {
      "inputs": [],
      "name": "maxBorrowRatio",
      "outputs": [
        {
          "internalType": "uint256",
          "name": "",
          "type": "uint256"
        }
      ],
      "stateMutability": "view",
      "type": "function"
    },
    {
      "inputs": [
        {
          "internalType": "address",
          "name": "_newStrategy",
          "type": "address"
        }
      ],
      "name": "migrate",
      "outputs": [],
      "stateMutability": "nonpayable",
      "type": "function"
    },
    {
      "inputs": [],
      "name": "minBorrowRatio",
      "outputs": [
        {
          "internalType": "uint256",
          "name": "",
          "type": "uint256"
        }
      ],
      "stateMutability": "view",
      "type": "function"
    },
    {
      "inputs": [],
      "name": "pool",
      "outputs": [
        {
          "internalType": "address",
          "name": "",
          "type": "address"
        }
      ],
      "stateMutability": "view",
      "type": "function"
    },
    {
      "inputs": [],
      "name": "rebalance",
      "outputs": [
        {
          "internalType": "uint256",
          "name": "_profit",
          "type": "uint256"
        },
        {
          "internalType": "uint256",
          "name": "_loss",
          "type": "uint256"
        },
        {
          "internalType": "uint256",
          "name": "_payback",
          "type": "uint256"
        }
      ],
      "stateMutability": "nonpayable",
      "type": "function"
    },
    {
      "inputs": [],
      "name": "receiptToken",
      "outputs": [
        {
          "internalType": "address",
          "name": "",
          "type": "address"
        }
      ],
      "stateMutability": "view",
      "type": "function"
    },
    {
      "inputs": [
        {
          "internalType": "address",
          "name": "_keeperAddress",
          "type": "address"
        }
      ],
      "name": "removeKeeper",
      "outputs": [],
      "stateMutability": "nonpayable",
      "type": "function"
    },
    {
      "inputs": [],
      "name": "rewardToken",
      "outputs": [
        {
          "internalType": "address",
          "name": "",
          "type": "address"
        }
      ],
      "stateMutability": "view",
      "type": "function"
    },
    {
      "inputs": [],
      "name": "swapper",
      "outputs": [
        {
          "internalType": "contract IRoutedSwapper",
          "name": "",
          "type": "address"
        }
      ],
      "stateMutability": "view",
      "type": "function"
    },
    {
      "inputs": [
        {
          "internalType": "address",
          "name": "_fromToken",
          "type": "address"
        }
      ],
      "name": "sweepERC20",
      "outputs": [],
      "stateMutability": "nonpayable",
      "type": "function"
    },
    {
      "inputs": [],
      "name": "token",
      "outputs": [
        {
          "internalType": "address",
          "name": "",
          "type": "address"
        }
      ],
      "stateMutability": "view",
      "type": "function"
    },
    {
      "inputs": [],
      "name": "tvl",
      "outputs": [
        {
          "internalType": "uint256",
          "name": "",
          "type": "uint256"
        }
      ],
      "stateMutability": "view",
      "type": "function"
    },
    {
      "inputs": [
        {
          "internalType": "bool",
          "name": "_status",
          "type": "bool"
        }
      ],
      "name": "updateAaveStatus",
      "outputs": [],
      "stateMutability": "nonpayable",
      "type": "function"
    },
    {
      "inputs": [
        {
          "internalType": "uint256",
          "name": "_minBorrowRatio",
          "type": "uint256"
        },
        {
          "internalType": "uint256",
          "name": "_maxBorrowRatio",
          "type": "uint256"
        }
      ],
      "name": "updateBorrowRatio",
      "outputs": [],
      "stateMutability": "nonpayable",
      "type": "function"
    },
    {
      "inputs": [
        {
          "internalType": "bool",
          "name": "_status",
          "type": "bool"
        }
      ],
      "name": "updateDyDxStatus",
      "outputs": [],
      "stateMutability": "nonpayable",
      "type": "function"
    },
    {
      "inputs": [
        {
          "internalType": "address",
          "name": "_feeCollector",
          "type": "address"
        }
      ],
      "name": "updateFeeCollector",
      "outputs": [],
      "stateMutability": "nonpayable",
      "type": "function"
    },
    {
      "inputs": [
        {
          "internalType": "contract IRoutedSwapper",
          "name": "_swapper",
          "type": "address"
        }
      ],
      "name": "updateSwapper",
      "outputs": [],
      "stateMutability": "nonpayable",
      "type": "function"
    },
    {
      "inputs": [
        {
          "internalType": "uint256",
          "name": "_amount",
          "type": "uint256"
        }
      ],
      "name": "withdraw",
      "outputs": [],
      "stateMutability": "nonpayable",
      "type": "function"
    }
  ],
  "transactionHash": "0x4da7944f127e1ed0ae36b48f7c71db8f4c0cfef7f08ad45fe3a28949d58baafd",
  "args": [
    "0x0538C8bAc84E95A9dF8aC10Aad17DbE81b9E36ee",
    "0x8f156189A3CD28dFc8FB7BbbAce58F98F09c0bB3",
    "0x3d9819210A31b4961b30EF54bE2aeD79B9c9Cd3B",
    "0xc00e94Cb662C3520282E6f5717214004A7f26888",
    "0xB53C1a33016B2DC2fF3653530bfF1848a515c8c5",
    "0x5d3a536E4D6DbD6114cc1Ead35777bAB948E3643",
    "Compound_Leverage_DAI"
  ],
  "numDeployments": 2,
  "solcInputHash": "d3b413495e2f0cbe702c35fea720267e",
  "bytecode": "0x60e0604052611388600655611770600755600c805462ffffff191690553480156200002957600080fd5b50604051620056e7380380620056e78339810160408190526200004c9162000519565b828787878786868585836001600160a01b038316620000b25760405162461bcd60e51b815260206004820152601460248201527f706f6f6c2d616464726573732d69732d7a65726f00000000000000000000000060448201526064015b60405180910390fd5b6001600160a01b0382166200010a5760405162461bcd60e51b815260206004820152601760248201527f737761707065722d616464726573732d69732d7a65726f0000000000000000006044820152606401620000a9565b600280546001600160a01b0319166001600160a01b0384811691909117909155831660a081905260408051637e062a3560e11b8152905163fc0c546a91600480820192602092909190829003018186803b1580156200016857600080fd5b505afa1580156200017d573d6000803e3d6000fd5b505050506040513d601f19601f82011682018060405250810190620001a3919062000655565b6001600160a01b03908116608052600080546001600160a01b031916918316919091179055620001ea620001d43390565b60036200039f60201b62001e871790919060201c565b6200022c5760405162461bcd60e51b81526020600482015260116024820152701859190b5ad9595c195c8b59985a5b1959607a1b6044820152606401620000a9565b50508151620002449150600590602084019062000411565b506001600160a01b0384166200029d5760405162461bcd60e51b815260206004820152601b60248201527f636f6d7074726f6c6c65722d616464726573732d69732d7a65726f00000000006044820152606401620000a9565b6001600160a01b0384811660c052600980546001600160a01b03191685831617905582166200030f5760405162461bcd60e51b815260206004820152601660248201527f63546f6b656e2d616464726573732d69732d7a65726f000000000000000000006044820152606401620000a9565b50600880546001600160a01b0319166001600160a01b03928316179055604080518082019091526002815261031360f41b60208201529450851615159250620003709150505760405162461bcd60e51b8152600401620000a991906200067c565b50600a80546001600160a01b0319166001600160a01b039290921691909117905550620006ee95505050505050565b6000620003b6836001600160a01b038416620003bf565b90505b92915050565b60008181526001830160205260408120546200040857508154600181810184556000848152602080822090930184905584548482528286019093526040902091909155620003b9565b506000620003b9565b8280546200041f90620006b1565b90600052602060002090601f0160209004810192826200044357600085556200048e565b82601f106200045e57805160ff19168380011785556200048e565b828001600101855582156200048e579182015b828111156200048e57825182559160200191906001019062000471565b506200049c929150620004a0565b5090565b5b808211156200049c5760008155600101620004a1565b6001600160a01b0381168114620004cd57600080fd5b50565b634e487b7160e01b600052604160045260246000fd5b60005b8381101562000503578181015183820152602001620004e9565b8381111562000513576000848401525b50505050565b600080600080600080600060e0888a0312156200053557600080fd5b87516200054281620004b7565b60208901519097506200055581620004b7565b60408901519096506200056881620004b7565b60608901519095506200057b81620004b7565b60808901519094506200058e81620004b7565b60a0890151909350620005a181620004b7565b60c08901519092506001600160401b0380821115620005bf57600080fd5b818a0191508a601f830112620005d457600080fd5b815181811115620005e957620005e9620004d0565b604051601f8201601f19908116603f01168101908382118183101715620006145762000614620004d0565b816040528281528d60208487010111156200062e57600080fd5b62000641836020830160208801620004e6565b809550505050505092959891949750929550565b6000602082840312156200066857600080fd5b81516200067581620004b7565b9392505050565b60208152600082518060208401526200069d816040850160208701620004e6565b601f01601f19169190910160400192915050565b600181811c90821680620006c657607f821691505b60208210811415620006e857634e487b7160e01b600052602260045260246000fd5b50919050565b60805160a05160c051614eaa6200083d600039600081816102d501528181610632015261252a0152600081816102210152818161085a0152818161096d01528181610a8901528181610b6701528181610bc301528181610d25015281816112c20152818161135f0152818161158b015281816117540152818161191101528181611cc10152818161214701528181612e5901528181612efa0152613f520152600081816103a10152818161042d015281816105430152818161073a01528181610778015281816109cc01528181610a6701528181610adb01528181610b9a01528181610ce901528181610dea015281816114ef01528181611a5801528181611c11015281816121d2015281816122f701528181612a3801528181612ac4015281816130b7015281816131da015281816132fb015281816136b001528181613e990152613f300152614eaa6000f3fe608060405234801561001057600080fd5b50600436106101dc5760003560e01c8063a3f4df7e11610105578063e00af4a71161009d578063e00af4a714610451578063e5328e0614610464578063ec78e8321461046c578063f23c47221461047f578063f7c618c114610491578063f7c99bea146104a4578063fc0c546a146104ad578063fef395d3146104be578063ffa1ad74146104d157600080fd5b8063a3f4df7e14610387578063b2016bd41461039c578063b9098e3c146103c3578063c415b95c146103cc578063ce5494bb146103df578063d2c35ce8146103f2578063d3033c3914610405578063d333253914610418578063d8dfeb451461042b57600080fd5b80635abda028116101785780635abda028146102c85780635fe3b567146102d05780637398ab18146102f75780637d7c2a1c146103145780638b41871314610337578063920f5c841461034a578063951dc22c1461035d57806399b71d5c146103725780639b7166a91461037a57600080fd5b80631026013a146101e157806314ae9f2e1461020757806316f0115b1461021c5780632a049a21146102505780632b3297f9146102595780632e1a7d4d1461026c5780634032b72b1461027f578063440d724814610292578063599e892a146102b5575b600080fd5b6101f46101ef3660046143a1565b6104f5565b6040519081526020015b60405180910390f35b61021a6102153660046143cf565b610858565b005b6102437f000000000000000000000000000000000000000000000000000000000000000081565b6040516101fe91906143ec565b6101f460075481565b600254610243906001600160a01b031681565b61021a61027a3660046143a1565b61096a565b61021a61028d3660046143cf565b610bc1565b6102a56102a03660046143cf565b610ccd565b60405190151581526020016101fe565b61021a6102c336600461440e565b610d23565b6101f4610e0e565b6102437f000000000000000000000000000000000000000000000000000000000000000081565b6102ff610e4d565b604080519283526020830191909152016101fe565b61031c610f07565b604080519384526020840192909252908201526060016101fe565b61021a6103453660046144c0565b610f44565b6102a56103583660046145d3565b610fff565b6103656111e4565b6040516101fe919061471b565b61021a6111f5565b600c546102a59060ff1681565b61038f611231565b6040516101fe9190614786565b6102437f000000000000000000000000000000000000000000000000000000000000000081565b6101f460065481565b600154610243906001600160a01b031681565b61021a6103ed3660046143cf565b6112bf565b61021a6104003660046143cf565b611589565b61021a6104133660046143cf565b611752565b61021a61042636600461440e565b61190f565b7f0000000000000000000000000000000000000000000000000000000000000000610243565b61021a61045f3660046143cf565b6119e1565b6101f4611bfc565b600054610243906001600160a01b031681565b600c546102a590610100900460ff1681565b600954610243906001600160a01b031681565b6101f4600b5481565b6000546001600160a01b0316610243565b61021a6104cc366004614799565b611cbf565b61038f604051806040016040528060058152602001640352e302e360dc1b81525081565b6000610504335b600390611ea3565b6105295760405162461bcd60e51b8152600401610520906147bb565b60405180910390fd5b6040516370a0823160e01b81526000906001600160a01b037f000000000000000000000000000000000000000000000000000000000000000016906370a08231906105789030906004016143ec565b60206040518083038186803b15801561059057600080fd5b505afa1580156105a4573d6000803e3d6000fd5b505050506040513d601f19601f820116820180604052508101906105c891906147eb565b6040805160018082528183019092529192506000919060208083019080368337505060085482519293506001600160a01b03169183915060009061060e5761060e614804565b6001600160a01b03928316602091820292909201015260405162e1ed9760e51b81527f000000000000000000000000000000000000000000000000000000000000000090911690631c3db2e09061066b903090859060040161481a565b600060405180830381600087803b15801561068557600080fd5b505af1158015610699573d6000803e3d6000fd5b50506009546040516370a0823160e01b8152600093506001600160a01b0390911691506370a08231906106d09030906004016143ec565b60206040518083038186803b1580156106e857600080fd5b505afa1580156106fc573d6000803e3d6000fd5b505050506040513d601f19601f8201168201806040525081019061072091906147eb565b905080156108505760095461075f906001600160a01b03167f000000000000000000000000000000000000000000000000000000000000000083611ec5565b6040516370a0823160e01b815283906001600160a01b037f000000000000000000000000000000000000000000000000000000000000000016906370a08231906107ad9030906004016143ec565b60206040518083038186803b1580156107c557600080fd5b505afa1580156107d9573d6000803e3d6000fd5b505050506040513d601f19601f820116820180604052508101906107fd91906147eb565b6108079190614854565b9350848410156108505760405162461bcd60e51b81526020600482015260146024820152731b9bdd0b595b9bdd59da0b585b5bdd5b9d13dd5d60621b6044820152606401610520565b505050919050565b7f00000000000000000000000000000000000000000000000000000000000000006001600160a01b0316630c340a246040518163ffffffff1660e01b815260040160206040518083038186803b1580156108b157600080fd5b505afa1580156108c5573d6000803e3d6000fd5b505050506040513d601f19601f820116820180604052508101906108e9919061486b565b6001600160a01b0316336001600160a01b0316146109195760405162461bcd60e51b815260040161052090614888565b610924600382611f68565b6109675760405162461bcd60e51b81526020600482015260146024820152731c995b5bdd994b5ad9595c195c8b59985a5b195960621b6044820152606401610520565b50565b337f00000000000000000000000000000000000000000000000000000000000000006001600160a01b0316146109b25760405162461bcd60e51b8152600401610520906148bf565b6040516370a0823160e01b81526000906001600160a01b037f000000000000000000000000000000000000000000000000000000000000000016906370a0823190610a019030906004016143ec565b60206040518083038186803b158015610a1957600080fd5b505afa158015610a2d573d6000803e3d6000fd5b505050506040513d601f19601f82011682018060405250810190610a5191906147eb565b9050818110610ab257610aae6001600160a01b037f0000000000000000000000000000000000000000000000000000000000000000167f000000000000000000000000000000000000000000000000000000000000000084611f7d565b5050565b610ac4610abf8284614854565b611fe0565b6040516370a0823160e01b81526001600160a01b037f000000000000000000000000000000000000000000000000000000000000000016906370a0823190610b109030906004016143ec565b60206040518083038186803b158015610b2857600080fd5b505afa158015610b3c573d6000803e3d6000fd5b505050506040513d601f19601f82011682018060405250810190610b6091906147eb565b9050610aae7f0000000000000000000000000000000000000000000000000000000000000000610b9084846120b5565b6001600160a01b037f0000000000000000000000000000000000000000000000000000000000000000169190611f7d565b7f00000000000000000000000000000000000000000000000000000000000000006001600160a01b0316630c340a246040518163ffffffff1660e01b815260040160206040518083038186803b158015610c1a57600080fd5b505afa158015610c2e573d6000803e3d6000fd5b505050506040513d601f19601f82011682018060405250810190610c52919061486b565b6001600160a01b0316336001600160a01b031614610c825760405162461bcd60e51b815260040161052090614888565b610c8d600382611e87565b6109675760405162461bcd60e51b81526020600482015260116024820152701859190b5ad9595c195c8b59985a5b1959607a1b6044820152606401610520565b6008546000906001600160a01b0383811691161480610d1d57507f00000000000000000000000000000000000000000000000000000000000000006001600160a01b0316826001600160a01b0316145b92915050565b7f00000000000000000000000000000000000000000000000000000000000000006001600160a01b0316630c340a246040518163ffffffff1660e01b815260040160206040518083038186803b158015610d7c57600080fd5b505afa158015610d90573d6000803e3d6000fd5b505050506040513d601f19601f82011682018060405250810190610db4919061486b565b6001600160a01b0316336001600160a01b031614610de45760405162461bcd60e51b815260040161052090614888565b610967817f00000000000000000000000000000000000000000000000000000000000000006120cb565b6000806000610e1b610e4d565b9150915080600014610e435781610e34612710836148f2565b610e3e9190614911565b610e46565b60005b9250505090565b6008546040516361bfb47160e11b815260009182918291829182916001600160a01b03169063c37f68e290610e869030906004016143ec565b60806040518083038186803b158015610e9e57600080fd5b505afa158015610eb2573d6000803e3d6000fd5b505050506040513d601f19601f82011682018060405250810190610ed69190614933565b93509350935050670de0b6b3a76400008184610ef291906148f2565b610efc9190614911565b959194509092505050565b60008080610f14336104fc565b610f305760405162461bcd60e51b8152600401610520906147bb565b610f3861210e565b9250925092505b909192565b60008082806020019051810190610f5b9190614969565b909250905033731e0447b19bb6ecfdae1e4ae1694b0c3659614e4e14610fab5760405162461bcd60e51b815260206004820152600560248201526421736f6c6f60d81b6044820152606401610520565b604080518082019091526002815261064760f31b60208201526001600160a01b0386163014610fed5760405162461bcd60e51b81526004016105209190614786565b50610ff882826121b3565b5050505050565b600a5460408051630261bf8b60e01b815290516000926001600160a01b031691630261bf8b916004808301926020929190829003018186803b15801561104457600080fd5b505afa158015611058573d6000803e3d6000fd5b505050506040513d601f19601f8201168201806040525081019061107c919061486b565b6001600160a01b0316336001600160a01b0316146110c95760405162461bcd60e51b815260206004820152600a6024820152690858585d994b5c1bdbdb60b21b6044820152606401610520565b600c54604080518082019091526002815261323760f01b60208201529062010000900460ff1661110c5760405162461bcd60e51b81526004016105209190614786565b50604080518082019091526002815261064760f31b60208201526001600160a01b038516301461114f5760405162461bcd60e51b81526004016105209190614786565b5060008686600081811061116557611165614804565b905060200201358989600081811061117f5761117f614804565b9050602002013561119091906149e9565b90506111d384848080601f0160208091040260200160405190810160405280939291908181526020018383808284376000920191909152508592506121b3915050565b5060019a9950505050505050505050565b60606111f060036122dc565b905090565b6111fe336104fc565b61121a5760405162461bcd60e51b8152600401610520906147bb565b61122460006122e9565b61122f6000196122e9565b565b6005805461123e90614a01565b80601f016020809104026020016040519081016040528092919081815260200182805461126a90614a01565b80156112b75780601f1061128c576101008083540402835291602001916112b7565b820191906000526020600020905b81548152906001019060200180831161129a57829003601f168201915b505050505081565b337f00000000000000000000000000000000000000000000000000000000000000006001600160a01b0316146113075760405162461bcd60e51b8152600401610520906148bf565b6001600160a01b03811661135d5760405162461bcd60e51b815260206004820152601c60248201527f6e65772d73747261746567792d616464726573732d69732d7a65726f000000006044820152606401610520565b7f00000000000000000000000000000000000000000000000000000000000000006001600160a01b0316816001600160a01b03166316f0115b6040518163ffffffff1660e01b815260040160206040518083038186803b1580156113c057600080fd5b505afa1580156113d4573d6000803e3d6000fd5b505050506040513d601f19601f820116820180604052508101906113f8919061486b565b6001600160a01b0316146114475760405162461bcd60e51b81526020600482015260166024820152756e6f742d76616c69642d6e65772d737472617465677960501b6044820152606401610520565b6114508161231c565b6000546040516370a0823160e01b81526114e99183916001600160a01b03909116906370a08231906114869030906004016143ec565b60206040518083038186803b15801561149e57600080fd5b505afa1580156114b2573d6000803e3d6000fd5b505050506040513d601f19601f820116820180604052508101906114d691906147eb565b6000546001600160a01b03169190611f7d565b610967817f00000000000000000000000000000000000000000000000000000000000000006001600160a01b03166370a08231306040518263ffffffff1660e01b815260040161153991906143ec565b60206040518083038186803b15801561155157600080fd5b505afa158015611565573d6000803e3d6000fd5b505050506040513d601f19601f82011682018060405250810190610b9091906147eb565b7f00000000000000000000000000000000000000000000000000000000000000006001600160a01b0316630c340a246040518163ffffffff1660e01b815260040160206040518083038186803b1580156115e257600080fd5b505afa1580156115f6573d6000803e3d6000fd5b505050506040513d601f19601f8201168201806040525081019061161a919061486b565b6001600160a01b0316336001600160a01b03161461164a5760405162461bcd60e51b815260040161052090614888565b6001600160a01b0381166116a05760405162461bcd60e51b815260206004820152601d60248201527f6665652d636f6c6c6563746f722d616464726573732d69732d7a65726f0000006044820152606401610520565b6001546001600160a01b03828116911614156116f65760405162461bcd60e51b81526020600482015260156024820152746665652d636f6c6c6563746f722d69732d73616d6560581b6044820152606401610520565b6001546040516001600160a01b038084169216907f0f06062680f9bd68e786e9980d9bb03d73d5620fc3b345e417b6eacb310b970690600090a3600180546001600160a01b0319166001600160a01b0392909216919091179055565b7f00000000000000000000000000000000000000000000000000000000000000006001600160a01b0316630c340a246040518163ffffffff1660e01b815260040160206040518083038186803b1580156117ab57600080fd5b505afa1580156117bf573d6000803e3d6000fd5b505050506040513d601f19601f820116820180604052508101906117e3919061486b565b6001600160a01b0316336001600160a01b0316146118135760405162461bcd60e51b815260040161052090614888565b6001600160a01b0381166118635760405162461bcd60e51b8152602060048201526017602482015276737761707065722d616464726573732d69732d7a65726f60481b6044820152606401610520565b6002546001600160a01b03828116911614156118b35760405162461bcd60e51b815260206004820152600f60248201526e737761707065722d69732d73616d6560881b6044820152606401610520565b6002546040516001600160a01b038084169216907f6c953b7ec311055c20b96a42cea31e89528e375b1bf953a503db40854b3188fe90600090a3600280546001600160a01b0319166001600160a01b0392909216919091179055565b7f00000000000000000000000000000000000000000000000000000000000000006001600160a01b0316630c340a246040518163ffffffff1660e01b815260040160206040518083038186803b15801561196857600080fd5b505afa15801561197c573d6000803e3d6000fd5b505050506040513d601f19601f820116820180604052508101906119a0919061486b565b6001600160a01b0316336001600160a01b0316146119d05760405162461bcd60e51b815260040161052090614888565b600c805460ff191682151517905550565b6119ea336104fc565b611a065760405162461bcd60e51b8152600401610520906147bb565b6001546001600160a01b0316611a565760405162461bcd60e51b81526020600482015260156024820152741999594b58dbdb1b1958dd1bdc8b5b9bdd0b5cd95d605a1b6044820152606401610520565b7f00000000000000000000000000000000000000000000000000000000000000006001600160a01b0316816001600160a01b03161415611ad85760405162461bcd60e51b815260206004820152601f60248201527f6e6f742d616c6c6f7765642d746f2d73776565702d636f6c6c61746572616c006044820152606401610520565b611ae181610ccd565b15611b255760405162461bcd60e51b815260206004820152601460248201527306e6f742d616c6c6f7765642d746f2d73776565760641b6044820152606401610520565b6001600160a01b03811673eeeeeeeeeeeeeeeeeeeeeeeeeeeeeeeeeeeeeeee1415611b6057600154610967906001600160a01b0316476123f4565b6040516370a0823160e01b81526000906001600160a01b038316906370a0823190611b8f9030906004016143ec565b60206040518083038186803b158015611ba757600080fd5b505afa158015611bbb573d6000803e3d6000fd5b505050506040513d601f19601f82011682018060405250810190611bdf91906147eb565b600154909150610aae906001600160a01b03848116911683611f7d565b6000806000611c09610e4d565b9150915080827f00000000000000000000000000000000000000000000000000000000000000006001600160a01b03166370a08231306040518263ffffffff1660e01b8152600401611c5b91906143ec565b60206040518083038186803b158015611c7357600080fd5b505afa158015611c87573d6000803e3d6000fd5b505050506040513d601f19601f82011682018060405250810190611cab91906147eb565b611cb591906149e9565b610e469190614854565b7f00000000000000000000000000000000000000000000000000000000000000006001600160a01b0316630c340a246040518163ffffffff1660e01b815260040160206040518083038186803b158015611d1857600080fd5b505afa158015611d2c573d6000803e3d6000fd5b505050506040513d601f19601f82011682018060405250810190611d50919061486b565b6001600160a01b0316336001600160a01b031614611d805760405162461bcd60e51b815260040161052090614888565b655af3107a4000611d8f61250d565b611d999190614911565b8110611de25760405162461bcd60e51b81526020600482015260186024820152771a5b9d985b1a590b5b585e0b589bdc9c9bddcb5b1a5b5a5d60421b6044820152606401610520565b818111611e315760405162461bcd60e51b815260206004820152601d60248201527f6d61782d73686f756c642d62652d6869676865722d7468616e2d6d696e0000006044820152606401610520565b6006546007546040805192835260208301859052820152606081018290527f0e68fa4c4a80a75427bcce81b711855825bd765ea0e6e15e330653b2437db78e9060800160405180910390a1600691909155600755565b6000611e9c836001600160a01b0384166125ce565b9392505050565b6001600160a01b03811660009081526001830160205260408120541515611e9c565b600254604051636ccb2b0160e01b81526001600160a01b0385811660048301528481166024830152604482018490526001606483015230608483015290911690636ccb2b019060a401602060405180830381600087803b158015611f2857600080fd5b505af1925050508015611f58575060408051601f3d908101601f19168201909252611f55918101906147eb565b60015b611f6157505050565b505b505050565b6000611e9c836001600160a01b03841661261d565b6040516001600160a01b038316602482015260448101829052611f6390849063a9059cbb60e01b906064015b60408051601f198184030181529190526020810180516001600160e01b03166001600160e01b031990931692909217909152612710565b600080611fee8360006127e2565b9150915080156120ac5761200282826129e1565b61200c9083614854565b915060005b6000831180156120225750600a8111155b1561203e57612032836001612afd565b90920391600101612011565b600080612049610e4d565b9092509050841561209c576007546000901561207b5760075461206e612710846148f2565b6120789190614911565b90505b60006120878285614854565b905080881115612095578097505b50506120a8565b818611156120a8578195505b5050505b611f6383612b68565b60008183106120c45781611e9c565b5090919050565b81156120f3576120ef731e0447b19bb6ecfdae1e4ae1694b0c3659614e4e82612ce8565b600b555b50600c80549115156101000261ff0019909216919091179055565b600080600061211b612e51565b6040516302df682360e11b815260048101849052602481018390526044810182905292955090935091507f00000000000000000000000000000000000000000000000000000000000000006001600160a01b0316906305bed04690606401600060405180830381600087803b15801561219357600080fd5b505af11580156121a7573d6000803e3d6000fd5b50505050610f3f6132e1565b600080838060200190518101906121ca9190614a3c565b9150915060007f00000000000000000000000000000000000000000000000000000000000000006001600160a01b03166370a08231306040518263ffffffff1660e01b815260040161221c91906143ec565b60206040518083038186803b15801561223457600080fd5b505afa158015612248573d6000803e3d6000fd5b505050506040513d601f19601f8201168201806040525081019061226c91906147eb565b9050828110156122ad5760405162461bcd60e51b815260206004820152600c60248201526b11931054d217d1905253115160a21b6044820152606401610520565b81156122ca576122bc836133e2565b6122c584612b68565b610ff8565b6122d3816134a8565b610ff88461356f565b60606000611e9c8361363a565b6122f281613696565b6109677f0000000000000000000000000000000000000000000000000000000000000000826136f6565b60085460408051637e062a3560e11b815290516001600160a01b039283169284169163fc0c546a916004808301926020929190829003018186803b15801561236357600080fd5b505afa158015612377573d6000803e3d6000fd5b505050506040513d601f19601f8201168201806040525081019061239b919061486b565b6001600160a01b0316146123e75760405162461bcd60e51b81526020600482015260136024820152723bb937b73396b932b1b2b4b83a16ba37b5b2b760691b6044820152606401610520565b60006006556109676132e1565b804710156124445760405162461bcd60e51b815260206004820152601d60248201527f416464726573733a20696e73756666696369656e742062616c616e63650000006044820152606401610520565b6000826001600160a01b03168260405160006040518083038185875af1925050503d8060008114612491576040519150601f19603f3d011682016040523d82523d6000602084013e612496565b606091505b5050905080611f635760405162461bcd60e51b815260206004820152603a60248201527f416464726573733a20756e61626c6520746f2073656e642076616c75652c207260448201527f6563697069656e74206d617920686176652072657665727465640000000000006064820152608401610520565b600854604051638e8f294b60e01b81526000916001600160a01b037f0000000000000000000000000000000000000000000000000000000000000000811692638e8f294b926125609216906004016143ec565b60606040518083038186803b15801561257857600080fd5b505afa15801561258c573d6000803e3d6000fd5b505050506040513d601f19601f820116820180604052508101906125b09190614a6c565b50915061271090506125c461251c836148f2565b6111f09190614911565b600081815260018301602052604081205461261557508154600181810184556000848152602080822090930184905584548482528286019093526040902091909155610d1d565b506000610d1d565b60008181526001830160205260408120548015612706576000612641600183614854565b855490915060009061265590600190614854565b90508181146126ba57600086600001828154811061267557612675614804565b906000526020600020015490508087600001848154811061269857612698614804565b6000918252602080832090910192909255918252600188019052604090208390555b85548690806126cb576126cb614aaf565b600190038181906000526020600020016000905590558560010160008681526020019081526020016000206000905560019350505050610d1d565b6000915050610d1d565b6000612765826040518060400160405280602081526020017f5361666545524332303a206c6f772d6c6576656c2063616c6c206661696c6564815250856001600160a01b03166137ad9092919063ffffffff16565b805190915015611f6357808060200190518101906127839190614ac5565b611f635760405162461bcd60e51b815260206004820152602a60248201527f5361666545524332303a204552433230206f7065726174696f6e20646964206e6044820152691bdd081cdd58d8d9595960b21b6064820152608401610520565b600854604051633af9e66960e01b8152600091829182916001600160a01b031690633af9e669906128179030906004016143ec565b602060405180830381600087803b15801561283157600080fd5b505af1158015612845573d6000803e3d6000fd5b505050506040513d601f19601f8201168201806040525081019061286991906147eb565b6008546040516395dd919360e01b81529192506000916001600160a01b03909116906395dd91939061289f9030906004016143ec565b60206040518083038186803b1580156128b757600080fd5b505afa1580156128cb573d6000803e3d6000fd5b505050506040513d601f19601f820116820180604052508101906128ef91906147eb565b905060065460001415612909579250600191506129da9050565b60006129158284614854565b905060008661293b5787821161292c576000612945565b6129368883614854565b612945565b61294588836149e9565b905060006007546127106129599190614854565b60075461296690846148f2565b6129709190614911565b905060006006546127106129849190614854565b60065461299190856148f2565b61299b9190614911565b9050818511156129ba57600196506129b38186614854565b97506129d3565b808510156129d357600096506129d08582614854565b97505b5050505050505b9250929050565b600c546000908190610100900460ff1680156129fd5750600084115b15612a6e5760008484604051602001612a229291909182521515602082015260400190565b6040516020818303038152906040529050612a5e7f000000000000000000000000000000000000000000000000000000000000000086836137c4565b9150612a6a8286614854565b9450505b600c5460ff168015612a7d5750825b8015612a895750600084115b15611e9c5760008484604051602001612aae9291909182521515602082015260400190565b6040516020818303038152906040529050612aea7f00000000000000000000000000000000000000000000000000000000000000008683613a85565b612af490836149e9565b95945050505050565b6000806000612b0a610e4d565b91509150806000148015612b1b5750835b15612b2b57600092505050610d1d565b6000612b3561250d565b90508415612b5057612b4986848484613dd6565b9350612b5f565b612b5c86848484613e3c565b93505b50505092915050565b600019811415612cb7576008546040516370a0823160e01b81526001600160a01b039091169063db006a759082906370a0823190612baa9030906004016143ec565b60206040518083038186803b158015612bc257600080fd5b505afa158015612bd6573d6000803e3d6000fd5b505050506040513d601f19601f82011682018060405250810190612bfa91906147eb565b6040518263ffffffff1660e01b8152600401612c1891815260200190565b602060405180830381600087803b158015612c3257600080fd5b505af1158015612c46573d6000803e3d6000fd5b505050506040513d601f19601f82011682018060405250810190612c6a91906147eb565b156109675760405162461bcd60e51b815260206004820152601d60248201527f77697468647261772d66726f6d2d636f6d706f756e642d6661696c65640000006044820152606401610520565b60085460405163852a12e360e01b8152600481018390526001600160a01b039091169063852a12e390602401612c18565b6000808390506000816001600160a01b031663295c39a56040518163ffffffff1660e01b815260040160206040518083038186803b158015612d2957600080fd5b505afa158015612d3d573d6000803e3d6000fd5b505050506040513d601f19601f82011682018060405250810190612d6191906147eb565b90506000805b82811015612e205760405163062bd3e960e01b8152600481018290526001600160a01b0385169063062bd3e99060240160206040518083038186803b158015612daf57600080fd5b505afa158015612dc3573d6000803e3d6000fd5b505050506040513d601f19601f82011682018060405250810190612de7919061486b565b9150856001600160a01b0316826001600160a01b03161415612e0e579350610d1d92505050565b80612e1881614ae2565b915050612d67565b506040805180820182526002815261033360f41b6020820152905162461bcd60e51b81526105209190600401614786565b6000806000807f00000000000000000000000000000000000000000000000000000000000000006001600160a01b031663d53ddc26306040518263ffffffff1660e01b8152600401612ea391906143ec565b60206040518083038186803b158015612ebb57600080fd5b505afa158015612ecf573d6000803e3d6000fd5b505050506040513d601f19601f82011682018060405250810190612ef391906147eb565b90506000807f00000000000000000000000000000000000000000000000000000000000000006001600160a01b031663228bfd9f306040518263ffffffff1660e01b8152600401612f4491906143ec565b6101206040518083038186803b158015612f5d57600080fd5b505afa158015612f71573d6000803e3d6000fd5b505050506040513d601f19601f82011682018060405250810190612f959190614afd565b506008546040516395dd919360e01b8152949a50909850600097506001600160a01b031695506395dd91939450612fd59350309260040191506143ec9050565b60206040518083038186803b158015612fed57600080fd5b505afa158015613001573d6000803e3d6000fd5b505050506040513d601f19601f8201168201806040525081019061302591906147eb565b600854604051633af9e66960e01b81526001600160a01b0390911690633af9e669906130559030906004016143ec565b602060405180830381600087803b15801561306f57600080fd5b505af1158015613083573d6000803e3d6000fd5b505050506040513d601f19601f820116820180604052508101906130a791906147eb565b6130b19190614854565b905060007f00000000000000000000000000000000000000000000000000000000000000006001600160a01b03166370a08231306040518263ffffffff1660e01b815260040161310191906143ec565b60206040518083038186803b15801561311957600080fd5b505afa15801561312d573d6000803e3d6000fd5b505050506040513d601f19601f8201168201806040525081019061315191906147eb565b9050600061315f82846149e9565b90508481111561317a576131738582614854565b9850613187565b6131848186614854565b97505b6000613193878b6149e9565b9050808310156132645760006131b26131ac8584614854565b866120b5565b90508015613262576131c381611fe0565b6040516370a0823160e01b81526001600160a01b037f000000000000000000000000000000000000000000000000000000000000000016906370a082319061320f9030906004016143ec565b60206040518083038186803b15801561322757600080fd5b505afa15801561323b573d6000803e3d6000fd5b505050506040513d601f19601f8201168201806040525081019061325f91906147eb565b93505b505b61326e83886120b5565b975087831161327e576000613291565b61329161328b8985614854565b8b6120b5565b9950846132d5576000806132a3610e4d565b915091506000821180156132b5575080155b156132d2576132c5600019612b68565b6132cf828d6149e9565b9b505b50505b50505050505050909192565b6040516370a0823160e01b81526000906001600160a01b037f000000000000000000000000000000000000000000000000000000000000000016906370a08231906133309030906004016143ec565b60206040518083038186803b15801561334857600080fd5b505afa15801561335c573d6000803e3d6000fd5b505050506040513d601f19601f8201168201806040525081019061338091906147eb565b90506000806133908360016127e2565b9150915061339d836134a8565b6133a782826129e1565b6133b19083614854565b915060005b6000831180156133c7575060068111155b15611f61576133d68383612afd565b909203916001016133b6565b60085460405163073a938160e11b8152600481018390526001600160a01b0390911690630e75270290602401602060405180830381600087803b15801561342857600080fd5b505af115801561343c573d6000803e3d6000fd5b505050506040513d601f19601f8201168201806040525081019061346091906147eb565b156109675760405162461bcd60e51b81526020600482015260186024820152771c995c185e4b5d1bcb58dbdb5c1bdd5b990b59985a5b195960421b6044820152606401610520565b60085460405163140e25ad60e31b8152600481018390526001600160a01b039091169063a0712d6890602401602060405180830381600087803b1580156134ee57600080fd5b505af1158015613502573d6000803e3d6000fd5b505050506040513d601f19601f8201168201806040525081019061352691906147eb565b156109675760405162461bcd60e51b81526020600482015260196024820152781cdd5c1c1b1e4b5d1bcb58dbdb5c1bdd5b990b59985a5b1959603a1b6044820152606401610520565b60085460405163317afabb60e21b8152600481018390526001600160a01b039091169063c5ebeaec90602401602060405180830381600087803b1580156135b557600080fd5b505af11580156135c9573d6000803e3d6000fd5b505050506040513d601f19601f820116820180604052508101906135ed91906147eb565b156109675760405162461bcd60e51b815260206004820152601b60248201527f626f72726f772d66726f6d2d636f6d706f756e642d6661696c656400000000006044820152606401610520565b60608160000180548060200260200160405190810160405280929190818152602001828054801561368a57602002820191906000526020600020905b815481526020019060010190808311613676575b50505050509050919050565b61369f81613f23565b6008546136d9906001600160a01b037f00000000000000000000000000000000000000000000000000000000000000008116911683613f73565b600254600954610967916001600160a01b03918216911683613f73565b61371e6001600160a01b038316731e0447b19bb6ecfdae1e4ae1694b0c3659614e4e83613f73565b600a5460408051630261bf8b60e01b81529051610aae926001600160a01b031691630261bf8b916004808301926020929190829003018186803b15801561376457600080fd5b505afa158015613778573d6000803e3d6000fd5b505050506040513d601f19601f8201168201806040525081019061379c919061486b565b6001600160a01b0384169083613f73565b60606137bc8484600085614097565b949350505050565b600c54604080518082019091526002815261191b60f11b6020820152600091610100900460ff166138085760405162461bcd60e51b81526004016105209190614786565b506040516370a0823160e01b81526000906001600160a01b038616906370a082319061384c90731e0447b19bb6ecfdae1e4ae1694b0c3659614e4e906004016143ec565b60206040518083038186803b15801561386457600080fd5b505afa158015613878573d6000803e3d6000fd5b505050506040513d601f19601f8201168201806040525081019061389c91906147eb565b9050808411156138aa578093505b60006138b78560026149e9565b9050600084826040516020016138ce929190614b71565b60408051808303601f19018152600380845260808401909252925060009190816020015b6138fa61432b565b8152602001906001900390816138f257905050905061391b600b54886141bf565b8160008151811061392e5761392e614804565b602002602001018190525061394282614249565b8160018151811061395557613955614804565b602002602001018190525061396c600b54846142b7565b8160028151811061397f5761397f614804565b6020908102919091010152604080516001808252818301909252600091816020015b60408051808201909152600080825260208201528152602001906001900390816139a15750506040805180820182526000808252602091820152815180830190925230825260019082015290915081600081518110613a0257613a02614804565b602090810291909101015260405163a67a6a4560e01b8152731e0447b19bb6ecfdae1e4ae1694b0c3659614e4e9063a67a6a4590613a469084908690600401614bf0565b600060405180830381600087803b158015613a6057600080fd5b505af1158015613a74573d6000803e3d6000fd5b50999b9a5050505050505050505050565b600c54604080518082019091526002815261323560f01b602082015260009160ff16613ac45760405162461bcd60e51b81526004016105209190614786565b50600a5460408051630261bf8b60e01b815290516000926001600160a01b031691630261bf8b916004808301926020929190829003018186803b158015613b0a57600080fd5b505afa158015613b1e573d6000803e3d6000fd5b505050506040513d601f19601f82011682018060405250810190613b42919061486b565b600a546040516321f8a72160e01b8152600160f81b60048201529192506000916001600160a01b03909116906321f8a7219060240160206040518083038186803b158015613b8f57600080fd5b505afa158015613ba3573d6000803e3d6000fd5b505050506040513d601f19601f82011682018060405250810190613bc7919061486b565b90506000816001600160a01b03166335ea6a75886040518263ffffffff1660e01b8152600401613bf791906143ec565b6101406040518083038186803b158015613c1057600080fd5b505afa158015613c24573d6000803e3d6000fd5b505050506040513d601f19601f82011682018060405250810190613c489190614d21565b505050505050505050905080861115613c5f578095505b604080516001808252818301909252600091602080830190803683370190505090508781600081518110613c9557613c95614804565b6001600160a01b0392909216602092830291909101909101526040805160018082528183019092526000918160200160208202803683370190505090508781600081518110613ce657613ce6614804565b6020908102919091010152604080516001808252818301909252600091816020016020820280368337019050509050600081600081518110613d2a57613d2a614804565b6020026020010181815250506001600c60026101000a81548160ff021916908315150217905550856001600160a01b031663ab9c4b5d30858585308e60006040518863ffffffff1660e01b8152600401613d8a9796959493929190614dda565b600060405180830381600087803b158015613da457600080fd5b505af1158015613db8573d6000803e3d6000fd5b5050600c805462ff00001916905550989a9950505050505050505050565b6000808215613dff5782613df285670de0b6b3a76400006148f2565b613dfc9190614911565b90505b613e098186614854565b9150838210613e16578391505b858210613e21578591505b613e2a82612b68565b613e33826133e2565b50949350505050565b600080670de0b6b3a7640000613e5284876148f2565b613e5c9190614911565b9050613e688482614854565b9150858210613e75578591505b613e7e8261356f565b6040516370a0823160e01b8152613e33906001600160a01b037f000000000000000000000000000000000000000000000000000000000000000016906370a0823190613ece9030906004016143ec565b60206040518083038186803b158015613ee657600080fd5b505afa158015613efa573d6000803e3d6000fd5b505050506040513d601f19601f82011682018060405250810190613f1e91906147eb565b6134a8565b6109676001600160a01b037f0000000000000000000000000000000000000000000000000000000000000000167f0000000000000000000000000000000000000000000000000000000000000000835b801580613ffc5750604051636eb1769f60e11b81523060048201526001600160a01b03838116602483015284169063dd62ed3e9060440160206040518083038186803b158015613fc257600080fd5b505afa158015613fd6573d6000803e3d6000fd5b505050506040513d601f19601f82011682018060405250810190613ffa91906147eb565b155b6140675760405162461bcd60e51b815260206004820152603660248201527f5361666545524332303a20617070726f76652066726f6d206e6f6e2d7a65726f60448201527520746f206e6f6e2d7a65726f20616c6c6f77616e636560501b6064820152608401610520565b6040516001600160a01b038316602482015260448101829052611f6390849063095ea7b360e01b90606401611fa9565b6060824710156140f85760405162461bcd60e51b815260206004820152602660248201527f416464726573733a20696e73756666696369656e742062616c616e636520666f6044820152651c8818d85b1b60d21b6064820152608401610520565b843b6141465760405162461bcd60e51b815260206004820152601d60248201527f416464726573733a2063616c6c20746f206e6f6e2d636f6e74726163740000006044820152606401610520565b600080866001600160a01b031685876040516141629190614e58565b60006040518083038185875af1925050503d806000811461419f576040519150601f19603f3d011682016040523d82523d6000602084013e6141a4565b606091505b50915091506141b48282866142f2565b979650505050505050565b6141c761432b565b604080516101008101825260018152600060208083018290528351608081018552828152929384019291908201905b81526020016000815260200185815250815260200184815260200160008152602001306001600160a01b031681526020016000815260200160405180602001604052806000815250815250905092915050565b61425161432b565b6040805161010081018252600881526000602080830182905283516080810185528281529293840192919082019081526020016000815260006020918201819052918352820181905260408201819052306060830152608082015260a001929092525090565b6142bf61432b565b604080516101008101825260008082526020808301829052835160808101855260018152929384019291908201906141f6565b60608315614301575081611e9c565b8251156143115782518084602001fd5b8160405162461bcd60e51b81526004016105209190614786565b60408051610100810182526000808252602082015290810161436f604080516080810190915260008082526020820190815260200160008152602001600081525090565b8152602001600081526020016000815260200160006001600160a01b0316815260200160008152602001606081525090565b6000602082840312156143b357600080fd5b5035919050565b6001600160a01b038116811461096757600080fd5b6000602082840312156143e157600080fd5b8135611e9c816143ba565b6001600160a01b0391909116815260200190565b801515811461096757600080fd5b60006020828403121561442057600080fd5b8135611e9c81614400565b634e487b7160e01b600052604160045260246000fd5b604080519081016001600160401b03811182821017156144635761446361442b565b60405290565b604051601f8201601f191681016001600160401b03811182821017156144915761449161442b565b604052919050565b60006001600160401b038211156144b2576144b261442b565b50601f01601f191660200190565b600080600083850360808112156144d657600080fd5b84356144e1816143ba565b935060206040601f19830112156144f757600080fd5b6144ff614441565b91508086013561450e816143ba565b82526040860135818301529092506060850135906001600160401b0382111561453657600080fd5b818601915086601f83011261454a57600080fd5b813561455d61455882614499565b614469565b818152888383860101111561457157600080fd5b81838501848301376000838383010152809450505050509250925092565b60008083601f8401126145a157600080fd5b5081356001600160401b038111156145b857600080fd5b6020830191508360208260051b85010111156129da57600080fd5b600080600080600080600080600060a08a8c0312156145f157600080fd5b89356001600160401b038082111561460857600080fd5b6146148d838e0161458f565b909b50995060208c013591508082111561462d57600080fd5b6146398d838e0161458f565b909950975060408c013591508082111561465257600080fd5b61465e8d838e0161458f565b909750955060608c01359150614673826143ba565b90935060808b0135908082111561468957600080fd5b818c0191508c601f83011261469d57600080fd5b8135818111156146ac57600080fd5b8d60208285010111156146be57600080fd5b6020830194508093505050509295985092959850929598565b600081518084526020808501945080840160005b838110156147105781516001600160a01b0316875295820195908201906001016146eb565b509495945050505050565b602081526000611e9c60208301846146d7565b60005b83811015614749578181015183820152602001614731565b83811115611f615750506000910152565b6000815180845261477281602086016020860161472e565b601f01601f19169290920160200192915050565b602081526000611e9c602083018461475a565b600080604083850312156147ac57600080fd5b50508035926020909101359150565b60208082526016908201527531b0b63632b916b4b996b737ba16b096b5b2b2b832b960511b604082015260600190565b6000602082840312156147fd57600080fd5b5051919050565b634e487b7160e01b600052603260045260246000fd5b6001600160a01b03831681526040602082018190526000906137bc908301846146d7565b634e487b7160e01b600052601160045260246000fd5b6000828210156148665761486661483e565b500390565b60006020828403121561487d57600080fd5b8151611e9c816143ba565b6020808252601a908201527f63616c6c65722d69732d6e6f742d7468652d676f7665726e6f72000000000000604082015260600190565b60208082526019908201527818d85b1b195c8b5a5ccb5b9bdd0b5d995cdc195c8b5c1bdbdb603a1b604082015260600190565b600081600019048311821515161561490c5761490c61483e565b500290565b60008261492e57634e487b7160e01b600052601260045260246000fd5b500490565b6000806000806080858703121561494957600080fd5b505082516020840151604085015160609095015191969095509092509050565b6000806040838503121561497c57600080fd5b82516001600160401b0381111561499257600080fd5b8301601f810185136149a357600080fd5b80516149b161455882614499565b8181528660208385010111156149c657600080fd5b6149d782602083016020860161472e565b60209590950151949694955050505050565b600082198211156149fc576149fc61483e565b500190565b600181811c90821680614a1557607f821691505b60208210811415614a3657634e487b7160e01b600052602260045260246000fd5b50919050565b60008060408385031215614a4f57600080fd5b825191506020830151614a6181614400565b809150509250929050565b600080600060608486031215614a8157600080fd5b8351614a8c81614400565b602085015160408601519194509250614aa481614400565b809150509250925092565b634e487b7160e01b600052603160045260246000fd5b600060208284031215614ad757600080fd5b8151611e9c81614400565b6000600019821415614af657614af661483e565b5060010190565b60008060008060008060008060006101208a8c031215614b1c57600080fd5b8951614b2781614400565b8099505060208a0151975060408a0151965060608a0151955060808a0151945060a08a0151935060c08a0151925060e08a015191506101008a015190509295985092959850929598565b604081526000614b84604083018561475a565b90508260208301529392505050565b634e487b7160e01b600052602160045260246000fd5b6002811061096757610967614b93565b8051151582526020810151614bcd81614ba9565b60208301526040810151614be081614ba9565b6040830152606090810151910152565b6040808252835182820181905260009190606090818501906020808901865b83811015614c3d57815180516001600160a01b03168652830151838601529386019390820190600101614c0f565b50508683038188015287518084528184019250600581901b8401820189830160005b83811015614d1057601f198784030186528151610160815160098110614c8757614c87614b93565b855281870151878601528a820151614ca18c870182614bb9565b508982015160c081818801526080840151915060e0828189015260a08501519250614cd86101008901846001600160a01b03169052565b908401516101208801529092015161014086018290529150614cfc8186018361475a565b978701979450505090840190600101614c5f565b50909b9a5050505050505050505050565b6000806000806000806000806000806101408b8d031215614d4157600080fd5b8a51995060208b0151985060408b0151975060608b0151965060808b0151955060a08b0151945060c08b0151935060e08b015192506101008b015191506101208b015164ffffffffff81168114614d9757600080fd5b809150509295989b9194979a5092959850565b600081518084526020808501945080840160005b8381101561471057815187529582019590820190600101614dbe565b600060018060a01b03808a16835260e06020840152614dfc60e084018a6146d7565b8381036040850152614e0e818a614daa565b90508381036060850152614e228189614daa565b9050818716608085015283810360a0850152614e3e818761475a565b9250505061ffff831660c083015298975050505050505050565b60008251614e6a81846020870161472e565b919091019291505056fea2646970667358221220c5fd0475dccb23bf96e9a8476a97c412a1ca43c6d8588b0e6080c9daba577b9d64736f6c63430008090033",
  "devdoc": {
    "kind": "dev",
    "methods": {
      "addKeeper(address)": {
        "params": {
          "_keeperAddress": "keeper address to add."
        }
      },
      "approveToken()": {
        "details": "Approve all required tokens"
      },
      "callFunction(address,(address,uint256),bytes)": {
        "details": "DyDx calls this function after doing flash loan"
      },
      "executeOperation(address[],uint256[],uint256[],address,bytes)": {
        "details": "Aave will call this function after doing flash loan"
      },
      "migrate(address)": {
        "details": "_beforeMigration hook can be implemented in child strategy to do extra steps.",
        "params": {
          "_newStrategy": "Address of new strategy"
        }
      },
      "rebalance()": {
        "returns": {
          "_loss": "Realized loss, if any, in collateral.",
          "_payback": "If strategy has any excess debt, we have to liquidate asset to payback excess debt.",
          "_profit": "Realized profit in collateral."
        }
      },
      "removeKeeper(address)": {
        "params": {
          "_keeperAddress": "keeper address to remove."
        }
      },
      "sweepERC20(address)": {
        "params": {
          "_fromToken": "token address to sweep"
        }
      },
      "updateBorrowRatio(uint256,uint256)": {
        "details": "It is possible to set 0 as _minBorrowRatio to not borrow anything",
        "params": {
          "_maxBorrowRatio": "Maximum % we want to borrow",
          "_minBorrowRatio": "Minimum % we want to borrow"
        }
      },
      "updateFeeCollector(address)": {
        "params": {
          "_feeCollector": "fee collector address"
        }
      },
      "updateSwapper(address)": {
        "params": {
          "_swapper": "swapper address"
        }
      },
      "withdraw(uint256)": {
        "params": {
          "_amount": "Amount of collateral token"
        }
      }
    },
    "title": "This strategy will deposit collateral token in Compound and based on position it will borrow same collateral token. It will use borrowed asset as supply and borrow again.",
    "version": 1
  },
  "userdoc": {
    "kind": "user",
    "methods": {
      "addKeeper(address)": {
        "notice": "Add given address in keepers list."
      },
      "claimAndSwapRewards(uint256)": {
        "notice": "Claim rewardToken and convert rewardToken into collateral token."
      },
      "collateral()": {
        "notice": "Returns address of token correspond to collateral token"
      },
      "currentBorrowRatio()": {
        "notice": "Current borrow ratio, calculated as current borrow divide by max allowed borrow Return value is based on basis points, i.e. 7500 = 75% ratio"
      },
      "getPosition()": {
        "notice": "Return supply and borrow position. Position may return few block old value"
      },
      "isReservedToken(address)": {
        "notice": "Check whether given token is reserved or not. Reserved tokens are not allowed to sweep."
      },
      "keepers()": {
        "notice": "Return list of keepers"
      },
      "migrate(address)": {
        "notice": "Migrate all asset and vault ownership,if any, to new strategy"
      },
      "rebalance()": {
        "notice": "OnlyKeeper: Rebalance profit, loss and investment of this strategy.  Calculate profit, loss and payback of this strategy and realize profit/loss and  withdraw fund for payback, if any, and submit this report to pool."
      },
      "removeKeeper(address)": {
        "notice": "Remove given address from keepers list."
      },
      "sweepERC20(address)": {
        "notice": "sweep given token to feeCollector of strategy"
      },
      "token()": {
        "notice": "Returns address of token correspond to receipt token"
      },
      "tvl()": {
        "notice": "Returns total collateral locked in the strategy"
      },
      "updateBorrowRatio(uint256,uint256)": {
        "notice": "Update upper and lower borrow ratio"
      },
      "updateFeeCollector(address)": {
        "notice": "Update fee collector"
      },
      "updateSwapper(address)": {
        "notice": "Update swapper"
      },
      "withdraw(uint256)": {
        "notice": "Withdraw collateral token from end protocol."
      }
    },
    "version": 1
  },
  "storageLayout": {
    "storage": [
      {
        "astId": 14313,
        "contract": "vesper-strategies/contracts/strategies/compound/CompoundLeverage.sol:CompoundLeverage",
        "label": "receiptToken",
        "offset": 0,
        "slot": "0",
        "type": "t_address"
      },
      {
        "astId": 14319,
        "contract": "vesper-strategies/contracts/strategies/compound/CompoundLeverage.sol:CompoundLeverage",
        "label": "feeCollector",
        "offset": 0,
        "slot": "1",
        "type": "t_address"
      },
      {
        "astId": 14322,
        "contract": "vesper-strategies/contracts/strategies/compound/CompoundLeverage.sol:CompoundLeverage",
        "label": "swapper",
        "offset": 0,
        "slot": "2",
        "type": "t_contract(IRoutedSwapper)13174"
      },
      {
        "astId": 14335,
        "contract": "vesper-strategies/contracts/strategies/compound/CompoundLeverage.sol:CompoundLeverage",
        "label": "_keepers",
        "offset": 0,
        "slot": "3",
        "type": "t_struct(AddressSet)3020_storage"
      },
      {
        "astId": 18103,
        "contract": "vesper-strategies/contracts/strategies/compound/CompoundLeverage.sol:CompoundLeverage",
        "label": "NAME",
        "offset": 0,
        "slot": "5",
        "type": "t_string_storage"
      },
      {
        "astId": 18112,
        "contract": "vesper-strategies/contracts/strategies/compound/CompoundLeverage.sol:CompoundLeverage",
        "label": "minBorrowRatio",
        "offset": 0,
        "slot": "6",
        "type": "t_uint256"
      },
      {
        "astId": 18115,
        "contract": "vesper-strategies/contracts/strategies/compound/CompoundLeverage.sol:CompoundLeverage",
        "label": "maxBorrowRatio",
        "offset": 0,
        "slot": "7",
        "type": "t_uint256"
      },
      {
        "astId": 18121,
        "contract": "vesper-strategies/contracts/strategies/compound/CompoundLeverage.sol:CompoundLeverage",
        "label": "cToken",
        "offset": 0,
        "slot": "8",
        "type": "t_contract(CToken)10525"
      },
      {
        "astId": 18126,
        "contract": "vesper-strategies/contracts/strategies/compound/CompoundLeverage.sol:CompoundLeverage",
        "label": "rewardToken",
        "offset": 0,
        "slot": "9",
        "type": "t_address"
      },
      {
        "astId": 13622,
        "contract": "vesper-strategies/contracts/strategies/compound/CompoundLeverage.sol:CompoundLeverage",
        "label": "poolAddressesProvider",
        "offset": 0,
        "slot": "10",
        "type": "t_contract(PoolAddressesProvider)10090"
      },
      {
        "astId": 13627,
        "contract": "vesper-strategies/contracts/strategies/compound/CompoundLeverage.sol:CompoundLeverage",
        "label": "dyDxMarketId",
        "offset": 0,
        "slot": "11",
        "type": "t_uint256"
      },
      {
        "astId": 13633,
        "contract": "vesper-strategies/contracts/strategies/compound/CompoundLeverage.sol:CompoundLeverage",
        "label": "isAaveActive",
        "offset": 0,
        "slot": "12",
        "type": "t_bool"
      },
      {
        "astId": 13636,
        "contract": "vesper-strategies/contracts/strategies/compound/CompoundLeverage.sol:CompoundLeverage",
        "label": "isDyDxActive",
        "offset": 1,
        "slot": "12",
        "type": "t_bool"
      },
      {
        "astId": 13729,
        "contract": "vesper-strategies/contracts/strategies/compound/CompoundLeverage.sol:CompoundLeverage",
        "label": "awaitingFlash",
        "offset": 2,
        "slot": "12",
        "type": "t_bool"
      }
    ],
    "types": {
      "t_address": {
        "encoding": "inplace",
        "label": "address",
        "numberOfBytes": "20"
      },
      "t_array(t_bytes32)dyn_storage": {
        "base": "t_bytes32",
        "encoding": "dynamic_array",
        "label": "bytes32[]",
        "numberOfBytes": "32"
      },
      "t_bool": {
        "encoding": "inplace",
        "label": "bool",
        "numberOfBytes": "1"
      },
      "t_bytes32": {
        "encoding": "inplace",
        "label": "bytes32",
        "numberOfBytes": "32"
      },
      "t_contract(CToken)10525": {
        "encoding": "inplace",
        "label": "contract CToken",
        "numberOfBytes": "20"
      },
      "t_contract(IRoutedSwapper)13174": {
        "encoding": "inplace",
        "label": "contract IRoutedSwapper",
        "numberOfBytes": "20"
      },
      "t_contract(PoolAddressesProvider)10090": {
        "encoding": "inplace",
        "label": "contract PoolAddressesProvider",
        "numberOfBytes": "20"
      },
      "t_mapping(t_bytes32,t_uint256)": {
        "encoding": "mapping",
        "key": "t_bytes32",
        "label": "mapping(bytes32 => uint256)",
        "numberOfBytes": "32",
        "value": "t_uint256"
      },
      "t_string_storage": {
        "encoding": "bytes",
        "label": "string",
        "numberOfBytes": "32"
      },
      "t_struct(AddressSet)3020_storage": {
        "encoding": "inplace",
        "label": "struct EnumerableSet.AddressSet",
        "members": [
          {
            "astId": 3019,
            "contract": "vesper-strategies/contracts/strategies/compound/CompoundLeverage.sol:CompoundLeverage",
            "label": "_inner",
            "offset": 0,
            "slot": "0",
            "type": "t_struct(Set)2719_storage"
          }
        ],
        "numberOfBytes": "64"
      },
      "t_struct(Set)2719_storage": {
        "encoding": "inplace",
        "label": "struct EnumerableSet.Set",
        "members": [
          {
            "astId": 2714,
            "contract": "vesper-strategies/contracts/strategies/compound/CompoundLeverage.sol:CompoundLeverage",
            "label": "_values",
            "offset": 0,
            "slot": "0",
            "type": "t_array(t_bytes32)dyn_storage"
          },
          {
            "astId": 2718,
            "contract": "vesper-strategies/contracts/strategies/compound/CompoundLeverage.sol:CompoundLeverage",
            "label": "_indexes",
            "offset": 0,
            "slot": "1",
            "type": "t_mapping(t_bytes32,t_uint256)"
          }
        ],
        "numberOfBytes": "64"
      },
      "t_uint256": {
        "encoding": "inplace",
        "label": "uint256",
        "numberOfBytes": "32"
      }
    }
  }
}