{
  "address": "0xFd81543db31f59b80Eb7dcE12499431177F1F241",
  "abi": [
    {
      "inputs": [
        {
          "internalType": "address",
          "name": "_pool",
          "type": "address"
        },
        {
          "internalType": "address",
          "name": "_swapper",
          "type": "address"
        },
        {
          "internalType": "address",
          "name": "_comptroller",
          "type": "address"
        },
        {
          "internalType": "address",
          "name": "_rewardToken",
          "type": "address"
        },
        {
          "internalType": "address",
          "name": "_aaveAddressesProvider",
          "type": "address"
        },
        {
          "internalType": "address",
          "name": "_receiptToken",
          "type": "address"
        },
        {
          "internalType": "string",
          "name": "_name",
          "type": "string"
        }
      ],
      "stateMutability": "nonpayable",
      "type": "constructor"
    },
    {
      "anonymous": false,
      "inputs": [
        {
          "indexed": false,
          "internalType": "uint256",
          "name": "previousMinBorrowRatio",
          "type": "uint256"
        },
        {
          "indexed": false,
          "internalType": "uint256",
          "name": "newMinBorrowRatio",
          "type": "uint256"
        },
        {
          "indexed": false,
          "internalType": "uint256",
          "name": "previousMaxBorrowRatio",
          "type": "uint256"
        },
        {
          "indexed": false,
          "internalType": "uint256",
          "name": "newMaxBorrowRatio",
          "type": "uint256"
        }
      ],
      "name": "UpdatedBorrowRatio",
      "type": "event"
    },
    {
      "anonymous": false,
      "inputs": [
        {
          "indexed": true,
          "internalType": "address",
          "name": "previousFeeCollector",
          "type": "address"
        },
        {
          "indexed": true,
          "internalType": "address",
          "name": "newFeeCollector",
          "type": "address"
        }
      ],
      "name": "UpdatedFeeCollector",
      "type": "event"
    },
    {
      "anonymous": false,
      "inputs": [
        {
          "indexed": true,
          "internalType": "contract IRoutedSwapper",
          "name": "oldSwapper",
          "type": "address"
        },
        {
          "indexed": true,
          "internalType": "contract IRoutedSwapper",
          "name": "newSwapper",
          "type": "address"
        }
      ],
      "name": "UpdatedSwapper",
      "type": "event"
    },
    {
      "inputs": [],
      "name": "NAME",
      "outputs": [
        {
          "internalType": "string",
          "name": "",
          "type": "string"
        }
      ],
      "stateMutability": "view",
      "type": "function"
    },
    {
      "inputs": [],
      "name": "VERSION",
      "outputs": [
        {
          "internalType": "string",
          "name": "",
          "type": "string"
        }
      ],
      "stateMutability": "view",
      "type": "function"
    },
    {
      "inputs": [
        {
          "internalType": "address",
          "name": "_keeperAddress",
          "type": "address"
        }
      ],
      "name": "addKeeper",
      "outputs": [],
      "stateMutability": "nonpayable",
      "type": "function"
    },
    {
      "inputs": [],
      "name": "approveToken",
      "outputs": [],
      "stateMutability": "nonpayable",
      "type": "function"
    },
    {
      "inputs": [
        {
          "internalType": "address",
          "name": "_sender",
          "type": "address"
        },
        {
          "components": [
            {
              "internalType": "address",
              "name": "owner",
              "type": "address"
            },
            {
              "internalType": "uint256",
              "name": "number",
              "type": "uint256"
            }
          ],
          "internalType": "struct Account.Info",
          "name": "",
          "type": "tuple"
        },
        {
          "internalType": "bytes",
          "name": "_callData",
          "type": "bytes"
        }
      ],
      "name": "callFunction",
      "outputs": [],
      "stateMutability": "nonpayable",
      "type": "function"
    },
    {
      "inputs": [],
      "name": "collateral",
      "outputs": [
        {
          "internalType": "address",
          "name": "",
          "type": "address"
        }
      ],
      "stateMutability": "view",
      "type": "function"
    },
    {
      "inputs": [],
      "name": "collateralToken",
      "outputs": [
        {
          "internalType": "contract IERC20",
          "name": "",
          "type": "address"
        }
      ],
      "stateMutability": "view",
      "type": "function"
    },
    {
      "inputs": [],
      "name": "comptroller",
      "outputs": [
        {
          "internalType": "contract Comptroller",
          "name": "",
          "type": "address"
        }
      ],
      "stateMutability": "view",
      "type": "function"
    },
    {
      "inputs": [],
      "name": "currentBorrowRatio",
      "outputs": [
        {
          "internalType": "uint256",
          "name": "",
          "type": "uint256"
        }
      ],
      "stateMutability": "view",
      "type": "function"
    },
    {
      "inputs": [],
      "name": "dyDxMarketId",
      "outputs": [
        {
          "internalType": "uint256",
          "name": "",
          "type": "uint256"
        }
      ],
      "stateMutability": "view",
      "type": "function"
    },
    {
      "inputs": [
        {
          "internalType": "address[]",
          "name": "",
          "type": "address[]"
        },
        {
          "internalType": "uint256[]",
          "name": "_amounts",
          "type": "uint256[]"
        },
        {
          "internalType": "uint256[]",
          "name": "_premiums",
          "type": "uint256[]"
        },
        {
          "internalType": "address",
          "name": "_initiator",
          "type": "address"
        },
        {
          "internalType": "bytes",
          "name": "_data",
          "type": "bytes"
        }
      ],
      "name": "executeOperation",
      "outputs": [
        {
          "internalType": "bool",
          "name": "",
          "type": "bool"
        }
      ],
      "stateMutability": "nonpayable",
      "type": "function"
    },
    {
      "inputs": [],
      "name": "feeCollector",
      "outputs": [
        {
          "internalType": "address",
          "name": "",
          "type": "address"
        }
      ],
      "stateMutability": "view",
      "type": "function"
    },
    {
      "inputs": [],
      "name": "getPosition",
      "outputs": [
        {
          "internalType": "uint256",
          "name": "_supply",
          "type": "uint256"
        },
        {
          "internalType": "uint256",
          "name": "_borrow",
          "type": "uint256"
        }
      ],
      "stateMutability": "view",
      "type": "function"
    },
    {
      "inputs": [],
      "name": "isAaveActive",
      "outputs": [
        {
          "internalType": "bool",
          "name": "",
          "type": "bool"
        }
      ],
      "stateMutability": "view",
      "type": "function"
    },
    {
      "inputs": [],
      "name": "isDyDxActive",
      "outputs": [
        {
          "internalType": "bool",
          "name": "",
          "type": "bool"
        }
      ],
      "stateMutability": "view",
      "type": "function"
    },
    {
      "inputs": [
        {
          "internalType": "address",
          "name": "_token",
          "type": "address"
        }
      ],
      "name": "isReservedToken",
      "outputs": [
        {
          "internalType": "bool",
          "name": "",
          "type": "bool"
        }
      ],
      "stateMutability": "view",
      "type": "function"
    },
    {
      "inputs": [],
      "name": "keepers",
      "outputs": [
        {
          "internalType": "address[]",
          "name": "",
          "type": "address[]"
        }
      ],
      "stateMutability": "view",
      "type": "function"
    },
    {
      "inputs": [],
      "name": "maxBorrowRatio",
      "outputs": [
        {
          "internalType": "uint256",
          "name": "",
          "type": "uint256"
        }
      ],
      "stateMutability": "view",
      "type": "function"
    },
    {
      "inputs": [
        {
          "internalType": "address",
          "name": "_newStrategy",
          "type": "address"
        }
      ],
      "name": "migrate",
      "outputs": [],
      "stateMutability": "nonpayable",
      "type": "function"
    },
    {
      "inputs": [],
      "name": "minBorrowRatio",
      "outputs": [
        {
          "internalType": "uint256",
          "name": "",
          "type": "uint256"
        }
      ],
      "stateMutability": "view",
      "type": "function"
    },
    {
      "inputs": [],
      "name": "pool",
      "outputs": [
        {
          "internalType": "address",
          "name": "",
          "type": "address"
        }
      ],
      "stateMutability": "view",
      "type": "function"
    },
    {
      "inputs": [],
      "name": "rebalance",
      "outputs": [
        {
          "internalType": "uint256",
          "name": "_profit",
          "type": "uint256"
        },
        {
          "internalType": "uint256",
          "name": "_loss",
          "type": "uint256"
        },
        {
          "internalType": "uint256",
          "name": "_payback",
          "type": "uint256"
        }
      ],
      "stateMutability": "nonpayable",
      "type": "function"
    },
    {
      "inputs": [],
      "name": "receiptToken",
      "outputs": [
        {
          "internalType": "address",
          "name": "",
          "type": "address"
        }
      ],
      "stateMutability": "view",
      "type": "function"
    },
    {
      "inputs": [
        {
          "internalType": "address",
          "name": "_keeperAddress",
          "type": "address"
        }
      ],
      "name": "removeKeeper",
      "outputs": [],
      "stateMutability": "nonpayable",
      "type": "function"
    },
    {
      "inputs": [],
      "name": "rewardToken",
      "outputs": [
        {
          "internalType": "address",
          "name": "",
          "type": "address"
        }
      ],
      "stateMutability": "view",
      "type": "function"
    },
    {
      "inputs": [],
      "name": "swapper",
      "outputs": [
        {
          "internalType": "contract IRoutedSwapper",
          "name": "",
          "type": "address"
        }
      ],
      "stateMutability": "view",
      "type": "function"
    },
    {
      "inputs": [
        {
          "internalType": "address",
          "name": "_fromToken",
          "type": "address"
        }
      ],
      "name": "sweepERC20",
      "outputs": [],
      "stateMutability": "nonpayable",
      "type": "function"
    },
    {
      "inputs": [],
      "name": "token",
      "outputs": [
        {
          "internalType": "address",
          "name": "",
          "type": "address"
        }
      ],
      "stateMutability": "view",
      "type": "function"
    },
    {
      "inputs": [],
      "name": "tvl",
      "outputs": [
        {
          "internalType": "uint256",
          "name": "",
          "type": "uint256"
        }
      ],
      "stateMutability": "view",
      "type": "function"
    },
    {
      "inputs": [
        {
          "internalType": "bool",
          "name": "_status",
          "type": "bool"
        }
      ],
      "name": "updateAaveStatus",
      "outputs": [],
      "stateMutability": "nonpayable",
      "type": "function"
    },
    {
      "inputs": [
        {
          "internalType": "uint256",
          "name": "_minBorrowRatio",
          "type": "uint256"
        },
        {
          "internalType": "uint256",
          "name": "_maxBorrowRatio",
          "type": "uint256"
        }
      ],
      "name": "updateBorrowRatio",
      "outputs": [],
      "stateMutability": "nonpayable",
      "type": "function"
    },
    {
      "inputs": [
        {
          "internalType": "bool",
          "name": "_status",
          "type": "bool"
        }
      ],
      "name": "updateDyDxStatus",
      "outputs": [],
      "stateMutability": "nonpayable",
      "type": "function"
    },
    {
      "inputs": [
        {
          "internalType": "address",
          "name": "_feeCollector",
          "type": "address"
        }
      ],
      "name": "updateFeeCollector",
      "outputs": [],
      "stateMutability": "nonpayable",
      "type": "function"
    },
    {
      "inputs": [
        {
          "internalType": "contract IRoutedSwapper",
          "name": "_swapper",
          "type": "address"
        }
      ],
      "name": "updateSwapper",
      "outputs": [],
      "stateMutability": "nonpayable",
      "type": "function"
    },
    {
      "inputs": [
        {
          "internalType": "uint256",
          "name": "_amount",
          "type": "uint256"
        }
      ],
      "name": "withdraw",
      "outputs": [],
      "stateMutability": "nonpayable",
      "type": "function"
    }
  ],
  "transactionHash": "0x7dfe792c5d4d2b3a3a7489a79f59952960dc90554320b7bc45ff0ae612b3d651",
  "args": [
    "0x0538C8bAc84E95A9dF8aC10Aad17DbE81b9E36ee",
    "0x8f156189A3CD28dFc8FB7BbbAce58F98F09c0bB3",
    "0x3d9819210A31b4961b30EF54bE2aeD79B9c9Cd3B",
    "0xc00e94Cb662C3520282E6f5717214004A7f26888",
    "0xB53C1a33016B2DC2fF3653530bfF1848a515c8c5",
    "0x5d3a536E4D6DbD6114cc1Ead35777bAB948E3643",
    "Compound_Leverage_DAI"
  ],
  "numDeployments": 1,
  "solcInputHash": "68abbcf3bee6889cfcfd9070eda48f2d",
  "bytecode": "0x60e0604052611388600655611770600755600c805462ffffff191690553480156200002957600080fd5b5060405162005505380380620055058339810160408190526200004c9162000519565b828787878786868585836001600160a01b038316620000b25760405162461bcd60e51b815260206004820152601460248201527f706f6f6c2d616464726573732d69732d7a65726f00000000000000000000000060448201526064015b60405180910390fd5b6001600160a01b0382166200010a5760405162461bcd60e51b815260206004820152601760248201527f737761707065722d616464726573732d69732d7a65726f0000000000000000006044820152606401620000a9565b600280546001600160a01b0319166001600160a01b0384811691909117909155831660a081905260408051637e062a3560e11b8152905163fc0c546a91600480820192602092909190829003018186803b1580156200016857600080fd5b505afa1580156200017d573d6000803e3d6000fd5b505050506040513d601f19601f82011682018060405250810190620001a3919062000655565b6001600160a01b03908116608052600080546001600160a01b031916918316919091179055620001ea620001d43390565b60036200039f60201b62001b171790919060201c565b6200022c5760405162461bcd60e51b81526020600482015260116024820152701859190b5ad9595c195c8b59985a5b1959607a1b6044820152606401620000a9565b50508151620002449150600590602084019062000411565b506001600160a01b0384166200029d5760405162461bcd60e51b815260206004820152601b60248201527f636f6d7074726f6c6c65722d616464726573732d69732d7a65726f00000000006044820152606401620000a9565b6001600160a01b0384811660c052600980546001600160a01b03191685831617905582166200030f5760405162461bcd60e51b815260206004820152601660248201527f63546f6b656e2d616464726573732d69732d7a65726f000000000000000000006044820152606401620000a9565b50600880546001600160a01b0319166001600160a01b03928316179055604080518082019091526002815261031360f41b60208201529450851615159250620003709150505760405162461bcd60e51b8152600401620000a991906200067c565b50600a80546001600160a01b0319166001600160a01b039290921691909117905550620006ee95505050505050565b6000620003b6836001600160a01b038416620003bf565b90505b92915050565b60008181526001830160205260408120546200040857508154600181810184556000848152602080822090930184905584548482528286019093526040902091909155620003b9565b506000620003b9565b8280546200041f90620006b1565b90600052602060002090601f0160209004810192826200044357600085556200048e565b82601f106200045e57805160ff19168380011785556200048e565b828001600101855582156200048e579182015b828111156200048e57825182559160200191906001019062000471565b506200049c929150620004a0565b5090565b5b808211156200049c5760008155600101620004a1565b6001600160a01b0381168114620004cd57600080fd5b50565b634e487b7160e01b600052604160045260246000fd5b60005b8381101562000503578181015183820152602001620004e9565b8381111562000513576000848401525b50505050565b600080600080600080600060e0888a0312156200053557600080fd5b87516200054281620004b7565b60208901519097506200055581620004b7565b60408901519096506200056881620004b7565b60608901519095506200057b81620004b7565b60808901519094506200058e81620004b7565b60a0890151909350620005a181620004b7565b60c08901519092506001600160401b0380821115620005bf57600080fd5b818a0191508a601f830112620005d457600080fd5b815181811115620005e957620005e9620004d0565b604051601f8201601f19908116603f01168101908382118183101715620006145762000614620004d0565b816040528281528d60208487010111156200062e57600080fd5b62000641836020830160208801620004e6565b809550505050505092959891949750929550565b6000602082840312156200066857600080fd5b81516200067581620004b7565b9392505050565b60208152600082518060208401526200069d816040850160208701620004e6565b601f01601f19169190910160400192915050565b600181811c90821680620006c657607f821691505b60208210811415620006e857634e487b7160e01b600052602260045260246000fd5b50919050565b60805160a05160c051614cd66200082f600039600081816102bb0152818161211c0152613ba60152600081816101f0015281816104dd015281816105f901528181610715015281816107f30152818161084f015281816109b101528181610f5201528181610fef0152818161121b015281816113e4015281816115a10152818161195101528181611d3901528181612a4b01528181612aec0152613ce20152600081816103870152818161041301528181610658015281816106f301528181610767015281816108260152818161097501528181610a760152818161117f015281816116e8015281816118a101528181611dc401528181611ee90152818161262a015281816126b601528181612b9701528181612cce01528181612df101528181612f12015281816132cd01528181613ab60152613cc00152614cd66000f3fe608060405234801561001057600080fd5b50600436106101d15760003560e01c8063a3f4df7e11610105578063e00af4a71161009d578063e00af4a714610437578063e5328e061461044a578063ec78e83214610452578063f23c472214610465578063f7c618c114610477578063f7c99bea1461048a578063fc0c546a14610493578063fef395d3146104a4578063ffa1ad74146104b757600080fd5b8063a3f4df7e1461036d578063b2016bd414610382578063b9098e3c146103a9578063c415b95c146103b2578063ce5494bb146103c5578063d2c35ce8146103d8578063d3033c39146103eb578063d3332539146103fe578063d8dfeb451461041157600080fd5b80635abda028116101785780635abda028146102ae5780635fe3b567146102b65780637398ab18146102dd5780637d7c2a1c146102fa5780638b4187131461031d578063920f5c8414610330578063951dc22c1461034357806399b71d5c146103585780639b7166a91461036057600080fd5b806314ae9f2e146101d657806316f0115b146101eb5780632a049a21146102285780632b3297f91461023f5780632e1a7d4d146102525780634032b72b14610265578063440d724814610278578063599e892a1461029b575b600080fd5b6101e96101e43660046141e2565b6104db565b005b6102127f000000000000000000000000000000000000000000000000000000000000000081565b60405161021f91906141ff565b60405180910390f35b61023160075481565b60405190815260200161021f565b600254610212906001600160a01b031681565b6101e9610260366004614213565b6105f6565b6101e96102733660046141e2565b61084d565b61028b6102863660046141e2565b610959565b604051901515815260200161021f565b6101e96102a936600461423a565b6109af565b610231610a9a565b6102127f000000000000000000000000000000000000000000000000000000000000000081565b6102e5610ad9565b6040805192835260208301919091520161021f565b610302610b93565b6040805193845260208401929092529082015260600161021f565b6101e961032b3660046142ec565b610bd4565b61028b61033e3660046143ff565b610c8f565b61034b610e74565b60405161021f9190614547565b6101e9610e85565b600c5461028b9060ff1681565b610375610ec1565b60405161021f91906145b2565b6102127f000000000000000000000000000000000000000000000000000000000000000081565b61023160065481565b600154610212906001600160a01b031681565b6101e96103d33660046141e2565b610f4f565b6101e96103e63660046141e2565b611219565b6101e96103f93660046141e2565b6113e2565b6101e961040c36600461423a565b61159f565b7f0000000000000000000000000000000000000000000000000000000000000000610212565b6101e96104453660046141e2565b611671565b61023161188c565b600054610212906001600160a01b031681565b600c5461028b90610100900460ff1681565b600954610212906001600160a01b031681565b610231600b5481565b6000546001600160a01b0316610212565b6101e96104b23660046145c5565b61194f565b610375604051806040016040528060058152602001640352e302e360dc1b81525081565b7f00000000000000000000000000000000000000000000000000000000000000006001600160a01b0316630c340a246040518163ffffffff1660e01b815260040160206040518083038186803b15801561053457600080fd5b505afa158015610548573d6000803e3d6000fd5b505050506040513d601f19601f8201168201806040525081019061056c91906145e7565b6001600160a01b0316336001600160a01b0316146105a55760405162461bcd60e51b815260040161059c90614604565b60405180910390fd5b6105b0600382611b33565b6105f35760405162461bcd60e51b81526020600482015260146024820152731c995b5bdd994b5ad9595c195c8b59985a5b195960621b604482015260640161059c565b50565b337f00000000000000000000000000000000000000000000000000000000000000006001600160a01b03161461063e5760405162461bcd60e51b815260040161059c9061463b565b6040516370a0823160e01b81526000906001600160a01b037f000000000000000000000000000000000000000000000000000000000000000016906370a082319061068d9030906004016141ff565b60206040518083038186803b1580156106a557600080fd5b505afa1580156106b9573d6000803e3d6000fd5b505050506040513d601f19601f820116820180604052508101906106dd919061466e565b905081811061073e5761073a6001600160a01b037f0000000000000000000000000000000000000000000000000000000000000000167f000000000000000000000000000000000000000000000000000000000000000084611b48565b5050565b61075061074b828461469d565b611bb0565b6040516370a0823160e01b81526001600160a01b037f000000000000000000000000000000000000000000000000000000000000000016906370a082319061079c9030906004016141ff565b60206040518083038186803b1580156107b457600080fd5b505afa1580156107c8573d6000803e3d6000fd5b505050506040513d601f19601f820116820180604052508101906107ec919061466e565b905061073a7f000000000000000000000000000000000000000000000000000000000000000061081c8484611c85565b6001600160a01b037f0000000000000000000000000000000000000000000000000000000000000000169190611b48565b7f00000000000000000000000000000000000000000000000000000000000000006001600160a01b0316630c340a246040518163ffffffff1660e01b815260040160206040518083038186803b1580156108a657600080fd5b505afa1580156108ba573d6000803e3d6000fd5b505050506040513d601f19601f820116820180604052508101906108de91906145e7565b6001600160a01b0316336001600160a01b03161461090e5760405162461bcd60e51b815260040161059c90614604565b610919600382611b17565b6105f35760405162461bcd60e51b81526020600482015260116024820152701859190b5ad9595c195c8b59985a5b1959607a1b604482015260640161059c565b6008546000906001600160a01b03838116911614806109a957507f00000000000000000000000000000000000000000000000000000000000000006001600160a01b0316826001600160a01b0316145b92915050565b7f00000000000000000000000000000000000000000000000000000000000000006001600160a01b0316630c340a246040518163ffffffff1660e01b815260040160206040518083038186803b158015610a0857600080fd5b505afa158015610a1c573d6000803e3d6000fd5b505050506040513d601f19601f82011682018060405250810190610a4091906145e7565b6001600160a01b0316336001600160a01b031614610a705760405162461bcd60e51b815260040161059c90614604565b6105f3817f0000000000000000000000000000000000000000000000000000000000000000611c9b565b6000806000610aa7610ad9565b9150915080600014610acf5781610ac0612710836146b4565b610aca91906146d3565b610ad2565b60005b9250505090565b6008546040516361bfb47160e11b815260009182918291829182916001600160a01b03169063c37f68e290610b129030906004016141ff565b60806040518083038186803b158015610b2a57600080fd5b505afa158015610b3e573d6000803e3d6000fd5b505050506040513d601f19601f82011682018060405250810190610b6291906146f5565b93509350935050670de0b6b3a76400008184610b7e91906146b4565b610b8891906146d3565b959194509092505050565b60008080610ba4335b600390611cde565b610bc05760405162461bcd60e51b815260040161059c9061472b565b610bc8611d00565b9250925092505b909192565b60008082806020019051810190610beb919061475b565b909250905033731e0447b19bb6ecfdae1e4ae1694b0c3659614e4e14610c3b5760405162461bcd60e51b815260206004820152600560248201526421736f6c6f60d81b604482015260640161059c565b604080518082019091526002815261064760f31b60208201526001600160a01b0386163014610c7d5760405162461bcd60e51b815260040161059c91906145b2565b50610c888282611da5565b5050505050565b600a5460408051630261bf8b60e01b815290516000926001600160a01b031691630261bf8b916004808301926020929190829003018186803b158015610cd457600080fd5b505afa158015610ce8573d6000803e3d6000fd5b505050506040513d601f19601f82011682018060405250810190610d0c91906145e7565b6001600160a01b0316336001600160a01b031614610d595760405162461bcd60e51b815260206004820152600a6024820152690858585d994b5c1bdbdb60b21b604482015260640161059c565b600c54604080518082019091526002815261323760f01b60208201529062010000900460ff16610d9c5760405162461bcd60e51b815260040161059c91906145b2565b50604080518082019091526002815261064760f31b60208201526001600160a01b0385163014610ddf5760405162461bcd60e51b815260040161059c91906145b2565b50600086866000818110610df557610df56147db565b9050602002013589896000818110610e0f57610e0f6147db565b90506020020135610e2091906147f1565b9050610e6384848080601f016020809104026020016040519081016040528093929190818152602001838380828437600092019190915250859250611da5915050565b5060019a9950505050505050505050565b6060610e806003611ece565b905090565b610e8e33610b9c565b610eaa5760405162461bcd60e51b815260040161059c9061472b565b610eb46000611edb565b610ebf600019611edb565b565b60058054610ece90614809565b80601f0160208091040260200160405190810160405280929190818152602001828054610efa90614809565b8015610f475780601f10610f1c57610100808354040283529160200191610f47565b820191906000526020600020905b815481529060010190602001808311610f2a57829003601f168201915b505050505081565b337f00000000000000000000000000000000000000000000000000000000000000006001600160a01b031614610f975760405162461bcd60e51b815260040161059c9061463b565b6001600160a01b038116610fed5760405162461bcd60e51b815260206004820152601c60248201527f6e65772d73747261746567792d616464726573732d69732d7a65726f00000000604482015260640161059c565b7f00000000000000000000000000000000000000000000000000000000000000006001600160a01b0316816001600160a01b03166316f0115b6040518163ffffffff1660e01b815260040160206040518083038186803b15801561105057600080fd5b505afa158015611064573d6000803e3d6000fd5b505050506040513d601f19601f8201168201806040525081019061108891906145e7565b6001600160a01b0316146110d75760405162461bcd60e51b81526020600482015260166024820152756e6f742d76616c69642d6e65772d737472617465677960501b604482015260640161059c565b6110e081611f0e565b6000546040516370a0823160e01b81526111799183916001600160a01b03909116906370a08231906111169030906004016141ff565b60206040518083038186803b15801561112e57600080fd5b505afa158015611142573d6000803e3d6000fd5b505050506040513d601f19601f82011682018060405250810190611166919061466e565b6000546001600160a01b03169190611b48565b6105f3817f00000000000000000000000000000000000000000000000000000000000000006001600160a01b03166370a08231306040518263ffffffff1660e01b81526004016111c991906141ff565b60206040518083038186803b1580156111e157600080fd5b505afa1580156111f5573d6000803e3d6000fd5b505050506040513d601f19601f8201168201806040525081019061081c919061466e565b7f00000000000000000000000000000000000000000000000000000000000000006001600160a01b0316630c340a246040518163ffffffff1660e01b815260040160206040518083038186803b15801561127257600080fd5b505afa158015611286573d6000803e3d6000fd5b505050506040513d601f19601f820116820180604052508101906112aa91906145e7565b6001600160a01b0316336001600160a01b0316146112da5760405162461bcd60e51b815260040161059c90614604565b6001600160a01b0381166113305760405162461bcd60e51b815260206004820152601d60248201527f6665652d636f6c6c6563746f722d616464726573732d69732d7a65726f000000604482015260640161059c565b6001546001600160a01b03828116911614156113865760405162461bcd60e51b81526020600482015260156024820152746665652d636f6c6c6563746f722d69732d73616d6560581b604482015260640161059c565b6001546040516001600160a01b038084169216907f0f06062680f9bd68e786e9980d9bb03d73d5620fc3b345e417b6eacb310b970690600090a3600180546001600160a01b0319166001600160a01b0392909216919091179055565b7f00000000000000000000000000000000000000000000000000000000000000006001600160a01b0316630c340a246040518163ffffffff1660e01b815260040160206040518083038186803b15801561143b57600080fd5b505afa15801561144f573d6000803e3d6000fd5b505050506040513d601f19601f8201168201806040525081019061147391906145e7565b6001600160a01b0316336001600160a01b0316146114a35760405162461bcd60e51b815260040161059c90614604565b6001600160a01b0381166114f35760405162461bcd60e51b8152602060048201526017602482015276737761707065722d616464726573732d69732d7a65726f60481b604482015260640161059c565b6002546001600160a01b03828116911614156115435760405162461bcd60e51b815260206004820152600f60248201526e737761707065722d69732d73616d6560881b604482015260640161059c565b6002546040516001600160a01b038084169216907f6c953b7ec311055c20b96a42cea31e89528e375b1bf953a503db40854b3188fe90600090a3600280546001600160a01b0319166001600160a01b0392909216919091179055565b7f00000000000000000000000000000000000000000000000000000000000000006001600160a01b0316630c340a246040518163ffffffff1660e01b815260040160206040518083038186803b1580156115f857600080fd5b505afa15801561160c573d6000803e3d6000fd5b505050506040513d601f19601f8201168201806040525081019061163091906145e7565b6001600160a01b0316336001600160a01b0316146116605760405162461bcd60e51b815260040161059c90614604565b600c805460ff191682151517905550565b61167a33610b9c565b6116965760405162461bcd60e51b815260040161059c9061472b565b6001546001600160a01b03166116e65760405162461bcd60e51b81526020600482015260156024820152741999594b58dbdb1b1958dd1bdc8b5b9bdd0b5cd95d605a1b604482015260640161059c565b7f00000000000000000000000000000000000000000000000000000000000000006001600160a01b0316816001600160a01b031614156117685760405162461bcd60e51b815260206004820152601f60248201527f6e6f742d616c6c6f7765642d746f2d73776565702d636f6c6c61746572616c00604482015260640161059c565b61177181610959565b156117b55760405162461bcd60e51b815260206004820152601460248201527306e6f742d616c6c6f7765642d746f2d73776565760641b604482015260640161059c565b6001600160a01b03811673eeeeeeeeeeeeeeeeeeeeeeeeeeeeeeeeeeeeeeee14156117f0576001546105f3906001600160a01b031647611fe6565b6040516370a0823160e01b81526000906001600160a01b038316906370a082319061181f9030906004016141ff565b60206040518083038186803b15801561183757600080fd5b505afa15801561184b573d6000803e3d6000fd5b505050506040513d601f19601f8201168201806040525081019061186f919061466e565b60015490915061073a906001600160a01b03848116911683611b48565b6000806000611899610ad9565b9150915080827f00000000000000000000000000000000000000000000000000000000000000006001600160a01b03166370a08231306040518263ffffffff1660e01b81526004016118eb91906141ff565b60206040518083038186803b15801561190357600080fd5b505afa158015611917573d6000803e3d6000fd5b505050506040513d601f19601f8201168201806040525081019061193b919061466e565b61194591906147f1565b610ad2919061469d565b7f00000000000000000000000000000000000000000000000000000000000000006001600160a01b0316630c340a246040518163ffffffff1660e01b815260040160206040518083038186803b1580156119a857600080fd5b505afa1580156119bc573d6000803e3d6000fd5b505050506040513d601f19601f820116820180604052508101906119e091906145e7565b6001600160a01b0316336001600160a01b031614611a105760405162461bcd60e51b815260040161059c90614604565b655af3107a4000611a1f6120ff565b611a2991906146d3565b8110611a725760405162461bcd60e51b81526020600482015260186024820152771a5b9d985b1a590b5b585e0b589bdc9c9bddcb5b1a5b5a5d60421b604482015260640161059c565b818111611ac15760405162461bcd60e51b815260206004820152601d60248201527f6d61782d73686f756c642d62652d6869676865722d7468616e2d6d696e000000604482015260640161059c565b6006546007546040805192835260208301859052820152606081018290527f0e68fa4c4a80a75427bcce81b711855825bd765ea0e6e15e330653b2437db78e9060800160405180910390a1600691909155600755565b6000611b2c836001600160a01b0384166121c0565b9392505050565b6000611b2c836001600160a01b03841661220f565b6040516001600160a01b038316602482015260448101829052611bab90849063a9059cbb60e01b906064015b60408051601f198184030181529190526020810180516001600160e01b03166001600160e01b031990931692909217909152612302565b505050565b600080611bbe8360006123d4565b915091508015611c7c57611bd282826125d3565b611bdc908361469d565b915060005b600083118015611bf25750600a8111155b15611c0e57611c028360016126ef565b90920391600101611be1565b600080611c19610ad9565b90925090508415611c6c5760075460009015611c4b57600754611c3e612710846146b4565b611c4891906146d3565b90505b6000611c57828561469d565b905080881115611c65578097505b5050611c78565b81861115611c78578195505b5050505b611bab8361275a565b6000818310611c945781611b2c565b5090919050565b8115611cc357611cbf731e0447b19bb6ecfdae1e4ae1694b0c3659614e4e826128da565b600b555b50600c80549115156101000261ff0019909216919091179055565b6001600160a01b03811660009081526001830160205260408120541515611b2c565b6000806000611d0d612a43565b6040516302df682360e11b815260048101849052602481018390526044810182905292955090935091507f00000000000000000000000000000000000000000000000000000000000000006001600160a01b0316906305bed04690606401600060405180830381600087803b158015611d8557600080fd5b505af1158015611d99573d6000803e3d6000fd5b50505050610bcf612ef8565b60008083806020019051810190611dbc9190614844565b9150915060007f00000000000000000000000000000000000000000000000000000000000000006001600160a01b03166370a08231306040518263ffffffff1660e01b8152600401611e0e91906141ff565b60206040518083038186803b158015611e2657600080fd5b505afa158015611e3a573d6000803e3d6000fd5b505050506040513d601f19601f82011682018060405250810190611e5e919061466e565b905082811015611e9f5760405162461bcd60e51b815260206004820152600c60248201526b11931054d217d1905253115160a21b604482015260640161059c565b8115611ebc57611eae83612fff565b611eb78461275a565b610c88565b611ec5816130c5565b610c888461318c565b60606000611b2c83613257565b611ee4816132b3565b6105f37f000000000000000000000000000000000000000000000000000000000000000082613313565b60085460408051637e062a3560e11b815290516001600160a01b039283169284169163fc0c546a916004808301926020929190829003018186803b158015611f5557600080fd5b505afa158015611f69573d6000803e3d6000fd5b505050506040513d601f19601f82011682018060405250810190611f8d91906145e7565b6001600160a01b031614611fd95760405162461bcd60e51b81526020600482015260136024820152723bb937b73396b932b1b2b4b83a16ba37b5b2b760691b604482015260640161059c565b60006006556105f3612ef8565b804710156120365760405162461bcd60e51b815260206004820152601d60248201527f416464726573733a20696e73756666696369656e742062616c616e6365000000604482015260640161059c565b6000826001600160a01b03168260405160006040518083038185875af1925050503d8060008114612083576040519150601f19603f3d011682016040523d82523d6000602084013e612088565b606091505b5050905080611bab5760405162461bcd60e51b815260206004820152603a60248201527f416464726573733a20756e61626c6520746f2073656e642076616c75652c207260448201527f6563697069656e74206d61792068617665207265766572746564000000000000606482015260840161059c565b600854604051638e8f294b60e01b81526000916001600160a01b037f0000000000000000000000000000000000000000000000000000000000000000811692638e8f294b926121529216906004016141ff565b60606040518083038186803b15801561216a57600080fd5b505afa15801561217e573d6000803e3d6000fd5b505050506040513d601f19601f820116820180604052508101906121a29190614874565b50915061271090506121b661251c836146b4565b610e8091906146d3565b6000818152600183016020526040812054612207575081546001818101845560008481526020808220909301849055845484825282860190935260409020919091556109a9565b5060006109a9565b600081815260018301602052604081205480156122f857600061223360018361469d565b85549091506000906122479060019061469d565b90508181146122ac576000866000018281548110612267576122676147db565b906000526020600020015490508087600001848154811061228a5761228a6147db565b6000918252602080832090910192909255918252600188019052604090208390555b85548690806122bd576122bd6148b7565b6001900381819060005260206000200160009055905585600101600086815260200190815260200160002060009055600193505050506109a9565b60009150506109a9565b6000612357826040518060400160405280602081526020017f5361666545524332303a206c6f772d6c6576656c2063616c6c206661696c6564815250856001600160a01b03166133ca9092919063ffffffff16565b805190915015611bab578080602001905181019061237591906148cd565b611bab5760405162461bcd60e51b815260206004820152602a60248201527f5361666545524332303a204552433230206f7065726174696f6e20646964206e6044820152691bdd081cdd58d8d9595960b21b606482015260840161059c565b600854604051633af9e66960e01b8152600091829182916001600160a01b031690633af9e669906124099030906004016141ff565b602060405180830381600087803b15801561242357600080fd5b505af1158015612437573d6000803e3d6000fd5b505050506040513d601f19601f8201168201806040525081019061245b919061466e565b6008546040516395dd919360e01b81529192506000916001600160a01b03909116906395dd9193906124919030906004016141ff565b60206040518083038186803b1580156124a957600080fd5b505afa1580156124bd573d6000803e3d6000fd5b505050506040513d601f19601f820116820180604052508101906124e1919061466e565b9050600654600014156124fb579250600191506125cc9050565b6000612507828461469d565b905060008661252d5787821161251e576000612537565b612528888361469d565b612537565b61253788836147f1565b9050600060075461271061254b919061469d565b60075461255890846146b4565b61256291906146d3565b90506000600654612710612576919061469d565b60065461258390856146b4565b61258d91906146d3565b9050818511156125ac57600196506125a5818661469d565b97506125c5565b808510156125c557600096506125c2858261469d565b97505b5050505050505b9250929050565b600c546000908190610100900460ff1680156125ef5750600084115b1561266057600084846040516020016126149291909182521515602082015260400190565b60405160208183030381529060405290506126507f000000000000000000000000000000000000000000000000000000000000000086836133e1565b915061265c828661469d565b9450505b600c5460ff16801561266f5750825b801561267b5750600084115b15611b2c57600084846040516020016126a09291909182521515602082015260400190565b60405160208183030381529060405290506126dc7f000000000000000000000000000000000000000000000000000000000000000086836136a2565b6126e690836147f1565b95945050505050565b60008060006126fc610ad9565b9150915080600014801561270d5750835b1561271d576000925050506109a9565b60006127276120ff565b905084156127425761273b868484846139f3565b9350612751565b61274e86848484613a59565b93505b50505092915050565b6000198114156128a9576008546040516370a0823160e01b81526001600160a01b039091169063db006a759082906370a082319061279c9030906004016141ff565b60206040518083038186803b1580156127b457600080fd5b505afa1580156127c8573d6000803e3d6000fd5b505050506040513d601f19601f820116820180604052508101906127ec919061466e565b6040518263ffffffff1660e01b815260040161280a91815260200190565b602060405180830381600087803b15801561282457600080fd5b505af1158015612838573d6000803e3d6000fd5b505050506040513d601f19601f8201168201806040525081019061285c919061466e565b156105f35760405162461bcd60e51b815260206004820152601d60248201527f77697468647261772d66726f6d2d636f6d706f756e642d6661696c6564000000604482015260640161059c565b60085460405163852a12e360e01b8152600481018390526001600160a01b039091169063852a12e39060240161280a565b6000808390506000816001600160a01b031663295c39a56040518163ffffffff1660e01b815260040160206040518083038186803b15801561291b57600080fd5b505afa15801561292f573d6000803e3d6000fd5b505050506040513d601f19601f82011682018060405250810190612953919061466e565b90506000805b82811015612a125760405163062bd3e960e01b8152600481018290526001600160a01b0385169063062bd3e99060240160206040518083038186803b1580156129a157600080fd5b505afa1580156129b5573d6000803e3d6000fd5b505050506040513d601f19601f820116820180604052508101906129d991906145e7565b9150856001600160a01b0316826001600160a01b03161415612a005793506109a992505050565b80612a0a816148ea565b915050612959565b506040805180820182526002815261033360f41b6020820152905162461bcd60e51b815261059c91906004016145b2565b6000806000807f00000000000000000000000000000000000000000000000000000000000000006001600160a01b031663d53ddc26306040518263ffffffff1660e01b8152600401612a9591906141ff565b60206040518083038186803b158015612aad57600080fd5b505afa158015612ac1573d6000803e3d6000fd5b505050506040513d601f19601f82011682018060405250810190612ae5919061466e565b90506000807f00000000000000000000000000000000000000000000000000000000000000006001600160a01b031663228bfd9f306040518263ffffffff1660e01b8152600401612b3691906141ff565b6101206040518083038186803b158015612b4f57600080fd5b505afa158015612b63573d6000803e3d6000fd5b505050506040513d601f19601f82011682018060405250810190612b879190614905565b5097505050955050505050612bbb7f0000000000000000000000000000000000000000000000000000000000000000613b40565b6008546040516395dd919360e01b81526000916001600160a01b0316906395dd919390612bec9030906004016141ff565b60206040518083038186803b158015612c0457600080fd5b505afa158015612c18573d6000803e3d6000fd5b505050506040513d601f19601f82011682018060405250810190612c3c919061466e565b600854604051633af9e66960e01b81526001600160a01b0390911690633af9e66990612c6c9030906004016141ff565b602060405180830381600087803b158015612c8657600080fd5b505af1158015612c9a573d6000803e3d6000fd5b505050506040513d601f19601f82011682018060405250810190612cbe919061466e565b612cc8919061469d565b905060007f00000000000000000000000000000000000000000000000000000000000000006001600160a01b03166370a08231306040518263ffffffff1660e01b8152600401612d1891906141ff565b60206040518083038186803b158015612d3057600080fd5b505afa158015612d44573d6000803e3d6000fd5b505050506040513d601f19601f82011682018060405250810190612d68919061466e565b90506000612d7682846147f1565b905084811115612d9157612d8a858261469d565b9850612d9e565b612d9b818661469d565b97505b6000612daa878b6147f1565b905080831015612e7b576000612dc9612dc3858461469d565b86611c85565b90508015612e7957612dda81611bb0565b6040516370a0823160e01b81526001600160a01b037f000000000000000000000000000000000000000000000000000000000000000016906370a0823190612e269030906004016141ff565b60206040518083038186803b158015612e3e57600080fd5b505afa158015612e52573d6000803e3d6000fd5b505050506040513d601f19601f82011682018060405250810190612e76919061466e565b93505b505b612e858388611c85565b9750878311612e95576000612ea8565b612ea8612ea2898561469d565b8b611c85565b995084612eec57600080612eba610ad9565b91509150600082118015612ecc575080155b15612ee957612edc60001961275a565b612ee6828d6147f1565b9b505b50505b50505050505050909192565b6040516370a0823160e01b81526000906001600160a01b037f000000000000000000000000000000000000000000000000000000000000000016906370a0823190612f479030906004016141ff565b60206040518083038186803b158015612f5f57600080fd5b505afa158015612f73573d6000803e3d6000fd5b505050506040513d601f19601f82011682018060405250810190612f97919061466e565b9050600080612fa78360016123d4565b91509150612fb4836130c5565b612fbe82826125d3565b612fc8908361469d565b915060005b600083118015612fde575060068111155b15612ff957612fed83836126ef565b90920391600101612fcd565b50505050565b60085460405163073a938160e11b8152600481018390526001600160a01b0390911690630e75270290602401602060405180830381600087803b15801561304557600080fd5b505af1158015613059573d6000803e3d6000fd5b505050506040513d601f19601f8201168201806040525081019061307d919061466e565b156105f35760405162461bcd60e51b81526020600482015260186024820152771c995c185e4b5d1bcb58dbdb5c1bdd5b990b59985a5b195960421b604482015260640161059c565b60085460405163140e25ad60e31b8152600481018390526001600160a01b039091169063a0712d6890602401602060405180830381600087803b15801561310b57600080fd5b505af115801561311f573d6000803e3d6000fd5b505050506040513d601f19601f82011682018060405250810190613143919061466e565b156105f35760405162461bcd60e51b81526020600482015260196024820152781cdd5c1c1b1e4b5d1bcb58dbdb5c1bdd5b990b59985a5b1959603a1b604482015260640161059c565b60085460405163317afabb60e21b8152600481018390526001600160a01b039091169063c5ebeaec90602401602060405180830381600087803b1580156131d257600080fd5b505af11580156131e6573d6000803e3d6000fd5b505050506040513d601f19601f8201168201806040525081019061320a919061466e565b156105f35760405162461bcd60e51b815260206004820152601b60248201527f626f72726f772d66726f6d2d636f6d706f756e642d6661696c65640000000000604482015260640161059c565b6060816000018054806020026020016040519081016040528092919081815260200182805480156132a757602002820191906000526020600020905b815481526020019060010190808311613293575b50505050509050919050565b6132bc81613cb3565b6008546132f6906001600160a01b037f00000000000000000000000000000000000000000000000000000000000000008116911683613d03565b6002546009546105f3916001600160a01b03918216911683613d03565b61333b6001600160a01b038316731e0447b19bb6ecfdae1e4ae1694b0c3659614e4e83613d03565b600a5460408051630261bf8b60e01b8152905161073a926001600160a01b031691630261bf8b916004808301926020929190829003018186803b15801561338157600080fd5b505afa158015613395573d6000803e3d6000fd5b505050506040513d601f19601f820116820180604052508101906133b991906145e7565b6001600160a01b0384169083613d03565b60606133d98484600085613e27565b949350505050565b600c54604080518082019091526002815261191b60f11b6020820152600091610100900460ff166134255760405162461bcd60e51b815260040161059c91906145b2565b506040516370a0823160e01b81526000906001600160a01b038616906370a082319061346990731e0447b19bb6ecfdae1e4ae1694b0c3659614e4e906004016141ff565b60206040518083038186803b15801561348157600080fd5b505afa158015613495573d6000803e3d6000fd5b505050506040513d601f19601f820116820180604052508101906134b9919061466e565b9050808411156134c7578093505b60006134d48560026147f1565b9050600084826040516020016134eb929190614979565b60408051808303601f19018152600380845260808401909252925060009190816020015b613517614157565b81526020019060019003908161350f579050509050613538600b5488613f4f565b8160008151811061354b5761354b6147db565b602002602001018190525061355f82613fd9565b81600181518110613572576135726147db565b6020026020010181905250613589600b5484614047565b8160028151811061359c5761359c6147db565b6020908102919091010152604080516001808252818301909252600091816020015b60408051808201909152600080825260208201528152602001906001900390816135be575050604080518082018252600080825260209182015281518083019092523082526001908201529091508160008151811061361f5761361f6147db565b602090810291909101015260405163a67a6a4560e01b8152731e0447b19bb6ecfdae1e4ae1694b0c3659614e4e9063a67a6a459061366390849086906004016149f8565b600060405180830381600087803b15801561367d57600080fd5b505af1158015613691573d6000803e3d6000fd5b50999b9a5050505050505050505050565b600c54604080518082019091526002815261323560f01b602082015260009160ff166136e15760405162461bcd60e51b815260040161059c91906145b2565b50600a5460408051630261bf8b60e01b815290516000926001600160a01b031691630261bf8b916004808301926020929190829003018186803b15801561372757600080fd5b505afa15801561373b573d6000803e3d6000fd5b505050506040513d601f19601f8201168201806040525081019061375f91906145e7565b600a546040516321f8a72160e01b8152600160f81b60048201529192506000916001600160a01b03909116906321f8a7219060240160206040518083038186803b1580156137ac57600080fd5b505afa1580156137c0573d6000803e3d6000fd5b505050506040513d601f19601f820116820180604052508101906137e491906145e7565b90506000816001600160a01b03166335ea6a75886040518263ffffffff1660e01b815260040161381491906141ff565b6101406040518083038186803b15801561382d57600080fd5b505afa158015613841573d6000803e3d6000fd5b505050506040513d601f19601f820116820180604052508101906138659190614b29565b50505050505050505090508086111561387c578095505b6040805160018082528183019092526000916020808301908036833701905050905087816000815181106138b2576138b26147db565b6001600160a01b0392909216602092830291909101909101526040805160018082528183019092526000918160200160208202803683370190505090508781600081518110613903576139036147db565b6020908102919091010152604080516001808252818301909252600091816020016020820280368337019050509050600081600081518110613947576139476147db565b6020026020010181815250506001600c60026101000a81548160ff021916908315150217905550856001600160a01b031663ab9c4b5d30858585308e60006040518863ffffffff1660e01b81526004016139a79796959493929190614be2565b600060405180830381600087803b1580156139c157600080fd5b505af11580156139d5573d6000803e3d6000fd5b5050600c805462ff00001916905550989a9950505050505050505050565b6000808215613a1c5782613a0f85670de0b6b3a76400006146b4565b613a1991906146d3565b90505b613a26818661469d565b9150838210613a33578391505b858210613a3e578591505b613a478261275a565b613a5082612fff565b50949350505050565b600080670de0b6b3a7640000613a6f84876146b4565b613a7991906146d3565b9050613a85848261469d565b9150858210613a92578591505b613a9b8261318c565b6040516370a0823160e01b8152613a50906001600160a01b037f000000000000000000000000000000000000000000000000000000000000000016906370a0823190613aeb9030906004016141ff565b60206040518083038186803b158015613b0357600080fd5b505afa158015613b17573d6000803e3d6000fd5b505050506040513d601f19601f82011682018060405250810190613b3b919061466e565b6130c5565b60408051600180825281830190925260009160208083019080368337505060085482519293506001600160a01b031691839150600090613b8257613b826147db565b6001600160a01b03928316602091820292909201015260405162e1ed9760e51b81527f000000000000000000000000000000000000000000000000000000000000000090911690631c3db2e090613bdf9030908590600401614c60565b600060405180830381600087803b158015613bf957600080fd5b505af1158015613c0d573d6000803e3d6000fd5b50506009546040516370a0823160e01b8152600093506001600160a01b0390911691506370a0823190613c449030906004016141ff565b60206040518083038186803b158015613c5c57600080fd5b505afa158015613c70573d6000803e3d6000fd5b505050506040513d601f19601f82011682018060405250810190613c94919061466e565b90508015611bab57600954611bab906001600160a01b03168483614082565b6105f36001600160a01b037f0000000000000000000000000000000000000000000000000000000000000000167f0000000000000000000000000000000000000000000000000000000000000000835b801580613d8c5750604051636eb1769f60e11b81523060048201526001600160a01b03838116602483015284169063dd62ed3e9060440160206040518083038186803b158015613d5257600080fd5b505afa158015613d66573d6000803e3d6000fd5b505050506040513d601f19601f82011682018060405250810190613d8a919061466e565b155b613df75760405162461bcd60e51b815260206004820152603660248201527f5361666545524332303a20617070726f76652066726f6d206e6f6e2d7a65726f60448201527520746f206e6f6e2d7a65726f20616c6c6f77616e636560501b606482015260840161059c565b6040516001600160a01b038316602482015260448101829052611bab90849063095ea7b360e01b90606401611b74565b606082471015613e885760405162461bcd60e51b815260206004820152602660248201527f416464726573733a20696e73756666696369656e742062616c616e636520666f6044820152651c8818d85b1b60d21b606482015260840161059c565b843b613ed65760405162461bcd60e51b815260206004820152601d60248201527f416464726573733a2063616c6c20746f206e6f6e2d636f6e7472616374000000604482015260640161059c565b600080866001600160a01b03168587604051613ef29190614c84565b60006040518083038185875af1925050503d8060008114613f2f576040519150601f19603f3d011682016040523d82523d6000602084013e613f34565b606091505b5091509150613f4482828661411e565b979650505050505050565b613f57614157565b604080516101008101825260018152600060208083018290528351608081018552828152929384019291908201905b81526020016000815260200185815250815260200184815260200160008152602001306001600160a01b031681526020016000815260200160405180602001604052806000815250815250905092915050565b613fe1614157565b6040805161010081018252600881526000602080830182905283516080810185528281529293840192919082019081526020016000815260006020918201819052918352820181905260408201819052306060830152608082015260a001929092525090565b61404f614157565b60408051610100810182526000808252602080830182905283516080810185526001815292938401929190820190613f86565b600254604051636ccb2b0160e01b81526001600160a01b0385811660048301528481166024830152604482018490526001606483015230608483015290911690636ccb2b019060a401602060405180830381600087803b1580156140e557600080fd5b505af1925050508015614115575060408051601f3d908101601f191682019092526141129181019061466e565b60015b612ff957505050565b6060831561412d575081611b2c565b82511561413d5782518084602001fd5b8160405162461bcd60e51b815260040161059c91906145b2565b60408051610100810182526000808252602082015290810161419b604080516080810190915260008082526020820190815260200160008152602001600081525090565b8152602001600081526020016000815260200160006001600160a01b0316815260200160008152602001606081525090565b6001600160a01b03811681146105f357600080fd5b6000602082840312156141f457600080fd5b8135611b2c816141cd565b6001600160a01b0391909116815260200190565b60006020828403121561422557600080fd5b5035919050565b80151581146105f357600080fd5b60006020828403121561424c57600080fd5b8135611b2c8161422c565b634e487b7160e01b600052604160045260246000fd5b604080519081016001600160401b038111828210171561428f5761428f614257565b60405290565b604051601f8201601f191681016001600160401b03811182821017156142bd576142bd614257565b604052919050565b60006001600160401b038211156142de576142de614257565b50601f01601f191660200190565b6000806000838503608081121561430257600080fd5b843561430d816141cd565b935060206040601f198301121561432357600080fd5b61432b61426d565b91508086013561433a816141cd565b82526040860135818301529092506060850135906001600160401b0382111561436257600080fd5b818601915086601f83011261437657600080fd5b8135614389614384826142c5565b614295565b818152888383860101111561439d57600080fd5b81838501848301376000838383010152809450505050509250925092565b60008083601f8401126143cd57600080fd5b5081356001600160401b038111156143e457600080fd5b6020830191508360208260051b85010111156125cc57600080fd5b600080600080600080600080600060a08a8c03121561441d57600080fd5b89356001600160401b038082111561443457600080fd5b6144408d838e016143bb565b909b50995060208c013591508082111561445957600080fd5b6144658d838e016143bb565b909950975060408c013591508082111561447e57600080fd5b61448a8d838e016143bb565b909750955060608c0135915061449f826141cd565b90935060808b013590808211156144b557600080fd5b818c0191508c601f8301126144c957600080fd5b8135818111156144d857600080fd5b8d60208285010111156144ea57600080fd5b6020830194508093505050509295985092959850929598565b600081518084526020808501945080840160005b8381101561453c5781516001600160a01b031687529582019590820190600101614517565b509495945050505050565b602081526000611b2c6020830184614503565b60005b8381101561457557818101518382015260200161455d565b83811115612ff95750506000910152565b6000815180845261459e81602086016020860161455a565b601f01601f19169290920160200192915050565b602081526000611b2c6020830184614586565b600080604083850312156145d857600080fd5b50508035926020909101359150565b6000602082840312156145f957600080fd5b8151611b2c816141cd565b6020808252601a908201527f63616c6c65722d69732d6e6f742d7468652d676f7665726e6f72000000000000604082015260600190565b60208082526019908201527818d85b1b195c8b5a5ccb5b9bdd0b5d995cdc195c8b5c1bdbdb603a1b604082015260600190565b60006020828403121561468057600080fd5b5051919050565b634e487b7160e01b600052601160045260246000fd5b6000828210156146af576146af614687565b500390565b60008160001904831182151516156146ce576146ce614687565b500290565b6000826146f057634e487b7160e01b600052601260045260246000fd5b500490565b6000806000806080858703121561470b57600080fd5b505082516020840151604085015160609095015191969095509092509050565b60208082526016908201527531b0b63632b916b4b996b737ba16b096b5b2b2b832b960511b604082015260600190565b6000806040838503121561476e57600080fd5b82516001600160401b0381111561478457600080fd5b8301601f8101851361479557600080fd5b80516147a3614384826142c5565b8181528660208385010111156147b857600080fd5b6147c982602083016020860161455a565b60209590950151949694955050505050565b634e487b7160e01b600052603260045260246000fd5b6000821982111561480457614804614687565b500190565b600181811c9082168061481d57607f821691505b6020821081141561483e57634e487b7160e01b600052602260045260246000fd5b50919050565b6000806040838503121561485757600080fd5b8251915060208301516148698161422c565b809150509250929050565b60008060006060848603121561488957600080fd5b83516148948161422c565b6020850151604086015191945092506148ac8161422c565b809150509250925092565b634e487b7160e01b600052603160045260246000fd5b6000602082840312156148df57600080fd5b8151611b2c8161422c565b60006000198214156148fe576148fe614687565b5060010190565b60008060008060008060008060006101208a8c03121561492457600080fd5b895161492f8161422c565b8099505060208a0151975060408a0151965060608a0151955060808a0151945060a08a0151935060c08a0151925060e08a015191506101008a015190509295985092959850929598565b60408152600061498c6040830185614586565b90508260208301529392505050565b634e487b7160e01b600052602160045260246000fd5b600281106105f3576105f361499b565b80511515825260208101516149d5816149b1565b602083015260408101516149e8816149b1565b6040830152606090810151910152565b6040808252835182820181905260009190606090818501906020808901865b83811015614a4557815180516001600160a01b03168652830151838601529386019390820190600101614a17565b50508683038188015287518084528184019250600581901b8401820189830160005b83811015614b1857601f198784030186528151610160815160098110614a8f57614a8f61499b565b855281870151878601528a820151614aa98c8701826149c1565b508982015160c081818801526080840151915060e0828189015260a08501519250614ae06101008901846001600160a01b03169052565b908401516101208801529092015161014086018290529150614b0481860183614586565b978701979450505090840190600101614a67565b50909b9a5050505050505050505050565b6000806000806000806000806000806101408b8d031215614b4957600080fd5b8a51995060208b0151985060408b0151975060608b0151965060808b0151955060a08b0151945060c08b0151935060e08b015192506101008b015191506101208b015164ffffffffff81168114614b9f57600080fd5b809150509295989b9194979a5092959850565b600081518084526020808501945080840160005b8381101561453c57815187529582019590820190600101614bc6565b600060018060a01b03808a16835260e06020840152614c0460e084018a614503565b8381036040850152614c16818a614bb2565b90508381036060850152614c2a8189614bb2565b9050818716608085015283810360a0850152614c468187614586565b9250505061ffff831660c083015298975050505050505050565b6001600160a01b03831681526040602082018190526000906133d990830184614503565b60008251614c9681846020870161455a565b919091019291505056fea2646970667358221220b35998860eda4b7e412b761f4e9993772d93988be237c4c0ea56b196669fce8c64736f6c63430008090033",
  "devdoc": {
    "kind": "dev",
    "methods": {
      "addKeeper(address)": {
        "params": {
          "_keeperAddress": "keeper address to add."
        }
      },
      "approveToken()": {
        "details": "Approve all required tokens"
      },
      "callFunction(address,(address,uint256),bytes)": {
        "details": "DyDx calls this function after doing flash loan"
      },
      "executeOperation(address[],uint256[],uint256[],address,bytes)": {
        "details": "Aave will call this function after doing flash loan"
      },
      "migrate(address)": {
        "details": "_beforeMigration hook can be implemented in child strategy to do extra steps.",
        "params": {
          "_newStrategy": "Address of new strategy"
        }
      },
      "rebalance()": {
        "returns": {
          "_loss": "Realized loss, if any, in collateral.",
          "_payback": "If strategy has any excess debt, we have to liquidate asset to payback excess debt.",
          "_profit": "Realized profit in collateral."
        }
      },
      "removeKeeper(address)": {
        "params": {
          "_keeperAddress": "keeper address to remove."
        }
      },
      "sweepERC20(address)": {
        "params": {
          "_fromToken": "token address to sweep"
        }
      },
      "updateBorrowRatio(uint256,uint256)": {
        "details": "It is possible to set 0 as _minBorrowRatio to not borrow anything",
        "params": {
          "_maxBorrowRatio": "Maximum % we want to borrow",
          "_minBorrowRatio": "Minimum % we want to borrow"
        }
      },
      "updateFeeCollector(address)": {
        "params": {
          "_feeCollector": "fee collector address"
        }
      },
      "updateSwapper(address)": {
        "params": {
          "_swapper": "swapper address"
        }
      },
      "withdraw(uint256)": {
        "params": {
          "_amount": "Amount of collateral token"
        }
      }
    },
    "title": "This strategy will deposit collateral token in Compound and based on position it will borrow same collateral token. It will use borrowed asset as supply and borrow again.",
    "version": 1
  },
  "userdoc": {
    "kind": "user",
    "methods": {
      "addKeeper(address)": {
        "notice": "Add given address in keepers list."
      },
      "collateral()": {
        "notice": "Returns address of token correspond to collateral token"
      },
      "currentBorrowRatio()": {
        "notice": "Current borrow ratio, calculated as current borrow divide by max allowed borrow Return value is based on basis points, i.e. 7500 = 75% ratio"
      },
      "getPosition()": {
        "notice": "Return supply and borrow position. Position may return few block old value"
      },
      "isReservedToken(address)": {
        "notice": "Check whether given token is reserved or not. Reserved tokens are not allowed to sweep."
      },
      "keepers()": {
        "notice": "Return list of keepers"
      },
      "migrate(address)": {
        "notice": "Migrate all asset and vault ownership,if any, to new strategy"
      },
      "rebalance()": {
        "notice": "OnlyKeeper: Rebalance profit, loss and investment of this strategy.  Calculate profit, loss and payback of this strategy and realize profit/loss and  withdraw fund for payback, if any, and submit this report to pool."
      },
      "removeKeeper(address)": {
        "notice": "Remove given address from keepers list."
      },
      "sweepERC20(address)": {
        "notice": "sweep given token to feeCollector of strategy"
      },
      "token()": {
        "notice": "Returns address of token correspond to receipt token"
      },
      "tvl()": {
        "notice": "Returns total collateral locked in the strategy"
      },
      "updateBorrowRatio(uint256,uint256)": {
        "notice": "Update upper and lower borrow ratio"
      },
      "updateFeeCollector(address)": {
        "notice": "Update fee collector"
      },
      "updateSwapper(address)": {
        "notice": "Update swapper"
      },
      "withdraw(uint256)": {
        "notice": "Withdraw collateral token from end protocol."
      }
    },
    "version": 1
  },
  "storageLayout": {
    "storage": [
      {
        "astId": 12743,
        "contract": "vesper-strategies/contracts/strategies/compound/CompoundLeverage.sol:CompoundLeverage",
        "label": "receiptToken",
        "offset": 0,
        "slot": "0",
        "type": "t_address"
      },
      {
        "astId": 12749,
        "contract": "vesper-strategies/contracts/strategies/compound/CompoundLeverage.sol:CompoundLeverage",
        "label": "feeCollector",
        "offset": 0,
        "slot": "1",
        "type": "t_address"
      },
      {
        "astId": 12752,
        "contract": "vesper-strategies/contracts/strategies/compound/CompoundLeverage.sol:CompoundLeverage",
        "label": "swapper",
        "offset": 0,
        "slot": "2",
        "type": "t_contract(IRoutedSwapper)11715"
      },
      {
        "astId": 12765,
        "contract": "vesper-strategies/contracts/strategies/compound/CompoundLeverage.sol:CompoundLeverage",
        "label": "_keepers",
        "offset": 0,
        "slot": "3",
        "type": "t_struct(AddressSet)3008_storage"
      },
      {
        "astId": 15940,
        "contract": "vesper-strategies/contracts/strategies/compound/CompoundLeverage.sol:CompoundLeverage",
        "label": "NAME",
        "offset": 0,
        "slot": "5",
        "type": "t_string_storage"
      },
      {
        "astId": 15949,
        "contract": "vesper-strategies/contracts/strategies/compound/CompoundLeverage.sol:CompoundLeverage",
        "label": "minBorrowRatio",
        "offset": 0,
        "slot": "6",
        "type": "t_uint256"
      },
      {
        "astId": 15952,
        "contract": "vesper-strategies/contracts/strategies/compound/CompoundLeverage.sol:CompoundLeverage",
        "label": "maxBorrowRatio",
        "offset": 0,
        "slot": "7",
        "type": "t_uint256"
      },
      {
        "astId": 15958,
        "contract": "vesper-strategies/contracts/strategies/compound/CompoundLeverage.sol:CompoundLeverage",
        "label": "cToken",
        "offset": 0,
        "slot": "8",
        "type": "t_contract(CToken)10508"
      },
      {
        "astId": 15963,
        "contract": "vesper-strategies/contracts/strategies/compound/CompoundLeverage.sol:CompoundLeverage",
        "label": "rewardToken",
        "offset": 0,
        "slot": "9",
        "type": "t_address"
      },
      {
        "astId": 12052,
        "contract": "vesper-strategies/contracts/strategies/compound/CompoundLeverage.sol:CompoundLeverage",
        "label": "poolAddressesProvider",
        "offset": 0,
        "slot": "10",
        "type": "t_contract(PoolAddressesProvider)10078"
      },
      {
        "astId": 12057,
        "contract": "vesper-strategies/contracts/strategies/compound/CompoundLeverage.sol:CompoundLeverage",
        "label": "dyDxMarketId",
        "offset": 0,
        "slot": "11",
        "type": "t_uint256"
      },
      {
        "astId": 12063,
        "contract": "vesper-strategies/contracts/strategies/compound/CompoundLeverage.sol:CompoundLeverage",
        "label": "isAaveActive",
        "offset": 0,
        "slot": "12",
        "type": "t_bool"
      },
      {
        "astId": 12066,
        "contract": "vesper-strategies/contracts/strategies/compound/CompoundLeverage.sol:CompoundLeverage",
        "label": "isDyDxActive",
        "offset": 1,
        "slot": "12",
        "type": "t_bool"
      },
      {
        "astId": 12159,
        "contract": "vesper-strategies/contracts/strategies/compound/CompoundLeverage.sol:CompoundLeverage",
        "label": "awaitingFlash",
        "offset": 2,
        "slot": "12",
        "type": "t_bool"
      }
    ],
    "types": {
      "t_address": {
        "encoding": "inplace",
        "label": "address",
        "numberOfBytes": "20"
      },
      "t_array(t_bytes32)dyn_storage": {
        "base": "t_bytes32",
        "encoding": "dynamic_array",
        "label": "bytes32[]",
        "numberOfBytes": "32"
      },
      "t_bool": {
        "encoding": "inplace",
        "label": "bool",
        "numberOfBytes": "1"
      },
      "t_bytes32": {
        "encoding": "inplace",
        "label": "bytes32",
        "numberOfBytes": "32"
      },
      "t_contract(CToken)10508": {
        "encoding": "inplace",
        "label": "contract CToken",
        "numberOfBytes": "20"
      },
      "t_contract(IRoutedSwapper)11715": {
        "encoding": "inplace",
        "label": "contract IRoutedSwapper",
        "numberOfBytes": "20"
      },
      "t_contract(PoolAddressesProvider)10078": {
        "encoding": "inplace",
        "label": "contract PoolAddressesProvider",
        "numberOfBytes": "20"
      },
      "t_mapping(t_bytes32,t_uint256)": {
        "encoding": "mapping",
        "key": "t_bytes32",
        "label": "mapping(bytes32 => uint256)",
        "numberOfBytes": "32",
        "value": "t_uint256"
      },
      "t_string_storage": {
        "encoding": "bytes",
        "label": "string",
        "numberOfBytes": "32"
      },
      "t_struct(AddressSet)3008_storage": {
        "encoding": "inplace",
        "label": "struct EnumerableSet.AddressSet",
        "members": [
          {
            "astId": 3007,
            "contract": "vesper-strategies/contracts/strategies/compound/CompoundLeverage.sol:CompoundLeverage",
            "label": "_inner",
            "offset": 0,
            "slot": "0",
            "type": "t_struct(Set)2707_storage"
          }
        ],
        "numberOfBytes": "64"
      },
      "t_struct(Set)2707_storage": {
        "encoding": "inplace",
        "label": "struct EnumerableSet.Set",
        "members": [
          {
            "astId": 2702,
            "contract": "vesper-strategies/contracts/strategies/compound/CompoundLeverage.sol:CompoundLeverage",
            "label": "_values",
            "offset": 0,
            "slot": "0",
            "type": "t_array(t_bytes32)dyn_storage"
          },
          {
            "astId": 2706,
            "contract": "vesper-strategies/contracts/strategies/compound/CompoundLeverage.sol:CompoundLeverage",
            "label": "_indexes",
            "offset": 0,
            "slot": "1",
            "type": "t_mapping(t_bytes32,t_uint256)"
          }
        ],
        "numberOfBytes": "64"
      },
      "t_uint256": {
        "encoding": "inplace",
        "label": "uint256",
        "numberOfBytes": "32"
      }
    }
  }
}