{
  "address": "0x5D69a654F6eB9aaf5738A05fd17bb1ad707AeA03",
  "abi": [
    {
      "inputs": [
        {
          "internalType": "address",
          "name": "_pool",
          "type": "address"
        },
        {
          "internalType": "address",
          "name": "_swapper",
          "type": "address"
        },
        {
          "internalType": "address",
          "name": "_comptroller",
          "type": "address"
        },
        {
          "internalType": "address",
          "name": "_rewardToken",
          "type": "address"
        },
        {
          "internalType": "address",
          "name": "_receiptToken",
          "type": "address"
        },
        {
          "internalType": "address",
          "name": "_borrowCToken",
          "type": "address"
        },
        {
          "internalType": "address",
          "name": "_vPool",
          "type": "address"
        },
        {
          "internalType": "address",
          "name": "_vsp",
          "type": "address"
        },
        {
          "internalType": "string",
          "name": "_name",
          "type": "string"
        }
      ],
      "stateMutability": "nonpayable",
      "type": "constructor"
    },
    {
      "anonymous": false,
      "inputs": [
        {
          "indexed": false,
          "internalType": "uint256",
          "name": "previousMinBorrowLimit",
          "type": "uint256"
        },
        {
          "indexed": false,
          "internalType": "uint256",
          "name": "newMinBorrowLimit",
          "type": "uint256"
        },
        {
          "indexed": false,
          "internalType": "uint256",
          "name": "previousMaxBorrowLimit",
          "type": "uint256"
        },
        {
          "indexed": false,
          "internalType": "uint256",
          "name": "newMaxBorrowLimit",
          "type": "uint256"
        }
      ],
      "name": "UpdatedBorrowLimit",
      "type": "event"
    },
    {
      "anonymous": false,
      "inputs": [
        {
          "indexed": true,
          "internalType": "address",
          "name": "previousFeeCollector",
          "type": "address"
        },
        {
          "indexed": true,
          "internalType": "address",
          "name": "newFeeCollector",
          "type": "address"
        }
      ],
      "name": "UpdatedFeeCollector",
      "type": "event"
    },
    {
      "anonymous": false,
      "inputs": [
        {
          "indexed": true,
          "internalType": "contract IRoutedSwapper",
          "name": "oldSwapper",
          "type": "address"
        },
        {
          "indexed": true,
          "internalType": "contract IRoutedSwapper",
          "name": "newSwapper",
          "type": "address"
        }
      ],
      "name": "UpdatedSwapper",
      "type": "event"
    },
    {
      "inputs": [],
      "name": "NAME",
      "outputs": [
        {
          "internalType": "string",
          "name": "",
          "type": "string"
        }
      ],
      "stateMutability": "view",
      "type": "function"
    },
    {
      "inputs": [],
      "name": "VERSION",
      "outputs": [
        {
          "internalType": "string",
          "name": "",
          "type": "string"
        }
      ],
      "stateMutability": "view",
      "type": "function"
    },
    {
      "inputs": [
        {
          "internalType": "address",
          "name": "_keeperAddress",
          "type": "address"
        }
      ],
      "name": "addKeeper",
      "outputs": [],
      "stateMutability": "nonpayable",
      "type": "function"
    },
    {
      "inputs": [],
      "name": "approveToken",
      "outputs": [],
      "stateMutability": "nonpayable",
      "type": "function"
    },
    {
      "inputs": [],
      "name": "borrowBalance",
      "outputs": [
        {
          "internalType": "uint256",
          "name": "",
          "type": "uint256"
        }
      ],
      "stateMutability": "view",
      "type": "function"
    },
    {
      "inputs": [],
      "name": "borrowCToken",
      "outputs": [
        {
          "internalType": "contract CToken",
          "name": "",
          "type": "address"
        }
      ],
      "stateMutability": "view",
      "type": "function"
    },
    {
      "inputs": [],
      "name": "borrowToken",
      "outputs": [
        {
          "internalType": "address",
          "name": "",
          "type": "address"
        }
      ],
      "stateMutability": "view",
      "type": "function"
    },
    {
      "inputs": [],
      "name": "collateral",
      "outputs": [
        {
          "internalType": "address",
          "name": "",
          "type": "address"
        }
      ],
      "stateMutability": "view",
      "type": "function"
    },
    {
      "inputs": [],
      "name": "collateralToken",
      "outputs": [
        {
          "internalType": "contract IERC20",
          "name": "",
          "type": "address"
        }
      ],
      "stateMutability": "view",
      "type": "function"
    },
    {
      "inputs": [],
      "name": "comptroller",
      "outputs": [
        {
          "internalType": "contract Comptroller",
          "name": "",
          "type": "address"
        }
      ],
      "stateMutability": "view",
      "type": "function"
    },
    {
      "inputs": [],
      "name": "feeCollector",
      "outputs": [
        {
          "internalType": "address",
          "name": "",
          "type": "address"
        }
      ],
      "stateMutability": "view",
      "type": "function"
    },
    {
      "inputs": [],
      "name": "harvestVSP",
      "outputs": [],
      "stateMutability": "nonpayable",
      "type": "function"
    },
    {
      "inputs": [
        {
          "internalType": "address",
          "name": "_token",
          "type": "address"
        }
      ],
      "name": "isReservedToken",
      "outputs": [
        {
          "internalType": "bool",
          "name": "",
          "type": "bool"
        }
      ],
      "stateMutability": "view",
      "type": "function"
    },
    {
      "inputs": [],
      "name": "keepers",
      "outputs": [
        {
          "internalType": "address[]",
          "name": "",
          "type": "address[]"
        }
      ],
      "stateMutability": "view",
      "type": "function"
    },
    {
      "inputs": [],
      "name": "maxBorrowLimit",
      "outputs": [
        {
          "internalType": "uint256",
          "name": "",
          "type": "uint256"
        }
      ],
      "stateMutability": "view",
      "type": "function"
    },
    {
      "inputs": [
        {
          "internalType": "address",
          "name": "_newStrategy",
          "type": "address"
        }
      ],
      "name": "migrate",
      "outputs": [],
      "stateMutability": "nonpayable",
      "type": "function"
    },
    {
      "inputs": [],
      "name": "minBorrowLimit",
      "outputs": [
        {
          "internalType": "uint256",
          "name": "",
          "type": "uint256"
        }
      ],
      "stateMutability": "view",
      "type": "function"
    },
    {
      "inputs": [],
      "name": "pool",
      "outputs": [
        {
          "internalType": "address",
          "name": "",
          "type": "address"
        }
      ],
      "stateMutability": "view",
      "type": "function"
    },
    {
      "inputs": [],
      "name": "rebalance",
      "outputs": [
        {
          "internalType": "uint256",
          "name": "_profit",
          "type": "uint256"
        },
        {
          "internalType": "uint256",
          "name": "_loss",
          "type": "uint256"
        },
        {
          "internalType": "uint256",
          "name": "_payback",
          "type": "uint256"
        }
      ],
      "stateMutability": "nonpayable",
      "type": "function"
    },
    {
      "inputs": [],
      "name": "receiptToken",
      "outputs": [
        {
          "internalType": "address",
          "name": "",
          "type": "address"
        }
      ],
      "stateMutability": "view",
      "type": "function"
    },
    {
      "inputs": [
        {
          "internalType": "uint256",
          "name": "_amountToRecover",
          "type": "uint256"
        }
      ],
      "name": "recoverBorrowToken",
      "outputs": [],
      "stateMutability": "nonpayable",
      "type": "function"
    },
    {
      "inputs": [
        {
          "internalType": "address",
          "name": "_keeperAddress",
          "type": "address"
        }
      ],
      "name": "removeKeeper",
      "outputs": [],
      "stateMutability": "nonpayable",
      "type": "function"
    },
    {
      "inputs": [],
      "name": "repayAll",
      "outputs": [],
      "stateMutability": "nonpayable",
      "type": "function"
    },
    {
      "inputs": [],
      "name": "rewardToken",
      "outputs": [
        {
          "internalType": "address",
          "name": "",
          "type": "address"
        }
      ],
      "stateMutability": "view",
      "type": "function"
    },
    {
      "inputs": [],
      "name": "supplyCToken",
      "outputs": [
        {
          "internalType": "contract CToken",
          "name": "",
          "type": "address"
        }
      ],
      "stateMutability": "view",
      "type": "function"
    },
    {
      "inputs": [],
      "name": "swapper",
      "outputs": [
        {
          "internalType": "contract IRoutedSwapper",
          "name": "",
          "type": "address"
        }
      ],
      "stateMutability": "view",
      "type": "function"
    },
    {
      "inputs": [
        {
          "internalType": "address",
          "name": "_fromToken",
          "type": "address"
        }
      ],
      "name": "sweepERC20",
      "outputs": [],
      "stateMutability": "nonpayable",
      "type": "function"
    },
    {
      "inputs": [],
      "name": "token",
      "outputs": [
        {
          "internalType": "address",
          "name": "",
          "type": "address"
        }
      ],
      "stateMutability": "view",
      "type": "function"
    },
    {
      "inputs": [],
      "name": "tvl",
      "outputs": [
        {
          "internalType": "uint256",
          "name": "",
          "type": "uint256"
        }
      ],
      "stateMutability": "view",
      "type": "function"
    },
    {
      "inputs": [
        {
          "internalType": "uint256",
          "name": "_minBorrowLimit",
          "type": "uint256"
        },
        {
          "internalType": "uint256",
          "name": "_maxBorrowLimit",
          "type": "uint256"
        }
      ],
      "name": "updateBorrowLimit",
      "outputs": [],
      "stateMutability": "nonpayable",
      "type": "function"
    },
    {
      "inputs": [
        {
          "internalType": "address",
          "name": "_feeCollector",
          "type": "address"
        }
      ],
      "name": "updateFeeCollector",
      "outputs": [],
      "stateMutability": "nonpayable",
      "type": "function"
    },
    {
      "inputs": [
        {
          "internalType": "contract IRoutedSwapper",
          "name": "_swapper",
          "type": "address"
        }
      ],
      "name": "updateSwapper",
      "outputs": [],
      "stateMutability": "nonpayable",
      "type": "function"
    },
    {
      "inputs": [],
      "name": "vPool",
      "outputs": [
        {
          "internalType": "contract IVesperPool",
          "name": "",
          "type": "address"
        }
      ],
      "stateMutability": "view",
      "type": "function"
    },
    {
      "inputs": [],
      "name": "vsp",
      "outputs": [
        {
          "internalType": "address",
          "name": "",
          "type": "address"
        }
      ],
      "stateMutability": "view",
      "type": "function"
    },
    {
      "inputs": [
        {
          "internalType": "uint256",
          "name": "_amount",
          "type": "uint256"
        }
      ],
      "name": "withdraw",
      "outputs": [],
      "stateMutability": "nonpayable",
      "type": "function"
    },
    {
      "stateMutability": "payable",
      "type": "receive"
    }
  ],
  "transactionHash": "0x0de2b3f96cb7c72c9861a1165931b16af734873061f3cb6fa1d611f9740f1318",
  "args": [
    "0x0538C8bAc84E95A9dF8aC10Aad17DbE81b9E36ee",
    "0x8f156189A3CD28dFc8FB7BbbAce58F98F09c0bB3",
    "0x3d9819210A31b4961b30EF54bE2aeD79B9c9Cd3B",
    "0xc00e94Cb662C3520282E6f5717214004A7f26888",
    "0x5d3a536E4D6DbD6114cc1Ead35777bAB948E3643",
    "0x39AA39c021dfbaE8faC545936693aC917d5E7563",
    "0xa8b607Aa09B6A2E306F93e74c282Fb13f6A80452",
    "0x1b40183EFB4Dd766f11bDa7A7c3AD8982e998421",
    "Compound_Vesper_Xy_DAI_USDC"
  ],
  "numDeployments": 1,
  "solcInputHash": "2d832c037722430ea96bb09a62c27427",
  "bytecode": "0x610160604052611b586006556121346007553480156200001e57600080fd5b5060405162005b4a38038062005b4a8339810160408190526200004191620008d3565b888888888888868686868585858585846001600160a01b038316620000ad5760405162461bcd60e51b815260206004820152601460248201527f706f6f6c2d616464726573732d69732d7a65726f00000000000000000000000060448201526064015b60405180910390fd5b6001600160a01b038216620001055760405162461bcd60e51b815260206004820152601760248201527f737761707065722d616464726573732d69732d7a65726f0000000000000000006044820152606401620000a4565b600280546001600160a01b0319166001600160a01b0384811691909117909155831660a081905260408051637e062a3560e11b8152905163fc0c546a91600480820192602092909190829003018186803b1580156200016357600080fd5b505afa15801562000178573d6000803e3d6000fd5b505050506040513d601f19601f820116820180604052508101906200019e9190620009c1565b6001600160a01b03908116608052600080546001600160a01b031916918316919091179055620001e5620001cf3390565b60036200060c60201b62001f901790919060201c565b620002275760405162461bcd60e51b81526020600482015260116024820152701859190b5ad9595c195c8b59985a5b1959607a1b6044820152606401620000a4565b5050506001600160a01b038316620002825760405162461bcd60e51b815260206004820152601660248201527f63546f6b656e2d616464726573732d69732d7a65726f000000000000000000006044820152606401620000a4565b6001600160a01b038416620002da5760405162461bcd60e51b815260206004820152601b60248201527f636f6d7074726f6c6c65722d616464726573732d69732d7a65726f00000000006044820152606401620000a4565b8051620002ef90600590602084019062000736565b50600980546001600160a01b0319166001600160a01b038681169190911790915583811660c052821660e05262000326826200062c565b600880546001600160a01b0319166001600160a01b039290921691909117905560408051600280825260608201835260009260208301908036833701905050905083816000815181106200037e576200037e620009e8565b60200260200101906001600160a01b031690816001600160a01b0316815250508281600181518110620003b557620003b5620009e8565b6001600160a01b039283166020918202929092010152600954604051631853304760e31b815291169063c299823890620003f4908490600401620009fe565b600060405180830381600087803b1580156200040f57600080fd5b505af115801562000424573d6000803e3d6000fd5b505050506040513d6000823e601f3d908101601f191682016040526200044e919081019062000a4d565b50505050506001600160a01b03871615159250620004b29150505760405162461bcd60e51b815260206004820152601b60248201527f726577617264546f6b656e2d616464726573732d69732d7a65726f00000000006044820152606401620000a4565b5050506001600160a01b03908116610100528516151592506200051b9150505760405162461bcd60e51b815260206004820152601360248201527f7673702d616464726573732d69732d7a65726f000000000000000000000000006044820152606401620000a4565b60085460408051637e062a3560e11b815290516001600160a01b039283169286169163fc0c546a916004808301926020929190829003018186803b1580156200056357600080fd5b505afa15801562000578573d6000803e3d6000fd5b505050506040513d601f19601f820116820180604052508101906200059e9190620009c1565b6001600160a01b031614620005ea5760405162461bcd60e51b81526020600482015260116024820152701a5b9d985b1a590b59dc9bddcb5c1bdbdb607a1b6044820152606401620000a4565b506001600160a01b039182166101205216610140525062000b3a945050505050565b600062000623836001600160a01b038416620006e4565b90505b92915050565b60006001600160a01b038216734ddc2d193948926d02f9b1fe9e1daa0718270ed514156200066f575073c02aaa39b223fe8d0a0e5c4f27ead9083c756cc2919050565b816001600160a01b0316636f307dc36040518163ffffffff1660e01b815260040160206040518083038186803b158015620006a957600080fd5b505afa158015620006be573d6000803e3d6000fd5b505050506040513d601f19601f82011682018060405250810190620006269190620009c1565b60008181526001830160205260408120546200072d5750815460018181018455600084815260208082209093018490558454848252828601909352604090209190915562000626565b50600062000626565b828054620007449062000afd565b90600052602060002090601f016020900481019282620007685760008555620007b3565b82601f106200078357805160ff1916838001178555620007b3565b82800160010185558215620007b3579182015b82811115620007b357825182559160200191906001019062000796565b50620007c1929150620007c5565b5090565b5b80821115620007c15760008155600101620007c6565b6001600160a01b0381168114620007f257600080fd5b50565b634e487b7160e01b600052604160045260246000fd5b604051601f8201601f191681016001600160401b0381118282101715620008365762000836620007f5565b604052919050565b600082601f8301126200085057600080fd5b81516001600160401b038111156200086c576200086c620007f5565b602062000882601f8301601f191682016200080b565b82815285828487010111156200089757600080fd5b60005b83811015620008b75785810183015182820184015282016200089a565b83811115620008c95760008385840101525b5095945050505050565b60008060008060008060008060006101208a8c031215620008f357600080fd5b89516200090081620007dc565b60208b01519099506200091381620007dc565b60408b01519098506200092681620007dc565b60608b01519097506200093981620007dc565b60808b01519096506200094c81620007dc565b60a08b01519095506200095f81620007dc565b60c08b01519094506200097281620007dc565b60e08b01519093506200098581620007dc565b6101008b01519092506001600160401b03811115620009a357600080fd5b620009b18c828d016200083e565b9150509295985092959850929598565b600060208284031215620009d457600080fd5b8151620009e181620007dc565b9392505050565b634e487b7160e01b600052603260045260246000fd5b6020808252825182820181905260009190848201906040850190845b8181101562000a415783516001600160a01b03168352928401929184019160010162000a1a565b50909695505050505050565b6000602080838503121562000a6157600080fd5b82516001600160401b038082111562000a7957600080fd5b818501915085601f83011262000a8e57600080fd5b81518181111562000aa35762000aa3620007f5565b8060051b915062000ab68483016200080b565b818152918301840191848101908884111562000ad157600080fd5b938501935b8385101562000af15784518252938501939085019062000ad6565b98975050505050505050565b600181811c9082168062000b1257607f821691505b6020821081141562000b3457634e487b7160e01b600052602260045260246000fd5b50919050565b60805160a05160c05160e051610100516101205161014051614d7062000dda6000396000818161028701528181610cd401528181610d6601526129e80152600081816103d401528181610b7d01528181610bbb01528181611fce0152818161206a015281816129b2015281816141ac0152818161429801528181614336015261485d0152600081816106370152818161372a015281816137bd0152613d570152600081816103a001528181610f7301528181611d31015281816125a301528181612ba501528181612daf015281816130cc015281816133c70152818161366f01528181613f2601528181613fb101528181614119015281816144c101526146d401526000818161060301528181611b0301528181611ba901528181612222015281816122dc0152818161270e01528181612aa5015281816131850152818161321501528181613327015281816135350152818161361b015281816143e40152614663015260008181610231015281816106df0152818161080a0152818161092601528181610a0401528181610a600152818161114c0152818161128d0152818161132a015281816115560152818161171f01528181611dcd01528181612424015281816124c40152818161291101526148f30152600081816104910152818161056201528181610869015281816109040152818161097801528181610a3701528181610d8701528181611047015281816110f60152818161111d0152818161116e015281816114ba0152818161195101528181611c5c0152818161231701528181612565015281816126830152818161283301528181612d7101528181613800015281816138ba0152818161398101528181613b4001528181613b7f01528181613c45015281816146410152818161469901526148d10152614d706000f3fe6080604052600436106101c85760003560e01c8063a3f4df7e116100f8578063e260d74711610090578063e260d747146105a6578063e5328e06146105bc578063ec78e832146105d1578063efead58c146105f1578063f7c618c114610625578063fa3ae6dc14610659578063fb7ee1021461066e578063fc0c546a1461068e578063ffa1ad74146106ac57600080fd5b8063a3f4df7e1461045d578063b2016bd41461047f578063c415b95c146104b3578063c7ad2748146104d3578063ce5494bb146104f3578063d2c35ce814610513578063d3033c3914610533578063d8dfeb4514610553578063e00af4a71461058657600080fd5b8063440d72481161016b578063440d724814610309578063456dc17a146103395780634fc90c2c146103595780635fe3b5671461036e578063620a96d51461038e5780636719578c146103c25780637d7c2a1c146103f6578063951dc22c1461042657806399b71d5c1461044857600080fd5b80630181686c146101d457806314ae9f2e146101fd57806316f0115b1461021f578063243cd14e1461026057806329ba73ed146102755780632b3297f9146102a95780632e1a7d4d146102c95780634032b72b146102e957600080fd5b366101cf57005b600080fd5b3480156101e057600080fd5b506101ea60075481565b6040519081526020015b60405180910390f35b34801561020957600080fd5b5061021d610218366004614966565b6106dd565b005b34801561022b57600080fd5b506102537f000000000000000000000000000000000000000000000000000000000000000081565b6040516101f49190614983565b34801561026c57600080fd5b506101ea6107f8565b34801561028157600080fd5b506102537f000000000000000000000000000000000000000000000000000000000000000081565b3480156102b557600080fd5b50600254610253906001600160a01b031681565b3480156102d557600080fd5b5061021d6102e4366004614997565b610807565b3480156102f557600080fd5b5061021d610304366004614966565b610a5e565b34801561031557600080fd5b50610329610324366004614966565b610b6a565b60405190151581526020016101f4565b34801561034557600080fd5b50600854610253906001600160a01b031681565b34801561036557600080fd5b5061021d610bb7565b34801561037a57600080fd5b50600954610253906001600160a01b031681565b34801561039a57600080fd5b506102537f000000000000000000000000000000000000000000000000000000000000000081565b3480156103ce57600080fd5b506102537f000000000000000000000000000000000000000000000000000000000000000081565b34801561040257600080fd5b5061040b610db1565b604080519384526020840192909252908201526060016101f4565b34801561043257600080fd5b5061043b610df1565b6040516101f491906149f4565b34801561045457600080fd5b5061021d610dfd565b34801561046957600080fd5b50610472610e39565b6040516101f49190614a33565b34801561048b57600080fd5b506102537f000000000000000000000000000000000000000000000000000000000000000081565b3480156104bf57600080fd5b50600154610253906001600160a01b031681565b3480156104df57600080fd5b5061021d6104ee366004614997565b610ec7565b3480156104ff57600080fd5b5061021d61050e366004614966565b61128a565b34801561051f57600080fd5b5061021d61052e366004614966565b611554565b34801561053f57600080fd5b5061021d61054e366004614966565b61171d565b34801561055f57600080fd5b507f0000000000000000000000000000000000000000000000000000000000000000610253565b34801561059257600080fd5b5061021d6105a1366004614966565b6118da565b3480156105b257600080fd5b506101ea60065481565b3480156105c857600080fd5b506101ea611af5565b3480156105dd57600080fd5b50600054610253906001600160a01b031681565b3480156105fd57600080fd5b506102537f000000000000000000000000000000000000000000000000000000000000000081565b34801561063157600080fd5b506102537f000000000000000000000000000000000000000000000000000000000000000081565b34801561066557600080fd5b5061021d611cf1565b34801561067a57600080fd5b5061021d610689366004614a66565b611dcb565b34801561069a57600080fd5b506000546001600160a01b0316610253565b3480156106b857600080fd5b50610472604051806040016040528060058152602001640352e302e360dc1b81525081565b7f00000000000000000000000000000000000000000000000000000000000000006001600160a01b0316630c340a246040518163ffffffff1660e01b815260040160206040518083038186803b15801561073657600080fd5b505afa15801561074a573d6000803e3d6000fd5b505050506040513d601f19601f8201168201806040525081019061076e9190614a88565b6001600160a01b0316336001600160a01b0316146107a75760405162461bcd60e51b815260040161079e90614aa5565b60405180910390fd5b6107b2600382611fac565b6107f55760405162461bcd60e51b81526020600482015260146024820152731c995b5bdd994b5ad9595c195c8b59985a5b195960621b604482015260640161079e565b50565b6000610802611fc1565b905090565b337f00000000000000000000000000000000000000000000000000000000000000006001600160a01b03161461084f5760405162461bcd60e51b815260040161079e90614adc565b6040516370a0823160e01b81526000906001600160a01b037f000000000000000000000000000000000000000000000000000000000000000016906370a082319061089e903090600401614983565b60206040518083038186803b1580156108b657600080fd5b505afa1580156108ca573d6000803e3d6000fd5b505050506040513d601f19601f820116820180604052508101906108ee9190614b0f565b905081811061094f5761094b6001600160a01b037f0000000000000000000000000000000000000000000000000000000000000000167f000000000000000000000000000000000000000000000000000000000000000084612197565b5050565b61096161095c8284614b3e565b6121ed565b6040516370a0823160e01b81526001600160a01b037f000000000000000000000000000000000000000000000000000000000000000016906370a08231906109ad903090600401614983565b60206040518083038186803b1580156109c557600080fd5b505afa1580156109d9573d6000803e3d6000fd5b505050506040513d601f19601f820116820180604052508101906109fd9190614b0f565b905061094b7f0000000000000000000000000000000000000000000000000000000000000000610a2d84846122c2565b6001600160a01b037f0000000000000000000000000000000000000000000000000000000000000000169190612197565b7f00000000000000000000000000000000000000000000000000000000000000006001600160a01b0316630c340a246040518163ffffffff1660e01b815260040160206040518083038186803b158015610ab757600080fd5b505afa158015610acb573d6000803e3d6000fd5b505050506040513d601f19601f82011682018060405250810190610aef9190614a88565b6001600160a01b0316336001600160a01b031614610b1f5760405162461bcd60e51b815260040161079e90614aa5565b610b2a600382611f90565b6107f55760405162461bcd60e51b81526020600482015260116024820152701859190b5ad9595c195c8b59985a5b1959607a1b604482015260640161079e565b6000610b75826122d8565b80610bb157507f00000000000000000000000000000000000000000000000000000000000000006001600160a01b0316826001600160a01b0316145b92915050565b60007f00000000000000000000000000000000000000000000000000000000000000006001600160a01b0316638bc6beb26040518163ffffffff1660e01b815260040160206040518083038186803b158015610c1257600080fd5b505afa158015610c26573d6000803e3d6000fd5b505050506040513d601f19601f82011682018060405250810190610c4a9190614a88565b90506001600160a01b03811615610cba5760405163d279c19160e01b81526001600160a01b0382169063d279c19190610c87903090600401614983565b600060405180830381600087803b158015610ca157600080fd5b505af1158015610cb5573d6000803e3d6000fd5b505050505b6040516370a0823160e01b81526000906001600160a01b037f000000000000000000000000000000000000000000000000000000000000000016906370a0823190610d09903090600401614983565b60206040518083038186803b158015610d2157600080fd5b505afa158015610d35573d6000803e3d6000fd5b505050506040513d601f19601f82011682018060405250810190610d599190614b0f565b9050801561094b57610dac7f00000000000000000000000000000000000000000000000000000000000000007f000000000000000000000000000000000000000000000000000000000000000083612366565b505050565b60008080610dc2335b6003906123fa565b610dde5760405162461bcd60e51b815260040161079e90614b55565b610de661241c565b925092509250909192565b6060610802600361298a565b610e0633610dba565b610e225760405162461bcd60e51b815260040161079e90614b55565b610e2c6000612997565b610e37600019612997565b565b60058054610e4690614b85565b80601f0160208091040260200160405190810160405280929190818152602001828054610e7290614b85565b8015610ebf5780601f10610e9457610100808354040283529160200191610ebf565b820191906000526020600020905b815481529060010190602001808311610ea257829003601f168201915b505050505081565b610ed033610dba565b610eec5760405162461bcd60e51b815260040161079e90614b55565b6008546040516370a0823160e01b81526000916001600160a01b0316906370a0823190610f1d903090600401614983565b60206040518083038186803b158015610f3557600080fd5b505afa158015610f49573d6000803e3d6000fd5b505050506040513d601f19601f82011682018060405250810190610f6d9190614b0f565b905060007f00000000000000000000000000000000000000000000000000000000000000006001600160a01b03166395dd9193306040518263ffffffff1660e01b8152600401610fbd9190614983565b60206040518083038186803b158015610fd557600080fd5b505afa158015610fe9573d6000803e3d6000fd5b505050506040513d601f19601f8201168201806040525081019061100d9190614b0f565b905080821115610dac5760006110238284614b3e565b90506000808511801561103557508482115b61103f5781611041565b845b905060007f00000000000000000000000000000000000000000000000000000000000000006001600160a01b03166370a08231306040518263ffffffff1660e01b81526004016110919190614983565b60206040518083038186803b1580156110a957600080fd5b505afa1580156110bd573d6000803e3d6000fd5b505050506040513d601f19601f820116820180604052508101906110e19190614b0f565b60085490915061111b906001600160a01b03167f000000000000000000000000000000000000000000000000000000000000000084612a11565b7f00000000000000000000000000000000000000000000000000000000000000006001600160a01b031663a9059cbb7f0000000000000000000000000000000000000000000000000000000000000000837f00000000000000000000000000000000000000000000000000000000000000006001600160a01b03166370a08231306040518263ffffffff1660e01b81526004016111b89190614983565b60206040518083038186803b1580156111d057600080fd5b505afa1580156111e4573d6000803e3d6000fd5b505050506040513d601f19601f820116820180604052508101906112089190614b0f565b6112129190614b3e565b6040518363ffffffff1660e01b815260040161122f929190614bc0565b602060405180830381600087803b15801561124957600080fd5b505af115801561125d573d6000803e3d6000fd5b505050506040513d601f19601f820116820180604052508101906112819190614bee565b50505050505050565b337f00000000000000000000000000000000000000000000000000000000000000006001600160a01b0316146112d25760405162461bcd60e51b815260040161079e90614adc565b6001600160a01b0381166113285760405162461bcd60e51b815260206004820152601c60248201527f6e65772d73747261746567792d616464726573732d69732d7a65726f00000000604482015260640161079e565b7f00000000000000000000000000000000000000000000000000000000000000006001600160a01b0316816001600160a01b03166316f0115b6040518163ffffffff1660e01b815260040160206040518083038186803b15801561138b57600080fd5b505afa15801561139f573d6000803e3d6000fd5b505050506040513d601f19601f820116820180604052508101906113c39190614a88565b6001600160a01b0316146114125760405162461bcd60e51b81526020600482015260166024820152756e6f742d76616c69642d6e65772d737472617465677960501b604482015260640161079e565b61141b81612aa3565b6000546040516370a0823160e01b81526114b49183916001600160a01b03909116906370a0823190611451903090600401614983565b60206040518083038186803b15801561146957600080fd5b505afa15801561147d573d6000803e3d6000fd5b505050506040513d601f19601f820116820180604052508101906114a19190614b0f565b6000546001600160a01b03169190612197565b6107f5817f00000000000000000000000000000000000000000000000000000000000000006001600160a01b03166370a08231306040518263ffffffff1660e01b81526004016115049190614983565b60206040518083038186803b15801561151c57600080fd5b505afa158015611530573d6000803e3d6000fd5b505050506040513d601f19601f82011682018060405250810190610a2d9190614b0f565b7f00000000000000000000000000000000000000000000000000000000000000006001600160a01b0316630c340a246040518163ffffffff1660e01b815260040160206040518083038186803b1580156115ad57600080fd5b505afa1580156115c1573d6000803e3d6000fd5b505050506040513d601f19601f820116820180604052508101906115e59190614a88565b6001600160a01b0316336001600160a01b0316146116155760405162461bcd60e51b815260040161079e90614aa5565b6001600160a01b03811661166b5760405162461bcd60e51b815260206004820152601d60248201527f6665652d636f6c6c6563746f722d616464726573732d69732d7a65726f000000604482015260640161079e565b6001546001600160a01b03828116911614156116c15760405162461bcd60e51b81526020600482015260156024820152746665652d636f6c6c6563746f722d69732d73616d6560581b604482015260640161079e565b6001546040516001600160a01b038084169216907f0f06062680f9bd68e786e9980d9bb03d73d5620fc3b345e417b6eacb310b970690600090a3600180546001600160a01b0319166001600160a01b0392909216919091179055565b7f00000000000000000000000000000000000000000000000000000000000000006001600160a01b0316630c340a246040518163ffffffff1660e01b815260040160206040518083038186803b15801561177657600080fd5b505afa15801561178a573d6000803e3d6000fd5b505050506040513d601f19601f820116820180604052508101906117ae9190614a88565b6001600160a01b0316336001600160a01b0316146117de5760405162461bcd60e51b815260040161079e90614aa5565b6001600160a01b03811661182e5760405162461bcd60e51b8152602060048201526017602482015276737761707065722d616464726573732d69732d7a65726f60481b604482015260640161079e565b6002546001600160a01b038281169116141561187e5760405162461bcd60e51b815260206004820152600f60248201526e737761707065722d69732d73616d6560881b604482015260640161079e565b6002546040516001600160a01b038084169216907f6c953b7ec311055c20b96a42cea31e89528e375b1bf953a503db40854b3188fe90600090a3600280546001600160a01b0319166001600160a01b0392909216919091179055565b6118e333610dba565b6118ff5760405162461bcd60e51b815260040161079e90614b55565b6001546001600160a01b031661194f5760405162461bcd60e51b81526020600482015260156024820152741999594b58dbdb1b1958dd1bdc8b5b9bdd0b5cd95d605a1b604482015260640161079e565b7f00000000000000000000000000000000000000000000000000000000000000006001600160a01b0316816001600160a01b031614156119d15760405162461bcd60e51b815260206004820152601f60248201527f6e6f742d616c6c6f7765642d746f2d73776565702d636f6c6c61746572616c00604482015260640161079e565b6119da81610b6a565b15611a1e5760405162461bcd60e51b815260206004820152601460248201527306e6f742d616c6c6f7765642d746f2d73776565760641b604482015260640161079e565b6001600160a01b03811673eeeeeeeeeeeeeeeeeeeeeeeeeeeeeeeeeeeeeeee1415611a59576001546107f5906001600160a01b031647612c33565b6040516370a0823160e01b81526000906001600160a01b038316906370a0823190611a88903090600401614983565b60206040518083038186803b158015611aa057600080fd5b505afa158015611ab4573d6000803e3d6000fd5b505050506040513d601f19601f82011682018060405250810190611ad89190614b0f565b60015490915061094b906001600160a01b03848116911683612197565b600080670de0b6b3a76400007f00000000000000000000000000000000000000000000000000000000000000006001600160a01b031663182df0f56040518163ffffffff1660e01b815260040160206040518083038186803b158015611b5a57600080fd5b505afa158015611b6e573d6000803e3d6000fd5b505050506040513d601f19601f82011682018060405250810190611b929190614b0f565b6040516370a0823160e01b81526001600160a01b037f000000000000000000000000000000000000000000000000000000000000000016906370a0823190611bde903090600401614983565b60206040518083038186803b158015611bf657600080fd5b505afa158015611c0a573d6000803e3d6000fd5b505050506040513d601f19601f82011682018060405250810190611c2e9190614b0f565b611c389190614c09565b611c429190614c28565b6040516370a0823160e01b81529091506001600160a01b037f000000000000000000000000000000000000000000000000000000000000000016906370a0823190611c91903090600401614983565b60206040518083038186803b158015611ca957600080fd5b505afa158015611cbd573d6000803e3d6000fd5b505050506040513d601f19601f82011682018060405250810190611ce19190614b0f565b611ceb9082614c4a565b91505090565b611cfa33610dba565b611d165760405162461bcd60e51b815260040161079e90614b55565b6040516305eff7ef60e21b8152611dbf906001600160a01b037f000000000000000000000000000000000000000000000000000000000000000016906317bfdfbc90611d66903090600401614983565b602060405180830381600087803b158015611d8057600080fd5b505af1158015611d94573d6000803e3d6000fd5b505050506040513d601f19601f82011682018060405250810190611db89190614b0f565b6001612d4c565b60006006819055600755565b7f00000000000000000000000000000000000000000000000000000000000000006001600160a01b0316630c340a246040518163ffffffff1660e01b815260040160206040518083038186803b158015611e2457600080fd5b505afa158015611e38573d6000803e3d6000fd5b505050506040513d601f19601f82011682018060405250810190611e5c9190614a88565b6001600160a01b0316336001600160a01b031614611e8c5760405162461bcd60e51b815260040161079e90614aa5565b6127108110611ed85760405162461bcd60e51b81526020600482015260186024820152771a5b9d985b1a590b5b585e0b589bdc9c9bddcb5b1a5b5a5d60421b604482015260640161079e565b80158015611ee4575081155b80611eee57508181115b611f3a5760405162461bcd60e51b815260206004820152601d60248201527f6d61782d73686f756c642d62652d6869676865722d7468616e2d6d696e000000604482015260640161079e565b6006546007546040805192835260208301859052820152606081018290527fedd77444afdf63401315e81ffe86d08f7865796e8ad2e11acf1d56a1393f07d59060800160405180910390a1600691909155600755565b6000611fa5836001600160a01b038416612e50565b9392505050565b6000611fa5836001600160a01b038416612e9f565b6000670de0b6b3a76400007f00000000000000000000000000000000000000000000000000000000000000006001600160a01b03166370a08231306040518263ffffffff1660e01b81526004016120189190614983565b60206040518083038186803b15801561203057600080fd5b505afa158015612044573d6000803e3d6000fd5b505050506040513d601f19601f820116820180604052508101906120689190614b0f565b7f00000000000000000000000000000000000000000000000000000000000000006001600160a01b03166399530b066040518163ffffffff1660e01b815260040160206040518083038186803b1580156120c157600080fd5b505afa1580156120d5573d6000803e3d6000fd5b505050506040513d601f19601f820116820180604052508101906120f99190614b0f565b6121039190614c09565b61210d9190614c28565b6008546040516370a0823160e01b81526001600160a01b03909116906370a082319061213d903090600401614983565b60206040518083038186803b15801561215557600080fd5b505afa158015612169573d6000803e3d6000fd5b505050506040513d601f19601f8201168201806040525081019061218d9190614b0f565b6108029190614c4a565b610dac8363a9059cbb60e01b84846040516024016121b6929190614bc0565b60408051601f198184030181529190526020810180516001600160e01b03166001600160e01b031990931692909217909152612f92565b60006121fa600083613064565b915050612208816001612d4c565b604051633af9e66960e01b81526000906001600160a01b037f00000000000000000000000000000000000000000000000000000000000000001690633af9e66990612257903090600401614983565b602060405180830381600087803b15801561227157600080fd5b505af1158015612285573d6000803e3d6000fd5b505050506040513d601f19601f820116820180604052508101906122a99190614b0f565b9050610dac8382116122bb578161351f565b835b61351f565b60008183106122d15781611fa5565b5090919050565b60007f00000000000000000000000000000000000000000000000000000000000000006001600160a01b0316826001600160a01b0316148061234b57507f00000000000000000000000000000000000000000000000000000000000000006001600160a01b0316826001600160a01b0316145b80610bb15750506008546001600160a01b0390811691161490565b600254604051636ccb2b0160e01b81526000916001600160a01b031690636ccb2b01906123a0908790879087906001903090600401614c62565b602060405180830381600087803b1580156123ba57600080fd5b505af11580156123ce573d6000803e3d6000fd5b505050506040513d601f19601f820116820180604052508101906123f29190614b0f565b949350505050565b6001600160a01b03811660009081526001830160205260408120541515611fa5565b6000806000807f00000000000000000000000000000000000000000000000000000000000000006001600160a01b031663d53ddc26306040518263ffffffff1660e01b815260040161246e9190614983565b60206040518083038186803b15801561248657600080fd5b505afa15801561249a573d6000803e3d6000fd5b505050506040513d601f19601f820116820180604052508101906124be9190614b0f565b905060007f00000000000000000000000000000000000000000000000000000000000000006001600160a01b0316639f2b2833306040518263ffffffff1660e01b815260040161250e9190614983565b60206040518083038186803b15801561252657600080fd5b505afa15801561253a573d6000803e3d6000fd5b505050506040513d601f19601f8201168201806040525081019061255e9190614b0f565b90506125897f00000000000000000000000000000000000000000000000000000000000000006135f8565b6040516305eff7ef60e21b81526000906001600160a01b037f000000000000000000000000000000000000000000000000000000000000000016906317bfdfbc906125d8903090600401614983565b602060405180830381600087803b1580156125f257600080fd5b505af1158015612606573d6000803e3d6000fd5b505050506040513d601f19601f8201168201806040525081019061262a9190614b0f565b90506000612636611fc1565b9050808211156126575761265261264d8284614b3e565b6137e3565b612669565b6126696126648383614b3e565b613a05565b6040516370a0823160e01b81526000906001600160a01b037f000000000000000000000000000000000000000000000000000000000000000016906370a08231906126b8903090600401614983565b60206040518083038186803b1580156126d057600080fd5b505afa1580156126e4573d6000803e3d6000fd5b505050506040513d601f19601f820116820180604052508101906127089190614b0f565b905060007f00000000000000000000000000000000000000000000000000000000000000006001600160a01b0316633af9e669306040518263ffffffff1660e01b81526004016127589190614983565b602060405180830381600087803b15801561277257600080fd5b505af1158015612786573d6000803e3d6000fd5b505050506040513d601f19601f820116820180604052508101906127aa9190614b0f565b905060006127b88383614c4a565b9050858111156127d3576127cc8682614b3e565b99506127e0565b6127dd8187614b3e565b98505b60006127ec888c614c4a565b9050808410156128bd57600061280b6128058684614b3e565b856122c2565b905080156128bb5761281c816121ed565b6040516370a0823160e01b81526001600160a01b037f000000000000000000000000000000000000000000000000000000000000000016906370a0823190612868903090600401614983565b60206040518083038186803b15801561288057600080fd5b505afa158015612894573d6000803e3d6000fd5b505050506040513d601f19601f820116820180604052508101906128b89190614b0f565b94505b505b6128c784896122c2565b98508884116128d75760006128ea565b6128ea6128e48a86614b3e565b8c6122c2565b6040516302df682360e11b815260048101829052602481018c9052604481018b9052909b507f00000000000000000000000000000000000000000000000000000000000000006001600160a01b0316906305bed04690606401600060405180830381600087803b15801561295d57600080fd5b505af1158015612971573d6000803e3d6000fd5b5050505061297d613b65565b5050505050505050909192565b60606000611fa583613ce1565b6129a081613d3d565b6008546129d7906001600160a01b03167f000000000000000000000000000000000000000000000000000000000000000083613d7c565b6002546107f5906001600160a01b037f00000000000000000000000000000000000000000000000000000000000000008116911683613d7c565b600254604051636ccb2b0160e01b81526001600160a01b0390911690636ccb2b0190612a4a908690869086906001903090600401614c62565b602060405180830381600087803b158015612a6457600080fd5b505af1925050508015612a94575060408051601f3d908101601f19168201909252612a9191810190614b0f565b60015b612a9d57505050565b50505050565b7f00000000000000000000000000000000000000000000000000000000000000006001600160a01b0316816001600160a01b031663fc0c546a6040518163ffffffff1660e01b815260040160206040518083038186803b158015612b0657600080fd5b505afa158015612b1a573d6000803e3d6000fd5b505050506040513d601f19601f82011682018060405250810190612b3e9190614a88565b6001600160a01b031614612b8a5760405162461bcd60e51b81526020600482015260136024820152723bb937b73396b932b1b2b4b83a16ba37b5b2b760691b604482015260640161079e565b6040516305eff7ef60e21b81526107f5906001600160a01b037f000000000000000000000000000000000000000000000000000000000000000016906317bfdfbc90612bda903090600401614983565b602060405180830381600087803b158015612bf457600080fd5b505af1158015612c08573d6000803e3d6000fd5b505050506040513d601f19601f82011682018060405250810190612c2c9190614b0f565b6000612d4c565b80471015612c835760405162461bcd60e51b815260206004820152601d60248201527f416464726573733a20696e73756666696369656e742062616c616e6365000000604482015260640161079e565b6000826001600160a01b03168260405160006040518083038185875af1925050503d8060008114612cd0576040519150601f19603f3d011682016040523d82523d6000602084013e612cd5565b606091505b5050905080610dac5760405162461bcd60e51b815260206004820152603a60248201527f416464726573733a20756e61626c6520746f2073656e642076616c75652c207260448201527f6563697069656e74206d61792068617665207265766572746564000000000000606482015260840161079e565b811561094b576000612d5c611fc1565b905080831115612e47578115612d9557612d957f00000000000000000000000000000000000000000000000000000000000000006135f8565b6040516305eff7ef60e21b81526000906001600160a01b037f000000000000000000000000000000000000000000000000000000000000000016906317bfdfbc90612de4903090600401614983565b602060405180830381600087803b158015612dfe57600080fd5b505af1158015612e12573d6000803e3d6000fd5b505050506040513d601f19601f82011682018060405250810190612e369190614b0f565b9050612e4561264d8383614b3e565b505b610dac83613e8f565b6000818152600183016020526040812054612e9757508154600181810184556000848152602080822090930184905584548482528286019093526040902091909155610bb1565b506000610bb1565b60008181526001830160205260408120548015612f88576000612ec3600183614b3e565b8554909150600090612ed790600190614b3e565b9050818114612f3c576000866000018281548110612ef757612ef7614c92565b9060005260206000200154905080876000018481548110612f1a57612f1a614c92565b6000918252602080832090910192909255918252600188019052604090208390555b8554869080612f4d57612f4d614ca8565b600190038181906000526020600020016000905590558560010160008681526020019081526020016000206000905560019350505050610bb1565b6000915050610bb1565b6000612fe7826040518060400160405280602081526020017f5361666545524332303a206c6f772d6c6576656c2063616c6c206661696c6564815250856001600160a01b031661407d9092919063ffffffff16565b805190915015610dac57808060200190518101906130059190614bee565b610dac5760405162461bcd60e51b815260206004820152602a60248201527f5361666545524332303a204552433230206f7065726174696f6e20646964206e6044820152691bdd081cdd58d8d9595960b21b606482015260840161079e565b600080831580613072575082155b6130b25760405162461bcd60e51b8152602060048201526011602482015270616c6c2d696e7075742d67742d7a65726f60781b604482015260640161079e565b6040516305eff7ef60e21b81526000906001600160a01b037f000000000000000000000000000000000000000000000000000000000000000016906317bfdfbc90613101903090600401614983565b602060405180830381600087803b15801561311b57600080fd5b505af115801561312f573d6000803e3d6000fd5b505050506040513d601f19601f820116820180604052508101906131539190614b0f565b90506007546000141561316b57600092509050613518565b604051633af9e66960e01b81526000906001600160a01b037f00000000000000000000000000000000000000000000000000000000000000001690633af9e669906131ba903090600401614983565b602060405180830381600087803b1580156131d457600080fd5b505af11580156131e8573d6000803e3d6000fd5b505050506040513d601f19601f8201168201806040525081019061320c9190614b0f565b905060006132397f000000000000000000000000000000000000000000000000000000000000000061408c565b9050600087156132545761324d8884614c4a565b9050613269565b86831115613269576132668784614b3e565b90505b6000670de0b6b3a764000061327e8484614c09565b6132889190614c28565b90506000600960009054906101000a90046001600160a01b03166001600160a01b0316637dc0d1d06040518163ffffffff1660e01b815260040160206040518083038186803b1580156132da57600080fd5b505afa1580156132ee573d6000803e3d6000fd5b505050506040513d601f19601f820116820180604052508101906133129190614a88565b90506000816001600160a01b031663fc57d4df7f00000000000000000000000000000000000000000000000000000000000000006040518263ffffffff1660e01b81526004016133629190614983565b60206040518083038186803b15801561337a57600080fd5b505afa15801561338e573d6000803e3d6000fd5b505050506040513d601f19601f820116820180604052508101906133b29190614b0f565b90506000826001600160a01b031663fc57d4df7f00000000000000000000000000000000000000000000000000000000000000006040518263ffffffff1660e01b81526004016134029190614983565b60206040518083038186803b15801561341a57600080fd5b505afa15801561342e573d6000803e3d6000fd5b505050506040513d601f19601f820116820180604052508101906134529190614b0f565b90506000816134618487614c09565b61346b9190614c28565b905080613487576000899a509a50505050505050505050613518565b60006127106007548361349a9190614c09565b6134a49190614c28565b90506000612710600654846134b99190614c09565b6134c39190614c28565b9050818b11156134de576134d7818c614b3e565b9b5061350c565b8a81111561350c576134f08b82614b3e565b9c5060006134fc614115565b9050808e111561350a57809d505b505b50505050505050505050505b9250929050565b60405163852a12e360e01b8152600481018290527f00000000000000000000000000000000000000000000000000000000000000006001600160a01b03169063852a12e390602401602060405180830381600087803b15801561358157600080fd5b505af1158015613595573d6000803e3d6000fd5b505050506040513d601f19601f820116820180604052508101906135b99190614b0f565b156107f55760405162461bcd60e51b815260206004820152600f60248201526e1dda5d1a191c985dcb59985a5b1959608a1b604482015260640161079e565b6040805160028082526060820183526000926020830190803683370190505090507f00000000000000000000000000000000000000000000000000000000000000008160008151811061364d5761364d614c92565b60200260200101906001600160a01b031690816001600160a01b0316815250507f0000000000000000000000000000000000000000000000000000000000000000816001815181106136a1576136a1614c92565b6001600160a01b03928316602091820292909201015260095460405162e1ed9760e51b8152911690631c3db2e0906136df9030908590600401614cbe565b600060405180830381600087803b1580156136f957600080fd5b505af115801561370d573d6000803e3d6000fd5b50506040516370a0823160e01b8152600092506001600160a01b037f00000000000000000000000000000000000000000000000000000000000000001691506370a0823190613760903090600401614983565b60206040518083038186803b15801561377857600080fd5b505afa15801561378c573d6000803e3d6000fd5b505050506040513d601f19601f820116820180604052508101906137b09190614b0f565b90508015610dac57610dac7f00000000000000000000000000000000000000000000000000000000000000008483612a11565b6002546008546040516353b609b560e01b81526001600160a01b037f00000000000000000000000000000000000000000000000000000000000000008116600483015291821660248201526044810184905260009291909116906353b609b590606401602060405180830381600087803b15801561386057600080fd5b505af1158015613874573d6000803e3d6000fd5b505050506040513d601f19601f820116820180604052508101906138989190614b0f565b9050801561094b576040516370a0823160e01b81526000906001600160a01b037f000000000000000000000000000000000000000000000000000000000000000016906370a08231906138ef903090600401614983565b60206040518083038186803b15801561390757600080fd5b505afa15801561391b573d6000803e3d6000fd5b505050506040513d601f19601f8201168201806040525081019061393f9190614b0f565b905080821115613956576139566122bd8284614b3e565b6002546008546040516381cc619b60e01b81526001600160a01b03928316926381cc619b926139b3927f00000000000000000000000000000000000000000000000000000000000000009290911690889088903090600401614c62565b602060405180830381600087803b1580156139cd57600080fd5b505af11580156139e1573d6000803e3d6000fd5b505050506040513d601f19601f82011682018060405250810190612a9d9190614b0f565b80156107f5576008546040516370a0823160e01b81526000916001600160a01b0316906370a0823190613a3c903090600401614983565b60206040518083038186803b158015613a5457600080fd5b505afa158015613a68573d6000803e3d6000fd5b505050506040513d601f19601f82011682018060405250810190613a8c9190614b0f565b9050613a97826141a8565b6008546040516370a0823160e01b815260009183916001600160a01b03909116906370a0823190613acc903090600401614983565b60206040518083038186803b158015613ae457600080fd5b505afa158015613af8573d6000803e3d6000fd5b505050506040513d601f19601f82011682018060405250810190613b1c9190614b0f565b613b269190614b3e565b90508015610dac57600854610dac906001600160a01b03167f000000000000000000000000000000000000000000000000000000000000000083612a11565b6040516370a0823160e01b81526000906001600160a01b037f000000000000000000000000000000000000000000000000000000000000000016906370a0823190613bb4903090600401614983565b60206040518083038186803b158015613bcc57600080fd5b505afa158015613be0573d6000803e3d6000fd5b505050506040513d601f19601f82011682018060405250810190613c049190614b0f565b9050600080613c14836000613064565b90925090508015613ccf57613c2a816000612d4c565b6040516370a0823160e01b8152610dac906001600160a01b037f000000000000000000000000000000000000000000000000000000000000000016906370a0823190613c7a903090600401614983565b60206040518083038186803b158015613c9257600080fd5b505afa158015613ca6573d6000803e3d6000fd5b505050506040513d601f19601f82011682018060405250810190613cca9190614b0f565b6143c8565b613cd8836143c8565b610dac826144a5565b606081600001805480602002602001604051908101604052809291908181526020018280548015613d3157602002820191906000526020600020905b815481526020019060010190808311613d1d575b50505050509050919050565b613d468161462b565b6002546107f5906001600160a01b037f000000000000000000000000000000000000000000000000000000000000000081169116835b801580613e055750604051636eb1769f60e11b81523060048201526001600160a01b03838116602483015284169063dd62ed3e9060440160206040518083038186803b158015613dcb57600080fd5b505afa158015613ddf573d6000803e3d6000fd5b505050506040513d601f19601f82011682018060405250810190613e039190614b0f565b155b613e705760405162461bcd60e51b815260206004820152603660248201527f5361666545524332303a20617070726f76652066726f6d206e6f6e2d7a65726f60448201527520746f206e6f6e2d7a65726f20616c6c6f77616e636560501b606482015260840161079e565b610dac8363095ea7b360e01b84846040516024016121b6929190614bc0565b613e9881614716565b6008546001600160a01b031673c02aaa39b223fe8d0a0e5c4f27ead9083c756cc21415613f9b57604051632e1a7d4d60e01b81526004810182905273c02aaa39b223fe8d0a0e5c4f27ead9083c756cc290632e1a7d4d90602401600060405180830381600087803b158015613f0c57600080fd5b505af1158015613f20573d6000803e3d6000fd5b505050507f00000000000000000000000000000000000000000000000000000000000000006001600160a01b0316634e4d9fea826040518263ffffffff1660e01b81526004016000604051808303818588803b158015613f7f57600080fd5b505af1158015613f93573d6000803e3d6000fd5b505050505050565b60405163073a938160e11b8152600481018290527f00000000000000000000000000000000000000000000000000000000000000006001600160a01b031690630e75270290602401602060405180830381600087803b158015613ffd57600080fd5b505af1158015614011573d6000803e3d6000fd5b505050506040513d601f19601f820116820180604052508101906140359190614b0f565b156107f55760405162461bcd60e51b81526020600482015260186024820152771c995c185e4b5d1bcb58dbdb5c1bdd5b990b59985a5b195960421b604482015260640161079e565b60606123f2848460008561471f565b600954604051638e8f294b60e01b81526000916001600160a01b031690638e8f294b906140bd908590600401614983565b60606040518083038186803b1580156140d557600080fd5b505afa1580156140e9573d6000803e3d6000fd5b505050506040513d601f19601f8201168201806040525081019061410d9190614ce2565b509392505050565b60007f00000000000000000000000000000000000000000000000000000000000000006001600160a01b0316633b1d21a26040518163ffffffff1660e01b815260040160206040518083038186803b15801561417057600080fd5b505afa158015614184573d6000803e3d6000fd5b505050506040513d601f19601f820116820180604052508101906108029190614b0f565b60007f00000000000000000000000000000000000000000000000000000000000000006001600160a01b03166399530b066040518163ffffffff1660e01b815260040160206040518083038186803b15801561420357600080fd5b505afa158015614217573d6000803e3d6000fd5b505050506040513d601f19601f8201168201806040525081019061423b9190614b0f565b905060008161425284670de0b6b3a7640000614c09565b61425c9190614c28565b9050670de0b6b3a76400006142718383614c09565b61427b9190614c28565b83116142875780614292565b614292816001614c4a565b905060007f00000000000000000000000000000000000000000000000000000000000000006001600160a01b03166370a08231306040518263ffffffff1660e01b81526004016142e29190614983565b60206040518083038186803b1580156142fa57600080fd5b505afa15801561430e573d6000803e3d6000fd5b505050506040513d601f19601f820116820180604052508101906143329190614b0f565b90507f00000000000000000000000000000000000000000000000000000000000000006001600160a01b0316632e1a7d4d8284116143705783614372565b825b6040518263ffffffff1660e01b815260040161439091815260200190565b600060405180830381600087803b1580156143aa57600080fd5b505af11580156143be573d6000803e3d6000fd5b5050505050505050565b80156107f55760405163140e25ad60e31b8152600481018290527f00000000000000000000000000000000000000000000000000000000000000006001600160a01b03169063a0712d6890602401602060405180830381600087803b15801561443057600080fd5b505af1158015614444573d6000803e3d6000fd5b505050506040513d601f19601f820116820180604052508101906144689190614b0f565b156107f55760405162461bcd60e51b815260206004820152600d60248201526c1cdd5c1c1b1e4b59985a5b1959609a1b604482015260640161079e565b80156107f55760405163317afabb60e21b8152600481018290527f00000000000000000000000000000000000000000000000000000000000000006001600160a01b03169063c5ebeaec90602401602060405180830381600087803b15801561450d57600080fd5b505af1158015614521573d6000803e3d6000fd5b505050506040513d601f19601f820116820180604052508101906145459190614b0f565b156145925760405162461bcd60e51b815260206004820152601b60248201527f626f72726f772d66726f6d2d636f6d706f756e642d6661696c65640000000000604482015260640161079e565b6008546001600160a01b031673c02aaa39b223fe8d0a0e5c4f27ead9083c756cc214156146225773c02aaa39b223fe8d0a0e5c4f27ead9083c756cc26001600160a01b031663d0e30db0476040518263ffffffff1660e01b81526004016000604051808303818588803b15801561460857600080fd5b505af115801561461c573d6000803e3d6000fd5b50505050505b6107f581614847565b614634816148c4565b6146886001600160a01b037f0000000000000000000000000000000000000000000000000000000000000000167f000000000000000000000000000000000000000000000000000000000000000083613d7c565b6002546146c2906001600160a01b037f00000000000000000000000000000000000000000000000000000000000000008116911683613d7c565b6008546146f9906001600160a01b03167f000000000000000000000000000000000000000000000000000000000000000083613d7c565b6002546008546107f5916001600160a01b03918216911683613d7c565b6107f5816141a8565b6060824710156147805760405162461bcd60e51b815260206004820152602660248201527f416464726573733a20696e73756666696369656e742062616c616e636520666f6044820152651c8818d85b1b60d21b606482015260840161079e565b843b6147ce5760405162461bcd60e51b815260206004820152601d60248201527f416464726573733a2063616c6c20746f206e6f6e2d636f6e7472616374000000604482015260640161079e565b600080866001600160a01b031685876040516147ea9190614d1e565b60006040518083038185875af1925050503d8060008114614827576040519150601f19603f3d011682016040523d82523d6000602084013e61482c565b606091505b509150915061483c828286614918565b979650505050505050565b60405163b6b55f2560e01b8152600481018290527f00000000000000000000000000000000000000000000000000000000000000006001600160a01b03169063b6b55f2590602401600060405180830381600087803b1580156148a957600080fd5b505af11580156148bd573d6000803e3d6000fd5b5050505050565b6107f56001600160a01b037f0000000000000000000000000000000000000000000000000000000000000000167f000000000000000000000000000000000000000000000000000000000000000083613d7c565b60608315614927575081611fa5565b8251156149375782518084602001fd5b8160405162461bcd60e51b815260040161079e9190614a33565b6001600160a01b03811681146107f557600080fd5b60006020828403121561497857600080fd5b8135611fa581614951565b6001600160a01b0391909116815260200190565b6000602082840312156149a957600080fd5b5035919050565b600081518084526020808501945080840160005b838110156149e95781516001600160a01b0316875295820195908201906001016149c4565b509495945050505050565b602081526000611fa560208301846149b0565b60005b83811015614a22578181015183820152602001614a0a565b83811115612a9d5750506000910152565b6020815260008251806020840152614a52816040850160208701614a07565b601f01601f19169190910160400192915050565b60008060408385031215614a7957600080fd5b50508035926020909101359150565b600060208284031215614a9a57600080fd5b8151611fa581614951565b6020808252601a908201527f63616c6c65722d69732d6e6f742d7468652d676f7665726e6f72000000000000604082015260600190565b60208082526019908201527818d85b1b195c8b5a5ccb5b9bdd0b5d995cdc195c8b5c1bdbdb603a1b604082015260600190565b600060208284031215614b2157600080fd5b5051919050565b634e487b7160e01b600052601160045260246000fd5b600082821015614b5057614b50614b28565b500390565b60208082526016908201527531b0b63632b916b4b996b737ba16b096b5b2b2b832b960511b604082015260600190565b600181811c90821680614b9957607f821691505b60208210811415614bba57634e487b7160e01b600052602260045260246000fd5b50919050565b6001600160a01b03929092168252602082015260400190565b80518015158114614be957600080fd5b919050565b600060208284031215614c0057600080fd5b611fa582614bd9565b6000816000190483118215151615614c2357614c23614b28565b500290565b600082614c4557634e487b7160e01b600052601260045260246000fd5b500490565b60008219821115614c5d57614c5d614b28565b500190565b6001600160a01b039586168152938516602085015260408401929092526060830152909116608082015260a00190565b634e487b7160e01b600052603260045260246000fd5b634e487b7160e01b600052603160045260246000fd5b6001600160a01b03831681526040602082018190526000906123f2908301846149b0565b600080600060608486031215614cf757600080fd5b614d0084614bd9565b925060208401519150614d1560408501614bd9565b90509250925092565b60008251614d30818460208701614a07565b919091019291505056fea2646970667358221220ba79be0e34f76a928ff93fb093fe0b56f58c42b7f15fe1cc302aa36ef6b9406364736f6c63430008090033",
  "devdoc": {
    "kind": "dev",
    "methods": {
      "addKeeper(address)": {
        "params": {
          "_keeperAddress": "keeper address to add."
        }
      },
      "approveToken()": {
        "details": "Approve all required tokens"
      },
      "migrate(address)": {
        "details": "_beforeMigration hook can be implemented in child strategy to do extra steps.",
        "params": {
          "_newStrategy": "Address of new strategy"
        }
      },
      "rebalance()": {
        "returns": {
          "_loss": "Realized loss, if any, in collateral.",
          "_payback": "If strategy has any excess debt, we have to liquidate asset to payback excess debt.",
          "_profit": "Realized profit in collateral."
        }
      },
      "recoverBorrowToken(uint256)": {
        "details": "If we get liquidation in Compound, we will have borrowToken sitting in strategy. This function allows to recover idle borrow token amount.",
        "params": {
          "_amountToRecover": "Amount of borrow token we want to recover in 1 call.      Set it 0 to recover all available borrow tokens"
        }
      },
      "removeKeeper(address)": {
        "params": {
          "_keeperAddress": "keeper address to remove."
        }
      },
      "repayAll()": {
        "details": "This action usually done when loss is detected in strategy.0 borrow limit make sure that any future rebalance do not borrow again."
      },
      "sweepERC20(address)": {
        "params": {
          "_fromToken": "token address to sweep"
        }
      },
      "updateBorrowLimit(uint256,uint256)": {
        "details": "It is possible to set 0 as _minBorrowLimit to not borrow anything",
        "params": {
          "_maxBorrowLimit": "It is % of actual collateral factor of protocol",
          "_minBorrowLimit": "It is % of actual collateral factor of protocol"
        }
      },
      "updateFeeCollector(address)": {
        "params": {
          "_feeCollector": "fee collector address"
        }
      },
      "updateSwapper(address)": {
        "params": {
          "_swapper": "swapper address"
        }
      },
      "withdraw(uint256)": {
        "params": {
          "_amount": "Amount of collateral token"
        }
      }
    },
    "title": "Deposit Collateral in Compound and earn interest by depositing borrowed token in a Vesper Pool.",
    "version": 1
  },
  "userdoc": {
    "kind": "user",
    "methods": {
      "addKeeper(address)": {
        "notice": "Add given address in keepers list."
      },
      "borrowBalance()": {
        "notice": "Gets amount of borrowed Y collateral in strategy + Y collateral amount deposited in vPool"
      },
      "collateral()": {
        "notice": "Returns address of token correspond to collateral token"
      },
      "harvestVSP()": {
        "notice": "Claim VSP and convert to collateral token"
      },
      "isReservedToken(address)": {
        "notice": "Check whether given token is reserved or not. Reserved tokens are not allowed to sweep."
      },
      "keepers()": {
        "notice": "Return list of keepers"
      },
      "migrate(address)": {
        "notice": "Migrate all asset and vault ownership,if any, to new strategy"
      },
      "rebalance()": {
        "notice": "OnlyKeeper: Rebalance profit, loss and investment of this strategy.  Calculate profit, loss and payback of this strategy and realize profit/loss and  withdraw fund for payback, if any, and submit this report to pool."
      },
      "recoverBorrowToken(uint256)": {
        "notice": "Recover extra borrow tokens from strategy"
      },
      "removeKeeper(address)": {
        "notice": "Remove given address from keepers list."
      },
      "repayAll()": {
        "notice": "Repay all borrow amount and set min borrow limit to 0."
      },
      "sweepERC20(address)": {
        "notice": "sweep given token to feeCollector of strategy"
      },
      "token()": {
        "notice": "Returns address of token correspond to receipt token"
      },
      "tvl()": {
        "notice": "Returns total collateral locked in the strategy"
      },
      "updateBorrowLimit(uint256,uint256)": {
        "notice": "Update upper and lower borrow limit. Usually maxBorrowLimit < 100% of actual collateral factor of protocol."
      },
      "updateFeeCollector(address)": {
        "notice": "Update fee collector"
      },
      "updateSwapper(address)": {
        "notice": "Update swapper"
      },
      "withdraw(uint256)": {
        "notice": "Withdraw collateral token from end protocol."
      }
    },
    "version": 1
  },
  "storageLayout": {
    "storage": [
      {
        "astId": 13585,
        "contract": "vesper-strategies/contracts/strategies/compound/CompoundVesperXy.sol:CompoundVesperXy",
        "label": "receiptToken",
        "offset": 0,
        "slot": "0",
        "type": "t_address"
      },
      {
        "astId": 13591,
        "contract": "vesper-strategies/contracts/strategies/compound/CompoundVesperXy.sol:CompoundVesperXy",
        "label": "feeCollector",
        "offset": 0,
        "slot": "1",
        "type": "t_address"
      },
      {
        "astId": 13594,
        "contract": "vesper-strategies/contracts/strategies/compound/CompoundVesperXy.sol:CompoundVesperXy",
        "label": "swapper",
        "offset": 0,
        "slot": "2",
        "type": "t_contract(IRoutedSwapper)12446"
      },
      {
        "astId": 13607,
        "contract": "vesper-strategies/contracts/strategies/compound/CompoundVesperXy.sol:CompoundVesperXy",
        "label": "_keepers",
        "offset": 0,
        "slot": "3",
        "type": "t_struct(AddressSet)3014_storage"
      },
      {
        "astId": 19212,
        "contract": "vesper-strategies/contracts/strategies/compound/CompoundVesperXy.sol:CompoundVesperXy",
        "label": "NAME",
        "offset": 0,
        "slot": "5",
        "type": "t_string_storage"
      },
      {
        "astId": 19224,
        "contract": "vesper-strategies/contracts/strategies/compound/CompoundVesperXy.sol:CompoundVesperXy",
        "label": "minBorrowLimit",
        "offset": 0,
        "slot": "6",
        "type": "t_uint256"
      },
      {
        "astId": 19227,
        "contract": "vesper-strategies/contracts/strategies/compound/CompoundVesperXy.sol:CompoundVesperXy",
        "label": "maxBorrowLimit",
        "offset": 0,
        "slot": "7",
        "type": "t_uint256"
      },
      {
        "astId": 19229,
        "contract": "vesper-strategies/contracts/strategies/compound/CompoundVesperXy.sol:CompoundVesperXy",
        "label": "borrowToken",
        "offset": 0,
        "slot": "8",
        "type": "t_address"
      },
      {
        "astId": 19232,
        "contract": "vesper-strategies/contracts/strategies/compound/CompoundVesperXy.sol:CompoundVesperXy",
        "label": "comptroller",
        "offset": 0,
        "slot": "9",
        "type": "t_contract(Comptroller)10592"
      }
    ],
    "types": {
      "t_address": {
        "encoding": "inplace",
        "label": "address",
        "numberOfBytes": "20"
      },
      "t_array(t_bytes32)dyn_storage": {
        "base": "t_bytes32",
        "encoding": "dynamic_array",
        "label": "bytes32[]",
        "numberOfBytes": "32"
      },
      "t_bytes32": {
        "encoding": "inplace",
        "label": "bytes32",
        "numberOfBytes": "32"
      },
      "t_contract(Comptroller)10592": {
        "encoding": "inplace",
        "label": "contract Comptroller",
        "numberOfBytes": "20"
      },
      "t_contract(IRoutedSwapper)12446": {
        "encoding": "inplace",
        "label": "contract IRoutedSwapper",
        "numberOfBytes": "20"
      },
      "t_mapping(t_bytes32,t_uint256)": {
        "encoding": "mapping",
        "key": "t_bytes32",
        "label": "mapping(bytes32 => uint256)",
        "numberOfBytes": "32",
        "value": "t_uint256"
      },
      "t_string_storage": {
        "encoding": "bytes",
        "label": "string",
        "numberOfBytes": "32"
      },
      "t_struct(AddressSet)3014_storage": {
        "encoding": "inplace",
        "label": "struct EnumerableSet.AddressSet",
        "members": [
          {
            "astId": 3013,
            "contract": "vesper-strategies/contracts/strategies/compound/CompoundVesperXy.sol:CompoundVesperXy",
            "label": "_inner",
            "offset": 0,
            "slot": "0",
            "type": "t_struct(Set)2713_storage"
          }
        ],
        "numberOfBytes": "64"
      },
      "t_struct(Set)2713_storage": {
        "encoding": "inplace",
        "label": "struct EnumerableSet.Set",
        "members": [
          {
            "astId": 2708,
            "contract": "vesper-strategies/contracts/strategies/compound/CompoundVesperXy.sol:CompoundVesperXy",
            "label": "_values",
            "offset": 0,
            "slot": "0",
            "type": "t_array(t_bytes32)dyn_storage"
          },
          {
            "astId": 2712,
            "contract": "vesper-strategies/contracts/strategies/compound/CompoundVesperXy.sol:CompoundVesperXy",
            "label": "_indexes",
            "offset": 0,
            "slot": "1",
            "type": "t_mapping(t_bytes32,t_uint256)"
          }
        ],
        "numberOfBytes": "64"
      },
      "t_uint256": {
        "encoding": "inplace",
        "label": "uint256",
        "numberOfBytes": "32"
      }
    }
  }
}