{
  "address": "0x269041586AB615Cd19E8CbFABC7C45CdA8179289",
  "abi": [
    {
      "inputs": [
        {
          "internalType": "address",
          "name": "pool_",
          "type": "address"
        },
        {
          "internalType": "address",
          "name": "crvPool_",
          "type": "address"
        },
        {
          "internalType": "uint256",
          "name": "crvSlippage_",
          "type": "uint256"
        },
        {
          "internalType": "address",
          "name": "masterOracle_",
          "type": "address"
        },
        {
          "internalType": "address",
          "name": "swapper_",
          "type": "address"
        },
        {
          "internalType": "address",
          "name": "depositZap_",
          "type": "address"
        },
        {
          "internalType": "uint256",
          "name": "collateralIdx_",
          "type": "uint256"
        },
        {
          "internalType": "uint256",
          "name": "convexPoolId_",
          "type": "uint256"
        },
        {
          "internalType": "string",
          "name": "name_",
          "type": "string"
        }
      ],
      "stateMutability": "nonpayable",
      "type": "constructor"
    },
    {
      "anonymous": false,
      "inputs": [
        {
          "indexed": false,
          "internalType": "uint256",
          "name": "oldCrvSlippage",
          "type": "uint256"
        },
        {
          "indexed": false,
          "internalType": "uint256",
          "name": "newCrvSlippage",
          "type": "uint256"
        }
      ],
      "name": "CrvSlippageUpdated",
      "type": "event"
    },
    {
      "anonymous": false,
      "inputs": [
        {
          "indexed": false,
          "internalType": "contract IMasterOracle",
          "name": "oldMasterOracle",
          "type": "address"
        },
        {
          "indexed": false,
          "internalType": "contract IMasterOracle",
          "name": "newMasterOracle",
          "type": "address"
        }
      ],
      "name": "MasterOracleUpdated",
      "type": "event"
    },
    {
      "anonymous": false,
      "inputs": [
        {
          "indexed": true,
          "internalType": "address",
          "name": "previousFeeCollector",
          "type": "address"
        },
        {
          "indexed": true,
          "internalType": "address",
          "name": "newFeeCollector",
          "type": "address"
        }
      ],
      "name": "UpdatedFeeCollector",
      "type": "event"
    },
    {
      "anonymous": false,
      "inputs": [
        {
          "indexed": true,
          "internalType": "contract IRoutedSwapper",
          "name": "oldSwapper",
          "type": "address"
        },
        {
          "indexed": true,
          "internalType": "contract IRoutedSwapper",
          "name": "newSwapper",
          "type": "address"
        }
      ],
      "name": "UpdatedSwapper",
      "type": "event"
    },
    {
      "inputs": [],
      "name": "ADDRESS_PROVIDER",
      "outputs": [
        {
          "internalType": "contract IAddressProvider",
          "name": "",
          "type": "address"
        }
      ],
      "stateMutability": "view",
      "type": "function"
    },
    {
      "inputs": [],
      "name": "BOOSTER",
      "outputs": [
        {
          "internalType": "contract IConvex",
          "name": "",
          "type": "address"
        }
      ],
      "stateMutability": "view",
      "type": "function"
    },
    {
      "inputs": [],
      "name": "CRV",
      "outputs": [
        {
          "internalType": "address",
          "name": "",
          "type": "address"
        }
      ],
      "stateMutability": "view",
      "type": "function"
    },
    {
      "inputs": [],
      "name": "CRV_MINTER",
      "outputs": [
        {
          "internalType": "contract ITokenMinter",
          "name": "",
          "type": "address"
        }
      ],
      "stateMutability": "view",
      "type": "function"
    },
    {
      "inputs": [],
      "name": "CVX",
      "outputs": [
        {
          "internalType": "address",
          "name": "",
          "type": "address"
        }
      ],
      "stateMutability": "view",
      "type": "function"
    },
    {
      "inputs": [],
      "name": "NAME",
      "outputs": [
        {
          "internalType": "string",
          "name": "",
          "type": "string"
        }
      ],
      "stateMutability": "view",
      "type": "function"
    },
    {
      "inputs": [],
      "name": "VERSION",
      "outputs": [
        {
          "internalType": "string",
          "name": "",
          "type": "string"
        }
      ],
      "stateMutability": "view",
      "type": "function"
    },
    {
      "inputs": [
        {
          "internalType": "address",
          "name": "_keeperAddress",
          "type": "address"
        }
      ],
      "name": "addKeeper",
      "outputs": [],
      "stateMutability": "nonpayable",
      "type": "function"
    },
    {
      "inputs": [],
      "name": "approveToken",
      "outputs": [],
      "stateMutability": "nonpayable",
      "type": "function"
    },
    {
      "inputs": [],
      "name": "collateral",
      "outputs": [
        {
          "internalType": "address",
          "name": "",
          "type": "address"
        }
      ],
      "stateMutability": "view",
      "type": "function"
    },
    {
      "inputs": [],
      "name": "collateralIdx",
      "outputs": [
        {
          "internalType": "uint256",
          "name": "",
          "type": "uint256"
        }
      ],
      "stateMutability": "view",
      "type": "function"
    },
    {
      "inputs": [],
      "name": "collateralToken",
      "outputs": [
        {
          "internalType": "contract IERC20",
          "name": "",
          "type": "address"
        }
      ],
      "stateMutability": "view",
      "type": "function"
    },
    {
      "inputs": [],
      "name": "convexPoolId",
      "outputs": [
        {
          "internalType": "uint256",
          "name": "",
          "type": "uint256"
        }
      ],
      "stateMutability": "view",
      "type": "function"
    },
    {
      "inputs": [],
      "name": "crvGauge",
      "outputs": [
        {
          "internalType": "contract ILiquidityGaugeV2",
          "name": "",
          "type": "address"
        }
      ],
      "stateMutability": "view",
      "type": "function"
    },
    {
      "inputs": [],
      "name": "crvLp",
      "outputs": [
        {
          "internalType": "contract IERC20",
          "name": "",
          "type": "address"
        }
      ],
      "stateMutability": "view",
      "type": "function"
    },
    {
      "inputs": [],
      "name": "crvPool",
      "outputs": [
        {
          "internalType": "address",
          "name": "",
          "type": "address"
        }
      ],
      "stateMutability": "view",
      "type": "function"
    },
    {
      "inputs": [],
      "name": "crvSlippage",
      "outputs": [
        {
          "internalType": "uint256",
          "name": "",
          "type": "uint256"
        }
      ],
      "stateMutability": "view",
      "type": "function"
    },
    {
      "inputs": [],
      "name": "cvxCrvRewards",
      "outputs": [
        {
          "internalType": "contract Rewards",
          "name": "",
          "type": "address"
        }
      ],
      "stateMutability": "view",
      "type": "function"
    },
    {
      "inputs": [],
      "name": "feeCollector",
      "outputs": [
        {
          "internalType": "address",
          "name": "",
          "type": "address"
        }
      ],
      "stateMutability": "view",
      "type": "function"
    },
    {
      "inputs": [
        {
          "internalType": "address",
          "name": "token_",
          "type": "address"
        }
      ],
      "name": "isReservedToken",
      "outputs": [
        {
          "internalType": "bool",
          "name": "",
          "type": "bool"
        }
      ],
      "stateMutability": "view",
      "type": "function"
    },
    {
      "inputs": [],
      "name": "keepers",
      "outputs": [
        {
          "internalType": "address[]",
          "name": "",
          "type": "address[]"
        }
      ],
      "stateMutability": "view",
      "type": "function"
    },
    {
      "inputs": [],
      "name": "lpBalanceHere",
      "outputs": [
        {
          "internalType": "uint256",
          "name": "_lpHere",
          "type": "uint256"
        }
      ],
      "stateMutability": "view",
      "type": "function"
    },
    {
      "inputs": [],
      "name": "lpBalanceHereAndStaked",
      "outputs": [
        {
          "internalType": "uint256",
          "name": "_lpHereAndStaked",
          "type": "uint256"
        }
      ],
      "stateMutability": "view",
      "type": "function"
    },
    {
      "inputs": [],
      "name": "lpBalanceStaked",
      "outputs": [
        {
          "internalType": "uint256",
          "name": "total",
          "type": "uint256"
        }
      ],
      "stateMutability": "view",
      "type": "function"
    },
    {
      "inputs": [],
      "name": "masterOracle",
      "outputs": [
        {
          "internalType": "contract IMasterOracle",
          "name": "",
          "type": "address"
        }
      ],
      "stateMutability": "view",
      "type": "function"
    },
    {
      "inputs": [
        {
          "internalType": "address",
          "name": "_newStrategy",
          "type": "address"
        }
      ],
      "name": "migrate",
      "outputs": [],
      "stateMutability": "nonpayable",
      "type": "function"
    },
    {
      "inputs": [],
      "name": "pool",
      "outputs": [
        {
          "internalType": "address",
          "name": "",
          "type": "address"
        }
      ],
      "stateMutability": "view",
      "type": "function"
    },
    {
      "inputs": [],
      "name": "rebalance",
      "outputs": [
        {
          "internalType": "uint256",
          "name": "_profit",
          "type": "uint256"
        },
        {
          "internalType": "uint256",
          "name": "_loss",
          "type": "uint256"
        },
        {
          "internalType": "uint256",
          "name": "_payback",
          "type": "uint256"
        }
      ],
      "stateMutability": "nonpayable",
      "type": "function"
    },
    {
      "inputs": [],
      "name": "receiptToken",
      "outputs": [
        {
          "internalType": "address",
          "name": "",
          "type": "address"
        }
      ],
      "stateMutability": "view",
      "type": "function"
    },
    {
      "inputs": [
        {
          "internalType": "address",
          "name": "_keeperAddress",
          "type": "address"
        }
      ],
      "name": "removeKeeper",
      "outputs": [],
      "stateMutability": "nonpayable",
      "type": "function"
    },
    {
      "inputs": [
        {
          "internalType": "uint256",
          "name": "",
          "type": "uint256"
        }
      ],
      "name": "rewardTokens",
      "outputs": [
        {
          "internalType": "address",
          "name": "",
          "type": "address"
        }
      ],
      "stateMutability": "view",
      "type": "function"
    },
    {
      "inputs": [
        {
          "internalType": "address[]",
          "name": "",
          "type": "address[]"
        }
      ],
      "name": "setRewardTokens",
      "outputs": [],
      "stateMutability": "nonpayable",
      "type": "function"
    },
    {
      "inputs": [],
      "name": "swapper",
      "outputs": [
        {
          "internalType": "contract IRoutedSwapper",
          "name": "",
          "type": "address"
        }
      ],
      "stateMutability": "view",
      "type": "function"
    },
    {
      "inputs": [
        {
          "internalType": "address",
          "name": "_fromToken",
          "type": "address"
        }
      ],
      "name": "sweepERC20",
      "outputs": [],
      "stateMutability": "nonpayable",
      "type": "function"
    },
    {
      "inputs": [],
      "name": "token",
      "outputs": [
        {
          "internalType": "address",
          "name": "",
          "type": "address"
        }
      ],
      "stateMutability": "view",
      "type": "function"
    },
    {
      "inputs": [],
      "name": "tvl",
      "outputs": [
        {
          "internalType": "uint256",
          "name": "",
          "type": "uint256"
        }
      ],
      "stateMutability": "view",
      "type": "function"
    },
    {
      "inputs": [
        {
          "internalType": "uint256",
          "name": "newCrvSlippage_",
          "type": "uint256"
        }
      ],
      "name": "updateCrvSlippage",
      "outputs": [],
      "stateMutability": "nonpayable",
      "type": "function"
    },
    {
      "inputs": [
        {
          "internalType": "address",
          "name": "_feeCollector",
          "type": "address"
        }
      ],
      "name": "updateFeeCollector",
      "outputs": [],
      "stateMutability": "nonpayable",
      "type": "function"
    },
    {
      "inputs": [
        {
          "internalType": "contract IMasterOracle",
          "name": "newMasterOracle_",
          "type": "address"
        }
      ],
      "name": "updateMasterOracle",
      "outputs": [],
      "stateMutability": "nonpayable",
      "type": "function"
    },
    {
      "inputs": [
        {
          "internalType": "contract IRoutedSwapper",
          "name": "_swapper",
          "type": "address"
        }
      ],
      "name": "updateSwapper",
      "outputs": [],
      "stateMutability": "nonpayable",
      "type": "function"
    },
    {
      "inputs": [
        {
          "internalType": "uint256",
          "name": "_amount",
          "type": "uint256"
        }
      ],
      "name": "withdraw",
      "outputs": [],
      "stateMutability": "nonpayable",
      "type": "function"
    }
  ],
  "transactionHash": "0xbd2975e87c58f4079178ee5310f2d96fb62069a7d99f67db90e3702f55a8692d",
  "args": [
    "0x0538C8bAc84E95A9dF8aC10Aad17DbE81b9E36ee",
    "0xAA5A67c256e27A5d80712c51971408db3370927D",
    50,
    "0x80704Acdf97723963263c78F861F091ad04F46E2",
    "0x8f156189A3CD28dFc8FB7BbbAce58F98F09c0bB3",
    "0xA79828DF1850E8a3A3064576f380D90aECDD3359",
    1,
    62,
    "Convex_dola_DAI"
  ],
  "numDeployments": 1,
  "solcInputHash": "f2a67b8ea7c8f4f3c24f0dad32579148",
  "bytecode": "0x6101a0604052600580546001600160a01b03191673d533a949740bb3306d119cc777fa900ba034cd521790553480156200003857600080fd5b5060405162005673380380620056738339810160408190526200005b9162001067565b81898989898989898887878787878686868360006001600160a01b038316620000cb5760405162461bcd60e51b815260206004820152601460248201527f706f6f6c2d616464726573732d69732d7a65726f00000000000000000000000060448201526064015b60405180910390fd5b6001600160a01b038216620001235760405162461bcd60e51b815260206004820152601760248201527f737761707065722d616464726573732d69732d7a65726f0000000000000000006044820152606401620000c2565b600280546001600160a01b0319166001600160a01b0384811691909117909155831660a081905260408051637e062a3560e11b8152905163fc0c546a91600480820192602092909190829003018186803b1580156200018157600080fd5b505afa15801562000196573d6000803e3d6000fd5b505050506040513d601f19601f82011682018060405250810190620001bc9190620011b3565b6001600160a01b03908116608052600080546001600160a01b03191691831691909117905562000203620001ed3390565b600362000eed60201b62001a0d1790919060201c565b620002455760405162461bcd60e51b81526020600482015260116024820152701859190b5ad9595c195c8b59985a5b1959607a1b6044820152606401620000c2565b5050504661a86a14156200027f57600580546001600160a01b0319167347536f17f4ff30e64a96a7555826b8f9e66ec468179055620002e7565b4660891415620002b557600580546001600160a01b03191673172370d5cd63279efa6d502dab29171933a610af179055620002e7565b4661a4b11415620002e757600580546001600160a01b0319167311cdb42b0eb46d95f990bedd4695a6e3fa0349781790555b6000806000806f22d53366457f9d5e68ec105046fc43836001600160a01b031663a262904b6040518163ffffffff1660e01b815260040160206040518083038186803b1580156200033757600080fd5b505afa1580156200034c573d6000803e3d6000fd5b505050506040513d601f19601f82011682018060405250810190620003729190620011b3565b604051633795104960e01b81526001600160a01b038c811660048301529192509082169063379510499060240160206040518083038186803b158015620003b857600080fd5b505afa158015620003cd573d6000803e3d6000fd5b505050506040513d601f19601f82011682018060405250810190620003f39190620011b3565b93506001600160a01b03841615806200063f5760405163940494f160e01b81526001600160a01b038c8116600483015283169063940494f190602401604080518083038186803b1580156200044757600080fd5b505afa1580156200045c573d6000803e3d6000fd5b505050506040513d601f19601f82011682018060405250810190620004829190620011da565b602001518710620004cb5760405162461bcd60e51b81526020600482015260126024820152711a5b9d985b1a590b58dbdb1b185d195c985b60721b6044820152606401620000c2565b60405163a77576ef60e01b81526001600160a01b038c8116600483015283169063a77576ef906024016101006040518083038186803b1580156200050e57600080fd5b505afa15801562000523573d6000803e3d6000fd5b505050506040513d601f19601f8201168201806040525081019062000549919062001277565b87600881106200055d576200055d62001261565b60200201516040516356059ffb60e01b81526001600160a01b038d81166004830152919450908316906356059ffb906024016101406040518083038186803b158015620005a957600080fd5b505afa158015620005be573d6000803e3d6000fd5b505050506040513d601f19601f82011682018060405250810190620005e4919062001308565b5193506001600160a01b0384161580156200061b575073dcef968d416a41cdac0ed8702fac8128a64241a26001600160a01b038c16145b15620006395773cfc25170633581bf896cb6cdee170e3e3aa5950393505b62000a8f565b60405163124fd3dd60e21b8152600360048201526000906f22d53366457f9d5e68ec105046fc43839063493f4f749060240160206040518083038186803b1580156200068a57600080fd5b505afa1580156200069f573d6000803e3d6000fd5b505050506040513d601f19601f82011682018060405250810190620006c59190620011b3565b60405163e4d332a960e01b81526001600160a01b038e811660048301529192509082169063e4d332a99060240160206040518083038186803b1580156200070b57600080fd5b505afa15801562000720573d6000803e3d6000fd5b505050506040513d601f19601f82011682018060405250810190620007469190620013a4565b15620008b05760405163eb73f37d60e01b81526001600160a01b038d8116600483015282169063eb73f37d90602401604080518083038186803b1580156200078d57600080fd5b505afa158015620007a2573d6000803e3d6000fd5b505050506040513d601f19601f82011682018060405250810190620007c89190620011da565b602001518810620008115760405162461bcd60e51b81526020600482015260126024820152711a5b9d985b1a590b58dbdb1b185d195c985b60721b6044820152606401620000c2565b60405163a77576ef60e01b81526001600160a01b038d8116600483015282169063a77576ef906024016101006040518083038186803b1580156200085457600080fd5b505afa15801562000869573d6000803e3d6000fd5b505050506040513d601f19601f820116820180604052508101906200088f919062001277565b8860088110620008a357620008a362001261565b6020020151935062000a0b565b60405163940494f160e01b81526001600160a01b038d8116600483015282169063940494f19060240160206040518083038186803b158015620008f257600080fd5b505afa15801562000907573d6000803e3d6000fd5b505050506040513d601f19601f820116820180604052508101906200092d9190620013c2565b8810620009725760405162461bcd60e51b81526020600482015260126024820152711a5b9d985b1a590b58dbdb1b185d195c985b60721b6044820152606401620000c2565b604051639ac90d3d60e01b81526001600160a01b038d81166004830152821690639ac90d3d9060240160806040518083038186803b158015620009b457600080fd5b505afa158015620009c9573d6000803e3d6000fd5b505050506040513d601f19601f82011682018060405250810190620009ef9190620013dc565b886004811062000a035762000a0362001261565b602002015193505b60405163daf297b960e01b81526001600160a01b03808e1660048301528d975082169063daf297b99060240160206040518083038186803b15801562000a5057600080fd5b505afa15801562000a65573d6000803e3d6000fd5b505050506040513d601f19601f8201168201806040525081019062000a8b9190620011b3565b9450505b8b6001600160a01b031663fc0c546a6040518163ffffffff1660e01b815260040160206040518083038186803b15801562000ac957600080fd5b505afa15801562000ade573d6000803e3d6000fd5b505050506040513d601f19601f8201168201806040525081019062000b049190620011b3565b6001600160a01b0316836001600160a01b03161462000b665760405162461bcd60e51b815260206004820152601360248201527f636f6c6c61746572616c2d6d69736d61746368000000000000000000000000006044820152606401620000c2565b6001600160a01b038b1662000bad5760405162461bcd60e51b815260206004820152600c60248201526b1c1bdbdb0b5a5ccb5b9d5b1b60a21b6044820152606401620000c2565b6001600160a01b03851662000bf25760405162461bcd60e51b815260206004820152600a6024820152691b1c0b5a5ccb5b9d5b1b60b21b6044820152606401620000c2565b6001600160a01b03841662000c3a5760405162461bcd60e51b815260206004820152600d60248201526c19d85d59d94b5a5ccb5b9d5b1b609a1b6044820152606401620000c2565b6001600160a01b03808c1660e05285811660c08190529085166101005260078b9055600080546001600160a01b0319169091179055610120879052855162000c8a90600690602089019062000f5f565b5088600860006101000a8154816001600160a01b0302191690836001600160a01b031602179055506009600560009054906101000a90046001600160a01b03169080600181540180825580915050600190039060005260206000200160009091909190916101000a8154816001600160a01b0302191690836001600160a01b03160217905550505050505050505050505050826001600160a01b0316610140816001600160a01b0316815250505050505050505050600073f403c135812408bfbe8713b5a23a04b3d48aae316001600160a01b0316631526fe27836040518263ffffffff1660e01b815260040162000d8491815260200190565b60c06040518083038186803b15801562000d9d57600080fd5b505afa15801562000db2573d6000803e3d6000fd5b505050506040513d601f19601f8201168201806040525081019062000dd8919062001461565b50506001600160a01b0316610160525050506101809190915250604051631526fe2760e01b81526004810183905260009073f403c135812408bfbe8713b5a23a04b3d48aae3190631526fe279060240160c06040518083038186803b15801562000e4157600080fd5b505afa15801562000e56573d6000803e3d6000fd5b505050506040513d601f19601f8201168201806040525081019062000e7c919062001461565b5050505050905060c0516001600160a01b0316816001600160a01b03161462000edd5760405162461bcd60e51b815260206004820152601260248201527134b731b7b93932b1ba16b63816ba37b5b2b760711b6044820152606401620000c2565b505050505050505050506200152d565b600062000f04836001600160a01b03841662000f0d565b90505b92915050565b600081815260018301602052604081205462000f565750815460018181018455600084815260208082209093018490558454848252828601909352604090209190915562000f07565b50600062000f07565b82805462000f6d90620014f0565b90600052602060002090601f01602090048101928262000f91576000855562000fdc565b82601f1062000fac57805160ff191683800117855562000fdc565b8280016001018555821562000fdc579182015b8281111562000fdc57825182559160200191906001019062000fbf565b5062000fea92915062000fee565b5090565b5b8082111562000fea576000815560010162000fef565b6001600160a01b03811681146200101b57600080fd5b50565b634e487b7160e01b600052604160045260246000fd5b604051601f8201601f191681016001600160401b03811182821017156200105f576200105f6200101e565b604052919050565b60008060008060008060008060006101208a8c0312156200108757600080fd5b8951620010948162001005565b809950506020808b0151620010a98162001005565b60408c015160608d0151919a509850620010c38162001005565b60808c0151909750620010d68162001005565b60a08c0151909650620010e98162001005565b60c08c015160e08d01516101008e015192975090955093506001600160401b03808211156200111757600080fd5b818d0191508d601f8301126200112c57600080fd5b8151818111156200114157620011416200101e565b62001155601f8201601f1916850162001034565b91508082528e848285010111156200116c57600080fd5b60005b818110156200118c5783810185015183820186015284016200116f565b818111156200119e5760008583850101525b50508093505050509295985092959850929598565b600060208284031215620011c657600080fd5b8151620011d38162001005565b9392505050565b600060408284031215620011ed57600080fd5b82601f830112620011fd57600080fd5b604080519081016001600160401b03811182821017156200122257620012226200101e565b80604052508060408401858111156200123a57600080fd5b845b81811015620012565780518352602092830192016200123c565b509195945050505050565b634e487b7160e01b600052603260045260246000fd5b60006101008083850312156200128c57600080fd5b83601f8401126200129c57600080fd5b6040518181016001600160401b0381118282101715620012c057620012c06200101e565b604052908301908085831115620012d657600080fd5b845b83811015620012fd578051620012ee8162001005565b825260209182019101620012d8565b509095945050505050565b60006101408083850312156200131d57600080fd5b83601f8401126200132d57600080fd5b6040518181016001600160401b03811182821017156200135157620013516200101e565b6040529083019080858311156200136757600080fd5b845b83811015620012fd5780516200137f8162001005565b82526020918201910162001369565b805180151581146200139f57600080fd5b919050565b600060208284031215620013b757600080fd5b62000f04826200138e565b600060208284031215620013d557600080fd5b5051919050565b600060808284031215620013ef57600080fd5b82601f830112620013ff57600080fd5b604051608081016001600160401b03811182821017156200142457620014246200101e565b6040528060808401858111156200143a57600080fd5b845b8181101562001256578051620014528162001005565b8352602092830192016200143c565b60008060008060008060c087890312156200147b57600080fd5b8651620014888162001005565b60208801519096506200149b8162001005565b6040880151909550620014ae8162001005565b6060880151909450620014c18162001005565b6080880151909350620014d48162001005565b9150620014e460a088016200138e565b90509295509295509295565b600181811c908216806200150557607f821691505b602082108114156200152757634e487b7160e01b600052602260045260246000fd5b50919050565b60805160a05160c05160e0516101005161012051610140516101605161018051613ef96200177a6000396000818161059e015261373e0152600081816104780152818161103601528181611bdb01528181611c9001528181611ef0015281816128a701528181612c3701526133cd0152600081816126cf01528181612ac901528181612b1d01528181612e1b015261362f015260008181610348015281816119980152818161214501528181612ff10152613594015260008181610604015261354e0152600081816104d901528181613473015261365c01526000818161040c01528181610c9c01528181610d2b015281816116dc01528181612097015281816121e5015281816123f40152818161269601528181612afb01528181612ddb0152818161352c015281816135f001526136a20152600081816102850152818161064c015281816107a10152818161093801528181610a5401528181610b3201528181610b8e01528181610ef40152818161106e0152818161110b01528181611337015281816115000152818161228f01528181612e8501528181612f2501526138550152600081816104b20152818161055a015281816108df0152818161099701528181610a3201528181610aa601528181610b6501528181610cd70152818161129b015281816117e2015281816119d8015281816122060152818161230a01528181612aa701528181612fc60152818161304b015281816131a3015281816131e5015281816132c901528181613451015281816134a5015281816135cf01526138330152613ef96000f3fe608060405234801561001057600080fd5b50600436106102535760003560e01c8063a3f4df7e11610146578063d572fd7f116100c3578063e5328e0611610087578063e5328e06146105c0578063eaada382146105c8578063ec78e832146105db578063fc0c546a146105ee578063fd57a4df146105ff578063ffa1ad741461062657600080fd5b8063d572fd7f1461054f578063d8dfeb4514610558578063de603fdc1461057e578063e00af4a714610586578063e529ee951461059957600080fd5b8063c415b95c1161010a578063c415b95c146104fb578063c965fa8a1461050e578063ce5494bb14610516578063d2c35ce814610529578063d3033c391461053c57600080fd5b8063a3f4df7e1461045e578063a7404b7014610473578063abc9b45e1461049a578063b2016bd4146104ad578063b20fdc0d146104d457600080fd5b806374db9ad4116101d45780637d7c2a1c116101985780637d7c2a1c146103e45780637f44579b14610407578063945c91421461042e578063951dc22c1461044157806399b71d5c1461045657600080fd5b806374db9ad414610378578063759cb53b1461039357806375b0ffd1146103ae578063795dae66146103c95780637bb7bed1146103d157600080fd5b80632b3297f91161021b5780632b3297f9146102e75780632e1a7d4d146102fa5780634032b72b1461030d578063440d72481461032057806348cd2ddd1461034357600080fd5b806304f4efc51461025857806314ae9f2e1461026d57806316f0115b146102805780631848effa146102bd578063201e81a8146102d4575b600080fd5b61026b610266366004613a6f565b61064a565b005b61026b61027b366004613aad565b61079f565b6102a77f000000000000000000000000000000000000000000000000000000000000000081565b6040516102b49190613aca565b60405180910390f35b6102a76f22d53366457f9d5e68ec105046fc438381565b61026b6102e2366004613af4565b6108b1565b6002546102a7906001600160a01b031681565b61026b610308366004613a6f565b610935565b61026b61031b366004613aad565b610b8c565b61033361032e366004613aad565b610c98565b60405190151581526020016102b4565b61036a7f000000000000000000000000000000000000000000000000000000000000000081565b6040519081526020016102b4565b6102a773d061d61a4d941c39e5453435b6345dc261c2fce081565b6102a7734e3fbd56cd56c3e72c1403e103b45db9da5b9d2b81565b6102a773f403c135812408bfbe8713b5a23a04b3d48aae3181565b61036a610d11565b6102a76103df366004613a6f565b610db5565b6103ec610ddf565b604080519384526020840192909252908201526060016102b4565b6102a77f000000000000000000000000000000000000000000000000000000000000000081565b6005546102a7906001600160a01b031681565b610449610e1c565b6040516102b49190613bb9565b61026b610e28565b610466610e64565b6040516102b49190613c32565b6102a77f000000000000000000000000000000000000000000000000000000000000000081565b61026b6104a8366004613aad565b610ef2565b6102a77f000000000000000000000000000000000000000000000000000000000000000081565b6102a77f000000000000000000000000000000000000000000000000000000000000000081565b6001546102a7906001600160a01b031681565b61036a61101c565b61026b610524366004613aad565b61106b565b61026b610537366004613aad565b611335565b61026b61054a366004613aad565b6114fe565b61036a60075481565b7f00000000000000000000000000000000000000000000000000000000000000006102a7565b61036a6116bb565b61026b610594366004613aad565b61176b565b61036a7f000000000000000000000000000000000000000000000000000000000000000081565b61036a611986565b6008546102a7906001600160a01b031681565b6000546102a7906001600160a01b031681565b6000546001600160a01b03166102a7565b6102a77f000000000000000000000000000000000000000000000000000000000000000081565b610466604051806040016040528060058152602001640352e302e360dc1b81525081565b7f00000000000000000000000000000000000000000000000000000000000000006001600160a01b0316630c340a246040518163ffffffff1660e01b815260040160206040518083038186803b1580156106a357600080fd5b505afa1580156106b7573d6000803e3d6000fd5b505050506040513d601f19601f820116820180604052508101906106db9190613c65565b6001600160a01b0316336001600160a01b0316146107145760405162461bcd60e51b815260040161070b90613c82565b60405180910390fd5b612710811061075e5760405162461bcd60e51b8152602060048201526016602482015275696e76616c69642d736c6970706167652d76616c756560501b604482015260640161070b565b60075460408051918252602082018390527f43a94473b3422f31e660358900c02b907f22142a3224beace1f2b9f1fa079a9e910160405180910390a1600755565b7f00000000000000000000000000000000000000000000000000000000000000006001600160a01b0316630c340a246040518163ffffffff1660e01b815260040160206040518083038186803b1580156107f857600080fd5b505afa15801561080c573d6000803e3d6000fd5b505050506040513d601f19601f820116820180604052508101906108309190613c65565b6001600160a01b0316336001600160a01b0316146108605760405162461bcd60e51b815260040161070b90613c82565b61086b600382611a29565b6108ae5760405162461bcd60e51b81526020600482015260146024820152731c995b5bdd994b5ad9595c195c8b59985a5b195960621b604482015260640161070b565b50565b6108be335b600390611a3e565b6108da5760405162461bcd60e51b815260040161070b90613cb9565b6109037f0000000000000000000000000000000000000000000000000000000000000000611a60565b61090b611bd4565b805161091f916009916020909101906139db565b5061092a600061208a565b6108ae60001961208a565b337f00000000000000000000000000000000000000000000000000000000000000006001600160a01b03161461097d5760405162461bcd60e51b815260040161070b90613ce9565b6040516370a0823160e01b81526000906001600160a01b037f000000000000000000000000000000000000000000000000000000000000000016906370a08231906109cc903090600401613aca565b60206040518083038186803b1580156109e457600080fd5b505afa1580156109f8573d6000803e3d6000fd5b505050506040513d601f19601f82011682018060405250810190610a1c9190613d1c565b9050818110610a7d57610a796001600160a01b037f0000000000000000000000000000000000000000000000000000000000000000167f0000000000000000000000000000000000000000000000000000000000000000846120db565b5050565b610a8f610a8a8284613d4b565b61213e565b6040516370a0823160e01b81526001600160a01b037f000000000000000000000000000000000000000000000000000000000000000016906370a0823190610adb903090600401613aca565b60206040518083038186803b158015610af357600080fd5b505afa158015610b07573d6000803e3d6000fd5b505050506040513d601f19601f82011682018060405250810190610b2b9190613d1c565b9050610a797f0000000000000000000000000000000000000000000000000000000000000000610b5b8484612240565b6001600160a01b037f00000000000000000000000000000000000000000000000000000000000000001691906120db565b7f00000000000000000000000000000000000000000000000000000000000000006001600160a01b0316630c340a246040518163ffffffff1660e01b815260040160206040518083038186803b158015610be557600080fd5b505afa158015610bf9573d6000803e3d6000fd5b505050506040513d601f19601f82011682018060405250810190610c1d9190613c65565b6001600160a01b0316336001600160a01b031614610c4d5760405162461bcd60e51b815260040161070b90613c82565b610c58600382611a0d565b6108ae5760405162461bcd60e51b81526020600482015260116024820152701859190b5ad9595c195c8b59985a5b1959607a1b604482015260640161070b565b60007f00000000000000000000000000000000000000000000000000000000000000006001600160a01b0316826001600160a01b03161480610d0b57507f00000000000000000000000000000000000000000000000000000000000000006001600160a01b0316826001600160a01b0316145b92915050565b6040516370a0823160e01b81526000906001600160a01b037f000000000000000000000000000000000000000000000000000000000000000016906370a0823190610d60903090600401613aca565b60206040518083038186803b158015610d7857600080fd5b505afa158015610d8c573d6000803e3d6000fd5b505050506040513d601f19601f82011682018060405250810190610db09190613d1c565b905090565b60098181548110610dc557600080fd5b6000918252602090912001546001600160a01b0316905081565b60008080610dec336108b6565b610e085760405162461bcd60e51b815260040161070b90613cb9565b610e10612256565b9250925092505b909192565b6060610db060036122fb565b610e31336108b6565b610e4d5760405162461bcd60e51b815260040161070b90613cb9565b610e57600061208a565b610e6260001961208a565b565b60068054610e7190613d62565b80601f0160208091040260200160405190810160405280929190818152602001828054610e9d90613d62565b8015610eea5780601f10610ebf57610100808354040283529160200191610eea565b820191906000526020600020905b815481529060010190602001808311610ecd57829003601f168201915b505050505081565b7f00000000000000000000000000000000000000000000000000000000000000006001600160a01b0316630c340a246040518163ffffffff1660e01b815260040160206040518083038186803b158015610f4b57600080fd5b505afa158015610f5f573d6000803e3d6000fd5b505050506040513d601f19601f82011682018060405250810190610f839190613c65565b6001600160a01b0316336001600160a01b031614610fb35760405162461bcd60e51b815260040161070b90613c82565b600854604080516001600160a01b03928316815291831660208301527fc96bca3f57d35a1057a3357bced51fac157918147faa56845639671c516ec69c910160405180910390a1600880546001600160a01b0319166001600160a01b0392909216919091179055565b6040516370a0823160e01b81526000906001600160a01b037f000000000000000000000000000000000000000000000000000000000000000016906370a0823190610d60903090600401613aca565b337f00000000000000000000000000000000000000000000000000000000000000006001600160a01b0316146110b35760405162461bcd60e51b815260040161070b90613ce9565b6001600160a01b0381166111095760405162461bcd60e51b815260206004820152601c60248201527f6e65772d73747261746567792d616464726573732d69732d7a65726f00000000604482015260640161070b565b7f00000000000000000000000000000000000000000000000000000000000000006001600160a01b0316816001600160a01b03166316f0115b6040518163ffffffff1660e01b815260040160206040518083038186803b15801561116c57600080fd5b505afa158015611180573d6000803e3d6000fd5b505050506040513d601f19601f820116820180604052508101906111a49190613c65565b6001600160a01b0316146111f35760405162461bcd60e51b81526020600482015260166024820152756e6f742d76616c69642d6e65772d737472617465677960501b604482015260640161070b565b6111fc81612308565b6000546040516370a0823160e01b81526112959183916001600160a01b03909116906370a0823190611232903090600401613aca565b60206040518083038186803b15801561124a57600080fd5b505afa15801561125e573d6000803e3d6000fd5b505050506040513d601f19601f820116820180604052508101906112829190613d1c565b6000546001600160a01b031691906120db565b6108ae817f00000000000000000000000000000000000000000000000000000000000000006001600160a01b03166370a08231306040518263ffffffff1660e01b81526004016112e59190613aca565b60206040518083038186803b1580156112fd57600080fd5b505afa158015611311573d6000803e3d6000fd5b505050506040513d601f19601f82011682018060405250810190610b5b9190613d1c565b7f00000000000000000000000000000000000000000000000000000000000000006001600160a01b0316630c340a246040518163ffffffff1660e01b815260040160206040518083038186803b15801561138e57600080fd5b505afa1580156113a2573d6000803e3d6000fd5b505050506040513d601f19601f820116820180604052508101906113c69190613c65565b6001600160a01b0316336001600160a01b0316146113f65760405162461bcd60e51b815260040161070b90613c82565b6001600160a01b03811661144c5760405162461bcd60e51b815260206004820152601d60248201527f6665652d636f6c6c6563746f722d616464726573732d69732d7a65726f000000604482015260640161070b565b6001546001600160a01b03828116911614156114a25760405162461bcd60e51b81526020600482015260156024820152746665652d636f6c6c6563746f722d69732d73616d6560581b604482015260640161070b565b6001546040516001600160a01b038084169216907f0f06062680f9bd68e786e9980d9bb03d73d5620fc3b345e417b6eacb310b970690600090a3600180546001600160a01b0319166001600160a01b0392909216919091179055565b7f00000000000000000000000000000000000000000000000000000000000000006001600160a01b0316630c340a246040518163ffffffff1660e01b815260040160206040518083038186803b15801561155757600080fd5b505afa15801561156b573d6000803e3d6000fd5b505050506040513d601f19601f8201168201806040525081019061158f9190613c65565b6001600160a01b0316336001600160a01b0316146115bf5760405162461bcd60e51b815260040161070b90613c82565b6001600160a01b03811661160f5760405162461bcd60e51b8152602060048201526017602482015276737761707065722d616464726573732d69732d7a65726f60481b604482015260640161070b565b6002546001600160a01b038281169116141561165f5760405162461bcd60e51b815260206004820152600f60248201526e737761707065722d69732d73616d6560881b604482015260640161070b565b6002546040516001600160a01b038084169216907f6c953b7ec311055c20b96a42cea31e89528e375b1bf953a503db40854b3188fe90600090a3600280546001600160a01b0319166001600160a01b0392909216919091179055565b60006116c561101c565b6040516370a0823160e01b81526001600160a01b037f000000000000000000000000000000000000000000000000000000000000000016906370a0823190611711903090600401613aca565b60206040518083038186803b15801561172957600080fd5b505afa15801561173d573d6000803e3d6000fd5b505050506040513d601f19601f820116820180604052508101906117619190613d1c565b610db09190613d9d565b611774336108b6565b6117905760405162461bcd60e51b815260040161070b90613cb9565b6001546001600160a01b03166117e05760405162461bcd60e51b81526020600482015260156024820152741999594b58dbdb1b1958dd1bdc8b5b9bdd0b5cd95d605a1b604482015260640161070b565b7f00000000000000000000000000000000000000000000000000000000000000006001600160a01b0316816001600160a01b031614156118625760405162461bcd60e51b815260206004820152601f60248201527f6e6f742d616c6c6f7765642d746f2d73776565702d636f6c6c61746572616c00604482015260640161070b565b61186b81610c98565b156118af5760405162461bcd60e51b815260206004820152601460248201527306e6f742d616c6c6f7765642d746f2d73776565760641b604482015260640161070b565b6001600160a01b03811673eeeeeeeeeeeeeeeeeeeeeeeeeeeeeeeeeeeeeeee14156118ea576001546108ae906001600160a01b0316476124e1565b6040516370a0823160e01b81526000906001600160a01b038316906370a0823190611919903090600401613aca565b60206040518083038186803b15801561193157600080fd5b505afa158015611945573d6000803e3d6000fd5b505050506040513d601f19601f820116820180604052508101906119699190613d1c565b600154909150610a79906001600160a01b038481169116836120db565b60006119c16119936116bb565b6119bc7f00000000000000000000000000000000000000000000000000000000000000006125fa565b612677565b6040516370a0823160e01b81526001600160a01b037f000000000000000000000000000000000000000000000000000000000000000016906370a0823190611711903090600401613aca565b6000611a22836001600160a01b038416612749565b9392505050565b6000611a22836001600160a01b038416612798565b6001600160a01b03811660009081526001830160205260408120541515611a22565b611a6861288b565b60095460005b81811015611bcf57600060098281548110611a8b57611a8b613db5565b60009182526020822001546040516370a0823160e01b81526001600160a01b03909116925082906370a0823190611ac6903090600401613aca565b60206040518083038186803b158015611ade57600080fd5b505afa158015611af2573d6000803e3d6000fd5b505050506040513d601f19601f82011682018060405250810190611b169190613d1c565b90508015611bbc57600254604051636ccb2b0160e01b81526001600160a01b0384811660048301528781166024830152604482018490526001606483015230608483015290911690636ccb2b019060a401602060405180830381600087803b158015611b8157600080fd5b505af1925050508015611bb1575060408051601f3d908101601f19168201909252611bae91810190613d1c565b60015b611bba57611bbc565b505b505080611bc890613dcb565b9050611a6e565b505050565b60606000807f00000000000000000000000000000000000000000000000000000000000000006001600160a01b031663d55a23f46040518163ffffffff1660e01b815260040160206040518083038186803b158015611c3257600080fd5b505afa158015611c46573d6000803e3d6000fd5b505050506040513d601f19601f82011682018060405250810190611c6a9190613d1c565b905060005b81811015611df257604051632061aa2360e11b8152600481018290526000907f00000000000000000000000000000000000000000000000000000000000000006001600160a01b0316906340c354469060240160206040518083038186803b158015611cda57600080fd5b505afa158015611cee573d6000803e3d6000fd5b505050506040513d601f19601f82011682018060405250810190611d129190613c65565b6001600160a01b031663f7c618c16040518163ffffffff1660e01b815260040160206040518083038186803b158015611d4a57600080fd5b505afa158015611d5e573d6000803e3d6000fd5b505050506040513d601f19601f82011682018060405250810190611d829190613c65565b90506001600160a01b03811673d533a949740bb3306d119cc777fa900ba034cd5214801590611dce57506001600160a01b038116734e3fbd56cd56c3e72c1403e103b45db9da5b9d2b14155b15611de15783611ddd81613dcb565b9450505b50611deb81613dcb565b9050611c6f565b50611dfe826002613d9d565b67ffffffffffffffff811115611e1657611e16613ade565b604051908082528060200260200182016040528015611e3f578160200160208202803683370190505b50925073d533a949740bb3306d119cc777fa900ba034cd5283600081518110611e6a57611e6a613db5565b60200260200101906001600160a01b031690816001600160a01b031681525050734e3fbd56cd56c3e72c1403e103b45db9da5b9d2b83600181518110611eb257611eb2613db5565b6001600160a01b0390921660209283029190910190910152600260005b8281101561208357604051632061aa2360e11b8152600481018290526000907f00000000000000000000000000000000000000000000000000000000000000006001600160a01b0316906340c354469060240160206040518083038186803b158015611f3a57600080fd5b505afa158015611f4e573d6000803e3d6000fd5b505050506040513d601f19601f82011682018060405250810190611f729190613c65565b6001600160a01b031663f7c618c16040518163ffffffff1660e01b815260040160206040518083038186803b158015611faa57600080fd5b505afa158015611fbe573d6000803e3d6000fd5b505050506040513d601f19601f82011682018060405250810190611fe29190613c65565b90506001600160a01b03811673d533a949740bb3306d119cc777fa900ba034cd521480159061202e57506001600160a01b038116734e3fbd56cd56c3e72c1403e103b45db9da5b9d2b14155b156120725780868461203f81613dcb565b95508151811061205157612051613db5565b60200260200101906001600160a01b031690816001600160a01b0316815250505b5061207c81613dcb565b9050611ecf565b5050505090565b6120d26001600160a01b037f00000000000000000000000000000000000000000000000000000000000000001673f403c135812408bfbe8713b5a23a04b3d48aae318361296d565b6108ae81612a91565b6040516001600160a01b038316602482015260448101829052611bcf90849063a9059cbb60e01b906064015b60408051601f198184030181529190526020810180516001600160e01b03166001600160e01b031990931692909217909152612b42565b60006121697f00000000000000000000000000000000000000000000000000000000000000006125fa565b90506000612175610d11565b9050600061218161101c565b61218b9083613d9d565b905060006121b661219c8386612677565b6121a68488613de6565b6121b09190613e05565b83612240565b9050806121c4575050505050565b828111156121de576121de6121d98483613d4b565b612c14565b600061222b7f00000000000000000000000000000000000000000000000000000000000000007f000000000000000000000000000000000000000000000000000000000000000084612d07565b9050612238828287612dc4565b505050505050565b600081831061224f5781611a22565b5090919050565b6000806000612263612e7d565b6040516302df682360e11b815260048101849052602481018390526044810182905292955090935091507f00000000000000000000000000000000000000000000000000000000000000006001600160a01b0316906305bed04690606401600060405180830381600087803b1580156122db57600080fd5b505af11580156122ef573d6000803e3d6000fd5b50505050610e176132ae565b60606000611a228361335b565b7f00000000000000000000000000000000000000000000000000000000000000006001600160a01b0316816001600160a01b031663d8dfeb456040518163ffffffff1660e01b815260040160206040518083038186803b15801561236b57600080fd5b505afa15801561237f573d6000803e3d6000fd5b505050506040513d601f19601f820116820180604052508101906123a39190613c65565b6001600160a01b0316146123f25760405162461bcd60e51b81526020600482015260166024820152753bb937b73396b1b7b63630ba32b930b616ba37b5b2b760511b604482015260640161070b565b7f00000000000000000000000000000000000000000000000000000000000000006001600160a01b0316816001600160a01b031663fc0c546a6040518163ffffffff1660e01b815260040160206040518083038186803b15801561245557600080fd5b505afa158015612469573d6000803e3d6000fd5b505050506040513d601f19601f8201168201806040525081019061248d9190613c65565b6001600160a01b0316146124d95760405162461bcd60e51b81526020600482015260136024820152723bb937b73396b932b1b2b4b83a16ba37b5b2b760691b604482015260640161070b565b6108ae6133b7565b804710156125315760405162461bcd60e51b815260206004820152601d60248201527f416464726573733a20696e73756666696369656e742062616c616e6365000000604482015260640161070b565b6000826001600160a01b03168260405160006040518083038185875af1925050503d806000811461257e576040519150601f19603f3d011682016040523d82523d6000602084013e612583565b606091505b5050905080611bcf5760405162461bcd60e51b815260206004820152603a60248201527f416464726573733a20756e61626c6520746f2073656e642076616c75652c207260448201527f6563697069656e74206d61792068617665207265766572746564000000000000606482015260840161070b565b600060016001607f1b0319821215801561261757506001607f1b82125b6126735760405162461bcd60e51b815260206004820152602760248201527f53616665436173743a2076616c756520646f65736e27742066697420696e20316044820152663238206269747360c81b606482015260840161070b565b5090565b60008215610d0b576040516341b028f360e01b81526001600160a01b037f00000000000000000000000000000000000000000000000000000000000000008116600483015260248201859052600f84900b60448301527f000000000000000000000000000000000000000000000000000000000000000016906341b028f39060640160206040518083038186803b15801561271157600080fd5b505afa158015612725573d6000803e3d6000fd5b505050506040513d601f19601f82011682018060405250810190611a229190613d1c565b600081815260018301602052604081205461279057508154600181810184556000848152602080822090930184905584548482528286019093526040902091909155610d0b565b506000610d0b565b600081815260018301602052604081205480156128815760006127bc600183613d4b565b85549091506000906127d090600190613d4b565b90508181146128355760008660000182815481106127f0576127f0613db5565b906000526020600020015490508087600001848154811061281357612813613db5565b6000918252602080832090910192909255918252600188019052604090208390555b855486908061284657612846613e27565b600190038181906000526020600020016000905590558560010160008681526020019081526020016000206000905560019350505050610d0b565b6000915050610d0b565b604051637050ccd960e01b8152306004820152600160248201527f00000000000000000000000000000000000000000000000000000000000000006001600160a01b031690637050ccd990604401602060405180830381600087803b1580156128f357600080fd5b505af1158015612907573d6000803e3d6000fd5b505050506040513d601f19601f8201168201806040525081019061292b9190613e3d565b610e625760405162461bcd60e51b81526020600482015260136024820152721c995dd85c990b58db185a5b4b59985a5b1959606a1b604482015260640161070b565b8015806129f65750604051636eb1769f60e11b81523060048201526001600160a01b03838116602483015284169063dd62ed3e9060440160206040518083038186803b1580156129bc57600080fd5b505afa1580156129d0573d6000803e3d6000fd5b505050506040513d601f19601f820116820180604052508101906129f49190613d1c565b155b612a615760405162461bcd60e51b815260206004820152603660248201527f5361666545524332303a20617070726f76652066726f6d206e6f6e2d7a65726f60448201527520746f206e6f6e2d7a65726f20616c6c6f77616e636560501b606482015260840161070b565b6040516001600160a01b038316602482015260448101829052611bcf90849063095ea7b360e01b90606401612107565b612a9a81613433565b612aee6001600160a01b037f0000000000000000000000000000000000000000000000000000000000000000167f00000000000000000000000000000000000000000000000000000000000000008361296d565b6108ae6001600160a01b037f0000000000000000000000000000000000000000000000000000000000000000167f00000000000000000000000000000000000000000000000000000000000000008361296d565b6000612b97826040518060400160405280602081526020017f5361666545524332303a206c6f772d6c6576656c2063616c6c206661696c6564815250856001600160a01b03166135739092919063ffffffff16565b805190915015611bcf5780806020019051810190612bb59190613e3d565b611bcf5760405162461bcd60e51b815260206004820152602a60248201527f5361666545524332303a204552433230206f7065726174696f6e20646964206e6044820152691bdd081cdd58d8d9595960b21b606482015260840161070b565b80156108ae57604051636197390160e11b815260048101829052600060248201527f00000000000000000000000000000000000000000000000000000000000000006001600160a01b03169063c32e720290604401602060405180830381600087803b158015612c8357600080fd5b505af1158015612c97573d6000803e3d6000fd5b505050506040513d601f19601f82011682018060405250810190612cbb9190613e3d565b6108ae5760405162461bcd60e51b815260206004820152601a60248201527f77697468647261772d616e642d756e777261702d6661696c6564000000000000604482015260640161070b565b6000612710600754612710612d1c9190613d4b565b600854604051632d9198e160e21b81526001600160a01b0388811660048301528781166024830152604482018790529091169063b64663849060640160206040518083038186803b158015612d7057600080fd5b505afa158015612d84573d6000803e3d6000fd5b505050506040513d601f19601f82011682018060405250810190612da89190613d1c565b612db29190613de6565b612dbc9190613e05565b949350505050565b6040516314f6943160e11b81526001600160a01b037f00000000000000000000000000000000000000000000000000000000000000008116600483015260248201859052600f83900b6044830152606482018490527f000000000000000000000000000000000000000000000000000000000000000016906329ed2862906084015b600060405180830381600087803b158015612e6057600080fd5b505af1158015612e74573d6000803e3d6000fd5b50505050505050565b6000806000807f00000000000000000000000000000000000000000000000000000000000000006001600160a01b031663d53ddc26306040518263ffffffff1660e01b8152600401612ecf9190613aca565b60206040518083038186803b158015612ee757600080fd5b505afa158015612efb573d6000803e3d6000fd5b505050506040513d601f19601f82011682018060405250810190612f1f9190613d1c565b905060007f00000000000000000000000000000000000000000000000000000000000000006001600160a01b0316639f2b2833306040518263ffffffff1660e01b8152600401612f6f9190613aca565b60206040518083038186803b158015612f8757600080fd5b505afa158015612f9b573d6000803e3d6000fd5b505050506040513d601f19601f82011682018060405250810190612fbf9190613d1c565b9050612fea7f0000000000000000000000000000000000000000000000000000000000000000611a60565b60006130157f00000000000000000000000000000000000000000000000000000000000000006125fa565b90506000613021610d11565b9050600061302d61101c565b6130379083613d9d565b905060006130458285612677565b905060007f00000000000000000000000000000000000000000000000000000000000000006001600160a01b03166370a08231306040518263ffffffff1660e01b81526004016130959190613aca565b60206040518083038186803b1580156130ad57600080fd5b505afa1580156130c1573d6000803e3d6000fd5b505050506040513d601f19601f820116820180604052508101906130e59190613d1c565b905060006130f38383613d9d565b90508681111561310e576131078782613d4b565b9a5061311b565b6131188188613d4b565b99505b6000613127898d613d9d565b9050828111156132715760006131466131408584613d4b565b86612240565b9050801561326f57600061316e8661315e8985613de6565b6131689190613e05565b88612240565b9050801561326d578781111561318b5761318b6121d98983613d4b565b6000546131ce9082906131c8906001600160a01b03167f000000000000000000000000000000000000000000000000000000000000000083612d07565b8b612dc4565b6040516370a0823160e01b81526001600160a01b037f000000000000000000000000000000000000000000000000000000000000000016906370a082319061321a903090600401613aca565b60206040518083038186803b15801561323257600080fd5b505afa158015613246573d6000803e3d6000fd5b505050506040513d601f19601f8201168201806040525081019061326a9190613d1c565b94505b505b505b61327b838a612240565b995089831161328b57600061329e565b61329e6132988b85613d4b565b8d612240565b9b50505050505050505050909192565b6040516370a0823160e01b8152613353906001600160a01b037f000000000000000000000000000000000000000000000000000000000000000016906370a08231906132fe903090600401613aca565b60206040518083038186803b15801561331657600080fd5b505afa15801561332a573d6000803e3d6000fd5b505050506040513d601f19601f8201168201806040525081019061334e9190613d1c565b613582565b610e62613688565b6060816000018054806020026020016040519081016040528092919081815260200182805480156133ab57602002820191906000526020600020905b815481526020019060010190808311613397575b50505050509050919050565b6040516324f81cd160e11b8152600160048201527f00000000000000000000000000000000000000000000000000000000000000006001600160a01b0316906349f039a290602401600060405180830381600087803b15801561341957600080fd5b505af115801561342d573d6000803e3d6000fd5b50505050565b61343c81613826565b6002546001600160a01b0390811690613498907f0000000000000000000000000000000000000000000000000000000000000000167f00000000000000000000000000000000000000000000000000000000000000008461296d565b6134cc6001600160a01b037f000000000000000000000000000000000000000000000000000000000000000016828461296d565b60095460005b8181101561351e5761350e8385600984815481106134f2576134f2613db5565b6000918252602090912001546001600160a01b0316919061296d565b61351781613dcb565b90506134d2565b50611bcf6001600160a01b037f0000000000000000000000000000000000000000000000000000000000000000167f00000000000000000000000000000000000000000000000000000000000000008561296d565b6060612dbc848460008561387a565b80156108ae57613590613a3c565b81817f0000000000000000000000000000000000000000000000000000000000000000600481106135c3576135c3613db5565b602002015260006136157f00000000000000000000000000000000000000000000000000000000000000007f000000000000000000000000000000000000000000000000000000000000000085612d07565b60405163384e03db60e01b81529091506001600160a01b037f0000000000000000000000000000000000000000000000000000000000000000169063384e03db90612e46907f00000000000000000000000000000000000000000000000000000000000000009086908690600401613e5f565b6040516370a0823160e01b81526000906001600160a01b037f000000000000000000000000000000000000000000000000000000000000000016906370a08231906136d7903090600401613aca565b60206040518083038186803b1580156136ef57600080fd5b505afa158015613703573d6000803e3d6000fd5b505050506040513d601f19601f820116820180604052508101906137279190613d1c565b905080156108ae576040516321d0683360e11b81527f00000000000000000000000000000000000000000000000000000000000000006004820152602481018290526001604482015273f403c135812408bfbe8713b5a23a04b3d48aae31906343a0d06690606401602060405180830381600087803b1580156137a957600080fd5b505af11580156137bd573d6000803e3d6000fd5b505050506040513d601f19601f820116820180604052508101906137e19190613e3d565b6108ae5760405162461bcd60e51b8152602060048201526016602482015275189bdbdcdd195c8b59195c1bdcda5d0b59985a5b195960521b604482015260640161070b565b6108ae6001600160a01b037f0000000000000000000000000000000000000000000000000000000000000000167f00000000000000000000000000000000000000000000000000000000000000008361296d565b6060824710156138db5760405162461bcd60e51b815260206004820152602660248201527f416464726573733a20696e73756666696369656e742062616c616e636520666f6044820152651c8818d85b1b60d21b606482015260840161070b565b843b6139295760405162461bcd60e51b815260206004820152601d60248201527f416464726573733a2063616c6c20746f206e6f6e2d636f6e7472616374000000604482015260640161070b565b600080866001600160a01b031685876040516139459190613ea7565b60006040518083038185875af1925050503d8060008114613982576040519150601f19603f3d011682016040523d82523d6000602084013e613987565b606091505b50915091506139978282866139a2565b979650505050505050565b606083156139b1575081611a22565b8251156139c15782518084602001fd5b8160405162461bcd60e51b815260040161070b9190613c32565b828054828255906000526020600020908101928215613a30579160200282015b82811115613a3057825182546001600160a01b0319166001600160a01b039091161782556020909201916001909101906139fb565b50612673929150613a5a565b60405180608001604052806004906020820280368337509192915050565b5b808211156126735760008155600101613a5b565b600060208284031215613a8157600080fd5b5035919050565b6001600160a01b03811681146108ae57600080fd5b8035613aa881613a88565b919050565b600060208284031215613abf57600080fd5b8135611a2281613a88565b6001600160a01b0391909116815260200190565b634e487b7160e01b600052604160045260246000fd5b60006020808385031215613b0757600080fd5b823567ffffffffffffffff80821115613b1f57600080fd5b818501915085601f830112613b3357600080fd5b813581811115613b4557613b45613ade565b8060051b604051601f19603f83011681018181108582111715613b6a57613b6a613ade565b604052918252848201925083810185019188831115613b8857600080fd5b938501935b82851015613bad57613b9e85613a9d565b84529385019392850192613b8d565b98975050505050505050565b6020808252825182820181905260009190848201906040850190845b81811015613bfa5783516001600160a01b031683529284019291840191600101613bd5565b50909695505050505050565b60005b83811015613c21578181015183820152602001613c09565b8381111561342d5750506000910152565b6020815260008251806020840152613c51816040850160208701613c06565b601f01601f19169190910160400192915050565b600060208284031215613c7757600080fd5b8151611a2281613a88565b6020808252601a908201527f63616c6c65722d69732d6e6f742d7468652d676f7665726e6f72000000000000604082015260600190565b60208082526016908201527531b0b63632b916b4b996b737ba16b096b5b2b2b832b960511b604082015260600190565b60208082526019908201527818d85b1b195c8b5a5ccb5b9bdd0b5d995cdc195c8b5c1bdbdb603a1b604082015260600190565b600060208284031215613d2e57600080fd5b5051919050565b634e487b7160e01b600052601160045260246000fd5b600082821015613d5d57613d5d613d35565b500390565b600181811c90821680613d7657607f821691505b60208210811415613d9757634e487b7160e01b600052602260045260246000fd5b50919050565b60008219821115613db057613db0613d35565b500190565b634e487b7160e01b600052603260045260246000fd5b6000600019821415613ddf57613ddf613d35565b5060010190565b6000816000190483118215151615613e0057613e00613d35565b500290565b600082613e2257634e487b7160e01b600052601260045260246000fd5b500490565b634e487b7160e01b600052603160045260246000fd5b600060208284031215613e4f57600080fd5b81518015158114611a2257600080fd5b6001600160a01b038416815260c0810160208083018560005b6004811015613e9557815183529183019190830190600101613e78565b505050508260a0830152949350505050565b60008251613eb9818460208701613c06565b919091019291505056fea2646970667358221220660c771fdc5dcfb4a93dd857da79389314934354c0e26bcd0a03b639bd73479064736f6c63430008090033",
  "devdoc": {
    "kind": "dev",
    "methods": {
      "addKeeper(address)": {
        "params": {
          "_keeperAddress": "keeper address to add."
        }
      },
      "approveToken()": {
        "details": "Approve all required tokens"
      },
      "isReservedToken(address)": {
        "details": "Check whether given token is reserved or not. Reserved tokens are not allowed to sweep."
      },
      "migrate(address)": {
        "details": "_beforeMigration hook can be implemented in child strategy to do extra steps.",
        "params": {
          "_newStrategy": "Address of new strategy"
        }
      },
      "rebalance()": {
        "returns": {
          "_loss": "Realized loss, if any, in collateral.",
          "_payback": "If strategy has any excess debt, we have to liquidate asset to payback excess debt.",
          "_profit": "Realized profit in collateral."
        }
      },
      "removeKeeper(address)": {
        "params": {
          "_keeperAddress": "keeper address to remove."
        }
      },
      "setRewardTokens(address[])": {
        "details": "convex pool can add new rewards. This method refresh list."
      },
      "sweepERC20(address)": {
        "params": {
          "_fromToken": "token address to sweep"
        }
      },
      "updateFeeCollector(address)": {
        "params": {
          "_feeCollector": "fee collector address"
        }
      },
      "updateSwapper(address)": {
        "params": {
          "_swapper": "swapper address"
        }
      },
      "withdraw(uint256)": {
        "params": {
          "_amount": "Amount of collateral token"
        }
      }
    },
    "title": "This strategy will deposit collateral token in Curve 4MetaPool and stake lp token to convex.",
    "version": 1
  },
  "userdoc": {
    "kind": "user",
    "methods": {
      "addKeeper(address)": {
        "notice": "Add given address in keepers list."
      },
      "collateral()": {
        "notice": "Returns address of token correspond to collateral token"
      },
      "keepers()": {
        "notice": "Return list of keepers"
      },
      "migrate(address)": {
        "notice": "Migrate all asset and vault ownership,if any, to new strategy"
      },
      "rebalance()": {
        "notice": "OnlyKeeper: Rebalance profit, loss and investment of this strategy.  Calculate profit, loss and payback of this strategy and realize profit/loss and  withdraw fund for payback, if any, and submit this report to pool."
      },
      "removeKeeper(address)": {
        "notice": "Remove given address from keepers list."
      },
      "sweepERC20(address)": {
        "notice": "sweep given token to feeCollector of strategy"
      },
      "token()": {
        "notice": "Returns address of token correspond to receipt token"
      },
      "tvl()": {
        "notice": "Returns collateral balance + collateral deposited to curve"
      },
      "updateFeeCollector(address)": {
        "notice": "Update fee collector"
      },
      "updateSwapper(address)": {
        "notice": "Update swapper"
      },
      "withdraw(uint256)": {
        "notice": "Withdraw collateral token from end protocol."
      }
    },
    "version": 1
  },
  "storageLayout": {
    "storage": [
      {
        "astId": 13472,
        "contract": "vesper-strategies/contracts/strategies/convex/4Pool/Convex4FactoryMetaPool.sol:Convex4FactoryMetaPool",
        "label": "receiptToken",
        "offset": 0,
        "slot": "0",
        "type": "t_address"
      },
      {
        "astId": 13478,
        "contract": "vesper-strategies/contracts/strategies/convex/4Pool/Convex4FactoryMetaPool.sol:Convex4FactoryMetaPool",
        "label": "feeCollector",
        "offset": 0,
        "slot": "1",
        "type": "t_address"
      },
      {
        "astId": 13481,
        "contract": "vesper-strategies/contracts/strategies/convex/4Pool/Convex4FactoryMetaPool.sol:Convex4FactoryMetaPool",
        "label": "swapper",
        "offset": 0,
        "slot": "2",
        "type": "t_contract(IRoutedSwapper)12333"
      },
      {
        "astId": 13494,
        "contract": "vesper-strategies/contracts/strategies/convex/4Pool/Convex4FactoryMetaPool.sol:Convex4FactoryMetaPool",
        "label": "_keepers",
        "offset": 0,
        "slot": "3",
        "type": "t_struct(AddressSet)3012_storage"
      },
      {
        "astId": 20833,
        "contract": "vesper-strategies/contracts/strategies/convex/4Pool/Convex4FactoryMetaPool.sol:Convex4FactoryMetaPool",
        "label": "CRV",
        "offset": 0,
        "slot": "5",
        "type": "t_address"
      },
      {
        "astId": 20835,
        "contract": "vesper-strategies/contracts/strategies/convex/4Pool/Convex4FactoryMetaPool.sol:Convex4FactoryMetaPool",
        "label": "NAME",
        "offset": 0,
        "slot": "6",
        "type": "t_string_storage"
      },
      {
        "astId": 20839,
        "contract": "vesper-strategies/contracts/strategies/convex/4Pool/Convex4FactoryMetaPool.sol:Convex4FactoryMetaPool",
        "label": "crvSlippage",
        "offset": 0,
        "slot": "7",
        "type": "t_uint256"
      },
      {
        "astId": 20842,
        "contract": "vesper-strategies/contracts/strategies/convex/4Pool/Convex4FactoryMetaPool.sol:Convex4FactoryMetaPool",
        "label": "masterOracle",
        "offset": 0,
        "slot": "8",
        "type": "t_contract(IMasterOracle)12017"
      },
      {
        "astId": 20845,
        "contract": "vesper-strategies/contracts/strategies/convex/4Pool/Convex4FactoryMetaPool.sol:Convex4FactoryMetaPool",
        "label": "rewardTokens",
        "offset": 0,
        "slot": "9",
        "type": "t_array(t_address)dyn_storage"
      }
    ],
    "types": {
      "t_address": {
        "encoding": "inplace",
        "label": "address",
        "numberOfBytes": "20"
      },
      "t_array(t_address)dyn_storage": {
        "base": "t_address",
        "encoding": "dynamic_array",
        "label": "address[]",
        "numberOfBytes": "32"
      },
      "t_array(t_bytes32)dyn_storage": {
        "base": "t_bytes32",
        "encoding": "dynamic_array",
        "label": "bytes32[]",
        "numberOfBytes": "32"
      },
      "t_bytes32": {
        "encoding": "inplace",
        "label": "bytes32",
        "numberOfBytes": "32"
      },
      "t_contract(IMasterOracle)12017": {
        "encoding": "inplace",
        "label": "contract IMasterOracle",
        "numberOfBytes": "20"
      },
      "t_contract(IRoutedSwapper)12333": {
        "encoding": "inplace",
        "label": "contract IRoutedSwapper",
        "numberOfBytes": "20"
      },
      "t_mapping(t_bytes32,t_uint256)": {
        "encoding": "mapping",
        "key": "t_bytes32",
        "label": "mapping(bytes32 => uint256)",
        "numberOfBytes": "32",
        "value": "t_uint256"
      },
      "t_string_storage": {
        "encoding": "bytes",
        "label": "string",
        "numberOfBytes": "32"
      },
      "t_struct(AddressSet)3012_storage": {
        "encoding": "inplace",
        "label": "struct EnumerableSet.AddressSet",
        "members": [
          {
            "astId": 3011,
            "contract": "vesper-strategies/contracts/strategies/convex/4Pool/Convex4FactoryMetaPool.sol:Convex4FactoryMetaPool",
            "label": "_inner",
            "offset": 0,
            "slot": "0",
            "type": "t_struct(Set)2711_storage"
          }
        ],
        "numberOfBytes": "64"
      },
      "t_struct(Set)2711_storage": {
        "encoding": "inplace",
        "label": "struct EnumerableSet.Set",
        "members": [
          {
            "astId": 2706,
            "contract": "vesper-strategies/contracts/strategies/convex/4Pool/Convex4FactoryMetaPool.sol:Convex4FactoryMetaPool",
            "label": "_values",
            "offset": 0,
            "slot": "0",
            "type": "t_array(t_bytes32)dyn_storage"
          },
          {
            "astId": 2710,
            "contract": "vesper-strategies/contracts/strategies/convex/4Pool/Convex4FactoryMetaPool.sol:Convex4FactoryMetaPool",
            "label": "_indexes",
            "offset": 0,
            "slot": "1",
            "type": "t_mapping(t_bytes32,t_uint256)"
          }
        ],
        "numberOfBytes": "64"
      },
      "t_uint256": {
        "encoding": "inplace",
        "label": "uint256",
        "numberOfBytes": "32"
      }
    }
  }
}