{
  "address": "0xf1886Aa6F728D9006141644207ebC7f4090c17Ad",
  "abi": [
    {
      "inputs": [
        {
          "internalType": "address",
          "name": "pool_",
          "type": "address"
        },
        {
          "internalType": "address",
          "name": "swapper_",
          "type": "address"
        },
        {
          "internalType": "address",
          "name": "euler_",
          "type": "address"
        },
        {
          "internalType": "contract IEulerMarkets",
          "name": "eulerMarkets_",
          "type": "address"
        },
        {
          "internalType": "contract IExec",
          "name": "eulerExec_",
          "type": "address"
        },
        {
          "internalType": "contract IEulDistributor",
          "name": "rewardDistributor_",
          "type": "address"
        },
        {
          "internalType": "address",
          "name": "rewardToken_",
          "type": "address"
        },
        {
          "internalType": "address",
          "name": "borrowToken_",
          "type": "address"
        },
        {
          "internalType": "address",
          "name": "vPool_",
          "type": "address"
        },
        {
          "internalType": "address",
          "name": "vsp_",
          "type": "address"
        },
        {
          "internalType": "string",
          "name": "name_",
          "type": "string"
        }
      ],
      "stateMutability": "nonpayable",
      "type": "constructor"
    },
    {
      "anonymous": false,
      "inputs": [
        {
          "indexed": false,
          "internalType": "uint256",
          "name": "previousMinBorrowLimit",
          "type": "uint256"
        },
        {
          "indexed": false,
          "internalType": "uint256",
          "name": "newMinBorrowLimit",
          "type": "uint256"
        },
        {
          "indexed": false,
          "internalType": "uint256",
          "name": "previousMaxBorrowLimit",
          "type": "uint256"
        },
        {
          "indexed": false,
          "internalType": "uint256",
          "name": "newMaxBorrowLimit",
          "type": "uint256"
        }
      ],
      "name": "UpdatedBorrowLimit",
      "type": "event"
    },
    {
      "anonymous": false,
      "inputs": [
        {
          "indexed": true,
          "internalType": "address",
          "name": "previousFeeCollector",
          "type": "address"
        },
        {
          "indexed": true,
          "internalType": "address",
          "name": "newFeeCollector",
          "type": "address"
        }
      ],
      "name": "UpdatedFeeCollector",
      "type": "event"
    },
    {
      "anonymous": false,
      "inputs": [
        {
          "indexed": true,
          "internalType": "contract IRoutedSwapper",
          "name": "oldSwapper",
          "type": "address"
        },
        {
          "indexed": true,
          "internalType": "contract IRoutedSwapper",
          "name": "newSwapper",
          "type": "address"
        }
      ],
      "name": "UpdatedSwapper",
      "type": "event"
    },
    {
      "inputs": [],
      "name": "NAME",
      "outputs": [
        {
          "internalType": "string",
          "name": "",
          "type": "string"
        }
      ],
      "stateMutability": "view",
      "type": "function"
    },
    {
      "inputs": [],
      "name": "VERSION",
      "outputs": [
        {
          "internalType": "string",
          "name": "",
          "type": "string"
        }
      ],
      "stateMutability": "view",
      "type": "function"
    },
    {
      "inputs": [
        {
          "internalType": "address",
          "name": "_keeperAddress",
          "type": "address"
        }
      ],
      "name": "addKeeper",
      "outputs": [],
      "stateMutability": "nonpayable",
      "type": "function"
    },
    {
      "inputs": [],
      "name": "approveToken",
      "outputs": [],
      "stateMutability": "nonpayable",
      "type": "function"
    },
    {
      "inputs": [],
      "name": "borrowDToken",
      "outputs": [
        {
          "internalType": "contract IDToken",
          "name": "",
          "type": "address"
        }
      ],
      "stateMutability": "view",
      "type": "function"
    },
    {
      "inputs": [],
      "name": "borrowToken",
      "outputs": [
        {
          "internalType": "address",
          "name": "",
          "type": "address"
        }
      ],
      "stateMutability": "view",
      "type": "function"
    },
    {
      "inputs": [],
      "name": "collateral",
      "outputs": [
        {
          "internalType": "address",
          "name": "",
          "type": "address"
        }
      ],
      "stateMutability": "view",
      "type": "function"
    },
    {
      "inputs": [],
      "name": "collateralToken",
      "outputs": [
        {
          "internalType": "contract IERC20",
          "name": "",
          "type": "address"
        }
      ],
      "stateMutability": "view",
      "type": "function"
    },
    {
      "inputs": [],
      "name": "euler",
      "outputs": [
        {
          "internalType": "address",
          "name": "",
          "type": "address"
        }
      ],
      "stateMutability": "view",
      "type": "function"
    },
    {
      "inputs": [],
      "name": "eulerExec",
      "outputs": [
        {
          "internalType": "contract IExec",
          "name": "",
          "type": "address"
        }
      ],
      "stateMutability": "view",
      "type": "function"
    },
    {
      "inputs": [],
      "name": "eulerMarkets",
      "outputs": [
        {
          "internalType": "contract IEulerMarkets",
          "name": "",
          "type": "address"
        }
      ],
      "stateMutability": "view",
      "type": "function"
    },
    {
      "inputs": [],
      "name": "feeCollector",
      "outputs": [
        {
          "internalType": "address",
          "name": "",
          "type": "address"
        }
      ],
      "stateMutability": "view",
      "type": "function"
    },
    {
      "inputs": [
        {
          "internalType": "uint256",
          "name": "claimable_",
          "type": "uint256"
        },
        {
          "internalType": "bytes32[]",
          "name": "proof_",
          "type": "bytes32[]"
        }
      ],
      "name": "harvestEul",
      "outputs": [],
      "stateMutability": "nonpayable",
      "type": "function"
    },
    {
      "inputs": [],
      "name": "harvestVSP",
      "outputs": [],
      "stateMutability": "nonpayable",
      "type": "function"
    },
    {
      "inputs": [
        {
          "internalType": "address",
          "name": "token_",
          "type": "address"
        }
      ],
      "name": "isReservedToken",
      "outputs": [
        {
          "internalType": "bool",
          "name": "",
          "type": "bool"
        }
      ],
      "stateMutability": "view",
      "type": "function"
    },
    {
      "inputs": [],
      "name": "keepers",
      "outputs": [
        {
          "internalType": "address[]",
          "name": "",
          "type": "address[]"
        }
      ],
      "stateMutability": "view",
      "type": "function"
    },
    {
      "inputs": [],
      "name": "maxBorrowLimit",
      "outputs": [
        {
          "internalType": "uint256",
          "name": "",
          "type": "uint256"
        }
      ],
      "stateMutability": "view",
      "type": "function"
    },
    {
      "inputs": [
        {
          "internalType": "address",
          "name": "_newStrategy",
          "type": "address"
        }
      ],
      "name": "migrate",
      "outputs": [],
      "stateMutability": "nonpayable",
      "type": "function"
    },
    {
      "inputs": [],
      "name": "minBorrowLimit",
      "outputs": [
        {
          "internalType": "uint256",
          "name": "",
          "type": "uint256"
        }
      ],
      "stateMutability": "view",
      "type": "function"
    },
    {
      "inputs": [],
      "name": "pool",
      "outputs": [
        {
          "internalType": "address",
          "name": "",
          "type": "address"
        }
      ],
      "stateMutability": "view",
      "type": "function"
    },
    {
      "inputs": [],
      "name": "rebalance",
      "outputs": [
        {
          "internalType": "uint256",
          "name": "_profit",
          "type": "uint256"
        },
        {
          "internalType": "uint256",
          "name": "_loss",
          "type": "uint256"
        },
        {
          "internalType": "uint256",
          "name": "_payback",
          "type": "uint256"
        }
      ],
      "stateMutability": "nonpayable",
      "type": "function"
    },
    {
      "inputs": [],
      "name": "receiptToken",
      "outputs": [
        {
          "internalType": "address",
          "name": "",
          "type": "address"
        }
      ],
      "stateMutability": "view",
      "type": "function"
    },
    {
      "inputs": [
        {
          "internalType": "address",
          "name": "_keeperAddress",
          "type": "address"
        }
      ],
      "name": "removeKeeper",
      "outputs": [],
      "stateMutability": "nonpayable",
      "type": "function"
    },
    {
      "inputs": [],
      "name": "rewardDistributor",
      "outputs": [
        {
          "internalType": "contract IEulDistributor",
          "name": "",
          "type": "address"
        }
      ],
      "stateMutability": "view",
      "type": "function"
    },
    {
      "inputs": [],
      "name": "rewardToken",
      "outputs": [
        {
          "internalType": "address",
          "name": "",
          "type": "address"
        }
      ],
      "stateMutability": "view",
      "type": "function"
    },
    {
      "inputs": [],
      "name": "swapper",
      "outputs": [
        {
          "internalType": "contract IRoutedSwapper",
          "name": "",
          "type": "address"
        }
      ],
      "stateMutability": "view",
      "type": "function"
    },
    {
      "inputs": [
        {
          "internalType": "address",
          "name": "_fromToken",
          "type": "address"
        }
      ],
      "name": "sweepERC20",
      "outputs": [],
      "stateMutability": "nonpayable",
      "type": "function"
    },
    {
      "inputs": [],
      "name": "token",
      "outputs": [
        {
          "internalType": "address",
          "name": "",
          "type": "address"
        }
      ],
      "stateMutability": "view",
      "type": "function"
    },
    {
      "inputs": [],
      "name": "tvl",
      "outputs": [
        {
          "internalType": "uint256",
          "name": "",
          "type": "uint256"
        }
      ],
      "stateMutability": "view",
      "type": "function"
    },
    {
      "inputs": [
        {
          "internalType": "uint256",
          "name": "minBorrowLimit_",
          "type": "uint256"
        },
        {
          "internalType": "uint256",
          "name": "maxBorrowLimit_",
          "type": "uint256"
        }
      ],
      "name": "updateBorrowLimit",
      "outputs": [],
      "stateMutability": "nonpayable",
      "type": "function"
    },
    {
      "inputs": [
        {
          "internalType": "address",
          "name": "_feeCollector",
          "type": "address"
        }
      ],
      "name": "updateFeeCollector",
      "outputs": [],
      "stateMutability": "nonpayable",
      "type": "function"
    },
    {
      "inputs": [
        {
          "internalType": "contract IRoutedSwapper",
          "name": "_swapper",
          "type": "address"
        }
      ],
      "name": "updateSwapper",
      "outputs": [],
      "stateMutability": "nonpayable",
      "type": "function"
    },
    {
      "inputs": [],
      "name": "vPool",
      "outputs": [
        {
          "internalType": "contract IVesperPool",
          "name": "",
          "type": "address"
        }
      ],
      "stateMutability": "view",
      "type": "function"
    },
    {
      "inputs": [],
      "name": "vsp",
      "outputs": [
        {
          "internalType": "address",
          "name": "",
          "type": "address"
        }
      ],
      "stateMutability": "view",
      "type": "function"
    },
    {
      "inputs": [
        {
          "internalType": "uint256",
          "name": "_amount",
          "type": "uint256"
        }
      ],
      "name": "withdraw",
      "outputs": [],
      "stateMutability": "nonpayable",
      "type": "function"
    }
  ],
  "transactionHash": "0xab55cfcff9043a2f954d9ba8661c32a40664bedf8a609c8cbaecbc827fe6fa6e",
  "args": [
    "0x0538C8bAc84E95A9dF8aC10Aad17DbE81b9E36ee",
    "0x8f156189A3CD28dFc8FB7BbbAce58F98F09c0bB3",
    "0x27182842E098f60e3D576794A5bFFb0777E025d3",
    "0x3520d5a913427E6F0D6A83E07ccD4A4da316e4d3",
    "0x59828FdF7ee634AaaD3f58B19fDBa3b03E2D9d80",
    "0xd524E29E3BAF5BB085403Ca5665301E94387A7e2",
    "0xd9Fcd98c322942075A5C3860693e9f4f03AAE07b",
    "0xA0b86991c6218b36c1d19D4a2e9Eb0cE3606eB48",
    "0xa8b607Aa09B6A2E306F93e74c282Fb13f6A80452",
    "0x1b40183EFB4Dd766f11bDa7A7c3AD8982e998421",
    "Euler_Vesper_Xy_DAI_USDC"
  ],
  "numDeployments": 1,
  "solcInputHash": "265a3dd7cc28d808e4e1218c8b3e1cfe",
  "bytecode": "0x610240604052611b586006556121346007553480156200001e57600080fd5b50604051620057db380380620057db833981016040819052620000419162000a79565b8a8a8a8a8a8a8a8a88888860006001600160a01b038316620000aa5760405162461bcd60e51b815260206004820152601460248201527f706f6f6c2d616464726573732d69732d7a65726f00000000000000000000000060448201526064015b60405180910390fd5b6001600160a01b038216620001025760405162461bcd60e51b815260206004820152601760248201527f737761707065722d616464726573732d69732d7a65726f0000000000000000006044820152606401620000a1565b600280546001600160a01b0319166001600160a01b0384811691909117909155831660a081905260408051637e062a3560e11b8152905163fc0c546a91600480820192602092909190829003018186803b1580156200016057600080fd5b505afa15801562000175573d6000803e3d6000fd5b505050506040513d601f19601f820116820180604052508101906200019b919062000b7d565b6001600160a01b03908116608052600080546001600160a01b031916918316919091179055620001e2620001cc3390565b60036200086960201b62001b191790919060201c565b620002245760405162461bcd60e51b81526020600482015260116024820152701859190b5ad9595c195c8b59985a5b1959607a1b6044820152606401620000a1565b5050506001600160a01b0387166200027f5760405162461bcd60e51b815260206004820152601e60248201527f65756c65722d70726f746f636f6c2d616464726573732d69732d6e756c6c00006044820152606401620000a1565b6001600160a01b038616620002d75760405162461bcd60e51b815260206004820152601660248201527f6d61726b65742d616464726573732d69732d6e756c6c000000000000000000006044820152606401620000a1565b6001600160a01b0385166200032f5760405162461bcd60e51b815260206004820152601a60248201527f65756c65722d657865632d616464726573732d69732d6e756c6c0000000000006044820152606401620000a1565b6001600160a01b038416620003875760405162461bcd60e51b815260206004820152601b60248201527f6469737472696275746f722d616464726573732d69732d6e756c6c00000000006044820152606401620000a1565b6001600160a01b038316620003df5760405162461bcd60e51b815260206004820152601660248201527f7265776172642d616464726573732d69732d6e756c6c000000000000000000006044820152606401620000a1565b6001600160a01b038216620004375760405162461bcd60e51b815260206004820152601c60248201527f626f72726f772d746f6b656e2d616464726573732d69732d6e756c6c000000006044820152606401620000a1565b6001600160a01b0380881660c05286811660e05285811661010052848116610120528381166101405282166101605280516200047b906005906020840190620008db565b50608051604051638948874960e01b81526001600160a01b0391821660048201529087169063894887499060240160206040518083038186803b158015620004c257600080fd5b505afa158015620004d7573d6000803e3d6000fd5b505050506040513d601f19601f82011682018060405250810190620004fd919062000b7d565b600080546001600160a01b0319166001600160a01b0392831690811790915561018052608051604051630d9802c160e11b8152908216600482015290871690631b3005829060240160206040518083038186803b1580156200055e57600080fd5b505afa15801562000573573d6000803e3d6000fd5b505050506040513d601f19601f8201168201806040525081019062000599919062000b7d565b6001600160a01b039081166101a052604051638948874960e01b815283821660048201529087169063894887499060240160206040518083038186803b158015620005e357600080fd5b505afa158015620005f8573d6000803e3d6000fd5b505050506040513d601f19601f820116820180604052508101906200061e919062000b7d565b6001600160a01b039081166101c052604051630d9802c160e11b8152838216600482015290871690631b3005829060240160206040518083038186803b1580156200066857600080fd5b505afa1580156200067d573d6000803e3d6000fd5b505050506040513d601f19601f82011682018060405250810190620006a3919062000b7d565b6001600160a01b039081166101e0526080516040516373f0b43760e01b8152600060048201529082166024820152908716906373f0b43790604401600060405180830381600087803b158015620006f957600080fd5b505af11580156200070e573d6000803e3d6000fd5b50505050506001600160a01b038a16151597506200077796505050505050505760405162461bcd60e51b815260206004820152601360248201527f7673702d616464726573732d69732d7a65726f000000000000000000000000006044820152606401620000a1565b610160516001600160a01b0316836001600160a01b031663fc0c546a6040518163ffffffff1660e01b815260040160206040518083038186803b158015620007be57600080fd5b505afa158015620007d3573d6000803e3d6000fd5b505050506040513d601f19601f82011682018060405250810190620007f9919062000b7d565b6001600160a01b031614620008455760405162461bcd60e51b81526020600482015260116024820152701a5b9d985b1a590b59dc9bddcb5c1bdbdb607a1b6044820152606401620000a1565b506001600160a01b039182166102005216610220525062000be19650505050505050565b600062000880836001600160a01b03841662000889565b90505b92915050565b6000818152600183016020526040812054620008d25750815460018181018455600084815260208082209093018490558454848252828601909352604090209190915562000883565b50600062000883565b828054620008e99062000ba4565b90600052602060002090601f0160209004810192826200090d576000855562000958565b82601f106200092857805160ff191683800117855562000958565b8280016001018555821562000958579182015b82811115620009585782518255916020019190600101906200093b565b50620009669291506200096a565b5090565b5b808211156200096657600081556001016200096b565b6001600160a01b03811681146200099757600080fd5b50565b8051620009a78162000981565b919050565b634e487b7160e01b600052604160045260246000fd5b600082601f830112620009d457600080fd5b81516001600160401b0380821115620009f157620009f1620009ac565b604051601f8301601f19908116603f0116810190828211818310171562000a1c5762000a1c620009ac565b8160405283815260209250868385880101111562000a3957600080fd5b600091505b8382101562000a5d578582018301518183018401529082019062000a3e565b8382111562000a6f5760008385830101525b9695505050505050565b60008060008060008060008060008060006101608c8e03121562000a9c57600080fd5b8b5162000aa98162000981565b60208d0151909b5062000abc8162000981565b995062000acc60408d016200099a565b985062000adc60608d016200099a565b975062000aec60808d016200099a565b965062000afc60a08d016200099a565b955062000b0c60c08d016200099a565b945062000b1c60e08d016200099a565b935062000b2d6101008d016200099a565b925062000b3e6101208d016200099a565b6101408d01519092506001600160401b0381111562000b5c57600080fd5b62000b6a8e828f01620009c2565b9150509295989b509295989b9093969950565b60006020828403121562000b9057600080fd5b815162000b9d8162000981565b9392505050565b600181811c9082168062000bb957607f821691505b6020821081141562000bdb57634e487b7160e01b600052602260045260246000fd5b50919050565b60805160a05160c05160e05161010051610120516101405161016051610180516101a0516101c0516101e05161020051610220516148ea62000ef16000396000818161026701528181610be601528181610c78015261272301526000818161034001528181610acd015281816126ed01528181612d9c01528181612e3801528181613a1b01528181613e4401528181613f2e0152613f610152600081816102b401528181610a8f01528181611bb301528181611e620152818161240a01528181612581015281816128cd0152818161393601526139a40152600061391501526000612cd50152600081816118c501528181611c6401528181611fe00152818161239a015281816124bb01528181612cb401528181612d2301526130b101526000818161031101528181610a5301528181612600015281816126cb01528181612ef201528181612f69015281816131830152818161322c015281816132be015281816133ef0152818161364a015281816137da01528181613b540152613ba801526000818161051401528181610e4901528181610ec501528181610f580152613bdc0152600081816103e30152610e1a01526000818161039f015281816133c2015261346f01526000818161024001528181613566015261361b0152600081816104b601528181613aee0152613b7601526000818161020c015281816105800152818161069c015281816107b801528181610896015281816108f201528181610fa70152818161104401528181611270015281816114390152818161195601528181611dc20152818161208e01528181612272015261408801526000818161040a0152818161048d015281816106fb015281816107960152818161080a015281816108c901528181610a0001528181610c9901528181610f79015281816111d40152818161166b0152818161182901528181611f5501528181612196015281816122ef01528181612f410152818161301801528181613161015281816132df0152818161349e015281816135930152818161370201528181613acc01528181613b20015261406601526148ea6000f3fe608060405234801561001057600080fd5b50600436106101d15760003560e01c8063a3f4df7e11610105578063db661b711161009d578063db661b71146104b1578063e00af4a7146104d8578063e260d747146104eb578063e5328e06146104f4578063ec78e832146104fc578063f7c618c11461050f578063fb7ee10214610536578063fc0c546a14610549578063ffa1ad741461055a57600080fd5b8063a3f4df7e146103c9578063acc2166a146103de578063b2016bd414610405578063c415b95c1461042c578063c7ffbb5c1461043f578063ce5494bb14610452578063d2c35ce814610465578063d3033c3914610478578063d8dfeb451461048b57600080fd5b80634032b72b116101785780634032b72b146102d6578063440d7248146102e9578063456dc17a1461030c5780634fc90c2c146103335780636719578c1461033b5780637d7c2a1c14610362578063951dc22c146103855780639970d9a01461039a57806399b71d5c146103c157600080fd5b80630181686c146101d657806314ae9f2e146101f257806316f0115b146102075780631e7c6a2e1461023b57806329ba73ed146102625780632b3297f9146102895780632e1a7d4d1461029c5780633b5aa124146102af575b600080fd5b6101df60075481565b6040519081526020015b60405180910390f35b610205610200366004614223565b61057e565b005b61022e7f000000000000000000000000000000000000000000000000000000000000000081565b6040516101e99190614240565b61022e7f000000000000000000000000000000000000000000000000000000000000000081565b61022e7f000000000000000000000000000000000000000000000000000000000000000081565b60025461022e906001600160a01b031681565b6102056102aa366004614254565b610699565b61022e7f000000000000000000000000000000000000000000000000000000000000000081565b6102056102e4366004614223565b6108f0565b6102fc6102f7366004614223565b6109fc565b60405190151581526020016101e9565b61022e7f000000000000000000000000000000000000000000000000000000000000000081565b610205610ac9565b61022e7f000000000000000000000000000000000000000000000000000000000000000081565b61036a610cc3565b604080519384526020840192909252908201526060016101e9565b61038d610d03565b6040516101e9919061426d565b61022e7f000000000000000000000000000000000000000000000000000000000000000081565b610205610d14565b6103d1610d50565b6040516101e991906142e6565b61022e7f000000000000000000000000000000000000000000000000000000000000000081565b61022e7f000000000000000000000000000000000000000000000000000000000000000081565b60015461022e906001600160a01b031681565b61020561044d366004614319565b610dde565b610205610460366004614223565b610fa4565b610205610473366004614223565b61126e565b610205610486366004614223565b611437565b7f000000000000000000000000000000000000000000000000000000000000000061022e565b61022e7f000000000000000000000000000000000000000000000000000000000000000081565b6102056104e6366004614223565b6115f4565b6101df60065481565b6101df61180f565b60005461022e906001600160a01b031681565b61022e7f000000000000000000000000000000000000000000000000000000000000000081565b610205610544366004614398565b611954565b6000546001600160a01b031661022e565b6103d1604051806040016040528060058152602001640352e302e360dc1b81525081565b7f00000000000000000000000000000000000000000000000000000000000000006001600160a01b0316630c340a246040518163ffffffff1660e01b815260040160206040518083038186803b1580156105d757600080fd5b505afa1580156105eb573d6000803e3d6000fd5b505050506040513d601f19601f8201168201806040525081019061060f91906143ba565b6001600160a01b0316336001600160a01b0316146106485760405162461bcd60e51b815260040161063f906143d7565b60405180910390fd5b610653600382611b35565b6106965760405162461bcd60e51b81526020600482015260146024820152731c995b5bdd994b5ad9595c195c8b59985a5b195960621b604482015260640161063f565b50565b337f00000000000000000000000000000000000000000000000000000000000000006001600160a01b0316146106e15760405162461bcd60e51b815260040161063f9061440e565b6040516370a0823160e01b81526000906001600160a01b037f000000000000000000000000000000000000000000000000000000000000000016906370a0823190610730903090600401614240565b60206040518083038186803b15801561074857600080fd5b505afa15801561075c573d6000803e3d6000fd5b505050506040513d601f19601f820116820180604052508101906107809190614441565b90508181106107e1576107dd6001600160a01b037f0000000000000000000000000000000000000000000000000000000000000000167f000000000000000000000000000000000000000000000000000000000000000084611b4a565b5050565b6107f36107ee8284614470565b611bad565b6040516370a0823160e01b81526001600160a01b037f000000000000000000000000000000000000000000000000000000000000000016906370a082319061083f903090600401614240565b60206040518083038186803b15801561085757600080fd5b505afa15801561086b573d6000803e3d6000fd5b505050506040513d601f19601f8201168201806040525081019061088f9190614441565b90506107dd7f00000000000000000000000000000000000000000000000000000000000000006108bf8484611cee565b6001600160a01b037f0000000000000000000000000000000000000000000000000000000000000000169190611b4a565b7f00000000000000000000000000000000000000000000000000000000000000006001600160a01b0316630c340a246040518163ffffffff1660e01b815260040160206040518083038186803b15801561094957600080fd5b505afa15801561095d573d6000803e3d6000fd5b505050506040513d601f19601f8201168201806040525081019061098191906143ba565b6001600160a01b0316336001600160a01b0316146109b15760405162461bcd60e51b815260040161063f906143d7565b6109bc600382611b19565b6106965760405162461bcd60e51b81526020600482015260116024820152701859190b5ad9595c195c8b59985a5b1959607a1b604482015260640161063f565b60007f00000000000000000000000000000000000000000000000000000000000000006001600160a01b0316826001600160a01b03161480610a4b57506000546001600160a01b038381169116145b80610a8757507f00000000000000000000000000000000000000000000000000000000000000006001600160a01b0316826001600160a01b0316145b80610ac357507f00000000000000000000000000000000000000000000000000000000000000006001600160a01b0316826001600160a01b0316145b92915050565b60007f00000000000000000000000000000000000000000000000000000000000000006001600160a01b0316638bc6beb26040518163ffffffff1660e01b815260040160206040518083038186803b158015610b2457600080fd5b505afa158015610b38573d6000803e3d6000fd5b505050506040513d601f19601f82011682018060405250810190610b5c91906143ba565b90506001600160a01b03811615610bcc5760405163d279c19160e01b81526001600160a01b0382169063d279c19190610b99903090600401614240565b600060405180830381600087803b158015610bb357600080fd5b505af1158015610bc7573d6000803e3d6000fd5b505050505b6040516370a0823160e01b81526000906001600160a01b037f000000000000000000000000000000000000000000000000000000000000000016906370a0823190610c1b903090600401614240565b60206040518083038186803b158015610c3357600080fd5b505afa158015610c47573d6000803e3d6000fd5b505050506040513d601f19601f82011682018060405250810190610c6b9190614441565b905080156107dd57610cbe7f00000000000000000000000000000000000000000000000000000000000000007f000000000000000000000000000000000000000000000000000000000000000083611d04565b505050565b60008080610cd4335b600390611d98565b610cf05760405162461bcd60e51b815260040161063f90614487565b610cf8611dba565b925092509250909192565b6060610d0f60036126a8565b905090565b610d1d33610ccc565b610d395760405162461bcd60e51b815260040161063f90614487565b610d4360006126b5565b610d4e6000196126b5565b565b60058054610d5d906144b7565b80601f0160208091040260200160405190810160405280929190818152602001828054610d89906144b7565b8015610dd65780601f10610dab57610100808354040283529160200191610dd6565b820191906000526020600020905b815481529060010190602001808311610db957829003601f168201915b505050505081565b610de733610ccc565b610e035760405162461bcd60e51b815260040161063f90614487565b604051631202204360e31b81526001600160a01b037f00000000000000000000000000000000000000000000000000000000000000001690639011021890610e7a9030907f0000000000000000000000000000000000000000000000000000000000000000908890889088906000906004016144f2565b600060405180830381600087803b158015610e9457600080fd5b505af1158015610ea8573d6000803e3d6000fd5b50506040516370a0823160e01b8152600092506001600160a01b037f00000000000000000000000000000000000000000000000000000000000000001691506370a0823190610efb903090600401614240565b60206040518083038186803b158015610f1357600080fd5b505afa158015610f27573d6000803e3d6000fd5b505050506040513d601f19601f82011682018060405250810190610f4b9190614441565b90508015610f9e57610f9e7f00000000000000000000000000000000000000000000000000000000000000007f00000000000000000000000000000000000000000000000000000000000000008361274c565b50505050565b337f00000000000000000000000000000000000000000000000000000000000000006001600160a01b031614610fec5760405162461bcd60e51b815260040161063f9061440e565b6001600160a01b0381166110425760405162461bcd60e51b815260206004820152601c60248201527f6e65772d73747261746567792d616464726573732d69732d7a65726f00000000604482015260640161063f565b7f00000000000000000000000000000000000000000000000000000000000000006001600160a01b0316816001600160a01b03166316f0115b6040518163ffffffff1660e01b815260040160206040518083038186803b1580156110a557600080fd5b505afa1580156110b9573d6000803e3d6000fd5b505050506040513d601f19601f820116820180604052508101906110dd91906143ba565b6001600160a01b03161461112c5760405162461bcd60e51b81526020600482015260166024820152756e6f742d76616c69642d6e65772d737472617465677960501b604482015260640161063f565b611135816127d8565b6000546040516370a0823160e01b81526111ce9183916001600160a01b03909116906370a082319061116b903090600401614240565b60206040518083038186803b15801561118357600080fd5b505afa158015611197573d6000803e3d6000fd5b505050506040513d601f19601f820116820180604052508101906111bb9190614441565b6000546001600160a01b03169190611b4a565b610696817f00000000000000000000000000000000000000000000000000000000000000006001600160a01b03166370a08231306040518263ffffffff1660e01b815260040161121e9190614240565b60206040518083038186803b15801561123657600080fd5b505afa15801561124a573d6000803e3d6000fd5b505050506040513d601f19601f820116820180604052508101906108bf9190614441565b7f00000000000000000000000000000000000000000000000000000000000000006001600160a01b0316630c340a246040518163ffffffff1660e01b815260040160206040518083038186803b1580156112c757600080fd5b505afa1580156112db573d6000803e3d6000fd5b505050506040513d601f19601f820116820180604052508101906112ff91906143ba565b6001600160a01b0316336001600160a01b03161461132f5760405162461bcd60e51b815260040161063f906143d7565b6001600160a01b0381166113855760405162461bcd60e51b815260206004820152601d60248201527f6665652d636f6c6c6563746f722d616464726573732d69732d7a65726f000000604482015260640161063f565b6001546001600160a01b03828116911614156113db5760405162461bcd60e51b81526020600482015260156024820152746665652d636f6c6c6563746f722d69732d73616d6560581b604482015260640161063f565b6001546040516001600160a01b038084169216907f0f06062680f9bd68e786e9980d9bb03d73d5620fc3b345e417b6eacb310b970690600090a3600180546001600160a01b0319166001600160a01b0392909216919091179055565b7f00000000000000000000000000000000000000000000000000000000000000006001600160a01b0316630c340a246040518163ffffffff1660e01b815260040160206040518083038186803b15801561149057600080fd5b505afa1580156114a4573d6000803e3d6000fd5b505050506040513d601f19601f820116820180604052508101906114c891906143ba565b6001600160a01b0316336001600160a01b0316146114f85760405162461bcd60e51b815260040161063f906143d7565b6001600160a01b0381166115485760405162461bcd60e51b8152602060048201526017602482015276737761707065722d616464726573732d69732d7a65726f60481b604482015260640161063f565b6002546001600160a01b03828116911614156115985760405162461bcd60e51b815260206004820152600f60248201526e737761707065722d69732d73616d6560881b604482015260640161063f565b6002546040516001600160a01b038084169216907f6c953b7ec311055c20b96a42cea31e89528e375b1bf953a503db40854b3188fe90600090a3600280546001600160a01b0319166001600160a01b0392909216919091179055565b6115fd33610ccc565b6116195760405162461bcd60e51b815260040161063f90614487565b6001546001600160a01b03166116695760405162461bcd60e51b81526020600482015260156024820152741999594b58dbdb1b1958dd1bdc8b5b9bdd0b5cd95d605a1b604482015260640161063f565b7f00000000000000000000000000000000000000000000000000000000000000006001600160a01b0316816001600160a01b031614156116eb5760405162461bcd60e51b815260206004820152601f60248201527f6e6f742d616c6c6f7765642d746f2d73776565702d636f6c6c61746572616c00604482015260640161063f565b6116f4816109fc565b156117385760405162461bcd60e51b815260206004820152601460248201527306e6f742d616c6c6f7765642d746f2d73776565760641b604482015260640161063f565b6001600160a01b03811673eeeeeeeeeeeeeeeeeeeeeeeeeeeeeeeeeeeeeeee141561177357600154610696906001600160a01b031647612957565b6040516370a0823160e01b81526000906001600160a01b038316906370a08231906117a2903090600401614240565b60206040518083038186803b1580156117ba57600080fd5b505afa1580156117ce573d6000803e3d6000fd5b505050506040513d601f19601f820116820180604052508101906117f29190614441565b6001549091506107dd906001600160a01b03848116911683611b4a565b6040516370a0823160e01b81526000906001600160a01b037f000000000000000000000000000000000000000000000000000000000000000016906370a082319061185e903090600401614240565b60206040518083038186803b15801561187657600080fd5b505afa15801561188a573d6000803e3d6000fd5b505050506040513d601f19601f820116820180604052508101906118ae9190614441565b604051633af9e66960e01b81526001600160a01b037f00000000000000000000000000000000000000000000000000000000000000001690633af9e669906118fa903090600401614240565b60206040518083038186803b15801561191257600080fd5b505afa158015611926573d6000803e3d6000fd5b505050506040513d601f19601f8201168201806040525081019061194a9190614441565b610d0f919061455e565b7f00000000000000000000000000000000000000000000000000000000000000006001600160a01b0316630c340a246040518163ffffffff1660e01b815260040160206040518083038186803b1580156119ad57600080fd5b505afa1580156119c1573d6000803e3d6000fd5b505050506040513d601f19601f820116820180604052508101906119e591906143ba565b6001600160a01b0316336001600160a01b031614611a155760405162461bcd60e51b815260040161063f906143d7565b6127108110611a615760405162461bcd60e51b81526020600482015260186024820152771a5b9d985b1a590b5b585e0b589bdc9c9bddcb5b1a5b5a5d60421b604482015260640161063f565b80158015611a6d575081155b80611a7757508181115b611ac35760405162461bcd60e51b815260206004820152601d60248201527f6d61782d73686f756c642d62652d6869676865722d7468616e2d6d696e000000604482015260640161063f565b6006546007546040805192835260208301859052820152606081018290527fedd77444afdf63401315e81ffe86d08f7865796e8ad2e11acf1d56a1393f07d59060800160405180910390a1600691909155600755565b6000611b2e836001600160a01b038416612a70565b9392505050565b6000611b2e836001600160a01b038416612abf565b6040516001600160a01b038316602482015260448101829052610cbe90849063a9059cbb60e01b906064015b60408051601f198184030181529190526020810180516001600160e01b03166001600160e01b031990931692909217909152612bb2565b610696817f00000000000000000000000000000000000000000000000000000000000000006001600160a01b03166370a08231306040518263ffffffff1660e01b8152600401611bfd9190614240565b60206040518083038186803b158015611c1557600080fd5b505afa158015611c29573d6000803e3d6000fd5b505050506040513d601f19601f82011682018060405250810190611c4d9190614441565b604051633af9e66960e01b81526001600160a01b037f00000000000000000000000000000000000000000000000000000000000000001690633af9e66990611c99903090600401614240565b60206040518083038186803b158015611cb157600080fd5b505afa158015611cc5573d6000803e3d6000fd5b505050506040513d601f19601f82011682018060405250810190611ce99190614441565b612c84565b6000818310611cfd5781611b2e565b5090919050565b600254604051636ccb2b0160e01b81526000916001600160a01b031690636ccb2b0190611d3e908790879087906001903090600401614576565b602060405180830381600087803b158015611d5857600080fd5b505af1158015611d6c573d6000803e3d6000fd5b505050506040513d601f19601f82011682018060405250810190611d909190614441565b949350505050565b6001600160a01b03811660009081526001830160205260408120541515611b2e565b6000806000807f00000000000000000000000000000000000000000000000000000000000000006001600160a01b031663d53ddc26306040518263ffffffff1660e01b8152600401611e0c9190614240565b60206040518083038186803b158015611e2457600080fd5b505afa158015611e38573d6000803e3d6000fd5b505050506040513d601f19601f82011682018060405250810190611e5c9190614441565b905060007f00000000000000000000000000000000000000000000000000000000000000006001600160a01b03166370a08231306040518263ffffffff1660e01b8152600401611eac9190614240565b60206040518083038186803b158015611ec457600080fd5b505afa158015611ed8573d6000803e3d6000fd5b505050506040513d601f19601f82011682018060405250810190611efc9190614441565b90506000611f08612d8f565b905080821115611f2957611f24611f1f8284614470565b612f27565b611f3b565b611f3b611f368383614470565b613203565b6040516370a0823160e01b81526000906001600160a01b037f000000000000000000000000000000000000000000000000000000000000000016906370a0823190611f8a903090600401614240565b60206040518083038186803b158015611fa257600080fd5b505afa158015611fb6573d6000803e3d6000fd5b505050506040513d601f19601f82011682018060405250810190611fda9190614441565b905060007f00000000000000000000000000000000000000000000000000000000000000006001600160a01b0316633af9e669306040518263ffffffff1660e01b815260040161202a9190614240565b60206040518083038186803b15801561204257600080fd5b505afa158015612056573d6000803e3d6000fd5b505050506040513d601f19601f8201168201806040525081019061207a9190614441565b90506000612088838361455e565b905060007f00000000000000000000000000000000000000000000000000000000000000006001600160a01b0316639f2b2833306040518263ffffffff1660e01b81526004016120d89190614240565b60206040518083038186803b1580156120f057600080fd5b505afa158015612104573d6000803e3d6000fd5b505050506040513d601f19601f820116820180604052508101906121289190614441565b9050808211156121435761213c8183614470565b9950612150565b61214d8282614470565b98505b600061215c888c61455e565b905060008186101561221e576121728683614470565b905061217f818987612c84565b6040516370a0823160e01b81526001600160a01b037f000000000000000000000000000000000000000000000000000000000000000016906370a08231906121cb903090600401614240565b60206040518083038186803b1580156121e357600080fd5b505afa1580156121f7573d6000803e3d6000fd5b505050506040513d601f19601f8201168201806040525081019061221b9190614441565b95505b612228868a611cee565b995089861161223857600061224b565b61224b6122458b88614470565b8d611cee565b6040516302df682360e11b815260048101829052602481018d9052604481018c9052909c507f00000000000000000000000000000000000000000000000000000000000000006001600160a01b0316906305bed04690606401600060405180830381600087803b1580156122be57600080fd5b505af11580156122d2573d6000803e3d6000fd5b50506040516370a0823160e01b8152600092506001600160a01b037f00000000000000000000000000000000000000000000000000000000000000001691506370a0823190612325903090600401614240565b60206040518083038186803b15801561233d57600080fd5b505afa158015612351573d6000803e3d6000fd5b505050506040513d601f19601f820116820180604052508101906123759190614441565b905080156123ff57604051631c57762b60e31b815260006004820152602481018290527f00000000000000000000000000000000000000000000000000000000000000006001600160a01b03169063e2bbb15890604401600060405180830381600087803b1580156123e657600080fd5b505af11580156123fa573d6000803e3d6000fd5b505050505b6000806125456000807f00000000000000000000000000000000000000000000000000000000000000006001600160a01b03166370a08231306040518263ffffffff1660e01b81526004016124549190614240565b60206040518083038186803b15801561246c57600080fd5b505afa158015612480573d6000803e3d6000fd5b505050506040513d601f19601f820116820180604052508101906124a49190614441565b604051633af9e66960e01b81526001600160a01b037f00000000000000000000000000000000000000000000000000000000000000001690633af9e669906124f0903090600401614240565b60206040518083038186803b15801561250857600080fd5b505afa15801561251c573d6000803e3d6000fd5b505050506040513d601f19601f820116820180604052508101906125409190614441565b613304565b9092509050801561255e576125598161397e565b6125e6565b81156125e657604051630ecbcdab60e01b815260006004820152602481018390527f00000000000000000000000000000000000000000000000000000000000000006001600160a01b031690630ecbcdab90604401600060405180830381600087803b1580156125cd57600080fd5b505af11580156125e1573d6000803e3d6000fd5b505050505b6040516370a0823160e01b81526000906001600160a01b037f000000000000000000000000000000000000000000000000000000000000000016906370a0823190612635903090600401614240565b60206040518083038186803b15801561264d57600080fd5b505afa158015612661573d6000803e3d6000fd5b505050506040513d601f19601f820116820180604052508101906126859190614441565b905080156126965761269681613a05565b50505050505050505050505050909192565b60606000611b2e83613a52565b6126be81613aae565b6127126001600160a01b037f0000000000000000000000000000000000000000000000000000000000000000167f000000000000000000000000000000000000000000000000000000000000000083613bff565b600254610696906001600160a01b037f00000000000000000000000000000000000000000000000000000000000000008116911683613bff565b600254604051636ccb2b0160e01b81526001600160a01b0390911690636ccb2b0190612785908690869086906001903090600401614576565b602060405180830381600087803b15801561279f57600080fd5b505af19250505080156127cf575060408051601f3d908101601f191682019092526127cc91810190614441565b60015b610f9e57505050565b60008054906101000a90046001600160a01b03166001600160a01b0316816001600160a01b031663fc0c546a6040518163ffffffff1660e01b815260040160206040518083038186803b15801561282e57600080fd5b505afa158015612842573d6000803e3d6000fd5b505050506040513d601f19601f8201168201806040525081019061286691906143ba565b6001600160a01b0316146128b25760405162461bcd60e51b81526020600482015260136024820152723bb937b73396b932b1b2b4b83a16ba37b5b2b760691b604482015260640161063f565b6040516370a0823160e01b8152610696906001600160a01b037f000000000000000000000000000000000000000000000000000000000000000016906370a0823190612902903090600401614240565b60206040518083038186803b15801561291a57600080fd5b505afa15801561292e573d6000803e3d6000fd5b505050506040513d601f19601f820116820180604052508101906129529190614441565b61397e565b804710156129a75760405162461bcd60e51b815260206004820152601d60248201527f416464726573733a20696e73756666696369656e742062616c616e6365000000604482015260640161063f565b6000826001600160a01b03168260405160006040518083038185875af1925050503d80600081146129f4576040519150601f19603f3d011682016040523d82523d6000602084013e6129f9565b606091505b5050905080610cbe5760405162461bcd60e51b815260206004820152603a60248201527f416464726573733a20756e61626c6520746f2073656e642076616c75652c207260448201527f6563697069656e74206d61792068617665207265766572746564000000000000606482015260840161063f565b6000818152600183016020526040812054612ab757508154600181810184556000848152602080822090930184905584548482528286019093526040902091909155610ac3565b506000610ac3565b60008181526001830160205260408120548015612ba8576000612ae3600183614470565b8554909150600090612af790600190614470565b9050818114612b5c576000866000018281548110612b1757612b176145a6565b9060005260206000200154905080876000018481548110612b3a57612b3a6145a6565b6000918252602080832090910192909255918252600188019052604090208390555b8554869080612b6d57612b6d6145bc565b600190038181906000526020600020016000905590558560010160008681526020019081526020016000206000905560019350505050610ac3565b6000915050610ac3565b6000612c07826040518060400160405280602081526020017f5361666545524332303a206c6f772d6c6576656c2063616c6c206661696c6564815250856001600160a01b0316613d239092919063ffffffff16565b805190915015610cbe5780806020019051810190612c2591906145e7565b610cbe5760405162461bcd60e51b815260206004820152602a60248201527f5361666545524332303a204552433230206f7065726174696f6e20646964206e6044820152691bdd081cdd58d8d9595960b21b606482015260840161063f565b6000612c936000858585613304565b9150508015612ca557612ca58161397e565b6000612cfe85612cf985612cf97f00000000000000000000000000000000000000000000000000000000000000007f0000000000000000000000000000000000000000000000000000000000000000613d32565b611cee565b90508015612d8857604051630441a3e760e41b815260006004820152602481018290527f00000000000000000000000000000000000000000000000000000000000000006001600160a01b03169063441a3e7090604401600060405180830381600087803b158015612d6f57600080fd5b505af1158015612d83573d6000803e3d6000fd5b505050505b5050505050565b6000670de0b6b3a76400007f00000000000000000000000000000000000000000000000000000000000000006001600160a01b03166370a08231306040518263ffffffff1660e01b8152600401612de69190614240565b60206040518083038186803b158015612dfe57600080fd5b505afa158015612e12573d6000803e3d6000fd5b505050506040513d601f19601f82011682018060405250810190612e369190614441565b7f00000000000000000000000000000000000000000000000000000000000000006001600160a01b03166399530b066040518163ffffffff1660e01b815260040160206040518083038186803b158015612e8f57600080fd5b505afa158015612ea3573d6000803e3d6000fd5b505050506040513d601f19601f82011682018060405250810190612ec79190614441565b612ed19190614602565b612edb9190614637565b6040516370a0823160e01b81526001600160a01b037f000000000000000000000000000000000000000000000000000000000000000016906370a08231906118fa903090600401614240565b6002546040516353b609b560e01b81526001600160a01b037f0000000000000000000000000000000000000000000000000000000000000000811660048301527f0000000000000000000000000000000000000000000000000000000000000000811660248301526044820184905260009216906353b609b590606401602060405180830381600087803b158015612fbe57600080fd5b505af1158015612fd2573d6000803e3d6000fd5b505050506040513d601f19601f82011682018060405250810190612ff69190614441565b905080156107dd576040516370a0823160e01b81526000906001600160a01b037f000000000000000000000000000000000000000000000000000000000000000016906370a082319061304d903090600401614240565b60206040518083038186803b15801561306557600080fd5b505afa158015613079573d6000803e3d6000fd5b505050506040513d601f19601f8201168201806040525081019061309d9190614441565b905080821115613139576001600160a01b037f00000000000000000000000000000000000000000000000000000000000000001663441a3e7060006130e28486614470565b6040516001600160e01b031960e085901b16815260048101929092526024820152604401600060405180830381600087803b15801561312057600080fd5b505af1158015613134573d6000803e3d6000fd5b505050505b6002546040516381cc619b60e01b81526001600160a01b03909116906381cc619b906131b1907f0000000000000000000000000000000000000000000000000000000000000000907f000000000000000000000000000000000000000000000000000000000000000090889088903090600401614576565b602060405180830381600087803b1580156131cb57600080fd5b505af11580156131df573d6000803e3d6000fd5b505050506040513d601f19601f82011682018060405250810190610f9e9190614441565b80156106965761321281613e3a565b6040516370a0823160e01b81526000906001600160a01b037f000000000000000000000000000000000000000000000000000000000000000016906370a0823190613261903090600401614240565b60206040518083038186803b15801561327957600080fd5b505afa15801561328d573d6000803e3d6000fd5b505050506040513d601f19601f820116820180604052508101906132b19190614441565b905080156107dd576107dd7f00000000000000000000000000000000000000000000000000000000000000007f00000000000000000000000000000000000000000000000000000000000000008361274c565b600080851580613312575084155b6133525760405162461bcd60e51b8152602060048201526011602482015270616c6c2d696e7075742d67742d7a65726f60781b604482015260640161063f565b60075461336457506000905082613975565b600080871161338a5785841161337b576000613394565b6133858685614470565b613394565b613394878561455e565b9050806133a8576000859250925050613975565b6040516341976e0960e01b81526000906001600160a01b037f000000000000000000000000000000000000000000000000000000000000000016906341976e0990613417907f000000000000000000000000000000000000000000000000000000000000000090600401614240565b6040805180830381600087803b15801561343057600080fd5b505af1158015613444573d6000803e3d6000fd5b505050506040513d601f19601f82011682018060405250810190613468919061464b565b50905060007f00000000000000000000000000000000000000000000000000000000000000006001600160a01b03166341976e097f00000000000000000000000000000000000000000000000000000000000000006040518263ffffffff1660e01b81526004016134d99190614240565b6040805180830381600087803b1580156134f257600080fd5b505af1158015613506573d6000803e3d6000fd5b505050506040513d601f19601f8201168201806040525081019061352a919061464b565b509050811580613538575080155b1561354c5760008794509450505050613975565b60405163274e7d6160e11b81526000906001600160a01b037f00000000000000000000000000000000000000000000000000000000000000001690634e9cfac2906135bb907f000000000000000000000000000000000000000000000000000000000000000090600401614240565b60a06040518083038186803b1580156135d357600080fd5b505afa1580156135e7573d6000803e3d6000fd5b505050506040513d601f19601f8201168201806040525081019061360b9190614683565b6040015163ffffffff16905060007f00000000000000000000000000000000000000000000000000000000000000006001600160a01b0316634e9cfac27f00000000000000000000000000000000000000000000000000000000000000006040518263ffffffff1660e01b81526004016136859190614240565b60a06040518083038186803b15801561369d57600080fd5b505afa1580156136b1573d6000803e3d6000fd5b505050506040513d601f19601f820116820180604052508101906136d59190614683565b6060015163ffffffff169050600063ee6b28006136f2838561472b565b6136fc919061475b565b905060007f00000000000000000000000000000000000000000000000000000000000000006001600160a01b031663313ce5676040518163ffffffff1660e01b815260040160206040518083038186803b15801561375957600080fd5b505afa15801561376d573d6000803e3d6000fd5b505050506040513d601f19601f820116820180604052508101906137919190614782565b61379c90600a614889565b6137aa9063ee6b2800614602565b856137bf67ffffffffffffffff85168a614602565b6137c99190614602565b6137d39190614637565b90506000867f00000000000000000000000000000000000000000000000000000000000000006001600160a01b031663313ce5676040518163ffffffff1660e01b815260040160206040518083038186803b15801561383157600080fd5b505afa158015613845573d6000803e3d6000fd5b505050506040513d601f19601f820116820180604052508101906138699190614782565b61387490600a614889565b61387e9084614602565b6138889190614637565b9050806138a35760008c995099505050505050505050613975565b6000612710600754836138b69190614602565b6138c09190614637565b90506000612710600654846138d59190614602565b6138df9190614637565b9050818e11156138fa576138f3818f614470565b9a5061396a565b8d81111561396a5761390c8e82614470565b9b50600061395a7f00000000000000000000000000000000000000000000000000000000000000007f0000000000000000000000000000000000000000000000000000000000000000613d32565b9050808d111561396857809c505b505b505050505050505050505b94509492505050565b61398781614050565b60405163d8aed14560e01b815260006004820152602481018290527f00000000000000000000000000000000000000000000000000000000000000006001600160a01b03169063d8aed145906044015b600060405180830381600087803b1580156139f157600080fd5b505af1158015612d88573d6000803e3d6000fd5b60405163b6b55f2560e01b8152600481018290527f00000000000000000000000000000000000000000000000000000000000000006001600160a01b03169063b6b55f25906024016139d7565b606081600001805480602002602001604051908101604052809291908181526020018280548015613aa257602002820191906000526020600020905b815481526020019060010190808311613a8e575b50505050509050919050565b613ab781614059565b6002546001600160a01b0390811690613b13907f0000000000000000000000000000000000000000000000000000000000000000167f000000000000000000000000000000000000000000000000000000000000000084613bff565b613b476001600160a01b037f0000000000000000000000000000000000000000000000000000000000000000168284613bff565b613b9b6001600160a01b037f0000000000000000000000000000000000000000000000000000000000000000167f000000000000000000000000000000000000000000000000000000000000000084613bff565b613bcf6001600160a01b037f0000000000000000000000000000000000000000000000000000000000000000168284613bff565b6107dd6001600160a01b037f00000000000000000000000000000000000000000000000000000000000000001682845b801580613c885750604051636eb1769f60e11b81523060048201526001600160a01b03838116602483015284169063dd62ed3e9060440160206040518083038186803b158015613c4e57600080fd5b505afa158015613c62573d6000803e3d6000fd5b505050506040513d601f19601f82011682018060405250810190613c869190614441565b155b613cf35760405162461bcd60e51b815260206004820152603660248201527f5361666545524332303a20617070726f76652066726f6d206e6f6e2d7a65726f60448201527520746f206e6f6e2d7a65726f20616c6c6f77616e636560501b606482015260840161063f565b6040516001600160a01b038316602482015260448101829052610cbe90849063095ea7b360e01b90606401611b76565b6060611d9084846000856140ad565b600080836001600160a01b031663fea61faa6040518163ffffffff1660e01b815260040160206040518083038186803b158015613d6e57600080fd5b505afa158015613d82573d6000803e3d6000fd5b505050506040513d601f19601f82011682018060405250810190613da69190614441565b90506000836001600160a01b03166318160ddd6040518163ffffffff1660e01b815260040160206040518083038186803b158015613de357600080fd5b505afa158015613df7573d6000803e3d6000fd5b505050506040513d601f19601f82011682018060405250810190613e1b9190614441565b905080821115613e3257613e2f8183614470565b92505b505092915050565b80156106965760007f00000000000000000000000000000000000000000000000000000000000000006001600160a01b03166399530b066040518163ffffffff1660e01b815260040160206040518083038186803b158015613e9b57600080fd5b505afa158015613eaf573d6000803e3d6000fd5b505050506040513d601f19601f82011682018060405250810190613ed39190614441565b9050600081613eea84670de0b6b3a7640000614602565b613ef49190614637565b9050670de0b6b3a7640000613f098383614602565b613f139190614637565b8311613f1f5780613f2a565b613f2a81600161455e565b90507f00000000000000000000000000000000000000000000000000000000000000006001600160a01b0316632e1a7d4d613ffb837f00000000000000000000000000000000000000000000000000000000000000006001600160a01b03166370a08231306040518263ffffffff1660e01b8152600401613fab9190614240565b60206040518083038186803b158015613fc357600080fd5b505afa158015613fd7573d6000803e3d6000fd5b505050506040513d601f19601f82011682018060405250810190612cf99190614441565b6040518263ffffffff1660e01b815260040161401991815260200190565b600060405180830381600087803b15801561403357600080fd5b505af1158015614047573d6000803e3d6000fd5b50505050505050565b61069681613e3a565b6106966001600160a01b037f0000000000000000000000000000000000000000000000000000000000000000167f000000000000000000000000000000000000000000000000000000000000000083613bff565b60608247101561410e5760405162461bcd60e51b815260206004820152602660248201527f416464726573733a20696e73756666696369656e742062616c616e636520666f6044820152651c8818d85b1b60d21b606482015260840161063f565b843b61415c5760405162461bcd60e51b815260206004820152601d60248201527f416464726573733a2063616c6c20746f206e6f6e2d636f6e7472616374000000604482015260640161063f565b600080866001600160a01b031685876040516141789190614898565b60006040518083038185875af1925050503d80600081146141b5576040519150601f19603f3d011682016040523d82523d6000602084013e6141ba565b606091505b50915091506141ca8282866141d5565b979650505050505050565b606083156141e4575081611b2e565b8251156141f45782518084602001fd5b8160405162461bcd60e51b815260040161063f91906142e6565b6001600160a01b038116811461069657600080fd5b60006020828403121561423557600080fd5b8135611b2e8161420e565b6001600160a01b0391909116815260200190565b60006020828403121561426657600080fd5b5035919050565b6020808252825182820181905260009190848201906040850190845b818110156142ae5783516001600160a01b031683529284019291840191600101614289565b50909695505050505050565b60005b838110156142d55781810151838201526020016142bd565b83811115610f9e5750506000910152565b60208152600082518060208401526143058160408501602087016142ba565b601f01601f19169190910160400192915050565b60008060006040848603121561432e57600080fd5b83359250602084013567ffffffffffffffff8082111561434d57600080fd5b818601915086601f83011261436157600080fd5b81358181111561437057600080fd5b8760208260051b850101111561438557600080fd5b6020830194508093505050509250925092565b600080604083850312156143ab57600080fd5b50508035926020909101359150565b6000602082840312156143cc57600080fd5b8151611b2e8161420e565b6020808252601a908201527f63616c6c65722d69732d6e6f742d7468652d676f7665726e6f72000000000000604082015260600190565b60208082526019908201527818d85b1b195c8b5a5ccb5b9bdd0b5d995cdc195c8b5c1bdbdb603a1b604082015260600190565b60006020828403121561445357600080fd5b5051919050565b634e487b7160e01b600052601160045260246000fd5b6000828210156144825761448261445a565b500390565b60208082526016908201527531b0b63632b916b4b996b737ba16b096b5b2b2b832b960511b604082015260600190565b600181811c908216806144cb57607f821691505b602082108114156144ec57634e487b7160e01b600052602260045260246000fd5b50919050565b6001600160a01b03878116825286811660208301526040820186905260a06060830181905282018490526000906001600160fb1b0385111561453357600080fd5b8460051b808760c0860137600090840160c00190815293166080909201919091525095945050505050565b600082198211156145715761457161445a565b500190565b6001600160a01b039586168152938516602085015260408401929092526060830152909116608082015260a00190565b634e487b7160e01b600052603260045260246000fd5b634e487b7160e01b600052603160045260246000fd5b805180151581146145e257600080fd5b919050565b6000602082840312156145f957600080fd5b611b2e826145d2565b600081600019048311821515161561461c5761461c61445a565b500290565b634e487b7160e01b600052601260045260246000fd5b60008261464657614646614621565b500490565b6000806040838503121561465e57600080fd5b505080516020909101519092909150565b805163ffffffff811681146145e257600080fd5b600060a0828403121561469557600080fd5b60405160a0810181811067ffffffffffffffff821117156146c657634e487b7160e01b600052604160045260246000fd5b60405282516146d48161420e565b81526146e2602084016145d2565b60208201526146f36040840161466f565b60408201526147046060840161466f565b6060820152608083015162ffffff8116811461471f57600080fd5b60808201529392505050565b600067ffffffffffffffff808316818516818304811182151516156147525761475261445a565b02949350505050565b600067ffffffffffffffff8084168061477657614776614621565b92169190910492915050565b60006020828403121561479457600080fd5b815160ff81168114611b2e57600080fd5b600181815b808511156147e05781600019048211156147c6576147c661445a565b808516156147d357918102915b93841c93908002906147aa565b509250929050565b6000826147f757506001610ac3565b8161480457506000610ac3565b816001811461481a576002811461482457614840565b6001915050610ac3565b60ff8411156148355761483561445a565b50506001821b610ac3565b5060208310610133831016604e8410600b8410161715614863575081810a610ac3565b61486d83836147a5565b80600019048211156148815761488161445a565b029392505050565b6000611b2e60ff8416836147e8565b600082516148aa8184602087016142ba565b919091019291505056fea264697066735822122034b195d87c51e486009b17355572079d9ad628935e6b87a7db4f9bddb9de05ad64736f6c63430008090033",
  "devdoc": {
    "kind": "dev",
    "methods": {
      "addKeeper(address)": {
        "params": {
          "_keeperAddress": "keeper address to add."
        }
      },
      "approveToken()": {
        "details": "Approve all required tokens"
      },
      "migrate(address)": {
        "details": "_beforeMigration hook can be implemented in child strategy to do extra steps.",
        "params": {
          "_newStrategy": "Address of new strategy"
        }
      },
      "rebalance()": {
        "returns": {
          "_loss": "Realized loss, if any, in collateral.",
          "_payback": "If strategy has any excess debt, we have to liquidate asset to payback excess debt.",
          "_profit": "Realized profit in collateral."
        }
      },
      "removeKeeper(address)": {
        "params": {
          "_keeperAddress": "keeper address to remove."
        }
      },
      "sweepERC20(address)": {
        "params": {
          "_fromToken": "token address to sweep"
        }
      },
      "updateBorrowLimit(uint256,uint256)": {
        "details": "It is possible to set maxBorrowLimit_ and minBorrowLimit_ as 0 to not borrow anything",
        "params": {
          "maxBorrowLimit_": "It is % of actual collateral factor of protocol",
          "minBorrowLimit_": "It is % of actual collateral factor of protocol"
        }
      },
      "updateFeeCollector(address)": {
        "params": {
          "_feeCollector": "fee collector address"
        }
      },
      "updateSwapper(address)": {
        "params": {
          "_swapper": "swapper address"
        }
      },
      "withdraw(uint256)": {
        "params": {
          "_amount": "Amount of collateral token"
        }
      }
    },
    "title": "Deposit Collateral in Euler and earn interest by depositing borrowed token in a Vesper Pool.",
    "version": 1
  },
  "userdoc": {
    "kind": "user",
    "methods": {
      "addKeeper(address)": {
        "notice": "Add given address in keepers list."
      },
      "collateral()": {
        "notice": "Returns address of token correspond to collateral token"
      },
      "harvestEul(uint256,bytes32[])": {
        "notice": "Claim EUL from Eul distributor and swap to collateral token."
      },
      "harvestVSP()": {
        "notice": "Claim VSP and convert to collateral token"
      },
      "keepers()": {
        "notice": "Return list of keepers"
      },
      "migrate(address)": {
        "notice": "Migrate all asset and vault ownership,if any, to new strategy"
      },
      "rebalance()": {
        "notice": "OnlyKeeper: Rebalance profit, loss and investment of this strategy.  Calculate profit, loss and payback of this strategy and realize profit/loss and  withdraw fund for payback, if any, and submit this report to pool."
      },
      "removeKeeper(address)": {
        "notice": "Remove given address from keepers list."
      },
      "sweepERC20(address)": {
        "notice": "sweep given token to feeCollector of strategy"
      },
      "token()": {
        "notice": "Returns address of token correspond to receipt token"
      },
      "tvl()": {
        "notice": "Returns total collateral locked in the strategy"
      },
      "updateBorrowLimit(uint256,uint256)": {
        "notice": "Update upper and lower borrow limit. Usually maxBorrowLimit < 100% of actual collateral factor of protocol."
      },
      "updateFeeCollector(address)": {
        "notice": "Update fee collector"
      },
      "updateSwapper(address)": {
        "notice": "Update swapper"
      },
      "withdraw(uint256)": {
        "notice": "Withdraw collateral token from end protocol."
      }
    },
    "version": 1
  },
  "storageLayout": {
    "storage": [
      {
        "astId": 13721,
        "contract": "vesper-strategies/contracts/strategies/euler/EulerVesperXy.sol:EulerVesperXy",
        "label": "receiptToken",
        "offset": 0,
        "slot": "0",
        "type": "t_address"
      },
      {
        "astId": 13727,
        "contract": "vesper-strategies/contracts/strategies/euler/EulerVesperXy.sol:EulerVesperXy",
        "label": "feeCollector",
        "offset": 0,
        "slot": "1",
        "type": "t_address"
      },
      {
        "astId": 13730,
        "contract": "vesper-strategies/contracts/strategies/euler/EulerVesperXy.sol:EulerVesperXy",
        "label": "swapper",
        "offset": 0,
        "slot": "2",
        "type": "t_contract(IRoutedSwapper)12582"
      },
      {
        "astId": 13743,
        "contract": "vesper-strategies/contracts/strategies/euler/EulerVesperXy.sol:EulerVesperXy",
        "label": "_keepers",
        "offset": 0,
        "slot": "3",
        "type": "t_struct(AddressSet)3016_storage"
      },
      {
        "astId": 23713,
        "contract": "vesper-strategies/contracts/strategies/euler/EulerVesperXy.sol:EulerVesperXy",
        "label": "NAME",
        "offset": 0,
        "slot": "5",
        "type": "t_string_storage"
      },
      {
        "astId": 23725,
        "contract": "vesper-strategies/contracts/strategies/euler/EulerVesperXy.sol:EulerVesperXy",
        "label": "minBorrowLimit",
        "offset": 0,
        "slot": "6",
        "type": "t_uint256"
      },
      {
        "astId": 23728,
        "contract": "vesper-strategies/contracts/strategies/euler/EulerVesperXy.sol:EulerVesperXy",
        "label": "maxBorrowLimit",
        "offset": 0,
        "slot": "7",
        "type": "t_uint256"
      }
    ],
    "types": {
      "t_address": {
        "encoding": "inplace",
        "label": "address",
        "numberOfBytes": "20"
      },
      "t_array(t_bytes32)dyn_storage": {
        "base": "t_bytes32",
        "encoding": "dynamic_array",
        "label": "bytes32[]",
        "numberOfBytes": "32"
      },
      "t_bytes32": {
        "encoding": "inplace",
        "label": "bytes32",
        "numberOfBytes": "32"
      },
      "t_contract(IRoutedSwapper)12582": {
        "encoding": "inplace",
        "label": "contract IRoutedSwapper",
        "numberOfBytes": "20"
      },
      "t_mapping(t_bytes32,t_uint256)": {
        "encoding": "mapping",
        "key": "t_bytes32",
        "label": "mapping(bytes32 => uint256)",
        "numberOfBytes": "32",
        "value": "t_uint256"
      },
      "t_string_storage": {
        "encoding": "bytes",
        "label": "string",
        "numberOfBytes": "32"
      },
      "t_struct(AddressSet)3016_storage": {
        "encoding": "inplace",
        "label": "struct EnumerableSet.AddressSet",
        "members": [
          {
            "astId": 3015,
            "contract": "vesper-strategies/contracts/strategies/euler/EulerVesperXy.sol:EulerVesperXy",
            "label": "_inner",
            "offset": 0,
            "slot": "0",
            "type": "t_struct(Set)2715_storage"
          }
        ],
        "numberOfBytes": "64"
      },
      "t_struct(Set)2715_storage": {
        "encoding": "inplace",
        "label": "struct EnumerableSet.Set",
        "members": [
          {
            "astId": 2710,
            "contract": "vesper-strategies/contracts/strategies/euler/EulerVesperXy.sol:EulerVesperXy",
            "label": "_values",
            "offset": 0,
            "slot": "0",
            "type": "t_array(t_bytes32)dyn_storage"
          },
          {
            "astId": 2714,
            "contract": "vesper-strategies/contracts/strategies/euler/EulerVesperXy.sol:EulerVesperXy",
            "label": "_indexes",
            "offset": 0,
            "slot": "1",
            "type": "t_mapping(t_bytes32,t_uint256)"
          }
        ],
        "numberOfBytes": "64"
      },
      "t_uint256": {
        "encoding": "inplace",
        "label": "uint256",
        "numberOfBytes": "32"
      }
    }
  }
}