{
  "address": "0xC954A6e12D9D6Ca3f2c6aa8f286D7a4B302c611E",
  "abi": [
    {
      "anonymous": false,
      "inputs": [
        {
          "indexed": true,
          "internalType": "address",
          "name": "rewardToken",
          "type": "address"
        },
        {
          "indexed": false,
          "internalType": "uint256",
          "name": "reward",
          "type": "uint256"
        },
        {
          "indexed": false,
          "internalType": "uint256",
          "name": "rewardDuration",
          "type": "uint256"
        }
      ],
      "name": "RewardAdded",
      "type": "event"
    },
    {
      "anonymous": false,
      "inputs": [
        {
          "indexed": true,
          "internalType": "address",
          "name": "user",
          "type": "address"
        },
        {
          "indexed": true,
          "internalType": "address",
          "name": "rewardToken",
          "type": "address"
        },
        {
          "indexed": false,
          "internalType": "uint256",
          "name": "reward",
          "type": "uint256"
        }
      ],
      "name": "RewardPaid",
      "type": "event"
    },
    {
      "anonymous": false,
      "inputs": [
        {
          "indexed": true,
          "internalType": "address",
          "name": "rewardToken",
          "type": "address"
        },
        {
          "indexed": false,
          "internalType": "address[]",
          "name": "existingRewardTokens",
          "type": "address[]"
        }
      ],
      "name": "RewardTokenAdded",
      "type": "event"
    },
    {
      "inputs": [],
      "name": "VERSION",
      "outputs": [
        {
          "internalType": "string",
          "name": "",
          "type": "string"
        }
      ],
      "stateMutability": "view",
      "type": "function"
    },
    {
      "inputs": [
        {
          "internalType": "address",
          "name": "newRewardToken_",
          "type": "address"
        }
      ],
      "name": "addRewardToken",
      "outputs": [],
      "stateMutability": "nonpayable",
      "type": "function"
    },
    {
      "inputs": [
        {
          "internalType": "address",
          "name": "account_",
          "type": "address"
        }
      ],
      "name": "claimReward",
      "outputs": [],
      "stateMutability": "nonpayable",
      "type": "function"
    },
    {
      "inputs": [
        {
          "internalType": "address",
          "name": "account_",
          "type": "address"
        }
      ],
      "name": "claimable",
      "outputs": [
        {
          "internalType": "address[]",
          "name": "_rewardTokens",
          "type": "address[]"
        },
        {
          "internalType": "uint256[]",
          "name": "_claimableAmounts",
          "type": "uint256[]"
        }
      ],
      "stateMutability": "view",
      "type": "function"
    },
    {
      "inputs": [],
      "name": "getRewardTokens",
      "outputs": [
        {
          "internalType": "address[]",
          "name": "",
          "type": "address[]"
        }
      ],
      "stateMutability": "view",
      "type": "function"
    },
    {
      "inputs": [
        {
          "internalType": "address",
          "name": "pool_",
          "type": "address"
        },
        {
          "internalType": "address[]",
          "name": "rewardTokens_",
          "type": "address[]"
        }
      ],
      "name": "initialize",
      "outputs": [],
      "stateMutability": "nonpayable",
      "type": "function"
    },
    {
      "inputs": [
        {
          "internalType": "address",
          "name": "",
          "type": "address"
        }
      ],
      "name": "isRewardToken",
      "outputs": [
        {
          "internalType": "bool",
          "name": "",
          "type": "bool"
        }
      ],
      "stateMutability": "view",
      "type": "function"
    },
    {
      "inputs": [
        {
          "internalType": "address",
          "name": "rewardToken_",
          "type": "address"
        }
      ],
      "name": "lastTimeRewardApplicable",
      "outputs": [
        {
          "internalType": "uint256",
          "name": "",
          "type": "uint256"
        }
      ],
      "stateMutability": "view",
      "type": "function"
    },
    {
      "inputs": [
        {
          "internalType": "address",
          "name": "",
          "type": "address"
        }
      ],
      "name": "lastUpdateTime",
      "outputs": [
        {
          "internalType": "uint256",
          "name": "",
          "type": "uint256"
        }
      ],
      "stateMutability": "view",
      "type": "function"
    },
    {
      "inputs": [
        {
          "internalType": "address",
          "name": "rewardToken_",
          "type": "address"
        },
        {
          "internalType": "uint256",
          "name": "rewardAmount_",
          "type": "uint256"
        },
        {
          "internalType": "uint256",
          "name": "rewardDuration_",
          "type": "uint256"
        }
      ],
      "name": "notifyRewardAmount",
      "outputs": [],
      "stateMutability": "nonpayable",
      "type": "function"
    },
    {
      "inputs": [
        {
          "internalType": "address[]",
          "name": "rewardTokens_",
          "type": "address[]"
        },
        {
          "internalType": "uint256[]",
          "name": "rewardAmounts_",
          "type": "uint256[]"
        },
        {
          "internalType": "uint256[]",
          "name": "rewardDurations_",
          "type": "uint256[]"
        }
      ],
      "name": "notifyRewardAmount",
      "outputs": [],
      "stateMutability": "nonpayable",
      "type": "function"
    },
    {
      "inputs": [
        {
          "internalType": "address",
          "name": "",
          "type": "address"
        }
      ],
      "name": "periodFinish",
      "outputs": [
        {
          "internalType": "uint256",
          "name": "",
          "type": "uint256"
        }
      ],
      "stateMutability": "view",
      "type": "function"
    },
    {
      "inputs": [],
      "name": "pool",
      "outputs": [
        {
          "internalType": "address",
          "name": "",
          "type": "address"
        }
      ],
      "stateMutability": "view",
      "type": "function"
    },
    {
      "inputs": [
        {
          "internalType": "address",
          "name": "",
          "type": "address"
        }
      ],
      "name": "rewardDuration",
      "outputs": [
        {
          "internalType": "uint256",
          "name": "",
          "type": "uint256"
        }
      ],
      "stateMutability": "view",
      "type": "function"
    },
    {
      "inputs": [],
      "name": "rewardForDuration",
      "outputs": [
        {
          "internalType": "address[]",
          "name": "_rewardTokens",
          "type": "address[]"
        },
        {
          "internalType": "uint256[]",
          "name": "_rewardForDuration",
          "type": "uint256[]"
        }
      ],
      "stateMutability": "view",
      "type": "function"
    },
    {
      "inputs": [],
      "name": "rewardPerToken",
      "outputs": [
        {
          "internalType": "address[]",
          "name": "_rewardTokens",
          "type": "address[]"
        },
        {
          "internalType": "uint256[]",
          "name": "_rewardPerTokenRate",
          "type": "uint256[]"
        }
      ],
      "stateMutability": "view",
      "type": "function"
    },
    {
      "inputs": [
        {
          "internalType": "address",
          "name": "",
          "type": "address"
        }
      ],
      "name": "rewardPerTokenStored",
      "outputs": [
        {
          "internalType": "uint256",
          "name": "",
          "type": "uint256"
        }
      ],
      "stateMutability": "view",
      "type": "function"
    },
    {
      "inputs": [
        {
          "internalType": "address",
          "name": "",
          "type": "address"
        }
      ],
      "name": "rewardRates",
      "outputs": [
        {
          "internalType": "uint256",
          "name": "",
          "type": "uint256"
        }
      ],
      "stateMutability": "view",
      "type": "function"
    },
    {
      "inputs": [
        {
          "internalType": "uint256",
          "name": "",
          "type": "uint256"
        }
      ],
      "name": "rewardTokens",
      "outputs": [
        {
          "internalType": "address",
          "name": "",
          "type": "address"
        }
      ],
      "stateMutability": "view",
      "type": "function"
    },
    {
      "inputs": [
        {
          "internalType": "address",
          "name": "",
          "type": "address"
        },
        {
          "internalType": "address",
          "name": "",
          "type": "address"
        }
      ],
      "name": "rewards",
      "outputs": [
        {
          "internalType": "uint256",
          "name": "",
          "type": "uint256"
        }
      ],
      "stateMutability": "view",
      "type": "function"
    },
    {
      "inputs": [
        {
          "internalType": "address",
          "name": "account_",
          "type": "address"
        }
      ],
      "name": "updateReward",
      "outputs": [],
      "stateMutability": "nonpayable",
      "type": "function"
    },
    {
      "inputs": [
        {
          "internalType": "address",
          "name": "",
          "type": "address"
        },
        {
          "internalType": "address",
          "name": "",
          "type": "address"
        }
      ],
      "name": "userRewardPerTokenPaid",
      "outputs": [
        {
          "internalType": "uint256",
          "name": "",
          "type": "uint256"
        }
      ],
      "stateMutability": "view",
      "type": "function"
    }
  ],
  "transactionHash": "0x16e16e660b7aaff3bbfb54c9f0e5445319e122a99f3ad9b2a1d868017775024a",
  "args": [],
  "numDeployments": 1,
  "solcInputHash": "b522076c28177bcdb00923bde5b60a7a",
  "bytecode": "0x608060405234801561001057600080fd5b50600180556122d6806100246000396000f3fe608060405234801561001057600080fd5b50600436106101625760003560e01c80639ce43f90116100c8578063cd3daf9d1161008c578063e70b9e2711610066578063e70b9e2714610363578063e9c544881461038e578063ffa1ad74146103ae57600080fd5b8063cd3daf9d14610328578063d279c19114610330578063da09d19d1461034357600080fd5b80639ce43f901461029a578063a3cd8ac4146102ba578063b5fd73f8146102cd578063bcd68eb614610300578063c4f59f9b1461031357600080fd5b8063632447c91161012a5780637035ab98116101045780637035ab98146102495780637bb7bed114610274578063946d92041461028757600080fd5b8063632447c91461021b578063638634ee1461022e5780636946a2351461024157600080fd5b806316f0115b146101675780631c03e6cc146101975780632ce9aead146101ac5780633d3b2603146101da578063402914f5146101fa575b600080fd5b60025461017a906001600160a01b031681565b6040516001600160a01b0390911681526020015b60405180910390f35b6101aa6101a5366004611d89565b6103df565b005b6101cc6101ba366004611d89565b60086020526000908152604090205481565b60405190815260200161018e565b6101cc6101e8366004611d89565b60066020526000908152604090205481565b61020d610208366004611d89565b610597565b60405161018e929190611de8565b6101aa610229366004611d89565b6107b0565b6101cc61023c366004611d89565b61090d565b61020d610952565b6101cc610257366004611e3f565b600a60209081526000928352604080842090915290825290205481565b61017a610282366004611e72565b610ac3565b6101aa610295366004611f68565b610aed565b6101cc6102a8366004611d89565b60096020526000908152604090205481565b6101aa6102c8366004611fb6565b610ce6565b6102f06102db366004611d89565b60046020526000908152604090205460ff1681565b604051901515815260200161018e565b6101aa61030e366004612044565b610dc2565b61031b610e9e565b60405161018e91906120cc565b61020d610f00565b6101aa61033e366004611d89565b611092565b6101cc610351366004611d89565b60056020526000908152604090205481565b6101cc610371366004611e3f565b600b60209081526000928352604080842090915290825290205481565b6101cc61039c366004611d89565b60076020526000908152604090205481565b6103d2604051806040016040528060058152602001640352e312e360dc1b81525081565b60405161018e919061210f565b6002546001600160a01b0316331461042f5760405162461bcd60e51b815260206004820152600e60248201526d1b9bdd0b585d5d1a1bdc9a5e995960921b60448201526064015b60405180910390fd5b6001600160a01b0381166104855760405162461bcd60e51b815260206004820152601960248201527f7265776172642d746f6b656e2d616464726573732d7a65726f000000000000006044820152606401610426565b6001600160a01b03811660009081526004602052604090205460ff16156104ee5760405162461bcd60e51b815260206004820152601a60248201527f7265776172642d746f6b656e2d616c72656164792d65786973740000000000006044820152606401610426565b806001600160a01b03167f438dc3ee1ea07ec168befb145c10eb363aad7cbec063f8a006b032031582ac2b60036040516105289190612142565b60405180910390a26003805460018181019092557fc2575a0e9e593c00f959f8c92f12db2869c3395a3b0502d05e2516446f71f85b0180546001600160a01b039093166001600160a01b031990931683179055600091825260046020526040909120805460ff19169091179055565b6060806000600260009054906101000a90046001600160a01b03166001600160a01b03166318160ddd6040518163ffffffff1660e01b815260040160206040518083038186803b1580156105ea57600080fd5b505afa1580156105fe573d6000803e3d6000fd5b505050506040513d601f19601f820116820180604052508101906106229190612192565b6002546040516370a0823160e01b81526001600160a01b038781166004830152929350600092909116906370a082319060240160206040518083038186803b15801561066d57600080fd5b505afa158015610681573d6000803e3d6000fd5b505050506040513d601f19601f820116820180604052508101906106a59190612192565b60038054604080516020808402820181019092528281529394508301828280156106f857602002820191906000526020600020905b81546001600160a01b031681526001909101906020018083116106da575b50508351939750839250505067ffffffffffffffff81111561071c5761071c611e8b565b604051908082528060200260200182016040528015610745578160200160208202803683370190505b50935060005b818110156107a757610778868281518110610768576107686121ab565b602002602001015188868661135c565b85828151811061078a5761078a6121ab565b60209081029190910101528061079f816121d7565b91505061074b565b50505050915091565b600254604080516318160ddd60e01b815290516000926001600160a01b0316916318160ddd916004808301926020929190829003018186803b1580156107f557600080fd5b505afa158015610809573d6000803e3d6000fd5b505050506040513d601f19601f8201168201806040525081019061082d9190612192565b6002546040516370a0823160e01b81526001600160a01b038581166004830152929350600092909116906370a082319060240160206040518083038186803b15801561087857600080fd5b505afa15801561088c573d6000803e3d6000fd5b505050506040513d601f19601f820116820180604052508101906108b09190612192565b60035490915060005b81811015610906576108f4600382815481106108d7576108d76121ab565b6000918252602090912001546001600160a01b03168686866113f3565b806108fe816121d7565b9150506108b9565b5050505050565b6001600160a01b038116600090815260056020526040812054421061094a576001600160a01b03821660009081526005602052604090205461094c565b425b92915050565b60608060038054806020026020016040519081016040528092919081815260200182805480156109ab57602002820191906000526020600020905b81546001600160a01b0316815260019091019060200180831161098d575b50508351939550839250505067ffffffffffffffff8111156109cf576109cf611e8b565b6040519080825280602002602001820160405280156109f8578160200160208202803683370190505b50915060005b81811015610abd5760076000858381518110610a1c57610a1c6121ab565b60200260200101516001600160a01b03166001600160a01b031681526020019081526020016000205460066000868481518110610a5b57610a5b6121ab565b60200260200101516001600160a01b03166001600160a01b0316815260200190815260200160002054610a8e91906121f2565b838281518110610aa057610aa06121ab565b602090810291909101015280610ab5816121d7565b9150506109fe565b50509091565b60038181548110610ad357600080fd5b6000918252602090912001546001600160a01b0316905081565b600054610100900460ff1680610b06575060005460ff16155b610b785760405162461bcd60e51b815260206004820152602e60248201527f496e697469616c697a61626c653a20636f6e747261637420697320616c72656160448201527f647920696e697469616c697a65640000000000000000000000000000000000006064820152608401610426565b600054610100900460ff16158015610b9a576000805461ffff19166101011790555b6001600160a01b038316610bf05760405162461bcd60e51b815260206004820152601460248201527f706f6f6c2d616464726573732d69732d7a65726f0000000000000000000000006044820152606401610426565b815180610c375760405162461bcd60e51b8152602060048201526015602482015274696e76616c69642d7265776172642d746f6b656e7360581b6044820152606401610426565b600280546001600160a01b0319166001600160a01b0386161790558251610c65906003906020860190611cf3565b5060005b81811015610ccd57600160046000868481518110610c8957610c896121ab565b6020908102919091018101516001600160a01b03168252810191909152604001600020805460ff191691151591909117905580610cc5816121d7565b915050610c69565b50508015610ce1576000805461ff00191690555b505050565b6002546001600160a01b03163314610d315760405162461bcd60e51b815260206004820152600e60248201526d1b9bdd0b585d5d1a1bdc9a5e995960921b6044820152606401610426565b610ce1838383600260009054906101000a90046001600160a01b03166001600160a01b03166318160ddd6040518163ffffffff1660e01b815260040160206040518083038186803b158015610d8557600080fd5b505afa158015610d99573d6000803e3d6000fd5b505050506040513d601f19601f82011682018060405250810190610dbd9190612192565b61149c565b6002546001600160a01b03163314610e0d5760405162461bcd60e51b815260206004820152600e60248201526d1b9bdd0b585d5d1a1bdc9a5e995960921b6044820152606401610426565b610ce1838383600260009054906101000a90046001600160a01b03166001600160a01b03166318160ddd6040518163ffffffff1660e01b815260040160206040518083038186803b158015610e6157600080fd5b505afa158015610e75573d6000803e3d6000fd5b505050506040513d601f19601f82011682018060405250810190610e999190612192565b611852565b60606003805480602002602001604051908101604052809291908181526020018280548015610ef657602002820191906000526020600020905b81546001600160a01b03168152600190910190602001808311610ed8575b5050505050905090565b6060806000600260009054906101000a90046001600160a01b03166001600160a01b03166318160ddd6040518163ffffffff1660e01b815260040160206040518083038186803b158015610f5357600080fd5b505afa158015610f67573d6000803e3d6000fd5b505050506040513d601f19601f82011682018060405250810190610f8b9190612192565b6003805460408051602080840282018101909252828152939450830182828015610fde57602002820191906000526020600020905b81546001600160a01b03168152600190910190602001808311610fc0575b50508351939650839250505067ffffffffffffffff81111561100257611002611e8b565b60405190808252806020026020018201604052801561102b578160200160208202803683370190505b50925060005b8181101561108b5761105c85828151811061104e5761104e6121ab565b602002602001015184611971565b84828151811061106e5761106e6121ab565b602090810291909101015280611083816121d7565b915050611031565b5050509091565b600260015414156110e55760405162461bcd60e51b815260206004820152601f60248201527f5265656e7472616e637947756172643a207265656e7472616e742063616c6c006044820152606401610426565b6002600181905554604080516318160ddd60e01b815290516000926001600160a01b0316916318160ddd916004808301926020929190829003018186803b15801561112f57600080fd5b505afa158015611143573d6000803e3d6000fd5b505050506040513d601f19601f820116820180604052508101906111679190612192565b6002546040516370a0823160e01b81526001600160a01b038581166004830152929350600092909116906370a082319060240160206040518083038186803b1580156111b257600080fd5b505afa1580156111c6573d6000803e3d6000fd5b505050506040513d601f19601f820116820180604052508101906111ea9190612192565b60035490915060005b8181101561135157600060038281548110611210576112106121ab565b6000918252602090912001546001600160a01b03169050611233818787876113f3565b6001600160a01b038082166000908152600b60209081526040808320938a168352929052205480158015906112de57506040516370a0823160e01b81523060048201526001600160a01b038316906370a082319060240160206040518083038186803b1580156112a257600080fd5b505afa1580156112b6573d6000803e3d6000fd5b505050506040513d601f19601f820116820180604052508101906112da9190612192565b8111155b1561133c576112ee828883611a32565b816001600160a01b0316876001600160a01b03167f540798df468d7b23d11f156fdb954cb19ad414d150722a7b6d55ba369dea792e8360405161133391815260200190565b60405180910390a35b50508080611349906121d7565b9150506111f3565b505060018055505050565b6001600160a01b038085166000908152600a6020908152604080832093871683529290529081205481906113908786611971565b61139a9190612211565b9050670de0b6b3a76400006113af82856121f2565b6113b99190612228565b6001600160a01b038088166000908152600b60209081526040808320938a16835292905220546113e9919061224a565b9695505050505050565b60006113ff8584611971565b6001600160a01b038616600090815260096020526040902081905590506114258561090d565b6001600160a01b03808716600090815260086020526040902091909155841615610906576114558585858561135c565b6001600160a01b038087166000818152600b60209081526040808320948a1680845294825280832095909555918152600a8252838120928152919052208190555050505050565b6001600160a01b0384166114f25760405162461bcd60e51b815260206004820152601660248201527f696e636f72726563742d7265776172642d746f6b656e000000000000000000006044820152606401610426565b600083116115425760405162461bcd60e51b815260206004820152601760248201527f696e636f72726563742d7265776172642d616d6f756e740000000000000000006044820152606401610426565b600082116115925760405162461bcd60e51b815260206004820152601960248201527f696e636f72726563742d7265776172642d6475726174696f6e000000000000006044820152606401610426565b6001600160a01b03841660009081526004602052604090205460ff166115fa5760405162461bcd60e51b815260206004820152601460248201527f696e76616c69642d7265776172642d746f6b656e0000000000000000000000006044820152606401610426565b6116048482611971565b6001600160a01b0385166000908152600960209081526040808320939093556005905220544210611657576116398284612228565b6001600160a01b0385166000908152600660205260409020556116d5565b6001600160a01b03841660009081526005602052604081205461167b904290612211565b6001600160a01b038616600090815260066020526040812054919250906116a290836121f2565b9050836116af828761224a565b6116b99190612228565b6001600160a01b03871660009081526006602052604090205550505b6040516370a0823160e01b815230600482015282906001600160a01b038616906370a082319060240160206040518083038186803b15801561171657600080fd5b505afa15801561172a573d6000803e3d6000fd5b505050506040513d601f19601f8201168201806040525081019061174e9190612192565b6117589190612228565b6001600160a01b03851660009081526006602052604090205411156117bf5760405162461bcd60e51b815260206004820152601060248201527f726577617264732d746f6f2d68696768000000000000000000000000000000006044820152606401610426565b6001600160a01b03841660009081526007602090815260408083208590556008909152902042908190556117f490839061224a565b6001600160a01b03851660008181526005602090815260409182902093909355805186815292830185905290917f6a6f77044107a33658235d41bedbbaf2fe9ccdceb313143c947a5e76e1ec8474910160405180910390a250505050565b8351806118995760405162461bcd60e51b8152602060048201526015602482015274696e76616c69642d7265776172642d746f6b656e7360581b6044820152606401610426565b8351811480156118a95750825181145b6118f55760405162461bcd60e51b815260206004820152601560248201527f61727261792d6c656e6774682d6d69736d6174636800000000000000000000006044820152606401610426565b60005b8181101561196957611957868281518110611915576119156121ab565b602002602001015186838151811061192f5761192f6121ab565b6020026020010151868481518110611949576119496121ab565b60200260200101518661149c565b80611961816121d7565b9150506118f8565b505050505050565b60008161199757506001600160a01b03821660009081526009602052604090205461094c565b6001600160a01b0383166000908152600860205260408120546119b98561090d565b6119c39190612211565b6001600160a01b03851660009081526006602052604090205490915083906119eb90836121f2565b6119fd90670de0b6b3a76400006121f2565b611a079190612228565b6001600160a01b038516600090815260096020526040902054611a2a919061224a565b949350505050565b6001600160a01b038381166000818152600b60209081526040808320948716808452948252808320839055805160248101959095526044808601879052815180870390910181526064909501815284820180517bffffffffffffffffffffffffffffffffffffffffffffffffffffffff1663a9059cbb60e01b17905280518082019091528181527f5361666545524332303a206c6f772d6c6576656c2063616c6c206661696c656491810191909152610ce19386928692869286929091611afc9084908490611b79565b805190915015610ce15780806020019051810190611b1a9190612262565b610ce15760405162461bcd60e51b815260206004820152602a60248201527f5361666545524332303a204552433230206f7065726174696f6e20646964206e6044820152691bdd081cdd58d8d9595960b21b6064820152608401610426565b6060611b888484600085611b92565b90505b9392505050565b606082471015611bf35760405162461bcd60e51b815260206004820152602660248201527f416464726573733a20696e73756666696369656e742062616c616e636520666f6044820152651c8818d85b1b60d21b6064820152608401610426565b843b611c415760405162461bcd60e51b815260206004820152601d60248201527f416464726573733a2063616c6c20746f206e6f6e2d636f6e74726163740000006044820152606401610426565b600080866001600160a01b03168587604051611c5d9190612284565b60006040518083038185875af1925050503d8060008114611c9a576040519150601f19603f3d011682016040523d82523d6000602084013e611c9f565b606091505b5091509150611caf828286611cba565b979650505050505050565b60608315611cc9575081611b8b565b825115611cd95782518084602001fd5b8160405162461bcd60e51b8152600401610426919061210f565b828054828255906000526020600020908101928215611d48579160200282015b82811115611d4857825182546001600160a01b0319166001600160a01b03909116178255602090920191600190910190611d13565b50611d54929150611d58565b5090565b5b80821115611d545760008155600101611d59565b80356001600160a01b0381168114611d8457600080fd5b919050565b600060208284031215611d9b57600080fd5b611b8b82611d6d565b600081518084526020808501945080840160005b83811015611ddd5781516001600160a01b031687529582019590820190600101611db8565b509495945050505050565b604081526000611dfb6040830185611da4565b82810360208481019190915284518083528582019282019060005b81811015611e3257845183529383019391830191600101611e16565b5090979650505050505050565b60008060408385031215611e5257600080fd5b611e5b83611d6d565b9150611e6960208401611d6d565b90509250929050565b600060208284031215611e8457600080fd5b5035919050565b634e487b7160e01b600052604160045260246000fd5b604051601f8201601f1916810167ffffffffffffffff81118282101715611eca57611eca611e8b565b604052919050565b600067ffffffffffffffff821115611eec57611eec611e8b565b5060051b60200190565b600082601f830112611f0757600080fd5b81356020611f1c611f1783611ed2565b611ea1565b82815260059290921b84018101918181019086841115611f3b57600080fd5b8286015b84811015611f5d57611f5081611d6d565b8352918301918301611f3f565b509695505050505050565b60008060408385031215611f7b57600080fd5b611f8483611d6d565b9150602083013567ffffffffffffffff811115611fa057600080fd5b611fac85828601611ef6565b9150509250929050565b600080600060608486031215611fcb57600080fd5b611fd484611d6d565b95602085013595506040909401359392505050565b600082601f830112611ffa57600080fd5b8135602061200a611f1783611ed2565b82815260059290921b8401810191818101908684111561202957600080fd5b8286015b84811015611f5d578035835291830191830161202d565b60008060006060848603121561205957600080fd5b833567ffffffffffffffff8082111561207157600080fd5b61207d87838801611ef6565b9450602086013591508082111561209357600080fd5b61209f87838801611fe9565b935060408601359150808211156120b557600080fd5b506120c286828701611fe9565b9150509250925092565b602081526000611b8b6020830184611da4565b60005b838110156120fa5781810151838201526020016120e2565b83811115612109576000848401525b50505050565b602081526000825180602084015261212e8160408501602087016120df565b601f01601f19169190910160400192915050565b6020808252825482820181905260008481528281209092916040850190845b818110156121865783546001600160a01b031683526001938401939285019201612161565b50909695505050505050565b6000602082840312156121a457600080fd5b5051919050565b634e487b7160e01b600052603260045260246000fd5b634e487b7160e01b600052601160045260246000fd5b60006000198214156121eb576121eb6121c1565b5060010190565b600081600019048311821515161561220c5761220c6121c1565b500290565b600082821015612223576122236121c1565b500390565b60008261224557634e487b7160e01b600052601260045260246000fd5b500490565b6000821982111561225d5761225d6121c1565b500190565b60006020828403121561227457600080fd5b81518015158114611b8b57600080fd5b600082516122968184602087016120df565b919091019291505056fea2646970667358221220f1d301d4dc35abd67afc62f65d8f604565bc1b0c76097d24fa13278ad824efe764736f6c63430008090033",
  "devdoc": {
    "details": "The main change is making this contract managed by the wrapper itself",
    "kind": "dev",
    "methods": {
      "claimReward(address)": {
        "details": "This function will claim rewards for all tokens being rewarded"
      },
      "claimable(address)": {
        "returns": {
          "_claimableAmounts": "Array of claimable for token on same index in rewardTokens",
          "_rewardTokens": "Array of tokens being rewarded"
        }
      },
      "initialize(address,address[])": {
        "details": "Called by proxy to initialize this contract",
        "params": {
          "pool_": "Vesper pool address",
          "rewardTokens_": "Array of reward token addresses"
        }
      },
      "notifyRewardAmount(address[],uint256[],uint256[])": {
        "details": "Also updates reward rate and reward earning period.",
        "params": {
          "rewardAmounts_": "Rewards amount for token on same index in rewardTokens array",
          "rewardDurations_": "Duration for which reward will be distributed",
          "rewardTokens_": "Tokens being rewarded"
        }
      },
      "rewardPerToken()": {
        "returns": {
          "_rewardPerTokenRate": "Array of Rewards rate for token on same index in rewardTokens",
          "_rewardTokens": "Array of tokens being rewarded"
        }
      }
    },
    "title": "Distribute rewards based on Vesper pool ERC4626 Wrapper balance and supply",
    "version": 1
  },
  "userdoc": {
    "events": {
      "RewardAdded(address,uint256,uint256)": {
        "notice": "Emitted after reward added"
      },
      "RewardPaid(address,address,uint256)": {
        "notice": "Emitted whenever any user claim rewards"
      },
      "RewardTokenAdded(address,address[])": {
        "notice": "Emitted after adding new rewards token into rewardTokens array"
      }
    },
    "kind": "user",
    "methods": {
      "addRewardToken(address)": {
        "notice": "Add new reward token in existing rewardsToken array"
      },
      "claimReward(address)": {
        "notice": "Claim earned rewards."
      },
      "claimable(address)": {
        "notice": "Returns claimable reward amount."
      },
      "getRewardTokens()": {
        "notice": "Provides easy access to all rewardTokens"
      },
      "isRewardToken(address)": {
        "notice": "Reward token to valid/invalid flag mapping"
      },
      "lastTimeRewardApplicable(address)": {
        "notice": "Returns timestamp of last reward update"
      },
      "lastUpdateTime(address)": {
        "notice": "Reward token to Last reward drip update time stamp mapping"
      },
      "notifyRewardAmount(address[],uint256[],uint256[])": {
        "notice": "Notify that reward is added. Only authorized caller can call"
      },
      "periodFinish(address)": {
        "notice": "Reward token to period ending of current reward"
      },
      "pool()": {
        "notice": "Vesper pool address"
      },
      "rewardDuration(address)": {
        "notice": "Reward token to Duration of current reward distribution"
      },
      "rewardPerToken()": {
        "notice": "Rewards rate per pool token"
      },
      "rewardPerTokenStored(address)": {
        "notice": "Reward token to Reward per token mapping. Calculated and stored at last drip update"
      },
      "rewardRates(address)": {
        "notice": "Reward token to current reward rate mapping"
      },
      "rewardTokens(uint256)": {
        "notice": "Array of reward token addresses"
      },
      "rewards(address,address)": {
        "notice": "RewardToken => User => Rewards earned till last reward update"
      },
      "updateReward(address)": {
        "notice": "Updated reward for given account."
      },
      "userRewardPerTokenPaid(address,address)": {
        "notice": "Reward token => User => Reward per token stored at last reward update"
      }
    },
    "version": 1
  },
  "storageLayout": {
    "storage": [
      {
        "astId": 6819,
        "contract": "contracts/PoolRewardsWrapper.sol:PoolRewardsWrapper",
        "label": "_initialized",
        "offset": 0,
        "slot": "0",
        "type": "t_bool"
      },
      {
        "astId": 6822,
        "contract": "contracts/PoolRewardsWrapper.sol:PoolRewardsWrapper",
        "label": "_initializing",
        "offset": 1,
        "slot": "0",
        "type": "t_bool"
      },
      {
        "astId": 6870,
        "contract": "contracts/PoolRewardsWrapper.sol:PoolRewardsWrapper",
        "label": "_status",
        "offset": 0,
        "slot": "1",
        "type": "t_uint256"
      },
      {
        "astId": 10838,
        "contract": "contracts/PoolRewardsWrapper.sol:PoolRewardsWrapper",
        "label": "pool",
        "offset": 0,
        "slot": "2",
        "type": "t_address"
      },
      {
        "astId": 10842,
        "contract": "contracts/PoolRewardsWrapper.sol:PoolRewardsWrapper",
        "label": "rewardTokens",
        "offset": 0,
        "slot": "3",
        "type": "t_array(t_address)dyn_storage"
      },
      {
        "astId": 10847,
        "contract": "contracts/PoolRewardsWrapper.sol:PoolRewardsWrapper",
        "label": "isRewardToken",
        "offset": 0,
        "slot": "4",
        "type": "t_mapping(t_address,t_bool)"
      },
      {
        "astId": 10852,
        "contract": "contracts/PoolRewardsWrapper.sol:PoolRewardsWrapper",
        "label": "periodFinish",
        "offset": 0,
        "slot": "5",
        "type": "t_mapping(t_address,t_uint256)"
      },
      {
        "astId": 10857,
        "contract": "contracts/PoolRewardsWrapper.sol:PoolRewardsWrapper",
        "label": "rewardRates",
        "offset": 0,
        "slot": "6",
        "type": "t_mapping(t_address,t_uint256)"
      },
      {
        "astId": 10862,
        "contract": "contracts/PoolRewardsWrapper.sol:PoolRewardsWrapper",
        "label": "rewardDuration",
        "offset": 0,
        "slot": "7",
        "type": "t_mapping(t_address,t_uint256)"
      },
      {
        "astId": 10867,
        "contract": "contracts/PoolRewardsWrapper.sol:PoolRewardsWrapper",
        "label": "lastUpdateTime",
        "offset": 0,
        "slot": "8",
        "type": "t_mapping(t_address,t_uint256)"
      },
      {
        "astId": 10872,
        "contract": "contracts/PoolRewardsWrapper.sol:PoolRewardsWrapper",
        "label": "rewardPerTokenStored",
        "offset": 0,
        "slot": "9",
        "type": "t_mapping(t_address,t_uint256)"
      },
      {
        "astId": 10879,
        "contract": "contracts/PoolRewardsWrapper.sol:PoolRewardsWrapper",
        "label": "userRewardPerTokenPaid",
        "offset": 0,
        "slot": "10",
        "type": "t_mapping(t_address,t_mapping(t_address,t_uint256))"
      },
      {
        "astId": 10886,
        "contract": "contracts/PoolRewardsWrapper.sol:PoolRewardsWrapper",
        "label": "rewards",
        "offset": 0,
        "slot": "11",
        "type": "t_mapping(t_address,t_mapping(t_address,t_uint256))"
      }
    ],
    "types": {
      "t_address": {
        "encoding": "inplace",
        "label": "address",
        "numberOfBytes": "20"
      },
      "t_array(t_address)dyn_storage": {
        "base": "t_address",
        "encoding": "dynamic_array",
        "label": "address[]",
        "numberOfBytes": "32"
      },
      "t_bool": {
        "encoding": "inplace",
        "label": "bool",
        "numberOfBytes": "1"
      },
      "t_mapping(t_address,t_bool)": {
        "encoding": "mapping",
        "key": "t_address",
        "label": "mapping(address => bool)",
        "numberOfBytes": "32",
        "value": "t_bool"
      },
      "t_mapping(t_address,t_mapping(t_address,t_uint256))": {
        "encoding": "mapping",
        "key": "t_address",
        "label": "mapping(address => mapping(address => uint256))",
        "numberOfBytes": "32",
        "value": "t_mapping(t_address,t_uint256)"
      },
      "t_mapping(t_address,t_uint256)": {
        "encoding": "mapping",
        "key": "t_address",
        "label": "mapping(address => uint256)",
        "numberOfBytes": "32",
        "value": "t_uint256"
      },
      "t_uint256": {
        "encoding": "inplace",
        "label": "uint256",
        "numberOfBytes": "32"
      }
    }
  }
}