{
  "address": "0x22E7f6359Ee5A65B7e769838F983daC90FEd259e",
  "abi": [
    {
      "inputs": [],
      "stateMutability": "nonpayable",
      "type": "constructor"
    },
    {
      "anonymous": false,
      "inputs": [
        {
          "indexed": true,
          "internalType": "address",
          "name": "owner",
          "type": "address"
        },
        {
          "indexed": true,
          "internalType": "address",
          "name": "spender",
          "type": "address"
        },
        {
          "indexed": false,
          "internalType": "uint256",
          "name": "value",
          "type": "uint256"
        }
      ],
      "name": "Approval",
      "type": "event"
    },
    {
      "anonymous": false,
      "inputs": [
        {
          "indexed": true,
          "internalType": "address",
          "name": "sender",
          "type": "address"
        },
        {
          "indexed": true,
          "internalType": "address",
          "name": "owner",
          "type": "address"
        },
        {
          "indexed": false,
          "internalType": "uint256",
          "name": "assets",
          "type": "uint256"
        },
        {
          "indexed": false,
          "internalType": "uint256",
          "name": "shares",
          "type": "uint256"
        }
      ],
      "name": "Deposit",
      "type": "event"
    },
    {
      "anonymous": false,
      "inputs": [
        {
          "indexed": false,
          "internalType": "uint8",
          "name": "version",
          "type": "uint8"
        }
      ],
      "name": "Initialized",
      "type": "event"
    },
    {
      "anonymous": false,
      "inputs": [
        {
          "indexed": true,
          "internalType": "address",
          "name": "from",
          "type": "address"
        },
        {
          "indexed": true,
          "internalType": "address",
          "name": "to",
          "type": "address"
        },
        {
          "indexed": false,
          "internalType": "uint256",
          "name": "value",
          "type": "uint256"
        }
      ],
      "name": "Transfer",
      "type": "event"
    },
    {
      "anonymous": false,
      "inputs": [
        {
          "indexed": true,
          "internalType": "contract IPoolRewards",
          "name": "poolRewards",
          "type": "address"
        },
        {
          "indexed": true,
          "internalType": "contract IPoolRewards",
          "name": "newPoolRewards",
          "type": "address"
        }
      ],
      "name": "UpdatedWrapperRewards",
      "type": "event"
    },
    {
      "anonymous": false,
      "inputs": [
        {
          "indexed": true,
          "internalType": "address",
          "name": "sender",
          "type": "address"
        },
        {
          "indexed": true,
          "internalType": "address",
          "name": "receiver",
          "type": "address"
        },
        {
          "indexed": true,
          "internalType": "address",
          "name": "owner",
          "type": "address"
        },
        {
          "indexed": false,
          "internalType": "uint256",
          "name": "assets",
          "type": "uint256"
        },
        {
          "indexed": false,
          "internalType": "uint256",
          "name": "shares",
          "type": "uint256"
        }
      ],
      "name": "Withdraw",
      "type": "event"
    },
    {
      "inputs": [
        {
          "internalType": "address",
          "name": "owner",
          "type": "address"
        },
        {
          "internalType": "address",
          "name": "spender",
          "type": "address"
        }
      ],
      "name": "allowance",
      "outputs": [
        {
          "internalType": "uint256",
          "name": "",
          "type": "uint256"
        }
      ],
      "stateMutability": "view",
      "type": "function"
    },
    {
      "inputs": [
        {
          "internalType": "address",
          "name": "spender",
          "type": "address"
        },
        {
          "internalType": "uint256",
          "name": "amount",
          "type": "uint256"
        }
      ],
      "name": "approve",
      "outputs": [
        {
          "internalType": "bool",
          "name": "",
          "type": "bool"
        }
      ],
      "stateMutability": "nonpayable",
      "type": "function"
    },
    {
      "inputs": [],
      "name": "asset",
      "outputs": [
        {
          "internalType": "address",
          "name": "",
          "type": "address"
        }
      ],
      "stateMutability": "view",
      "type": "function"
    },
    {
      "inputs": [
        {
          "internalType": "address",
          "name": "account",
          "type": "address"
        }
      ],
      "name": "balanceOf",
      "outputs": [
        {
          "internalType": "uint256",
          "name": "",
          "type": "uint256"
        }
      ],
      "stateMutability": "view",
      "type": "function"
    },
    {
      "inputs": [
        {
          "internalType": "address",
          "name": "account_",
          "type": "address"
        }
      ],
      "name": "claimRewards",
      "outputs": [],
      "stateMutability": "nonpayable",
      "type": "function"
    },
    {
      "inputs": [
        {
          "internalType": "uint256",
          "name": "shares_",
          "type": "uint256"
        }
      ],
      "name": "convertToAssets",
      "outputs": [
        {
          "internalType": "uint256",
          "name": "",
          "type": "uint256"
        }
      ],
      "stateMutability": "view",
      "type": "function"
    },
    {
      "inputs": [
        {
          "internalType": "uint256",
          "name": "assets_",
          "type": "uint256"
        }
      ],
      "name": "convertToShares",
      "outputs": [
        {
          "internalType": "uint256",
          "name": "",
          "type": "uint256"
        }
      ],
      "stateMutability": "view",
      "type": "function"
    },
    {
      "inputs": [],
      "name": "decimals",
      "outputs": [
        {
          "internalType": "uint8",
          "name": "",
          "type": "uint8"
        }
      ],
      "stateMutability": "view",
      "type": "function"
    },
    {
      "inputs": [
        {
          "internalType": "address",
          "name": "spender",
          "type": "address"
        },
        {
          "internalType": "uint256",
          "name": "subtractedValue",
          "type": "uint256"
        }
      ],
      "name": "decreaseAllowance",
      "outputs": [
        {
          "internalType": "bool",
          "name": "",
          "type": "bool"
        }
      ],
      "stateMutability": "nonpayable",
      "type": "function"
    },
    {
      "inputs": [
        {
          "internalType": "uint256",
          "name": "assets",
          "type": "uint256"
        },
        {
          "internalType": "address",
          "name": "receiver",
          "type": "address"
        }
      ],
      "name": "deposit",
      "outputs": [
        {
          "internalType": "uint256",
          "name": "",
          "type": "uint256"
        }
      ],
      "stateMutability": "nonpayable",
      "type": "function"
    },
    {
      "inputs": [],
      "name": "dripToWrapperRewards",
      "outputs": [],
      "stateMutability": "nonpayable",
      "type": "function"
    },
    {
      "inputs": [],
      "name": "governor",
      "outputs": [
        {
          "internalType": "address",
          "name": "",
          "type": "address"
        }
      ],
      "stateMutability": "view",
      "type": "function"
    },
    {
      "inputs": [
        {
          "internalType": "address",
          "name": "spender",
          "type": "address"
        },
        {
          "internalType": "uint256",
          "name": "addedValue",
          "type": "uint256"
        }
      ],
      "name": "increaseAllowance",
      "outputs": [
        {
          "internalType": "bool",
          "name": "",
          "type": "bool"
        }
      ],
      "stateMutability": "nonpayable",
      "type": "function"
    },
    {
      "inputs": [
        {
          "internalType": "contract IVesperPool",
          "name": "vToken_",
          "type": "address"
        }
      ],
      "name": "initialize",
      "outputs": [],
      "stateMutability": "nonpayable",
      "type": "function"
    },
    {
      "inputs": [
        {
          "internalType": "address",
          "name": "",
          "type": "address"
        }
      ],
      "name": "maxDeposit",
      "outputs": [
        {
          "internalType": "uint256",
          "name": "",
          "type": "uint256"
        }
      ],
      "stateMutability": "view",
      "type": "function"
    },
    {
      "inputs": [
        {
          "internalType": "address",
          "name": "",
          "type": "address"
        }
      ],
      "name": "maxMint",
      "outputs": [
        {
          "internalType": "uint256",
          "name": "",
          "type": "uint256"
        }
      ],
      "stateMutability": "view",
      "type": "function"
    },
    {
      "inputs": [
        {
          "internalType": "address",
          "name": "owner_",
          "type": "address"
        }
      ],
      "name": "maxRedeem",
      "outputs": [
        {
          "internalType": "uint256",
          "name": "",
          "type": "uint256"
        }
      ],
      "stateMutability": "view",
      "type": "function"
    },
    {
      "inputs": [
        {
          "internalType": "address",
          "name": "owner_",
          "type": "address"
        }
      ],
      "name": "maxWithdraw",
      "outputs": [
        {
          "internalType": "uint256",
          "name": "",
          "type": "uint256"
        }
      ],
      "stateMutability": "view",
      "type": "function"
    },
    {
      "inputs": [
        {
          "internalType": "uint256",
          "name": "shares",
          "type": "uint256"
        },
        {
          "internalType": "address",
          "name": "receiver",
          "type": "address"
        }
      ],
      "name": "mint",
      "outputs": [
        {
          "internalType": "uint256",
          "name": "",
          "type": "uint256"
        }
      ],
      "stateMutability": "nonpayable",
      "type": "function"
    },
    {
      "inputs": [],
      "name": "name",
      "outputs": [
        {
          "internalType": "string",
          "name": "",
          "type": "string"
        }
      ],
      "stateMutability": "view",
      "type": "function"
    },
    {
      "inputs": [
        {
          "internalType": "uint256",
          "name": "assets",
          "type": "uint256"
        }
      ],
      "name": "previewDeposit",
      "outputs": [
        {
          "internalType": "uint256",
          "name": "",
          "type": "uint256"
        }
      ],
      "stateMutability": "view",
      "type": "function"
    },
    {
      "inputs": [
        {
          "internalType": "uint256",
          "name": "shares_",
          "type": "uint256"
        }
      ],
      "name": "previewMint",
      "outputs": [
        {
          "internalType": "uint256",
          "name": "",
          "type": "uint256"
        }
      ],
      "stateMutability": "view",
      "type": "function"
    },
    {
      "inputs": [
        {
          "internalType": "uint256",
          "name": "shares",
          "type": "uint256"
        }
      ],
      "name": "previewRedeem",
      "outputs": [
        {
          "internalType": "uint256",
          "name": "",
          "type": "uint256"
        }
      ],
      "stateMutability": "view",
      "type": "function"
    },
    {
      "inputs": [
        {
          "internalType": "uint256",
          "name": "assets_",
          "type": "uint256"
        }
      ],
      "name": "previewWithdraw",
      "outputs": [
        {
          "internalType": "uint256",
          "name": "",
          "type": "uint256"
        }
      ],
      "stateMutability": "view",
      "type": "function"
    },
    {
      "inputs": [
        {
          "internalType": "uint256",
          "name": "shares",
          "type": "uint256"
        },
        {
          "internalType": "address",
          "name": "receiver",
          "type": "address"
        },
        {
          "internalType": "address",
          "name": "owner",
          "type": "address"
        }
      ],
      "name": "redeem",
      "outputs": [
        {
          "internalType": "uint256",
          "name": "",
          "type": "uint256"
        }
      ],
      "stateMutability": "nonpayable",
      "type": "function"
    },
    {
      "inputs": [],
      "name": "symbol",
      "outputs": [
        {
          "internalType": "string",
          "name": "",
          "type": "string"
        }
      ],
      "stateMutability": "view",
      "type": "function"
    },
    {
      "inputs": [],
      "name": "totalAssets",
      "outputs": [
        {
          "internalType": "uint256",
          "name": "",
          "type": "uint256"
        }
      ],
      "stateMutability": "view",
      "type": "function"
    },
    {
      "inputs": [],
      "name": "totalSupply",
      "outputs": [
        {
          "internalType": "uint256",
          "name": "",
          "type": "uint256"
        }
      ],
      "stateMutability": "view",
      "type": "function"
    },
    {
      "inputs": [
        {
          "internalType": "address",
          "name": "to",
          "type": "address"
        },
        {
          "internalType": "uint256",
          "name": "amount",
          "type": "uint256"
        }
      ],
      "name": "transfer",
      "outputs": [
        {
          "internalType": "bool",
          "name": "",
          "type": "bool"
        }
      ],
      "stateMutability": "nonpayable",
      "type": "function"
    },
    {
      "inputs": [
        {
          "internalType": "address",
          "name": "from",
          "type": "address"
        },
        {
          "internalType": "address",
          "name": "to",
          "type": "address"
        },
        {
          "internalType": "uint256",
          "name": "amount",
          "type": "uint256"
        }
      ],
      "name": "transferFrom",
      "outputs": [
        {
          "internalType": "bool",
          "name": "",
          "type": "bool"
        }
      ],
      "stateMutability": "nonpayable",
      "type": "function"
    },
    {
      "inputs": [
        {
          "internalType": "address",
          "name": "account_",
          "type": "address"
        }
      ],
      "name": "updateRewards",
      "outputs": [],
      "stateMutability": "nonpayable",
      "type": "function"
    },
    {
      "inputs": [
        {
          "internalType": "contract IPoolRewards",
          "name": "newWrapperRewards_",
          "type": "address"
        }
      ],
      "name": "updateWrapperRewards",
      "outputs": [],
      "stateMutability": "nonpayable",
      "type": "function"
    },
    {
      "inputs": [],
      "name": "vToken",
      "outputs": [
        {
          "internalType": "contract IVesperPool",
          "name": "",
          "type": "address"
        }
      ],
      "stateMutability": "view",
      "type": "function"
    },
    {
      "inputs": [
        {
          "internalType": "uint256",
          "name": "assets",
          "type": "uint256"
        },
        {
          "internalType": "address",
          "name": "receiver",
          "type": "address"
        },
        {
          "internalType": "address",
          "name": "owner",
          "type": "address"
        }
      ],
      "name": "withdraw",
      "outputs": [
        {
          "internalType": "uint256",
          "name": "",
          "type": "uint256"
        }
      ],
      "stateMutability": "nonpayable",
      "type": "function"
    },
    {
      "inputs": [],
      "name": "wrapperRewards",
      "outputs": [
        {
          "internalType": "contract IPoolRewards",
          "name": "",
          "type": "address"
        }
      ],
      "stateMutability": "view",
      "type": "function"
    }
  ],
  "transactionHash": "0xff1c013c3d005660e9cadef506765622eb33f07950935d84c6ec7c87e8ff84a3",
  "args": [],
  "numDeployments": 1,
  "solcInputHash": "b522076c28177bcdb00923bde5b60a7a",
  "bytecode": "0x60806040523480156200001157600080fd5b506200001c62000022565b620000e4565b600054610100900460ff16156200008f5760405162461bcd60e51b815260206004820152602760248201527f496e697469616c697a61626c653a20636f6e747261637420697320696e697469604482015266616c697a696e6760c81b606482015260840160405180910390fd5b60005460ff9081161015620000e2576000805460ff191660ff9081179091556040519081527f7f26b83ff96e1f2b6a682f133852f6798a09c465da95921460cefb38474024989060200160405180910390a15b565b61301e80620000f46000396000f3fe608060405234801561001057600080fd5b50600436106102115760003560e01c80639222ce0511610125578063c4d66de8116100ad578063d905777e1161007c578063d905777e14610478578063dd62ed3e1461048b578063e122e355146104c4578063ef5cfb8c146104d7578063ef8b30f7146104ea57600080fd5b8063c4d66de81461042c578063c63d75b61461043f578063c6e6f59214610452578063ce96cb771461046557600080fd5b8063a457c2d7116100f4578063a457c2d7146103cd578063a9059cbb146103e0578063b3d7f6b9146103f3578063b460af9414610406578063ba0876521461041957600080fd5b80639222ce051461038c57806394bf804d1461039f57806395d89b41146103b25780639bb1a99c146103ba57600080fd5b806323b872dd116101a8578063402d267d11610177578063402d267d146103175780634cdad5061461032a5780635fd619651461033d5780636e553f651461035057806370a082311461036357600080fd5b806323b872dd146102c1578063313ce567146102d457806338d52e0f146102f3578063395093511461030457600080fd5b80630a28a477116101e45780630a28a4771461027c5780630c340a241461028f578063103515ff146102af57806318160ddd146102b957600080fd5b806301e1d1141461021657806306fdde031461023157806307a2d13a14610246578063095ea7b314610259575b600080fd5b61021e6104fd565b6040519081526020015b60405180910390f35b610239610622565b6040516102289190612afc565b61021e610254366004612b2f565b6106b4565b61026c610267366004612b5d565b61075f565b6040519015158152602001610228565b61021e61028a366004612b2f565b610777565b610297610782565b6040516001600160a01b039091168152602001610228565b6102b76107ff565b005b60355461021e565b61026c6102cf366004612b89565b610bfe565b606554600160a01b900460ff1660405160ff9091168152602001610228565b6065546001600160a01b0316610297565b61026c610312366004612b5d565b610c22565b61021e610325366004612bca565b610c61565b61021e610338366004612b2f565b610cf4565b6102b761034b366004612bca565b610cff565b61021e61035e366004612be7565b610d72565b61021e610371366004612bca565b6001600160a01b031660009081526033602052604090205490565b6102b761039a366004612bca565b610dec565b61021e6103ad366004612be7565b610ef5565b610239610f68565b609754610297906001600160a01b031681565b61026c6103db366004612b5d565b610f77565b61026c6103ee366004612b5d565b611009565b61021e610401366004612b2f565b611017565b61021e610414366004612c17565b611149565b61021e610427366004612c17565b6111bd565b6102b761043a366004612bca565b611231565b61021e61044d366004612bca565b611420565b61021e610460366004612b2f565b61153c565b61021e610473366004612bca565b61161c565b61021e610486366004612bca565b6116c8565b61021e610499366004612c59565b6001600160a01b03918216600090815260346020908152604080832093909416825291909152205490565b609854610297906001600160a01b031681565b6102b76104e5366004612bca565b611770565b61021e6104f8366004612b2f565b6117b0565b6000670de0b6b3a7640000609760009054906101000a90046001600160a01b03166001600160a01b03166399530b066040518163ffffffff1660e01b815260040160206040518083038186803b15801561055657600080fd5b505afa15801561056a573d6000803e3d6000fd5b505050506040513d601f19601f8201168201806040525081019061058e9190612c87565b6097546040516370a0823160e01b81523060048201526001600160a01b03909116906370a082319060240160206040518083038186803b1580156105d157600080fd5b505afa1580156105e5573d6000803e3d6000fd5b505050506040513d601f19601f820116820180604052508101906106099190612c87565b6106139190612cb6565b61061d9190612cd5565b905090565b60606036805461063190612cf7565b80601f016020809104026020016040519081016040528092919081815260200182805461065d90612cf7565b80156106aa5780601f1061067f576101008083540402835291602001916106aa565b820191906000526020600020905b81548152906001019060200180831161068d57829003601f168201915b5050505050905090565b6000670de0b6b3a7640000609760009054906101000a90046001600160a01b03166001600160a01b03166399530b066040518163ffffffff1660e01b815260040160206040518083038186803b15801561070d57600080fd5b505afa158015610721573d6000803e3d6000fd5b505050506040513d601f19601f820116820180604052508101906107459190612c87565b61074f9084612cb6565b6107599190612cd5565b92915050565b60003361076d8185856118d3565b5060019392505050565b60006107598261153c565b6097546040805163030d028960e21b815290516000926001600160a01b031691630c340a24916004808301926020929190829003018186803b1580156107c757600080fd5b505afa1580156107db573d6000803e3d6000fd5b505050506040513d601f19601f8201168201806040525081019061061d9190612d32565b6098546001600160a01b0316806108135750565b609754604080516345e35f5960e11b815290516000926001600160a01b031691638bc6beb2916004808301926020929190829003018186803b15801561085857600080fd5b505afa15801561086c573d6000803e3d6000fd5b505050506040513d601f19601f820116820180604052508101906108909190612d32565b90506001600160a01b0381166108a4575050565b60405163d279c19160e01b81523060048201526001600160a01b0382169063d279c19190602401600060405180830381600087803b1580156108e557600080fd5b505af11580156108f9573d6000803e3d6000fd5b505050506000816001600160a01b031663c4f59f9b6040518163ffffffff1660e01b815260040160006040518083038186803b15801561093857600080fd5b505afa15801561094c573d6000803e3d6000fd5b505050506040513d6000823e601f3d908101601f191682016040526109749190810190612d96565b805190915060005b81811015610bf757600083828151811061099857610998612e48565b60209081029190910101516097549091506001600160a01b0380831691161415610a095760405162461bcd60e51b815260206004820152601d60248201527f76706f6f6c2d61732d7265776172642d6e6f742d737570706f7274656400000060448201526064015b60405180910390fd5b6040516370a0823160e01b81523060048201526000906001600160a01b038316906370a082319060240160206040518083038186803b158015610a4b57600080fd5b505afa158015610a5f573d6000803e3d6000fd5b505050506040513d601f19601f82011682018060405250810190610a839190612c87565b90508015610be4576040516316bfae7f60e31b81526001600160a01b03838116600483015288169063b5fd73f89060240160206040518083038186803b158015610acc57600080fd5b505afa158015610ae0573d6000803e3d6000fd5b505050506040513d601f19601f82011682018060405250810190610b049190612e5e565b610b6457604051630700f9b360e21b81526001600160a01b038381166004830152881690631c03e6cc90602401600060405180830381600087803b158015610b4b57600080fd5b505af1158015610b5f573d6000803e3d6000fd5b505050505b610b786001600160a01b03831688836119f7565b6040516328f362b160e21b81526001600160a01b038381166004830152602482018390526213c680604483015288169063a3cd8ac490606401600060405180830381600087803b158015610bcb57600080fd5b505af1158015610bdf573d6000803e3d6000fd5b505050505b505080610bf090612e80565b905061097c565b5050505050565b600033610c0c858285611a77565b610c17858585611b09565b506001949350505050565b3360008181526034602090815260408083206001600160a01b038716845290915281205490919061076d9082908690610c5c908790612e9b565b6118d3565b60975460408051635c975abb60e01b815290516000926001600160a01b031691635c975abb916004808301926020929190829003018186803b158015610ca657600080fd5b505afa158015610cba573d6000803e3d6000fd5b505050506040513d601f19601f82011682018060405250810190610cde9190612e5e565b15610ceb57506000919050565b50600019919050565b6000610759826106b4565b6098546001600160a01b03168015610d6e5760405163632447c960e01b81526001600160a01b03838116600483015282169063632447c9906024015b600060405180830381600087803b158015610d5557600080fd5b505af1158015610d69573d6000803e3d6000fd5b505050505b5050565b6000610d7d82610c61565b831115610dcc5760405162461bcd60e51b815260206004820152601e60248201527f455243343632363a206465706f736974206d6f7265207468616e206d617800006044820152606401610a00565b6000610dd7846117b0565b9050610de533848684611cb4565b9392505050565b610df4610782565b6001600160a01b0316336001600160a01b031614610e435760405162461bcd60e51b815260206004820152600c60248201526b3737ba16b3b7bb32b93737b960a11b6044820152606401610a00565b6001600160a01b038116610e995760405162461bcd60e51b815260206004820152600f60248201527f616464726573732d69732d7a65726f00000000000000000000000000000000006044820152606401610a00565b6098546040516001600160a01b038084169216907f621fddcb8bca777b7076c29f62ea4ee4bf081820a33f9242d29bc102880d53e590600090a3609880546001600160a01b0319166001600160a01b0392909216919091179055565b6000610f0082611420565b831115610f4f5760405162461bcd60e51b815260206004820152601b60248201527f455243343632363a206d696e74206d6f7265207468616e206d617800000000006044820152606401610a00565b6000610f5a84611017565b9050610de533848387611cb4565b60606037805461063190612cf7565b3360008181526034602090815260408083206001600160a01b038716845290915281205490919083811015610ffc5760405162461bcd60e51b815260206004820152602560248201527f45524332303a2064656372656173656420616c6c6f77616e63652062656c6f77604482015264207a65726f60d81b6064820152608401610a00565b610c1782868684036118d3565b60003361076d818585611b09565b600080611023836106b4565b90506000609760009054906101000a90046001600160a01b03166001600160a01b031663c12d636b6040518163ffffffff1660e01b815260040160206040518083038186803b15801561107557600080fd5b505afa158015611089573d6000803e3d6000fd5b505050506040513d601f19601f820116820180604052508101906110ad9190612d32565b6001600160a01b031663346162d56040518163ffffffff1660e01b815260040160206040518083038186803b1580156110e557600080fd5b505afa1580156110f9573d6000803e3d6000fd5b505050506040513d601f19601f8201168201806040525081019061111d9190612c87565b905061112b81612710612eb3565b61113761271084612cb6565b6111419190612cd5565b949350505050565b60006111548261161c565b8411156111a35760405162461bcd60e51b815260206004820152601f60248201527f455243343632363a207769746864726177206d6f7265207468616e206d6178006044820152606401610a00565b60006111ae85610777565b90506111413385858885611cd2565b60006111c8826116c8565b8411156112175760405162461bcd60e51b815260206004820152601d60248201527f455243343632363a2072656465656d206d6f7265207468616e206d61780000006044820152606401610a00565b600061122285610cf4565b90506111413385858489611cd2565b600054610100900460ff16158080156112515750600054600160ff909116105b8061126b5750303b15801561126b575060005460ff166001145b6112dd5760405162461bcd60e51b815260206004820152602e60248201527f496e697469616c697a61626c653a20636f6e747261637420697320616c72656160448201527f647920696e697469616c697a65640000000000000000000000000000000000006064820152608401610a00565b6000805460ff191660011790558015611300576000805461ff0019166101001790555b61131a61130c83611ce9565b61131584611d86565b611e0d565b611393826001600160a01b031663fc0c546a6040518163ffffffff1660e01b815260040160206040518083038186803b15801561135657600080fd5b505afa15801561136a573d6000803e3d6000fd5b505050506040513d601f19601f8201168201806040525081019061138e9190612d32565b611e82565b6113bc826000196113ac6065546001600160a01b031690565b6001600160a01b03169190611ef9565b609780546001600160a01b0319166001600160a01b0384161790558015610d6e576000805461ff0019169055604051600181527f7f26b83ff96e1f2b6a682f133852f6798a09c465da95921460cefb38474024989060200160405180910390a15050565b60975460408051635c975abb60e01b815290516000926001600160a01b031691635c975abb916004808301926020929190829003018186803b15801561146557600080fd5b505afa158015611479573d6000803e3d6000fd5b505050506040513d601f19601f8201168201806040525081019061149d9190612e5e565b156114aa57506000919050565b609760009054906101000a90046001600160a01b03166001600160a01b03166318160ddd6040518163ffffffff1660e01b815260040160206040518083038186803b1580156114f857600080fd5b505afa15801561150c573d6000803e3d6000fd5b505050506040513d601f19601f820116820180604052508101906115309190612c87565b61075990600019612eb3565b600080609760009054906101000a90046001600160a01b03166001600160a01b03166399530b066040518163ffffffff1660e01b815260040160206040518083038186803b15801561158d57600080fd5b505afa1580156115a1573d6000803e3d6000fd5b505050506040513d601f19601f820116820180604052508101906115c59190612c87565b90506000816115dc85670de0b6b3a7640000612cb6565b6115e69190612cd5565b9050670de0b6b3a76400006115fb8383612cb6565b6116059190612cd5565b84116116115780611141565b611141816001612e9b565b6097546040805163249c324d60e11b815290516000926001600160a01b031691634938649a916004808301926020929190829003018186803b15801561166157600080fd5b505afa158015611675573d6000803e3d6000fd5b505050506040513d601f19601f820116820180604052508101906116999190612e5e565b156116a657506000919050565b610759610254836001600160a01b031660009081526033602052604090205490565b6097546040805163249c324d60e11b815290516000926001600160a01b031691634938649a916004808301926020929190829003018186803b15801561170d57600080fd5b505afa158015611721573d6000803e3d6000fd5b505050506040513d601f19601f820116820180604052508101906117459190612e5e565b1561175257506000919050565b6001600160a01b038216600090815260336020526040902054610759565b6098546001600160a01b03168015610d6e5760405163d279c19160e01b81526001600160a01b03838116600483015282169063d279c19190602401610d3b565b600080609760009054906101000a90046001600160a01b03166001600160a01b031663c12d636b6040518163ffffffff1660e01b815260040160206040518083038186803b15801561180157600080fd5b505afa158015611815573d6000803e3d6000fd5b505050506040513d601f19601f820116820180604052508101906118399190612d32565b6001600160a01b031663346162d56040518163ffffffff1660e01b815260040160206040518083038186803b15801561187157600080fd5b505afa158015611885573d6000803e3d6000fd5b505050506040513d601f19601f820116820180604052508101906118a99190612c87565b905060006127106118ba8386612cb6565b6118c49190612cd5565b90506111416104608286612eb3565b6001600160a01b0383166119355760405162461bcd60e51b8152602060048201526024808201527f45524332303a20617070726f76652066726f6d20746865207a65726f206164646044820152637265737360e01b6064820152608401610a00565b6001600160a01b0382166119965760405162461bcd60e51b815260206004820152602260248201527f45524332303a20617070726f766520746f20746865207a65726f206164647265604482015261737360f01b6064820152608401610a00565b6001600160a01b0383811660008181526034602090815260408083209487168084529482529182902085905590518481527f8c5be1e5ebec7d5bd14f71427d1e84f3dd0314c0f7b2291e5b200ac8c7c3b925910160405180910390a3505050565b6040516001600160a01b038316602482015260448101829052611a7290849063a9059cbb60e01b906064015b60408051601f198184030181529190526020810180516001600160e01b03167fffffffff0000000000000000000000000000000000000000000000000000000090931692909217909152612024565b505050565b6001600160a01b038381166000908152603460209081526040808320938616835292905220546000198114611b035781811015611af65760405162461bcd60e51b815260206004820152601d60248201527f45524332303a20696e73756666696369656e7420616c6c6f77616e63650000006044820152606401610a00565b611b0384848484036118d3565b50505050565b6001600160a01b038316611b6d5760405162461bcd60e51b815260206004820152602560248201527f45524332303a207472616e736665722066726f6d20746865207a65726f206164604482015264647265737360d81b6064820152608401610a00565b6001600160a01b038216611bcf5760405162461bcd60e51b815260206004820152602360248201527f45524332303a207472616e7366657220746f20746865207a65726f206164647260448201526265737360e81b6064820152608401610a00565b6001600160a01b03831660009081526033602052604090205481811015611c475760405162461bcd60e51b815260206004820152602660248201527f45524332303a207472616e7366657220616d6f756e7420657863656564732062604482015265616c616e636560d01b6064820152608401610a00565b6001600160a01b0380851660008181526033602052604080822086860390559286168082529083902080548601905591517fddf252ad1be2c89b69c2b068fc378daa952ba7f163c4a11628f55a4df523b3ef90611ca79086815260200190565b60405180910390a3611b03565b611cbd836120f6565b611cc9848484846120ff565b611b038261217d565b611cdc81846121d7565b610bf78585858585612394565b6060816001600160a01b03166395d89b416040518163ffffffff1660e01b815260040160006040518083038186803b158015611d2457600080fd5b505afa158015611d38573d6000803e3d6000fd5b505050506040513d6000823e601f3d908101601f19168201604052611d609190810190612eca565b604051602001611d709190612f5e565b6040516020818303038152906040529050919050565b6060816001600160a01b03166395d89b416040518163ffffffff1660e01b815260040160006040518083038186803b158015611dc157600080fd5b505afa158015611dd5573d6000803e3d6000fd5b505050506040513d6000823e601f3d908101601f19168201604052611dfd9190810190612eca565b604051602001611d709190612fa3565b600054610100900460ff16611e785760405162461bcd60e51b815260206004820152602b60248201527f496e697469616c697a61626c653a20636f6e7472616374206973206e6f74206960448201526a6e697469616c697a696e6760a81b6064820152608401610a00565b610d6e8282612440565b600054610100900460ff16611eed5760405162461bcd60e51b815260206004820152602b60248201527f496e697469616c697a61626c653a20636f6e7472616374206973206e6f74206960448201526a6e697469616c697a696e6760a81b6064820152608401610a00565b611ef6816124d2565b50565b801580611f825750604051636eb1769f60e11b81523060048201526001600160a01b03838116602483015284169063dd62ed3e9060440160206040518083038186803b158015611f4857600080fd5b505afa158015611f5c573d6000803e3d6000fd5b505050506040513d601f19601f82011682018060405250810190611f809190612c87565b155b611ff45760405162461bcd60e51b815260206004820152603660248201527f5361666545524332303a20617070726f76652066726f6d206e6f6e2d7a65726f60448201527f20746f206e6f6e2d7a65726f20616c6c6f77616e6365000000000000000000006064820152608401610a00565b6040516001600160a01b038316602482015260448101829052611a7290849063095ea7b360e01b90606401611a23565b6000612079826040518060400160405280602081526020017f5361666545524332303a206c6f772d6c6576656c2063616c6c206661696c6564815250856001600160a01b03166125a99092919063ffffffff16565b805190915015611a7257808060200190518101906120979190612e5e565b611a725760405162461bcd60e51b815260206004820152602a60248201527f5361666545524332303a204552433230206f7065726174696f6e20646964206e6044820152691bdd081cdd58d8d9595960b21b6064820152608401610a00565b611ef681610cff565b606554612117906001600160a01b03168530856125b8565b61212183826125f0565b826001600160a01b0316846001600160a01b03167fdcbc1c05240f31ff3ad067ef1ee35ce4997762752e3a095284754544f4c709d7848460405161216f929190918252602082015260400190565b60405180910390a350505050565b60975460405163b6b55f2560e01b8152600481018390526001600160a01b039091169063b6b55f2590602401600060405180830381600087803b1580156121c357600080fd5b505af1158015610bf7573d6000803e3d6000fd5b6121e081610cff565b6097546040516370a0823160e01b81523060048201526000916001600160a01b0316906370a082319060240160206040518083038186803b15801561222457600080fd5b505afa158015612238573d6000803e3d6000fd5b505050506040513d601f19601f8201168201806040525081019061225c9190612c87565b609754604051632e1a7d4d60e01b8152600481018690529192506001600160a01b031690632e1a7d4d90602401600060405180830381600087803b1580156122a357600080fd5b505af11580156122b7573d6000803e3d6000fd5b50506097546040516370a0823160e01b8152306004820152600093506001600160a01b0390911691506370a082319060240160206040518083038186803b15801561230157600080fd5b505afa158015612315573d6000803e3d6000fd5b505050506040513d601f19601f820116820180604052508101906123399190612c87565b6123439083612eb3565b9050838114611b035760405162461bcd60e51b815260206004820181905260248201527f7061727469616c6c792d77697468647261772d6e6f742d737570706f727465646044820152606401610a00565b826001600160a01b0316856001600160a01b0316146123b8576123b8838683611a77565b6123c283826126b1565b6065546123d9906001600160a01b031685846119f7565b826001600160a01b0316846001600160a01b0316866001600160a01b03167ffbde797d201c681b91056529119e0b02407c7bb96a4a2c75c01fc9667232c8db8585604051612431929190918252602082015260400190565b60405180910390a45050505050565b600054610100900460ff166124ab5760405162461bcd60e51b815260206004820152602b60248201527f496e697469616c697a61626c653a20636f6e7472616374206973206e6f74206960448201526a6e697469616c697a696e6760a81b6064820152608401610a00565b81516124be906036906020850190612a37565b508051611a72906037906020840190612a37565b600054610100900460ff1661253d5760405162461bcd60e51b815260206004820152602b60248201527f496e697469616c697a61626c653a20636f6e7472616374206973206e6f74206960448201526a6e697469616c697a696e6760a81b6064820152608401610a00565b600080612549836127e5565b915091508161255957601261255b565b805b606580546001600160a01b039095166001600160a01b031960ff93909316600160a01b029290921674ffffffffffffffffffffffffffffffffffffffffff1990951694909417179092555050565b606061114184846000856128c1565b6040516001600160a01b0380851660248301528316604482015260648101829052611b039085906323b872dd60e01b90608401611a23565b6001600160a01b0382166126465760405162461bcd60e51b815260206004820152601f60248201527f45524332303a206d696e7420746f20746865207a65726f2061646472657373006044820152606401610a00565b80603560008282546126589190612e9b565b90915550506001600160a01b0382166000818152603360209081526040808320805486019055518481527fddf252ad1be2c89b69c2b068fc378daa952ba7f163c4a11628f55a4df523b3ef910160405180910390a35050565b6001600160a01b0382166127115760405162461bcd60e51b815260206004820152602160248201527f45524332303a206275726e2066726f6d20746865207a65726f206164647265736044820152607360f81b6064820152608401610a00565b6001600160a01b038216600090815260336020526040902054818110156127855760405162461bcd60e51b815260206004820152602260248201527f45524332303a206275726e20616d6f756e7420657863656564732062616c616e604482015261636560f01b6064820152608401610a00565b6001600160a01b03831660008181526033602090815260408083208686039055603580548790039055518581529192917fddf252ad1be2c89b69c2b068fc378daa952ba7f163c4a11628f55a4df523b3ef910160405180910390a3505050565b60408051600481526024810182526020810180516001600160e01b031663313ce56760e01b17905290516000918291829182916001600160a01b0387169161282c91612fcc565b600060405180830381855afa9150503d8060008114612867576040519150601f19603f3d011682016040523d82523d6000602084013e61286c565b606091505b509150915081801561288057506020815110155b156128b45760008180602001905181019061289b9190612c87565b905060ff81116128b2576001969095509350505050565b505b5060009485945092505050565b6060824710156129225760405162461bcd60e51b815260206004820152602660248201527f416464726573733a20696e73756666696369656e742062616c616e636520666f6044820152651c8818d85b1b60d21b6064820152608401610a00565b600080866001600160a01b0316858760405161293e9190612fcc565b60006040518083038185875af1925050503d806000811461297b576040519150601f19603f3d011682016040523d82523d6000602084013e612980565b606091505b50915091506129918783838761299c565b979650505050505050565b60608315612a08578251612a01576001600160a01b0385163b612a015760405162461bcd60e51b815260206004820152601d60248201527f416464726573733a2063616c6c20746f206e6f6e2d636f6e74726163740000006044820152606401610a00565b5081611141565b6111418383815115612a1d5781518083602001fd5b8060405162461bcd60e51b8152600401610a009190612afc565b828054612a4390612cf7565b90600052602060002090601f016020900481019282612a655760008555612aab565b82601f10612a7e57805160ff1916838001178555612aab565b82800160010185558215612aab579182015b82811115612aab578251825591602001919060010190612a90565b50612ab7929150612abb565b5090565b5b80821115612ab75760008155600101612abc565b60005b83811015612aeb578181015183820152602001612ad3565b83811115611b035750506000910152565b6020815260008251806020840152612b1b816040850160208701612ad0565b601f01601f19169190910160400192915050565b600060208284031215612b4157600080fd5b5035919050565b6001600160a01b0381168114611ef657600080fd5b60008060408385031215612b7057600080fd5b8235612b7b81612b48565b946020939093013593505050565b600080600060608486031215612b9e57600080fd5b8335612ba981612b48565b92506020840135612bb981612b48565b929592945050506040919091013590565b600060208284031215612bdc57600080fd5b8135610de581612b48565b60008060408385031215612bfa57600080fd5b823591506020830135612c0c81612b48565b809150509250929050565b600080600060608486031215612c2c57600080fd5b833592506020840135612c3e81612b48565b91506040840135612c4e81612b48565b809150509250925092565b60008060408385031215612c6c57600080fd5b8235612c7781612b48565b91506020830135612c0c81612b48565b600060208284031215612c9957600080fd5b5051919050565b634e487b7160e01b600052601160045260246000fd5b6000816000190483118215151615612cd057612cd0612ca0565b500290565b600082612cf257634e487b7160e01b600052601260045260246000fd5b500490565b600181811c90821680612d0b57607f821691505b60208210811415612d2c57634e487b7160e01b600052602260045260246000fd5b50919050565b600060208284031215612d4457600080fd5b8151610de581612b48565b634e487b7160e01b600052604160045260246000fd5b604051601f8201601f1916810167ffffffffffffffff81118282101715612d8e57612d8e612d4f565b604052919050565b60006020808385031215612da957600080fd5b825167ffffffffffffffff80821115612dc157600080fd5b818501915085601f830112612dd557600080fd5b815181811115612de757612de7612d4f565b8060051b9150612df8848301612d65565b8181529183018401918481019088841115612e1257600080fd5b938501935b83851015612e3c5784519250612e2c83612b48565b8282529385019390850190612e17565b98975050505050505050565b634e487b7160e01b600052603260045260246000fd5b600060208284031215612e7057600080fd5b81518015158114610de557600080fd5b6000600019821415612e9457612e94612ca0565b5060010190565b60008219821115612eae57612eae612ca0565b500190565b600082821015612ec557612ec5612ca0565b500390565b600060208284031215612edc57600080fd5b815167ffffffffffffffff80821115612ef457600080fd5b818401915084601f830112612f0857600080fd5b815181811115612f1a57612f1a612d4f565b612f2d601f8201601f1916602001612d65565b9150808252856020828501011115612f4457600080fd5b612f55816020840160208601612ad0565b50949350505050565b7f455243343632362d577261707065642056657370657220000000000000000000815260008251612f96816017850160208701612ad0565b9190910160170192915050565b607760f81b815260008251612fbf816001850160208701612ad0565b9190910160010192915050565b60008251612fde818460208701612ad0565b919091019291505056fea26469706673582212201a2ec1a007681980719e4791c1b817860e8839a3d3aca9548565bcf3349fbbfc64736f6c63430008090033",
  "devdoc": {
    "kind": "dev",
    "methods": {
      "allowance(address,address)": {
        "details": "See {IERC20-allowance}."
      },
      "approve(address,uint256)": {
        "details": "See {IERC20-approve}. NOTE: If `amount` is the maximum `uint256`, the allowance is not updated on `transferFrom`. This is semantically equivalent to an infinite approval. Requirements: - `spender` cannot be the zero address."
      },
      "asset()": {
        "details": "See {IERC4626-asset}. "
      },
      "balanceOf(address)": {
        "details": "See {IERC20-balanceOf}."
      },
      "decimals()": {
        "details": "Decimals are read from the underlying asset in the constructor and cached. If this fails (e.g., the asset has not been created yet), the cached value is set to a default obtained by `super.decimals()` (which depends on inheritance but is most likely 18). Override this function in order to set a guaranteed hardcoded value. See {IERC20Metadata-decimals}."
      },
      "decreaseAllowance(address,uint256)": {
        "details": "Atomically decreases the allowance granted to `spender` by the caller. This is an alternative to {approve} that can be used as a mitigation for problems described in {IERC20-approve}. Emits an {Approval} event indicating the updated allowance. Requirements: - `spender` cannot be the zero address. - `spender` must have allowance for the caller of at least `subtractedValue`."
      },
      "deposit(uint256,address)": {
        "details": "See {IERC4626-deposit}. "
      },
      "increaseAllowance(address,uint256)": {
        "details": "Atomically increases the allowance granted to `spender` by the caller. This is an alternative to {approve} that can be used as a mitigation for problems described in {IERC20-approve}. Emits an {Approval} event indicating the updated allowance. Requirements: - `spender` cannot be the zero address."
      },
      "maxDeposit(address)": {
        "details": "See {IERC4626-maxDeposit}. "
      },
      "maxMint(address)": {
        "details": "See {IERC4626-maxMint}. "
      },
      "mint(uint256,address)": {
        "details": "See {IERC4626-mint}. As opposed to {deposit}, minting is allowed even if the vault is in a state where the price of a share is zero. In this case, the shares will be minted without requiring any assets to be deposited."
      },
      "name()": {
        "details": "Returns the name of the token."
      },
      "previewDeposit(uint256)": {
        "details": "See {IERC4626-previewDeposit}. "
      },
      "previewRedeem(uint256)": {
        "details": "See {IERC4626-previewRedeem}. "
      },
      "redeem(uint256,address,address)": {
        "details": "See {IERC4626-redeem}. "
      },
      "symbol()": {
        "details": "Returns the symbol of the token, usually a shorter version of the name."
      },
      "totalAssets()": {
        "details": "See {IERC4626-totalAssets}. "
      },
      "totalSupply()": {
        "details": "See {IERC20-totalSupply}."
      },
      "transfer(address,uint256)": {
        "details": "See {IERC20-transfer}. Requirements: - `to` cannot be the zero address. - the caller must have a balance of at least `amount`."
      },
      "transferFrom(address,address,uint256)": {
        "details": "See {IERC20-transferFrom}. Emits an {Approval} event indicating the updated allowance. This is not required by the EIP. See the note at the beginning of {ERC20}. NOTE: Does not update the allowance if the current allowance is the maximum `uint256`. Requirements: - `from` and `to` cannot be the zero address. - `from` must have a balance of at least `amount`. - the caller must have allowance for ``from``'s tokens of at least `amount`."
      },
      "withdraw(uint256,address,address)": {
        "details": "See {IERC4626-withdraw}. "
      }
    },
    "title": "ERC4626 Wrapper for pools of Vesper Finance",
    "version": 1
  },
  "userdoc": {
    "kind": "user",
    "methods": {},
    "version": 1
  },
  "storageLayout": {
    "storage": [
      {
        "astId": 174,
        "contract": "contracts/VPoolWrapper.sol:VPoolWrapper",
        "label": "_initialized",
        "offset": 0,
        "slot": "0",
        "type": "t_uint8"
      },
      {
        "astId": 177,
        "contract": "contracts/VPoolWrapper.sol:VPoolWrapper",
        "label": "_initializing",
        "offset": 1,
        "slot": "0",
        "type": "t_bool"
      },
      {
        "astId": 2399,
        "contract": "contracts/VPoolWrapper.sol:VPoolWrapper",
        "label": "__gap",
        "offset": 0,
        "slot": "1",
        "type": "t_array(t_uint256)50_storage"
      },
      {
        "astId": 355,
        "contract": "contracts/VPoolWrapper.sol:VPoolWrapper",
        "label": "_balances",
        "offset": 0,
        "slot": "51",
        "type": "t_mapping(t_address,t_uint256)"
      },
      {
        "astId": 361,
        "contract": "contracts/VPoolWrapper.sol:VPoolWrapper",
        "label": "_allowances",
        "offset": 0,
        "slot": "52",
        "type": "t_mapping(t_address,t_mapping(t_address,t_uint256))"
      },
      {
        "astId": 363,
        "contract": "contracts/VPoolWrapper.sol:VPoolWrapper",
        "label": "_totalSupply",
        "offset": 0,
        "slot": "53",
        "type": "t_uint256"
      },
      {
        "astId": 365,
        "contract": "contracts/VPoolWrapper.sol:VPoolWrapper",
        "label": "_name",
        "offset": 0,
        "slot": "54",
        "type": "t_string_storage"
      },
      {
        "astId": 367,
        "contract": "contracts/VPoolWrapper.sol:VPoolWrapper",
        "label": "_symbol",
        "offset": 0,
        "slot": "55",
        "type": "t_string_storage"
      },
      {
        "astId": 947,
        "contract": "contracts/VPoolWrapper.sol:VPoolWrapper",
        "label": "__gap",
        "offset": 0,
        "slot": "56",
        "type": "t_array(t_uint256)45_storage"
      },
      {
        "astId": 1046,
        "contract": "contracts/VPoolWrapper.sol:VPoolWrapper",
        "label": "_asset",
        "offset": 0,
        "slot": "101",
        "type": "t_contract(IERC20Upgradeable)1026"
      },
      {
        "astId": 1048,
        "contract": "contracts/VPoolWrapper.sol:VPoolWrapper",
        "label": "_decimals",
        "offset": 20,
        "slot": "101",
        "type": "t_uint8"
      },
      {
        "astId": 1731,
        "contract": "contracts/VPoolWrapper.sol:VPoolWrapper",
        "label": "__gap",
        "offset": 0,
        "slot": "102",
        "type": "t_array(t_uint256)49_storage"
      },
      {
        "astId": 3312,
        "contract": "contracts/VPoolWrapper.sol:VPoolWrapper",
        "label": "vToken",
        "offset": 0,
        "slot": "151",
        "type": "t_contract(IVesperPool)8822"
      },
      {
        "astId": 3315,
        "contract": "contracts/VPoolWrapper.sol:VPoolWrapper",
        "label": "wrapperRewards",
        "offset": 0,
        "slot": "152",
        "type": "t_contract(IPoolRewards)8675"
      }
    ],
    "types": {
      "t_address": {
        "encoding": "inplace",
        "label": "address",
        "numberOfBytes": "20"
      },
      "t_array(t_uint256)45_storage": {
        "base": "t_uint256",
        "encoding": "inplace",
        "label": "uint256[45]",
        "numberOfBytes": "1440"
      },
      "t_array(t_uint256)49_storage": {
        "base": "t_uint256",
        "encoding": "inplace",
        "label": "uint256[49]",
        "numberOfBytes": "1568"
      },
      "t_array(t_uint256)50_storage": {
        "base": "t_uint256",
        "encoding": "inplace",
        "label": "uint256[50]",
        "numberOfBytes": "1600"
      },
      "t_bool": {
        "encoding": "inplace",
        "label": "bool",
        "numberOfBytes": "1"
      },
      "t_contract(IERC20Upgradeable)1026": {
        "encoding": "inplace",
        "label": "contract IERC20Upgradeable",
        "numberOfBytes": "20"
      },
      "t_contract(IPoolRewards)8675": {
        "encoding": "inplace",
        "label": "contract IPoolRewards",
        "numberOfBytes": "20"
      },
      "t_contract(IVesperPool)8822": {
        "encoding": "inplace",
        "label": "contract IVesperPool",
        "numberOfBytes": "20"
      },
      "t_mapping(t_address,t_mapping(t_address,t_uint256))": {
        "encoding": "mapping",
        "key": "t_address",
        "label": "mapping(address => mapping(address => uint256))",
        "numberOfBytes": "32",
        "value": "t_mapping(t_address,t_uint256)"
      },
      "t_mapping(t_address,t_uint256)": {
        "encoding": "mapping",
        "key": "t_address",
        "label": "mapping(address => uint256)",
        "numberOfBytes": "32",
        "value": "t_uint256"
      },
      "t_string_storage": {
        "encoding": "bytes",
        "label": "string",
        "numberOfBytes": "32"
      },
      "t_uint256": {
        "encoding": "inplace",
        "label": "uint256",
        "numberOfBytes": "32"
      },
      "t_uint8": {
        "encoding": "inplace",
        "label": "uint8",
        "numberOfBytes": "1"
      }
    }
  }
}