{
  "address": "0xe29F72C3Ebf6DB89a7D25C25809aB8e03d42FE7C",
  "abi": [
    {
      "inputs": [
        {
          "internalType": "address",
          "name": "_pool",
          "type": "address"
        },
        {
          "internalType": "address",
          "name": "_swapper",
          "type": "address"
        },
        {
          "internalType": "address",
          "name": "_receiptToken",
          "type": "address"
        },
        {
          "internalType": "address",
          "name": "_borrowToken",
          "type": "address"
        },
        {
          "internalType": "address",
          "name": "_aaveAddressProvider",
          "type": "address"
        },
        {
          "internalType": "address",
          "name": "_vPool",
          "type": "address"
        },
        {
          "internalType": "string",
          "name": "_name",
          "type": "string"
        }
      ],
      "stateMutability": "nonpayable",
      "type": "constructor"
    },
    {
      "anonymous": false,
      "inputs": [
        {
          "indexed": false,
          "internalType": "uint256",
          "name": "previousMinBorrowLimit",
          "type": "uint256"
        },
        {
          "indexed": false,
          "internalType": "uint256",
          "name": "newMinBorrowLimit",
          "type": "uint256"
        },
        {
          "indexed": false,
          "internalType": "uint256",
          "name": "previousMaxBorrowLimit",
          "type": "uint256"
        },
        {
          "indexed": false,
          "internalType": "uint256",
          "name": "newMaxBorrowLimit",
          "type": "uint256"
        }
      ],
      "name": "UpdatedBorrowLimit",
      "type": "event"
    },
    {
      "anonymous": false,
      "inputs": [
        {
          "indexed": true,
          "internalType": "address",
          "name": "previousFeeCollector",
          "type": "address"
        },
        {
          "indexed": true,
          "internalType": "address",
          "name": "newFeeCollector",
          "type": "address"
        }
      ],
      "name": "UpdatedFeeCollector",
      "type": "event"
    },
    {
      "anonymous": false,
      "inputs": [
        {
          "indexed": true,
          "internalType": "contract IRoutedSwapper",
          "name": "oldSwapper",
          "type": "address"
        },
        {
          "indexed": true,
          "internalType": "contract IRoutedSwapper",
          "name": "newSwapper",
          "type": "address"
        }
      ],
      "name": "UpdatedSwapper",
      "type": "event"
    },
    {
      "inputs": [],
      "name": "NAME",
      "outputs": [
        {
          "internalType": "string",
          "name": "",
          "type": "string"
        }
      ],
      "stateMutability": "view",
      "type": "function"
    },
    {
      "inputs": [],
      "name": "VERSION",
      "outputs": [
        {
          "internalType": "string",
          "name": "",
          "type": "string"
        }
      ],
      "stateMutability": "view",
      "type": "function"
    },
    {
      "inputs": [],
      "name": "aaveAddressProvider",
      "outputs": [
        {
          "internalType": "contract PoolAddressesProvider",
          "name": "",
          "type": "address"
        }
      ],
      "stateMutability": "view",
      "type": "function"
    },
    {
      "inputs": [
        {
          "internalType": "address",
          "name": "_keeperAddress",
          "type": "address"
        }
      ],
      "name": "addKeeper",
      "outputs": [],
      "stateMutability": "nonpayable",
      "type": "function"
    },
    {
      "inputs": [
        {
          "internalType": "uint256",
          "name": "_approvalAmount",
          "type": "uint256"
        }
      ],
      "name": "approveToken",
      "outputs": [],
      "stateMutability": "nonpayable",
      "type": "function"
    },
    {
      "inputs": [],
      "name": "borrowToken",
      "outputs": [
        {
          "internalType": "address",
          "name": "",
          "type": "address"
        }
      ],
      "stateMutability": "view",
      "type": "function"
    },
    {
      "inputs": [
        {
          "internalType": "uint256",
          "name": "_minAmountOut",
          "type": "uint256"
        }
      ],
      "name": "claimAndSwapRewards",
      "outputs": [
        {
          "internalType": "uint256",
          "name": "_amountOut",
          "type": "uint256"
        }
      ],
      "stateMutability": "nonpayable",
      "type": "function"
    },
    {
      "inputs": [],
      "name": "collateral",
      "outputs": [
        {
          "internalType": "address",
          "name": "",
          "type": "address"
        }
      ],
      "stateMutability": "view",
      "type": "function"
    },
    {
      "inputs": [],
      "name": "collateralToken",
      "outputs": [
        {
          "internalType": "contract IERC20",
          "name": "",
          "type": "address"
        }
      ],
      "stateMutability": "view",
      "type": "function"
    },
    {
      "inputs": [],
      "name": "feeCollector",
      "outputs": [
        {
          "internalType": "address",
          "name": "",
          "type": "address"
        }
      ],
      "stateMutability": "view",
      "type": "function"
    },
    {
      "inputs": [
        {
          "internalType": "address",
          "name": "_token",
          "type": "address"
        }
      ],
      "name": "isReservedToken",
      "outputs": [
        {
          "internalType": "bool",
          "name": "",
          "type": "bool"
        }
      ],
      "stateMutability": "view",
      "type": "function"
    },
    {
      "inputs": [],
      "name": "keepers",
      "outputs": [
        {
          "internalType": "address[]",
          "name": "",
          "type": "address[]"
        }
      ],
      "stateMutability": "view",
      "type": "function"
    },
    {
      "inputs": [],
      "name": "maxBorrowLimit",
      "outputs": [
        {
          "internalType": "uint256",
          "name": "",
          "type": "uint256"
        }
      ],
      "stateMutability": "view",
      "type": "function"
    },
    {
      "inputs": [
        {
          "internalType": "address",
          "name": "_newStrategy",
          "type": "address"
        }
      ],
      "name": "migrate",
      "outputs": [],
      "stateMutability": "nonpayable",
      "type": "function"
    },
    {
      "inputs": [],
      "name": "minBorrowLimit",
      "outputs": [
        {
          "internalType": "uint256",
          "name": "",
          "type": "uint256"
        }
      ],
      "stateMutability": "view",
      "type": "function"
    },
    {
      "inputs": [],
      "name": "pool",
      "outputs": [
        {
          "internalType": "address",
          "name": "",
          "type": "address"
        }
      ],
      "stateMutability": "view",
      "type": "function"
    },
    {
      "inputs": [],
      "name": "rebalance",
      "outputs": [
        {
          "internalType": "uint256",
          "name": "_profit",
          "type": "uint256"
        },
        {
          "internalType": "uint256",
          "name": "_loss",
          "type": "uint256"
        },
        {
          "internalType": "uint256",
          "name": "_payback",
          "type": "uint256"
        }
      ],
      "stateMutability": "nonpayable",
      "type": "function"
    },
    {
      "inputs": [],
      "name": "receiptToken",
      "outputs": [
        {
          "internalType": "address",
          "name": "",
          "type": "address"
        }
      ],
      "stateMutability": "view",
      "type": "function"
    },
    {
      "inputs": [
        {
          "internalType": "address",
          "name": "_keeperAddress",
          "type": "address"
        }
      ],
      "name": "removeKeeper",
      "outputs": [],
      "stateMutability": "nonpayable",
      "type": "function"
    },
    {
      "inputs": [],
      "name": "rewardToken",
      "outputs": [
        {
          "internalType": "address",
          "name": "",
          "type": "address"
        }
      ],
      "stateMutability": "view",
      "type": "function"
    },
    {
      "inputs": [
        {
          "internalType": "contract IERC20",
          "name": "_tokenIn",
          "type": "address"
        },
        {
          "internalType": "uint256",
          "name": "_minAmountOut",
          "type": "uint256"
        }
      ],
      "name": "swapToCollateral",
      "outputs": [
        {
          "internalType": "uint256",
          "name": "_amountOut",
          "type": "uint256"
        }
      ],
      "stateMutability": "nonpayable",
      "type": "function"
    },
    {
      "inputs": [],
      "name": "swapper",
      "outputs": [
        {
          "internalType": "contract IRoutedSwapper",
          "name": "",
          "type": "address"
        }
      ],
      "stateMutability": "view",
      "type": "function"
    },
    {
      "inputs": [
        {
          "internalType": "address",
          "name": "_fromToken",
          "type": "address"
        }
      ],
      "name": "sweep",
      "outputs": [],
      "stateMutability": "nonpayable",
      "type": "function"
    },
    {
      "inputs": [],
      "name": "token",
      "outputs": [
        {
          "internalType": "address",
          "name": "",
          "type": "address"
        }
      ],
      "stateMutability": "view",
      "type": "function"
    },
    {
      "inputs": [],
      "name": "tvl",
      "outputs": [
        {
          "internalType": "uint256",
          "name": "",
          "type": "uint256"
        }
      ],
      "stateMutability": "view",
      "type": "function"
    },
    {
      "inputs": [
        {
          "internalType": "uint256",
          "name": "_minBorrowLimit",
          "type": "uint256"
        },
        {
          "internalType": "uint256",
          "name": "_maxBorrowLimit",
          "type": "uint256"
        }
      ],
      "name": "updateBorrowLimit",
      "outputs": [],
      "stateMutability": "nonpayable",
      "type": "function"
    },
    {
      "inputs": [
        {
          "internalType": "address",
          "name": "_feeCollector",
          "type": "address"
        }
      ],
      "name": "updateFeeCollector",
      "outputs": [],
      "stateMutability": "nonpayable",
      "type": "function"
    },
    {
      "inputs": [
        {
          "internalType": "contract IRoutedSwapper",
          "name": "_swapper",
          "type": "address"
        }
      ],
      "name": "updateSwapper",
      "outputs": [],
      "stateMutability": "nonpayable",
      "type": "function"
    },
    {
      "inputs": [],
      "name": "vPool",
      "outputs": [
        {
          "internalType": "contract IVesperPool",
          "name": "",
          "type": "address"
        }
      ],
      "stateMutability": "view",
      "type": "function"
    },
    {
      "inputs": [],
      "name": "vdToken",
      "outputs": [
        {
          "internalType": "contract AToken",
          "name": "",
          "type": "address"
        }
      ],
      "stateMutability": "view",
      "type": "function"
    },
    {
      "inputs": [
        {
          "internalType": "uint256",
          "name": "_amount",
          "type": "uint256"
        }
      ],
      "name": "withdraw",
      "outputs": [],
      "stateMutability": "nonpayable",
      "type": "function"
    }
  ],
  "transactionHash": "0x1fb11a9553b28cae8c70b2b1b580e31bf22b66d2889e5b9f044cfaaf52d98319",
  "args": [
    "0x650CD45DEdb19c33160Acc522aD1a82D9701036a",
    "0x8f156189A3CD28dFc8FB7BbbAce58F98F09c0bB3",
    "0x977b6fc5dE62598B08C85AC8Cf2b745874E8b78c",
    "0x6B175474E89094C44Da98b954EedeAC495271d0F",
    "0x2f39d218133AFaB8F2B819B1066c7E434Ad94E9e",
    "0x0538C8bAc84E95A9dF8aC10Aad17DbE81b9E36ee",
    "AaveV3_Vesper_Xy_CBETH_DAI"
  ],
  "numDeployments": 1,
  "solcInputHash": "285da4b1b032aeb23657e82b82226339",
  "bytecode": "0x610100604052611b586006556121346007553480156200001e57600080fd5b5060405162006210380380620062108339810160408190526200004191620008bd565b8686868686858585856001600160a01b038316620000a65760405162461bcd60e51b815260206004820152601460248201527f706f6f6c2d616464726573732d69732d7a65726f00000000000000000000000060448201526064015b60405180910390fd5b6001600160a01b038216620000fe5760405162461bcd60e51b815260206004820152601760248201527f737761707065722d616464726573732d69732d7a65726f00000000000000000060448201526064016200009d565b600280546001600160a01b0319166001600160a01b0384811691909117909155831660a081905260408051637e062a3560e11b8152905163fc0c546a91600480820192602092909190829003018186803b1580156200015c57600080fd5b505afa15801562000171573d6000803e3d6000fd5b505050506040513d601f19601f8201168201806040525081019062000197919062000a00565b6001600160a01b03908116608052600080546001600160a01b031916918316919091179055620001de620001c83390565b60036200074360201b62001e501790919060201c565b620002205760405162461bcd60e51b81526020600482015260116024820152701859190b5ad9595c195c8b59985a5b1959607a1b60448201526064016200009d565b505081516200023891506005906020840190620007b5565b506001600160a01b038216620002915760405162461bcd60e51b815260206004820152601760248201527f6164647265737350726f76696465722d69732d7a65726f00000000000000000060448201526064016200009d565b856001600160a01b031663fc0c546a6040518163ffffffff1660e01b815260040160206040518083038186803b158015620002cb57600080fd5b505afa158015620002e0573d6000803e3d6000fd5b505050506040513d601f19601f8201168201806040525081019062000306919062000a00565b6001600160a01b0316846001600160a01b031663b16a19de6040518163ffffffff1660e01b815260040160206040518083038186803b1580156200034957600080fd5b505afa1580156200035e573d6000803e3d6000fd5b505050506040513d601f19601f8201168201806040525081019062000384919062000a00565b6001600160a01b031614620003dc5760405162461bcd60e51b815260206004820152601560248201527f696e76616c69642d726563656970742d746f6b656e000000000000000000000060448201526064016200009d565b600080836001600160a01b031663e860accb6040518163ffffffff1660e01b815260040160206040518083038186803b1580156200041957600080fd5b505afa1580156200042e573d6000803e3d6000fd5b505050506040513d601f19601f8201168201806040525081019062000454919062000a00565b6040516334924edb60e21b81526001600160a01b038781166004830152919091169063d2493b6c9060240160606040518083038186803b1580156200049857600080fd5b505afa158015620004ad573d6000803e3d6000fd5b505050506040513d601f19601f82011682018060405250810190620004d3919062000a27565b600980546001600160a01b03199081166001600160a01b0393841617909155600880548216998316998a179055600a8054909116938216939093179092555093841660c052505060408051637e062a3560e11b81529051939650918816945063fc0c546a935050600480820192602092909190829003018186803b1580156200055b57600080fd5b505afa15801562000570573d6000803e3d6000fd5b505050506040513d601f19601f8201168201806040525081019062000596919062000a00565b6001600160a01b031614620005e25760405162461bcd60e51b81526020600482015260116024820152701a5b9d985b1a590b59dc9bddcb5c1bdbdb607a1b60448201526064016200009d565b6001600160a01b03821660e0819052604080516345e35f5960e11b8152905160009291638bc6beb2916004808301926020929190829003018186803b1580156200062b57600080fd5b505afa15801562000640573d6000803e3d6000fd5b505050506040513d601f19601f8201168201806040525081019062000666919062000a00565b90506001600160a01b038116156200073557806001600160a01b031663c4f59f9b6040518163ffffffff1660e01b815260040160006040518083038186803b158015620006b257600080fd5b505afa158015620006c7573d6000803e3d6000fd5b505050506040513d6000823e601f3d908101601f19168201604052620006f1919081019062000a7b565b60008151811062000706576200070662000b39565b6020026020010151600b60006101000a8154816001600160a01b0302191690836001600160a01b031602179055505b505050505050505062000b8c565b60006200075a836001600160a01b03841662000763565b90505b92915050565b6000818152600183016020526040812054620007ac575081546001818101845560008481526020808220909301849055845484825282860190935260409020919091556200075d565b5060006200075d565b828054620007c39062000b4f565b90600052602060002090601f016020900481019282620007e7576000855562000832565b82601f106200080257805160ff191683800117855562000832565b8280016001018555821562000832579182015b828111156200083257825182559160200191906001019062000815565b506200084092915062000844565b5090565b5b8082111562000840576000815560010162000845565b6001600160a01b03811681146200087157600080fd5b50565b634e487b7160e01b600052604160045260246000fd5b604051601f8201601f191681016001600160401b0381118282101715620008b557620008b562000874565b604052919050565b600080600080600080600060e0888a031215620008d957600080fd5b8751620008e6816200085b565b80975050602080890151620008fb816200085b565b60408a01519097506200090e816200085b565b60608a015190965062000921816200085b565b60808a015190955062000934816200085b565b60a08a015190945062000947816200085b565b60c08a01519093506001600160401b03808211156200096557600080fd5b818b0191508b601f8301126200097a57600080fd5b8151818111156200098f576200098f62000874565b620009a3601f8201601f191685016200088a565b91508082528c84828501011115620009ba57600080fd5b60005b81811015620009da578381018501518382018601528401620009bd565b81811115620009ec5760008583850101525b505080935050505092959891949750929550565b60006020828403121562000a1357600080fd5b815162000a20816200085b565b9392505050565b60008060006060848603121562000a3d57600080fd5b835162000a4a816200085b565b602085015190935062000a5d816200085b565b604085015190925062000a70816200085b565b809150509250925092565b6000602080838503121562000a8f57600080fd5b82516001600160401b038082111562000aa757600080fd5b818501915085601f83011262000abc57600080fd5b81518181111562000ad15762000ad162000874565b8060051b915062000ae48483016200088a565b818152918301840191848101908884111562000aff57600080fd5b938501935b8385101562000b2d578451925062000b1c836200085b565b828252938501939085019062000b04565b98975050505050505050565b634e487b7160e01b600052603260045260246000fd5b600181811c9082168062000b6457607f821691505b6020821081141562000b8657634e487b7160e01b600052602260045260246000fd5b50919050565b60805160a05160c05160e05161548a62000d866000396000818161030701528181612048015281816123e401528181613a5401528181613ad00152818161479801528181614a0a0152614b100152600081816103c8015281816122290152818161256a01528181612e040152818161368f0152818161378801528181614157015261432e0152600081816102460152818161091a01528181610a6301528181610baa01528181610c7f01528181610d3201528181611004015281816110d1015281816112fc0152818161150a01528181611c580152818161245d015281816127790152818161294a01526149db01526000818161038e015281816104250152818161058c0152818161079a0152818161083d01528181610af001528181610b8801528181610bf601528181610cb201528181610e7c015281816112800152818161172e015281816118880152818161196d01528181611b3b01528181611b79015281816121e9015281816126450152818161286f015281816129c5015281816131d80152818161324a015281816134f50152818161358e015281816137280152818161375c0152818161394c01528181613bc001528181613c7801528181613d2701528181613e1701528181613f5c01528181613f9e01528181614280015281816143d40152818161446801526149b9015261548a6000f3fe608060405234801561001057600080fd5b50600436106101e55760003560e01c8063a3f4df7e1161010f578063e260d747116100a2578063f7c618c111610071578063f7c618c114610480578063fb7ee10214610493578063fc0c546a146104a6578063ffa1ad74146104b757600080fd5b8063e260d74714610449578063e5328e0614610452578063ec78e8321461045a578063ee330ee31461046d57600080fd5b8063ce5494bb116100de578063ce5494bb146103ea578063d2c35ce8146103fd578063d3033c3914610410578063d8dfeb451461042357600080fd5b8063a3f4df7e14610374578063b2016bd414610389578063c415b95c146103b0578063cdaabe41146103c357600080fd5b80633ac9fc11116101875780636719578c116101565780636719578c146103025780637d7c2a1c1461032957806390d675141461034c578063951dc22c1461035f57600080fd5b80633ac9fc11146102a65780634032b72b146102b9578063440d7248146102cc578063456dc17a146102ef57600080fd5b806314ae9f2e116101c357806314ae9f2e1461022e57806316f0115b146102415780632b3297f9146102805780632e1a7d4d1461029357600080fd5b806301681a62146101ea5780630181686c146101ff5780631026013a1461021b575b600080fd5b6101fd6101f8366004614d18565b6104db565b005b61020860075481565b6040519081526020015b60405180910390f35b610208610229366004614d35565b610732565b6101fd61023c366004614d18565b610918565b6102687f000000000000000000000000000000000000000000000000000000000000000081565b6040516001600160a01b039091168152602001610212565b600254610268906001600160a01b031681565b6101fd6102a1366004614d35565b610a60565b6101fd6102b4366004614d35565b610cd9565b6101fd6102c7366004614d18565b610d30565b6102df6102da366004614d18565b610e78565b6040519015158152602001610212565b600854610268906001600160a01b031681565b6102687f000000000000000000000000000000000000000000000000000000000000000081565b610331610efd565b60408051938452602084019290925290820152606001610212565b600954610268906001600160a01b031681565b610367610f62565b6040516102129190614d92565b61037c610f73565b6040516102129190614dd1565b6102687f000000000000000000000000000000000000000000000000000000000000000081565b600154610268906001600160a01b031681565b6102687f000000000000000000000000000000000000000000000000000000000000000081565b6101fd6103f8366004614d18565b611001565b6101fd61040b366004614d18565b6112fa565b6101fd61041e366004614d18565b611508565b7f0000000000000000000000000000000000000000000000000000000000000000610268565b61020860065481565b610208611716565b600054610268906001600160a01b031681565b61020861047b366004614e04565b611836565b600b54610268906001600160a01b031681565b6101fd6104a1366004614e30565b611c56565b6000546001600160a01b0316610268565b61037c604051806040016040528060058152602001640352e312e360dc1b81525081565b6104e8335b600390611e6c565b6105325760405162461bcd60e51b815260206004820152601660248201527531b0b63632b916b4b996b737ba16b096b5b2b2b832b960511b60448201526064015b60405180910390fd5b6001546001600160a01b031661058a5760405162461bcd60e51b815260206004820152601560248201527f6665652d636f6c6c6563746f722d6e6f742d73657400000000000000000000006044820152606401610529565b7f00000000000000000000000000000000000000000000000000000000000000006001600160a01b0316816001600160a01b0316141561060c5760405162461bcd60e51b815260206004820152601f60248201527f6e6f742d616c6c6f7765642d746f2d73776565702d636f6c6c61746572616c006044820152606401610529565b61061581610e78565b156106595760405162461bcd60e51b815260206004820152601460248201527306e6f742d616c6c6f7765642d746f2d73776565760641b6044820152606401610529565b6001600160a01b03811673eeeeeeeeeeeeeeeeeeeeeeeeeeeeeeeeeeeeeeee141561069757600154610694906001600160a01b031647611e8e565b50565b6040516370a0823160e01b81523060048201526000906001600160a01b038316906370a082319060240160206040518083038186803b1580156106d957600080fd5b505afa1580156106ed573d6000803e3d6000fd5b505050506040513d601f19601f820116820180604052508101906107119190614e52565b60015490915061072e906001600160a01b03848116911683611fac565b5050565b600061073d336104e0565b6107825760405162461bcd60e51b815260206004820152601660248201527531b0b63632b916b4b996b737ba16b096b5b2b2b832b960511b6044820152606401610529565b6040516370a0823160e01b81523060048201526000907f00000000000000000000000000000000000000000000000000000000000000006001600160a01b0316906370a082319060240160206040518083038186803b1580156107e457600080fd5b505afa1580156107f8573d6000803e3d6000fd5b505050506040513d601f19601f8201168201806040525081019061081c9190614e52565b905061082661203c565b6040516370a0823160e01b815230600482015281907f00000000000000000000000000000000000000000000000000000000000000006001600160a01b0316906370a082319060240160206040518083038186803b15801561088757600080fd5b505afa15801561089b573d6000803e3d6000fd5b505050506040513d601f19601f820116820180604052508101906108bf9190614e52565b6108c99190614e81565b9150828210156109125760405162461bcd60e51b81526020600482015260146024820152731b9bdd0b595b9bdd59da0b585b5bdd5b9d13dd5d60621b6044820152606401610529565b50919050565b7f00000000000000000000000000000000000000000000000000000000000000006001600160a01b0316630c340a246040518163ffffffff1660e01b815260040160206040518083038186803b15801561097157600080fd5b505afa158015610985573d6000803e3d6000fd5b505050506040513d601f19601f820116820180604052508101906109a99190614e98565b6001600160a01b0316336001600160a01b031614610a095760405162461bcd60e51b815260206004820152601a60248201527f63616c6c65722d69732d6e6f742d7468652d676f7665726e6f720000000000006044820152606401610529565b610a1460038261220e565b6106945760405162461bcd60e51b815260206004820152601460248201527f72656d6f76652d6b65657065722d6661696c65640000000000000000000000006044820152606401610529565b337f00000000000000000000000000000000000000000000000000000000000000006001600160a01b031614610ad85760405162461bcd60e51b815260206004820152601960248201527f63616c6c65722d69732d6e6f742d7665737065722d706f6f6c000000000000006044820152606401610529565b6040516370a0823160e01b81523060048201526000907f00000000000000000000000000000000000000000000000000000000000000006001600160a01b0316906370a082319060240160206040518083038186803b158015610b3a57600080fd5b505afa158015610b4e573d6000803e3d6000fd5b505050506040513d601f19601f82011682018060405250810190610b729190614e52565b9050818110610bcf5761072e6001600160a01b037f0000000000000000000000000000000000000000000000000000000000000000167f000000000000000000000000000000000000000000000000000000000000000084611fac565b610be1610bdc8284614e81565b612223565b6040516370a0823160e01b81523060048201527f00000000000000000000000000000000000000000000000000000000000000006001600160a01b0316906370a082319060240160206040518083038186803b158015610c4057600080fd5b505afa158015610c54573d6000803e3d6000fd5b505050506040513d601f19601f82011682018060405250810190610c789190614e52565b905061072e7f0000000000000000000000000000000000000000000000000000000000000000610ca884846123b3565b6001600160a01b037f0000000000000000000000000000000000000000000000000000000000000000169190611fac565b610ce2336104e0565b610d275760405162461bcd60e51b815260206004820152601660248201527531b0b63632b916b4b996b737ba16b096b5b2b2b832b960511b6044820152606401610529565b610694816123c9565b7f00000000000000000000000000000000000000000000000000000000000000006001600160a01b0316630c340a246040518163ffffffff1660e01b815260040160206040518083038186803b158015610d8957600080fd5b505afa158015610d9d573d6000803e3d6000fd5b505050506040513d601f19601f82011682018060405250810190610dc19190614e98565b6001600160a01b0316336001600160a01b031614610e215760405162461bcd60e51b815260206004820152601a60248201527f63616c6c65722d69732d6e6f742d7468652d676f7665726e6f720000000000006044820152606401610529565b610e2c600382611e50565b6106945760405162461bcd60e51b815260206004820152601160248201527f6164642d6b65657065722d6661696c65640000000000000000000000000000006044820152606401610529565b60007f00000000000000000000000000000000000000000000000000000000000000006001600160a01b0316826001600160a01b03161480610ec757506000546001600160a01b038381169116145b80610edf57506009546001600160a01b038381169116145b80610ef757506008546001600160a01b038381169116145b92915050565b60008080610f0a336104e0565b610f4f5760405162461bcd60e51b815260206004820152601660248201527531b0b63632b916b4b996b737ba16b096b5b2b2b832b960511b6044820152606401610529565b610f57612437565b925092509250909192565b6060610f6e6003612c94565b905090565b60058054610f8090614eb5565b80601f0160208091040260200160405190810160405280929190818152602001828054610fac90614eb5565b8015610ff95780601f10610fce57610100808354040283529160200191610ff9565b820191906000526020600020905b815481529060010190602001808311610fdc57829003601f168201915b505050505081565b337f00000000000000000000000000000000000000000000000000000000000000006001600160a01b0316146110795760405162461bcd60e51b815260206004820152601960248201527f63616c6c65722d69732d6e6f742d7665737065722d706f6f6c000000000000006044820152606401610529565b6001600160a01b0381166110cf5760405162461bcd60e51b815260206004820152601c60248201527f6e65772d73747261746567792d616464726573732d69732d7a65726f000000006044820152606401610529565b7f00000000000000000000000000000000000000000000000000000000000000006001600160a01b0316816001600160a01b03166316f0115b6040518163ffffffff1660e01b815260040160206040518083038186803b15801561113257600080fd5b505afa158015611146573d6000803e3d6000fd5b505050506040513d601f19601f8201168201806040525081019061116a9190614e98565b6001600160a01b0316146111c05760405162461bcd60e51b815260206004820152601660248201527f6e6f742d76616c69642d6e65772d7374726174656779000000000000000000006044820152606401610529565b6111c981612ca1565b6000546040516370a0823160e01b815230600482015261125d9183916001600160a01b03909116906370a082319060240160206040518083038186803b15801561121257600080fd5b505afa158015611226573d6000803e3d6000fd5b505050506040513d601f19601f8201168201806040525081019061124a9190614e52565b6000546001600160a01b03169190611fac565b6040516370a0823160e01b81523060048201526106949082906001600160a01b037f000000000000000000000000000000000000000000000000000000000000000016906370a082319060240160206040518083038186803b1580156112c257600080fd5b505afa1580156112d6573d6000803e3d6000fd5b505050506040513d601f19601f82011682018060405250810190610ca89190614e52565b7f00000000000000000000000000000000000000000000000000000000000000006001600160a01b0316630c340a246040518163ffffffff1660e01b815260040160206040518083038186803b15801561135357600080fd5b505afa158015611367573d6000803e3d6000fd5b505050506040513d601f19601f8201168201806040525081019061138b9190614e98565b6001600160a01b0316336001600160a01b0316146113eb5760405162461bcd60e51b815260206004820152601a60248201527f63616c6c65722d69732d6e6f742d7468652d676f7665726e6f720000000000006044820152606401610529565b6001600160a01b0381166114415760405162461bcd60e51b815260206004820152601d60248201527f6665652d636f6c6c6563746f722d616464726573732d69732d7a65726f0000006044820152606401610529565b6001546001600160a01b038281169116141561149f5760405162461bcd60e51b815260206004820152601560248201527f6665652d636f6c6c6563746f722d69732d73616d6500000000000000000000006044820152606401610529565b6001546040516001600160a01b038084169216907f0f06062680f9bd68e786e9980d9bb03d73d5620fc3b345e417b6eacb310b970690600090a36001805473ffffffffffffffffffffffffffffffffffffffff19166001600160a01b0392909216919091179055565b7f00000000000000000000000000000000000000000000000000000000000000006001600160a01b0316630c340a246040518163ffffffff1660e01b815260040160206040518083038186803b15801561156157600080fd5b505afa158015611575573d6000803e3d6000fd5b505050506040513d601f19601f820116820180604052508101906115999190614e98565b6001600160a01b0316336001600160a01b0316146115f95760405162461bcd60e51b815260206004820152601a60248201527f63616c6c65722d69732d6e6f742d7468652d676f7665726e6f720000000000006044820152606401610529565b6001600160a01b03811661164f5760405162461bcd60e51b815260206004820152601760248201527f737761707065722d616464726573732d69732d7a65726f0000000000000000006044820152606401610529565b6002546001600160a01b03828116911614156116ad5760405162461bcd60e51b815260206004820152600f60248201527f737761707065722d69732d73616d6500000000000000000000000000000000006044820152606401610529565b6002546040516001600160a01b038084169216907f6c953b7ec311055c20b96a42cea31e89528e375b1bf953a503db40854b3188fe90600090a36002805473ffffffffffffffffffffffffffffffffffffffff19166001600160a01b0392909216919091179055565b6040516370a0823160e01b81523060048201526000907f00000000000000000000000000000000000000000000000000000000000000006001600160a01b0316906370a082319060240160206040518083038186803b15801561177857600080fd5b505afa15801561178c573d6000803e3d6000fd5b505050506040513d601f19601f820116820180604052508101906117b09190614e52565b6000546040516370a0823160e01b81523060048201526001600160a01b03909116906370a08231906024015b60206040518083038186803b1580156117f457600080fd5b505afa158015611808573d6000803e3d6000fd5b505050506040513d601f19601f8201168201806040525081019061182c9190614e52565b610f6e9190614eea565b6000611841336104e0565b6118865760405162461bcd60e51b815260206004820152601660248201527531b0b63632b916b4b996b737ba16b096b5b2b2b832b960511b6044820152606401610529565b7f00000000000000000000000000000000000000000000000000000000000000006001600160a01b0316836001600160a01b031614156119085760405162461bcd60e51b815260206004820152601f60248201527f6e6f742d616c6c6f7765642d746f2d73776565702d636f6c6c61746572616c006044820152606401610529565b61191183610e78565b156119555760405162461bcd60e51b815260206004820152601460248201527306e6f742d616c6c6f7765642d746f2d73776565760641b6044820152606401610529565b6040516370a0823160e01b81523060048201526000907f00000000000000000000000000000000000000000000000000000000000000006001600160a01b0316906370a082319060240160206040518083038186803b1580156119b757600080fd5b505afa1580156119cb573d6000803e3d6000fd5b505050506040513d601f19601f820116820180604052508101906119ef9190614e52565b6040516370a0823160e01b81523060048201529091506000906001600160a01b038616906370a082319060240160206040518083038186803b158015611a3457600080fd5b505afa158015611a48573d6000803e3d6000fd5b505050506040513d601f19601f82011682018060405250810190611a6c9190614e52565b90508015611b6257600254604051636eb1769f60e11b81523060048201526001600160a01b0391821660248201529086169063dd62ed3e9060440160206040518083038186803b158015611abf57600080fd5b505afa158015611ad3573d6000803e3d6000fd5b505050506040513d601f19601f82011682018060405250810190611af79190614e52565b811115611b3557600254611b19906001600160a01b0387811691166000612e98565b600254611b35906001600160a01b038781169116600019612e98565b611b60857f000000000000000000000000000000000000000000000000000000000000000083612fc3565b505b6040516370a0823160e01b815230600482015282907f00000000000000000000000000000000000000000000000000000000000000006001600160a01b0316906370a082319060240160206040518083038186803b158015611bc357600080fd5b505afa158015611bd7573d6000803e3d6000fd5b505050506040513d601f19601f82011682018060405250810190611bfb9190614e52565b611c059190614e81565b925083831015611c4e5760405162461bcd60e51b81526020600482015260146024820152731b9bdd0b595b9bdd59da0b585b5bdd5b9d13dd5d60621b6044820152606401610529565b505092915050565b7f00000000000000000000000000000000000000000000000000000000000000006001600160a01b0316630c340a246040518163ffffffff1660e01b815260040160206040518083038186803b158015611caf57600080fd5b505afa158015611cc3573d6000803e3d6000fd5b505050506040513d601f19601f82011682018060405250810190611ce79190614e98565b6001600160a01b0316336001600160a01b031614611d475760405162461bcd60e51b815260206004820152601a60248201527f63616c6c65722d69732d6e6f742d7468652d676f7665726e6f720000000000006044820152606401610529565b6127108110611d985760405162461bcd60e51b815260206004820152601860248201527f696e76616c69642d6d61782d626f72726f772d6c696d697400000000000000006044820152606401610529565b80158015611da4575081155b80611dae57508181115b611dfa5760405162461bcd60e51b815260206004820152601d60248201527f6d61782d73686f756c642d62652d6869676865722d7468616e2d6d696e0000006044820152606401610529565b6006546007546040805192835260208301859052820152606081018290527fedd77444afdf63401315e81ffe86d08f7865796e8ad2e11acf1d56a1393f07d59060800160405180910390a1600691909155600755565b6000611e65836001600160a01b038416613067565b9392505050565b6001600160a01b03811660009081526001830160205260408120541515611e65565b80471015611ede5760405162461bcd60e51b815260206004820152601d60248201527f416464726573733a20696e73756666696369656e742062616c616e63650000006044820152606401610529565b6000826001600160a01b03168260405160006040518083038185875af1925050503d8060008114611f2b576040519150601f19603f3d011682016040523d82523d6000602084013e611f30565b606091505b5050905080611fa75760405162461bcd60e51b815260206004820152603a60248201527f416464726573733a20756e61626c6520746f2073656e642076616c75652c207260448201527f6563697069656e74206d617920686176652072657665727465640000000000006064820152608401610529565b505050565b6040516001600160a01b038316602482015260448101829052611fa790849063a9059cbb60e01b906064015b60408051601f198184030181529190526020810180517bffffffffffffffffffffffffffffffffffffffffffffffffffffffff167fffffffff00000000000000000000000000000000000000000000000000000000909316929092179091526130b6565b612044613188565b60007f00000000000000000000000000000000000000000000000000000000000000006001600160a01b0316638bc6beb26040518163ffffffff1660e01b815260040160206040518083038186803b15801561209f57600080fd5b505afa1580156120b3573d6000803e3d6000fd5b505050506040513d601f19601f820116820180604052508101906120d79190614e98565b90506001600160a01b038116156121425760405163d279c19160e01b81523060048201526001600160a01b0382169063d279c19190602401600060405180830381600087803b15801561212957600080fd5b505af115801561213d573d6000803e3d6000fd5b505050505b600b546001600160a01b03161561069457600b546040516370a0823160e01b81523060048201526000916001600160a01b0316906370a082319060240160206040518083038186803b15801561219757600080fd5b505afa1580156121ab573d6000803e3d6000fd5b505050506040513d601f19601f820116820180604052508101906121cf9190614e52565b9050801561072e57600b5461072e906001600160a01b03167f00000000000000000000000000000000000000000000000000000000000000008361329e565b6000611e65836001600160a01b03841661333a565b610694817f00000000000000000000000000000000000000000000000000000000000000006001600160a01b031663026b1d5f6040518163ffffffff1660e01b815260040160206040518083038186803b15801561228057600080fd5b505afa158015612294573d6000803e3d6000fd5b505050506040513d601f19601f820116820180604052508101906122b89190614e98565b6009546040516370a0823160e01b81523060048201526001600160a01b03909116906370a082319060240160206040518083038186803b1580156122fb57600080fd5b505afa15801561230f573d6000803e3d6000fd5b505050506040513d601f19601f820116820180604052508101906123339190614e52565b6000546040516370a0823160e01b81523060048201526001600160a01b03909116906370a082319060240160206040518083038186803b15801561237657600080fd5b505afa15801561238a573d6000803e3d6000fd5b505050506040513d601f19601f820116820180604052508101906123ae9190614e52565b61342d565b60008183106123c25781611e65565b5090919050565b6123d281613667565b600854612409906001600160a01b03167f000000000000000000000000000000000000000000000000000000000000000083612e98565b600b546001600160a01b03161561069457600254600b54610694916001600160a01b03918216911683612e98565b604051636a9eee1360e11b81523060048201526000908190819081906001600160a01b037f0000000000000000000000000000000000000000000000000000000000000000169063d53ddc269060240160206040518083038186803b15801561249f57600080fd5b505afa1580156124b3573d6000803e3d6000fd5b505050506040513d601f19601f820116820180604052508101906124d79190614e52565b6009546040516370a0823160e01b81523060048201529192506000916001600160a01b03909116906370a082319060240160206040518083038186803b15801561252057600080fd5b505afa158015612534573d6000803e3d6000fd5b505050506040513d601f19601f820116820180604052508101906125589190614e52565b90506000612564613a2a565b905060007f00000000000000000000000000000000000000000000000000000000000000006001600160a01b031663026b1d5f6040518163ffffffff1660e01b815260040160206040518083038186803b1580156125c157600080fd5b505afa1580156125d5573d6000803e3d6000fd5b505050506040513d601f19601f820116820180604052508101906125f99190614e98565b90508183111561261b576126166126108385614e81565b82613ba3565b61262d565b61262d6126288484614e81565b613eb7565b6040516370a0823160e01b81523060048201526000907f00000000000000000000000000000000000000000000000000000000000000006001600160a01b0316906370a082319060240160206040518083038186803b15801561268f57600080fd5b505afa1580156126a3573d6000803e3d6000fd5b505050506040513d601f19601f820116820180604052508101906126c79190614e52565b600080546040516370a0823160e01b815230600482015292935090916001600160a01b03909116906370a082319060240160206040518083038186803b15801561271057600080fd5b505afa158015612724573d6000803e3d6000fd5b505050506040513d601f19601f820116820180604052508101906127489190614e52565b905060006127568383614eea565b604051639f2b283360e01b81523060048201529091506000906001600160a01b037f00000000000000000000000000000000000000000000000000000000000000001690639f2b28339060240160206040518083038186803b1580156127bb57600080fd5b505afa1580156127cf573d6000803e3d6000fd5b505050506040513d601f19601f820116820180604052508101906127f39190614e52565b90508082111561280e576128078183614e81565b9a5061281b565b6128188282614e81565b99505b6000612827898d614eea565b9050808510156128f65760006128466128408784614e81565b866123b3565b905080156128f45761285a81888b8861342d565b6040516370a0823160e01b81523060048201527f00000000000000000000000000000000000000000000000000000000000000006001600160a01b0316906370a082319060240160206040518083038186803b1580156128b957600080fd5b505afa1580156128cd573d6000803e3d6000fd5b505050506040513d601f19601f820116820180604052508101906128f19190614e52565b95505b505b612900858a6123b3565b9950898511612910576000612923565b61292361291d8b87614e81565b8d6123b3565b6040516302df682360e11b815260048101829052602481018d9052604481018c9052909c507f00000000000000000000000000000000000000000000000000000000000000006001600160a01b0316906305bed04690606401600060405180830381600087803b15801561299657600080fd5b505af11580156129aa573d6000803e3d6000fd5b50506040516370a0823160e01b8152306004820152600092507f00000000000000000000000000000000000000000000000000000000000000006001600160a01b031691506370a082319060240160206040518083038186803b158015612a1057600080fd5b505afa158015612a24573d6000803e3d6000fd5b505050506040513d601f19601f82011682018060405250810190612a489190614e52565b9050612a548188613f81565b6009546040516370a0823160e01b81523060048201526000918291612b5a91839182916001600160a01b0316906370a082319060240160206040518083038186803b158015612aa257600080fd5b505afa158015612ab6573d6000803e3d6000fd5b505050506040513d601f19601f82011682018060405250810190612ada9190614e52565b6000546040516370a0823160e01b81523060048201526001600160a01b03909116906370a082319060240160206040518083038186803b158015612b1d57600080fd5b505afa158015612b31573d6000803e3d6000fd5b505050506040513d601f19601f82011682018060405250810190612b559190614e52565b6140a3565b90925090508015612b7457612b6f818a614702565b612bf5565b8115612bf55760085460405163a415bcad60e01b81526001600160a01b039182166004820152602481018490526002604482015260006064820152306084820152908a169063a415bcad9060a401600060405180830381600087803b158015612bdc57600080fd5b505af1158015612bf0573d6000803e3d6000fd5b505050505b6008546040516370a0823160e01b81523060048201526000916001600160a01b0316906370a082319060240160206040518083038186803b158015612c3957600080fd5b505afa158015612c4d573d6000803e3d6000fd5b505050506040513d601f19601f82011682018060405250810190612c719190614e52565b90508015612c8257612c8281614782565b50505050505050505050505050909192565b60606000611e65836147f8565b60008054906101000a90046001600160a01b03166001600160a01b0316816001600160a01b031663fc0c546a6040518163ffffffff1660e01b815260040160206040518083038186803b158015612cf757600080fd5b505afa158015612d0b573d6000803e3d6000fd5b505050506040513d601f19601f82011682018060405250810190612d2f9190614e98565b6001600160a01b031614612d855760405162461bcd60e51b815260206004820152601360248201527f77726f6e672d726563656970742d746f6b656e000000000000000000000000006044820152606401610529565b6009546040516370a0823160e01b8152306004820152610694916001600160a01b0316906370a082319060240160206040518083038186803b158015612dca57600080fd5b505afa158015612dde573d6000803e3d6000fd5b505050506040513d601f19601f82011682018060405250810190612e029190614e52565b7f00000000000000000000000000000000000000000000000000000000000000006001600160a01b031663026b1d5f6040518163ffffffff1660e01b815260040160206040518083038186803b158015612e5b57600080fd5b505afa158015612e6f573d6000803e3d6000fd5b505050506040513d601f19601f82011682018060405250810190612e939190614e98565b614702565b801580612f215750604051636eb1769f60e11b81523060048201526001600160a01b03838116602483015284169063dd62ed3e9060440160206040518083038186803b158015612ee757600080fd5b505afa158015612efb573d6000803e3d6000fd5b505050506040513d601f19601f82011682018060405250810190612f1f9190614e52565b155b612f935760405162461bcd60e51b815260206004820152603660248201527f5361666545524332303a20617070726f76652066726f6d206e6f6e2d7a65726f60448201527f20746f206e6f6e2d7a65726f20616c6c6f77616e6365000000000000000000006064820152608401610529565b6040516001600160a01b038316602482015260448101829052611fa790849063095ea7b360e01b90606401611fd8565b600254604051636ccb2b0160e01b81526001600160a01b038581166004830152848116602483015260448201849052600160648301523060848301526000921690636ccb2b019060a401602060405180830381600087803b15801561302757600080fd5b505af115801561303b573d6000803e3d6000fd5b505050506040513d601f19601f8201168201806040525081019061305f9190614e52565b949350505050565b60008181526001830160205260408120546130ae57508154600181810184556000848152602080822090930184905584548482528286019093526040902091909155610ef7565b506000610ef7565b600061310b826040518060400160405280602081526020017f5361666545524332303a206c6f772d6c6576656c2063616c6c206661696c6564815250856001600160a01b03166148549092919063ffffffff16565b805190915015611fa757808060200190518101906131299190614f17565b611fa75760405162461bcd60e51b815260206004820152602a60248201527f5361666545524332303a204552433230206f7065726174696f6e20646964206e6044820152691bdd081cdd58d8d9595960b21b6064820152608401610529565b6000805481906131a0906001600160a01b0316614863565b8151919350915060005b818110156132985760008382815181106131c6576131c6614f32565b602002602001015111801561322657507f00000000000000000000000000000000000000000000000000000000000000006001600160a01b031684828151811061321257613212614f32565b60200260200101516001600160a01b031614155b156132885761328884828151811061324057613240614f32565b60200260200101517f000000000000000000000000000000000000000000000000000000000000000085848151811061327b5761327b614f32565b602002602001015161329e565b61329181614f48565b90506131aa565b50505050565b600254604051636ccb2b0160e01b81526001600160a01b0385811660048301528481166024830152604482018490526001606483015230608483015290911690636ccb2b019060a401602060405180830381600087803b15801561330157600080fd5b505af1925050508015613331575060408051601f3d908101601f1916820190925261332e91810190614e52565b60015b61329857505050565b6000818152600183016020526040812054801561342357600061335e600183614e81565b855490915060009061337290600190614e81565b90508181146133d757600086600001828154811061339257613392614f32565b90600052602060002001549050808760000184815481106133b5576133b5614f32565b6000918252602080832090910192909255918252600188019052604090208390555b85548690806133e8576133e8614f63565b600190038181906000526020600020016000905590558560010160008681526020019081526020016000206000905560019350505050610ef7565b6000915050610ef7565b600061343c60008685856140a3565b915050801561344f5761344f8185614702565b600080546040516370a0823160e01b8152306004820152613577918891613572916001600160a01b0316906370a082319060240160206040518083038186803b15801561349b57600080fd5b505afa1580156134af573d6000803e3d6000fd5b505050506040513d601f19601f820116820180604052508101906134d39190614e52565b6000546040516370a0823160e01b81526001600160a01b0391821660048201527f0000000000000000000000000000000000000000000000000000000000000000909116906370a08231906024015b60206040518083038186803b15801561353a57600080fd5b505afa15801561354e573d6000803e3d6000fd5b505050506040513d601f19601f820116820180604052508101906135729190614e52565b6123b3565b604051631a4ca37b60e21b81526001600160a01b037f0000000000000000000000000000000000000000000000000000000000000000811660048301526024820183905230604483015291925082918716906369328dec90606401602060405180830381600087803b1580156135ec57600080fd5b505af1158015613600573d6000803e3d6000fd5b505050506040513d601f19601f820116820180604052508101906136249190614e52565b1460405180604001604052806002815260200161323960f01b8152509061365e5760405162461bcd60e51b81526004016105299190614dd1565b50505050505050565b613670816149ac565b6000600260009054906101000a90046001600160a01b0316905061374f7f00000000000000000000000000000000000000000000000000000000000000006001600160a01b031663026b1d5f6040518163ffffffff1660e01b815260040160206040518083038186803b1580156136e657600080fd5b505afa1580156136fa573d6000803e3d6000fd5b505050506040513d601f19601f8201168201806040525081019061371e9190614e98565b6001600160a01b037f0000000000000000000000000000000000000000000000000000000000000000169084612e98565b6137836001600160a01b037f0000000000000000000000000000000000000000000000000000000000000000168284612e98565b61382a7f00000000000000000000000000000000000000000000000000000000000000006001600160a01b031663026b1d5f6040518163ffffffff1660e01b815260040160206040518083038186803b1580156137df57600080fd5b505afa1580156137f3573d6000803e3d6000fd5b505050506040513d601f19601f820116820180604052508101906138179190614e98565b6008546001600160a01b03169084612e98565b600854613841906001600160a01b03168284612e98565b60008054906101000a90046001600160a01b03166001600160a01b03166375d264136040518163ffffffff1660e01b815260040160206040518083038186803b15801561388d57600080fd5b505afa9250505080156138bd575060408051601f3d908101601f191682019092526138ba91810190614e98565b60015b6138c5575050565b6000816001600160a01b031663b45ac1a96040518163ffffffff1660e01b815260040160006040518083038186803b15801561390057600080fd5b505afa158015613914573d6000803e3d6000fd5b505050506040513d6000823e601f3d908101601f1916820160405261393c919081019061505a565b905060005b8151811015613a23577f00000000000000000000000000000000000000000000000000000000000000006001600160a01b031682828151811061398657613986614f32565b60200260200101516001600160a01b0316141580156139d7575060085482516001600160a01b03909116908390839081106139c3576139c3614f32565b60200260200101516001600160a01b031614155b15613a1357613a1384868484815181106139f3576139f3614f32565b60200260200101516001600160a01b0316612e989092919063ffffffff16565b613a1c81614f48565b9050613941565b5050505050565b6040516370a0823160e01b8152306004820152600090670de0b6b3a7640000906001600160a01b037f000000000000000000000000000000000000000000000000000000000000000016906370a082319060240160206040518083038186803b158015613a9657600080fd5b505afa158015613aaa573d6000803e3d6000fd5b505050506040513d601f19601f82011682018060405250810190613ace9190614e52565b7f00000000000000000000000000000000000000000000000000000000000000006001600160a01b03166399530b066040518163ffffffff1660e01b815260040160206040518083038186803b158015613b2757600080fd5b505afa158015613b3b573d6000803e3d6000fd5b505050506040513d601f19601f82011682018060405250810190613b5f9190614e52565b613b69919061508f565b613b7391906150ae565b6008546040516370a0823160e01b81523060048201526001600160a01b03909116906370a08231906024016117dc565b6002546008546040516353b609b560e01b81526001600160a01b037f00000000000000000000000000000000000000000000000000000000000000008116600483015291821660248201526044810185905260009291909116906353b609b590606401602060405180830381600087803b158015613c2057600080fd5b505af1158015613c34573d6000803e3d6000fd5b505050506040513d601f19601f82011682018060405250810190613c589190614e52565b90508015611fa7576040516370a0823160e01b81523060048201526000907f00000000000000000000000000000000000000000000000000000000000000006001600160a01b0316906370a082319060240160206040518083038186803b158015613cc257600080fd5b505afa158015613cd6573d6000803e3d6000fd5b505050506040513d601f19601f82011682018060405250810190613cfa9190614e52565b905080821115613dfa576000613d108284614e81565b604051631a4ca37b60e21b81526001600160a01b037f0000000000000000000000000000000000000000000000000000000000000000811660048301526024820183905230604483015291925082918616906369328dec90606401602060405180830381600087803b158015613d8557600080fd5b505af1158015613d99573d6000803e3d6000fd5b505050506040513d601f19601f82011682018060405250810190613dbd9190614e52565b1460405180604001604052806002815260200161323960f01b81525090613df75760405162461bcd60e51b81526004016105299190614dd1565b50505b6002546008546040516381cc619b60e01b81526001600160a01b037f000000000000000000000000000000000000000000000000000000000000000081166004830152918216602482015260448101879052606481018590523060848201529116906381cc619b9060a401602060405180830381600087803b158015613e7f57600080fd5b505af1158015613e93573d6000803e3d6000fd5b505050506040513d601f19601f82011682018060405250810190613a239190614e52565b801561069457613ec681614a00565b6008546040516370a0823160e01b81523060048201526000916001600160a01b0316906370a082319060240160206040518083038186803b158015613f0a57600080fd5b505afa158015613f1e573d6000803e3d6000fd5b505050506040513d601f19601f82011682018060405250810190613f429190614e52565b9050801561072e5760085461072e906001600160a01b03167f00000000000000000000000000000000000000000000000000000000000000008361329e565b811561072e5760405163617ba03760e01b81526001600160a01b037f000000000000000000000000000000000000000000000000000000000000000081166004830152602482018490523060448301526000606483015282169063617ba03790608401600060405180830381600087803b158015613ffe57600080fd5b505af192505050801561400f575060015b61072e5761401b6150d0565b806308c379a0141561409757506140306150ec565b8061403b5750614099565b61404481615176565b611a9b60f11b14611fa75760405162461bcd60e51b815260206004820152600e60248201527f6465706f736974206661696c65640000000000000000000000000000000000006044820152606401610529565b505b3d6000803e3d6000fd5b6000808515806140b1575084155b6140fd5760405162461bcd60e51b815260206004820152601160248201527f616c6c2d696e7075742d67742d7a65726f0000000000000000000000000000006044820152606401610529565b60075461410f575060009050826146f9565b60008087116141355785841161412657600061413f565b6141308685614e81565b61413f565b61413f8785614eea565b9050806141535760008592509250506146f9565b60007f00000000000000000000000000000000000000000000000000000000000000006001600160a01b031663fca513a86040518163ffffffff1660e01b815260040160206040518083038186803b1580156141ae57600080fd5b505afa1580156141c2573d6000803e3d6000fd5b505050506040513d601f19601f820116820180604052508101906141e69190614e98565b60085460405163b3596f0760e01b81526001600160a01b0391821660048201529192506000919083169063b3596f079060240160206040518083038186803b15801561423157600080fd5b505afa158015614245573d6000803e3d6000fd5b505050506040513d601f19601f820116820180604052508101906142699190614e52565b60405163b3596f0760e01b81526001600160a01b037f00000000000000000000000000000000000000000000000000000000000000008116600483015291925060009184169063b3596f079060240160206040518083038186803b1580156142d057600080fd5b505afa1580156142e4573d6000803e3d6000fd5b505050506040513d601f19601f820116820180604052508101906143089190614e52565b9050811580614315575080155b1561432a5760008895509550505050506146f9565b60007f00000000000000000000000000000000000000000000000000000000000000006001600160a01b031663e860accb6040518163ffffffff1660e01b815260040160206040518083038186803b15801561438557600080fd5b505afa158015614399573d6000803e3d6000fd5b505050506040513d601f19601f820116820180604052508101906143bd9190614e98565b604051633e15014160e01b81526001600160a01b037f0000000000000000000000000000000000000000000000000000000000000000811660048301529190911690633e150141906024016101406040518083038186803b15801561442157600080fd5b505afa158015614435573d6000803e3d6000fd5b505050506040513d601f19601f82011682018060405250810190614459919061519a565b505050505050505091505060007f00000000000000000000000000000000000000000000000000000000000000006001600160a01b031663313ce5676040518163ffffffff1660e01b815260040160206040518083038186803b1580156144bf57600080fd5b505afa1580156144d3573d6000803e3d6000fd5b505050506040513d601f19601f820116820180604052508101906144f79190615231565b61450290600a615338565b61450e9061271061508f565b83614519848961508f565b614523919061508f565b61452d91906150ae565b9050600084600860009054906101000a90046001600160a01b03166001600160a01b031663313ce5676040518163ffffffff1660e01b815260040160206040518083038186803b15801561458057600080fd5b505afa158015614594573d6000803e3d6000fd5b505050506040513d601f19601f820116820180604052508101906145b89190615231565b6145c390600a615338565b6145cd908461508f565b6145d791906150ae565b9050806145f15760008b98509850505050505050506146f9565b600061271060075483614604919061508f565b61460e91906150ae565b9050600061271060065484614623919061508f565b61462d91906150ae565b9050818d111561464857614641818e614e81565b99506146ef565b8c8111156146ef5761465a8d82614e81565b600854600a546040516370a0823160e01b81526001600160a01b039182166004820152929d506000929116906370a082319060240160206040518083038186803b1580156146a757600080fd5b505afa1580156146bb573d6000803e3d6000fd5b505050506040513d601f19601f820116820180604052508101906146df9190614e52565b9050808c11156146ed57809b505b505b5050505050505050505b94509492505050565b61470b82614b99565b60085460405163573ade8160e01b81526001600160a01b03918216600482015260248101849052600260448201523060648201529082169063573ade8190608401600060405180830381600087803b15801561476657600080fd5b505af115801561477a573d6000803e3d6000fd5b505050505050565b60405163b6b55f2560e01b8152600481018290527f00000000000000000000000000000000000000000000000000000000000000006001600160a01b03169063b6b55f2590602401600060405180830381600087803b1580156147e457600080fd5b505af1158015613a23573d6000803e3d6000fd5b60608160000180548060200260200160405190810160405280929190818152602001828054801561484857602002820191906000526020600020905b815481526020019060010190808311614834575b50505050509050919050565b606061305f8484600085614ba2565b606080826001600160a01b03166375d264136040518163ffffffff1660e01b815260040160206040518083038186803b15801561489f57600080fd5b505afa9250505080156148cf575060408051601f3d908101601f191682019092526148cc91810190614e98565b60015b6148d857915091565b60408051600180825281830190925260009160208083019080368337019050509050848160008151811061490e5761490e614f32565b6001600160a01b03928316602091820292909201015260405163bb492bf560e01b81529083169063bb492bf59061494b9084903090600401615347565b600060405180830381600087803b15801561496557600080fd5b505af1158015614979573d6000803e3d6000fd5b505050506040513d6000823e601f3d908101601f191682016040526149a19190810190615372565b935093505050915091565b6106946001600160a01b037f0000000000000000000000000000000000000000000000000000000000000000167f000000000000000000000000000000000000000000000000000000000000000083612e98565b80156106945760007f00000000000000000000000000000000000000000000000000000000000000006001600160a01b03166399530b066040518163ffffffff1660e01b815260040160206040518083038186803b158015614a6157600080fd5b505afa158015614a75573d6000803e3d6000fd5b505050506040513d601f19601f82011682018060405250810190614a999190614e52565b9050600081614ab084670de0b6b3a764000061508f565b614aba91906150ae565b9050670de0b6b3a7640000614acf838361508f565b614ad991906150ae565b8311614ae55780614af0565b614af0816001614eea565b6040516370a0823160e01b81523060048201529091506001600160a01b037f00000000000000000000000000000000000000000000000000000000000000001690632e1a7d4d90614b4d90849084906370a0823190602401613522565b6040518263ffffffff1660e01b8152600401614b6b91815260200190565b600060405180830381600087803b158015614b8557600080fd5b505af115801561365e573d6000803e3d6000fd5b61069481614a00565b606082471015614c035760405162461bcd60e51b815260206004820152602660248201527f416464726573733a20696e73756666696369656e742062616c616e636520666f6044820152651c8818d85b1b60d21b6064820152608401610529565b843b614c515760405162461bcd60e51b815260206004820152601d60248201527f416464726573733a2063616c6c20746f206e6f6e2d636f6e74726163740000006044820152606401610529565b600080866001600160a01b03168587604051614c6d9190615438565b60006040518083038185875af1925050503d8060008114614caa576040519150601f19603f3d011682016040523d82523d6000602084013e614caf565b606091505b5091509150614cbf828286614cca565b979650505050505050565b60608315614cd9575081611e65565b825115614ce95782518084602001fd5b8160405162461bcd60e51b81526004016105299190614dd1565b6001600160a01b038116811461069457600080fd5b600060208284031215614d2a57600080fd5b8135611e6581614d03565b600060208284031215614d4757600080fd5b5035919050565b600081518084526020808501945080840160005b83811015614d875781516001600160a01b031687529582019590820190600101614d62565b509495945050505050565b602081526000611e656020830184614d4e565b60005b83811015614dc0578181015183820152602001614da8565b838111156132985750506000910152565b6020815260008251806020840152614df0816040850160208701614da5565b601f01601f19169190910160400192915050565b60008060408385031215614e1757600080fd5b8235614e2281614d03565b946020939093013593505050565b60008060408385031215614e4357600080fd5b50508035926020909101359150565b600060208284031215614e6457600080fd5b5051919050565b634e487b7160e01b600052601160045260246000fd5b600082821015614e9357614e93614e6b565b500390565b600060208284031215614eaa57600080fd5b8151611e6581614d03565b600181811c90821680614ec957607f821691505b6020821081141561091257634e487b7160e01b600052602260045260246000fd5b60008219821115614efd57614efd614e6b565b500190565b80518015158114614f1257600080fd5b919050565b600060208284031215614f2957600080fd5b611e6582614f02565b634e487b7160e01b600052603260045260246000fd5b6000600019821415614f5c57614f5c614e6b565b5060010190565b634e487b7160e01b600052603160045260246000fd5b634e487b7160e01b600052604160045260246000fd5b601f8201601f1916810167ffffffffffffffff81118282101715614fb557614fb5614f79565b6040525050565b600067ffffffffffffffff821115614fd657614fd6614f79565b5060051b60200190565b600082601f830112614ff157600080fd5b81516020614ffe82614fbc565b60405161500b8282614f8f565b83815260059390931b850182019282810191508684111561502b57600080fd5b8286015b8481101561504f57805161504281614d03565b835291830191830161502f565b509695505050505050565b60006020828403121561506c57600080fd5b815167ffffffffffffffff81111561508357600080fd5b61305f84828501614fe0565b60008160001904831182151516156150a9576150a9614e6b565b500290565b6000826150cb57634e487b7160e01b600052601260045260246000fd5b500490565b600060033d11156150e95760046000803e5060005160e01c5b90565b600060443d10156150fa5790565b6040516003193d81016004833e81513d67ffffffffffffffff816024840111818411171561512a57505050505090565b82850191508151818111156151425750505050505090565b843d870101602082850101111561515c5750505050505090565b61516b60208286010187614f8f565b509095945050505050565b805160208083015191908110156109125760001960209190910360031b1b16919050565b6000806000806000806000806000806101408b8d0312156151ba57600080fd5b8a51995060208b0151985060408b0151975060608b0151965060808b015195506151e660a08c01614f02565b94506151f460c08c01614f02565b935061520260e08c01614f02565b92506152116101008c01614f02565b91506152206101208c01614f02565b90509295989b9194979a5092959850565b60006020828403121561524357600080fd5b815160ff81168114611e6557600080fd5b600181815b8085111561528f57816000190482111561527557615275614e6b565b8085161561528257918102915b93841c9390800290615259565b509250929050565b6000826152a657506001610ef7565b816152b357506000610ef7565b81600181146152c957600281146152d3576152ef565b6001915050610ef7565b60ff8411156152e4576152e4614e6b565b50506001821b610ef7565b5060208310610133831016604e8410600b8410161715615312575081810a610ef7565b61531c8383615254565b806000190482111561533057615330614e6b565b029392505050565b6000611e6560ff841683615297565b60408152600061535a6040830185614d4e565b90506001600160a01b03831660208301529392505050565b6000806040838503121561538557600080fd5b825167ffffffffffffffff8082111561539d57600080fd5b6153a986838701614fe0565b93506020915081850151818111156153c057600080fd5b85019050601f810186136153d357600080fd5b80516153de81614fbc565b6040516153eb8282614f8f565b82815260059290921b830184019184810191508883111561540b57600080fd5b928401925b8284101561542957835182529284019290840190615410565b80955050505050509250929050565b6000825161544a818460208701614da5565b919091019291505056fea2646970667358221220a9d077af0623360b8b9fda18bf81265f1257f664b30fd857c091acbe75be3b0864736f6c63430008090033",
  "devdoc": {
    "kind": "dev",
    "methods": {
      "addKeeper(address)": {
        "params": {
          "_keeperAddress": "keeper address to add."
        }
      },
      "approveToken(uint256)": {
        "details": "Approve all required tokens"
      },
      "migrate(address)": {
        "details": "_beforeMigration hook can be implemented in child strategy to do extra steps.",
        "params": {
          "_newStrategy": "Address of new strategy"
        }
      },
      "rebalance()": {
        "returns": {
          "_loss": "Realized loss, if any, in collateral.",
          "_payback": "If strategy has any excess debt, we have to liquidate asset to payback excess debt.",
          "_profit": "Realized profit in collateral."
        }
      },
      "removeKeeper(address)": {
        "params": {
          "_keeperAddress": "keeper address to remove."
        }
      },
      "sweep(address)": {
        "params": {
          "_fromToken": "token address to sweep"
        }
      },
      "updateBorrowLimit(uint256,uint256)": {
        "details": "It is possible to set _maxBorrowLimit and _minBorrowLimit as 0 to not borrow anything",
        "params": {
          "_maxBorrowLimit": "It is % of actual collateral factor of protocol",
          "_minBorrowLimit": "It is % of actual collateral factor of protocol"
        }
      },
      "updateFeeCollector(address)": {
        "params": {
          "_feeCollector": "fee collector address"
        }
      },
      "updateSwapper(address)": {
        "params": {
          "_swapper": "swapper address"
        }
      },
      "withdraw(uint256)": {
        "params": {
          "_amount": "Amount of collateral token"
        }
      }
    },
    "title": "Deposit Collateral in Aave and earn interest by depositing borrowed token in a Vesper Pool.",
    "version": 1
  },
  "userdoc": {
    "kind": "user",
    "methods": {
      "addKeeper(address)": {
        "notice": "Add given address in keepers list."
      },
      "claimAndSwapRewards(uint256)": {
        "notice": "Claim rewardToken and convert rewardToken into collateral token."
      },
      "collateral()": {
        "notice": "Returns address of token correspond to collateral token"
      },
      "isReservedToken(address)": {
        "notice": "Check whether given token is reserved or not. Reserved tokens are not allowed to sweep."
      },
      "keepers()": {
        "notice": "Return list of keepers"
      },
      "migrate(address)": {
        "notice": "Migrate all asset and vault ownership,if any, to new strategy"
      },
      "rebalance()": {
        "notice": "OnlyKeeper: Rebalance profit, loss and investment of this strategy.  Calculate profit, loss and payback of this strategy and realize profit/loss and  withdraw fund for payback, if any, and submit this report to pool."
      },
      "removeKeeper(address)": {
        "notice": "Remove given address from keepers list."
      },
      "swapToCollateral(address,uint256)": {
        "notice": "onlyKeeper:: Swap given token into collateral token."
      },
      "sweep(address)": {
        "notice": "sweep given token to feeCollector of strategy"
      },
      "token()": {
        "notice": "Returns address of token correspond to receipt token"
      },
      "tvl()": {
        "notice": "Returns total collateral locked in the strategy"
      },
      "updateBorrowLimit(uint256,uint256)": {
        "notice": "Update upper and lower borrow limit. Usually maxBorrowLimit < 100% of actual collateral factor of protocol."
      },
      "updateFeeCollector(address)": {
        "notice": "Update fee collector"
      },
      "updateSwapper(address)": {
        "notice": "Update swapper"
      },
      "withdraw(uint256)": {
        "notice": "Withdraw collateral token from end protocol."
      }
    },
    "version": 1
  },
  "storageLayout": {
    "storage": [
      {
        "astId": 14399,
        "contract": "vesper-strategies/contracts/strategies/aave/v3/AaveV3VesperXy.sol:AaveV3VesperXy",
        "label": "receiptToken",
        "offset": 0,
        "slot": "0",
        "type": "t_address"
      },
      {
        "astId": 14405,
        "contract": "vesper-strategies/contracts/strategies/aave/v3/AaveV3VesperXy.sol:AaveV3VesperXy",
        "label": "feeCollector",
        "offset": 0,
        "slot": "1",
        "type": "t_address"
      },
      {
        "astId": 14408,
        "contract": "vesper-strategies/contracts/strategies/aave/v3/AaveV3VesperXy.sol:AaveV3VesperXy",
        "label": "swapper",
        "offset": 0,
        "slot": "2",
        "type": "t_contract(IRoutedSwapper)13247"
      },
      {
        "astId": 14421,
        "contract": "vesper-strategies/contracts/strategies/aave/v3/AaveV3VesperXy.sol:AaveV3VesperXy",
        "label": "_keepers",
        "offset": 0,
        "slot": "3",
        "type": "t_struct(AddressSet)3025_storage"
      },
      {
        "astId": 18004,
        "contract": "vesper-strategies/contracts/strategies/aave/v3/AaveV3VesperXy.sol:AaveV3VesperXy",
        "label": "NAME",
        "offset": 0,
        "slot": "5",
        "type": "t_string_storage"
      },
      {
        "astId": 18013,
        "contract": "vesper-strategies/contracts/strategies/aave/v3/AaveV3VesperXy.sol:AaveV3VesperXy",
        "label": "minBorrowLimit",
        "offset": 0,
        "slot": "6",
        "type": "t_uint256"
      },
      {
        "astId": 18016,
        "contract": "vesper-strategies/contracts/strategies/aave/v3/AaveV3VesperXy.sol:AaveV3VesperXy",
        "label": "maxBorrowLimit",
        "offset": 0,
        "slot": "7",
        "type": "t_uint256"
      },
      {
        "astId": 18021,
        "contract": "vesper-strategies/contracts/strategies/aave/v3/AaveV3VesperXy.sol:AaveV3VesperXy",
        "label": "borrowToken",
        "offset": 0,
        "slot": "8",
        "type": "t_address"
      },
      {
        "astId": 18024,
        "contract": "vesper-strategies/contracts/strategies/aave/v3/AaveV3VesperXy.sol:AaveV3VesperXy",
        "label": "vdToken",
        "offset": 0,
        "slot": "9",
        "type": "t_contract(AToken)9985"
      },
      {
        "astId": 18026,
        "contract": "vesper-strategies/contracts/strategies/aave/v3/AaveV3VesperXy.sol:AaveV3VesperXy",
        "label": "aBorrowToken",
        "offset": 0,
        "slot": "10",
        "type": "t_address"
      },
      {
        "astId": 17641,
        "contract": "vesper-strategies/contracts/strategies/aave/v3/AaveV3VesperXy.sol:AaveV3VesperXy",
        "label": "rewardToken",
        "offset": 0,
        "slot": "11",
        "type": "t_address"
      }
    ],
    "types": {
      "t_address": {
        "encoding": "inplace",
        "label": "address",
        "numberOfBytes": "20"
      },
      "t_array(t_bytes32)dyn_storage": {
        "base": "t_bytes32",
        "encoding": "dynamic_array",
        "label": "bytes32[]",
        "numberOfBytes": "32"
      },
      "t_bytes32": {
        "encoding": "inplace",
        "label": "bytes32",
        "numberOfBytes": "32"
      },
      "t_contract(AToken)9985": {
        "encoding": "inplace",
        "label": "contract AToken",
        "numberOfBytes": "20"
      },
      "t_contract(IRoutedSwapper)13247": {
        "encoding": "inplace",
        "label": "contract IRoutedSwapper",
        "numberOfBytes": "20"
      },
      "t_mapping(t_bytes32,t_uint256)": {
        "encoding": "mapping",
        "key": "t_bytes32",
        "label": "mapping(bytes32 => uint256)",
        "numberOfBytes": "32",
        "value": "t_uint256"
      },
      "t_string_storage": {
        "encoding": "bytes",
        "label": "string",
        "numberOfBytes": "32"
      },
      "t_struct(AddressSet)3025_storage": {
        "encoding": "inplace",
        "label": "struct EnumerableSet.AddressSet",
        "members": [
          {
            "astId": 3024,
            "contract": "vesper-strategies/contracts/strategies/aave/v3/AaveV3VesperXy.sol:AaveV3VesperXy",
            "label": "_inner",
            "offset": 0,
            "slot": "0",
            "type": "t_struct(Set)2724_storage"
          }
        ],
        "numberOfBytes": "64"
      },
      "t_struct(Set)2724_storage": {
        "encoding": "inplace",
        "label": "struct EnumerableSet.Set",
        "members": [
          {
            "astId": 2719,
            "contract": "vesper-strategies/contracts/strategies/aave/v3/AaveV3VesperXy.sol:AaveV3VesperXy",
            "label": "_values",
            "offset": 0,
            "slot": "0",
            "type": "t_array(t_bytes32)dyn_storage"
          },
          {
            "astId": 2723,
            "contract": "vesper-strategies/contracts/strategies/aave/v3/AaveV3VesperXy.sol:AaveV3VesperXy",
            "label": "_indexes",
            "offset": 0,
            "slot": "1",
            "type": "t_mapping(t_bytes32,t_uint256)"
          }
        ],
        "numberOfBytes": "64"
      },
      "t_uint256": {
        "encoding": "inplace",
        "label": "uint256",
        "numberOfBytes": "32"
      }
    }
  }
}