{
  "address": "0x2B5DE50A1DB84DD2DC66146Cd513d2688394b609",
  "abi": [
    {
      "inputs": [
        {
          "internalType": "address",
          "name": "pool_",
          "type": "address"
        },
        {
          "internalType": "address",
          "name": "swapper_",
          "type": "address"
        },
        {
          "internalType": "address",
          "name": "euler_",
          "type": "address"
        },
        {
          "internalType": "contract IEulerMarkets",
          "name": "eulerMarkets_",
          "type": "address"
        },
        {
          "internalType": "contract IExec",
          "name": "eulerExec_",
          "type": "address"
        },
        {
          "internalType": "contract IEulDistributor",
          "name": "rewardDistributor_",
          "type": "address"
        },
        {
          "internalType": "address",
          "name": "rewardToken_",
          "type": "address"
        },
        {
          "internalType": "address",
          "name": "borrowToken_",
          "type": "address"
        },
        {
          "internalType": "address",
          "name": "vPool_",
          "type": "address"
        },
        {
          "internalType": "address",
          "name": "vsp_",
          "type": "address"
        },
        {
          "internalType": "string",
          "name": "name_",
          "type": "string"
        }
      ],
      "stateMutability": "nonpayable",
      "type": "constructor"
    },
    {
      "anonymous": false,
      "inputs": [
        {
          "indexed": false,
          "internalType": "uint256",
          "name": "previousMinBorrowLimit",
          "type": "uint256"
        },
        {
          "indexed": false,
          "internalType": "uint256",
          "name": "newMinBorrowLimit",
          "type": "uint256"
        },
        {
          "indexed": false,
          "internalType": "uint256",
          "name": "previousMaxBorrowLimit",
          "type": "uint256"
        },
        {
          "indexed": false,
          "internalType": "uint256",
          "name": "newMaxBorrowLimit",
          "type": "uint256"
        }
      ],
      "name": "UpdatedBorrowLimit",
      "type": "event"
    },
    {
      "anonymous": false,
      "inputs": [
        {
          "indexed": true,
          "internalType": "address",
          "name": "previousFeeCollector",
          "type": "address"
        },
        {
          "indexed": true,
          "internalType": "address",
          "name": "newFeeCollector",
          "type": "address"
        }
      ],
      "name": "UpdatedFeeCollector",
      "type": "event"
    },
    {
      "anonymous": false,
      "inputs": [
        {
          "indexed": true,
          "internalType": "contract IRoutedSwapper",
          "name": "oldSwapper",
          "type": "address"
        },
        {
          "indexed": true,
          "internalType": "contract IRoutedSwapper",
          "name": "newSwapper",
          "type": "address"
        }
      ],
      "name": "UpdatedSwapper",
      "type": "event"
    },
    {
      "inputs": [],
      "name": "NAME",
      "outputs": [
        {
          "internalType": "string",
          "name": "",
          "type": "string"
        }
      ],
      "stateMutability": "view",
      "type": "function"
    },
    {
      "inputs": [],
      "name": "VERSION",
      "outputs": [
        {
          "internalType": "string",
          "name": "",
          "type": "string"
        }
      ],
      "stateMutability": "view",
      "type": "function"
    },
    {
      "inputs": [
        {
          "internalType": "address",
          "name": "_keeperAddress",
          "type": "address"
        }
      ],
      "name": "addKeeper",
      "outputs": [],
      "stateMutability": "nonpayable",
      "type": "function"
    },
    {
      "inputs": [
        {
          "internalType": "uint256",
          "name": "_approvalAmount",
          "type": "uint256"
        }
      ],
      "name": "approveToken",
      "outputs": [],
      "stateMutability": "nonpayable",
      "type": "function"
    },
    {
      "inputs": [],
      "name": "borrowDToken",
      "outputs": [
        {
          "internalType": "contract IDToken",
          "name": "",
          "type": "address"
        }
      ],
      "stateMutability": "view",
      "type": "function"
    },
    {
      "inputs": [],
      "name": "borrowToken",
      "outputs": [
        {
          "internalType": "address",
          "name": "",
          "type": "address"
        }
      ],
      "stateMutability": "view",
      "type": "function"
    },
    {
      "inputs": [
        {
          "internalType": "uint256",
          "name": "_minAmountOut",
          "type": "uint256"
        }
      ],
      "name": "claimAndSwapRewards",
      "outputs": [
        {
          "internalType": "uint256",
          "name": "_amountOut",
          "type": "uint256"
        }
      ],
      "stateMutability": "nonpayable",
      "type": "function"
    },
    {
      "inputs": [
        {
          "internalType": "uint256",
          "name": "claimable_",
          "type": "uint256"
        },
        {
          "internalType": "bytes32[]",
          "name": "proof_",
          "type": "bytes32[]"
        }
      ],
      "name": "claimRewards",
      "outputs": [],
      "stateMutability": "nonpayable",
      "type": "function"
    },
    {
      "inputs": [],
      "name": "collateral",
      "outputs": [
        {
          "internalType": "address",
          "name": "",
          "type": "address"
        }
      ],
      "stateMutability": "view",
      "type": "function"
    },
    {
      "inputs": [],
      "name": "collateralToken",
      "outputs": [
        {
          "internalType": "contract IERC20",
          "name": "",
          "type": "address"
        }
      ],
      "stateMutability": "view",
      "type": "function"
    },
    {
      "inputs": [],
      "name": "euler",
      "outputs": [
        {
          "internalType": "address",
          "name": "",
          "type": "address"
        }
      ],
      "stateMutability": "view",
      "type": "function"
    },
    {
      "inputs": [],
      "name": "eulerExec",
      "outputs": [
        {
          "internalType": "contract IExec",
          "name": "",
          "type": "address"
        }
      ],
      "stateMutability": "view",
      "type": "function"
    },
    {
      "inputs": [],
      "name": "eulerMarkets",
      "outputs": [
        {
          "internalType": "contract IEulerMarkets",
          "name": "",
          "type": "address"
        }
      ],
      "stateMutability": "view",
      "type": "function"
    },
    {
      "inputs": [],
      "name": "feeCollector",
      "outputs": [
        {
          "internalType": "address",
          "name": "",
          "type": "address"
        }
      ],
      "stateMutability": "view",
      "type": "function"
    },
    {
      "inputs": [
        {
          "internalType": "address",
          "name": "token_",
          "type": "address"
        }
      ],
      "name": "isReservedToken",
      "outputs": [
        {
          "internalType": "bool",
          "name": "",
          "type": "bool"
        }
      ],
      "stateMutability": "view",
      "type": "function"
    },
    {
      "inputs": [],
      "name": "keepers",
      "outputs": [
        {
          "internalType": "address[]",
          "name": "",
          "type": "address[]"
        }
      ],
      "stateMutability": "view",
      "type": "function"
    },
    {
      "inputs": [],
      "name": "maxBorrowLimit",
      "outputs": [
        {
          "internalType": "uint256",
          "name": "",
          "type": "uint256"
        }
      ],
      "stateMutability": "view",
      "type": "function"
    },
    {
      "inputs": [
        {
          "internalType": "address",
          "name": "_newStrategy",
          "type": "address"
        }
      ],
      "name": "migrate",
      "outputs": [],
      "stateMutability": "nonpayable",
      "type": "function"
    },
    {
      "inputs": [],
      "name": "minBorrowLimit",
      "outputs": [
        {
          "internalType": "uint256",
          "name": "",
          "type": "uint256"
        }
      ],
      "stateMutability": "view",
      "type": "function"
    },
    {
      "inputs": [],
      "name": "pool",
      "outputs": [
        {
          "internalType": "address",
          "name": "",
          "type": "address"
        }
      ],
      "stateMutability": "view",
      "type": "function"
    },
    {
      "inputs": [],
      "name": "rebalance",
      "outputs": [
        {
          "internalType": "uint256",
          "name": "_profit",
          "type": "uint256"
        },
        {
          "internalType": "uint256",
          "name": "_loss",
          "type": "uint256"
        },
        {
          "internalType": "uint256",
          "name": "_payback",
          "type": "uint256"
        }
      ],
      "stateMutability": "nonpayable",
      "type": "function"
    },
    {
      "inputs": [],
      "name": "receiptToken",
      "outputs": [
        {
          "internalType": "address",
          "name": "",
          "type": "address"
        }
      ],
      "stateMutability": "view",
      "type": "function"
    },
    {
      "inputs": [
        {
          "internalType": "address",
          "name": "_keeperAddress",
          "type": "address"
        }
      ],
      "name": "removeKeeper",
      "outputs": [],
      "stateMutability": "nonpayable",
      "type": "function"
    },
    {
      "inputs": [],
      "name": "rewardDistributor",
      "outputs": [
        {
          "internalType": "contract IEulDistributor",
          "name": "",
          "type": "address"
        }
      ],
      "stateMutability": "view",
      "type": "function"
    },
    {
      "inputs": [],
      "name": "rewardToken",
      "outputs": [
        {
          "internalType": "address",
          "name": "",
          "type": "address"
        }
      ],
      "stateMutability": "view",
      "type": "function"
    },
    {
      "inputs": [
        {
          "internalType": "contract IERC20",
          "name": "_tokenIn",
          "type": "address"
        },
        {
          "internalType": "uint256",
          "name": "_minAmountOut",
          "type": "uint256"
        }
      ],
      "name": "swapToCollateral",
      "outputs": [
        {
          "internalType": "uint256",
          "name": "_amountOut",
          "type": "uint256"
        }
      ],
      "stateMutability": "nonpayable",
      "type": "function"
    },
    {
      "inputs": [],
      "name": "swapper",
      "outputs": [
        {
          "internalType": "contract IRoutedSwapper",
          "name": "",
          "type": "address"
        }
      ],
      "stateMutability": "view",
      "type": "function"
    },
    {
      "inputs": [
        {
          "internalType": "address",
          "name": "_fromToken",
          "type": "address"
        }
      ],
      "name": "sweep",
      "outputs": [],
      "stateMutability": "nonpayable",
      "type": "function"
    },
    {
      "inputs": [],
      "name": "token",
      "outputs": [
        {
          "internalType": "address",
          "name": "",
          "type": "address"
        }
      ],
      "stateMutability": "view",
      "type": "function"
    },
    {
      "inputs": [],
      "name": "tvl",
      "outputs": [
        {
          "internalType": "uint256",
          "name": "",
          "type": "uint256"
        }
      ],
      "stateMutability": "view",
      "type": "function"
    },
    {
      "inputs": [
        {
          "internalType": "uint256",
          "name": "minBorrowLimit_",
          "type": "uint256"
        },
        {
          "internalType": "uint256",
          "name": "maxBorrowLimit_",
          "type": "uint256"
        }
      ],
      "name": "updateBorrowLimit",
      "outputs": [],
      "stateMutability": "nonpayable",
      "type": "function"
    },
    {
      "inputs": [
        {
          "internalType": "address",
          "name": "_feeCollector",
          "type": "address"
        }
      ],
      "name": "updateFeeCollector",
      "outputs": [],
      "stateMutability": "nonpayable",
      "type": "function"
    },
    {
      "inputs": [
        {
          "internalType": "contract IRoutedSwapper",
          "name": "_swapper",
          "type": "address"
        }
      ],
      "name": "updateSwapper",
      "outputs": [],
      "stateMutability": "nonpayable",
      "type": "function"
    },
    {
      "inputs": [],
      "name": "vPool",
      "outputs": [
        {
          "internalType": "contract IVesperPool",
          "name": "",
          "type": "address"
        }
      ],
      "stateMutability": "view",
      "type": "function"
    },
    {
      "inputs": [],
      "name": "vsp",
      "outputs": [
        {
          "internalType": "address",
          "name": "",
          "type": "address"
        }
      ],
      "stateMutability": "view",
      "type": "function"
    },
    {
      "inputs": [
        {
          "internalType": "uint256",
          "name": "_amount",
          "type": "uint256"
        }
      ],
      "name": "withdraw",
      "outputs": [],
      "stateMutability": "nonpayable",
      "type": "function"
    }
  ],
  "transactionHash": "0x047e8d78db9897272b00c7a1a6a1ba1543e64544959ddbd84349ffa85ff6c2c6",
  "args": [
    "0x650CD45DEdb19c33160Acc522aD1a82D9701036a",
    "0x8f156189A3CD28dFc8FB7BbbAce58F98F09c0bB3",
    "0x27182842E098f60e3D576794A5bFFb0777E025d3",
    "0x3520d5a913427E6F0D6A83E07ccD4A4da316e4d3",
    "0x59828FdF7ee634AaaD3f58B19fDBa3b03E2D9d80",
    "0xd524E29E3BAF5BB085403Ca5665301E94387A7e2",
    "0xd9Fcd98c322942075A5C3860693e9f4f03AAE07b",
    "0xA0b86991c6218b36c1d19D4a2e9Eb0cE3606eB48",
    "0xa8b607Aa09B6A2E306F93e74c282Fb13f6A80452",
    "0x1b40183EFB4Dd766f11bDa7A7c3AD8982e998421",
    "Euler_Vesper_Xy_CBETH_USDC"
  ],
  "numDeployments": 1,
  "solcInputHash": "78b3517d113ba4b7a0a098caaf7b9ceb",
  "bytecode": "0x610240604052611b586006556121346007553480156200001e57600080fd5b5060405162005d8338038062005d83833981016040819052620000419162000a79565b8a8a8a8a8a8a8a8a88888860006001600160a01b038316620000aa5760405162461bcd60e51b815260206004820152601460248201527f706f6f6c2d616464726573732d69732d7a65726f00000000000000000000000060448201526064015b60405180910390fd5b6001600160a01b038216620001025760405162461bcd60e51b815260206004820152601760248201527f737761707065722d616464726573732d69732d7a65726f0000000000000000006044820152606401620000a1565b600280546001600160a01b0319166001600160a01b0384811691909117909155831660a081905260408051637e062a3560e11b8152905163fc0c546a91600480820192602092909190829003018186803b1580156200016057600080fd5b505afa15801562000175573d6000803e3d6000fd5b505050506040513d601f19601f820116820180604052508101906200019b919062000b7d565b6001600160a01b03908116608052600080546001600160a01b031916918316919091179055620001e2620001cc3390565b60036200086960201b62001d211790919060201c565b620002245760405162461bcd60e51b81526020600482015260116024820152701859190b5ad9595c195c8b59985a5b1959607a1b6044820152606401620000a1565b5050506001600160a01b0387166200027f5760405162461bcd60e51b815260206004820152601e60248201527f65756c65722d70726f746f636f6c2d616464726573732d69732d6e756c6c00006044820152606401620000a1565b6001600160a01b038616620002d75760405162461bcd60e51b815260206004820152601660248201527f6d61726b65742d616464726573732d69732d6e756c6c000000000000000000006044820152606401620000a1565b6001600160a01b0385166200032f5760405162461bcd60e51b815260206004820152601a60248201527f65756c65722d657865632d616464726573732d69732d6e756c6c0000000000006044820152606401620000a1565b6001600160a01b038416620003875760405162461bcd60e51b815260206004820152601b60248201527f6469737472696275746f722d616464726573732d69732d6e756c6c00000000006044820152606401620000a1565b6001600160a01b038316620003df5760405162461bcd60e51b815260206004820152601660248201527f7265776172642d616464726573732d69732d6e756c6c000000000000000000006044820152606401620000a1565b6001600160a01b038216620004375760405162461bcd60e51b815260206004820152601c60248201527f626f72726f772d746f6b656e2d616464726573732d69732d6e756c6c000000006044820152606401620000a1565b6001600160a01b0380881660c05286811660e05285811661010052848116610120528381166101405282166101605280516200047b906005906020840190620008db565b50608051604051638948874960e01b81526001600160a01b0391821660048201529087169063894887499060240160206040518083038186803b158015620004c257600080fd5b505afa158015620004d7573d6000803e3d6000fd5b505050506040513d601f19601f82011682018060405250810190620004fd919062000b7d565b600080546001600160a01b0319166001600160a01b0392831690811790915561018052608051604051630d9802c160e11b8152908216600482015290871690631b3005829060240160206040518083038186803b1580156200055e57600080fd5b505afa15801562000573573d6000803e3d6000fd5b505050506040513d601f19601f8201168201806040525081019062000599919062000b7d565b6001600160a01b039081166101a052604051638948874960e01b815283821660048201529087169063894887499060240160206040518083038186803b158015620005e357600080fd5b505afa158015620005f8573d6000803e3d6000fd5b505050506040513d601f19601f820116820180604052508101906200061e919062000b7d565b6001600160a01b039081166101c052604051630d9802c160e11b8152838216600482015290871690631b3005829060240160206040518083038186803b1580156200066857600080fd5b505afa1580156200067d573d6000803e3d6000fd5b505050506040513d601f19601f82011682018060405250810190620006a3919062000b7d565b6001600160a01b039081166101e0526080516040516373f0b43760e01b8152600060048201529082166024820152908716906373f0b43790604401600060405180830381600087803b158015620006f957600080fd5b505af11580156200070e573d6000803e3d6000fd5b50505050506001600160a01b038a16151597506200077796505050505050505760405162461bcd60e51b815260206004820152601360248201527f7673702d616464726573732d69732d7a65726f000000000000000000000000006044820152606401620000a1565b610160516001600160a01b0316836001600160a01b031663fc0c546a6040518163ffffffff1660e01b815260040160206040518083038186803b158015620007be57600080fd5b505afa158015620007d3573d6000803e3d6000fd5b505050506040513d601f19601f82011682018060405250810190620007f9919062000b7d565b6001600160a01b031614620008455760405162461bcd60e51b81526020600482015260116024820152701a5b9d985b1a590b59dc9bddcb5c1bdbdb607a1b6044820152606401620000a1565b506001600160a01b039182166102005216610220525062000be19650505050505050565b600062000880836001600160a01b03841662000889565b90505b92915050565b6000818152600183016020526040812054620008d25750815460018181018455600084815260208082209093018490558454848252828601909352604090209190915562000883565b50600062000883565b828054620008e99062000ba4565b90600052602060002090601f0160209004810192826200090d576000855562000958565b82601f106200092857805160ff191683800117855562000958565b8280016001018555821562000958579182015b82811115620009585782518255916020019190600101906200093b565b50620009669291506200096a565b5090565b5b808211156200096657600081556001016200096b565b6001600160a01b03811681146200099757600080fd5b50565b8051620009a78162000981565b919050565b634e487b7160e01b600052604160045260246000fd5b600082601f830112620009d457600080fd5b81516001600160401b0380821115620009f157620009f1620009ac565b604051601f8301601f19908116603f0116810190828211818310171562000a1c5762000a1c620009ac565b8160405283815260209250868385880101111562000a3957600080fd5b600091505b8382101562000a5d578582018301518183018401529082019062000a3e565b8382111562000a6f5760008385830101525b9695505050505050565b60008060008060008060008060008060006101608c8e03121562000a9c57600080fd5b8b5162000aa98162000981565b60208d0151909b5062000abc8162000981565b995062000acc60408d016200099a565b985062000adc60608d016200099a565b975062000aec60808d016200099a565b965062000afc60a08d016200099a565b955062000b0c60c08d016200099a565b945062000b1c60e08d016200099a565b935062000b2d6101008d016200099a565b925062000b3e6101208d016200099a565b6101408d01519092506001600160401b0381111562000b5c57600080fd5b62000b6a8e828f01620009c2565b9150509295989b509295989b9093969950565b60006020828403121562000b9057600080fd5b815162000b9d8162000981565b9392505050565b600181811c9082168062000bb957607f821691505b6020821081141562000bdb57634e487b7160e01b600052602260045260246000fd5b50919050565b60805160a05160c05160e05161010051610120516101405161016051610180516101a0516101c0516101e0516102005161022051614e6862000f1b60003960008181610298015281816120ef0152818161218101526123a101526000818161037c01528181611fd60152818161236b0152818161350f015281816135ab0152818161418e015281816143940152818161447e01526144b10152600081816102f801528181610e59015281816121e20152818161247201528181612a1a01528181612b9101528181612dba015281816140a9015261411701526000614088015260006132f301526000818161174701528181612293015281816125f0015281816129aa01528181612acb015281816132d201528181613341015261382401526000818161035501528181610e1d0152818161234901528181612c1001528181613453015281816134a701528181613665015281816136dc015281816138f60152818161399f01528181613a3101528181613b6201528181613dbd0152613f4d01526000818161054801528181610fd901528181611efa01528181611f8c01526134db01526000818161042a0152610faa0152600081816103db01528181613b350152613be201526000818161027101528181613cd90152613d8e0152600081816104ea015281816133ed015261347501526000818161023d0152818161092c01528181610a3c01528181610b5801528181610c3201528181610cbc01528181611044015281816110e10152818161130d015281816114d601528181611b5e015281816123d20152818161269e015281816128820152614365015260008181610451015281816104c101528181610636015281816107cb0152818161087301528181610a9b01528181610b3601528181610ba601528181610c6501528181610dca01528181611271015281816116ab015281816117ff0152818161188f01528181611a6301528181611aa301528181611fad015281816121a201528181612565015281816127a6015281816128ff015281816133cb0152818161341f015281816136b40152818161378b015281816138d401528181613a5201528181613c1101528181613d0601528181613e7501526143430152614e686000f3fe608060405234801561001057600080fd5b50600436106101dc5760003560e01c8063a3f4df7e11610105578063db661b711161009d578063db661b71146104e5578063e260d7471461050c578063e5328e0614610515578063ec78e8321461051d578063ee330ee314610530578063f7c618c114610543578063fb7ee1021461056a578063fc0c546a1461057d578063ffa1ad741461058e57600080fd5b8063a3f4df7e146103fd578063abd40e1e14610412578063acc2166a14610425578063b2016bd41461044c578063c415b95c14610473578063ce5494bb14610486578063d2c35ce814610499578063d3033c39146104ac578063d8dfeb45146104bf57600080fd5b80633ac9fc11116101785780633ac9fc11146102e05780633b5aa124146102f35780634032b72b1461031a578063440d72481461032d578063456dc17a146103505780636719578c146103775780637d7c2a1c1461039e578063951dc22c146103c15780639970d9a0146103d657600080fd5b806301681a62146101e15780630181686c146101f65780631026013a1461021257806314ae9f2e1461022557806316f0115b146102385780631e7c6a2e1461026c57806329ba73ed146102935780632b3297f9146102ba5780632e1a7d4d146102cd575b600080fd5b6101f46101ef3660046146e8565b6105b2565b005b6101ff60075481565b6040519081526020015b60405180910390f35b6101ff610220366004614705565b61078a565b6101f46102333660046146e8565b61092a565b61025f7f000000000000000000000000000000000000000000000000000000000000000081565b604051610209919061471e565b61025f7f000000000000000000000000000000000000000000000000000000000000000081565b61025f7f000000000000000000000000000000000000000000000000000000000000000081565b60025461025f906001600160a01b031681565b6101f46102db366004614705565b610a39565b6101f46102ee366004614705565b610c8c565b61025f7f000000000000000000000000000000000000000000000000000000000000000081565b6101f46103283660046146e8565b610cba565b61034061033b3660046146e8565b610dc6565b6040519015158152602001610209565b61025f7f000000000000000000000000000000000000000000000000000000000000000081565b61025f7f000000000000000000000000000000000000000000000000000000000000000081565b6103a6610e93565b60408051938452602084019290925290820152606001610209565b6103c9610ecf565b6040516102099190614732565b61025f7f000000000000000000000000000000000000000000000000000000000000000081565b610405610ee0565b60405161020991906147ab565b6101f46104203660046147de565b610f6e565b61025f7f000000000000000000000000000000000000000000000000000000000000000081565b61025f7f000000000000000000000000000000000000000000000000000000000000000081565b60015461025f906001600160a01b031681565b6101f46104943660046146e8565b611041565b6101f46104a73660046146e8565b61130b565b6101f46104ba3660046146e8565b6114d4565b7f000000000000000000000000000000000000000000000000000000000000000061025f565b61025f7f000000000000000000000000000000000000000000000000000000000000000081565b6101ff60065481565b6101ff611691565b60005461025f906001600160a01b031681565b6101ff61053e36600461485d565b6117d6565b61025f7f000000000000000000000000000000000000000000000000000000000000000081565b6101f4610578366004614889565b611b5c565b6000546001600160a01b031661025f565b610405604051806040016040528060058152602001640352e312e360dc1b81525081565b6105bf335b600390611d3d565b6105e45760405162461bcd60e51b81526004016105db906148ab565b60405180910390fd5b6001546001600160a01b03166106345760405162461bcd60e51b81526020600482015260156024820152741999594b58dbdb1b1958dd1bdc8b5b9bdd0b5cd95d605a1b60448201526064016105db565b7f00000000000000000000000000000000000000000000000000000000000000006001600160a01b0316816001600160a01b031614156106865760405162461bcd60e51b81526004016105db906148db565b61068f81610dc6565b156106ac5760405162461bcd60e51b81526004016105db90614912565b6001600160a01b03811673eeeeeeeeeeeeeeeeeeeeeeeeeeeeeeeeeeeeeeee14156106ea576001546106e7906001600160a01b031647611d5f565b50565b6040516370a0823160e01b81526000906001600160a01b038316906370a082319061071990309060040161471e565b60206040518083038186803b15801561073157600080fd5b505afa158015610745573d6000803e3d6000fd5b505050506040513d601f19601f820116820180604052508101906107699190614940565b600154909150610786906001600160a01b03848116911683611e7d565b5050565b6000610795336105b7565b6107b15760405162461bcd60e51b81526004016105db906148ab565b6040516370a0823160e01b81526000906001600160a01b037f000000000000000000000000000000000000000000000000000000000000000016906370a082319061080090309060040161471e565b60206040518083038186803b15801561081857600080fd5b505afa15801561082c573d6000803e3d6000fd5b505050506040513d601f19601f820116820180604052508101906108509190614940565b905061085a611ee0565b6040516370a0823160e01b815281906001600160a01b037f000000000000000000000000000000000000000000000000000000000000000016906370a08231906108a890309060040161471e565b60206040518083038186803b1580156108c057600080fd5b505afa1580156108d4573d6000803e3d6000fd5b505050506040513d601f19601f820116820180604052508101906108f89190614940565b610902919061496f565b9150828210156109245760405162461bcd60e51b81526004016105db90614986565b50919050565b7f00000000000000000000000000000000000000000000000000000000000000006001600160a01b0316630c340a246040518163ffffffff1660e01b815260040160206040518083038186803b15801561098357600080fd5b505afa158015610997573d6000803e3d6000fd5b505050506040513d601f19601f820116820180604052508101906109bb91906149b4565b6001600160a01b0316336001600160a01b0316146109eb5760405162461bcd60e51b81526004016105db906149d1565b6109f66003826121c7565b6106e75760405162461bcd60e51b81526020600482015260146024820152731c995b5bdd994b5ad9595c195c8b59985a5b195960621b60448201526064016105db565b337f00000000000000000000000000000000000000000000000000000000000000006001600160a01b031614610a815760405162461bcd60e51b81526004016105db90614a08565b6040516370a0823160e01b81526000906001600160a01b037f000000000000000000000000000000000000000000000000000000000000000016906370a0823190610ad090309060040161471e565b60206040518083038186803b158015610ae857600080fd5b505afa158015610afc573d6000803e3d6000fd5b505050506040513d601f19601f82011682018060405250810190610b209190614940565b9050818110610b7d576107866001600160a01b037f0000000000000000000000000000000000000000000000000000000000000000167f000000000000000000000000000000000000000000000000000000000000000084611e7d565b610b8f610b8a828461496f565b6121dc565b6040516370a0823160e01b81526001600160a01b037f000000000000000000000000000000000000000000000000000000000000000016906370a0823190610bdb90309060040161471e565b60206040518083038186803b158015610bf357600080fd5b505afa158015610c07573d6000803e3d6000fd5b505050506040513d601f19601f82011682018060405250810190610c2b9190614940565b90506107867f0000000000000000000000000000000000000000000000000000000000000000610c5b848461231d565b6001600160a01b037f0000000000000000000000000000000000000000000000000000000000000000169190611e7d565b610c95336105b7565b610cb15760405162461bcd60e51b81526004016105db906148ab565b6106e781612333565b7f00000000000000000000000000000000000000000000000000000000000000006001600160a01b0316630c340a246040518163ffffffff1660e01b815260040160206040518083038186803b158015610d1357600080fd5b505afa158015610d27573d6000803e3d6000fd5b505050506040513d601f19601f82011682018060405250810190610d4b91906149b4565b6001600160a01b0316336001600160a01b031614610d7b5760405162461bcd60e51b81526004016105db906149d1565b610d86600382611d21565b6106e75760405162461bcd60e51b81526020600482015260116024820152701859190b5ad9595c195c8b59985a5b1959607a1b60448201526064016105db565b60007f00000000000000000000000000000000000000000000000000000000000000006001600160a01b0316826001600160a01b03161480610e1557506000546001600160a01b038381169116145b80610e5157507f00000000000000000000000000000000000000000000000000000000000000006001600160a01b0316826001600160a01b0316145b80610e8d57507f00000000000000000000000000000000000000000000000000000000000000006001600160a01b0316826001600160a01b0316145b92915050565b60008080610ea0336105b7565b610ebc5760405162461bcd60e51b81526004016105db906148ab565b610ec46123ca565b925092509250909192565b6060610edb6003612cb8565b905090565b60058054610eed90614a3b565b80601f0160208091040260200160405190810160405280929190818152602001828054610f1990614a3b565b8015610f665780601f10610f3b57610100808354040283529160200191610f66565b820191906000526020600020905b815481529060010190602001808311610f4957829003601f168201915b505050505081565b610f77336105b7565b610f935760405162461bcd60e51b81526004016105db906148ab565b604051631202204360e31b81526001600160a01b037f0000000000000000000000000000000000000000000000000000000000000000169063901102189061100a9030907f000000000000000000000000000000000000000000000000000000000000000090889088908890600090600401614a70565b600060405180830381600087803b15801561102457600080fd5b505af1158015611038573d6000803e3d6000fd5b50505050505050565b337f00000000000000000000000000000000000000000000000000000000000000006001600160a01b0316146110895760405162461bcd60e51b81526004016105db90614a08565b6001600160a01b0381166110df5760405162461bcd60e51b815260206004820152601c60248201527f6e65772d73747261746567792d616464726573732d69732d7a65726f0000000060448201526064016105db565b7f00000000000000000000000000000000000000000000000000000000000000006001600160a01b0316816001600160a01b03166316f0115b6040518163ffffffff1660e01b815260040160206040518083038186803b15801561114257600080fd5b505afa158015611156573d6000803e3d6000fd5b505050506040513d601f19601f8201168201806040525081019061117a91906149b4565b6001600160a01b0316146111c95760405162461bcd60e51b81526020600482015260166024820152756e6f742d76616c69642d6e65772d737472617465677960501b60448201526064016105db565b6111d281612cc5565b6000546040516370a0823160e01b815261126b9183916001600160a01b03909116906370a082319061120890309060040161471e565b60206040518083038186803b15801561122057600080fd5b505afa158015611234573d6000803e3d6000fd5b505050506040513d601f19601f820116820180604052508101906112589190614940565b6000546001600160a01b03169190611e7d565b6106e7817f00000000000000000000000000000000000000000000000000000000000000006001600160a01b03166370a08231306040518263ffffffff1660e01b81526004016112bb919061471e565b60206040518083038186803b1580156112d357600080fd5b505afa1580156112e7573d6000803e3d6000fd5b505050506040513d601f19601f82011682018060405250810190610c5b9190614940565b7f00000000000000000000000000000000000000000000000000000000000000006001600160a01b0316630c340a246040518163ffffffff1660e01b815260040160206040518083038186803b15801561136457600080fd5b505afa158015611378573d6000803e3d6000fd5b505050506040513d601f19601f8201168201806040525081019061139c91906149b4565b6001600160a01b0316336001600160a01b0316146113cc5760405162461bcd60e51b81526004016105db906149d1565b6001600160a01b0381166114225760405162461bcd60e51b815260206004820152601d60248201527f6665652d636f6c6c6563746f722d616464726573732d69732d7a65726f00000060448201526064016105db565b6001546001600160a01b03828116911614156114785760405162461bcd60e51b81526020600482015260156024820152746665652d636f6c6c6563746f722d69732d73616d6560581b60448201526064016105db565b6001546040516001600160a01b038084169216907f0f06062680f9bd68e786e9980d9bb03d73d5620fc3b345e417b6eacb310b970690600090a3600180546001600160a01b0319166001600160a01b0392909216919091179055565b7f00000000000000000000000000000000000000000000000000000000000000006001600160a01b0316630c340a246040518163ffffffff1660e01b815260040160206040518083038186803b15801561152d57600080fd5b505afa158015611541573d6000803e3d6000fd5b505050506040513d601f19601f8201168201806040525081019061156591906149b4565b6001600160a01b0316336001600160a01b0316146115955760405162461bcd60e51b81526004016105db906149d1565b6001600160a01b0381166115e55760405162461bcd60e51b8152602060048201526017602482015276737761707065722d616464726573732d69732d7a65726f60481b60448201526064016105db565b6002546001600160a01b03828116911614156116355760405162461bcd60e51b815260206004820152600f60248201526e737761707065722d69732d73616d6560881b60448201526064016105db565b6002546040516001600160a01b038084169216907f6c953b7ec311055c20b96a42cea31e89528e375b1bf953a503db40854b3188fe90600090a3600280546001600160a01b0319166001600160a01b0392909216919091179055565b6040516370a0823160e01b81526000906001600160a01b037f000000000000000000000000000000000000000000000000000000000000000016906370a08231906116e090309060040161471e565b60206040518083038186803b1580156116f857600080fd5b505afa15801561170c573d6000803e3d6000fd5b505050506040513d601f19601f820116820180604052508101906117309190614940565b604051633af9e66960e01b81526001600160a01b037f00000000000000000000000000000000000000000000000000000000000000001690633af9e6699061177c90309060040161471e565b60206040518083038186803b15801561179457600080fd5b505afa1580156117a8573d6000803e3d6000fd5b505050506040513d601f19601f820116820180604052508101906117cc9190614940565b610edb9190614adc565b60006117e1336105b7565b6117fd5760405162461bcd60e51b81526004016105db906148ab565b7f00000000000000000000000000000000000000000000000000000000000000006001600160a01b0316836001600160a01b0316141561184f5760405162461bcd60e51b81526004016105db906148db565b61185883610dc6565b156118755760405162461bcd60e51b81526004016105db90614912565b6040516370a0823160e01b81526000906001600160a01b037f000000000000000000000000000000000000000000000000000000000000000016906370a08231906118c490309060040161471e565b60206040518083038186803b1580156118dc57600080fd5b505afa1580156118f0573d6000803e3d6000fd5b505050506040513d601f19601f820116820180604052508101906119149190614940565b90506000846001600160a01b03166370a08231306040518263ffffffff1660e01b8152600401611944919061471e565b60206040518083038186803b15801561195c57600080fd5b505afa158015611970573d6000803e3d6000fd5b505050506040513d601f19601f820116820180604052508101906119949190614940565b90508015611a8a57600254604051636eb1769f60e11b81523060048201526001600160a01b0391821660248201529086169063dd62ed3e9060440160206040518083038186803b1580156119e757600080fd5b505afa1580156119fb573d6000803e3d6000fd5b505050506040513d601f19601f82011682018060405250810190611a1f9190614940565b811115611a5d57600254611a41906001600160a01b0387811691166000612e44565b600254611a5d906001600160a01b038781169116600019612e44565b611a88857f000000000000000000000000000000000000000000000000000000000000000083612f68565b505b6040516370a0823160e01b815282906001600160a01b037f000000000000000000000000000000000000000000000000000000000000000016906370a0823190611ad890309060040161471e565b60206040518083038186803b158015611af057600080fd5b505afa158015611b04573d6000803e3d6000fd5b505050506040513d601f19601f82011682018060405250810190611b289190614940565b611b32919061496f565b925083831015611b545760405162461bcd60e51b81526004016105db90614986565b505092915050565b7f00000000000000000000000000000000000000000000000000000000000000006001600160a01b0316630c340a246040518163ffffffff1660e01b815260040160206040518083038186803b158015611bb557600080fd5b505afa158015611bc9573d6000803e3d6000fd5b505050506040513d601f19601f82011682018060405250810190611bed91906149b4565b6001600160a01b0316336001600160a01b031614611c1d5760405162461bcd60e51b81526004016105db906149d1565b6127108110611c695760405162461bcd60e51b81526020600482015260186024820152771a5b9d985b1a590b5b585e0b589bdc9c9bddcb5b1a5b5a5d60421b60448201526064016105db565b80158015611c75575081155b80611c7f57508181115b611ccb5760405162461bcd60e51b815260206004820152601d60248201527f6d61782d73686f756c642d62652d6869676865722d7468616e2d6d696e00000060448201526064016105db565b6006546007546040805192835260208301859052820152606081018290527fedd77444afdf63401315e81ffe86d08f7865796e8ad2e11acf1d56a1393f07d59060800160405180910390a1600691909155600755565b6000611d36836001600160a01b038416612ffc565b9392505050565b6001600160a01b03811660009081526001830160205260408120541515611d36565b80471015611daf5760405162461bcd60e51b815260206004820152601d60248201527f416464726573733a20696e73756666696369656e742062616c616e636500000060448201526064016105db565b6000826001600160a01b03168260405160006040518083038185875af1925050503d8060008114611dfc576040519150601f19603f3d011682016040523d82523d6000602084013e611e01565b606091505b5050905080611e785760405162461bcd60e51b815260206004820152603a60248201527f416464726573733a20756e61626c6520746f2073656e642076616c75652c207260448201527f6563697069656e74206d6179206861766520726576657274656400000000000060648201526084016105db565b505050565b6040516001600160a01b038316602482015260448101829052611e7890849063a9059cbb60e01b906064015b60408051601f198184030181529190526020810180516001600160e01b03166001600160e01b03199093169290921790915261304b565b6040516370a0823160e01b81526000906001600160a01b037f000000000000000000000000000000000000000000000000000000000000000016906370a0823190611f2f90309060040161471e565b60206040518083038186803b158015611f4757600080fd5b505afa158015611f5b573d6000803e3d6000fd5b505050506040513d601f19601f82011682018060405250810190611f7f9190614940565b90508015611fd257611fd27f00000000000000000000000000000000000000000000000000000000000000007f00000000000000000000000000000000000000000000000000000000000000008361311d565b60007f00000000000000000000000000000000000000000000000000000000000000006001600160a01b0316638bc6beb26040518163ffffffff1660e01b815260040160206040518083038186803b15801561202d57600080fd5b505afa158015612041573d6000803e3d6000fd5b505050506040513d601f19601f8201168201806040525081019061206591906149b4565b90506001600160a01b038116156120d55760405163d279c19160e01b81526001600160a01b0382169063d279c191906120a290309060040161471e565b600060405180830381600087803b1580156120bc57600080fd5b505af11580156120d0573d6000803e3d6000fd5b505050505b6040516370a0823160e01b81526000906001600160a01b037f000000000000000000000000000000000000000000000000000000000000000016906370a082319061212490309060040161471e565b60206040518083038186803b15801561213c57600080fd5b505afa158015612150573d6000803e3d6000fd5b505050506040513d601f19601f820116820180604052508101906121749190614940565b90508015611e7857611e787f00000000000000000000000000000000000000000000000000000000000000007f00000000000000000000000000000000000000000000000000000000000000008361311d565b6000611d36836001600160a01b0384166131af565b6106e7817f00000000000000000000000000000000000000000000000000000000000000006001600160a01b03166370a08231306040518263ffffffff1660e01b815260040161222c919061471e565b60206040518083038186803b15801561224457600080fd5b505afa158015612258573d6000803e3d6000fd5b505050506040513d601f19601f8201168201806040525081019061227c9190614940565b604051633af9e66960e01b81526001600160a01b037f00000000000000000000000000000000000000000000000000000000000000001690633af9e669906122c890309060040161471e565b60206040518083038186803b1580156122e057600080fd5b505afa1580156122f4573d6000803e3d6000fd5b505050506040513d601f19601f820116820180604052508101906123189190614940565b6132a2565b600081831061232c5781611d36565b5090919050565b61233c816133ad565b6123906001600160a01b037f0000000000000000000000000000000000000000000000000000000000000000167f000000000000000000000000000000000000000000000000000000000000000083612e44565b6002546106e7906001600160a01b037f00000000000000000000000000000000000000000000000000000000000000008116911683612e44565b6000806000807f00000000000000000000000000000000000000000000000000000000000000006001600160a01b031663d53ddc26306040518263ffffffff1660e01b815260040161241c919061471e565b60206040518083038186803b15801561243457600080fd5b505afa158015612448573d6000803e3d6000fd5b505050506040513d601f19601f8201168201806040525081019061246c9190614940565b905060007f00000000000000000000000000000000000000000000000000000000000000006001600160a01b03166370a08231306040518263ffffffff1660e01b81526004016124bc919061471e565b60206040518083038186803b1580156124d457600080fd5b505afa1580156124e8573d6000803e3d6000fd5b505050506040513d601f19601f8201168201806040525081019061250c9190614940565b90506000612518613502565b9050808211156125395761253461252f828461496f565b61369a565b61254b565b61254b612546838361496f565b613976565b6040516370a0823160e01b81526000906001600160a01b037f000000000000000000000000000000000000000000000000000000000000000016906370a082319061259a90309060040161471e565b60206040518083038186803b1580156125b257600080fd5b505afa1580156125c6573d6000803e3d6000fd5b505050506040513d601f19601f820116820180604052508101906125ea9190614940565b905060007f00000000000000000000000000000000000000000000000000000000000000006001600160a01b0316633af9e669306040518263ffffffff1660e01b815260040161263a919061471e565b60206040518083038186803b15801561265257600080fd5b505afa158015612666573d6000803e3d6000fd5b505050506040513d601f19601f8201168201806040525081019061268a9190614940565b905060006126988383614adc565b905060007f00000000000000000000000000000000000000000000000000000000000000006001600160a01b0316639f2b2833306040518263ffffffff1660e01b81526004016126e8919061471e565b60206040518083038186803b15801561270057600080fd5b505afa158015612714573d6000803e3d6000fd5b505050506040513d601f19601f820116820180604052508101906127389190614940565b9050808211156127535761274c818361496f565b9950612760565b61275d828261496f565b98505b600061276c888c614adc565b905060008186101561282e57612782868361496f565b905061278f8189876132a2565b6040516370a0823160e01b81526001600160a01b037f000000000000000000000000000000000000000000000000000000000000000016906370a08231906127db90309060040161471e565b60206040518083038186803b1580156127f357600080fd5b505afa158015612807573d6000803e3d6000fd5b505050506040513d601f19601f8201168201806040525081019061282b9190614940565b95505b612838868a61231d565b995089861161284857600061285b565b61285b6128558b8861496f565b8d61231d565b6040516302df682360e11b815260048101829052602481018d9052604481018c9052909c507f00000000000000000000000000000000000000000000000000000000000000006001600160a01b0316906305bed04690606401600060405180830381600087803b1580156128ce57600080fd5b505af11580156128e2573d6000803e3d6000fd5b50506040516370a0823160e01b8152600092506001600160a01b037f00000000000000000000000000000000000000000000000000000000000000001691506370a082319061293590309060040161471e565b60206040518083038186803b15801561294d57600080fd5b505afa158015612961573d6000803e3d6000fd5b505050506040513d601f19601f820116820180604052508101906129859190614940565b90508015612a0f57604051631c57762b60e31b815260006004820152602481018290527f00000000000000000000000000000000000000000000000000000000000000006001600160a01b03169063e2bbb15890604401600060405180830381600087803b1580156129f657600080fd5b505af1158015612a0a573d6000803e3d6000fd5b505050505b600080612b556000807f00000000000000000000000000000000000000000000000000000000000000006001600160a01b03166370a08231306040518263ffffffff1660e01b8152600401612a64919061471e565b60206040518083038186803b158015612a7c57600080fd5b505afa158015612a90573d6000803e3d6000fd5b505050506040513d601f19601f82011682018060405250810190612ab49190614940565b604051633af9e66960e01b81526001600160a01b037f00000000000000000000000000000000000000000000000000000000000000001690633af9e66990612b0090309060040161471e565b60206040518083038186803b158015612b1857600080fd5b505afa158015612b2c573d6000803e3d6000fd5b505050506040513d601f19601f82011682018060405250810190612b509190614940565b613a77565b90925090508015612b6e57612b69816140f1565b612bf6565b8115612bf657604051630ecbcdab60e01b815260006004820152602481018390527f00000000000000000000000000000000000000000000000000000000000000006001600160a01b031690630ecbcdab90604401600060405180830381600087803b158015612bdd57600080fd5b505af1158015612bf1573d6000803e3d6000fd5b505050505b6040516370a0823160e01b81526000906001600160a01b037f000000000000000000000000000000000000000000000000000000000000000016906370a0823190612c4590309060040161471e565b60206040518083038186803b158015612c5d57600080fd5b505afa158015612c71573d6000803e3d6000fd5b505050506040513d601f19601f82011682018060405250810190612c959190614940565b90508015612ca657612ca681614178565b50505050505050505050505050909192565b60606000611d36836141c5565b60008054906101000a90046001600160a01b03166001600160a01b0316816001600160a01b031663fc0c546a6040518163ffffffff1660e01b815260040160206040518083038186803b158015612d1b57600080fd5b505afa158015612d2f573d6000803e3d6000fd5b505050506040513d601f19601f82011682018060405250810190612d5391906149b4565b6001600160a01b031614612d9f5760405162461bcd60e51b81526020600482015260136024820152723bb937b73396b932b1b2b4b83a16ba37b5b2b760691b60448201526064016105db565b6040516370a0823160e01b81526106e7906001600160a01b037f000000000000000000000000000000000000000000000000000000000000000016906370a0823190612def90309060040161471e565b60206040518083038186803b158015612e0757600080fd5b505afa158015612e1b573d6000803e3d6000fd5b505050506040513d601f19601f82011682018060405250810190612e3f9190614940565b6140f1565b801580612ecd5750604051636eb1769f60e11b81523060048201526001600160a01b03838116602483015284169063dd62ed3e9060440160206040518083038186803b158015612e9357600080fd5b505afa158015612ea7573d6000803e3d6000fd5b505050506040513d601f19601f82011682018060405250810190612ecb9190614940565b155b612f385760405162461bcd60e51b815260206004820152603660248201527f5361666545524332303a20617070726f76652066726f6d206e6f6e2d7a65726f60448201527520746f206e6f6e2d7a65726f20616c6c6f77616e636560501b60648201526084016105db565b6040516001600160a01b038316602482015260448101829052611e7890849063095ea7b360e01b90606401611ea9565b600254604051636ccb2b0160e01b81526000916001600160a01b031690636ccb2b0190612fa2908790879087906001903090600401614af4565b602060405180830381600087803b158015612fbc57600080fd5b505af1158015612fd0573d6000803e3d6000fd5b505050506040513d601f19601f82011682018060405250810190612ff49190614940565b949350505050565b600081815260018301602052604081205461304357508154600181810184556000848152602080822090930184905584548482528286019093526040902091909155610e8d565b506000610e8d565b60006130a0826040518060400160405280602081526020017f5361666545524332303a206c6f772d6c6576656c2063616c6c206661696c6564815250856001600160a01b03166142219092919063ffffffff16565b805190915015611e7857808060200190518101906130be9190614b39565b611e785760405162461bcd60e51b815260206004820152602a60248201527f5361666545524332303a204552433230206f7065726174696f6e20646964206e6044820152691bdd081cdd58d8d9595960b21b60648201526084016105db565b600254604051636ccb2b0160e01b81526001600160a01b0390911690636ccb2b0190613156908690869086906001903090600401614af4565b602060405180830381600087803b15801561317057600080fd5b505af19250505080156131a0575060408051601f3d908101601f1916820190925261319d91810190614940565b60015b6131a957505050565b50505050565b600081815260018301602052604081205480156132985760006131d360018361496f565b85549091506000906131e79060019061496f565b905081811461324c57600086600001828154811061320757613207614b54565b906000526020600020015490508087600001848154811061322a5761322a614b54565b6000918252602080832090910192909255918252600188019052604090208390555b855486908061325d5761325d614b6a565b600190038181906000526020600020016000905590558560010160008681526020019081526020016000206000905560019350505050610e8d565b6000915050610e8d565b60006132b16000858585613a77565b91505080156132c3576132c3816140f1565b600061331c85613317856133177f00000000000000000000000000000000000000000000000000000000000000007f0000000000000000000000000000000000000000000000000000000000000000614230565b61231d565b905080156133a657604051630441a3e760e41b815260006004820152602481018290527f00000000000000000000000000000000000000000000000000000000000000006001600160a01b03169063441a3e7090604401600060405180830381600087803b15801561338d57600080fd5b505af11580156133a1573d6000803e3d6000fd5b505050505b5050505050565b6133b681614336565b6002546001600160a01b0390811690613412907f0000000000000000000000000000000000000000000000000000000000000000167f000000000000000000000000000000000000000000000000000000000000000084612e44565b6134466001600160a01b037f0000000000000000000000000000000000000000000000000000000000000000168284612e44565b61349a6001600160a01b037f0000000000000000000000000000000000000000000000000000000000000000167f000000000000000000000000000000000000000000000000000000000000000084612e44565b6134ce6001600160a01b037f0000000000000000000000000000000000000000000000000000000000000000168284612e44565b6107866001600160a01b037f0000000000000000000000000000000000000000000000000000000000000000168284612e44565b6000670de0b6b3a76400007f00000000000000000000000000000000000000000000000000000000000000006001600160a01b03166370a08231306040518263ffffffff1660e01b8152600401613559919061471e565b60206040518083038186803b15801561357157600080fd5b505afa158015613585573d6000803e3d6000fd5b505050506040513d601f19601f820116820180604052508101906135a99190614940565b7f00000000000000000000000000000000000000000000000000000000000000006001600160a01b03166399530b066040518163ffffffff1660e01b815260040160206040518083038186803b15801561360257600080fd5b505afa158015613616573d6000803e3d6000fd5b505050506040513d601f19601f8201168201806040525081019061363a9190614940565b6136449190614b80565b61364e9190614bb5565b6040516370a0823160e01b81526001600160a01b037f000000000000000000000000000000000000000000000000000000000000000016906370a082319061177c90309060040161471e565b6002546040516353b609b560e01b81526001600160a01b037f0000000000000000000000000000000000000000000000000000000000000000811660048301527f0000000000000000000000000000000000000000000000000000000000000000811660248301526044820184905260009216906353b609b590606401602060405180830381600087803b15801561373157600080fd5b505af1158015613745573d6000803e3d6000fd5b505050506040513d601f19601f820116820180604052508101906137699190614940565b90508015610786576040516370a0823160e01b81526000906001600160a01b037f000000000000000000000000000000000000000000000000000000000000000016906370a08231906137c090309060040161471e565b60206040518083038186803b1580156137d857600080fd5b505afa1580156137ec573d6000803e3d6000fd5b505050506040513d601f19601f820116820180604052508101906138109190614940565b9050808211156138ac576001600160a01b037f00000000000000000000000000000000000000000000000000000000000000001663441a3e706000613855848661496f565b6040516001600160e01b031960e085901b16815260048101929092526024820152604401600060405180830381600087803b15801561389357600080fd5b505af11580156138a7573d6000803e3d6000fd5b505050505b6002546040516381cc619b60e01b81526001600160a01b03909116906381cc619b90613924907f0000000000000000000000000000000000000000000000000000000000000000907f000000000000000000000000000000000000000000000000000000000000000090889088903090600401614af4565b602060405180830381600087803b15801561393e57600080fd5b505af1158015613952573d6000803e3d6000fd5b505050506040513d601f19601f820116820180604052508101906131a99190614940565b80156106e7576139858161438a565b6040516370a0823160e01b81526000906001600160a01b037f000000000000000000000000000000000000000000000000000000000000000016906370a08231906139d490309060040161471e565b60206040518083038186803b1580156139ec57600080fd5b505afa158015613a00573d6000803e3d6000fd5b505050506040513d601f19601f82011682018060405250810190613a249190614940565b90508015610786576107867f00000000000000000000000000000000000000000000000000000000000000007f00000000000000000000000000000000000000000000000000000000000000008361311d565b600080851580613a85575084155b613ac55760405162461bcd60e51b8152602060048201526011602482015270616c6c2d696e7075742d67742d7a65726f60781b60448201526064016105db565b600754613ad7575060009050826140e8565b6000808711613afd57858411613aee576000613b07565b613af8868561496f565b613b07565b613b078785614adc565b905080613b1b5760008592509250506140e8565b6040516341976e0960e01b81526000906001600160a01b037f000000000000000000000000000000000000000000000000000000000000000016906341976e0990613b8a907f00000000000000000000000000000000000000000000000000000000000000009060040161471e565b6040805180830381600087803b158015613ba357600080fd5b505af1158015613bb7573d6000803e3d6000fd5b505050506040513d601f19601f82011682018060405250810190613bdb9190614bc9565b50905060007f00000000000000000000000000000000000000000000000000000000000000006001600160a01b03166341976e097f00000000000000000000000000000000000000000000000000000000000000006040518263ffffffff1660e01b8152600401613c4c919061471e565b6040805180830381600087803b158015613c6557600080fd5b505af1158015613c79573d6000803e3d6000fd5b505050506040513d601f19601f82011682018060405250810190613c9d9190614bc9565b509050811580613cab575080155b15613cbf57600087945094505050506140e8565b60405163274e7d6160e11b81526000906001600160a01b037f00000000000000000000000000000000000000000000000000000000000000001690634e9cfac290613d2e907f00000000000000000000000000000000000000000000000000000000000000009060040161471e565b60a06040518083038186803b158015613d4657600080fd5b505afa158015613d5a573d6000803e3d6000fd5b505050506040513d601f19601f82011682018060405250810190613d7e9190614c01565b6040015163ffffffff16905060007f00000000000000000000000000000000000000000000000000000000000000006001600160a01b0316634e9cfac27f00000000000000000000000000000000000000000000000000000000000000006040518263ffffffff1660e01b8152600401613df8919061471e565b60a06040518083038186803b158015613e1057600080fd5b505afa158015613e24573d6000803e3d6000fd5b505050506040513d601f19601f82011682018060405250810190613e489190614c01565b6060015163ffffffff169050600063ee6b2800613e658385614ca9565b613e6f9190614cd9565b905060007f00000000000000000000000000000000000000000000000000000000000000006001600160a01b031663313ce5676040518163ffffffff1660e01b815260040160206040518083038186803b158015613ecc57600080fd5b505afa158015613ee0573d6000803e3d6000fd5b505050506040513d601f19601f82011682018060405250810190613f049190614d00565b613f0f90600a614e07565b613f1d9063ee6b2800614b80565b85613f3267ffffffffffffffff85168a614b80565b613f3c9190614b80565b613f469190614bb5565b90506000867f00000000000000000000000000000000000000000000000000000000000000006001600160a01b031663313ce5676040518163ffffffff1660e01b815260040160206040518083038186803b158015613fa457600080fd5b505afa158015613fb8573d6000803e3d6000fd5b505050506040513d601f19601f82011682018060405250810190613fdc9190614d00565b613fe790600a614e07565b613ff19084614b80565b613ffb9190614bb5565b9050806140165760008c9950995050505050505050506140e8565b6000612710600754836140299190614b80565b6140339190614bb5565b90506000612710600654846140489190614b80565b6140529190614bb5565b9050818e111561406d57614066818f61496f565b9a506140dd565b8d8111156140dd5761407f8e8261496f565b9b5060006140cd7f00000000000000000000000000000000000000000000000000000000000000007f0000000000000000000000000000000000000000000000000000000000000000614230565b9050808d11156140db57809c505b505b505050505050505050505b94509492505050565b6140fa81614569565b60405163d8aed14560e01b815260006004820152602481018290527f00000000000000000000000000000000000000000000000000000000000000006001600160a01b03169063d8aed145906044015b600060405180830381600087803b15801561416457600080fd5b505af11580156133a6573d6000803e3d6000fd5b60405163b6b55f2560e01b8152600481018290527f00000000000000000000000000000000000000000000000000000000000000006001600160a01b03169063b6b55f259060240161414a565b60608160000180548060200260200160405190810160405280929190818152602001828054801561421557602002820191906000526020600020905b815481526020019060010190808311614201575b50505050509050919050565b6060612ff48484600085614572565b600080836001600160a01b031663fea61faa6040518163ffffffff1660e01b815260040160206040518083038186803b15801561426c57600080fd5b505afa158015614280573d6000803e3d6000fd5b505050506040513d601f19601f820116820180604052508101906142a49190614940565b90506000836001600160a01b03166318160ddd6040518163ffffffff1660e01b815260040160206040518083038186803b1580156142e157600080fd5b505afa1580156142f5573d6000803e3d6000fd5b505050506040513d601f19601f820116820180604052508101906143199190614940565b905080821115611b545761432d818361496f565b95945050505050565b6106e76001600160a01b037f0000000000000000000000000000000000000000000000000000000000000000167f000000000000000000000000000000000000000000000000000000000000000083612e44565b80156106e75760007f00000000000000000000000000000000000000000000000000000000000000006001600160a01b03166399530b066040518163ffffffff1660e01b815260040160206040518083038186803b1580156143eb57600080fd5b505afa1580156143ff573d6000803e3d6000fd5b505050506040513d601f19601f820116820180604052508101906144239190614940565b905060008161443a84670de0b6b3a7640000614b80565b6144449190614bb5565b9050670de0b6b3a76400006144598383614b80565b6144639190614bb5565b831161446f578061447a565b61447a816001614adc565b90507f00000000000000000000000000000000000000000000000000000000000000006001600160a01b0316632e1a7d4d61454b837f00000000000000000000000000000000000000000000000000000000000000006001600160a01b03166370a08231306040518263ffffffff1660e01b81526004016144fb919061471e565b60206040518083038186803b15801561451357600080fd5b505afa158015614527573d6000803e3d6000fd5b505050506040513d601f19601f820116820180604052508101906133179190614940565b6040518263ffffffff1660e01b815260040161100a91815260200190565b6106e78161438a565b6060824710156145d35760405162461bcd60e51b815260206004820152602660248201527f416464726573733a20696e73756666696369656e742062616c616e636520666f6044820152651c8818d85b1b60d21b60648201526084016105db565b843b6146215760405162461bcd60e51b815260206004820152601d60248201527f416464726573733a2063616c6c20746f206e6f6e2d636f6e747261637400000060448201526064016105db565b600080866001600160a01b0316858760405161463d9190614e16565b60006040518083038185875af1925050503d806000811461467a576040519150601f19603f3d011682016040523d82523d6000602084013e61467f565b606091505b509150915061468f82828661469a565b979650505050505050565b606083156146a9575081611d36565b8251156146b95782518084602001fd5b8160405162461bcd60e51b81526004016105db91906147ab565b6001600160a01b03811681146106e757600080fd5b6000602082840312156146fa57600080fd5b8135611d36816146d3565b60006020828403121561471757600080fd5b5035919050565b6001600160a01b0391909116815260200190565b6020808252825182820181905260009190848201906040850190845b818110156147735783516001600160a01b03168352928401929184019160010161474e565b50909695505050505050565b60005b8381101561479a578181015183820152602001614782565b838111156131a95750506000910152565b60208152600082518060208401526147ca81604085016020870161477f565b601f01601f19169190910160400192915050565b6000806000604084860312156147f357600080fd5b83359250602084013567ffffffffffffffff8082111561481257600080fd5b818601915086601f83011261482657600080fd5b81358181111561483557600080fd5b8760208260051b850101111561484a57600080fd5b6020830194508093505050509250925092565b6000806040838503121561487057600080fd5b823561487b816146d3565b946020939093013593505050565b6000806040838503121561489c57600080fd5b50508035926020909101359150565b60208082526016908201527531b0b63632b916b4b996b737ba16b096b5b2b2b832b960511b604082015260600190565b6020808252601f908201527f6e6f742d616c6c6f7765642d746f2d73776565702d636f6c6c61746572616c00604082015260600190565b60208082526014908201527306e6f742d616c6c6f7765642d746f2d73776565760641b604082015260600190565b60006020828403121561495257600080fd5b5051919050565b634e487b7160e01b600052601160045260246000fd5b60008282101561498157614981614959565b500390565b6020808252601490820152731b9bdd0b595b9bdd59da0b585b5bdd5b9d13dd5d60621b604082015260600190565b6000602082840312156149c657600080fd5b8151611d36816146d3565b6020808252601a908201527f63616c6c65722d69732d6e6f742d7468652d676f7665726e6f72000000000000604082015260600190565b60208082526019908201527818d85b1b195c8b5a5ccb5b9bdd0b5d995cdc195c8b5c1bdbdb603a1b604082015260600190565b600181811c90821680614a4f57607f821691505b6020821081141561092457634e487b7160e01b600052602260045260246000fd5b6001600160a01b03878116825286811660208301526040820186905260a06060830181905282018490526000906001600160fb1b03851115614ab157600080fd5b8460051b808760c0860137600090840160c00190815293166080909201919091525095945050505050565b60008219821115614aef57614aef614959565b500190565b6001600160a01b039586168152938516602085015260408401929092526060830152909116608082015260a00190565b80518015158114614b3457600080fd5b919050565b600060208284031215614b4b57600080fd5b611d3682614b24565b634e487b7160e01b600052603260045260246000fd5b634e487b7160e01b600052603160045260246000fd5b6000816000190483118215151615614b9a57614b9a614959565b500290565b634e487b7160e01b600052601260045260246000fd5b600082614bc457614bc4614b9f565b500490565b60008060408385031215614bdc57600080fd5b505080516020909101519092909150565b805163ffffffff81168114614b3457600080fd5b600060a08284031215614c1357600080fd5b60405160a0810181811067ffffffffffffffff82111715614c4457634e487b7160e01b600052604160045260246000fd5b6040528251614c52816146d3565b8152614c6060208401614b24565b6020820152614c7160408401614bed565b6040820152614c8260608401614bed565b6060820152608083015162ffffff81168114614c9d57600080fd5b60808201529392505050565b600067ffffffffffffffff80831681851681830481118215151615614cd057614cd0614959565b02949350505050565b600067ffffffffffffffff80841680614cf457614cf4614b9f565b92169190910492915050565b600060208284031215614d1257600080fd5b815160ff81168114611d3657600080fd5b600181815b80851115614d5e578160001904821115614d4457614d44614959565b80851615614d5157918102915b93841c9390800290614d28565b509250929050565b600082614d7557506001610e8d565b81614d8257506000610e8d565b8160018114614d985760028114614da257614dbe565b6001915050610e8d565b60ff841115614db357614db3614959565b50506001821b610e8d565b5060208310610133831016604e8410600b8410161715614de1575081810a610e8d565b614deb8383614d23565b8060001904821115614dff57614dff614959565b029392505050565b6000611d3660ff841683614d66565b60008251614e2881846020870161477f565b919091019291505056fea26469706673582212208f43cabab05779f2238a3dd62e8b34cbee3ec358359d2bcbe42361c8b275f57c64736f6c63430008090033",
  "devdoc": {
    "kind": "dev",
    "methods": {
      "addKeeper(address)": {
        "params": {
          "_keeperAddress": "keeper address to add."
        }
      },
      "approveToken(uint256)": {
        "details": "Approve all required tokens"
      },
      "migrate(address)": {
        "details": "_beforeMigration hook can be implemented in child strategy to do extra steps.",
        "params": {
          "_newStrategy": "Address of new strategy"
        }
      },
      "rebalance()": {
        "returns": {
          "_loss": "Realized loss, if any, in collateral.",
          "_payback": "If strategy has any excess debt, we have to liquidate asset to payback excess debt.",
          "_profit": "Realized profit in collateral."
        }
      },
      "removeKeeper(address)": {
        "params": {
          "_keeperAddress": "keeper address to remove."
        }
      },
      "sweep(address)": {
        "params": {
          "_fromToken": "token address to sweep"
        }
      },
      "updateBorrowLimit(uint256,uint256)": {
        "details": "It is possible to set maxBorrowLimit_ and minBorrowLimit_ as 0 to not borrow anything",
        "params": {
          "maxBorrowLimit_": "It is % of actual collateral factor of protocol",
          "minBorrowLimit_": "It is % of actual collateral factor of protocol"
        }
      },
      "updateFeeCollector(address)": {
        "params": {
          "_feeCollector": "fee collector address"
        }
      },
      "updateSwapper(address)": {
        "params": {
          "_swapper": "swapper address"
        }
      },
      "withdraw(uint256)": {
        "params": {
          "_amount": "Amount of collateral token"
        }
      }
    },
    "title": "Deposit Collateral in Euler and earn interest by depositing borrowed token in a Vesper Pool.",
    "version": 1
  },
  "userdoc": {
    "kind": "user",
    "methods": {
      "addKeeper(address)": {
        "notice": "Add given address in keepers list."
      },
      "claimAndSwapRewards(uint256)": {
        "notice": "Claim rewardToken and convert rewardToken into collateral token."
      },
      "claimRewards(uint256,bytes32[])": {
        "notice": "onlyKeeper:: Claim EUL tokens from Euler."
      },
      "collateral()": {
        "notice": "Returns address of token correspond to collateral token"
      },
      "keepers()": {
        "notice": "Return list of keepers"
      },
      "migrate(address)": {
        "notice": "Migrate all asset and vault ownership,if any, to new strategy"
      },
      "rebalance()": {
        "notice": "OnlyKeeper: Rebalance profit, loss and investment of this strategy.  Calculate profit, loss and payback of this strategy and realize profit/loss and  withdraw fund for payback, if any, and submit this report to pool."
      },
      "removeKeeper(address)": {
        "notice": "Remove given address from keepers list."
      },
      "swapToCollateral(address,uint256)": {
        "notice": "onlyKeeper:: Swap given token into collateral token."
      },
      "sweep(address)": {
        "notice": "sweep given token to feeCollector of strategy"
      },
      "token()": {
        "notice": "Returns address of token correspond to receipt token"
      },
      "tvl()": {
        "notice": "Returns total collateral locked in the strategy"
      },
      "updateBorrowLimit(uint256,uint256)": {
        "notice": "Update upper and lower borrow limit. Usually maxBorrowLimit < 100% of actual collateral factor of protocol."
      },
      "updateFeeCollector(address)": {
        "notice": "Update fee collector"
      },
      "updateSwapper(address)": {
        "notice": "Update swapper"
      },
      "withdraw(uint256)": {
        "notice": "Withdraw collateral token from end protocol."
      }
    },
    "version": 1
  },
  "storageLayout": {
    "storage": [
      {
        "astId": 14392,
        "contract": "vesper-strategies/contracts/strategies/euler/EulerVesperXy.sol:EulerVesperXy",
        "label": "receiptToken",
        "offset": 0,
        "slot": "0",
        "type": "t_address"
      },
      {
        "astId": 14398,
        "contract": "vesper-strategies/contracts/strategies/euler/EulerVesperXy.sol:EulerVesperXy",
        "label": "feeCollector",
        "offset": 0,
        "slot": "1",
        "type": "t_address"
      },
      {
        "astId": 14401,
        "contract": "vesper-strategies/contracts/strategies/euler/EulerVesperXy.sol:EulerVesperXy",
        "label": "swapper",
        "offset": 0,
        "slot": "2",
        "type": "t_contract(IRoutedSwapper)13240"
      },
      {
        "astId": 14414,
        "contract": "vesper-strategies/contracts/strategies/euler/EulerVesperXy.sol:EulerVesperXy",
        "label": "_keepers",
        "offset": 0,
        "slot": "3",
        "type": "t_struct(AddressSet)3024_storage"
      },
      {
        "astId": 29472,
        "contract": "vesper-strategies/contracts/strategies/euler/EulerVesperXy.sol:EulerVesperXy",
        "label": "NAME",
        "offset": 0,
        "slot": "5",
        "type": "t_string_storage"
      },
      {
        "astId": 29484,
        "contract": "vesper-strategies/contracts/strategies/euler/EulerVesperXy.sol:EulerVesperXy",
        "label": "minBorrowLimit",
        "offset": 0,
        "slot": "6",
        "type": "t_uint256"
      },
      {
        "astId": 29487,
        "contract": "vesper-strategies/contracts/strategies/euler/EulerVesperXy.sol:EulerVesperXy",
        "label": "maxBorrowLimit",
        "offset": 0,
        "slot": "7",
        "type": "t_uint256"
      }
    ],
    "types": {
      "t_address": {
        "encoding": "inplace",
        "label": "address",
        "numberOfBytes": "20"
      },
      "t_array(t_bytes32)dyn_storage": {
        "base": "t_bytes32",
        "encoding": "dynamic_array",
        "label": "bytes32[]",
        "numberOfBytes": "32"
      },
      "t_bytes32": {
        "encoding": "inplace",
        "label": "bytes32",
        "numberOfBytes": "32"
      },
      "t_contract(IRoutedSwapper)13240": {
        "encoding": "inplace",
        "label": "contract IRoutedSwapper",
        "numberOfBytes": "20"
      },
      "t_mapping(t_bytes32,t_uint256)": {
        "encoding": "mapping",
        "key": "t_bytes32",
        "label": "mapping(bytes32 => uint256)",
        "numberOfBytes": "32",
        "value": "t_uint256"
      },
      "t_string_storage": {
        "encoding": "bytes",
        "label": "string",
        "numberOfBytes": "32"
      },
      "t_struct(AddressSet)3024_storage": {
        "encoding": "inplace",
        "label": "struct EnumerableSet.AddressSet",
        "members": [
          {
            "astId": 3023,
            "contract": "vesper-strategies/contracts/strategies/euler/EulerVesperXy.sol:EulerVesperXy",
            "label": "_inner",
            "offset": 0,
            "slot": "0",
            "type": "t_struct(Set)2723_storage"
          }
        ],
        "numberOfBytes": "64"
      },
      "t_struct(Set)2723_storage": {
        "encoding": "inplace",
        "label": "struct EnumerableSet.Set",
        "members": [
          {
            "astId": 2718,
            "contract": "vesper-strategies/contracts/strategies/euler/EulerVesperXy.sol:EulerVesperXy",
            "label": "_values",
            "offset": 0,
            "slot": "0",
            "type": "t_array(t_bytes32)dyn_storage"
          },
          {
            "astId": 2722,
            "contract": "vesper-strategies/contracts/strategies/euler/EulerVesperXy.sol:EulerVesperXy",
            "label": "_indexes",
            "offset": 0,
            "slot": "1",
            "type": "t_mapping(t_bytes32,t_uint256)"
          }
        ],
        "numberOfBytes": "64"
      },
      "t_uint256": {
        "encoding": "inplace",
        "label": "uint256",
        "numberOfBytes": "32"
      }
    }
  }
}