{
  "address": "0xd7c751fA32590451548B100C4f6442F062C9bc8E",
  "abi": [
    {
      "inputs": [
        {
          "internalType": "address",
          "name": "_pool",
          "type": "address"
        },
        {
          "internalType": "address",
          "name": "_swapper",
          "type": "address"
        },
        {
          "internalType": "address",
          "name": "_receiptToken",
          "type": "address"
        },
        {
          "internalType": "address",
          "name": "_borrowToken",
          "type": "address"
        },
        {
          "internalType": "address",
          "name": "_aaveAddressProvider",
          "type": "address"
        },
        {
          "internalType": "address",
          "name": "_vPool",
          "type": "address"
        },
        {
          "internalType": "string",
          "name": "_name",
          "type": "string"
        }
      ],
      "stateMutability": "nonpayable",
      "type": "constructor"
    },
    {
      "anonymous": false,
      "inputs": [
        {
          "indexed": false,
          "internalType": "uint256",
          "name": "previousMinBorrowLimit",
          "type": "uint256"
        },
        {
          "indexed": false,
          "internalType": "uint256",
          "name": "newMinBorrowLimit",
          "type": "uint256"
        },
        {
          "indexed": false,
          "internalType": "uint256",
          "name": "previousMaxBorrowLimit",
          "type": "uint256"
        },
        {
          "indexed": false,
          "internalType": "uint256",
          "name": "newMaxBorrowLimit",
          "type": "uint256"
        }
      ],
      "name": "UpdatedBorrowLimit",
      "type": "event"
    },
    {
      "anonymous": false,
      "inputs": [
        {
          "indexed": true,
          "internalType": "address",
          "name": "previousFeeCollector",
          "type": "address"
        },
        {
          "indexed": true,
          "internalType": "address",
          "name": "newFeeCollector",
          "type": "address"
        }
      ],
      "name": "UpdatedFeeCollector",
      "type": "event"
    },
    {
      "anonymous": false,
      "inputs": [
        {
          "indexed": true,
          "internalType": "contract IRoutedSwapper",
          "name": "oldSwapper",
          "type": "address"
        },
        {
          "indexed": true,
          "internalType": "contract IRoutedSwapper",
          "name": "newSwapper",
          "type": "address"
        }
      ],
      "name": "UpdatedSwapper",
      "type": "event"
    },
    {
      "inputs": [],
      "name": "NAME",
      "outputs": [
        {
          "internalType": "string",
          "name": "",
          "type": "string"
        }
      ],
      "stateMutability": "view",
      "type": "function"
    },
    {
      "inputs": [],
      "name": "VERSION",
      "outputs": [
        {
          "internalType": "string",
          "name": "",
          "type": "string"
        }
      ],
      "stateMutability": "view",
      "type": "function"
    },
    {
      "inputs": [],
      "name": "aaveAddressProvider",
      "outputs": [
        {
          "internalType": "contract PoolAddressesProvider",
          "name": "",
          "type": "address"
        }
      ],
      "stateMutability": "view",
      "type": "function"
    },
    {
      "inputs": [
        {
          "internalType": "address",
          "name": "_keeperAddress",
          "type": "address"
        }
      ],
      "name": "addKeeper",
      "outputs": [],
      "stateMutability": "nonpayable",
      "type": "function"
    },
    {
      "inputs": [
        {
          "internalType": "uint256",
          "name": "_approvalAmount",
          "type": "uint256"
        }
      ],
      "name": "approveToken",
      "outputs": [],
      "stateMutability": "nonpayable",
      "type": "function"
    },
    {
      "inputs": [],
      "name": "borrowToken",
      "outputs": [
        {
          "internalType": "address",
          "name": "",
          "type": "address"
        }
      ],
      "stateMutability": "view",
      "type": "function"
    },
    {
      "inputs": [
        {
          "internalType": "uint256",
          "name": "_minAmountOut",
          "type": "uint256"
        }
      ],
      "name": "claimAndSwapRewards",
      "outputs": [
        {
          "internalType": "uint256",
          "name": "_amountOut",
          "type": "uint256"
        }
      ],
      "stateMutability": "nonpayable",
      "type": "function"
    },
    {
      "inputs": [],
      "name": "collateral",
      "outputs": [
        {
          "internalType": "address",
          "name": "",
          "type": "address"
        }
      ],
      "stateMutability": "view",
      "type": "function"
    },
    {
      "inputs": [],
      "name": "collateralToken",
      "outputs": [
        {
          "internalType": "contract IERC20",
          "name": "",
          "type": "address"
        }
      ],
      "stateMutability": "view",
      "type": "function"
    },
    {
      "inputs": [],
      "name": "feeCollector",
      "outputs": [
        {
          "internalType": "address",
          "name": "",
          "type": "address"
        }
      ],
      "stateMutability": "view",
      "type": "function"
    },
    {
      "inputs": [
        {
          "internalType": "address",
          "name": "_token",
          "type": "address"
        }
      ],
      "name": "isReservedToken",
      "outputs": [
        {
          "internalType": "bool",
          "name": "",
          "type": "bool"
        }
      ],
      "stateMutability": "view",
      "type": "function"
    },
    {
      "inputs": [],
      "name": "keepers",
      "outputs": [
        {
          "internalType": "address[]",
          "name": "",
          "type": "address[]"
        }
      ],
      "stateMutability": "view",
      "type": "function"
    },
    {
      "inputs": [],
      "name": "maxBorrowLimit",
      "outputs": [
        {
          "internalType": "uint256",
          "name": "",
          "type": "uint256"
        }
      ],
      "stateMutability": "view",
      "type": "function"
    },
    {
      "inputs": [
        {
          "internalType": "address",
          "name": "_newStrategy",
          "type": "address"
        }
      ],
      "name": "migrate",
      "outputs": [],
      "stateMutability": "nonpayable",
      "type": "function"
    },
    {
      "inputs": [],
      "name": "minBorrowLimit",
      "outputs": [
        {
          "internalType": "uint256",
          "name": "",
          "type": "uint256"
        }
      ],
      "stateMutability": "view",
      "type": "function"
    },
    {
      "inputs": [],
      "name": "pool",
      "outputs": [
        {
          "internalType": "address",
          "name": "",
          "type": "address"
        }
      ],
      "stateMutability": "view",
      "type": "function"
    },
    {
      "inputs": [],
      "name": "rebalance",
      "outputs": [
        {
          "internalType": "uint256",
          "name": "_profit",
          "type": "uint256"
        },
        {
          "internalType": "uint256",
          "name": "_loss",
          "type": "uint256"
        },
        {
          "internalType": "uint256",
          "name": "_payback",
          "type": "uint256"
        }
      ],
      "stateMutability": "nonpayable",
      "type": "function"
    },
    {
      "inputs": [],
      "name": "receiptToken",
      "outputs": [
        {
          "internalType": "address",
          "name": "",
          "type": "address"
        }
      ],
      "stateMutability": "view",
      "type": "function"
    },
    {
      "inputs": [
        {
          "internalType": "address",
          "name": "_keeperAddress",
          "type": "address"
        }
      ],
      "name": "removeKeeper",
      "outputs": [],
      "stateMutability": "nonpayable",
      "type": "function"
    },
    {
      "inputs": [
        {
          "internalType": "contract IERC20",
          "name": "_tokenIn",
          "type": "address"
        },
        {
          "internalType": "uint256",
          "name": "_minAmountOut",
          "type": "uint256"
        }
      ],
      "name": "swapToCollateral",
      "outputs": [
        {
          "internalType": "uint256",
          "name": "_amountOut",
          "type": "uint256"
        }
      ],
      "stateMutability": "nonpayable",
      "type": "function"
    },
    {
      "inputs": [],
      "name": "swapper",
      "outputs": [
        {
          "internalType": "contract IRoutedSwapper",
          "name": "",
          "type": "address"
        }
      ],
      "stateMutability": "view",
      "type": "function"
    },
    {
      "inputs": [
        {
          "internalType": "address",
          "name": "_fromToken",
          "type": "address"
        }
      ],
      "name": "sweep",
      "outputs": [],
      "stateMutability": "nonpayable",
      "type": "function"
    },
    {
      "inputs": [],
      "name": "token",
      "outputs": [
        {
          "internalType": "address",
          "name": "",
          "type": "address"
        }
      ],
      "stateMutability": "view",
      "type": "function"
    },
    {
      "inputs": [],
      "name": "tvl",
      "outputs": [
        {
          "internalType": "uint256",
          "name": "",
          "type": "uint256"
        }
      ],
      "stateMutability": "view",
      "type": "function"
    },
    {
      "inputs": [
        {
          "internalType": "uint256",
          "name": "_minBorrowLimit",
          "type": "uint256"
        },
        {
          "internalType": "uint256",
          "name": "_maxBorrowLimit",
          "type": "uint256"
        }
      ],
      "name": "updateBorrowLimit",
      "outputs": [],
      "stateMutability": "nonpayable",
      "type": "function"
    },
    {
      "inputs": [
        {
          "internalType": "address",
          "name": "_feeCollector",
          "type": "address"
        }
      ],
      "name": "updateFeeCollector",
      "outputs": [],
      "stateMutability": "nonpayable",
      "type": "function"
    },
    {
      "inputs": [
        {
          "internalType": "contract IRoutedSwapper",
          "name": "_swapper",
          "type": "address"
        }
      ],
      "name": "updateSwapper",
      "outputs": [],
      "stateMutability": "nonpayable",
      "type": "function"
    },
    {
      "inputs": [],
      "name": "vPool",
      "outputs": [
        {
          "internalType": "contract IVesperPool",
          "name": "",
          "type": "address"
        }
      ],
      "stateMutability": "view",
      "type": "function"
    },
    {
      "inputs": [],
      "name": "vdToken",
      "outputs": [
        {
          "internalType": "contract AToken",
          "name": "",
          "type": "address"
        }
      ],
      "stateMutability": "view",
      "type": "function"
    },
    {
      "inputs": [
        {
          "internalType": "uint256",
          "name": "_amount",
          "type": "uint256"
        }
      ],
      "name": "withdraw",
      "outputs": [],
      "stateMutability": "nonpayable",
      "type": "function"
    }
  ],
  "transactionHash": "0x4ed927b1d5cd77b3ce105ba4329cf19c73e5a991c6924e7334da2c0cf198e9b3",
  "args": [
    "0x19382707d5a47E74f60053b652Ab34b6e30Febad",
    "0xDAf982c67712780D54C298A91D86788165B701A4",
    "0x513c7E3a9c69cA3e22550eF58AC1C0088e918FFf",
    "0x7F5c764cBc14f9669B88837ca1490cCa17c31607",
    "0xa97684ead0e402dC232d5A977953DF7ECBaB3CDb",
    "0x539505Dde2B9771dEBE0898a84441c5E7fDF6BC0",
    "AaveV3_Vesper_Xy_OP_USDC"
  ],
  "numDeployments": 1,
  "solcInputHash": "56a6354551c0167036980230b4124393",
  "bytecode": "0x610100604052611b586006556121346007553480156200001e57600080fd5b506040516200633638038062006336833981016040819052620000419162000742565b8686868686858585856001600160a01b038316620000a65760405162461bcd60e51b815260206004820152601460248201527f706f6f6c2d616464726573732d69732d7a65726f00000000000000000000000060448201526064015b60405180910390fd5b6001600160a01b038216620000fe5760405162461bcd60e51b815260206004820152601760248201527f737761707065722d616464726573732d69732d7a65726f00000000000000000060448201526064016200009d565b600280546001600160a01b0319166001600160a01b0384811691909117909155831660a081905260408051637e062a3560e11b8152905163fc0c546a91600480820192602092909190829003018186803b1580156200015c57600080fd5b505afa15801562000171573d6000803e3d6000fd5b505050506040513d601f19601f82011682018060405250810190620001979190620008a3565b6001600160a01b03908116608052600080546001600160a01b031916918316919091179055620001de620001c83390565b6003620005fb60201b62001e321790919060201c565b620002205760405162461bcd60e51b81526020600482015260116024820152701859190b5ad9595c195c8b59985a5b1959607a1b60448201526064016200009d565b5050815162000238915060059060208401906200066d565b506001600160a01b038216620002915760405162461bcd60e51b815260206004820152601760248201527f6164647265737350726f76696465722d69732d7a65726f00000000000000000060448201526064016200009d565b856001600160a01b031663fc0c546a6040518163ffffffff1660e01b815260040160206040518083038186803b158015620002cb57600080fd5b505afa158015620002e0573d6000803e3d6000fd5b505050506040513d601f19601f82011682018060405250810190620003069190620008a3565b6001600160a01b0316846001600160a01b031663b16a19de6040518163ffffffff1660e01b815260040160206040518083038186803b1580156200034957600080fd5b505afa1580156200035e573d6000803e3d6000fd5b505050506040513d601f19601f82011682018060405250810190620003849190620008a3565b6001600160a01b031614620003dc5760405162461bcd60e51b815260206004820152601560248201527f696e76616c69642d726563656970742d746f6b656e000000000000000000000060448201526064016200009d565b600080836001600160a01b031663e860accb6040518163ffffffff1660e01b815260040160206040518083038186803b1580156200041957600080fd5b505afa1580156200042e573d6000803e3d6000fd5b505050506040513d601f19601f82011682018060405250810190620004549190620008a3565b6040516334924edb60e21b81526001600160a01b038781166004830152919091169063d2493b6c9060240160606040518083038186803b1580156200049857600080fd5b505afa158015620004ad573d6000803e3d6000fd5b505050506040513d601f19601f82011682018060405250810190620004d39190620008ca565b600980546001600160a01b03199081166001600160a01b0393841617909155600880548216998316998a179055600a8054909116938216939093179092555093841660c052505060408051637e062a3560e11b81529051939650918816945063fc0c546a935050600480820192602092909190829003018186803b1580156200055b57600080fd5b505afa15801562000570573d6000803e3d6000fd5b505050506040513d601f19601f82011682018060405250810190620005969190620008a3565b6001600160a01b031614620005e25760405162461bcd60e51b81526020600482015260116024820152701a5b9d985b1a590b59dc9bddcb5c1bdbdb607a1b60448201526064016200009d565b506001600160a01b031660e052506200095b9350505050565b600062000612836001600160a01b0384166200061b565b90505b92915050565b6000818152600183016020526040812054620006645750815460018181018455600084815260208082209093018490558454848252828601909352604090209190915562000615565b50600062000615565b8280546200067b906200091e565b90600052602060002090601f0160209004810192826200069f5760008555620006ea565b82601f10620006ba57805160ff1916838001178555620006ea565b82800160010185558215620006ea579182015b82811115620006ea578251825591602001919060010190620006cd565b50620006f8929150620006fc565b5090565b5b80821115620006f85760008155600101620006fd565b6001600160a01b03811681146200072957600080fd5b50565b634e487b7160e01b600052604160045260246000fd5b600080600080600080600060e0888a0312156200075e57600080fd5b87516200076b8162000713565b80975050602080890151620007808162000713565b60408a0151909750620007938162000713565b60608a0151909650620007a68162000713565b60808a0151909550620007b98162000713565b60a08a0151909450620007cc8162000713565b60c08a01519093506001600160401b0380821115620007ea57600080fd5b818b0191508b601f830112620007ff57600080fd5b8151818111156200081457620008146200072c565b604051601f8201601f19908116603f011681019083821181831017156200083f576200083f6200072c565b816040528281528e868487010111156200085857600080fd5b600093505b828410156200087c57848401860151818501870152928501926200085d565b828411156200088e5760008684830101525b80965050505050505092959891949750929550565b600060208284031215620008b657600080fd5b8151620008c38162000713565b9392505050565b600080600060608486031215620008e057600080fd5b8351620008ed8162000713565b6020850151909350620009008162000713565b6040850151909250620009138162000713565b809150509250925092565b600181811c908216806200093357607f821691505b602082108114156200095557634e487b7160e01b600052602260045260246000fd5b50919050565b60805160a05160c05160e0516157da62000b5c600039600081816102fc015281816120170152818161223e0152818161226c01528181613d0801528181613d8401528181614a4c01528181614d5a0152614e600152600081816103bd01528181612083015281816123ce01528181612c6801528181613769015281816138620152818161440b01526145e201526000818161023b015281816108fc01528181610a4501528181610b8c01528181610c6101528181610d1401528181610fe6015281816110b3015281816112de015281816114ec01528181611c3a015281816122c1015281816125dd015281816127ae0152614d2b0152600081816103830152818161041a0152818161056e0152818161077c0152818161081f01528181610ad201528181610b6a01528181610bd801528181610c9401528181610e5e01528181611262015281816117100152818161186a0152818161194f01528181611b1d01528181611b5b01528181612042015281816124a9015281816126d3015281816128290152818161303c015281816130ae015281816135d801528181613671015281816138020152818161383601528181613a2601528181613e7401528181613f2c01528181613fdb015281816140cb015281816142100152818161425201528181614534015281816146880152818161471c0152614d0901526157da6000f3fe608060405234801561001057600080fd5b50600436106101da5760003560e01c8063a3f4df7e11610104578063d8dfeb45116100a2578063ee330ee311610071578063ee330ee314610462578063fb7ee10214610475578063fc0c546a14610488578063ffa1ad741461049957600080fd5b8063d8dfeb4514610418578063e260d7471461043e578063e5328e0614610447578063ec78e8321461044f57600080fd5b8063cdaabe41116100de578063cdaabe41146103b8578063ce5494bb146103df578063d2c35ce8146103f2578063d3033c391461040557600080fd5b8063a3f4df7e14610369578063b2016bd41461037e578063c415b95c146103a557600080fd5b80633ac9fc111161017c5780636719578c1161014b5780636719578c146102f75780637d7c2a1c1461031e57806390d6751414610341578063951dc22c1461035457600080fd5b80633ac9fc111461029b5780634032b72b146102ae578063440d7248146102c1578063456dc17a146102e457600080fd5b806314ae9f2e116101b857806314ae9f2e1461022357806316f0115b146102365780632b3297f9146102755780632e1a7d4d1461028857600080fd5b806301681a62146101df5780630181686c146101f45780631026013a14610210575b600080fd5b6101f26101ed366004615068565b6104bd565b005b6101fd60075481565b6040519081526020015b60405180910390f35b6101fd61021e366004615085565b610714565b6101f2610231366004615068565b6108fa565b61025d7f000000000000000000000000000000000000000000000000000000000000000081565b6040516001600160a01b039091168152602001610207565b60025461025d906001600160a01b031681565b6101f2610296366004615085565b610a42565b6101f26102a9366004615085565b610cbb565b6101f26102bc366004615068565b610d12565b6102d46102cf366004615068565b610e5a565b6040519015158152602001610207565b60085461025d906001600160a01b031681565b61025d7f000000000000000000000000000000000000000000000000000000000000000081565b610326610edf565b60408051938452602084019290925290820152606001610207565b60095461025d906001600160a01b031681565b61035c610f44565b60405161020791906150e2565b610371610f55565b6040516102079190615121565b61025d7f000000000000000000000000000000000000000000000000000000000000000081565b60015461025d906001600160a01b031681565b61025d7f000000000000000000000000000000000000000000000000000000000000000081565b6101f26103ed366004615068565b610fe3565b6101f2610400366004615068565b6112dc565b6101f2610413366004615068565b6114ea565b7f000000000000000000000000000000000000000000000000000000000000000061025d565b6101fd60065481565b6101fd6116f8565b60005461025d906001600160a01b031681565b6101fd610470366004615154565b611818565b6101f2610483366004615180565b611c38565b6000546001600160a01b031661025d565b610371604051806040016040528060058152602001640352e312e360dc1b81525081565b6104ca335b600390611e4e565b6105145760405162461bcd60e51b815260206004820152601660248201527531b0b63632b916b4b996b737ba16b096b5b2b2b832b960511b60448201526064015b60405180910390fd5b6001546001600160a01b031661056c5760405162461bcd60e51b815260206004820152601560248201527f6665652d636f6c6c6563746f722d6e6f742d7365740000000000000000000000604482015260640161050b565b7f00000000000000000000000000000000000000000000000000000000000000006001600160a01b0316816001600160a01b031614156105ee5760405162461bcd60e51b815260206004820152601f60248201527f6e6f742d616c6c6f7765642d746f2d73776565702d636f6c6c61746572616c00604482015260640161050b565b6105f781610e5a565b1561063b5760405162461bcd60e51b815260206004820152601460248201527306e6f742d616c6c6f7765642d746f2d73776565760641b604482015260640161050b565b6001600160a01b03811673eeeeeeeeeeeeeeeeeeeeeeeeeeeeeeeeeeeeeeee141561067957600154610676906001600160a01b031647611e70565b50565b6040516370a0823160e01b81523060048201526000906001600160a01b038316906370a082319060240160206040518083038186803b1580156106bb57600080fd5b505afa1580156106cf573d6000803e3d6000fd5b505050506040513d601f19601f820116820180604052508101906106f391906151a2565b600154909150610710906001600160a01b03848116911683611f8e565b5050565b600061071f336104c2565b6107645760405162461bcd60e51b815260206004820152601660248201527531b0b63632b916b4b996b737ba16b096b5b2b2b832b960511b604482015260640161050b565b6040516370a0823160e01b81523060048201526000907f00000000000000000000000000000000000000000000000000000000000000006001600160a01b0316906370a082319060240160206040518083038186803b1580156107c657600080fd5b505afa1580156107da573d6000803e3d6000fd5b505050506040513d601f19601f820116820180604052508101906107fe91906151a2565b9050610808612006565b6040516370a0823160e01b815230600482015281907f00000000000000000000000000000000000000000000000000000000000000006001600160a01b0316906370a082319060240160206040518083038186803b15801561086957600080fd5b505afa15801561087d573d6000803e3d6000fd5b505050506040513d601f19601f820116820180604052508101906108a191906151a2565b6108ab91906151d1565b9150828210156108f45760405162461bcd60e51b81526020600482015260146024820152731b9bdd0b595b9bdd59da0b585b5bdd5b9d13dd5d60621b604482015260640161050b565b50919050565b7f00000000000000000000000000000000000000000000000000000000000000006001600160a01b0316630c340a246040518163ffffffff1660e01b815260040160206040518083038186803b15801561095357600080fd5b505afa158015610967573d6000803e3d6000fd5b505050506040513d601f19601f8201168201806040525081019061098b91906151e8565b6001600160a01b0316336001600160a01b0316146109eb5760405162461bcd60e51b815260206004820152601a60248201527f63616c6c65722d69732d6e6f742d7468652d676f7665726e6f72000000000000604482015260640161050b565b6109f6600382612068565b6106765760405162461bcd60e51b815260206004820152601460248201527f72656d6f76652d6b65657065722d6661696c6564000000000000000000000000604482015260640161050b565b337f00000000000000000000000000000000000000000000000000000000000000006001600160a01b031614610aba5760405162461bcd60e51b815260206004820152601960248201527f63616c6c65722d69732d6e6f742d7665737065722d706f6f6c00000000000000604482015260640161050b565b6040516370a0823160e01b81523060048201526000907f00000000000000000000000000000000000000000000000000000000000000006001600160a01b0316906370a082319060240160206040518083038186803b158015610b1c57600080fd5b505afa158015610b30573d6000803e3d6000fd5b505050506040513d601f19601f82011682018060405250810190610b5491906151a2565b9050818110610bb1576107106001600160a01b037f0000000000000000000000000000000000000000000000000000000000000000167f000000000000000000000000000000000000000000000000000000000000000084611f8e565b610bc3610bbe82846151d1565b61207d565b6040516370a0823160e01b81523060048201527f00000000000000000000000000000000000000000000000000000000000000006001600160a01b0316906370a082319060240160206040518083038186803b158015610c2257600080fd5b505afa158015610c36573d6000803e3d6000fd5b505050506040513d601f19601f82011682018060405250810190610c5a91906151a2565b90506107107f0000000000000000000000000000000000000000000000000000000000000000610c8a848461220d565b6001600160a01b037f0000000000000000000000000000000000000000000000000000000000000000169190611f8e565b610cc4336104c2565b610d095760405162461bcd60e51b815260206004820152601660248201527531b0b63632b916b4b996b737ba16b096b5b2b2b832b960511b604482015260640161050b565b61067681612223565b7f00000000000000000000000000000000000000000000000000000000000000006001600160a01b0316630c340a246040518163ffffffff1660e01b815260040160206040518083038186803b158015610d6b57600080fd5b505afa158015610d7f573d6000803e3d6000fd5b505050506040513d601f19601f82011682018060405250810190610da391906151e8565b6001600160a01b0316336001600160a01b031614610e035760405162461bcd60e51b815260206004820152601a60248201527f63616c6c65722d69732d6e6f742d7468652d676f7665726e6f72000000000000604482015260640161050b565b610e0e600382611e32565b6106765760405162461bcd60e51b815260206004820152601160248201527f6164642d6b65657065722d6661696c6564000000000000000000000000000000604482015260640161050b565b60007f00000000000000000000000000000000000000000000000000000000000000006001600160a01b0316826001600160a01b03161480610ea957506000546001600160a01b038381169116145b80610ec157506009546001600160a01b038381169116145b80610ed957506008546001600160a01b038381169116145b92915050565b60008080610eec336104c2565b610f315760405162461bcd60e51b815260206004820152601660248201527531b0b63632b916b4b996b737ba16b096b5b2b2b832b960511b604482015260640161050b565b610f3961229b565b925092509250909192565b6060610f506003612af8565b905090565b60058054610f6290615205565b80601f0160208091040260200160405190810160405280929190818152602001828054610f8e90615205565b8015610fdb5780601f10610fb057610100808354040283529160200191610fdb565b820191906000526020600020905b815481529060010190602001808311610fbe57829003601f168201915b505050505081565b337f00000000000000000000000000000000000000000000000000000000000000006001600160a01b03161461105b5760405162461bcd60e51b815260206004820152601960248201527f63616c6c65722d69732d6e6f742d7665737065722d706f6f6c00000000000000604482015260640161050b565b6001600160a01b0381166110b15760405162461bcd60e51b815260206004820152601c60248201527f6e65772d73747261746567792d616464726573732d69732d7a65726f00000000604482015260640161050b565b7f00000000000000000000000000000000000000000000000000000000000000006001600160a01b0316816001600160a01b03166316f0115b6040518163ffffffff1660e01b815260040160206040518083038186803b15801561111457600080fd5b505afa158015611128573d6000803e3d6000fd5b505050506040513d601f19601f8201168201806040525081019061114c91906151e8565b6001600160a01b0316146111a25760405162461bcd60e51b815260206004820152601660248201527f6e6f742d76616c69642d6e65772d737472617465677900000000000000000000604482015260640161050b565b6111ab81612b05565b6000546040516370a0823160e01b815230600482015261123f9183916001600160a01b03909116906370a082319060240160206040518083038186803b1580156111f457600080fd5b505afa158015611208573d6000803e3d6000fd5b505050506040513d601f19601f8201168201806040525081019061122c91906151a2565b6000546001600160a01b03169190611f8e565b6040516370a0823160e01b81523060048201526106769082906001600160a01b037f000000000000000000000000000000000000000000000000000000000000000016906370a082319060240160206040518083038186803b1580156112a457600080fd5b505afa1580156112b8573d6000803e3d6000fd5b505050506040513d601f19601f82011682018060405250810190610c8a91906151a2565b7f00000000000000000000000000000000000000000000000000000000000000006001600160a01b0316630c340a246040518163ffffffff1660e01b815260040160206040518083038186803b15801561133557600080fd5b505afa158015611349573d6000803e3d6000fd5b505050506040513d601f19601f8201168201806040525081019061136d91906151e8565b6001600160a01b0316336001600160a01b0316146113cd5760405162461bcd60e51b815260206004820152601a60248201527f63616c6c65722d69732d6e6f742d7468652d676f7665726e6f72000000000000604482015260640161050b565b6001600160a01b0381166114235760405162461bcd60e51b815260206004820152601d60248201527f6665652d636f6c6c6563746f722d616464726573732d69732d7a65726f000000604482015260640161050b565b6001546001600160a01b03828116911614156114815760405162461bcd60e51b815260206004820152601560248201527f6665652d636f6c6c6563746f722d69732d73616d650000000000000000000000604482015260640161050b565b6001546040516001600160a01b038084169216907f0f06062680f9bd68e786e9980d9bb03d73d5620fc3b345e417b6eacb310b970690600090a36001805473ffffffffffffffffffffffffffffffffffffffff19166001600160a01b0392909216919091179055565b7f00000000000000000000000000000000000000000000000000000000000000006001600160a01b0316630c340a246040518163ffffffff1660e01b815260040160206040518083038186803b15801561154357600080fd5b505afa158015611557573d6000803e3d6000fd5b505050506040513d601f19601f8201168201806040525081019061157b91906151e8565b6001600160a01b0316336001600160a01b0316146115db5760405162461bcd60e51b815260206004820152601a60248201527f63616c6c65722d69732d6e6f742d7468652d676f7665726e6f72000000000000604482015260640161050b565b6001600160a01b0381166116315760405162461bcd60e51b815260206004820152601760248201527f737761707065722d616464726573732d69732d7a65726f000000000000000000604482015260640161050b565b6002546001600160a01b038281169116141561168f5760405162461bcd60e51b815260206004820152600f60248201527f737761707065722d69732d73616d650000000000000000000000000000000000604482015260640161050b565b6002546040516001600160a01b038084169216907f6c953b7ec311055c20b96a42cea31e89528e375b1bf953a503db40854b3188fe90600090a36002805473ffffffffffffffffffffffffffffffffffffffff19166001600160a01b0392909216919091179055565b6040516370a0823160e01b81523060048201526000907f00000000000000000000000000000000000000000000000000000000000000006001600160a01b0316906370a082319060240160206040518083038186803b15801561175a57600080fd5b505afa15801561176e573d6000803e3d6000fd5b505050506040513d601f19601f8201168201806040525081019061179291906151a2565b6000546040516370a0823160e01b81523060048201526001600160a01b03909116906370a08231906024015b60206040518083038186803b1580156117d657600080fd5b505afa1580156117ea573d6000803e3d6000fd5b505050506040513d601f19601f8201168201806040525081019061180e91906151a2565b610f50919061523a565b6000611823336104c2565b6118685760405162461bcd60e51b815260206004820152601660248201527531b0b63632b916b4b996b737ba16b096b5b2b2b832b960511b604482015260640161050b565b7f00000000000000000000000000000000000000000000000000000000000000006001600160a01b0316836001600160a01b031614156118ea5760405162461bcd60e51b815260206004820152601f60248201527f6e6f742d616c6c6f7765642d746f2d73776565702d636f6c6c61746572616c00604482015260640161050b565b6118f383610e5a565b156119375760405162461bcd60e51b815260206004820152601460248201527306e6f742d616c6c6f7765642d746f2d73776565760641b604482015260640161050b565b6040516370a0823160e01b81523060048201526000907f00000000000000000000000000000000000000000000000000000000000000006001600160a01b0316906370a082319060240160206040518083038186803b15801561199957600080fd5b505afa1580156119ad573d6000803e3d6000fd5b505050506040513d601f19601f820116820180604052508101906119d191906151a2565b6040516370a0823160e01b81523060048201529091506000906001600160a01b038616906370a082319060240160206040518083038186803b158015611a1657600080fd5b505afa158015611a2a573d6000803e3d6000fd5b505050506040513d601f19601f82011682018060405250810190611a4e91906151a2565b90508015611b4457600254604051636eb1769f60e11b81523060048201526001600160a01b0391821660248201529086169063dd62ed3e9060440160206040518083038186803b158015611aa157600080fd5b505afa158015611ab5573d6000803e3d6000fd5b505050506040513d601f19601f82011682018060405250810190611ad991906151a2565b811115611b1757600254611afb906001600160a01b0387811691166000612cfc565b600254611b17906001600160a01b038781169116600019612cfc565b611b42857f000000000000000000000000000000000000000000000000000000000000000083612e27565b505b6040516370a0823160e01b815230600482015282907f00000000000000000000000000000000000000000000000000000000000000006001600160a01b0316906370a082319060240160206040518083038186803b158015611ba557600080fd5b505afa158015611bb9573d6000803e3d6000fd5b505050506040513d601f19601f82011682018060405250810190611bdd91906151a2565b611be791906151d1565b925083831015611c305760405162461bcd60e51b81526020600482015260146024820152731b9bdd0b595b9bdd59da0b585b5bdd5b9d13dd5d60621b604482015260640161050b565b505092915050565b7f00000000000000000000000000000000000000000000000000000000000000006001600160a01b0316630c340a246040518163ffffffff1660e01b815260040160206040518083038186803b158015611c9157600080fd5b505afa158015611ca5573d6000803e3d6000fd5b505050506040513d601f19601f82011682018060405250810190611cc991906151e8565b6001600160a01b0316336001600160a01b031614611d295760405162461bcd60e51b815260206004820152601a60248201527f63616c6c65722d69732d6e6f742d7468652d676f7665726e6f72000000000000604482015260640161050b565b6127108110611d7a5760405162461bcd60e51b815260206004820152601860248201527f696e76616c69642d6d61782d626f72726f772d6c696d69740000000000000000604482015260640161050b565b80158015611d86575081155b80611d9057508181115b611ddc5760405162461bcd60e51b815260206004820152601d60248201527f6d61782d73686f756c642d62652d6869676865722d7468616e2d6d696e000000604482015260640161050b565b6006546007546040805192835260208301859052820152606081018290527fedd77444afdf63401315e81ffe86d08f7865796e8ad2e11acf1d56a1393f07d59060800160405180910390a1600691909155600755565b6000611e47836001600160a01b038416612ecb565b9392505050565b6001600160a01b03811660009081526001830160205260408120541515611e47565b80471015611ec05760405162461bcd60e51b815260206004820152601d60248201527f416464726573733a20696e73756666696369656e742062616c616e6365000000604482015260640161050b565b6000826001600160a01b03168260405160006040518083038185875af1925050503d8060008114611f0d576040519150601f19603f3d011682016040523d82523d6000602084013e611f12565b606091505b5050905080611f895760405162461bcd60e51b815260206004820152603a60248201527f416464726573733a20756e61626c6520746f2073656e642076616c75652c207260448201527f6563697069656e74206d61792068617665207265766572746564000000000000606482015260840161050b565b505050565b6040516001600160a01b038316602482015260448101829052611f8990849063a9059cbb60e01b906064015b60408051601f198184030181529190526020810180517bffffffffffffffffffffffffffffffffffffffffffffffffffffffff166001600160e01b031990931692909217909152612f1a565b61200e612fec565b600254612066907f0000000000000000000000000000000000000000000000000000000000000000906001600160a01b03167f0000000000000000000000000000000000000000000000000000000000000000613102565b565b6000611e47836001600160a01b03841661341d565b610676817f00000000000000000000000000000000000000000000000000000000000000006001600160a01b031663026b1d5f6040518163ffffffff1660e01b815260040160206040518083038186803b1580156120da57600080fd5b505afa1580156120ee573d6000803e3d6000fd5b505050506040513d601f19601f8201168201806040525081019061211291906151e8565b6009546040516370a0823160e01b81523060048201526001600160a01b03909116906370a082319060240160206040518083038186803b15801561215557600080fd5b505afa158015612169573d6000803e3d6000fd5b505050506040513d601f19601f8201168201806040525081019061218d91906151a2565b6000546040516370a0823160e01b81523060048201526001600160a01b03909116906370a082319060240160206040518083038186803b1580156121d057600080fd5b505afa1580156121e4573d6000803e3d6000fd5b505050506040513d601f19601f8201168201806040525081019061220891906151a2565b613510565b600081831061221c5781611e47565b5090919050565b61222c81613741565b600854612263906001600160a01b03167f000000000000000000000000000000000000000000000000000000000000000083612cfc565b600254610676907f0000000000000000000000000000000000000000000000000000000000000000906001600160a01b031683613b04565b604051636a9eee1360e11b81523060048201526000908190819081906001600160a01b037f0000000000000000000000000000000000000000000000000000000000000000169063d53ddc269060240160206040518083038186803b15801561230357600080fd5b505afa158015612317573d6000803e3d6000fd5b505050506040513d601f19601f8201168201806040525081019061233b91906151a2565b6009546040516370a0823160e01b81523060048201529192506000916001600160a01b03909116906370a082319060240160206040518083038186803b15801561238457600080fd5b505afa158015612398573d6000803e3d6000fd5b505050506040513d601f19601f820116820180604052508101906123bc91906151a2565b905060006123c8613cde565b905060007f00000000000000000000000000000000000000000000000000000000000000006001600160a01b031663026b1d5f6040518163ffffffff1660e01b815260040160206040518083038186803b15801561242557600080fd5b505afa158015612439573d6000803e3d6000fd5b505050506040513d601f19601f8201168201806040525081019061245d91906151e8565b90508183111561247f5761247a61247483856151d1565b82613e57565b612491565b61249161248c84846151d1565b61416b565b6040516370a0823160e01b81523060048201526000907f00000000000000000000000000000000000000000000000000000000000000006001600160a01b0316906370a082319060240160206040518083038186803b1580156124f357600080fd5b505afa158015612507573d6000803e3d6000fd5b505050506040513d601f19601f8201168201806040525081019061252b91906151a2565b600080546040516370a0823160e01b815230600482015292935090916001600160a01b03909116906370a082319060240160206040518083038186803b15801561257457600080fd5b505afa158015612588573d6000803e3d6000fd5b505050506040513d601f19601f820116820180604052508101906125ac91906151a2565b905060006125ba838361523a565b604051639f2b283360e01b81523060048201529091506000906001600160a01b037f00000000000000000000000000000000000000000000000000000000000000001690639f2b28339060240160206040518083038186803b15801561261f57600080fd5b505afa158015612633573d6000803e3d6000fd5b505050506040513d601f19601f8201168201806040525081019061265791906151a2565b9050808211156126725761266b81836151d1565b9a5061267f565b61267c82826151d1565b99505b600061268b898d61523a565b90508085101561275a5760006126aa6126a487846151d1565b8661220d565b90508015612758576126be81888b88613510565b6040516370a0823160e01b81523060048201527f00000000000000000000000000000000000000000000000000000000000000006001600160a01b0316906370a082319060240160206040518083038186803b15801561271d57600080fd5b505afa158015612731573d6000803e3d6000fd5b505050506040513d601f19601f8201168201806040525081019061275591906151a2565b95505b505b612764858a61220d565b9950898511612774576000612787565b6127876127818b876151d1565b8d61220d565b6040516302df682360e11b815260048101829052602481018d9052604481018c9052909c507f00000000000000000000000000000000000000000000000000000000000000006001600160a01b0316906305bed04690606401600060405180830381600087803b1580156127fa57600080fd5b505af115801561280e573d6000803e3d6000fd5b50506040516370a0823160e01b8152306004820152600092507f00000000000000000000000000000000000000000000000000000000000000006001600160a01b031691506370a082319060240160206040518083038186803b15801561287457600080fd5b505afa158015612888573d6000803e3d6000fd5b505050506040513d601f19601f820116820180604052508101906128ac91906151a2565b90506128b88188614235565b6009546040516370a0823160e01b815230600482015260009182916129be91839182916001600160a01b0316906370a082319060240160206040518083038186803b15801561290657600080fd5b505afa15801561291a573d6000803e3d6000fd5b505050506040513d601f19601f8201168201806040525081019061293e91906151a2565b6000546040516370a0823160e01b81523060048201526001600160a01b03909116906370a082319060240160206040518083038186803b15801561298157600080fd5b505afa158015612995573d6000803e3d6000fd5b505050506040513d601f19601f820116820180604052508101906129b991906151a2565b614357565b909250905080156129d8576129d3818a6149b6565b612a59565b8115612a595760085460405163a415bcad60e01b81526001600160a01b039182166004820152602481018490526002604482015260006064820152306084820152908a169063a415bcad9060a401600060405180830381600087803b158015612a4057600080fd5b505af1158015612a54573d6000803e3d6000fd5b505050505b6008546040516370a0823160e01b81523060048201526000916001600160a01b0316906370a082319060240160206040518083038186803b158015612a9d57600080fd5b505afa158015612ab1573d6000803e3d6000fd5b505050506040513d601f19601f82011682018060405250810190612ad591906151a2565b90508015612ae657612ae681614a36565b50505050505050505050505050909192565b60606000611e4783614aac565b60008054906101000a90046001600160a01b03166001600160a01b0316816001600160a01b031663fc0c546a6040518163ffffffff1660e01b815260040160206040518083038186803b158015612b5b57600080fd5b505afa158015612b6f573d6000803e3d6000fd5b505050506040513d601f19601f82011682018060405250810190612b9391906151e8565b6001600160a01b031614612be95760405162461bcd60e51b815260206004820152601360248201527f77726f6e672d726563656970742d746f6b656e00000000000000000000000000604482015260640161050b565b6009546040516370a0823160e01b8152306004820152610676916001600160a01b0316906370a082319060240160206040518083038186803b158015612c2e57600080fd5b505afa158015612c42573d6000803e3d6000fd5b505050506040513d601f19601f82011682018060405250810190612c6691906151a2565b7f00000000000000000000000000000000000000000000000000000000000000006001600160a01b031663026b1d5f6040518163ffffffff1660e01b815260040160206040518083038186803b158015612cbf57600080fd5b505afa158015612cd3573d6000803e3d6000fd5b505050506040513d601f19601f82011682018060405250810190612cf791906151e8565b6149b6565b801580612d855750604051636eb1769f60e11b81523060048201526001600160a01b03838116602483015284169063dd62ed3e9060440160206040518083038186803b158015612d4b57600080fd5b505afa158015612d5f573d6000803e3d6000fd5b505050506040513d601f19601f82011682018060405250810190612d8391906151a2565b155b612df75760405162461bcd60e51b815260206004820152603660248201527f5361666545524332303a20617070726f76652066726f6d206e6f6e2d7a65726f60448201527f20746f206e6f6e2d7a65726f20616c6c6f77616e636500000000000000000000606482015260840161050b565b6040516001600160a01b038316602482015260448101829052611f8990849063095ea7b360e01b90606401611fba565b600254604051636ccb2b0160e01b81526001600160a01b038581166004830152848116602483015260448201849052600160648301523060848301526000921690636ccb2b019060a401602060405180830381600087803b158015612e8b57600080fd5b505af1158015612e9f573d6000803e3d6000fd5b505050506040513d601f19601f82011682018060405250810190612ec391906151a2565b949350505050565b6000818152600183016020526040812054612f1257508154600181810184556000848152602080822090930184905584548482528286019093526040902091909155610ed9565b506000610ed9565b6000612f6f826040518060400160405280602081526020017f5361666545524332303a206c6f772d6c6576656c2063616c6c206661696c6564815250856001600160a01b0316614b089092919063ffffffff16565b805190915015611f895780806020019051810190612f8d9190615267565b611f895760405162461bcd60e51b815260206004820152602a60248201527f5361666545524332303a204552433230206f7065726174696f6e20646964206e6044820152691bdd081cdd58d8d9595960b21b606482015260840161050b565b600080548190613004906001600160a01b0316614b17565b8151919350915060005b818110156130fc57600083828151811061302a5761302a615282565b602002602001015111801561308a57507f00000000000000000000000000000000000000000000000000000000000000006001600160a01b031684828151811061307657613076615282565b60200260200101516001600160a01b031614155b156130ec576130ec8482815181106130a4576130a4615282565b60200260200101517f00000000000000000000000000000000000000000000000000000000000000008584815181106130df576130df615282565b6020026020010151614c60565b6130f581615298565b905061300e565b50505050565b6000836001600160a01b0316638bc6beb26040518163ffffffff1660e01b815260040160206040518083038186803b15801561313d57600080fd5b505afa158015613151573d6000803e3d6000fd5b505050506040513d601f19601f8201168201806040525081019061317591906151e8565b90506001600160a01b038116156130fc5760405163d279c19160e01b81523060048201526001600160a01b0382169063d279c19190602401600060405180830381600087803b1580156131c757600080fd5b505af11580156131db573d6000803e3d6000fd5b505050506000816001600160a01b031663c4f59f9b6040518163ffffffff1660e01b815260040160006040518083038186803b15801561321a57600080fd5b505afa15801561322e573d6000803e3d6000fd5b505050506040513d6000823e601f3d908101601f191682016040526132569190810190615394565b805190915060005b8181101561341457600083828151811061327a5761327a615282565b60209081029190910101516040516370a0823160e01b81523060048201526001600160a01b03909116906370a082319060240160206040518083038186803b1580156132c557600080fd5b505afa1580156132d9573d6000803e3d6000fd5b505050506040513d601f19601f820116820180604052508101906132fd91906151a2565b905060008111801561333a5750856001600160a01b031684838151811061332657613326615282565b60200260200101516001600160a01b031614155b1561340357866001600160a01b0316636ccb2b0185848151811061336057613360615282565b60209081029190910101516040516001600160e01b031960e084901b1681526001600160a01b0391821660048201529089166024820152604481018490526001606482015230608482015260a401602060405180830381600087803b1580156133c857600080fd5b505af19250505080156133f8575060408051601f3d908101601f191682019092526133f5918101906151a2565b60015b61340157613403565b505b5061340d81615298565b905061325e565b50505050505050565b600081815260018301602052604081205480156135065760006134416001836151d1565b8554909150600090613455906001906151d1565b90508181146134ba57600086600001828154811061347557613475615282565b906000526020600020015490508087600001848154811061349857613498615282565b6000918252602080832090910192909255918252600188019052604090208390555b85548690806134cb576134cb6153c9565b600190038181906000526020600020016000905590558560010160008681526020019081526020016000206000905560019350505050610ed9565b6000915050610ed9565b600061351f6000868585614357565b91505080156135325761353281856149b6565b600080546040516370a0823160e01b815230600482015261365a918891613655916001600160a01b0316906370a082319060240160206040518083038186803b15801561357e57600080fd5b505afa158015613592573d6000803e3d6000fd5b505050506040513d601f19601f820116820180604052508101906135b691906151a2565b6000546040516370a0823160e01b81526001600160a01b0391821660048201527f0000000000000000000000000000000000000000000000000000000000000000909116906370a08231906024015b60206040518083038186803b15801561361d57600080fd5b505afa158015613631573d6000803e3d6000fd5b505050506040513d601f19601f8201168201806040525081019061365591906151a2565b61220d565b604051631a4ca37b60e21b81526001600160a01b037f0000000000000000000000000000000000000000000000000000000000000000811660048301526024820183905230604483015291925082918716906369328dec90606401602060405180830381600087803b1580156136cf57600080fd5b505af11580156136e3573d6000803e3d6000fd5b505050506040513d601f19601f8201168201806040525081019061370791906151a2565b1460405180604001604052806002815260200161323960f01b815250906134145760405162461bcd60e51b815260040161050b9190615121565b61374a81614cfc565b6000600260009054906101000a90046001600160a01b031690506138297f00000000000000000000000000000000000000000000000000000000000000006001600160a01b031663026b1d5f6040518163ffffffff1660e01b815260040160206040518083038186803b1580156137c057600080fd5b505afa1580156137d4573d6000803e3d6000fd5b505050506040513d601f19601f820116820180604052508101906137f891906151e8565b6001600160a01b037f0000000000000000000000000000000000000000000000000000000000000000169084612cfc565b61385d6001600160a01b037f0000000000000000000000000000000000000000000000000000000000000000168284612cfc565b6139047f00000000000000000000000000000000000000000000000000000000000000006001600160a01b031663026b1d5f6040518163ffffffff1660e01b815260040160206040518083038186803b1580156138b957600080fd5b505afa1580156138cd573d6000803e3d6000fd5b505050506040513d601f19601f820116820180604052508101906138f191906151e8565b6008546001600160a01b03169084612cfc565b60085461391b906001600160a01b03168284612cfc565b60008054906101000a90046001600160a01b03166001600160a01b03166375d264136040518163ffffffff1660e01b815260040160206040518083038186803b15801561396757600080fd5b505afa925050508015613997575060408051601f3d908101601f19168201909252613994918101906151e8565b60015b61399f575050565b6000816001600160a01b031663b45ac1a96040518163ffffffff1660e01b815260040160006040518083038186803b1580156139da57600080fd5b505afa1580156139ee573d6000803e3d6000fd5b505050506040513d6000823e601f3d908101601f19168201604052613a169190810190615394565b905060005b8151811015613afd577f00000000000000000000000000000000000000000000000000000000000000006001600160a01b0316828281518110613a6057613a60615282565b60200260200101516001600160a01b031614158015613ab1575060085482516001600160a01b0390911690839083908110613a9d57613a9d615282565b60200260200101516001600160a01b031614155b15613aed57613aed8486848481518110613acd57613acd615282565b60200260200101516001600160a01b0316612cfc9092919063ffffffff16565b613af681615298565b9050613a1b565b5050505050565b6000836001600160a01b0316638bc6beb26040518163ffffffff1660e01b815260040160206040518083038186803b158015613b3f57600080fd5b505afa158015613b53573d6000803e3d6000fd5b505050506040513d601f19601f82011682018060405250810190613b7791906151e8565b90506001600160a01b038116156130fc576000816001600160a01b031663c4f59f9b6040518163ffffffff1660e01b815260040160006040518083038186803b158015613bc357600080fd5b505afa158015613bd7573d6000803e3d6000fd5b505050506040513d6000823e601f3d908101601f19168201604052613bff9190810190615394565b805190915060005b8181101561341457306001600160a01b031663440d7248848381518110613c3057613c30615282565b60200260200101516040518263ffffffff1660e01b8152600401613c6391906001600160a01b0391909116815260200190565b60206040518083038186803b158015613c7b57600080fd5b505afa158015613c8f573d6000803e3d6000fd5b505050506040513d601f19601f82011682018060405250810190613cb39190615267565b613cce57613cce8686858481518110613acd57613acd615282565b613cd781615298565b9050613c07565b6040516370a0823160e01b8152306004820152600090670de0b6b3a7640000906001600160a01b037f000000000000000000000000000000000000000000000000000000000000000016906370a082319060240160206040518083038186803b158015613d4a57600080fd5b505afa158015613d5e573d6000803e3d6000fd5b505050506040513d601f19601f82011682018060405250810190613d8291906151a2565b7f00000000000000000000000000000000000000000000000000000000000000006001600160a01b03166399530b066040518163ffffffff1660e01b815260040160206040518083038186803b158015613ddb57600080fd5b505afa158015613def573d6000803e3d6000fd5b505050506040513d601f19601f82011682018060405250810190613e1391906151a2565b613e1d91906153df565b613e2791906153fe565b6008546040516370a0823160e01b81523060048201526001600160a01b03909116906370a08231906024016117be565b6002546008546040516353b609b560e01b81526001600160a01b037f00000000000000000000000000000000000000000000000000000000000000008116600483015291821660248201526044810185905260009291909116906353b609b590606401602060405180830381600087803b158015613ed457600080fd5b505af1158015613ee8573d6000803e3d6000fd5b505050506040513d601f19601f82011682018060405250810190613f0c91906151a2565b90508015611f89576040516370a0823160e01b81523060048201526000907f00000000000000000000000000000000000000000000000000000000000000006001600160a01b0316906370a082319060240160206040518083038186803b158015613f7657600080fd5b505afa158015613f8a573d6000803e3d6000fd5b505050506040513d601f19601f82011682018060405250810190613fae91906151a2565b9050808211156140ae576000613fc482846151d1565b604051631a4ca37b60e21b81526001600160a01b037f0000000000000000000000000000000000000000000000000000000000000000811660048301526024820183905230604483015291925082918616906369328dec90606401602060405180830381600087803b15801561403957600080fd5b505af115801561404d573d6000803e3d6000fd5b505050506040513d601f19601f8201168201806040525081019061407191906151a2565b1460405180604001604052806002815260200161323960f01b815250906140ab5760405162461bcd60e51b815260040161050b9190615121565b50505b6002546008546040516381cc619b60e01b81526001600160a01b037f000000000000000000000000000000000000000000000000000000000000000081166004830152918216602482015260448101879052606481018590523060848201529116906381cc619b9060a401602060405180830381600087803b15801561413357600080fd5b505af1158015614147573d6000803e3d6000fd5b505050506040513d601f19601f82011682018060405250810190613afd91906151a2565b80156106765761417a81614d50565b6008546040516370a0823160e01b81523060048201526000916001600160a01b0316906370a082319060240160206040518083038186803b1580156141be57600080fd5b505afa1580156141d2573d6000803e3d6000fd5b505050506040513d601f19601f820116820180604052508101906141f691906151a2565b9050801561071057600854610710906001600160a01b03167f000000000000000000000000000000000000000000000000000000000000000083614c60565b81156107105760405163617ba03760e01b81526001600160a01b037f000000000000000000000000000000000000000000000000000000000000000081166004830152602482018490523060448301526000606483015282169063617ba03790608401600060405180830381600087803b1580156142b257600080fd5b505af19250505080156142c3575060015b610710576142cf615420565b806308c379a0141561434b57506142e461543c565b806142ef575061434d565b6142f8816154c6565b611a9b60f11b14611f895760405162461bcd60e51b815260206004820152600e60248201527f6465706f736974206661696c6564000000000000000000000000000000000000604482015260640161050b565b505b3d6000803e3d6000fd5b600080851580614365575084155b6143b15760405162461bcd60e51b815260206004820152601160248201527f616c6c2d696e7075742d67742d7a65726f000000000000000000000000000000604482015260640161050b565b6007546143c3575060009050826149ad565b60008087116143e9578584116143da5760006143f3565b6143e486856151d1565b6143f3565b6143f3878561523a565b9050806144075760008592509250506149ad565b60007f00000000000000000000000000000000000000000000000000000000000000006001600160a01b031663fca513a86040518163ffffffff1660e01b815260040160206040518083038186803b15801561446257600080fd5b505afa158015614476573d6000803e3d6000fd5b505050506040513d601f19601f8201168201806040525081019061449a91906151e8565b60085460405163b3596f0760e01b81526001600160a01b0391821660048201529192506000919083169063b3596f079060240160206040518083038186803b1580156144e557600080fd5b505afa1580156144f9573d6000803e3d6000fd5b505050506040513d601f19601f8201168201806040525081019061451d91906151a2565b60405163b3596f0760e01b81526001600160a01b037f00000000000000000000000000000000000000000000000000000000000000008116600483015291925060009184169063b3596f079060240160206040518083038186803b15801561458457600080fd5b505afa158015614598573d6000803e3d6000fd5b505050506040513d601f19601f820116820180604052508101906145bc91906151a2565b90508115806145c9575080155b156145de5760008895509550505050506149ad565b60007f00000000000000000000000000000000000000000000000000000000000000006001600160a01b031663e860accb6040518163ffffffff1660e01b815260040160206040518083038186803b15801561463957600080fd5b505afa15801561464d573d6000803e3d6000fd5b505050506040513d601f19601f8201168201806040525081019061467191906151e8565b604051633e15014160e01b81526001600160a01b037f0000000000000000000000000000000000000000000000000000000000000000811660048301529190911690633e150141906024016101406040518083038186803b1580156146d557600080fd5b505afa1580156146e9573d6000803e3d6000fd5b505050506040513d601f19601f8201168201806040525081019061470d91906154ea565b505050505050505091505060007f00000000000000000000000000000000000000000000000000000000000000006001600160a01b031663313ce5676040518163ffffffff1660e01b815260040160206040518083038186803b15801561477357600080fd5b505afa158015614787573d6000803e3d6000fd5b505050506040513d601f19601f820116820180604052508101906147ab9190615581565b6147b690600a615688565b6147c2906127106153df565b836147cd84896153df565b6147d791906153df565b6147e191906153fe565b9050600084600860009054906101000a90046001600160a01b03166001600160a01b031663313ce5676040518163ffffffff1660e01b815260040160206040518083038186803b15801561483457600080fd5b505afa158015614848573d6000803e3d6000fd5b505050506040513d601f19601f8201168201806040525081019061486c9190615581565b61487790600a615688565b61488190846153df565b61488b91906153fe565b9050806148a55760008b98509850505050505050506149ad565b6000612710600754836148b891906153df565b6148c291906153fe565b90506000612710600654846148d791906153df565b6148e191906153fe565b9050818d11156148fc576148f5818e6151d1565b99506149a3565b8c8111156149a35761490e8d826151d1565b600854600a546040516370a0823160e01b81526001600160a01b039182166004820152929d506000929116906370a082319060240160206040518083038186803b15801561495b57600080fd5b505afa15801561496f573d6000803e3d6000fd5b505050506040513d601f19601f8201168201806040525081019061499391906151a2565b9050808c11156149a157809b505b505b5050505050505050505b94509492505050565b6149bf82614ee9565b60085460405163573ade8160e01b81526001600160a01b03918216600482015260248101849052600260448201523060648201529082169063573ade8190608401600060405180830381600087803b158015614a1a57600080fd5b505af1158015614a2e573d6000803e3d6000fd5b505050505050565b60405163b6b55f2560e01b8152600481018290527f00000000000000000000000000000000000000000000000000000000000000006001600160a01b03169063b6b55f2590602401600060405180830381600087803b158015614a9857600080fd5b505af1158015613afd573d6000803e3d6000fd5b606081600001805480602002602001604051908101604052809291908181526020018280548015614afc57602002820191906000526020600020905b815481526020019060010190808311614ae8575b50505050509050919050565b6060612ec38484600085614ef2565b606080826001600160a01b03166375d264136040518163ffffffff1660e01b815260040160206040518083038186803b158015614b5357600080fd5b505afa925050508015614b83575060408051601f3d908101601f19168201909252614b80918101906151e8565b60015b614b8c57915091565b604080516001808252818301909252600091602080830190803683370190505090508481600081518110614bc257614bc2615282565b6001600160a01b03928316602091820292909201015260405163bb492bf560e01b81529083169063bb492bf590614bff9084903090600401615697565b600060405180830381600087803b158015614c1957600080fd5b505af1158015614c2d573d6000803e3d6000fd5b505050506040513d6000823e601f3d908101601f19168201604052614c5591908101906156c2565b935093505050915091565b600254604051636ccb2b0160e01b81526001600160a01b0385811660048301528481166024830152604482018490526001606483015230608483015290911690636ccb2b019060a401602060405180830381600087803b158015614cc357600080fd5b505af1925050508015614cf3575060408051601f3d908101601f19168201909252614cf0918101906151a2565b60015b6130fc57505050565b6106766001600160a01b037f0000000000000000000000000000000000000000000000000000000000000000167f000000000000000000000000000000000000000000000000000000000000000083612cfc565b80156106765760007f00000000000000000000000000000000000000000000000000000000000000006001600160a01b03166399530b066040518163ffffffff1660e01b815260040160206040518083038186803b158015614db157600080fd5b505afa158015614dc5573d6000803e3d6000fd5b505050506040513d601f19601f82011682018060405250810190614de991906151a2565b9050600081614e0084670de0b6b3a76400006153df565b614e0a91906153fe565b9050670de0b6b3a7640000614e1f83836153df565b614e2991906153fe565b8311614e355780614e40565b614e4081600161523a565b6040516370a0823160e01b81523060048201529091506001600160a01b037f00000000000000000000000000000000000000000000000000000000000000001690632e1a7d4d90614e9d90849084906370a0823190602401613605565b6040518263ffffffff1660e01b8152600401614ebb91815260200190565b600060405180830381600087803b158015614ed557600080fd5b505af1158015613414573d6000803e3d6000fd5b61067681614d50565b606082471015614f535760405162461bcd60e51b815260206004820152602660248201527f416464726573733a20696e73756666696369656e742062616c616e636520666f6044820152651c8818d85b1b60d21b606482015260840161050b565b843b614fa15760405162461bcd60e51b815260206004820152601d60248201527f416464726573733a2063616c6c20746f206e6f6e2d636f6e7472616374000000604482015260640161050b565b600080866001600160a01b03168587604051614fbd9190615788565b60006040518083038185875af1925050503d8060008114614ffa576040519150601f19603f3d011682016040523d82523d6000602084013e614fff565b606091505b509150915061500f82828661501a565b979650505050505050565b60608315615029575081611e47565b8251156150395782518084602001fd5b8160405162461bcd60e51b815260040161050b9190615121565b6001600160a01b038116811461067657600080fd5b60006020828403121561507a57600080fd5b8135611e4781615053565b60006020828403121561509757600080fd5b5035919050565b600081518084526020808501945080840160005b838110156150d75781516001600160a01b0316875295820195908201906001016150b2565b509495945050505050565b602081526000611e47602083018461509e565b60005b838110156151105781810151838201526020016150f8565b838111156130fc5750506000910152565b60208152600082518060208401526151408160408501602087016150f5565b601f01601f19169190910160400192915050565b6000806040838503121561516757600080fd5b823561517281615053565b946020939093013593505050565b6000806040838503121561519357600080fd5b50508035926020909101359150565b6000602082840312156151b457600080fd5b5051919050565b634e487b7160e01b600052601160045260246000fd5b6000828210156151e3576151e36151bb565b500390565b6000602082840312156151fa57600080fd5b8151611e4781615053565b600181811c9082168061521957607f821691505b602082108114156108f457634e487b7160e01b600052602260045260246000fd5b6000821982111561524d5761524d6151bb565b500190565b8051801515811461526257600080fd5b919050565b60006020828403121561527957600080fd5b611e4782615252565b634e487b7160e01b600052603260045260246000fd5b60006000198214156152ac576152ac6151bb565b5060010190565b634e487b7160e01b600052604160045260246000fd5b601f8201601f1916810167ffffffffffffffff811182821017156152ef576152ef6152b3565b6040525050565b600067ffffffffffffffff821115615310576153106152b3565b5060051b60200190565b600082601f83011261532b57600080fd5b81516020615338826152f6565b60405161534582826152c9565b83815260059390931b850182019282810191508684111561536557600080fd5b8286015b8481101561538957805161537c81615053565b8352918301918301615369565b509695505050505050565b6000602082840312156153a657600080fd5b815167ffffffffffffffff8111156153bd57600080fd5b612ec38482850161531a565b634e487b7160e01b600052603160045260246000fd5b60008160001904831182151516156153f9576153f96151bb565b500290565b60008261541b57634e487b7160e01b600052601260045260246000fd5b500490565b600060033d11156154395760046000803e5060005160e01c5b90565b600060443d101561544a5790565b6040516003193d81016004833e81513d67ffffffffffffffff816024840111818411171561547a57505050505090565b82850191508151818111156154925750505050505090565b843d87010160208285010111156154ac5750505050505090565b6154bb602082860101876152c9565b509095945050505050565b805160208083015191908110156108f45760001960209190910360031b1b16919050565b6000806000806000806000806000806101408b8d03121561550a57600080fd5b8a51995060208b0151985060408b0151975060608b0151965060808b0151955061553660a08c01615252565b945061554460c08c01615252565b935061555260e08c01615252565b92506155616101008c01615252565b91506155706101208c01615252565b90509295989b9194979a5092959850565b60006020828403121561559357600080fd5b815160ff81168114611e4757600080fd5b600181815b808511156155df5781600019048211156155c5576155c56151bb565b808516156155d257918102915b93841c93908002906155a9565b509250929050565b6000826155f657506001610ed9565b8161560357506000610ed9565b816001811461561957600281146156235761563f565b6001915050610ed9565b60ff841115615634576156346151bb565b50506001821b610ed9565b5060208310610133831016604e8410600b8410161715615662575081810a610ed9565b61566c83836155a4565b8060001904821115615680576156806151bb565b029392505050565b6000611e4760ff8416836155e7565b6040815260006156aa604083018561509e565b90506001600160a01b03831660208301529392505050565b600080604083850312156156d557600080fd5b825167ffffffffffffffff808211156156ed57600080fd5b6156f98683870161531a565b935060209150818501518181111561571057600080fd5b85019050601f8101861361572357600080fd5b805161572e816152f6565b60405161573b82826152c9565b82815260059290921b830184019184810191508883111561575b57600080fd5b928401925b8284101561577957835182529284019290840190615760565b80955050505050509250929050565b6000825161579a8184602087016150f5565b919091019291505056fea264697066735822122024155d801a1f1d30407932bceddcd5c0d17db64046e8720726bca61b12cdf6ec64736f6c63430008090033",
  "devdoc": {
    "kind": "dev",
    "methods": {
      "addKeeper(address)": {
        "params": {
          "_keeperAddress": "keeper address to add."
        }
      },
      "approveToken(uint256)": {
        "details": "Approve all required tokens"
      },
      "migrate(address)": {
        "details": "_beforeMigration hook can be implemented in child strategy to do extra steps.",
        "params": {
          "_newStrategy": "Address of new strategy"
        }
      },
      "rebalance()": {
        "returns": {
          "_loss": "Realized loss, if any, in collateral.",
          "_payback": "If strategy has any excess debt, we have to liquidate asset to payback excess debt.",
          "_profit": "Realized profit in collateral."
        }
      },
      "removeKeeper(address)": {
        "params": {
          "_keeperAddress": "keeper address to remove."
        }
      },
      "sweep(address)": {
        "params": {
          "_fromToken": "token address to sweep"
        }
      },
      "updateBorrowLimit(uint256,uint256)": {
        "details": "It is possible to set _maxBorrowLimit and _minBorrowLimit as 0 to not borrow anything",
        "params": {
          "_maxBorrowLimit": "It is % of actual collateral factor of protocol",
          "_minBorrowLimit": "It is % of actual collateral factor of protocol"
        }
      },
      "updateFeeCollector(address)": {
        "params": {
          "_feeCollector": "fee collector address"
        }
      },
      "updateSwapper(address)": {
        "params": {
          "_swapper": "swapper address"
        }
      },
      "withdraw(uint256)": {
        "params": {
          "_amount": "Amount of collateral token"
        }
      }
    },
    "title": "Deposit Collateral in Aave and earn interest by depositing borrowed token in a Vesper Pool.",
    "version": 1
  },
  "userdoc": {
    "kind": "user",
    "methods": {
      "addKeeper(address)": {
        "notice": "Add given address in keepers list."
      },
      "claimAndSwapRewards(uint256)": {
        "notice": "Claim rewardToken and convert rewardToken into collateral token."
      },
      "collateral()": {
        "notice": "Returns address of token correspond to collateral token"
      },
      "isReservedToken(address)": {
        "notice": "Check whether given token is reserved or not. Reserved tokens are not allowed to sweep."
      },
      "keepers()": {
        "notice": "Return list of keepers"
      },
      "migrate(address)": {
        "notice": "Migrate all asset and vault ownership,if any, to new strategy"
      },
      "rebalance()": {
        "notice": "OnlyKeeper: Rebalance profit, loss and investment of this strategy.  Calculate profit, loss and payback of this strategy and realize profit/loss and  withdraw fund for payback, if any, and submit this report to pool."
      },
      "removeKeeper(address)": {
        "notice": "Remove given address from keepers list."
      },
      "swapToCollateral(address,uint256)": {
        "notice": "onlyKeeper:: Swap given token into collateral token."
      },
      "sweep(address)": {
        "notice": "sweep given token to feeCollector of strategy"
      },
      "token()": {
        "notice": "Returns address of token correspond to receipt token"
      },
      "tvl()": {
        "notice": "Returns total collateral locked in the strategy"
      },
      "updateBorrowLimit(uint256,uint256)": {
        "notice": "Update upper and lower borrow limit. Usually maxBorrowLimit < 100% of actual collateral factor of protocol."
      },
      "updateFeeCollector(address)": {
        "notice": "Update fee collector"
      },
      "updateSwapper(address)": {
        "notice": "Update swapper"
      },
      "withdraw(uint256)": {
        "notice": "Withdraw collateral token from end protocol."
      }
    },
    "version": 1
  },
  "storageLayout": {
    "storage": [
      {
        "astId": 14399,
        "contract": "vesper-strategies/contracts/strategies/aave/v3/AaveV3VesperXy.sol:AaveV3VesperXy",
        "label": "receiptToken",
        "offset": 0,
        "slot": "0",
        "type": "t_address"
      },
      {
        "astId": 14405,
        "contract": "vesper-strategies/contracts/strategies/aave/v3/AaveV3VesperXy.sol:AaveV3VesperXy",
        "label": "feeCollector",
        "offset": 0,
        "slot": "1",
        "type": "t_address"
      },
      {
        "astId": 14408,
        "contract": "vesper-strategies/contracts/strategies/aave/v3/AaveV3VesperXy.sol:AaveV3VesperXy",
        "label": "swapper",
        "offset": 0,
        "slot": "2",
        "type": "t_contract(IRoutedSwapper)13247"
      },
      {
        "astId": 14421,
        "contract": "vesper-strategies/contracts/strategies/aave/v3/AaveV3VesperXy.sol:AaveV3VesperXy",
        "label": "_keepers",
        "offset": 0,
        "slot": "3",
        "type": "t_struct(AddressSet)3025_storage"
      },
      {
        "astId": 18060,
        "contract": "vesper-strategies/contracts/strategies/aave/v3/AaveV3VesperXy.sol:AaveV3VesperXy",
        "label": "NAME",
        "offset": 0,
        "slot": "5",
        "type": "t_string_storage"
      },
      {
        "astId": 18069,
        "contract": "vesper-strategies/contracts/strategies/aave/v3/AaveV3VesperXy.sol:AaveV3VesperXy",
        "label": "minBorrowLimit",
        "offset": 0,
        "slot": "6",
        "type": "t_uint256"
      },
      {
        "astId": 18072,
        "contract": "vesper-strategies/contracts/strategies/aave/v3/AaveV3VesperXy.sol:AaveV3VesperXy",
        "label": "maxBorrowLimit",
        "offset": 0,
        "slot": "7",
        "type": "t_uint256"
      },
      {
        "astId": 18077,
        "contract": "vesper-strategies/contracts/strategies/aave/v3/AaveV3VesperXy.sol:AaveV3VesperXy",
        "label": "borrowToken",
        "offset": 0,
        "slot": "8",
        "type": "t_address"
      },
      {
        "astId": 18080,
        "contract": "vesper-strategies/contracts/strategies/aave/v3/AaveV3VesperXy.sol:AaveV3VesperXy",
        "label": "vdToken",
        "offset": 0,
        "slot": "9",
        "type": "t_contract(AToken)9985"
      },
      {
        "astId": 18082,
        "contract": "vesper-strategies/contracts/strategies/aave/v3/AaveV3VesperXy.sol:AaveV3VesperXy",
        "label": "aBorrowToken",
        "offset": 0,
        "slot": "10",
        "type": "t_address"
      }
    ],
    "types": {
      "t_address": {
        "encoding": "inplace",
        "label": "address",
        "numberOfBytes": "20"
      },
      "t_array(t_bytes32)dyn_storage": {
        "base": "t_bytes32",
        "encoding": "dynamic_array",
        "label": "bytes32[]",
        "numberOfBytes": "32"
      },
      "t_bytes32": {
        "encoding": "inplace",
        "label": "bytes32",
        "numberOfBytes": "32"
      },
      "t_contract(AToken)9985": {
        "encoding": "inplace",
        "label": "contract AToken",
        "numberOfBytes": "20"
      },
      "t_contract(IRoutedSwapper)13247": {
        "encoding": "inplace",
        "label": "contract IRoutedSwapper",
        "numberOfBytes": "20"
      },
      "t_mapping(t_bytes32,t_uint256)": {
        "encoding": "mapping",
        "key": "t_bytes32",
        "label": "mapping(bytes32 => uint256)",
        "numberOfBytes": "32",
        "value": "t_uint256"
      },
      "t_string_storage": {
        "encoding": "bytes",
        "label": "string",
        "numberOfBytes": "32"
      },
      "t_struct(AddressSet)3025_storage": {
        "encoding": "inplace",
        "label": "struct EnumerableSet.AddressSet",
        "members": [
          {
            "astId": 3024,
            "contract": "vesper-strategies/contracts/strategies/aave/v3/AaveV3VesperXy.sol:AaveV3VesperXy",
            "label": "_inner",
            "offset": 0,
            "slot": "0",
            "type": "t_struct(Set)2724_storage"
          }
        ],
        "numberOfBytes": "64"
      },
      "t_struct(Set)2724_storage": {
        "encoding": "inplace",
        "label": "struct EnumerableSet.Set",
        "members": [
          {
            "astId": 2719,
            "contract": "vesper-strategies/contracts/strategies/aave/v3/AaveV3VesperXy.sol:AaveV3VesperXy",
            "label": "_values",
            "offset": 0,
            "slot": "0",
            "type": "t_array(t_bytes32)dyn_storage"
          },
          {
            "astId": 2723,
            "contract": "vesper-strategies/contracts/strategies/aave/v3/AaveV3VesperXy.sol:AaveV3VesperXy",
            "label": "_indexes",
            "offset": 0,
            "slot": "1",
            "type": "t_mapping(t_bytes32,t_uint256)"
          }
        ],
        "numberOfBytes": "64"
      },
      "t_uint256": {
        "encoding": "inplace",
        "label": "uint256",
        "numberOfBytes": "32"
      }
    }
  }
}