{
  "address": "0x9fBa263f1F95C73CDd2f7a0958E0a116Edf6be25",
  "abi": [
    {
      "inputs": [
        {
          "internalType": "address",
          "name": "_pool",
          "type": "address"
        },
        {
          "internalType": "address",
          "name": "_swapper",
          "type": "address"
        },
        {
          "internalType": "address",
          "name": "_comptroller",
          "type": "address"
        },
        {
          "internalType": "address",
          "name": "_rewardToken",
          "type": "address"
        },
        {
          "internalType": "address",
          "name": "_receiptToken",
          "type": "address"
        },
        {
          "internalType": "address",
          "name": "_borrowCToken",
          "type": "address"
        },
        {
          "internalType": "address",
          "name": "_vPool",
          "type": "address"
        },
        {
          "internalType": "string",
          "name": "_name",
          "type": "string"
        }
      ],
      "stateMutability": "nonpayable",
      "type": "constructor"
    },
    {
      "anonymous": false,
      "inputs": [
        {
          "indexed": false,
          "internalType": "uint256",
          "name": "previousMinBorrowLimit",
          "type": "uint256"
        },
        {
          "indexed": false,
          "internalType": "uint256",
          "name": "newMinBorrowLimit",
          "type": "uint256"
        },
        {
          "indexed": false,
          "internalType": "uint256",
          "name": "previousMaxBorrowLimit",
          "type": "uint256"
        },
        {
          "indexed": false,
          "internalType": "uint256",
          "name": "newMaxBorrowLimit",
          "type": "uint256"
        }
      ],
      "name": "UpdatedBorrowLimit",
      "type": "event"
    },
    {
      "anonymous": false,
      "inputs": [
        {
          "indexed": true,
          "internalType": "address",
          "name": "previousFeeCollector",
          "type": "address"
        },
        {
          "indexed": true,
          "internalType": "address",
          "name": "newFeeCollector",
          "type": "address"
        }
      ],
      "name": "UpdatedFeeCollector",
      "type": "event"
    },
    {
      "anonymous": false,
      "inputs": [
        {
          "indexed": true,
          "internalType": "contract IRoutedSwapper",
          "name": "oldSwapper",
          "type": "address"
        },
        {
          "indexed": true,
          "internalType": "contract IRoutedSwapper",
          "name": "newSwapper",
          "type": "address"
        }
      ],
      "name": "UpdatedSwapper",
      "type": "event"
    },
    {
      "inputs": [],
      "name": "NAME",
      "outputs": [
        {
          "internalType": "string",
          "name": "",
          "type": "string"
        }
      ],
      "stateMutability": "view",
      "type": "function"
    },
    {
      "inputs": [],
      "name": "VERSION",
      "outputs": [
        {
          "internalType": "string",
          "name": "",
          "type": "string"
        }
      ],
      "stateMutability": "view",
      "type": "function"
    },
    {
      "inputs": [
        {
          "internalType": "address",
          "name": "_keeperAddress",
          "type": "address"
        }
      ],
      "name": "addKeeper",
      "outputs": [],
      "stateMutability": "nonpayable",
      "type": "function"
    },
    {
      "inputs": [
        {
          "internalType": "uint256",
          "name": "_approvalAmount",
          "type": "uint256"
        }
      ],
      "name": "approveToken",
      "outputs": [],
      "stateMutability": "nonpayable",
      "type": "function"
    },
    {
      "inputs": [],
      "name": "borrowBalance",
      "outputs": [
        {
          "internalType": "uint256",
          "name": "",
          "type": "uint256"
        }
      ],
      "stateMutability": "view",
      "type": "function"
    },
    {
      "inputs": [],
      "name": "borrowCToken",
      "outputs": [
        {
          "internalType": "contract CToken",
          "name": "",
          "type": "address"
        }
      ],
      "stateMutability": "view",
      "type": "function"
    },
    {
      "inputs": [],
      "name": "borrowToken",
      "outputs": [
        {
          "internalType": "address",
          "name": "",
          "type": "address"
        }
      ],
      "stateMutability": "view",
      "type": "function"
    },
    {
      "inputs": [
        {
          "internalType": "uint256",
          "name": "_minAmountOut",
          "type": "uint256"
        }
      ],
      "name": "claimAndSwapRewards",
      "outputs": [
        {
          "internalType": "uint256",
          "name": "_amountOut",
          "type": "uint256"
        }
      ],
      "stateMutability": "nonpayable",
      "type": "function"
    },
    {
      "inputs": [],
      "name": "collateral",
      "outputs": [
        {
          "internalType": "address",
          "name": "",
          "type": "address"
        }
      ],
      "stateMutability": "view",
      "type": "function"
    },
    {
      "inputs": [],
      "name": "collateralToken",
      "outputs": [
        {
          "internalType": "contract IERC20",
          "name": "",
          "type": "address"
        }
      ],
      "stateMutability": "view",
      "type": "function"
    },
    {
      "inputs": [],
      "name": "comptroller",
      "outputs": [
        {
          "internalType": "contract Comptroller",
          "name": "",
          "type": "address"
        }
      ],
      "stateMutability": "view",
      "type": "function"
    },
    {
      "inputs": [],
      "name": "feeCollector",
      "outputs": [
        {
          "internalType": "address",
          "name": "",
          "type": "address"
        }
      ],
      "stateMutability": "view",
      "type": "function"
    },
    {
      "inputs": [
        {
          "internalType": "address",
          "name": "_token",
          "type": "address"
        }
      ],
      "name": "isReservedToken",
      "outputs": [
        {
          "internalType": "bool",
          "name": "",
          "type": "bool"
        }
      ],
      "stateMutability": "view",
      "type": "function"
    },
    {
      "inputs": [],
      "name": "keepers",
      "outputs": [
        {
          "internalType": "address[]",
          "name": "",
          "type": "address[]"
        }
      ],
      "stateMutability": "view",
      "type": "function"
    },
    {
      "inputs": [],
      "name": "maxBorrowLimit",
      "outputs": [
        {
          "internalType": "uint256",
          "name": "",
          "type": "uint256"
        }
      ],
      "stateMutability": "view",
      "type": "function"
    },
    {
      "inputs": [
        {
          "internalType": "address",
          "name": "_newStrategy",
          "type": "address"
        }
      ],
      "name": "migrate",
      "outputs": [],
      "stateMutability": "nonpayable",
      "type": "function"
    },
    {
      "inputs": [],
      "name": "minBorrowLimit",
      "outputs": [
        {
          "internalType": "uint256",
          "name": "",
          "type": "uint256"
        }
      ],
      "stateMutability": "view",
      "type": "function"
    },
    {
      "inputs": [],
      "name": "pool",
      "outputs": [
        {
          "internalType": "address",
          "name": "",
          "type": "address"
        }
      ],
      "stateMutability": "view",
      "type": "function"
    },
    {
      "inputs": [],
      "name": "rebalance",
      "outputs": [
        {
          "internalType": "uint256",
          "name": "_profit",
          "type": "uint256"
        },
        {
          "internalType": "uint256",
          "name": "_loss",
          "type": "uint256"
        },
        {
          "internalType": "uint256",
          "name": "_payback",
          "type": "uint256"
        }
      ],
      "stateMutability": "nonpayable",
      "type": "function"
    },
    {
      "inputs": [],
      "name": "receiptToken",
      "outputs": [
        {
          "internalType": "address",
          "name": "",
          "type": "address"
        }
      ],
      "stateMutability": "view",
      "type": "function"
    },
    {
      "inputs": [
        {
          "internalType": "uint256",
          "name": "_amountToRecover",
          "type": "uint256"
        }
      ],
      "name": "recoverBorrowToken",
      "outputs": [],
      "stateMutability": "nonpayable",
      "type": "function"
    },
    {
      "inputs": [
        {
          "internalType": "address",
          "name": "_keeperAddress",
          "type": "address"
        }
      ],
      "name": "removeKeeper",
      "outputs": [],
      "stateMutability": "nonpayable",
      "type": "function"
    },
    {
      "inputs": [],
      "name": "repayAll",
      "outputs": [],
      "stateMutability": "nonpayable",
      "type": "function"
    },
    {
      "inputs": [],
      "name": "rewardToken",
      "outputs": [
        {
          "internalType": "address",
          "name": "",
          "type": "address"
        }
      ],
      "stateMutability": "view",
      "type": "function"
    },
    {
      "inputs": [],
      "name": "supplyCToken",
      "outputs": [
        {
          "internalType": "contract CToken",
          "name": "",
          "type": "address"
        }
      ],
      "stateMutability": "view",
      "type": "function"
    },
    {
      "inputs": [
        {
          "internalType": "contract IERC20",
          "name": "_tokenIn",
          "type": "address"
        },
        {
          "internalType": "uint256",
          "name": "_minAmountOut",
          "type": "uint256"
        }
      ],
      "name": "swapToCollateral",
      "outputs": [
        {
          "internalType": "uint256",
          "name": "_amountOut",
          "type": "uint256"
        }
      ],
      "stateMutability": "nonpayable",
      "type": "function"
    },
    {
      "inputs": [],
      "name": "swapper",
      "outputs": [
        {
          "internalType": "contract IRoutedSwapper",
          "name": "",
          "type": "address"
        }
      ],
      "stateMutability": "view",
      "type": "function"
    },
    {
      "inputs": [
        {
          "internalType": "address",
          "name": "_fromToken",
          "type": "address"
        }
      ],
      "name": "sweep",
      "outputs": [],
      "stateMutability": "nonpayable",
      "type": "function"
    },
    {
      "inputs": [],
      "name": "token",
      "outputs": [
        {
          "internalType": "address",
          "name": "",
          "type": "address"
        }
      ],
      "stateMutability": "view",
      "type": "function"
    },
    {
      "inputs": [],
      "name": "tvl",
      "outputs": [
        {
          "internalType": "uint256",
          "name": "",
          "type": "uint256"
        }
      ],
      "stateMutability": "view",
      "type": "function"
    },
    {
      "inputs": [
        {
          "internalType": "uint256",
          "name": "_minBorrowLimit",
          "type": "uint256"
        },
        {
          "internalType": "uint256",
          "name": "_maxBorrowLimit",
          "type": "uint256"
        }
      ],
      "name": "updateBorrowLimit",
      "outputs": [],
      "stateMutability": "nonpayable",
      "type": "function"
    },
    {
      "inputs": [
        {
          "internalType": "address",
          "name": "_feeCollector",
          "type": "address"
        }
      ],
      "name": "updateFeeCollector",
      "outputs": [],
      "stateMutability": "nonpayable",
      "type": "function"
    },
    {
      "inputs": [
        {
          "internalType": "contract IRoutedSwapper",
          "name": "_swapper",
          "type": "address"
        }
      ],
      "name": "updateSwapper",
      "outputs": [],
      "stateMutability": "nonpayable",
      "type": "function"
    },
    {
      "inputs": [],
      "name": "vPool",
      "outputs": [
        {
          "internalType": "contract IVesperPool",
          "name": "",
          "type": "address"
        }
      ],
      "stateMutability": "view",
      "type": "function"
    },
    {
      "inputs": [
        {
          "internalType": "uint256",
          "name": "_amount",
          "type": "uint256"
        }
      ],
      "name": "withdraw",
      "outputs": [],
      "stateMutability": "nonpayable",
      "type": "function"
    },
    {
      "stateMutability": "payable",
      "type": "receive"
    }
  ],
  "transactionHash": "0xd178213a83c343c358101f2c6a53651c24dfea5e341d808863eafe94e2e95d4a",
  "args": [
    "0x19382707d5a47E74f60053b652Ab34b6e30Febad",
    "0x017CBF62b53313d5eE3aD1288daA95CD39AA11fE",
    "0x60CF091cD3f50420d50fD7f707414d0DF4751C58",
    "0x1DB2466d9F5e10D7090E7152B68d62703a2245F0",
    "0x8cD6b19A07d754bF36AdEEE79EDF4F2134a8F571",
    "0xEC8FEa79026FfEd168cCf5C627c7f486D77b765F",
    "0x539505Dde2B9771dEBE0898a84441c5E7fDF6BC0",
    "Sonne_Vesper_Xy_OP_USDC"
  ],
  "numDeployments": 1,
  "solcInputHash": "37f78c198e6ff5e3a25391f14e789893",
  "bytecode": "0x610140604052611b586006556121346007553480156200001e57600080fd5b50604051620069a9380380620069a98339810160408190526200004191620007ec565b8787878787878787878787878787868686868585858585846001600160a01b038316620000b55760405162461bcd60e51b815260206004820152601460248201527f706f6f6c2d616464726573732d69732d7a65726f00000000000000000000000060448201526064015b60405180910390fd5b6001600160a01b0382166200010d5760405162461bcd60e51b815260206004820152601760248201527f737761707065722d616464726573732d69732d7a65726f0000000000000000006044820152606401620000ac565b600280546001600160a01b0319166001600160a01b0384811691909117909155831660a081905260408051637e062a3560e11b8152905163fc0c546a91600480820192602092909190829003018186803b1580156200016b57600080fd5b505afa15801562000180573d6000803e3d6000fd5b505050506040513d601f19601f82011682018060405250810190620001a6919062000945565b6001600160a01b03908116608052600080546001600160a01b031916918316919091179055620001ed620001d73390565b6003620005ba60201b6200268d1790919060201c565b6200022f5760405162461bcd60e51b81526020600482015260116024820152701859190b5ad9595c195c8b59985a5b1959607a1b6044820152606401620000ac565b5050506001600160a01b0383166200028a5760405162461bcd60e51b815260206004820152601660248201527f63546f6b656e2d616464726573732d69732d7a65726f000000000000000000006044820152606401620000ac565b6001600160a01b038416620002e25760405162461bcd60e51b815260206004820152601b60248201527f636f6d7074726f6c6c65722d616464726573732d69732d7a65726f00000000006044820152606401620000ac565b8051620002f7906005906020840190620006e4565b50600980546001600160a01b0319166001600160a01b038681169190911790915583811660c052821660e0526200032e82620005da565b600880546001600160a01b0319166001600160a01b039290921691909117905560408051600280825260608201835260009260208301908036833701905050905083816000815181106200038657620003866200096c565b60200260200101906001600160a01b031690816001600160a01b0316815250508281600181518110620003bd57620003bd6200096c565b6001600160a01b039283166020918202929092010152600954604051631853304760e31b815291169063c299823890620003fc90849060040162000982565b600060405180830381600087803b1580156200041757600080fd5b505af11580156200042c573d6000803e3d6000fd5b505050506040513d6000823e601f3d908101601f19168201604052620004569190810190620009d1565b50505050506001600160a01b03871615159250620004ba9150505760405162461bcd60e51b815260206004820152601b60248201527f726577617264546f6b656e2d616464726573732d69732d7a65726f00000000006044820152606401620000ac565b5050506001600160a01b039081166101005260085460408051637e062a3560e11b815290519183169550918716935063fc0c546a92506004808301926020929190829003018186803b1580156200051057600080fd5b505afa15801562000525573d6000803e3d6000fd5b505050506040513d601f19601f820116820180604052508101906200054b919062000945565b6001600160a01b031614620005975760405162461bcd60e51b81526020600482015260116024820152701a5b9d985b1a590b59dc9bddcb5c1bdbdb607a1b6044820152606401620000ac565b506001600160a01b0316610120525062000abe9c50505050505050505050505050565b6000620005d1836001600160a01b03841662000692565b90505b92915050565b60006001600160a01b038216734ddc2d193948926d02f9b1fe9e1daa0718270ed514156200061d575073c02aaa39b223fe8d0a0e5c4f27ead9083c756cc2919050565b816001600160a01b0316636f307dc36040518163ffffffff1660e01b815260040160206040518083038186803b1580156200065757600080fd5b505afa1580156200066c573d6000803e3d6000fd5b505050506040513d601f19601f82011682018060405250810190620005d4919062000945565b6000818152600183016020526040812054620006db57508154600181810184556000848152602080822090930184905584548482528286019093526040902091909155620005d4565b506000620005d4565b828054620006f29062000a81565b90600052602060002090601f01602090048101928262000716576000855562000761565b82601f106200073157805160ff191683800117855562000761565b8280016001018555821562000761579182015b828111156200076157825182559160200191906001019062000744565b506200076f92915062000773565b5090565b5b808211156200076f576000815560010162000774565b6001600160a01b0381168114620007a057600080fd5b50565b634e487b7160e01b600052604160045260246000fd5b604051601f8201601f191681016001600160401b0381118282101715620007e457620007e4620007a3565b604052919050565b600080600080600080600080610100898b0312156200080a57600080fd5b885162000817816200078a565b809850506020808a01516200082c816200078a565b60408b01519098506200083f816200078a565b60608b015190975062000852816200078a565b60808b015190965062000865816200078a565b60a08b015190955062000878816200078a565b60c08b01519094506200088b816200078a565b60e08b01519093506001600160401b0380821115620008a957600080fd5b818c0191508c601f830112620008be57600080fd5b815181811115620008d357620008d3620007a3565b620008e7601f8201601f19168501620007b9565b91508082528d84828501011115620008fe57600080fd5b60005b818110156200091e57838101850151838201860152840162000901565b81811115620009305760008583850101525b50508093505050509295985092959890939650565b6000602082840312156200095857600080fd5b815162000965816200078a565b9392505050565b634e487b7160e01b600052603260045260246000fd5b6020808252825182820181905260009190848201906040850190845b81811015620009c55783516001600160a01b0316835292840192918401916001016200099e565b50909695505050505050565b60006020808385031215620009e557600080fd5b82516001600160401b0380821115620009fd57600080fd5b818501915085601f83011262000a1257600080fd5b81518181111562000a275762000a27620007a3565b8060051b915062000a3a848301620007b9565b818152918301840191848101908884111562000a5557600080fd5b938501935b8385101562000a755784518252938501939085019062000a5a565b98975050505050505050565b600181811c9082168062000a9657607f821691505b6020821081141562000ab857634e487b7160e01b600052602260045260246000fd5b50919050565b60805160a05160c05160e0516101005161012051615c1e62000d8b600039600081816104360152818161116e0152818161286d015281816128fd0152818161297901528181612c6c01528181612c9a01528181614b4301528181614c4c01528181614cf5015261573101526000818161068401528181613b9b01528181613c5701528181613c8c015281816146ae01526146ec01526000818161040201528181611394015281816123fc01528181612eb70152818161358d015281816138ac01528181613ae2015281816141490152818161443d01528181614fc40152818161504f015281816151b9015281816152f1015261542c01526000818161065001528181611d9101528181611e3501528181612a3b01528181612b1801528181612b9601528181612ccd015281816131810152818161348501528181613a8e015281816141fd0152818161428a0152818161439e015281816145a801528181615280015261534f0152600081816102b101528181610b6901528181610d4601528181610e8d01528181610f62015281816110150152818161155f015281816116710152818161173e0152818161196901528181611b770152818161249501528181612d7d01528181612e1a0152818161336701526156f60152600081816104de015281816105af015281816107db015281816109e901528181610a8c01528181610dd301528181610e6b01528181610ed901528181610f9501528181611465015281816114f401528181611536015281816118ed01528181611ee301528181611fc7015281816120ac0152818161227a015281816122b80152818161289801528181612d080152818161309f015281816130dc0152818161328401528181613c2d01528181613cad015281816146840152818161492c015281816149e401528181614a9f01528181614d7701528181614e380152818161525e015281816152b601526156d40152615c1e6000f3fe6080604052600436106102085760003560e01c8063a3f4df7e11610118578063e5328e06116100a0578063f7c618c11161006f578063f7c618c114610672578063fa3ae6dc146106a6578063fb7ee102146106bb578063fc0c546a146106db578063ffa1ad74146106f957600080fd5b8063e5328e06146105e9578063ec78e832146105fe578063ee330ee31461061e578063efead58c1461063e57600080fd5b8063ce5494bb116100e7578063ce5494bb14610540578063d2c35ce814610560578063d3033c3914610580578063d8dfeb45146105a0578063e260d747146105d357600080fd5b8063a3f4df7e146104aa578063b2016bd4146104cc578063c415b95c14610500578063c7ad27481461052057600080fd5b80633ac9fc111161019b5780635fe3b5671161016a5780635fe3b567146103d0578063620a96d5146103f05780636719578c146104245780637d7c2a1c14610458578063951dc22c1461048857600080fd5b80633ac9fc11146103405780634032b72b14610360578063440d724814610380578063456dc17a146103b057600080fd5b806316f0115b116101d757806316f0115b1461029f578063243cd14e146102eb5780632b3297f9146103005780632e1a7d4d1461032057600080fd5b806301681a62146102145780630181686c146102365780631026013a1461025f57806314ae9f2e1461027f57600080fd5b3661020f57005b600080fd5b34801561022057600080fd5b5061023461022f3660046157e6565b61072a565b005b34801561024257600080fd5b5061024c60075481565b6040519081526020015b60405180910390f35b34801561026b57600080fd5b5061024c61027a366004615803565b610981565b34801561028b57600080fd5b5061023461029a3660046157e6565b610b67565b3480156102ab57600080fd5b506102d37f000000000000000000000000000000000000000000000000000000000000000081565b6040516001600160a01b039091168152602001610256565b3480156102f757600080fd5b5061024c610caf565b34801561030c57600080fd5b506002546102d3906001600160a01b031681565b34801561032c57600080fd5b5061023461033b366004615803565b610d43565b34801561034c57600080fd5b5061023461035b366004615803565b610fbc565b34801561036c57600080fd5b5061023461037b3660046157e6565b611013565b34801561038c57600080fd5b506103a061039b3660046157e6565b61115b565b6040519015158152602001610256565b3480156103bc57600080fd5b506008546102d3906001600160a01b031681565b3480156103dc57600080fd5b506009546102d3906001600160a01b031681565b3480156103fc57600080fd5b506102d37f000000000000000000000000000000000000000000000000000000000000000081565b34801561043057600080fd5b506102d37f000000000000000000000000000000000000000000000000000000000000000081565b34801561046457600080fd5b5061046d6111a8565b60408051938452602084019290925290820152606001610256565b34801561049457600080fd5b5061049d61120d565b6040516102569190615860565b3480156104b657600080fd5b506104bf611219565b604051610256919061589f565b3480156104d857600080fd5b506102d37f000000000000000000000000000000000000000000000000000000000000000081565b34801561050c57600080fd5b506001546102d3906001600160a01b031681565b34801561052c57600080fd5b5061023461053b366004615803565b6112a7565b34801561054c57600080fd5b5061023461055b3660046157e6565b61166e565b34801561056c57600080fd5b5061023461057b3660046157e6565b611967565b34801561058c57600080fd5b5061023461059b3660046157e6565b611b75565b3480156105ac57600080fd5b507f00000000000000000000000000000000000000000000000000000000000000006102d3565b3480156105df57600080fd5b5061024c60065481565b3480156105f557600080fd5b5061024c611d83565b34801561060a57600080fd5b506000546102d3906001600160a01b031681565b34801561062a57600080fd5b5061024c6106393660046158d2565b611f75565b34801561064a57600080fd5b506102d37f000000000000000000000000000000000000000000000000000000000000000081565b34801561067e57600080fd5b506102d37f000000000000000000000000000000000000000000000000000000000000000081565b3480156106b257600080fd5b50610234612395565b3480156106c757600080fd5b506102346106d63660046158fe565b612493565b3480156106e757600080fd5b506000546001600160a01b03166102d3565b34801561070557600080fd5b506104bf604051806040016040528060058152602001640352e312e360dc1b81525081565b610737335b6003906126a9565b6107815760405162461bcd60e51b815260206004820152601660248201527531b0b63632b916b4b996b737ba16b096b5b2b2b832b960511b60448201526064015b60405180910390fd5b6001546001600160a01b03166107d95760405162461bcd60e51b815260206004820152601560248201527f6665652d636f6c6c6563746f722d6e6f742d73657400000000000000000000006044820152606401610778565b7f00000000000000000000000000000000000000000000000000000000000000006001600160a01b0316816001600160a01b0316141561085b5760405162461bcd60e51b815260206004820152601f60248201527f6e6f742d616c6c6f7765642d746f2d73776565702d636f6c6c61746572616c006044820152606401610778565b6108648161115b565b156108a85760405162461bcd60e51b815260206004820152601460248201527306e6f742d616c6c6f7765642d746f2d73776565760641b6044820152606401610778565b6001600160a01b03811673eeeeeeeeeeeeeeeeeeeeeeeeeeeeeeeeeeeeeeee14156108e6576001546108e3906001600160a01b0316476126cb565b50565b6040516370a0823160e01b81523060048201526000906001600160a01b038316906370a082319060240160206040518083038186803b15801561092857600080fd5b505afa15801561093c573d6000803e3d6000fd5b505050506040513d601f19601f820116820180604052508101906109609190615920565b60015490915061097d906001600160a01b038481169116836127e4565b5050565b600061098c3361072f565b6109d15760405162461bcd60e51b815260206004820152601660248201527531b0b63632b916b4b996b737ba16b096b5b2b2b832b960511b6044820152606401610778565b6040516370a0823160e01b81523060048201526000907f00000000000000000000000000000000000000000000000000000000000000006001600160a01b0316906370a082319060240160206040518083038186803b158015610a3357600080fd5b505afa158015610a47573d6000803e3d6000fd5b505050506040513d601f19601f82011682018060405250810190610a6b9190615920565b9050610a7561285c565b6040516370a0823160e01b815230600482015281907f00000000000000000000000000000000000000000000000000000000000000006001600160a01b0316906370a082319060240160206040518083038186803b158015610ad657600080fd5b505afa158015610aea573d6000803e3d6000fd5b505050506040513d601f19601f82011682018060405250810190610b0e9190615920565b610b18919061594f565b915082821015610b615760405162461bcd60e51b81526020600482015260146024820152731b9bdd0b595b9bdd59da0b585b5bdd5b9d13dd5d60621b6044820152606401610778565b50919050565b7f00000000000000000000000000000000000000000000000000000000000000006001600160a01b0316630c340a246040518163ffffffff1660e01b815260040160206040518083038186803b158015610bc057600080fd5b505afa158015610bd4573d6000803e3d6000fd5b505050506040513d601f19601f82011682018060405250810190610bf89190615976565b6001600160a01b0316336001600160a01b031614610c585760405162461bcd60e51b815260206004820152601a60248201527f63616c6c65722d69732d6e6f742d7468652d676f7665726e6f720000000000006044820152606401610778565b610c636003826128be565b6108e35760405162461bcd60e51b815260206004820152601460248201527f72656d6f76652d6b65657065722d6661696c65640000000000000000000000006044820152606401610778565b6000610cb96128d3565b6008546040516370a0823160e01b81523060048201526001600160a01b03909116906370a082319060240160206040518083038186803b158015610cfc57600080fd5b505afa158015610d10573d6000803e3d6000fd5b505050506040513d601f19601f82011682018060405250810190610d349190615920565b610d3e9190615993565b905090565b337f00000000000000000000000000000000000000000000000000000000000000006001600160a01b031614610dbb5760405162461bcd60e51b815260206004820152601960248201527f63616c6c65722d69732d6e6f742d7665737065722d706f6f6c000000000000006044820152606401610778565b6040516370a0823160e01b81523060048201526000907f00000000000000000000000000000000000000000000000000000000000000006001600160a01b0316906370a082319060240160206040518083038186803b158015610e1d57600080fd5b505afa158015610e31573d6000803e3d6000fd5b505050506040513d601f19601f82011682018060405250810190610e559190615920565b9050818110610eb25761097d6001600160a01b037f0000000000000000000000000000000000000000000000000000000000000000167f0000000000000000000000000000000000000000000000000000000000000000846127e4565b610ec4610ebf828461594f565b612a1c565b6040516370a0823160e01b81523060048201527f00000000000000000000000000000000000000000000000000000000000000006001600160a01b0316906370a082319060240160206040518083038186803b158015610f2357600080fd5b505afa158015610f37573d6000803e3d6000fd5b505050506040513d601f19601f82011682018060405250810190610f5b9190615920565b905061097d7f0000000000000000000000000000000000000000000000000000000000000000610f8b8484612c3b565b6001600160a01b037f00000000000000000000000000000000000000000000000000000000000000001691906127e4565b610fc53361072f565b61100a5760405162461bcd60e51b815260206004820152601660248201527531b0b63632b916b4b996b737ba16b096b5b2b2b832b960511b6044820152606401610778565b6108e381612c51565b7f00000000000000000000000000000000000000000000000000000000000000006001600160a01b0316630c340a246040518163ffffffff1660e01b815260040160206040518083038186803b15801561106c57600080fd5b505afa158015611080573d6000803e3d6000fd5b505050506040513d601f19601f820116820180604052508101906110a49190615976565b6001600160a01b0316336001600160a01b0316146111045760405162461bcd60e51b815260206004820152601a60248201527f63616c6c65722d69732d6e6f742d7468652d676f7665726e6f720000000000006044820152606401610778565b61110f60038261268d565b6108e35760405162461bcd60e51b815260206004820152601160248201527f6164642d6b65657065722d6661696c65640000000000000000000000000000006044820152606401610778565b600061116682612cc9565b806111a257507f00000000000000000000000000000000000000000000000000000000000000006001600160a01b0316826001600160a01b0316145b92915050565b600080806111b53361072f565b6111fa5760405162461bcd60e51b815260206004820152601660248201527531b0b63632b916b4b996b737ba16b096b5b2b2b832b960511b6044820152606401610778565b611202612d57565b925092509250909192565b6060610d3e60036133da565b60058054611226906159ab565b80601f0160208091040260200160405190810160405280929190818152602001828054611252906159ab565b801561129f5780601f106112745761010080835404028352916020019161129f565b820191906000526020600020905b81548152906001019060200180831161128257829003601f168201915b505050505081565b6112b03361072f565b6112f55760405162461bcd60e51b815260206004820152601660248201527531b0b63632b916b4b996b737ba16b096b5b2b2b832b960511b6044820152606401610778565b6008546040516370a0823160e01b81523060048201526000916001600160a01b0316906370a082319060240160206040518083038186803b15801561133957600080fd5b505afa15801561134d573d6000803e3d6000fd5b505050506040513d601f19601f820116820180604052508101906113719190615920565b6040516395dd919360e01b81523060048201529091506000906001600160a01b037f000000000000000000000000000000000000000000000000000000000000000016906395dd91939060240160206040518083038186803b1580156113d657600080fd5b505afa1580156113ea573d6000803e3d6000fd5b505050506040513d601f19601f8201168201806040525081019061140e9190615920565b905080821115611669576000611424828461594f565b90506000808511801561143657508482115b6114405781611442565b845b6040516370a0823160e01b81523060048201529091506000906001600160a01b037f000000000000000000000000000000000000000000000000000000000000000016906370a082319060240160206040518083038186803b1580156114a757600080fd5b505afa1580156114bb573d6000803e3d6000fd5b505050506040513d601f19601f820116820180604052508101906114df9190615920565b600854909150611519906001600160a01b03167f0000000000000000000000000000000000000000000000000000000000000000846133e7565b6040516370a0823160e01b81523060048201526001600160a01b037f0000000000000000000000000000000000000000000000000000000000000000169063a9059cbb907f000000000000000000000000000000000000000000000000000000000000000090849084906370a082319060240160206040518083038186803b1580156115a457600080fd5b505afa1580156115b8573d6000803e3d6000fd5b505050506040513d601f19601f820116820180604052508101906115dc9190615920565b6115e6919061594f565b6040516001600160e01b031960e085901b1681526001600160a01b0390921660048301526024820152604401602060405180830381600087803b15801561162c57600080fd5b505af1158015611640573d6000803e3d6000fd5b505050506040513d601f19601f8201168201806040525081019061166491906159f0565b505050505b505050565b337f00000000000000000000000000000000000000000000000000000000000000006001600160a01b0316146116e65760405162461bcd60e51b815260206004820152601960248201527f63616c6c65722d69732d6e6f742d7665737065722d706f6f6c000000000000006044820152606401610778565b6001600160a01b03811661173c5760405162461bcd60e51b815260206004820152601c60248201527f6e65772d73747261746567792d616464726573732d69732d7a65726f000000006044820152606401610778565b7f00000000000000000000000000000000000000000000000000000000000000006001600160a01b0316816001600160a01b03166316f0115b6040518163ffffffff1660e01b815260040160206040518083038186803b15801561179f57600080fd5b505afa1580156117b3573d6000803e3d6000fd5b505050506040513d601f19601f820116820180604052508101906117d79190615976565b6001600160a01b03161461182d5760405162461bcd60e51b815260206004820152601660248201527f6e6f742d76616c69642d6e65772d7374726174656779000000000000000000006044820152606401610778565b61183681613483565b6000546040516370a0823160e01b81523060048201526118ca9183916001600160a01b03909116906370a082319060240160206040518083038186803b15801561187f57600080fd5b505afa158015611893573d6000803e3d6000fd5b505050506040513d601f19601f820116820180604052508101906118b79190615920565b6000546001600160a01b031691906127e4565b6040516370a0823160e01b81523060048201526108e39082906001600160a01b037f000000000000000000000000000000000000000000000000000000000000000016906370a082319060240160206040518083038186803b15801561192f57600080fd5b505afa158015611943573d6000803e3d6000fd5b505050506040513d601f19601f82011682018060405250810190610f8b9190615920565b7f00000000000000000000000000000000000000000000000000000000000000006001600160a01b0316630c340a246040518163ffffffff1660e01b815260040160206040518083038186803b1580156119c057600080fd5b505afa1580156119d4573d6000803e3d6000fd5b505050506040513d601f19601f820116820180604052508101906119f89190615976565b6001600160a01b0316336001600160a01b031614611a585760405162461bcd60e51b815260206004820152601a60248201527f63616c6c65722d69732d6e6f742d7468652d676f7665726e6f720000000000006044820152606401610778565b6001600160a01b038116611aae5760405162461bcd60e51b815260206004820152601d60248201527f6665652d636f6c6c6563746f722d616464726573732d69732d7a65726f0000006044820152606401610778565b6001546001600160a01b0382811691161415611b0c5760405162461bcd60e51b815260206004820152601560248201527f6665652d636f6c6c6563746f722d69732d73616d6500000000000000000000006044820152606401610778565b6001546040516001600160a01b038084169216907f0f06062680f9bd68e786e9980d9bb03d73d5620fc3b345e417b6eacb310b970690600090a36001805473ffffffffffffffffffffffffffffffffffffffff19166001600160a01b0392909216919091179055565b7f00000000000000000000000000000000000000000000000000000000000000006001600160a01b0316630c340a246040518163ffffffff1660e01b815260040160206040518083038186803b158015611bce57600080fd5b505afa158015611be2573d6000803e3d6000fd5b505050506040513d601f19601f82011682018060405250810190611c069190615976565b6001600160a01b0316336001600160a01b031614611c665760405162461bcd60e51b815260206004820152601a60248201527f63616c6c65722d69732d6e6f742d7468652d676f7665726e6f720000000000006044820152606401610778565b6001600160a01b038116611cbc5760405162461bcd60e51b815260206004820152601760248201527f737761707065722d616464726573732d69732d7a65726f0000000000000000006044820152606401610778565b6002546001600160a01b0382811691161415611d1a5760405162461bcd60e51b815260206004820152600f60248201527f737761707065722d69732d73616d6500000000000000000000000000000000006044820152606401610778565b6002546040516001600160a01b038084169216907f6c953b7ec311055c20b96a42cea31e89528e375b1bf953a503db40854b3188fe90600090a36002805473ffffffffffffffffffffffffffffffffffffffff19166001600160a01b0392909216919091179055565b600080670de0b6b3a76400007f00000000000000000000000000000000000000000000000000000000000000006001600160a01b031663182df0f56040518163ffffffff1660e01b815260040160206040518083038186803b158015611de857600080fd5b505afa158015611dfc573d6000803e3d6000fd5b505050506040513d601f19601f82011682018060405250810190611e209190615920565b6040516370a0823160e01b81523060048201527f00000000000000000000000000000000000000000000000000000000000000006001600160a01b0316906370a082319060240160206040518083038186803b158015611e7f57600080fd5b505afa158015611e93573d6000803e3d6000fd5b505050506040513d601f19601f82011682018060405250810190611eb79190615920565b611ec19190615a0b565b611ecb9190615a2a565b6040516370a0823160e01b81523060048201529091507f00000000000000000000000000000000000000000000000000000000000000006001600160a01b0316906370a082319060240160206040518083038186803b158015611f2d57600080fd5b505afa158015611f41573d6000803e3d6000fd5b505050506040513d601f19601f82011682018060405250810190611f659190615920565b611f6f9082615993565b91505090565b6000611f803361072f565b611fc55760405162461bcd60e51b815260206004820152601660248201527531b0b63632b916b4b996b737ba16b096b5b2b2b832b960511b6044820152606401610778565b7f00000000000000000000000000000000000000000000000000000000000000006001600160a01b0316836001600160a01b031614156120475760405162461bcd60e51b815260206004820152601f60248201527f6e6f742d616c6c6f7765642d746f2d73776565702d636f6c6c61746572616c006044820152606401610778565b6120508361115b565b156120945760405162461bcd60e51b815260206004820152601460248201527306e6f742d616c6c6f7765642d746f2d73776565760641b6044820152606401610778565b6040516370a0823160e01b81523060048201526000907f00000000000000000000000000000000000000000000000000000000000000006001600160a01b0316906370a082319060240160206040518083038186803b1580156120f657600080fd5b505afa15801561210a573d6000803e3d6000fd5b505050506040513d601f19601f8201168201806040525081019061212e9190615920565b6040516370a0823160e01b81523060048201529091506000906001600160a01b038616906370a082319060240160206040518083038186803b15801561217357600080fd5b505afa158015612187573d6000803e3d6000fd5b505050506040513d601f19601f820116820180604052508101906121ab9190615920565b905080156122a157600254604051636eb1769f60e11b81523060048201526001600160a01b0391821660248201529086169063dd62ed3e9060440160206040518083038186803b1580156121fe57600080fd5b505afa158015612212573d6000803e3d6000fd5b505050506040513d601f19601f820116820180604052508101906122369190615920565b81111561227457600254612258906001600160a01b0387811691166000613618565b600254612274906001600160a01b038781169116600019613618565b61229f857f000000000000000000000000000000000000000000000000000000000000000083613743565b505b6040516370a0823160e01b815230600482015282907f00000000000000000000000000000000000000000000000000000000000000006001600160a01b0316906370a082319060240160206040518083038186803b15801561230257600080fd5b505afa158015612316573d6000803e3d6000fd5b505050506040513d601f19601f8201168201806040525081019061233a9190615920565b612344919061594f565b92508383101561238d5760405162461bcd60e51b81526020600482015260146024820152731b9bdd0b595b9bdd59da0b585b5bdd5b9d13dd5d60621b6044820152606401610778565b505092915050565b61239e3361072f565b6123e35760405162461bcd60e51b815260206004820152601660248201527531b0b63632b916b4b996b737ba16b096b5b2b2b832b960511b6044820152606401610778565b6040516305eff7ef60e21b8152306004820152612487907f00000000000000000000000000000000000000000000000000000000000000006001600160a01b0316906317bfdfbc90602401602060405180830381600087803b15801561244857600080fd5b505af115801561245c573d6000803e3d6000fd5b505050506040513d601f19601f820116820180604052508101906124809190615920565b60016137e7565b60006006819055600755565b7f00000000000000000000000000000000000000000000000000000000000000006001600160a01b0316630c340a246040518163ffffffff1660e01b815260040160206040518083038186803b1580156124ec57600080fd5b505afa158015612500573d6000803e3d6000fd5b505050506040513d601f19601f820116820180604052508101906125249190615976565b6001600160a01b0316336001600160a01b0316146125845760405162461bcd60e51b815260206004820152601a60248201527f63616c6c65722d69732d6e6f742d7468652d676f7665726e6f720000000000006044820152606401610778565b61271081106125d55760405162461bcd60e51b815260206004820152601860248201527f696e76616c69642d6d61782d626f72726f772d6c696d697400000000000000006044820152606401610778565b801580156125e1575081155b806125eb57508181115b6126375760405162461bcd60e51b815260206004820152601d60248201527f6d61782d73686f756c642d62652d6869676865722d7468616e2d6d696e0000006044820152606401610778565b6006546007546040805192835260208301859052820152606081018290527fedd77444afdf63401315e81ffe86d08f7865796e8ad2e11acf1d56a1393f07d59060800160405180910390a1600691909155600755565b60006126a2836001600160a01b03841661394a565b9392505050565b6001600160a01b038116600090815260018301602052604081205415156126a2565b8047101561271b5760405162461bcd60e51b815260206004820152601d60248201527f416464726573733a20696e73756666696369656e742062616c616e63650000006044820152606401610778565b6000826001600160a01b03168260405160006040518083038185875af1925050503d8060008114612768576040519150601f19603f3d011682016040523d82523d6000602084013e61276d565b606091505b50509050806116695760405162461bcd60e51b815260206004820152603a60248201527f416464726573733a20756e61626c6520746f2073656e642076616c75652c207260448201527f6563697069656e74206d617920686176652072657665727465640000000000006064820152608401610778565b6040516001600160a01b03831660248201526044810182905261166990849063a9059cbb60e01b906064015b60408051601f198184030181529190526020810180517bffffffffffffffffffffffffffffffffffffffffffffffffffffffff166001600160e01b031990931692909217909152613999565b612864613a6b565b6002546128bc907f0000000000000000000000000000000000000000000000000000000000000000906001600160a01b03167f0000000000000000000000000000000000000000000000000000000000000000613cd2565b565b60006126a2836001600160a01b038416613fe4565b6040516370a0823160e01b8152306004820152600090670de0b6b3a7640000906001600160a01b037f000000000000000000000000000000000000000000000000000000000000000016906370a082319060240160206040518083038186803b15801561293f57600080fd5b505afa158015612953573d6000803e3d6000fd5b505050506040513d601f19601f820116820180604052508101906129779190615920565b7f00000000000000000000000000000000000000000000000000000000000000006001600160a01b03166399530b066040518163ffffffff1660e01b815260040160206040518083038186803b1580156129d057600080fd5b505afa1580156129e4573d6000803e3d6000fd5b505050506040513d601f19601f82011682018060405250810190612a089190615920565b612a129190615a0b565b610d3e9190615a2a565b6000612a296000836140d7565b915050612a378160016137e7565b60007f00000000000000000000000000000000000000000000000000000000000000006001600160a01b031663182df0f56040518163ffffffff1660e01b815260040160206040518083038186803b158015612a9257600080fd5b505afa158015612aa6573d6000803e3d6000fd5b505050506040513d601f19601f82011682018060405250810190612aca9190615920565b612adc84670de0b6b3a7640000615a0b565b612ae69190615a2a565b9050801561166957604051633af9e66960e01b8152306004820152600090612c2a908590612c25906001600160a01b037f00000000000000000000000000000000000000000000000000000000000000001690633af9e66990602401602060405180830381600087803b158015612b5c57600080fd5b505af1158015612b70573d6000803e3d6000fd5b505050506040513d601f19601f82011682018060405250810190612b949190615920565b7f00000000000000000000000000000000000000000000000000000000000000006001600160a01b0316633b1d21a26040518163ffffffff1660e01b815260040160206040518083038186803b158015612bed57600080fd5b505afa158015612c01573d6000803e3d6000fd5b505050506040513d601f19601f82011682018060405250810190612c259190615920565b612c3b565b9050612c3581614592565b50505050565b6000818310612c4a57816126a2565b5090919050565b612c5a81614679565b600854612c91906001600160a01b03167f000000000000000000000000000000000000000000000000000000000000000083613618565b6002546108e3907f0000000000000000000000000000000000000000000000000000000000000000906001600160a01b031683614715565b60007f00000000000000000000000000000000000000000000000000000000000000006001600160a01b0316826001600160a01b03161480612d3c57507f00000000000000000000000000000000000000000000000000000000000000006001600160a01b0316826001600160a01b0316145b806111a25750506008546001600160a01b0390811691161490565b604051636a9eee1360e11b81523060048201526000908190819081906001600160a01b037f0000000000000000000000000000000000000000000000000000000000000000169063d53ddc269060240160206040518083038186803b158015612dbf57600080fd5b505afa158015612dd3573d6000803e3d6000fd5b505050506040513d601f19601f82011682018060405250810190612df79190615920565b604051639f2b283360e01b81523060048201529091506000906001600160a01b037f00000000000000000000000000000000000000000000000000000000000000001690639f2b28339060240160206040518083038186803b158015612e5c57600080fd5b505afa158015612e70573d6000803e3d6000fd5b505050506040513d601f19601f82011682018060405250810190612e949190615920565b6040516305eff7ef60e21b81523060048201529091506000906001600160a01b037f000000000000000000000000000000000000000000000000000000000000000016906317bfdfbc90602401602060405180830381600087803b158015612efb57600080fd5b505af1158015612f0f573d6000803e3d6000fd5b505050506040513d601f19601f82011682018060405250810190612f339190615920565b6008546040516370a0823160e01b81523060048201529192506000916001600160a01b03909116906370a082319060240160206040518083038186803b158015612f7c57600080fd5b505afa158015612f90573d6000803e3d6000fd5b505050506040513d601f19601f82011682018060405250810190612fb49190615920565b90506000612fc06128d3565b90506000612fce8284615993565b905080841115612fef57612fea612fe5828661594f565b61490f565b6130c4565b8382111561308757613009613004858461594f565b614b3f565b6008546040516370a0823160e01b81523060048201526001600160a01b03909116906370a082319060240160206040518083038186803b15801561304c57600080fd5b505afa158015613060573d6000803e3d6000fd5b505050506040513d601f19601f820116820180604052508101906130849190615920565b92505b82156130c4576008546130c4906001600160a01b03167f0000000000000000000000000000000000000000000000000000000000000000856133e7565b6040516370a0823160e01b81523060048201526000907f00000000000000000000000000000000000000000000000000000000000000006001600160a01b0316906370a082319060240160206040518083038186803b15801561312657600080fd5b505afa15801561313a573d6000803e3d6000fd5b505050506040513d601f19601f8201168201806040525081019061315e9190615920565b604051633af9e66960e01b81523060048201529091506000906001600160a01b037f00000000000000000000000000000000000000000000000000000000000000001690633af9e66990602401602060405180830381600087803b1580156131c557600080fd5b505af11580156131d9573d6000803e3d6000fd5b505050506040513d601f19601f820116820180604052508101906131fd9190615920565b9050600061320b8383615993565b9050878111156132265761321f888261594f565b9b50613233565b613230818961594f565b9a505b600061323f8a8e615993565b90508084101561330b57600061325e613258868461594f565b85612c3b565b905080156133095761326f81612a1c565b6040516370a0823160e01b81523060048201527f00000000000000000000000000000000000000000000000000000000000000006001600160a01b0316906370a082319060240160206040518083038186803b1580156132ce57600080fd5b505afa1580156132e2573d6000803e3d6000fd5b505050506040513d601f19601f820116820180604052508101906133069190615920565b94505b505b613315848b612c3b565b9a508a8411613325576000613338565b6133386133328c8661594f565b8e612c3b565b6040516302df682360e11b815260048101829052602481018e9052604481018d9052909d506001600160a01b037f000000000000000000000000000000000000000000000000000000000000000016906305bed04690606401600060405180830381600087803b1580156133ab57600080fd5b505af11580156133bf573d6000803e3d6000fd5b505050506133cb614d5f565b50505050505050505050909192565b606060006126a283614ed1565b600254604051636ccb2b0160e01b81526001600160a01b0385811660048301528481166024830152604482018490526001606483015230608483015290911690636ccb2b019060a401602060405180830381600087803b15801561344a57600080fd5b505af192505050801561347a575060408051601f3d908101601f1916820190925261347791810190615920565b60015b612c3557505050565b7f00000000000000000000000000000000000000000000000000000000000000006001600160a01b0316816001600160a01b031663fc0c546a6040518163ffffffff1660e01b815260040160206040518083038186803b1580156134e657600080fd5b505afa1580156134fa573d6000803e3d6000fd5b505050506040513d601f19601f8201168201806040525081019061351e9190615976565b6001600160a01b0316146135745760405162461bcd60e51b815260206004820152601360248201527f77726f6e672d726563656970742d746f6b656e000000000000000000000000006044820152606401610778565b6040516305eff7ef60e21b81523060048201526108e3907f00000000000000000000000000000000000000000000000000000000000000006001600160a01b0316906317bfdfbc90602401602060405180830381600087803b1580156135d957600080fd5b505af11580156135ed573d6000803e3d6000fd5b505050506040513d601f19601f820116820180604052508101906136119190615920565b60006137e7565b8015806136a15750604051636eb1769f60e11b81523060048201526001600160a01b03838116602483015284169063dd62ed3e9060440160206040518083038186803b15801561366757600080fd5b505afa15801561367b573d6000803e3d6000fd5b505050506040513d601f19601f8201168201806040525081019061369f9190615920565b155b6137135760405162461bcd60e51b815260206004820152603660248201527f5361666545524332303a20617070726f76652066726f6d206e6f6e2d7a65726f60448201527f20746f206e6f6e2d7a65726f20616c6c6f77616e6365000000000000000000006064820152608401610778565b6040516001600160a01b03831660248201526044810182905261166990849063095ea7b360e01b90606401612810565b600254604051636ccb2b0160e01b81526001600160a01b038581166004830152848116602483015260448201849052600160648301523060848301526000921690636ccb2b019060a401602060405180830381600087803b1580156137a757600080fd5b505af11580156137bb573d6000803e3d6000fd5b505050506040513d601f19601f820116820180604052508101906137df9190615920565b949350505050565b811561097d5760006137f76128d3565b6008546040516370a0823160e01b81523060048201526001600160a01b03909116906370a082319060240160206040518083038186803b15801561383a57600080fd5b505afa15801561384e573d6000803e3d6000fd5b505050506040513d601f19601f820116820180604052508101906138729190615920565b61387c9190615993565b9050808311156139415781156138945761389461285c565b6040516305eff7ef60e21b81523060048201526000907f00000000000000000000000000000000000000000000000000000000000000006001600160a01b0316906317bfdfbc90602401602060405180830381600087803b1580156138f857600080fd5b505af115801561390c573d6000803e3d6000fd5b505050506040513d601f19601f820116820180604052508101906139309190615920565b905061393f612fe5838361594f565b505b61166983614f2d565b6000818152600183016020526040812054613991575081546001818101845560008481526020808220909301849055845484825282860190935260409020919091556111a2565b5060006111a2565b60006139ee826040518060400160405280602081526020017f5361666545524332303a206c6f772d6c6576656c2063616c6c206661696c6564815250856001600160a01b03166151209092919063ffffffff16565b8051909150156116695780806020019051810190613a0c91906159f0565b6116695760405162461bcd60e51b815260206004820152602a60248201527f5361666545524332303a204552433230206f7065726174696f6e20646964206e6044820152691bdd081cdd58d8d9595960b21b6064820152608401610778565b6040805160028082526060820183526000926020830190803683370190505090507f000000000000000000000000000000000000000000000000000000000000000081600081518110613ac057613ac0615a62565b60200260200101906001600160a01b031690816001600160a01b0316815250507f000000000000000000000000000000000000000000000000000000000000000081600181518110613b1457613b14615a62565b6001600160a01b03928316602091820292909201015260095460405162e1ed9760e51b8152911690631c3db2e090613b529030908590600401615a78565b600060405180830381600087803b158015613b6c57600080fd5b505af1158015613b80573d6000803e3d6000fd5b50506040516370a0823160e01b8152306004820152600092507f00000000000000000000000000000000000000000000000000000000000000006001600160a01b031691506370a082319060240160206040518083038186803b158015613be657600080fd5b505afa158015613bfa573d6000803e3d6000fd5b505050506040513d601f19601f82011682018060405250810190613c1e9190615920565b9050600081118015613c8257507f00000000000000000000000000000000000000000000000000000000000000006001600160a01b03167f00000000000000000000000000000000000000000000000000000000000000006001600160a01b031614155b1561097d5761097d7f00000000000000000000000000000000000000000000000000000000000000007f0000000000000000000000000000000000000000000000000000000000000000836133e7565b6000836001600160a01b0316638bc6beb26040518163ffffffff1660e01b815260040160206040518083038186803b158015613d0d57600080fd5b505afa158015613d21573d6000803e3d6000fd5b505050506040513d601f19601f82011682018060405250810190613d459190615976565b90506001600160a01b03811615612c355760405163d279c19160e01b81523060048201526001600160a01b0382169063d279c19190602401600060405180830381600087803b158015613d9757600080fd5b505af1158015613dab573d6000803e3d6000fd5b505050506000816001600160a01b031663c4f59f9b6040518163ffffffff1660e01b815260040160006040518083038186803b158015613dea57600080fd5b505afa158015613dfe573d6000803e3d6000fd5b505050506040513d6000823e601f3d908101601f19168201604052613e269190810190615a9a565b805190915060005b81811015611664576000838281518110613e4a57613e4a615a62565b60209081029190910101516040516370a0823160e01b81523060048201526001600160a01b03909116906370a082319060240160206040518083038186803b158015613e9557600080fd5b505afa158015613ea9573d6000803e3d6000fd5b505050506040513d601f19601f82011682018060405250810190613ecd9190615920565b9050600081118015613f0a5750856001600160a01b0316848381518110613ef657613ef6615a62565b60200260200101516001600160a01b031614155b15613fd357866001600160a01b0316636ccb2b01858481518110613f3057613f30615a62565b60209081029190910101516040516001600160e01b031960e084901b1681526001600160a01b0391821660048201529089166024820152604481018490526001606482015230608482015260a401602060405180830381600087803b158015613f9857600080fd5b505af1925050508015613fc8575060408051601f3d908101601f19168201909252613fc591810190615920565b60015b613fd157613fd3565b505b50613fdd81615b5f565b9050613e2e565b600081815260018301602052604081205480156140cd57600061400860018361594f565b855490915060009061401c9060019061594f565b905081811461408157600086600001828154811061403c5761403c615a62565b906000526020600020015490508087600001848154811061405f5761405f615a62565b6000918252602080832090910192909255918252600188019052604090208390555b855486908061409257614092615b7a565b6001900381819060005260206000200160009055905585600101600086815260200190815260200160002060009055600193505050506111a2565b60009150506111a2565b6000808315806140e5575082155b6141315760405162461bcd60e51b815260206004820152601160248201527f616c6c2d696e7075742d67742d7a65726f0000000000000000000000000000006044820152606401610778565b6040516305eff7ef60e21b81523060048201526000907f00000000000000000000000000000000000000000000000000000000000000006001600160a01b0316906317bfdfbc90602401602060405180830381600087803b15801561419557600080fd5b505af11580156141a9573d6000803e3d6000fd5b505050506040513d601f19601f820116820180604052508101906141cd9190615920565b9050600754600014156141e55760009250905061458b565b604051633af9e66960e01b81523060048201526000907f00000000000000000000000000000000000000000000000000000000000000006001600160a01b031690633af9e66990602401602060405180830381600087803b15801561424957600080fd5b505af115801561425d573d6000803e3d6000fd5b505050506040513d601f19601f820116820180604052508101906142819190615920565b905060006142ae7f000000000000000000000000000000000000000000000000000000000000000061512f565b9050600087156142c9576142c28884615993565b90506142de565b868311156142de576142db878461594f565b90505b6000670de0b6b3a76400006142f38484615a0b565b6142fd9190615a2a565b90506000600960009054906101000a90046001600160a01b03166001600160a01b0316637dc0d1d06040518163ffffffff1660e01b815260040160206040518083038186803b15801561434f57600080fd5b505afa158015614363573d6000803e3d6000fd5b505050506040513d601f19601f820116820180604052508101906143879190615976565b60405163fc57d4df60e01b81526001600160a01b037f00000000000000000000000000000000000000000000000000000000000000008116600483015291925060009183169063fc57d4df9060240160206040518083038186803b1580156143ee57600080fd5b505afa158015614402573d6000803e3d6000fd5b505050506040513d601f19601f820116820180604052508101906144269190615920565b60405163fc57d4df60e01b81526001600160a01b037f00000000000000000000000000000000000000000000000000000000000000008116600483015291925060009184169063fc57d4df9060240160206040518083038186803b15801561448d57600080fd5b505afa1580156144a1573d6000803e3d6000fd5b505050506040513d601f19601f820116820180604052508101906144c59190615920565b90506000816144d48487615a0b565b6144de9190615a2a565b9050806144fa576000899a509a5050505050505050505061458b565b60006127106007548361450d9190615a0b565b6145179190615a2a565b905060006127106006548461452c9190615a0b565b6145369190615a2a565b9050818b11156145515761454a818c61594f565b9b5061457f565b8a81111561457f576145638b8261594f565b9c50600061456f6151b5565b9050808e111561457d57809d505b505b50505050505050505050505b9250929050565b60405163852a12e360e01b8152600481018290527f00000000000000000000000000000000000000000000000000000000000000006001600160a01b03169063852a12e390602401602060405180830381600087803b1580156145f457600080fd5b505af1158015614608573d6000803e3d6000fd5b505050506040513d601f19601f8201168201806040525081019061462c9190615920565b156108e35760405162461bcd60e51b815260206004820152600f60248201527f77697468647261772d6661696c656400000000000000000000000000000000006044820152606401610778565b61468281615248565b7f00000000000000000000000000000000000000000000000000000000000000006001600160a01b03167f00000000000000000000000000000000000000000000000000000000000000006001600160a01b0316146108e3576002546108e3906001600160a01b037f00000000000000000000000000000000000000000000000000000000000000008116911683613618565b6000836001600160a01b0316638bc6beb26040518163ffffffff1660e01b815260040160206040518083038186803b15801561475057600080fd5b505afa158015614764573d6000803e3d6000fd5b505050506040513d601f19601f820116820180604052508101906147889190615976565b90506001600160a01b03811615612c35576000816001600160a01b031663c4f59f9b6040518163ffffffff1660e01b815260040160006040518083038186803b1580156147d457600080fd5b505afa1580156147e8573d6000803e3d6000fd5b505050506040513d6000823e601f3d908101601f191682016040526148109190810190615a9a565b805190915060005b8181101561166457306001600160a01b031663440d724884838151811061484157614841615a62565b60200260200101516040518263ffffffff1660e01b815260040161487491906001600160a01b0391909116815260200190565b60206040518083038186803b15801561488c57600080fd5b505afa1580156148a0573d6000803e3d6000fd5b505050506040513d601f19601f820116820180604052508101906148c491906159f0565b6148ff576148ff86868584815181106148df576148df615a62565b60200260200101516001600160a01b03166136189092919063ffffffff16565b61490881615b5f565b9050614818565b6002546008546040516353b609b560e01b81526001600160a01b037f00000000000000000000000000000000000000000000000000000000000000008116600483015291821660248201526044810184905260009291909116906353b609b590606401602060405180830381600087803b15801561498c57600080fd5b505af11580156149a0573d6000803e3d6000fd5b505050506040513d601f19601f820116820180604052508101906149c49190615920565b9050801561097d576040516370a0823160e01b81523060048201526000907f00000000000000000000000000000000000000000000000000000000000000006001600160a01b0316906370a082319060240160206040518083038186803b158015614a2e57600080fd5b505afa158015614a42573d6000803e3d6000fd5b505050506040513d601f19601f82011682018060405250810190614a669190615920565b905080821115614a8257614a82614a7d828461594f565b614592565b6002546008546040516381cc619b60e01b81526001600160a01b037f000000000000000000000000000000000000000000000000000000000000000081166004830152918216602482015260448101869052606481018590523060848201529116906381cc619b9060a401602060405180830381600087803b158015614b0757600080fd5b505af1158015614b1b573d6000803e3d6000fd5b505050506040513d601f19601f82011682018060405250810190612c359190615920565b60007f00000000000000000000000000000000000000000000000000000000000000006001600160a01b03166399530b066040518163ffffffff1660e01b815260040160206040518083038186803b158015614b9a57600080fd5b505afa158015614bae573d6000803e3d6000fd5b505050506040513d601f19601f82011682018060405250810190614bd29190615920565b9050600081614be984670de0b6b3a7640000615a0b565b614bf39190615a2a565b9050670de0b6b3a7640000614c088383615a0b565b614c129190615a2a565b8311614c1e5780614c29565b614c29816001615993565b6040516370a0823160e01b81523060048201529091506000906001600160a01b037f000000000000000000000000000000000000000000000000000000000000000016906370a082319060240160206040518083038186803b158015614c8e57600080fd5b505afa158015614ca2573d6000803e3d6000fd5b505050506040513d601f19601f82011682018060405250810190614cc69190615920565b9050808211614cd55781614cd7565b805b91508115612c3557604051632e1a7d4d60e01b8152600481018390527f00000000000000000000000000000000000000000000000000000000000000006001600160a01b031690632e1a7d4d90602401600060405180830381600087803b158015614d4157600080fd5b505af1158015614d55573d6000803e3d6000fd5b5050505050505050565b6040516370a0823160e01b81523060048201526000907f00000000000000000000000000000000000000000000000000000000000000006001600160a01b0316906370a082319060240160206040518083038186803b158015614dc157600080fd5b505afa158015614dd5573d6000803e3d6000fd5b505050506040513d601f19601f82011682018060405250810190614df99190615920565b9050600080614e098360006140d7565b90925090508015614ebf57614e1f8160006137e7565b6040516370a0823160e01b8152306004820152611669907f00000000000000000000000000000000000000000000000000000000000000006001600160a01b0316906370a082319060240160206040518083038186803b158015614e8257600080fd5b505afa158015614e96573d6000803e3d6000fd5b505050506040513d601f19601f82011682018060405250810190614eba9190615920565b615333565b614ec883615333565b61166982615410565b606081600001805480602002602001604051908101604052809291908181526020018280548015614f2157602002820191906000526020600020905b815481526020019060010190808311614f0d575b50505050509050919050565b614f3681615596565b6008546001600160a01b031673c02aaa39b223fe8d0a0e5c4f27ead9083c756cc2141561503957604051632e1a7d4d60e01b81526004810182905273c02aaa39b223fe8d0a0e5c4f27ead9083c756cc290632e1a7d4d90602401600060405180830381600087803b158015614faa57600080fd5b505af1158015614fbe573d6000803e3d6000fd5b505050507f00000000000000000000000000000000000000000000000000000000000000006001600160a01b0316634e4d9fea826040518263ffffffff1660e01b81526004016000604051808303818588803b15801561501d57600080fd5b505af1158015615031573d6000803e3d6000fd5b505050505050565b60405163073a938160e11b8152600481018290527f00000000000000000000000000000000000000000000000000000000000000006001600160a01b031690630e75270290602401602060405180830381600087803b15801561509b57600080fd5b505af11580156150af573d6000803e3d6000fd5b505050506040513d601f19601f820116820180604052508101906150d39190615920565b156108e35760405162461bcd60e51b815260206004820152601860248201527f72657061792d746f2d636f6d706f756e642d6661696c656400000000000000006044820152606401610778565b60606137df848460008561559f565b600954604051638e8f294b60e01b81526001600160a01b0383811660048301526000921690638e8f294b9060240160606040518083038186803b15801561517557600080fd5b505afa158015615189573d6000803e3d6000fd5b505050506040513d601f19601f820116820180604052508101906151ad9190615b90565b509392505050565b60007f00000000000000000000000000000000000000000000000000000000000000006001600160a01b0316633b1d21a26040518163ffffffff1660e01b815260040160206040518083038186803b15801561521057600080fd5b505afa158015615224573d6000803e3d6000fd5b505050506040513d601f19601f82011682018060405250810190610d3e9190615920565b615251816156c7565b6152a56001600160a01b037f0000000000000000000000000000000000000000000000000000000000000000167f000000000000000000000000000000000000000000000000000000000000000083613618565b6002546152df906001600160a01b037f00000000000000000000000000000000000000000000000000000000000000008116911683613618565b600854615316906001600160a01b03167f000000000000000000000000000000000000000000000000000000000000000083613618565b6002546008546108e3916001600160a01b03918216911683613618565b80156108e35760405163140e25ad60e31b8152600481018290527f00000000000000000000000000000000000000000000000000000000000000006001600160a01b03169063a0712d6890602401602060405180830381600087803b15801561539b57600080fd5b505af11580156153af573d6000803e3d6000fd5b505050506040513d601f19601f820116820180604052508101906153d39190615920565b156108e35760405162461bcd60e51b815260206004820152600d60248201526c1cdd5c1c1b1e4b59985a5b1959609a1b6044820152606401610778565b80156108e35760405163317afabb60e21b8152600481018290527f00000000000000000000000000000000000000000000000000000000000000006001600160a01b03169063c5ebeaec90602401602060405180830381600087803b15801561547857600080fd5b505af115801561548c573d6000803e3d6000fd5b505050506040513d601f19601f820116820180604052508101906154b09190615920565b156154fd5760405162461bcd60e51b815260206004820152601b60248201527f626f72726f772d66726f6d2d636f6d706f756e642d6661696c656400000000006044820152606401610778565b6008546001600160a01b031673c02aaa39b223fe8d0a0e5c4f27ead9083c756cc2141561558d5773c02aaa39b223fe8d0a0e5c4f27ead9083c756cc26001600160a01b031663d0e30db0476040518263ffffffff1660e01b81526004016000604051808303818588803b15801561557357600080fd5b505af1158015615587573d6000803e3d6000fd5b50505050505b6108e38161571b565b6108e381614b3f565b6060824710156156005760405162461bcd60e51b815260206004820152602660248201527f416464726573733a20696e73756666696369656e742062616c616e636520666f6044820152651c8818d85b1b60d21b6064820152608401610778565b843b61564e5760405162461bcd60e51b815260206004820152601d60248201527f416464726573733a2063616c6c20746f206e6f6e2d636f6e74726163740000006044820152606401610778565b600080866001600160a01b0316858760405161566a9190615bcc565b60006040518083038185875af1925050503d80600081146156a7576040519150601f19603f3d011682016040523d82523d6000602084013e6156ac565b606091505b50915091506156bc828286615798565b979650505050505050565b6108e36001600160a01b037f0000000000000000000000000000000000000000000000000000000000000000167f000000000000000000000000000000000000000000000000000000000000000083613618565b60405163b6b55f2560e01b8152600481018290527f00000000000000000000000000000000000000000000000000000000000000006001600160a01b03169063b6b55f2590602401600060405180830381600087803b15801561577d57600080fd5b505af1158015615791573d6000803e3d6000fd5b5050505050565b606083156157a75750816126a2565b8251156157b75782518084602001fd5b8160405162461bcd60e51b8152600401610778919061589f565b6001600160a01b03811681146108e357600080fd5b6000602082840312156157f857600080fd5b81356126a2816157d1565b60006020828403121561581557600080fd5b5035919050565b600081518084526020808501945080840160005b838110156158555781516001600160a01b031687529582019590820190600101615830565b509495945050505050565b6020815260006126a2602083018461581c565b60005b8381101561588e578181015183820152602001615876565b83811115612c355750506000910152565b60208152600082518060208401526158be816040850160208701615873565b601f01601f19169190910160400192915050565b600080604083850312156158e557600080fd5b82356158f0816157d1565b946020939093013593505050565b6000806040838503121561591157600080fd5b50508035926020909101359150565b60006020828403121561593257600080fd5b5051919050565b634e487b7160e01b600052601160045260246000fd5b60008282101561596157615961615939565b500390565b8051615971816157d1565b919050565b60006020828403121561598857600080fd5b81516126a2816157d1565b600082198211156159a6576159a6615939565b500190565b600181811c908216806159bf57607f821691505b60208210811415610b6157634e487b7160e01b600052602260045260246000fd5b8051801515811461597157600080fd5b600060208284031215615a0257600080fd5b6126a2826159e0565b6000816000190483118215151615615a2557615a25615939565b500290565b600082615a4757634e487b7160e01b600052601260045260246000fd5b500490565b634e487b7160e01b600052604160045260246000fd5b634e487b7160e01b600052603260045260246000fd5b6001600160a01b03831681526040602082015260006137df604083018461581c565b60006020808385031215615aad57600080fd5b825167ffffffffffffffff80821115615ac557600080fd5b818501915085601f830112615ad957600080fd5b815181811115615aeb57615aeb615a4c565b8060051b604051601f19603f83011681018181108582111715615b1057615b10615a4c565b604052918252848201925083810185019188831115615b2e57600080fd5b938501935b82851015615b5357615b4485615966565b84529385019392850192615b33565b98975050505050505050565b6000600019821415615b7357615b73615939565b5060010190565b634e487b7160e01b600052603160045260246000fd5b600080600060608486031215615ba557600080fd5b615bae846159e0565b925060208401519150615bc3604085016159e0565b90509250925092565b60008251615bde818460208701615873565b919091019291505056fea26469706673582212202b19dc7cba0e4a960703ad8d6e6e08dba7902fcd4894e844749211a0734a3e9264736f6c63430008090033",
  "devdoc": {
    "kind": "dev",
    "methods": {
      "addKeeper(address)": {
        "params": {
          "_keeperAddress": "keeper address to add."
        }
      },
      "approveToken(uint256)": {
        "details": "Approve all required tokens"
      },
      "migrate(address)": {
        "details": "_beforeMigration hook can be implemented in child strategy to do extra steps.",
        "params": {
          "_newStrategy": "Address of new strategy"
        }
      },
      "rebalance()": {
        "returns": {
          "_loss": "Realized loss, if any, in collateral.",
          "_payback": "If strategy has any excess debt, we have to liquidate asset to payback excess debt.",
          "_profit": "Realized profit in collateral."
        }
      },
      "recoverBorrowToken(uint256)": {
        "details": "If we get liquidation in Compound, we will have borrowToken sitting in strategy. This function allows to recover idle borrow token amount.",
        "params": {
          "_amountToRecover": "Amount of borrow token we want to recover in 1 call.      Set it 0 to recover all available borrow tokens"
        }
      },
      "removeKeeper(address)": {
        "params": {
          "_keeperAddress": "keeper address to remove."
        }
      },
      "repayAll()": {
        "details": "This action usually done when loss is detected in strategy.0 borrow limit make sure that any future rebalance do not borrow again."
      },
      "sweep(address)": {
        "params": {
          "_fromToken": "token address to sweep"
        }
      },
      "updateBorrowLimit(uint256,uint256)": {
        "details": "It is possible to set 0 as _minBorrowLimit to not borrow anything",
        "params": {
          "_maxBorrowLimit": "It is % of actual collateral factor of protocol",
          "_minBorrowLimit": "It is % of actual collateral factor of protocol"
        }
      },
      "updateFeeCollector(address)": {
        "params": {
          "_feeCollector": "fee collector address"
        }
      },
      "updateSwapper(address)": {
        "params": {
          "_swapper": "swapper address"
        }
      },
      "withdraw(uint256)": {
        "params": {
          "_amount": "Amount of collateral token"
        }
      }
    },
    "title": "Deposit Collateral in Sonne and earn interest by depositing borrowed token in a Vesper Pool.",
    "version": 1
  },
  "userdoc": {
    "kind": "user",
    "methods": {
      "addKeeper(address)": {
        "notice": "Add given address in keepers list."
      },
      "borrowBalance()": {
        "notice": "Gets amount of borrowed Y collateral in strategy + Y collateral amount deposited in vPool"
      },
      "claimAndSwapRewards(uint256)": {
        "notice": "Claim rewardToken and convert rewardToken into collateral token."
      },
      "collateral()": {
        "notice": "Returns address of token correspond to collateral token"
      },
      "isReservedToken(address)": {
        "notice": "Check whether given token is reserved or not. Reserved tokens are not allowed to sweep."
      },
      "keepers()": {
        "notice": "Return list of keepers"
      },
      "migrate(address)": {
        "notice": "Migrate all asset and vault ownership,if any, to new strategy"
      },
      "rebalance()": {
        "notice": "OnlyKeeper: Rebalance profit, loss and investment of this strategy.  Calculate profit, loss and payback of this strategy and realize profit/loss and  withdraw fund for payback, if any, and submit this report to pool."
      },
      "recoverBorrowToken(uint256)": {
        "notice": "Recover extra borrow tokens from strategy"
      },
      "removeKeeper(address)": {
        "notice": "Remove given address from keepers list."
      },
      "repayAll()": {
        "notice": "Repay all borrow amount and set min borrow limit to 0."
      },
      "swapToCollateral(address,uint256)": {
        "notice": "onlyKeeper:: Swap given token into collateral token."
      },
      "sweep(address)": {
        "notice": "sweep given token to feeCollector of strategy"
      },
      "token()": {
        "notice": "Returns address of token correspond to receipt token"
      },
      "tvl()": {
        "notice": "Returns total collateral locked in the strategy"
      },
      "updateBorrowLimit(uint256,uint256)": {
        "notice": "Update upper and lower borrow limit. Usually maxBorrowLimit < 100% of actual collateral factor of protocol."
      },
      "updateFeeCollector(address)": {
        "notice": "Update fee collector"
      },
      "updateSwapper(address)": {
        "notice": "Update swapper"
      },
      "withdraw(uint256)": {
        "notice": "Withdraw collateral token from end protocol."
      }
    },
    "version": 1
  },
  "storageLayout": {
    "storage": [
      {
        "astId": 14876,
        "contract": "vesper-strategies/contracts/strategies/compound/optimism/SonneVesperXy.sol:SonneVesperXy",
        "label": "receiptToken",
        "offset": 0,
        "slot": "0",
        "type": "t_address"
      },
      {
        "astId": 14882,
        "contract": "vesper-strategies/contracts/strategies/compound/optimism/SonneVesperXy.sol:SonneVesperXy",
        "label": "feeCollector",
        "offset": 0,
        "slot": "1",
        "type": "t_address"
      },
      {
        "astId": 14885,
        "contract": "vesper-strategies/contracts/strategies/compound/optimism/SonneVesperXy.sol:SonneVesperXy",
        "label": "swapper",
        "offset": 0,
        "slot": "2",
        "type": "t_contract(IRoutedSwapper)13444"
      },
      {
        "astId": 14898,
        "contract": "vesper-strategies/contracts/strategies/compound/optimism/SonneVesperXy.sol:SonneVesperXy",
        "label": "_keepers",
        "offset": 0,
        "slot": "3",
        "type": "t_struct(AddressSet)3028_storage"
      },
      {
        "astId": 22341,
        "contract": "vesper-strategies/contracts/strategies/compound/optimism/SonneVesperXy.sol:SonneVesperXy",
        "label": "NAME",
        "offset": 0,
        "slot": "5",
        "type": "t_string_storage"
      },
      {
        "astId": 22353,
        "contract": "vesper-strategies/contracts/strategies/compound/optimism/SonneVesperXy.sol:SonneVesperXy",
        "label": "minBorrowLimit",
        "offset": 0,
        "slot": "6",
        "type": "t_uint256"
      },
      {
        "astId": 22356,
        "contract": "vesper-strategies/contracts/strategies/compound/optimism/SonneVesperXy.sol:SonneVesperXy",
        "label": "maxBorrowLimit",
        "offset": 0,
        "slot": "7",
        "type": "t_uint256"
      },
      {
        "astId": 22358,
        "contract": "vesper-strategies/contracts/strategies/compound/optimism/SonneVesperXy.sol:SonneVesperXy",
        "label": "borrowToken",
        "offset": 0,
        "slot": "8",
        "type": "t_address"
      },
      {
        "astId": 22361,
        "contract": "vesper-strategies/contracts/strategies/compound/optimism/SonneVesperXy.sol:SonneVesperXy",
        "label": "comptroller",
        "offset": 0,
        "slot": "9",
        "type": "t_contract(Comptroller)10484"
      }
    ],
    "types": {
      "t_address": {
        "encoding": "inplace",
        "label": "address",
        "numberOfBytes": "20"
      },
      "t_array(t_bytes32)dyn_storage": {
        "base": "t_bytes32",
        "encoding": "dynamic_array",
        "label": "bytes32[]",
        "numberOfBytes": "32"
      },
      "t_bytes32": {
        "encoding": "inplace",
        "label": "bytes32",
        "numberOfBytes": "32"
      },
      "t_contract(Comptroller)10484": {
        "encoding": "inplace",
        "label": "contract Comptroller",
        "numberOfBytes": "20"
      },
      "t_contract(IRoutedSwapper)13444": {
        "encoding": "inplace",
        "label": "contract IRoutedSwapper",
        "numberOfBytes": "20"
      },
      "t_mapping(t_bytes32,t_uint256)": {
        "encoding": "mapping",
        "key": "t_bytes32",
        "label": "mapping(bytes32 => uint256)",
        "numberOfBytes": "32",
        "value": "t_uint256"
      },
      "t_string_storage": {
        "encoding": "bytes",
        "label": "string",
        "numberOfBytes": "32"
      },
      "t_struct(AddressSet)3028_storage": {
        "encoding": "inplace",
        "label": "struct EnumerableSet.AddressSet",
        "members": [
          {
            "astId": 3027,
            "contract": "vesper-strategies/contracts/strategies/compound/optimism/SonneVesperXy.sol:SonneVesperXy",
            "label": "_inner",
            "offset": 0,
            "slot": "0",
            "type": "t_struct(Set)2727_storage"
          }
        ],
        "numberOfBytes": "64"
      },
      "t_struct(Set)2727_storage": {
        "encoding": "inplace",
        "label": "struct EnumerableSet.Set",
        "members": [
          {
            "astId": 2722,
            "contract": "vesper-strategies/contracts/strategies/compound/optimism/SonneVesperXy.sol:SonneVesperXy",
            "label": "_values",
            "offset": 0,
            "slot": "0",
            "type": "t_array(t_bytes32)dyn_storage"
          },
          {
            "astId": 2726,
            "contract": "vesper-strategies/contracts/strategies/compound/optimism/SonneVesperXy.sol:SonneVesperXy",
            "label": "_indexes",
            "offset": 0,
            "slot": "1",
            "type": "t_mapping(t_bytes32,t_uint256)"
          }
        ],
        "numberOfBytes": "64"
      },
      "t_uint256": {
        "encoding": "inplace",
        "label": "uint256",
        "numberOfBytes": "32"
      }
    }
  }
}