{
  "address": "0xe98c509f6C8bEbdd62bEEdF78b4D276bb41f2913",
  "abi": [
    {
      "inputs": [
        {
          "internalType": "address",
          "name": "pool_",
          "type": "address"
        },
        {
          "internalType": "address",
          "name": "swapper_",
          "type": "address"
        },
        {
          "internalType": "address",
          "name": "comptroller_",
          "type": "address"
        },
        {
          "internalType": "address",
          "name": "rewardToken_",
          "type": "address"
        },
        {
          "internalType": "address",
          "name": "receiptToken_",
          "type": "address"
        },
        {
          "internalType": "string",
          "name": "name_",
          "type": "string"
        }
      ],
      "stateMutability": "nonpayable",
      "type": "constructor"
    },
    {
      "anonymous": false,
      "inputs": [
        {
          "indexed": true,
          "internalType": "address",
          "name": "previousFeeCollector",
          "type": "address"
        },
        {
          "indexed": true,
          "internalType": "address",
          "name": "newFeeCollector",
          "type": "address"
        }
      ],
      "name": "UpdatedFeeCollector",
      "type": "event"
    },
    {
      "anonymous": false,
      "inputs": [
        {
          "indexed": true,
          "internalType": "contract IRoutedSwapper",
          "name": "oldSwapper",
          "type": "address"
        },
        {
          "indexed": true,
          "internalType": "contract IRoutedSwapper",
          "name": "newSwapper",
          "type": "address"
        }
      ],
      "name": "UpdatedSwapper",
      "type": "event"
    },
    {
      "inputs": [],
      "name": "NAME",
      "outputs": [
        {
          "internalType": "string",
          "name": "",
          "type": "string"
        }
      ],
      "stateMutability": "view",
      "type": "function"
    },
    {
      "inputs": [],
      "name": "VERSION",
      "outputs": [
        {
          "internalType": "string",
          "name": "",
          "type": "string"
        }
      ],
      "stateMutability": "view",
      "type": "function"
    },
    {
      "inputs": [
        {
          "internalType": "address",
          "name": "_keeperAddress",
          "type": "address"
        }
      ],
      "name": "addKeeper",
      "outputs": [],
      "stateMutability": "nonpayable",
      "type": "function"
    },
    {
      "inputs": [
        {
          "internalType": "uint256",
          "name": "_approvalAmount",
          "type": "uint256"
        }
      ],
      "name": "approveToken",
      "outputs": [],
      "stateMutability": "nonpayable",
      "type": "function"
    },
    {
      "inputs": [
        {
          "internalType": "uint256",
          "name": "_minAmountOut",
          "type": "uint256"
        }
      ],
      "name": "claimAndSwapRewards",
      "outputs": [
        {
          "internalType": "uint256",
          "name": "_amountOut",
          "type": "uint256"
        }
      ],
      "stateMutability": "nonpayable",
      "type": "function"
    },
    {
      "inputs": [],
      "name": "collateral",
      "outputs": [
        {
          "internalType": "address",
          "name": "",
          "type": "address"
        }
      ],
      "stateMutability": "view",
      "type": "function"
    },
    {
      "inputs": [],
      "name": "collateralToken",
      "outputs": [
        {
          "internalType": "contract IERC20",
          "name": "",
          "type": "address"
        }
      ],
      "stateMutability": "view",
      "type": "function"
    },
    {
      "inputs": [],
      "name": "comptroller",
      "outputs": [
        {
          "internalType": "contract Comptroller",
          "name": "",
          "type": "address"
        }
      ],
      "stateMutability": "view",
      "type": "function"
    },
    {
      "inputs": [],
      "name": "feeCollector",
      "outputs": [
        {
          "internalType": "address",
          "name": "",
          "type": "address"
        }
      ],
      "stateMutability": "view",
      "type": "function"
    },
    {
      "inputs": [
        {
          "internalType": "address",
          "name": "_token",
          "type": "address"
        }
      ],
      "name": "isReservedToken",
      "outputs": [
        {
          "internalType": "bool",
          "name": "",
          "type": "bool"
        }
      ],
      "stateMutability": "view",
      "type": "function"
    },
    {
      "inputs": [],
      "name": "keepers",
      "outputs": [
        {
          "internalType": "address[]",
          "name": "",
          "type": "address[]"
        }
      ],
      "stateMutability": "view",
      "type": "function"
    },
    {
      "inputs": [
        {
          "internalType": "address",
          "name": "_newStrategy",
          "type": "address"
        }
      ],
      "name": "migrate",
      "outputs": [],
      "stateMutability": "nonpayable",
      "type": "function"
    },
    {
      "inputs": [],
      "name": "pool",
      "outputs": [
        {
          "internalType": "address",
          "name": "",
          "type": "address"
        }
      ],
      "stateMutability": "view",
      "type": "function"
    },
    {
      "inputs": [],
      "name": "rebalance",
      "outputs": [
        {
          "internalType": "uint256",
          "name": "_profit",
          "type": "uint256"
        },
        {
          "internalType": "uint256",
          "name": "_loss",
          "type": "uint256"
        },
        {
          "internalType": "uint256",
          "name": "_payback",
          "type": "uint256"
        }
      ],
      "stateMutability": "nonpayable",
      "type": "function"
    },
    {
      "inputs": [],
      "name": "receiptToken",
      "outputs": [
        {
          "internalType": "address",
          "name": "",
          "type": "address"
        }
      ],
      "stateMutability": "view",
      "type": "function"
    },
    {
      "inputs": [
        {
          "internalType": "address",
          "name": "_keeperAddress",
          "type": "address"
        }
      ],
      "name": "removeKeeper",
      "outputs": [],
      "stateMutability": "nonpayable",
      "type": "function"
    },
    {
      "inputs": [],
      "name": "rewardToken",
      "outputs": [
        {
          "internalType": "address",
          "name": "",
          "type": "address"
        }
      ],
      "stateMutability": "view",
      "type": "function"
    },
    {
      "inputs": [
        {
          "internalType": "contract IERC20",
          "name": "_tokenIn",
          "type": "address"
        },
        {
          "internalType": "uint256",
          "name": "_minAmountOut",
          "type": "uint256"
        }
      ],
      "name": "swapToCollateral",
      "outputs": [
        {
          "internalType": "uint256",
          "name": "_amountOut",
          "type": "uint256"
        }
      ],
      "stateMutability": "nonpayable",
      "type": "function"
    },
    {
      "inputs": [],
      "name": "swapper",
      "outputs": [
        {
          "internalType": "contract IRoutedSwapper",
          "name": "",
          "type": "address"
        }
      ],
      "stateMutability": "view",
      "type": "function"
    },
    {
      "inputs": [
        {
          "internalType": "address",
          "name": "_fromToken",
          "type": "address"
        }
      ],
      "name": "sweep",
      "outputs": [],
      "stateMutability": "nonpayable",
      "type": "function"
    },
    {
      "inputs": [],
      "name": "token",
      "outputs": [
        {
          "internalType": "address",
          "name": "",
          "type": "address"
        }
      ],
      "stateMutability": "view",
      "type": "function"
    },
    {
      "inputs": [],
      "name": "tvl",
      "outputs": [
        {
          "internalType": "uint256",
          "name": "",
          "type": "uint256"
        }
      ],
      "stateMutability": "view",
      "type": "function"
    },
    {
      "inputs": [
        {
          "internalType": "address",
          "name": "_feeCollector",
          "type": "address"
        }
      ],
      "name": "updateFeeCollector",
      "outputs": [],
      "stateMutability": "nonpayable",
      "type": "function"
    },
    {
      "inputs": [
        {
          "internalType": "contract IRoutedSwapper",
          "name": "_swapper",
          "type": "address"
        }
      ],
      "name": "updateSwapper",
      "outputs": [],
      "stateMutability": "nonpayable",
      "type": "function"
    },
    {
      "inputs": [
        {
          "internalType": "uint256",
          "name": "_amount",
          "type": "uint256"
        }
      ],
      "name": "withdraw",
      "outputs": [],
      "stateMutability": "nonpayable",
      "type": "function"
    }
  ],
  "transactionHash": "0x0ffbc401bf2898aa99c9d1ecce90511cf475912dc1cbe77001255e53175afc77",
  "args": [
    "0x19382707d5a47E74f60053b652Ab34b6e30Febad",
    "0x017CBF62b53313d5eE3aD1288daA95CD39AA11fE",
    "0x60CF091cD3f50420d50fD7f707414d0DF4751C58",
    "0x1DB2466d9F5e10D7090E7152B68d62703a2245F0",
    "0x8cD6b19A07d754bF36AdEEE79EDF4F2134a8F571",
    "Sonne_OP"
  ],
  "numDeployments": 1,
  "solcInputHash": "c08982e780b6228d1fb94c0a37124653",
  "bytecode": "0x6101006040523480156200001257600080fd5b50604051620039a6380380620039a683398101604081905262000035916200040d565b8585858585858585836001600160a01b0383166200009a5760405162461bcd60e51b815260206004820152601460248201527f706f6f6c2d616464726573732d69732d7a65726f00000000000000000000000060448201526064015b60405180910390fd5b6001600160a01b038216620000f25760405162461bcd60e51b815260206004820152601760248201527f737761707065722d616464726573732d69732d7a65726f000000000000000000604482015260640162000091565b600280546001600160a01b0319166001600160a01b0384811691909117909155831660a081905260408051637e062a3560e11b8152905163fc0c546a91600480820192602092909190829003018186803b1580156200015057600080fd5b505afa15801562000165573d6000803e3d6000fd5b505050506040513d601f19601f820116820180604052508101906200018b919062000557565b6001600160a01b03908116608052600080546001600160a01b031916918316919091179055620001d2620001bc3390565b6003620002c660201b62001c591790919060201c565b620002145760405162461bcd60e51b81526020600482015260116024820152701859190b5ad9595c195c8b59985a5b1959607a1b604482015260640162000091565b5050506001600160a01b0382166200026f5760405162461bcd60e51b815260206004820152601660248201527f63546f6b656e2d616464726573732d69732d7a65726f00000000000000000000604482015260640162000091565b6001600160a01b03821660c05280516200029190600590602084019062000338565b5050506001600160a01b0391821660e052600680546001600160a01b0319169190921617905550620005bb9650505050505050565b6000620002dd836001600160a01b038416620002e6565b90505b92915050565b60008181526001830160205260408120546200032f57508154600181810184556000848152602080822090930184905584548482528286019093526040902091909155620002e0565b506000620002e0565b82805462000346906200057e565b90600052602060002090601f0160209004810192826200036a5760008555620003b5565b82601f106200038557805160ff1916838001178555620003b5565b82800160010185558215620003b5579182015b82811115620003b557825182559160200191906001019062000398565b50620003c3929150620003c7565b5090565b5b80821115620003c35760008155600101620003c8565b6001600160a01b0381168114620003f457600080fd5b50565b634e487b7160e01b600052604160045260246000fd5b60008060008060008060c087890312156200042757600080fd5b86516200043481620003de565b809650506020808801516200044981620003de565b60408901519096506200045c81620003de565b60608901519095506200046f81620003de565b60808901519094506200048281620003de565b60a08901519093506001600160401b0380821115620004a057600080fd5b818a0191508a601f830112620004b557600080fd5b815181811115620004ca57620004ca620003f7565b604051601f8201601f19908116603f01168101908382118183101715620004f557620004f5620003f7565b816040528281528d868487010111156200050e57600080fd5b600093505b8284101562000532578484018601518185018701529285019262000513565b82841115620005445760008684830101525b8096505050505050509295509295509295565b6000602082840312156200056a57600080fd5b81516200057781620003de565b9392505050565b600181811c908216806200059357607f821691505b60208210811415620005b557634e487b7160e01b600052602260045260246000fd5b50919050565b60805160a05160c05160e05161326f62000737600039600081816102d6015261271401526000818161029101528181610587015281816116ce01528181611772015281816118e601528181611ea101528181611f7e01528181611ffc015281816120a901528181612213015281816126be01528181612b970152612d570152600081816101fb015281816108ba01528181610a0301528181610b4a01528181610c1f01528181610cd201528181610f2001528181610fed0152818161120f0152818161141d015281816121bf0152818161228e015281816129c00152612a5d01526000818161034a015281816103ba015281816105050152818161073a015281816107dd01528181610a9001528181610b2801528181610b9601528181610c520152818161119301528181611641015281816118640152818161197001528181611b3e01528181611b7c01528181611e630152818161219d015281816121f10152818161230a01528181612afa0152612c7d015261326f6000f3fe608060405234801561001057600080fd5b50600436106101a35760003560e01c8063a3f4df7e116100ee578063d8dfeb4511610097578063ee330ee311610071578063ee330ee3146103f9578063f7c618c11461040c578063fc0c546a1461041f578063ffa1ad741461043057600080fd5b8063d8dfeb45146103b8578063e5328e06146103de578063ec78e832146103e657600080fd5b8063ce5494bb116100c8578063ce5494bb1461037f578063d2c35ce814610392578063d3033c39146103a557600080fd5b8063a3f4df7e14610330578063b2016bd414610345578063c415b95c1461036c57600080fd5b80633ac9fc11116101505780635fe3b5671161012a5780635fe3b567146102d15780637d7c2a1c146102f8578063951dc22c1461031b57600080fd5b80633ac9fc111461025b5780634032b72b1461026e578063440d72481461028157600080fd5b806316f0115b1161018157806316f0115b146101f65780632b3297f9146102355780632e1a7d4d1461024857600080fd5b806301681a62146101a85780631026013a146101bd57806314ae9f2e146101e3575b600080fd5b6101bb6101b6366004612fa4565b610454565b005b6101d06101cb366004612fc1565b6106d2565b6040519081526020015b60405180910390f35b6101bb6101f1366004612fa4565b6108b8565b61021d7f000000000000000000000000000000000000000000000000000000000000000081565b6040516001600160a01b0390911681526020016101da565b60025461021d906001600160a01b031681565b6101bb610256366004612fc1565b610a00565b6101bb610269366004612fc1565b610c79565b6101bb61027c366004612fa4565b610cd0565b6102c161028f366004612fa4565b7f00000000000000000000000000000000000000000000000000000000000000006001600160a01b0390811691161490565b60405190151581526020016101da565b61021d7f000000000000000000000000000000000000000000000000000000000000000081565b610300610e18565b604080519384526020840192909252908201526060016101da565b610323610e7e565b6040516101da919061301e565b610338610e8f565b6040516101da919061305d565b61021d7f000000000000000000000000000000000000000000000000000000000000000081565b60015461021d906001600160a01b031681565b6101bb61038d366004612fa4565b610f1d565b6101bb6103a0366004612fa4565b61120d565b6101bb6103b3366004612fa4565b61141b565b7f000000000000000000000000000000000000000000000000000000000000000061021d565b6101d0611629565b60005461021d906001600160a01b031681565b6101d0610407366004613090565b611812565b60065461021d906001600160a01b031681565b6000546001600160a01b031661021d565b610338604051806040016040528060058152602001640352e312e360dc1b81525081565b610461335b600390611c77565b6104ab5760405162461bcd60e51b815260206004820152601660248201527531b0b63632b916b4b996b737ba16b096b5b2b2b832b960511b60448201526064015b60405180910390fd5b6001546001600160a01b03166105035760405162461bcd60e51b815260206004820152601560248201527f6665652d636f6c6c6563746f722d6e6f742d736574000000000000000000000060448201526064016104a2565b7f00000000000000000000000000000000000000000000000000000000000000006001600160a01b0316816001600160a01b031614156105855760405162461bcd60e51b815260206004820152601f60248201527f6e6f742d616c6c6f7765642d746f2d73776565702d636f6c6c61746572616c0060448201526064016104a2565b7f00000000000000000000000000000000000000000000000000000000000000006001600160a01b0390811690821614156105f95760405162461bcd60e51b815260206004820152601460248201527306e6f742d616c6c6f7765642d746f2d73776565760641b60448201526064016104a2565b6001600160a01b03811673eeeeeeeeeeeeeeeeeeeeeeeeeeeeeeeeeeeeeeee141561063757600154610634906001600160a01b031647611c99565b50565b6040516370a0823160e01b81523060048201526000906001600160a01b038316906370a082319060240160206040518083038186803b15801561067957600080fd5b505afa15801561068d573d6000803e3d6000fd5b505050506040513d601f19601f820116820180604052508101906106b191906130bc565b6001549091506106ce906001600160a01b03848116911683611db7565b5050565b60006106dd33610459565b6107225760405162461bcd60e51b815260206004820152601660248201527531b0b63632b916b4b996b737ba16b096b5b2b2b832b960511b60448201526064016104a2565b6040516370a0823160e01b81523060048201526000907f00000000000000000000000000000000000000000000000000000000000000006001600160a01b0316906370a082319060240160206040518083038186803b15801561078457600080fd5b505afa158015610798573d6000803e3d6000fd5b505050506040513d601f19601f820116820180604052508101906107bc91906130bc565b90506107c6611e47565b6040516370a0823160e01b815230600482015281907f00000000000000000000000000000000000000000000000000000000000000006001600160a01b0316906370a082319060240160206040518083038186803b15801561082757600080fd5b505afa15801561083b573d6000803e3d6000fd5b505050506040513d601f19601f8201168201806040525081019061085f91906130bc565b61086991906130eb565b9150828210156108b25760405162461bcd60e51b81526020600482015260146024820152731b9bdd0b595b9bdd59da0b585b5bdd5b9d13dd5d60621b60448201526064016104a2565b50919050565b7f00000000000000000000000000000000000000000000000000000000000000006001600160a01b0316630c340a246040518163ffffffff1660e01b815260040160206040518083038186803b15801561091157600080fd5b505afa158015610925573d6000803e3d6000fd5b505050506040513d601f19601f820116820180604052508101906109499190613102565b6001600160a01b0316336001600160a01b0316146109a95760405162461bcd60e51b815260206004820152601a60248201527f63616c6c65722d69732d6e6f742d7468652d676f7665726e6f7200000000000060448201526064016104a2565b6109b4600382611e88565b6106345760405162461bcd60e51b815260206004820152601460248201527f72656d6f76652d6b65657065722d6661696c656400000000000000000000000060448201526064016104a2565b337f00000000000000000000000000000000000000000000000000000000000000006001600160a01b031614610a785760405162461bcd60e51b815260206004820152601960248201527f63616c6c65722d69732d6e6f742d7665737065722d706f6f6c0000000000000060448201526064016104a2565b6040516370a0823160e01b81523060048201526000907f00000000000000000000000000000000000000000000000000000000000000006001600160a01b0316906370a082319060240160206040518083038186803b158015610ada57600080fd5b505afa158015610aee573d6000803e3d6000fd5b505050506040513d601f19601f82011682018060405250810190610b1291906130bc565b9050818110610b6f576106ce6001600160a01b037f0000000000000000000000000000000000000000000000000000000000000000167f000000000000000000000000000000000000000000000000000000000000000084611db7565b610b81610b7c82846130eb565b611e9d565b6040516370a0823160e01b81523060048201527f00000000000000000000000000000000000000000000000000000000000000006001600160a01b0316906370a082319060240160206040518083038186803b158015610be057600080fd5b505afa158015610bf4573d6000803e3d6000fd5b505050506040513d601f19601f82011682018060405250810190610c1891906130bc565b90506106ce7f0000000000000000000000000000000000000000000000000000000000000000610c48848461217a565b6001600160a01b037f0000000000000000000000000000000000000000000000000000000000000000169190611db7565b610c8233610459565b610cc75760405162461bcd60e51b815260206004820152601660248201527531b0b63632b916b4b996b737ba16b096b5b2b2b832b960511b60448201526064016104a2565b61063481612190565b7f00000000000000000000000000000000000000000000000000000000000000006001600160a01b0316630c340a246040518163ffffffff1660e01b815260040160206040518083038186803b158015610d2957600080fd5b505afa158015610d3d573d6000803e3d6000fd5b505050506040513d601f19601f82011682018060405250810190610d619190613102565b6001600160a01b0316336001600160a01b031614610dc15760405162461bcd60e51b815260206004820152601a60248201527f63616c6c65722d69732d6e6f742d7468652d676f7665726e6f7200000000000060448201526064016104a2565b610dcc600382611c59565b6106345760405162461bcd60e51b815260206004820152601160248201527f6164642d6b65657065722d6661696c656400000000000000000000000000000060448201526064016104a2565b60008080610e2533610459565b610e6a5760405162461bcd60e51b815260206004820152601660248201527531b0b63632b916b4b996b737ba16b096b5b2b2b832b960511b60448201526064016104a2565b610e72612255565b9250925092505b909192565b6060610e8a6003612392565b905090565b60058054610e9c9061311f565b80601f0160208091040260200160405190810160405280929190818152602001828054610ec89061311f565b8015610f155780601f10610eea57610100808354040283529160200191610f15565b820191906000526020600020905b815481529060010190602001808311610ef857829003601f168201915b505050505081565b337f00000000000000000000000000000000000000000000000000000000000000006001600160a01b031614610f955760405162461bcd60e51b815260206004820152601960248201527f63616c6c65722d69732d6e6f742d7665737065722d706f6f6c0000000000000060448201526064016104a2565b6001600160a01b038116610feb5760405162461bcd60e51b815260206004820152601c60248201527f6e65772d73747261746567792d616464726573732d69732d7a65726f0000000060448201526064016104a2565b7f00000000000000000000000000000000000000000000000000000000000000006001600160a01b0316816001600160a01b03166316f0115b6040518163ffffffff1660e01b815260040160206040518083038186803b15801561104e57600080fd5b505afa158015611062573d6000803e3d6000fd5b505050506040513d601f19601f820116820180604052508101906110869190613102565b6001600160a01b0316146110dc5760405162461bcd60e51b815260206004820152601660248201527f6e6f742d76616c69642d6e65772d73747261746567790000000000000000000060448201526064016104a2565b6000546040516370a0823160e01b81523060048201526111709183916001600160a01b03909116906370a082319060240160206040518083038186803b15801561112557600080fd5b505afa158015611139573d6000803e3d6000fd5b505050506040513d601f19601f8201168201806040525081019061115d91906130bc565b6000546001600160a01b03169190611db7565b6040516370a0823160e01b81523060048201526106349082906001600160a01b037f000000000000000000000000000000000000000000000000000000000000000016906370a082319060240160206040518083038186803b1580156111d557600080fd5b505afa1580156111e9573d6000803e3d6000fd5b505050506040513d601f19601f82011682018060405250810190610c4891906130bc565b7f00000000000000000000000000000000000000000000000000000000000000006001600160a01b0316630c340a246040518163ffffffff1660e01b815260040160206040518083038186803b15801561126657600080fd5b505afa15801561127a573d6000803e3d6000fd5b505050506040513d601f19601f8201168201806040525081019061129e9190613102565b6001600160a01b0316336001600160a01b0316146112fe5760405162461bcd60e51b815260206004820152601a60248201527f63616c6c65722d69732d6e6f742d7468652d676f7665726e6f7200000000000060448201526064016104a2565b6001600160a01b0381166113545760405162461bcd60e51b815260206004820152601d60248201527f6665652d636f6c6c6563746f722d616464726573732d69732d7a65726f00000060448201526064016104a2565b6001546001600160a01b03828116911614156113b25760405162461bcd60e51b815260206004820152601560248201527f6665652d636f6c6c6563746f722d69732d73616d65000000000000000000000060448201526064016104a2565b6001546040516001600160a01b038084169216907f0f06062680f9bd68e786e9980d9bb03d73d5620fc3b345e417b6eacb310b970690600090a36001805473ffffffffffffffffffffffffffffffffffffffff19166001600160a01b0392909216919091179055565b7f00000000000000000000000000000000000000000000000000000000000000006001600160a01b0316630c340a246040518163ffffffff1660e01b815260040160206040518083038186803b15801561147457600080fd5b505afa158015611488573d6000803e3d6000fd5b505050506040513d601f19601f820116820180604052508101906114ac9190613102565b6001600160a01b0316336001600160a01b03161461150c5760405162461bcd60e51b815260206004820152601a60248201527f63616c6c65722d69732d6e6f742d7468652d676f7665726e6f7200000000000060448201526064016104a2565b6001600160a01b0381166115625760405162461bcd60e51b815260206004820152601760248201527f737761707065722d616464726573732d69732d7a65726f00000000000000000060448201526064016104a2565b6002546001600160a01b03828116911614156115c05760405162461bcd60e51b815260206004820152600f60248201527f737761707065722d69732d73616d65000000000000000000000000000000000060448201526064016104a2565b6002546040516001600160a01b038084169216907f6c953b7ec311055c20b96a42cea31e89528e375b1bf953a503db40854b3188fe90600090a36002805473ffffffffffffffffffffffffffffffffffffffff19166001600160a01b0392909216919091179055565b6040516370a0823160e01b81523060048201526000907f00000000000000000000000000000000000000000000000000000000000000006001600160a01b0316906370a082319060240160206040518083038186803b15801561168b57600080fd5b505afa15801561169f573d6000803e3d6000fd5b505050506040513d601f19601f820116820180604052508101906116c391906130bc565b670de0b6b3a76400007f00000000000000000000000000000000000000000000000000000000000000006001600160a01b031663182df0f56040518163ffffffff1660e01b815260040160206040518083038186803b15801561172557600080fd5b505afa158015611739573d6000803e3d6000fd5b505050506040513d601f19601f8201168201806040525081019061175d91906130bc565b6040516370a0823160e01b81523060048201527f00000000000000000000000000000000000000000000000000000000000000006001600160a01b0316906370a082319060240160206040518083038186803b1580156117bc57600080fd5b505afa1580156117d0573d6000803e3d6000fd5b505050506040513d601f19601f820116820180604052508101906117f491906130bc565b6117fe9190613154565b6118089190613173565b610e8a9190613195565b600061181d33610459565b6118625760405162461bcd60e51b815260206004820152601660248201527531b0b63632b916b4b996b737ba16b096b5b2b2b832b960511b60448201526064016104a2565b7f00000000000000000000000000000000000000000000000000000000000000006001600160a01b0316836001600160a01b031614156118e45760405162461bcd60e51b815260206004820152601f60248201527f6e6f742d616c6c6f7765642d746f2d73776565702d636f6c6c61746572616c0060448201526064016104a2565b7f00000000000000000000000000000000000000000000000000000000000000006001600160a01b0390811690841614156119585760405162461bcd60e51b815260206004820152601460248201527306e6f742d616c6c6f7765642d746f2d73776565760641b60448201526064016104a2565b6040516370a0823160e01b81523060048201526000907f00000000000000000000000000000000000000000000000000000000000000006001600160a01b0316906370a082319060240160206040518083038186803b1580156119ba57600080fd5b505afa1580156119ce573d6000803e3d6000fd5b505050506040513d601f19601f820116820180604052508101906119f291906130bc565b6040516370a0823160e01b81523060048201529091506000906001600160a01b038616906370a082319060240160206040518083038186803b158015611a3757600080fd5b505afa158015611a4b573d6000803e3d6000fd5b505050506040513d601f19601f82011682018060405250810190611a6f91906130bc565b90508015611b6557600254604051636eb1769f60e11b81523060048201526001600160a01b0391821660248201529086169063dd62ed3e9060440160206040518083038186803b158015611ac257600080fd5b505afa158015611ad6573d6000803e3d6000fd5b505050506040513d601f19601f82011682018060405250810190611afa91906130bc565b811115611b3857600254611b1c906001600160a01b03878116911660006123a6565b600254611b38906001600160a01b0387811691166000196123a6565b611b63857f0000000000000000000000000000000000000000000000000000000000000000836124d1565b505b6040516370a0823160e01b815230600482015282907f00000000000000000000000000000000000000000000000000000000000000006001600160a01b0316906370a082319060240160206040518083038186803b158015611bc657600080fd5b505afa158015611bda573d6000803e3d6000fd5b505050506040513d601f19601f82011682018060405250810190611bfe91906130bc565b611c0891906130eb565b925083831015611c515760405162461bcd60e51b81526020600482015260146024820152731b9bdd0b595b9bdd59da0b585b5bdd5b9d13dd5d60621b60448201526064016104a2565b505092915050565b6000611c6e836001600160a01b038416612575565b90505b92915050565b6001600160a01b03811660009081526001830160205260408120541515611c6e565b80471015611ce95760405162461bcd60e51b815260206004820152601d60248201527f416464726573733a20696e73756666696369656e742062616c616e636500000060448201526064016104a2565b6000826001600160a01b03168260405160006040518083038185875af1925050503d8060008114611d36576040519150601f19603f3d011682016040523d82523d6000602084013e611d3b565b606091505b5050905080611db25760405162461bcd60e51b815260206004820152603a60248201527f416464726573733a20756e61626c6520746f2073656e642076616c75652c207260448201527f6563697069656e74206d6179206861766520726576657274656400000000000060648201526084016104a2565b505050565b6040516001600160a01b038316602482015260448101829052611db290849063a9059cbb60e01b906064015b60408051601f198184030181529190526020810180517bffffffffffffffffffffffffffffffffffffffffffffffffffffffff167fffffffff00000000000000000000000000000000000000000000000000000000909316929092179091526125c4565b600080611e52612696565b909250905080156106ce576106ce827f000000000000000000000000000000000000000000000000000000000000000083612805565b6000611c6e836001600160a01b0384166128a7565b60007f00000000000000000000000000000000000000000000000000000000000000006001600160a01b031663182df0f56040518163ffffffff1660e01b815260040160206040518083038186803b158015611ef857600080fd5b505afa158015611f0c573d6000803e3d6000fd5b505050506040513d601f19601f82011682018060405250810190611f3091906130bc565b611f4283670de0b6b3a7640000613154565b611f4c9190613173565b905080156106ce57604051633af9e66960e01b815230600482015260009061209090849061208b906001600160a01b037f00000000000000000000000000000000000000000000000000000000000000001690633af9e66990602401602060405180830381600087803b158015611fc257600080fd5b505af1158015611fd6573d6000803e3d6000fd5b505050506040513d601f19601f82011682018060405250810190611ffa91906130bc565b7f00000000000000000000000000000000000000000000000000000000000000006001600160a01b0316633b1d21a26040518163ffffffff1660e01b815260040160206040518083038186803b15801561205357600080fd5b505afa158015612067573d6000803e3d6000fd5b505050506040513d601f19601f8201168201806040525081019061208b91906130bc565b61217a565b60405163852a12e360e01b8152600481018290529091507f00000000000000000000000000000000000000000000000000000000000000006001600160a01b03169063852a12e390602401602060405180830381600087803b1580156120f557600080fd5b505af1158015612109573d6000803e3d6000fd5b505050506040513d601f19601f8201168201806040525081019061212d91906130bc565b15611db25760405162461bcd60e51b815260206004820152601d60248201527f77697468647261772d66726f6d2d636f6d706f756e642d6661696c656400000060448201526064016104a2565b60008183106121895781611c6e565b5090919050565b6121e46001600160a01b037f0000000000000000000000000000000000000000000000000000000000000000167f0000000000000000000000000000000000000000000000000000000000000000836123a6565b6122386001600160a01b037f0000000000000000000000000000000000000000000000000000000000000000167f0000000000000000000000000000000000000000000000000000000000000000836123a6565b600254600654610634916001600160a01b039182169116836123a6565b600080600061226261299a565b6040516302df682360e11b815260048101849052602481018390526044810182905292955090935091507f00000000000000000000000000000000000000000000000000000000000000006001600160a01b0316906305bed04690606401600060405180830381600087803b1580156122da57600080fd5b505af11580156122ee573d6000803e3d6000fd5b50506040516370a0823160e01b8152306004820152610e7992507f00000000000000000000000000000000000000000000000000000000000000006001600160a01b031691506370a082319060240160206040518083038186803b15801561235557600080fd5b505afa158015612369573d6000803e3d6000fd5b505050506040513d601f19601f8201168201806040525081019061238d91906130bc565b612d3b565b6060600061239f83612e28565b9392505050565b80158061242f5750604051636eb1769f60e11b81523060048201526001600160a01b03838116602483015284169063dd62ed3e9060440160206040518083038186803b1580156123f557600080fd5b505afa158015612409573d6000803e3d6000fd5b505050506040513d601f19601f8201168201806040525081019061242d91906130bc565b155b6124a15760405162461bcd60e51b815260206004820152603660248201527f5361666545524332303a20617070726f76652066726f6d206e6f6e2d7a65726f60448201527f20746f206e6f6e2d7a65726f20616c6c6f77616e63650000000000000000000060648201526084016104a2565b6040516001600160a01b038316602482015260448101829052611db290849063095ea7b360e01b90606401611de3565b600254604051636ccb2b0160e01b81526001600160a01b038581166004830152848116602483015260448201849052600160648301523060848301526000921690636ccb2b019060a401602060405180830381600087803b15801561253557600080fd5b505af1158015612549573d6000803e3d6000fd5b505050506040513d601f19601f8201168201806040525081019061256d91906130bc565b949350505050565b60008181526001830160205260408120546125bc57508154600181810184556000848152602080822090930184905584548482528286019093526040902091909155611c71565b506000611c71565b6000612619826040518060400160405280602081526020017f5361666545524332303a206c6f772d6c6576656c2063616c6c206661696c6564815250856001600160a01b0316612e849092919063ffffffff16565b805190915015611db2578080602001905181019061263791906131ad565b611db25760405162461bcd60e51b815260206004820152602a60248201527f5361666545524332303a204552433230206f7065726174696f6e20646964206e6044820152691bdd081cdd58d8d9595960b21b60648201526084016104a2565b60408051600180825281830190925260009182918291602080830190803683370190505090507f0000000000000000000000000000000000000000000000000000000000000000816000815181106126f0576126f06131cf565b6001600160a01b03928316602091820292909201015260405162e1ed9760e51b81527f000000000000000000000000000000000000000000000000000000000000000090911690631c3db2e09061274d90309085906004016131e5565b600060405180830381600087803b15801561276757600080fd5b505af115801561277b573d6000803e3d6000fd5b50506006546040516370a0823160e01b81523060048201526001600160a01b0390911692508291506370a082319060240160206040518083038186803b1580156127c457600080fd5b505afa1580156127d8573d6000803e3d6000fd5b505050506040513d601f19601f820116820180604052508101906127fc91906130bc565b92509250509091565b600254604051636ccb2b0160e01b81526001600160a01b0385811660048301528481166024830152604482018490526001606483015230608483015290911690636ccb2b019060a401602060405180830381600087803b15801561286857600080fd5b505af1925050508015612898575060408051601f3d908101601f19168201909252612895918101906130bc565b60015b6128a157505050565b50505050565b600081815260018301602052604081205480156129905760006128cb6001836130eb565b85549091506000906128df906001906130eb565b90508181146129445760008660000182815481106128ff576128ff6131cf565b9060005260206000200154905080876000018481548110612922576129226131cf565b6000918252602080832090910192909255918252600188019052604090208390555b855486908061295557612955613207565b600190038181906000526020600020016000905590558560010160008681526020019081526020016000206000905560019350505050611c71565b6000915050611c71565b604051636a9eee1360e11b81523060048201526000908190819081906001600160a01b037f0000000000000000000000000000000000000000000000000000000000000000169063d53ddc269060240160206040518083038186803b158015612a0257600080fd5b505afa158015612a16573d6000803e3d6000fd5b505050506040513d601f19601f82011682018060405250810190612a3a91906130bc565b604051639f2b283360e01b81523060048201529091506000906001600160a01b037f00000000000000000000000000000000000000000000000000000000000000001690639f2b28339060240160206040518083038186803b158015612a9f57600080fd5b505afa158015612ab3573d6000803e3d6000fd5b505050506040513d601f19601f82011682018060405250810190612ad791906130bc565b6040516370a0823160e01b81523060048201529091506000906001600160a01b037f000000000000000000000000000000000000000000000000000000000000000016906370a082319060240160206040518083038186803b158015612b3c57600080fd5b505afa158015612b50573d6000803e3d6000fd5b505050506040513d601f19601f82011682018060405250810190612b7491906130bc565b604051633af9e66960e01b81523060048201529091506000906001600160a01b037f00000000000000000000000000000000000000000000000000000000000000001690633af9e66990602401602060405180830381600087803b158015612bdb57600080fd5b505af1158015612bef573d6000803e3d6000fd5b505050506040513d601f19601f82011682018060405250810190612c1391906130bc565b612c1d9083613195565b905082811115612c3857612c3183826130eb565b9650612c45565b612c4281846130eb565b95505b6000612c518589613195565b905082811115612d0257612c68610b7c84836130eb565b6040516370a0823160e01b81523060048201527f00000000000000000000000000000000000000000000000000000000000000006001600160a01b0316906370a082319060240160206040518083038186803b158015612cc757600080fd5b505afa158015612cdb573d6000803e3d6000fd5b505050506040513d601f19601f82011682018060405250810190612cff91906130bc565b92505b612d0c838661217a565b9550858311612d1c576000612d2f565b612d2f612d2987856130eb565b8961217a565b97505050505050909192565b80156106345760405163140e25ad60e31b8152600481018290527f00000000000000000000000000000000000000000000000000000000000000006001600160a01b03169063a0712d6890602401602060405180830381600087803b158015612da357600080fd5b505af1158015612db7573d6000803e3d6000fd5b505050506040513d601f19601f82011682018060405250810190612ddb91906130bc565b156106345760405162461bcd60e51b815260206004820152601a60248201527f6465706f7369742d746f2d636f6d706f756e642d6661696c656400000000000060448201526064016104a2565b606081600001805480602002602001604051908101604052809291908181526020018280548015612e7857602002820191906000526020600020905b815481526020019060010190808311612e64575b50505050509050919050565b606061256d848460008585843b612edd5760405162461bcd60e51b815260206004820152601d60248201527f416464726573733a2063616c6c20746f206e6f6e2d636f6e747261637400000060448201526064016104a2565b600080866001600160a01b03168587604051612ef9919061321d565b60006040518083038185875af1925050503d8060008114612f36576040519150601f19603f3d011682016040523d82523d6000602084013e612f3b565b606091505b5091509150612f4b828286612f56565b979650505050505050565b60608315612f6557508161239f565b825115612f755782518084602001fd5b8160405162461bcd60e51b81526004016104a2919061305d565b6001600160a01b038116811461063457600080fd5b600060208284031215612fb657600080fd5b813561239f81612f8f565b600060208284031215612fd357600080fd5b5035919050565b600081518084526020808501945080840160005b838110156130135781516001600160a01b031687529582019590820190600101612fee565b509495945050505050565b602081526000611c6e6020830184612fda565b60005b8381101561304c578181015183820152602001613034565b838111156128a15750506000910152565b602081526000825180602084015261307c816040850160208701613031565b601f01601f19169190910160400192915050565b600080604083850312156130a357600080fd5b82356130ae81612f8f565b946020939093013593505050565b6000602082840312156130ce57600080fd5b5051919050565b634e487b7160e01b600052601160045260246000fd5b6000828210156130fd576130fd6130d5565b500390565b60006020828403121561311457600080fd5b815161239f81612f8f565b600181811c9082168061313357607f821691505b602082108114156108b257634e487b7160e01b600052602260045260246000fd5b600081600019048311821515161561316e5761316e6130d5565b500290565b60008261319057634e487b7160e01b600052601260045260246000fd5b500490565b600082198211156131a8576131a86130d5565b500190565b6000602082840312156131bf57600080fd5b8151801515811461239f57600080fd5b634e487b7160e01b600052603260045260246000fd5b6001600160a01b038316815260406020820152600061256d6040830184612fda565b634e487b7160e01b600052603160045260246000fd5b6000825161322f818460208701613031565b919091019291505056fea26469706673582212208caaec6c246fbac11049d9a4166dc9c3162e610412c864072db6b17c369fa73c64736f6c63430008090033",
  "devdoc": {
    "kind": "dev",
    "methods": {
      "addKeeper(address)": {
        "params": {
          "_keeperAddress": "keeper address to add."
        }
      },
      "approveToken(uint256)": {
        "details": "Approve all required tokens"
      },
      "migrate(address)": {
        "details": "_beforeMigration hook can be implemented in child strategy to do extra steps.",
        "params": {
          "_newStrategy": "Address of new strategy"
        }
      },
      "rebalance()": {
        "returns": {
          "_loss": "Realized loss, if any, in collateral.",
          "_payback": "If strategy has any excess debt, we have to liquidate asset to payback excess debt.",
          "_profit": "Realized profit in collateral."
        }
      },
      "removeKeeper(address)": {
        "params": {
          "_keeperAddress": "keeper address to remove."
        }
      },
      "sweep(address)": {
        "params": {
          "_fromToken": "token address to sweep"
        }
      },
      "updateFeeCollector(address)": {
        "params": {
          "_feeCollector": "fee collector address"
        }
      },
      "updateSwapper(address)": {
        "params": {
          "_swapper": "swapper address"
        }
      },
      "withdraw(uint256)": {
        "params": {
          "_amount": "Amount of collateral token"
        }
      }
    },
    "title": "This strategy will deposit collateral token in Sonne and earn interest.",
    "version": 1
  },
  "userdoc": {
    "kind": "user",
    "methods": {
      "addKeeper(address)": {
        "notice": "Add given address in keepers list."
      },
      "claimAndSwapRewards(uint256)": {
        "notice": "Claim rewardToken and convert rewardToken into collateral token."
      },
      "collateral()": {
        "notice": "Returns address of token correspond to collateral token"
      },
      "isReservedToken(address)": {
        "notice": "Check whether given token is reserved or not. Reserved tokens are not allowed to sweep."
      },
      "keepers()": {
        "notice": "Return list of keepers"
      },
      "migrate(address)": {
        "notice": "Migrate all asset and vault ownership,if any, to new strategy"
      },
      "rebalance()": {
        "notice": "OnlyKeeper: Rebalance profit, loss and investment of this strategy.  Calculate profit, loss and payback of this strategy and realize profit/loss and  withdraw fund for payback, if any, and submit this report to pool."
      },
      "removeKeeper(address)": {
        "notice": "Remove given address from keepers list."
      },
      "swapToCollateral(address,uint256)": {
        "notice": "onlyKeeper:: Swap given token into collateral token."
      },
      "sweep(address)": {
        "notice": "sweep given token to feeCollector of strategy"
      },
      "token()": {
        "notice": "Returns address of token correspond to receipt token"
      },
      "tvl()": {
        "notice": "Returns total collateral locked in the strategy"
      },
      "updateFeeCollector(address)": {
        "notice": "Update fee collector"
      },
      "updateSwapper(address)": {
        "notice": "Update swapper"
      },
      "withdraw(uint256)": {
        "notice": "Withdraw collateral token from end protocol."
      }
    },
    "version": 1
  },
  "storageLayout": {
    "storage": [
      {
        "astId": 14435,
        "contract": "vesper-strategies/contracts/strategies/compound/optimism/Sonne.sol:Sonne",
        "label": "receiptToken",
        "offset": 0,
        "slot": "0",
        "type": "t_address"
      },
      {
        "astId": 14441,
        "contract": "vesper-strategies/contracts/strategies/compound/optimism/Sonne.sol:Sonne",
        "label": "feeCollector",
        "offset": 0,
        "slot": "1",
        "type": "t_address"
      },
      {
        "astId": 14444,
        "contract": "vesper-strategies/contracts/strategies/compound/optimism/Sonne.sol:Sonne",
        "label": "swapper",
        "offset": 0,
        "slot": "2",
        "type": "t_contract(IRoutedSwapper)13283"
      },
      {
        "astId": 14457,
        "contract": "vesper-strategies/contracts/strategies/compound/optimism/Sonne.sol:Sonne",
        "label": "_keepers",
        "offset": 0,
        "slot": "3",
        "type": "t_struct(AddressSet)3026_storage"
      },
      {
        "astId": 19837,
        "contract": "vesper-strategies/contracts/strategies/compound/optimism/Sonne.sol:Sonne",
        "label": "NAME",
        "offset": 0,
        "slot": "5",
        "type": "t_string_storage"
      },
      {
        "astId": 19848,
        "contract": "vesper-strategies/contracts/strategies/compound/optimism/Sonne.sol:Sonne",
        "label": "rewardToken",
        "offset": 0,
        "slot": "6",
        "type": "t_address"
      }
    ],
    "types": {
      "t_address": {
        "encoding": "inplace",
        "label": "address",
        "numberOfBytes": "20"
      },
      "t_array(t_bytes32)dyn_storage": {
        "base": "t_bytes32",
        "encoding": "dynamic_array",
        "label": "bytes32[]",
        "numberOfBytes": "32"
      },
      "t_bytes32": {
        "encoding": "inplace",
        "label": "bytes32",
        "numberOfBytes": "32"
      },
      "t_contract(IRoutedSwapper)13283": {
        "encoding": "inplace",
        "label": "contract IRoutedSwapper",
        "numberOfBytes": "20"
      },
      "t_mapping(t_bytes32,t_uint256)": {
        "encoding": "mapping",
        "key": "t_bytes32",
        "label": "mapping(bytes32 => uint256)",
        "numberOfBytes": "32",
        "value": "t_uint256"
      },
      "t_string_storage": {
        "encoding": "bytes",
        "label": "string",
        "numberOfBytes": "32"
      },
      "t_struct(AddressSet)3026_storage": {
        "encoding": "inplace",
        "label": "struct EnumerableSet.AddressSet",
        "members": [
          {
            "astId": 3025,
            "contract": "vesper-strategies/contracts/strategies/compound/optimism/Sonne.sol:Sonne",
            "label": "_inner",
            "offset": 0,
            "slot": "0",
            "type": "t_struct(Set)2725_storage"
          }
        ],
        "numberOfBytes": "64"
      },
      "t_struct(Set)2725_storage": {
        "encoding": "inplace",
        "label": "struct EnumerableSet.Set",
        "members": [
          {
            "astId": 2720,
            "contract": "vesper-strategies/contracts/strategies/compound/optimism/Sonne.sol:Sonne",
            "label": "_values",
            "offset": 0,
            "slot": "0",
            "type": "t_array(t_bytes32)dyn_storage"
          },
          {
            "astId": 2724,
            "contract": "vesper-strategies/contracts/strategies/compound/optimism/Sonne.sol:Sonne",
            "label": "_indexes",
            "offset": 0,
            "slot": "1",
            "type": "t_mapping(t_bytes32,t_uint256)"
          }
        ],
        "numberOfBytes": "64"
      },
      "t_uint256": {
        "encoding": "inplace",
        "label": "uint256",
        "numberOfBytes": "32"
      }
    }
  }
}