{
  "address": "0x017CBF62b53313d5eE3aD1288daA95CD39AA11fE",
  "abi": [
    {
      "inputs": [
        {
          "internalType": "address",
          "name": "_pool",
          "type": "address"
        },
        {
          "internalType": "address",
          "name": "_swapManager",
          "type": "address"
        },
        {
          "internalType": "address",
          "name": "_receiptToken",
          "type": "address"
        },
        {
          "internalType": "string",
          "name": "_name",
          "type": "string"
        }
      ],
      "stateMutability": "nonpayable",
      "type": "constructor"
    },
    {
      "anonymous": false,
      "inputs": [
        {
          "indexed": true,
          "internalType": "address",
          "name": "previousFeeCollector",
          "type": "address"
        },
        {
          "indexed": true,
          "internalType": "address",
          "name": "newFeeCollector",
          "type": "address"
        }
      ],
      "name": "UpdatedFeeCollector",
      "type": "event"
    },
    {
      "anonymous": false,
      "inputs": [
        {
          "indexed": true,
          "internalType": "contract IRoutedSwapper",
          "name": "oldSwapper",
          "type": "address"
        },
        {
          "indexed": true,
          "internalType": "contract IRoutedSwapper",
          "name": "newSwapper",
          "type": "address"
        }
      ],
      "name": "UpdatedSwapper",
      "type": "event"
    },
    {
      "inputs": [],
      "name": "AAVE",
      "outputs": [
        {
          "internalType": "address",
          "name": "",
          "type": "address"
        }
      ],
      "stateMutability": "view",
      "type": "function"
    },
    {
      "inputs": [],
      "name": "NAME",
      "outputs": [
        {
          "internalType": "string",
          "name": "",
          "type": "string"
        }
      ],
      "stateMutability": "view",
      "type": "function"
    },
    {
      "inputs": [],
      "name": "VERSION",
      "outputs": [
        {
          "internalType": "string",
          "name": "",
          "type": "string"
        }
      ],
      "stateMutability": "view",
      "type": "function"
    },
    {
      "inputs": [],
      "name": "aaveIncentivesController",
      "outputs": [
        {
          "internalType": "contract AaveIncentivesController",
          "name": "",
          "type": "address"
        }
      ],
      "stateMutability": "view",
      "type": "function"
    },
    {
      "inputs": [],
      "name": "aaveLendingPool",
      "outputs": [
        {
          "internalType": "contract AaveLendingPool",
          "name": "",
          "type": "address"
        }
      ],
      "stateMutability": "view",
      "type": "function"
    },
    {
      "inputs": [],
      "name": "aaveProtocolDataProvider",
      "outputs": [
        {
          "internalType": "contract AaveProtocolDataProvider",
          "name": "",
          "type": "address"
        }
      ],
      "stateMutability": "view",
      "type": "function"
    },
    {
      "inputs": [
        {
          "internalType": "address",
          "name": "_keeperAddress",
          "type": "address"
        }
      ],
      "name": "addKeeper",
      "outputs": [],
      "stateMutability": "nonpayable",
      "type": "function"
    },
    {
      "inputs": [
        {
          "internalType": "uint256",
          "name": "_approvalAmount",
          "type": "uint256"
        }
      ],
      "name": "approveToken",
      "outputs": [],
      "stateMutability": "nonpayable",
      "type": "function"
    },
    {
      "inputs": [],
      "name": "canStartCooldown",
      "outputs": [
        {
          "internalType": "bool",
          "name": "",
          "type": "bool"
        }
      ],
      "stateMutability": "view",
      "type": "function"
    },
    {
      "inputs": [],
      "name": "canUnstake",
      "outputs": [
        {
          "internalType": "bool",
          "name": "",
          "type": "bool"
        }
      ],
      "stateMutability": "view",
      "type": "function"
    },
    {
      "inputs": [
        {
          "internalType": "uint256",
          "name": "_minAmountOut",
          "type": "uint256"
        }
      ],
      "name": "claimAndSwapRewards",
      "outputs": [
        {
          "internalType": "uint256",
          "name": "_amountOut",
          "type": "uint256"
        }
      ],
      "stateMutability": "nonpayable",
      "type": "function"
    },
    {
      "inputs": [],
      "name": "collateral",
      "outputs": [
        {
          "internalType": "address",
          "name": "",
          "type": "address"
        }
      ],
      "stateMutability": "view",
      "type": "function"
    },
    {
      "inputs": [],
      "name": "collateralToken",
      "outputs": [
        {
          "internalType": "contract IERC20",
          "name": "",
          "type": "address"
        }
      ],
      "stateMutability": "view",
      "type": "function"
    },
    {
      "inputs": [],
      "name": "cooldownData",
      "outputs": [
        {
          "internalType": "uint256",
          "name": "_cooldownStart",
          "type": "uint256"
        },
        {
          "internalType": "uint256",
          "name": "_cooldownEnd",
          "type": "uint256"
        },
        {
          "internalType": "uint256",
          "name": "_unstakeEnd",
          "type": "uint256"
        }
      ],
      "stateMutability": "view",
      "type": "function"
    },
    {
      "inputs": [],
      "name": "feeCollector",
      "outputs": [
        {
          "internalType": "address",
          "name": "",
          "type": "address"
        }
      ],
      "stateMutability": "view",
      "type": "function"
    },
    {
      "inputs": [
        {
          "internalType": "address",
          "name": "_token",
          "type": "address"
        }
      ],
      "name": "isReservedToken",
      "outputs": [
        {
          "internalType": "bool",
          "name": "",
          "type": "bool"
        }
      ],
      "stateMutability": "view",
      "type": "function"
    },
    {
      "inputs": [],
      "name": "keepers",
      "outputs": [
        {
          "internalType": "address[]",
          "name": "",
          "type": "address[]"
        }
      ],
      "stateMutability": "view",
      "type": "function"
    },
    {
      "inputs": [
        {
          "internalType": "address",
          "name": "_newStrategy",
          "type": "address"
        }
      ],
      "name": "migrate",
      "outputs": [],
      "stateMutability": "nonpayable",
      "type": "function"
    },
    {
      "inputs": [],
      "name": "pool",
      "outputs": [
        {
          "internalType": "address",
          "name": "",
          "type": "address"
        }
      ],
      "stateMutability": "view",
      "type": "function"
    },
    {
      "inputs": [],
      "name": "rebalance",
      "outputs": [
        {
          "internalType": "uint256",
          "name": "_profit",
          "type": "uint256"
        },
        {
          "internalType": "uint256",
          "name": "_loss",
          "type": "uint256"
        },
        {
          "internalType": "uint256",
          "name": "_payback",
          "type": "uint256"
        }
      ],
      "stateMutability": "nonpayable",
      "type": "function"
    },
    {
      "inputs": [],
      "name": "receiptToken",
      "outputs": [
        {
          "internalType": "address",
          "name": "",
          "type": "address"
        }
      ],
      "stateMutability": "view",
      "type": "function"
    },
    {
      "inputs": [
        {
          "internalType": "address",
          "name": "_keeperAddress",
          "type": "address"
        }
      ],
      "name": "removeKeeper",
      "outputs": [],
      "stateMutability": "nonpayable",
      "type": "function"
    },
    {
      "inputs": [],
      "name": "startCooldown",
      "outputs": [
        {
          "internalType": "bool",
          "name": "",
          "type": "bool"
        }
      ],
      "stateMutability": "nonpayable",
      "type": "function"
    },
    {
      "inputs": [],
      "name": "stkAAVE",
      "outputs": [
        {
          "internalType": "contract StakedAave",
          "name": "",
          "type": "address"
        }
      ],
      "stateMutability": "view",
      "type": "function"
    },
    {
      "inputs": [
        {
          "internalType": "contract IERC20",
          "name": "_tokenIn",
          "type": "address"
        },
        {
          "internalType": "uint256",
          "name": "_minAmountOut",
          "type": "uint256"
        }
      ],
      "name": "swapToCollateral",
      "outputs": [
        {
          "internalType": "uint256",
          "name": "_amountOut",
          "type": "uint256"
        }
      ],
      "stateMutability": "nonpayable",
      "type": "function"
    },
    {
      "inputs": [],
      "name": "swapper",
      "outputs": [
        {
          "internalType": "contract IRoutedSwapper",
          "name": "",
          "type": "address"
        }
      ],
      "stateMutability": "view",
      "type": "function"
    },
    {
      "inputs": [
        {
          "internalType": "address",
          "name": "_fromToken",
          "type": "address"
        }
      ],
      "name": "sweep",
      "outputs": [],
      "stateMutability": "nonpayable",
      "type": "function"
    },
    {
      "inputs": [],
      "name": "token",
      "outputs": [
        {
          "internalType": "address",
          "name": "",
          "type": "address"
        }
      ],
      "stateMutability": "view",
      "type": "function"
    },
    {
      "inputs": [],
      "name": "tvl",
      "outputs": [
        {
          "internalType": "uint256",
          "name": "",
          "type": "uint256"
        }
      ],
      "stateMutability": "view",
      "type": "function"
    },
    {
      "inputs": [],
      "name": "unstakeAave",
      "outputs": [],
      "stateMutability": "nonpayable",
      "type": "function"
    },
    {
      "inputs": [
        {
          "internalType": "address",
          "name": "_feeCollector",
          "type": "address"
        }
      ],
      "name": "updateFeeCollector",
      "outputs": [],
      "stateMutability": "nonpayable",
      "type": "function"
    },
    {
      "inputs": [
        {
          "internalType": "contract IRoutedSwapper",
          "name": "_swapper",
          "type": "address"
        }
      ],
      "name": "updateSwapper",
      "outputs": [],
      "stateMutability": "nonpayable",
      "type": "function"
    },
    {
      "inputs": [
        {
          "internalType": "uint256",
          "name": "_amount",
          "type": "uint256"
        }
      ],
      "name": "withdraw",
      "outputs": [],
      "stateMutability": "nonpayable",
      "type": "function"
    }
  ],
  "transactionHash": "0xc6b2336289e327880cc1c25c46418dd4b26ede40f7ae2da6d33c886b301f42a0",
  "args": [
    "0x951397286E4b78aE5827502ed494d7902D3CCA8C",
    "0x8f156189A3CD28dFc8FB7BbbAce58F98F09c0bB3",
    "0x030bA81f1c18d280636F32af80b9AAd02Cf0854e",
    "Aave_V2_ETH"
  ],
  "numDeployments": 2,
  "solcInputHash": "a0b662b50d0a8da264ba4c9ad8296fd3",
  "bytecode": "0x6101406040523480156200001257600080fd5b506040516200444b3803806200444b8339810160408190526200003591620005ba565b818484826001600160a01b038316620000955760405162461bcd60e51b815260206004820152601460248201527f706f6f6c2d616464726573732d69732d7a65726f00000000000000000000000060448201526064015b60405180910390fd5b6001600160a01b038216620000ed5760405162461bcd60e51b815260206004820152601760248201527f737761707065722d616464726573732d69732d7a65726f00000000000000000060448201526064016200008c565b600280546001600160a01b0319166001600160a01b0384811691909117909155831660a081905260408051637e062a3560e11b8152905163fc0c546a91600480820192602092909190829003018186803b1580156200014b57600080fd5b505afa15801562000160573d6000803e3d6000fd5b505050506040513d601f19601f82011682018060405250810190620001869190620006b3565b6001600160a01b03908116608052600080546001600160a01b031916918316919091179055620001cd620001b73390565b60036200044060201b62001f311790919060201c565b6200020f5760405162461bcd60e51b81526020600482015260116024820152701859190b5ad9595c195c8b59985a5b1959607a1b60448201526064016200008c565b5050604080518082019091526002815261031360f41b602082015290506001600160a01b038216620002565760405162461bcd60e51b81526004016200008c9190620006da565b506001600160a01b038116610120819052604080516375d2641360e01b815290516375d2641391600480820192602092909190829003018186803b1580156200029e57600080fd5b505afa925050508015620002d1575060408051601f3d908101601f19168201909252620002ce91810190620006b3565b60015b620002dc57620002e9565b6001600160a01b031660e0525b73b53c1a33016b2dc2ff3653530bff1848a515c8c561010081905260408051630261bf8b60e01b81529051630261bf8b91600480820192602092909190829003018186803b1580156200033b57600080fd5b505afa15801562000350573d6000803e3d6000fd5b505050506040513d601f19601f82011682018060405250810190620003769190620006b3565b6001600160a01b0390811660c052610100516040516321f8a72160e01b8152600160f81b60048201529116906321f8a7219060240160206040518083038186803b158015620003c457600080fd5b505afa158015620003d9573d6000803e3d6000fd5b505050506040513d601f19601f82011682018060405250810190620003ff9190620006b3565b600580546001600160a01b0319166001600160a01b039290921691909117905550805162000435906006906020840190620004b2565b50505050506200074c565b600062000457836001600160a01b03841662000460565b90505b92915050565b6000818152600183016020526040812054620004a9575081546001818101845560008481526020808220909301849055845484825282860190935260409020919091556200045a565b5060006200045a565b828054620004c0906200070f565b90600052602060002090601f016020900481019282620004e457600085556200052f565b82601f10620004ff57805160ff19168380011785556200052f565b828001600101855582156200052f579182015b828111156200052f57825182559160200191906001019062000512565b506200053d92915062000541565b5090565b5b808211156200053d576000815560010162000542565b6001600160a01b03811681146200056e57600080fd5b50565b634e487b7160e01b600052604160045260246000fd5b60005b83811015620005a45781810151838201526020016200058a565b83811115620005b4576000848401525b50505050565b60008060008060808587031215620005d157600080fd5b8451620005de8162000558565b6020860151909450620005f18162000558565b6040860151909350620006048162000558565b60608601519092506001600160401b03808211156200062257600080fd5b818701915087601f8301126200063757600080fd5b8151818111156200064c576200064c62000571565b604051601f8201601f19908116603f0116810190838211818310171562000677576200067762000571565b816040528281528a60208487010111156200069157600080fd5b620006a483602083016020880162000587565b979a9699509497505050505050565b600060208284031215620006c657600080fd5b8151620006d38162000558565b9392505050565b6020815260008251806020840152620006fb81604085016020870162000587565b601f01601f19169190910160400192915050565b600181811c908216806200072457607f821691505b602082108114156200074657634e487b7160e01b600052602260045260246000fd5b50919050565b60805160a05160c05160e0516101005161012051613b77620008d4600039600081816110af01528181611a6901528181612aa301528181612b3401528181612e38015261373c015260005050600081816103620152818161317e01526131c201526000818161047f0152818161225a01528181613013015261352d0152600081816102530152818161094301528181610c9601528181610ddd01528181610eb201528181610f65015281816112a801528181611375015281816115a0015281816117ae0152818161240601528181612c1401528181612c5f0152612cfc0152600081816103de0152818161044e015281816105b5015281816107c30152818161086601528181610d2301528181610dbb01528181610e2901528181610ee5015281816110ea01528181611524015281816119d201528181611b4701528181611c2c01528181611dfa01528181611e3801528181612139015281816121e6015281816122380152818161248201528181612bf201528181612d990152612f1c0152613b776000f3fe608060405234801561001057600080fd5b50600436106101fb5760003560e01c8063680ff4581161011a578063d3033c39116100ad578063ec78e8321161007c578063ec78e832146104a1578063ee330ee3146104b4578063f51896f8146104c7578063fc0c546a146104cf578063ffa1ad74146104e057600080fd5b8063d3033c3914610439578063d8dfeb451461044c578063e5328e0614610472578063e9d337b81461047a57600080fd5b8063b2016bd4116100e9578063b2016bd4146103d9578063c415b95c14610400578063ce5494bb14610413578063d2c35ce81461042657600080fd5b8063680ff4581461039f5780637d7c2a1c146103a7578063951dc22c146103af578063a3f4df7e146103c457600080fd5b80632e1a7d4d1161019257806348ccda3c1161016157806348ccda3c146103425780635f2475ca1461035d5780635f9d4d2e1461038457806360a05a851461039757600080fd5b80632e1a7d4d146102e65780633ac9fc11146102f95780634032b72b1461030c578063440d72481461031f57600080fd5b8063189adf76116101ce578063189adf761461028d5780631fc29c011461029557806321fc6bb0146102b05780632b3297f9146102d357600080fd5b806301681a62146102005780631026013a1461021557806314ae9f2e1461023b57806316f0115b1461024e575b600080fd5b61021361020e3660046137d9565b610504565b005b6102286102233660046137f6565b61075b565b6040519081526020015b60405180910390f35b6102136102493660046137d9565b610941565b6102757f000000000000000000000000000000000000000000000000000000000000000081565b6040516001600160a01b039091168152602001610232565b610213610a89565b610275734da27a545c0c5b758a6ba100e3a049001de870f581565b6102b8610ae1565b60408051938452602084019290925290820152606001610232565b600254610275906001600160a01b031681565b6102136102f43660046137f6565b610c93565b6102136103073660046137f6565b610f0c565b61021361031a3660046137d9565b610f63565b61033261032d3660046137d9565b6110ab565b6040519015158152602001610232565b610275737fc66500c84a76ad7e9c93437bfc5ac33e2ddae981565b6102757f000000000000000000000000000000000000000000000000000000000000000081565b600554610275906001600160a01b031681565b610332611124565b610332611147565b6102b86111a5565b6103b761120b565b6040516102329190613853565b6103cc611217565b6040516102329190613892565b6102757f000000000000000000000000000000000000000000000000000000000000000081565b600154610275906001600160a01b031681565b6102136104213660046137d9565b6112a5565b6102136104343660046137d9565b61159e565b6102136104473660046137d9565b6117ac565b7f0000000000000000000000000000000000000000000000000000000000000000610275565b6102286119ba565b6102757f000000000000000000000000000000000000000000000000000000000000000081565b600054610275906001600160a01b031681565b6102286104c23660046138c5565b611af5565b610332611f15565b6000546001600160a01b0316610275565b6103cc604051806040016040528060058152602001640352e312e360dc1b81525081565b610511335b600390611f4d565b61055b5760405162461bcd60e51b815260206004820152601660248201527531b0b63632b916b4b996b737ba16b096b5b2b2b832b960511b60448201526064015b60405180910390fd5b6001546001600160a01b03166105b35760405162461bcd60e51b815260206004820152601560248201527f6665652d636f6c6c6563746f722d6e6f742d73657400000000000000000000006044820152606401610552565b7f00000000000000000000000000000000000000000000000000000000000000006001600160a01b0316816001600160a01b031614156106355760405162461bcd60e51b815260206004820152601f60248201527f6e6f742d616c6c6f7765642d746f2d73776565702d636f6c6c61746572616c006044820152606401610552565b61063e816110ab565b156106825760405162461bcd60e51b815260206004820152601460248201527306e6f742d616c6c6f7765642d746f2d73776565760641b6044820152606401610552565b6001600160a01b03811673eeeeeeeeeeeeeeeeeeeeeeeeeeeeeeeeeeeeeeee14156106c0576001546106bd906001600160a01b031647611f6f565b50565b6040516370a0823160e01b81523060048201526000906001600160a01b038316906370a082319060240160206040518083038186803b15801561070257600080fd5b505afa158015610716573d6000803e3d6000fd5b505050506040513d601f19601f8201168201806040525081019061073a91906138f1565b600154909150610757906001600160a01b0384811691168361208d565b5050565b600061076633610509565b6107ab5760405162461bcd60e51b815260206004820152601660248201527531b0b63632b916b4b996b737ba16b096b5b2b2b832b960511b6044820152606401610552565b6040516370a0823160e01b81523060048201526000907f00000000000000000000000000000000000000000000000000000000000000006001600160a01b0316906370a082319060240160206040518083038186803b15801561080d57600080fd5b505afa158015610821573d6000803e3d6000fd5b505050506040513d601f19601f8201168201806040525081019061084591906138f1565b905061084f61211d565b6040516370a0823160e01b815230600482015281907f00000000000000000000000000000000000000000000000000000000000000006001600160a01b0316906370a082319060240160206040518083038186803b1580156108b057600080fd5b505afa1580156108c4573d6000803e3d6000fd5b505050506040513d601f19601f820116820180604052508101906108e891906138f1565b6108f29190613920565b91508282101561093b5760405162461bcd60e51b81526020600482015260146024820152731b9bdd0b595b9bdd59da0b585b5bdd5b9d13dd5d60621b6044820152606401610552565b50919050565b7f00000000000000000000000000000000000000000000000000000000000000006001600160a01b0316630c340a246040518163ffffffff1660e01b815260040160206040518083038186803b15801561099a57600080fd5b505afa1580156109ae573d6000803e3d6000fd5b505050506040513d601f19601f820116820180604052508101906109d29190613937565b6001600160a01b0316336001600160a01b031614610a325760405162461bcd60e51b815260206004820152601a60248201527f63616c6c65722d69732d6e6f742d7468652d676f7665726e6f720000000000006044820152606401610552565b610a3d60038261215e565b6106bd5760405162461bcd60e51b815260206004820152601460248201527f72656d6f76652d6b65657065722d6661696c65640000000000000000000000006044820152606401610552565b610a9233610509565b610ad75760405162461bcd60e51b815260206004820152601660248201527531b0b63632b916b4b996b737ba16b096b5b2b2b832b960511b6044820152606401610552565b610adf612173565b565b60405163091030c360e01b815230600482015260009081908190734da27a545c0c5b758a6ba100e3a049001de870f59063091030c39060240160206040518083038186803b158015610b3257600080fd5b505afa158015610b46573d6000803e3d6000fd5b505050506040513d601f19601f82011682018060405250810190610b6a91906138f1565b9250734da27a545c0c5b758a6ba100e3a049001de870f56001600160a01b03166372b49d636040518163ffffffff1660e01b815260040160206040518083038186803b158015610bb957600080fd5b505afa158015610bcd573d6000803e3d6000fd5b505050506040513d601f19601f82011682018060405250810190610bf191906138f1565b610bfb9084613954565b9150734da27a545c0c5b758a6ba100e3a049001de870f56001600160a01b031663359c4a966040518163ffffffff1660e01b815260040160206040518083038186803b158015610c4a57600080fd5b505afa158015610c5e573d6000803e3d6000fd5b505050506040513d601f19601f82011682018060405250810190610c8291906138f1565b610c8c9083613954565b9050909192565b337f00000000000000000000000000000000000000000000000000000000000000006001600160a01b031614610d0b5760405162461bcd60e51b815260206004820152601960248201527f63616c6c65722d69732d6e6f742d7665737065722d706f6f6c000000000000006044820152606401610552565b6040516370a0823160e01b81523060048201526000907f00000000000000000000000000000000000000000000000000000000000000006001600160a01b0316906370a082319060240160206040518083038186803b158015610d6d57600080fd5b505afa158015610d81573d6000803e3d6000fd5b505050506040513d601f19601f82011682018060405250810190610da591906138f1565b9050818110610e02576107576001600160a01b037f0000000000000000000000000000000000000000000000000000000000000000167f00000000000000000000000000000000000000000000000000000000000000008461208d565b610e14610e0f8284613920565b6121e1565b6040516370a0823160e01b81523060048201527f00000000000000000000000000000000000000000000000000000000000000006001600160a01b0316906370a082319060240160206040518083038186803b158015610e7357600080fd5b505afa158015610e87573d6000803e3d6000fd5b505050506040513d601f19601f82011682018060405250810190610eab91906138f1565b90506107577f0000000000000000000000000000000000000000000000000000000000000000610edb848461220c565b6001600160a01b037f000000000000000000000000000000000000000000000000000000000000000016919061208d565b610f1533610509565b610f5a5760405162461bcd60e51b815260206004820152601660248201527531b0b63632b916b4b996b737ba16b096b5b2b2b832b960511b6044820152606401610552565b6106bd81612222565b7f00000000000000000000000000000000000000000000000000000000000000006001600160a01b0316630c340a246040518163ffffffff1660e01b815260040160206040518083038186803b158015610fbc57600080fd5b505afa158015610fd0573d6000803e3d6000fd5b505050506040513d601f19601f82011682018060405250810190610ff49190613937565b6001600160a01b0316336001600160a01b0316146110545760405162461bcd60e51b815260206004820152601a60248201527f63616c6c65722d69732d6e6f742d7468652d676f7665726e6f720000000000006044820152606401610552565b61105f600382611f31565b6106bd5760405162461bcd60e51b815260206004820152601160248201527f6164642d6b65657065722d6661696c65640000000000000000000000000000006044820152606401610552565b60007f00000000000000000000000000000000000000000000000000000000000000006001600160a01b0316826001600160a01b0316148061111e57507f00000000000000000000000000000000000000000000000000000000000000006001600160a01b0316826001600160a01b0316145b92915050565b6000806000611131610ae1565b925050915061114082826122ab565b9250505090565b600061115233610509565b6111975760405162461bcd60e51b815260206004820152601660248201527531b0b63632b916b4b996b737ba16b096b5b2b2b832b960511b6044820152606401610552565b61119f61234a565b90505b90565b600080806111b233610509565b6111f75760405162461bcd60e51b815260206004820152601660248201527531b0b63632b916b4b996b737ba16b096b5b2b2b832b960511b6044820152606401610552565b6111ff6123cd565b9250925092505b909192565b606061119f600361250c565b600680546112249061396c565b80601f01602080910402602001604051908101604052809291908181526020018280546112509061396c565b801561129d5780601f106112725761010080835404028352916020019161129d565b820191906000526020600020905b81548152906001019060200180831161128057829003601f168201915b505050505081565b337f00000000000000000000000000000000000000000000000000000000000000006001600160a01b03161461131d5760405162461bcd60e51b815260206004820152601960248201527f63616c6c65722d69732d6e6f742d7665737065722d706f6f6c000000000000006044820152606401610552565b6001600160a01b0381166113735760405162461bcd60e51b815260206004820152601c60248201527f6e65772d73747261746567792d616464726573732d69732d7a65726f000000006044820152606401610552565b7f00000000000000000000000000000000000000000000000000000000000000006001600160a01b0316816001600160a01b03166316f0115b6040518163ffffffff1660e01b815260040160206040518083038186803b1580156113d657600080fd5b505afa1580156113ea573d6000803e3d6000fd5b505050506040513d601f19601f8201168201806040525081019061140e9190613937565b6001600160a01b0316146114645760405162461bcd60e51b815260206004820152601660248201527f6e6f742d76616c69642d6e65772d7374726174656779000000000000000000006044820152606401610552565b61146d81612519565b6000546040516370a0823160e01b81523060048201526115019183916001600160a01b03909116906370a082319060240160206040518083038186803b1580156114b657600080fd5b505afa1580156114ca573d6000803e3d6000fd5b505050506040513d601f19601f820116820180604052508101906114ee91906138f1565b6000546001600160a01b0316919061208d565b6040516370a0823160e01b81523060048201526106bd9082906001600160a01b037f000000000000000000000000000000000000000000000000000000000000000016906370a082319060240160206040518083038186803b15801561156657600080fd5b505afa15801561157a573d6000803e3d6000fd5b505050506040513d601f19601f82011682018060405250810190610edb91906138f1565b7f00000000000000000000000000000000000000000000000000000000000000006001600160a01b0316630c340a246040518163ffffffff1660e01b815260040160206040518083038186803b1580156115f757600080fd5b505afa15801561160b573d6000803e3d6000fd5b505050506040513d601f19601f8201168201806040525081019061162f9190613937565b6001600160a01b0316336001600160a01b03161461168f5760405162461bcd60e51b815260206004820152601a60248201527f63616c6c65722d69732d6e6f742d7468652d676f7665726e6f720000000000006044820152606401610552565b6001600160a01b0381166116e55760405162461bcd60e51b815260206004820152601d60248201527f6665652d636f6c6c6563746f722d616464726573732d69732d7a65726f0000006044820152606401610552565b6001546001600160a01b03828116911614156117435760405162461bcd60e51b815260206004820152601560248201527f6665652d636f6c6c6563746f722d69732d73616d6500000000000000000000006044820152606401610552565b6001546040516001600160a01b038084169216907f0f06062680f9bd68e786e9980d9bb03d73d5620fc3b345e417b6eacb310b970690600090a36001805473ffffffffffffffffffffffffffffffffffffffff19166001600160a01b0392909216919091179055565b7f00000000000000000000000000000000000000000000000000000000000000006001600160a01b0316630c340a246040518163ffffffff1660e01b815260040160206040518083038186803b15801561180557600080fd5b505afa158015611819573d6000803e3d6000fd5b505050506040513d601f19601f8201168201806040525081019061183d9190613937565b6001600160a01b0316336001600160a01b03161461189d5760405162461bcd60e51b815260206004820152601a60248201527f63616c6c65722d69732d6e6f742d7468652d676f7665726e6f720000000000006044820152606401610552565b6001600160a01b0381166118f35760405162461bcd60e51b815260206004820152601760248201527f737761707065722d616464726573732d69732d7a65726f0000000000000000006044820152606401610552565b6002546001600160a01b03828116911614156119515760405162461bcd60e51b815260206004820152600f60248201527f737761707065722d69732d73616d6500000000000000000000000000000000006044820152606401610552565b6002546040516001600160a01b038084169216907f6c953b7ec311055c20b96a42cea31e89528e375b1bf953a503db40854b3188fe90600090a36002805473ffffffffffffffffffffffffffffffffffffffff19166001600160a01b0392909216919091179055565b6040516370a0823160e01b81523060048201526000907f00000000000000000000000000000000000000000000000000000000000000006001600160a01b0316906370a082319060240160206040518083038186803b158015611a1c57600080fd5b505afa158015611a30573d6000803e3d6000fd5b505050506040513d601f19601f82011682018060405250810190611a5491906138f1565b6040516370a0823160e01b81523060048201527f00000000000000000000000000000000000000000000000000000000000000006001600160a01b0316906370a082319060240160206040518083038186803b158015611ab357600080fd5b505afa158015611ac7573d6000803e3d6000fd5b505050506040513d601f19601f82011682018060405250810190611aeb91906138f1565b61119f9190613954565b6000611b0033610509565b611b455760405162461bcd60e51b815260206004820152601660248201527531b0b63632b916b4b996b737ba16b096b5b2b2b832b960511b6044820152606401610552565b7f00000000000000000000000000000000000000000000000000000000000000006001600160a01b0316836001600160a01b03161415611bc75760405162461bcd60e51b815260206004820152601f60248201527f6e6f742d616c6c6f7765642d746f2d73776565702d636f6c6c61746572616c006044820152606401610552565b611bd0836110ab565b15611c145760405162461bcd60e51b815260206004820152601460248201527306e6f742d616c6c6f7765642d746f2d73776565760641b6044820152606401610552565b6040516370a0823160e01b81523060048201526000907f00000000000000000000000000000000000000000000000000000000000000006001600160a01b0316906370a082319060240160206040518083038186803b158015611c7657600080fd5b505afa158015611c8a573d6000803e3d6000fd5b505050506040513d601f19601f82011682018060405250810190611cae91906138f1565b6040516370a0823160e01b81523060048201529091506000906001600160a01b038616906370a082319060240160206040518083038186803b158015611cf357600080fd5b505afa158015611d07573d6000803e3d6000fd5b505050506040513d601f19601f82011682018060405250810190611d2b91906138f1565b90508015611e2157600254604051636eb1769f60e11b81523060048201526001600160a01b0391821660248201529086169063dd62ed3e9060440160206040518083038186803b158015611d7e57600080fd5b505afa158015611d92573d6000803e3d6000fd5b505050506040513d601f19601f82011682018060405250810190611db691906138f1565b811115611df457600254611dd8906001600160a01b03878116911660006125c5565b600254611df4906001600160a01b0387811691166000196125c5565b611e1f857f0000000000000000000000000000000000000000000000000000000000000000836126f0565b505b6040516370a0823160e01b815230600482015282907f00000000000000000000000000000000000000000000000000000000000000006001600160a01b0316906370a082319060240160206040518083038186803b158015611e8257600080fd5b505afa158015611e96573d6000803e3d6000fd5b505050506040513d601f19601f82011682018060405250810190611eba91906138f1565b611ec49190613920565b925083831015611f0d5760405162461bcd60e51b81526020600482015260146024820152731b9bdd0b595b9bdd59da0b585b5bdd5b9d13dd5d60621b6044820152606401610552565b505092915050565b6000806000611f22610ae1565b92509250506111408282612794565b6000611f46836001600160a01b0384166127a9565b9392505050565b6001600160a01b03811660009081526001830160205260408120541515611f46565b80471015611fbf5760405162461bcd60e51b815260206004820152601d60248201527f416464726573733a20696e73756666696369656e742062616c616e63650000006044820152606401610552565b6000826001600160a01b03168260405160006040518083038185875af1925050503d806000811461200c576040519150601f19603f3d011682016040523d82523d6000602084013e612011565b606091505b50509050806120885760405162461bcd60e51b815260206004820152603a60248201527f416464726573733a20756e61626c6520746f2073656e642076616c75652c207260448201527f6563697069656e74206d617920686176652072657665727465640000000000006064820152608401610552565b505050565b6040516001600160a01b03831660248201526044810182905261208890849063a9059cbb60e01b906064015b60408051601f198184030181529190526020810180517bffffffffffffffffffffffffffffffffffffffffffffffffffffffff167fffffffff00000000000000000000000000000000000000000000000000000000909316929092179091526127f8565b6000806121286128ca565b9092509050801561075757610757827f0000000000000000000000000000000000000000000000000000000000000000836128f2565b6000611f46836001600160a01b03841661298e565b6040516301e9a69560e41b81523060048201526000196024820152734da27a545c0c5b758a6ba100e3a049001de870f590631e9a695090604401600060405180830381600087803b1580156121c757600080fd5b505af11580156121db573d6000803e3d6000fd5b50505050565b6107577f00000000000000000000000000000000000000000000000000000000000000003083612a81565b600081831061221b5781611f46565b5090919050565b61222b81612be5565b61227f6001600160a01b037f0000000000000000000000000000000000000000000000000000000000000000167f0000000000000000000000000000000000000000000000000000000000000000836125c5565b6002546106bd90737fc66500c84a76ad7e9c93437bfc5ac33e2ddae9906001600160a01b0316836125c5565b6040516370a0823160e01b81523060048201526000908190734da27a545c0c5b758a6ba100e3a049001de870f5906370a082319060240160206040518083038186803b1580156122fa57600080fd5b505afa15801561230e573d6000803e3d6000fd5b505050506040513d601f19601f8201168201806040525081019061233291906138f1565b118015611f465750821580611f465750504211919050565b6000612354611124565b156123c757734da27a545c0c5b758a6ba100e3a049001de870f56001600160a01b031663787a08a66040518163ffffffff1660e01b8152600401600060405180830381600087803b1580156123a857600080fd5b505af11580156123bc573d6000803e3d6000fd5b505050506001905090565b50600090565b60008060006123da612c39565b6040516302df682360e11b815260048101849052602481018390526044810182905292955090935091507f00000000000000000000000000000000000000000000000000000000000000006001600160a01b0316906305bed04690606401600060405180830381600087803b15801561245257600080fd5b505af1158015612466573d6000803e3d6000fd5b50506040516370a0823160e01b815230600482015261120692507f000000000000000000000000000000000000000000000000000000000000000091506001600160a01b038216906370a082319060240160206040518083038186803b1580156124cf57600080fd5b505afa1580156124e3573d6000803e3d6000fd5b505050506040513d601f19601f8201168201806040525081019061250791906138f1565b612fda565b60606000611f46836130fc565b6040516370a0823160e01b8152306004820152600090734da27a545c0c5b758a6ba100e3a049001de870f5906370a082319060240160206040518083038186803b15801561256657600080fd5b505afa15801561257a573d6000803e3d6000fd5b505050506040513d601f19601f8201168201806040525081019061259e91906138f1565b9050801561075757610757734da27a545c0c5b758a6ba100e3a049001de870f5838361208d565b80158061264e5750604051636eb1769f60e11b81523060048201526001600160a01b03838116602483015284169063dd62ed3e9060440160206040518083038186803b15801561261457600080fd5b505afa158015612628573d6000803e3d6000fd5b505050506040513d601f19601f8201168201806040525081019061264c91906138f1565b155b6126c05760405162461bcd60e51b815260206004820152603660248201527f5361666545524332303a20617070726f76652066726f6d206e6f6e2d7a65726f60448201527f20746f206e6f6e2d7a65726f20616c6c6f77616e6365000000000000000000006064820152608401610552565b6040516001600160a01b03831660248201526044810182905261208890849063095ea7b360e01b906064016120b9565b600254604051636ccb2b0160e01b81526001600160a01b038581166004830152848116602483015260448201849052600160648301523060848301526000921690636ccb2b019060a401602060405180830381600087803b15801561275457600080fd5b505af1158015612768573d6000803e3d6000fd5b505050506040513d601f19601f8201168201806040525081019061278c91906138f1565b949350505050565b60008242118015611f46575050421115919050565b60008181526001830160205260408120546127f05750815460018181018455600084815260208082209093018490558454848252828601909352604090209190915561111e565b50600061111e565b600061284d826040518060400160405280602081526020017f5361666545524332303a206c6f772d6c6576656c2063616c6c206661696c6564815250856001600160a01b03166131589092919063ffffffff16565b805190915015612088578080602001905181019061286b91906139a1565b6120885760405162461bcd60e51b815260206004820152602a60248201527f5361666545524332303a204552433230206f7065726174696f6e20646964206e6044820152691bdd081cdd58d8d9595960b21b6064820152608401610552565b600080737fc66500c84a76ad7e9c93437bfc5ac33e2ddae96128ea613167565b915091509091565b600254604051636ccb2b0160e01b81526001600160a01b0385811660048301528481166024830152604482018490526001606483015230608483015290911690636ccb2b019060a401602060405180830381600087803b15801561295557600080fd5b505af1925050508015612985575060408051601f3d908101601f19168201909252612982918101906138f1565b60015b6121db57505050565b60008181526001830160205260408120548015612a775760006129b2600183613920565b85549091506000906129c690600190613920565b9050818114612a2b5760008660000182815481106129e6576129e66139c3565b9060005260206000200154905080876000018481548110612a0957612a096139c3565b6000918252602080832090910192909255918252600188019052604090208390555b8554869080612a3c57612a3c6139d9565b60019003818190600052602060002001600090559055856001016000868152602001908152602001600020600090556001935050505061111e565b600091505061111e565b6040516370a0823160e01b815230600482015260009081906001600160a01b037f000000000000000000000000000000000000000000000000000000000000000016906370a082319060240160206040518083038186803b158015612ae557600080fd5b505afa158015612af9573d6000803e3d6000fd5b505050506040513d601f19601f82011682018060405250810190612b1d91906138f1565b6040516370a0823160e01b81526001600160a01b037f0000000000000000000000000000000000000000000000000000000000000000811660048301529192506000918716906370a082319060240160206040518083038186803b158015612b8457600080fd5b505afa158015612b98573d6000803e3d6000fd5b505050506040513d601f19601f82011682018060405250810190612bbc91906138f1565b9050612bdb8686612bd687612bd1878761220c565b61220c565b6134f5565b9695505050505050565b6106bd6001600160a01b037f0000000000000000000000000000000000000000000000000000000000000000167f0000000000000000000000000000000000000000000000000000000000000000836125c5565b604051636a9eee1360e11b81523060048201526000908190819081906001600160a01b037f0000000000000000000000000000000000000000000000000000000000000000169063d53ddc269060240160206040518083038186803b158015612ca157600080fd5b505afa158015612cb5573d6000803e3d6000fd5b505050506040513d601f19601f82011682018060405250810190612cd991906138f1565b604051639f2b283360e01b81523060048201529091506000906001600160a01b037f00000000000000000000000000000000000000000000000000000000000000001690639f2b28339060240160206040518083038186803b158015612d3e57600080fd5b505afa158015612d52573d6000803e3d6000fd5b505050506040513d601f19601f82011682018060405250810190612d7691906138f1565b6040516370a0823160e01b81523060048201529091506000906001600160a01b037f000000000000000000000000000000000000000000000000000000000000000016906370a082319060240160206040518083038186803b158015612ddb57600080fd5b505afa158015612def573d6000803e3d6000fd5b505050506040513d601f19601f82011682018060405250810190612e1391906138f1565b6040516370a0823160e01b815230600482015290915060009082906001600160a01b037f000000000000000000000000000000000000000000000000000000000000000016906370a082319060240160206040518083038186803b158015612e7a57600080fd5b505afa158015612e8e573d6000803e3d6000fd5b505050506040513d601f19601f82011682018060405250810190612eb291906138f1565b612ebc9190613954565b905082811115612ed757612ed08382613920565b9650612ee4565b612ee18184613920565b95505b6000612ef08589613954565b905082811115612fa157612f07610e0f8483613920565b6040516370a0823160e01b81523060048201527f00000000000000000000000000000000000000000000000000000000000000006001600160a01b0316906370a082319060240160206040518083038186803b158015612f6657600080fd5b505afa158015612f7a573d6000803e3d6000fd5b505050506040513d601f19601f82011682018060405250810190612f9e91906138f1565b92505b612fab838661220c565b9550858311612fbb576000612fce565b612fce612fc88785613920565b8961220c565b97505050505050909192565b80156107575760405163e8eda9df60e01b81526001600160a01b03838116600483015260248201839052306044830152600060648301527f0000000000000000000000000000000000000000000000000000000000000000169063e8eda9df90608401600060405180830381600087803b15801561305757600080fd5b505af1925050508015613068575060015b610757576130746139ef565b806308c379a014156130f05750613089613a45565b8061309457506130f2565b61309d81613acf565b611a9b60f11b146120885760405162461bcd60e51b815260206004820152600e60248201527f6465706f736974206661696c65640000000000000000000000000000000000006044820152606401610552565b505b3d6000803e3d6000fd5b60608160000180548060200260200160405190810160405280929190818152602001828054801561314c57602002820191906000526020600020905b815481526020019060010190808311613138575b50505050509050919050565b606061278c84846000856135ec565b600080600080613175610ae1565b919450925090507f00000000000000000000000000000000000000000000000000000000000000006001600160a01b0316158015906131bb57508215806131bb57508042115b1561326d577f00000000000000000000000000000000000000000000000000000000000000006001600160a01b0316633111e7b36131f7613714565b600019306040518463ffffffff1660e01b815260040161321993929190613af3565b602060405180830381600087803b15801561323357600080fd5b505af1158015613247573d6000803e3d6000fd5b505050506040513d601f19601f8201168201806040525081019061326b91906138f1565b505b6040516370a0823160e01b8152306004820152600090734da27a545c0c5b758a6ba100e3a049001de870f5906370a082319060240160206040518083038186803b1580156132ba57600080fd5b505afa1580156132ce573d6000803e3d6000fd5b505050506040513d601f19601f820116820180604052508101906132f291906138f1565b111561346b57613300610ae1565b919450925090506133118282612794565b15613387576040516301e9a69560e41b81523060048201526000196024820152734da27a545c0c5b758a6ba100e3a049001de870f590631e9a695090604401600060405180830381600087803b15801561336a57600080fd5b505af115801561337e573d6000803e3d6000fd5b505050506133fe565b61339183826122ab565b156133fe57734da27a545c0c5b758a6ba100e3a049001de870f56001600160a01b031663787a08a66040518163ffffffff1660e01b8152600401600060405180830381600087803b1580156133e557600080fd5b505af11580156133f9573d6000803e3d6000fd5b505050505b6040516309a99b4f60e41b81523060048201526000196024820152734da27a545c0c5b758a6ba100e3a049001de870f590639a99b4f090604401600060405180830381600087803b15801561345257600080fd5b505af1158015613466573d6000803e3d6000fd5b505050505b6040516370a0823160e01b8152306004820152737fc66500c84a76ad7e9c93437bfc5ac33e2ddae9906370a082319060240160206040518083038186803b1580156134b557600080fd5b505afa1580156134c9573d6000803e3d6000fd5b505050506040513d601f19601f820116820180604052508101906134ed91906138f1565b935050505090565b600081156135e557604051631a4ca37b60e21b81526001600160a01b03858116600483015260248201849052848116604483015283917f0000000000000000000000000000000000000000000000000000000000000000909116906369328dec90606401602060405180830381600087803b15801561357357600080fd5b505af1158015613587573d6000803e3d6000fd5b505050506040513d601f19601f820116820180604052508101906135ab91906138f1565b1460405180604001604052806002815260200161323960f01b81525090611f0d5760405162461bcd60e51b81526004016105529190613892565b5092915050565b60608247101561364d5760405162461bcd60e51b815260206004820152602660248201527f416464726573733a20696e73756666696369656e742062616c616e636520666f6044820152651c8818d85b1b60d21b6064820152608401610552565b843b61369b5760405162461bcd60e51b815260206004820152601d60248201527f416464726573733a2063616c6c20746f206e6f6e2d636f6e74726163740000006044820152606401610552565b600080866001600160a01b031685876040516136b79190613b25565b60006040518083038185875af1925050503d80600081146136f4576040519150601f19603f3d011682016040523d82523d6000602084013e6136f9565b606091505b509150915061370982828661378b565b979650505050505050565b60408051600180825281830190925260609160009190602080830190803683370190505090507f00000000000000000000000000000000000000000000000000000000000000008160008151811061376e5761376e6139c3565b6001600160a01b0390921660209283029190910190910152919050565b6060831561379a575081611f46565b8251156137aa5782518084602001fd5b8160405162461bcd60e51b81526004016105529190613892565b6001600160a01b03811681146106bd57600080fd5b6000602082840312156137eb57600080fd5b8135611f46816137c4565b60006020828403121561380857600080fd5b5035919050565b600081518084526020808501945080840160005b838110156138485781516001600160a01b031687529582019590820190600101613823565b509495945050505050565b602081526000611f46602083018461380f565b60005b83811015613881578181015183820152602001613869565b838111156121db5750506000910152565b60208152600082518060208401526138b1816040850160208701613866565b601f01601f19169190910160400192915050565b600080604083850312156138d857600080fd5b82356138e3816137c4565b946020939093013593505050565b60006020828403121561390357600080fd5b5051919050565b634e487b7160e01b600052601160045260246000fd5b6000828210156139325761393261390a565b500390565b60006020828403121561394957600080fd5b8151611f46816137c4565b600082198211156139675761396761390a565b500190565b600181811c9082168061398057607f821691505b6020821081141561093b57634e487b7160e01b600052602260045260246000fd5b6000602082840312156139b357600080fd5b81518015158114611f4657600080fd5b634e487b7160e01b600052603260045260246000fd5b634e487b7160e01b600052603160045260246000fd5b600060033d11156111a25760046000803e5060005160e01c90565b601f8201601f1916810167ffffffffffffffff81118282101715613a3e57634e487b7160e01b600052604160045260246000fd5b6040525050565b600060443d1015613a535790565b6040516003193d81016004833e81513d67ffffffffffffffff8160248401118184111715613a8357505050505090565b8285019150815181811115613a9b5750505050505090565b843d8701016020828501011115613ab55750505050505090565b613ac460208286010187613a0a565b509095945050505050565b8051602080830151919081101561093b5760001960209190910360031b1b16919050565b606081526000613b06606083018661380f565b90508360208301526001600160a01b0383166040830152949350505050565b60008251613b37818460208701613866565b919091019291505056fea264697066735822122048575757bb8dc83f9818b55eb408454c25720fbc18aa00b421194e7e75d85de264736f6c63430008090033",
  "devdoc": {
    "details": "This strategy will deposit collateral token in Aave and earn interest.",
    "kind": "dev",
    "methods": {
      "addKeeper(address)": {
        "params": {
          "_keeperAddress": "keeper address to add."
        }
      },
      "approveToken(uint256)": {
        "details": "Approve all required tokens"
      },
      "migrate(address)": {
        "details": "_beforeMigration hook can be implemented in child strategy to do extra steps.",
        "params": {
          "_newStrategy": "Address of new strategy"
        }
      },
      "rebalance()": {
        "returns": {
          "_loss": "Realized loss, if any, in collateral.",
          "_payback": "If strategy has any excess debt, we have to liquidate asset to payback excess debt.",
          "_profit": "Realized profit in collateral."
        }
      },
      "removeKeeper(address)": {
        "params": {
          "_keeperAddress": "keeper address to remove."
        }
      },
      "sweep(address)": {
        "params": {
          "_fromToken": "token address to sweep"
        }
      },
      "tvl()": {
        "details": "aToken and collateral are 1:1"
      },
      "updateFeeCollector(address)": {
        "params": {
          "_feeCollector": "fee collector address"
        }
      },
      "updateSwapper(address)": {
        "params": {
          "_swapper": "swapper address"
        }
      },
      "withdraw(uint256)": {
        "params": {
          "_amount": "Amount of collateral token"
        }
      }
    },
    "version": 1
  },
  "userdoc": {
    "kind": "user",
    "methods": {
      "addKeeper(address)": {
        "notice": "Add given address in keepers list."
      },
      "canStartCooldown()": {
        "notice": "Returns true if we should start cooldown"
      },
      "canUnstake()": {
        "notice": "Returns true if Aave can be unstaked"
      },
      "claimAndSwapRewards(uint256)": {
        "notice": "Claim rewardToken and convert rewardToken into collateral token."
      },
      "collateral()": {
        "notice": "Returns address of token correspond to collateral token"
      },
      "cooldownData()": {
        "notice": "Return cooldown related timestamps"
      },
      "isReservedToken(address)": {
        "notice": "Check whether given token is reserved or not. Reserved tokens are not allowed to sweep."
      },
      "keepers()": {
        "notice": "Return list of keepers"
      },
      "migrate(address)": {
        "notice": "Migrate all asset and vault ownership,if any, to new strategy"
      },
      "rebalance()": {
        "notice": "OnlyKeeper: Rebalance profit, loss and investment of this strategy.  Calculate profit, loss and payback of this strategy and realize profit/loss and  withdraw fund for payback, if any, and submit this report to pool."
      },
      "removeKeeper(address)": {
        "notice": "Remove given address from keepers list."
      },
      "startCooldown()": {
        "notice": "Initiate cooldown to unstake aave."
      },
      "swapToCollateral(address,uint256)": {
        "notice": "onlyKeeper:: Swap given token into collateral token."
      },
      "sweep(address)": {
        "notice": "sweep given token to feeCollector of strategy"
      },
      "token()": {
        "notice": "Returns address of token correspond to receipt token"
      },
      "tvl()": {
        "notice": "Report total value locked"
      },
      "unstakeAave()": {
        "notice": "Unstake Aave from stakedAave contract"
      },
      "updateFeeCollector(address)": {
        "notice": "Update fee collector"
      },
      "updateSwapper(address)": {
        "notice": "Update swapper"
      },
      "withdraw(uint256)": {
        "notice": "Withdraw collateral token from end protocol."
      }
    },
    "version": 1
  },
  "storageLayout": {
    "storage": [
      {
        "astId": 14875,
        "contract": "vesper-strategies/contracts/strategies/aave/v2/AaveV2.sol:AaveV2",
        "label": "receiptToken",
        "offset": 0,
        "slot": "0",
        "type": "t_address"
      },
      {
        "astId": 14881,
        "contract": "vesper-strategies/contracts/strategies/aave/v2/AaveV2.sol:AaveV2",
        "label": "feeCollector",
        "offset": 0,
        "slot": "1",
        "type": "t_address"
      },
      {
        "astId": 14884,
        "contract": "vesper-strategies/contracts/strategies/aave/v2/AaveV2.sol:AaveV2",
        "label": "swapper",
        "offset": 0,
        "slot": "2",
        "type": "t_contract(IRoutedSwapper)13443"
      },
      {
        "astId": 14897,
        "contract": "vesper-strategies/contracts/strategies/aave/v2/AaveV2.sol:AaveV2",
        "label": "_keepers",
        "offset": 0,
        "slot": "3",
        "type": "t_struct(AddressSet)3027_storage"
      },
      {
        "astId": 16294,
        "contract": "vesper-strategies/contracts/strategies/aave/v2/AaveV2.sol:AaveV2",
        "label": "aaveProtocolDataProvider",
        "offset": 0,
        "slot": "5",
        "type": "t_contract(AaveProtocolDataProvider)10219"
      },
      {
        "astId": 15907,
        "contract": "vesper-strategies/contracts/strategies/aave/v2/AaveV2.sol:AaveV2",
        "label": "NAME",
        "offset": 0,
        "slot": "6",
        "type": "t_string_storage"
      }
    ],
    "types": {
      "t_address": {
        "encoding": "inplace",
        "label": "address",
        "numberOfBytes": "20"
      },
      "t_array(t_bytes32)dyn_storage": {
        "base": "t_bytes32",
        "encoding": "dynamic_array",
        "label": "bytes32[]",
        "numberOfBytes": "32"
      },
      "t_bytes32": {
        "encoding": "inplace",
        "label": "bytes32",
        "numberOfBytes": "32"
      },
      "t_contract(AaveProtocolDataProvider)10219": {
        "encoding": "inplace",
        "label": "contract AaveProtocolDataProvider",
        "numberOfBytes": "20"
      },
      "t_contract(IRoutedSwapper)13443": {
        "encoding": "inplace",
        "label": "contract IRoutedSwapper",
        "numberOfBytes": "20"
      },
      "t_mapping(t_bytes32,t_uint256)": {
        "encoding": "mapping",
        "key": "t_bytes32",
        "label": "mapping(bytes32 => uint256)",
        "numberOfBytes": "32",
        "value": "t_uint256"
      },
      "t_string_storage": {
        "encoding": "bytes",
        "label": "string",
        "numberOfBytes": "32"
      },
      "t_struct(AddressSet)3027_storage": {
        "encoding": "inplace",
        "label": "struct EnumerableSet.AddressSet",
        "members": [
          {
            "astId": 3026,
            "contract": "vesper-strategies/contracts/strategies/aave/v2/AaveV2.sol:AaveV2",
            "label": "_inner",
            "offset": 0,
            "slot": "0",
            "type": "t_struct(Set)2726_storage"
          }
        ],
        "numberOfBytes": "64"
      },
      "t_struct(Set)2726_storage": {
        "encoding": "inplace",
        "label": "struct EnumerableSet.Set",
        "members": [
          {
            "astId": 2721,
            "contract": "vesper-strategies/contracts/strategies/aave/v2/AaveV2.sol:AaveV2",
            "label": "_values",
            "offset": 0,
            "slot": "0",
            "type": "t_array(t_bytes32)dyn_storage"
          },
          {
            "astId": 2725,
            "contract": "vesper-strategies/contracts/strategies/aave/v2/AaveV2.sol:AaveV2",
            "label": "_indexes",
            "offset": 0,
            "slot": "1",
            "type": "t_mapping(t_bytes32,t_uint256)"
          }
        ],
        "numberOfBytes": "64"
      },
      "t_uint256": {
        "encoding": "inplace",
        "label": "uint256",
        "numberOfBytes": "32"
      }
    }
  }
}