{
  "address": "0x69ea3FE4a34dD1d9c9B9cC0a3eB48e86fc18Af22",
  "abi": [
    {
      "inputs": [
        {
          "internalType": "address",
          "name": "_pool",
          "type": "address"
        },
        {
          "internalType": "address",
          "name": "_swapManager",
          "type": "address"
        },
        {
          "internalType": "address",
          "name": "_comptroller",
          "type": "address"
        },
        {
          "internalType": "address",
          "name": "_rewardToken",
          "type": "address"
        },
        {
          "internalType": "address",
          "name": "_receiptToken",
          "type": "address"
        },
        {
          "internalType": "string",
          "name": "_name",
          "type": "string"
        }
      ],
      "stateMutability": "nonpayable",
      "type": "constructor"
    },
    {
      "anonymous": false,
      "inputs": [
        {
          "indexed": true,
          "internalType": "address",
          "name": "previousFeeCollector",
          "type": "address"
        },
        {
          "indexed": true,
          "internalType": "address",
          "name": "newFeeCollector",
          "type": "address"
        }
      ],
      "name": "UpdatedFeeCollector",
      "type": "event"
    },
    {
      "anonymous": false,
      "inputs": [
        {
          "indexed": false,
          "internalType": "uint256",
          "name": "oldPeriod",
          "type": "uint256"
        },
        {
          "indexed": false,
          "internalType": "uint256",
          "name": "newPeriod",
          "type": "uint256"
        },
        {
          "indexed": false,
          "internalType": "uint256",
          "name": "oldRouterIdx",
          "type": "uint256"
        },
        {
          "indexed": false,
          "internalType": "uint256",
          "name": "newRouterIdx",
          "type": "uint256"
        }
      ],
      "name": "UpdatedOracleConfig",
      "type": "event"
    },
    {
      "anonymous": false,
      "inputs": [
        {
          "indexed": true,
          "internalType": "address",
          "name": "previousSwapManager",
          "type": "address"
        },
        {
          "indexed": true,
          "internalType": "address",
          "name": "newSwapManager",
          "type": "address"
        }
      ],
      "name": "UpdatedSwapManager",
      "type": "event"
    },
    {
      "anonymous": false,
      "inputs": [
        {
          "indexed": false,
          "internalType": "uint256",
          "name": "oldSwapSlippage",
          "type": "uint256"
        },
        {
          "indexed": false,
          "internalType": "uint256",
          "name": "newSwapSlippage",
          "type": "uint256"
        }
      ],
      "name": "UpdatedSwapSlippage",
      "type": "event"
    },
    {
      "inputs": [],
      "name": "COMPTROLLER",
      "outputs": [
        {
          "internalType": "contract Comptroller",
          "name": "",
          "type": "address"
        }
      ],
      "stateMutability": "view",
      "type": "function"
    },
    {
      "inputs": [],
      "name": "NAME",
      "outputs": [
        {
          "internalType": "string",
          "name": "",
          "type": "string"
        }
      ],
      "stateMutability": "view",
      "type": "function"
    },
    {
      "inputs": [],
      "name": "VERSION",
      "outputs": [
        {
          "internalType": "string",
          "name": "",
          "type": "string"
        }
      ],
      "stateMutability": "view",
      "type": "function"
    },
    {
      "inputs": [
        {
          "internalType": "address",
          "name": "_keeperAddress",
          "type": "address"
        }
      ],
      "name": "addKeeper",
      "outputs": [],
      "stateMutability": "nonpayable",
      "type": "function"
    },
    {
      "inputs": [],
      "name": "approveToken",
      "outputs": [],
      "stateMutability": "nonpayable",
      "type": "function"
    },
    {
      "inputs": [],
      "name": "collateralToken",
      "outputs": [
        {
          "internalType": "contract IERC20",
          "name": "",
          "type": "address"
        }
      ],
      "stateMutability": "view",
      "type": "function"
    },
    {
      "inputs": [],
      "name": "feeCollector",
      "outputs": [
        {
          "internalType": "address",
          "name": "",
          "type": "address"
        }
      ],
      "stateMutability": "view",
      "type": "function"
    },
    {
      "inputs": [
        {
          "internalType": "address",
          "name": "_token",
          "type": "address"
        }
      ],
      "name": "isReservedToken",
      "outputs": [
        {
          "internalType": "bool",
          "name": "",
          "type": "bool"
        }
      ],
      "stateMutability": "view",
      "type": "function"
    },
    {
      "inputs": [],
      "name": "keepers",
      "outputs": [
        {
          "internalType": "address[]",
          "name": "",
          "type": "address[]"
        }
      ],
      "stateMutability": "view",
      "type": "function"
    },
    {
      "inputs": [
        {
          "internalType": "address",
          "name": "_newStrategy",
          "type": "address"
        }
      ],
      "name": "migrate",
      "outputs": [],
      "stateMutability": "nonpayable",
      "type": "function"
    },
    {
      "inputs": [],
      "name": "oraclePeriod",
      "outputs": [
        {
          "internalType": "uint256",
          "name": "",
          "type": "uint256"
        }
      ],
      "stateMutability": "view",
      "type": "function"
    },
    {
      "inputs": [],
      "name": "oracleRouterIdx",
      "outputs": [
        {
          "internalType": "uint256",
          "name": "",
          "type": "uint256"
        }
      ],
      "stateMutability": "view",
      "type": "function"
    },
    {
      "inputs": [],
      "name": "pool",
      "outputs": [
        {
          "internalType": "address",
          "name": "",
          "type": "address"
        }
      ],
      "stateMutability": "view",
      "type": "function"
    },
    {
      "inputs": [],
      "name": "rebalance",
      "outputs": [],
      "stateMutability": "nonpayable",
      "type": "function"
    },
    {
      "inputs": [],
      "name": "receiptToken",
      "outputs": [
        {
          "internalType": "address",
          "name": "",
          "type": "address"
        }
      ],
      "stateMutability": "view",
      "type": "function"
    },
    {
      "inputs": [
        {
          "internalType": "address",
          "name": "_keeperAddress",
          "type": "address"
        }
      ],
      "name": "removeKeeper",
      "outputs": [],
      "stateMutability": "nonpayable",
      "type": "function"
    },
    {
      "inputs": [],
      "name": "rewardToken",
      "outputs": [
        {
          "internalType": "address",
          "name": "",
          "type": "address"
        }
      ],
      "stateMutability": "view",
      "type": "function"
    },
    {
      "inputs": [],
      "name": "setupOracles",
      "outputs": [],
      "stateMutability": "nonpayable",
      "type": "function"
    },
    {
      "inputs": [],
      "name": "swapManager",
      "outputs": [
        {
          "internalType": "contract ISwapManager",
          "name": "",
          "type": "address"
        }
      ],
      "stateMutability": "view",
      "type": "function"
    },
    {
      "inputs": [],
      "name": "swapSlippage",
      "outputs": [
        {
          "internalType": "uint256",
          "name": "",
          "type": "uint256"
        }
      ],
      "stateMutability": "view",
      "type": "function"
    },
    {
      "inputs": [
        {
          "internalType": "address",
          "name": "_fromToken",
          "type": "address"
        }
      ],
      "name": "sweepERC20",
      "outputs": [],
      "stateMutability": "nonpayable",
      "type": "function"
    },
    {
      "inputs": [],
      "name": "token",
      "outputs": [
        {
          "internalType": "address",
          "name": "",
          "type": "address"
        }
      ],
      "stateMutability": "view",
      "type": "function"
    },
    {
      "inputs": [],
      "name": "totalValue",
      "outputs": [
        {
          "internalType": "uint256",
          "name": "_totalValue",
          "type": "uint256"
        }
      ],
      "stateMutability": "view",
      "type": "function"
    },
    {
      "inputs": [],
      "name": "totalValueCurrent",
      "outputs": [
        {
          "internalType": "uint256",
          "name": "_totalValue",
          "type": "uint256"
        }
      ],
      "stateMutability": "nonpayable",
      "type": "function"
    },
    {
      "inputs": [
        {
          "internalType": "address",
          "name": "_feeCollector",
          "type": "address"
        }
      ],
      "name": "updateFeeCollector",
      "outputs": [],
      "stateMutability": "nonpayable",
      "type": "function"
    },
    {
      "inputs": [
        {
          "internalType": "uint256",
          "name": "_newPeriod",
          "type": "uint256"
        },
        {
          "internalType": "uint256",
          "name": "_newRouterIdx",
          "type": "uint256"
        }
      ],
      "name": "updateOracleConfig",
      "outputs": [],
      "stateMutability": "nonpayable",
      "type": "function"
    },
    {
      "inputs": [
        {
          "internalType": "address",
          "name": "_swapManager",
          "type": "address"
        }
      ],
      "name": "updateSwapManager",
      "outputs": [],
      "stateMutability": "nonpayable",
      "type": "function"
    },
    {
      "inputs": [
        {
          "internalType": "uint256",
          "name": "_newSwapSlippage",
          "type": "uint256"
        }
      ],
      "name": "updateSwapSlippage",
      "outputs": [],
      "stateMutability": "nonpayable",
      "type": "function"
    },
    {
      "inputs": [
        {
          "internalType": "uint256",
          "name": "_amount",
          "type": "uint256"
        }
      ],
      "name": "withdraw",
      "outputs": [],
      "stateMutability": "nonpayable",
      "type": "function"
    },
    {
      "stateMutability": "payable",
      "type": "receive"
    }
  ],
  "transactionHash": "0x440d919ab61be65d211234d845c917158402f85f453cbdddad28b0286dd294ac",
  "args": [
    "0x951397286E4b78aE5827502ed494d7902D3CCA8C",
    "0xe382d9f2394A359B01006faa8A1864b8a60d2710",
    "0x3d9819210A31b4961b30EF54bE2aeD79B9c9Cd3B",
    "0xc00e94Cb662C3520282E6f5717214004A7f26888",
    "0x4Ddc2D193948926D02f9B1fE9e1daa0718270ED5",
    "CompoundStrategyETH"
  ],
  "numDeployments": 1,
  "solcInputHash": "868425899f6a91ac32274c91dac3d167",
  "bytecode": "0x60e0604052600080546001600160a01b03191673c02aaa39b223fe8d0a0e5c4f27ead9083c756cc2178155610e106004556005556127106006553480156200004657600080fd5b50604051620041583803806200415883398101604081905262000069916200044a565b8585858585858585836001600160a01b038316620000ce5760405162461bcd60e51b815260206004820152601460248201527f706f6f6c2d616464726573732d69732d7a65726f00000000000000000000000060448201526064015b60405180910390fd5b6001600160a01b0382166200011b5760405162461bcd60e51b8152602060048201526012602482015271736d2d616464726573732d69732d7a65726f60701b6044820152606401620000c5565b600380546001600160a01b0319166001600160a01b0384811691909117909155831660a081905260408051637e062a3560e11b8152905163fc0c546a91600480820192602092909190829003018186803b1580156200017957600080fd5b505afa1580156200018e573d6000803e3d6000fd5b505050506040513d601f19601f82011682018060405250810190620001b4919062000594565b6001600160a01b03908116608052600180546001600160a01b031916918316919091179055620001fb620001e53390565b60076200030360201b6200172d1790919060201c565b6200023d5760405162461bcd60e51b81526020600482015260116024820152701859190b5ad9595c195c8b59985a5b1959607a1b6044820152606401620000c5565b5050506001600160a01b038216620002985760405162461bcd60e51b815260206004820152601660248201527f63546f6b656e2d616464726573732d69732d7a65726f000000000000000000006044820152606401620000c5565b600a80546001600160a01b0319166001600160a01b0384161790556127106006558051620002ce90600990602084019062000375565b5050506001600160a01b0391821660c052600b80546001600160a01b0319169190921617905550620005f89650505050505050565b60006200031a836001600160a01b03841662000323565b90505b92915050565b60008181526001830160205260408120546200036c575081546001818101845560008481526020808220909301849055845484825282860190935260409020919091556200031d565b5060006200031d565b8280546200038390620005bb565b90600052602060002090601f016020900481019282620003a75760008555620003f2565b82601f10620003c257805160ff1916838001178555620003f2565b82800160010185558215620003f2579182015b82811115620003f2578251825591602001919060010190620003d5565b506200040092915062000404565b5090565b5b8082111562000400576000815560010162000405565b6001600160a01b03811681146200043157600080fd5b50565b634e487b7160e01b600052604160045260246000fd5b60008060008060008060c087890312156200046457600080fd5b865162000471816200041b565b8096505060208088015162000486816200041b565b604089015190965062000499816200041b565b6060890151909550620004ac816200041b565b6080890151909450620004bf816200041b565b60a08901519093506001600160401b0380821115620004dd57600080fd5b818a0191508a601f830112620004f257600080fd5b81518181111562000507576200050762000434565b604051601f8201601f19908116603f0116810190838211818310171562000532576200053262000434565b816040528281528d868487010111156200054b57600080fd5b600093505b828410156200056f578484018601518185018701529285019262000550565b82841115620005815760008684830101525b8096505050505050509295509295509295565b600060208284031215620005a757600080fd5b8151620005b4816200041b565b9392505050565b600181811c90821680620005d057607f821691505b60208210811415620005f257634e487b7160e01b600052602260045260246000fd5b50919050565b60805160a05160c051613a6c620006ec6000396000818161034801528181611ec10152612211015260008181610234015281816105d2015281816106e5015281816107350152818161087301528181610a2601528181610bda01528181610d2001528181610f8301528181611020015281816112740152818161176d01528181611802015281816118a20152611b1301526000818161045f015281816111a70152818161124b015281816114dd0152818161178e0152818161198001528181611af101528181611b4901528181611d6201528181611dc801528181611f7c015281816124bd01526126010152613a6c6000f3fe6080604052600436106101865760003560e01c8063a3f4df7e116100d7578063d2c35ce811610085578063d2c35ce8146104d7578063d4c3eea0146104f7578063e00af4a71461050c578063e645c2021461052c578063ec78e83214610541578063f7c618c114610561578063fc0c546a14610581578063ffa1ad741461059f57600080fd5b8063a3f4df7e146103f6578063a923b2a614610418578063aa10188614610438578063b2016bd41461044d578063c415b95c14610481578063cd2d7ebe146104a1578063ce5494bb146104b757600080fd5b80634c36fad7116101345780634c36fad7146103165780635f82c67e1461033657806367f5e4b81461036a578063709d039d1461038a5780637d7c2a1c146103aa578063951dc22c146103bf57806399b71d5c146103e157600080fd5b806314ae9f2e1461020257806316f0115b146102225780631aedeabe1461026c5780632e1a7d4d146102905780634032b72b146102b057806342189c8f146102d0578063440d7248146102e657600080fd5b366101fd57600a546001600160a01b03163314806101ae57506000546001600160a01b031633145b6101fb5760405162461bcd60e51b81526020600482015260196024820152783737ba16b0b63637bbb2b216ba3796b9b2b73216b2ba3432b960391b60448201526064015b60405180910390fd5b005b600080fd5b34801561020e57600080fd5b506101fb61021d366004613410565b6105d0565b34801561022e57600080fd5b506102567f000000000000000000000000000000000000000000000000000000000000000081565b604051610263919061342d565b60405180910390f35b34801561027857600080fd5b5061028260065481565b604051908152602001610263565b34801561029c57600080fd5b506101fb6102ab366004613441565b6106e2565b3480156102bc57600080fd5b506101fb6102cb366004613410565b610733565b3480156102dc57600080fd5b5061028260045481565b3480156102f257600080fd5b50610306610301366004613410565b61083f565b6040519015158152602001610263565b34801561032257600080fd5b506101fb610331366004613410565b610871565b34801561034257600080fd5b506102567f000000000000000000000000000000000000000000000000000000000000000081565b34801561037657600080fd5b506101fb610385366004613441565b610a24565b34801561039657600080fd5b50600354610256906001600160a01b031681565b3480156103b657600080fd5b506101fb610b70565b3480156103cb57600080fd5b506103d4610c43565b604051610263919061349e565b3480156103ed57600080fd5b506101fb610c54565b34801561040257600080fd5b5061040b610c90565b60405161026391906134dd565b34801561042457600080fd5b506101fb610433366004613510565b610d1e565b34801561044457600080fd5b506101fb610f53565b34801561045957600080fd5b506102567f000000000000000000000000000000000000000000000000000000000000000081565b34801561048d57600080fd5b50600254610256906001600160a01b031681565b3480156104ad57600080fd5b5061028260055481565b3480156104c357600080fd5b506101fb6104d2366004613410565b610f80565b3480156104e357600080fd5b506101fb6104f2366004613410565b611272565b34801561050357600080fd5b5061028261143b565b34801561051857600080fd5b506101fb610527366004613410565b611466565b34801561053857600080fd5b50610282611685565b34801561054d57600080fd5b50600154610256906001600160a01b031681565b34801561056d57600080fd5b50600b54610256906001600160a01b031681565b34801561058d57600080fd5b506001546001600160a01b0316610256565b3480156105ab57600080fd5b5061040b604051806040016040528060058152602001640342e302e360dc1b81525081565b7f00000000000000000000000000000000000000000000000000000000000000006001600160a01b0316630c340a246040518163ffffffff1660e01b815260040160206040518083038186803b15801561062957600080fd5b505afa15801561063d573d6000803e3d6000fd5b505050506040513d601f19601f820116820180604052508101906106619190613532565b6001600160a01b0316336001600160a01b0316146106915760405162461bcd60e51b81526004016101f29061354f565b61069c600782611749565b6106df5760405162461bcd60e51b81526020600482015260146024820152731c995b5bdd994b5ad9595c195c8b59985a5b195960621b60448201526064016101f2565b50565b337f00000000000000000000000000000000000000000000000000000000000000006001600160a01b03161461072a5760405162461bcd60e51b81526004016101f290613586565b6106df8161175e565b7f00000000000000000000000000000000000000000000000000000000000000006001600160a01b0316630c340a246040518163ffffffff1660e01b815260040160206040518083038186803b15801561078c57600080fd5b505afa1580156107a0573d6000803e3d6000fd5b505050506040513d601f19601f820116820180604052508101906107c49190613532565b6001600160a01b0316336001600160a01b0316146107f45760405162461bcd60e51b81526004016101f29061354f565b6107ff60078261172d565b6106df5760405162461bcd60e51b81526020600482015260116024820152701859190b5ad9595c195c8b59985a5b1959607a1b60448201526064016101f2565b600a546000906001600160a01b038381169116148061086b5750600b546001600160a01b038381169116145b92915050565b7f00000000000000000000000000000000000000000000000000000000000000006001600160a01b0316630c340a246040518163ffffffff1660e01b815260040160206040518083038186803b1580156108ca57600080fd5b505afa1580156108de573d6000803e3d6000fd5b505050506040513d601f19601f820116820180604052508101906109029190613532565b6001600160a01b0316336001600160a01b0316146109325760405162461bcd60e51b81526004016101f29061354f565b6001600160a01b03811661097d5760405162461bcd60e51b8152602060048201526012602482015271736d2d616464726573732d69732d7a65726f60701b60448201526064016101f2565b6003546001600160a01b03828116911614156109c85760405162461bcd60e51b815260206004820152600a602482015269736d2d69732d73616d6560b01b60448201526064016101f2565b6003546040516001600160a01b038084169216907f2d19927e7cac08ceb98b38898a4fdff6da6a27295b9a2d62fe250408ebe044e190600090a3600380546001600160a01b0319166001600160a01b0392909216919091179055565b7f00000000000000000000000000000000000000000000000000000000000000006001600160a01b0316630c340a246040518163ffffffff1660e01b815260040160206040518083038186803b158015610a7d57600080fd5b505afa158015610a91573d6000803e3d6000fd5b505050506040513d601f19601f82011682018060405250810190610ab59190613532565b6001600160a01b0316336001600160a01b031614610ae55760405162461bcd60e51b81526004016101f29061354f565b612710811115610b305760405162461bcd60e51b8152602060048201526016602482015275696e76616c69642d736c6970706167652d76616c756560501b60448201526064016101f2565b60065460408051918252602082018390527ef1c5db862c7598b3b6765552ca951f498611e06412c2d57f8d0b58f82e7f82910160405180910390a1600655565b610b7d335b6007906117d8565b610b995760405162461bcd60e51b81526004016101f2906135b9565b6000806000610ba66117fa565b6040516302df682360e11b815260048101849052602481018390526044810182905292955090935091506001600160a01b037f000000000000000000000000000000000000000000000000000000000000000016906305bed04690606401600060405180830381600087803b158015610c1e57600080fd5b505af1158015610c32573d6000803e3d6000fd5b50505050610c3e611966565b505050565b6060610c4f6007611ad7565b905090565b610c5d33610b75565b610c795760405162461bcd60e51b81526004016101f2906135b9565b610c836000611ae4565b610c8e600019611ae4565b565b60098054610c9d906135e9565b80601f0160208091040260200160405190810160405280929190818152602001828054610cc9906135e9565b8015610d165780601f10610ceb57610100808354040283529160200191610d16565b820191906000526020600020905b815481529060010190602001808311610cf957829003601f168201915b505050505081565b7f00000000000000000000000000000000000000000000000000000000000000006001600160a01b0316630c340a246040518163ffffffff1660e01b815260040160206040518083038186803b158015610d7757600080fd5b505afa158015610d8b573d6000803e3d6000fd5b505050506040513d601f19601f82011682018060405250810190610daf9190613532565b6001600160a01b0316336001600160a01b031614610ddf5760405162461bcd60e51b81526004016101f29061354f565b600360009054906101000a90046001600160a01b03166001600160a01b031663c2fba6676040518163ffffffff1660e01b815260040160206040518083038186803b158015610e2d57600080fd5b505afa158015610e41573d6000803e3d6000fd5b505050506040513d601f19601f82011682018060405250810190610e65919061361e565b8110610eaa5760405162461bcd60e51b81526020600482015260146024820152730d2dcecc2d8d2c85ae4deeae8cae45ad2dcc8caf60631b60448201526064016101f2565b81610eb55760045491505b603b8211610efd5760405162461bcd60e51b81526020600482015260156024820152741a5b9d985b1a590b5bdc9858db194b5c195c9a5bd9605a1b60448201526064016101f2565b6004546005546040805192835260208301859052820152606081018290527f83bc5ab8030537fcf1d29c2334f6d22c26c82dcbe5ff03923d2cff5c692c0a7f9060800160405180910390a1600491909155600555565b610f5c33610b75565b610f785760405162461bcd60e51b81526004016101f2906135b9565b610c8e611cb6565b337f00000000000000000000000000000000000000000000000000000000000000006001600160a01b031614610fc85760405162461bcd60e51b81526004016101f290613586565b6001600160a01b03811661101e5760405162461bcd60e51b815260206004820152601c60248201527f6e65772d73747261746567792d616464726573732d69732d7a65726f0000000060448201526064016101f2565b7f00000000000000000000000000000000000000000000000000000000000000006001600160a01b0316816001600160a01b03166316f0115b6040518163ffffffff1660e01b815260040160206040518083038186803b15801561108157600080fd5b505afa158015611095573d6000803e3d6000fd5b505050506040513d601f19601f820116820180604052508101906110b99190613532565b6001600160a01b0316146111085760405162461bcd60e51b81526020600482015260166024820152756e6f742d76616c69642d6e65772d737472617465677960501b60448201526064016101f2565b6001546040516370a0823160e01b81526111a19183916001600160a01b03909116906370a082319061113e90309060040161342d565b60206040518083038186803b15801561115657600080fd5b505afa15801561116a573d6000803e3d6000fd5b505050506040513d601f19601f8201168201806040525081019061118e919061361e565b6001546001600160a01b03169190611e44565b6106df817f00000000000000000000000000000000000000000000000000000000000000006001600160a01b03166370a08231306040518263ffffffff1660e01b81526004016111f1919061342d565b60206040518083038186803b15801561120957600080fd5b505afa15801561121d573d6000803e3d6000fd5b505050506040513d601f19601f82011682018060405250810190611241919061361e565b6001600160a01b037f0000000000000000000000000000000000000000000000000000000000000000169190611e44565b7f00000000000000000000000000000000000000000000000000000000000000006001600160a01b0316630c340a246040518163ffffffff1660e01b815260040160206040518083038186803b1580156112cb57600080fd5b505afa1580156112df573d6000803e3d6000fd5b505050506040513d601f19601f820116820180604052508101906113039190613532565b6001600160a01b0316336001600160a01b0316146113335760405162461bcd60e51b81526004016101f29061354f565b6001600160a01b0381166113895760405162461bcd60e51b815260206004820152601d60248201527f6665652d636f6c6c6563746f722d616464726573732d69732d7a65726f00000060448201526064016101f2565b6002546001600160a01b03828116911614156113df5760405162461bcd60e51b81526020600482015260156024820152746665652d636f6c6c6563746f722d69732d73616d6560581b60448201526064016101f2565b6002546040516001600160a01b038084169216907f0f06062680f9bd68e786e9980d9bb03d73d5620fc3b345e417b6eacb310b970690600090a3600280546001600160a01b0319166001600160a01b0392909216919091179055565b600b54600090610c4f906001600160a01b0316611459576000611f46565b611461611ea7565b611f46565b61146f33610b75565b61148b5760405162461bcd60e51b81526004016101f2906135b9565b6002546001600160a01b03166114db5760405162461bcd60e51b81526020600482015260156024820152741999594b58dbdb1b1958dd1bdc8b5b9bdd0b5cd95d605a1b60448201526064016101f2565b7f00000000000000000000000000000000000000000000000000000000000000006001600160a01b0316816001600160a01b0316141561155d5760405162461bcd60e51b815260206004820152601f60248201527f6e6f742d616c6c6f7765642d746f2d73776565702d636f6c6c61746572616c0060448201526064016101f2565b6115668161083f565b156115aa5760405162461bcd60e51b815260206004820152601460248201527306e6f742d616c6c6f7765642d746f2d73776565760641b60448201526064016101f2565b6001600160a01b03811673eeeeeeeeeeeeeeeeeeeeeeeeeeeeeeeeeeeeeeee14156115e5576002546106df906001600160a01b031647612092565b6040516370a0823160e01b81526000906001600160a01b038316906370a082319061161490309060040161342d565b60206040518083038186803b15801561162c57600080fd5b505afa158015611640573d6000803e3d6000fd5b505050506040513d601f19601f82011682018060405250810190611664919061361e565b600254909150611681906001600160a01b03848116911683611e44565b5050565b600b546000906001600160a01b031615611723576116a16121ab565b600b546040516370a0823160e01b8152610c4f916001600160a01b0316906370a08231906116d390309060040161342d565b60206040518083038186803b1580156116eb57600080fd5b505afa1580156116ff573d6000803e3d6000fd5b505050506040513d601f19601f82011682018060405250810190611461919061361e565b610c4f6000611f46565b6000611742836001600160a01b03841661227f565b9392505050565b6000611742836001600160a01b0384166122ce565b611767816123c1565b506106df7f00000000000000000000000000000000000000000000000000000000000000007f00000000000000000000000000000000000000000000000000000000000000006001600160a01b03166370a08231306040518263ffffffff1660e01b81526004016111f1919061342d565b6001600160a01b03811660009081526001830160205260408120541515611742565b6000806000807f00000000000000000000000000000000000000000000000000000000000000006001600160a01b031663d53ddc26306040518263ffffffff1660e01b815260040161184c919061342d565b60206040518083038186803b15801561186457600080fd5b505afa158015611878573d6000803e3d6000fd5b505050506040513d601f19601f8201168201806040525081019061189c919061361e565b905060007f00000000000000000000000000000000000000000000000000000000000000006001600160a01b0316639f2b2833306040518263ffffffff1660e01b81526004016118ec919061342d565b60206040518083038186803b15801561190457600080fd5b505afa158015611918573d6000803e3d6000fd5b505050506040513d601f19601f8201168201806040525081019061193c919061361e565b9050611947816124b6565b945061195281612686565b935061195d826126d7565b92505050909192565b6040516370a0823160e01b81526000906001600160a01b037f000000000000000000000000000000000000000000000000000000000000000016906370a08231906119b590309060040161342d565b60206040518083038186803b1580156119cd57600080fd5b505afa1580156119e1573d6000803e3d6000fd5b505050506040513d601f19601f82011682018060405250810190611a05919061361e565b905080156106df57600054604051632e1a7d4d60e01b8152600481018390526001600160a01b0390911690632e1a7d4d90602401600060405180830381600087803b158015611a5357600080fd5b505af1158015611a67573d6000803e3d6000fd5b50505050600a60009054906101000a90046001600160a01b03166001600160a01b0316631249c58b826040518263ffffffff1660e01b81526004016000604051808303818588803b158015611abb57600080fd5b505af1158015611acf573d6000803e3d6000fd5b505050505050565b60606000611742836126ed565b611b386001600160a01b037f0000000000000000000000000000000000000000000000000000000000000000167f000000000000000000000000000000000000000000000000000000000000000083612749565b600a54611b72906001600160a01b037f00000000000000000000000000000000000000000000000000000000000000008116911683612749565b600b546001600160a01b0316156106df5760005b600360009054906101000a90046001600160a01b03166001600160a01b031663c2fba6676040518163ffffffff1660e01b815260040160206040518083038186803b158015611bd457600080fd5b505afa158015611be8573d6000803e3d6000fd5b505050506040513d601f19601f82011682018060405250810190611c0c919061361e565b81101561168157600354604051636e74a6f760e01b815260048101839052611ca4916001600160a01b031690636e74a6f79060240160206040518083038186803b158015611c5957600080fd5b505afa158015611c6d573d6000803e3d6000fd5b505050506040513d601f19601f82011682018060405250810190611c919190613532565b600b546001600160a01b03169084612749565b80611cae8161364d565b915050611b86565b600b546001600160a01b031615611d5d57600354600b5460005460048054600554604051630f30f2d360e21b81526001600160a01b0396871696633cc3cb4c96611d099690821695911693929101613668565b602060405180830381600087803b158015611d2357600080fd5b505af1158015611d37573d6000803e3d6000fd5b505050506040513d601f19601f82011682018060405250810190611d5b9190613532565b505b6000547f00000000000000000000000000000000000000000000000000000000000000006001600160a01b03908116911614610c8e5760035460005460048054600554604051630f30f2d360e21b81526001600160a01b0395861695633cc3cb4c95611df2959116937f0000000000000000000000000000000000000000000000000000000000000000939092909101613668565b602060405180830381600087803b158015611e0c57600080fd5b505af1158015611e20573d6000803e3d6000fd5b505050506040513d601f19601f820116820180604052508101906106df9190613532565b6040516001600160a01b038316602482015260448101829052610c3e90849063a9059cbb60e01b906064015b60408051601f198184030181529190526020810180516001600160e01b03166001600160e01b03199093169290921790915261286d565b60405163331faf7160e21b81526000906001600160a01b037f0000000000000000000000000000000000000000000000000000000000000000169063cc7ebdc490611ef690309060040161342d565b60206040518083038186803b158015611f0e57600080fd5b505afa158015611f22573d6000803e3d6000fd5b505050506040513d601f19601f82011682018060405250810190610c4f919061361e565b6000811561200157600354600b546040516340b4c54560e11b81526001600160a01b03928316926381698a8a92611fa9929116907f0000000000000000000000000000000000000000000000000000000000000000908790600090600401613668565b60006040518083038186803b158015611fc157600080fd5b505afa158015611fd5573d6000803e3d6000fd5b505050506040513d6000823e601f3d908101601f19168201604052611ffd9190810190613770565b9150505b600a546040516370a0823160e01b8152612088916001600160a01b0316906370a082319061203390309060040161342d565b60206040518083038186803b15801561204b57600080fd5b505afa15801561205f573d6000803e3d6000fd5b505050506040513d601f19601f82011682018060405250810190612083919061361e565b61293f565b61086b90826137b7565b804710156120e25760405162461bcd60e51b815260206004820152601d60248201527f416464726573733a20696e73756666696369656e742062616c616e636500000060448201526064016101f2565b6000826001600160a01b03168260405160006040518083038185875af1925050503d806000811461212f576040519150601f19603f3d011682016040523d82523d6000602084013e612134565b606091505b5050905080610c3e5760405162461bcd60e51b815260206004820152603a60248201527f416464726573733a20756e61626c6520746f2073656e642076616c75652c207260448201527f6563697069656e74206d6179206861766520726576657274656400000000000060648201526084016101f2565b604080516001808252818301909252600091602080830190803683375050600a5482519293506001600160a01b0316918391506000906121ed576121ed6137cf565b6001600160a01b03928316602091820292909201015260405162e1ed9760e51b81527f000000000000000000000000000000000000000000000000000000000000000090911690631c3db2e09061224a90309085906004016137e5565b600060405180830381600087803b15801561226457600080fd5b505af1158015612278573d6000803e3d6000fd5b5050505050565b60008181526001830160205260408120546122c65750815460018181018455600084815260208082209093018490558454848252828601909352604090209190915561086b565b50600061086b565b600081815260018301602052604081205480156123b75760006122f2600183613809565b855490915060009061230690600190613809565b905081811461236b576000866000018281548110612326576123266137cf565b9060005260206000200154905080876000018481548110612349576123496137cf565b6000918252602080832090910192909255918252600188019052604090208390555b855486908061237c5761237c613820565b60019003818190600052602060002001600090559055856001016000868152602001908152602001600020600090556001935050505061086b565b600091505061086b565b600a546040516370a0823160e01b815260009182916123f8916001600160a01b0316906370a082319061203390309060040161342d565b90506000600a60009054906101000a90046001600160a01b03166001600160a01b0316633b1d21a26040518163ffffffff1660e01b815260040160206040518083038186803b15801561244a57600080fd5b505afa15801561245e573d6000803e3d6000fd5b505050506040513d601f19601f82011682018060405250810190612482919061361e565b905060008185106124935781612495565b845b90506124ad8382106124a757836129e4565b816129e4565b95945050505050565b60006124e17f0000000000000000000000000000000000000000000000000000000000000000612ac3565b600a546040516370a0823160e01b8152600091612518916001600160a01b03909116906370a082319061203390309060040161342d565b9050828111156125ea57600061252e8483613809565b90506000600a60009054906101000a90046001600160a01b03166001600160a01b031663182df0f56040518163ffffffff1660e01b815260040160206040518083038186803b15801561258057600080fd5b505afa158015612594573d6000803e3d6000fd5b505050506040513d601f19601f820116820180604052508101906125b8919061361e565b6125ca83670de0b6b3a7640000613836565b6125d49190613855565b905080156125e7576125e5826129e4565b505b50505b6040516370a0823160e01b81526001600160a01b037f000000000000000000000000000000000000000000000000000000000000000016906370a082319061263690309060040161342d565b60206040518083038186803b15801561264e57600080fd5b505afa158015612662573d6000803e3d6000fd5b505050506040513d601f19601f82011682018060405250810190611742919061361e565b600a546040516370a0823160e01b815260009182916126bd916001600160a01b0316906370a082319061203390309060040161342d565b9050828110156126d1576117428184613809565b50919050565b600081156126e85761086b826123c1565b919050565b60608160000180548060200260200160405190810160405280929190818152602001828054801561273d57602002820191906000526020600020905b815481526020019060010190808311612729575b50505050509050919050565b8015806127d25750604051636eb1769f60e11b81523060048201526001600160a01b03838116602483015284169063dd62ed3e9060440160206040518083038186803b15801561279857600080fd5b505afa1580156127ac573d6000803e3d6000fd5b505050506040513d601f19601f820116820180604052508101906127d0919061361e565b155b61283d5760405162461bcd60e51b815260206004820152603660248201527f5361666545524332303a20617070726f76652066726f6d206e6f6e2d7a65726f60448201527520746f206e6f6e2d7a65726f20616c6c6f77616e636560501b60648201526084016101f2565b6040516001600160a01b038316602482015260448101829052610c3e90849063095ea7b360e01b90606401611e70565b60006128c2826040518060400160405280602081526020017f5361666545524332303a206c6f772d6c6576656c2063616c6c206661696c6564815250856001600160a01b0316612bc19092919063ffffffff16565b805190915015610c3e57808060200190518101906128e09190613887565b610c3e5760405162461bcd60e51b815260206004820152602a60248201527f5361666545524332303a204552433230206f7065726174696f6e20646964206e6044820152691bdd081cdd58d8d9595960b21b60648201526084016101f2565b6000670de0b6b3a7640000600a60009054906101000a90046001600160a01b03166001600160a01b031663182df0f56040518163ffffffff1660e01b815260040160206040518083038186803b15801561299857600080fd5b505afa1580156129ac573d6000803e3d6000fd5b505050506040513d601f19601f820116820180604052508101906129d0919061361e565b6129da9084613836565b61086b9190613855565b60008115612abf57600a5460405163852a12e360e01b8152600481018490526001600160a01b039091169063852a12e390602401602060405180830381600087803b158015612a3257600080fd5b505af1158015612a46573d6000803e3d6000fd5b505050506040513d601f19601f82011682018060405250810190612a6a919061361e565b15612ab75760405162461bcd60e51b815260206004820152601d60248201527f77697468647261772d66726f6d2d636f6d706f756e642d6661696c656400000060448201526064016101f2565b612abf612bd8565b5090565b600b546001600160a01b0316156106df57612adc6121ab565b600b546040516370a0823160e01b81526000916001600160a01b0316906370a0823190612b0d90309060040161342d565b60206040518083038186803b158015612b2557600080fd5b505afa158015612b39573d6000803e3d6000fd5b505050506040513d601f19601f82011682018060405250810190612b5d919061361e565b905080156116815760006006546127101415612b7a576001612ba6565b600b54612ba690612b9e90612b98906001600160a01b031686612c26565b84612da4565b600654612eb3565b600b54909150610c3e906001600160a01b0316848484612ed6565b6060612bd084846000856130b7565b949350505050565b60008054906101000a90046001600160a01b03166001600160a01b031663d0e30db0476040518263ffffffff1660e01b81526004016000604051808303818588803b15801561226457600080fd5b6000546060906001600160a01b0384811691161480612c5257506000546001600160a01b038381169116145b15612ce45760408051600280825260608201835290916020830190803683370190505090508281600081518110612c8b57612c8b6137cf565b60200260200101906001600160a01b031690816001600160a01b0316815250508181600181518110612cbf57612cbf6137cf565b60200260200101906001600160a01b031690816001600160a01b03168152505061086b565b6040805160038082526080820190925290602082016060803683370190505090508281600081518110612d1957612d196137cf565b6001600160a01b039283166020918202929092010152600054825191169082906001908110612d4a57612d4a6137cf565b60200260200101906001600160a01b031690816001600160a01b0316815250508181600281518110612d7e57612d7e6137cf565b60200260200101906001600160a01b031690816001600160a01b03168152505092915050565b60006001835111612ded5760405162461bcd60e51b81526020600482015260136024820152720d2dcecc2d8d2c85adee4c2c6d8ca5ae0c2e8d606b1b60448201526064016101f2565b50806000805b60018551612e019190613809565b811015612eab57612e51858281518110612e1d57612e1d6137cf565b602002602001015186836001612e3391906137b7565b81518110612e4357612e436137cf565b6020026020010151856131df565b909350915081612e995760405162461bcd60e51b8152602060048201526013602482015272696e76616c69642d6f7261636c652d7261746560681b60448201526064016101f2565b80612ea38161364d565b915050612df3565b505092915050565b6000612710612ec28382613809565b612ecc9085613836565b6117429190613855565b826001600160a01b0316846001600160a01b03161415612ef5576130b1565b600354604051631d1f307960e31b81526001600160a01b038681166004830152858116602483015260448201859052600092839283929091169063e8f983c89060640160006040518083038186803b158015612f5057600080fd5b505afa158015612f64573d6000803e3d6000fd5b505050506040513d6000823e601f3d908101601f19168201604052612f8c91908101906138a2565b9250925092508360001415612fa057600193505b81156130ad57600354604051636e74a6f760e01b8152600481018390526001600160a01b0390911690636e74a6f79060240160206040518083038186803b158015612fea57600080fd5b505afa158015612ffe573d6000803e3d6000fd5b505050506040513d601f19601f820116820180604052508101906130229190613532565b6001600160a01b03166338ed173986868630426040518663ffffffff1660e01b81526004016130559594939291906138f2565b600060405180830381600087803b15801561306f57600080fd5b505af1158015613083573d6000803e3d6000fd5b505050506040513d6000823e601f3d908101601f191682016040526130ab919081019061392e565b505b5050505b50505050565b6060824710156131185760405162461bcd60e51b815260206004820152602660248201527f416464726573733a20696e73756666696369656e742062616c616e636520666f6044820152651c8818d85b1b60d21b60648201526084016101f2565b843b6131665760405162461bcd60e51b815260206004820152601d60248201527f416464726573733a2063616c6c20746f206e6f6e2d636f6e747261637400000060448201526064016101f2565b600080866001600160a01b0316858760405161318291906139b4565b60006040518083038185875af1925050503d80600081146131bf576040519150601f19603f3d011682016040523d82523d6000602084013e6131c4565b606091505b50915091506131d48282866133c2565b979650505050505050565b60008060005b600360009054906101000a90046001600160a01b03166001600160a01b031663c2fba6676040518163ffffffff1660e01b815260040160206040518083038186803b15801561323357600080fd5b505afa158015613247573d6000803e3d6000fd5b505050506040513d601f19601f8201168201806040525081019061326b919061361e565b8110156133b157600354600454604080516001600160a01b038a811660208301528981168284015260608201899052608082019390935260a08082018690528251808303909101815260c08201909252600093849316916132d89163b67bb24d60e01b919060e0016139d0565b60408051601f19818403018152908290526132f2916139b4565b6000604051808303816000865af19150503d806000811461332f576040519150601f19603f3d011682016040523d82523d6000602084013e613334565b606091505b5091509150811561339c57600080828060200190518101906133569190613a01565b5091509150600454426133699190613809565b8111801561337657508115155b1561338b57509450600193506133ba92505050565b6000809650965050505050506133ba565b505080806133a99061364d565b9150506131e5565b50600080915091505b935093915050565b606083156133d1575081611742565b8251156133e15782518084602001fd5b8160405162461bcd60e51b81526004016101f291906134dd565b6001600160a01b03811681146106df57600080fd5b60006020828403121561342257600080fd5b8135611742816133fb565b6001600160a01b0391909116815260200190565b60006020828403121561345357600080fd5b5035919050565b600081518084526020808501945080840160005b838110156134935781516001600160a01b03168752958201959082019060010161346e565b509495945050505050565b602081526000611742602083018461345a565b60005b838110156134cc5781810151838201526020016134b4565b838111156130b15750506000910152565b60208152600082518060208401526134fc8160408501602087016134b1565b601f01601f19169190910160400192915050565b6000806040838503121561352357600080fd5b50508035926020909101359150565b60006020828403121561354457600080fd5b8151611742816133fb565b6020808252601a908201527f63616c6c65722d69732d6e6f742d7468652d676f7665726e6f72000000000000604082015260600190565b60208082526019908201527818d85b1b195c8b5a5ccb5b9bdd0b5d995cdc195c8b5c1bdbdb603a1b604082015260600190565b60208082526016908201527531b0b63632b916b4b996b737ba16b096b5b2b2b832b960511b604082015260600190565b600181811c908216806135fd57607f821691505b602082108114156126d157634e487b7160e01b600052602260045260246000fd5b60006020828403121561363057600080fd5b5051919050565b634e487b7160e01b600052601160045260246000fd5b600060001982141561366157613661613637565b5060010190565b6001600160a01b0394851681529290931660208301526040820152606081019190915260800190565b634e487b7160e01b600052604160045260246000fd5b604051601f8201601f1916810167ffffffffffffffff811182821017156136d0576136d0613691565b604052919050565b600067ffffffffffffffff8211156136f2576136f2613691565b5060051b60200190565b600082601f83011261370d57600080fd5b8151602061372261371d836136d8565b6136a7565b82815260059290921b8401810191818101908684111561374157600080fd5b8286015b84811015613765578051613758816133fb565b8352918301918301613745565b509695505050505050565b6000806040838503121561378357600080fd5b825167ffffffffffffffff81111561379a57600080fd5b6137a6858286016136fc565b925050602083015190509250929050565b600082198211156137ca576137ca613637565b500190565b634e487b7160e01b600052603260045260246000fd5b6001600160a01b0383168152604060208201819052600090612bd09083018461345a565b60008282101561381b5761381b613637565b500390565b634e487b7160e01b600052603160045260246000fd5b600081600019048311821515161561385057613850613637565b500290565b60008261387257634e487b7160e01b600052601260045260246000fd5b500490565b805180151581146126e857600080fd5b60006020828403121561389957600080fd5b61174282613877565b6000806000606084860312156138b757600080fd5b835167ffffffffffffffff8111156138ce57600080fd5b6138da868287016136fc565b93505060208401519150604084015190509250925092565b85815284602082015260a06040820152600061391160a083018661345a565b6001600160a01b0394909416606083015250608001529392505050565b6000602080838503121561394157600080fd5b825167ffffffffffffffff81111561395857600080fd5b8301601f8101851361396957600080fd5b805161397761371d826136d8565b81815260059190911b8201830190838101908783111561399657600080fd5b928401925b828410156131d45783518252928401929084019061399b565b600082516139c68184602087016134b1565b9190910192915050565b6001600160e01b03198316815281516000906139f38160048501602087016134b1565b919091016004019392505050565b600080600060608486031215613a1657600080fd5b8351925060208401519150613a2d60408501613877565b9050925092509256fea264697066735822122085ced706ea20587152b1530e0c981987a538bcc131bb486c0e3d06042385a73664736f6c63430008090033",
  "devdoc": {
    "kind": "dev",
    "methods": {
      "addKeeper(address)": {
        "params": {
          "_keeperAddress": "keeper address to add."
        }
      },
      "approveToken()": {
        "details": "Approve all required tokens"
      },
      "migrate(address)": {
        "details": "_beforeMigration hook can be implemented in child strategy to do extra steps.",
        "params": {
          "_newStrategy": "Address of new strategy"
        }
      },
      "rebalance()": {
        "details": "Rebalance profit, loss and investment of this strategy"
      },
      "removeKeeper(address)": {
        "params": {
          "_keeperAddress": "keeper address to remove."
        }
      },
      "sweepERC20(address)": {
        "details": "sweep given token to feeCollector of strategy",
        "params": {
          "_fromToken": "token address to sweep"
        }
      },
      "totalValue()": {
        "details": "Report total value in collateral token"
      },
      "totalValueCurrent()": {
        "details": "Report total value in collateral token"
      },
      "updateFeeCollector(address)": {
        "params": {
          "_feeCollector": "fee collector address"
        }
      },
      "updateSwapManager(address)": {
        "params": {
          "_swapManager": "swap manager address"
        }
      },
      "withdraw(uint256)": {
        "details": "Withdraw collateral token from lending pool.",
        "params": {
          "_amount": "Amount of collateral token"
        }
      }
    },
    "title": "Deposit ETH/WETH in Compound and earn interest.",
    "version": 1
  },
  "userdoc": {
    "kind": "user",
    "methods": {
      "addKeeper(address)": {
        "notice": "Add given address in keepers list."
      },
      "isReservedToken(address)": {
        "notice": "Check whether given token is reserved or not. Reserved tokens are not allowed to sweep."
      },
      "keepers()": {
        "notice": "Return list of keepers"
      },
      "migrate(address)": {
        "notice": "Migrate all asset and vault ownership,if any, to new strategy"
      },
      "removeKeeper(address)": {
        "notice": "Remove given address from keepers list."
      },
      "token()": {
        "notice": "Returns address of token correspond to collateral token"
      },
      "totalValue()": {
        "notice": "Calculate total value using COMP accrued and cToken"
      },
      "totalValueCurrent()": {
        "notice": "Calculate total value of asset under management (in real-time)"
      },
      "updateFeeCollector(address)": {
        "notice": "Update fee collector"
      },
      "updateSwapManager(address)": {
        "notice": "Update swap manager address"
      }
    },
    "version": 1
  },
  "storageLayout": {
    "storage": [
      {
        "astId": 13972,
        "contract": "contracts/strategies/compound/CompoundStrategyETH.sol:CompoundStrategyETH",
        "label": "WETH",
        "offset": 0,
        "slot": "0",
        "type": "t_address"
      },
      {
        "astId": 13977,
        "contract": "contracts/strategies/compound/CompoundStrategyETH.sol:CompoundStrategyETH",
        "label": "receiptToken",
        "offset": 0,
        "slot": "1",
        "type": "t_address"
      },
      {
        "astId": 13983,
        "contract": "contracts/strategies/compound/CompoundStrategyETH.sol:CompoundStrategyETH",
        "label": "feeCollector",
        "offset": 0,
        "slot": "2",
        "type": "t_address"
      },
      {
        "astId": 13986,
        "contract": "contracts/strategies/compound/CompoundStrategyETH.sol:CompoundStrategyETH",
        "label": "swapManager",
        "offset": 0,
        "slot": "3",
        "type": "t_contract(ISwapManager)5729"
      },
      {
        "astId": 13989,
        "contract": "contracts/strategies/compound/CompoundStrategyETH.sol:CompoundStrategyETH",
        "label": "oraclePeriod",
        "offset": 0,
        "slot": "4",
        "type": "t_uint256"
      },
      {
        "astId": 13992,
        "contract": "contracts/strategies/compound/CompoundStrategyETH.sol:CompoundStrategyETH",
        "label": "oracleRouterIdx",
        "offset": 0,
        "slot": "5",
        "type": "t_uint256"
      },
      {
        "astId": 13995,
        "contract": "contracts/strategies/compound/CompoundStrategyETH.sol:CompoundStrategyETH",
        "label": "swapSlippage",
        "offset": 0,
        "slot": "6",
        "type": "t_uint256"
      },
      {
        "astId": 13998,
        "contract": "contracts/strategies/compound/CompoundStrategyETH.sol:CompoundStrategyETH",
        "label": "_keepers",
        "offset": 0,
        "slot": "7",
        "type": "t_struct(AddressSet)4634_storage"
      },
      {
        "astId": 25573,
        "contract": "contracts/strategies/compound/CompoundStrategyETH.sol:CompoundStrategyETH",
        "label": "NAME",
        "offset": 0,
        "slot": "9",
        "type": "t_string_storage"
      },
      {
        "astId": 25579,
        "contract": "contracts/strategies/compound/CompoundStrategyETH.sol:CompoundStrategyETH",
        "label": "cToken",
        "offset": 0,
        "slot": "10",
        "type": "t_contract(CToken)5864"
      },
      {
        "astId": 25584,
        "contract": "contracts/strategies/compound/CompoundStrategyETH.sol:CompoundStrategyETH",
        "label": "rewardToken",
        "offset": 0,
        "slot": "11",
        "type": "t_address"
      }
    ],
    "types": {
      "t_address": {
        "encoding": "inplace",
        "label": "address",
        "numberOfBytes": "20"
      },
      "t_array(t_bytes32)dyn_storage": {
        "base": "t_bytes32",
        "encoding": "dynamic_array",
        "label": "bytes32[]",
        "numberOfBytes": "32"
      },
      "t_bytes32": {
        "encoding": "inplace",
        "label": "bytes32",
        "numberOfBytes": "32"
      },
      "t_contract(CToken)5864": {
        "encoding": "inplace",
        "label": "contract CToken",
        "numberOfBytes": "20"
      },
      "t_contract(ISwapManager)5729": {
        "encoding": "inplace",
        "label": "contract ISwapManager",
        "numberOfBytes": "20"
      },
      "t_mapping(t_bytes32,t_uint256)": {
        "encoding": "mapping",
        "key": "t_bytes32",
        "label": "mapping(bytes32 => uint256)",
        "numberOfBytes": "32",
        "value": "t_uint256"
      },
      "t_string_storage": {
        "encoding": "bytes",
        "label": "string",
        "numberOfBytes": "32"
      },
      "t_struct(AddressSet)4634_storage": {
        "encoding": "inplace",
        "label": "struct EnumerableSet.AddressSet",
        "members": [
          {
            "astId": 4633,
            "contract": "contracts/strategies/compound/CompoundStrategyETH.sol:CompoundStrategyETH",
            "label": "_inner",
            "offset": 0,
            "slot": "0",
            "type": "t_struct(Set)4333_storage"
          }
        ],
        "numberOfBytes": "64"
      },
      "t_struct(Set)4333_storage": {
        "encoding": "inplace",
        "label": "struct EnumerableSet.Set",
        "members": [
          {
            "astId": 4328,
            "contract": "contracts/strategies/compound/CompoundStrategyETH.sol:CompoundStrategyETH",
            "label": "_values",
            "offset": 0,
            "slot": "0",
            "type": "t_array(t_bytes32)dyn_storage"
          },
          {
            "astId": 4332,
            "contract": "contracts/strategies/compound/CompoundStrategyETH.sol:CompoundStrategyETH",
            "label": "_indexes",
            "offset": 0,
            "slot": "1",
            "type": "t_mapping(t_bytes32,t_uint256)"
          }
        ],
        "numberOfBytes": "64"
      },
      "t_uint256": {
        "encoding": "inplace",
        "label": "uint256",
        "numberOfBytes": "32"
      }
    }
  }
}